{
	"data": {
		"bytecode": {
			"linkReferences": {},
			"object": "608060405234801561001057600080fd5b50600080546001600160a01b03191633179055613d84806100326000396000f3fe60806040523480156200001157600080fd5b5060043610620001155760003560e01c8063947fd5c311620000a3578063d43b8fab116200006e578063d43b8fab1462000251578063e35f90641462000268578063e5806a80146200027f578063fcd6704c146200029657600080fd5b8063947fd5c314620001f55780639efb6289146200020c578063a50dfd781462000223578063ad200d51146200023a57600080fd5b80632c8b8c0311620000e45780632c8b8c03146200019c57806340ca85c614620001b35780638da5cb5b14620001ca578063907e152214620001de57600080fd5b806304740a17146200011a5780631440a7f2146200012657806321132777146200013d5780632661317e1462000185575b600080fd5b62000124620002ad565b005b620001246200013736600462001e7d565b620003fa565b620001696200014e36600462001ea0565b6002602052600090815260409020546001600160a01b031681565b6040516001600160a01b03909116815260200160405180910390f35b620001246200019636600462001e7d565b620005d3565b62000124620001ad36600462001e7d565b62000795565b62000124620001c436600462001ea0565b62000994565b60005462000169906001600160a01b031681565b62000124620001ef36600462001ea0565b62000b01565b620001246200020636600462001ea0565b62000cb5565b620001246200021d36600462001ea0565b62000e1e565b620001246200023436600462001f8b565b62001006565b620001246200024b36600462001fd6565b62001112565b62000124620002623660046200206a565b620012c3565b620001246200027936600462001e7d565b620014eb565b620001246200029036600462001ea0565b620016de565b62000124620002a736600462001ea0565b62001886565b60015460009067ffffffffffffffff811115620002ce57620002ce62001eba565b604051908082528060200260200182016040528015620002f8578160200160208202803683370190505b50905060005b600154811015620003bd57600181815481106200031f576200031f620020b5565b6000918252602091829020015460408051635897591960e01b815290516001600160a01b03909216926358975919926004808401938290030181865afa1580156200036e573d6000803e3d6000fd5b505050506040513d601f19601f82011682018060405250810190620003949190620020cb565b828281518110620003a957620003a9620020b5565b6020908102919091010152600101620002fe565b507f4f5794dc13a8a38741e73215d85a19b6e0204538c586a80b7b9fe438333a843481604051620003ef9190620020e5565b60405180910390a150565b6000546001600160a01b031633146200041257600080fd5b6200041d8262001a6e565b15156001146200044a5760405162461bcd60e51b815260040162000441906200212b565b60405180910390fd5b62000456828262001b2a565b15620004a55760405162461bcd60e51b815260206004820152601760248201527f526563697069656e7420416c7265616479206578697374000000000000000000604482015260640162000441565b60005b600154811015620005ce578260018281548110620004ca57620004ca620020b5565b6000918252602091829020015460408051635897591960e01b815290516001600160a01b03909216926358975919926004808401938290030181865afa15801562000519573d6000803e3d6000fd5b505050506040513d601f19601f820116820180604052508101906200053f9190620020cb565b03620005c557600181815481106200055b576200055b620020b5565b60009182526020909120015460405163fc68b3ed60e01b8152600481018490526001600160a01b039091169063fc68b3ed90602401600060405180830381600087803b158015620005ab57600080fd5b505af1158015620005c0573d6000803e3d6000fd5b505050505b600101620004a8565b505050565b6000546001600160a01b03163314620005eb57600080fd5b620005f68262001a6e565b15156001146200061a5760405162461bcd60e51b815260040162000441906200212b565b62000626828262001cbb565b156200066c5760405162461bcd60e51b815260206004820152601460248201527313dc9858db1948105b1c9958591e48195e1a5cdd60621b604482015260640162000441565b60005b600154811015620005ce578260018281548110620006915762000691620020b5565b6000918252602091829020015460408051635897591960e01b815290516001600160a01b03909216926358975919926004808401938290030181865afa158015620006e0573d6000803e3d6000fd5b505050506040513d601f19601f82011682018060405250810190620007069190620020cb565b036200078c5760018181548110620007225762000722620020b5565b60009182526020909120015460405163e5a72d5b60e01b8152600481018490526001600160a01b039091169063e5a72d5b90602401600060405180830381600087803b1580156200077257600080fd5b505af115801562000787573d6000803e3d6000fd5b505050505b6001016200066f565b620007a08262001a6e565b1515600114620007c45760405162461bcd60e51b815260040162000441906200212b565b620007d0828262001b2a565b1515600114620007f45760405162461bcd60e51b8152600401620004419062002157565b60408051808201909152600b81526a4e6f20726573706f6e736560a81b602082015260005b600154811015620009555783600182815481106200083b576200083b620020b5565b6000918252602091829020015460408051635897591960e01b815290516001600160a01b03909216926358975919926004808401938290030181865afa1580156200088a573d6000803e3d6000fd5b505050506040513d601f19601f82011682018060405250810190620008b09190620020cb565b036200094c5760018181548110620008cc57620008cc620020b5565b600091825260209091200154604051638901ada760e01b8152600481018590526001600160a01b0390911690638901ada790602401600060405180830381865afa1580156200091f573d6000803e3d6000fd5b505050506040513d6000823e601f3d908101601f19168201604052620009499190810190620021b4565b91505b60010162000819565b507fb749d4cbef5280ab440645a46bbada3f52c0d015210cfceabd4e5b4e49195f778160405162000987919062002262565b60405180910390a1505050565b6000546001600160a01b03163314620009ac57600080fd5b620009b78162001a6e565b1515600114620009db5760405162461bcd60e51b815260040162000441906200212b565b60005b60015481101562000afd57816001828154811062000a005762000a00620020b5565b6000918252602091829020015460408051635897591960e01b815290516001600160a01b03909216926358975919926004808401938290030181865afa15801562000a4f573d6000803e3d6000fd5b505050506040513d601f19601f8201168201806040525081019062000a759190620020cb565b0362000af4576001818154811062000a915762000a91620020b5565b6000918252602082200154604080516335254bcd60e01b815290516001600160a01b03909216926335254bcd9260048084019382900301818387803b15801562000ada57600080fd5b505af115801562000aef573d6000803e3d6000fd5b505050505b600101620009de565b5050565b62000b0c8162001a6e565b151560011462000b305760405162461bcd60e51b815260040162000441906200212b565b604080516020810190915260008082525b60015481101562000c7757826001828154811062000b635762000b63620020b5565b6000918252602091829020015460408051635897591960e01b815290516001600160a01b03909216926358975919926004808401938290030181865afa15801562000bb2573d6000803e3d6000fd5b505050506040513d601f19601f8201168201806040525081019062000bd89190620020cb565b0362000c6e576001818154811062000bf45762000bf4620020b5565b600091825260208220015460408051638594c12760e01b815290516001600160a01b0390921692638594c127926004808401938290030181865afa15801562000c41573d6000803e3d6000fd5b505050506040513d6000823e601f3d908101601f1916820160405262000c6b9190810190620021b4565b91505b60010162000b41565b507f13361d17317a0cb3eb8bae7c04ee902b187495738379b7181f39a2e86a02874e8160405162000ca9919062002262565b60405180910390a15050565b6000546001600160a01b0316331462000ccd57600080fd5b62000cd88162001a6e565b151560011462000cfc5760405162461bcd60e51b815260040162000441906200212b565b60005b60015481101562000afd57816001828154811062000d215762000d21620020b5565b6000918252602091829020015460408051635897591960e01b815290516001600160a01b03909216926358975919926004808401938290030181865afa15801562000d70573d6000803e3d6000fd5b505050506040513d601f19601f8201168201806040525081019062000d969190620020cb565b0362000e15576001818154811062000db25762000db2620020b5565b60009182526020822001546040805163ac3ef22d60e01b815290516001600160a01b039092169263ac3ef22d9260048084019382900301818387803b15801562000dfb57600080fd5b505af115801562000e10573d6000803e3d6000fd5b505050505b60010162000cff565b62000e298162001a6e565b151560011462000e4d5760405162461bcd60e51b815260040162000441906200212b565b60015460009067ffffffffffffffff81111562000e6e5762000e6e62001eba565b60405190808252806020026020018201604052801562000e98578160200160208202803683370190505b50905060005b60015481101562000fd457826001828154811062000ec05762000ec0620020b5565b6000918252602091829020015460408051635897591960e01b815290516001600160a01b03909216926358975919926004808401938290030181865afa15801562000f0f573d6000803e3d6000fd5b505050506040513d601f19601f8201168201806040525081019062000f359190620020cb565b0362000fcb576001818154811062000f515762000f51620020b5565b6000918252602082200154604080516365a6bb2960e01b815290516001600160a01b03909216926365a6bb29926004808401938290030181865afa15801562000f9e573d6000803e3d6000fd5b505050506040513d6000823e601f3d908101601f1916820160405262000fc891908101906200227e565b91505b60010162000e9e565b507f523e8984927a9be39116923c5fd0b9633f17f802e7f282c8ad00c549cec847868160405162000ca99190620020e5565b6000546001600160a01b031633146200101e57600080fd5b620010298262001a6e565b156200106d5760405162461bcd60e51b8152602060048201526012602482015271155cd95c88185b1c9958591e48195e1a5cdd60721b604482015260640162000441565b600082826040516200107f9062001e6f565b6200108c9291906200232f565b604051809103906000f080158015620010a9573d6000803e3d6000fd5b50600180548082019091557fb10e2d527612073b26eecdfd717e6a320cf44b4afac2b0732d9fcbe2b7fa0cf60180546001600160a01b039092166001600160a01b0319928316811790915560009485526002602052604090942080549091169093179092555050565b6000546001600160a01b031633146200112a57600080fd5b620011358462001a6e565b1515600114620011595760405162461bcd60e51b815260040162000441906200212b565b62001165848462001b2a565b1515600114620011895760405162461bcd60e51b8152600401620004419062002157565b60005b600154811015620012bc578460018281548110620011ae57620011ae620020b5565b6000918252602091829020015460408051635897591960e01b815290516001600160a01b03909216926358975919926004808401938290030181865afa158015620011fd573d6000803e3d6000fd5b505050506040513d601f19601f82011682018060405250810190620012239190620020cb565b03620012b357600181815481106200123f576200123f620020b5565b60009182526020909120015460405163262faa9360e21b81526001600160a01b03909116906398beaa4c906200127e9087908790879060040162002352565b600060405180830381600087803b1580156200129957600080fd5b505af1158015620012ae573d6000803e3d6000fd5b505050505b6001016200118c565b5050505050565b6000546001600160a01b03163314620012db57600080fd5b620012e68462001a6e565b15156001146200130a5760405162461bcd60e51b815260040162000441906200212b565b62001316848462001b2a565b15156001146200133a5760405162461bcd60e51b8152600401620004419062002157565b62001346828262001e40565b1515600114620013b25760405162461bcd60e51b815260206004820152603060248201527f4966206572656469747920697320274163636570746564272074696d6520636160448201526f6e27742062652027457870697265642760801b606482015260840162000441565b60005b600154811015620012bc578460018281548110620013d757620013d7620020b5565b6000918252602091829020015460408051635897591960e01b815290516001600160a01b03909216926358975919926004808401938290030181865afa15801562001426573d6000803e3d6000fd5b505050506040513d601f19601f820116820180604052508101906200144c9190620020cb565b03620014e25760018181548110620014685762001468620020b5565b6000918252602090912001546040516338fcbc0160e01b815260048101869052841515602482015283151560448201526001600160a01b03909116906338fcbc0190606401600060405180830381600087803b158015620014c857600080fd5b505af1158015620014dd573d6000803e3d6000fd5b505050505b600101620013b5565b620014f68262001a6e565b15156001146200151a5760405162461bcd60e51b815260040162000441906200212b565b62001526828262001b2a565b15156001146200154a5760405162461bcd60e51b8152600401620004419062002157565b60408051808201909152600c81526b04e6f2074696d657374616d760a41b602082015260005b600154811015620016ac578360018281548110620015925762001592620020b5565b6000918252602091829020015460408051635897591960e01b815290516001600160a01b03909216926358975919926004808401938290030181865afa158015620015e1573d6000803e3d6000fd5b505050506040513d601f19601f82011682018060405250810190620016079190620020cb565b03620016a35760018181548110620016235762001623620020b5565b60009182526020909120015460405163cc20315560e01b8152600481018590526001600160a01b039091169063cc20315590602401600060405180830381865afa15801562001676573d6000803e3d6000fd5b505050506040513d6000823e601f3d908101601f19168201604052620016a09190810190620021b4565b91505b60010162001570565b507fc8458765d4e221135788ae78db5d184676a6c57384bb8e908ba066ba2c12ad2d8160405162000987919062002262565b620016e98162001a6e565b15156001146200170d5760405162461bcd60e51b815260040162000441906200212b565b604080516020810190915260008082525b60015481101562001854578260018281548110620017405762001740620020b5565b6000918252602091829020015460408051635897591960e01b815290516001600160a01b03909216926358975919926004808401938290030181865afa1580156200178f573d6000803e3d6000fd5b505050506040513d601f19601f82011682018060405250810190620017b59190620020cb565b036200184b5760018181548110620017d157620017d1620020b5565b600091825260208220015460408051637f4e484960e01b815290516001600160a01b0390921692637f4e4849926004808401938290030181865afa1580156200181e573d6000803e3d6000fd5b505050506040513d6000823e601f3d908101601f19168201604052620018489190810190620021b4565b91505b6001016200171e565b507f53079af32418e10c6a5218fd7e6451639a426e7d4871f95549d82b1702d6e3708160405162000ca9919062002262565b620018918162001a6e565b1515600114620018b55760405162461bcd60e51b815260040162000441906200212b565b60015460009067ffffffffffffffff811115620018d657620018d662001eba565b60405190808252806020026020018201604052801562001900578160200160208202803683370190505b50905060005b60015481101562001a3c578260018281548110620019285762001928620020b5565b6000918252602091829020015460408051635897591960e01b815290516001600160a01b03909216926358975919926004808401938290030181865afa15801562001977573d6000803e3d6000fd5b505050506040513d601f19601f820116820180604052508101906200199d9190620020cb565b0362001a335760018181548110620019b957620019b9620020b5565b60009182526020822001546040805163b74513c160e01b815290516001600160a01b039092169263b74513c1926004808401938290030181865afa15801562001a06573d6000803e3d6000fd5b505050506040513d6000823e601f3d908101601f1916820160405262001a3091908101906200227e565b91505b60010162001906565b507fd40cf2e69523c112fb0b83935636c14a025b62ce6e83ab4c8456dfa50e4626b38160405162000ca99190620020e5565b6000805b60015481101562001b2157826001828154811062001a945762001a94620020b5565b6000918252602091829020015460408051635897591960e01b815290516001600160a01b03909216926358975919926004808401938290030181865afa15801562001ae3573d6000803e3d6000fd5b505050506040513d601f19601f8201168201806040525081019062001b099190620020cb565b0362001b185750600192915050565b60010162001a72565b50600092915050565b6000805b60015481101562001caf57836001828154811062001b505762001b50620020b5565b6000918252602091829020015460408051635897591960e01b815290516001600160a01b03909216926358975919926004808401938290030181865afa15801562001b9f573d6000803e3d6000fd5b505050506040513d601f19601f8201168201806040525081019062001bc59190620020cb565b0362001ca65760006001828154811062001be35762001be3620020b5565b60009182526020822001546040805163b74513c160e01b815290516001600160a01b039092169263b74513c1926004808401938290030181865afa15801562001c30573d6000803e3d6000fd5b505050506040513d6000823e601f3d908101601f1916820160405262001c5a91908101906200227e565b905060005b815181101562001ca3578482828151811062001c7f5762001c7f620020b5565b60200260200101510362001c9a576001935050505062001cb5565b60010162001c5f565b50505b60010162001b2e565b50600090505b92915050565b6000805b60015481101562001caf57836001828154811062001ce15762001ce1620020b5565b6000918252602091829020015460408051635897591960e01b815290516001600160a01b03909216926358975919926004808401938290030181865afa15801562001d30573d6000803e3d6000fd5b505050506040513d601f19601f8201168201806040525081019062001d569190620020cb565b0362001e375760006001828154811062001d745762001d74620020b5565b6000918252602082200154604080516365a6bb2960e01b815290516001600160a01b03909216926365a6bb29926004808401938290030181865afa15801562001dc1573d6000803e3d6000fd5b505050506040513d6000823e601f3d908101601f1916820160405262001deb91908101906200227e565b905060005b815181101562001e34578482828151811062001e105762001e10620020b5565b60200260200101510362001e2b576001935050505062001cb5565b60010162001df0565b50505b60010162001cbf565b6000600183151514801562001e5757506001821515145b1562001e665750600062001cb5565b50600192915050565b6119c3806200238c83390190565b6000806040838503121562001e9157600080fd5b50508035926020909101359150565b60006020828403121562001eb357600080fd5b5035919050565b634e487b7160e01b600052604160045260246000fd5b604051601f8201601f1916810167ffffffffffffffff8111828210171562001efc5762001efc62001eba565b604052919050565b600067ffffffffffffffff82111562001f215762001f2162001eba565b50601f01601f191660200190565b600082601f83011262001f4157600080fd5b813562001f5862001f528262001f04565b62001ed0565b81815284602083860101111562001f6e57600080fd5b816020850160208301376000918101602001919091529392505050565b6000806040838503121562001f9f57600080fd5b82359150602083013567ffffffffffffffff81111562001fbe57600080fd5b62001fcc8582860162001f2f565b9150509250929050565b6000806000806080858703121562001fed57600080fd5b8435935060208501359250604085013567ffffffffffffffff808211156200201457600080fd5b620020228883890162001f2f565b935060608701359150808211156200203957600080fd5b50620020488782880162001f2f565b91505092959194509250565b803580151581146200206557600080fd5b919050565b600080600080608085870312156200208157600080fd5b84359350602085013592506200209a6040860162002054565b9150620020aa6060860162002054565b905092959194509250565b634e487b7160e01b600052603260045260246000fd5b600060208284031215620020de57600080fd5b5051919050565b6020808252825182820181905260009190848201906040850190845b818110156200211f5783518352928401929184019160010162002101565b50909695505050505050565b602080825260129082015271155cd95c88191bd95cdb89dd08195e1a5cdd60721b604082015260600190565b60208082526017908201527f526563697069656e7420646f65736e2774206578697374000000000000000000604082015260600190565b60005b83811015620021ab57818101518382015260200162002191565b50506000910152565b600060208284031215620021c757600080fd5b815167ffffffffffffffff811115620021df57600080fd5b8201601f81018413620021f157600080fd5b80516200220262001f528262001f04565b8181528560208385010111156200221857600080fd5b6200222b8260208301602086016200218e565b95945050505050565b600081518084526200224e8160208601602086016200218e565b601f01601f19169290920160200192915050565b60208152600062002277602083018462002234565b9392505050565b600060208083850312156200229257600080fd5b825167ffffffffffffffff80821115620022ab57600080fd5b818501915085601f830112620022c057600080fd5b815181811115620022d557620022d562001eba565b8060051b9150620022e884830162001ed0565b81815291830184019184810190888411156200230357600080fd5b938501935b83851015620023235784518252938501939085019062002308565b98975050505050505050565b8281526040602082015260006200234a604083018462002234565b949350505050565b8381526060602082015260006200236d606083018562002234565b828103604084015262002381818562002234565b969550505050505056fe60806040523480156200001157600080fd5b50604051620019c3380380620019c3833981016040819052620000349162000097565b60018290556003805463ff0000001916630100000017905560026200005a828262000208565b50506003805462ffffff1916905550600080546001600160a01b03191633179055620002d4565b634e487b7160e01b600052604160045260246000fd5b60008060408385031215620000ab57600080fd5b8251602080850151919350906001600160401b0380821115620000cd57600080fd5b818601915086601f830112620000e257600080fd5b815181811115620000f757620000f762000081565b604051601f8201601f19908116603f0116810190838211818310171562000122576200012262000081565b8160405282815289868487010111156200013b57600080fd5b600093505b828410156200015f578484018601518185018701529285019262000140565b60008684830101528096505050505050509250929050565b600181811c908216806200018c57607f821691505b602082108103620001ad57634e487b7160e01b600052602260045260246000fd5b50919050565b601f82111562000203576000816000526020600020601f850160051c81016020861015620001de5750805b601f850160051c820191505b81811015620001ff57828155600101620001ea565b5050505b505050565b81516001600160401b0381111562000224576200022462000081565b6200023c8162000235845462000177565b84620001b3565b602080601f8311600181146200027457600084156200025b5750858301515b600019600386901b1c1916600185901b178555620001ff565b600085815260208120601f198616915b82811015620002a55788860151825594840194600190910190840162000284565b5085821015620002c45787850151600019600388901b60f8161c191681555b5050505050600190811b01905550565b6116df80620002e46000396000f3fe608060405234801561001057600080fd5b50600436106101375760003560e01c80638da5cb5b116100b8578063b74513c11161007c578063b74513c11461027d578063cc20315514610285578063e5a72d5b14610298578063fc68b3ed146102ab578063fdcf2da6146102be578063fea132d7146102d157600080fd5b80638da5cb5b14610212578063904c60941461023d57806398beaa4c14610245578063abcc7a6514610258578063ac3ef22d1461027557600080fd5b806365a6bb29116100ff57806365a6bb29146101ac5780637f4e4849146101c157806384731d6f146101d65780638594c127146101f75780638901ada7146101ff57600080fd5b806335254bcd1461013c57806338fcbc011461014657806342be8cb514610159578063499ba0aa1461017f57806358975919146101a3575b600080fd5b6101446102e3565b005b610144610154366004611168565b610372565b61016c6101673660046111a4565b610575565b6040519081526020015b60405180910390f35b61019261018d3660046111a4565b610596565b604051610176959493929190611223565b61016c60015481565b6101b46106ee565b6040516101769190611279565b6101c96107ab565b60405161017691906112bd565b6003546101ea906301000000900460ff1681565b60405161017691906112d7565b6101c9610826565b6101c961020d3660046111a4565b6108a8565b600054610225906001600160a01b031681565b6040516001600160a01b039091168152602001610176565b6101c9610acf565b610144610253366004611394565b610b5d565b6003546102659060ff1681565b6040519015158152602001610176565b610144610cd9565b6101b4610d8f565b6101c96102933660046111a4565b610e4a565b6101446102a63660046111a4565b610f33565b6101446102b93660046111a4565b610fb4565b6003546102659062010000900460ff1681565b60035461026590610100900460ff1681565b6000546001600160a01b031633146102fa57600080fd5b60035460ff16156103265760405162461bcd60e51b815260040161031d90611401565b60405180910390fd5b60006003546301000000900460ff1660018111156103465761034661120d565b146103635760405162461bcd60e51b815260040161031d90611438565b6003805460ff19166001179055565b6000546001600160a01b0316331461038957600080fd5b60035460ff16156103ac5760405162461bcd60e51b815260040161031d90611401565b60006003546301000000900460ff1660018111156103cc576103cc61120d565b146103e95760405162461bcd60e51b815260040161031d90611438565b60035462010000900460ff16156104425760405162461bcd60e51b815260206004820152601e60248201527f526563697069656e7420526573706f6e736520616c7265616479207365740000604482015260640161031d565b60005b60045481101561056f57836004828154811061046357610463611465565b90600052602060002090600402016000015403610567578215156001036104d05760006004828154811061049957610499611465565b60009182526020909120600360049092020101805460ff191660018360028111156104c6576104c661120d565b0217905550610518565b6001600482815481106104e5576104e5611465565b60009182526020909120600360049092020101805460ff191660018360028111156105125761051261120d565b02179055505b816004828154811061052c5761052c611465565b600091825260209091206003600490920201810180549215156101000261ff001990931692909217909155805462ff00001916620100001790555b600101610445565b50505050565b6005818154811061058557600080fd5b600091825260209091200154905081565b600481815481106105a657600080fd5b600091825260209091206004909102018054600182018054919350906105cb9061147b565b80601f01602080910402602001604051908101604052809291908181526020018280546105f79061147b565b80156106445780601f1061061957610100808354040283529160200191610644565b820191906000526020600020905b81548152906001019060200180831161062757829003601f168201915b5050505050908060020180546106599061147b565b80601f01602080910402602001604051908101604052809291908181526020018280546106859061147b565b80156106d25780601f106106a7576101008083540402835291602001916106d2565b820191906000526020600020905b8154815290600101906020018083116106b557829003601f168201915b5050506003909301549192505060ff8082169161010090041685565b6000546060906001600160a01b0316331461070857600080fd5b60055460009067ffffffffffffffff811115610726576107266112f1565b60405190808252806020026020018201604052801561074f578160200160208202803683370190505b50905060005b6005548110156107a5576005818154811061077257610772611465565b906000526020600020016000015482828151811061079257610792611465565b6020908102919091010152600101610755565b50919050565b6000546060906001600160a01b031633146107c557600080fd5b60035460ff1615156001036107fe575060408051808201909152600f81526e10dbdb9d1c9858dd0810db1bdcd959608a1b602082015290565b5060408051808201909152600d81526c21b7b73a3930b1ba1027b832b760991b602082015290565b6000546060906001600160a01b0316331461084057600080fd5b60006003546301000000900460ff1660018111156108605761086061120d565b036108885750604080518082019091526008815267111958d9585cd95960c21b602082015290565b50604080518082019091526005815264416c69766560d81b602082015290565b6000546060906001600160a01b031633146108c257600080fd5b60005b600454811015610aab5782600482815481106108e3576108e3611465565b90600052602060002090600402016000015403610aa35760006004828154811061090f5761090f611465565b600091825260209091206003600490920201015460ff1660028111156109375761093761120d565b036109625750506040805180820190915260088152671058d8d95c1d195960c21b6020820152919050565b60016004828154811061097757610977611465565b600091825260209091206003600490920201015460ff16600281111561099f5761099f61120d565b1480156109d85750600481815481106109ba576109ba611465565b6000918252602090912060049091020160030154610100900460ff16155b15610a0357505060408051808201909152600881526714995a9958dd195960c21b6020820152919050565b600160048281548110610a1857610a18611465565b600091825260209091206003600490920201015460ff166002811115610a4057610a4061120d565b148015610a7e575060048181548110610a5b57610a5b611465565b600091825260209091206003600490920201015460ff6101009091041615156001145b15610aa357604051806060016040528060328152602001611678603291399392505050565b6001016108c5565b50506040805180820190915260068152656e6f6461746160d01b6020820152919050565b60028054610adc9061147b565b80601f0160208091040260200160405190810160405280929190818152602001828054610b089061147b565b8015610b555780601f10610b2a57610100808354040283529160200191610b55565b820191906000526020600020905b815481529060010190602001808311610b3857829003601f168201915b505050505081565b6000546001600160a01b03163314610b7457600080fd5b60035460ff1615610b975760405162461bcd60e51b815260040161031d90611401565b60006003546301000000900460ff166001811115610bb757610bb761120d565b14610bd45760405162461bcd60e51b815260040161031d90611438565b600354610100900460ff1615610c255760405162461bcd60e51b8152602060048201526016602482015275151a5b594814dd185b5c08185b1c9958591e481cd95d60521b604482015260640161031d565b60005b60045481101561056f578360048281548110610c4657610c46611465565b90600052602060002090600402016000015403610cd1578260048281548110610c7157610c71611465565b90600052602060002090600402016001019081610c8e9190611500565b508160048281548110610ca357610ca3611465565b90600052602060002090600402016002019081610cc09190611500565b506003805461ff0019166101001790555b600101610c28565b6000546001600160a01b03163314610cf057600080fd5b60016003546301000000900460ff166001811115610d1057610d1061120d565b14610d5d5760405162461bcd60e51b815260206004820152601c60248201527f5573657220646563656173656420697320616c72656164792073657400000000604482015260640161031d565b60035460ff1615610d805760405162461bcd60e51b815260040161031d90611401565b6003805463ff00000019169055565b6000546060906001600160a01b03163314610da957600080fd5b60045460009067ffffffffffffffff811115610dc757610dc76112f1565b604051908082528060200260200182016040528015610df0578160200160208202803683370190505b50905060005b6004548110156107a55760048181548110610e1357610e13611465565b906000526020600020906004020160000154828281518110610e3757610e37611465565b6020908102919091010152600101610df6565b6000546060906001600160a01b03163314610e6457600080fd5b60005b600454811015610aab578260048281548110610e8557610e85611465565b90600052602060002090600402016000015403610f2b5760048181548110610eaf57610eaf611465565b9060005260206000209060040201600201604051602001610ed09190611633565b60405160208183030381529060405260048281548110610ef257610ef2611465565b9060005260206000209060040201600101604051602001610f14929190611650565b604051602081830303815290604052915050919050565b600101610e67565b6000546001600160a01b03163314610f4a57600080fd5b60035460ff1615610f6d5760405162461bcd60e51b815260040161031d90611401565b60408051602081019091529081526005805460018101825560009190915290517f036b6384b5eca791c62761152d0c79bb0604c104a5fb6f4eb0703f3154bb3db090910155565b6000546001600160a01b03163314610fcb57600080fd5b60035460ff1615610fee5760405162461bcd60e51b815260040161031d90611401565b610ff6611113565b818152600260608201819052506040805180820182526006808252656e6f6461746160d01b602080840182905285810193845284518086018652928352820152918301919091526000608083018190526004805460018101825591819052835191027f8a35acfbc15ff81a39ae7d344fd709f28e8600b4aa8c65c6b64bfe7fe36bd19b8101918255915183927f8a35acfbc15ff81a39ae7d344fd709f28e8600b4aa8c65c6b64bfe7fe36bd19c01906110af9082611500565b50604082015160028201906110c49082611500565b50606082015160038201805460ff191660018360028111156110e8576110e861120d565b021790555060809190910151600390910180549115156101000261ff00199092169190911790555050565b6040518060a00160405280600081526020016060815260200160608152602001600060028111156111465761114661120d565b8152600060209091015290565b8035801515811461116357600080fd5b919050565b60008060006060848603121561117d57600080fd5b8335925061118d60208501611153565b915061119b60408501611153565b90509250925092565b6000602082840312156111b657600080fd5b5035919050565b60005b838110156111d85781810151838201526020016111c0565b50506000910152565b600081518084526111f98160208601602086016111bd565b601f01601f19169290920160200192915050565b634e487b7160e01b600052602160045260246000fd5b85815260a06020820152600061123c60a08301876111e1565b828103604084015261124e81876111e1565b915050600384106112615761126161120d565b83606083015282151560808301529695505050505050565b6020808252825182820181905260009190848201906040850190845b818110156112b157835183529284019291840191600101611295565b50909695505050505050565b6020815260006112d060208301846111e1565b9392505050565b60208101600283106112eb576112eb61120d565b91905290565b634e487b7160e01b600052604160045260246000fd5b600082601f83011261131857600080fd5b813567ffffffffffffffff80821115611333576113336112f1565b604051601f8301601f19908116603f0116810190828211818310171561135b5761135b6112f1565b8160405283815286602085880101111561137457600080fd5b836020870160208301376000602085830101528094505050505092915050565b6000806000606084860312156113a957600080fd5b83359250602084013567ffffffffffffffff808211156113c857600080fd5b6113d487838801611307565b935060408601359150808211156113ea57600080fd5b506113f786828701611307565b9150509250925092565b60208082526018908201527f536d61727420436f6e747261637420697320636c6f7365640000000000000000604082015260600190565b60208082526013908201527255736572206973207374696c6c20616c69766560681b604082015260600190565b634e487b7160e01b600052603260045260246000fd5b600181811c9082168061148f57607f821691505b6020821081036107a557634e487b7160e01b600052602260045260246000fd5b601f8211156114fb576000816000526020600020601f850160051c810160208610156114d85750805b601f850160051c820191505b818110156114f7578281556001016114e4565b5050505b505050565b815167ffffffffffffffff81111561151a5761151a6112f1565b61152e81611528845461147b565b846114af565b602080601f831160018114611563576000841561154b5750858301515b600019600386901b1c1916600185901b1785556114f7565b600085815260208120601f198616915b8281101561159257888601518255948401946001909101908401611573565b50858210156115b05787850151600019600388901b60f8161c191681555b5050505050600190811b01905550565b600081546115cd8161147b565b600182811680156115e557600181146115fa57611629565b60ff1984168752821515830287019450611629565b8560005260208060002060005b858110156116205781548a820152908401908201611607565b50505082870194505b5050505092915050565b600061163f82846115c0565b600160fd1b81526001019392505050565b600083516116628184602088016111bd565b61166e818401856115c0565b9594505050505056fe52656a65637465642c2074696d6520657870697265643a206e6f20726573706f6e73652066726f6d20726563697069656e74a26469706673582212205effa390aaf3fc661ddf31e9757dda1c6b9a50687a061d905ce54ae6592cacb164736f6c63430008170033a2646970667358221220fde88b8fc507cad8c4074314807e253290b2c215720dc100c1402f5ded9c3d0164736f6c63430008170033",
			"opcodes": "PUSH1 0x80 PUSH1 0x40 MSTORE CALLVALUE DUP1 ISZERO PUSH2 0x10 JUMPI PUSH1 0x0 DUP1 REVERT JUMPDEST POP PUSH1 0x0 DUP1 SLOAD PUSH1 0x1 PUSH1 0x1 PUSH1 0xA0 SHL SUB NOT AND CALLER OR SWAP1 SSTORE PUSH2 0x3D84 DUP1 PUSH2 0x32 PUSH1 0x0 CODECOPY PUSH1 0x0 RETURN INVALID PUSH1 0x80 PUSH1 0x40 MSTORE CALLVALUE DUP1 ISZERO PUSH3 0x11 JUMPI PUSH1 0x0 DUP1 REVERT JUMPDEST POP PUSH1 0x4 CALLDATASIZE LT PUSH3 0x115 JUMPI PUSH1 0x0 CALLDATALOAD PUSH1 0xE0 SHR DUP1 PUSH4 0x947FD5C3 GT PUSH3 0xA3 JUMPI DUP1 PUSH4 0xD43B8FAB GT PUSH3 0x6E JUMPI DUP1 PUSH4 0xD43B8FAB EQ PUSH3 0x251 JUMPI DUP1 PUSH4 0xE35F9064 EQ PUSH3 0x268 JUMPI DUP1 PUSH4 0xE5806A80 EQ PUSH3 0x27F JUMPI DUP1 PUSH4 0xFCD6704C EQ PUSH3 0x296 JUMPI PUSH1 0x0 DUP1 REVERT JUMPDEST DUP1 PUSH4 0x947FD5C3 EQ PUSH3 0x1F5 JUMPI DUP1 PUSH4 0x9EFB6289 EQ PUSH3 0x20C JUMPI DUP1 PUSH4 0xA50DFD78 EQ PUSH3 0x223 JUMPI DUP1 PUSH4 0xAD200D51 EQ PUSH3 0x23A JUMPI PUSH1 0x0 DUP1 REVERT JUMPDEST DUP1 PUSH4 0x2C8B8C03 GT PUSH3 0xE4 JUMPI DUP1 PUSH4 0x2C8B8C03 EQ PUSH3 0x19C JUMPI DUP1 PUSH4 0x40CA85C6 EQ PUSH3 0x1B3 JUMPI DUP1 PUSH4 0x8DA5CB5B EQ PUSH3 0x1CA JUMPI DUP1 PUSH4 0x907E1522 EQ PUSH3 0x1DE JUMPI PUSH1 0x0 DUP1 REVERT JUMPDEST DUP1 PUSH4 0x4740A17 EQ PUSH3 0x11A JUMPI DUP1 PUSH4 0x1440A7F2 EQ PUSH3 0x126 JUMPI DUP1 PUSH4 0x21132777 EQ PUSH3 0x13D JUMPI DUP1 PUSH4 0x2661317E EQ PUSH3 0x185 JUMPI JUMPDEST PUSH1 0x0 DUP1 REVERT JUMPDEST PUSH3 0x124 PUSH3 0x2AD JUMP JUMPDEST STOP JUMPDEST PUSH3 0x124 PUSH3 0x137 CALLDATASIZE PUSH1 0x4 PUSH3 0x1E7D JUMP JUMPDEST PUSH3 0x3FA JUMP JUMPDEST PUSH3 0x169 PUSH3 0x14E CALLDATASIZE PUSH1 0x4 PUSH3 0x1EA0 JUMP JUMPDEST PUSH1 0x2 PUSH1 0x20 MSTORE PUSH1 0x0 SWAP1 DUP2 MSTORE PUSH1 0x40 SWAP1 KECCAK256 SLOAD PUSH1 0x1 PUSH1 0x1 PUSH1 0xA0 SHL SUB AND DUP2 JUMP JUMPDEST PUSH1 0x40 MLOAD PUSH1 0x1 PUSH1 0x1 PUSH1 0xA0 SHL SUB SWAP1 SWAP2 AND DUP2 MSTORE PUSH1 0x20 ADD PUSH1 0x40 MLOAD DUP1 SWAP2 SUB SWAP1 RETURN JUMPDEST PUSH3 0x124 PUSH3 0x196 CALLDATASIZE PUSH1 0x4 PUSH3 0x1E7D JUMP JUMPDEST PUSH3 0x5D3 JUMP JUMPDEST PUSH3 0x124 PUSH3 0x1AD CALLDATASIZE PUSH1 0x4 PUSH3 0x1E7D JUMP JUMPDEST PUSH3 0x795 JUMP JUMPDEST PUSH3 0x124 PUSH3 0x1C4 CALLDATASIZE PUSH1 0x4 PUSH3 0x1EA0 JUMP JUMPDEST PUSH3 0x994 JUMP JUMPDEST PUSH1 0x0 SLOAD PUSH3 0x169 SWAP1 PUSH1 0x1 PUSH1 0x1 PUSH1 0xA0 SHL SUB AND DUP2 JUMP JUMPDEST PUSH3 0x124 PUSH3 0x1EF CALLDATASIZE PUSH1 0x4 PUSH3 0x1EA0 JUMP JUMPDEST PUSH3 0xB01 JUMP JUMPDEST PUSH3 0x124 PUSH3 0x206 CALLDATASIZE PUSH1 0x4 PUSH3 0x1EA0 JUMP JUMPDEST PUSH3 0xCB5 JUMP JUMPDEST PUSH3 0x124 PUSH3 0x21D CALLDATASIZE PUSH1 0x4 PUSH3 0x1EA0 JUMP JUMPDEST PUSH3 0xE1E JUMP JUMPDEST PUSH3 0x124 PUSH3 0x234 CALLDATASIZE PUSH1 0x4 PUSH3 0x1F8B JUMP JUMPDEST PUSH3 0x1006 JUMP JUMPDEST PUSH3 0x124 PUSH3 0x24B CALLDATASIZE PUSH1 0x4 PUSH3 0x1FD6 JUMP JUMPDEST PUSH3 0x1112 JUMP JUMPDEST PUSH3 0x124 PUSH3 0x262 CALLDATASIZE PUSH1 0x4 PUSH3 0x206A JUMP JUMPDEST PUSH3 0x12C3 JUMP JUMPDEST PUSH3 0x124 PUSH3 0x279 CALLDATASIZE PUSH1 0x4 PUSH3 0x1E7D JUMP JUMPDEST PUSH3 0x14EB JUMP JUMPDEST PUSH3 0x124 PUSH3 0x290 CALLDATASIZE PUSH1 0x4 PUSH3 0x1EA0 JUMP JUMPDEST PUSH3 0x16DE JUMP JUMPDEST PUSH3 0x124 PUSH3 0x2A7 CALLDATASIZE PUSH1 0x4 PUSH3 0x1EA0 JUMP JUMPDEST PUSH3 0x1886 JUMP JUMPDEST PUSH1 0x1 SLOAD PUSH1 0x0 SWAP1 PUSH8 0xFFFFFFFFFFFFFFFF DUP2 GT ISZERO PUSH3 0x2CE JUMPI PUSH3 0x2CE PUSH3 0x1EBA JUMP JUMPDEST PUSH1 0x40 MLOAD SWAP1 DUP1 DUP3 MSTORE DUP1 PUSH1 0x20 MUL PUSH1 0x20 ADD DUP3 ADD PUSH1 0x40 MSTORE DUP1 ISZERO PUSH3 0x2F8 JUMPI DUP2 PUSH1 0x20 ADD PUSH1 0x20 DUP3 MUL DUP1 CALLDATASIZE DUP4 CALLDATACOPY ADD SWAP1 POP JUMPDEST POP SWAP1 POP PUSH1 0x0 JUMPDEST PUSH1 0x1 SLOAD DUP2 LT ISZERO PUSH3 0x3BD JUMPI PUSH1 0x1 DUP2 DUP2 SLOAD DUP2 LT PUSH3 0x31F JUMPI PUSH3 0x31F PUSH3 0x20B5 JUMP JUMPDEST PUSH1 0x0 SWAP2 DUP3 MSTORE PUSH1 0x20 SWAP2 DUP3 SWAP1 KECCAK256 ADD SLOAD PUSH1 0x40 DUP1 MLOAD PUSH4 0x58975919 PUSH1 0xE0 SHL DUP2 MSTORE SWAP1 MLOAD PUSH1 0x1 PUSH1 0x1 PUSH1 0xA0 SHL SUB SWAP1 SWAP3 AND SWAP3 PUSH4 0x58975919 SWAP3 PUSH1 0x4 DUP1 DUP5 ADD SWAP4 DUP3 SWAP1 SUB ADD DUP2 DUP7 GAS STATICCALL ISZERO DUP1 ISZERO PUSH3 0x36E JUMPI RETURNDATASIZE PUSH1 0x0 DUP1 RETURNDATACOPY RETURNDATASIZE PUSH1 0x0 REVERT JUMPDEST POP POP POP POP PUSH1 0x40 MLOAD RETURNDATASIZE PUSH1 0x1F NOT PUSH1 0x1F DUP3 ADD AND DUP3 ADD DUP1 PUSH1 0x40 MSTORE POP DUP2 ADD SWAP1 PUSH3 0x394 SWAP2 SWAP1 PUSH3 0x20CB JUMP JUMPDEST DUP3 DUP3 DUP2 MLOAD DUP2 LT PUSH3 0x3A9 JUMPI PUSH3 0x3A9 PUSH3 0x20B5 JUMP JUMPDEST PUSH1 0x20 SWAP1 DUP2 MUL SWAP2 SWAP1 SWAP2 ADD ADD MSTORE PUSH1 0x1 ADD PUSH3 0x2FE JUMP JUMPDEST POP PUSH32 0x4F5794DC13A8A38741E73215D85A19B6E0204538C586A80B7B9FE438333A8434 DUP2 PUSH1 0x40 MLOAD PUSH3 0x3EF SWAP2 SWAP1 PUSH3 0x20E5 JUMP JUMPDEST PUSH1 0x40 MLOAD DUP1 SWAP2 SUB SWAP1 LOG1 POP JUMP JUMPDEST PUSH1 0x0 SLOAD PUSH1 0x1 PUSH1 0x1 PUSH1 0xA0 SHL SUB AND CALLER EQ PUSH3 0x412 JUMPI PUSH1 0x0 DUP1 REVERT JUMPDEST PUSH3 0x41D DUP3 PUSH3 0x1A6E JUMP JUMPDEST ISZERO ISZERO PUSH1 0x1 EQ PUSH3 0x44A JUMPI PUSH1 0x40 MLOAD PUSH3 0x461BCD PUSH1 0xE5 SHL DUP2 MSTORE PUSH1 0x4 ADD PUSH3 0x441 SWAP1 PUSH3 0x212B JUMP JUMPDEST PUSH1 0x40 MLOAD DUP1 SWAP2 SUB SWAP1 REVERT JUMPDEST PUSH3 0x456 DUP3 DUP3 PUSH3 0x1B2A JUMP JUMPDEST ISZERO PUSH3 0x4A5 JUMPI PUSH1 0x40 MLOAD PUSH3 0x461BCD PUSH1 0xE5 SHL DUP2 MSTORE PUSH1 0x20 PUSH1 0x4 DUP3 ADD MSTORE PUSH1 0x17 PUSH1 0x24 DUP3 ADD MSTORE PUSH32 0x526563697069656E7420416C7265616479206578697374000000000000000000 PUSH1 0x44 DUP3 ADD MSTORE PUSH1 0x64 ADD PUSH3 0x441 JUMP JUMPDEST PUSH1 0x0 JUMPDEST PUSH1 0x1 SLOAD DUP2 LT ISZERO PUSH3 0x5CE JUMPI DUP3 PUSH1 0x1 DUP3 DUP2 SLOAD DUP2 LT PUSH3 0x4CA JUMPI PUSH3 0x4CA PUSH3 0x20B5 JUMP JUMPDEST PUSH1 0x0 SWAP2 DUP3 MSTORE PUSH1 0x20 SWAP2 DUP3 SWAP1 KECCAK256 ADD SLOAD PUSH1 0x40 DUP1 MLOAD PUSH4 0x58975919 PUSH1 0xE0 SHL DUP2 MSTORE SWAP1 MLOAD PUSH1 0x1 PUSH1 0x1 PUSH1 0xA0 SHL SUB SWAP1 SWAP3 AND SWAP3 PUSH4 0x58975919 SWAP3 PUSH1 0x4 DUP1 DUP5 ADD SWAP4 DUP3 SWAP1 SUB ADD DUP2 DUP7 GAS STATICCALL ISZERO DUP1 ISZERO PUSH3 0x519 JUMPI RETURNDATASIZE PUSH1 0x0 DUP1 RETURNDATACOPY RETURNDATASIZE PUSH1 0x0 REVERT JUMPDEST POP POP POP POP PUSH1 0x40 MLOAD RETURNDATASIZE PUSH1 0x1F NOT PUSH1 0x1F DUP3 ADD AND DUP3 ADD DUP1 PUSH1 0x40 MSTORE POP DUP2 ADD SWAP1 PUSH3 0x53F SWAP2 SWAP1 PUSH3 0x20CB JUMP JUMPDEST SUB PUSH3 0x5C5 JUMPI PUSH1 0x1 DUP2 DUP2 SLOAD DUP2 LT PUSH3 0x55B JUMPI PUSH3 0x55B PUSH3 0x20B5 JUMP JUMPDEST PUSH1 0x0 SWAP2 DUP3 MSTORE PUSH1 0x20 SWAP1 SWAP2 KECCAK256 ADD SLOAD PUSH1 0x40 MLOAD PUSH4 0xFC68B3ED PUSH1 0xE0 SHL DUP2 MSTORE PUSH1 0x4 DUP2 ADD DUP5 SWAP1 MSTORE PUSH1 0x1 PUSH1 0x1 PUSH1 0xA0 SHL SUB SWAP1 SWAP2 AND SWAP1 PUSH4 0xFC68B3ED SWAP1 PUSH1 0x24 ADD PUSH1 0x0 PUSH1 0x40 MLOAD DUP1 DUP4 SUB DUP2 PUSH1 0x0 DUP8 DUP1 EXTCODESIZE ISZERO DUP1 ISZERO PUSH3 0x5AB JUMPI PUSH1 0x0 DUP1 REVERT JUMPDEST POP GAS CALL ISZERO DUP1 ISZERO PUSH3 0x5C0 JUMPI RETURNDATASIZE PUSH1 0x0 DUP1 RETURNDATACOPY RETURNDATASIZE PUSH1 0x0 REVERT JUMPDEST POP POP POP POP JUMPDEST PUSH1 0x1 ADD PUSH3 0x4A8 JUMP JUMPDEST POP POP POP JUMP JUMPDEST PUSH1 0x0 SLOAD PUSH1 0x1 PUSH1 0x1 PUSH1 0xA0 SHL SUB AND CALLER EQ PUSH3 0x5EB JUMPI PUSH1 0x0 DUP1 REVERT JUMPDEST PUSH3 0x5F6 DUP3 PUSH3 0x1A6E JUMP JUMPDEST ISZERO ISZERO PUSH1 0x1 EQ PUSH3 0x61A JUMPI PUSH1 0x40 MLOAD PUSH3 0x461BCD PUSH1 0xE5 SHL DUP2 MSTORE PUSH1 0x4 ADD PUSH3 0x441 SWAP1 PUSH3 0x212B JUMP JUMPDEST PUSH3 0x626 DUP3 DUP3 PUSH3 0x1CBB JUMP JUMPDEST ISZERO PUSH3 0x66C JUMPI PUSH1 0x40 MLOAD PUSH3 0x461BCD PUSH1 0xE5 SHL DUP2 MSTORE PUSH1 0x20 PUSH1 0x4 DUP3 ADD MSTORE PUSH1 0x14 PUSH1 0x24 DUP3 ADD MSTORE PUSH20 0x13DC9858DB1948105B1C9958591E48195E1A5CDD PUSH1 0x62 SHL PUSH1 0x44 DUP3 ADD MSTORE PUSH1 0x64 ADD PUSH3 0x441 JUMP JUMPDEST PUSH1 0x0 JUMPDEST PUSH1 0x1 SLOAD DUP2 LT ISZERO PUSH3 0x5CE JUMPI DUP3 PUSH1 0x1 DUP3 DUP2 SLOAD DUP2 LT PUSH3 0x691 JUMPI PUSH3 0x691 PUSH3 0x20B5 JUMP JUMPDEST PUSH1 0x0 SWAP2 DUP3 MSTORE PUSH1 0x20 SWAP2 DUP3 SWAP1 KECCAK256 ADD SLOAD PUSH1 0x40 DUP1 MLOAD PUSH4 0x58975919 PUSH1 0xE0 SHL DUP2 MSTORE SWAP1 MLOAD PUSH1 0x1 PUSH1 0x1 PUSH1 0xA0 SHL SUB SWAP1 SWAP3 AND SWAP3 PUSH4 0x58975919 SWAP3 PUSH1 0x4 DUP1 DUP5 ADD SWAP4 DUP3 SWAP1 SUB ADD DUP2 DUP7 GAS STATICCALL ISZERO DUP1 ISZERO PUSH3 0x6E0 JUMPI RETURNDATASIZE PUSH1 0x0 DUP1 RETURNDATACOPY RETURNDATASIZE PUSH1 0x0 REVERT JUMPDEST POP POP POP POP PUSH1 0x40 MLOAD RETURNDATASIZE PUSH1 0x1F NOT PUSH1 0x1F DUP3 ADD AND DUP3 ADD DUP1 PUSH1 0x40 MSTORE POP DUP2 ADD SWAP1 PUSH3 0x706 SWAP2 SWAP1 PUSH3 0x20CB JUMP JUMPDEST SUB PUSH3 0x78C JUMPI PUSH1 0x1 DUP2 DUP2 SLOAD DUP2 LT PUSH3 0x722 JUMPI PUSH3 0x722 PUSH3 0x20B5 JUMP JUMPDEST PUSH1 0x0 SWAP2 DUP3 MSTORE PUSH1 0x20 SWAP1 SWAP2 KECCAK256 ADD SLOAD PUSH1 0x40 MLOAD PUSH4 0xE5A72D5B PUSH1 0xE0 SHL DUP2 MSTORE PUSH1 0x4 DUP2 ADD DUP5 SWAP1 MSTORE PUSH1 0x1 PUSH1 0x1 PUSH1 0xA0 SHL SUB SWAP1 SWAP2 AND SWAP1 PUSH4 0xE5A72D5B SWAP1 PUSH1 0x24 ADD PUSH1 0x0 PUSH1 0x40 MLOAD DUP1 DUP4 SUB DUP2 PUSH1 0x0 DUP8 DUP1 EXTCODESIZE ISZERO DUP1 ISZERO PUSH3 0x772 JUMPI PUSH1 0x0 DUP1 REVERT JUMPDEST POP GAS CALL ISZERO DUP1 ISZERO PUSH3 0x787 JUMPI RETURNDATASIZE PUSH1 0x0 DUP1 RETURNDATACOPY RETURNDATASIZE PUSH1 0x0 REVERT JUMPDEST POP POP POP POP JUMPDEST PUSH1 0x1 ADD PUSH3 0x66F JUMP JUMPDEST PUSH3 0x7A0 DUP3 PUSH3 0x1A6E JUMP JUMPDEST ISZERO ISZERO PUSH1 0x1 EQ PUSH3 0x7C4 JUMPI PUSH1 0x40 MLOAD PUSH3 0x461BCD PUSH1 0xE5 SHL DUP2 MSTORE PUSH1 0x4 ADD PUSH3 0x441 SWAP1 PUSH3 0x212B JUMP JUMPDEST PUSH3 0x7D0 DUP3 DUP3 PUSH3 0x1B2A JUMP JUMPDEST ISZERO ISZERO PUSH1 0x1 EQ PUSH3 0x7F4 JUMPI PUSH1 0x40 MLOAD PUSH3 0x461BCD PUSH1 0xE5 SHL DUP2 MSTORE PUSH1 0x4 ADD PUSH3 0x441 SWAP1 PUSH3 0x2157 JUMP JUMPDEST PUSH1 0x40 DUP1 MLOAD DUP1 DUP3 ADD SWAP1 SWAP2 MSTORE PUSH1 0xB DUP2 MSTORE PUSH11 0x4E6F20726573706F6E7365 PUSH1 0xA8 SHL PUSH1 0x20 DUP3 ADD MSTORE PUSH1 0x0 JUMPDEST PUSH1 0x1 SLOAD DUP2 LT ISZERO PUSH3 0x955 JUMPI DUP4 PUSH1 0x1 DUP3 DUP2 SLOAD DUP2 LT PUSH3 0x83B JUMPI PUSH3 0x83B PUSH3 0x20B5 JUMP JUMPDEST PUSH1 0x0 SWAP2 DUP3 MSTORE PUSH1 0x20 SWAP2 DUP3 SWAP1 KECCAK256 ADD SLOAD PUSH1 0x40 DUP1 MLOAD PUSH4 0x58975919 PUSH1 0xE0 SHL DUP2 MSTORE SWAP1 MLOAD PUSH1 0x1 PUSH1 0x1 PUSH1 0xA0 SHL SUB SWAP1 SWAP3 AND SWAP3 PUSH4 0x58975919 SWAP3 PUSH1 0x4 DUP1 DUP5 ADD SWAP4 DUP3 SWAP1 SUB ADD DUP2 DUP7 GAS STATICCALL ISZERO DUP1 ISZERO PUSH3 0x88A JUMPI RETURNDATASIZE PUSH1 0x0 DUP1 RETURNDATACOPY RETURNDATASIZE PUSH1 0x0 REVERT JUMPDEST POP POP POP POP PUSH1 0x40 MLOAD RETURNDATASIZE PUSH1 0x1F NOT PUSH1 0x1F DUP3 ADD AND DUP3 ADD DUP1 PUSH1 0x40 MSTORE POP DUP2 ADD SWAP1 PUSH3 0x8B0 SWAP2 SWAP1 PUSH3 0x20CB JUMP JUMPDEST SUB PUSH3 0x94C JUMPI PUSH1 0x1 DUP2 DUP2 SLOAD DUP2 LT PUSH3 0x8CC JUMPI PUSH3 0x8CC PUSH3 0x20B5 JUMP JUMPDEST PUSH1 0x0 SWAP2 DUP3 MSTORE PUSH1 0x20 SWAP1 SWAP2 KECCAK256 ADD SLOAD PUSH1 0x40 MLOAD PUSH4 0x8901ADA7 PUSH1 0xE0 SHL DUP2 MSTORE PUSH1 0x4 DUP2 ADD DUP6 SWAP1 MSTORE PUSH1 0x1 PUSH1 0x1 PUSH1 0xA0 SHL SUB SWAP1 SWAP2 AND SWAP1 PUSH4 0x8901ADA7 SWAP1 PUSH1 0x24 ADD PUSH1 0x0 PUSH1 0x40 MLOAD DUP1 DUP4 SUB DUP2 DUP7 GAS STATICCALL ISZERO DUP1 ISZERO PUSH3 0x91F JUMPI RETURNDATASIZE PUSH1 0x0 DUP1 RETURNDATACOPY RETURNDATASIZE PUSH1 0x0 REVERT JUMPDEST POP POP POP POP PUSH1 0x40 MLOAD RETURNDATASIZE PUSH1 0x0 DUP3 RETURNDATACOPY PUSH1 0x1F RETURNDATASIZE SWAP1 DUP2 ADD PUSH1 0x1F NOT AND DUP3 ADD PUSH1 0x40 MSTORE PUSH3 0x949 SWAP2 SWAP1 DUP2 ADD SWAP1 PUSH3 0x21B4 JUMP JUMPDEST SWAP2 POP JUMPDEST PUSH1 0x1 ADD PUSH3 0x819 JUMP JUMPDEST POP PUSH32 0xB749D4CBEF5280AB440645A46BBADA3F52C0D015210CFCEABD4E5B4E49195F77 DUP2 PUSH1 0x40 MLOAD PUSH3 0x987 SWAP2 SWAP1 PUSH3 0x2262 JUMP JUMPDEST PUSH1 0x40 MLOAD DUP1 SWAP2 SUB SWAP1 LOG1 POP POP POP JUMP JUMPDEST PUSH1 0x0 SLOAD PUSH1 0x1 PUSH1 0x1 PUSH1 0xA0 SHL SUB AND CALLER EQ PUSH3 0x9AC JUMPI PUSH1 0x0 DUP1 REVERT JUMPDEST PUSH3 0x9B7 DUP2 PUSH3 0x1A6E JUMP JUMPDEST ISZERO ISZERO PUSH1 0x1 EQ PUSH3 0x9DB JUMPI PUSH1 0x40 MLOAD PUSH3 0x461BCD PUSH1 0xE5 SHL DUP2 MSTORE PUSH1 0x4 ADD PUSH3 0x441 SWAP1 PUSH3 0x212B JUMP JUMPDEST PUSH1 0x0 JUMPDEST PUSH1 0x1 SLOAD DUP2 LT ISZERO PUSH3 0xAFD JUMPI DUP2 PUSH1 0x1 DUP3 DUP2 SLOAD DUP2 LT PUSH3 0xA00 JUMPI PUSH3 0xA00 PUSH3 0x20B5 JUMP JUMPDEST PUSH1 0x0 SWAP2 DUP3 MSTORE PUSH1 0x20 SWAP2 DUP3 SWAP1 KECCAK256 ADD SLOAD PUSH1 0x40 DUP1 MLOAD PUSH4 0x58975919 PUSH1 0xE0 SHL DUP2 MSTORE SWAP1 MLOAD PUSH1 0x1 PUSH1 0x1 PUSH1 0xA0 SHL SUB SWAP1 SWAP3 AND SWAP3 PUSH4 0x58975919 SWAP3 PUSH1 0x4 DUP1 DUP5 ADD SWAP4 DUP3 SWAP1 SUB ADD DUP2 DUP7 GAS STATICCALL ISZERO DUP1 ISZERO PUSH3 0xA4F JUMPI RETURNDATASIZE PUSH1 0x0 DUP1 RETURNDATACOPY RETURNDATASIZE PUSH1 0x0 REVERT JUMPDEST POP POP POP POP PUSH1 0x40 MLOAD RETURNDATASIZE PUSH1 0x1F NOT PUSH1 0x1F DUP3 ADD AND DUP3 ADD DUP1 PUSH1 0x40 MSTORE POP DUP2 ADD SWAP1 PUSH3 0xA75 SWAP2 SWAP1 PUSH3 0x20CB JUMP JUMPDEST SUB PUSH3 0xAF4 JUMPI PUSH1 0x1 DUP2 DUP2 SLOAD DUP2 LT PUSH3 0xA91 JUMPI PUSH3 0xA91 PUSH3 0x20B5 JUMP JUMPDEST PUSH1 0x0 SWAP2 DUP3 MSTORE PUSH1 0x20 DUP3 KECCAK256 ADD SLOAD PUSH1 0x40 DUP1 MLOAD PUSH4 0x35254BCD PUSH1 0xE0 SHL DUP2 MSTORE SWAP1 MLOAD PUSH1 0x1 PUSH1 0x1 PUSH1 0xA0 SHL SUB SWAP1 SWAP3 AND SWAP3 PUSH4 0x35254BCD SWAP3 PUSH1 0x4 DUP1 DUP5 ADD SWAP4 DUP3 SWAP1 SUB ADD DUP2 DUP4 DUP8 DUP1 EXTCODESIZE ISZERO DUP1 ISZERO PUSH3 0xADA JUMPI PUSH1 0x0 DUP1 REVERT JUMPDEST POP GAS CALL ISZERO DUP1 ISZERO PUSH3 0xAEF JUMPI RETURNDATASIZE PUSH1 0x0 DUP1 RETURNDATACOPY RETURNDATASIZE PUSH1 0x0 REVERT JUMPDEST POP POP POP POP JUMPDEST PUSH1 0x1 ADD PUSH3 0x9DE JUMP JUMPDEST POP POP JUMP JUMPDEST PUSH3 0xB0C DUP2 PUSH3 0x1A6E JUMP JUMPDEST ISZERO ISZERO PUSH1 0x1 EQ PUSH3 0xB30 JUMPI PUSH1 0x40 MLOAD PUSH3 0x461BCD PUSH1 0xE5 SHL DUP2 MSTORE PUSH1 0x4 ADD PUSH3 0x441 SWAP1 PUSH3 0x212B JUMP JUMPDEST PUSH1 0x40 DUP1 MLOAD PUSH1 0x20 DUP2 ADD SWAP1 SWAP2 MSTORE PUSH1 0x0 DUP1 DUP3 MSTORE JUMPDEST PUSH1 0x1 SLOAD DUP2 LT ISZERO PUSH3 0xC77 JUMPI DUP3 PUSH1 0x1 DUP3 DUP2 SLOAD DUP2 LT PUSH3 0xB63 JUMPI PUSH3 0xB63 PUSH3 0x20B5 JUMP JUMPDEST PUSH1 0x0 SWAP2 DUP3 MSTORE PUSH1 0x20 SWAP2 DUP3 SWAP1 KECCAK256 ADD SLOAD PUSH1 0x40 DUP1 MLOAD PUSH4 0x58975919 PUSH1 0xE0 SHL DUP2 MSTORE SWAP1 MLOAD PUSH1 0x1 PUSH1 0x1 PUSH1 0xA0 SHL SUB SWAP1 SWAP3 AND SWAP3 PUSH4 0x58975919 SWAP3 PUSH1 0x4 DUP1 DUP5 ADD SWAP4 DUP3 SWAP1 SUB ADD DUP2 DUP7 GAS STATICCALL ISZERO DUP1 ISZERO PUSH3 0xBB2 JUMPI RETURNDATASIZE PUSH1 0x0 DUP1 RETURNDATACOPY RETURNDATASIZE PUSH1 0x0 REVERT JUMPDEST POP POP POP POP PUSH1 0x40 MLOAD RETURNDATASIZE PUSH1 0x1F NOT PUSH1 0x1F DUP3 ADD AND DUP3 ADD DUP1 PUSH1 0x40 MSTORE POP DUP2 ADD SWAP1 PUSH3 0xBD8 SWAP2 SWAP1 PUSH3 0x20CB JUMP JUMPDEST SUB PUSH3 0xC6E JUMPI PUSH1 0x1 DUP2 DUP2 SLOAD DUP2 LT PUSH3 0xBF4 JUMPI PUSH3 0xBF4 PUSH3 0x20B5 JUMP JUMPDEST PUSH1 0x0 SWAP2 DUP3 MSTORE PUSH1 0x20 DUP3 KECCAK256 ADD SLOAD PUSH1 0x40 DUP1 MLOAD PUSH4 0x8594C127 PUSH1 0xE0 SHL DUP2 MSTORE SWAP1 MLOAD PUSH1 0x1 PUSH1 0x1 PUSH1 0xA0 SHL SUB SWAP1 SWAP3 AND SWAP3 PUSH4 0x8594C127 SWAP3 PUSH1 0x4 DUP1 DUP5 ADD SWAP4 DUP3 SWAP1 SUB ADD DUP2 DUP7 GAS STATICCALL ISZERO DUP1 ISZERO PUSH3 0xC41 JUMPI RETURNDATASIZE PUSH1 0x0 DUP1 RETURNDATACOPY RETURNDATASIZE PUSH1 0x0 REVERT JUMPDEST POP POP POP POP PUSH1 0x40 MLOAD RETURNDATASIZE PUSH1 0x0 DUP3 RETURNDATACOPY PUSH1 0x1F RETURNDATASIZE SWAP1 DUP2 ADD PUSH1 0x1F NOT AND DUP3 ADD PUSH1 0x40 MSTORE PUSH3 0xC6B SWAP2 SWAP1 DUP2 ADD SWAP1 PUSH3 0x21B4 JUMP JUMPDEST SWAP2 POP JUMPDEST PUSH1 0x1 ADD PUSH3 0xB41 JUMP JUMPDEST POP PUSH32 0x13361D17317A0CB3EB8BAE7C04EE902B187495738379B7181F39A2E86A02874E DUP2 PUSH1 0x40 MLOAD PUSH3 0xCA9 SWAP2 SWAP1 PUSH3 0x2262 JUMP JUMPDEST PUSH1 0x40 MLOAD DUP1 SWAP2 SUB SWAP1 LOG1 POP POP JUMP JUMPDEST PUSH1 0x0 SLOAD PUSH1 0x1 PUSH1 0x1 PUSH1 0xA0 SHL SUB AND CALLER EQ PUSH3 0xCCD JUMPI PUSH1 0x0 DUP1 REVERT JUMPDEST PUSH3 0xCD8 DUP2 PUSH3 0x1A6E JUMP JUMPDEST ISZERO ISZERO PUSH1 0x1 EQ PUSH3 0xCFC JUMPI PUSH1 0x40 MLOAD PUSH3 0x461BCD PUSH1 0xE5 SHL DUP2 MSTORE PUSH1 0x4 ADD PUSH3 0x441 SWAP1 PUSH3 0x212B JUMP JUMPDEST PUSH1 0x0 JUMPDEST PUSH1 0x1 SLOAD DUP2 LT ISZERO PUSH3 0xAFD JUMPI DUP2 PUSH1 0x1 DUP3 DUP2 SLOAD DUP2 LT PUSH3 0xD21 JUMPI PUSH3 0xD21 PUSH3 0x20B5 JUMP JUMPDEST PUSH1 0x0 SWAP2 DUP3 MSTORE PUSH1 0x20 SWAP2 DUP3 SWAP1 KECCAK256 ADD SLOAD PUSH1 0x40 DUP1 MLOAD PUSH4 0x58975919 PUSH1 0xE0 SHL DUP2 MSTORE SWAP1 MLOAD PUSH1 0x1 PUSH1 0x1 PUSH1 0xA0 SHL SUB SWAP1 SWAP3 AND SWAP3 PUSH4 0x58975919 SWAP3 PUSH1 0x4 DUP1 DUP5 ADD SWAP4 DUP3 SWAP1 SUB ADD DUP2 DUP7 GAS STATICCALL ISZERO DUP1 ISZERO PUSH3 0xD70 JUMPI RETURNDATASIZE PUSH1 0x0 DUP1 RETURNDATACOPY RETURNDATASIZE PUSH1 0x0 REVERT JUMPDEST POP POP POP POP PUSH1 0x40 MLOAD RETURNDATASIZE PUSH1 0x1F NOT PUSH1 0x1F DUP3 ADD AND DUP3 ADD DUP1 PUSH1 0x40 MSTORE POP DUP2 ADD SWAP1 PUSH3 0xD96 SWAP2 SWAP1 PUSH3 0x20CB JUMP JUMPDEST SUB PUSH3 0xE15 JUMPI PUSH1 0x1 DUP2 DUP2 SLOAD DUP2 LT PUSH3 0xDB2 JUMPI PUSH3 0xDB2 PUSH3 0x20B5 JUMP JUMPDEST PUSH1 0x0 SWAP2 DUP3 MSTORE PUSH1 0x20 DUP3 KECCAK256 ADD SLOAD PUSH1 0x40 DUP1 MLOAD PUSH4 0xAC3EF22D PUSH1 0xE0 SHL DUP2 MSTORE SWAP1 MLOAD PUSH1 0x1 PUSH1 0x1 PUSH1 0xA0 SHL SUB SWAP1 SWAP3 AND SWAP3 PUSH4 0xAC3EF22D SWAP3 PUSH1 0x4 DUP1 DUP5 ADD SWAP4 DUP3 SWAP1 SUB ADD DUP2 DUP4 DUP8 DUP1 EXTCODESIZE ISZERO DUP1 ISZERO PUSH3 0xDFB JUMPI PUSH1 0x0 DUP1 REVERT JUMPDEST POP GAS CALL ISZERO DUP1 ISZERO PUSH3 0xE10 JUMPI RETURNDATASIZE PUSH1 0x0 DUP1 RETURNDATACOPY RETURNDATASIZE PUSH1 0x0 REVERT JUMPDEST POP POP POP POP JUMPDEST PUSH1 0x1 ADD PUSH3 0xCFF JUMP JUMPDEST PUSH3 0xE29 DUP2 PUSH3 0x1A6E JUMP JUMPDEST ISZERO ISZERO PUSH1 0x1 EQ PUSH3 0xE4D JUMPI PUSH1 0x40 MLOAD PUSH3 0x461BCD PUSH1 0xE5 SHL DUP2 MSTORE PUSH1 0x4 ADD PUSH3 0x441 SWAP1 PUSH3 0x212B JUMP JUMPDEST PUSH1 0x1 SLOAD PUSH1 0x0 SWAP1 PUSH8 0xFFFFFFFFFFFFFFFF DUP2 GT ISZERO PUSH3 0xE6E JUMPI PUSH3 0xE6E PUSH3 0x1EBA JUMP JUMPDEST PUSH1 0x40 MLOAD SWAP1 DUP1 DUP3 MSTORE DUP1 PUSH1 0x20 MUL PUSH1 0x20 ADD DUP3 ADD PUSH1 0x40 MSTORE DUP1 ISZERO PUSH3 0xE98 JUMPI DUP2 PUSH1 0x20 ADD PUSH1 0x20 DUP3 MUL DUP1 CALLDATASIZE DUP4 CALLDATACOPY ADD SWAP1 POP JUMPDEST POP SWAP1 POP PUSH1 0x0 JUMPDEST PUSH1 0x1 SLOAD DUP2 LT ISZERO PUSH3 0xFD4 JUMPI DUP3 PUSH1 0x1 DUP3 DUP2 SLOAD DUP2 LT PUSH3 0xEC0 JUMPI PUSH3 0xEC0 PUSH3 0x20B5 JUMP JUMPDEST PUSH1 0x0 SWAP2 DUP3 MSTORE PUSH1 0x20 SWAP2 DUP3 SWAP1 KECCAK256 ADD SLOAD PUSH1 0x40 DUP1 MLOAD PUSH4 0x58975919 PUSH1 0xE0 SHL DUP2 MSTORE SWAP1 MLOAD PUSH1 0x1 PUSH1 0x1 PUSH1 0xA0 SHL SUB SWAP1 SWAP3 AND SWAP3 PUSH4 0x58975919 SWAP3 PUSH1 0x4 DUP1 DUP5 ADD SWAP4 DUP3 SWAP1 SUB ADD DUP2 DUP7 GAS STATICCALL ISZERO DUP1 ISZERO PUSH3 0xF0F JUMPI RETURNDATASIZE PUSH1 0x0 DUP1 RETURNDATACOPY RETURNDATASIZE PUSH1 0x0 REVERT JUMPDEST POP POP POP POP PUSH1 0x40 MLOAD RETURNDATASIZE PUSH1 0x1F NOT PUSH1 0x1F DUP3 ADD AND DUP3 ADD DUP1 PUSH1 0x40 MSTORE POP DUP2 ADD SWAP1 PUSH3 0xF35 SWAP2 SWAP1 PUSH3 0x20CB JUMP JUMPDEST SUB PUSH3 0xFCB JUMPI PUSH1 0x1 DUP2 DUP2 SLOAD DUP2 LT PUSH3 0xF51 JUMPI PUSH3 0xF51 PUSH3 0x20B5 JUMP JUMPDEST PUSH1 0x0 SWAP2 DUP3 MSTORE PUSH1 0x20 DUP3 KECCAK256 ADD SLOAD PUSH1 0x40 DUP1 MLOAD PUSH4 0x65A6BB29 PUSH1 0xE0 SHL DUP2 MSTORE SWAP1 MLOAD PUSH1 0x1 PUSH1 0x1 PUSH1 0xA0 SHL SUB SWAP1 SWAP3 AND SWAP3 PUSH4 0x65A6BB29 SWAP3 PUSH1 0x4 DUP1 DUP5 ADD SWAP4 DUP3 SWAP1 SUB ADD DUP2 DUP7 GAS STATICCALL ISZERO DUP1 ISZERO PUSH3 0xF9E JUMPI RETURNDATASIZE PUSH1 0x0 DUP1 RETURNDATACOPY RETURNDATASIZE PUSH1 0x0 REVERT JUMPDEST POP POP POP POP PUSH1 0x40 MLOAD RETURNDATASIZE PUSH1 0x0 DUP3 RETURNDATACOPY PUSH1 0x1F RETURNDATASIZE SWAP1 DUP2 ADD PUSH1 0x1F NOT AND DUP3 ADD PUSH1 0x40 MSTORE PUSH3 0xFC8 SWAP2 SWAP1 DUP2 ADD SWAP1 PUSH3 0x227E JUMP JUMPDEST SWAP2 POP JUMPDEST PUSH1 0x1 ADD PUSH3 0xE9E JUMP JUMPDEST POP PUSH32 0x523E8984927A9BE39116923C5FD0B9633F17F802E7F282C8AD00C549CEC84786 DUP2 PUSH1 0x40 MLOAD PUSH3 0xCA9 SWAP2 SWAP1 PUSH3 0x20E5 JUMP JUMPDEST PUSH1 0x0 SLOAD PUSH1 0x1 PUSH1 0x1 PUSH1 0xA0 SHL SUB AND CALLER EQ PUSH3 0x101E JUMPI PUSH1 0x0 DUP1 REVERT JUMPDEST PUSH3 0x1029 DUP3 PUSH3 0x1A6E JUMP JUMPDEST ISZERO PUSH3 0x106D JUMPI PUSH1 0x40 MLOAD PUSH3 0x461BCD PUSH1 0xE5 SHL DUP2 MSTORE PUSH1 0x20 PUSH1 0x4 DUP3 ADD MSTORE PUSH1 0x12 PUSH1 0x24 DUP3 ADD MSTORE PUSH18 0x155CD95C88185B1C9958591E48195E1A5CDD PUSH1 0x72 SHL PUSH1 0x44 DUP3 ADD MSTORE PUSH1 0x64 ADD PUSH3 0x441 JUMP JUMPDEST PUSH1 0x0 DUP3 DUP3 PUSH1 0x40 MLOAD PUSH3 0x107F SWAP1 PUSH3 0x1E6F JUMP JUMPDEST PUSH3 0x108C SWAP3 SWAP2 SWAP1 PUSH3 0x232F JUMP JUMPDEST PUSH1 0x40 MLOAD DUP1 SWAP2 SUB SWAP1 PUSH1 0x0 CREATE DUP1 ISZERO DUP1 ISZERO PUSH3 0x10A9 JUMPI RETURNDATASIZE PUSH1 0x0 DUP1 RETURNDATACOPY RETURNDATASIZE PUSH1 0x0 REVERT JUMPDEST POP PUSH1 0x1 DUP1 SLOAD DUP1 DUP3 ADD SWAP1 SWAP2 SSTORE PUSH32 0xB10E2D527612073B26EECDFD717E6A320CF44B4AFAC2B0732D9FCBE2B7FA0CF6 ADD DUP1 SLOAD PUSH1 0x1 PUSH1 0x1 PUSH1 0xA0 SHL SUB SWAP1 SWAP3 AND PUSH1 0x1 PUSH1 0x1 PUSH1 0xA0 SHL SUB NOT SWAP3 DUP4 AND DUP2 OR SWAP1 SWAP2 SSTORE PUSH1 0x0 SWAP5 DUP6 MSTORE PUSH1 0x2 PUSH1 0x20 MSTORE PUSH1 0x40 SWAP1 SWAP5 KECCAK256 DUP1 SLOAD SWAP1 SWAP2 AND SWAP1 SWAP4 OR SWAP1 SWAP3 SSTORE POP POP JUMP JUMPDEST PUSH1 0x0 SLOAD PUSH1 0x1 PUSH1 0x1 PUSH1 0xA0 SHL SUB AND CALLER EQ PUSH3 0x112A JUMPI PUSH1 0x0 DUP1 REVERT JUMPDEST PUSH3 0x1135 DUP5 PUSH3 0x1A6E JUMP JUMPDEST ISZERO ISZERO PUSH1 0x1 EQ PUSH3 0x1159 JUMPI PUSH1 0x40 MLOAD PUSH3 0x461BCD PUSH1 0xE5 SHL DUP2 MSTORE PUSH1 0x4 ADD PUSH3 0x441 SWAP1 PUSH3 0x212B JUMP JUMPDEST PUSH3 0x1165 DUP5 DUP5 PUSH3 0x1B2A JUMP JUMPDEST ISZERO ISZERO PUSH1 0x1 EQ PUSH3 0x1189 JUMPI PUSH1 0x40 MLOAD PUSH3 0x461BCD PUSH1 0xE5 SHL DUP2 MSTORE PUSH1 0x4 ADD PUSH3 0x441 SWAP1 PUSH3 0x2157 JUMP JUMPDEST PUSH1 0x0 JUMPDEST PUSH1 0x1 SLOAD DUP2 LT ISZERO PUSH3 0x12BC JUMPI DUP5 PUSH1 0x1 DUP3 DUP2 SLOAD DUP2 LT PUSH3 0x11AE JUMPI PUSH3 0x11AE PUSH3 0x20B5 JUMP JUMPDEST PUSH1 0x0 SWAP2 DUP3 MSTORE PUSH1 0x20 SWAP2 DUP3 SWAP1 KECCAK256 ADD SLOAD PUSH1 0x40 DUP1 MLOAD PUSH4 0x58975919 PUSH1 0xE0 SHL DUP2 MSTORE SWAP1 MLOAD PUSH1 0x1 PUSH1 0x1 PUSH1 0xA0 SHL SUB SWAP1 SWAP3 AND SWAP3 PUSH4 0x58975919 SWAP3 PUSH1 0x4 DUP1 DUP5 ADD SWAP4 DUP3 SWAP1 SUB ADD DUP2 DUP7 GAS STATICCALL ISZERO DUP1 ISZERO PUSH3 0x11FD JUMPI RETURNDATASIZE PUSH1 0x0 DUP1 RETURNDATACOPY RETURNDATASIZE PUSH1 0x0 REVERT JUMPDEST POP POP POP POP PUSH1 0x40 MLOAD RETURNDATASIZE PUSH1 0x1F NOT PUSH1 0x1F DUP3 ADD AND DUP3 ADD DUP1 PUSH1 0x40 MSTORE POP DUP2 ADD SWAP1 PUSH3 0x1223 SWAP2 SWAP1 PUSH3 0x20CB JUMP JUMPDEST SUB PUSH3 0x12B3 JUMPI PUSH1 0x1 DUP2 DUP2 SLOAD DUP2 LT PUSH3 0x123F JUMPI PUSH3 0x123F PUSH3 0x20B5 JUMP JUMPDEST PUSH1 0x0 SWAP2 DUP3 MSTORE PUSH1 0x20 SWAP1 SWAP2 KECCAK256 ADD SLOAD PUSH1 0x40 MLOAD PUSH4 0x262FAA93 PUSH1 0xE2 SHL DUP2 MSTORE PUSH1 0x1 PUSH1 0x1 PUSH1 0xA0 SHL SUB SWAP1 SWAP2 AND SWAP1 PUSH4 0x98BEAA4C SWAP1 PUSH3 0x127E SWAP1 DUP8 SWAP1 DUP8 SWAP1 DUP8 SWAP1 PUSH1 0x4 ADD PUSH3 0x2352 JUMP JUMPDEST PUSH1 0x0 PUSH1 0x40 MLOAD DUP1 DUP4 SUB DUP2 PUSH1 0x0 DUP8 DUP1 EXTCODESIZE ISZERO DUP1 ISZERO PUSH3 0x1299 JUMPI PUSH1 0x0 DUP1 REVERT JUMPDEST POP GAS CALL ISZERO DUP1 ISZERO PUSH3 0x12AE JUMPI RETURNDATASIZE PUSH1 0x0 DUP1 RETURNDATACOPY RETURNDATASIZE PUSH1 0x0 REVERT JUMPDEST POP POP POP POP JUMPDEST PUSH1 0x1 ADD PUSH3 0x118C JUMP JUMPDEST POP POP POP POP POP JUMP JUMPDEST PUSH1 0x0 SLOAD PUSH1 0x1 PUSH1 0x1 PUSH1 0xA0 SHL SUB AND CALLER EQ PUSH3 0x12DB JUMPI PUSH1 0x0 DUP1 REVERT JUMPDEST PUSH3 0x12E6 DUP5 PUSH3 0x1A6E JUMP JUMPDEST ISZERO ISZERO PUSH1 0x1 EQ PUSH3 0x130A JUMPI PUSH1 0x40 MLOAD PUSH3 0x461BCD PUSH1 0xE5 SHL DUP2 MSTORE PUSH1 0x4 ADD PUSH3 0x441 SWAP1 PUSH3 0x212B JUMP JUMPDEST PUSH3 0x1316 DUP5 DUP5 PUSH3 0x1B2A JUMP JUMPDEST ISZERO ISZERO PUSH1 0x1 EQ PUSH3 0x133A JUMPI PUSH1 0x40 MLOAD PUSH3 0x461BCD PUSH1 0xE5 SHL DUP2 MSTORE PUSH1 0x4 ADD PUSH3 0x441 SWAP1 PUSH3 0x2157 JUMP JUMPDEST PUSH3 0x1346 DUP3 DUP3 PUSH3 0x1E40 JUMP JUMPDEST ISZERO ISZERO PUSH1 0x1 EQ PUSH3 0x13B2 JUMPI PUSH1 0x40 MLOAD PUSH3 0x461BCD PUSH1 0xE5 SHL DUP2 MSTORE PUSH1 0x20 PUSH1 0x4 DUP3 ADD MSTORE PUSH1 0x30 PUSH1 0x24 DUP3 ADD MSTORE PUSH32 0x4966206572656469747920697320274163636570746564272074696D65206361 PUSH1 0x44 DUP3 ADD MSTORE PUSH16 0x6E277420626520274578706972656427 PUSH1 0x80 SHL PUSH1 0x64 DUP3 ADD MSTORE PUSH1 0x84 ADD PUSH3 0x441 JUMP JUMPDEST PUSH1 0x0 JUMPDEST PUSH1 0x1 SLOAD DUP2 LT ISZERO PUSH3 0x12BC JUMPI DUP5 PUSH1 0x1 DUP3 DUP2 SLOAD DUP2 LT PUSH3 0x13D7 JUMPI PUSH3 0x13D7 PUSH3 0x20B5 JUMP JUMPDEST PUSH1 0x0 SWAP2 DUP3 MSTORE PUSH1 0x20 SWAP2 DUP3 SWAP1 KECCAK256 ADD SLOAD PUSH1 0x40 DUP1 MLOAD PUSH4 0x58975919 PUSH1 0xE0 SHL DUP2 MSTORE SWAP1 MLOAD PUSH1 0x1 PUSH1 0x1 PUSH1 0xA0 SHL SUB SWAP1 SWAP3 AND SWAP3 PUSH4 0x58975919 SWAP3 PUSH1 0x4 DUP1 DUP5 ADD SWAP4 DUP3 SWAP1 SUB ADD DUP2 DUP7 GAS STATICCALL ISZERO DUP1 ISZERO PUSH3 0x1426 JUMPI RETURNDATASIZE PUSH1 0x0 DUP1 RETURNDATACOPY RETURNDATASIZE PUSH1 0x0 REVERT JUMPDEST POP POP POP POP PUSH1 0x40 MLOAD RETURNDATASIZE PUSH1 0x1F NOT PUSH1 0x1F DUP3 ADD AND DUP3 ADD DUP1 PUSH1 0x40 MSTORE POP DUP2 ADD SWAP1 PUSH3 0x144C SWAP2 SWAP1 PUSH3 0x20CB JUMP JUMPDEST SUB PUSH3 0x14E2 JUMPI PUSH1 0x1 DUP2 DUP2 SLOAD DUP2 LT PUSH3 0x1468 JUMPI PUSH3 0x1468 PUSH3 0x20B5 JUMP JUMPDEST PUSH1 0x0 SWAP2 DUP3 MSTORE PUSH1 0x20 SWAP1 SWAP2 KECCAK256 ADD SLOAD PUSH1 0x40 MLOAD PUSH4 0x38FCBC01 PUSH1 0xE0 SHL DUP2 MSTORE PUSH1 0x4 DUP2 ADD DUP7 SWAP1 MSTORE DUP5 ISZERO ISZERO PUSH1 0x24 DUP3 ADD MSTORE DUP4 ISZERO ISZERO PUSH1 0x44 DUP3 ADD MSTORE PUSH1 0x1 PUSH1 0x1 PUSH1 0xA0 SHL SUB SWAP1 SWAP2 AND SWAP1 PUSH4 0x38FCBC01 SWAP1 PUSH1 0x64 ADD PUSH1 0x0 PUSH1 0x40 MLOAD DUP1 DUP4 SUB DUP2 PUSH1 0x0 DUP8 DUP1 EXTCODESIZE ISZERO DUP1 ISZERO PUSH3 0x14C8 JUMPI PUSH1 0x0 DUP1 REVERT JUMPDEST POP GAS CALL ISZERO DUP1 ISZERO PUSH3 0x14DD JUMPI RETURNDATASIZE PUSH1 0x0 DUP1 RETURNDATACOPY RETURNDATASIZE PUSH1 0x0 REVERT JUMPDEST POP POP POP POP JUMPDEST PUSH1 0x1 ADD PUSH3 0x13B5 JUMP JUMPDEST PUSH3 0x14F6 DUP3 PUSH3 0x1A6E JUMP JUMPDEST ISZERO ISZERO PUSH1 0x1 EQ PUSH3 0x151A JUMPI PUSH1 0x40 MLOAD PUSH3 0x461BCD PUSH1 0xE5 SHL DUP2 MSTORE PUSH1 0x4 ADD PUSH3 0x441 SWAP1 PUSH3 0x212B JUMP JUMPDEST PUSH3 0x1526 DUP3 DUP3 PUSH3 0x1B2A JUMP JUMPDEST ISZERO ISZERO PUSH1 0x1 EQ PUSH3 0x154A JUMPI PUSH1 0x40 MLOAD PUSH3 0x461BCD PUSH1 0xE5 SHL DUP2 MSTORE PUSH1 0x4 ADD PUSH3 0x441 SWAP1 PUSH3 0x2157 JUMP JUMPDEST PUSH1 0x40 DUP1 MLOAD DUP1 DUP3 ADD SWAP1 SWAP2 MSTORE PUSH1 0xC DUP2 MSTORE PUSH12 0x4E6F2074696D657374616D7 PUSH1 0xA4 SHL PUSH1 0x20 DUP3 ADD MSTORE PUSH1 0x0 JUMPDEST PUSH1 0x1 SLOAD DUP2 LT ISZERO PUSH3 0x16AC JUMPI DUP4 PUSH1 0x1 DUP3 DUP2 SLOAD DUP2 LT PUSH3 0x1592 JUMPI PUSH3 0x1592 PUSH3 0x20B5 JUMP JUMPDEST PUSH1 0x0 SWAP2 DUP3 MSTORE PUSH1 0x20 SWAP2 DUP3 SWAP1 KECCAK256 ADD SLOAD PUSH1 0x40 DUP1 MLOAD PUSH4 0x58975919 PUSH1 0xE0 SHL DUP2 MSTORE SWAP1 MLOAD PUSH1 0x1 PUSH1 0x1 PUSH1 0xA0 SHL SUB SWAP1 SWAP3 AND SWAP3 PUSH4 0x58975919 SWAP3 PUSH1 0x4 DUP1 DUP5 ADD SWAP4 DUP3 SWAP1 SUB ADD DUP2 DUP7 GAS STATICCALL ISZERO DUP1 ISZERO PUSH3 0x15E1 JUMPI RETURNDATASIZE PUSH1 0x0 DUP1 RETURNDATACOPY RETURNDATASIZE PUSH1 0x0 REVERT JUMPDEST POP POP POP POP PUSH1 0x40 MLOAD RETURNDATASIZE PUSH1 0x1F NOT PUSH1 0x1F DUP3 ADD AND DUP3 ADD DUP1 PUSH1 0x40 MSTORE POP DUP2 ADD SWAP1 PUSH3 0x1607 SWAP2 SWAP1 PUSH3 0x20CB JUMP JUMPDEST SUB PUSH3 0x16A3 JUMPI PUSH1 0x1 DUP2 DUP2 SLOAD DUP2 LT PUSH3 0x1623 JUMPI PUSH3 0x1623 PUSH3 0x20B5 JUMP JUMPDEST PUSH1 0x0 SWAP2 DUP3 MSTORE PUSH1 0x20 SWAP1 SWAP2 KECCAK256 ADD SLOAD PUSH1 0x40 MLOAD PUSH4 0xCC203155 PUSH1 0xE0 SHL DUP2 MSTORE PUSH1 0x4 DUP2 ADD DUP6 SWAP1 MSTORE PUSH1 0x1 PUSH1 0x1 PUSH1 0xA0 SHL SUB SWAP1 SWAP2 AND SWAP1 PUSH4 0xCC203155 SWAP1 PUSH1 0x24 ADD PUSH1 0x0 PUSH1 0x40 MLOAD DUP1 DUP4 SUB DUP2 DUP7 GAS STATICCALL ISZERO DUP1 ISZERO PUSH3 0x1676 JUMPI RETURNDATASIZE PUSH1 0x0 DUP1 RETURNDATACOPY RETURNDATASIZE PUSH1 0x0 REVERT JUMPDEST POP POP POP POP PUSH1 0x40 MLOAD RETURNDATASIZE PUSH1 0x0 DUP3 RETURNDATACOPY PUSH1 0x1F RETURNDATASIZE SWAP1 DUP2 ADD PUSH1 0x1F NOT AND DUP3 ADD PUSH1 0x40 MSTORE PUSH3 0x16A0 SWAP2 SWAP1 DUP2 ADD SWAP1 PUSH3 0x21B4 JUMP JUMPDEST SWAP2 POP JUMPDEST PUSH1 0x1 ADD PUSH3 0x1570 JUMP JUMPDEST POP PUSH32 0xC8458765D4E221135788AE78DB5D184676A6C57384BB8E908BA066BA2C12AD2D DUP2 PUSH1 0x40 MLOAD PUSH3 0x987 SWAP2 SWAP1 PUSH3 0x2262 JUMP JUMPDEST PUSH3 0x16E9 DUP2 PUSH3 0x1A6E JUMP JUMPDEST ISZERO ISZERO PUSH1 0x1 EQ PUSH3 0x170D JUMPI PUSH1 0x40 MLOAD PUSH3 0x461BCD PUSH1 0xE5 SHL DUP2 MSTORE PUSH1 0x4 ADD PUSH3 0x441 SWAP1 PUSH3 0x212B JUMP JUMPDEST PUSH1 0x40 DUP1 MLOAD PUSH1 0x20 DUP2 ADD SWAP1 SWAP2 MSTORE PUSH1 0x0 DUP1 DUP3 MSTORE JUMPDEST PUSH1 0x1 SLOAD DUP2 LT ISZERO PUSH3 0x1854 JUMPI DUP3 PUSH1 0x1 DUP3 DUP2 SLOAD DUP2 LT PUSH3 0x1740 JUMPI PUSH3 0x1740 PUSH3 0x20B5 JUMP JUMPDEST PUSH1 0x0 SWAP2 DUP3 MSTORE PUSH1 0x20 SWAP2 DUP3 SWAP1 KECCAK256 ADD SLOAD PUSH1 0x40 DUP1 MLOAD PUSH4 0x58975919 PUSH1 0xE0 SHL DUP2 MSTORE SWAP1 MLOAD PUSH1 0x1 PUSH1 0x1 PUSH1 0xA0 SHL SUB SWAP1 SWAP3 AND SWAP3 PUSH4 0x58975919 SWAP3 PUSH1 0x4 DUP1 DUP5 ADD SWAP4 DUP3 SWAP1 SUB ADD DUP2 DUP7 GAS STATICCALL ISZERO DUP1 ISZERO PUSH3 0x178F JUMPI RETURNDATASIZE PUSH1 0x0 DUP1 RETURNDATACOPY RETURNDATASIZE PUSH1 0x0 REVERT JUMPDEST POP POP POP POP PUSH1 0x40 MLOAD RETURNDATASIZE PUSH1 0x1F NOT PUSH1 0x1F DUP3 ADD AND DUP3 ADD DUP1 PUSH1 0x40 MSTORE POP DUP2 ADD SWAP1 PUSH3 0x17B5 SWAP2 SWAP1 PUSH3 0x20CB JUMP JUMPDEST SUB PUSH3 0x184B JUMPI PUSH1 0x1 DUP2 DUP2 SLOAD DUP2 LT PUSH3 0x17D1 JUMPI PUSH3 0x17D1 PUSH3 0x20B5 JUMP JUMPDEST PUSH1 0x0 SWAP2 DUP3 MSTORE PUSH1 0x20 DUP3 KECCAK256 ADD SLOAD PUSH1 0x40 DUP1 MLOAD PUSH4 0x7F4E4849 PUSH1 0xE0 SHL DUP2 MSTORE SWAP1 MLOAD PUSH1 0x1 PUSH1 0x1 PUSH1 0xA0 SHL SUB SWAP1 SWAP3 AND SWAP3 PUSH4 0x7F4E4849 SWAP3 PUSH1 0x4 DUP1 DUP5 ADD SWAP4 DUP3 SWAP1 SUB ADD DUP2 DUP7 GAS STATICCALL ISZERO DUP1 ISZERO PUSH3 0x181E JUMPI RETURNDATASIZE PUSH1 0x0 DUP1 RETURNDATACOPY RETURNDATASIZE PUSH1 0x0 REVERT JUMPDEST POP POP POP POP PUSH1 0x40 MLOAD RETURNDATASIZE PUSH1 0x0 DUP3 RETURNDATACOPY PUSH1 0x1F RETURNDATASIZE SWAP1 DUP2 ADD PUSH1 0x1F NOT AND DUP3 ADD PUSH1 0x40 MSTORE PUSH3 0x1848 SWAP2 SWAP1 DUP2 ADD SWAP1 PUSH3 0x21B4 JUMP JUMPDEST SWAP2 POP JUMPDEST PUSH1 0x1 ADD PUSH3 0x171E JUMP JUMPDEST POP PUSH32 0x53079AF32418E10C6A5218FD7E6451639A426E7D4871F95549D82B1702D6E370 DUP2 PUSH1 0x40 MLOAD PUSH3 0xCA9 SWAP2 SWAP1 PUSH3 0x2262 JUMP JUMPDEST PUSH3 0x1891 DUP2 PUSH3 0x1A6E JUMP JUMPDEST ISZERO ISZERO PUSH1 0x1 EQ PUSH3 0x18B5 JUMPI PUSH1 0x40 MLOAD PUSH3 0x461BCD PUSH1 0xE5 SHL DUP2 MSTORE PUSH1 0x4 ADD PUSH3 0x441 SWAP1 PUSH3 0x212B JUMP JUMPDEST PUSH1 0x1 SLOAD PUSH1 0x0 SWAP1 PUSH8 0xFFFFFFFFFFFFFFFF DUP2 GT ISZERO PUSH3 0x18D6 JUMPI PUSH3 0x18D6 PUSH3 0x1EBA JUMP JUMPDEST PUSH1 0x40 MLOAD SWAP1 DUP1 DUP3 MSTORE DUP1 PUSH1 0x20 MUL PUSH1 0x20 ADD DUP3 ADD PUSH1 0x40 MSTORE DUP1 ISZERO PUSH3 0x1900 JUMPI DUP2 PUSH1 0x20 ADD PUSH1 0x20 DUP3 MUL DUP1 CALLDATASIZE DUP4 CALLDATACOPY ADD SWAP1 POP JUMPDEST POP SWAP1 POP PUSH1 0x0 JUMPDEST PUSH1 0x1 SLOAD DUP2 LT ISZERO PUSH3 0x1A3C JUMPI DUP3 PUSH1 0x1 DUP3 DUP2 SLOAD DUP2 LT PUSH3 0x1928 JUMPI PUSH3 0x1928 PUSH3 0x20B5 JUMP JUMPDEST PUSH1 0x0 SWAP2 DUP3 MSTORE PUSH1 0x20 SWAP2 DUP3 SWAP1 KECCAK256 ADD SLOAD PUSH1 0x40 DUP1 MLOAD PUSH4 0x58975919 PUSH1 0xE0 SHL DUP2 MSTORE SWAP1 MLOAD PUSH1 0x1 PUSH1 0x1 PUSH1 0xA0 SHL SUB SWAP1 SWAP3 AND SWAP3 PUSH4 0x58975919 SWAP3 PUSH1 0x4 DUP1 DUP5 ADD SWAP4 DUP3 SWAP1 SUB ADD DUP2 DUP7 GAS STATICCALL ISZERO DUP1 ISZERO PUSH3 0x1977 JUMPI RETURNDATASIZE PUSH1 0x0 DUP1 RETURNDATACOPY RETURNDATASIZE PUSH1 0x0 REVERT JUMPDEST POP POP POP POP PUSH1 0x40 MLOAD RETURNDATASIZE PUSH1 0x1F NOT PUSH1 0x1F DUP3 ADD AND DUP3 ADD DUP1 PUSH1 0x40 MSTORE POP DUP2 ADD SWAP1 PUSH3 0x199D SWAP2 SWAP1 PUSH3 0x20CB JUMP JUMPDEST SUB PUSH3 0x1A33 JUMPI PUSH1 0x1 DUP2 DUP2 SLOAD DUP2 LT PUSH3 0x19B9 JUMPI PUSH3 0x19B9 PUSH3 0x20B5 JUMP JUMPDEST PUSH1 0x0 SWAP2 DUP3 MSTORE PUSH1 0x20 DUP3 KECCAK256 ADD SLOAD PUSH1 0x40 DUP1 MLOAD PUSH4 0xB74513C1 PUSH1 0xE0 SHL DUP2 MSTORE SWAP1 MLOAD PUSH1 0x1 PUSH1 0x1 PUSH1 0xA0 SHL SUB SWAP1 SWAP3 AND SWAP3 PUSH4 0xB74513C1 SWAP3 PUSH1 0x4 DUP1 DUP5 ADD SWAP4 DUP3 SWAP1 SUB ADD DUP2 DUP7 GAS STATICCALL ISZERO DUP1 ISZERO PUSH3 0x1A06 JUMPI RETURNDATASIZE PUSH1 0x0 DUP1 RETURNDATACOPY RETURNDATASIZE PUSH1 0x0 REVERT JUMPDEST POP POP POP POP PUSH1 0x40 MLOAD RETURNDATASIZE PUSH1 0x0 DUP3 RETURNDATACOPY PUSH1 0x1F RETURNDATASIZE SWAP1 DUP2 ADD PUSH1 0x1F NOT AND DUP3 ADD PUSH1 0x40 MSTORE PUSH3 0x1A30 SWAP2 SWAP1 DUP2 ADD SWAP1 PUSH3 0x227E JUMP JUMPDEST SWAP2 POP JUMPDEST PUSH1 0x1 ADD PUSH3 0x1906 JUMP JUMPDEST POP PUSH32 0xD40CF2E69523C112FB0B83935636C14A025B62CE6E83AB4C8456DFA50E4626B3 DUP2 PUSH1 0x40 MLOAD PUSH3 0xCA9 SWAP2 SWAP1 PUSH3 0x20E5 JUMP JUMPDEST PUSH1 0x0 DUP1 JUMPDEST PUSH1 0x1 SLOAD DUP2 LT ISZERO PUSH3 0x1B21 JUMPI DUP3 PUSH1 0x1 DUP3 DUP2 SLOAD DUP2 LT PUSH3 0x1A94 JUMPI PUSH3 0x1A94 PUSH3 0x20B5 JUMP JUMPDEST PUSH1 0x0 SWAP2 DUP3 MSTORE PUSH1 0x20 SWAP2 DUP3 SWAP1 KECCAK256 ADD SLOAD PUSH1 0x40 DUP1 MLOAD PUSH4 0x58975919 PUSH1 0xE0 SHL DUP2 MSTORE SWAP1 MLOAD PUSH1 0x1 PUSH1 0x1 PUSH1 0xA0 SHL SUB SWAP1 SWAP3 AND SWAP3 PUSH4 0x58975919 SWAP3 PUSH1 0x4 DUP1 DUP5 ADD SWAP4 DUP3 SWAP1 SUB ADD DUP2 DUP7 GAS STATICCALL ISZERO DUP1 ISZERO PUSH3 0x1AE3 JUMPI RETURNDATASIZE PUSH1 0x0 DUP1 RETURNDATACOPY RETURNDATASIZE PUSH1 0x0 REVERT JUMPDEST POP POP POP POP PUSH1 0x40 MLOAD RETURNDATASIZE PUSH1 0x1F NOT PUSH1 0x1F DUP3 ADD AND DUP3 ADD DUP1 PUSH1 0x40 MSTORE POP DUP2 ADD SWAP1 PUSH3 0x1B09 SWAP2 SWAP1 PUSH3 0x20CB JUMP JUMPDEST SUB PUSH3 0x1B18 JUMPI POP PUSH1 0x1 SWAP3 SWAP2 POP POP JUMP JUMPDEST PUSH1 0x1 ADD PUSH3 0x1A72 JUMP JUMPDEST POP PUSH1 0x0 SWAP3 SWAP2 POP POP JUMP JUMPDEST PUSH1 0x0 DUP1 JUMPDEST PUSH1 0x1 SLOAD DUP2 LT ISZERO PUSH3 0x1CAF JUMPI DUP4 PUSH1 0x1 DUP3 DUP2 SLOAD DUP2 LT PUSH3 0x1B50 JUMPI PUSH3 0x1B50 PUSH3 0x20B5 JUMP JUMPDEST PUSH1 0x0 SWAP2 DUP3 MSTORE PUSH1 0x20 SWAP2 DUP3 SWAP1 KECCAK256 ADD SLOAD PUSH1 0x40 DUP1 MLOAD PUSH4 0x58975919 PUSH1 0xE0 SHL DUP2 MSTORE SWAP1 MLOAD PUSH1 0x1 PUSH1 0x1 PUSH1 0xA0 SHL SUB SWAP1 SWAP3 AND SWAP3 PUSH4 0x58975919 SWAP3 PUSH1 0x4 DUP1 DUP5 ADD SWAP4 DUP3 SWAP1 SUB ADD DUP2 DUP7 GAS STATICCALL ISZERO DUP1 ISZERO PUSH3 0x1B9F JUMPI RETURNDATASIZE PUSH1 0x0 DUP1 RETURNDATACOPY RETURNDATASIZE PUSH1 0x0 REVERT JUMPDEST POP POP POP POP PUSH1 0x40 MLOAD RETURNDATASIZE PUSH1 0x1F NOT PUSH1 0x1F DUP3 ADD AND DUP3 ADD DUP1 PUSH1 0x40 MSTORE POP DUP2 ADD SWAP1 PUSH3 0x1BC5 SWAP2 SWAP1 PUSH3 0x20CB JUMP JUMPDEST SUB PUSH3 0x1CA6 JUMPI PUSH1 0x0 PUSH1 0x1 DUP3 DUP2 SLOAD DUP2 LT PUSH3 0x1BE3 JUMPI PUSH3 0x1BE3 PUSH3 0x20B5 JUMP JUMPDEST PUSH1 0x0 SWAP2 DUP3 MSTORE PUSH1 0x20 DUP3 KECCAK256 ADD SLOAD PUSH1 0x40 DUP1 MLOAD PUSH4 0xB74513C1 PUSH1 0xE0 SHL DUP2 MSTORE SWAP1 MLOAD PUSH1 0x1 PUSH1 0x1 PUSH1 0xA0 SHL SUB SWAP1 SWAP3 AND SWAP3 PUSH4 0xB74513C1 SWAP3 PUSH1 0x4 DUP1 DUP5 ADD SWAP4 DUP3 SWAP1 SUB ADD DUP2 DUP7 GAS STATICCALL ISZERO DUP1 ISZERO PUSH3 0x1C30 JUMPI RETURNDATASIZE PUSH1 0x0 DUP1 RETURNDATACOPY RETURNDATASIZE PUSH1 0x0 REVERT JUMPDEST POP POP POP POP PUSH1 0x40 MLOAD RETURNDATASIZE PUSH1 0x0 DUP3 RETURNDATACOPY PUSH1 0x1F RETURNDATASIZE SWAP1 DUP2 ADD PUSH1 0x1F NOT AND DUP3 ADD PUSH1 0x40 MSTORE PUSH3 0x1C5A SWAP2 SWAP1 DUP2 ADD SWAP1 PUSH3 0x227E JUMP JUMPDEST SWAP1 POP PUSH1 0x0 JUMPDEST DUP2 MLOAD DUP2 LT ISZERO PUSH3 0x1CA3 JUMPI DUP5 DUP3 DUP3 DUP2 MLOAD DUP2 LT PUSH3 0x1C7F JUMPI PUSH3 0x1C7F PUSH3 0x20B5 JUMP JUMPDEST PUSH1 0x20 MUL PUSH1 0x20 ADD ADD MLOAD SUB PUSH3 0x1C9A JUMPI PUSH1 0x1 SWAP4 POP POP POP POP PUSH3 0x1CB5 JUMP JUMPDEST PUSH1 0x1 ADD PUSH3 0x1C5F JUMP JUMPDEST POP POP JUMPDEST PUSH1 0x1 ADD PUSH3 0x1B2E JUMP JUMPDEST POP PUSH1 0x0 SWAP1 POP JUMPDEST SWAP3 SWAP2 POP POP JUMP JUMPDEST PUSH1 0x0 DUP1 JUMPDEST PUSH1 0x1 SLOAD DUP2 LT ISZERO PUSH3 0x1CAF JUMPI DUP4 PUSH1 0x1 DUP3 DUP2 SLOAD DUP2 LT PUSH3 0x1CE1 JUMPI PUSH3 0x1CE1 PUSH3 0x20B5 JUMP JUMPDEST PUSH1 0x0 SWAP2 DUP3 MSTORE PUSH1 0x20 SWAP2 DUP3 SWAP1 KECCAK256 ADD SLOAD PUSH1 0x40 DUP1 MLOAD PUSH4 0x58975919 PUSH1 0xE0 SHL DUP2 MSTORE SWAP1 MLOAD PUSH1 0x1 PUSH1 0x1 PUSH1 0xA0 SHL SUB SWAP1 SWAP3 AND SWAP3 PUSH4 0x58975919 SWAP3 PUSH1 0x4 DUP1 DUP5 ADD SWAP4 DUP3 SWAP1 SUB ADD DUP2 DUP7 GAS STATICCALL ISZERO DUP1 ISZERO PUSH3 0x1D30 JUMPI RETURNDATASIZE PUSH1 0x0 DUP1 RETURNDATACOPY RETURNDATASIZE PUSH1 0x0 REVERT JUMPDEST POP POP POP POP PUSH1 0x40 MLOAD RETURNDATASIZE PUSH1 0x1F NOT PUSH1 0x1F DUP3 ADD AND DUP3 ADD DUP1 PUSH1 0x40 MSTORE POP DUP2 ADD SWAP1 PUSH3 0x1D56 SWAP2 SWAP1 PUSH3 0x20CB JUMP JUMPDEST SUB PUSH3 0x1E37 JUMPI PUSH1 0x0 PUSH1 0x1 DUP3 DUP2 SLOAD DUP2 LT PUSH3 0x1D74 JUMPI PUSH3 0x1D74 PUSH3 0x20B5 JUMP JUMPDEST PUSH1 0x0 SWAP2 DUP3 MSTORE PUSH1 0x20 DUP3 KECCAK256 ADD SLOAD PUSH1 0x40 DUP1 MLOAD PUSH4 0x65A6BB29 PUSH1 0xE0 SHL DUP2 MSTORE SWAP1 MLOAD PUSH1 0x1 PUSH1 0x1 PUSH1 0xA0 SHL SUB SWAP1 SWAP3 AND SWAP3 PUSH4 0x65A6BB29 SWAP3 PUSH1 0x4 DUP1 DUP5 ADD SWAP4 DUP3 SWAP1 SUB ADD DUP2 DUP7 GAS STATICCALL ISZERO DUP1 ISZERO PUSH3 0x1DC1 JUMPI RETURNDATASIZE PUSH1 0x0 DUP1 RETURNDATACOPY RETURNDATASIZE PUSH1 0x0 REVERT JUMPDEST POP POP POP POP PUSH1 0x40 MLOAD RETURNDATASIZE PUSH1 0x0 DUP3 RETURNDATACOPY PUSH1 0x1F RETURNDATASIZE SWAP1 DUP2 ADD PUSH1 0x1F NOT AND DUP3 ADD PUSH1 0x40 MSTORE PUSH3 0x1DEB SWAP2 SWAP1 DUP2 ADD SWAP1 PUSH3 0x227E JUMP JUMPDEST SWAP1 POP PUSH1 0x0 JUMPDEST DUP2 MLOAD DUP2 LT ISZERO PUSH3 0x1E34 JUMPI DUP5 DUP3 DUP3 DUP2 MLOAD DUP2 LT PUSH3 0x1E10 JUMPI PUSH3 0x1E10 PUSH3 0x20B5 JUMP JUMPDEST PUSH1 0x20 MUL PUSH1 0x20 ADD ADD MLOAD SUB PUSH3 0x1E2B JUMPI PUSH1 0x1 SWAP4 POP POP POP POP PUSH3 0x1CB5 JUMP JUMPDEST PUSH1 0x1 ADD PUSH3 0x1DF0 JUMP JUMPDEST POP POP JUMPDEST PUSH1 0x1 ADD PUSH3 0x1CBF JUMP JUMPDEST PUSH1 0x0 PUSH1 0x1 DUP4 ISZERO ISZERO EQ DUP1 ISZERO PUSH3 0x1E57 JUMPI POP PUSH1 0x1 DUP3 ISZERO ISZERO EQ JUMPDEST ISZERO PUSH3 0x1E66 JUMPI POP PUSH1 0x0 PUSH3 0x1CB5 JUMP JUMPDEST POP PUSH1 0x1 SWAP3 SWAP2 POP POP JUMP JUMPDEST PUSH2 0x19C3 DUP1 PUSH3 0x238C DUP4 CODECOPY ADD SWAP1 JUMP JUMPDEST PUSH1 0x0 DUP1 PUSH1 0x40 DUP4 DUP6 SUB SLT ISZERO PUSH3 0x1E91 JUMPI PUSH1 0x0 DUP1 REVERT JUMPDEST POP POP DUP1 CALLDATALOAD SWAP3 PUSH1 0x20 SWAP1 SWAP2 ADD CALLDATALOAD SWAP2 POP JUMP JUMPDEST PUSH1 0x0 PUSH1 0x20 DUP3 DUP5 SUB SLT ISZERO PUSH3 0x1EB3 JUMPI PUSH1 0x0 DUP1 REVERT JUMPDEST POP CALLDATALOAD SWAP2 SWAP1 POP JUMP JUMPDEST PUSH4 0x4E487B71 PUSH1 0xE0 SHL PUSH1 0x0 MSTORE PUSH1 0x41 PUSH1 0x4 MSTORE PUSH1 0x24 PUSH1 0x0 REVERT JUMPDEST PUSH1 0x40 MLOAD PUSH1 0x1F DUP3 ADD PUSH1 0x1F NOT AND DUP2 ADD PUSH8 0xFFFFFFFFFFFFFFFF DUP2 GT DUP3 DUP3 LT OR ISZERO PUSH3 0x1EFC JUMPI PUSH3 0x1EFC PUSH3 0x1EBA JUMP JUMPDEST PUSH1 0x40 MSTORE SWAP2 SWAP1 POP JUMP JUMPDEST PUSH1 0x0 PUSH8 0xFFFFFFFFFFFFFFFF DUP3 GT ISZERO PUSH3 0x1F21 JUMPI PUSH3 0x1F21 PUSH3 0x1EBA JUMP JUMPDEST POP PUSH1 0x1F ADD PUSH1 0x1F NOT AND PUSH1 0x20 ADD SWAP1 JUMP JUMPDEST PUSH1 0x0 DUP3 PUSH1 0x1F DUP4 ADD SLT PUSH3 0x1F41 JUMPI PUSH1 0x0 DUP1 REVERT JUMPDEST DUP2 CALLDATALOAD PUSH3 0x1F58 PUSH3 0x1F52 DUP3 PUSH3 0x1F04 JUMP JUMPDEST PUSH3 0x1ED0 JUMP JUMPDEST DUP2 DUP2 MSTORE DUP5 PUSH1 0x20 DUP4 DUP7 ADD ADD GT ISZERO PUSH3 0x1F6E JUMPI PUSH1 0x0 DUP1 REVERT JUMPDEST DUP2 PUSH1 0x20 DUP6 ADD PUSH1 0x20 DUP4 ADD CALLDATACOPY PUSH1 0x0 SWAP2 DUP2 ADD PUSH1 0x20 ADD SWAP2 SWAP1 SWAP2 MSTORE SWAP4 SWAP3 POP POP POP JUMP JUMPDEST PUSH1 0x0 DUP1 PUSH1 0x40 DUP4 DUP6 SUB SLT ISZERO PUSH3 0x1F9F JUMPI PUSH1 0x0 DUP1 REVERT JUMPDEST DUP3 CALLDATALOAD SWAP2 POP PUSH1 0x20 DUP4 ADD CALLDATALOAD PUSH8 0xFFFFFFFFFFFFFFFF DUP2 GT ISZERO PUSH3 0x1FBE JUMPI PUSH1 0x0 DUP1 REVERT JUMPDEST PUSH3 0x1FCC DUP6 DUP3 DUP7 ADD PUSH3 0x1F2F JUMP JUMPDEST SWAP2 POP POP SWAP3 POP SWAP3 SWAP1 POP JUMP JUMPDEST PUSH1 0x0 DUP1 PUSH1 0x0 DUP1 PUSH1 0x80 DUP6 DUP8 SUB SLT ISZERO PUSH3 0x1FED JUMPI PUSH1 0x0 DUP1 REVERT JUMPDEST DUP5 CALLDATALOAD SWAP4 POP PUSH1 0x20 DUP6 ADD CALLDATALOAD SWAP3 POP PUSH1 0x40 DUP6 ADD CALLDATALOAD PUSH8 0xFFFFFFFFFFFFFFFF DUP1 DUP3 GT ISZERO PUSH3 0x2014 JUMPI PUSH1 0x0 DUP1 REVERT JUMPDEST PUSH3 0x2022 DUP9 DUP4 DUP10 ADD PUSH3 0x1F2F JUMP JUMPDEST SWAP4 POP PUSH1 0x60 DUP8 ADD CALLDATALOAD SWAP2 POP DUP1 DUP3 GT ISZERO PUSH3 0x2039 JUMPI PUSH1 0x0 DUP1 REVERT JUMPDEST POP PUSH3 0x2048 DUP8 DUP3 DUP9 ADD PUSH3 0x1F2F JUMP JUMPDEST SWAP2 POP POP SWAP3 SWAP6 SWAP2 SWAP5 POP SWAP3 POP JUMP JUMPDEST DUP1 CALLDATALOAD DUP1 ISZERO ISZERO DUP2 EQ PUSH3 0x2065 JUMPI PUSH1 0x0 DUP1 REVERT JUMPDEST SWAP2 SWAP1 POP JUMP JUMPDEST PUSH1 0x0 DUP1 PUSH1 0x0 DUP1 PUSH1 0x80 DUP6 DUP8 SUB SLT ISZERO PUSH3 0x2081 JUMPI PUSH1 0x0 DUP1 REVERT JUMPDEST DUP5 CALLDATALOAD SWAP4 POP PUSH1 0x20 DUP6 ADD CALLDATALOAD SWAP3 POP PUSH3 0x209A PUSH1 0x40 DUP7 ADD PUSH3 0x2054 JUMP JUMPDEST SWAP2 POP PUSH3 0x20AA PUSH1 0x60 DUP7 ADD PUSH3 0x2054 JUMP JUMPDEST SWAP1 POP SWAP3 SWAP6 SWAP2 SWAP5 POP SWAP3 POP JUMP JUMPDEST PUSH4 0x4E487B71 PUSH1 0xE0 SHL PUSH1 0x0 MSTORE PUSH1 0x32 PUSH1 0x4 MSTORE PUSH1 0x24 PUSH1 0x0 REVERT JUMPDEST PUSH1 0x0 PUSH1 0x20 DUP3 DUP5 SUB SLT ISZERO PUSH3 0x20DE JUMPI PUSH1 0x0 DUP1 REVERT JUMPDEST POP MLOAD SWAP2 SWAP1 POP JUMP JUMPDEST PUSH1 0x20 DUP1 DUP3 MSTORE DUP3 MLOAD DUP3 DUP3 ADD DUP2 SWAP1 MSTORE PUSH1 0x0 SWAP2 SWAP1 DUP5 DUP3 ADD SWAP1 PUSH1 0x40 DUP6 ADD SWAP1 DUP5 JUMPDEST DUP2 DUP2 LT ISZERO PUSH3 0x211F JUMPI DUP4 MLOAD DUP4 MSTORE SWAP3 DUP5 ADD SWAP3 SWAP2 DUP5 ADD SWAP2 PUSH1 0x1 ADD PUSH3 0x2101 JUMP JUMPDEST POP SWAP1 SWAP7 SWAP6 POP POP POP POP POP POP JUMP JUMPDEST PUSH1 0x20 DUP1 DUP3 MSTORE PUSH1 0x12 SWAP1 DUP3 ADD MSTORE PUSH18 0x155CD95C88191BD95CDB89DD08195E1A5CDD PUSH1 0x72 SHL PUSH1 0x40 DUP3 ADD MSTORE PUSH1 0x60 ADD SWAP1 JUMP JUMPDEST PUSH1 0x20 DUP1 DUP3 MSTORE PUSH1 0x17 SWAP1 DUP3 ADD MSTORE PUSH32 0x526563697069656E7420646F65736E2774206578697374000000000000000000 PUSH1 0x40 DUP3 ADD MSTORE PUSH1 0x60 ADD SWAP1 JUMP JUMPDEST PUSH1 0x0 JUMPDEST DUP4 DUP2 LT ISZERO PUSH3 0x21AB JUMPI DUP2 DUP2 ADD MLOAD DUP4 DUP3 ADD MSTORE PUSH1 0x20 ADD PUSH3 0x2191 JUMP JUMPDEST POP POP PUSH1 0x0 SWAP2 ADD MSTORE JUMP JUMPDEST PUSH1 0x0 PUSH1 0x20 DUP3 DUP5 SUB SLT ISZERO PUSH3 0x21C7 JUMPI PUSH1 0x0 DUP1 REVERT JUMPDEST DUP2 MLOAD PUSH8 0xFFFFFFFFFFFFFFFF DUP2 GT ISZERO PUSH3 0x21DF JUMPI PUSH1 0x0 DUP1 REVERT JUMPDEST DUP3 ADD PUSH1 0x1F DUP2 ADD DUP5 SGT PUSH3 0x21F1 JUMPI PUSH1 0x0 DUP1 REVERT JUMPDEST DUP1 MLOAD PUSH3 0x2202 PUSH3 0x1F52 DUP3 PUSH3 0x1F04 JUMP JUMPDEST DUP2 DUP2 MSTORE DUP6 PUSH1 0x20 DUP4 DUP6 ADD ADD GT ISZERO PUSH3 0x2218 JUMPI PUSH1 0x0 DUP1 REVERT JUMPDEST PUSH3 0x222B DUP3 PUSH1 0x20 DUP4 ADD PUSH1 0x20 DUP7 ADD PUSH3 0x218E JUMP JUMPDEST SWAP6 SWAP5 POP POP POP POP POP JUMP JUMPDEST PUSH1 0x0 DUP2 MLOAD DUP1 DUP5 MSTORE PUSH3 0x224E DUP2 PUSH1 0x20 DUP7 ADD PUSH1 0x20 DUP7 ADD PUSH3 0x218E JUMP JUMPDEST PUSH1 0x1F ADD PUSH1 0x1F NOT AND SWAP3 SWAP1 SWAP3 ADD PUSH1 0x20 ADD SWAP3 SWAP2 POP POP JUMP JUMPDEST PUSH1 0x20 DUP2 MSTORE PUSH1 0x0 PUSH3 0x2277 PUSH1 0x20 DUP4 ADD DUP5 PUSH3 0x2234 JUMP JUMPDEST SWAP4 SWAP3 POP POP POP JUMP JUMPDEST PUSH1 0x0 PUSH1 0x20 DUP1 DUP4 DUP6 SUB SLT ISZERO PUSH3 0x2292 JUMPI PUSH1 0x0 DUP1 REVERT JUMPDEST DUP3 MLOAD PUSH8 0xFFFFFFFFFFFFFFFF DUP1 DUP3 GT ISZERO PUSH3 0x22AB JUMPI PUSH1 0x0 DUP1 REVERT JUMPDEST DUP2 DUP6 ADD SWAP2 POP DUP6 PUSH1 0x1F DUP4 ADD SLT PUSH3 0x22C0 JUMPI PUSH1 0x0 DUP1 REVERT JUMPDEST DUP2 MLOAD DUP2 DUP2 GT ISZERO PUSH3 0x22D5 JUMPI PUSH3 0x22D5 PUSH3 0x1EBA JUMP JUMPDEST DUP1 PUSH1 0x5 SHL SWAP2 POP PUSH3 0x22E8 DUP5 DUP4 ADD PUSH3 0x1ED0 JUMP JUMPDEST DUP2 DUP2 MSTORE SWAP2 DUP4 ADD DUP5 ADD SWAP2 DUP5 DUP2 ADD SWAP1 DUP9 DUP5 GT ISZERO PUSH3 0x2303 JUMPI PUSH1 0x0 DUP1 REVERT JUMPDEST SWAP4 DUP6 ADD SWAP4 JUMPDEST DUP4 DUP6 LT ISZERO PUSH3 0x2323 JUMPI DUP5 MLOAD DUP3 MSTORE SWAP4 DUP6 ADD SWAP4 SWAP1 DUP6 ADD SWAP1 PUSH3 0x2308 JUMP JUMPDEST SWAP9 SWAP8 POP POP POP POP POP POP POP POP JUMP JUMPDEST DUP3 DUP2 MSTORE PUSH1 0x40 PUSH1 0x20 DUP3 ADD MSTORE PUSH1 0x0 PUSH3 0x234A PUSH1 0x40 DUP4 ADD DUP5 PUSH3 0x2234 JUMP JUMPDEST SWAP5 SWAP4 POP POP POP POP JUMP JUMPDEST DUP4 DUP2 MSTORE PUSH1 0x60 PUSH1 0x20 DUP3 ADD MSTORE PUSH1 0x0 PUSH3 0x236D PUSH1 0x60 DUP4 ADD DUP6 PUSH3 0x2234 JUMP JUMPDEST DUP3 DUP2 SUB PUSH1 0x40 DUP5 ADD MSTORE PUSH3 0x2381 DUP2 DUP6 PUSH3 0x2234 JUMP JUMPDEST SWAP7 SWAP6 POP POP POP POP POP POP JUMP INVALID PUSH1 0x80 PUSH1 0x40 MSTORE CALLVALUE DUP1 ISZERO PUSH3 0x11 JUMPI PUSH1 0x0 DUP1 REVERT JUMPDEST POP PUSH1 0x40 MLOAD PUSH3 0x19C3 CODESIZE SUB DUP1 PUSH3 0x19C3 DUP4 CODECOPY DUP2 ADD PUSH1 0x40 DUP2 SWAP1 MSTORE PUSH3 0x34 SWAP2 PUSH3 0x97 JUMP JUMPDEST PUSH1 0x1 DUP3 SWAP1 SSTORE PUSH1 0x3 DUP1 SLOAD PUSH4 0xFF000000 NOT AND PUSH4 0x1000000 OR SWAP1 SSTORE PUSH1 0x2 PUSH3 0x5A DUP3 DUP3 PUSH3 0x208 JUMP JUMPDEST POP POP PUSH1 0x3 DUP1 SLOAD PUSH3 0xFFFFFF NOT AND SWAP1 SSTORE POP PUSH1 0x0 DUP1 SLOAD PUSH1 0x1 PUSH1 0x1 PUSH1 0xA0 SHL SUB NOT AND CALLER OR SWAP1 SSTORE PUSH3 0x2D4 JUMP JUMPDEST PUSH4 0x4E487B71 PUSH1 0xE0 SHL PUSH1 0x0 MSTORE PUSH1 0x41 PUSH1 0x4 MSTORE PUSH1 0x24 PUSH1 0x0 REVERT JUMPDEST PUSH1 0x0 DUP1 PUSH1 0x40 DUP4 DUP6 SUB SLT ISZERO PUSH3 0xAB JUMPI PUSH1 0x0 DUP1 REVERT JUMPDEST DUP3 MLOAD PUSH1 0x20 DUP1 DUP6 ADD MLOAD SWAP2 SWAP4 POP SWAP1 PUSH1 0x1 PUSH1 0x1 PUSH1 0x40 SHL SUB DUP1 DUP3 GT ISZERO PUSH3 0xCD JUMPI PUSH1 0x0 DUP1 REVERT JUMPDEST DUP2 DUP7 ADD SWAP2 POP DUP7 PUSH1 0x1F DUP4 ADD SLT PUSH3 0xE2 JUMPI PUSH1 0x0 DUP1 REVERT JUMPDEST DUP2 MLOAD DUP2 DUP2 GT ISZERO PUSH3 0xF7 JUMPI PUSH3 0xF7 PUSH3 0x81 JUMP JUMPDEST PUSH1 0x40 MLOAD PUSH1 0x1F DUP3 ADD PUSH1 0x1F NOT SWAP1 DUP2 AND PUSH1 0x3F ADD AND DUP2 ADD SWAP1 DUP4 DUP3 GT DUP2 DUP4 LT OR ISZERO PUSH3 0x122 JUMPI PUSH3 0x122 PUSH3 0x81 JUMP JUMPDEST DUP2 PUSH1 0x40 MSTORE DUP3 DUP2 MSTORE DUP10 DUP7 DUP5 DUP8 ADD ADD GT ISZERO PUSH3 0x13B JUMPI PUSH1 0x0 DUP1 REVERT JUMPDEST PUSH1 0x0 SWAP4 POP JUMPDEST DUP3 DUP5 LT ISZERO PUSH3 0x15F JUMPI DUP5 DUP5 ADD DUP7 ADD MLOAD DUP2 DUP6 ADD DUP8 ADD MSTORE SWAP3 DUP6 ADD SWAP3 PUSH3 0x140 JUMP JUMPDEST PUSH1 0x0 DUP7 DUP5 DUP4 ADD ADD MSTORE DUP1 SWAP7 POP POP POP POP POP POP POP SWAP3 POP SWAP3 SWAP1 POP JUMP JUMPDEST PUSH1 0x1 DUP2 DUP2 SHR SWAP1 DUP3 AND DUP1 PUSH3 0x18C JUMPI PUSH1 0x7F DUP3 AND SWAP2 POP JUMPDEST PUSH1 0x20 DUP3 LT DUP2 SUB PUSH3 0x1AD JUMPI PUSH4 0x4E487B71 PUSH1 0xE0 SHL PUSH1 0x0 MSTORE PUSH1 0x22 PUSH1 0x4 MSTORE PUSH1 0x24 PUSH1 0x0 REVERT JUMPDEST POP SWAP2 SWAP1 POP JUMP JUMPDEST PUSH1 0x1F DUP3 GT ISZERO PUSH3 0x203 JUMPI PUSH1 0x0 DUP2 PUSH1 0x0 MSTORE PUSH1 0x20 PUSH1 0x0 KECCAK256 PUSH1 0x1F DUP6 ADD PUSH1 0x5 SHR DUP2 ADD PUSH1 0x20 DUP7 LT ISZERO PUSH3 0x1DE JUMPI POP DUP1 JUMPDEST PUSH1 0x1F DUP6 ADD PUSH1 0x5 SHR DUP3 ADD SWAP2 POP JUMPDEST DUP2 DUP2 LT ISZERO PUSH3 0x1FF JUMPI DUP3 DUP2 SSTORE PUSH1 0x1 ADD PUSH3 0x1EA JUMP JUMPDEST POP POP POP JUMPDEST POP POP POP JUMP JUMPDEST DUP2 MLOAD PUSH1 0x1 PUSH1 0x1 PUSH1 0x40 SHL SUB DUP2 GT ISZERO PUSH3 0x224 JUMPI PUSH3 0x224 PUSH3 0x81 JUMP JUMPDEST PUSH3 0x23C DUP2 PUSH3 0x235 DUP5 SLOAD PUSH3 0x177 JUMP JUMPDEST DUP5 PUSH3 0x1B3 JUMP JUMPDEST PUSH1 0x20 DUP1 PUSH1 0x1F DUP4 GT PUSH1 0x1 DUP2 EQ PUSH3 0x274 JUMPI PUSH1 0x0 DUP5 ISZERO PUSH3 0x25B JUMPI POP DUP6 DUP4 ADD MLOAD JUMPDEST PUSH1 0x0 NOT PUSH1 0x3 DUP7 SWAP1 SHL SHR NOT AND PUSH1 0x1 DUP6 SWAP1 SHL OR DUP6 SSTORE PUSH3 0x1FF JUMP JUMPDEST PUSH1 0x0 DUP6 DUP2 MSTORE PUSH1 0x20 DUP2 KECCAK256 PUSH1 0x1F NOT DUP7 AND SWAP2 JUMPDEST DUP3 DUP2 LT ISZERO PUSH3 0x2A5 JUMPI DUP9 DUP7 ADD MLOAD DUP3 SSTORE SWAP5 DUP5 ADD SWAP5 PUSH1 0x1 SWAP1 SWAP2 ADD SWAP1 DUP5 ADD PUSH3 0x284 JUMP JUMPDEST POP DUP6 DUP3 LT ISZERO PUSH3 0x2C4 JUMPI DUP8 DUP6 ADD MLOAD PUSH1 0x0 NOT PUSH1 0x3 DUP9 SWAP1 SHL PUSH1 0xF8 AND SHR NOT AND DUP2 SSTORE JUMPDEST POP POP POP POP POP PUSH1 0x1 SWAP1 DUP2 SHL ADD SWAP1 SSTORE POP JUMP JUMPDEST PUSH2 0x16DF DUP1 PUSH3 0x2E4 PUSH1 0x0 CODECOPY PUSH1 0x0 RETURN INVALID PUSH1 0x80 PUSH1 0x40 MSTORE CALLVALUE DUP1 ISZERO PUSH2 0x10 JUMPI PUSH1 0x0 DUP1 REVERT JUMPDEST POP PUSH1 0x4 CALLDATASIZE LT PUSH2 0x137 JUMPI PUSH1 0x0 CALLDATALOAD PUSH1 0xE0 SHR DUP1 PUSH4 0x8DA5CB5B GT PUSH2 0xB8 JUMPI DUP1 PUSH4 0xB74513C1 GT PUSH2 0x7C JUMPI DUP1 PUSH4 0xB74513C1 EQ PUSH2 0x27D JUMPI DUP1 PUSH4 0xCC203155 EQ PUSH2 0x285 JUMPI DUP1 PUSH4 0xE5A72D5B EQ PUSH2 0x298 JUMPI DUP1 PUSH4 0xFC68B3ED EQ PUSH2 0x2AB JUMPI DUP1 PUSH4 0xFDCF2DA6 EQ PUSH2 0x2BE JUMPI DUP1 PUSH4 0xFEA132D7 EQ PUSH2 0x2D1 JUMPI PUSH1 0x0 DUP1 REVERT JUMPDEST DUP1 PUSH4 0x8DA5CB5B EQ PUSH2 0x212 JUMPI DUP1 PUSH4 0x904C6094 EQ PUSH2 0x23D JUMPI DUP1 PUSH4 0x98BEAA4C EQ PUSH2 0x245 JUMPI DUP1 PUSH4 0xABCC7A65 EQ PUSH2 0x258 JUMPI DUP1 PUSH4 0xAC3EF22D EQ PUSH2 0x275 JUMPI PUSH1 0x0 DUP1 REVERT JUMPDEST DUP1 PUSH4 0x65A6BB29 GT PUSH2 0xFF JUMPI DUP1 PUSH4 0x65A6BB29 EQ PUSH2 0x1AC JUMPI DUP1 PUSH4 0x7F4E4849 EQ PUSH2 0x1C1 JUMPI DUP1 PUSH4 0x84731D6F EQ PUSH2 0x1D6 JUMPI DUP1 PUSH4 0x8594C127 EQ PUSH2 0x1F7 JUMPI DUP1 PUSH4 0x8901ADA7 EQ PUSH2 0x1FF JUMPI PUSH1 0x0 DUP1 REVERT JUMPDEST DUP1 PUSH4 0x35254BCD EQ PUSH2 0x13C JUMPI DUP1 PUSH4 0x38FCBC01 EQ PUSH2 0x146 JUMPI DUP1 PUSH4 0x42BE8CB5 EQ PUSH2 0x159 JUMPI DUP1 PUSH4 0x499BA0AA EQ PUSH2 0x17F JUMPI DUP1 PUSH4 0x58975919 EQ PUSH2 0x1A3 JUMPI JUMPDEST PUSH1 0x0 DUP1 REVERT JUMPDEST PUSH2 0x144 PUSH2 0x2E3 JUMP JUMPDEST STOP JUMPDEST PUSH2 0x144 PUSH2 0x154 CALLDATASIZE PUSH1 0x4 PUSH2 0x1168 JUMP JUMPDEST PUSH2 0x372 JUMP JUMPDEST PUSH2 0x16C PUSH2 0x167 CALLDATASIZE PUSH1 0x4 PUSH2 0x11A4 JUMP JUMPDEST PUSH2 0x575 JUMP JUMPDEST PUSH1 0x40 MLOAD SWAP1 DUP2 MSTORE PUSH1 0x20 ADD JUMPDEST PUSH1 0x40 MLOAD DUP1 SWAP2 SUB SWAP1 RETURN JUMPDEST PUSH2 0x192 PUSH2 0x18D CALLDATASIZE PUSH1 0x4 PUSH2 0x11A4 JUMP JUMPDEST PUSH2 0x596 JUMP JUMPDEST PUSH1 0x40 MLOAD PUSH2 0x176 SWAP6 SWAP5 SWAP4 SWAP3 SWAP2 SWAP1 PUSH2 0x1223 JUMP JUMPDEST PUSH2 0x16C PUSH1 0x1 SLOAD DUP2 JUMP JUMPDEST PUSH2 0x1B4 PUSH2 0x6EE JUMP JUMPDEST PUSH1 0x40 MLOAD PUSH2 0x176 SWAP2 SWAP1 PUSH2 0x1279 JUMP JUMPDEST PUSH2 0x1C9 PUSH2 0x7AB JUMP JUMPDEST PUSH1 0x40 MLOAD PUSH2 0x176 SWAP2 SWAP1 PUSH2 0x12BD JUMP JUMPDEST PUSH1 0x3 SLOAD PUSH2 0x1EA SWAP1 PUSH4 0x1000000 SWAP1 DIV PUSH1 0xFF AND DUP2 JUMP JUMPDEST PUSH1 0x40 MLOAD PUSH2 0x176 SWAP2 SWAP1 PUSH2 0x12D7 JUMP JUMPDEST PUSH2 0x1C9 PUSH2 0x826 JUMP JUMPDEST PUSH2 0x1C9 PUSH2 0x20D CALLDATASIZE PUSH1 0x4 PUSH2 0x11A4 JUMP JUMPDEST PUSH2 0x8A8 JUMP JUMPDEST PUSH1 0x0 SLOAD PUSH2 0x225 SWAP1 PUSH1 0x1 PUSH1 0x1 PUSH1 0xA0 SHL SUB AND DUP2 JUMP JUMPDEST PUSH1 0x40 MLOAD PUSH1 0x1 PUSH1 0x1 PUSH1 0xA0 SHL SUB SWAP1 SWAP2 AND DUP2 MSTORE PUSH1 0x20 ADD PUSH2 0x176 JUMP JUMPDEST PUSH2 0x1C9 PUSH2 0xACF JUMP JUMPDEST PUSH2 0x144 PUSH2 0x253 CALLDATASIZE PUSH1 0x4 PUSH2 0x1394 JUMP JUMPDEST PUSH2 0xB5D JUMP JUMPDEST PUSH1 0x3 SLOAD PUSH2 0x265 SWAP1 PUSH1 0xFF AND DUP2 JUMP JUMPDEST PUSH1 0x40 MLOAD SWAP1 ISZERO ISZERO DUP2 MSTORE PUSH1 0x20 ADD PUSH2 0x176 JUMP JUMPDEST PUSH2 0x144 PUSH2 0xCD9 JUMP JUMPDEST PUSH2 0x1B4 PUSH2 0xD8F JUMP JUMPDEST PUSH2 0x1C9 PUSH2 0x293 CALLDATASIZE PUSH1 0x4 PUSH2 0x11A4 JUMP JUMPDEST PUSH2 0xE4A JUMP JUMPDEST PUSH2 0x144 PUSH2 0x2A6 CALLDATASIZE PUSH1 0x4 PUSH2 0x11A4 JUMP JUMPDEST PUSH2 0xF33 JUMP JUMPDEST PUSH2 0x144 PUSH2 0x2B9 CALLDATASIZE PUSH1 0x4 PUSH2 0x11A4 JUMP JUMPDEST PUSH2 0xFB4 JUMP JUMPDEST PUSH1 0x3 SLOAD PUSH2 0x265 SWAP1 PUSH3 0x10000 SWAP1 DIV PUSH1 0xFF AND DUP2 JUMP JUMPDEST PUSH1 0x3 SLOAD PUSH2 0x265 SWAP1 PUSH2 0x100 SWAP1 DIV PUSH1 0xFF AND DUP2 JUMP JUMPDEST PUSH1 0x0 SLOAD PUSH1 0x1 PUSH1 0x1 PUSH1 0xA0 SHL SUB AND CALLER EQ PUSH2 0x2FA JUMPI PUSH1 0x0 DUP1 REVERT JUMPDEST PUSH1 0x3 SLOAD PUSH1 0xFF AND ISZERO PUSH2 0x326 JUMPI PUSH1 0x40 MLOAD PUSH3 0x461BCD PUSH1 0xE5 SHL DUP2 MSTORE PUSH1 0x4 ADD PUSH2 0x31D SWAP1 PUSH2 0x1401 JUMP JUMPDEST PUSH1 0x40 MLOAD DUP1 SWAP2 SUB SWAP1 REVERT JUMPDEST PUSH1 0x0 PUSH1 0x3 SLOAD PUSH4 0x1000000 SWAP1 DIV PUSH1 0xFF AND PUSH1 0x1 DUP2 GT ISZERO PUSH2 0x346 JUMPI PUSH2 0x346 PUSH2 0x120D JUMP JUMPDEST EQ PUSH2 0x363 JUMPI PUSH1 0x40 MLOAD PUSH3 0x461BCD PUSH1 0xE5 SHL DUP2 MSTORE PUSH1 0x4 ADD PUSH2 0x31D SWAP1 PUSH2 0x1438 JUMP JUMPDEST PUSH1 0x3 DUP1 SLOAD PUSH1 0xFF NOT AND PUSH1 0x1 OR SWAP1 SSTORE JUMP JUMPDEST PUSH1 0x0 SLOAD PUSH1 0x1 PUSH1 0x1 PUSH1 0xA0 SHL SUB AND CALLER EQ PUSH2 0x389 JUMPI PUSH1 0x0 DUP1 REVERT JUMPDEST PUSH1 0x3 SLOAD PUSH1 0xFF AND ISZERO PUSH2 0x3AC JUMPI PUSH1 0x40 MLOAD PUSH3 0x461BCD PUSH1 0xE5 SHL DUP2 MSTORE PUSH1 0x4 ADD PUSH2 0x31D SWAP1 PUSH2 0x1401 JUMP JUMPDEST PUSH1 0x0 PUSH1 0x3 SLOAD PUSH4 0x1000000 SWAP1 DIV PUSH1 0xFF AND PUSH1 0x1 DUP2 GT ISZERO PUSH2 0x3CC JUMPI PUSH2 0x3CC PUSH2 0x120D JUMP JUMPDEST EQ PUSH2 0x3E9 JUMPI PUSH1 0x40 MLOAD PUSH3 0x461BCD PUSH1 0xE5 SHL DUP2 MSTORE PUSH1 0x4 ADD PUSH2 0x31D SWAP1 PUSH2 0x1438 JUMP JUMPDEST PUSH1 0x3 SLOAD PUSH3 0x10000 SWAP1 DIV PUSH1 0xFF AND ISZERO PUSH2 0x442 JUMPI PUSH1 0x40 MLOAD PUSH3 0x461BCD PUSH1 0xE5 SHL DUP2 MSTORE PUSH1 0x20 PUSH1 0x4 DUP3 ADD MSTORE PUSH1 0x1E PUSH1 0x24 DUP3 ADD MSTORE PUSH32 0x526563697069656E7420526573706F6E736520616C7265616479207365740000 PUSH1 0x44 DUP3 ADD MSTORE PUSH1 0x64 ADD PUSH2 0x31D JUMP JUMPDEST PUSH1 0x0 JUMPDEST PUSH1 0x4 SLOAD DUP2 LT ISZERO PUSH2 0x56F JUMPI DUP4 PUSH1 0x4 DUP3 DUP2 SLOAD DUP2 LT PUSH2 0x463 JUMPI PUSH2 0x463 PUSH2 0x1465 JUMP JUMPDEST SWAP1 PUSH1 0x0 MSTORE PUSH1 0x20 PUSH1 0x0 KECCAK256 SWAP1 PUSH1 0x4 MUL ADD PUSH1 0x0 ADD SLOAD SUB PUSH2 0x567 JUMPI DUP3 ISZERO ISZERO PUSH1 0x1 SUB PUSH2 0x4D0 JUMPI PUSH1 0x0 PUSH1 0x4 DUP3 DUP2 SLOAD DUP2 LT PUSH2 0x499 JUMPI PUSH2 0x499 PUSH2 0x1465 JUMP JUMPDEST PUSH1 0x0 SWAP2 DUP3 MSTORE PUSH1 0x20 SWAP1 SWAP2 KECCAK256 PUSH1 0x3 PUSH1 0x4 SWAP1 SWAP3 MUL ADD ADD DUP1 SLOAD PUSH1 0xFF NOT AND PUSH1 0x1 DUP4 PUSH1 0x2 DUP2 GT ISZERO PUSH2 0x4C6 JUMPI PUSH2 0x4C6 PUSH2 0x120D JUMP JUMPDEST MUL OR SWAP1 SSTORE POP PUSH2 0x518 JUMP JUMPDEST PUSH1 0x1 PUSH1 0x4 DUP3 DUP2 SLOAD DUP2 LT PUSH2 0x4E5 JUMPI PUSH2 0x4E5 PUSH2 0x1465 JUMP JUMPDEST PUSH1 0x0 SWAP2 DUP3 MSTORE PUSH1 0x20 SWAP1 SWAP2 KECCAK256 PUSH1 0x3 PUSH1 0x4 SWAP1 SWAP3 MUL ADD ADD DUP1 SLOAD PUSH1 0xFF NOT AND PUSH1 0x1 DUP4 PUSH1 0x2 DUP2 GT ISZERO PUSH2 0x512 JUMPI PUSH2 0x512 PUSH2 0x120D JUMP JUMPDEST MUL OR SWAP1 SSTORE POP JUMPDEST DUP2 PUSH1 0x4 DUP3 DUP2 SLOAD DUP2 LT PUSH2 0x52C JUMPI PUSH2 0x52C PUSH2 0x1465 JUMP JUMPDEST PUSH1 0x0 SWAP2 DUP3 MSTORE PUSH1 0x20 SWAP1 SWAP2 KECCAK256 PUSH1 0x3 PUSH1 0x4 SWAP1 SWAP3 MUL ADD DUP2 ADD DUP1 SLOAD SWAP3 ISZERO ISZERO PUSH2 0x100 MUL PUSH2 0xFF00 NOT SWAP1 SWAP4 AND SWAP3 SWAP1 SWAP3 OR SWAP1 SWAP2 SSTORE DUP1 SLOAD PUSH3 0xFF0000 NOT AND PUSH3 0x10000 OR SWAP1 SSTORE JUMPDEST PUSH1 0x1 ADD PUSH2 0x445 JUMP JUMPDEST POP POP POP POP JUMP JUMPDEST PUSH1 0x5 DUP2 DUP2 SLOAD DUP2 LT PUSH2 0x585 JUMPI PUSH1 0x0 DUP1 REVERT JUMPDEST PUSH1 0x0 SWAP2 DUP3 MSTORE PUSH1 0x20 SWAP1 SWAP2 KECCAK256 ADD SLOAD SWAP1 POP DUP2 JUMP JUMPDEST PUSH1 0x4 DUP2 DUP2 SLOAD DUP2 LT PUSH2 0x5A6 JUMPI PUSH1 0x0 DUP1 REVERT JUMPDEST PUSH1 0x0 SWAP2 DUP3 MSTORE PUSH1 0x20 SWAP1 SWAP2 KECCAK256 PUSH1 0x4 SWAP1 SWAP2 MUL ADD DUP1 SLOAD PUSH1 0x1 DUP3 ADD DUP1 SLOAD SWAP2 SWAP4 POP SWAP1 PUSH2 0x5CB SWAP1 PUSH2 0x147B JUMP JUMPDEST DUP1 PUSH1 0x1F ADD PUSH1 0x20 DUP1 SWAP2 DIV MUL PUSH1 0x20 ADD PUSH1 0x40 MLOAD SWAP1 DUP2 ADD PUSH1 0x40 MSTORE DUP1 SWAP3 SWAP2 SWAP1 DUP2 DUP2 MSTORE PUSH1 0x20 ADD DUP3 DUP1 SLOAD PUSH2 0x5F7 SWAP1 PUSH2 0x147B JUMP JUMPDEST DUP1 ISZERO PUSH2 0x644 JUMPI DUP1 PUSH1 0x1F LT PUSH2 0x619 JUMPI PUSH2 0x100 DUP1 DUP4 SLOAD DIV MUL DUP4 MSTORE SWAP2 PUSH1 0x20 ADD SWAP2 PUSH2 0x644 JUMP JUMPDEST DUP3 ADD SWAP2 SWAP1 PUSH1 0x0 MSTORE PUSH1 0x20 PUSH1 0x0 KECCAK256 SWAP1 JUMPDEST DUP2 SLOAD DUP2 MSTORE SWAP1 PUSH1 0x1 ADD SWAP1 PUSH1 0x20 ADD DUP1 DUP4 GT PUSH2 0x627 JUMPI DUP3 SWAP1 SUB PUSH1 0x1F AND DUP3 ADD SWAP2 JUMPDEST POP POP POP POP POP SWAP1 DUP1 PUSH1 0x2 ADD DUP1 SLOAD PUSH2 0x659 SWAP1 PUSH2 0x147B JUMP JUMPDEST DUP1 PUSH1 0x1F ADD PUSH1 0x20 DUP1 SWAP2 DIV MUL PUSH1 0x20 ADD PUSH1 0x40 MLOAD SWAP1 DUP2 ADD PUSH1 0x40 MSTORE DUP1 SWAP3 SWAP2 SWAP1 DUP2 DUP2 MSTORE PUSH1 0x20 ADD DUP3 DUP1 SLOAD PUSH2 0x685 SWAP1 PUSH2 0x147B JUMP JUMPDEST DUP1 ISZERO PUSH2 0x6D2 JUMPI DUP1 PUSH1 0x1F LT PUSH2 0x6A7 JUMPI PUSH2 0x100 DUP1 DUP4 SLOAD DIV MUL DUP4 MSTORE SWAP2 PUSH1 0x20 ADD SWAP2 PUSH2 0x6D2 JUMP JUMPDEST DUP3 ADD SWAP2 SWAP1 PUSH1 0x0 MSTORE PUSH1 0x20 PUSH1 0x0 KECCAK256 SWAP1 JUMPDEST DUP2 SLOAD DUP2 MSTORE SWAP1 PUSH1 0x1 ADD SWAP1 PUSH1 0x20 ADD DUP1 DUP4 GT PUSH2 0x6B5 JUMPI DUP3 SWAP1 SUB PUSH1 0x1F AND DUP3 ADD SWAP2 JUMPDEST POP POP POP PUSH1 0x3 SWAP1 SWAP4 ADD SLOAD SWAP2 SWAP3 POP POP PUSH1 0xFF DUP1 DUP3 AND SWAP2 PUSH2 0x100 SWAP1 DIV AND DUP6 JUMP JUMPDEST PUSH1 0x0 SLOAD PUSH1 0x60 SWAP1 PUSH1 0x1 PUSH1 0x1 PUSH1 0xA0 SHL SUB AND CALLER EQ PUSH2 0x708 JUMPI PUSH1 0x0 DUP1 REVERT JUMPDEST PUSH1 0x5 SLOAD PUSH1 0x0 SWAP1 PUSH8 0xFFFFFFFFFFFFFFFF DUP2 GT ISZERO PUSH2 0x726 JUMPI PUSH2 0x726 PUSH2 0x12F1 JUMP JUMPDEST PUSH1 0x40 MLOAD SWAP1 DUP1 DUP3 MSTORE DUP1 PUSH1 0x20 MUL PUSH1 0x20 ADD DUP3 ADD PUSH1 0x40 MSTORE DUP1 ISZERO PUSH2 0x74F JUMPI DUP2 PUSH1 0x20 ADD PUSH1 0x20 DUP3 MUL DUP1 CALLDATASIZE DUP4 CALLDATACOPY ADD SWAP1 POP JUMPDEST POP SWAP1 POP PUSH1 0x0 JUMPDEST PUSH1 0x5 SLOAD DUP2 LT ISZERO PUSH2 0x7A5 JUMPI PUSH1 0x5 DUP2 DUP2 SLOAD DUP2 LT PUSH2 0x772 JUMPI PUSH2 0x772 PUSH2 0x1465 JUMP JUMPDEST SWAP1 PUSH1 0x0 MSTORE PUSH1 0x20 PUSH1 0x0 KECCAK256 ADD PUSH1 0x0 ADD SLOAD DUP3 DUP3 DUP2 MLOAD DUP2 LT PUSH2 0x792 JUMPI PUSH2 0x792 PUSH2 0x1465 JUMP JUMPDEST PUSH1 0x20 SWAP1 DUP2 MUL SWAP2 SWAP1 SWAP2 ADD ADD MSTORE PUSH1 0x1 ADD PUSH2 0x755 JUMP JUMPDEST POP SWAP2 SWAP1 POP JUMP JUMPDEST PUSH1 0x0 SLOAD PUSH1 0x60 SWAP1 PUSH1 0x1 PUSH1 0x1 PUSH1 0xA0 SHL SUB AND CALLER EQ PUSH2 0x7C5 JUMPI PUSH1 0x0 DUP1 REVERT JUMPDEST PUSH1 0x3 SLOAD PUSH1 0xFF AND ISZERO ISZERO PUSH1 0x1 SUB PUSH2 0x7FE JUMPI POP PUSH1 0x40 DUP1 MLOAD DUP1 DUP3 ADD SWAP1 SWAP2 MSTORE PUSH1 0xF DUP2 MSTORE PUSH15 0x10DBDB9D1C9858DD0810DB1BDCD959 PUSH1 0x8A SHL PUSH1 0x20 DUP3 ADD MSTORE SWAP1 JUMP JUMPDEST POP PUSH1 0x40 DUP1 MLOAD DUP1 DUP3 ADD SWAP1 SWAP2 MSTORE PUSH1 0xD DUP2 MSTORE PUSH13 0x21B7B73A3930B1BA1027B832B7 PUSH1 0x99 SHL PUSH1 0x20 DUP3 ADD MSTORE SWAP1 JUMP JUMPDEST PUSH1 0x0 SLOAD PUSH1 0x60 SWAP1 PUSH1 0x1 PUSH1 0x1 PUSH1 0xA0 SHL SUB AND CALLER EQ PUSH2 0x840 JUMPI PUSH1 0x0 DUP1 REVERT JUMPDEST PUSH1 0x0 PUSH1 0x3 SLOAD PUSH4 0x1000000 SWAP1 DIV PUSH1 0xFF AND PUSH1 0x1 DUP2 GT ISZERO PUSH2 0x860 JUMPI PUSH2 0x860 PUSH2 0x120D JUMP JUMPDEST SUB PUSH2 0x888 JUMPI POP PUSH1 0x40 DUP1 MLOAD DUP1 DUP3 ADD SWAP1 SWAP2 MSTORE PUSH1 0x8 DUP2 MSTORE PUSH8 0x111958D9585CD959 PUSH1 0xC2 SHL PUSH1 0x20 DUP3 ADD MSTORE SWAP1 JUMP JUMPDEST POP PUSH1 0x40 DUP1 MLOAD DUP1 DUP3 ADD SWAP1 SWAP2 MSTORE PUSH1 0x5 DUP2 MSTORE PUSH5 0x416C697665 PUSH1 0xD8 SHL PUSH1 0x20 DUP3 ADD MSTORE SWAP1 JUMP JUMPDEST PUSH1 0x0 SLOAD PUSH1 0x60 SWAP1 PUSH1 0x1 PUSH1 0x1 PUSH1 0xA0 SHL SUB AND CALLER EQ PUSH2 0x8C2 JUMPI PUSH1 0x0 DUP1 REVERT JUMPDEST PUSH1 0x0 JUMPDEST PUSH1 0x4 SLOAD DUP2 LT ISZERO PUSH2 0xAAB JUMPI DUP3 PUSH1 0x4 DUP3 DUP2 SLOAD DUP2 LT PUSH2 0x8E3 JUMPI PUSH2 0x8E3 PUSH2 0x1465 JUMP JUMPDEST SWAP1 PUSH1 0x0 MSTORE PUSH1 0x20 PUSH1 0x0 KECCAK256 SWAP1 PUSH1 0x4 MUL ADD PUSH1 0x0 ADD SLOAD SUB PUSH2 0xAA3 JUMPI PUSH1 0x0 PUSH1 0x4 DUP3 DUP2 SLOAD DUP2 LT PUSH2 0x90F JUMPI PUSH2 0x90F PUSH2 0x1465 JUMP JUMPDEST PUSH1 0x0 SWAP2 DUP3 MSTORE PUSH1 0x20 SWAP1 SWAP2 KECCAK256 PUSH1 0x3 PUSH1 0x4 SWAP1 SWAP3 MUL ADD ADD SLOAD PUSH1 0xFF AND PUSH1 0x2 DUP2 GT ISZERO PUSH2 0x937 JUMPI PUSH2 0x937 PUSH2 0x120D JUMP JUMPDEST SUB PUSH2 0x962 JUMPI POP POP PUSH1 0x40 DUP1 MLOAD DUP1 DUP3 ADD SWAP1 SWAP2 MSTORE PUSH1 0x8 DUP2 MSTORE PUSH8 0x1058D8D95C1D1959 PUSH1 0xC2 SHL PUSH1 0x20 DUP3 ADD MSTORE SWAP2 SWAP1 POP JUMP JUMPDEST PUSH1 0x1 PUSH1 0x4 DUP3 DUP2 SLOAD DUP2 LT PUSH2 0x977 JUMPI PUSH2 0x977 PUSH2 0x1465 JUMP JUMPDEST PUSH1 0x0 SWAP2 DUP3 MSTORE PUSH1 0x20 SWAP1 SWAP2 KECCAK256 PUSH1 0x3 PUSH1 0x4 SWAP1 SWAP3 MUL ADD ADD SLOAD PUSH1 0xFF AND PUSH1 0x2 DUP2 GT ISZERO PUSH2 0x99F JUMPI PUSH2 0x99F PUSH2 0x120D JUMP JUMPDEST EQ DUP1 ISZERO PUSH2 0x9D8 JUMPI POP PUSH1 0x4 DUP2 DUP2 SLOAD DUP2 LT PUSH2 0x9BA JUMPI PUSH2 0x9BA PUSH2 0x1465 JUMP JUMPDEST PUSH1 0x0 SWAP2 DUP3 MSTORE PUSH1 0x20 SWAP1 SWAP2 KECCAK256 PUSH1 0x4 SWAP1 SWAP2 MUL ADD PUSH1 0x3 ADD SLOAD PUSH2 0x100 SWAP1 DIV PUSH1 0xFF AND ISZERO JUMPDEST ISZERO PUSH2 0xA03 JUMPI POP POP PUSH1 0x40 DUP1 MLOAD DUP1 DUP3 ADD SWAP1 SWAP2 MSTORE PUSH1 0x8 DUP2 MSTORE PUSH8 0x14995A9958DD1959 PUSH1 0xC2 SHL PUSH1 0x20 DUP3 ADD MSTORE SWAP2 SWAP1 POP JUMP JUMPDEST PUSH1 0x1 PUSH1 0x4 DUP3 DUP2 SLOAD DUP2 LT PUSH2 0xA18 JUMPI PUSH2 0xA18 PUSH2 0x1465 JUMP JUMPDEST PUSH1 0x0 SWAP2 DUP3 MSTORE PUSH1 0x20 SWAP1 SWAP2 KECCAK256 PUSH1 0x3 PUSH1 0x4 SWAP1 SWAP3 MUL ADD ADD SLOAD PUSH1 0xFF AND PUSH1 0x2 DUP2 GT ISZERO PUSH2 0xA40 JUMPI PUSH2 0xA40 PUSH2 0x120D JUMP JUMPDEST EQ DUP1 ISZERO PUSH2 0xA7E JUMPI POP PUSH1 0x4 DUP2 DUP2 SLOAD DUP2 LT PUSH2 0xA5B JUMPI PUSH2 0xA5B PUSH2 0x1465 JUMP JUMPDEST PUSH1 0x0 SWAP2 DUP3 MSTORE PUSH1 0x20 SWAP1 SWAP2 KECCAK256 PUSH1 0x3 PUSH1 0x4 SWAP1 SWAP3 MUL ADD ADD SLOAD PUSH1 0xFF PUSH2 0x100 SWAP1 SWAP2 DIV AND ISZERO ISZERO PUSH1 0x1 EQ JUMPDEST ISZERO PUSH2 0xAA3 JUMPI PUSH1 0x40 MLOAD DUP1 PUSH1 0x60 ADD PUSH1 0x40 MSTORE DUP1 PUSH1 0x32 DUP2 MSTORE PUSH1 0x20 ADD PUSH2 0x1678 PUSH1 0x32 SWAP2 CODECOPY SWAP4 SWAP3 POP POP POP JUMP JUMPDEST PUSH1 0x1 ADD PUSH2 0x8C5 JUMP JUMPDEST POP POP PUSH1 0x40 DUP1 MLOAD DUP1 DUP3 ADD SWAP1 SWAP2 MSTORE PUSH1 0x6 DUP2 MSTORE PUSH6 0x6E6F64617461 PUSH1 0xD0 SHL PUSH1 0x20 DUP3 ADD MSTORE SWAP2 SWAP1 POP JUMP JUMPDEST PUSH1 0x2 DUP1 SLOAD PUSH2 0xADC SWAP1 PUSH2 0x147B JUMP JUMPDEST DUP1 PUSH1 0x1F ADD PUSH1 0x20 DUP1 SWAP2 DIV MUL PUSH1 0x20 ADD PUSH1 0x40 MLOAD SWAP1 DUP2 ADD PUSH1 0x40 MSTORE DUP1 SWAP3 SWAP2 SWAP1 DUP2 DUP2 MSTORE PUSH1 0x20 ADD DUP3 DUP1 SLOAD PUSH2 0xB08 SWAP1 PUSH2 0x147B JUMP JUMPDEST DUP1 ISZERO PUSH2 0xB55 JUMPI DUP1 PUSH1 0x1F LT PUSH2 0xB2A JUMPI PUSH2 0x100 DUP1 DUP4 SLOAD DIV MUL DUP4 MSTORE SWAP2 PUSH1 0x20 ADD SWAP2 PUSH2 0xB55 JUMP JUMPDEST DUP3 ADD SWAP2 SWAP1 PUSH1 0x0 MSTORE PUSH1 0x20 PUSH1 0x0 KECCAK256 SWAP1 JUMPDEST DUP2 SLOAD DUP2 MSTORE SWAP1 PUSH1 0x1 ADD SWAP1 PUSH1 0x20 ADD DUP1 DUP4 GT PUSH2 0xB38 JUMPI DUP3 SWAP1 SUB PUSH1 0x1F AND DUP3 ADD SWAP2 JUMPDEST POP POP POP POP POP DUP2 JUMP JUMPDEST PUSH1 0x0 SLOAD PUSH1 0x1 PUSH1 0x1 PUSH1 0xA0 SHL SUB AND CALLER EQ PUSH2 0xB74 JUMPI PUSH1 0x0 DUP1 REVERT JUMPDEST PUSH1 0x3 SLOAD PUSH1 0xFF AND ISZERO PUSH2 0xB97 JUMPI PUSH1 0x40 MLOAD PUSH3 0x461BCD PUSH1 0xE5 SHL DUP2 MSTORE PUSH1 0x4 ADD PUSH2 0x31D SWAP1 PUSH2 0x1401 JUMP JUMPDEST PUSH1 0x0 PUSH1 0x3 SLOAD PUSH4 0x1000000 SWAP1 DIV PUSH1 0xFF AND PUSH1 0x1 DUP2 GT ISZERO PUSH2 0xBB7 JUMPI PUSH2 0xBB7 PUSH2 0x120D JUMP JUMPDEST EQ PUSH2 0xBD4 JUMPI PUSH1 0x40 MLOAD PUSH3 0x461BCD PUSH1 0xE5 SHL DUP2 MSTORE PUSH1 0x4 ADD PUSH2 0x31D SWAP1 PUSH2 0x1438 JUMP JUMPDEST PUSH1 0x3 SLOAD PUSH2 0x100 SWAP1 DIV PUSH1 0xFF AND ISZERO PUSH2 0xC25 JUMPI PUSH1 0x40 MLOAD PUSH3 0x461BCD PUSH1 0xE5 SHL DUP2 MSTORE PUSH1 0x20 PUSH1 0x4 DUP3 ADD MSTORE PUSH1 0x16 PUSH1 0x24 DUP3 ADD MSTORE PUSH22 0x151A5B594814DD185B5C08185B1C9958591E481CD95D PUSH1 0x52 SHL PUSH1 0x44 DUP3 ADD MSTORE PUSH1 0x64 ADD PUSH2 0x31D JUMP JUMPDEST PUSH1 0x0 JUMPDEST PUSH1 0x4 SLOAD DUP2 LT ISZERO PUSH2 0x56F JUMPI DUP4 PUSH1 0x4 DUP3 DUP2 SLOAD DUP2 LT PUSH2 0xC46 JUMPI PUSH2 0xC46 PUSH2 0x1465 JUMP JUMPDEST SWAP1 PUSH1 0x0 MSTORE PUSH1 0x20 PUSH1 0x0 KECCAK256 SWAP1 PUSH1 0x4 MUL ADD PUSH1 0x0 ADD SLOAD SUB PUSH2 0xCD1 JUMPI DUP3 PUSH1 0x4 DUP3 DUP2 SLOAD DUP2 LT PUSH2 0xC71 JUMPI PUSH2 0xC71 PUSH2 0x1465 JUMP JUMPDEST SWAP1 PUSH1 0x0 MSTORE PUSH1 0x20 PUSH1 0x0 KECCAK256 SWAP1 PUSH1 0x4 MUL ADD PUSH1 0x1 ADD SWAP1 DUP2 PUSH2 0xC8E SWAP2 SWAP1 PUSH2 0x1500 JUMP JUMPDEST POP DUP2 PUSH1 0x4 DUP3 DUP2 SLOAD DUP2 LT PUSH2 0xCA3 JUMPI PUSH2 0xCA3 PUSH2 0x1465 JUMP JUMPDEST SWAP1 PUSH1 0x0 MSTORE PUSH1 0x20 PUSH1 0x0 KECCAK256 SWAP1 PUSH1 0x4 MUL ADD PUSH1 0x2 ADD SWAP1 DUP2 PUSH2 0xCC0 SWAP2 SWAP1 PUSH2 0x1500 JUMP JUMPDEST POP PUSH1 0x3 DUP1 SLOAD PUSH2 0xFF00 NOT AND PUSH2 0x100 OR SWAP1 SSTORE JUMPDEST PUSH1 0x1 ADD PUSH2 0xC28 JUMP JUMPDEST PUSH1 0x0 SLOAD PUSH1 0x1 PUSH1 0x1 PUSH1 0xA0 SHL SUB AND CALLER EQ PUSH2 0xCF0 JUMPI PUSH1 0x0 DUP1 REVERT JUMPDEST PUSH1 0x1 PUSH1 0x3 SLOAD PUSH4 0x1000000 SWAP1 DIV PUSH1 0xFF AND PUSH1 0x1 DUP2 GT ISZERO PUSH2 0xD10 JUMPI PUSH2 0xD10 PUSH2 0x120D JUMP JUMPDEST EQ PUSH2 0xD5D JUMPI PUSH1 0x40 MLOAD PUSH3 0x461BCD PUSH1 0xE5 SHL DUP2 MSTORE PUSH1 0x20 PUSH1 0x4 DUP3 ADD MSTORE PUSH1 0x1C PUSH1 0x24 DUP3 ADD MSTORE PUSH32 0x5573657220646563656173656420697320616C72656164792073657400000000 PUSH1 0x44 DUP3 ADD MSTORE PUSH1 0x64 ADD PUSH2 0x31D JUMP JUMPDEST PUSH1 0x3 SLOAD PUSH1 0xFF AND ISZERO PUSH2 0xD80 JUMPI PUSH1 0x40 MLOAD PUSH3 0x461BCD PUSH1 0xE5 SHL DUP2 MSTORE PUSH1 0x4 ADD PUSH2 0x31D SWAP1 PUSH2 0x1401 JUMP JUMPDEST PUSH1 0x3 DUP1 SLOAD PUSH4 0xFF000000 NOT AND SWAP1 SSTORE JUMP JUMPDEST PUSH1 0x0 SLOAD PUSH1 0x60 SWAP1 PUSH1 0x1 PUSH1 0x1 PUSH1 0xA0 SHL SUB AND CALLER EQ PUSH2 0xDA9 JUMPI PUSH1 0x0 DUP1 REVERT JUMPDEST PUSH1 0x4 SLOAD PUSH1 0x0 SWAP1 PUSH8 0xFFFFFFFFFFFFFFFF DUP2 GT ISZERO PUSH2 0xDC7 JUMPI PUSH2 0xDC7 PUSH2 0x12F1 JUMP JUMPDEST PUSH1 0x40 MLOAD SWAP1 DUP1 DUP3 MSTORE DUP1 PUSH1 0x20 MUL PUSH1 0x20 ADD DUP3 ADD PUSH1 0x40 MSTORE DUP1 ISZERO PUSH2 0xDF0 JUMPI DUP2 PUSH1 0x20 ADD PUSH1 0x20 DUP3 MUL DUP1 CALLDATASIZE DUP4 CALLDATACOPY ADD SWAP1 POP JUMPDEST POP SWAP1 POP PUSH1 0x0 JUMPDEST PUSH1 0x4 SLOAD DUP2 LT ISZERO PUSH2 0x7A5 JUMPI PUSH1 0x4 DUP2 DUP2 SLOAD DUP2 LT PUSH2 0xE13 JUMPI PUSH2 0xE13 PUSH2 0x1465 JUMP JUMPDEST SWAP1 PUSH1 0x0 MSTORE PUSH1 0x20 PUSH1 0x0 KECCAK256 SWAP1 PUSH1 0x4 MUL ADD PUSH1 0x0 ADD SLOAD DUP3 DUP3 DUP2 MLOAD DUP2 LT PUSH2 0xE37 JUMPI PUSH2 0xE37 PUSH2 0x1465 JUMP JUMPDEST PUSH1 0x20 SWAP1 DUP2 MUL SWAP2 SWAP1 SWAP2 ADD ADD MSTORE PUSH1 0x1 ADD PUSH2 0xDF6 JUMP JUMPDEST PUSH1 0x0 SLOAD PUSH1 0x60 SWAP1 PUSH1 0x1 PUSH1 0x1 PUSH1 0xA0 SHL SUB AND CALLER EQ PUSH2 0xE64 JUMPI PUSH1 0x0 DUP1 REVERT JUMPDEST PUSH1 0x0 JUMPDEST PUSH1 0x4 SLOAD DUP2 LT ISZERO PUSH2 0xAAB JUMPI DUP3 PUSH1 0x4 DUP3 DUP2 SLOAD DUP2 LT PUSH2 0xE85 JUMPI PUSH2 0xE85 PUSH2 0x1465 JUMP JUMPDEST SWAP1 PUSH1 0x0 MSTORE PUSH1 0x20 PUSH1 0x0 KECCAK256 SWAP1 PUSH1 0x4 MUL ADD PUSH1 0x0 ADD SLOAD SUB PUSH2 0xF2B JUMPI PUSH1 0x4 DUP2 DUP2 SLOAD DUP2 LT PUSH2 0xEAF JUMPI PUSH2 0xEAF PUSH2 0x1465 JUMP JUMPDEST SWAP1 PUSH1 0x0 MSTORE PUSH1 0x20 PUSH1 0x0 KECCAK256 SWAP1 PUSH1 0x4 MUL ADD PUSH1 0x2 ADD PUSH1 0x40 MLOAD PUSH1 0x20 ADD PUSH2 0xED0 SWAP2 SWAP1 PUSH2 0x1633 JUMP JUMPDEST PUSH1 0x40 MLOAD PUSH1 0x20 DUP2 DUP4 SUB SUB DUP2 MSTORE SWAP1 PUSH1 0x40 MSTORE PUSH1 0x4 DUP3 DUP2 SLOAD DUP2 LT PUSH2 0xEF2 JUMPI PUSH2 0xEF2 PUSH2 0x1465 JUMP JUMPDEST SWAP1 PUSH1 0x0 MSTORE PUSH1 0x20 PUSH1 0x0 KECCAK256 SWAP1 PUSH1 0x4 MUL ADD PUSH1 0x1 ADD PUSH1 0x40 MLOAD PUSH1 0x20 ADD PUSH2 0xF14 SWAP3 SWAP2 SWAP1 PUSH2 0x1650 JUMP JUMPDEST PUSH1 0x40 MLOAD PUSH1 0x20 DUP2 DUP4 SUB SUB DUP2 MSTORE SWAP1 PUSH1 0x40 MSTORE SWAP2 POP POP SWAP2 SWAP1 POP JUMP JUMPDEST PUSH1 0x1 ADD PUSH2 0xE67 JUMP JUMPDEST PUSH1 0x0 SLOAD PUSH1 0x1 PUSH1 0x1 PUSH1 0xA0 SHL SUB AND CALLER EQ PUSH2 0xF4A JUMPI PUSH1 0x0 DUP1 REVERT JUMPDEST PUSH1 0x3 SLOAD PUSH1 0xFF AND ISZERO PUSH2 0xF6D JUMPI PUSH1 0x40 MLOAD PUSH3 0x461BCD PUSH1 0xE5 SHL DUP2 MSTORE PUSH1 0x4 ADD PUSH2 0x31D SWAP1 PUSH2 0x1401 JUMP JUMPDEST PUSH1 0x40 DUP1 MLOAD PUSH1 0x20 DUP2 ADD SWAP1 SWAP2 MSTORE SWAP1 DUP2 MSTORE PUSH1 0x5 DUP1 SLOAD PUSH1 0x1 DUP2 ADD DUP3 SSTORE PUSH1 0x0 SWAP2 SWAP1 SWAP2 MSTORE SWAP1 MLOAD PUSH32 0x36B6384B5ECA791C62761152D0C79BB0604C104A5FB6F4EB0703F3154BB3DB0 SWAP1 SWAP2 ADD SSTORE JUMP JUMPDEST PUSH1 0x0 SLOAD PUSH1 0x1 PUSH1 0x1 PUSH1 0xA0 SHL SUB AND CALLER EQ PUSH2 0xFCB JUMPI PUSH1 0x0 DUP1 REVERT JUMPDEST PUSH1 0x3 SLOAD PUSH1 0xFF AND ISZERO PUSH2 0xFEE JUMPI PUSH1 0x40 MLOAD PUSH3 0x461BCD PUSH1 0xE5 SHL DUP2 MSTORE PUSH1 0x4 ADD PUSH2 0x31D SWAP1 PUSH2 0x1401 JUMP JUMPDEST PUSH2 0xFF6 PUSH2 0x1113 JUMP JUMPDEST DUP2 DUP2 MSTORE PUSH1 0x2 PUSH1 0x60 DUP3 ADD DUP2 SWAP1 MSTORE POP PUSH1 0x40 DUP1 MLOAD DUP1 DUP3 ADD DUP3 MSTORE PUSH1 0x6 DUP1 DUP3 MSTORE PUSH6 0x6E6F64617461 PUSH1 0xD0 SHL PUSH1 0x20 DUP1 DUP5 ADD DUP3 SWAP1 MSTORE DUP6 DUP2 ADD SWAP4 DUP5 MSTORE DUP5 MLOAD DUP1 DUP7 ADD DUP7 MSTORE SWAP3 DUP4 MSTORE DUP3 ADD MSTORE SWAP2 DUP4 ADD SWAP2 SWAP1 SWAP2 MSTORE PUSH1 0x0 PUSH1 0x80 DUP4 ADD DUP2 SWAP1 MSTORE PUSH1 0x4 DUP1 SLOAD PUSH1 0x1 DUP2 ADD DUP3 SSTORE SWAP2 DUP2 SWAP1 MSTORE DUP4 MLOAD SWAP2 MUL PUSH32 0x8A35ACFBC15FF81A39AE7D344FD709F28E8600B4AA8C65C6B64BFE7FE36BD19B DUP2 ADD SWAP2 DUP3 SSTORE SWAP2 MLOAD DUP4 SWAP3 PUSH32 0x8A35ACFBC15FF81A39AE7D344FD709F28E8600B4AA8C65C6B64BFE7FE36BD19C ADD SWAP1 PUSH2 0x10AF SWAP1 DUP3 PUSH2 0x1500 JUMP JUMPDEST POP PUSH1 0x40 DUP3 ADD MLOAD PUSH1 0x2 DUP3 ADD SWAP1 PUSH2 0x10C4 SWAP1 DUP3 PUSH2 0x1500 JUMP JUMPDEST POP PUSH1 0x60 DUP3 ADD MLOAD PUSH1 0x3 DUP3 ADD DUP1 SLOAD PUSH1 0xFF NOT AND PUSH1 0x1 DUP4 PUSH1 0x2 DUP2 GT ISZERO PUSH2 0x10E8 JUMPI PUSH2 0x10E8 PUSH2 0x120D JUMP JUMPDEST MUL OR SWAP1 SSTORE POP PUSH1 0x80 SWAP2 SWAP1 SWAP2 ADD MLOAD PUSH1 0x3 SWAP1 SWAP2 ADD DUP1 SLOAD SWAP2 ISZERO ISZERO PUSH2 0x100 MUL PUSH2 0xFF00 NOT SWAP1 SWAP3 AND SWAP2 SWAP1 SWAP2 OR SWAP1 SSTORE POP POP JUMP JUMPDEST PUSH1 0x40 MLOAD DUP1 PUSH1 0xA0 ADD PUSH1 0x40 MSTORE DUP1 PUSH1 0x0 DUP2 MSTORE PUSH1 0x20 ADD PUSH1 0x60 DUP2 MSTORE PUSH1 0x20 ADD PUSH1 0x60 DUP2 MSTORE PUSH1 0x20 ADD PUSH1 0x0 PUSH1 0x2 DUP2 GT ISZERO PUSH2 0x1146 JUMPI PUSH2 0x1146 PUSH2 0x120D JUMP JUMPDEST DUP2 MSTORE PUSH1 0x0 PUSH1 0x20 SWAP1 SWAP2 ADD MSTORE SWAP1 JUMP JUMPDEST DUP1 CALLDATALOAD DUP1 ISZERO ISZERO DUP2 EQ PUSH2 0x1163 JUMPI PUSH1 0x0 DUP1 REVERT JUMPDEST SWAP2 SWAP1 POP JUMP JUMPDEST PUSH1 0x0 DUP1 PUSH1 0x0 PUSH1 0x60 DUP5 DUP7 SUB SLT ISZERO PUSH2 0x117D JUMPI PUSH1 0x0 DUP1 REVERT JUMPDEST DUP4 CALLDATALOAD SWAP3 POP PUSH2 0x118D PUSH1 0x20 DUP6 ADD PUSH2 0x1153 JUMP JUMPDEST SWAP2 POP PUSH2 0x119B PUSH1 0x40 DUP6 ADD PUSH2 0x1153 JUMP JUMPDEST SWAP1 POP SWAP3 POP SWAP3 POP SWAP3 JUMP JUMPDEST PUSH1 0x0 PUSH1 0x20 DUP3 DUP5 SUB SLT ISZERO PUSH2 0x11B6 JUMPI PUSH1 0x0 DUP1 REVERT JUMPDEST POP CALLDATALOAD SWAP2 SWAP1 POP JUMP JUMPDEST PUSH1 0x0 JUMPDEST DUP4 DUP2 LT ISZERO PUSH2 0x11D8 JUMPI DUP2 DUP2 ADD MLOAD DUP4 DUP3 ADD MSTORE PUSH1 0x20 ADD PUSH2 0x11C0 JUMP JUMPDEST POP POP PUSH1 0x0 SWAP2 ADD MSTORE JUMP JUMPDEST PUSH1 0x0 DUP2 MLOAD DUP1 DUP5 MSTORE PUSH2 0x11F9 DUP2 PUSH1 0x20 DUP7 ADD PUSH1 0x20 DUP7 ADD PUSH2 0x11BD JUMP JUMPDEST PUSH1 0x1F ADD PUSH1 0x1F NOT AND SWAP3 SWAP1 SWAP3 ADD PUSH1 0x20 ADD SWAP3 SWAP2 POP POP JUMP JUMPDEST PUSH4 0x4E487B71 PUSH1 0xE0 SHL PUSH1 0x0 MSTORE PUSH1 0x21 PUSH1 0x4 MSTORE PUSH1 0x24 PUSH1 0x0 REVERT JUMPDEST DUP6 DUP2 MSTORE PUSH1 0xA0 PUSH1 0x20 DUP3 ADD MSTORE PUSH1 0x0 PUSH2 0x123C PUSH1 0xA0 DUP4 ADD DUP8 PUSH2 0x11E1 JUMP JUMPDEST DUP3 DUP2 SUB PUSH1 0x40 DUP5 ADD MSTORE PUSH2 0x124E DUP2 DUP8 PUSH2 0x11E1 JUMP JUMPDEST SWAP2 POP POP PUSH1 0x3 DUP5 LT PUSH2 0x1261 JUMPI PUSH2 0x1261 PUSH2 0x120D JUMP JUMPDEST DUP4 PUSH1 0x60 DUP4 ADD MSTORE DUP3 ISZERO ISZERO PUSH1 0x80 DUP4 ADD MSTORE SWAP7 SWAP6 POP POP POP POP POP POP JUMP JUMPDEST PUSH1 0x20 DUP1 DUP3 MSTORE DUP3 MLOAD DUP3 DUP3 ADD DUP2 SWAP1 MSTORE PUSH1 0x0 SWAP2 SWAP1 DUP5 DUP3 ADD SWAP1 PUSH1 0x40 DUP6 ADD SWAP1 DUP5 JUMPDEST DUP2 DUP2 LT ISZERO PUSH2 0x12B1 JUMPI DUP4 MLOAD DUP4 MSTORE SWAP3 DUP5 ADD SWAP3 SWAP2 DUP5 ADD SWAP2 PUSH1 0x1 ADD PUSH2 0x1295 JUMP JUMPDEST POP SWAP1 SWAP7 SWAP6 POP POP POP POP POP POP JUMP JUMPDEST PUSH1 0x20 DUP2 MSTORE PUSH1 0x0 PUSH2 0x12D0 PUSH1 0x20 DUP4 ADD DUP5 PUSH2 0x11E1 JUMP JUMPDEST SWAP4 SWAP3 POP POP POP JUMP JUMPDEST PUSH1 0x20 DUP2 ADD PUSH1 0x2 DUP4 LT PUSH2 0x12EB JUMPI PUSH2 0x12EB PUSH2 0x120D JUMP JUMPDEST SWAP2 SWAP1 MSTORE SWAP1 JUMP JUMPDEST PUSH4 0x4E487B71 PUSH1 0xE0 SHL PUSH1 0x0 MSTORE PUSH1 0x41 PUSH1 0x4 MSTORE PUSH1 0x24 PUSH1 0x0 REVERT JUMPDEST PUSH1 0x0 DUP3 PUSH1 0x1F DUP4 ADD SLT PUSH2 0x1318 JUMPI PUSH1 0x0 DUP1 REVERT JUMPDEST DUP2 CALLDATALOAD PUSH8 0xFFFFFFFFFFFFFFFF DUP1 DUP3 GT ISZERO PUSH2 0x1333 JUMPI PUSH2 0x1333 PUSH2 0x12F1 JUMP JUMPDEST PUSH1 0x40 MLOAD PUSH1 0x1F DUP4 ADD PUSH1 0x1F NOT SWAP1 DUP2 AND PUSH1 0x3F ADD AND DUP2 ADD SWAP1 DUP3 DUP3 GT DUP2 DUP4 LT OR ISZERO PUSH2 0x135B JUMPI PUSH2 0x135B PUSH2 0x12F1 JUMP JUMPDEST DUP2 PUSH1 0x40 MSTORE DUP4 DUP2 MSTORE DUP7 PUSH1 0x20 DUP6 DUP9 ADD ADD GT ISZERO PUSH2 0x1374 JUMPI PUSH1 0x0 DUP1 REVERT JUMPDEST DUP4 PUSH1 0x20 DUP8 ADD PUSH1 0x20 DUP4 ADD CALLDATACOPY PUSH1 0x0 PUSH1 0x20 DUP6 DUP4 ADD ADD MSTORE DUP1 SWAP5 POP POP POP POP POP SWAP3 SWAP2 POP POP JUMP JUMPDEST PUSH1 0x0 DUP1 PUSH1 0x0 PUSH1 0x60 DUP5 DUP7 SUB SLT ISZERO PUSH2 0x13A9 JUMPI PUSH1 0x0 DUP1 REVERT JUMPDEST DUP4 CALLDATALOAD SWAP3 POP PUSH1 0x20 DUP5 ADD CALLDATALOAD PUSH8 0xFFFFFFFFFFFFFFFF DUP1 DUP3 GT ISZERO PUSH2 0x13C8 JUMPI PUSH1 0x0 DUP1 REVERT JUMPDEST PUSH2 0x13D4 DUP8 DUP4 DUP9 ADD PUSH2 0x1307 JUMP JUMPDEST SWAP4 POP PUSH1 0x40 DUP7 ADD CALLDATALOAD SWAP2 POP DUP1 DUP3 GT ISZERO PUSH2 0x13EA JUMPI PUSH1 0x0 DUP1 REVERT JUMPDEST POP PUSH2 0x13F7 DUP7 DUP3 DUP8 ADD PUSH2 0x1307 JUMP JUMPDEST SWAP2 POP POP SWAP3 POP SWAP3 POP SWAP3 JUMP JUMPDEST PUSH1 0x20 DUP1 DUP3 MSTORE PUSH1 0x18 SWAP1 DUP3 ADD MSTORE PUSH32 0x536D61727420436F6E747261637420697320636C6F7365640000000000000000 PUSH1 0x40 DUP3 ADD MSTORE PUSH1 0x60 ADD SWAP1 JUMP JUMPDEST PUSH1 0x20 DUP1 DUP3 MSTORE PUSH1 0x13 SWAP1 DUP3 ADD MSTORE PUSH19 0x55736572206973207374696C6C20616C697665 PUSH1 0x68 SHL PUSH1 0x40 DUP3 ADD MSTORE PUSH1 0x60 ADD SWAP1 JUMP JUMPDEST PUSH4 0x4E487B71 PUSH1 0xE0 SHL PUSH1 0x0 MSTORE PUSH1 0x32 PUSH1 0x4 MSTORE PUSH1 0x24 PUSH1 0x0 REVERT JUMPDEST PUSH1 0x1 DUP2 DUP2 SHR SWAP1 DUP3 AND DUP1 PUSH2 0x148F JUMPI PUSH1 0x7F DUP3 AND SWAP2 POP JUMPDEST PUSH1 0x20 DUP3 LT DUP2 SUB PUSH2 0x7A5 JUMPI PUSH4 0x4E487B71 PUSH1 0xE0 SHL PUSH1 0x0 MSTORE PUSH1 0x22 PUSH1 0x4 MSTORE PUSH1 0x24 PUSH1 0x0 REVERT JUMPDEST PUSH1 0x1F DUP3 GT ISZERO PUSH2 0x14FB JUMPI PUSH1 0x0 DUP2 PUSH1 0x0 MSTORE PUSH1 0x20 PUSH1 0x0 KECCAK256 PUSH1 0x1F DUP6 ADD PUSH1 0x5 SHR DUP2 ADD PUSH1 0x20 DUP7 LT ISZERO PUSH2 0x14D8 JUMPI POP DUP1 JUMPDEST PUSH1 0x1F DUP6 ADD PUSH1 0x5 SHR DUP3 ADD SWAP2 POP JUMPDEST DUP2 DUP2 LT ISZERO PUSH2 0x14F7 JUMPI DUP3 DUP2 SSTORE PUSH1 0x1 ADD PUSH2 0x14E4 JUMP JUMPDEST POP POP POP JUMPDEST POP POP POP JUMP JUMPDEST DUP2 MLOAD PUSH8 0xFFFFFFFFFFFFFFFF DUP2 GT ISZERO PUSH2 0x151A JUMPI PUSH2 0x151A PUSH2 0x12F1 JUMP JUMPDEST PUSH2 0x152E DUP2 PUSH2 0x1528 DUP5 SLOAD PUSH2 0x147B JUMP JUMPDEST DUP5 PUSH2 0x14AF JUMP JUMPDEST PUSH1 0x20 DUP1 PUSH1 0x1F DUP4 GT PUSH1 0x1 DUP2 EQ PUSH2 0x1563 JUMPI PUSH1 0x0 DUP5 ISZERO PUSH2 0x154B JUMPI POP DUP6 DUP4 ADD MLOAD JUMPDEST PUSH1 0x0 NOT PUSH1 0x3 DUP7 SWAP1 SHL SHR NOT AND PUSH1 0x1 DUP6 SWAP1 SHL OR DUP6 SSTORE PUSH2 0x14F7 JUMP JUMPDEST PUSH1 0x0 DUP6 DUP2 MSTORE PUSH1 0x20 DUP2 KECCAK256 PUSH1 0x1F NOT DUP7 AND SWAP2 JUMPDEST DUP3 DUP2 LT ISZERO PUSH2 0x1592 JUMPI DUP9 DUP7 ADD MLOAD DUP3 SSTORE SWAP5 DUP5 ADD SWAP5 PUSH1 0x1 SWAP1 SWAP2 ADD SWAP1 DUP5 ADD PUSH2 0x1573 JUMP JUMPDEST POP DUP6 DUP3 LT ISZERO PUSH2 0x15B0 JUMPI DUP8 DUP6 ADD MLOAD PUSH1 0x0 NOT PUSH1 0x3 DUP9 SWAP1 SHL PUSH1 0xF8 AND SHR NOT AND DUP2 SSTORE JUMPDEST POP POP POP POP POP PUSH1 0x1 SWAP1 DUP2 SHL ADD SWAP1 SSTORE POP JUMP JUMPDEST PUSH1 0x0 DUP2 SLOAD PUSH2 0x15CD DUP2 PUSH2 0x147B JUMP JUMPDEST PUSH1 0x1 DUP3 DUP2 AND DUP1 ISZERO PUSH2 0x15E5 JUMPI PUSH1 0x1 DUP2 EQ PUSH2 0x15FA JUMPI PUSH2 0x1629 JUMP JUMPDEST PUSH1 0xFF NOT DUP5 AND DUP8 MSTORE DUP3 ISZERO ISZERO DUP4 MUL DUP8 ADD SWAP5 POP PUSH2 0x1629 JUMP JUMPDEST DUP6 PUSH1 0x0 MSTORE PUSH1 0x20 DUP1 PUSH1 0x0 KECCAK256 PUSH1 0x0 JUMPDEST DUP6 DUP2 LT ISZERO PUSH2 0x1620 JUMPI DUP2 SLOAD DUP11 DUP3 ADD MSTORE SWAP1 DUP5 ADD SWAP1 DUP3 ADD PUSH2 0x1607 JUMP JUMPDEST POP POP POP DUP3 DUP8 ADD SWAP5 POP JUMPDEST POP POP POP POP SWAP3 SWAP2 POP POP JUMP JUMPDEST PUSH1 0x0 PUSH2 0x163F DUP3 DUP5 PUSH2 0x15C0 JUMP JUMPDEST PUSH1 0x1 PUSH1 0xFD SHL DUP2 MSTORE PUSH1 0x1 ADD SWAP4 SWAP3 POP POP POP JUMP JUMPDEST PUSH1 0x0 DUP4 MLOAD PUSH2 0x1662 DUP2 DUP5 PUSH1 0x20 DUP9 ADD PUSH2 0x11BD JUMP JUMPDEST PUSH2 0x166E DUP2 DUP5 ADD DUP6 PUSH2 0x15C0 JUMP JUMPDEST SWAP6 SWAP5 POP POP POP POP POP JUMP INVALID MSTORE PUSH6 0x6A6563746564 0x2C KECCAK256 PUSH21 0x696D6520657870697265643A206E6F20726573706F PUSH15 0x73652066726F6D2072656369706965 PUSH15 0x74A26469706673582212205EFFA390 0xAA RETURN 0xFC PUSH7 0x1DDF31E9757DDA SHR PUSH12 0x9A50687A061D905CE54AE659 0x2C 0xAC 0xB1 PUSH5 0x736F6C6343 STOP ADDMOD OR STOP CALLER LOG2 PUSH5 0x6970667358 0x22 SLT KECCAK256 REVERT 0xE8 DUP12 DUP16 0xC5 SMOD 0xCA 0xD8 0xC4 SMOD NUMBER EQ DUP1 PUSH31 0x253290B2C215720DC100C1402F5DED9C3D0164736F6C634300081700330000 "
		},
		"gasEstimates": {
			"creation": {
				"codeDepositCost": "3149600",
				"executionCost": "27718",
				"totalCost": "3177318"
			},
			"external": {
				"addNewOracle(uint256,uint256)": "infinite",
				"addNewRecipient(uint256,uint256)": "infinite",
				"closeUserContract(uint256)": "infinite",
				"contract_user_map(uint256)": "2533",
				"createNewUserContract(uint256,string)": "infinite",
				"getAllOracles(uint256)": "infinite",
				"getAllRecipients(uint256)": "infinite",
				"getAllUsersId()": "infinite",
				"getRecipientResponse(uint256,uint256)": "infinite",
				"getRecipientTimeStamp(uint256,uint256)": "infinite",
				"getUserContractState(uint256)": "infinite",
				"getUserState(uint256)": "infinite",
				"owner()": "2392",
				"recipientResponse(uint256,uint256,bool,bool)": "infinite",
				"updateTimestamp(uint256,uint256,string,string)": "infinite",
				"userDeathNotify(uint256)": "infinite"
			},
			"internal": {
				"isOracleExist(uint256,uint256)": "infinite",
				"isRecipientExist(uint256,uint256)": "infinite",
				"isResponseOk(bool,bool)": "107",
				"isUserExist(uint256)": "infinite"
			}
		},
		"methodIdentifiers": {
			"addNewOracle(uint256,uint256)": "2661317e",
			"addNewRecipient(uint256,uint256)": "1440a7f2",
			"closeUserContract(uint256)": "40ca85c6",
			"contract_user_map(uint256)": "21132777",
			"createNewUserContract(uint256,string)": "a50dfd78",
			"getAllOracles(uint256)": "9efb6289",
			"getAllRecipients(uint256)": "fcd6704c",
			"getAllUsersId()": "04740a17",
			"getRecipientResponse(uint256,uint256)": "2c8b8c03",
			"getRecipientTimeStamp(uint256,uint256)": "e35f9064",
			"getUserContractState(uint256)": "e5806a80",
			"getUserState(uint256)": "907e1522",
			"owner()": "8da5cb5b",
			"recipientResponse(uint256,uint256,bool,bool)": "d43b8fab",
			"updateTimestamp(uint256,uint256,string,string)": "ad200d51",
			"userDeathNotify(uint256)": "947fd5c3"
		}
	},
	"abi": [
		{
			"inputs": [],
			"stateMutability": "nonpayable",
			"type": "constructor"
		},
		{
			"anonymous": false,
			"inputs": [
				{
					"indexed": false,
					"internalType": "string",
					"name": "_value",
					"type": "string"
				}
			],
			"name": "ContractState",
			"type": "event"
		},
		{
			"anonymous": false,
			"inputs": [
				{
					"indexed": false,
					"internalType": "uint256[]",
					"name": "_value",
					"type": "uint256[]"
				}
			],
			"name": "Oracle",
			"type": "event"
		},
		{
			"anonymous": false,
			"inputs": [
				{
					"indexed": false,
					"internalType": "uint256[]",
					"name": "_value",
					"type": "uint256[]"
				}
			],
			"name": "Recipient",
			"type": "event"
		},
		{
			"anonymous": false,
			"inputs": [
				{
					"indexed": false,
					"internalType": "string",
					"name": "_value",
					"type": "string"
				}
			],
			"name": "Response",
			"type": "event"
		},
		{
			"anonymous": false,
			"inputs": [
				{
					"indexed": false,
					"internalType": "string",
					"name": "_value",
					"type": "string"
				}
			],
			"name": "TimeStamp",
			"type": "event"
		},
		{
			"anonymous": false,
			"inputs": [
				{
					"indexed": false,
					"internalType": "uint256[]",
					"name": "_value",
					"type": "uint256[]"
				}
			],
			"name": "UserId",
			"type": "event"
		},
		{
			"anonymous": false,
			"inputs": [
				{
					"indexed": false,
					"internalType": "string",
					"name": "_value",
					"type": "string"
				}
			],
			"name": "UserState",
			"type": "event"
		},
		{
			"inputs": [
				{
					"internalType": "uint256",
					"name": "userId",
					"type": "uint256"
				},
				{
					"internalType": "uint256",
					"name": "oracleId",
					"type": "uint256"
				}
			],
			"name": "addNewOracle",
			"outputs": [],
			"stateMutability": "nonpayable",
			"type": "function"
		},
		{
			"inputs": [
				{
					"internalType": "uint256",
					"name": "userId",
					"type": "uint256"
				},
				{
					"internalType": "uint256",
					"name": "recipientId",
					"type": "uint256"
				}
			],
			"name": "addNewRecipient",
			"outputs": [],
			"stateMutability": "nonpayable",
			"type": "function"
		},
		{
			"inputs": [
				{
					"internalType": "uint256",
					"name": "userId",
					"type": "uint256"
				}
			],
			"name": "closeUserContract",
			"outputs": [],
			"stateMutability": "nonpayable",
			"type": "function"
		},
		{
			"inputs": [
				{
					"internalType": "uint256",
					"name": "",
					"type": "uint256"
				}
			],
			"name": "contract_user_map",
			"outputs": [
				{
					"internalType": "address",
					"name": "",
					"type": "address"
				}
			],
			"stateMutability": "view",
			"type": "function"
		},
		{
			"inputs": [
				{
					"internalType": "uint256",
					"name": "userId",
					"type": "uint256"
				},
				{
					"internalType": "string",
					"name": "contractHash",
					"type": "string"
				}
			],
			"name": "createNewUserContract",
			"outputs": [],
			"stateMutability": "nonpayable",
			"type": "function"
		},
		{
			"inputs": [
				{
					"internalType": "uint256",
					"name": "userId",
					"type": "uint256"
				}
			],
			"name": "getAllOracles",
			"outputs": [],
			"stateMutability": "nonpayable",
			"type": "function"
		},
		{
			"inputs": [
				{
					"internalType": "uint256",
					"name": "userId",
					"type": "uint256"
				}
			],
			"name": "getAllRecipients",
			"outputs": [],
			"stateMutability": "nonpayable",
			"type": "function"
		},
		{
			"inputs": [],
			"name": "getAllUsersId",
			"outputs": [],
			"stateMutability": "nonpayable",
			"type": "function"
		},
		{
			"inputs": [
				{
					"internalType": "uint256",
					"name": "userId",
					"type": "uint256"
				},
				{
					"internalType": "uint256",
					"name": "recipientId",
					"type": "uint256"
				}
			],
			"name": "getRecipientResponse",
			"outputs": [],
			"stateMutability": "nonpayable",
			"type": "function"
		},
		{
			"inputs": [
				{
					"internalType": "uint256",
					"name": "userId",
					"type": "uint256"
				},
				{
					"internalType": "uint256",
					"name": "recipientId",
					"type": "uint256"
				}
			],
			"name": "getRecipientTimeStamp",
			"outputs": [],
			"stateMutability": "nonpayable",
			"type": "function"
		},
		{
			"inputs": [
				{
					"internalType": "uint256",
					"name": "userId",
					"type": "uint256"
				}
			],
			"name": "getUserContractState",
			"outputs": [],
			"stateMutability": "nonpayable",
			"type": "function"
		},
		{
			"inputs": [
				{
					"internalType": "uint256",
					"name": "userId",
					"type": "uint256"
				}
			],
			"name": "getUserState",
			"outputs": [],
			"stateMutability": "nonpayable",
			"type": "function"
		},
		{
			"inputs": [],
			"name": "owner",
			"outputs": [
				{
					"internalType": "address",
					"name": "",
					"type": "address"
				}
			],
			"stateMutability": "view",
			"type": "function"
		},
		{
			"inputs": [
				{
					"internalType": "uint256",
					"name": "userId",
					"type": "uint256"
				},
				{
					"internalType": "uint256",
					"name": "recipientId",
					"type": "uint256"
				},
				{
					"internalType": "bool",
					"name": "isAccepted",
					"type": "bool"
				},
				{
					"internalType": "bool",
					"name": "isTimeExpired",
					"type": "bool"
				}
			],
			"name": "recipientResponse",
			"outputs": [],
			"stateMutability": "nonpayable",
			"type": "function"
		},
		{
			"inputs": [
				{
					"internalType": "uint256",
					"name": "userId",
					"type": "uint256"
				},
				{
					"internalType": "uint256",
					"name": "recipientId",
					"type": "uint256"
				},
				{
					"internalType": "string",
					"name": "time",
					"type": "string"
				},
				{
					"internalType": "string",
					"name": "date",
					"type": "string"
				}
			],
			"name": "updateTimestamp",
			"outputs": [],
			"stateMutability": "nonpayable",
			"type": "function"
		},
		{
			"inputs": [
				{
					"internalType": "uint256",
					"name": "userId",
					"type": "uint256"
				}
			],
			"name": "userDeathNotify",
			"outputs": [],
			"stateMutability": "nonpayable",
			"type": "function"
		}
	]
}