{
	"data": {
		"bytecode": {
			"linkReferences": {},
			"object": "60806040523480156200001157600080fd5b5060405162001bf138038062001bf18339818101604052810190620000379190620002d6565b816001819055506001600360016101000a81548160ff021916908360018111156200006757620000666200033c565b5b021790555080600290816200007d9190620005ac565b506000600360006101000a81548160ff02191690831515021790555060005b600480549050811015620000ff576040518060200160405280600081525060048281548110620000d157620000d062000693565b5b90600052602060002090600302016001019081620000f09190620005ac565b5080806001019150506200009c565b505050620006c2565b6000604051905090565b600080fd5b600080fd5b6000819050919050565b62000131816200011c565b81146200013d57600080fd5b50565b600081519050620001518162000126565b92915050565b600080fd5b600080fd5b6000601f19601f8301169050919050565b7f4e487b7100000000000000000000000000000000000000000000000000000000600052604160045260246000fd5b620001ac8262000161565b810181811067ffffffffffffffff82111715620001ce57620001cd62000172565b5b80604052505050565b6000620001e362000108565b9050620001f18282620001a1565b919050565b600067ffffffffffffffff82111562000214576200021362000172565b5b6200021f8262000161565b9050602081019050919050565b60005b838110156200024c5780820151818401526020810190506200022f565b60008484015250505050565b60006200026f6200026984620001f6565b620001d7565b9050828152602081018484840111156200028e576200028d6200015c565b5b6200029b8482856200022c565b509392505050565b600082601f830112620002bb57620002ba62000157565b5b8151620002cd84826020860162000258565b91505092915050565b60008060408385031215620002f057620002ef62000112565b5b6000620003008582860162000140565b925050602083015167ffffffffffffffff81111562000324576200032362000117565b5b6200033285828601620002a3565b9150509250929050565b7f4e487b7100000000000000000000000000000000000000000000000000000000600052602160045260246000fd5b600081519050919050565b7f4e487b7100000000000000000000000000000000000000000000000000000000600052602260045260246000fd5b60006002820490506001821680620003be57607f821691505b602082108103620003d457620003d362000376565b5b50919050565b60008190508160005260206000209050919050565b60006020601f8301049050919050565b600082821b905092915050565b6000600883026200043e7fffffffffffffffffffffffffffffffffffffffffffffffffffffffffffffffff82620003ff565b6200044a8683620003ff565b95508019841693508086168417925050509392505050565b6000819050919050565b60006200048d6200048762000481846200011c565b62000462565b6200011c565b9050919050565b6000819050919050565b620004a9836200046c565b620004c1620004b88262000494565b8484546200040c565b825550505050565b600090565b620004d8620004c9565b620004e58184846200049e565b505050565b5b818110156200050d5762000501600082620004ce565b600181019050620004eb565b5050565b601f8211156200055c576200052681620003da565b6200053184620003ef565b8101602085101562000541578190505b620005596200055085620003ef565b830182620004ea565b50505b505050565b600082821c905092915050565b6000620005816000198460080262000561565b1980831691505092915050565b60006200059c83836200056e565b9150826002028217905092915050565b620005b7826200036b565b67ffffffffffffffff811115620005d357620005d262000172565b5b620005df8254620003a5565b620005ec82828562000511565b600060209050601f8311600181146200062457600084156200060f578287015190505b6200061b85826200058e565b8655506200068b565b601f1984166200063486620003da565b60005b828110156200065e5784890151825560018201915060208501945060208101905062000637565b868310156200067e57848901516200067a601f8916826200056e565b8355505b6001600288020188555050505b505050505050565b7f4e487b7100000000000000000000000000000000000000000000000000000000600052603260045260246000fd5b61151f80620006d26000396000f3fe608060405234801561001057600080fd5b50600436106100f55760003560e01c806384731d6f11610097578063ac3ef22d11610066578063ac3ef22d14610253578063b74513c11461025d578063e5a72d5b1461027b578063fc68b3ed14610297576100f5565b806384731d6f146101db5780638da5cb5b146101f9578063904c609414610217578063abcc7a6514610235576100f5565b806342be8cb5116100d357806342be8cb51461013c578063499ba0aa1461016c578063589759191461019f57806365a6bb29146101bd576100f5565b80633121924d146100fa57806335254bcd1461011657806338fcbc0114610120575b600080fd5b610114600480360381019061010f9190610ce1565b6102b3565b005b61011e61038b565b005b61013a60048036038101906101359190610d75565b6103fe565b005b61015660048036038101906101519190610dc8565b61051e565b6040516101639190610e04565b60405180910390f35b61018660048036038101906101819190610dc8565b610548565b6040516101969493929190610ead565b60405180910390f35b6101a761062a565b6040516101b49190610e04565b60405180910390f35b6101c5610630565b6040516101d29190610fb7565b60405180910390f35b6101e36106ea565b6040516101f09190611050565b60405180910390f35b6102016106fd565b60405161020e91906110ac565b60405180910390f35b61021f610721565b60405161022c91906110c7565b60405180910390f35b61023d6107af565b60405161024a91906110e9565b60405180910390f35b61025b6107c2565b005b6102656108ba565b6040516102729190610fb7565b60405180910390f35b61029560048036038101906102909190610dc8565b610978565b005b6102b160048036038101906102ac9190610dc8565b610a18565b005b60001515600360009054906101000a900460ff16151514610309576040517f08c379a000000000000000000000000000000000000000000000000000000000815260040161030090611150565b60405180910390fd5b60005b60048054905081101561038657826004828154811061032e5761032d611170565b5b9060005260206000209060030201600001540361037957816004828154811061035a57610359611170565b5b9060005260206000209060030201600101908161037791906113ab565b505b808060010191505061030c565b505050565b60001515600360009054906101000a900460ff161515146103e1576040517f08c379a00000000000000000000000000000000000000000000000000000000081526004016103d890611150565b60405180910390fd5b6001600360006101000a81548160ff021916908315150217905550565b60001515600360009054906101000a900460ff16151514610454576040517f08c379a000000000000000000000000000000000000000000000000000000000815260040161044b90611150565b60405180910390fd5b60005b60048054905081101561051857836004828154811061047957610478611170565b5b9060005260206000209060030201600001540361050b5782600482815481106104a5576104a4611170565b5b906000526020600020906003020160020160006101000a81548160ff02191690831515021790555081600482815481106104e2576104e1611170565b5b906000526020600020906003020160020160016101000a81548160ff0219169083151502179055505b8080600101915050610457565b50505050565b6005818154811061052e57600080fd5b906000526020600020016000915090508060000154905081565b6004818154811061055857600080fd5b9060005260206000209060030201600091509050806000015490806001018054610581906111ce565b80601f01602080910402602001604051908101604052809291908181526020018280546105ad906111ce565b80156105fa5780601f106105cf576101008083540402835291602001916105fa565b820191906000526020600020905b8154815290600101906020018083116105dd57829003601f168201915b5050505050908060020160009054906101000a900460ff16908060020160019054906101000a900460ff16905084565b60015481565b6060600060058054905067ffffffffffffffff81111561065357610652610bb6565b5b6040519080825280602002602001820160405280156106815781602001602082028036833780820191505090505b50905060005b6005805490508110156106e257600581815481106106a8576106a7611170565b5b90600052602060002001600001548282815181106106c9576106c8611170565b5b6020026020010181815250508080600101915050610687565b508091505090565b600360019054906101000a900460ff1681565b60008054906101000a900473ffffffffffffffffffffffffffffffffffffffff1681565b6002805461072e906111ce565b80601f016020809104026020016040519081016040528092919081815260200182805461075a906111ce565b80156107a75780601f1061077c576101008083540402835291602001916107a7565b820191906000526020600020905b81548152906001019060200180831161078a57829003601f168201915b505050505081565b600360009054906101000a900460ff1681565b6001808111156107d5576107d4610fd9565b5b600360019054906101000a900460ff1660018111156107f7576107f6610fd9565b5b14610837576040517f08c379a000000000000000000000000000000000000000000000000000000000815260040161082e906114c9565b60405180910390fd5b60001515600360009054906101000a900460ff1615151461088d576040517f08c379a000000000000000000000000000000000000000000000000000000000815260040161088490611150565b60405180910390fd5b6000600360016101000a81548160ff021916908360018111156108b3576108b2610fd9565b5b0217905550565b6060600060048054905067ffffffffffffffff8111156108dd576108dc610bb6565b5b60405190808252806020026020018201604052801561090b5781602001602082028036833780820191505090505b50905060005b600480549050811015610970576004818154811061093257610931611170565b5b90600052602060002090600302016000015482828151811061095757610956611170565b5b6020026020010181815250508080600101915050610911565b508091505090565b60001515600360009054906101000a900460ff161515146109ce576040517f08c379a00000000000000000000000000000000000000000000000000000000081526004016109c590611150565b60405180910390fd5b6109d6610b12565b81816000018181525050600581908060018154018082558091505060019003906000526020600020016000909190919091506000820151816000015550505050565b60001515600360009054906101000a900460ff16151514610a6e576040517f08c379a0000000000000000000000000000000000000000000000000000000008152600401610a6590611150565b60405180910390fd5b610a76610b25565b818160000181815250506004819080600181540180825580915050600190039060005260206000209060030201600090919091909150600082015181600001556020820151816001019081610acb91906113ab565b5060408201518160020160006101000a81548160ff02191690831515021790555060608201518160020160016101000a81548160ff02191690831515021790555050505050565b6040518060200160405280600081525090565b604051806080016040528060008152602001606081526020016000151581526020016000151581525090565b6000604051905090565b600080fd5b600080fd5b6000819050919050565b610b7881610b65565b8114610b8357600080fd5b50565b600081359050610b9581610b6f565b92915050565b600080fd5b600080fd5b6000601f19601f8301169050919050565b7f4e487b7100000000000000000000000000000000000000000000000000000000600052604160045260246000fd5b610bee82610ba5565b810181811067ffffffffffffffff82111715610c0d57610c0c610bb6565b5b80604052505050565b6000610c20610b51565b9050610c2c8282610be5565b919050565b600067ffffffffffffffff821115610c4c57610c4b610bb6565b5b610c5582610ba5565b9050602081019050919050565b82818337600083830152505050565b6000610c84610c7f84610c31565b610c16565b905082815260208101848484011115610ca057610c9f610ba0565b5b610cab848285610c62565b509392505050565b600082601f830112610cc857610cc7610b9b565b5b8135610cd8848260208601610c71565b91505092915050565b60008060408385031215610cf857610cf7610b5b565b5b6000610d0685828601610b86565b925050602083013567ffffffffffffffff811115610d2757610d26610b60565b5b610d3385828601610cb3565b9150509250929050565b60008115159050919050565b610d5281610d3d565b8114610d5d57600080fd5b50565b600081359050610d6f81610d49565b92915050565b600080600060608486031215610d8e57610d8d610b5b565b5b6000610d9c86828701610b86565b9350506020610dad86828701610d60565b9250506040610dbe86828701610d60565b9150509250925092565b600060208284031215610dde57610ddd610b5b565b5b6000610dec84828501610b86565b91505092915050565b610dfe81610b65565b82525050565b6000602082019050610e196000830184610df5565b92915050565b600081519050919050565b600082825260208201905092915050565b60005b83811015610e59578082015181840152602081019050610e3e565b60008484015250505050565b6000610e7082610e1f565b610e7a8185610e2a565b9350610e8a818560208601610e3b565b610e9381610ba5565b840191505092915050565b610ea781610d3d565b82525050565b6000608082019050610ec26000830187610df5565b8181036020830152610ed48186610e65565b9050610ee36040830185610e9e565b610ef06060830184610e9e565b95945050505050565b600081519050919050565b600082825260208201905092915050565b6000819050602082019050919050565b610f2e81610b65565b82525050565b6000610f408383610f25565b60208301905092915050565b6000602082019050919050565b6000610f6482610ef9565b610f6e8185610f04565b9350610f7983610f15565b8060005b83811015610faa578151610f918882610f34565b9750610f9c83610f4c565b925050600181019050610f7d565b5085935050505092915050565b60006020820190508181036000830152610fd18184610f59565b905092915050565b7f4e487b7100000000000000000000000000000000000000000000000000000000600052602160045260246000fd5b6002811061101957611018610fd9565b5b50565b600081905061102a82611008565b919050565b600061103a8261101c565b9050919050565b61104a8161102f565b82525050565b60006020820190506110656000830184611041565b92915050565b600073ffffffffffffffffffffffffffffffffffffffff82169050919050565b60006110968261106b565b9050919050565b6110a68161108b565b82525050565b60006020820190506110c1600083018461109d565b92915050565b600060208201905081810360008301526110e18184610e65565b905092915050565b60006020820190506110fe6000830184610e9e565b92915050565b7f536d61727420436f6e747261637420697320636c6f7365640000000000000000600082015250565b600061113a601883610e2a565b915061114582611104565b602082019050919050565b600060208201905081810360008301526111698161112d565b9050919050565b7f4e487b7100000000000000000000000000000000000000000000000000000000600052603260045260246000fd5b7f4e487b7100000000000000000000000000000000000000000000000000000000600052602260045260246000fd5b600060028204905060018216806111e657607f821691505b6020821081036111f9576111f861119f565b5b50919050565b60008190508160005260206000209050919050565b60006020601f8301049050919050565b600082821b905092915050565b6000600883026112617fffffffffffffffffffffffffffffffffffffffffffffffffffffffffffffffff82611224565b61126b8683611224565b95508019841693508086168417925050509392505050565b6000819050919050565b60006112a86112a361129e84610b65565b611283565b610b65565b9050919050565b6000819050919050565b6112c28361128d565b6112d66112ce826112af565b848454611231565b825550505050565b600090565b6112eb6112de565b6112f68184846112b9565b505050565b5b8181101561131a5761130f6000826112e3565b6001810190506112fc565b5050565b601f82111561135f57611330816111ff565b61133984611214565b81016020851015611348578190505b61135c61135485611214565b8301826112fb565b50505b505050565b600082821c905092915050565b600061138260001984600802611364565b1980831691505092915050565b600061139b8383611371565b9150826002028217905092915050565b6113b482610e1f565b67ffffffffffffffff8111156113cd576113cc610bb6565b5b6113d782546111ce565b6113e282828561131e565b600060209050601f8311600181146114155760008415611403578287015190505b61140d858261138f565b865550611475565b601f198416611423866111ff565b60005b8281101561144b57848901518255600182019150602085019450602081019050611426565b868310156114685784890151611464601f891682611371565b8355505b6001600288020188555050505b505050505050565b7f5573657220646563656173656420697320616c72656164792073657400000000600082015250565b60006114b3601c83610e2a565b91506114be8261147d565b602082019050919050565b600060208201905081810360008301526114e2816114a6565b905091905056fea2646970667358221220694e76c051faf0f7dac3617a695597542352385a43785c0e828885e994c21c3c64736f6c63430008170033",
			"opcodes": "PUSH1 0x80 PUSH1 0x40 MSTORE CALLVALUE DUP1 ISZERO PUSH3 0x11 JUMPI PUSH1 0x0 DUP1 REVERT JUMPDEST POP PUSH1 0x40 MLOAD PUSH3 0x1BF1 CODESIZE SUB DUP1 PUSH3 0x1BF1 DUP4 CODECOPY DUP2 DUP2 ADD PUSH1 0x40 MSTORE DUP2 ADD SWAP1 PUSH3 0x37 SWAP2 SWAP1 PUSH3 0x2D6 JUMP JUMPDEST DUP2 PUSH1 0x1 DUP2 SWAP1 SSTORE POP PUSH1 0x1 PUSH1 0x3 PUSH1 0x1 PUSH2 0x100 EXP DUP2 SLOAD DUP2 PUSH1 0xFF MUL NOT AND SWAP1 DUP4 PUSH1 0x1 DUP2 GT ISZERO PUSH3 0x67 JUMPI PUSH3 0x66 PUSH3 0x33C JUMP JUMPDEST JUMPDEST MUL OR SWAP1 SSTORE POP DUP1 PUSH1 0x2 SWAP1 DUP2 PUSH3 0x7D SWAP2 SWAP1 PUSH3 0x5AC JUMP JUMPDEST POP PUSH1 0x0 PUSH1 0x3 PUSH1 0x0 PUSH2 0x100 EXP DUP2 SLOAD DUP2 PUSH1 0xFF MUL NOT AND SWAP1 DUP4 ISZERO ISZERO MUL OR SWAP1 SSTORE POP PUSH1 0x0 JUMPDEST PUSH1 0x4 DUP1 SLOAD SWAP1 POP DUP2 LT ISZERO PUSH3 0xFF JUMPI PUSH1 0x40 MLOAD DUP1 PUSH1 0x20 ADD PUSH1 0x40 MSTORE DUP1 PUSH1 0x0 DUP2 MSTORE POP PUSH1 0x4 DUP3 DUP2 SLOAD DUP2 LT PUSH3 0xD1 JUMPI PUSH3 0xD0 PUSH3 0x693 JUMP JUMPDEST JUMPDEST SWAP1 PUSH1 0x0 MSTORE PUSH1 0x20 PUSH1 0x0 KECCAK256 SWAP1 PUSH1 0x3 MUL ADD PUSH1 0x1 ADD SWAP1 DUP2 PUSH3 0xF0 SWAP2 SWAP1 PUSH3 0x5AC JUMP JUMPDEST POP DUP1 DUP1 PUSH1 0x1 ADD SWAP2 POP POP PUSH3 0x9C JUMP JUMPDEST POP POP POP PUSH3 0x6C2 JUMP JUMPDEST PUSH1 0x0 PUSH1 0x40 MLOAD SWAP1 POP SWAP1 JUMP JUMPDEST PUSH1 0x0 DUP1 REVERT JUMPDEST PUSH1 0x0 DUP1 REVERT JUMPDEST PUSH1 0x0 DUP2 SWAP1 POP SWAP2 SWAP1 POP JUMP JUMPDEST PUSH3 0x131 DUP2 PUSH3 0x11C JUMP JUMPDEST DUP2 EQ PUSH3 0x13D JUMPI PUSH1 0x0 DUP1 REVERT JUMPDEST POP JUMP JUMPDEST PUSH1 0x0 DUP2 MLOAD SWAP1 POP PUSH3 0x151 DUP2 PUSH3 0x126 JUMP JUMPDEST SWAP3 SWAP2 POP POP JUMP JUMPDEST PUSH1 0x0 DUP1 REVERT JUMPDEST PUSH1 0x0 DUP1 REVERT JUMPDEST PUSH1 0x0 PUSH1 0x1F NOT PUSH1 0x1F DUP4 ADD AND SWAP1 POP SWAP2 SWAP1 POP JUMP JUMPDEST PUSH32 0x4E487B7100000000000000000000000000000000000000000000000000000000 PUSH1 0x0 MSTORE PUSH1 0x41 PUSH1 0x4 MSTORE PUSH1 0x24 PUSH1 0x0 REVERT JUMPDEST PUSH3 0x1AC DUP3 PUSH3 0x161 JUMP JUMPDEST DUP2 ADD DUP2 DUP2 LT PUSH8 0xFFFFFFFFFFFFFFFF DUP3 GT OR ISZERO PUSH3 0x1CE JUMPI PUSH3 0x1CD PUSH3 0x172 JUMP JUMPDEST JUMPDEST DUP1 PUSH1 0x40 MSTORE POP POP POP JUMP JUMPDEST PUSH1 0x0 PUSH3 0x1E3 PUSH3 0x108 JUMP JUMPDEST SWAP1 POP PUSH3 0x1F1 DUP3 DUP3 PUSH3 0x1A1 JUMP JUMPDEST SWAP2 SWAP1 POP JUMP JUMPDEST PUSH1 0x0 PUSH8 0xFFFFFFFFFFFFFFFF DUP3 GT ISZERO PUSH3 0x214 JUMPI PUSH3 0x213 PUSH3 0x172 JUMP JUMPDEST JUMPDEST PUSH3 0x21F DUP3 PUSH3 0x161 JUMP JUMPDEST SWAP1 POP PUSH1 0x20 DUP2 ADD SWAP1 POP SWAP2 SWAP1 POP JUMP JUMPDEST PUSH1 0x0 JUMPDEST DUP4 DUP2 LT ISZERO PUSH3 0x24C JUMPI DUP1 DUP3 ADD MLOAD DUP2 DUP5 ADD MSTORE PUSH1 0x20 DUP2 ADD SWAP1 POP PUSH3 0x22F JUMP JUMPDEST PUSH1 0x0 DUP5 DUP5 ADD MSTORE POP POP POP POP JUMP JUMPDEST PUSH1 0x0 PUSH3 0x26F PUSH3 0x269 DUP5 PUSH3 0x1F6 JUMP JUMPDEST PUSH3 0x1D7 JUMP JUMPDEST SWAP1 POP DUP3 DUP2 MSTORE PUSH1 0x20 DUP2 ADD DUP5 DUP5 DUP5 ADD GT ISZERO PUSH3 0x28E JUMPI PUSH3 0x28D PUSH3 0x15C JUMP JUMPDEST JUMPDEST PUSH3 0x29B DUP5 DUP3 DUP6 PUSH3 0x22C JUMP JUMPDEST POP SWAP4 SWAP3 POP POP POP JUMP JUMPDEST PUSH1 0x0 DUP3 PUSH1 0x1F DUP4 ADD SLT PUSH3 0x2BB JUMPI PUSH3 0x2BA PUSH3 0x157 JUMP JUMPDEST JUMPDEST DUP2 MLOAD PUSH3 0x2CD DUP5 DUP3 PUSH1 0x20 DUP7 ADD PUSH3 0x258 JUMP JUMPDEST SWAP2 POP POP SWAP3 SWAP2 POP POP JUMP JUMPDEST PUSH1 0x0 DUP1 PUSH1 0x40 DUP4 DUP6 SUB SLT ISZERO PUSH3 0x2F0 JUMPI PUSH3 0x2EF PUSH3 0x112 JUMP JUMPDEST JUMPDEST PUSH1 0x0 PUSH3 0x300 DUP6 DUP3 DUP7 ADD PUSH3 0x140 JUMP JUMPDEST SWAP3 POP POP PUSH1 0x20 DUP4 ADD MLOAD PUSH8 0xFFFFFFFFFFFFFFFF DUP2 GT ISZERO PUSH3 0x324 JUMPI PUSH3 0x323 PUSH3 0x117 JUMP JUMPDEST JUMPDEST PUSH3 0x332 DUP6 DUP3 DUP7 ADD PUSH3 0x2A3 JUMP JUMPDEST SWAP2 POP POP SWAP3 POP SWAP3 SWAP1 POP JUMP JUMPDEST PUSH32 0x4E487B7100000000000000000000000000000000000000000000000000000000 PUSH1 0x0 MSTORE PUSH1 0x21 PUSH1 0x4 MSTORE PUSH1 0x24 PUSH1 0x0 REVERT JUMPDEST PUSH1 0x0 DUP2 MLOAD SWAP1 POP SWAP2 SWAP1 POP JUMP JUMPDEST PUSH32 0x4E487B7100000000000000000000000000000000000000000000000000000000 PUSH1 0x0 MSTORE PUSH1 0x22 PUSH1 0x4 MSTORE PUSH1 0x24 PUSH1 0x0 REVERT JUMPDEST PUSH1 0x0 PUSH1 0x2 DUP3 DIV SWAP1 POP PUSH1 0x1 DUP3 AND DUP1 PUSH3 0x3BE JUMPI PUSH1 0x7F DUP3 AND SWAP2 POP JUMPDEST PUSH1 0x20 DUP3 LT DUP2 SUB PUSH3 0x3D4 JUMPI PUSH3 0x3D3 PUSH3 0x376 JUMP JUMPDEST JUMPDEST POP SWAP2 SWAP1 POP JUMP JUMPDEST PUSH1 0x0 DUP2 SWAP1 POP DUP2 PUSH1 0x0 MSTORE PUSH1 0x20 PUSH1 0x0 KECCAK256 SWAP1 POP SWAP2 SWAP1 POP JUMP JUMPDEST PUSH1 0x0 PUSH1 0x20 PUSH1 0x1F DUP4 ADD DIV SWAP1 POP SWAP2 SWAP1 POP JUMP JUMPDEST PUSH1 0x0 DUP3 DUP3 SHL SWAP1 POP SWAP3 SWAP2 POP POP JUMP JUMPDEST PUSH1 0x0 PUSH1 0x8 DUP4 MUL PUSH3 0x43E PUSH32 0xFFFFFFFFFFFFFFFFFFFFFFFFFFFFFFFFFFFFFFFFFFFFFFFFFFFFFFFFFFFFFFFF DUP3 PUSH3 0x3FF JUMP JUMPDEST PUSH3 0x44A DUP7 DUP4 PUSH3 0x3FF JUMP JUMPDEST SWAP6 POP DUP1 NOT DUP5 AND SWAP4 POP DUP1 DUP7 AND DUP5 OR SWAP3 POP POP POP SWAP4 SWAP3 POP POP POP JUMP JUMPDEST PUSH1 0x0 DUP2 SWAP1 POP SWAP2 SWAP1 POP JUMP JUMPDEST PUSH1 0x0 PUSH3 0x48D PUSH3 0x487 PUSH3 0x481 DUP5 PUSH3 0x11C JUMP JUMPDEST PUSH3 0x462 JUMP JUMPDEST PUSH3 0x11C JUMP JUMPDEST SWAP1 POP SWAP2 SWAP1 POP JUMP JUMPDEST PUSH1 0x0 DUP2 SWAP1 POP SWAP2 SWAP1 POP JUMP JUMPDEST PUSH3 0x4A9 DUP4 PUSH3 0x46C JUMP JUMPDEST PUSH3 0x4C1 PUSH3 0x4B8 DUP3 PUSH3 0x494 JUMP JUMPDEST DUP5 DUP5 SLOAD PUSH3 0x40C JUMP JUMPDEST DUP3 SSTORE POP POP POP POP JUMP JUMPDEST PUSH1 0x0 SWAP1 JUMP JUMPDEST PUSH3 0x4D8 PUSH3 0x4C9 JUMP JUMPDEST PUSH3 0x4E5 DUP2 DUP5 DUP5 PUSH3 0x49E JUMP JUMPDEST POP POP POP JUMP JUMPDEST JUMPDEST DUP2 DUP2 LT ISZERO PUSH3 0x50D JUMPI PUSH3 0x501 PUSH1 0x0 DUP3 PUSH3 0x4CE JUMP JUMPDEST PUSH1 0x1 DUP2 ADD SWAP1 POP PUSH3 0x4EB JUMP JUMPDEST POP POP JUMP JUMPDEST PUSH1 0x1F DUP3 GT ISZERO PUSH3 0x55C JUMPI PUSH3 0x526 DUP2 PUSH3 0x3DA JUMP JUMPDEST PUSH3 0x531 DUP5 PUSH3 0x3EF JUMP JUMPDEST DUP2 ADD PUSH1 0x20 DUP6 LT ISZERO PUSH3 0x541 JUMPI DUP2 SWAP1 POP JUMPDEST PUSH3 0x559 PUSH3 0x550 DUP6 PUSH3 0x3EF JUMP JUMPDEST DUP4 ADD DUP3 PUSH3 0x4EA JUMP JUMPDEST POP POP JUMPDEST POP POP POP JUMP JUMPDEST PUSH1 0x0 DUP3 DUP3 SHR SWAP1 POP SWAP3 SWAP2 POP POP JUMP JUMPDEST PUSH1 0x0 PUSH3 0x581 PUSH1 0x0 NOT DUP5 PUSH1 0x8 MUL PUSH3 0x561 JUMP JUMPDEST NOT DUP1 DUP4 AND SWAP2 POP POP SWAP3 SWAP2 POP POP JUMP JUMPDEST PUSH1 0x0 PUSH3 0x59C DUP4 DUP4 PUSH3 0x56E JUMP JUMPDEST SWAP2 POP DUP3 PUSH1 0x2 MUL DUP3 OR SWAP1 POP SWAP3 SWAP2 POP POP JUMP JUMPDEST PUSH3 0x5B7 DUP3 PUSH3 0x36B JUMP JUMPDEST PUSH8 0xFFFFFFFFFFFFFFFF DUP2 GT ISZERO PUSH3 0x5D3 JUMPI PUSH3 0x5D2 PUSH3 0x172 JUMP JUMPDEST JUMPDEST PUSH3 0x5DF DUP3 SLOAD PUSH3 0x3A5 JUMP JUMPDEST PUSH3 0x5EC DUP3 DUP3 DUP6 PUSH3 0x511 JUMP JUMPDEST PUSH1 0x0 PUSH1 0x20 SWAP1 POP PUSH1 0x1F DUP4 GT PUSH1 0x1 DUP2 EQ PUSH3 0x624 JUMPI PUSH1 0x0 DUP5 ISZERO PUSH3 0x60F JUMPI DUP3 DUP8 ADD MLOAD SWAP1 POP JUMPDEST PUSH3 0x61B DUP6 DUP3 PUSH3 0x58E JUMP JUMPDEST DUP7 SSTORE POP PUSH3 0x68B JUMP JUMPDEST PUSH1 0x1F NOT DUP5 AND PUSH3 0x634 DUP7 PUSH3 0x3DA JUMP JUMPDEST PUSH1 0x0 JUMPDEST DUP3 DUP2 LT ISZERO PUSH3 0x65E JUMPI DUP5 DUP10 ADD MLOAD DUP3 SSTORE PUSH1 0x1 DUP3 ADD SWAP2 POP PUSH1 0x20 DUP6 ADD SWAP5 POP PUSH1 0x20 DUP2 ADD SWAP1 POP PUSH3 0x637 JUMP JUMPDEST DUP7 DUP4 LT ISZERO PUSH3 0x67E JUMPI DUP5 DUP10 ADD MLOAD PUSH3 0x67A PUSH1 0x1F DUP10 AND DUP3 PUSH3 0x56E JUMP JUMPDEST DUP4 SSTORE POP JUMPDEST PUSH1 0x1 PUSH1 0x2 DUP9 MUL ADD DUP9 SSTORE POP POP POP JUMPDEST POP POP POP POP POP POP JUMP JUMPDEST PUSH32 0x4E487B7100000000000000000000000000000000000000000000000000000000 PUSH1 0x0 MSTORE PUSH1 0x32 PUSH1 0x4 MSTORE PUSH1 0x24 PUSH1 0x0 REVERT JUMPDEST PUSH2 0x151F DUP1 PUSH3 0x6D2 PUSH1 0x0 CODECOPY PUSH1 0x0 RETURN INVALID PUSH1 0x80 PUSH1 0x40 MSTORE CALLVALUE DUP1 ISZERO PUSH2 0x10 JUMPI PUSH1 0x0 DUP1 REVERT JUMPDEST POP PUSH1 0x4 CALLDATASIZE LT PUSH2 0xF5 JUMPI PUSH1 0x0 CALLDATALOAD PUSH1 0xE0 SHR DUP1 PUSH4 0x84731D6F GT PUSH2 0x97 JUMPI DUP1 PUSH4 0xAC3EF22D GT PUSH2 0x66 JUMPI DUP1 PUSH4 0xAC3EF22D EQ PUSH2 0x253 JUMPI DUP1 PUSH4 0xB74513C1 EQ PUSH2 0x25D JUMPI DUP1 PUSH4 0xE5A72D5B EQ PUSH2 0x27B JUMPI DUP1 PUSH4 0xFC68B3ED EQ PUSH2 0x297 JUMPI PUSH2 0xF5 JUMP JUMPDEST DUP1 PUSH4 0x84731D6F EQ PUSH2 0x1DB JUMPI DUP1 PUSH4 0x8DA5CB5B EQ PUSH2 0x1F9 JUMPI DUP1 PUSH4 0x904C6094 EQ PUSH2 0x217 JUMPI DUP1 PUSH4 0xABCC7A65 EQ PUSH2 0x235 JUMPI PUSH2 0xF5 JUMP JUMPDEST DUP1 PUSH4 0x42BE8CB5 GT PUSH2 0xD3 JUMPI DUP1 PUSH4 0x42BE8CB5 EQ PUSH2 0x13C JUMPI DUP1 PUSH4 0x499BA0AA EQ PUSH2 0x16C JUMPI DUP1 PUSH4 0x58975919 EQ PUSH2 0x19F JUMPI DUP1 PUSH4 0x65A6BB29 EQ PUSH2 0x1BD JUMPI PUSH2 0xF5 JUMP JUMPDEST DUP1 PUSH4 0x3121924D EQ PUSH2 0xFA JUMPI DUP1 PUSH4 0x35254BCD EQ PUSH2 0x116 JUMPI DUP1 PUSH4 0x38FCBC01 EQ PUSH2 0x120 JUMPI JUMPDEST PUSH1 0x0 DUP1 REVERT JUMPDEST PUSH2 0x114 PUSH1 0x4 DUP1 CALLDATASIZE SUB DUP2 ADD SWAP1 PUSH2 0x10F SWAP2 SWAP1 PUSH2 0xCE1 JUMP JUMPDEST PUSH2 0x2B3 JUMP JUMPDEST STOP JUMPDEST PUSH2 0x11E PUSH2 0x38B JUMP JUMPDEST STOP JUMPDEST PUSH2 0x13A PUSH1 0x4 DUP1 CALLDATASIZE SUB DUP2 ADD SWAP1 PUSH2 0x135 SWAP2 SWAP1 PUSH2 0xD75 JUMP JUMPDEST PUSH2 0x3FE JUMP JUMPDEST STOP JUMPDEST PUSH2 0x156 PUSH1 0x4 DUP1 CALLDATASIZE SUB DUP2 ADD SWAP1 PUSH2 0x151 SWAP2 SWAP1 PUSH2 0xDC8 JUMP JUMPDEST PUSH2 0x51E JUMP JUMPDEST PUSH1 0x40 MLOAD PUSH2 0x163 SWAP2 SWAP1 PUSH2 0xE04 JUMP JUMPDEST PUSH1 0x40 MLOAD DUP1 SWAP2 SUB SWAP1 RETURN JUMPDEST PUSH2 0x186 PUSH1 0x4 DUP1 CALLDATASIZE SUB DUP2 ADD SWAP1 PUSH2 0x181 SWAP2 SWAP1 PUSH2 0xDC8 JUMP JUMPDEST PUSH2 0x548 JUMP JUMPDEST PUSH1 0x40 MLOAD PUSH2 0x196 SWAP5 SWAP4 SWAP3 SWAP2 SWAP1 PUSH2 0xEAD JUMP JUMPDEST PUSH1 0x40 MLOAD DUP1 SWAP2 SUB SWAP1 RETURN JUMPDEST PUSH2 0x1A7 PUSH2 0x62A JUMP JUMPDEST PUSH1 0x40 MLOAD PUSH2 0x1B4 SWAP2 SWAP1 PUSH2 0xE04 JUMP JUMPDEST PUSH1 0x40 MLOAD DUP1 SWAP2 SUB SWAP1 RETURN JUMPDEST PUSH2 0x1C5 PUSH2 0x630 JUMP JUMPDEST PUSH1 0x40 MLOAD PUSH2 0x1D2 SWAP2 SWAP1 PUSH2 0xFB7 JUMP JUMPDEST PUSH1 0x40 MLOAD DUP1 SWAP2 SUB SWAP1 RETURN JUMPDEST PUSH2 0x1E3 PUSH2 0x6EA JUMP JUMPDEST PUSH1 0x40 MLOAD PUSH2 0x1F0 SWAP2 SWAP1 PUSH2 0x1050 JUMP JUMPDEST PUSH1 0x40 MLOAD DUP1 SWAP2 SUB SWAP1 RETURN JUMPDEST PUSH2 0x201 PUSH2 0x6FD JUMP JUMPDEST PUSH1 0x40 MLOAD PUSH2 0x20E SWAP2 SWAP1 PUSH2 0x10AC JUMP JUMPDEST PUSH1 0x40 MLOAD DUP1 SWAP2 SUB SWAP1 RETURN JUMPDEST PUSH2 0x21F PUSH2 0x721 JUMP JUMPDEST PUSH1 0x40 MLOAD PUSH2 0x22C SWAP2 SWAP1 PUSH2 0x10C7 JUMP JUMPDEST PUSH1 0x40 MLOAD DUP1 SWAP2 SUB SWAP1 RETURN JUMPDEST PUSH2 0x23D PUSH2 0x7AF JUMP JUMPDEST PUSH1 0x40 MLOAD PUSH2 0x24A SWAP2 SWAP1 PUSH2 0x10E9 JUMP JUMPDEST PUSH1 0x40 MLOAD DUP1 SWAP2 SUB SWAP1 RETURN JUMPDEST PUSH2 0x25B PUSH2 0x7C2 JUMP JUMPDEST STOP JUMPDEST PUSH2 0x265 PUSH2 0x8BA JUMP JUMPDEST PUSH1 0x40 MLOAD PUSH2 0x272 SWAP2 SWAP1 PUSH2 0xFB7 JUMP JUMPDEST PUSH1 0x40 MLOAD DUP1 SWAP2 SUB SWAP1 RETURN JUMPDEST PUSH2 0x295 PUSH1 0x4 DUP1 CALLDATASIZE SUB DUP2 ADD SWAP1 PUSH2 0x290 SWAP2 SWAP1 PUSH2 0xDC8 JUMP JUMPDEST PUSH2 0x978 JUMP JUMPDEST STOP JUMPDEST PUSH2 0x2B1 PUSH1 0x4 DUP1 CALLDATASIZE SUB DUP2 ADD SWAP1 PUSH2 0x2AC SWAP2 SWAP1 PUSH2 0xDC8 JUMP JUMPDEST PUSH2 0xA18 JUMP JUMPDEST STOP JUMPDEST PUSH1 0x0 ISZERO ISZERO PUSH1 0x3 PUSH1 0x0 SWAP1 SLOAD SWAP1 PUSH2 0x100 EXP SWAP1 DIV PUSH1 0xFF AND ISZERO ISZERO EQ PUSH2 0x309 JUMPI PUSH1 0x40 MLOAD PUSH32 0x8C379A000000000000000000000000000000000000000000000000000000000 DUP2 MSTORE PUSH1 0x4 ADD PUSH2 0x300 SWAP1 PUSH2 0x1150 JUMP JUMPDEST PUSH1 0x40 MLOAD DUP1 SWAP2 SUB SWAP1 REVERT JUMPDEST PUSH1 0x0 JUMPDEST PUSH1 0x4 DUP1 SLOAD SWAP1 POP DUP2 LT ISZERO PUSH2 0x386 JUMPI DUP3 PUSH1 0x4 DUP3 DUP2 SLOAD DUP2 LT PUSH2 0x32E JUMPI PUSH2 0x32D PUSH2 0x1170 JUMP JUMPDEST JUMPDEST SWAP1 PUSH1 0x0 MSTORE PUSH1 0x20 PUSH1 0x0 KECCAK256 SWAP1 PUSH1 0x3 MUL ADD PUSH1 0x0 ADD SLOAD SUB PUSH2 0x379 JUMPI DUP2 PUSH1 0x4 DUP3 DUP2 SLOAD DUP2 LT PUSH2 0x35A JUMPI PUSH2 0x359 PUSH2 0x1170 JUMP JUMPDEST JUMPDEST SWAP1 PUSH1 0x0 MSTORE PUSH1 0x20 PUSH1 0x0 KECCAK256 SWAP1 PUSH1 0x3 MUL ADD PUSH1 0x1 ADD SWAP1 DUP2 PUSH2 0x377 SWAP2 SWAP1 PUSH2 0x13AB JUMP JUMPDEST POP JUMPDEST DUP1 DUP1 PUSH1 0x1 ADD SWAP2 POP POP PUSH2 0x30C JUMP JUMPDEST POP POP POP JUMP JUMPDEST PUSH1 0x0 ISZERO ISZERO PUSH1 0x3 PUSH1 0x0 SWAP1 SLOAD SWAP1 PUSH2 0x100 EXP SWAP1 DIV PUSH1 0xFF AND ISZERO ISZERO EQ PUSH2 0x3E1 JUMPI PUSH1 0x40 MLOAD PUSH32 0x8C379A000000000000000000000000000000000000000000000000000000000 DUP2 MSTORE PUSH1 0x4 ADD PUSH2 0x3D8 SWAP1 PUSH2 0x1150 JUMP JUMPDEST PUSH1 0x40 MLOAD DUP1 SWAP2 SUB SWAP1 REVERT JUMPDEST PUSH1 0x1 PUSH1 0x3 PUSH1 0x0 PUSH2 0x100 EXP DUP2 SLOAD DUP2 PUSH1 0xFF MUL NOT AND SWAP1 DUP4 ISZERO ISZERO MUL OR SWAP1 SSTORE POP JUMP JUMPDEST PUSH1 0x0 ISZERO ISZERO PUSH1 0x3 PUSH1 0x0 SWAP1 SLOAD SWAP1 PUSH2 0x100 EXP SWAP1 DIV PUSH1 0xFF AND ISZERO ISZERO EQ PUSH2 0x454 JUMPI PUSH1 0x40 MLOAD PUSH32 0x8C379A000000000000000000000000000000000000000000000000000000000 DUP2 MSTORE PUSH1 0x4 ADD PUSH2 0x44B SWAP1 PUSH2 0x1150 JUMP JUMPDEST PUSH1 0x40 MLOAD DUP1 SWAP2 SUB SWAP1 REVERT JUMPDEST PUSH1 0x0 JUMPDEST PUSH1 0x4 DUP1 SLOAD SWAP1 POP DUP2 LT ISZERO PUSH2 0x518 JUMPI DUP4 PUSH1 0x4 DUP3 DUP2 SLOAD DUP2 LT PUSH2 0x479 JUMPI PUSH2 0x478 PUSH2 0x1170 JUMP JUMPDEST JUMPDEST SWAP1 PUSH1 0x0 MSTORE PUSH1 0x20 PUSH1 0x0 KECCAK256 SWAP1 PUSH1 0x3 MUL ADD PUSH1 0x0 ADD SLOAD SUB PUSH2 0x50B JUMPI DUP3 PUSH1 0x4 DUP3 DUP2 SLOAD DUP2 LT PUSH2 0x4A5 JUMPI PUSH2 0x4A4 PUSH2 0x1170 JUMP JUMPDEST JUMPDEST SWAP1 PUSH1 0x0 MSTORE PUSH1 0x20 PUSH1 0x0 KECCAK256 SWAP1 PUSH1 0x3 MUL ADD PUSH1 0x2 ADD PUSH1 0x0 PUSH2 0x100 EXP DUP2 SLOAD DUP2 PUSH1 0xFF MUL NOT AND SWAP1 DUP4 ISZERO ISZERO MUL OR SWAP1 SSTORE POP DUP2 PUSH1 0x4 DUP3 DUP2 SLOAD DUP2 LT PUSH2 0x4E2 JUMPI PUSH2 0x4E1 PUSH2 0x1170 JUMP JUMPDEST JUMPDEST SWAP1 PUSH1 0x0 MSTORE PUSH1 0x20 PUSH1 0x0 KECCAK256 SWAP1 PUSH1 0x3 MUL ADD PUSH1 0x2 ADD PUSH1 0x1 PUSH2 0x100 EXP DUP2 SLOAD DUP2 PUSH1 0xFF MUL NOT AND SWAP1 DUP4 ISZERO ISZERO MUL OR SWAP1 SSTORE POP JUMPDEST DUP1 DUP1 PUSH1 0x1 ADD SWAP2 POP POP PUSH2 0x457 JUMP JUMPDEST POP POP POP POP JUMP JUMPDEST PUSH1 0x5 DUP2 DUP2 SLOAD DUP2 LT PUSH2 0x52E JUMPI PUSH1 0x0 DUP1 REVERT JUMPDEST SWAP1 PUSH1 0x0 MSTORE PUSH1 0x20 PUSH1 0x0 KECCAK256 ADD PUSH1 0x0 SWAP2 POP SWAP1 POP DUP1 PUSH1 0x0 ADD SLOAD SWAP1 POP DUP2 JUMP JUMPDEST PUSH1 0x4 DUP2 DUP2 SLOAD DUP2 LT PUSH2 0x558 JUMPI PUSH1 0x0 DUP1 REVERT JUMPDEST SWAP1 PUSH1 0x0 MSTORE PUSH1 0x20 PUSH1 0x0 KECCAK256 SWAP1 PUSH1 0x3 MUL ADD PUSH1 0x0 SWAP2 POP SWAP1 POP DUP1 PUSH1 0x0 ADD SLOAD SWAP1 DUP1 PUSH1 0x1 ADD DUP1 SLOAD PUSH2 0x581 SWAP1 PUSH2 0x11CE JUMP JUMPDEST DUP1 PUSH1 0x1F ADD PUSH1 0x20 DUP1 SWAP2 DIV MUL PUSH1 0x20 ADD PUSH1 0x40 MLOAD SWAP1 DUP2 ADD PUSH1 0x40 MSTORE DUP1 SWAP3 SWAP2 SWAP1 DUP2 DUP2 MSTORE PUSH1 0x20 ADD DUP3 DUP1 SLOAD PUSH2 0x5AD SWAP1 PUSH2 0x11CE JUMP JUMPDEST DUP1 ISZERO PUSH2 0x5FA JUMPI DUP1 PUSH1 0x1F LT PUSH2 0x5CF JUMPI PUSH2 0x100 DUP1 DUP4 SLOAD DIV MUL DUP4 MSTORE SWAP2 PUSH1 0x20 ADD SWAP2 PUSH2 0x5FA JUMP JUMPDEST DUP3 ADD SWAP2 SWAP1 PUSH1 0x0 MSTORE PUSH1 0x20 PUSH1 0x0 KECCAK256 SWAP1 JUMPDEST DUP2 SLOAD DUP2 MSTORE SWAP1 PUSH1 0x1 ADD SWAP1 PUSH1 0x20 ADD DUP1 DUP4 GT PUSH2 0x5DD JUMPI DUP3 SWAP1 SUB PUSH1 0x1F AND DUP3 ADD SWAP2 JUMPDEST POP POP POP POP POP SWAP1 DUP1 PUSH1 0x2 ADD PUSH1 0x0 SWAP1 SLOAD SWAP1 PUSH2 0x100 EXP SWAP1 DIV PUSH1 0xFF AND SWAP1 DUP1 PUSH1 0x2 ADD PUSH1 0x1 SWAP1 SLOAD SWAP1 PUSH2 0x100 EXP SWAP1 DIV PUSH1 0xFF AND SWAP1 POP DUP5 JUMP JUMPDEST PUSH1 0x1 SLOAD DUP2 JUMP JUMPDEST PUSH1 0x60 PUSH1 0x0 PUSH1 0x5 DUP1 SLOAD SWAP1 POP PUSH8 0xFFFFFFFFFFFFFFFF DUP2 GT ISZERO PUSH2 0x653 JUMPI PUSH2 0x652 PUSH2 0xBB6 JUMP JUMPDEST JUMPDEST PUSH1 0x40 MLOAD SWAP1 DUP1 DUP3 MSTORE DUP1 PUSH1 0x20 MUL PUSH1 0x20 ADD DUP3 ADD PUSH1 0x40 MSTORE DUP1 ISZERO PUSH2 0x681 JUMPI DUP2 PUSH1 0x20 ADD PUSH1 0x20 DUP3 MUL DUP1 CALLDATASIZE DUP4 CALLDATACOPY DUP1 DUP3 ADD SWAP2 POP POP SWAP1 POP JUMPDEST POP SWAP1 POP PUSH1 0x0 JUMPDEST PUSH1 0x5 DUP1 SLOAD SWAP1 POP DUP2 LT ISZERO PUSH2 0x6E2 JUMPI PUSH1 0x5 DUP2 DUP2 SLOAD DUP2 LT PUSH2 0x6A8 JUMPI PUSH2 0x6A7 PUSH2 0x1170 JUMP JUMPDEST JUMPDEST SWAP1 PUSH1 0x0 MSTORE PUSH1 0x20 PUSH1 0x0 KECCAK256 ADD PUSH1 0x0 ADD SLOAD DUP3 DUP3 DUP2 MLOAD DUP2 LT PUSH2 0x6C9 JUMPI PUSH2 0x6C8 PUSH2 0x1170 JUMP JUMPDEST JUMPDEST PUSH1 0x20 MUL PUSH1 0x20 ADD ADD DUP2 DUP2 MSTORE POP POP DUP1 DUP1 PUSH1 0x1 ADD SWAP2 POP POP PUSH2 0x687 JUMP JUMPDEST POP DUP1 SWAP2 POP POP SWAP1 JUMP JUMPDEST PUSH1 0x3 PUSH1 0x1 SWAP1 SLOAD SWAP1 PUSH2 0x100 EXP SWAP1 DIV PUSH1 0xFF AND DUP2 JUMP JUMPDEST PUSH1 0x0 DUP1 SLOAD SWAP1 PUSH2 0x100 EXP SWAP1 DIV PUSH20 0xFFFFFFFFFFFFFFFFFFFFFFFFFFFFFFFFFFFFFFFF AND DUP2 JUMP JUMPDEST PUSH1 0x2 DUP1 SLOAD PUSH2 0x72E SWAP1 PUSH2 0x11CE JUMP JUMPDEST DUP1 PUSH1 0x1F ADD PUSH1 0x20 DUP1 SWAP2 DIV MUL PUSH1 0x20 ADD PUSH1 0x40 MLOAD SWAP1 DUP2 ADD PUSH1 0x40 MSTORE DUP1 SWAP3 SWAP2 SWAP1 DUP2 DUP2 MSTORE PUSH1 0x20 ADD DUP3 DUP1 SLOAD PUSH2 0x75A SWAP1 PUSH2 0x11CE JUMP JUMPDEST DUP1 ISZERO PUSH2 0x7A7 JUMPI DUP1 PUSH1 0x1F LT PUSH2 0x77C JUMPI PUSH2 0x100 DUP1 DUP4 SLOAD DIV MUL DUP4 MSTORE SWAP2 PUSH1 0x20 ADD SWAP2 PUSH2 0x7A7 JUMP JUMPDEST DUP3 ADD SWAP2 SWAP1 PUSH1 0x0 MSTORE PUSH1 0x20 PUSH1 0x0 KECCAK256 SWAP1 JUMPDEST DUP2 SLOAD DUP2 MSTORE SWAP1 PUSH1 0x1 ADD SWAP1 PUSH1 0x20 ADD DUP1 DUP4 GT PUSH2 0x78A JUMPI DUP3 SWAP1 SUB PUSH1 0x1F AND DUP3 ADD SWAP2 JUMPDEST POP POP POP POP POP DUP2 JUMP JUMPDEST PUSH1 0x3 PUSH1 0x0 SWAP1 SLOAD SWAP1 PUSH2 0x100 EXP SWAP1 DIV PUSH1 0xFF AND DUP2 JUMP JUMPDEST PUSH1 0x1 DUP1 DUP2 GT ISZERO PUSH2 0x7D5 JUMPI PUSH2 0x7D4 PUSH2 0xFD9 JUMP JUMPDEST JUMPDEST PUSH1 0x3 PUSH1 0x1 SWAP1 SLOAD SWAP1 PUSH2 0x100 EXP SWAP1 DIV PUSH1 0xFF AND PUSH1 0x1 DUP2 GT ISZERO PUSH2 0x7F7 JUMPI PUSH2 0x7F6 PUSH2 0xFD9 JUMP JUMPDEST JUMPDEST EQ PUSH2 0x837 JUMPI PUSH1 0x40 MLOAD PUSH32 0x8C379A000000000000000000000000000000000000000000000000000000000 DUP2 MSTORE PUSH1 0x4 ADD PUSH2 0x82E SWAP1 PUSH2 0x14C9 JUMP JUMPDEST PUSH1 0x40 MLOAD DUP1 SWAP2 SUB SWAP1 REVERT JUMPDEST PUSH1 0x0 ISZERO ISZERO PUSH1 0x3 PUSH1 0x0 SWAP1 SLOAD SWAP1 PUSH2 0x100 EXP SWAP1 DIV PUSH1 0xFF AND ISZERO ISZERO EQ PUSH2 0x88D JUMPI PUSH1 0x40 MLOAD PUSH32 0x8C379A000000000000000000000000000000000000000000000000000000000 DUP2 MSTORE PUSH1 0x4 ADD PUSH2 0x884 SWAP1 PUSH2 0x1150 JUMP JUMPDEST PUSH1 0x40 MLOAD DUP1 SWAP2 SUB SWAP1 REVERT JUMPDEST PUSH1 0x0 PUSH1 0x3 PUSH1 0x1 PUSH2 0x100 EXP DUP2 SLOAD DUP2 PUSH1 0xFF MUL NOT AND SWAP1 DUP4 PUSH1 0x1 DUP2 GT ISZERO PUSH2 0x8B3 JUMPI PUSH2 0x8B2 PUSH2 0xFD9 JUMP JUMPDEST JUMPDEST MUL OR SWAP1 SSTORE POP JUMP JUMPDEST PUSH1 0x60 PUSH1 0x0 PUSH1 0x4 DUP1 SLOAD SWAP1 POP PUSH8 0xFFFFFFFFFFFFFFFF DUP2 GT ISZERO PUSH2 0x8DD JUMPI PUSH2 0x8DC PUSH2 0xBB6 JUMP JUMPDEST JUMPDEST PUSH1 0x40 MLOAD SWAP1 DUP1 DUP3 MSTORE DUP1 PUSH1 0x20 MUL PUSH1 0x20 ADD DUP3 ADD PUSH1 0x40 MSTORE DUP1 ISZERO PUSH2 0x90B JUMPI DUP2 PUSH1 0x20 ADD PUSH1 0x20 DUP3 MUL DUP1 CALLDATASIZE DUP4 CALLDATACOPY DUP1 DUP3 ADD SWAP2 POP POP SWAP1 POP JUMPDEST POP SWAP1 POP PUSH1 0x0 JUMPDEST PUSH1 0x4 DUP1 SLOAD SWAP1 POP DUP2 LT ISZERO PUSH2 0x970 JUMPI PUSH1 0x4 DUP2 DUP2 SLOAD DUP2 LT PUSH2 0x932 JUMPI PUSH2 0x931 PUSH2 0x1170 JUMP JUMPDEST JUMPDEST SWAP1 PUSH1 0x0 MSTORE PUSH1 0x20 PUSH1 0x0 KECCAK256 SWAP1 PUSH1 0x3 MUL ADD PUSH1 0x0 ADD SLOAD DUP3 DUP3 DUP2 MLOAD DUP2 LT PUSH2 0x957 JUMPI PUSH2 0x956 PUSH2 0x1170 JUMP JUMPDEST JUMPDEST PUSH1 0x20 MUL PUSH1 0x20 ADD ADD DUP2 DUP2 MSTORE POP POP DUP1 DUP1 PUSH1 0x1 ADD SWAP2 POP POP PUSH2 0x911 JUMP JUMPDEST POP DUP1 SWAP2 POP POP SWAP1 JUMP JUMPDEST PUSH1 0x0 ISZERO ISZERO PUSH1 0x3 PUSH1 0x0 SWAP1 SLOAD SWAP1 PUSH2 0x100 EXP SWAP1 DIV PUSH1 0xFF AND ISZERO ISZERO EQ PUSH2 0x9CE JUMPI PUSH1 0x40 MLOAD PUSH32 0x8C379A000000000000000000000000000000000000000000000000000000000 DUP2 MSTORE PUSH1 0x4 ADD PUSH2 0x9C5 SWAP1 PUSH2 0x1150 JUMP JUMPDEST PUSH1 0x40 MLOAD DUP1 SWAP2 SUB SWAP1 REVERT JUMPDEST PUSH2 0x9D6 PUSH2 0xB12 JUMP JUMPDEST DUP2 DUP2 PUSH1 0x0 ADD DUP2 DUP2 MSTORE POP POP PUSH1 0x5 DUP2 SWAP1 DUP1 PUSH1 0x1 DUP2 SLOAD ADD DUP1 DUP3 SSTORE DUP1 SWAP2 POP POP PUSH1 0x1 SWAP1 SUB SWAP1 PUSH1 0x0 MSTORE PUSH1 0x20 PUSH1 0x0 KECCAK256 ADD PUSH1 0x0 SWAP1 SWAP2 SWAP1 SWAP2 SWAP1 SWAP2 POP PUSH1 0x0 DUP3 ADD MLOAD DUP2 PUSH1 0x0 ADD SSTORE POP POP POP POP JUMP JUMPDEST PUSH1 0x0 ISZERO ISZERO PUSH1 0x3 PUSH1 0x0 SWAP1 SLOAD SWAP1 PUSH2 0x100 EXP SWAP1 DIV PUSH1 0xFF AND ISZERO ISZERO EQ PUSH2 0xA6E JUMPI PUSH1 0x40 MLOAD PUSH32 0x8C379A000000000000000000000000000000000000000000000000000000000 DUP2 MSTORE PUSH1 0x4 ADD PUSH2 0xA65 SWAP1 PUSH2 0x1150 JUMP JUMPDEST PUSH1 0x40 MLOAD DUP1 SWAP2 SUB SWAP1 REVERT JUMPDEST PUSH2 0xA76 PUSH2 0xB25 JUMP JUMPDEST DUP2 DUP2 PUSH1 0x0 ADD DUP2 DUP2 MSTORE POP POP PUSH1 0x4 DUP2 SWAP1 DUP1 PUSH1 0x1 DUP2 SLOAD ADD DUP1 DUP3 SSTORE DUP1 SWAP2 POP POP PUSH1 0x1 SWAP1 SUB SWAP1 PUSH1 0x0 MSTORE PUSH1 0x20 PUSH1 0x0 KECCAK256 SWAP1 PUSH1 0x3 MUL ADD PUSH1 0x0 SWAP1 SWAP2 SWAP1 SWAP2 SWAP1 SWAP2 POP PUSH1 0x0 DUP3 ADD MLOAD DUP2 PUSH1 0x0 ADD SSTORE PUSH1 0x20 DUP3 ADD MLOAD DUP2 PUSH1 0x1 ADD SWAP1 DUP2 PUSH2 0xACB SWAP2 SWAP1 PUSH2 0x13AB JUMP JUMPDEST POP PUSH1 0x40 DUP3 ADD MLOAD DUP2 PUSH1 0x2 ADD PUSH1 0x0 PUSH2 0x100 EXP DUP2 SLOAD DUP2 PUSH1 0xFF MUL NOT AND SWAP1 DUP4 ISZERO ISZERO MUL OR SWAP1 SSTORE POP PUSH1 0x60 DUP3 ADD MLOAD DUP2 PUSH1 0x2 ADD PUSH1 0x1 PUSH2 0x100 EXP DUP2 SLOAD DUP2 PUSH1 0xFF MUL NOT AND SWAP1 DUP4 ISZERO ISZERO MUL OR SWAP1 SSTORE POP POP POP POP POP JUMP JUMPDEST PUSH1 0x40 MLOAD DUP1 PUSH1 0x20 ADD PUSH1 0x40 MSTORE DUP1 PUSH1 0x0 DUP2 MSTORE POP SWAP1 JUMP JUMPDEST PUSH1 0x40 MLOAD DUP1 PUSH1 0x80 ADD PUSH1 0x40 MSTORE DUP1 PUSH1 0x0 DUP2 MSTORE PUSH1 0x20 ADD PUSH1 0x60 DUP2 MSTORE PUSH1 0x20 ADD PUSH1 0x0 ISZERO ISZERO DUP2 MSTORE PUSH1 0x20 ADD PUSH1 0x0 ISZERO ISZERO DUP2 MSTORE POP SWAP1 JUMP JUMPDEST PUSH1 0x0 PUSH1 0x40 MLOAD SWAP1 POP SWAP1 JUMP JUMPDEST PUSH1 0x0 DUP1 REVERT JUMPDEST PUSH1 0x0 DUP1 REVERT JUMPDEST PUSH1 0x0 DUP2 SWAP1 POP SWAP2 SWAP1 POP JUMP JUMPDEST PUSH2 0xB78 DUP2 PUSH2 0xB65 JUMP JUMPDEST DUP2 EQ PUSH2 0xB83 JUMPI PUSH1 0x0 DUP1 REVERT JUMPDEST POP JUMP JUMPDEST PUSH1 0x0 DUP2 CALLDATALOAD SWAP1 POP PUSH2 0xB95 DUP2 PUSH2 0xB6F JUMP JUMPDEST SWAP3 SWAP2 POP POP JUMP JUMPDEST PUSH1 0x0 DUP1 REVERT JUMPDEST PUSH1 0x0 DUP1 REVERT JUMPDEST PUSH1 0x0 PUSH1 0x1F NOT PUSH1 0x1F DUP4 ADD AND SWAP1 POP SWAP2 SWAP1 POP JUMP JUMPDEST PUSH32 0x4E487B7100000000000000000000000000000000000000000000000000000000 PUSH1 0x0 MSTORE PUSH1 0x41 PUSH1 0x4 MSTORE PUSH1 0x24 PUSH1 0x0 REVERT JUMPDEST PUSH2 0xBEE DUP3 PUSH2 0xBA5 JUMP JUMPDEST DUP2 ADD DUP2 DUP2 LT PUSH8 0xFFFFFFFFFFFFFFFF DUP3 GT OR ISZERO PUSH2 0xC0D JUMPI PUSH2 0xC0C PUSH2 0xBB6 JUMP JUMPDEST JUMPDEST DUP1 PUSH1 0x40 MSTORE POP POP POP JUMP JUMPDEST PUSH1 0x0 PUSH2 0xC20 PUSH2 0xB51 JUMP JUMPDEST SWAP1 POP PUSH2 0xC2C DUP3 DUP3 PUSH2 0xBE5 JUMP JUMPDEST SWAP2 SWAP1 POP JUMP JUMPDEST PUSH1 0x0 PUSH8 0xFFFFFFFFFFFFFFFF DUP3 GT ISZERO PUSH2 0xC4C JUMPI PUSH2 0xC4B PUSH2 0xBB6 JUMP JUMPDEST JUMPDEST PUSH2 0xC55 DUP3 PUSH2 0xBA5 JUMP JUMPDEST SWAP1 POP PUSH1 0x20 DUP2 ADD SWAP1 POP SWAP2 SWAP1 POP JUMP JUMPDEST DUP3 DUP2 DUP4 CALLDATACOPY PUSH1 0x0 DUP4 DUP4 ADD MSTORE POP POP POP JUMP JUMPDEST PUSH1 0x0 PUSH2 0xC84 PUSH2 0xC7F DUP5 PUSH2 0xC31 JUMP JUMPDEST PUSH2 0xC16 JUMP JUMPDEST SWAP1 POP DUP3 DUP2 MSTORE PUSH1 0x20 DUP2 ADD DUP5 DUP5 DUP5 ADD GT ISZERO PUSH2 0xCA0 JUMPI PUSH2 0xC9F PUSH2 0xBA0 JUMP JUMPDEST JUMPDEST PUSH2 0xCAB DUP5 DUP3 DUP6 PUSH2 0xC62 JUMP JUMPDEST POP SWAP4 SWAP3 POP POP POP JUMP JUMPDEST PUSH1 0x0 DUP3 PUSH1 0x1F DUP4 ADD SLT PUSH2 0xCC8 JUMPI PUSH2 0xCC7 PUSH2 0xB9B JUMP JUMPDEST JUMPDEST DUP2 CALLDATALOAD PUSH2 0xCD8 DUP5 DUP3 PUSH1 0x20 DUP7 ADD PUSH2 0xC71 JUMP JUMPDEST SWAP2 POP POP SWAP3 SWAP2 POP POP JUMP JUMPDEST PUSH1 0x0 DUP1 PUSH1 0x40 DUP4 DUP6 SUB SLT ISZERO PUSH2 0xCF8 JUMPI PUSH2 0xCF7 PUSH2 0xB5B JUMP JUMPDEST JUMPDEST PUSH1 0x0 PUSH2 0xD06 DUP6 DUP3 DUP7 ADD PUSH2 0xB86 JUMP JUMPDEST SWAP3 POP POP PUSH1 0x20 DUP4 ADD CALLDATALOAD PUSH8 0xFFFFFFFFFFFFFFFF DUP2 GT ISZERO PUSH2 0xD27 JUMPI PUSH2 0xD26 PUSH2 0xB60 JUMP JUMPDEST JUMPDEST PUSH2 0xD33 DUP6 DUP3 DUP7 ADD PUSH2 0xCB3 JUMP JUMPDEST SWAP2 POP POP SWAP3 POP SWAP3 SWAP1 POP JUMP JUMPDEST PUSH1 0x0 DUP2 ISZERO ISZERO SWAP1 POP SWAP2 SWAP1 POP JUMP JUMPDEST PUSH2 0xD52 DUP2 PUSH2 0xD3D JUMP JUMPDEST DUP2 EQ PUSH2 0xD5D JUMPI PUSH1 0x0 DUP1 REVERT JUMPDEST POP JUMP JUMPDEST PUSH1 0x0 DUP2 CALLDATALOAD SWAP1 POP PUSH2 0xD6F DUP2 PUSH2 0xD49 JUMP JUMPDEST SWAP3 SWAP2 POP POP JUMP JUMPDEST PUSH1 0x0 DUP1 PUSH1 0x0 PUSH1 0x60 DUP5 DUP7 SUB SLT ISZERO PUSH2 0xD8E JUMPI PUSH2 0xD8D PUSH2 0xB5B JUMP JUMPDEST JUMPDEST PUSH1 0x0 PUSH2 0xD9C DUP7 DUP3 DUP8 ADD PUSH2 0xB86 JUMP JUMPDEST SWAP4 POP POP PUSH1 0x20 PUSH2 0xDAD DUP7 DUP3 DUP8 ADD PUSH2 0xD60 JUMP JUMPDEST SWAP3 POP POP PUSH1 0x40 PUSH2 0xDBE DUP7 DUP3 DUP8 ADD PUSH2 0xD60 JUMP JUMPDEST SWAP2 POP POP SWAP3 POP SWAP3 POP SWAP3 JUMP JUMPDEST PUSH1 0x0 PUSH1 0x20 DUP3 DUP5 SUB SLT ISZERO PUSH2 0xDDE JUMPI PUSH2 0xDDD PUSH2 0xB5B JUMP JUMPDEST JUMPDEST PUSH1 0x0 PUSH2 0xDEC DUP5 DUP3 DUP6 ADD PUSH2 0xB86 JUMP JUMPDEST SWAP2 POP POP SWAP3 SWAP2 POP POP JUMP JUMPDEST PUSH2 0xDFE DUP2 PUSH2 0xB65 JUMP JUMPDEST DUP3 MSTORE POP POP JUMP JUMPDEST PUSH1 0x0 PUSH1 0x20 DUP3 ADD SWAP1 POP PUSH2 0xE19 PUSH1 0x0 DUP4 ADD DUP5 PUSH2 0xDF5 JUMP JUMPDEST SWAP3 SWAP2 POP POP JUMP JUMPDEST PUSH1 0x0 DUP2 MLOAD SWAP1 POP SWAP2 SWAP1 POP JUMP JUMPDEST PUSH1 0x0 DUP3 DUP3 MSTORE PUSH1 0x20 DUP3 ADD SWAP1 POP SWAP3 SWAP2 POP POP JUMP JUMPDEST PUSH1 0x0 JUMPDEST DUP4 DUP2 LT ISZERO PUSH2 0xE59 JUMPI DUP1 DUP3 ADD MLOAD DUP2 DUP5 ADD MSTORE PUSH1 0x20 DUP2 ADD SWAP1 POP PUSH2 0xE3E JUMP JUMPDEST PUSH1 0x0 DUP5 DUP5 ADD MSTORE POP POP POP POP JUMP JUMPDEST PUSH1 0x0 PUSH2 0xE70 DUP3 PUSH2 0xE1F JUMP JUMPDEST PUSH2 0xE7A DUP2 DUP6 PUSH2 0xE2A JUMP JUMPDEST SWAP4 POP PUSH2 0xE8A DUP2 DUP6 PUSH1 0x20 DUP7 ADD PUSH2 0xE3B JUMP JUMPDEST PUSH2 0xE93 DUP2 PUSH2 0xBA5 JUMP JUMPDEST DUP5 ADD SWAP2 POP POP SWAP3 SWAP2 POP POP JUMP JUMPDEST PUSH2 0xEA7 DUP2 PUSH2 0xD3D JUMP JUMPDEST DUP3 MSTORE POP POP JUMP JUMPDEST PUSH1 0x0 PUSH1 0x80 DUP3 ADD SWAP1 POP PUSH2 0xEC2 PUSH1 0x0 DUP4 ADD DUP8 PUSH2 0xDF5 JUMP JUMPDEST DUP2 DUP2 SUB PUSH1 0x20 DUP4 ADD MSTORE PUSH2 0xED4 DUP2 DUP7 PUSH2 0xE65 JUMP JUMPDEST SWAP1 POP PUSH2 0xEE3 PUSH1 0x40 DUP4 ADD DUP6 PUSH2 0xE9E JUMP JUMPDEST PUSH2 0xEF0 PUSH1 0x60 DUP4 ADD DUP5 PUSH2 0xE9E JUMP JUMPDEST SWAP6 SWAP5 POP POP POP POP POP JUMP JUMPDEST PUSH1 0x0 DUP2 MLOAD SWAP1 POP SWAP2 SWAP1 POP JUMP JUMPDEST PUSH1 0x0 DUP3 DUP3 MSTORE PUSH1 0x20 DUP3 ADD SWAP1 POP SWAP3 SWAP2 POP POP JUMP JUMPDEST PUSH1 0x0 DUP2 SWAP1 POP PUSH1 0x20 DUP3 ADD SWAP1 POP SWAP2 SWAP1 POP JUMP JUMPDEST PUSH2 0xF2E DUP2 PUSH2 0xB65 JUMP JUMPDEST DUP3 MSTORE POP POP JUMP JUMPDEST PUSH1 0x0 PUSH2 0xF40 DUP4 DUP4 PUSH2 0xF25 JUMP JUMPDEST PUSH1 0x20 DUP4 ADD SWAP1 POP SWAP3 SWAP2 POP POP JUMP JUMPDEST PUSH1 0x0 PUSH1 0x20 DUP3 ADD SWAP1 POP SWAP2 SWAP1 POP JUMP JUMPDEST PUSH1 0x0 PUSH2 0xF64 DUP3 PUSH2 0xEF9 JUMP JUMPDEST PUSH2 0xF6E DUP2 DUP6 PUSH2 0xF04 JUMP JUMPDEST SWAP4 POP PUSH2 0xF79 DUP4 PUSH2 0xF15 JUMP JUMPDEST DUP1 PUSH1 0x0 JUMPDEST DUP4 DUP2 LT ISZERO PUSH2 0xFAA JUMPI DUP2 MLOAD PUSH2 0xF91 DUP9 DUP3 PUSH2 0xF34 JUMP JUMPDEST SWAP8 POP PUSH2 0xF9C DUP4 PUSH2 0xF4C JUMP JUMPDEST SWAP3 POP POP PUSH1 0x1 DUP2 ADD SWAP1 POP PUSH2 0xF7D JUMP JUMPDEST POP DUP6 SWAP4 POP POP POP POP SWAP3 SWAP2 POP POP JUMP JUMPDEST PUSH1 0x0 PUSH1 0x20 DUP3 ADD SWAP1 POP DUP2 DUP2 SUB PUSH1 0x0 DUP4 ADD MSTORE PUSH2 0xFD1 DUP2 DUP5 PUSH2 0xF59 JUMP JUMPDEST SWAP1 POP SWAP3 SWAP2 POP POP JUMP JUMPDEST PUSH32 0x4E487B7100000000000000000000000000000000000000000000000000000000 PUSH1 0x0 MSTORE PUSH1 0x21 PUSH1 0x4 MSTORE PUSH1 0x24 PUSH1 0x0 REVERT JUMPDEST PUSH1 0x2 DUP2 LT PUSH2 0x1019 JUMPI PUSH2 0x1018 PUSH2 0xFD9 JUMP JUMPDEST JUMPDEST POP JUMP JUMPDEST PUSH1 0x0 DUP2 SWAP1 POP PUSH2 0x102A DUP3 PUSH2 0x1008 JUMP JUMPDEST SWAP2 SWAP1 POP JUMP JUMPDEST PUSH1 0x0 PUSH2 0x103A DUP3 PUSH2 0x101C JUMP JUMPDEST SWAP1 POP SWAP2 SWAP1 POP JUMP JUMPDEST PUSH2 0x104A DUP2 PUSH2 0x102F JUMP JUMPDEST DUP3 MSTORE POP POP JUMP JUMPDEST PUSH1 0x0 PUSH1 0x20 DUP3 ADD SWAP1 POP PUSH2 0x1065 PUSH1 0x0 DUP4 ADD DUP5 PUSH2 0x1041 JUMP JUMPDEST SWAP3 SWAP2 POP POP JUMP JUMPDEST PUSH1 0x0 PUSH20 0xFFFFFFFFFFFFFFFFFFFFFFFFFFFFFFFFFFFFFFFF DUP3 AND SWAP1 POP SWAP2 SWAP1 POP JUMP JUMPDEST PUSH1 0x0 PUSH2 0x1096 DUP3 PUSH2 0x106B JUMP JUMPDEST SWAP1 POP SWAP2 SWAP1 POP JUMP JUMPDEST PUSH2 0x10A6 DUP2 PUSH2 0x108B JUMP JUMPDEST DUP3 MSTORE POP POP JUMP JUMPDEST PUSH1 0x0 PUSH1 0x20 DUP3 ADD SWAP1 POP PUSH2 0x10C1 PUSH1 0x0 DUP4 ADD DUP5 PUSH2 0x109D JUMP JUMPDEST SWAP3 SWAP2 POP POP JUMP JUMPDEST PUSH1 0x0 PUSH1 0x20 DUP3 ADD SWAP1 POP DUP2 DUP2 SUB PUSH1 0x0 DUP4 ADD MSTORE PUSH2 0x10E1 DUP2 DUP5 PUSH2 0xE65 JUMP JUMPDEST SWAP1 POP SWAP3 SWAP2 POP POP JUMP JUMPDEST PUSH1 0x0 PUSH1 0x20 DUP3 ADD SWAP1 POP PUSH2 0x10FE PUSH1 0x0 DUP4 ADD DUP5 PUSH2 0xE9E JUMP JUMPDEST SWAP3 SWAP2 POP POP JUMP JUMPDEST PUSH32 0x536D61727420436F6E747261637420697320636C6F7365640000000000000000 PUSH1 0x0 DUP3 ADD MSTORE POP JUMP JUMPDEST PUSH1 0x0 PUSH2 0x113A PUSH1 0x18 DUP4 PUSH2 0xE2A JUMP JUMPDEST SWAP2 POP PUSH2 0x1145 DUP3 PUSH2 0x1104 JUMP JUMPDEST PUSH1 0x20 DUP3 ADD SWAP1 POP SWAP2 SWAP1 POP JUMP JUMPDEST PUSH1 0x0 PUSH1 0x20 DUP3 ADD SWAP1 POP DUP2 DUP2 SUB PUSH1 0x0 DUP4 ADD MSTORE PUSH2 0x1169 DUP2 PUSH2 0x112D JUMP JUMPDEST SWAP1 POP SWAP2 SWAP1 POP JUMP JUMPDEST PUSH32 0x4E487B7100000000000000000000000000000000000000000000000000000000 PUSH1 0x0 MSTORE PUSH1 0x32 PUSH1 0x4 MSTORE PUSH1 0x24 PUSH1 0x0 REVERT JUMPDEST PUSH32 0x4E487B7100000000000000000000000000000000000000000000000000000000 PUSH1 0x0 MSTORE PUSH1 0x22 PUSH1 0x4 MSTORE PUSH1 0x24 PUSH1 0x0 REVERT JUMPDEST PUSH1 0x0 PUSH1 0x2 DUP3 DIV SWAP1 POP PUSH1 0x1 DUP3 AND DUP1 PUSH2 0x11E6 JUMPI PUSH1 0x7F DUP3 AND SWAP2 POP JUMPDEST PUSH1 0x20 DUP3 LT DUP2 SUB PUSH2 0x11F9 JUMPI PUSH2 0x11F8 PUSH2 0x119F JUMP JUMPDEST JUMPDEST POP SWAP2 SWAP1 POP JUMP JUMPDEST PUSH1 0x0 DUP2 SWAP1 POP DUP2 PUSH1 0x0 MSTORE PUSH1 0x20 PUSH1 0x0 KECCAK256 SWAP1 POP SWAP2 SWAP1 POP JUMP JUMPDEST PUSH1 0x0 PUSH1 0x20 PUSH1 0x1F DUP4 ADD DIV SWAP1 POP SWAP2 SWAP1 POP JUMP JUMPDEST PUSH1 0x0 DUP3 DUP3 SHL SWAP1 POP SWAP3 SWAP2 POP POP JUMP JUMPDEST PUSH1 0x0 PUSH1 0x8 DUP4 MUL PUSH2 0x1261 PUSH32 0xFFFFFFFFFFFFFFFFFFFFFFFFFFFFFFFFFFFFFFFFFFFFFFFFFFFFFFFFFFFFFFFF DUP3 PUSH2 0x1224 JUMP JUMPDEST PUSH2 0x126B DUP7 DUP4 PUSH2 0x1224 JUMP JUMPDEST SWAP6 POP DUP1 NOT DUP5 AND SWAP4 POP DUP1 DUP7 AND DUP5 OR SWAP3 POP POP POP SWAP4 SWAP3 POP POP POP JUMP JUMPDEST PUSH1 0x0 DUP2 SWAP1 POP SWAP2 SWAP1 POP JUMP JUMPDEST PUSH1 0x0 PUSH2 0x12A8 PUSH2 0x12A3 PUSH2 0x129E DUP5 PUSH2 0xB65 JUMP JUMPDEST PUSH2 0x1283 JUMP JUMPDEST PUSH2 0xB65 JUMP JUMPDEST SWAP1 POP SWAP2 SWAP1 POP JUMP JUMPDEST PUSH1 0x0 DUP2 SWAP1 POP SWAP2 SWAP1 POP JUMP JUMPDEST PUSH2 0x12C2 DUP4 PUSH2 0x128D JUMP JUMPDEST PUSH2 0x12D6 PUSH2 0x12CE DUP3 PUSH2 0x12AF JUMP JUMPDEST DUP5 DUP5 SLOAD PUSH2 0x1231 JUMP JUMPDEST DUP3 SSTORE POP POP POP POP JUMP JUMPDEST PUSH1 0x0 SWAP1 JUMP JUMPDEST PUSH2 0x12EB PUSH2 0x12DE JUMP JUMPDEST PUSH2 0x12F6 DUP2 DUP5 DUP5 PUSH2 0x12B9 JUMP JUMPDEST POP POP POP JUMP JUMPDEST JUMPDEST DUP2 DUP2 LT ISZERO PUSH2 0x131A JUMPI PUSH2 0x130F PUSH1 0x0 DUP3 PUSH2 0x12E3 JUMP JUMPDEST PUSH1 0x1 DUP2 ADD SWAP1 POP PUSH2 0x12FC JUMP JUMPDEST POP POP JUMP JUMPDEST PUSH1 0x1F DUP3 GT ISZERO PUSH2 0x135F JUMPI PUSH2 0x1330 DUP2 PUSH2 0x11FF JUMP JUMPDEST PUSH2 0x1339 DUP5 PUSH2 0x1214 JUMP JUMPDEST DUP2 ADD PUSH1 0x20 DUP6 LT ISZERO PUSH2 0x1348 JUMPI DUP2 SWAP1 POP JUMPDEST PUSH2 0x135C PUSH2 0x1354 DUP6 PUSH2 0x1214 JUMP JUMPDEST DUP4 ADD DUP3 PUSH2 0x12FB JUMP JUMPDEST POP POP JUMPDEST POP POP POP JUMP JUMPDEST PUSH1 0x0 DUP3 DUP3 SHR SWAP1 POP SWAP3 SWAP2 POP POP JUMP JUMPDEST PUSH1 0x0 PUSH2 0x1382 PUSH1 0x0 NOT DUP5 PUSH1 0x8 MUL PUSH2 0x1364 JUMP JUMPDEST NOT DUP1 DUP4 AND SWAP2 POP POP SWAP3 SWAP2 POP POP JUMP JUMPDEST PUSH1 0x0 PUSH2 0x139B DUP4 DUP4 PUSH2 0x1371 JUMP JUMPDEST SWAP2 POP DUP3 PUSH1 0x2 MUL DUP3 OR SWAP1 POP SWAP3 SWAP2 POP POP JUMP JUMPDEST PUSH2 0x13B4 DUP3 PUSH2 0xE1F JUMP JUMPDEST PUSH8 0xFFFFFFFFFFFFFFFF DUP2 GT ISZERO PUSH2 0x13CD JUMPI PUSH2 0x13CC PUSH2 0xBB6 JUMP JUMPDEST JUMPDEST PUSH2 0x13D7 DUP3 SLOAD PUSH2 0x11CE JUMP JUMPDEST PUSH2 0x13E2 DUP3 DUP3 DUP6 PUSH2 0x131E JUMP JUMPDEST PUSH1 0x0 PUSH1 0x20 SWAP1 POP PUSH1 0x1F DUP4 GT PUSH1 0x1 DUP2 EQ PUSH2 0x1415 JUMPI PUSH1 0x0 DUP5 ISZERO PUSH2 0x1403 JUMPI DUP3 DUP8 ADD MLOAD SWAP1 POP JUMPDEST PUSH2 0x140D DUP6 DUP3 PUSH2 0x138F JUMP JUMPDEST DUP7 SSTORE POP PUSH2 0x1475 JUMP JUMPDEST PUSH1 0x1F NOT DUP5 AND PUSH2 0x1423 DUP7 PUSH2 0x11FF JUMP JUMPDEST PUSH1 0x0 JUMPDEST DUP3 DUP2 LT ISZERO PUSH2 0x144B JUMPI DUP5 DUP10 ADD MLOAD DUP3 SSTORE PUSH1 0x1 DUP3 ADD SWAP2 POP PUSH1 0x20 DUP6 ADD SWAP5 POP PUSH1 0x20 DUP2 ADD SWAP1 POP PUSH2 0x1426 JUMP JUMPDEST DUP7 DUP4 LT ISZERO PUSH2 0x1468 JUMPI DUP5 DUP10 ADD MLOAD PUSH2 0x1464 PUSH1 0x1F DUP10 AND DUP3 PUSH2 0x1371 JUMP JUMPDEST DUP4 SSTORE POP JUMPDEST PUSH1 0x1 PUSH1 0x2 DUP9 MUL ADD DUP9 SSTORE POP POP POP JUMPDEST POP POP POP POP POP POP JUMP JUMPDEST PUSH32 0x5573657220646563656173656420697320616C72656164792073657400000000 PUSH1 0x0 DUP3 ADD MSTORE POP JUMP JUMPDEST PUSH1 0x0 PUSH2 0x14B3 PUSH1 0x1C DUP4 PUSH2 0xE2A JUMP JUMPDEST SWAP2 POP PUSH2 0x14BE DUP3 PUSH2 0x147D JUMP JUMPDEST PUSH1 0x20 DUP3 ADD SWAP1 POP SWAP2 SWAP1 POP JUMP JUMPDEST PUSH1 0x0 PUSH1 0x20 DUP3 ADD SWAP1 POP DUP2 DUP2 SUB PUSH1 0x0 DUP4 ADD MSTORE PUSH2 0x14E2 DUP2 PUSH2 0x14A6 JUMP JUMPDEST SWAP1 POP SWAP2 SWAP1 POP JUMP INVALID LOG2 PUSH5 0x6970667358 0x22 SLT KECCAK256 PUSH10 0x4E76C051FAF0F7DAC361 PUSH27 0x695597542352385A43785C0E828885E994C21C3C64736F6C634300 ADDMOD OR STOP CALLER "
		},
		"gasEstimates": {
			"creation": {
				"codeDepositCost": "1081400",
				"executionCost": "infinite",
				"totalCost": "infinite"
			},
			"external": {
				"actual_user_state()": "2633",
				"addOracle(uint256)": "49186",
				"addRecipient(uint256)": "infinite",
				"closeUserContract()": "26628",
				"contractHash()": "infinite",
				"getAllOracles()": "infinite",
				"getAllRecipients()": "infinite",
				"isContractClosed()": "2560",
				"oracles_list(uint256)": "infinite",
				"owner()": "2556",
				"recipients_list(uint256)": "infinite",
				"setRecipientResponse(uint256,bool,bool)": "infinite",
				"setRecipientTimeStamp(uint256,string)": "infinite",
				"setUserStateToDeceased()": "28935",
				"userId()": "2496"
			}
		},
		"methodIdentifiers": {
			"actual_user_state()": "84731d6f",
			"addOracle(uint256)": "e5a72d5b",
			"addRecipient(uint256)": "fc68b3ed",
			"closeUserContract()": "35254bcd",
			"contractHash()": "904c6094",
			"getAllOracles()": "65a6bb29",
			"getAllRecipients()": "b74513c1",
			"isContractClosed()": "abcc7a65",
			"oracles_list(uint256)": "42be8cb5",
			"owner()": "8da5cb5b",
			"recipients_list(uint256)": "499ba0aa",
			"setRecipientResponse(uint256,bool,bool)": "38fcbc01",
			"setRecipientTimeStamp(uint256,string)": "3121924d",
			"setUserStateToDeceased()": "ac3ef22d",
			"userId()": "58975919"
		}
	},
	"abi": [
		{
			"inputs": [
				{
					"internalType": "uint256",
					"name": "_id",
					"type": "uint256"
				},
				{
					"internalType": "string",
					"name": "_hash",
					"type": "string"
				}
			],
			"stateMutability": "nonpayable",
			"type": "constructor"
		},
		{
			"inputs": [],
			"name": "actual_user_state",
			"outputs": [
				{
					"internalType": "enum user_contract.user_state",
					"name": "",
					"type": "uint8"
				}
			],
			"stateMutability": "view",
			"type": "function"
		},
		{
			"inputs": [
				{
					"internalType": "uint256",
					"name": "oracleId",
					"type": "uint256"
				}
			],
			"name": "addOracle",
			"outputs": [],
			"stateMutability": "nonpayable",
			"type": "function"
		},
		{
			"inputs": [
				{
					"internalType": "uint256",
					"name": "recipientId",
					"type": "uint256"
				}
			],
			"name": "addRecipient",
			"outputs": [],
			"stateMutability": "nonpayable",
			"type": "function"
		},
		{
			"inputs": [],
			"name": "closeUserContract",
			"outputs": [],
			"stateMutability": "nonpayable",
			"type": "function"
		},
		{
			"inputs": [],
			"name": "contractHash",
			"outputs": [
				{
					"internalType": "string",
					"name": "",
					"type": "string"
				}
			],
			"stateMutability": "view",
			"type": "function"
		},
		{
			"inputs": [],
			"name": "getAllOracles",
			"outputs": [
				{
					"internalType": "uint256[]",
					"name": "",
					"type": "uint256[]"
				}
			],
			"stateMutability": "view",
			"type": "function"
		},
		{
			"inputs": [],
			"name": "getAllRecipients",
			"outputs": [
				{
					"internalType": "uint256[]",
					"name": "",
					"type": "uint256[]"
				}
			],
			"stateMutability": "view",
			"type": "function"
		},
		{
			"inputs": [],
			"name": "isContractClosed",
			"outputs": [
				{
					"internalType": "bool",
					"name": "",
					"type": "bool"
				}
			],
			"stateMutability": "view",
			"type": "function"
		},
		{
			"inputs": [
				{
					"internalType": "uint256",
					"name": "",
					"type": "uint256"
				}
			],
			"name": "oracles_list",
			"outputs": [
				{
					"internalType": "uint256",
					"name": "id_oracle",
					"type": "uint256"
				}
			],
			"stateMutability": "view",
			"type": "function"
		},
		{
			"inputs": [],
			"name": "owner",
			"outputs": [
				{
					"internalType": "address",
					"name": "",
					"type": "address"
				}
			],
			"stateMutability": "view",
			"type": "function"
		},
		{
			"inputs": [
				{
					"internalType": "uint256",
					"name": "",
					"type": "uint256"
				}
			],
			"name": "recipients_list",
			"outputs": [
				{
					"internalType": "uint256",
					"name": "id_recipient",
					"type": "uint256"
				},
				{
					"internalType": "string",
					"name": "timestamp",
					"type": "string"
				},
				{
					"internalType": "bool",
					"name": "response",
					"type": "bool"
				},
				{
					"internalType": "bool",
					"name": "isTimeExpired",
					"type": "bool"
				}
			],
			"stateMutability": "view",
			"type": "function"
		},
		{
			"inputs": [
				{
					"internalType": "uint256",
					"name": "recipientId",
					"type": "uint256"
				},
				{
					"internalType": "bool",
					"name": "isAccepted",
					"type": "bool"
				},
				{
					"internalType": "bool",
					"name": "isTimeExpired",
					"type": "bool"
				}
			],
			"name": "setRecipientResponse",
			"outputs": [],
			"stateMutability": "nonpayable",
			"type": "function"
		},
		{
			"inputs": [
				{
					"internalType": "uint256",
					"name": "recipientId",
					"type": "uint256"
				},
				{
					"internalType": "string",
					"name": "timestamp",
					"type": "string"
				}
			],
			"name": "setRecipientTimeStamp",
			"outputs": [],
			"stateMutability": "nonpayable",
			"type": "function"
		},
		{
			"inputs": [],
			"name": "setUserStateToDeceased",
			"outputs": [],
			"stateMutability": "nonpayable",
			"type": "function"
		},
		{
			"inputs": [],
			"name": "userId",
			"outputs": [
				{
					"internalType": "uint256",
					"name": "",
					"type": "uint256"
				}
			],
			"stateMutability": "view",
			"type": "function"
		}
	]
}