{
	"Lincloud/.deps/contract/contract2.sol": {
		"user_contract": {
			"abi": [
				{
					"inputs": [
						{
							"internalType": "uint256",
							"name": "_id",
							"type": "uint256"
						},
						{
							"internalType": "string",
							"name": "_hash",
							"type": "string"
						}
					],
					"stateMutability": "nonpayable",
					"type": "constructor"
				},
				{
					"inputs": [],
					"name": "actual_user_state",
					"outputs": [
						{
							"internalType": "enum user_contract.user_state",
							"name": "",
							"type": "uint8"
						}
					],
					"stateMutability": "view",
					"type": "function"
				},
				{
					"inputs": [
						{
							"internalType": "uint256",
							"name": "oracleId",
							"type": "uint256"
						}
					],
					"name": "addOracle",
					"outputs": [],
					"stateMutability": "nonpayable",
					"type": "function"
				},
				{
					"inputs": [
						{
							"internalType": "uint256",
							"name": "recipientId",
							"type": "uint256"
						}
					],
					"name": "addRecipient",
					"outputs": [],
					"stateMutability": "nonpayable",
					"type": "function"
				},
				{
					"inputs": [],
					"name": "closeUserContract",
					"outputs": [],
					"stateMutability": "nonpayable",
					"type": "function"
				},
				{
					"inputs": [],
					"name": "contractHash",
					"outputs": [
						{
							"internalType": "string",
							"name": "",
							"type": "string"
						}
					],
					"stateMutability": "view",
					"type": "function"
				},
				{
					"inputs": [],
					"name": "getAllOracles",
					"outputs": [
						{
							"internalType": "uint256[]",
							"name": "",
							"type": "uint256[]"
						}
					],
					"stateMutability": "view",
					"type": "function"
				},
				{
					"inputs": [],
					"name": "getAllRecipients",
					"outputs": [
						{
							"internalType": "uint256[]",
							"name": "",
							"type": "uint256[]"
						}
					],
					"stateMutability": "view",
					"type": "function"
				},
				{
					"inputs": [],
					"name": "getContractState",
					"outputs": [
						{
							"internalType": "string",
							"name": "",
							"type": "string"
						}
					],
					"stateMutability": "view",
					"type": "function"
				},
				{
					"inputs": [
						{
							"internalType": "uint256",
							"name": "recipientId",
							"type": "uint256"
						}
					],
					"name": "getRecipientResponse",
					"outputs": [
						{
							"internalType": "string",
							"name": "",
							"type": "string"
						}
					],
					"stateMutability": "view",
					"type": "function"
				},
				{
					"inputs": [
						{
							"internalType": "uint256",
							"name": "recipientId",
							"type": "uint256"
						}
					],
					"name": "getRecipientTimeStamp",
					"outputs": [
						{
							"internalType": "string",
							"name": "",
							"type": "string"
						}
					],
					"stateMutability": "view",
					"type": "function"
				},
				{
					"inputs": [],
					"name": "getUserState",
					"outputs": [
						{
							"internalType": "string",
							"name": "",
							"type": "string"
						}
					],
					"stateMutability": "view",
					"type": "function"
				},
				{
					"inputs": [],
					"name": "isContractClosed",
					"outputs": [
						{
							"internalType": "bool",
							"name": "",
							"type": "bool"
						}
					],
					"stateMutability": "view",
					"type": "function"
				},
				{
					"inputs": [
						{
							"internalType": "uint256",
							"name": "",
							"type": "uint256"
						}
					],
					"name": "oracles_list",
					"outputs": [
						{
							"internalType": "uint256",
							"name": "id_oracle",
							"type": "uint256"
						}
					],
					"stateMutability": "view",
					"type": "function"
				},
				{
					"inputs": [],
					"name": "owner",
					"outputs": [
						{
							"internalType": "address",
							"name": "",
							"type": "address"
						}
					],
					"stateMutability": "view",
					"type": "function"
				},
				{
					"inputs": [
						{
							"internalType": "uint256",
							"name": "",
							"type": "uint256"
						}
					],
					"name": "recipients_list",
					"outputs": [
						{
							"internalType": "uint256",
							"name": "id_recipient",
							"type": "uint256"
						},
						{
							"internalType": "string",
							"name": "time",
							"type": "string"
						},
						{
							"internalType": "string",
							"name": "date",
							"type": "string"
						},
						{
							"internalType": "enum user_contract.recipient_response_state",
							"name": "responseState",
							"type": "uint8"
						},
						{
							"internalType": "bool",
							"name": "isTimeExpired",
							"type": "bool"
						}
					],
					"stateMutability": "view",
					"type": "function"
				},
				{
					"inputs": [
						{
							"internalType": "uint256",
							"name": "recipientId",
							"type": "uint256"
						},
						{
							"internalType": "bool",
							"name": "isAccepted",
							"type": "bool"
						},
						{
							"internalType": "bool",
							"name": "isTimeExpired",
							"type": "bool"
						}
					],
					"name": "setRecipientResponse",
					"outputs": [],
					"stateMutability": "nonpayable",
					"type": "function"
				},
				{
					"inputs": [
						{
							"internalType": "uint256",
							"name": "recipientId",
							"type": "uint256"
						},
						{
							"internalType": "string",
							"name": "time",
							"type": "string"
						},
						{
							"internalType": "string",
							"name": "date",
							"type": "string"
						}
					],
					"name": "setRecipientTimeStamp",
					"outputs": [],
					"stateMutability": "nonpayable",
					"type": "function"
				},
				{
					"inputs": [],
					"name": "setUserStateToDeceased",
					"outputs": [],
					"stateMutability": "nonpayable",
					"type": "function"
				},
				{
					"inputs": [],
					"name": "userId",
					"outputs": [
						{
							"internalType": "uint256",
							"name": "",
							"type": "uint256"
						}
					],
					"stateMutability": "view",
					"type": "function"
				}
			],
			"devdoc": {
				"kind": "dev",
				"methods": {},
				"version": 1
			},
			"evm": {
				"assembly": "    /* \"Lincloud/.deps/contract/contract2.sol\":61:6532  contract user_contract... */\n  mstore(0x40, 0x80)\n    /* \"Lincloud/.deps/contract/contract2.sol\":743:962  constructor(uint256 _id, string memory _hash) {... */\n  callvalue\n  dup1\n  iszero\n  tag_1\n  jumpi\n  0x00\n  dup1\n  revert\ntag_1:\n  pop\n  mload(0x40)\n  sub(codesize, bytecodeSize)\n  dup1\n  bytecodeSize\n  dup4\n  codecopy\n  dup2\n  dup2\n  add\n  0x40\n  mstore\n  dup2\n  add\n  swap1\n  tag_2\n  swap2\n  swap1\n  tag_3\n  jump\t// in\ntag_2:\n    /* \"Lincloud/.deps/contract/contract2.sol\":809:812  _id */\n  dup2\n    /* \"Lincloud/.deps/contract/contract2.sol\":800:806  userId */\n  0x01\n    /* \"Lincloud/.deps/contract/contract2.sol\":800:812  userId = _id */\n  dup2\n  swap1\n  sstore\n  pop\n    /* \"Lincloud/.deps/contract/contract2.sol\":843:859  user_state.alive */\n  0x01\n    /* \"Lincloud/.deps/contract/contract2.sol\":823:840  actual_user_state */\n  0x03\n  0x01\n    /* \"Lincloud/.deps/contract/contract2.sol\":823:859  actual_user_state = user_state.alive */\n  0x0100\n  exp\n  dup2\n  sload\n  dup2\n  0xff\n  mul\n  not\n  and\n  swap1\n  dup4\n  0x01\n  dup2\n  gt\n  iszero\n  tag_6\n  jumpi\n  tag_7\n  tag_8\n  jump\t// in\ntag_7:\ntag_6:\n  mul\n  or\n  swap1\n  sstore\n  pop\n    /* \"Lincloud/.deps/contract/contract2.sol\":885:890  _hash */\n  dup1\n    /* \"Lincloud/.deps/contract/contract2.sol\":870:882  contractHash */\n  0x02\n    /* \"Lincloud/.deps/contract/contract2.sol\":870:890  contractHash = _hash */\n  swap1\n  dup2\n  tag_9\n  swap2\n  swap1\n  tag_10\n  jump\t// in\ntag_9:\n  pop\n    /* \"Lincloud/.deps/contract/contract2.sol\":920:925  false */\n  0x00\n    /* \"Lincloud/.deps/contract/contract2.sol\":901:917  isContractClosed */\n  0x03\n  0x00\n    /* \"Lincloud/.deps/contract/contract2.sol\":901:925  isContractClosed = false */\n  0x0100\n  exp\n  dup2\n  sload\n  dup2\n  0xff\n  mul\n  not\n  and\n  swap1\n  dup4\n  iszero\n  iszero\n  mul\n  or\n  swap1\n  sstore\n  pop\n    /* \"Lincloud/.deps/contract/contract2.sol\":944:954  msg.sender */\n  caller\n    /* \"Lincloud/.deps/contract/contract2.sol\":936:941  owner */\n  0x00\n  dup1\n    /* \"Lincloud/.deps/contract/contract2.sol\":936:954  owner = msg.sender */\n  0x0100\n  exp\n  dup2\n  sload\n  dup2\n  0xffffffffffffffffffffffffffffffffffffffff\n  mul\n  not\n  and\n  swap1\n  dup4\n  0xffffffffffffffffffffffffffffffffffffffff\n  and\n  mul\n  or\n  swap1\n  sstore\n  pop\n    /* \"Lincloud/.deps/contract/contract2.sol\":743:962  constructor(uint256 _id, string memory _hash) {... */\n  pop\n  pop\n    /* \"Lincloud/.deps/contract/contract2.sol\":61:6532  contract user_contract... */\n  jump(tag_11)\n    /* \"#utility.yul\":7:82   */\ntag_12:\n    /* \"#utility.yul\":40:46   */\n  0x00\n    /* \"#utility.yul\":73:75   */\n  0x40\n    /* \"#utility.yul\":67:76   */\n  mload\n    /* \"#utility.yul\":57:76   */\n  swap1\n  pop\n    /* \"#utility.yul\":7:82   */\n  swap1\n  jump\t// out\n    /* \"#utility.yul\":88:205   */\ntag_13:\n    /* \"#utility.yul\":197:198   */\n  0x00\n    /* \"#utility.yul\":194:195   */\n  dup1\n    /* \"#utility.yul\":187:199   */\n  revert\n    /* \"#utility.yul\":211:328   */\ntag_14:\n    /* \"#utility.yul\":320:321   */\n  0x00\n    /* \"#utility.yul\":317:318   */\n  dup1\n    /* \"#utility.yul\":310:322   */\n  revert\n    /* \"#utility.yul\":334:411   */\ntag_15:\n    /* \"#utility.yul\":371:378   */\n  0x00\n    /* \"#utility.yul\":400:405   */\n  dup2\n    /* \"#utility.yul\":389:405   */\n  swap1\n  pop\n    /* \"#utility.yul\":334:411   */\n  swap2\n  swap1\n  pop\n  jump\t// out\n    /* \"#utility.yul\":417:539   */\ntag_16:\n    /* \"#utility.yul\":490:514   */\n  tag_52\n    /* \"#utility.yul\":508:513   */\n  dup2\n    /* \"#utility.yul\":490:514   */\n  tag_15\n  jump\t// in\ntag_52:\n    /* \"#utility.yul\":483:488   */\n  dup2\n    /* \"#utility.yul\":480:515   */\n  eq\n    /* \"#utility.yul\":470:533   */\n  tag_53\n  jumpi\n    /* \"#utility.yul\":529:530   */\n  0x00\n    /* \"#utility.yul\":526:527   */\n  dup1\n    /* \"#utility.yul\":519:531   */\n  revert\n    /* \"#utility.yul\":470:533   */\ntag_53:\n    /* \"#utility.yul\":417:539   */\n  pop\n  jump\t// out\n    /* \"#utility.yul\":545:688   */\ntag_17:\n    /* \"#utility.yul\":602:607   */\n  0x00\n    /* \"#utility.yul\":633:639   */\n  dup2\n    /* \"#utility.yul\":627:640   */\n  mload\n    /* \"#utility.yul\":618:640   */\n  swap1\n  pop\n    /* \"#utility.yul\":649:682   */\n  tag_55\n    /* \"#utility.yul\":676:681   */\n  dup2\n    /* \"#utility.yul\":649:682   */\n  tag_16\n  jump\t// in\ntag_55:\n    /* \"#utility.yul\":545:688   */\n  swap3\n  swap2\n  pop\n  pop\n  jump\t// out\n    /* \"#utility.yul\":694:811   */\ntag_18:\n    /* \"#utility.yul\":803:804   */\n  0x00\n    /* \"#utility.yul\":800:801   */\n  dup1\n    /* \"#utility.yul\":793:805   */\n  revert\n    /* \"#utility.yul\":817:934   */\ntag_19:\n    /* \"#utility.yul\":926:927   */\n  0x00\n    /* \"#utility.yul\":923:924   */\n  dup1\n    /* \"#utility.yul\":916:928   */\n  revert\n    /* \"#utility.yul\":940:1042   */\ntag_20:\n    /* \"#utility.yul\":981:987   */\n  0x00\n    /* \"#utility.yul\":1032:1034   */\n  0x1f\n    /* \"#utility.yul\":1028:1035   */\n  not\n    /* \"#utility.yul\":1023:1025   */\n  0x1f\n    /* \"#utility.yul\":1016:1021   */\n  dup4\n    /* \"#utility.yul\":1012:1026   */\n  add\n    /* \"#utility.yul\":1008:1036   */\n  and\n    /* \"#utility.yul\":998:1036   */\n  swap1\n  pop\n    /* \"#utility.yul\":940:1042   */\n  swap2\n  swap1\n  pop\n  jump\t// out\n    /* \"#utility.yul\":1048:1228   */\ntag_21:\n    /* \"#utility.yul\":1096:1173   */\n  0x4e487b7100000000000000000000000000000000000000000000000000000000\n    /* \"#utility.yul\":1093:1094   */\n  0x00\n    /* \"#utility.yul\":1086:1174   */\n  mstore\n    /* \"#utility.yul\":1193:1197   */\n  0x41\n    /* \"#utility.yul\":1190:1191   */\n  0x04\n    /* \"#utility.yul\":1183:1198   */\n  mstore\n    /* \"#utility.yul\":1217:1221   */\n  0x24\n    /* \"#utility.yul\":1214:1215   */\n  0x00\n    /* \"#utility.yul\":1207:1222   */\n  revert\n    /* \"#utility.yul\":1234:1515   */\ntag_22:\n    /* \"#utility.yul\":1317:1344   */\n  tag_61\n    /* \"#utility.yul\":1339:1343   */\n  dup3\n    /* \"#utility.yul\":1317:1344   */\n  tag_20\n  jump\t// in\ntag_61:\n    /* \"#utility.yul\":1309:1315   */\n  dup2\n    /* \"#utility.yul\":1305:1345   */\n  add\n    /* \"#utility.yul\":1447:1453   */\n  dup2\n    /* \"#utility.yul\":1435:1445   */\n  dup2\n    /* \"#utility.yul\":1432:1454   */\n  lt\n    /* \"#utility.yul\":1411:1429   */\n  0xffffffffffffffff\n    /* \"#utility.yul\":1399:1409   */\n  dup3\n    /* \"#utility.yul\":1396:1430   */\n  gt\n    /* \"#utility.yul\":1393:1455   */\n  or\n    /* \"#utility.yul\":1390:1478   */\n  iszero\n  tag_62\n  jumpi\n    /* \"#utility.yul\":1458:1476   */\n  tag_63\n  tag_21\n  jump\t// in\ntag_63:\n    /* \"#utility.yul\":1390:1478   */\ntag_62:\n    /* \"#utility.yul\":1498:1508   */\n  dup1\n    /* \"#utility.yul\":1494:1496   */\n  0x40\n    /* \"#utility.yul\":1487:1509   */\n  mstore\n    /* \"#utility.yul\":1277:1515   */\n  pop\n    /* \"#utility.yul\":1234:1515   */\n  pop\n  pop\n  jump\t// out\n    /* \"#utility.yul\":1521:1650   */\ntag_23:\n    /* \"#utility.yul\":1555:1561   */\n  0x00\n    /* \"#utility.yul\":1582:1602   */\n  tag_65\n  tag_12\n  jump\t// in\ntag_65:\n    /* \"#utility.yul\":1572:1602   */\n  swap1\n  pop\n    /* \"#utility.yul\":1611:1644   */\n  tag_66\n    /* \"#utility.yul\":1639:1643   */\n  dup3\n    /* \"#utility.yul\":1631:1637   */\n  dup3\n    /* \"#utility.yul\":1611:1644   */\n  tag_22\n  jump\t// in\ntag_66:\n    /* \"#utility.yul\":1521:1650   */\n  swap2\n  swap1\n  pop\n  jump\t// out\n    /* \"#utility.yul\":1656:1964   */\ntag_24:\n    /* \"#utility.yul\":1718:1722   */\n  0x00\n    /* \"#utility.yul\":1808:1826   */\n  0xffffffffffffffff\n    /* \"#utility.yul\":1800:1806   */\n  dup3\n    /* \"#utility.yul\":1797:1827   */\n  gt\n    /* \"#utility.yul\":1794:1850   */\n  iszero\n  tag_68\n  jumpi\n    /* \"#utility.yul\":1830:1848   */\n  tag_69\n  tag_21\n  jump\t// in\ntag_69:\n    /* \"#utility.yul\":1794:1850   */\ntag_68:\n    /* \"#utility.yul\":1868:1897   */\n  tag_70\n    /* \"#utility.yul\":1890:1896   */\n  dup3\n    /* \"#utility.yul\":1868:1897   */\n  tag_20\n  jump\t// in\ntag_70:\n    /* \"#utility.yul\":1860:1897   */\n  swap1\n  pop\n    /* \"#utility.yul\":1952:1956   */\n  0x20\n    /* \"#utility.yul\":1946:1950   */\n  dup2\n    /* \"#utility.yul\":1942:1957   */\n  add\n    /* \"#utility.yul\":1934:1957   */\n  swap1\n  pop\n    /* \"#utility.yul\":1656:1964   */\n  swap2\n  swap1\n  pop\n  jump\t// out\n    /* \"#utility.yul\":1970:2216   */\ntag_25:\n    /* \"#utility.yul\":2051:2052   */\n  0x00\n    /* \"#utility.yul\":2061:2174   */\ntag_72:\n    /* \"#utility.yul\":2075:2081   */\n  dup4\n    /* \"#utility.yul\":2072:2073   */\n  dup2\n    /* \"#utility.yul\":2069:2082   */\n  lt\n    /* \"#utility.yul\":2061:2174   */\n  iszero\n  tag_74\n  jumpi\n    /* \"#utility.yul\":2160:2161   */\n  dup1\n    /* \"#utility.yul\":2155:2158   */\n  dup3\n    /* \"#utility.yul\":2151:2162   */\n  add\n    /* \"#utility.yul\":2145:2163   */\n  mload\n    /* \"#utility.yul\":2141:2142   */\n  dup2\n    /* \"#utility.yul\":2136:2139   */\n  dup5\n    /* \"#utility.yul\":2132:2143   */\n  add\n    /* \"#utility.yul\":2125:2164   */\n  mstore\n    /* \"#utility.yul\":2097:2099   */\n  0x20\n    /* \"#utility.yul\":2094:2095   */\n  dup2\n    /* \"#utility.yul\":2090:2100   */\n  add\n    /* \"#utility.yul\":2085:2100   */\n  swap1\n  pop\n    /* \"#utility.yul\":2061:2174   */\n  jump(tag_72)\ntag_74:\n    /* \"#utility.yul\":2208:2209   */\n  0x00\n    /* \"#utility.yul\":2199:2205   */\n  dup5\n    /* \"#utility.yul\":2194:2197   */\n  dup5\n    /* \"#utility.yul\":2190:2206   */\n  add\n    /* \"#utility.yul\":2183:2210   */\n  mstore\n    /* \"#utility.yul\":2032:2216   */\n  pop\n    /* \"#utility.yul\":1970:2216   */\n  pop\n  pop\n  pop\n  jump\t// out\n    /* \"#utility.yul\":2222:2656   */\ntag_26:\n    /* \"#utility.yul\":2311:2316   */\n  0x00\n    /* \"#utility.yul\":2336:2402   */\n  tag_76\n    /* \"#utility.yul\":2352:2401   */\n  tag_77\n    /* \"#utility.yul\":2394:2400   */\n  dup5\n    /* \"#utility.yul\":2352:2401   */\n  tag_24\n  jump\t// in\ntag_77:\n    /* \"#utility.yul\":2336:2402   */\n  tag_23\n  jump\t// in\ntag_76:\n    /* \"#utility.yul\":2327:2402   */\n  swap1\n  pop\n    /* \"#utility.yul\":2425:2431   */\n  dup3\n    /* \"#utility.yul\":2418:2423   */\n  dup2\n    /* \"#utility.yul\":2411:2432   */\n  mstore\n    /* \"#utility.yul\":2463:2467   */\n  0x20\n    /* \"#utility.yul\":2456:2461   */\n  dup2\n    /* \"#utility.yul\":2452:2468   */\n  add\n    /* \"#utility.yul\":2501:2504   */\n  dup5\n    /* \"#utility.yul\":2492:2498   */\n  dup5\n    /* \"#utility.yul\":2487:2490   */\n  dup5\n    /* \"#utility.yul\":2483:2499   */\n  add\n    /* \"#utility.yul\":2480:2505   */\n  gt\n    /* \"#utility.yul\":2477:2589   */\n  iszero\n  tag_78\n  jumpi\n    /* \"#utility.yul\":2508:2587   */\n  tag_79\n  tag_19\n  jump\t// in\ntag_79:\n    /* \"#utility.yul\":2477:2589   */\ntag_78:\n    /* \"#utility.yul\":2598:2650   */\n  tag_80\n    /* \"#utility.yul\":2643:2649   */\n  dup5\n    /* \"#utility.yul\":2638:2641   */\n  dup3\n    /* \"#utility.yul\":2633:2636   */\n  dup6\n    /* \"#utility.yul\":2598:2650   */\n  tag_25\n  jump\t// in\ntag_80:\n    /* \"#utility.yul\":2317:2656   */\n  pop\n    /* \"#utility.yul\":2222:2656   */\n  swap4\n  swap3\n  pop\n  pop\n  pop\n  jump\t// out\n    /* \"#utility.yul\":2676:3031   */\ntag_27:\n    /* \"#utility.yul\":2743:2748   */\n  0x00\n    /* \"#utility.yul\":2792:2795   */\n  dup3\n    /* \"#utility.yul\":2785:2789   */\n  0x1f\n    /* \"#utility.yul\":2777:2783   */\n  dup4\n    /* \"#utility.yul\":2773:2790   */\n  add\n    /* \"#utility.yul\":2769:2796   */\n  slt\n    /* \"#utility.yul\":2759:2881   */\n  tag_82\n  jumpi\n    /* \"#utility.yul\":2800:2879   */\n  tag_83\n  tag_18\n  jump\t// in\ntag_83:\n    /* \"#utility.yul\":2759:2881   */\ntag_82:\n    /* \"#utility.yul\":2910:2916   */\n  dup2\n    /* \"#utility.yul\":2904:2917   */\n  mload\n    /* \"#utility.yul\":2935:3025   */\n  tag_84\n    /* \"#utility.yul\":3021:3024   */\n  dup5\n    /* \"#utility.yul\":3013:3019   */\n  dup3\n    /* \"#utility.yul\":3006:3010   */\n  0x20\n    /* \"#utility.yul\":2998:3004   */\n  dup7\n    /* \"#utility.yul\":2994:3011   */\n  add\n    /* \"#utility.yul\":2935:3025   */\n  tag_26\n  jump\t// in\ntag_84:\n    /* \"#utility.yul\":2926:3025   */\n  swap2\n  pop\n    /* \"#utility.yul\":2749:3031   */\n  pop\n    /* \"#utility.yul\":2676:3031   */\n  swap3\n  swap2\n  pop\n  pop\n  jump\t// out\n    /* \"#utility.yul\":3037:3717   */\ntag_3:\n    /* \"#utility.yul\":3126:3132   */\n  0x00\n    /* \"#utility.yul\":3134:3140   */\n  dup1\n    /* \"#utility.yul\":3183:3185   */\n  0x40\n    /* \"#utility.yul\":3171:3180   */\n  dup4\n    /* \"#utility.yul\":3162:3169   */\n  dup6\n    /* \"#utility.yul\":3158:3181   */\n  sub\n    /* \"#utility.yul\":3154:3186   */\n  slt\n    /* \"#utility.yul\":3151:3270   */\n  iszero\n  tag_86\n  jumpi\n    /* \"#utility.yul\":3189:3268   */\n  tag_87\n  tag_13\n  jump\t// in\ntag_87:\n    /* \"#utility.yul\":3151:3270   */\ntag_86:\n    /* \"#utility.yul\":3309:3310   */\n  0x00\n    /* \"#utility.yul\":3334:3398   */\n  tag_88\n    /* \"#utility.yul\":3390:3397   */\n  dup6\n    /* \"#utility.yul\":3381:3387   */\n  dup3\n    /* \"#utility.yul\":3370:3379   */\n  dup7\n    /* \"#utility.yul\":3366:3388   */\n  add\n    /* \"#utility.yul\":3334:3398   */\n  tag_17\n  jump\t// in\ntag_88:\n    /* \"#utility.yul\":3324:3398   */\n  swap3\n  pop\n    /* \"#utility.yul\":3280:3408   */\n  pop\n    /* \"#utility.yul\":3468:3470   */\n  0x20\n    /* \"#utility.yul\":3457:3466   */\n  dup4\n    /* \"#utility.yul\":3453:3471   */\n  add\n    /* \"#utility.yul\":3447:3472   */\n  mload\n    /* \"#utility.yul\":3499:3517   */\n  0xffffffffffffffff\n    /* \"#utility.yul\":3491:3497   */\n  dup2\n    /* \"#utility.yul\":3488:3518   */\n  gt\n    /* \"#utility.yul\":3485:3602   */\n  iszero\n  tag_89\n  jumpi\n    /* \"#utility.yul\":3521:3600   */\n  tag_90\n  tag_14\n  jump\t// in\ntag_90:\n    /* \"#utility.yul\":3485:3602   */\ntag_89:\n    /* \"#utility.yul\":3626:3700   */\n  tag_91\n    /* \"#utility.yul\":3692:3699   */\n  dup6\n    /* \"#utility.yul\":3683:3689   */\n  dup3\n    /* \"#utility.yul\":3672:3681   */\n  dup7\n    /* \"#utility.yul\":3668:3690   */\n  add\n    /* \"#utility.yul\":3626:3700   */\n  tag_27\n  jump\t// in\ntag_91:\n    /* \"#utility.yul\":3616:3700   */\n  swap2\n  pop\n    /* \"#utility.yul\":3418:3710   */\n  pop\n    /* \"#utility.yul\":3037:3717   */\n  swap3\n  pop\n  swap3\n  swap1\n  pop\n  jump\t// out\n    /* \"#utility.yul\":3723:3903   */\ntag_8:\n    /* \"#utility.yul\":3771:3848   */\n  0x4e487b7100000000000000000000000000000000000000000000000000000000\n    /* \"#utility.yul\":3768:3769   */\n  0x00\n    /* \"#utility.yul\":3761:3849   */\n  mstore\n    /* \"#utility.yul\":3868:3872   */\n  0x21\n    /* \"#utility.yul\":3865:3866   */\n  0x04\n    /* \"#utility.yul\":3858:3873   */\n  mstore\n    /* \"#utility.yul\":3892:3896   */\n  0x24\n    /* \"#utility.yul\":3889:3890   */\n  0x00\n    /* \"#utility.yul\":3882:3897   */\n  revert\n    /* \"#utility.yul\":3909:4008   */\ntag_28:\n    /* \"#utility.yul\":3961:3967   */\n  0x00\n    /* \"#utility.yul\":3995:4000   */\n  dup2\n    /* \"#utility.yul\":3989:4001   */\n  mload\n    /* \"#utility.yul\":3979:4001   */\n  swap1\n  pop\n    /* \"#utility.yul\":3909:4008   */\n  swap2\n  swap1\n  pop\n  jump\t// out\n    /* \"#utility.yul\":4014:4194   */\ntag_29:\n    /* \"#utility.yul\":4062:4139   */\n  0x4e487b7100000000000000000000000000000000000000000000000000000000\n    /* \"#utility.yul\":4059:4060   */\n  0x00\n    /* \"#utility.yul\":4052:4140   */\n  mstore\n    /* \"#utility.yul\":4159:4163   */\n  0x22\n    /* \"#utility.yul\":4156:4157   */\n  0x04\n    /* \"#utility.yul\":4149:4164   */\n  mstore\n    /* \"#utility.yul\":4183:4187   */\n  0x24\n    /* \"#utility.yul\":4180:4181   */\n  0x00\n    /* \"#utility.yul\":4173:4188   */\n  revert\n    /* \"#utility.yul\":4200:4520   */\ntag_30:\n    /* \"#utility.yul\":4244:4250   */\n  0x00\n    /* \"#utility.yul\":4281:4282   */\n  0x02\n    /* \"#utility.yul\":4275:4279   */\n  dup3\n    /* \"#utility.yul\":4271:4283   */\n  div\n    /* \"#utility.yul\":4261:4283   */\n  swap1\n  pop\n    /* \"#utility.yul\":4328:4329   */\n  0x01\n    /* \"#utility.yul\":4322:4326   */\n  dup3\n    /* \"#utility.yul\":4318:4330   */\n  and\n    /* \"#utility.yul\":4349:4367   */\n  dup1\n    /* \"#utility.yul\":4339:4420   */\n  tag_96\n  jumpi\n    /* \"#utility.yul\":4405:4409   */\n  0x7f\n    /* \"#utility.yul\":4397:4403   */\n  dup3\n    /* \"#utility.yul\":4393:4410   */\n  and\n    /* \"#utility.yul\":4383:4410   */\n  swap2\n  pop\n    /* \"#utility.yul\":4339:4420   */\ntag_96:\n    /* \"#utility.yul\":4467:4469   */\n  0x20\n    /* \"#utility.yul\":4459:4465   */\n  dup3\n    /* \"#utility.yul\":4456:4470   */\n  lt\n    /* \"#utility.yul\":4436:4454   */\n  dup2\n    /* \"#utility.yul\":4433:4471   */\n  sub\n    /* \"#utility.yul\":4430:4514   */\n  tag_97\n  jumpi\n    /* \"#utility.yul\":4486:4504   */\n  tag_98\n  tag_29\n  jump\t// in\ntag_98:\n    /* \"#utility.yul\":4430:4514   */\ntag_97:\n    /* \"#utility.yul\":4251:4520   */\n  pop\n    /* \"#utility.yul\":4200:4520   */\n  swap2\n  swap1\n  pop\n  jump\t// out\n    /* \"#utility.yul\":4526:4667   */\ntag_31:\n    /* \"#utility.yul\":4575:4579   */\n  0x00\n    /* \"#utility.yul\":4598:4601   */\n  dup2\n    /* \"#utility.yul\":4590:4601   */\n  swap1\n  pop\n    /* \"#utility.yul\":4621:4624   */\n  dup2\n    /* \"#utility.yul\":4618:4619   */\n  0x00\n    /* \"#utility.yul\":4611:4625   */\n  mstore\n    /* \"#utility.yul\":4655:4659   */\n  0x20\n    /* \"#utility.yul\":4652:4653   */\n  0x00\n    /* \"#utility.yul\":4642:4660   */\n  keccak256\n    /* \"#utility.yul\":4634:4660   */\n  swap1\n  pop\n    /* \"#utility.yul\":4526:4667   */\n  swap2\n  swap1\n  pop\n  jump\t// out\n    /* \"#utility.yul\":4673:4766   */\ntag_32:\n    /* \"#utility.yul\":4710:4716   */\n  0x00\n    /* \"#utility.yul\":4757:4759   */\n  0x20\n    /* \"#utility.yul\":4752:4754   */\n  0x1f\n    /* \"#utility.yul\":4745:4750   */\n  dup4\n    /* \"#utility.yul\":4741:4755   */\n  add\n    /* \"#utility.yul\":4737:4760   */\n  div\n    /* \"#utility.yul\":4727:4760   */\n  swap1\n  pop\n    /* \"#utility.yul\":4673:4766   */\n  swap2\n  swap1\n  pop\n  jump\t// out\n    /* \"#utility.yul\":4772:4879   */\ntag_33:\n    /* \"#utility.yul\":4816:4824   */\n  0x00\n    /* \"#utility.yul\":4866:4871   */\n  dup3\n    /* \"#utility.yul\":4860:4864   */\n  dup3\n    /* \"#utility.yul\":4856:4872   */\n  shl\n    /* \"#utility.yul\":4835:4872   */\n  swap1\n  pop\n    /* \"#utility.yul\":4772:4879   */\n  swap3\n  swap2\n  pop\n  pop\n  jump\t// out\n    /* \"#utility.yul\":4885:5278   */\ntag_34:\n    /* \"#utility.yul\":4954:4960   */\n  0x00\n    /* \"#utility.yul\":5004:5005   */\n  0x08\n    /* \"#utility.yul\":4992:5002   */\n  dup4\n    /* \"#utility.yul\":4988:5006   */\n  mul\n    /* \"#utility.yul\":5027:5124   */\n  tag_103\n    /* \"#utility.yul\":5057:5123   */\n  0xffffffffffffffffffffffffffffffffffffffffffffffffffffffffffffffff\n    /* \"#utility.yul\":5046:5055   */\n  dup3\n    /* \"#utility.yul\":5027:5124   */\n  tag_33\n  jump\t// in\ntag_103:\n    /* \"#utility.yul\":5145:5184   */\n  tag_104\n    /* \"#utility.yul\":5175:5183   */\n  dup7\n    /* \"#utility.yul\":5164:5173   */\n  dup4\n    /* \"#utility.yul\":5145:5184   */\n  tag_33\n  jump\t// in\ntag_104:\n    /* \"#utility.yul\":5133:5184   */\n  swap6\n  pop\n    /* \"#utility.yul\":5217:5221   */\n  dup1\n    /* \"#utility.yul\":5213:5222   */\n  not\n    /* \"#utility.yul\":5206:5211   */\n  dup5\n    /* \"#utility.yul\":5202:5223   */\n  and\n    /* \"#utility.yul\":5193:5223   */\n  swap4\n  pop\n    /* \"#utility.yul\":5266:5270   */\n  dup1\n    /* \"#utility.yul\":5256:5264   */\n  dup7\n    /* \"#utility.yul\":5252:5271   */\n  and\n    /* \"#utility.yul\":5245:5250   */\n  dup5\n    /* \"#utility.yul\":5242:5272   */\n  or\n    /* \"#utility.yul\":5232:5272   */\n  swap3\n  pop\n    /* \"#utility.yul\":4961:5278   */\n  pop\n  pop\n    /* \"#utility.yul\":4885:5278   */\n  swap4\n  swap3\n  pop\n  pop\n  pop\n  jump\t// out\n    /* \"#utility.yul\":5284:5344   */\ntag_35:\n    /* \"#utility.yul\":5312:5315   */\n  0x00\n    /* \"#utility.yul\":5333:5338   */\n  dup2\n    /* \"#utility.yul\":5326:5338   */\n  swap1\n  pop\n    /* \"#utility.yul\":5284:5344   */\n  swap2\n  swap1\n  pop\n  jump\t// out\n    /* \"#utility.yul\":5350:5492   */\ntag_36:\n    /* \"#utility.yul\":5400:5409   */\n  0x00\n    /* \"#utility.yul\":5433:5486   */\n  tag_107\n    /* \"#utility.yul\":5451:5485   */\n  tag_108\n    /* \"#utility.yul\":5460:5484   */\n  tag_109\n    /* \"#utility.yul\":5478:5483   */\n  dup5\n    /* \"#utility.yul\":5460:5484   */\n  tag_15\n  jump\t// in\ntag_109:\n    /* \"#utility.yul\":5451:5485   */\n  tag_35\n  jump\t// in\ntag_108:\n    /* \"#utility.yul\":5433:5486   */\n  tag_15\n  jump\t// in\ntag_107:\n    /* \"#utility.yul\":5420:5486   */\n  swap1\n  pop\n    /* \"#utility.yul\":5350:5492   */\n  swap2\n  swap1\n  pop\n  jump\t// out\n    /* \"#utility.yul\":5498:5573   */\ntag_37:\n    /* \"#utility.yul\":5541:5544   */\n  0x00\n    /* \"#utility.yul\":5562:5567   */\n  dup2\n    /* \"#utility.yul\":5555:5567   */\n  swap1\n  pop\n    /* \"#utility.yul\":5498:5573   */\n  swap2\n  swap1\n  pop\n  jump\t// out\n    /* \"#utility.yul\":5579:5848   */\ntag_38:\n    /* \"#utility.yul\":5689:5728   */\n  tag_112\n    /* \"#utility.yul\":5720:5727   */\n  dup4\n    /* \"#utility.yul\":5689:5728   */\n  tag_36\n  jump\t// in\ntag_112:\n    /* \"#utility.yul\":5750:5841   */\n  tag_113\n    /* \"#utility.yul\":5799:5840   */\n  tag_114\n    /* \"#utility.yul\":5823:5839   */\n  dup3\n    /* \"#utility.yul\":5799:5840   */\n  tag_37\n  jump\t// in\ntag_114:\n    /* \"#utility.yul\":5791:5797   */\n  dup5\n    /* \"#utility.yul\":5784:5788   */\n  dup5\n    /* \"#utility.yul\":5778:5789   */\n  sload\n    /* \"#utility.yul\":5750:5841   */\n  tag_34\n  jump\t// in\ntag_113:\n    /* \"#utility.yul\":5744:5748   */\n  dup3\n    /* \"#utility.yul\":5737:5842   */\n  sstore\n    /* \"#utility.yul\":5655:5848   */\n  pop\n    /* \"#utility.yul\":5579:5848   */\n  pop\n  pop\n  pop\n  jump\t// out\n    /* \"#utility.yul\":5854:5927   */\ntag_39:\n    /* \"#utility.yul\":5899:5902   */\n  0x00\n    /* \"#utility.yul\":5854:5927   */\n  swap1\n  jump\t// out\n    /* \"#utility.yul\":5933:6122   */\ntag_40:\n    /* \"#utility.yul\":6010:6042   */\n  tag_117\n  tag_39\n  jump\t// in\ntag_117:\n    /* \"#utility.yul\":6051:6116   */\n  tag_118\n    /* \"#utility.yul\":6109:6115   */\n  dup2\n    /* \"#utility.yul\":6101:6107   */\n  dup5\n    /* \"#utility.yul\":6095:6099   */\n  dup5\n    /* \"#utility.yul\":6051:6116   */\n  tag_38\n  jump\t// in\ntag_118:\n    /* \"#utility.yul\":5986:6122   */\n  pop\n    /* \"#utility.yul\":5933:6122   */\n  pop\n  pop\n  jump\t// out\n    /* \"#utility.yul\":6128:6314   */\ntag_41:\n    /* \"#utility.yul\":6188:6308   */\ntag_120:\n    /* \"#utility.yul\":6205:6208   */\n  dup2\n    /* \"#utility.yul\":6198:6203   */\n  dup2\n    /* \"#utility.yul\":6195:6209   */\n  lt\n    /* \"#utility.yul\":6188:6308   */\n  iszero\n  tag_122\n  jumpi\n    /* \"#utility.yul\":6259:6298   */\n  tag_123\n    /* \"#utility.yul\":6296:6297   */\n  0x00\n    /* \"#utility.yul\":6289:6294   */\n  dup3\n    /* \"#utility.yul\":6259:6298   */\n  tag_40\n  jump\t// in\ntag_123:\n    /* \"#utility.yul\":6232:6233   */\n  0x01\n    /* \"#utility.yul\":6225:6230   */\n  dup2\n    /* \"#utility.yul\":6221:6234   */\n  add\n    /* \"#utility.yul\":6212:6234   */\n  swap1\n  pop\n    /* \"#utility.yul\":6188:6308   */\n  jump(tag_120)\ntag_122:\n    /* \"#utility.yul\":6128:6314   */\n  pop\n  pop\n  jump\t// out\n    /* \"#utility.yul\":6320:6863   */\ntag_42:\n    /* \"#utility.yul\":6421:6423   */\n  0x1f\n    /* \"#utility.yul\":6416:6419   */\n  dup3\n    /* \"#utility.yul\":6413:6424   */\n  gt\n    /* \"#utility.yul\":6410:6856   */\n  iszero\n  tag_125\n  jumpi\n    /* \"#utility.yul\":6455:6493   */\n  tag_126\n    /* \"#utility.yul\":6487:6492   */\n  dup2\n    /* \"#utility.yul\":6455:6493   */\n  tag_31\n  jump\t// in\ntag_126:\n    /* \"#utility.yul\":6539:6568   */\n  tag_127\n    /* \"#utility.yul\":6557:6567   */\n  dup5\n    /* \"#utility.yul\":6539:6568   */\n  tag_32\n  jump\t// in\ntag_127:\n    /* \"#utility.yul\":6529:6537   */\n  dup2\n    /* \"#utility.yul\":6525:6569   */\n  add\n    /* \"#utility.yul\":6722:6724   */\n  0x20\n    /* \"#utility.yul\":6710:6720   */\n  dup6\n    /* \"#utility.yul\":6707:6725   */\n  lt\n    /* \"#utility.yul\":6704:6753   */\n  iszero\n  tag_128\n  jumpi\n    /* \"#utility.yul\":6743:6751   */\n  dup2\n    /* \"#utility.yul\":6728:6751   */\n  swap1\n  pop\n    /* \"#utility.yul\":6704:6753   */\ntag_128:\n    /* \"#utility.yul\":6766:6846   */\n  tag_129\n    /* \"#utility.yul\":6822:6844   */\n  tag_130\n    /* \"#utility.yul\":6840:6843   */\n  dup6\n    /* \"#utility.yul\":6822:6844   */\n  tag_32\n  jump\t// in\ntag_130:\n    /* \"#utility.yul\":6812:6820   */\n  dup4\n    /* \"#utility.yul\":6808:6845   */\n  add\n    /* \"#utility.yul\":6795:6806   */\n  dup3\n    /* \"#utility.yul\":6766:6846   */\n  tag_41\n  jump\t// in\ntag_129:\n    /* \"#utility.yul\":6425:6856   */\n  pop\n  pop\n    /* \"#utility.yul\":6410:6856   */\ntag_125:\n    /* \"#utility.yul\":6320:6863   */\n  pop\n  pop\n  pop\n  jump\t// out\n    /* \"#utility.yul\":6869:6986   */\ntag_43:\n    /* \"#utility.yul\":6923:6931   */\n  0x00\n    /* \"#utility.yul\":6973:6978   */\n  dup3\n    /* \"#utility.yul\":6967:6971   */\n  dup3\n    /* \"#utility.yul\":6963:6979   */\n  shr\n    /* \"#utility.yul\":6942:6979   */\n  swap1\n  pop\n    /* \"#utility.yul\":6869:6986   */\n  swap3\n  swap2\n  pop\n  pop\n  jump\t// out\n    /* \"#utility.yul\":6992:7161   */\ntag_44:\n    /* \"#utility.yul\":7036:7042   */\n  0x00\n    /* \"#utility.yul\":7069:7120   */\n  tag_133\n    /* \"#utility.yul\":7117:7118   */\n  0x00\n    /* \"#utility.yul\":7113:7119   */\n  not\n    /* \"#utility.yul\":7105:7110   */\n  dup5\n    /* \"#utility.yul\":7102:7103   */\n  0x08\n    /* \"#utility.yul\":7098:7111   */\n  mul\n    /* \"#utility.yul\":7069:7120   */\n  tag_43\n  jump\t// in\ntag_133:\n    /* \"#utility.yul\":7065:7121   */\n  not\n    /* \"#utility.yul\":7150:7154   */\n  dup1\n    /* \"#utility.yul\":7144:7148   */\n  dup4\n    /* \"#utility.yul\":7140:7155   */\n  and\n    /* \"#utility.yul\":7130:7155   */\n  swap2\n  pop\n    /* \"#utility.yul\":7043:7161   */\n  pop\n    /* \"#utility.yul\":6992:7161   */\n  swap3\n  swap2\n  pop\n  pop\n  jump\t// out\n    /* \"#utility.yul\":7166:7461   */\ntag_45:\n    /* \"#utility.yul\":7242:7246   */\n  0x00\n    /* \"#utility.yul\":7388:7417   */\n  tag_135\n    /* \"#utility.yul\":7413:7416   */\n  dup4\n    /* \"#utility.yul\":7407:7411   */\n  dup4\n    /* \"#utility.yul\":7388:7417   */\n  tag_44\n  jump\t// in\ntag_135:\n    /* \"#utility.yul\":7380:7417   */\n  swap2\n  pop\n    /* \"#utility.yul\":7450:7453   */\n  dup3\n    /* \"#utility.yul\":7447:7448   */\n  0x02\n    /* \"#utility.yul\":7443:7454   */\n  mul\n    /* \"#utility.yul\":7437:7441   */\n  dup3\n    /* \"#utility.yul\":7434:7455   */\n  or\n    /* \"#utility.yul\":7426:7455   */\n  swap1\n  pop\n    /* \"#utility.yul\":7166:7461   */\n  swap3\n  swap2\n  pop\n  pop\n  jump\t// out\n    /* \"#utility.yul\":7466:8861   */\ntag_10:\n    /* \"#utility.yul\":7583:7620   */\n  tag_137\n    /* \"#utility.yul\":7616:7619   */\n  dup3\n    /* \"#utility.yul\":7583:7620   */\n  tag_28\n  jump\t// in\ntag_137:\n    /* \"#utility.yul\":7685:7703   */\n  0xffffffffffffffff\n    /* \"#utility.yul\":7677:7683   */\n  dup2\n    /* \"#utility.yul\":7674:7704   */\n  gt\n    /* \"#utility.yul\":7671:7727   */\n  iszero\n  tag_138\n  jumpi\n    /* \"#utility.yul\":7707:7725   */\n  tag_139\n  tag_21\n  jump\t// in\ntag_139:\n    /* \"#utility.yul\":7671:7727   */\ntag_138:\n    /* \"#utility.yul\":7751:7789   */\n  tag_140\n    /* \"#utility.yul\":7783:7787   */\n  dup3\n    /* \"#utility.yul\":7777:7788   */\n  sload\n    /* \"#utility.yul\":7751:7789   */\n  tag_30\n  jump\t// in\ntag_140:\n    /* \"#utility.yul\":7836:7903   */\n  tag_141\n    /* \"#utility.yul\":7896:7902   */\n  dup3\n    /* \"#utility.yul\":7888:7894   */\n  dup3\n    /* \"#utility.yul\":7882:7886   */\n  dup6\n    /* \"#utility.yul\":7836:7903   */\n  tag_42\n  jump\t// in\ntag_141:\n    /* \"#utility.yul\":7930:7931   */\n  0x00\n    /* \"#utility.yul\":7954:7958   */\n  0x20\n    /* \"#utility.yul\":7941:7958   */\n  swap1\n  pop\n    /* \"#utility.yul\":7986:7988   */\n  0x1f\n    /* \"#utility.yul\":7978:7984   */\n  dup4\n    /* \"#utility.yul\":7975:7989   */\n  gt\n    /* \"#utility.yul\":8003:8004   */\n  0x01\n    /* \"#utility.yul\":7998:8616   */\n  dup2\n  eq\n  tag_143\n  jumpi\n    /* \"#utility.yul\":8660:8661   */\n  0x00\n    /* \"#utility.yul\":8677:8683   */\n  dup5\n    /* \"#utility.yul\":8674:8751   */\n  iszero\n  tag_144\n  jumpi\n    /* \"#utility.yul\":8726:8735   */\n  dup3\n    /* \"#utility.yul\":8721:8724   */\n  dup8\n    /* \"#utility.yul\":8717:8736   */\n  add\n    /* \"#utility.yul\":8711:8737   */\n  mload\n    /* \"#utility.yul\":8702:8737   */\n  swap1\n  pop\n    /* \"#utility.yul\":8674:8751   */\ntag_144:\n    /* \"#utility.yul\":8777:8844   */\n  tag_145\n    /* \"#utility.yul\":8837:8843   */\n  dup6\n    /* \"#utility.yul\":8830:8835   */\n  dup3\n    /* \"#utility.yul\":8777:8844   */\n  tag_45\n  jump\t// in\ntag_145:\n    /* \"#utility.yul\":8771:8775   */\n  dup7\n    /* \"#utility.yul\":8764:8845   */\n  sstore\n    /* \"#utility.yul\":8633:8855   */\n  pop\n    /* \"#utility.yul\":7968:8855   */\n  jump(tag_142)\n    /* \"#utility.yul\":7998:8616   */\ntag_143:\n    /* \"#utility.yul\":8050:8054   */\n  0x1f\n    /* \"#utility.yul\":8046:8055   */\n  not\n    /* \"#utility.yul\":8038:8044   */\n  dup5\n    /* \"#utility.yul\":8034:8056   */\n  and\n    /* \"#utility.yul\":8084:8121   */\n  tag_146\n    /* \"#utility.yul\":8116:8120   */\n  dup7\n    /* \"#utility.yul\":8084:8121   */\n  tag_31\n  jump\t// in\ntag_146:\n    /* \"#utility.yul\":8143:8144   */\n  0x00\n    /* \"#utility.yul\":8157:8365   */\ntag_147:\n    /* \"#utility.yul\":8171:8178   */\n  dup3\n    /* \"#utility.yul\":8168:8169   */\n  dup2\n    /* \"#utility.yul\":8165:8179   */\n  lt\n    /* \"#utility.yul\":8157:8365   */\n  iszero\n  tag_149\n  jumpi\n    /* \"#utility.yul\":8250:8259   */\n  dup5\n    /* \"#utility.yul\":8245:8248   */\n  dup10\n    /* \"#utility.yul\":8241:8260   */\n  add\n    /* \"#utility.yul\":8235:8261   */\n  mload\n    /* \"#utility.yul\":8227:8233   */\n  dup3\n    /* \"#utility.yul\":8220:8262   */\n  sstore\n    /* \"#utility.yul\":8301:8302   */\n  0x01\n    /* \"#utility.yul\":8293:8299   */\n  dup3\n    /* \"#utility.yul\":8289:8303   */\n  add\n    /* \"#utility.yul\":8279:8303   */\n  swap2\n  pop\n    /* \"#utility.yul\":8348:8350   */\n  0x20\n    /* \"#utility.yul\":8337:8346   */\n  dup6\n    /* \"#utility.yul\":8333:8351   */\n  add\n    /* \"#utility.yul\":8320:8351   */\n  swap5\n  pop\n    /* \"#utility.yul\":8194:8198   */\n  0x20\n    /* \"#utility.yul\":8191:8192   */\n  dup2\n    /* \"#utility.yul\":8187:8199   */\n  add\n    /* \"#utility.yul\":8182:8199   */\n  swap1\n  pop\n    /* \"#utility.yul\":8157:8365   */\n  jump(tag_147)\ntag_149:\n    /* \"#utility.yul\":8393:8399   */\n  dup7\n    /* \"#utility.yul\":8384:8391   */\n  dup4\n    /* \"#utility.yul\":8381:8400   */\n  lt\n    /* \"#utility.yul\":8378:8557   */\n  iszero\n  tag_150\n  jumpi\n    /* \"#utility.yul\":8451:8460   */\n  dup5\n    /* \"#utility.yul\":8446:8449   */\n  dup10\n    /* \"#utility.yul\":8442:8461   */\n  add\n    /* \"#utility.yul\":8436:8462   */\n  mload\n    /* \"#utility.yul\":8494:8542   */\n  tag_151\n    /* \"#utility.yul\":8536:8540   */\n  0x1f\n    /* \"#utility.yul\":8528:8534   */\n  dup10\n    /* \"#utility.yul\":8524:8541   */\n  and\n    /* \"#utility.yul\":8513:8522   */\n  dup3\n    /* \"#utility.yul\":8494:8542   */\n  tag_44\n  jump\t// in\ntag_151:\n    /* \"#utility.yul\":8486:8492   */\n  dup4\n    /* \"#utility.yul\":8479:8543   */\n  sstore\n    /* \"#utility.yul\":8401:8557   */\n  pop\n    /* \"#utility.yul\":8378:8557   */\ntag_150:\n    /* \"#utility.yul\":8603:8604   */\n  0x01\n    /* \"#utility.yul\":8599:8600   */\n  0x02\n    /* \"#utility.yul\":8591:8597   */\n  dup9\n    /* \"#utility.yul\":8587:8601   */\n  mul\n    /* \"#utility.yul\":8583:8605   */\n  add\n    /* \"#utility.yul\":8577:8581   */\n  dup9\n    /* \"#utility.yul\":8570:8606   */\n  sstore\n    /* \"#utility.yul\":8005:8616   */\n  pop\n  pop\n  pop\n    /* \"#utility.yul\":7968:8855   */\ntag_142:\n  pop\n    /* \"#utility.yul\":7558:8861   */\n  pop\n  pop\n  pop\n    /* \"#utility.yul\":7466:8861   */\n  pop\n  pop\n  jump\t// out\n    /* \"Lincloud/.deps/contract/contract2.sol\":61:6532  contract user_contract... */\ntag_11:\n  dataSize(sub_0)\n  dup1\n  dataOffset(sub_0)\n  0x00\n  codecopy\n  0x00\n  return\nstop\n\nsub_0: assembly {\n        /* \"Lincloud/.deps/contract/contract2.sol\":61:6532  contract user_contract... */\n      mstore(0x40, 0x80)\n      callvalue\n      dup1\n      iszero\n      tag_1\n      jumpi\n      0x00\n      dup1\n      revert\n    tag_1:\n      pop\n      jumpi(tag_2, lt(calldatasize, 0x04))\n      shr(0xe0, calldataload(0x00))\n      dup1\n      0x8901ada7\n      gt\n      tag_22\n      jumpi\n      dup1\n      0xac3ef22d\n      gt\n      tag_23\n      jumpi\n      dup1\n      0xac3ef22d\n      eq\n      tag_17\n      jumpi\n      dup1\n      0xb74513c1\n      eq\n      tag_18\n      jumpi\n      dup1\n      0xcc203155\n      eq\n      tag_19\n      jumpi\n      dup1\n      0xe5a72d5b\n      eq\n      tag_20\n      jumpi\n      dup1\n      0xfc68b3ed\n      eq\n      tag_21\n      jumpi\n      jump(tag_2)\n    tag_23:\n      dup1\n      0x8901ada7\n      eq\n      tag_12\n      jumpi\n      dup1\n      0x8da5cb5b\n      eq\n      tag_13\n      jumpi\n      dup1\n      0x904c6094\n      eq\n      tag_14\n      jumpi\n      dup1\n      0x98beaa4c\n      eq\n      tag_15\n      jumpi\n      dup1\n      0xabcc7a65\n      eq\n      tag_16\n      jumpi\n      jump(tag_2)\n    tag_22:\n      dup1\n      0x58975919\n      gt\n      tag_24\n      jumpi\n      dup1\n      0x58975919\n      eq\n      tag_7\n      jumpi\n      dup1\n      0x65a6bb29\n      eq\n      tag_8\n      jumpi\n      dup1\n      0x7f4e4849\n      eq\n      tag_9\n      jumpi\n      dup1\n      0x84731d6f\n      eq\n      tag_10\n      jumpi\n      dup1\n      0x8594c127\n      eq\n      tag_11\n      jumpi\n      jump(tag_2)\n    tag_24:\n      dup1\n      0x35254bcd\n      eq\n      tag_3\n      jumpi\n      dup1\n      0x38fcbc01\n      eq\n      tag_4\n      jumpi\n      dup1\n      0x42be8cb5\n      eq\n      tag_5\n      jumpi\n      dup1\n      0x499ba0aa\n      eq\n      tag_6\n      jumpi\n    tag_2:\n      0x00\n      dup1\n      revert\n        /* \"Lincloud/.deps/contract/contract2.sol\":3529:3869  function closeUserContract() external {... */\n    tag_3:\n      tag_25\n      tag_26\n      jump\t// in\n    tag_25:\n      stop\n        /* \"Lincloud/.deps/contract/contract2.sol\":2668:3521  function setRecipientResponse(uint256 recipientId, bool isAccepted, bool isTimeExpired) external {... */\n    tag_4:\n      tag_27\n      0x04\n      dup1\n      calldatasize\n      sub\n      dup2\n      add\n      swap1\n      tag_28\n      swap2\n      swap1\n      tag_29\n      jump\t// in\n    tag_28:\n      tag_30\n      jump\t// in\n    tag_27:\n      stop\n        /* \"Lincloud/.deps/contract/contract2.sol\":355:383  Oracle[] public oracles_list */\n    tag_5:\n      tag_31\n      0x04\n      dup1\n      calldatasize\n      sub\n      dup2\n      add\n      swap1\n      tag_32\n      swap2\n      swap1\n      tag_33\n      jump\t// in\n    tag_32:\n      tag_34\n      jump\t// in\n    tag_31:\n      mload(0x40)\n      tag_35\n      swap2\n      swap1\n      tag_36\n      jump\t// in\n    tag_35:\n      mload(0x40)\n      dup1\n      swap2\n      sub\n      swap1\n      return\n        /* \"Lincloud/.deps/contract/contract2.sol\":314:348  Recipient[] public recipients_list */\n    tag_6:\n      tag_37\n      0x04\n      dup1\n      calldatasize\n      sub\n      dup2\n      add\n      swap1\n      tag_38\n      swap2\n      swap1\n      tag_33\n      jump\t// in\n    tag_38:\n      tag_39\n      jump\t// in\n    tag_37:\n      mload(0x40)\n      tag_40\n      swap6\n      swap5\n      swap4\n      swap3\n      swap2\n      swap1\n      tag_41\n      jump\t// in\n    tag_40:\n      mload(0x40)\n      dup1\n      swap2\n      sub\n      swap1\n      return\n        /* \"Lincloud/.deps/contract/contract2.sol\":119:140  uint256 public userId */\n    tag_7:\n      tag_42\n      tag_43\n      jump\t// in\n    tag_42:\n      mload(0x40)\n      tag_44\n      swap2\n      swap1\n      tag_36\n      jump\t// in\n    tag_44:\n      mload(0x40)\n      dup1\n      swap2\n      sub\n      swap1\n      return\n        /* \"Lincloud/.deps/contract/contract2.sol\":4265:4606  function getAllOracles() public view returns (uint256[] memory){... */\n    tag_8:\n      tag_45\n      tag_46\n      jump\t// in\n    tag_45:\n      mload(0x40)\n      tag_47\n      swap2\n      swap1\n      tag_48\n      jump\t// in\n    tag_47:\n      mload(0x40)\n      dup1\n      swap2\n      sub\n      swap1\n      return\n        /* \"Lincloud/.deps/contract/contract2.sol\":6278:6529  function getContractState() public view returns(string memory){... */\n    tag_9:\n      tag_49\n      tag_50\n      jump\t// in\n    tag_49:\n      mload(0x40)\n      tag_51\n      swap2\n      swap1\n      tag_52\n      jump\t// in\n    tag_51:\n      mload(0x40)\n      dup1\n      swap2\n      sub\n      swap1\n      return\n        /* \"Lincloud/.deps/contract/contract2.sol\":272:307  user_state public actual_user_state */\n    tag_10:\n      tag_53\n      tag_54\n      jump\t// in\n    tag_53:\n      mload(0x40)\n      tag_55\n      swap2\n      swap1\n      tag_56\n      jump\t// in\n    tag_55:\n      mload(0x40)\n      dup1\n      swap2\n      sub\n      swap1\n      return\n        /* \"Lincloud/.deps/contract/contract2.sol\":4614:4863  function getUserState() public view returns (string memory){... */\n    tag_11:\n      tag_57\n      tag_58\n      jump\t// in\n    tag_57:\n      mload(0x40)\n      tag_59\n      swap2\n      swap1\n      tag_52\n      jump\t// in\n    tag_59:\n      mload(0x40)\n      dup1\n      swap2\n      sub\n      swap1\n      return\n        /* \"Lincloud/.deps/contract/contract2.sol\":5302:6270  function getRecipientResponse(uint256 recipientId) public view returns(string memory){... */\n    tag_12:\n      tag_60\n      0x04\n      dup1\n      calldatasize\n      sub\n      dup2\n      add\n      swap1\n      tag_61\n      swap2\n      swap1\n      tag_33\n      jump\t// in\n    tag_61:\n      tag_62\n      jump\t// in\n    tag_60:\n      mload(0x40)\n      tag_63\n      swap2\n      swap1\n      tag_52\n      jump\t// in\n    tag_63:\n      mload(0x40)\n      dup1\n      swap2\n      sub\n      swap1\n      return\n        /* \"Lincloud/.deps/contract/contract2.sol\":92:112  address public owner */\n    tag_13:\n      tag_64\n      tag_65\n      jump\t// in\n    tag_64:\n      mload(0x40)\n      tag_66\n      swap2\n      swap1\n      tag_67\n      jump\t// in\n    tag_66:\n      mload(0x40)\n      dup1\n      swap2\n      sub\n      swap1\n      return\n        /* \"Lincloud/.deps/contract/contract2.sol\":147:173  string public contractHash */\n    tag_14:\n      tag_68\n      tag_69\n      jump\t// in\n    tag_68:\n      mload(0x40)\n      tag_70\n      swap2\n      swap1\n      tag_52\n      jump\t// in\n    tag_70:\n      mload(0x40)\n      dup1\n      swap2\n      sub\n      swap1\n      return\n        /* \"Lincloud/.deps/contract/contract2.sol\":2089:2660  function setRecipientTimeStamp(uint256 recipientId, string memory time, string memory date) external {... */\n    tag_15:\n      tag_71\n      0x04\n      dup1\n      calldatasize\n      sub\n      dup2\n      add\n      swap1\n      tag_72\n      swap2\n      swap1\n      tag_73\n      jump\t// in\n    tag_72:\n      tag_74\n      jump\t// in\n    tag_71:\n      stop\n        /* \"Lincloud/.deps/contract/contract2.sol\":180:208  bool public isContractClosed */\n    tag_16:\n      tag_75\n      tag_76\n      jump\t// in\n    tag_75:\n      mload(0x40)\n      tag_77\n      swap2\n      swap1\n      tag_78\n      jump\t// in\n    tag_77:\n      mload(0x40)\n      dup1\n      swap2\n      sub\n      swap1\n      return\n        /* \"Lincloud/.deps/contract/contract2.sol\":1779:2081  function setUserStateToDeceased() external {... */\n    tag_17:\n      tag_79\n      tag_80\n      jump\t// in\n    tag_79:\n      stop\n        /* \"Lincloud/.deps/contract/contract2.sol\":3895:4257  function getAllRecipients() public view returns (uint256[] memory){... */\n    tag_18:\n      tag_81\n      tag_82\n      jump\t// in\n    tag_81:\n      mload(0x40)\n      tag_83\n      swap2\n      swap1\n      tag_48\n      jump\t// in\n    tag_83:\n      mload(0x40)\n      dup1\n      swap2\n      sub\n      swap1\n      return\n        /* \"Lincloud/.deps/contract/contract2.sol\":4871:5294  function getRecipientTimeStamp(uint256 recipientId) public view returns(string memory){... */\n    tag_19:\n      tag_84\n      0x04\n      dup1\n      calldatasize\n      sub\n      dup2\n      add\n      swap1\n      tag_85\n      swap2\n      swap1\n      tag_33\n      jump\t// in\n    tag_85:\n      tag_86\n      jump\t// in\n    tag_84:\n      mload(0x40)\n      tag_87\n      swap2\n      swap1\n      tag_52\n      jump\t// in\n    tag_87:\n      mload(0x40)\n      dup1\n      swap2\n      sub\n      swap1\n      return\n        /* \"Lincloud/.deps/contract/contract2.sol\":1487:1771  function addOracle(uint256 oracleId) external { ... */\n    tag_20:\n      tag_88\n      0x04\n      dup1\n      calldatasize\n      sub\n      dup2\n      add\n      swap1\n      tag_89\n      swap2\n      swap1\n      tag_33\n      jump\t// in\n    tag_89:\n      tag_90\n      jump\t// in\n    tag_88:\n      stop\n        /* \"Lincloud/.deps/contract/contract2.sol\":970:1479  function addRecipient(uint256 recipientId) external { ... */\n    tag_21:\n      tag_91\n      0x04\n      dup1\n      calldatasize\n      sub\n      dup2\n      add\n      swap1\n      tag_92\n      swap2\n      swap1\n      tag_33\n      jump\t// in\n    tag_92:\n      tag_93\n      jump\t// in\n    tag_91:\n      stop\n        /* \"Lincloud/.deps/contract/contract2.sol\":3529:3869  function closeUserContract() external {... */\n    tag_26:\n        /* \"Lincloud/.deps/contract/contract2.sol\":3600:3605  owner */\n      0x00\n      dup1\n      sload\n      swap1\n      0x0100\n      exp\n      swap1\n      div\n      0xffffffffffffffffffffffffffffffffffffffff\n      and\n        /* \"Lincloud/.deps/contract/contract2.sol\":3586:3605  msg.sender == owner */\n      0xffffffffffffffffffffffffffffffffffffffff\n      and\n        /* \"Lincloud/.deps/contract/contract2.sol\":3586:3596  msg.sender */\n      caller\n        /* \"Lincloud/.deps/contract/contract2.sol\":3586:3605  msg.sender == owner */\n      0xffffffffffffffffffffffffffffffffffffffff\n      and\n      eq\n        /* \"Lincloud/.deps/contract/contract2.sol\":3578:3606  require(msg.sender == owner) */\n      tag_95\n      jumpi\n      0x00\n      dup1\n      revert\n    tag_95:\n        /* \"Lincloud/.deps/contract/contract2.sol\":3645:3650  false */\n      0x00\n        /* \"Lincloud/.deps/contract/contract2.sol\":3625:3650  isContractClosed == false */\n      iszero\n      iszero\n        /* \"Lincloud/.deps/contract/contract2.sol\":3625:3641  isContractClosed */\n      0x03\n      0x00\n      swap1\n      sload\n      swap1\n      0x0100\n      exp\n      swap1\n      div\n      0xff\n      and\n        /* \"Lincloud/.deps/contract/contract2.sol\":3625:3650  isContractClosed == false */\n      iszero\n      iszero\n      eq\n        /* \"Lincloud/.deps/contract/contract2.sol\":3617:3679  require(isContractClosed == false, \"Smart Contract is closed\") */\n      tag_96\n      jumpi\n      mload(0x40)\n      0x08c379a000000000000000000000000000000000000000000000000000000000\n      dup2\n      mstore\n      0x04\n      add\n      tag_97\n      swap1\n      tag_98\n      jump\t// in\n    tag_97:\n      mload(0x40)\n      dup1\n      swap2\n      sub\n      swap1\n      revert\n    tag_96:\n        /* \"Lincloud/.deps/contract/contract2.sol\":3719:3738  user_state.deceased */\n      0x00\n        /* \"Lincloud/.deps/contract/contract2.sol\":3698:3738  actual_user_state == user_state.deceased */\n      0x01\n      dup2\n      gt\n      iszero\n      tag_99\n      jumpi\n      tag_100\n      tag_101\n      jump\t// in\n    tag_100:\n    tag_99:\n        /* \"Lincloud/.deps/contract/contract2.sol\":3698:3715  actual_user_state */\n      0x03\n      0x01\n      swap1\n      sload\n      swap1\n      0x0100\n      exp\n      swap1\n      div\n      0xff\n      and\n        /* \"Lincloud/.deps/contract/contract2.sol\":3698:3738  actual_user_state == user_state.deceased */\n      0x01\n      dup2\n      gt\n      iszero\n      tag_102\n      jumpi\n      tag_103\n      tag_101\n      jump\t// in\n    tag_103:\n    tag_102:\n      eq\n        /* \"Lincloud/.deps/contract/contract2.sol\":3690:3762  require(actual_user_state == user_state.deceased, \"User is still alive\") */\n      tag_104\n      jumpi\n      mload(0x40)\n      0x08c379a000000000000000000000000000000000000000000000000000000000\n      dup2\n      mstore\n      0x04\n      add\n      tag_105\n      swap1\n      tag_106\n      jump\t// in\n    tag_105:\n      mload(0x40)\n      dup1\n      swap2\n      sub\n      swap1\n      revert\n    tag_104:\n        /* \"Lincloud/.deps/contract/contract2.sol\":3792:3796  true */\n      0x01\n        /* \"Lincloud/.deps/contract/contract2.sol\":3773:3789  isContractClosed */\n      0x03\n      0x00\n        /* \"Lincloud/.deps/contract/contract2.sol\":3773:3796  isContractClosed = true */\n      0x0100\n      exp\n      dup2\n      sload\n      dup2\n      0xff\n      mul\n      not\n      and\n      swap1\n      dup4\n      iszero\n      iszero\n      mul\n      or\n      swap1\n      sstore\n      pop\n        /* \"Lincloud/.deps/contract/contract2.sol\":3529:3869  function closeUserContract() external {... */\n      jump\t// out\n        /* \"Lincloud/.deps/contract/contract2.sol\":2668:3521  function setRecipientResponse(uint256 recipientId, bool isAccepted, bool isTimeExpired) external {... */\n    tag_30:\n        /* \"Lincloud/.deps/contract/contract2.sol\":2798:2803  owner */\n      0x00\n      dup1\n      sload\n      swap1\n      0x0100\n      exp\n      swap1\n      div\n      0xffffffffffffffffffffffffffffffffffffffff\n      and\n        /* \"Lincloud/.deps/contract/contract2.sol\":2784:2803  msg.sender == owner */\n      0xffffffffffffffffffffffffffffffffffffffff\n      and\n        /* \"Lincloud/.deps/contract/contract2.sol\":2784:2794  msg.sender */\n      caller\n        /* \"Lincloud/.deps/contract/contract2.sol\":2784:2803  msg.sender == owner */\n      0xffffffffffffffffffffffffffffffffffffffff\n      and\n      eq\n        /* \"Lincloud/.deps/contract/contract2.sol\":2776:2804  require(msg.sender == owner) */\n      tag_108\n      jumpi\n      0x00\n      dup1\n      revert\n    tag_108:\n        /* \"Lincloud/.deps/contract/contract2.sol\":2843:2848  false */\n      0x00\n        /* \"Lincloud/.deps/contract/contract2.sol\":2823:2848  isContractClosed == false */\n      iszero\n      iszero\n        /* \"Lincloud/.deps/contract/contract2.sol\":2823:2839  isContractClosed */\n      0x03\n      0x00\n      swap1\n      sload\n      swap1\n      0x0100\n      exp\n      swap1\n      div\n      0xff\n      and\n        /* \"Lincloud/.deps/contract/contract2.sol\":2823:2848  isContractClosed == false */\n      iszero\n      iszero\n      eq\n        /* \"Lincloud/.deps/contract/contract2.sol\":2815:2877  require(isContractClosed == false, \"Smart Contract is closed\") */\n      tag_109\n      jumpi\n      mload(0x40)\n      0x08c379a000000000000000000000000000000000000000000000000000000000\n      dup2\n      mstore\n      0x04\n      add\n      tag_110\n      swap1\n      tag_98\n      jump\t// in\n    tag_110:\n      mload(0x40)\n      dup1\n      swap2\n      sub\n      swap1\n      revert\n    tag_109:\n        /* \"Lincloud/.deps/contract/contract2.sol\":2917:2936  user_state.deceased */\n      0x00\n        /* \"Lincloud/.deps/contract/contract2.sol\":2896:2936  actual_user_state == user_state.deceased */\n      0x01\n      dup2\n      gt\n      iszero\n      tag_111\n      jumpi\n      tag_112\n      tag_101\n      jump\t// in\n    tag_112:\n    tag_111:\n        /* \"Lincloud/.deps/contract/contract2.sol\":2896:2913  actual_user_state */\n      0x03\n      0x01\n      swap1\n      sload\n      swap1\n      0x0100\n      exp\n      swap1\n      div\n      0xff\n      and\n        /* \"Lincloud/.deps/contract/contract2.sol\":2896:2936  actual_user_state == user_state.deceased */\n      0x01\n      dup2\n      gt\n      iszero\n      tag_113\n      jumpi\n      tag_114\n      tag_101\n      jump\t// in\n    tag_114:\n    tag_113:\n      eq\n        /* \"Lincloud/.deps/contract/contract2.sol\":2888:2960  require(actual_user_state == user_state.deceased, \"User is still alive\") */\n      tag_115\n      jumpi\n      mload(0x40)\n      0x08c379a000000000000000000000000000000000000000000000000000000000\n      dup2\n      mstore\n      0x04\n      add\n      tag_116\n      swap1\n      tag_106\n      jump\t// in\n    tag_116:\n      mload(0x40)\n      dup1\n      swap2\n      sub\n      swap1\n      revert\n    tag_115:\n        /* \"Lincloud/.deps/contract/contract2.sol\":2976:2985  uint256 i */\n      0x00\n        /* \"Lincloud/.deps/contract/contract2.sol\":2971:3514  for (uint256 i = 0; i < recipients_list.length; i++) {... */\n    tag_117:\n        /* \"Lincloud/.deps/contract/contract2.sol\":2995:3010  recipients_list */\n      0x04\n        /* \"Lincloud/.deps/contract/contract2.sol\":2995:3017  recipients_list.length */\n      dup1\n      sload\n      swap1\n      pop\n        /* \"Lincloud/.deps/contract/contract2.sol\":2991:2992  i */\n      dup2\n        /* \"Lincloud/.deps/contract/contract2.sol\":2991:3017  i < recipients_list.length */\n      lt\n        /* \"Lincloud/.deps/contract/contract2.sol\":2971:3514  for (uint256 i = 0; i < recipients_list.length; i++) {... */\n      iszero\n      tag_118\n      jumpi\n        /* \"Lincloud/.deps/contract/contract2.sol\":3078:3089  recipientId */\n      dup4\n        /* \"Lincloud/.deps/contract/contract2.sol\":3043:3058  recipients_list */\n      0x04\n        /* \"Lincloud/.deps/contract/contract2.sol\":3059:3060  i */\n      dup3\n        /* \"Lincloud/.deps/contract/contract2.sol\":3043:3061  recipients_list[i] */\n      dup2\n      sload\n      dup2\n      lt\n      tag_120\n      jumpi\n      tag_121\n      tag_122\n      jump\t// in\n    tag_121:\n    tag_120:\n      swap1\n      0x00\n      mstore\n      keccak256(0x00, 0x20)\n      swap1\n      0x04\n      mul\n      add\n        /* \"Lincloud/.deps/contract/contract2.sol\":3043:3074  recipients_list[i].id_recipient */\n      0x00\n      add\n      sload\n        /* \"Lincloud/.deps/contract/contract2.sol\":3043:3089  recipients_list[i].id_recipient == recipientId */\n      sub\n        /* \"Lincloud/.deps/contract/contract2.sol\":3039:3503  if (recipients_list[i].id_recipient == recipientId) {... */\n      tag_124\n      jumpi\n        /* \"Lincloud/.deps/contract/contract2.sol\":3190:3194  true */\n      0x01\n        /* \"Lincloud/.deps/contract/contract2.sol\":3176:3194  isAccepted == true */\n      iszero\n      iszero\n        /* \"Lincloud/.deps/contract/contract2.sol\":3176:3186  isAccepted */\n      dup4\n        /* \"Lincloud/.deps/contract/contract2.sol\":3176:3194  isAccepted == true */\n      iszero\n      iszero\n      sub\n        /* \"Lincloud/.deps/contract/contract2.sol\":3173:3421  if(isAccepted == true){... */\n      tag_125\n      jumpi\n        /* \"Lincloud/.deps/contract/contract2.sol\":3253:3286  recipient_response_state.accepted */\n      0x00\n        /* \"Lincloud/.deps/contract/contract2.sol\":3218:3233  recipients_list */\n      0x04\n        /* \"Lincloud/.deps/contract/contract2.sol\":3234:3235  i */\n      dup3\n        /* \"Lincloud/.deps/contract/contract2.sol\":3218:3236  recipients_list[i] */\n      dup2\n      sload\n      dup2\n      lt\n      tag_126\n      jumpi\n      tag_127\n      tag_122\n      jump\t// in\n    tag_127:\n    tag_126:\n      swap1\n      0x00\n      mstore\n      keccak256(0x00, 0x20)\n      swap1\n      0x04\n      mul\n      add\n        /* \"Lincloud/.deps/contract/contract2.sol\":3218:3250  recipients_list[i].responseState */\n      0x03\n      add\n      0x00\n        /* \"Lincloud/.deps/contract/contract2.sol\":3218:3286  recipients_list[i].responseState = recipient_response_state.accepted */\n      0x0100\n      exp\n      dup2\n      sload\n      dup2\n      0xff\n      mul\n      not\n      and\n      swap1\n      dup4\n      0x02\n      dup2\n      gt\n      iszero\n      tag_129\n      jumpi\n      tag_130\n      tag_101\n      jump\t// in\n    tag_130:\n    tag_129:\n      mul\n      or\n      swap1\n      sstore\n      pop\n        /* \"Lincloud/.deps/contract/contract2.sol\":3173:3421  if(isAccepted == true){... */\n      jump(tag_131)\n    tag_125:\n        /* \"Lincloud/.deps/contract/contract2.sol\":3368:3401  recipient_response_state.rejected */\n      0x01\n        /* \"Lincloud/.deps/contract/contract2.sol\":3333:3348  recipients_list */\n      0x04\n        /* \"Lincloud/.deps/contract/contract2.sol\":3349:3350  i */\n      dup3\n        /* \"Lincloud/.deps/contract/contract2.sol\":3333:3351  recipients_list[i] */\n      dup2\n      sload\n      dup2\n      lt\n      tag_132\n      jumpi\n      tag_133\n      tag_122\n      jump\t// in\n    tag_133:\n    tag_132:\n      swap1\n      0x00\n      mstore\n      keccak256(0x00, 0x20)\n      swap1\n      0x04\n      mul\n      add\n        /* \"Lincloud/.deps/contract/contract2.sol\":3333:3365  recipients_list[i].responseState */\n      0x03\n      add\n      0x00\n        /* \"Lincloud/.deps/contract/contract2.sol\":3333:3401  recipients_list[i].responseState = recipient_response_state.rejected */\n      0x0100\n      exp\n      dup2\n      sload\n      dup2\n      0xff\n      mul\n      not\n      and\n      swap1\n      dup4\n      0x02\n      dup2\n      gt\n      iszero\n      tag_135\n      jumpi\n      tag_136\n      tag_101\n      jump\t// in\n    tag_136:\n    tag_135:\n      mul\n      or\n      swap1\n      sstore\n      pop\n        /* \"Lincloud/.deps/contract/contract2.sol\":3173:3421  if(isAccepted == true){... */\n    tag_131:\n        /* \"Lincloud/.deps/contract/contract2.sol\":3474:3487  isTimeExpired */\n      dup2\n        /* \"Lincloud/.deps/contract/contract2.sol\":3439:3454  recipients_list */\n      0x04\n        /* \"Lincloud/.deps/contract/contract2.sol\":3455:3456  i */\n      dup3\n        /* \"Lincloud/.deps/contract/contract2.sol\":3439:3457  recipients_list[i] */\n      dup2\n      sload\n      dup2\n      lt\n      tag_137\n      jumpi\n      tag_138\n      tag_122\n      jump\t// in\n    tag_138:\n    tag_137:\n      swap1\n      0x00\n      mstore\n      keccak256(0x00, 0x20)\n      swap1\n      0x04\n      mul\n      add\n        /* \"Lincloud/.deps/contract/contract2.sol\":3439:3471  recipients_list[i].isTimeExpired */\n      0x03\n      add\n      0x01\n        /* \"Lincloud/.deps/contract/contract2.sol\":3439:3487  recipients_list[i].isTimeExpired = isTimeExpired */\n      0x0100\n      exp\n      dup2\n      sload\n      dup2\n      0xff\n      mul\n      not\n      and\n      swap1\n      dup4\n      iszero\n      iszero\n      mul\n      or\n      swap1\n      sstore\n      pop\n        /* \"Lincloud/.deps/contract/contract2.sol\":3039:3503  if (recipients_list[i].id_recipient == recipientId) {... */\n    tag_124:\n        /* \"Lincloud/.deps/contract/contract2.sol\":3019:3022  i++ */\n      dup1\n      dup1\n      0x01\n      add\n      swap2\n      pop\n      pop\n        /* \"Lincloud/.deps/contract/contract2.sol\":2971:3514  for (uint256 i = 0; i < recipients_list.length; i++) {... */\n      jump(tag_117)\n    tag_118:\n      pop\n        /* \"Lincloud/.deps/contract/contract2.sol\":2668:3521  function setRecipientResponse(uint256 recipientId, bool isAccepted, bool isTimeExpired) external {... */\n      pop\n      pop\n      pop\n      jump\t// out\n        /* \"Lincloud/.deps/contract/contract2.sol\":355:383  Oracle[] public oracles_list */\n    tag_34:\n      0x05\n      dup2\n      dup2\n      sload\n      dup2\n      lt\n      tag_140\n      jumpi\n      0x00\n      dup1\n      revert\n    tag_140:\n      swap1\n      0x00\n      mstore\n      keccak256(0x00, 0x20)\n      add\n      0x00\n      swap2\n      pop\n      swap1\n      pop\n      dup1\n      0x00\n      add\n      sload\n      swap1\n      pop\n      dup2\n      jump\t// out\n        /* \"Lincloud/.deps/contract/contract2.sol\":314:348  Recipient[] public recipients_list */\n    tag_39:\n      0x04\n      dup2\n      dup2\n      sload\n      dup2\n      lt\n      tag_142\n      jumpi\n      0x00\n      dup1\n      revert\n    tag_142:\n      swap1\n      0x00\n      mstore\n      keccak256(0x00, 0x20)\n      swap1\n      0x04\n      mul\n      add\n      0x00\n      swap2\n      pop\n      swap1\n      pop\n      dup1\n      0x00\n      add\n      sload\n      swap1\n      dup1\n      0x01\n      add\n      dup1\n      sload\n      tag_144\n      swap1\n      tag_145\n      jump\t// in\n    tag_144:\n      dup1\n      0x1f\n      add\n      0x20\n      dup1\n      swap2\n      div\n      mul\n      0x20\n      add\n      mload(0x40)\n      swap1\n      dup2\n      add\n      0x40\n      mstore\n      dup1\n      swap3\n      swap2\n      swap1\n      dup2\n      dup2\n      mstore\n      0x20\n      add\n      dup3\n      dup1\n      sload\n      tag_146\n      swap1\n      tag_145\n      jump\t// in\n    tag_146:\n      dup1\n      iszero\n      tag_147\n      jumpi\n      dup1\n      0x1f\n      lt\n      tag_148\n      jumpi\n      0x0100\n      dup1\n      dup4\n      sload\n      div\n      mul\n      dup4\n      mstore\n      swap2\n      0x20\n      add\n      swap2\n      jump(tag_147)\n    tag_148:\n      dup3\n      add\n      swap2\n      swap1\n      0x00\n      mstore\n      keccak256(0x00, 0x20)\n      swap1\n    tag_149:\n      dup2\n      sload\n      dup2\n      mstore\n      swap1\n      0x01\n      add\n      swap1\n      0x20\n      add\n      dup1\n      dup4\n      gt\n      tag_149\n      jumpi\n      dup3\n      swap1\n      sub\n      0x1f\n      and\n      dup3\n      add\n      swap2\n    tag_147:\n      pop\n      pop\n      pop\n      pop\n      pop\n      swap1\n      dup1\n      0x02\n      add\n      dup1\n      sload\n      tag_150\n      swap1\n      tag_145\n      jump\t// in\n    tag_150:\n      dup1\n      0x1f\n      add\n      0x20\n      dup1\n      swap2\n      div\n      mul\n      0x20\n      add\n      mload(0x40)\n      swap1\n      dup2\n      add\n      0x40\n      mstore\n      dup1\n      swap3\n      swap2\n      swap1\n      dup2\n      dup2\n      mstore\n      0x20\n      add\n      dup3\n      dup1\n      sload\n      tag_151\n      swap1\n      tag_145\n      jump\t// in\n    tag_151:\n      dup1\n      iszero\n      tag_152\n      jumpi\n      dup1\n      0x1f\n      lt\n      tag_153\n      jumpi\n      0x0100\n      dup1\n      dup4\n      sload\n      div\n      mul\n      dup4\n      mstore\n      swap2\n      0x20\n      add\n      swap2\n      jump(tag_152)\n    tag_153:\n      dup3\n      add\n      swap2\n      swap1\n      0x00\n      mstore\n      keccak256(0x00, 0x20)\n      swap1\n    tag_154:\n      dup2\n      sload\n      dup2\n      mstore\n      swap1\n      0x01\n      add\n      swap1\n      0x20\n      add\n      dup1\n      dup4\n      gt\n      tag_154\n      jumpi\n      dup3\n      swap1\n      sub\n      0x1f\n      and\n      dup3\n      add\n      swap2\n    tag_152:\n      pop\n      pop\n      pop\n      pop\n      pop\n      swap1\n      dup1\n      0x03\n      add\n      0x00\n      swap1\n      sload\n      swap1\n      0x0100\n      exp\n      swap1\n      div\n      0xff\n      and\n      swap1\n      dup1\n      0x03\n      add\n      0x01\n      swap1\n      sload\n      swap1\n      0x0100\n      exp\n      swap1\n      div\n      0xff\n      and\n      swap1\n      pop\n      dup6\n      jump\t// out\n        /* \"Lincloud/.deps/contract/contract2.sol\":119:140  uint256 public userId */\n    tag_43:\n      sload(0x01)\n      dup2\n      jump\t// out\n        /* \"Lincloud/.deps/contract/contract2.sol\":4265:4606  function getAllOracles() public view returns (uint256[] memory){... */\n    tag_46:\n        /* \"Lincloud/.deps/contract/contract2.sol\":4311:4327  uint256[] memory */\n      0x60\n        /* \"Lincloud/.deps/contract/contract2.sol\":4361:4366  owner */\n      0x00\n      dup1\n      sload\n      swap1\n      0x0100\n      exp\n      swap1\n      div\n      0xffffffffffffffffffffffffffffffffffffffff\n      and\n        /* \"Lincloud/.deps/contract/contract2.sol\":4347:4366  msg.sender == owner */\n      0xffffffffffffffffffffffffffffffffffffffff\n      and\n        /* \"Lincloud/.deps/contract/contract2.sol\":4347:4357  msg.sender */\n      caller\n        /* \"Lincloud/.deps/contract/contract2.sol\":4347:4366  msg.sender == owner */\n      0xffffffffffffffffffffffffffffffffffffffff\n      and\n      eq\n        /* \"Lincloud/.deps/contract/contract2.sol\":4339:4367  require(msg.sender == owner) */\n      tag_156\n      jumpi\n      0x00\n      dup1\n      revert\n    tag_156:\n        /* \"Lincloud/.deps/contract/contract2.sol\":4378:4405  uint256[] memory oraclesIds */\n      0x00\n        /* \"Lincloud/.deps/contract/contract2.sol\":4422:4434  oracles_list */\n      0x05\n        /* \"Lincloud/.deps/contract/contract2.sol\":4422:4441  oracles_list.length */\n      dup1\n      sload\n      swap1\n      pop\n        /* \"Lincloud/.deps/contract/contract2.sol\":4408:4442  new uint256[](oracles_list.length) */\n      0xffffffffffffffff\n      dup2\n      gt\n      iszero\n      tag_157\n      jumpi\n      tag_158\n      tag_159\n      jump\t// in\n    tag_158:\n    tag_157:\n      mload(0x40)\n      swap1\n      dup1\n      dup3\n      mstore\n      dup1\n      0x20\n      mul\n      0x20\n      add\n      dup3\n      add\n      0x40\n      mstore\n      dup1\n      iszero\n      tag_160\n      jumpi\n      dup2\n      0x20\n      add\n      0x20\n      dup3\n      mul\n      dup1\n      calldatasize\n      dup4\n      calldatacopy\n      dup1\n      dup3\n      add\n      swap2\n      pop\n      pop\n      swap1\n      pop\n    tag_160:\n      pop\n        /* \"Lincloud/.deps/contract/contract2.sol\":4378:4442  uint256[] memory oraclesIds = new uint256[](oracles_list.length) */\n      swap1\n      pop\n        /* \"Lincloud/.deps/contract/contract2.sol\":4458:4467  uint256 i */\n      0x00\n        /* \"Lincloud/.deps/contract/contract2.sol\":4453:4571  for (uint256 i = 0; i < oracles_list.length; i++) {... */\n    tag_161:\n        /* \"Lincloud/.deps/contract/contract2.sol\":4477:4489  oracles_list */\n      0x05\n        /* \"Lincloud/.deps/contract/contract2.sol\":4477:4496  oracles_list.length */\n      dup1\n      sload\n      swap1\n      pop\n        /* \"Lincloud/.deps/contract/contract2.sol\":4473:4474  i */\n      dup2\n        /* \"Lincloud/.deps/contract/contract2.sol\":4473:4496  i < oracles_list.length */\n      lt\n        /* \"Lincloud/.deps/contract/contract2.sol\":4453:4571  for (uint256 i = 0; i < oracles_list.length; i++) {... */\n      iszero\n      tag_162\n      jumpi\n        /* \"Lincloud/.deps/contract/contract2.sol\":4534:4546  oracles_list */\n      0x05\n        /* \"Lincloud/.deps/contract/contract2.sol\":4547:4548  i */\n      dup2\n        /* \"Lincloud/.deps/contract/contract2.sol\":4534:4549  oracles_list[i] */\n      dup2\n      sload\n      dup2\n      lt\n      tag_164\n      jumpi\n      tag_165\n      tag_122\n      jump\t// in\n    tag_165:\n    tag_164:\n      swap1\n      0x00\n      mstore\n      keccak256(0x00, 0x20)\n      add\n        /* \"Lincloud/.deps/contract/contract2.sol\":4534:4559  oracles_list[i].id_oracle */\n      0x00\n      add\n      sload\n        /* \"Lincloud/.deps/contract/contract2.sol\":4518:4528  oraclesIds */\n      dup3\n        /* \"Lincloud/.deps/contract/contract2.sol\":4529:4530  i */\n      dup3\n        /* \"Lincloud/.deps/contract/contract2.sol\":4518:4531  oraclesIds[i] */\n      dup2\n      mload\n      dup2\n      lt\n      tag_167\n      jumpi\n      tag_168\n      tag_122\n      jump\t// in\n    tag_168:\n    tag_167:\n      0x20\n      mul\n      0x20\n      add\n      add\n        /* \"Lincloud/.deps/contract/contract2.sol\":4518:4559  oraclesIds[i] = oracles_list[i].id_oracle */\n      dup2\n      dup2\n      mstore\n      pop\n      pop\n        /* \"Lincloud/.deps/contract/contract2.sol\":4498:4501  i++ */\n      dup1\n      dup1\n      0x01\n      add\n      swap2\n      pop\n      pop\n        /* \"Lincloud/.deps/contract/contract2.sol\":4453:4571  for (uint256 i = 0; i < oracles_list.length; i++) {... */\n      jump(tag_161)\n    tag_162:\n      pop\n        /* \"Lincloud/.deps/contract/contract2.sol\":4588:4598  oraclesIds */\n      dup1\n        /* \"Lincloud/.deps/contract/contract2.sol\":4581:4598  return oraclesIds */\n      swap2\n      pop\n      pop\n        /* \"Lincloud/.deps/contract/contract2.sol\":4265:4606  function getAllOracles() public view returns (uint256[] memory){... */\n      swap1\n      jump\t// out\n        /* \"Lincloud/.deps/contract/contract2.sol\":6278:6529  function getContractState() public view returns(string memory){... */\n    tag_50:\n        /* \"Lincloud/.deps/contract/contract2.sol\":6326:6339  string memory */\n      0x60\n        /* \"Lincloud/.deps/contract/contract2.sol\":6373:6378  owner */\n      0x00\n      dup1\n      sload\n      swap1\n      0x0100\n      exp\n      swap1\n      div\n      0xffffffffffffffffffffffffffffffffffffffff\n      and\n        /* \"Lincloud/.deps/contract/contract2.sol\":6359:6378  msg.sender == owner */\n      0xffffffffffffffffffffffffffffffffffffffff\n      and\n        /* \"Lincloud/.deps/contract/contract2.sol\":6359:6369  msg.sender */\n      caller\n        /* \"Lincloud/.deps/contract/contract2.sol\":6359:6378  msg.sender == owner */\n      0xffffffffffffffffffffffffffffffffffffffff\n      and\n      eq\n        /* \"Lincloud/.deps/contract/contract2.sol\":6351:6379  require(msg.sender == owner) */\n      tag_170\n      jumpi\n      0x00\n      dup1\n      revert\n    tag_170:\n        /* \"Lincloud/.deps/contract/contract2.sol\":6413:6417  true */\n      0x01\n        /* \"Lincloud/.deps/contract/contract2.sol\":6393:6417  isContractClosed == true */\n      iszero\n      iszero\n        /* \"Lincloud/.deps/contract/contract2.sol\":6393:6409  isContractClosed */\n      0x03\n      0x00\n      swap1\n      sload\n      swap1\n      0x0100\n      exp\n      swap1\n      div\n      0xff\n      and\n        /* \"Lincloud/.deps/contract/contract2.sol\":6393:6417  isContractClosed == true */\n      iszero\n      iszero\n      sub\n        /* \"Lincloud/.deps/contract/contract2.sol\":6390:6522  if(isContractClosed == true){... */\n      tag_171\n      jumpi\n        /* \"Lincloud/.deps/contract/contract2.sol\":6433:6457  return \"Contract Closed\" */\n      mload(0x40)\n      dup1\n      0x40\n      add\n      0x40\n      mstore\n      dup1\n      0x0f\n      dup2\n      mstore\n      0x20\n      add\n      0x436f6e747261637420436c6f7365640000000000000000000000000000000000\n      dup2\n      mstore\n      pop\n      swap1\n      pop\n      jump(tag_169)\n        /* \"Lincloud/.deps/contract/contract2.sol\":6390:6522  if(isContractClosed == true){... */\n    tag_171:\n        /* \"Lincloud/.deps/contract/contract2.sol\":6488:6510  return \"Contract Open\" */\n      mload(0x40)\n      dup1\n      0x40\n      add\n      0x40\n      mstore\n      dup1\n      0x0d\n      dup2\n      mstore\n      0x20\n      add\n      0x436f6e7472616374204f70656e00000000000000000000000000000000000000\n      dup2\n      mstore\n      pop\n      swap1\n      pop\n        /* \"Lincloud/.deps/contract/contract2.sol\":6278:6529  function getContractState() public view returns(string memory){... */\n    tag_169:\n      swap1\n      jump\t// out\n        /* \"Lincloud/.deps/contract/contract2.sol\":272:307  user_state public actual_user_state */\n    tag_54:\n      0x03\n      0x01\n      swap1\n      sload\n      swap1\n      0x0100\n      exp\n      swap1\n      div\n      0xff\n      and\n      dup2\n      jump\t// out\n        /* \"Lincloud/.deps/contract/contract2.sol\":4614:4863  function getUserState() public view returns (string memory){... */\n    tag_58:\n        /* \"Lincloud/.deps/contract/contract2.sol\":4659:4672  string memory */\n      0x60\n        /* \"Lincloud/.deps/contract/contract2.sol\":4706:4711  owner */\n      0x00\n      dup1\n      sload\n      swap1\n      0x0100\n      exp\n      swap1\n      div\n      0xffffffffffffffffffffffffffffffffffffffff\n      and\n        /* \"Lincloud/.deps/contract/contract2.sol\":4692:4711  msg.sender == owner */\n      0xffffffffffffffffffffffffffffffffffffffff\n      and\n        /* \"Lincloud/.deps/contract/contract2.sol\":4692:4702  msg.sender */\n      caller\n        /* \"Lincloud/.deps/contract/contract2.sol\":4692:4711  msg.sender == owner */\n      0xffffffffffffffffffffffffffffffffffffffff\n      and\n      eq\n        /* \"Lincloud/.deps/contract/contract2.sol\":4684:4712  require(msg.sender == owner) */\n      tag_174\n      jumpi\n      0x00\n      dup1\n      revert\n    tag_174:\n        /* \"Lincloud/.deps/contract/contract2.sol\":4747:4766  user_state.deceased */\n      0x00\n        /* \"Lincloud/.deps/contract/contract2.sol\":4726:4766  actual_user_state == user_state.deceased */\n      0x01\n      dup2\n      gt\n      iszero\n      tag_175\n      jumpi\n      tag_176\n      tag_101\n      jump\t// in\n    tag_176:\n    tag_175:\n        /* \"Lincloud/.deps/contract/contract2.sol\":4726:4743  actual_user_state */\n      0x03\n      0x01\n      swap1\n      sload\n      swap1\n      0x0100\n      exp\n      swap1\n      div\n      0xff\n      and\n        /* \"Lincloud/.deps/contract/contract2.sol\":4726:4766  actual_user_state == user_state.deceased */\n      0x01\n      dup2\n      gt\n      iszero\n      tag_177\n      jumpi\n      tag_178\n      tag_101\n      jump\t// in\n    tag_178:\n    tag_177:\n      sub\n        /* \"Lincloud/.deps/contract/contract2.sol\":4723:4856  if(actual_user_state == user_state.deceased){... */\n      tag_179\n      jumpi\n        /* \"Lincloud/.deps/contract/contract2.sol\":4782:4799  return \"Deceased\" */\n      mload(0x40)\n      dup1\n      0x40\n      add\n      0x40\n      mstore\n      dup1\n      0x08\n      dup2\n      mstore\n      0x20\n      add\n      0x4465636561736564000000000000000000000000000000000000000000000000\n      dup2\n      mstore\n      pop\n      swap1\n      pop\n      jump(tag_173)\n        /* \"Lincloud/.deps/contract/contract2.sol\":4723:4856  if(actual_user_state == user_state.deceased){... */\n    tag_179:\n        /* \"Lincloud/.deps/contract/contract2.sol\":4830:4844  return \"Alive\" */\n      mload(0x40)\n      dup1\n      0x40\n      add\n      0x40\n      mstore\n      dup1\n      0x05\n      dup2\n      mstore\n      0x20\n      add\n      0x416c697665000000000000000000000000000000000000000000000000000000\n      dup2\n      mstore\n      pop\n      swap1\n      pop\n        /* \"Lincloud/.deps/contract/contract2.sol\":4614:4863  function getUserState() public view returns (string memory){... */\n    tag_173:\n      swap1\n      jump\t// out\n        /* \"Lincloud/.deps/contract/contract2.sol\":5302:6270  function getRecipientResponse(uint256 recipientId) public view returns(string memory){... */\n    tag_62:\n        /* \"Lincloud/.deps/contract/contract2.sol\":5373:5386  string memory */\n      0x60\n        /* \"Lincloud/.deps/contract/contract2.sol\":5420:5425  owner */\n      0x00\n      dup1\n      sload\n      swap1\n      0x0100\n      exp\n      swap1\n      div\n      0xffffffffffffffffffffffffffffffffffffffff\n      and\n        /* \"Lincloud/.deps/contract/contract2.sol\":5406:5425  msg.sender == owner */\n      0xffffffffffffffffffffffffffffffffffffffff\n      and\n        /* \"Lincloud/.deps/contract/contract2.sol\":5406:5416  msg.sender */\n      caller\n        /* \"Lincloud/.deps/contract/contract2.sol\":5406:5425  msg.sender == owner */\n      0xffffffffffffffffffffffffffffffffffffffff\n      and\n      eq\n        /* \"Lincloud/.deps/contract/contract2.sol\":5398:5426  require(msg.sender == owner) */\n      tag_182\n      jumpi\n      0x00\n      dup1\n      revert\n    tag_182:\n        /* \"Lincloud/.deps/contract/contract2.sol\":5442:5451  uint256 i */\n      0x00\n        /* \"Lincloud/.deps/contract/contract2.sol\":5437:6237  for (uint256 i = 0; i < recipients_list.length; i++) {... */\n    tag_183:\n        /* \"Lincloud/.deps/contract/contract2.sol\":5461:5476  recipients_list */\n      0x04\n        /* \"Lincloud/.deps/contract/contract2.sol\":5461:5483  recipients_list.length */\n      dup1\n      sload\n      swap1\n      pop\n        /* \"Lincloud/.deps/contract/contract2.sol\":5457:5458  i */\n      dup2\n        /* \"Lincloud/.deps/contract/contract2.sol\":5457:5483  i < recipients_list.length */\n      lt\n        /* \"Lincloud/.deps/contract/contract2.sol\":5437:6237  for (uint256 i = 0; i < recipients_list.length; i++) {... */\n      iszero\n      tag_184\n      jumpi\n        /* \"Lincloud/.deps/contract/contract2.sol\":5543:5554  recipientId */\n      dup3\n        /* \"Lincloud/.deps/contract/contract2.sol\":5508:5523  recipients_list */\n      0x04\n        /* \"Lincloud/.deps/contract/contract2.sol\":5524:5525  i */\n      dup3\n        /* \"Lincloud/.deps/contract/contract2.sol\":5508:5526  recipients_list[i] */\n      dup2\n      sload\n      dup2\n      lt\n      tag_186\n      jumpi\n      tag_187\n      tag_122\n      jump\t// in\n    tag_187:\n    tag_186:\n      swap1\n      0x00\n      mstore\n      keccak256(0x00, 0x20)\n      swap1\n      0x04\n      mul\n      add\n        /* \"Lincloud/.deps/contract/contract2.sol\":5508:5539  recipients_list[i].id_recipient */\n      0x00\n      add\n      sload\n        /* \"Lincloud/.deps/contract/contract2.sol\":5508:5554  recipients_list[i].id_recipient == recipientId */\n      sub\n        /* \"Lincloud/.deps/contract/contract2.sol\":5505:6226  if(recipients_list[i].id_recipient == recipientId){... */\n      tag_189\n      jumpi\n        /* \"Lincloud/.deps/contract/contract2.sol\":5674:5707  recipient_response_state.accepted */\n      0x00\n        /* \"Lincloud/.deps/contract/contract2.sol\":5638:5707  recipients_list[i].responseState == recipient_response_state.accepted */\n      0x02\n      dup2\n      gt\n      iszero\n      tag_190\n      jumpi\n      tag_191\n      tag_101\n      jump\t// in\n    tag_191:\n    tag_190:\n        /* \"Lincloud/.deps/contract/contract2.sol\":5638:5653  recipients_list */\n      0x04\n        /* \"Lincloud/.deps/contract/contract2.sol\":5654:5655  i */\n      dup3\n        /* \"Lincloud/.deps/contract/contract2.sol\":5638:5656  recipients_list[i] */\n      dup2\n      sload\n      dup2\n      lt\n      tag_192\n      jumpi\n      tag_193\n      tag_122\n      jump\t// in\n    tag_193:\n    tag_192:\n      swap1\n      0x00\n      mstore\n      keccak256(0x00, 0x20)\n      swap1\n      0x04\n      mul\n      add\n        /* \"Lincloud/.deps/contract/contract2.sol\":5638:5670  recipients_list[i].responseState */\n      0x03\n      add\n      0x00\n      swap1\n      sload\n      swap1\n      0x0100\n      exp\n      swap1\n      div\n      0xff\n      and\n        /* \"Lincloud/.deps/contract/contract2.sol\":5638:5707  recipients_list[i].responseState == recipient_response_state.accepted */\n      0x02\n      dup2\n      gt\n      iszero\n      tag_195\n      jumpi\n      tag_196\n      tag_101\n      jump\t// in\n    tag_196:\n    tag_195:\n      sub\n        /* \"Lincloud/.deps/contract/contract2.sol\":5635:6211  if(recipients_list[i].responseState == recipient_response_state.accepted){... */\n      tag_197\n      jumpi\n        /* \"Lincloud/.deps/contract/contract2.sol\":5731:5748  return \"Accepted\" */\n      mload(0x40)\n      dup1\n      0x40\n      add\n      0x40\n      mstore\n      dup1\n      0x08\n      dup2\n      mstore\n      0x20\n      add\n      0x4163636570746564000000000000000000000000000000000000000000000000\n      dup2\n      mstore\n      pop\n      swap2\n      pop\n      pop\n      jump(tag_181)\n        /* \"Lincloud/.deps/contract/contract2.sol\":5635:6211  if(recipients_list[i].responseState == recipient_response_state.accepted){... */\n    tag_197:\n        /* \"Lincloud/.deps/contract/contract2.sol\":5813:5846  recipient_response_state.rejected */\n      0x01\n        /* \"Lincloud/.deps/contract/contract2.sol\":5777:5846  recipients_list[i].responseState == recipient_response_state.rejected */\n      0x02\n      dup2\n      gt\n      iszero\n      tag_199\n      jumpi\n      tag_200\n      tag_101\n      jump\t// in\n    tag_200:\n    tag_199:\n        /* \"Lincloud/.deps/contract/contract2.sol\":5777:5792  recipients_list */\n      0x04\n        /* \"Lincloud/.deps/contract/contract2.sol\":5793:5794  i */\n      dup3\n        /* \"Lincloud/.deps/contract/contract2.sol\":5777:5795  recipients_list[i] */\n      dup2\n      sload\n      dup2\n      lt\n      tag_201\n      jumpi\n      tag_202\n      tag_122\n      jump\t// in\n    tag_202:\n    tag_201:\n      swap1\n      0x00\n      mstore\n      keccak256(0x00, 0x20)\n      swap1\n      0x04\n      mul\n      add\n        /* \"Lincloud/.deps/contract/contract2.sol\":5777:5809  recipients_list[i].responseState */\n      0x03\n      add\n      0x00\n      swap1\n      sload\n      swap1\n      0x0100\n      exp\n      swap1\n      div\n      0xff\n      and\n        /* \"Lincloud/.deps/contract/contract2.sol\":5777:5846  recipients_list[i].responseState == recipient_response_state.rejected */\n      0x02\n      dup2\n      gt\n      iszero\n      tag_204\n      jumpi\n      tag_205\n      tag_101\n      jump\t// in\n    tag_205:\n    tag_204:\n      eq\n        /* \"Lincloud/.deps/contract/contract2.sol\":5777:5908  recipients_list[i].responseState == recipient_response_state.rejected... */\n      dup1\n      iszero\n      tag_206\n      jumpi\n      pop\n        /* \"Lincloud/.deps/contract/contract2.sol\":5903:5908  false */\n      0x00\n        /* \"Lincloud/.deps/contract/contract2.sol\":5867:5908  recipients_list[i].isTimeExpired == false */\n      iszero\n      iszero\n        /* \"Lincloud/.deps/contract/contract2.sol\":5867:5882  recipients_list */\n      0x04\n        /* \"Lincloud/.deps/contract/contract2.sol\":5883:5884  i */\n      dup3\n        /* \"Lincloud/.deps/contract/contract2.sol\":5867:5885  recipients_list[i] */\n      dup2\n      sload\n      dup2\n      lt\n      tag_207\n      jumpi\n      tag_208\n      tag_122\n      jump\t// in\n    tag_208:\n    tag_207:\n      swap1\n      0x00\n      mstore\n      keccak256(0x00, 0x20)\n      swap1\n      0x04\n      mul\n      add\n        /* \"Lincloud/.deps/contract/contract2.sol\":5867:5899  recipients_list[i].isTimeExpired */\n      0x03\n      add\n      0x01\n      swap1\n      sload\n      swap1\n      0x0100\n      exp\n      swap1\n      div\n      0xff\n      and\n        /* \"Lincloud/.deps/contract/contract2.sol\":5867:5908  recipients_list[i].isTimeExpired == false */\n      iszero\n      iszero\n      eq\n        /* \"Lincloud/.deps/contract/contract2.sol\":5777:5908  recipients_list[i].responseState == recipient_response_state.rejected... */\n    tag_206:\n        /* \"Lincloud/.deps/contract/contract2.sol\":5773:6211  if (recipients_list[i].responseState == recipient_response_state.rejected... */\n      iszero\n      tag_210\n      jumpi\n        /* \"Lincloud/.deps/contract/contract2.sol\":5932:5949  return \"Rejected\" */\n      mload(0x40)\n      dup1\n      0x40\n      add\n      0x40\n      mstore\n      dup1\n      0x08\n      dup2\n      mstore\n      0x20\n      add\n      0x52656a6563746564000000000000000000000000000000000000000000000000\n      dup2\n      mstore\n      pop\n      swap2\n      pop\n      pop\n      jump(tag_181)\n        /* \"Lincloud/.deps/contract/contract2.sol\":5773:6211  if (recipients_list[i].responseState == recipient_response_state.rejected... */\n    tag_210:\n        /* \"Lincloud/.deps/contract/contract2.sol\":6014:6047  recipient_response_state.rejected */\n      0x01\n        /* \"Lincloud/.deps/contract/contract2.sol\":5978:6047  recipients_list[i].responseState == recipient_response_state.rejected */\n      0x02\n      dup2\n      gt\n      iszero\n      tag_212\n      jumpi\n      tag_213\n      tag_101\n      jump\t// in\n    tag_213:\n    tag_212:\n        /* \"Lincloud/.deps/contract/contract2.sol\":5978:5993  recipients_list */\n      0x04\n        /* \"Lincloud/.deps/contract/contract2.sol\":5994:5995  i */\n      dup3\n        /* \"Lincloud/.deps/contract/contract2.sol\":5978:5996  recipients_list[i] */\n      dup2\n      sload\n      dup2\n      lt\n      tag_214\n      jumpi\n      tag_215\n      tag_122\n      jump\t// in\n    tag_215:\n    tag_214:\n      swap1\n      0x00\n      mstore\n      keccak256(0x00, 0x20)\n      swap1\n      0x04\n      mul\n      add\n        /* \"Lincloud/.deps/contract/contract2.sol\":5978:6010  recipients_list[i].responseState */\n      0x03\n      add\n      0x00\n      swap1\n      sload\n      swap1\n      0x0100\n      exp\n      swap1\n      div\n      0xff\n      and\n        /* \"Lincloud/.deps/contract/contract2.sol\":5978:6047  recipients_list[i].responseState == recipient_response_state.rejected */\n      0x02\n      dup2\n      gt\n      iszero\n      tag_217\n      jumpi\n      tag_218\n      tag_101\n      jump\t// in\n    tag_218:\n    tag_217:\n      eq\n        /* \"Lincloud/.deps/contract/contract2.sol\":5978:6108  recipients_list[i].responseState == recipient_response_state.rejected... */\n      dup1\n      iszero\n      tag_219\n      jumpi\n      pop\n        /* \"Lincloud/.deps/contract/contract2.sol\":6104:6108  true */\n      0x01\n        /* \"Lincloud/.deps/contract/contract2.sol\":6068:6108  recipients_list[i].isTimeExpired == true */\n      iszero\n      iszero\n        /* \"Lincloud/.deps/contract/contract2.sol\":6068:6083  recipients_list */\n      0x04\n        /* \"Lincloud/.deps/contract/contract2.sol\":6084:6085  i */\n      dup3\n        /* \"Lincloud/.deps/contract/contract2.sol\":6068:6086  recipients_list[i] */\n      dup2\n      sload\n      dup2\n      lt\n      tag_220\n      jumpi\n      tag_221\n      tag_122\n      jump\t// in\n    tag_221:\n    tag_220:\n      swap1\n      0x00\n      mstore\n      keccak256(0x00, 0x20)\n      swap1\n      0x04\n      mul\n      add\n        /* \"Lincloud/.deps/contract/contract2.sol\":6068:6100  recipients_list[i].isTimeExpired */\n      0x03\n      add\n      0x01\n      swap1\n      sload\n      swap1\n      0x0100\n      exp\n      swap1\n      div\n      0xff\n      and\n        /* \"Lincloud/.deps/contract/contract2.sol\":6068:6108  recipients_list[i].isTimeExpired == true */\n      iszero\n      iszero\n      eq\n        /* \"Lincloud/.deps/contract/contract2.sol\":5978:6108  recipients_list[i].responseState == recipient_response_state.rejected... */\n    tag_219:\n        /* \"Lincloud/.deps/contract/contract2.sol\":5974:6211  if (recipients_list[i].responseState == recipient_response_state.rejected... */\n      iszero\n      tag_223\n      jumpi\n        /* \"Lincloud/.deps/contract/contract2.sol\":6132:6191  return \"Rejected, time expired: no response from recipient\" */\n      mload(0x40)\n      dup1\n      0x60\n      add\n      0x40\n      mstore\n      dup1\n      0x32\n      dup2\n      mstore\n      0x20\n      add\n      data_f24287593e6ff8cd2dd5c9566b62a6e4ef3410d308e49b0cf6e766b8cdd73b1d\n      0x32\n      swap2\n      codecopy\n      swap2\n      pop\n      pop\n      jump(tag_181)\n        /* \"Lincloud/.deps/contract/contract2.sol\":5974:6211  if (recipients_list[i].responseState == recipient_response_state.rejected... */\n    tag_223:\n        /* \"Lincloud/.deps/contract/contract2.sol\":5505:6226  if(recipients_list[i].id_recipient == recipientId){... */\n    tag_189:\n        /* \"Lincloud/.deps/contract/contract2.sol\":5485:5488  i++ */\n      dup1\n      dup1\n      0x01\n      add\n      swap2\n      pop\n      pop\n        /* \"Lincloud/.deps/contract/contract2.sol\":5437:6237  for (uint256 i = 0; i < recipients_list.length; i++) {... */\n      jump(tag_183)\n    tag_184:\n      pop\n        /* \"Lincloud/.deps/contract/contract2.sol\":6247:6262  return \"nodata\" */\n      mload(0x40)\n      dup1\n      0x40\n      add\n      0x40\n      mstore\n      dup1\n      0x06\n      dup2\n      mstore\n      0x20\n      add\n      0x6e6f646174610000000000000000000000000000000000000000000000000000\n      dup2\n      mstore\n      pop\n      swap1\n      pop\n        /* \"Lincloud/.deps/contract/contract2.sol\":5302:6270  function getRecipientResponse(uint256 recipientId) public view returns(string memory){... */\n    tag_181:\n      swap2\n      swap1\n      pop\n      jump\t// out\n        /* \"Lincloud/.deps/contract/contract2.sol\":92:112  address public owner */\n    tag_65:\n      0x00\n      dup1\n      sload\n      swap1\n      0x0100\n      exp\n      swap1\n      div\n      0xffffffffffffffffffffffffffffffffffffffff\n      and\n      dup2\n      jump\t// out\n        /* \"Lincloud/.deps/contract/contract2.sol\":147:173  string public contractHash */\n    tag_69:\n      0x02\n      dup1\n      sload\n      tag_224\n      swap1\n      tag_145\n      jump\t// in\n    tag_224:\n      dup1\n      0x1f\n      add\n      0x20\n      dup1\n      swap2\n      div\n      mul\n      0x20\n      add\n      mload(0x40)\n      swap1\n      dup2\n      add\n      0x40\n      mstore\n      dup1\n      swap3\n      swap2\n      swap1\n      dup2\n      dup2\n      mstore\n      0x20\n      add\n      dup3\n      dup1\n      sload\n      tag_225\n      swap1\n      tag_145\n      jump\t// in\n    tag_225:\n      dup1\n      iszero\n      tag_226\n      jumpi\n      dup1\n      0x1f\n      lt\n      tag_227\n      jumpi\n      0x0100\n      dup1\n      dup4\n      sload\n      div\n      mul\n      dup4\n      mstore\n      swap2\n      0x20\n      add\n      swap2\n      jump(tag_226)\n    tag_227:\n      dup3\n      add\n      swap2\n      swap1\n      0x00\n      mstore\n      keccak256(0x00, 0x20)\n      swap1\n    tag_228:\n      dup2\n      sload\n      dup2\n      mstore\n      swap1\n      0x01\n      add\n      swap1\n      0x20\n      add\n      dup1\n      dup4\n      gt\n      tag_228\n      jumpi\n      dup3\n      swap1\n      sub\n      0x1f\n      and\n      dup3\n      add\n      swap2\n    tag_226:\n      pop\n      pop\n      pop\n      pop\n      pop\n      dup2\n      jump\t// out\n        /* \"Lincloud/.deps/contract/contract2.sol\":2089:2660  function setRecipientTimeStamp(uint256 recipientId, string memory time, string memory date) external {... */\n    tag_74:\n        /* \"Lincloud/.deps/contract/contract2.sol\":2223:2228  owner */\n      0x00\n      dup1\n      sload\n      swap1\n      0x0100\n      exp\n      swap1\n      div\n      0xffffffffffffffffffffffffffffffffffffffff\n      and\n        /* \"Lincloud/.deps/contract/contract2.sol\":2209:2228  msg.sender == owner */\n      0xffffffffffffffffffffffffffffffffffffffff\n      and\n        /* \"Lincloud/.deps/contract/contract2.sol\":2209:2219  msg.sender */\n      caller\n        /* \"Lincloud/.deps/contract/contract2.sol\":2209:2228  msg.sender == owner */\n      0xffffffffffffffffffffffffffffffffffffffff\n      and\n      eq\n        /* \"Lincloud/.deps/contract/contract2.sol\":2201:2229  require(msg.sender == owner) */\n      tag_230\n      jumpi\n      0x00\n      dup1\n      revert\n    tag_230:\n        /* \"Lincloud/.deps/contract/contract2.sol\":2268:2273  false */\n      0x00\n        /* \"Lincloud/.deps/contract/contract2.sol\":2248:2273  isContractClosed == false */\n      iszero\n      iszero\n        /* \"Lincloud/.deps/contract/contract2.sol\":2248:2264  isContractClosed */\n      0x03\n      0x00\n      swap1\n      sload\n      swap1\n      0x0100\n      exp\n      swap1\n      div\n      0xff\n      and\n        /* \"Lincloud/.deps/contract/contract2.sol\":2248:2273  isContractClosed == false */\n      iszero\n      iszero\n      eq\n        /* \"Lincloud/.deps/contract/contract2.sol\":2240:2302  require(isContractClosed == false, \"Smart Contract is closed\") */\n      tag_231\n      jumpi\n      mload(0x40)\n      0x08c379a000000000000000000000000000000000000000000000000000000000\n      dup2\n      mstore\n      0x04\n      add\n      tag_232\n      swap1\n      tag_98\n      jump\t// in\n    tag_232:\n      mload(0x40)\n      dup1\n      swap2\n      sub\n      swap1\n      revert\n    tag_231:\n        /* \"Lincloud/.deps/contract/contract2.sol\":2342:2361  user_state.deceased */\n      0x00\n        /* \"Lincloud/.deps/contract/contract2.sol\":2321:2361  actual_user_state == user_state.deceased */\n      0x01\n      dup2\n      gt\n      iszero\n      tag_233\n      jumpi\n      tag_234\n      tag_101\n      jump\t// in\n    tag_234:\n    tag_233:\n        /* \"Lincloud/.deps/contract/contract2.sol\":2321:2338  actual_user_state */\n      0x03\n      0x01\n      swap1\n      sload\n      swap1\n      0x0100\n      exp\n      swap1\n      div\n      0xff\n      and\n        /* \"Lincloud/.deps/contract/contract2.sol\":2321:2361  actual_user_state == user_state.deceased */\n      0x01\n      dup2\n      gt\n      iszero\n      tag_235\n      jumpi\n      tag_236\n      tag_101\n      jump\t// in\n    tag_236:\n    tag_235:\n      eq\n        /* \"Lincloud/.deps/contract/contract2.sol\":2313:2385  require(actual_user_state == user_state.deceased, \"User is still alive\") */\n      tag_237\n      jumpi\n      mload(0x40)\n      0x08c379a000000000000000000000000000000000000000000000000000000000\n      dup2\n      mstore\n      0x04\n      add\n      tag_238\n      swap1\n      tag_106\n      jump\t// in\n    tag_238:\n      mload(0x40)\n      dup1\n      swap2\n      sub\n      swap1\n      revert\n    tag_237:\n        /* \"Lincloud/.deps/contract/contract2.sol\":2401:2410  uint256 i */\n      0x00\n        /* \"Lincloud/.deps/contract/contract2.sol\":2396:2653  for (uint256 i = 0; i < recipients_list.length; i++) {... */\n    tag_239:\n        /* \"Lincloud/.deps/contract/contract2.sol\":2420:2435  recipients_list */\n      0x04\n        /* \"Lincloud/.deps/contract/contract2.sol\":2420:2442  recipients_list.length */\n      dup1\n      sload\n      swap1\n      pop\n        /* \"Lincloud/.deps/contract/contract2.sol\":2416:2417  i */\n      dup2\n        /* \"Lincloud/.deps/contract/contract2.sol\":2416:2442  i < recipients_list.length */\n      lt\n        /* \"Lincloud/.deps/contract/contract2.sol\":2396:2653  for (uint256 i = 0; i < recipients_list.length; i++) {... */\n      iszero\n      tag_240\n      jumpi\n        /* \"Lincloud/.deps/contract/contract2.sol\":2503:2514  recipientId */\n      dup4\n        /* \"Lincloud/.deps/contract/contract2.sol\":2468:2483  recipients_list */\n      0x04\n        /* \"Lincloud/.deps/contract/contract2.sol\":2484:2485  i */\n      dup3\n        /* \"Lincloud/.deps/contract/contract2.sol\":2468:2486  recipients_list[i] */\n      dup2\n      sload\n      dup2\n      lt\n      tag_242\n      jumpi\n      tag_243\n      tag_122\n      jump\t// in\n    tag_243:\n    tag_242:\n      swap1\n      0x00\n      mstore\n      keccak256(0x00, 0x20)\n      swap1\n      0x04\n      mul\n      add\n        /* \"Lincloud/.deps/contract/contract2.sol\":2468:2499  recipients_list[i].id_recipient */\n      0x00\n      add\n      sload\n        /* \"Lincloud/.deps/contract/contract2.sol\":2468:2514  recipients_list[i].id_recipient == recipientId */\n      sub\n        /* \"Lincloud/.deps/contract/contract2.sol\":2464:2630  if (recipients_list[i].id_recipient == recipientId) {... */\n      tag_245\n      jumpi\n        /* \"Lincloud/.deps/contract/contract2.sol\":2561:2565  time */\n      dup3\n        /* \"Lincloud/.deps/contract/contract2.sol\":2535:2550  recipients_list */\n      0x04\n        /* \"Lincloud/.deps/contract/contract2.sol\":2551:2552  i */\n      dup3\n        /* \"Lincloud/.deps/contract/contract2.sol\":2535:2553  recipients_list[i] */\n      dup2\n      sload\n      dup2\n      lt\n      tag_246\n      jumpi\n      tag_247\n      tag_122\n      jump\t// in\n    tag_247:\n    tag_246:\n      swap1\n      0x00\n      mstore\n      keccak256(0x00, 0x20)\n      swap1\n      0x04\n      mul\n      add\n        /* \"Lincloud/.deps/contract/contract2.sol\":2535:2558  recipients_list[i].time */\n      0x01\n      add\n        /* \"Lincloud/.deps/contract/contract2.sol\":2535:2565  recipients_list[i].time = time */\n      swap1\n      dup2\n      tag_249\n      swap2\n      swap1\n      tag_250\n      jump\t// in\n    tag_249:\n      pop\n        /* \"Lincloud/.deps/contract/contract2.sol\":2610:2614  date */\n      dup2\n        /* \"Lincloud/.deps/contract/contract2.sol\":2584:2599  recipients_list */\n      0x04\n        /* \"Lincloud/.deps/contract/contract2.sol\":2600:2601  i */\n      dup3\n        /* \"Lincloud/.deps/contract/contract2.sol\":2584:2602  recipients_list[i] */\n      dup2\n      sload\n      dup2\n      lt\n      tag_251\n      jumpi\n      tag_252\n      tag_122\n      jump\t// in\n    tag_252:\n    tag_251:\n      swap1\n      0x00\n      mstore\n      keccak256(0x00, 0x20)\n      swap1\n      0x04\n      mul\n      add\n        /* \"Lincloud/.deps/contract/contract2.sol\":2584:2607  recipients_list[i].date */\n      0x02\n      add\n        /* \"Lincloud/.deps/contract/contract2.sol\":2584:2614  recipients_list[i].date = date */\n      swap1\n      dup2\n      tag_254\n      swap2\n      swap1\n      tag_250\n      jump\t// in\n    tag_254:\n      pop\n        /* \"Lincloud/.deps/contract/contract2.sol\":2464:2630  if (recipients_list[i].id_recipient == recipientId) {... */\n    tag_245:\n        /* \"Lincloud/.deps/contract/contract2.sol\":2444:2447  i++ */\n      dup1\n      dup1\n      0x01\n      add\n      swap2\n      pop\n      pop\n        /* \"Lincloud/.deps/contract/contract2.sol\":2396:2653  for (uint256 i = 0; i < recipients_list.length; i++) {... */\n      jump(tag_239)\n    tag_240:\n      pop\n        /* \"Lincloud/.deps/contract/contract2.sol\":2089:2660  function setRecipientTimeStamp(uint256 recipientId, string memory time, string memory date) external {... */\n      pop\n      pop\n      pop\n      jump\t// out\n        /* \"Lincloud/.deps/contract/contract2.sol\":180:208  bool public isContractClosed */\n    tag_76:\n      0x03\n      0x00\n      swap1\n      sload\n      swap1\n      0x0100\n      exp\n      swap1\n      div\n      0xff\n      and\n      dup2\n      jump\t// out\n        /* \"Lincloud/.deps/contract/contract2.sol\":1779:2081  function setUserStateToDeceased() external {... */\n    tag_80:\n        /* \"Lincloud/.deps/contract/contract2.sol\":1855:1860  owner */\n      0x00\n      dup1\n      sload\n      swap1\n      0x0100\n      exp\n      swap1\n      div\n      0xffffffffffffffffffffffffffffffffffffffff\n      and\n        /* \"Lincloud/.deps/contract/contract2.sol\":1841:1860  msg.sender == owner */\n      0xffffffffffffffffffffffffffffffffffffffff\n      and\n        /* \"Lincloud/.deps/contract/contract2.sol\":1841:1851  msg.sender */\n      caller\n        /* \"Lincloud/.deps/contract/contract2.sol\":1841:1860  msg.sender == owner */\n      0xffffffffffffffffffffffffffffffffffffffff\n      and\n      eq\n        /* \"Lincloud/.deps/contract/contract2.sol\":1833:1861  require(msg.sender == owner) */\n      tag_256\n      jumpi\n      0x00\n      dup1\n      revert\n    tag_256:\n        /* \"Lincloud/.deps/contract/contract2.sol\":1901:1917  user_state.alive */\n      0x01\n        /* \"Lincloud/.deps/contract/contract2.sol\":1880:1917  actual_user_state == user_state.alive */\n      dup1\n      dup2\n      gt\n      iszero\n      tag_257\n      jumpi\n      tag_258\n      tag_101\n      jump\t// in\n    tag_258:\n    tag_257:\n        /* \"Lincloud/.deps/contract/contract2.sol\":1880:1897  actual_user_state */\n      0x03\n      0x01\n      swap1\n      sload\n      swap1\n      0x0100\n      exp\n      swap1\n      div\n      0xff\n      and\n        /* \"Lincloud/.deps/contract/contract2.sol\":1880:1917  actual_user_state == user_state.alive */\n      0x01\n      dup2\n      gt\n      iszero\n      tag_259\n      jumpi\n      tag_260\n      tag_101\n      jump\t// in\n    tag_260:\n    tag_259:\n      eq\n        /* \"Lincloud/.deps/contract/contract2.sol\":1872:1950  require(actual_user_state == user_state.alive, \"User deceased is already set\") */\n      tag_261\n      jumpi\n      mload(0x40)\n      0x08c379a000000000000000000000000000000000000000000000000000000000\n      dup2\n      mstore\n      0x04\n      add\n      tag_262\n      swap1\n      tag_263\n      jump\t// in\n    tag_262:\n      mload(0x40)\n      dup1\n      swap2\n      sub\n      swap1\n      revert\n    tag_261:\n        /* \"Lincloud/.deps/contract/contract2.sol\":1989:1994  false */\n      0x00\n        /* \"Lincloud/.deps/contract/contract2.sol\":1969:1994  isContractClosed == false */\n      iszero\n      iszero\n        /* \"Lincloud/.deps/contract/contract2.sol\":1969:1985  isContractClosed */\n      0x03\n      0x00\n      swap1\n      sload\n      swap1\n      0x0100\n      exp\n      swap1\n      div\n      0xff\n      and\n        /* \"Lincloud/.deps/contract/contract2.sol\":1969:1994  isContractClosed == false */\n      iszero\n      iszero\n      eq\n        /* \"Lincloud/.deps/contract/contract2.sol\":1961:2023  require(isContractClosed == false, \"Smart Contract is closed\") */\n      tag_264\n      jumpi\n      mload(0x40)\n      0x08c379a000000000000000000000000000000000000000000000000000000000\n      dup2\n      mstore\n      0x04\n      add\n      tag_265\n      swap1\n      tag_98\n      jump\t// in\n    tag_265:\n      mload(0x40)\n      dup1\n      swap2\n      sub\n      swap1\n      revert\n    tag_264:\n        /* \"Lincloud/.deps/contract/contract2.sol\":2054:2073  user_state.deceased */\n      0x00\n        /* \"Lincloud/.deps/contract/contract2.sol\":2034:2051  actual_user_state */\n      0x03\n      0x01\n        /* \"Lincloud/.deps/contract/contract2.sol\":2034:2073  actual_user_state = user_state.deceased */\n      0x0100\n      exp\n      dup2\n      sload\n      dup2\n      0xff\n      mul\n      not\n      and\n      swap1\n      dup4\n      0x01\n      dup2\n      gt\n      iszero\n      tag_266\n      jumpi\n      tag_267\n      tag_101\n      jump\t// in\n    tag_267:\n    tag_266:\n      mul\n      or\n      swap1\n      sstore\n      pop\n        /* \"Lincloud/.deps/contract/contract2.sol\":1779:2081  function setUserStateToDeceased() external {... */\n      jump\t// out\n        /* \"Lincloud/.deps/contract/contract2.sol\":3895:4257  function getAllRecipients() public view returns (uint256[] memory){... */\n    tag_82:\n        /* \"Lincloud/.deps/contract/contract2.sol\":3944:3960  uint256[] memory */\n      0x60\n        /* \"Lincloud/.deps/contract/contract2.sol\":3994:3999  owner */\n      0x00\n      dup1\n      sload\n      swap1\n      0x0100\n      exp\n      swap1\n      div\n      0xffffffffffffffffffffffffffffffffffffffff\n      and\n        /* \"Lincloud/.deps/contract/contract2.sol\":3980:3999  msg.sender == owner */\n      0xffffffffffffffffffffffffffffffffffffffff\n      and\n        /* \"Lincloud/.deps/contract/contract2.sol\":3980:3990  msg.sender */\n      caller\n        /* \"Lincloud/.deps/contract/contract2.sol\":3980:3999  msg.sender == owner */\n      0xffffffffffffffffffffffffffffffffffffffff\n      and\n      eq\n        /* \"Lincloud/.deps/contract/contract2.sol\":3972:4000  require(msg.sender == owner) */\n      tag_269\n      jumpi\n      0x00\n      dup1\n      revert\n    tag_269:\n        /* \"Lincloud/.deps/contract/contract2.sol\":4011:4040  uint256[] memory recipientIDs */\n      0x00\n        /* \"Lincloud/.deps/contract/contract2.sol\":4057:4072  recipients_list */\n      0x04\n        /* \"Lincloud/.deps/contract/contract2.sol\":4057:4079  recipients_list.length */\n      dup1\n      sload\n      swap1\n      pop\n        /* \"Lincloud/.deps/contract/contract2.sol\":4043:4080  new uint256[](recipients_list.length) */\n      0xffffffffffffffff\n      dup2\n      gt\n      iszero\n      tag_270\n      jumpi\n      tag_271\n      tag_159\n      jump\t// in\n    tag_271:\n    tag_270:\n      mload(0x40)\n      swap1\n      dup1\n      dup3\n      mstore\n      dup1\n      0x20\n      mul\n      0x20\n      add\n      dup3\n      add\n      0x40\n      mstore\n      dup1\n      iszero\n      tag_272\n      jumpi\n      dup2\n      0x20\n      add\n      0x20\n      dup3\n      mul\n      dup1\n      calldatasize\n      dup4\n      calldatacopy\n      dup1\n      dup3\n      add\n      swap2\n      pop\n      pop\n      swap1\n      pop\n    tag_272:\n      pop\n        /* \"Lincloud/.deps/contract/contract2.sol\":4011:4080  uint256[] memory recipientIDs = new uint256[](recipients_list.length) */\n      swap1\n      pop\n        /* \"Lincloud/.deps/contract/contract2.sol\":4096:4105  uint256 i */\n      0x00\n        /* \"Lincloud/.deps/contract/contract2.sol\":4091:4220  for (uint256 i = 0; i < recipients_list.length; i++) {... */\n    tag_273:\n        /* \"Lincloud/.deps/contract/contract2.sol\":4115:4130  recipients_list */\n      0x04\n        /* \"Lincloud/.deps/contract/contract2.sol\":4115:4137  recipients_list.length */\n      dup1\n      sload\n      swap1\n      pop\n        /* \"Lincloud/.deps/contract/contract2.sol\":4111:4112  i */\n      dup2\n        /* \"Lincloud/.deps/contract/contract2.sol\":4111:4137  i < recipients_list.length */\n      lt\n        /* \"Lincloud/.deps/contract/contract2.sol\":4091:4220  for (uint256 i = 0; i < recipients_list.length; i++) {... */\n      iszero\n      tag_274\n      jumpi\n        /* \"Lincloud/.deps/contract/contract2.sol\":4177:4192  recipients_list */\n      0x04\n        /* \"Lincloud/.deps/contract/contract2.sol\":4193:4194  i */\n      dup2\n        /* \"Lincloud/.deps/contract/contract2.sol\":4177:4195  recipients_list[i] */\n      dup2\n      sload\n      dup2\n      lt\n      tag_276\n      jumpi\n      tag_277\n      tag_122\n      jump\t// in\n    tag_277:\n    tag_276:\n      swap1\n      0x00\n      mstore\n      keccak256(0x00, 0x20)\n      swap1\n      0x04\n      mul\n      add\n        /* \"Lincloud/.deps/contract/contract2.sol\":4177:4208  recipients_list[i].id_recipient */\n      0x00\n      add\n      sload\n        /* \"Lincloud/.deps/contract/contract2.sol\":4159:4171  recipientIDs */\n      dup3\n        /* \"Lincloud/.deps/contract/contract2.sol\":4172:4173  i */\n      dup3\n        /* \"Lincloud/.deps/contract/contract2.sol\":4159:4174  recipientIDs[i] */\n      dup2\n      mload\n      dup2\n      lt\n      tag_279\n      jumpi\n      tag_280\n      tag_122\n      jump\t// in\n    tag_280:\n    tag_279:\n      0x20\n      mul\n      0x20\n      add\n      add\n        /* \"Lincloud/.deps/contract/contract2.sol\":4159:4208  recipientIDs[i] = recipients_list[i].id_recipient */\n      dup2\n      dup2\n      mstore\n      pop\n      pop\n        /* \"Lincloud/.deps/contract/contract2.sol\":4139:4142  i++ */\n      dup1\n      dup1\n      0x01\n      add\n      swap2\n      pop\n      pop\n        /* \"Lincloud/.deps/contract/contract2.sol\":4091:4220  for (uint256 i = 0; i < recipients_list.length; i++) {... */\n      jump(tag_273)\n    tag_274:\n      pop\n        /* \"Lincloud/.deps/contract/contract2.sol\":4237:4249  recipientIDs */\n      dup1\n        /* \"Lincloud/.deps/contract/contract2.sol\":4230:4249  return recipientIDs */\n      swap2\n      pop\n      pop\n        /* \"Lincloud/.deps/contract/contract2.sol\":3895:4257  function getAllRecipients() public view returns (uint256[] memory){... */\n      swap1\n      jump\t// out\n        /* \"Lincloud/.deps/contract/contract2.sol\":4871:5294  function getRecipientTimeStamp(uint256 recipientId) public view returns(string memory){... */\n    tag_86:\n        /* \"Lincloud/.deps/contract/contract2.sol\":4943:4956  string memory */\n      0x60\n        /* \"Lincloud/.deps/contract/contract2.sol\":4990:4995  owner */\n      0x00\n      dup1\n      sload\n      swap1\n      0x0100\n      exp\n      swap1\n      div\n      0xffffffffffffffffffffffffffffffffffffffff\n      and\n        /* \"Lincloud/.deps/contract/contract2.sol\":4976:4995  msg.sender == owner */\n      0xffffffffffffffffffffffffffffffffffffffff\n      and\n        /* \"Lincloud/.deps/contract/contract2.sol\":4976:4986  msg.sender */\n      caller\n        /* \"Lincloud/.deps/contract/contract2.sol\":4976:4995  msg.sender == owner */\n      0xffffffffffffffffffffffffffffffffffffffff\n      and\n      eq\n        /* \"Lincloud/.deps/contract/contract2.sol\":4968:4996  require(msg.sender == owner) */\n      tag_282\n      jumpi\n      0x00\n      dup1\n      revert\n    tag_282:\n        /* \"Lincloud/.deps/contract/contract2.sol\":5012:5021  uint256 i */\n      0x00\n        /* \"Lincloud/.deps/contract/contract2.sol\":5007:5261  for (uint256 i = 0; i < recipients_list.length; i++) {... */\n    tag_283:\n        /* \"Lincloud/.deps/contract/contract2.sol\":5031:5046  recipients_list */\n      0x04\n        /* \"Lincloud/.deps/contract/contract2.sol\":5031:5053  recipients_list.length */\n      dup1\n      sload\n      swap1\n      pop\n        /* \"Lincloud/.deps/contract/contract2.sol\":5027:5028  i */\n      dup2\n        /* \"Lincloud/.deps/contract/contract2.sol\":5027:5053  i < recipients_list.length */\n      lt\n        /* \"Lincloud/.deps/contract/contract2.sol\":5007:5261  for (uint256 i = 0; i < recipients_list.length; i++) {... */\n      iszero\n      tag_284\n      jumpi\n        /* \"Lincloud/.deps/contract/contract2.sol\":5113:5124  recipientId */\n      dup3\n        /* \"Lincloud/.deps/contract/contract2.sol\":5078:5093  recipients_list */\n      0x04\n        /* \"Lincloud/.deps/contract/contract2.sol\":5094:5095  i */\n      dup3\n        /* \"Lincloud/.deps/contract/contract2.sol\":5078:5096  recipients_list[i] */\n      dup2\n      sload\n      dup2\n      lt\n      tag_286\n      jumpi\n      tag_287\n      tag_122\n      jump\t// in\n    tag_287:\n    tag_286:\n      swap1\n      0x00\n      mstore\n      keccak256(0x00, 0x20)\n      swap1\n      0x04\n      mul\n      add\n        /* \"Lincloud/.deps/contract/contract2.sol\":5078:5109  recipients_list[i].id_recipient */\n      0x00\n      add\n      sload\n        /* \"Lincloud/.deps/contract/contract2.sol\":5078:5124  recipients_list[i].id_recipient == recipientId */\n      sub\n        /* \"Lincloud/.deps/contract/contract2.sol\":5075:5250  if(recipients_list[i].id_recipient == recipientId){... */\n      tag_289\n      jumpi\n        /* \"Lincloud/.deps/contract/contract2.sol\":5179:5194  recipients_list */\n      0x04\n        /* \"Lincloud/.deps/contract/contract2.sol\":5195:5196  i */\n      dup2\n        /* \"Lincloud/.deps/contract/contract2.sol\":5179:5197  recipients_list[i] */\n      dup2\n      sload\n      dup2\n      lt\n      tag_290\n      jumpi\n      tag_291\n      tag_122\n      jump\t// in\n    tag_291:\n    tag_290:\n      swap1\n      0x00\n      mstore\n      keccak256(0x00, 0x20)\n      swap1\n      0x04\n      mul\n      add\n        /* \"Lincloud/.deps/contract/contract2.sol\":5179:5202  recipients_list[i].date */\n      0x02\n      add\n        /* \"Lincloud/.deps/contract/contract2.sol\":5165:5208  string.concat(recipients_list[i].date, \" \") */\n      add(0x20, mload(0x40))\n      tag_293\n      swap2\n      swap1\n      tag_294\n      jump\t// in\n    tag_293:\n      mload(0x40)\n      0x20\n      dup2\n      dup4\n      sub\n      sub\n      dup2\n      mstore\n      swap1\n      0x40\n      mstore\n        /* \"Lincloud/.deps/contract/contract2.sol\":5210:5225  recipients_list */\n      0x04\n        /* \"Lincloud/.deps/contract/contract2.sol\":5226:5227  i */\n      dup3\n        /* \"Lincloud/.deps/contract/contract2.sol\":5210:5228  recipients_list[i] */\n      dup2\n      sload\n      dup2\n      lt\n      tag_295\n      jumpi\n      tag_296\n      tag_122\n      jump\t// in\n    tag_296:\n    tag_295:\n      swap1\n      0x00\n      mstore\n      keccak256(0x00, 0x20)\n      swap1\n      0x04\n      mul\n      add\n        /* \"Lincloud/.deps/contract/contract2.sol\":5210:5233  recipients_list[i].time */\n      0x01\n      add\n        /* \"Lincloud/.deps/contract/contract2.sol\":5151:5234  string.concat(string.concat(recipients_list[i].date, \" \"), recipients_list[i].time) */\n      add(0x20, mload(0x40))\n      tag_298\n      swap3\n      swap2\n      swap1\n      tag_299\n      jump\t// in\n    tag_298:\n      mload(0x40)\n      0x20\n      dup2\n      dup4\n      sub\n      sub\n      dup2\n      mstore\n      swap1\n      0x40\n      mstore\n        /* \"Lincloud/.deps/contract/contract2.sol\":5144:5234  return string.concat(string.concat(recipients_list[i].date, \" \"), recipients_list[i].time) */\n      swap2\n      pop\n      pop\n      jump(tag_281)\n        /* \"Lincloud/.deps/contract/contract2.sol\":5075:5250  if(recipients_list[i].id_recipient == recipientId){... */\n    tag_289:\n        /* \"Lincloud/.deps/contract/contract2.sol\":5055:5058  i++ */\n      dup1\n      dup1\n      0x01\n      add\n      swap2\n      pop\n      pop\n        /* \"Lincloud/.deps/contract/contract2.sol\":5007:5261  for (uint256 i = 0; i < recipients_list.length; i++) {... */\n      jump(tag_283)\n    tag_284:\n      pop\n        /* \"Lincloud/.deps/contract/contract2.sol\":5271:5286  return \"nodata\" */\n      mload(0x40)\n      dup1\n      0x40\n      add\n      0x40\n      mstore\n      dup1\n      0x06\n      dup2\n      mstore\n      0x20\n      add\n      0x6e6f646174610000000000000000000000000000000000000000000000000000\n      dup2\n      mstore\n      pop\n      swap1\n      pop\n        /* \"Lincloud/.deps/contract/contract2.sol\":4871:5294  function getRecipientTimeStamp(uint256 recipientId) public view returns(string memory){... */\n    tag_281:\n      swap2\n      swap1\n      pop\n      jump\t// out\n        /* \"Lincloud/.deps/contract/contract2.sol\":1487:1771  function addOracle(uint256 oracleId) external { ... */\n    tag_90:\n        /* \"Lincloud/.deps/contract/contract2.sol\":1567:1572  owner */\n      0x00\n      dup1\n      sload\n      swap1\n      0x0100\n      exp\n      swap1\n      div\n      0xffffffffffffffffffffffffffffffffffffffff\n      and\n        /* \"Lincloud/.deps/contract/contract2.sol\":1553:1572  msg.sender == owner */\n      0xffffffffffffffffffffffffffffffffffffffff\n      and\n        /* \"Lincloud/.deps/contract/contract2.sol\":1553:1563  msg.sender */\n      caller\n        /* \"Lincloud/.deps/contract/contract2.sol\":1553:1572  msg.sender == owner */\n      0xffffffffffffffffffffffffffffffffffffffff\n      and\n      eq\n        /* \"Lincloud/.deps/contract/contract2.sol\":1545:1573  require(msg.sender == owner) */\n      tag_301\n      jumpi\n      0x00\n      dup1\n      revert\n    tag_301:\n        /* \"Lincloud/.deps/contract/contract2.sol\":1612:1617  false */\n      0x00\n        /* \"Lincloud/.deps/contract/contract2.sol\":1592:1617  isContractClosed == false */\n      iszero\n      iszero\n        /* \"Lincloud/.deps/contract/contract2.sol\":1592:1608  isContractClosed */\n      0x03\n      0x00\n      swap1\n      sload\n      swap1\n      0x0100\n      exp\n      swap1\n      div\n      0xff\n      and\n        /* \"Lincloud/.deps/contract/contract2.sol\":1592:1617  isContractClosed == false */\n      iszero\n      iszero\n      eq\n        /* \"Lincloud/.deps/contract/contract2.sol\":1584:1646  require(isContractClosed == false, \"Smart Contract is closed\") */\n      tag_302\n      jumpi\n      mload(0x40)\n      0x08c379a000000000000000000000000000000000000000000000000000000000\n      dup2\n      mstore\n      0x04\n      add\n      tag_303\n      swap1\n      tag_98\n      jump\t// in\n    tag_303:\n      mload(0x40)\n      dup1\n      swap2\n      sub\n      swap1\n      revert\n    tag_302:\n        /* \"Lincloud/.deps/contract/contract2.sol\":1657:1681  Oracle memory new_oracle */\n      tag_304\n      tag_305\n      jump\t// in\n    tag_304:\n        /* \"Lincloud/.deps/contract/contract2.sol\":1715:1723  oracleId */\n      dup2\n        /* \"Lincloud/.deps/contract/contract2.sol\":1692:1702  new_oracle */\n      dup2\n        /* \"Lincloud/.deps/contract/contract2.sol\":1692:1712  new_oracle.id_oracle */\n      0x00\n      add\n        /* \"Lincloud/.deps/contract/contract2.sol\":1692:1723  new_oracle.id_oracle = oracleId */\n      dup2\n      dup2\n      mstore\n      pop\n      pop\n        /* \"Lincloud/.deps/contract/contract2.sol\":1734:1746  oracles_list */\n      0x05\n        /* \"Lincloud/.deps/contract/contract2.sol\":1752:1762  new_oracle */\n      dup2\n        /* \"Lincloud/.deps/contract/contract2.sol\":1734:1763  oracles_list.push(new_oracle) */\n      swap1\n      dup1\n      0x01\n      dup2\n      sload\n      add\n      dup1\n      dup3\n      sstore\n      dup1\n      swap2\n      pop\n      pop\n      0x01\n      swap1\n      sub\n      swap1\n      0x00\n      mstore\n      keccak256(0x00, 0x20)\n      add\n      0x00\n      swap1\n      swap2\n      swap1\n      swap2\n      swap1\n      swap2\n      pop\n      0x00\n      dup3\n      add\n      mload\n      dup2\n      0x00\n      add\n      sstore\n      pop\n      pop\n        /* \"Lincloud/.deps/contract/contract2.sol\":1533:1771  { ... */\n      pop\n        /* \"Lincloud/.deps/contract/contract2.sol\":1487:1771  function addOracle(uint256 oracleId) external { ... */\n      pop\n      jump\t// out\n        /* \"Lincloud/.deps/contract/contract2.sol\":970:1479  function addRecipient(uint256 recipientId) external { ... */\n    tag_93:\n        /* \"Lincloud/.deps/contract/contract2.sol\":1056:1061  owner */\n      0x00\n      dup1\n      sload\n      swap1\n      0x0100\n      exp\n      swap1\n      div\n      0xffffffffffffffffffffffffffffffffffffffff\n      and\n        /* \"Lincloud/.deps/contract/contract2.sol\":1042:1061  msg.sender == owner */\n      0xffffffffffffffffffffffffffffffffffffffff\n      and\n        /* \"Lincloud/.deps/contract/contract2.sol\":1042:1052  msg.sender */\n      caller\n        /* \"Lincloud/.deps/contract/contract2.sol\":1042:1061  msg.sender == owner */\n      0xffffffffffffffffffffffffffffffffffffffff\n      and\n      eq\n        /* \"Lincloud/.deps/contract/contract2.sol\":1034:1062  require(msg.sender == owner) */\n      tag_308\n      jumpi\n      0x00\n      dup1\n      revert\n    tag_308:\n        /* \"Lincloud/.deps/contract/contract2.sol\":1101:1106  false */\n      0x00\n        /* \"Lincloud/.deps/contract/contract2.sol\":1081:1106  isContractClosed == false */\n      iszero\n      iszero\n        /* \"Lincloud/.deps/contract/contract2.sol\":1081:1097  isContractClosed */\n      0x03\n      0x00\n      swap1\n      sload\n      swap1\n      0x0100\n      exp\n      swap1\n      div\n      0xff\n      and\n        /* \"Lincloud/.deps/contract/contract2.sol\":1081:1106  isContractClosed == false */\n      iszero\n      iszero\n      eq\n        /* \"Lincloud/.deps/contract/contract2.sol\":1073:1135  require(isContractClosed == false, \"Smart Contract is closed\") */\n      tag_309\n      jumpi\n      mload(0x40)\n      0x08c379a000000000000000000000000000000000000000000000000000000000\n      dup2\n      mstore\n      0x04\n      add\n      tag_310\n      swap1\n      tag_98\n      jump\t// in\n    tag_310:\n      mload(0x40)\n      dup1\n      swap2\n      sub\n      swap1\n      revert\n    tag_309:\n        /* \"Lincloud/.deps/contract/contract2.sol\":1146:1176  Recipient memory new_recipient */\n      tag_311\n      tag_312\n      jump\t// in\n    tag_311:\n        /* \"Lincloud/.deps/contract/contract2.sol\":1216:1227  recipientId */\n      dup2\n        /* \"Lincloud/.deps/contract/contract2.sol\":1187:1200  new_recipient */\n      dup2\n        /* \"Lincloud/.deps/contract/contract2.sol\":1187:1213  new_recipient.id_recipient */\n      0x00\n      add\n        /* \"Lincloud/.deps/contract/contract2.sol\":1187:1227  new_recipient.id_recipient = recipientId */\n      dup2\n      dup2\n      mstore\n      pop\n      pop\n        /* \"Lincloud/.deps/contract/contract2.sol\":1268:1299  recipient_response_state.nodata */\n      0x02\n        /* \"Lincloud/.deps/contract/contract2.sol\":1238:1251  new_recipient */\n      dup2\n        /* \"Lincloud/.deps/contract/contract2.sol\":1238:1265  new_recipient.responseState */\n      0x60\n      add\n        /* \"Lincloud/.deps/contract/contract2.sol\":1238:1299  new_recipient.responseState = recipient_response_state.nodata */\n      swap1\n      0x02\n      dup2\n      gt\n      iszero\n      tag_313\n      jumpi\n      tag_314\n      tag_101\n      jump\t// in\n    tag_314:\n    tag_313:\n      swap1\n      dup2\n      0x02\n      dup2\n      gt\n      iszero\n      tag_315\n      jumpi\n      tag_316\n      tag_101\n      jump\t// in\n    tag_316:\n    tag_315:\n      dup2\n      mstore\n      pop\n      pop\n        /* \"Lincloud/.deps/contract/contract2.sol\":1310:1339  new_recipient.time = \"nodata\" */\n      mload(0x40)\n      dup1\n      0x40\n      add\n      0x40\n      mstore\n      dup1\n      0x06\n      dup2\n      mstore\n      0x20\n      add\n      0x6e6f646174610000000000000000000000000000000000000000000000000000\n      dup2\n      mstore\n      pop\n        /* \"Lincloud/.deps/contract/contract2.sol\":1310:1323  new_recipient */\n      dup2\n        /* \"Lincloud/.deps/contract/contract2.sol\":1310:1328  new_recipient.time */\n      0x20\n      add\n        /* \"Lincloud/.deps/contract/contract2.sol\":1310:1339  new_recipient.time = \"nodata\" */\n      dup2\n      swap1\n      mstore\n      pop\n        /* \"Lincloud/.deps/contract/contract2.sol\":1350:1379  new_recipient.date = \"nodata\" */\n      mload(0x40)\n      dup1\n      0x40\n      add\n      0x40\n      mstore\n      dup1\n      0x06\n      dup2\n      mstore\n      0x20\n      add\n      0x6e6f646174610000000000000000000000000000000000000000000000000000\n      dup2\n      mstore\n      pop\n        /* \"Lincloud/.deps/contract/contract2.sol\":1350:1363  new_recipient */\n      dup2\n        /* \"Lincloud/.deps/contract/contract2.sol\":1350:1368  new_recipient.date */\n      0x40\n      add\n        /* \"Lincloud/.deps/contract/contract2.sol\":1350:1379  new_recipient.date = \"nodata\" */\n      dup2\n      swap1\n      mstore\n      pop\n        /* \"Lincloud/.deps/contract/contract2.sol\":1420:1425  false */\n      0x00\n        /* \"Lincloud/.deps/contract/contract2.sol\":1390:1403  new_recipient */\n      dup2\n        /* \"Lincloud/.deps/contract/contract2.sol\":1390:1417  new_recipient.isTimeExpired */\n      0x80\n      add\n        /* \"Lincloud/.deps/contract/contract2.sol\":1390:1425  new_recipient.isTimeExpired = false */\n      swap1\n      iszero\n      iszero\n      swap1\n      dup2\n      iszero\n      iszero\n      dup2\n      mstore\n      pop\n      pop\n        /* \"Lincloud/.deps/contract/contract2.sol\":1436:1451  recipients_list */\n      0x04\n        /* \"Lincloud/.deps/contract/contract2.sol\":1457:1470  new_recipient */\n      dup2\n        /* \"Lincloud/.deps/contract/contract2.sol\":1436:1471  recipients_list.push(new_recipient) */\n      swap1\n      dup1\n      0x01\n      dup2\n      sload\n      add\n      dup1\n      dup3\n      sstore\n      dup1\n      swap2\n      pop\n      pop\n      0x01\n      swap1\n      sub\n      swap1\n      0x00\n      mstore\n      keccak256(0x00, 0x20)\n      swap1\n      0x04\n      mul\n      add\n      0x00\n      swap1\n      swap2\n      swap1\n      swap2\n      swap1\n      swap2\n      pop\n      0x00\n      dup3\n      add\n      mload\n      dup2\n      0x00\n      add\n      sstore\n      0x20\n      dup3\n      add\n      mload\n      dup2\n      0x01\n      add\n      swap1\n      dup2\n      tag_318\n      swap2\n      swap1\n      tag_250\n      jump\t// in\n    tag_318:\n      pop\n      0x40\n      dup3\n      add\n      mload\n      dup2\n      0x02\n      add\n      swap1\n      dup2\n      tag_319\n      swap2\n      swap1\n      tag_250\n      jump\t// in\n    tag_319:\n      pop\n      0x60\n      dup3\n      add\n      mload\n      dup2\n      0x03\n      add\n      exp(0x0100, 0x00)\n      dup2\n      sload\n      dup2\n      0xff\n      mul\n      not\n      and\n      swap1\n      dup4\n      0x02\n      dup2\n      gt\n      iszero\n      tag_320\n      jumpi\n      tag_321\n      tag_101\n      jump\t// in\n    tag_321:\n    tag_320:\n      mul\n      or\n      swap1\n      sstore\n      pop\n      0x80\n      dup3\n      add\n      mload\n      dup2\n      0x03\n      add\n      exp(0x0100, 0x01)\n      dup2\n      sload\n      dup2\n      0xff\n      mul\n      not\n      and\n      swap1\n      dup4\n      iszero\n      iszero\n      mul\n      or\n      swap1\n      sstore\n      pop\n      pop\n      pop\n        /* \"Lincloud/.deps/contract/contract2.sol\":1022:1479  { ... */\n      pop\n        /* \"Lincloud/.deps/contract/contract2.sol\":970:1479  function addRecipient(uint256 recipientId) external { ... */\n      pop\n      jump\t// out\n    tag_305:\n      mload(0x40)\n      dup1\n      0x20\n      add\n      0x40\n      mstore\n      dup1\n      0x00\n      dup2\n      mstore\n      pop\n      swap1\n      jump\t// out\n    tag_312:\n      mload(0x40)\n      dup1\n      0xa0\n      add\n      0x40\n      mstore\n      dup1\n      0x00\n      dup2\n      mstore\n      0x20\n      add\n      0x60\n      dup2\n      mstore\n      0x20\n      add\n      0x60\n      dup2\n      mstore\n      0x20\n      add\n      0x00\n      0x02\n      dup2\n      gt\n      iszero\n      tag_322\n      jumpi\n      tag_323\n      tag_101\n      jump\t// in\n    tag_323:\n    tag_322:\n      dup2\n      mstore\n      0x20\n      add\n      iszero(iszero(0x00))\n      dup2\n      mstore\n      pop\n      swap1\n      jump\t// out\n        /* \"#utility.yul\":7:82   */\n    tag_324:\n        /* \"#utility.yul\":40:46   */\n      0x00\n        /* \"#utility.yul\":73:75   */\n      0x40\n        /* \"#utility.yul\":67:76   */\n      mload\n        /* \"#utility.yul\":57:76   */\n      swap1\n      pop\n        /* \"#utility.yul\":7:82   */\n      swap1\n      jump\t// out\n        /* \"#utility.yul\":88:205   */\n    tag_325:\n        /* \"#utility.yul\":197:198   */\n      0x00\n        /* \"#utility.yul\":194:195   */\n      dup1\n        /* \"#utility.yul\":187:199   */\n      revert\n        /* \"#utility.yul\":211:328   */\n    tag_326:\n        /* \"#utility.yul\":320:321   */\n      0x00\n        /* \"#utility.yul\":317:318   */\n      dup1\n        /* \"#utility.yul\":310:322   */\n      revert\n        /* \"#utility.yul\":334:411   */\n    tag_327:\n        /* \"#utility.yul\":371:378   */\n      0x00\n        /* \"#utility.yul\":400:405   */\n      dup2\n        /* \"#utility.yul\":389:405   */\n      swap1\n      pop\n        /* \"#utility.yul\":334:411   */\n      swap2\n      swap1\n      pop\n      jump\t// out\n        /* \"#utility.yul\":417:539   */\n    tag_328:\n        /* \"#utility.yul\":490:514   */\n      tag_398\n        /* \"#utility.yul\":508:513   */\n      dup2\n        /* \"#utility.yul\":490:514   */\n      tag_327\n      jump\t// in\n    tag_398:\n        /* \"#utility.yul\":483:488   */\n      dup2\n        /* \"#utility.yul\":480:515   */\n      eq\n        /* \"#utility.yul\":470:533   */\n      tag_399\n      jumpi\n        /* \"#utility.yul\":529:530   */\n      0x00\n        /* \"#utility.yul\":526:527   */\n      dup1\n        /* \"#utility.yul\":519:531   */\n      revert\n        /* \"#utility.yul\":470:533   */\n    tag_399:\n        /* \"#utility.yul\":417:539   */\n      pop\n      jump\t// out\n        /* \"#utility.yul\":545:684   */\n    tag_329:\n        /* \"#utility.yul\":591:596   */\n      0x00\n        /* \"#utility.yul\":629:635   */\n      dup2\n        /* \"#utility.yul\":616:636   */\n      calldataload\n        /* \"#utility.yul\":607:636   */\n      swap1\n      pop\n        /* \"#utility.yul\":645:678   */\n      tag_401\n        /* \"#utility.yul\":672:677   */\n      dup2\n        /* \"#utility.yul\":645:678   */\n      tag_328\n      jump\t// in\n    tag_401:\n        /* \"#utility.yul\":545:684   */\n      swap3\n      swap2\n      pop\n      pop\n      jump\t// out\n        /* \"#utility.yul\":690:780   */\n    tag_330:\n        /* \"#utility.yul\":724:731   */\n      0x00\n        /* \"#utility.yul\":767:772   */\n      dup2\n        /* \"#utility.yul\":760:773   */\n      iszero\n        /* \"#utility.yul\":753:774   */\n      iszero\n        /* \"#utility.yul\":742:774   */\n      swap1\n      pop\n        /* \"#utility.yul\":690:780   */\n      swap2\n      swap1\n      pop\n      jump\t// out\n        /* \"#utility.yul\":786:902   */\n    tag_331:\n        /* \"#utility.yul\":856:877   */\n      tag_404\n        /* \"#utility.yul\":871:876   */\n      dup2\n        /* \"#utility.yul\":856:877   */\n      tag_330\n      jump\t// in\n    tag_404:\n        /* \"#utility.yul\":849:854   */\n      dup2\n        /* \"#utility.yul\":846:878   */\n      eq\n        /* \"#utility.yul\":836:896   */\n      tag_405\n      jumpi\n        /* \"#utility.yul\":892:893   */\n      0x00\n        /* \"#utility.yul\":889:890   */\n      dup1\n        /* \"#utility.yul\":882:894   */\n      revert\n        /* \"#utility.yul\":836:896   */\n    tag_405:\n        /* \"#utility.yul\":786:902   */\n      pop\n      jump\t// out\n        /* \"#utility.yul\":908:1041   */\n    tag_332:\n        /* \"#utility.yul\":951:956   */\n      0x00\n        /* \"#utility.yul\":989:995   */\n      dup2\n        /* \"#utility.yul\":976:996   */\n      calldataload\n        /* \"#utility.yul\":967:996   */\n      swap1\n      pop\n        /* \"#utility.yul\":1005:1035   */\n      tag_407\n        /* \"#utility.yul\":1029:1034   */\n      dup2\n        /* \"#utility.yul\":1005:1035   */\n      tag_331\n      jump\t// in\n    tag_407:\n        /* \"#utility.yul\":908:1041   */\n      swap3\n      swap2\n      pop\n      pop\n      jump\t// out\n        /* \"#utility.yul\":1047:1654   */\n    tag_29:\n        /* \"#utility.yul\":1118:1124   */\n      0x00\n        /* \"#utility.yul\":1126:1132   */\n      dup1\n        /* \"#utility.yul\":1134:1140   */\n      0x00\n        /* \"#utility.yul\":1183:1185   */\n      0x60\n        /* \"#utility.yul\":1171:1180   */\n      dup5\n        /* \"#utility.yul\":1162:1169   */\n      dup7\n        /* \"#utility.yul\":1158:1181   */\n      sub\n        /* \"#utility.yul\":1154:1186   */\n      slt\n        /* \"#utility.yul\":1151:1270   */\n      iszero\n      tag_409\n      jumpi\n        /* \"#utility.yul\":1189:1268   */\n      tag_410\n      tag_325\n      jump\t// in\n    tag_410:\n        /* \"#utility.yul\":1151:1270   */\n    tag_409:\n        /* \"#utility.yul\":1309:1310   */\n      0x00\n        /* \"#utility.yul\":1334:1387   */\n      tag_411\n        /* \"#utility.yul\":1379:1386   */\n      dup7\n        /* \"#utility.yul\":1370:1376   */\n      dup3\n        /* \"#utility.yul\":1359:1368   */\n      dup8\n        /* \"#utility.yul\":1355:1377   */\n      add\n        /* \"#utility.yul\":1334:1387   */\n      tag_329\n      jump\t// in\n    tag_411:\n        /* \"#utility.yul\":1324:1387   */\n      swap4\n      pop\n        /* \"#utility.yul\":1280:1397   */\n      pop\n        /* \"#utility.yul\":1436:1438   */\n      0x20\n        /* \"#utility.yul\":1462:1512   */\n      tag_412\n        /* \"#utility.yul\":1504:1511   */\n      dup7\n        /* \"#utility.yul\":1495:1501   */\n      dup3\n        /* \"#utility.yul\":1484:1493   */\n      dup8\n        /* \"#utility.yul\":1480:1502   */\n      add\n        /* \"#utility.yul\":1462:1512   */\n      tag_332\n      jump\t// in\n    tag_412:\n        /* \"#utility.yul\":1452:1512   */\n      swap3\n      pop\n        /* \"#utility.yul\":1407:1522   */\n      pop\n        /* \"#utility.yul\":1561:1563   */\n      0x40\n        /* \"#utility.yul\":1587:1637   */\n      tag_413\n        /* \"#utility.yul\":1629:1636   */\n      dup7\n        /* \"#utility.yul\":1620:1626   */\n      dup3\n        /* \"#utility.yul\":1609:1618   */\n      dup8\n        /* \"#utility.yul\":1605:1627   */\n      add\n        /* \"#utility.yul\":1587:1637   */\n      tag_332\n      jump\t// in\n    tag_413:\n        /* \"#utility.yul\":1577:1637   */\n      swap2\n      pop\n        /* \"#utility.yul\":1532:1647   */\n      pop\n        /* \"#utility.yul\":1047:1654   */\n      swap3\n      pop\n      swap3\n      pop\n      swap3\n      jump\t// out\n        /* \"#utility.yul\":1660:1989   */\n    tag_33:\n        /* \"#utility.yul\":1719:1725   */\n      0x00\n        /* \"#utility.yul\":1768:1770   */\n      0x20\n        /* \"#utility.yul\":1756:1765   */\n      dup3\n        /* \"#utility.yul\":1747:1754   */\n      dup5\n        /* \"#utility.yul\":1743:1766   */\n      sub\n        /* \"#utility.yul\":1739:1771   */\n      slt\n        /* \"#utility.yul\":1736:1855   */\n      iszero\n      tag_415\n      jumpi\n        /* \"#utility.yul\":1774:1853   */\n      tag_416\n      tag_325\n      jump\t// in\n    tag_416:\n        /* \"#utility.yul\":1736:1855   */\n    tag_415:\n        /* \"#utility.yul\":1894:1895   */\n      0x00\n        /* \"#utility.yul\":1919:1972   */\n      tag_417\n        /* \"#utility.yul\":1964:1971   */\n      dup5\n        /* \"#utility.yul\":1955:1961   */\n      dup3\n        /* \"#utility.yul\":1944:1953   */\n      dup6\n        /* \"#utility.yul\":1940:1962   */\n      add\n        /* \"#utility.yul\":1919:1972   */\n      tag_329\n      jump\t// in\n    tag_417:\n        /* \"#utility.yul\":1909:1972   */\n      swap2\n      pop\n        /* \"#utility.yul\":1865:1982   */\n      pop\n        /* \"#utility.yul\":1660:1989   */\n      swap3\n      swap2\n      pop\n      pop\n      jump\t// out\n        /* \"#utility.yul\":1995:2113   */\n    tag_333:\n        /* \"#utility.yul\":2082:2106   */\n      tag_419\n        /* \"#utility.yul\":2100:2105   */\n      dup2\n        /* \"#utility.yul\":2082:2106   */\n      tag_327\n      jump\t// in\n    tag_419:\n        /* \"#utility.yul\":2077:2080   */\n      dup3\n        /* \"#utility.yul\":2070:2107   */\n      mstore\n        /* \"#utility.yul\":1995:2113   */\n      pop\n      pop\n      jump\t// out\n        /* \"#utility.yul\":2119:2341   */\n    tag_36:\n        /* \"#utility.yul\":2212:2216   */\n      0x00\n        /* \"#utility.yul\":2250:2252   */\n      0x20\n        /* \"#utility.yul\":2239:2248   */\n      dup3\n        /* \"#utility.yul\":2235:2253   */\n      add\n        /* \"#utility.yul\":2227:2253   */\n      swap1\n      pop\n        /* \"#utility.yul\":2263:2334   */\n      tag_421\n        /* \"#utility.yul\":2331:2332   */\n      0x00\n        /* \"#utility.yul\":2320:2329   */\n      dup4\n        /* \"#utility.yul\":2316:2333   */\n      add\n        /* \"#utility.yul\":2307:2313   */\n      dup5\n        /* \"#utility.yul\":2263:2334   */\n      tag_333\n      jump\t// in\n    tag_421:\n        /* \"#utility.yul\":2119:2341   */\n      swap3\n      swap2\n      pop\n      pop\n      jump\t// out\n        /* \"#utility.yul\":2347:2446   */\n    tag_334:\n        /* \"#utility.yul\":2399:2405   */\n      0x00\n        /* \"#utility.yul\":2433:2438   */\n      dup2\n        /* \"#utility.yul\":2427:2439   */\n      mload\n        /* \"#utility.yul\":2417:2439   */\n      swap1\n      pop\n        /* \"#utility.yul\":2347:2446   */\n      swap2\n      swap1\n      pop\n      jump\t// out\n        /* \"#utility.yul\":2452:2621   */\n    tag_335:\n        /* \"#utility.yul\":2536:2547   */\n      0x00\n        /* \"#utility.yul\":2570:2576   */\n      dup3\n        /* \"#utility.yul\":2565:2568   */\n      dup3\n        /* \"#utility.yul\":2558:2577   */\n      mstore\n        /* \"#utility.yul\":2610:2614   */\n      0x20\n        /* \"#utility.yul\":2605:2608   */\n      dup3\n        /* \"#utility.yul\":2601:2615   */\n      add\n        /* \"#utility.yul\":2586:2615   */\n      swap1\n      pop\n        /* \"#utility.yul\":2452:2621   */\n      swap3\n      swap2\n      pop\n      pop\n      jump\t// out\n        /* \"#utility.yul\":2627:2873   */\n    tag_336:\n        /* \"#utility.yul\":2708:2709   */\n      0x00\n        /* \"#utility.yul\":2718:2831   */\n    tag_425:\n        /* \"#utility.yul\":2732:2738   */\n      dup4\n        /* \"#utility.yul\":2729:2730   */\n      dup2\n        /* \"#utility.yul\":2726:2739   */\n      lt\n        /* \"#utility.yul\":2718:2831   */\n      iszero\n      tag_427\n      jumpi\n        /* \"#utility.yul\":2817:2818   */\n      dup1\n        /* \"#utility.yul\":2812:2815   */\n      dup3\n        /* \"#utility.yul\":2808:2819   */\n      add\n        /* \"#utility.yul\":2802:2820   */\n      mload\n        /* \"#utility.yul\":2798:2799   */\n      dup2\n        /* \"#utility.yul\":2793:2796   */\n      dup5\n        /* \"#utility.yul\":2789:2800   */\n      add\n        /* \"#utility.yul\":2782:2821   */\n      mstore\n        /* \"#utility.yul\":2754:2756   */\n      0x20\n        /* \"#utility.yul\":2751:2752   */\n      dup2\n        /* \"#utility.yul\":2747:2757   */\n      add\n        /* \"#utility.yul\":2742:2757   */\n      swap1\n      pop\n        /* \"#utility.yul\":2718:2831   */\n      jump(tag_425)\n    tag_427:\n        /* \"#utility.yul\":2865:2866   */\n      0x00\n        /* \"#utility.yul\":2856:2862   */\n      dup5\n        /* \"#utility.yul\":2851:2854   */\n      dup5\n        /* \"#utility.yul\":2847:2863   */\n      add\n        /* \"#utility.yul\":2840:2867   */\n      mstore\n        /* \"#utility.yul\":2689:2873   */\n      pop\n        /* \"#utility.yul\":2627:2873   */\n      pop\n      pop\n      pop\n      jump\t// out\n        /* \"#utility.yul\":2879:2981   */\n    tag_337:\n        /* \"#utility.yul\":2920:2926   */\n      0x00\n        /* \"#utility.yul\":2971:2973   */\n      0x1f\n        /* \"#utility.yul\":2967:2974   */\n      not\n        /* \"#utility.yul\":2962:2964   */\n      0x1f\n        /* \"#utility.yul\":2955:2960   */\n      dup4\n        /* \"#utility.yul\":2951:2965   */\n      add\n        /* \"#utility.yul\":2947:2975   */\n      and\n        /* \"#utility.yul\":2937:2975   */\n      swap1\n      pop\n        /* \"#utility.yul\":2879:2981   */\n      swap2\n      swap1\n      pop\n      jump\t// out\n        /* \"#utility.yul\":2987:3364   */\n    tag_338:\n        /* \"#utility.yul\":3075:3078   */\n      0x00\n        /* \"#utility.yul\":3103:3142   */\n      tag_430\n        /* \"#utility.yul\":3136:3141   */\n      dup3\n        /* \"#utility.yul\":3103:3142   */\n      tag_334\n      jump\t// in\n    tag_430:\n        /* \"#utility.yul\":3158:3229   */\n      tag_431\n        /* \"#utility.yul\":3222:3228   */\n      dup2\n        /* \"#utility.yul\":3217:3220   */\n      dup6\n        /* \"#utility.yul\":3158:3229   */\n      tag_335\n      jump\t// in\n    tag_431:\n        /* \"#utility.yul\":3151:3229   */\n      swap4\n      pop\n        /* \"#utility.yul\":3238:3303   */\n      tag_432\n        /* \"#utility.yul\":3296:3302   */\n      dup2\n        /* \"#utility.yul\":3291:3294   */\n      dup6\n        /* \"#utility.yul\":3284:3288   */\n      0x20\n        /* \"#utility.yul\":3277:3282   */\n      dup7\n        /* \"#utility.yul\":3273:3289   */\n      add\n        /* \"#utility.yul\":3238:3303   */\n      tag_336\n      jump\t// in\n    tag_432:\n        /* \"#utility.yul\":3328:3357   */\n      tag_433\n        /* \"#utility.yul\":3350:3356   */\n      dup2\n        /* \"#utility.yul\":3328:3357   */\n      tag_337\n      jump\t// in\n    tag_433:\n        /* \"#utility.yul\":3323:3326   */\n      dup5\n        /* \"#utility.yul\":3319:3358   */\n      add\n        /* \"#utility.yul\":3312:3358   */\n      swap2\n      pop\n        /* \"#utility.yul\":3079:3364   */\n      pop\n        /* \"#utility.yul\":2987:3364   */\n      swap3\n      swap2\n      pop\n      pop\n      jump\t// out\n        /* \"#utility.yul\":3370:3550   */\n    tag_101:\n        /* \"#utility.yul\":3418:3495   */\n      0x4e487b7100000000000000000000000000000000000000000000000000000000\n        /* \"#utility.yul\":3415:3416   */\n      0x00\n        /* \"#utility.yul\":3408:3496   */\n      mstore\n        /* \"#utility.yul\":3515:3519   */\n      0x21\n        /* \"#utility.yul\":3512:3513   */\n      0x04\n        /* \"#utility.yul\":3505:3520   */\n      mstore\n        /* \"#utility.yul\":3539:3543   */\n      0x24\n        /* \"#utility.yul\":3536:3537   */\n      0x00\n        /* \"#utility.yul\":3529:3544   */\n      revert\n        /* \"#utility.yul\":3556:3688   */\n    tag_339:\n        /* \"#utility.yul\":3656:3657   */\n      0x03\n        /* \"#utility.yul\":3649:3654   */\n      dup2\n        /* \"#utility.yul\":3646:3658   */\n      lt\n        /* \"#utility.yul\":3636:3682   */\n      tag_436\n      jumpi\n        /* \"#utility.yul\":3662:3680   */\n      tag_437\n      tag_101\n      jump\t// in\n    tag_437:\n        /* \"#utility.yul\":3636:3682   */\n    tag_436:\n        /* \"#utility.yul\":3556:3688   */\n      pop\n      jump\t// out\n        /* \"#utility.yul\":3694:3859   */\n    tag_340:\n        /* \"#utility.yul\":3758:3765   */\n      0x00\n        /* \"#utility.yul\":3787:3792   */\n      dup2\n        /* \"#utility.yul\":3776:3792   */\n      swap1\n      pop\n        /* \"#utility.yul\":3793:3853   */\n      tag_439\n        /* \"#utility.yul\":3847:3852   */\n      dup3\n        /* \"#utility.yul\":3793:3853   */\n      tag_339\n      jump\t// in\n    tag_439:\n        /* \"#utility.yul\":3694:3859   */\n      swap2\n      swap1\n      pop\n      jump\t// out\n        /* \"#utility.yul\":3865:4030   */\n    tag_341:\n        /* \"#utility.yul\":3940:3949   */\n      0x00\n        /* \"#utility.yul\":3973:4024   */\n      tag_441\n        /* \"#utility.yul\":4018:4023   */\n      dup3\n        /* \"#utility.yul\":3973:4024   */\n      tag_340\n      jump\t// in\n    tag_441:\n        /* \"#utility.yul\":3960:4024   */\n      swap1\n      pop\n        /* \"#utility.yul\":3865:4030   */\n      swap2\n      swap1\n      pop\n      jump\t// out\n        /* \"#utility.yul\":4036:4217   */\n    tag_342:\n        /* \"#utility.yul\":4148:4210   */\n      tag_443\n        /* \"#utility.yul\":4204:4209   */\n      dup2\n        /* \"#utility.yul\":4148:4210   */\n      tag_341\n      jump\t// in\n    tag_443:\n        /* \"#utility.yul\":4143:4146   */\n      dup3\n        /* \"#utility.yul\":4136:4211   */\n      mstore\n        /* \"#utility.yul\":4036:4217   */\n      pop\n      pop\n      jump\t// out\n        /* \"#utility.yul\":4223:4332   */\n    tag_343:\n        /* \"#utility.yul\":4304:4325   */\n      tag_445\n        /* \"#utility.yul\":4319:4324   */\n      dup2\n        /* \"#utility.yul\":4304:4325   */\n      tag_330\n      jump\t// in\n    tag_445:\n        /* \"#utility.yul\":4299:4302   */\n      dup3\n        /* \"#utility.yul\":4292:4326   */\n      mstore\n        /* \"#utility.yul\":4223:4332   */\n      pop\n      pop\n      jump\t// out\n        /* \"#utility.yul\":4338:5222   */\n    tag_41:\n        /* \"#utility.yul\":4602:4606   */\n      0x00\n        /* \"#utility.yul\":4640:4643   */\n      0xa0\n        /* \"#utility.yul\":4629:4638   */\n      dup3\n        /* \"#utility.yul\":4625:4644   */\n      add\n        /* \"#utility.yul\":4617:4644   */\n      swap1\n      pop\n        /* \"#utility.yul\":4654:4725   */\n      tag_447\n        /* \"#utility.yul\":4722:4723   */\n      0x00\n        /* \"#utility.yul\":4711:4720   */\n      dup4\n        /* \"#utility.yul\":4707:4724   */\n      add\n        /* \"#utility.yul\":4698:4704   */\n      dup9\n        /* \"#utility.yul\":4654:4725   */\n      tag_333\n      jump\t// in\n    tag_447:\n        /* \"#utility.yul\":4772:4781   */\n      dup2\n        /* \"#utility.yul\":4766:4770   */\n      dup2\n        /* \"#utility.yul\":4762:4782   */\n      sub\n        /* \"#utility.yul\":4757:4759   */\n      0x20\n        /* \"#utility.yul\":4746:4755   */\n      dup4\n        /* \"#utility.yul\":4742:4760   */\n      add\n        /* \"#utility.yul\":4735:4783   */\n      mstore\n        /* \"#utility.yul\":4800:4878   */\n      tag_448\n        /* \"#utility.yul\":4873:4877   */\n      dup2\n        /* \"#utility.yul\":4864:4870   */\n      dup8\n        /* \"#utility.yul\":4800:4878   */\n      tag_338\n      jump\t// in\n    tag_448:\n        /* \"#utility.yul\":4792:4878   */\n      swap1\n      pop\n        /* \"#utility.yul\":4925:4934   */\n      dup2\n        /* \"#utility.yul\":4919:4923   */\n      dup2\n        /* \"#utility.yul\":4915:4935   */\n      sub\n        /* \"#utility.yul\":4910:4912   */\n      0x40\n        /* \"#utility.yul\":4899:4908   */\n      dup4\n        /* \"#utility.yul\":4895:4913   */\n      add\n        /* \"#utility.yul\":4888:4936   */\n      mstore\n        /* \"#utility.yul\":4953:5031   */\n      tag_449\n        /* \"#utility.yul\":5026:5030   */\n      dup2\n        /* \"#utility.yul\":5017:5023   */\n      dup7\n        /* \"#utility.yul\":4953:5031   */\n      tag_338\n      jump\t// in\n    tag_449:\n        /* \"#utility.yul\":4945:5031   */\n      swap1\n      pop\n        /* \"#utility.yul\":5041:5138   */\n      tag_450\n        /* \"#utility.yul\":5134:5136   */\n      0x60\n        /* \"#utility.yul\":5123:5132   */\n      dup4\n        /* \"#utility.yul\":5119:5137   */\n      add\n        /* \"#utility.yul\":5110:5116   */\n      dup6\n        /* \"#utility.yul\":5041:5138   */\n      tag_342\n      jump\t// in\n    tag_450:\n        /* \"#utility.yul\":5148:5215   */\n      tag_451\n        /* \"#utility.yul\":5210:5213   */\n      0x80\n        /* \"#utility.yul\":5199:5208   */\n      dup4\n        /* \"#utility.yul\":5195:5214   */\n      add\n        /* \"#utility.yul\":5186:5192   */\n      dup5\n        /* \"#utility.yul\":5148:5215   */\n      tag_343\n      jump\t// in\n    tag_451:\n        /* \"#utility.yul\":4338:5222   */\n      swap7\n      swap6\n      pop\n      pop\n      pop\n      pop\n      pop\n      pop\n      jump\t// out\n        /* \"#utility.yul\":5228:5342   */\n    tag_344:\n        /* \"#utility.yul\":5295:5301   */\n      0x00\n        /* \"#utility.yul\":5329:5334   */\n      dup2\n        /* \"#utility.yul\":5323:5335   */\n      mload\n        /* \"#utility.yul\":5313:5335   */\n      swap1\n      pop\n        /* \"#utility.yul\":5228:5342   */\n      swap2\n      swap1\n      pop\n      jump\t// out\n        /* \"#utility.yul\":5348:5532   */\n    tag_345:\n        /* \"#utility.yul\":5447:5458   */\n      0x00\n        /* \"#utility.yul\":5481:5487   */\n      dup3\n        /* \"#utility.yul\":5476:5479   */\n      dup3\n        /* \"#utility.yul\":5469:5488   */\n      mstore\n        /* \"#utility.yul\":5521:5525   */\n      0x20\n        /* \"#utility.yul\":5516:5519   */\n      dup3\n        /* \"#utility.yul\":5512:5526   */\n      add\n        /* \"#utility.yul\":5497:5526   */\n      swap1\n      pop\n        /* \"#utility.yul\":5348:5532   */\n      swap3\n      swap2\n      pop\n      pop\n      jump\t// out\n        /* \"#utility.yul\":5538:5670   */\n    tag_346:\n        /* \"#utility.yul\":5605:5609   */\n      0x00\n        /* \"#utility.yul\":5628:5631   */\n      dup2\n        /* \"#utility.yul\":5620:5631   */\n      swap1\n      pop\n        /* \"#utility.yul\":5658:5662   */\n      0x20\n        /* \"#utility.yul\":5653:5656   */\n      dup3\n        /* \"#utility.yul\":5649:5663   */\n      add\n        /* \"#utility.yul\":5641:5663   */\n      swap1\n      pop\n        /* \"#utility.yul\":5538:5670   */\n      swap2\n      swap1\n      pop\n      jump\t// out\n        /* \"#utility.yul\":5676:5784   */\n    tag_347:\n        /* \"#utility.yul\":5753:5777   */\n      tag_456\n        /* \"#utility.yul\":5771:5776   */\n      dup2\n        /* \"#utility.yul\":5753:5777   */\n      tag_327\n      jump\t// in\n    tag_456:\n        /* \"#utility.yul\":5748:5751   */\n      dup3\n        /* \"#utility.yul\":5741:5778   */\n      mstore\n        /* \"#utility.yul\":5676:5784   */\n      pop\n      pop\n      jump\t// out\n        /* \"#utility.yul\":5790:5969   */\n    tag_348:\n        /* \"#utility.yul\":5859:5869   */\n      0x00\n        /* \"#utility.yul\":5880:5926   */\n      tag_458\n        /* \"#utility.yul\":5922:5925   */\n      dup4\n        /* \"#utility.yul\":5914:5920   */\n      dup4\n        /* \"#utility.yul\":5880:5926   */\n      tag_347\n      jump\t// in\n    tag_458:\n        /* \"#utility.yul\":5958:5962   */\n      0x20\n        /* \"#utility.yul\":5953:5956   */\n      dup4\n        /* \"#utility.yul\":5949:5963   */\n      add\n        /* \"#utility.yul\":5935:5963   */\n      swap1\n      pop\n        /* \"#utility.yul\":5790:5969   */\n      swap3\n      swap2\n      pop\n      pop\n      jump\t// out\n        /* \"#utility.yul\":5975:6088   */\n    tag_349:\n        /* \"#utility.yul\":6045:6049   */\n      0x00\n        /* \"#utility.yul\":6077:6081   */\n      0x20\n        /* \"#utility.yul\":6072:6075   */\n      dup3\n        /* \"#utility.yul\":6068:6082   */\n      add\n        /* \"#utility.yul\":6060:6082   */\n      swap1\n      pop\n        /* \"#utility.yul\":5975:6088   */\n      swap2\n      swap1\n      pop\n      jump\t// out\n        /* \"#utility.yul\":6124:6856   */\n    tag_350:\n        /* \"#utility.yul\":6243:6246   */\n      0x00\n        /* \"#utility.yul\":6272:6326   */\n      tag_461\n        /* \"#utility.yul\":6320:6325   */\n      dup3\n        /* \"#utility.yul\":6272:6326   */\n      tag_344\n      jump\t// in\n    tag_461:\n        /* \"#utility.yul\":6342:6428   */\n      tag_462\n        /* \"#utility.yul\":6421:6427   */\n      dup2\n        /* \"#utility.yul\":6416:6419   */\n      dup6\n        /* \"#utility.yul\":6342:6428   */\n      tag_345\n      jump\t// in\n    tag_462:\n        /* \"#utility.yul\":6335:6428   */\n      swap4\n      pop\n        /* \"#utility.yul\":6452:6508   */\n      tag_463\n        /* \"#utility.yul\":6502:6507   */\n      dup4\n        /* \"#utility.yul\":6452:6508   */\n      tag_346\n      jump\t// in\n    tag_463:\n        /* \"#utility.yul\":6531:6538   */\n      dup1\n        /* \"#utility.yul\":6562:6563   */\n      0x00\n        /* \"#utility.yul\":6547:6831   */\n    tag_464:\n        /* \"#utility.yul\":6572:6578   */\n      dup4\n        /* \"#utility.yul\":6569:6570   */\n      dup2\n        /* \"#utility.yul\":6566:6579   */\n      lt\n        /* \"#utility.yul\":6547:6831   */\n      iszero\n      tag_466\n      jumpi\n        /* \"#utility.yul\":6648:6654   */\n      dup2\n        /* \"#utility.yul\":6642:6655   */\n      mload\n        /* \"#utility.yul\":6675:6738   */\n      tag_467\n        /* \"#utility.yul\":6734:6737   */\n      dup9\n        /* \"#utility.yul\":6719:6732   */\n      dup3\n        /* \"#utility.yul\":6675:6738   */\n      tag_348\n      jump\t// in\n    tag_467:\n        /* \"#utility.yul\":6668:6738   */\n      swap8\n      pop\n        /* \"#utility.yul\":6761:6821   */\n      tag_468\n        /* \"#utility.yul\":6814:6820   */\n      dup4\n        /* \"#utility.yul\":6761:6821   */\n      tag_349\n      jump\t// in\n    tag_468:\n        /* \"#utility.yul\":6751:6821   */\n      swap3\n      pop\n        /* \"#utility.yul\":6607:6831   */\n      pop\n        /* \"#utility.yul\":6594:6595   */\n      0x01\n        /* \"#utility.yul\":6591:6592   */\n      dup2\n        /* \"#utility.yul\":6587:6596   */\n      add\n        /* \"#utility.yul\":6582:6596   */\n      swap1\n      pop\n        /* \"#utility.yul\":6547:6831   */\n      jump(tag_464)\n    tag_466:\n        /* \"#utility.yul\":6551:6565   */\n      pop\n        /* \"#utility.yul\":6847:6850   */\n      dup6\n        /* \"#utility.yul\":6840:6850   */\n      swap4\n      pop\n        /* \"#utility.yul\":6248:6856   */\n      pop\n      pop\n      pop\n        /* \"#utility.yul\":6124:6856   */\n      swap3\n      swap2\n      pop\n      pop\n      jump\t// out\n        /* \"#utility.yul\":6862:7235   */\n    tag_48:\n        /* \"#utility.yul\":7005:7009   */\n      0x00\n        /* \"#utility.yul\":7043:7045   */\n      0x20\n        /* \"#utility.yul\":7032:7041   */\n      dup3\n        /* \"#utility.yul\":7028:7046   */\n      add\n        /* \"#utility.yul\":7020:7046   */\n      swap1\n      pop\n        /* \"#utility.yul\":7092:7101   */\n      dup2\n        /* \"#utility.yul\":7086:7090   */\n      dup2\n        /* \"#utility.yul\":7082:7102   */\n      sub\n        /* \"#utility.yul\":7078:7079   */\n      0x00\n        /* \"#utility.yul\":7067:7076   */\n      dup4\n        /* \"#utility.yul\":7063:7080   */\n      add\n        /* \"#utility.yul\":7056:7103   */\n      mstore\n        /* \"#utility.yul\":7120:7228   */\n      tag_470\n        /* \"#utility.yul\":7223:7227   */\n      dup2\n        /* \"#utility.yul\":7214:7220   */\n      dup5\n        /* \"#utility.yul\":7120:7228   */\n      tag_350\n      jump\t// in\n    tag_470:\n        /* \"#utility.yul\":7112:7228   */\n      swap1\n      pop\n        /* \"#utility.yul\":6862:7235   */\n      swap3\n      swap2\n      pop\n      pop\n      jump\t// out\n        /* \"#utility.yul\":7241:7554   */\n    tag_52:\n        /* \"#utility.yul\":7354:7358   */\n      0x00\n        /* \"#utility.yul\":7392:7394   */\n      0x20\n        /* \"#utility.yul\":7381:7390   */\n      dup3\n        /* \"#utility.yul\":7377:7395   */\n      add\n        /* \"#utility.yul\":7369:7395   */\n      swap1\n      pop\n        /* \"#utility.yul\":7441:7450   */\n      dup2\n        /* \"#utility.yul\":7435:7439   */\n      dup2\n        /* \"#utility.yul\":7431:7451   */\n      sub\n        /* \"#utility.yul\":7427:7428   */\n      0x00\n        /* \"#utility.yul\":7416:7425   */\n      dup4\n        /* \"#utility.yul\":7412:7429   */\n      add\n        /* \"#utility.yul\":7405:7452   */\n      mstore\n        /* \"#utility.yul\":7469:7547   */\n      tag_472\n        /* \"#utility.yul\":7542:7546   */\n      dup2\n        /* \"#utility.yul\":7533:7539   */\n      dup5\n        /* \"#utility.yul\":7469:7547   */\n      tag_338\n      jump\t// in\n    tag_472:\n        /* \"#utility.yul\":7461:7547   */\n      swap1\n      pop\n        /* \"#utility.yul\":7241:7554   */\n      swap3\n      swap2\n      pop\n      pop\n      jump\t// out\n        /* \"#utility.yul\":7560:7678   */\n    tag_351:\n        /* \"#utility.yul\":7646:7647   */\n      0x02\n        /* \"#utility.yul\":7639:7644   */\n      dup2\n        /* \"#utility.yul\":7636:7648   */\n      lt\n        /* \"#utility.yul\":7626:7672   */\n      tag_474\n      jumpi\n        /* \"#utility.yul\":7652:7670   */\n      tag_475\n      tag_101\n      jump\t// in\n    tag_475:\n        /* \"#utility.yul\":7626:7672   */\n    tag_474:\n        /* \"#utility.yul\":7560:7678   */\n      pop\n      jump\t// out\n        /* \"#utility.yul\":7684:7821   */\n    tag_352:\n        /* \"#utility.yul\":7734:7741   */\n      0x00\n        /* \"#utility.yul\":7763:7768   */\n      dup2\n        /* \"#utility.yul\":7752:7768   */\n      swap1\n      pop\n        /* \"#utility.yul\":7769:7815   */\n      tag_477\n        /* \"#utility.yul\":7809:7814   */\n      dup3\n        /* \"#utility.yul\":7769:7815   */\n      tag_351\n      jump\t// in\n    tag_477:\n        /* \"#utility.yul\":7684:7821   */\n      swap2\n      swap1\n      pop\n      jump\t// out\n        /* \"#utility.yul\":7827:7964   */\n    tag_353:\n        /* \"#utility.yul\":7888:7897   */\n      0x00\n        /* \"#utility.yul\":7921:7958   */\n      tag_479\n        /* \"#utility.yul\":7952:7957   */\n      dup3\n        /* \"#utility.yul\":7921:7958   */\n      tag_352\n      jump\t// in\n    tag_479:\n        /* \"#utility.yul\":7908:7958   */\n      swap1\n      pop\n        /* \"#utility.yul\":7827:7964   */\n      swap2\n      swap1\n      pop\n      jump\t// out\n        /* \"#utility.yul\":7970:8123   */\n    tag_354:\n        /* \"#utility.yul\":8068:8116   */\n      tag_481\n        /* \"#utility.yul\":8110:8115   */\n      dup2\n        /* \"#utility.yul\":8068:8116   */\n      tag_353\n      jump\t// in\n    tag_481:\n        /* \"#utility.yul\":8063:8066   */\n      dup3\n        /* \"#utility.yul\":8056:8117   */\n      mstore\n        /* \"#utility.yul\":7970:8123   */\n      pop\n      pop\n      jump\t// out\n        /* \"#utility.yul\":8129:8373   */\n    tag_56:\n        /* \"#utility.yul\":8233:8237   */\n      0x00\n        /* \"#utility.yul\":8271:8273   */\n      0x20\n        /* \"#utility.yul\":8260:8269   */\n      dup3\n        /* \"#utility.yul\":8256:8274   */\n      add\n        /* \"#utility.yul\":8248:8274   */\n      swap1\n      pop\n        /* \"#utility.yul\":8284:8366   */\n      tag_483\n        /* \"#utility.yul\":8363:8364   */\n      0x00\n        /* \"#utility.yul\":8352:8361   */\n      dup4\n        /* \"#utility.yul\":8348:8365   */\n      add\n        /* \"#utility.yul\":8339:8345   */\n      dup5\n        /* \"#utility.yul\":8284:8366   */\n      tag_354\n      jump\t// in\n    tag_483:\n        /* \"#utility.yul\":8129:8373   */\n      swap3\n      swap2\n      pop\n      pop\n      jump\t// out\n        /* \"#utility.yul\":8379:8505   */\n    tag_355:\n        /* \"#utility.yul\":8416:8423   */\n      0x00\n        /* \"#utility.yul\":8456:8498   */\n      0xffffffffffffffffffffffffffffffffffffffff\n        /* \"#utility.yul\":8449:8454   */\n      dup3\n        /* \"#utility.yul\":8445:8499   */\n      and\n        /* \"#utility.yul\":8434:8499   */\n      swap1\n      pop\n        /* \"#utility.yul\":8379:8505   */\n      swap2\n      swap1\n      pop\n      jump\t// out\n        /* \"#utility.yul\":8511:8607   */\n    tag_356:\n        /* \"#utility.yul\":8548:8555   */\n      0x00\n        /* \"#utility.yul\":8577:8601   */\n      tag_486\n        /* \"#utility.yul\":8595:8600   */\n      dup3\n        /* \"#utility.yul\":8577:8601   */\n      tag_355\n      jump\t// in\n    tag_486:\n        /* \"#utility.yul\":8566:8601   */\n      swap1\n      pop\n        /* \"#utility.yul\":8511:8607   */\n      swap2\n      swap1\n      pop\n      jump\t// out\n        /* \"#utility.yul\":8613:8731   */\n    tag_357:\n        /* \"#utility.yul\":8700:8724   */\n      tag_488\n        /* \"#utility.yul\":8718:8723   */\n      dup2\n        /* \"#utility.yul\":8700:8724   */\n      tag_356\n      jump\t// in\n    tag_488:\n        /* \"#utility.yul\":8695:8698   */\n      dup3\n        /* \"#utility.yul\":8688:8725   */\n      mstore\n        /* \"#utility.yul\":8613:8731   */\n      pop\n      pop\n      jump\t// out\n        /* \"#utility.yul\":8737:8959   */\n    tag_67:\n        /* \"#utility.yul\":8830:8834   */\n      0x00\n        /* \"#utility.yul\":8868:8870   */\n      0x20\n        /* \"#utility.yul\":8857:8866   */\n      dup3\n        /* \"#utility.yul\":8853:8871   */\n      add\n        /* \"#utility.yul\":8845:8871   */\n      swap1\n      pop\n        /* \"#utility.yul\":8881:8952   */\n      tag_490\n        /* \"#utility.yul\":8949:8950   */\n      0x00\n        /* \"#utility.yul\":8938:8947   */\n      dup4\n        /* \"#utility.yul\":8934:8951   */\n      add\n        /* \"#utility.yul\":8925:8931   */\n      dup5\n        /* \"#utility.yul\":8881:8952   */\n      tag_357\n      jump\t// in\n    tag_490:\n        /* \"#utility.yul\":8737:8959   */\n      swap3\n      swap2\n      pop\n      pop\n      jump\t// out\n        /* \"#utility.yul\":8965:9082   */\n    tag_358:\n        /* \"#utility.yul\":9074:9075   */\n      0x00\n        /* \"#utility.yul\":9071:9072   */\n      dup1\n        /* \"#utility.yul\":9064:9076   */\n      revert\n        /* \"#utility.yul\":9088:9205   */\n    tag_359:\n        /* \"#utility.yul\":9197:9198   */\n      0x00\n        /* \"#utility.yul\":9194:9195   */\n      dup1\n        /* \"#utility.yul\":9187:9199   */\n      revert\n        /* \"#utility.yul\":9211:9391   */\n    tag_159:\n        /* \"#utility.yul\":9259:9336   */\n      0x4e487b7100000000000000000000000000000000000000000000000000000000\n        /* \"#utility.yul\":9256:9257   */\n      0x00\n        /* \"#utility.yul\":9249:9337   */\n      mstore\n        /* \"#utility.yul\":9356:9360   */\n      0x41\n        /* \"#utility.yul\":9353:9354   */\n      0x04\n        /* \"#utility.yul\":9346:9361   */\n      mstore\n        /* \"#utility.yul\":9380:9384   */\n      0x24\n        /* \"#utility.yul\":9377:9378   */\n      0x00\n        /* \"#utility.yul\":9370:9385   */\n      revert\n        /* \"#utility.yul\":9397:9678   */\n    tag_360:\n        /* \"#utility.yul\":9480:9507   */\n      tag_495\n        /* \"#utility.yul\":9502:9506   */\n      dup3\n        /* \"#utility.yul\":9480:9507   */\n      tag_337\n      jump\t// in\n    tag_495:\n        /* \"#utility.yul\":9472:9478   */\n      dup2\n        /* \"#utility.yul\":9468:9508   */\n      add\n        /* \"#utility.yul\":9610:9616   */\n      dup2\n        /* \"#utility.yul\":9598:9608   */\n      dup2\n        /* \"#utility.yul\":9595:9617   */\n      lt\n        /* \"#utility.yul\":9574:9592   */\n      0xffffffffffffffff\n        /* \"#utility.yul\":9562:9572   */\n      dup3\n        /* \"#utility.yul\":9559:9593   */\n      gt\n        /* \"#utility.yul\":9556:9618   */\n      or\n        /* \"#utility.yul\":9553:9641   */\n      iszero\n      tag_496\n      jumpi\n        /* \"#utility.yul\":9621:9639   */\n      tag_497\n      tag_159\n      jump\t// in\n    tag_497:\n        /* \"#utility.yul\":9553:9641   */\n    tag_496:\n        /* \"#utility.yul\":9661:9671   */\n      dup1\n        /* \"#utility.yul\":9657:9659   */\n      0x40\n        /* \"#utility.yul\":9650:9672   */\n      mstore\n        /* \"#utility.yul\":9440:9678   */\n      pop\n        /* \"#utility.yul\":9397:9678   */\n      pop\n      pop\n      jump\t// out\n        /* \"#utility.yul\":9684:9813   */\n    tag_361:\n        /* \"#utility.yul\":9718:9724   */\n      0x00\n        /* \"#utility.yul\":9745:9765   */\n      tag_499\n      tag_324\n      jump\t// in\n    tag_499:\n        /* \"#utility.yul\":9735:9765   */\n      swap1\n      pop\n        /* \"#utility.yul\":9774:9807   */\n      tag_500\n        /* \"#utility.yul\":9802:9806   */\n      dup3\n        /* \"#utility.yul\":9794:9800   */\n      dup3\n        /* \"#utility.yul\":9774:9807   */\n      tag_360\n      jump\t// in\n    tag_500:\n        /* \"#utility.yul\":9684:9813   */\n      swap2\n      swap1\n      pop\n      jump\t// out\n        /* \"#utility.yul\":9819:10127   */\n    tag_362:\n        /* \"#utility.yul\":9881:9885   */\n      0x00\n        /* \"#utility.yul\":9971:9989   */\n      0xffffffffffffffff\n        /* \"#utility.yul\":9963:9969   */\n      dup3\n        /* \"#utility.yul\":9960:9990   */\n      gt\n        /* \"#utility.yul\":9957:10013   */\n      iszero\n      tag_502\n      jumpi\n        /* \"#utility.yul\":9993:10011   */\n      tag_503\n      tag_159\n      jump\t// in\n    tag_503:\n        /* \"#utility.yul\":9957:10013   */\n    tag_502:\n        /* \"#utility.yul\":10031:10060   */\n      tag_504\n        /* \"#utility.yul\":10053:10059   */\n      dup3\n        /* \"#utility.yul\":10031:10060   */\n      tag_337\n      jump\t// in\n    tag_504:\n        /* \"#utility.yul\":10023:10060   */\n      swap1\n      pop\n        /* \"#utility.yul\":10115:10119   */\n      0x20\n        /* \"#utility.yul\":10109:10113   */\n      dup2\n        /* \"#utility.yul\":10105:10120   */\n      add\n        /* \"#utility.yul\":10097:10120   */\n      swap1\n      pop\n        /* \"#utility.yul\":9819:10127   */\n      swap2\n      swap1\n      pop\n      jump\t// out\n        /* \"#utility.yul\":10133:10279   */\n    tag_363:\n        /* \"#utility.yul\":10230:10236   */\n      dup3\n        /* \"#utility.yul\":10225:10228   */\n      dup2\n        /* \"#utility.yul\":10220:10223   */\n      dup4\n        /* \"#utility.yul\":10207:10237   */\n      calldatacopy\n        /* \"#utility.yul\":10271:10272   */\n      0x00\n        /* \"#utility.yul\":10262:10268   */\n      dup4\n        /* \"#utility.yul\":10257:10260   */\n      dup4\n        /* \"#utility.yul\":10253:10269   */\n      add\n        /* \"#utility.yul\":10246:10273   */\n      mstore\n        /* \"#utility.yul\":10133:10279   */\n      pop\n      pop\n      pop\n      jump\t// out\n        /* \"#utility.yul\":10285:10710   */\n    tag_364:\n        /* \"#utility.yul\":10363:10368   */\n      0x00\n        /* \"#utility.yul\":10388:10454   */\n      tag_507\n        /* \"#utility.yul\":10404:10453   */\n      tag_508\n        /* \"#utility.yul\":10446:10452   */\n      dup5\n        /* \"#utility.yul\":10404:10453   */\n      tag_362\n      jump\t// in\n    tag_508:\n        /* \"#utility.yul\":10388:10454   */\n      tag_361\n      jump\t// in\n    tag_507:\n        /* \"#utility.yul\":10379:10454   */\n      swap1\n      pop\n        /* \"#utility.yul\":10477:10483   */\n      dup3\n        /* \"#utility.yul\":10470:10475   */\n      dup2\n        /* \"#utility.yul\":10463:10484   */\n      mstore\n        /* \"#utility.yul\":10515:10519   */\n      0x20\n        /* \"#utility.yul\":10508:10513   */\n      dup2\n        /* \"#utility.yul\":10504:10520   */\n      add\n        /* \"#utility.yul\":10553:10556   */\n      dup5\n        /* \"#utility.yul\":10544:10550   */\n      dup5\n        /* \"#utility.yul\":10539:10542   */\n      dup5\n        /* \"#utility.yul\":10535:10551   */\n      add\n        /* \"#utility.yul\":10532:10557   */\n      gt\n        /* \"#utility.yul\":10529:10641   */\n      iszero\n      tag_509\n      jumpi\n        /* \"#utility.yul\":10560:10639   */\n      tag_510\n      tag_359\n      jump\t// in\n    tag_510:\n        /* \"#utility.yul\":10529:10641   */\n    tag_509:\n        /* \"#utility.yul\":10650:10704   */\n      tag_511\n        /* \"#utility.yul\":10697:10703   */\n      dup5\n        /* \"#utility.yul\":10692:10695   */\n      dup3\n        /* \"#utility.yul\":10687:10690   */\n      dup6\n        /* \"#utility.yul\":10650:10704   */\n      tag_363\n      jump\t// in\n    tag_511:\n        /* \"#utility.yul\":10369:10710   */\n      pop\n        /* \"#utility.yul\":10285:10710   */\n      swap4\n      swap3\n      pop\n      pop\n      pop\n      jump\t// out\n        /* \"#utility.yul\":10730:11070   */\n    tag_365:\n        /* \"#utility.yul\":10786:10791   */\n      0x00\n        /* \"#utility.yul\":10835:10838   */\n      dup3\n        /* \"#utility.yul\":10828:10832   */\n      0x1f\n        /* \"#utility.yul\":10820:10826   */\n      dup4\n        /* \"#utility.yul\":10816:10833   */\n      add\n        /* \"#utility.yul\":10812:10839   */\n      slt\n        /* \"#utility.yul\":10802:10924   */\n      tag_513\n      jumpi\n        /* \"#utility.yul\":10843:10922   */\n      tag_514\n      tag_358\n      jump\t// in\n    tag_514:\n        /* \"#utility.yul\":10802:10924   */\n    tag_513:\n        /* \"#utility.yul\":10960:10966   */\n      dup2\n        /* \"#utility.yul\":10947:10967   */\n      calldataload\n        /* \"#utility.yul\":10985:11064   */\n      tag_515\n        /* \"#utility.yul\":11060:11063   */\n      dup5\n        /* \"#utility.yul\":11052:11058   */\n      dup3\n        /* \"#utility.yul\":11045:11049   */\n      0x20\n        /* \"#utility.yul\":11037:11043   */\n      dup7\n        /* \"#utility.yul\":11033:11050   */\n      add\n        /* \"#utility.yul\":10985:11064   */\n      tag_364\n      jump\t// in\n    tag_515:\n        /* \"#utility.yul\":10976:11064   */\n      swap2\n      pop\n        /* \"#utility.yul\":10792:11070   */\n      pop\n        /* \"#utility.yul\":10730:11070   */\n      swap3\n      swap2\n      pop\n      pop\n      jump\t// out\n        /* \"#utility.yul\":11076:12055   */\n    tag_73:\n        /* \"#utility.yul\":11173:11179   */\n      0x00\n        /* \"#utility.yul\":11181:11187   */\n      dup1\n        /* \"#utility.yul\":11189:11195   */\n      0x00\n        /* \"#utility.yul\":11238:11240   */\n      0x60\n        /* \"#utility.yul\":11226:11235   */\n      dup5\n        /* \"#utility.yul\":11217:11224   */\n      dup7\n        /* \"#utility.yul\":11213:11236   */\n      sub\n        /* \"#utility.yul\":11209:11241   */\n      slt\n        /* \"#utility.yul\":11206:11325   */\n      iszero\n      tag_517\n      jumpi\n        /* \"#utility.yul\":11244:11323   */\n      tag_518\n      tag_325\n      jump\t// in\n    tag_518:\n        /* \"#utility.yul\":11206:11325   */\n    tag_517:\n        /* \"#utility.yul\":11364:11365   */\n      0x00\n        /* \"#utility.yul\":11389:11442   */\n      tag_519\n        /* \"#utility.yul\":11434:11441   */\n      dup7\n        /* \"#utility.yul\":11425:11431   */\n      dup3\n        /* \"#utility.yul\":11414:11423   */\n      dup8\n        /* \"#utility.yul\":11410:11432   */\n      add\n        /* \"#utility.yul\":11389:11442   */\n      tag_329\n      jump\t// in\n    tag_519:\n        /* \"#utility.yul\":11379:11442   */\n      swap4\n      pop\n        /* \"#utility.yul\":11335:11452   */\n      pop\n        /* \"#utility.yul\":11519:11521   */\n      0x20\n        /* \"#utility.yul\":11508:11517   */\n      dup5\n        /* \"#utility.yul\":11504:11522   */\n      add\n        /* \"#utility.yul\":11491:11523   */\n      calldataload\n        /* \"#utility.yul\":11550:11568   */\n      0xffffffffffffffff\n        /* \"#utility.yul\":11542:11548   */\n      dup2\n        /* \"#utility.yul\":11539:11569   */\n      gt\n        /* \"#utility.yul\":11536:11653   */\n      iszero\n      tag_520\n      jumpi\n        /* \"#utility.yul\":11572:11651   */\n      tag_521\n      tag_326\n      jump\t// in\n    tag_521:\n        /* \"#utility.yul\":11536:11653   */\n    tag_520:\n        /* \"#utility.yul\":11677:11740   */\n      tag_522\n        /* \"#utility.yul\":11732:11739   */\n      dup7\n        /* \"#utility.yul\":11723:11729   */\n      dup3\n        /* \"#utility.yul\":11712:11721   */\n      dup8\n        /* \"#utility.yul\":11708:11730   */\n      add\n        /* \"#utility.yul\":11677:11740   */\n      tag_365\n      jump\t// in\n    tag_522:\n        /* \"#utility.yul\":11667:11740   */\n      swap3\n      pop\n        /* \"#utility.yul\":11462:11750   */\n      pop\n        /* \"#utility.yul\":11817:11819   */\n      0x40\n        /* \"#utility.yul\":11806:11815   */\n      dup5\n        /* \"#utility.yul\":11802:11820   */\n      add\n        /* \"#utility.yul\":11789:11821   */\n      calldataload\n        /* \"#utility.yul\":11848:11866   */\n      0xffffffffffffffff\n        /* \"#utility.yul\":11840:11846   */\n      dup2\n        /* \"#utility.yul\":11837:11867   */\n      gt\n        /* \"#utility.yul\":11834:11951   */\n      iszero\n      tag_523\n      jumpi\n        /* \"#utility.yul\":11870:11949   */\n      tag_524\n      tag_326\n      jump\t// in\n    tag_524:\n        /* \"#utility.yul\":11834:11951   */\n    tag_523:\n        /* \"#utility.yul\":11975:12038   */\n      tag_525\n        /* \"#utility.yul\":12030:12037   */\n      dup7\n        /* \"#utility.yul\":12021:12027   */\n      dup3\n        /* \"#utility.yul\":12010:12019   */\n      dup8\n        /* \"#utility.yul\":12006:12028   */\n      add\n        /* \"#utility.yul\":11975:12038   */\n      tag_365\n      jump\t// in\n    tag_525:\n        /* \"#utility.yul\":11965:12038   */\n      swap2\n      pop\n        /* \"#utility.yul\":11760:12048   */\n      pop\n        /* \"#utility.yul\":11076:12055   */\n      swap3\n      pop\n      swap3\n      pop\n      swap3\n      jump\t// out\n        /* \"#utility.yul\":12061:12271   */\n    tag_78:\n        /* \"#utility.yul\":12148:12152   */\n      0x00\n        /* \"#utility.yul\":12186:12188   */\n      0x20\n        /* \"#utility.yul\":12175:12184   */\n      dup3\n        /* \"#utility.yul\":12171:12189   */\n      add\n        /* \"#utility.yul\":12163:12189   */\n      swap1\n      pop\n        /* \"#utility.yul\":12199:12264   */\n      tag_527\n        /* \"#utility.yul\":12261:12262   */\n      0x00\n        /* \"#utility.yul\":12250:12259   */\n      dup4\n        /* \"#utility.yul\":12246:12263   */\n      add\n        /* \"#utility.yul\":12237:12243   */\n      dup5\n        /* \"#utility.yul\":12199:12264   */\n      tag_343\n      jump\t// in\n    tag_527:\n        /* \"#utility.yul\":12061:12271   */\n      swap3\n      swap2\n      pop\n      pop\n      jump\t// out\n        /* \"#utility.yul\":12277:12451   */\n    tag_366:\n        /* \"#utility.yul\":12417:12443   */\n      0x536d61727420436f6e747261637420697320636c6f7365640000000000000000\n        /* \"#utility.yul\":12413:12414   */\n      0x00\n        /* \"#utility.yul\":12405:12411   */\n      dup3\n        /* \"#utility.yul\":12401:12415   */\n      add\n        /* \"#utility.yul\":12394:12444   */\n      mstore\n        /* \"#utility.yul\":12277:12451   */\n      pop\n      jump\t// out\n        /* \"#utility.yul\":12457:12823   */\n    tag_367:\n        /* \"#utility.yul\":12599:12602   */\n      0x00\n        /* \"#utility.yul\":12620:12687   */\n      tag_530\n        /* \"#utility.yul\":12684:12686   */\n      0x18\n        /* \"#utility.yul\":12679:12682   */\n      dup4\n        /* \"#utility.yul\":12620:12687   */\n      tag_335\n      jump\t// in\n    tag_530:\n        /* \"#utility.yul\":12613:12687   */\n      swap2\n      pop\n        /* \"#utility.yul\":12696:12789   */\n      tag_531\n        /* \"#utility.yul\":12785:12788   */\n      dup3\n        /* \"#utility.yul\":12696:12789   */\n      tag_366\n      jump\t// in\n    tag_531:\n        /* \"#utility.yul\":12814:12816   */\n      0x20\n        /* \"#utility.yul\":12809:12812   */\n      dup3\n        /* \"#utility.yul\":12805:12817   */\n      add\n        /* \"#utility.yul\":12798:12817   */\n      swap1\n      pop\n        /* \"#utility.yul\":12457:12823   */\n      swap2\n      swap1\n      pop\n      jump\t// out\n        /* \"#utility.yul\":12829:13248   */\n    tag_98:\n        /* \"#utility.yul\":12995:12999   */\n      0x00\n        /* \"#utility.yul\":13033:13035   */\n      0x20\n        /* \"#utility.yul\":13022:13031   */\n      dup3\n        /* \"#utility.yul\":13018:13036   */\n      add\n        /* \"#utility.yul\":13010:13036   */\n      swap1\n      pop\n        /* \"#utility.yul\":13082:13091   */\n      dup2\n        /* \"#utility.yul\":13076:13080   */\n      dup2\n        /* \"#utility.yul\":13072:13092   */\n      sub\n        /* \"#utility.yul\":13068:13069   */\n      0x00\n        /* \"#utility.yul\":13057:13066   */\n      dup4\n        /* \"#utility.yul\":13053:13070   */\n      add\n        /* \"#utility.yul\":13046:13093   */\n      mstore\n        /* \"#utility.yul\":13110:13241   */\n      tag_533\n        /* \"#utility.yul\":13236:13240   */\n      dup2\n        /* \"#utility.yul\":13110:13241   */\n      tag_367\n      jump\t// in\n    tag_533:\n        /* \"#utility.yul\":13102:13241   */\n      swap1\n      pop\n        /* \"#utility.yul\":12829:13248   */\n      swap2\n      swap1\n      pop\n      jump\t// out\n        /* \"#utility.yul\":13254:13423   */\n    tag_368:\n        /* \"#utility.yul\":13394:13415   */\n      0x55736572206973207374696c6c20616c69766500000000000000000000000000\n        /* \"#utility.yul\":13390:13391   */\n      0x00\n        /* \"#utility.yul\":13382:13388   */\n      dup3\n        /* \"#utility.yul\":13378:13392   */\n      add\n        /* \"#utility.yul\":13371:13416   */\n      mstore\n        /* \"#utility.yul\":13254:13423   */\n      pop\n      jump\t// out\n        /* \"#utility.yul\":13429:13795   */\n    tag_369:\n        /* \"#utility.yul\":13571:13574   */\n      0x00\n        /* \"#utility.yul\":13592:13659   */\n      tag_536\n        /* \"#utility.yul\":13656:13658   */\n      0x13\n        /* \"#utility.yul\":13651:13654   */\n      dup4\n        /* \"#utility.yul\":13592:13659   */\n      tag_335\n      jump\t// in\n    tag_536:\n        /* \"#utility.yul\":13585:13659   */\n      swap2\n      pop\n        /* \"#utility.yul\":13668:13761   */\n      tag_537\n        /* \"#utility.yul\":13757:13760   */\n      dup3\n        /* \"#utility.yul\":13668:13761   */\n      tag_368\n      jump\t// in\n    tag_537:\n        /* \"#utility.yul\":13786:13788   */\n      0x20\n        /* \"#utility.yul\":13781:13784   */\n      dup3\n        /* \"#utility.yul\":13777:13789   */\n      add\n        /* \"#utility.yul\":13770:13789   */\n      swap1\n      pop\n        /* \"#utility.yul\":13429:13795   */\n      swap2\n      swap1\n      pop\n      jump\t// out\n        /* \"#utility.yul\":13801:14220   */\n    tag_106:\n        /* \"#utility.yul\":13967:13971   */\n      0x00\n        /* \"#utility.yul\":14005:14007   */\n      0x20\n        /* \"#utility.yul\":13994:14003   */\n      dup3\n        /* \"#utility.yul\":13990:14008   */\n      add\n        /* \"#utility.yul\":13982:14008   */\n      swap1\n      pop\n        /* \"#utility.yul\":14054:14063   */\n      dup2\n        /* \"#utility.yul\":14048:14052   */\n      dup2\n        /* \"#utility.yul\":14044:14064   */\n      sub\n        /* \"#utility.yul\":14040:14041   */\n      0x00\n        /* \"#utility.yul\":14029:14038   */\n      dup4\n        /* \"#utility.yul\":14025:14042   */\n      add\n        /* \"#utility.yul\":14018:14065   */\n      mstore\n        /* \"#utility.yul\":14082:14213   */\n      tag_539\n        /* \"#utility.yul\":14208:14212   */\n      dup2\n        /* \"#utility.yul\":14082:14213   */\n      tag_369\n      jump\t// in\n    tag_539:\n        /* \"#utility.yul\":14074:14213   */\n      swap1\n      pop\n        /* \"#utility.yul\":13801:14220   */\n      swap2\n      swap1\n      pop\n      jump\t// out\n        /* \"#utility.yul\":14226:14406   */\n    tag_122:\n        /* \"#utility.yul\":14274:14351   */\n      0x4e487b7100000000000000000000000000000000000000000000000000000000\n        /* \"#utility.yul\":14271:14272   */\n      0x00\n        /* \"#utility.yul\":14264:14352   */\n      mstore\n        /* \"#utility.yul\":14371:14375   */\n      0x32\n        /* \"#utility.yul\":14368:14369   */\n      0x04\n        /* \"#utility.yul\":14361:14376   */\n      mstore\n        /* \"#utility.yul\":14395:14399   */\n      0x24\n        /* \"#utility.yul\":14392:14393   */\n      0x00\n        /* \"#utility.yul\":14385:14400   */\n      revert\n        /* \"#utility.yul\":14412:14592   */\n    tag_370:\n        /* \"#utility.yul\":14460:14537   */\n      0x4e487b7100000000000000000000000000000000000000000000000000000000\n        /* \"#utility.yul\":14457:14458   */\n      0x00\n        /* \"#utility.yul\":14450:14538   */\n      mstore\n        /* \"#utility.yul\":14557:14561   */\n      0x22\n        /* \"#utility.yul\":14554:14555   */\n      0x04\n        /* \"#utility.yul\":14547:14562   */\n      mstore\n        /* \"#utility.yul\":14581:14585   */\n      0x24\n        /* \"#utility.yul\":14578:14579   */\n      0x00\n        /* \"#utility.yul\":14571:14586   */\n      revert\n        /* \"#utility.yul\":14598:14918   */\n    tag_145:\n        /* \"#utility.yul\":14642:14648   */\n      0x00\n        /* \"#utility.yul\":14679:14680   */\n      0x02\n        /* \"#utility.yul\":14673:14677   */\n      dup3\n        /* \"#utility.yul\":14669:14681   */\n      div\n        /* \"#utility.yul\":14659:14681   */\n      swap1\n      pop\n        /* \"#utility.yul\":14726:14727   */\n      0x01\n        /* \"#utility.yul\":14720:14724   */\n      dup3\n        /* \"#utility.yul\":14716:14728   */\n      and\n        /* \"#utility.yul\":14747:14765   */\n      dup1\n        /* \"#utility.yul\":14737:14818   */\n      tag_543\n      jumpi\n        /* \"#utility.yul\":14803:14807   */\n      0x7f\n        /* \"#utility.yul\":14795:14801   */\n      dup3\n        /* \"#utility.yul\":14791:14808   */\n      and\n        /* \"#utility.yul\":14781:14808   */\n      swap2\n      pop\n        /* \"#utility.yul\":14737:14818   */\n    tag_543:\n        /* \"#utility.yul\":14865:14867   */\n      0x20\n        /* \"#utility.yul\":14857:14863   */\n      dup3\n        /* \"#utility.yul\":14854:14868   */\n      lt\n        /* \"#utility.yul\":14834:14852   */\n      dup2\n        /* \"#utility.yul\":14831:14869   */\n      sub\n        /* \"#utility.yul\":14828:14912   */\n      tag_544\n      jumpi\n        /* \"#utility.yul\":14884:14902   */\n      tag_545\n      tag_370\n      jump\t// in\n    tag_545:\n        /* \"#utility.yul\":14828:14912   */\n    tag_544:\n        /* \"#utility.yul\":14649:14918   */\n      pop\n        /* \"#utility.yul\":14598:14918   */\n      swap2\n      swap1\n      pop\n      jump\t// out\n        /* \"#utility.yul\":14924:15065   */\n    tag_371:\n        /* \"#utility.yul\":14973:14977   */\n      0x00\n        /* \"#utility.yul\":14996:14999   */\n      dup2\n        /* \"#utility.yul\":14988:14999   */\n      swap1\n      pop\n        /* \"#utility.yul\":15019:15022   */\n      dup2\n        /* \"#utility.yul\":15016:15017   */\n      0x00\n        /* \"#utility.yul\":15009:15023   */\n      mstore\n        /* \"#utility.yul\":15053:15057   */\n      0x20\n        /* \"#utility.yul\":15050:15051   */\n      0x00\n        /* \"#utility.yul\":15040:15058   */\n      keccak256\n        /* \"#utility.yul\":15032:15058   */\n      swap1\n      pop\n        /* \"#utility.yul\":14924:15065   */\n      swap2\n      swap1\n      pop\n      jump\t// out\n        /* \"#utility.yul\":15071:15164   */\n    tag_372:\n        /* \"#utility.yul\":15108:15114   */\n      0x00\n        /* \"#utility.yul\":15155:15157   */\n      0x20\n        /* \"#utility.yul\":15150:15152   */\n      0x1f\n        /* \"#utility.yul\":15143:15148   */\n      dup4\n        /* \"#utility.yul\":15139:15153   */\n      add\n        /* \"#utility.yul\":15135:15158   */\n      div\n        /* \"#utility.yul\":15125:15158   */\n      swap1\n      pop\n        /* \"#utility.yul\":15071:15164   */\n      swap2\n      swap1\n      pop\n      jump\t// out\n        /* \"#utility.yul\":15170:15277   */\n    tag_373:\n        /* \"#utility.yul\":15214:15222   */\n      0x00\n        /* \"#utility.yul\":15264:15269   */\n      dup3\n        /* \"#utility.yul\":15258:15262   */\n      dup3\n        /* \"#utility.yul\":15254:15270   */\n      shl\n        /* \"#utility.yul\":15233:15270   */\n      swap1\n      pop\n        /* \"#utility.yul\":15170:15277   */\n      swap3\n      swap2\n      pop\n      pop\n      jump\t// out\n        /* \"#utility.yul\":15283:15676   */\n    tag_374:\n        /* \"#utility.yul\":15352:15358   */\n      0x00\n        /* \"#utility.yul\":15402:15403   */\n      0x08\n        /* \"#utility.yul\":15390:15400   */\n      dup4\n        /* \"#utility.yul\":15386:15404   */\n      mul\n        /* \"#utility.yul\":15425:15522   */\n      tag_550\n        /* \"#utility.yul\":15455:15521   */\n      0xffffffffffffffffffffffffffffffffffffffffffffffffffffffffffffffff\n        /* \"#utility.yul\":15444:15453   */\n      dup3\n        /* \"#utility.yul\":15425:15522   */\n      tag_373\n      jump\t// in\n    tag_550:\n        /* \"#utility.yul\":15543:15582   */\n      tag_551\n        /* \"#utility.yul\":15573:15581   */\n      dup7\n        /* \"#utility.yul\":15562:15571   */\n      dup4\n        /* \"#utility.yul\":15543:15582   */\n      tag_373\n      jump\t// in\n    tag_551:\n        /* \"#utility.yul\":15531:15582   */\n      swap6\n      pop\n        /* \"#utility.yul\":15615:15619   */\n      dup1\n        /* \"#utility.yul\":15611:15620   */\n      not\n        /* \"#utility.yul\":15604:15609   */\n      dup5\n        /* \"#utility.yul\":15600:15621   */\n      and\n        /* \"#utility.yul\":15591:15621   */\n      swap4\n      pop\n        /* \"#utility.yul\":15664:15668   */\n      dup1\n        /* \"#utility.yul\":15654:15662   */\n      dup7\n        /* \"#utility.yul\":15650:15669   */\n      and\n        /* \"#utility.yul\":15643:15648   */\n      dup5\n        /* \"#utility.yul\":15640:15670   */\n      or\n        /* \"#utility.yul\":15630:15670   */\n      swap3\n      pop\n        /* \"#utility.yul\":15359:15676   */\n      pop\n      pop\n        /* \"#utility.yul\":15283:15676   */\n      swap4\n      swap3\n      pop\n      pop\n      pop\n      jump\t// out\n        /* \"#utility.yul\":15682:15742   */\n    tag_375:\n        /* \"#utility.yul\":15710:15713   */\n      0x00\n        /* \"#utility.yul\":15731:15736   */\n      dup2\n        /* \"#utility.yul\":15724:15736   */\n      swap1\n      pop\n        /* \"#utility.yul\":15682:15742   */\n      swap2\n      swap1\n      pop\n      jump\t// out\n        /* \"#utility.yul\":15748:15890   */\n    tag_376:\n        /* \"#utility.yul\":15798:15807   */\n      0x00\n        /* \"#utility.yul\":15831:15884   */\n      tag_554\n        /* \"#utility.yul\":15849:15883   */\n      tag_555\n        /* \"#utility.yul\":15858:15882   */\n      tag_556\n        /* \"#utility.yul\":15876:15881   */\n      dup5\n        /* \"#utility.yul\":15858:15882   */\n      tag_327\n      jump\t// in\n    tag_556:\n        /* \"#utility.yul\":15849:15883   */\n      tag_375\n      jump\t// in\n    tag_555:\n        /* \"#utility.yul\":15831:15884   */\n      tag_327\n      jump\t// in\n    tag_554:\n        /* \"#utility.yul\":15818:15884   */\n      swap1\n      pop\n        /* \"#utility.yul\":15748:15890   */\n      swap2\n      swap1\n      pop\n      jump\t// out\n        /* \"#utility.yul\":15896:15971   */\n    tag_377:\n        /* \"#utility.yul\":15939:15942   */\n      0x00\n        /* \"#utility.yul\":15960:15965   */\n      dup2\n        /* \"#utility.yul\":15953:15965   */\n      swap1\n      pop\n        /* \"#utility.yul\":15896:15971   */\n      swap2\n      swap1\n      pop\n      jump\t// out\n        /* \"#utility.yul\":15977:16246   */\n    tag_378:\n        /* \"#utility.yul\":16087:16126   */\n      tag_559\n        /* \"#utility.yul\":16118:16125   */\n      dup4\n        /* \"#utility.yul\":16087:16126   */\n      tag_376\n      jump\t// in\n    tag_559:\n        /* \"#utility.yul\":16148:16239   */\n      tag_560\n        /* \"#utility.yul\":16197:16238   */\n      tag_561\n        /* \"#utility.yul\":16221:16237   */\n      dup3\n        /* \"#utility.yul\":16197:16238   */\n      tag_377\n      jump\t// in\n    tag_561:\n        /* \"#utility.yul\":16189:16195   */\n      dup5\n        /* \"#utility.yul\":16182:16186   */\n      dup5\n        /* \"#utility.yul\":16176:16187   */\n      sload\n        /* \"#utility.yul\":16148:16239   */\n      tag_374\n      jump\t// in\n    tag_560:\n        /* \"#utility.yul\":16142:16146   */\n      dup3\n        /* \"#utility.yul\":16135:16240   */\n      sstore\n        /* \"#utility.yul\":16053:16246   */\n      pop\n        /* \"#utility.yul\":15977:16246   */\n      pop\n      pop\n      pop\n      jump\t// out\n        /* \"#utility.yul\":16252:16325   */\n    tag_379:\n        /* \"#utility.yul\":16297:16300   */\n      0x00\n        /* \"#utility.yul\":16252:16325   */\n      swap1\n      jump\t// out\n        /* \"#utility.yul\":16331:16520   */\n    tag_380:\n        /* \"#utility.yul\":16408:16440   */\n      tag_564\n      tag_379\n      jump\t// in\n    tag_564:\n        /* \"#utility.yul\":16449:16514   */\n      tag_565\n        /* \"#utility.yul\":16507:16513   */\n      dup2\n        /* \"#utility.yul\":16499:16505   */\n      dup5\n        /* \"#utility.yul\":16493:16497   */\n      dup5\n        /* \"#utility.yul\":16449:16514   */\n      tag_378\n      jump\t// in\n    tag_565:\n        /* \"#utility.yul\":16384:16520   */\n      pop\n        /* \"#utility.yul\":16331:16520   */\n      pop\n      pop\n      jump\t// out\n        /* \"#utility.yul\":16526:16712   */\n    tag_381:\n        /* \"#utility.yul\":16586:16706   */\n    tag_567:\n        /* \"#utility.yul\":16603:16606   */\n      dup2\n        /* \"#utility.yul\":16596:16601   */\n      dup2\n        /* \"#utility.yul\":16593:16607   */\n      lt\n        /* \"#utility.yul\":16586:16706   */\n      iszero\n      tag_569\n      jumpi\n        /* \"#utility.yul\":16657:16696   */\n      tag_570\n        /* \"#utility.yul\":16694:16695   */\n      0x00\n        /* \"#utility.yul\":16687:16692   */\n      dup3\n        /* \"#utility.yul\":16657:16696   */\n      tag_380\n      jump\t// in\n    tag_570:\n        /* \"#utility.yul\":16630:16631   */\n      0x01\n        /* \"#utility.yul\":16623:16628   */\n      dup2\n        /* \"#utility.yul\":16619:16632   */\n      add\n        /* \"#utility.yul\":16610:16632   */\n      swap1\n      pop\n        /* \"#utility.yul\":16586:16706   */\n      jump(tag_567)\n    tag_569:\n        /* \"#utility.yul\":16526:16712   */\n      pop\n      pop\n      jump\t// out\n        /* \"#utility.yul\":16718:17261   */\n    tag_382:\n        /* \"#utility.yul\":16819:16821   */\n      0x1f\n        /* \"#utility.yul\":16814:16817   */\n      dup3\n        /* \"#utility.yul\":16811:16822   */\n      gt\n        /* \"#utility.yul\":16808:17254   */\n      iszero\n      tag_572\n      jumpi\n        /* \"#utility.yul\":16853:16891   */\n      tag_573\n        /* \"#utility.yul\":16885:16890   */\n      dup2\n        /* \"#utility.yul\":16853:16891   */\n      tag_371\n      jump\t// in\n    tag_573:\n        /* \"#utility.yul\":16937:16966   */\n      tag_574\n        /* \"#utility.yul\":16955:16965   */\n      dup5\n        /* \"#utility.yul\":16937:16966   */\n      tag_372\n      jump\t// in\n    tag_574:\n        /* \"#utility.yul\":16927:16935   */\n      dup2\n        /* \"#utility.yul\":16923:16967   */\n      add\n        /* \"#utility.yul\":17120:17122   */\n      0x20\n        /* \"#utility.yul\":17108:17118   */\n      dup6\n        /* \"#utility.yul\":17105:17123   */\n      lt\n        /* \"#utility.yul\":17102:17151   */\n      iszero\n      tag_575\n      jumpi\n        /* \"#utility.yul\":17141:17149   */\n      dup2\n        /* \"#utility.yul\":17126:17149   */\n      swap1\n      pop\n        /* \"#utility.yul\":17102:17151   */\n    tag_575:\n        /* \"#utility.yul\":17164:17244   */\n      tag_576\n        /* \"#utility.yul\":17220:17242   */\n      tag_577\n        /* \"#utility.yul\":17238:17241   */\n      dup6\n        /* \"#utility.yul\":17220:17242   */\n      tag_372\n      jump\t// in\n    tag_577:\n        /* \"#utility.yul\":17210:17218   */\n      dup4\n        /* \"#utility.yul\":17206:17243   */\n      add\n        /* \"#utility.yul\":17193:17204   */\n      dup3\n        /* \"#utility.yul\":17164:17244   */\n      tag_381\n      jump\t// in\n    tag_576:\n        /* \"#utility.yul\":16823:17254   */\n      pop\n      pop\n        /* \"#utility.yul\":16808:17254   */\n    tag_572:\n        /* \"#utility.yul\":16718:17261   */\n      pop\n      pop\n      pop\n      jump\t// out\n        /* \"#utility.yul\":17267:17384   */\n    tag_383:\n        /* \"#utility.yul\":17321:17329   */\n      0x00\n        /* \"#utility.yul\":17371:17376   */\n      dup3\n        /* \"#utility.yul\":17365:17369   */\n      dup3\n        /* \"#utility.yul\":17361:17377   */\n      shr\n        /* \"#utility.yul\":17340:17377   */\n      swap1\n      pop\n        /* \"#utility.yul\":17267:17384   */\n      swap3\n      swap2\n      pop\n      pop\n      jump\t// out\n        /* \"#utility.yul\":17390:17559   */\n    tag_384:\n        /* \"#utility.yul\":17434:17440   */\n      0x00\n        /* \"#utility.yul\":17467:17518   */\n      tag_580\n        /* \"#utility.yul\":17515:17516   */\n      0x00\n        /* \"#utility.yul\":17511:17517   */\n      not\n        /* \"#utility.yul\":17503:17508   */\n      dup5\n        /* \"#utility.yul\":17500:17501   */\n      0x08\n        /* \"#utility.yul\":17496:17509   */\n      mul\n        /* \"#utility.yul\":17467:17518   */\n      tag_383\n      jump\t// in\n    tag_580:\n        /* \"#utility.yul\":17463:17519   */\n      not\n        /* \"#utility.yul\":17548:17552   */\n      dup1\n        /* \"#utility.yul\":17542:17546   */\n      dup4\n        /* \"#utility.yul\":17538:17553   */\n      and\n        /* \"#utility.yul\":17528:17553   */\n      swap2\n      pop\n        /* \"#utility.yul\":17441:17559   */\n      pop\n        /* \"#utility.yul\":17390:17559   */\n      swap3\n      swap2\n      pop\n      pop\n      jump\t// out\n        /* \"#utility.yul\":17564:17859   */\n    tag_385:\n        /* \"#utility.yul\":17640:17644   */\n      0x00\n        /* \"#utility.yul\":17786:17815   */\n      tag_582\n        /* \"#utility.yul\":17811:17814   */\n      dup4\n        /* \"#utility.yul\":17805:17809   */\n      dup4\n        /* \"#utility.yul\":17786:17815   */\n      tag_384\n      jump\t// in\n    tag_582:\n        /* \"#utility.yul\":17778:17815   */\n      swap2\n      pop\n        /* \"#utility.yul\":17848:17851   */\n      dup3\n        /* \"#utility.yul\":17845:17846   */\n      0x02\n        /* \"#utility.yul\":17841:17852   */\n      mul\n        /* \"#utility.yul\":17835:17839   */\n      dup3\n        /* \"#utility.yul\":17832:17853   */\n      or\n        /* \"#utility.yul\":17824:17853   */\n      swap1\n      pop\n        /* \"#utility.yul\":17564:17859   */\n      swap3\n      swap2\n      pop\n      pop\n      jump\t// out\n        /* \"#utility.yul\":17864:19259   */\n    tag_250:\n        /* \"#utility.yul\":17981:18018   */\n      tag_584\n        /* \"#utility.yul\":18014:18017   */\n      dup3\n        /* \"#utility.yul\":17981:18018   */\n      tag_334\n      jump\t// in\n    tag_584:\n        /* \"#utility.yul\":18083:18101   */\n      0xffffffffffffffff\n        /* \"#utility.yul\":18075:18081   */\n      dup2\n        /* \"#utility.yul\":18072:18102   */\n      gt\n        /* \"#utility.yul\":18069:18125   */\n      iszero\n      tag_585\n      jumpi\n        /* \"#utility.yul\":18105:18123   */\n      tag_586\n      tag_159\n      jump\t// in\n    tag_586:\n        /* \"#utility.yul\":18069:18125   */\n    tag_585:\n        /* \"#utility.yul\":18149:18187   */\n      tag_587\n        /* \"#utility.yul\":18181:18185   */\n      dup3\n        /* \"#utility.yul\":18175:18186   */\n      sload\n        /* \"#utility.yul\":18149:18187   */\n      tag_145\n      jump\t// in\n    tag_587:\n        /* \"#utility.yul\":18234:18301   */\n      tag_588\n        /* \"#utility.yul\":18294:18300   */\n      dup3\n        /* \"#utility.yul\":18286:18292   */\n      dup3\n        /* \"#utility.yul\":18280:18284   */\n      dup6\n        /* \"#utility.yul\":18234:18301   */\n      tag_382\n      jump\t// in\n    tag_588:\n        /* \"#utility.yul\":18328:18329   */\n      0x00\n        /* \"#utility.yul\":18352:18356   */\n      0x20\n        /* \"#utility.yul\":18339:18356   */\n      swap1\n      pop\n        /* \"#utility.yul\":18384:18386   */\n      0x1f\n        /* \"#utility.yul\":18376:18382   */\n      dup4\n        /* \"#utility.yul\":18373:18387   */\n      gt\n        /* \"#utility.yul\":18401:18402   */\n      0x01\n        /* \"#utility.yul\":18396:19014   */\n      dup2\n      eq\n      tag_590\n      jumpi\n        /* \"#utility.yul\":19058:19059   */\n      0x00\n        /* \"#utility.yul\":19075:19081   */\n      dup5\n        /* \"#utility.yul\":19072:19149   */\n      iszero\n      tag_591\n      jumpi\n        /* \"#utility.yul\":19124:19133   */\n      dup3\n        /* \"#utility.yul\":19119:19122   */\n      dup8\n        /* \"#utility.yul\":19115:19134   */\n      add\n        /* \"#utility.yul\":19109:19135   */\n      mload\n        /* \"#utility.yul\":19100:19135   */\n      swap1\n      pop\n        /* \"#utility.yul\":19072:19149   */\n    tag_591:\n        /* \"#utility.yul\":19175:19242   */\n      tag_592\n        /* \"#utility.yul\":19235:19241   */\n      dup6\n        /* \"#utility.yul\":19228:19233   */\n      dup3\n        /* \"#utility.yul\":19175:19242   */\n      tag_385\n      jump\t// in\n    tag_592:\n        /* \"#utility.yul\":19169:19173   */\n      dup7\n        /* \"#utility.yul\":19162:19243   */\n      sstore\n        /* \"#utility.yul\":19031:19253   */\n      pop\n        /* \"#utility.yul\":18366:19253   */\n      jump(tag_589)\n        /* \"#utility.yul\":18396:19014   */\n    tag_590:\n        /* \"#utility.yul\":18448:18452   */\n      0x1f\n        /* \"#utility.yul\":18444:18453   */\n      not\n        /* \"#utility.yul\":18436:18442   */\n      dup5\n        /* \"#utility.yul\":18432:18454   */\n      and\n        /* \"#utility.yul\":18482:18519   */\n      tag_593\n        /* \"#utility.yul\":18514:18518   */\n      dup7\n        /* \"#utility.yul\":18482:18519   */\n      tag_371\n      jump\t// in\n    tag_593:\n        /* \"#utility.yul\":18541:18542   */\n      0x00\n        /* \"#utility.yul\":18555:18763   */\n    tag_594:\n        /* \"#utility.yul\":18569:18576   */\n      dup3\n        /* \"#utility.yul\":18566:18567   */\n      dup2\n        /* \"#utility.yul\":18563:18577   */\n      lt\n        /* \"#utility.yul\":18555:18763   */\n      iszero\n      tag_596\n      jumpi\n        /* \"#utility.yul\":18648:18657   */\n      dup5\n        /* \"#utility.yul\":18643:18646   */\n      dup10\n        /* \"#utility.yul\":18639:18658   */\n      add\n        /* \"#utility.yul\":18633:18659   */\n      mload\n        /* \"#utility.yul\":18625:18631   */\n      dup3\n        /* \"#utility.yul\":18618:18660   */\n      sstore\n        /* \"#utility.yul\":18699:18700   */\n      0x01\n        /* \"#utility.yul\":18691:18697   */\n      dup3\n        /* \"#utility.yul\":18687:18701   */\n      add\n        /* \"#utility.yul\":18677:18701   */\n      swap2\n      pop\n        /* \"#utility.yul\":18746:18748   */\n      0x20\n        /* \"#utility.yul\":18735:18744   */\n      dup6\n        /* \"#utility.yul\":18731:18749   */\n      add\n        /* \"#utility.yul\":18718:18749   */\n      swap5\n      pop\n        /* \"#utility.yul\":18592:18596   */\n      0x20\n        /* \"#utility.yul\":18589:18590   */\n      dup2\n        /* \"#utility.yul\":18585:18597   */\n      add\n        /* \"#utility.yul\":18580:18597   */\n      swap1\n      pop\n        /* \"#utility.yul\":18555:18763   */\n      jump(tag_594)\n    tag_596:\n        /* \"#utility.yul\":18791:18797   */\n      dup7\n        /* \"#utility.yul\":18782:18789   */\n      dup4\n        /* \"#utility.yul\":18779:18798   */\n      lt\n        /* \"#utility.yul\":18776:18955   */\n      iszero\n      tag_597\n      jumpi\n        /* \"#utility.yul\":18849:18858   */\n      dup5\n        /* \"#utility.yul\":18844:18847   */\n      dup10\n        /* \"#utility.yul\":18840:18859   */\n      add\n        /* \"#utility.yul\":18834:18860   */\n      mload\n        /* \"#utility.yul\":18892:18940   */\n      tag_598\n        /* \"#utility.yul\":18934:18938   */\n      0x1f\n        /* \"#utility.yul\":18926:18932   */\n      dup10\n        /* \"#utility.yul\":18922:18939   */\n      and\n        /* \"#utility.yul\":18911:18920   */\n      dup3\n        /* \"#utility.yul\":18892:18940   */\n      tag_384\n      jump\t// in\n    tag_598:\n        /* \"#utility.yul\":18884:18890   */\n      dup4\n        /* \"#utility.yul\":18877:18941   */\n      sstore\n        /* \"#utility.yul\":18799:18955   */\n      pop\n        /* \"#utility.yul\":18776:18955   */\n    tag_597:\n        /* \"#utility.yul\":19001:19002   */\n      0x01\n        /* \"#utility.yul\":18997:18998   */\n      0x02\n        /* \"#utility.yul\":18989:18995   */\n      dup9\n        /* \"#utility.yul\":18985:18999   */\n      mul\n        /* \"#utility.yul\":18981:19003   */\n      add\n        /* \"#utility.yul\":18975:18979   */\n      dup9\n        /* \"#utility.yul\":18968:19004   */\n      sstore\n        /* \"#utility.yul\":18403:19014   */\n      pop\n      pop\n      pop\n        /* \"#utility.yul\":18366:19253   */\n    tag_589:\n      pop\n        /* \"#utility.yul\":17956:19259   */\n      pop\n      pop\n      pop\n        /* \"#utility.yul\":17864:19259   */\n      pop\n      pop\n      jump\t// out\n        /* \"#utility.yul\":19265:19443   */\n    tag_386:\n        /* \"#utility.yul\":19405:19435   */\n      0x5573657220646563656173656420697320616c72656164792073657400000000\n        /* \"#utility.yul\":19401:19402   */\n      0x00\n        /* \"#utility.yul\":19393:19399   */\n      dup3\n        /* \"#utility.yul\":19389:19403   */\n      add\n        /* \"#utility.yul\":19382:19436   */\n      mstore\n        /* \"#utility.yul\":19265:19443   */\n      pop\n      jump\t// out\n        /* \"#utility.yul\":19449:19815   */\n    tag_387:\n        /* \"#utility.yul\":19591:19594   */\n      0x00\n        /* \"#utility.yul\":19612:19679   */\n      tag_601\n        /* \"#utility.yul\":19676:19678   */\n      0x1c\n        /* \"#utility.yul\":19671:19674   */\n      dup4\n        /* \"#utility.yul\":19612:19679   */\n      tag_335\n      jump\t// in\n    tag_601:\n        /* \"#utility.yul\":19605:19679   */\n      swap2\n      pop\n        /* \"#utility.yul\":19688:19781   */\n      tag_602\n        /* \"#utility.yul\":19777:19780   */\n      dup3\n        /* \"#utility.yul\":19688:19781   */\n      tag_386\n      jump\t// in\n    tag_602:\n        /* \"#utility.yul\":19806:19808   */\n      0x20\n        /* \"#utility.yul\":19801:19804   */\n      dup3\n        /* \"#utility.yul\":19797:19809   */\n      add\n        /* \"#utility.yul\":19790:19809   */\n      swap1\n      pop\n        /* \"#utility.yul\":19449:19815   */\n      swap2\n      swap1\n      pop\n      jump\t// out\n        /* \"#utility.yul\":19821:20240   */\n    tag_263:\n        /* \"#utility.yul\":19987:19991   */\n      0x00\n        /* \"#utility.yul\":20025:20027   */\n      0x20\n        /* \"#utility.yul\":20014:20023   */\n      dup3\n        /* \"#utility.yul\":20010:20028   */\n      add\n        /* \"#utility.yul\":20002:20028   */\n      swap1\n      pop\n        /* \"#utility.yul\":20074:20083   */\n      dup2\n        /* \"#utility.yul\":20068:20072   */\n      dup2\n        /* \"#utility.yul\":20064:20084   */\n      sub\n        /* \"#utility.yul\":20060:20061   */\n      0x00\n        /* \"#utility.yul\":20049:20058   */\n      dup4\n        /* \"#utility.yul\":20045:20062   */\n      add\n        /* \"#utility.yul\":20038:20085   */\n      mstore\n        /* \"#utility.yul\":20102:20233   */\n      tag_604\n        /* \"#utility.yul\":20228:20232   */\n      dup2\n        /* \"#utility.yul\":20102:20233   */\n      tag_387\n      jump\t// in\n    tag_604:\n        /* \"#utility.yul\":20094:20233   */\n      swap1\n      pop\n        /* \"#utility.yul\":19821:20240   */\n      swap2\n      swap1\n      pop\n      jump\t// out\n        /* \"#utility.yul\":20246:20394   */\n    tag_388:\n        /* \"#utility.yul\":20348:20359   */\n      0x00\n        /* \"#utility.yul\":20385:20388   */\n      dup2\n        /* \"#utility.yul\":20370:20388   */\n      swap1\n      pop\n        /* \"#utility.yul\":20246:20394   */\n      swap3\n      swap2\n      pop\n      pop\n      jump\t// out\n        /* \"#utility.yul\":20424:21298   */\n    tag_389:\n        /* \"#utility.yul\":20527:20530   */\n      0x00\n        /* \"#utility.yul\":20564:20569   */\n      dup2\n        /* \"#utility.yul\":20558:20570   */\n      sload\n        /* \"#utility.yul\":20593:20629   */\n      tag_607\n        /* \"#utility.yul\":20619:20628   */\n      dup2\n        /* \"#utility.yul\":20593:20629   */\n      tag_145\n      jump\t// in\n    tag_607:\n        /* \"#utility.yul\":20645:20734   */\n      tag_608\n        /* \"#utility.yul\":20727:20733   */\n      dup2\n        /* \"#utility.yul\":20722:20725   */\n      dup7\n        /* \"#utility.yul\":20645:20734   */\n      tag_388\n      jump\t// in\n    tag_608:\n        /* \"#utility.yul\":20638:20734   */\n      swap5\n      pop\n        /* \"#utility.yul\":20765:20766   */\n      0x01\n        /* \"#utility.yul\":20754:20763   */\n      dup3\n        /* \"#utility.yul\":20750:20767   */\n      and\n        /* \"#utility.yul\":20781:20782   */\n      0x00\n        /* \"#utility.yul\":20776:20942   */\n      dup2\n      eq\n      tag_610\n      jumpi\n        /* \"#utility.yul\":20956:20957   */\n      0x01\n        /* \"#utility.yul\":20951:21292   */\n      dup2\n      eq\n      tag_611\n      jumpi\n        /* \"#utility.yul\":20743:21292   */\n      jump(tag_609)\n        /* \"#utility.yul\":20776:20942   */\n    tag_610:\n        /* \"#utility.yul\":20860:20864   */\n      0xff\n        /* \"#utility.yul\":20856:20865   */\n      not\n        /* \"#utility.yul\":20845:20854   */\n      dup4\n        /* \"#utility.yul\":20841:20866   */\n      and\n        /* \"#utility.yul\":20836:20839   */\n      dup7\n        /* \"#utility.yul\":20829:20867   */\n      mstore\n        /* \"#utility.yul\":20922:20928   */\n      dup2\n        /* \"#utility.yul\":20915:20929   */\n      iszero\n        /* \"#utility.yul\":20908:20930   */\n      iszero\n        /* \"#utility.yul\":20900:20906   */\n      dup3\n        /* \"#utility.yul\":20896:20931   */\n      mul\n        /* \"#utility.yul\":20891:20894   */\n      dup7\n        /* \"#utility.yul\":20887:20932   */\n      add\n        /* \"#utility.yul\":20880:20932   */\n      swap4\n      pop\n        /* \"#utility.yul\":20776:20942   */\n      jump(tag_609)\n        /* \"#utility.yul\":20951:21292   */\n    tag_611:\n        /* \"#utility.yul\":21018:21056   */\n      tag_612\n        /* \"#utility.yul\":21050:21055   */\n      dup6\n        /* \"#utility.yul\":21018:21056   */\n      tag_371\n      jump\t// in\n    tag_612:\n        /* \"#utility.yul\":21078:21079   */\n      0x00\n        /* \"#utility.yul\":21092:21246   */\n    tag_613:\n        /* \"#utility.yul\":21106:21112   */\n      dup4\n        /* \"#utility.yul\":21103:21104   */\n      dup2\n        /* \"#utility.yul\":21100:21113   */\n      lt\n        /* \"#utility.yul\":21092:21246   */\n      iszero\n      tag_615\n      jumpi\n        /* \"#utility.yul\":21180:21187   */\n      dup2\n        /* \"#utility.yul\":21174:21188   */\n      sload\n        /* \"#utility.yul\":21170:21171   */\n      dup2\n        /* \"#utility.yul\":21165:21168   */\n      dup10\n        /* \"#utility.yul\":21161:21172   */\n      add\n        /* \"#utility.yul\":21154:21189   */\n      mstore\n        /* \"#utility.yul\":21230:21231   */\n      0x01\n        /* \"#utility.yul\":21221:21228   */\n      dup3\n        /* \"#utility.yul\":21217:21232   */\n      add\n        /* \"#utility.yul\":21206:21232   */\n      swap2\n      pop\n        /* \"#utility.yul\":21128:21132   */\n      0x20\n        /* \"#utility.yul\":21125:21126   */\n      dup2\n        /* \"#utility.yul\":21121:21133   */\n      add\n        /* \"#utility.yul\":21116:21133   */\n      swap1\n      pop\n        /* \"#utility.yul\":21092:21246   */\n      jump(tag_613)\n    tag_615:\n        /* \"#utility.yul\":21275:21281   */\n      dup4\n        /* \"#utility.yul\":21270:21273   */\n      dup9\n        /* \"#utility.yul\":21266:21282   */\n      add\n        /* \"#utility.yul\":21259:21282   */\n      swap6\n      pop\n        /* \"#utility.yul\":20958:21292   */\n      pop\n      pop\n        /* \"#utility.yul\":20743:21292   */\n    tag_609:\n      pop\n        /* \"#utility.yul\":20531:21298   */\n      pop\n      pop\n        /* \"#utility.yul\":20424:21298   */\n      swap3\n      swap2\n      pop\n      pop\n      jump\t// out\n        /* \"#utility.yul\":21304:21482   */\n    tag_390:\n        /* \"#utility.yul\":21472:21475   */\n      0x2000000000000000000000000000000000000000000000000000000000000000\n        /* \"#utility.yul\":21467:21470   */\n      dup2\n        /* \"#utility.yul\":21460:21476   */\n      mstore\n        /* \"#utility.yul\":21304:21482   */\n      pop\n      jump\t// out\n        /* \"#utility.yul\":21488:22021   */\n    tag_294:\n        /* \"#utility.yul\":21707:21710   */\n      0x00\n        /* \"#utility.yul\":21729:21821   */\n      tag_618\n        /* \"#utility.yul\":21817:21820   */\n      dup3\n        /* \"#utility.yul\":21808:21814   */\n      dup5\n        /* \"#utility.yul\":21729:21821   */\n      tag_389\n      jump\t// in\n    tag_618:\n        /* \"#utility.yul\":21722:21821   */\n      swap2\n      pop\n        /* \"#utility.yul\":21831:21968   */\n      tag_619\n        /* \"#utility.yul\":21964:21967   */\n      dup3\n        /* \"#utility.yul\":21831:21968   */\n      tag_390\n      jump\t// in\n    tag_619:\n        /* \"#utility.yul\":21993:21994   */\n      0x01\n        /* \"#utility.yul\":21988:21991   */\n      dup3\n        /* \"#utility.yul\":21984:21995   */\n      add\n        /* \"#utility.yul\":21977:21995   */\n      swap2\n      pop\n        /* \"#utility.yul\":22012:22015   */\n      dup2\n        /* \"#utility.yul\":22005:22015   */\n      swap1\n      pop\n        /* \"#utility.yul\":21488:22021   */\n      swap3\n      swap2\n      pop\n      pop\n      jump\t// out\n        /* \"#utility.yul\":22027:22417   */\n    tag_391:\n        /* \"#utility.yul\":22133:22136   */\n      0x00\n        /* \"#utility.yul\":22161:22200   */\n      tag_621\n        /* \"#utility.yul\":22194:22199   */\n      dup3\n        /* \"#utility.yul\":22161:22200   */\n      tag_334\n      jump\t// in\n    tag_621:\n        /* \"#utility.yul\":22216:22305   */\n      tag_622\n        /* \"#utility.yul\":22298:22304   */\n      dup2\n        /* \"#utility.yul\":22293:22296   */\n      dup6\n        /* \"#utility.yul\":22216:22305   */\n      tag_388\n      jump\t// in\n    tag_622:\n        /* \"#utility.yul\":22209:22305   */\n      swap4\n      pop\n        /* \"#utility.yul\":22314:22379   */\n      tag_623\n        /* \"#utility.yul\":22372:22378   */\n      dup2\n        /* \"#utility.yul\":22367:22370   */\n      dup6\n        /* \"#utility.yul\":22360:22364   */\n      0x20\n        /* \"#utility.yul\":22353:22358   */\n      dup7\n        /* \"#utility.yul\":22349:22365   */\n      add\n        /* \"#utility.yul\":22314:22379   */\n      tag_336\n      jump\t// in\n    tag_623:\n        /* \"#utility.yul\":22404:22410   */\n      dup1\n        /* \"#utility.yul\":22399:22402   */\n      dup5\n        /* \"#utility.yul\":22395:22411   */\n      add\n        /* \"#utility.yul\":22388:22411   */\n      swap2\n      pop\n        /* \"#utility.yul\":22137:22417   */\n      pop\n        /* \"#utility.yul\":22027:22417   */\n      swap3\n      swap2\n      pop\n      pop\n      jump\t// out\n        /* \"#utility.yul\":22423:22852   */\n    tag_299:\n        /* \"#utility.yul\":22600:22603   */\n      0x00\n        /* \"#utility.yul\":22622:22717   */\n      tag_625\n        /* \"#utility.yul\":22713:22716   */\n      dup3\n        /* \"#utility.yul\":22704:22710   */\n      dup6\n        /* \"#utility.yul\":22622:22717   */\n      tag_391\n      jump\t// in\n    tag_625:\n        /* \"#utility.yul\":22615:22717   */\n      swap2\n      pop\n        /* \"#utility.yul\":22734:22826   */\n      tag_626\n        /* \"#utility.yul\":22822:22825   */\n      dup3\n        /* \"#utility.yul\":22813:22819   */\n      dup5\n        /* \"#utility.yul\":22734:22826   */\n      tag_389\n      jump\t// in\n    tag_626:\n        /* \"#utility.yul\":22727:22826   */\n      swap2\n      pop\n        /* \"#utility.yul\":22843:22846   */\n      dup2\n        /* \"#utility.yul\":22836:22846   */\n      swap1\n      pop\n        /* \"#utility.yul\":22423:22852   */\n      swap4\n      swap3\n      pop\n      pop\n      pop\n      jump\t// out\n    stop\n    data_f24287593e6ff8cd2dd5c9566b62a6e4ef3410d308e49b0cf6e766b8cdd73b1d 52656a65637465642c2074696d6520657870697265643a206e6f20726573706f6e73652066726f6d20726563697069656e74\n\n    auxdata: 0xa2646970667358221220c2c8cfa267a20a65fada01e2e99f462808feca09e803fd5b3e012f9460e8226e64736f6c63430008170033\n}\n",
				"bytecode": {
					"linkReferences": {},
					"object": "60806040523480156200001157600080fd5b5060405162002b9c38038062002b9c8339818101604052810190620000379190620002af565b816001819055506001600360016101000a81548160ff0219169083600181111562000067576200006662000315565b5b021790555080600290816200007d919062000585565b506000600360006101000a81548160ff021916908315150217905550336000806101000a81548173ffffffffffffffffffffffffffffffffffffffff021916908373ffffffffffffffffffffffffffffffffffffffff16021790555050506200066c565b6000604051905090565b600080fd5b600080fd5b6000819050919050565b6200010a81620000f5565b81146200011657600080fd5b50565b6000815190506200012a81620000ff565b92915050565b600080fd5b600080fd5b6000601f19601f8301169050919050565b7f4e487b7100000000000000000000000000000000000000000000000000000000600052604160045260246000fd5b62000185826200013a565b810181811067ffffffffffffffff82111715620001a757620001a66200014b565b5b80604052505050565b6000620001bc620000e1565b9050620001ca82826200017a565b919050565b600067ffffffffffffffff821115620001ed57620001ec6200014b565b5b620001f8826200013a565b9050602081019050919050565b60005b838110156200022557808201518184015260208101905062000208565b60008484015250505050565b6000620002486200024284620001cf565b620001b0565b90508281526020810184848401111562000267576200026662000135565b5b6200027484828562000205565b509392505050565b600082601f83011262000294576200029362000130565b5b8151620002a684826020860162000231565b91505092915050565b60008060408385031215620002c957620002c8620000eb565b5b6000620002d98582860162000119565b925050602083015167ffffffffffffffff811115620002fd57620002fc620000f0565b5b6200030b858286016200027c565b9150509250929050565b7f4e487b7100000000000000000000000000000000000000000000000000000000600052602160045260246000fd5b600081519050919050565b7f4e487b7100000000000000000000000000000000000000000000000000000000600052602260045260246000fd5b600060028204905060018216806200039757607f821691505b602082108103620003ad57620003ac6200034f565b5b50919050565b60008190508160005260206000209050919050565b60006020601f8301049050919050565b600082821b905092915050565b600060088302620004177fffffffffffffffffffffffffffffffffffffffffffffffffffffffffffffffff82620003d8565b620004238683620003d8565b95508019841693508086168417925050509392505050565b6000819050919050565b600062000466620004606200045a84620000f5565b6200043b565b620000f5565b9050919050565b6000819050919050565b620004828362000445565b6200049a62000491826200046d565b848454620003e5565b825550505050565b600090565b620004b1620004a2565b620004be81848462000477565b505050565b5b81811015620004e657620004da600082620004a7565b600181019050620004c4565b5050565b601f8211156200053557620004ff81620003b3565b6200050a84620003c8565b810160208510156200051a578190505b620005326200052985620003c8565b830182620004c3565b50505b505050565b600082821c905092915050565b60006200055a600019846008026200053a565b1980831691505092915050565b600062000575838362000547565b9150826002028217905092915050565b620005908262000344565b67ffffffffffffffff811115620005ac57620005ab6200014b565b5b620005b882546200037e565b620005c5828285620004ea565b600060209050601f831160018114620005fd5760008415620005e8578287015190505b620005f4858262000567565b86555062000664565b601f1984166200060d86620003b3565b60005b82811015620006375784890151825560018201915060208501945060208101905062000610565b8683101562000657578489015162000653601f89168262000547565b8355505b6001600288020188555050505b505050505050565b612520806200067c6000396000f3fe608060405234801561001057600080fd5b50600436106101215760003560e01c80638901ada7116100ad578063ac3ef22d11610071578063ac3ef22d146102ec578063b74513c1146102f6578063cc20315514610314578063e5a72d5b14610344578063fc68b3ed1461036057610121565b80638901ada7146102465780638da5cb5b14610276578063904c60941461029457806398beaa4c146102b2578063abcc7a65146102ce57610121565b806358975919116100f457806358975919146101b057806365a6bb29146101ce5780637f4e4849146101ec57806384731d6f1461020a5780638594c1271461022857610121565b806335254bcd1461012657806338fcbc011461013057806342be8cb51461014c578063499ba0aa1461017c575b600080fd5b61012e61037c565b005b61014a6004803603810190610145919061197b565b6104bd565b005b610166600480360381019061016191906119ce565b61071c565b6040516101739190611a0a565b60405180910390f35b610196600480360381019061019191906119ce565b610746565b6040516101a7959493929190611b3b565b60405180910390f35b6101b86108b6565b6040516101c59190611a0a565b60405180910390f35b6101d66108bc565b6040516101e39190611c5a565b60405180910390f35b6101f46109ce565b6040516102019190611c7c565b60405180910390f35b610212610abc565b60405161021f9190611ce6565b60405180910390f35b610230610acf565b60405161023d9190611c7c565b60405180910390f35b610260600480360381019061025b91906119ce565b610bdd565b60405161026d9190611c7c565b60405180910390f35b61027e610efd565b60405161028b9190611d42565b60405180910390f35b61029c610f21565b6040516102a99190611c7c565b60405180910390f35b6102cc60048036038101906102c79190611e92565b610faf565b005b6102d6611189565b6040516102e39190611f1d565b60405180910390f35b6102f461119c565b005b6102fe6112ec565b60405161030b9190611c5a565b60405180910390f35b61032e600480360381019061032991906119ce565b611402565b60405161033b9190611c7c565b60405180910390f35b61035e600480360381019061035991906119ce565b611575565b005b61037a600480360381019061037591906119ce565b61166d565b005b60008054906101000a900473ffffffffffffffffffffffffffffffffffffffff1673ffffffffffffffffffffffffffffffffffffffff163373ffffffffffffffffffffffffffffffffffffffff16146103d457600080fd5b60001515600360009054906101000a900460ff1615151461042a576040517f08c379a000000000000000000000000000000000000000000000000000000000815260040161042190611f84565b60405180910390fd5b6000600181111561043e5761043d611ab5565b5b600360019054906101000a900460ff1660018111156104605761045f611ab5565b5b146104a0576040517f08c379a000000000000000000000000000000000000000000000000000000000815260040161049790611ff0565b60405180910390fd5b6001600360006101000a81548160ff021916908315150217905550565b60008054906101000a900473ffffffffffffffffffffffffffffffffffffffff1673ffffffffffffffffffffffffffffffffffffffff163373ffffffffffffffffffffffffffffffffffffffff161461051557600080fd5b60001515600360009054906101000a900460ff1615151461056b576040517f08c379a000000000000000000000000000000000000000000000000000000000815260040161056290611f84565b60405180910390fd5b6000600181111561057f5761057e611ab5565b5b600360019054906101000a900460ff1660018111156105a1576105a0611ab5565b5b146105e1576040517f08c379a00000000000000000000000000000000000000000000000000000000081526004016105d890611ff0565b60405180910390fd5b60005b60048054905081101561071657836004828154811061060657610605612010565b5b9060005260206000209060040201600001540361070957600115158315150361067c5760006004828154811061063f5761063e612010565b5b906000526020600020906004020160030160006101000a81548160ff0219169083600281111561067257610671611ab5565b5b02179055506106cb565b60016004828154811061069257610691612010565b5b906000526020600020906004020160030160006101000a81548160ff021916908360028111156106c5576106c4611ab5565b5b02179055505b81600482815481106106e0576106df612010565b5b906000526020600020906004020160030160016101000a81548160ff0219169083151502179055505b80806001019150506105e4565b50505050565b6005818154811061072c57600080fd5b906000526020600020016000915090508060000154905081565b6004818154811061075657600080fd5b906000526020600020906004020160009150905080600001549080600101805461077f9061206e565b80601f01602080910402602001604051908101604052809291908181526020018280546107ab9061206e565b80156107f85780601f106107cd576101008083540402835291602001916107f8565b820191906000526020600020905b8154815290600101906020018083116107db57829003601f168201915b50505050509080600201805461080d9061206e565b80601f01602080910402602001604051908101604052809291908181526020018280546108399061206e565b80156108865780601f1061085b57610100808354040283529160200191610886565b820191906000526020600020905b81548152906001019060200180831161086957829003601f168201915b5050505050908060030160009054906101000a900460ff16908060030160019054906101000a900460ff16905085565b60015481565b606060008054906101000a900473ffffffffffffffffffffffffffffffffffffffff1673ffffffffffffffffffffffffffffffffffffffff163373ffffffffffffffffffffffffffffffffffffffff161461091657600080fd5b600060058054905067ffffffffffffffff81111561093757610936611d67565b5b6040519080825280602002602001820160405280156109655781602001602082028036833780820191505090505b50905060005b6005805490508110156109c6576005818154811061098c5761098b612010565b5b90600052602060002001600001548282815181106109ad576109ac612010565b5b602002602001018181525050808060010191505061096b565b508091505090565b606060008054906101000a900473ffffffffffffffffffffffffffffffffffffffff1673ffffffffffffffffffffffffffffffffffffffff163373ffffffffffffffffffffffffffffffffffffffff1614610a2857600080fd5b60011515600360009054906101000a900460ff16151503610a80576040518060400160405280600f81526020017f436f6e747261637420436c6f73656400000000000000000000000000000000008152509050610ab9565b6040518060400160405280600d81526020017f436f6e7472616374204f70656e0000000000000000000000000000000000000081525090505b90565b600360019054906101000a900460ff1681565b606060008054906101000a900473ffffffffffffffffffffffffffffffffffffffff1673ffffffffffffffffffffffffffffffffffffffff163373ffffffffffffffffffffffffffffffffffffffff1614610b2957600080fd5b60006001811115610b3d57610b3c611ab5565b5b600360019054906101000a900460ff166001811115610b5f57610b5e611ab5565b5b03610ba1576040518060400160405280600881526020017f44656365617365640000000000000000000000000000000000000000000000008152509050610bda565b6040518060400160405280600581526020017f416c69766500000000000000000000000000000000000000000000000000000081525090505b90565b606060008054906101000a900473ffffffffffffffffffffffffffffffffffffffff1673ffffffffffffffffffffffffffffffffffffffff163373ffffffffffffffffffffffffffffffffffffffff1614610c3757600080fd5b60005b600480549050811015610ebe578260048281548110610c5c57610c5b612010565b5b90600052602060002090600402016000015403610eb15760006002811115610c8757610c86611ab5565b5b60048281548110610c9b57610c9a612010565b5b906000526020600020906004020160030160009054906101000a900460ff166002811115610ccc57610ccb611ab5565b5b03610d0f576040518060400160405280600881526020017f4163636570746564000000000000000000000000000000000000000000000000815250915050610ef8565b60016002811115610d2357610d22611ab5565b5b60048281548110610d3757610d36612010565b5b906000526020600020906004020160030160009054906101000a900460ff166002811115610d6857610d67611ab5565b5b148015610dab57506000151560048281548110610d8857610d87612010565b5b906000526020600020906004020160030160019054906101000a900460ff161515145b15610dee576040518060400160405280600881526020017f52656a6563746564000000000000000000000000000000000000000000000000815250915050610ef8565b60016002811115610e0257610e01611ab5565b5b60048281548110610e1657610e15612010565b5b906000526020600020906004020160030160009054906101000a900460ff166002811115610e4757610e46611ab5565b5b148015610e8a57506001151560048281548110610e6757610e66612010565b5b906000526020600020906004020160030160019054906101000a900460ff161515145b15610eb0576040518060600160405280603281526020016124b960329139915050610ef8565b5b8080600101915050610c3a565b506040518060400160405280600681526020017f6e6f64617461000000000000000000000000000000000000000000000000000081525090505b919050565b60008054906101000a900473ffffffffffffffffffffffffffffffffffffffff1681565b60028054610f2e9061206e565b80601f0160208091040260200160405190810160405280929190818152602001828054610f5a9061206e565b8015610fa75780601f10610f7c57610100808354040283529160200191610fa7565b820191906000526020600020905b815481529060010190602001808311610f8a57829003601f168201915b505050505081565b60008054906101000a900473ffffffffffffffffffffffffffffffffffffffff1673ffffffffffffffffffffffffffffffffffffffff163373ffffffffffffffffffffffffffffffffffffffff161461100757600080fd5b60001515600360009054906101000a900460ff1615151461105d576040517f08c379a000000000000000000000000000000000000000000000000000000000815260040161105490611f84565b60405180910390fd5b6000600181111561107157611070611ab5565b5b600360019054906101000a900460ff16600181111561109357611092611ab5565b5b146110d3576040517f08c379a00000000000000000000000000000000000000000000000000000000081526004016110ca90611ff0565b60405180910390fd5b60005b6004805490508110156111835783600482815481106110f8576110f7612010565b5b9060005260206000209060040201600001540361117657826004828154811061112457611123612010565b5b90600052602060002090600402016001019081611141919061224b565b50816004828154811061115757611156612010565b5b90600052602060002090600402016002019081611174919061224b565b505b80806001019150506110d6565b50505050565b600360009054906101000a900460ff1681565b60008054906101000a900473ffffffffffffffffffffffffffffffffffffffff1673ffffffffffffffffffffffffffffffffffffffff163373ffffffffffffffffffffffffffffffffffffffff16146111f457600080fd5b60018081111561120757611206611ab5565b5b600360019054906101000a900460ff16600181111561122957611228611ab5565b5b14611269576040517f08c379a000000000000000000000000000000000000000000000000000000000815260040161126090612369565b60405180910390fd5b60001515600360009054906101000a900460ff161515146112bf576040517f08c379a00000000000000000000000000000000000000000000000000000000081526004016112b690611f84565b60405180910390fd5b6000600360016101000a81548160ff021916908360018111156112e5576112e4611ab5565b5b0217905550565b606060008054906101000a900473ffffffffffffffffffffffffffffffffffffffff1673ffffffffffffffffffffffffffffffffffffffff163373ffffffffffffffffffffffffffffffffffffffff161461134657600080fd5b600060048054905067ffffffffffffffff81111561136757611366611d67565b5b6040519080825280602002602001820160405280156113955781602001602082028036833780820191505090505b50905060005b6004805490508110156113fa57600481815481106113bc576113bb612010565b5b9060005260206000209060040201600001548282815181106113e1576113e0612010565b5b602002602001018181525050808060010191505061139b565b508091505090565b606060008054906101000a900473ffffffffffffffffffffffffffffffffffffffff1673ffffffffffffffffffffffffffffffffffffffff163373ffffffffffffffffffffffffffffffffffffffff161461145c57600080fd5b60005b60048054905081101561153657826004828154811061148157611480612010565b5b9060005260206000209060040201600001540361152957600481815481106114ac576114ab612010565b5b90600052602060002090600402016002016040516020016114cd919061243d565b604051602081830303815290604052600482815481106114f0576114ef612010565b5b9060005260206000209060040201600101604051602001611512929190612494565b604051602081830303815290604052915050611570565b808060010191505061145f565b506040518060400160405280600681526020017f6e6f64617461000000000000000000000000000000000000000000000000000081525090505b919050565b60008054906101000a900473ffffffffffffffffffffffffffffffffffffffff1673ffffffffffffffffffffffffffffffffffffffff163373ffffffffffffffffffffffffffffffffffffffff16146115cd57600080fd5b60001515600360009054906101000a900460ff16151514611623576040517f08c379a000000000000000000000000000000000000000000000000000000000815260040161161a90611f84565b60405180910390fd5b61162b6118a3565b81816000018181525050600581908060018154018082558091505060019003906000526020600020016000909190919091506000820151816000015550505050565b60008054906101000a900473ffffffffffffffffffffffffffffffffffffffff1673ffffffffffffffffffffffffffffffffffffffff163373ffffffffffffffffffffffffffffffffffffffff16146116c557600080fd5b60001515600360009054906101000a900460ff1615151461171b576040517f08c379a000000000000000000000000000000000000000000000000000000000815260040161171290611f84565b60405180910390fd5b6117236118b6565b8181600001818152505060028160600190600281111561174657611745611ab5565b5b9081600281111561175a57611759611ab5565b5b815250506040518060400160405280600681526020017f6e6f64617461000000000000000000000000000000000000000000000000000081525081602001819052506040518060400160405280600681526020017f6e6f646174610000000000000000000000000000000000000000000000000000815250816040018190525060008160800190151590811515815250506004819080600181540180825580915050600190039060005260206000209060040201600090919091909150600082015181600001556020820151816001019081611836919061224b565b50604082015181600201908161184c919061224b565b5060608201518160030160006101000a81548160ff0219169083600281111561187857611877611ab5565b5b021790555060808201518160030160016101000a81548160ff02191690831515021790555050505050565b6040518060200160405280600081525090565b6040518060a00160405280600081526020016060815260200160608152602001600060028111156118ea576118e9611ab5565b5b81526020016000151581525090565b6000604051905090565b600080fd5b600080fd5b6000819050919050565b6119208161190d565b811461192b57600080fd5b50565b60008135905061193d81611917565b92915050565b60008115159050919050565b61195881611943565b811461196357600080fd5b50565b6000813590506119758161194f565b92915050565b60008060006060848603121561199457611993611903565b5b60006119a28682870161192e565b93505060206119b386828701611966565b92505060406119c486828701611966565b9150509250925092565b6000602082840312156119e4576119e3611903565b5b60006119f28482850161192e565b91505092915050565b611a048161190d565b82525050565b6000602082019050611a1f60008301846119fb565b92915050565b600081519050919050565b600082825260208201905092915050565b60005b83811015611a5f578082015181840152602081019050611a44565b60008484015250505050565b6000601f19601f8301169050919050565b6000611a8782611a25565b611a918185611a30565b9350611aa1818560208601611a41565b611aaa81611a6b565b840191505092915050565b7f4e487b7100000000000000000000000000000000000000000000000000000000600052602160045260246000fd5b60038110611af557611af4611ab5565b5b50565b6000819050611b0682611ae4565b919050565b6000611b1682611af8565b9050919050565b611b2681611b0b565b82525050565b611b3581611943565b82525050565b600060a082019050611b5060008301886119fb565b8181036020830152611b628187611a7c565b90508181036040830152611b768186611a7c565b9050611b856060830185611b1d565b611b926080830184611b2c565b9695505050505050565b600081519050919050565b600082825260208201905092915050565b6000819050602082019050919050565b611bd18161190d565b82525050565b6000611be38383611bc8565b60208301905092915050565b6000602082019050919050565b6000611c0782611b9c565b611c118185611ba7565b9350611c1c83611bb8565b8060005b83811015611c4d578151611c348882611bd7565b9750611c3f83611bef565b925050600181019050611c20565b5085935050505092915050565b60006020820190508181036000830152611c748184611bfc565b905092915050565b60006020820190508181036000830152611c968184611a7c565b905092915050565b60028110611caf57611cae611ab5565b5b50565b6000819050611cc082611c9e565b919050565b6000611cd082611cb2565b9050919050565b611ce081611cc5565b82525050565b6000602082019050611cfb6000830184611cd7565b92915050565b600073ffffffffffffffffffffffffffffffffffffffff82169050919050565b6000611d2c82611d01565b9050919050565b611d3c81611d21565b82525050565b6000602082019050611d576000830184611d33565b92915050565b600080fd5b600080fd5b7f4e487b7100000000000000000000000000000000000000000000000000000000600052604160045260246000fd5b611d9f82611a6b565b810181811067ffffffffffffffff82111715611dbe57611dbd611d67565b5b80604052505050565b6000611dd16118f9565b9050611ddd8282611d96565b919050565b600067ffffffffffffffff821115611dfd57611dfc611d67565b5b611e0682611a6b565b9050602081019050919050565b82818337600083830152505050565b6000611e35611e3084611de2565b611dc7565b905082815260208101848484011115611e5157611e50611d62565b5b611e5c848285611e13565b509392505050565b600082601f830112611e7957611e78611d5d565b5b8135611e89848260208601611e22565b91505092915050565b600080600060608486031215611eab57611eaa611903565b5b6000611eb98682870161192e565b935050602084013567ffffffffffffffff811115611eda57611ed9611908565b5b611ee686828701611e64565b925050604084013567ffffffffffffffff811115611f0757611f06611908565b5b611f1386828701611e64565b9150509250925092565b6000602082019050611f326000830184611b2c565b92915050565b7f536d61727420436f6e747261637420697320636c6f7365640000000000000000600082015250565b6000611f6e601883611a30565b9150611f7982611f38565b602082019050919050565b60006020820190508181036000830152611f9d81611f61565b9050919050565b7f55736572206973207374696c6c20616c69766500000000000000000000000000600082015250565b6000611fda601383611a30565b9150611fe582611fa4565b602082019050919050565b6000602082019050818103600083015261200981611fcd565b9050919050565b7f4e487b7100000000000000000000000000000000000000000000000000000000600052603260045260246000fd5b7f4e487b7100000000000000000000000000000000000000000000000000000000600052602260045260246000fd5b6000600282049050600182168061208657607f821691505b6020821081036120995761209861203f565b5b50919050565b60008190508160005260206000209050919050565b60006020601f8301049050919050565b600082821b905092915050565b6000600883026121017fffffffffffffffffffffffffffffffffffffffffffffffffffffffffffffffff826120c4565b61210b86836120c4565b95508019841693508086168417925050509392505050565b6000819050919050565b600061214861214361213e8461190d565b612123565b61190d565b9050919050565b6000819050919050565b6121628361212d565b61217661216e8261214f565b8484546120d1565b825550505050565b600090565b61218b61217e565b612196818484612159565b505050565b5b818110156121ba576121af600082612183565b60018101905061219c565b5050565b601f8211156121ff576121d08161209f565b6121d9846120b4565b810160208510156121e8578190505b6121fc6121f4856120b4565b83018261219b565b50505b505050565b600082821c905092915050565b600061222260001984600802612204565b1980831691505092915050565b600061223b8383612211565b9150826002028217905092915050565b61225482611a25565b67ffffffffffffffff81111561226d5761226c611d67565b5b612277825461206e565b6122828282856121be565b600060209050601f8311600181146122b557600084156122a3578287015190505b6122ad858261222f565b865550612315565b601f1984166122c38661209f565b60005b828110156122eb578489015182556001820191506020850194506020810190506122c6565b868310156123085784890151612304601f891682612211565b8355505b6001600288020188555050505b505050505050565b7f5573657220646563656173656420697320616c72656164792073657400000000600082015250565b6000612353601c83611a30565b915061235e8261231d565b602082019050919050565b6000602082019050818103600083015261238281612346565b9050919050565b600081905092915050565b600081546123a18161206e565b6123ab8186612389565b945060018216600081146123c657600181146123db5761240e565b60ff198316865281151582028601935061240e565b6123e48561209f565b60005b83811015612406578154818901526001820191506020810190506123e7565b838801955050505b50505092915050565b7f2000000000000000000000000000000000000000000000000000000000000000815250565b60006124498284612394565b915061245482612417565b60018201915081905092915050565b600061246e82611a25565b6124788185612389565b9350612488818560208601611a41565b80840191505092915050565b60006124a08285612463565b91506124ac8284612394565b9150819050939250505056fe52656a65637465642c2074696d6520657870697265643a206e6f20726573706f6e73652066726f6d20726563697069656e74a2646970667358221220c2c8cfa267a20a65fada01e2e99f462808feca09e803fd5b3e012f9460e8226e64736f6c63430008170033",
					"opcodes": "PUSH1 0x80 PUSH1 0x40 MSTORE CALLVALUE DUP1 ISZERO PUSH3 0x11 JUMPI PUSH1 0x0 DUP1 REVERT JUMPDEST POP PUSH1 0x40 MLOAD PUSH3 0x2B9C CODESIZE SUB DUP1 PUSH3 0x2B9C DUP4 CODECOPY DUP2 DUP2 ADD PUSH1 0x40 MSTORE DUP2 ADD SWAP1 PUSH3 0x37 SWAP2 SWAP1 PUSH3 0x2AF JUMP JUMPDEST DUP2 PUSH1 0x1 DUP2 SWAP1 SSTORE POP PUSH1 0x1 PUSH1 0x3 PUSH1 0x1 PUSH2 0x100 EXP DUP2 SLOAD DUP2 PUSH1 0xFF MUL NOT AND SWAP1 DUP4 PUSH1 0x1 DUP2 GT ISZERO PUSH3 0x67 JUMPI PUSH3 0x66 PUSH3 0x315 JUMP JUMPDEST JUMPDEST MUL OR SWAP1 SSTORE POP DUP1 PUSH1 0x2 SWAP1 DUP2 PUSH3 0x7D SWAP2 SWAP1 PUSH3 0x585 JUMP JUMPDEST POP PUSH1 0x0 PUSH1 0x3 PUSH1 0x0 PUSH2 0x100 EXP DUP2 SLOAD DUP2 PUSH1 0xFF MUL NOT AND SWAP1 DUP4 ISZERO ISZERO MUL OR SWAP1 SSTORE POP CALLER PUSH1 0x0 DUP1 PUSH2 0x100 EXP DUP2 SLOAD DUP2 PUSH20 0xFFFFFFFFFFFFFFFFFFFFFFFFFFFFFFFFFFFFFFFF MUL NOT AND SWAP1 DUP4 PUSH20 0xFFFFFFFFFFFFFFFFFFFFFFFFFFFFFFFFFFFFFFFF AND MUL OR SWAP1 SSTORE POP POP POP PUSH3 0x66C JUMP JUMPDEST PUSH1 0x0 PUSH1 0x40 MLOAD SWAP1 POP SWAP1 JUMP JUMPDEST PUSH1 0x0 DUP1 REVERT JUMPDEST PUSH1 0x0 DUP1 REVERT JUMPDEST PUSH1 0x0 DUP2 SWAP1 POP SWAP2 SWAP1 POP JUMP JUMPDEST PUSH3 0x10A DUP2 PUSH3 0xF5 JUMP JUMPDEST DUP2 EQ PUSH3 0x116 JUMPI PUSH1 0x0 DUP1 REVERT JUMPDEST POP JUMP JUMPDEST PUSH1 0x0 DUP2 MLOAD SWAP1 POP PUSH3 0x12A DUP2 PUSH3 0xFF JUMP JUMPDEST SWAP3 SWAP2 POP POP JUMP JUMPDEST PUSH1 0x0 DUP1 REVERT JUMPDEST PUSH1 0x0 DUP1 REVERT JUMPDEST PUSH1 0x0 PUSH1 0x1F NOT PUSH1 0x1F DUP4 ADD AND SWAP1 POP SWAP2 SWAP1 POP JUMP JUMPDEST PUSH32 0x4E487B7100000000000000000000000000000000000000000000000000000000 PUSH1 0x0 MSTORE PUSH1 0x41 PUSH1 0x4 MSTORE PUSH1 0x24 PUSH1 0x0 REVERT JUMPDEST PUSH3 0x185 DUP3 PUSH3 0x13A JUMP JUMPDEST DUP2 ADD DUP2 DUP2 LT PUSH8 0xFFFFFFFFFFFFFFFF DUP3 GT OR ISZERO PUSH3 0x1A7 JUMPI PUSH3 0x1A6 PUSH3 0x14B JUMP JUMPDEST JUMPDEST DUP1 PUSH1 0x40 MSTORE POP POP POP JUMP JUMPDEST PUSH1 0x0 PUSH3 0x1BC PUSH3 0xE1 JUMP JUMPDEST SWAP1 POP PUSH3 0x1CA DUP3 DUP3 PUSH3 0x17A JUMP JUMPDEST SWAP2 SWAP1 POP JUMP JUMPDEST PUSH1 0x0 PUSH8 0xFFFFFFFFFFFFFFFF DUP3 GT ISZERO PUSH3 0x1ED JUMPI PUSH3 0x1EC PUSH3 0x14B JUMP JUMPDEST JUMPDEST PUSH3 0x1F8 DUP3 PUSH3 0x13A JUMP JUMPDEST SWAP1 POP PUSH1 0x20 DUP2 ADD SWAP1 POP SWAP2 SWAP1 POP JUMP JUMPDEST PUSH1 0x0 JUMPDEST DUP4 DUP2 LT ISZERO PUSH3 0x225 JUMPI DUP1 DUP3 ADD MLOAD DUP2 DUP5 ADD MSTORE PUSH1 0x20 DUP2 ADD SWAP1 POP PUSH3 0x208 JUMP JUMPDEST PUSH1 0x0 DUP5 DUP5 ADD MSTORE POP POP POP POP JUMP JUMPDEST PUSH1 0x0 PUSH3 0x248 PUSH3 0x242 DUP5 PUSH3 0x1CF JUMP JUMPDEST PUSH3 0x1B0 JUMP JUMPDEST SWAP1 POP DUP3 DUP2 MSTORE PUSH1 0x20 DUP2 ADD DUP5 DUP5 DUP5 ADD GT ISZERO PUSH3 0x267 JUMPI PUSH3 0x266 PUSH3 0x135 JUMP JUMPDEST JUMPDEST PUSH3 0x274 DUP5 DUP3 DUP6 PUSH3 0x205 JUMP JUMPDEST POP SWAP4 SWAP3 POP POP POP JUMP JUMPDEST PUSH1 0x0 DUP3 PUSH1 0x1F DUP4 ADD SLT PUSH3 0x294 JUMPI PUSH3 0x293 PUSH3 0x130 JUMP JUMPDEST JUMPDEST DUP2 MLOAD PUSH3 0x2A6 DUP5 DUP3 PUSH1 0x20 DUP7 ADD PUSH3 0x231 JUMP JUMPDEST SWAP2 POP POP SWAP3 SWAP2 POP POP JUMP JUMPDEST PUSH1 0x0 DUP1 PUSH1 0x40 DUP4 DUP6 SUB SLT ISZERO PUSH3 0x2C9 JUMPI PUSH3 0x2C8 PUSH3 0xEB JUMP JUMPDEST JUMPDEST PUSH1 0x0 PUSH3 0x2D9 DUP6 DUP3 DUP7 ADD PUSH3 0x119 JUMP JUMPDEST SWAP3 POP POP PUSH1 0x20 DUP4 ADD MLOAD PUSH8 0xFFFFFFFFFFFFFFFF DUP2 GT ISZERO PUSH3 0x2FD JUMPI PUSH3 0x2FC PUSH3 0xF0 JUMP JUMPDEST JUMPDEST PUSH3 0x30B DUP6 DUP3 DUP7 ADD PUSH3 0x27C JUMP JUMPDEST SWAP2 POP POP SWAP3 POP SWAP3 SWAP1 POP JUMP JUMPDEST PUSH32 0x4E487B7100000000000000000000000000000000000000000000000000000000 PUSH1 0x0 MSTORE PUSH1 0x21 PUSH1 0x4 MSTORE PUSH1 0x24 PUSH1 0x0 REVERT JUMPDEST PUSH1 0x0 DUP2 MLOAD SWAP1 POP SWAP2 SWAP1 POP JUMP JUMPDEST PUSH32 0x4E487B7100000000000000000000000000000000000000000000000000000000 PUSH1 0x0 MSTORE PUSH1 0x22 PUSH1 0x4 MSTORE PUSH1 0x24 PUSH1 0x0 REVERT JUMPDEST PUSH1 0x0 PUSH1 0x2 DUP3 DIV SWAP1 POP PUSH1 0x1 DUP3 AND DUP1 PUSH3 0x397 JUMPI PUSH1 0x7F DUP3 AND SWAP2 POP JUMPDEST PUSH1 0x20 DUP3 LT DUP2 SUB PUSH3 0x3AD JUMPI PUSH3 0x3AC PUSH3 0x34F JUMP JUMPDEST JUMPDEST POP SWAP2 SWAP1 POP JUMP JUMPDEST PUSH1 0x0 DUP2 SWAP1 POP DUP2 PUSH1 0x0 MSTORE PUSH1 0x20 PUSH1 0x0 KECCAK256 SWAP1 POP SWAP2 SWAP1 POP JUMP JUMPDEST PUSH1 0x0 PUSH1 0x20 PUSH1 0x1F DUP4 ADD DIV SWAP1 POP SWAP2 SWAP1 POP JUMP JUMPDEST PUSH1 0x0 DUP3 DUP3 SHL SWAP1 POP SWAP3 SWAP2 POP POP JUMP JUMPDEST PUSH1 0x0 PUSH1 0x8 DUP4 MUL PUSH3 0x417 PUSH32 0xFFFFFFFFFFFFFFFFFFFFFFFFFFFFFFFFFFFFFFFFFFFFFFFFFFFFFFFFFFFFFFFF DUP3 PUSH3 0x3D8 JUMP JUMPDEST PUSH3 0x423 DUP7 DUP4 PUSH3 0x3D8 JUMP JUMPDEST SWAP6 POP DUP1 NOT DUP5 AND SWAP4 POP DUP1 DUP7 AND DUP5 OR SWAP3 POP POP POP SWAP4 SWAP3 POP POP POP JUMP JUMPDEST PUSH1 0x0 DUP2 SWAP1 POP SWAP2 SWAP1 POP JUMP JUMPDEST PUSH1 0x0 PUSH3 0x466 PUSH3 0x460 PUSH3 0x45A DUP5 PUSH3 0xF5 JUMP JUMPDEST PUSH3 0x43B JUMP JUMPDEST PUSH3 0xF5 JUMP JUMPDEST SWAP1 POP SWAP2 SWAP1 POP JUMP JUMPDEST PUSH1 0x0 DUP2 SWAP1 POP SWAP2 SWAP1 POP JUMP JUMPDEST PUSH3 0x482 DUP4 PUSH3 0x445 JUMP JUMPDEST PUSH3 0x49A PUSH3 0x491 DUP3 PUSH3 0x46D JUMP JUMPDEST DUP5 DUP5 SLOAD PUSH3 0x3E5 JUMP JUMPDEST DUP3 SSTORE POP POP POP POP JUMP JUMPDEST PUSH1 0x0 SWAP1 JUMP JUMPDEST PUSH3 0x4B1 PUSH3 0x4A2 JUMP JUMPDEST PUSH3 0x4BE DUP2 DUP5 DUP5 PUSH3 0x477 JUMP JUMPDEST POP POP POP JUMP JUMPDEST JUMPDEST DUP2 DUP2 LT ISZERO PUSH3 0x4E6 JUMPI PUSH3 0x4DA PUSH1 0x0 DUP3 PUSH3 0x4A7 JUMP JUMPDEST PUSH1 0x1 DUP2 ADD SWAP1 POP PUSH3 0x4C4 JUMP JUMPDEST POP POP JUMP JUMPDEST PUSH1 0x1F DUP3 GT ISZERO PUSH3 0x535 JUMPI PUSH3 0x4FF DUP2 PUSH3 0x3B3 JUMP JUMPDEST PUSH3 0x50A DUP5 PUSH3 0x3C8 JUMP JUMPDEST DUP2 ADD PUSH1 0x20 DUP6 LT ISZERO PUSH3 0x51A JUMPI DUP2 SWAP1 POP JUMPDEST PUSH3 0x532 PUSH3 0x529 DUP6 PUSH3 0x3C8 JUMP JUMPDEST DUP4 ADD DUP3 PUSH3 0x4C3 JUMP JUMPDEST POP POP JUMPDEST POP POP POP JUMP JUMPDEST PUSH1 0x0 DUP3 DUP3 SHR SWAP1 POP SWAP3 SWAP2 POP POP JUMP JUMPDEST PUSH1 0x0 PUSH3 0x55A PUSH1 0x0 NOT DUP5 PUSH1 0x8 MUL PUSH3 0x53A JUMP JUMPDEST NOT DUP1 DUP4 AND SWAP2 POP POP SWAP3 SWAP2 POP POP JUMP JUMPDEST PUSH1 0x0 PUSH3 0x575 DUP4 DUP4 PUSH3 0x547 JUMP JUMPDEST SWAP2 POP DUP3 PUSH1 0x2 MUL DUP3 OR SWAP1 POP SWAP3 SWAP2 POP POP JUMP JUMPDEST PUSH3 0x590 DUP3 PUSH3 0x344 JUMP JUMPDEST PUSH8 0xFFFFFFFFFFFFFFFF DUP2 GT ISZERO PUSH3 0x5AC JUMPI PUSH3 0x5AB PUSH3 0x14B JUMP JUMPDEST JUMPDEST PUSH3 0x5B8 DUP3 SLOAD PUSH3 0x37E JUMP JUMPDEST PUSH3 0x5C5 DUP3 DUP3 DUP6 PUSH3 0x4EA JUMP JUMPDEST PUSH1 0x0 PUSH1 0x20 SWAP1 POP PUSH1 0x1F DUP4 GT PUSH1 0x1 DUP2 EQ PUSH3 0x5FD JUMPI PUSH1 0x0 DUP5 ISZERO PUSH3 0x5E8 JUMPI DUP3 DUP8 ADD MLOAD SWAP1 POP JUMPDEST PUSH3 0x5F4 DUP6 DUP3 PUSH3 0x567 JUMP JUMPDEST DUP7 SSTORE POP PUSH3 0x664 JUMP JUMPDEST PUSH1 0x1F NOT DUP5 AND PUSH3 0x60D DUP7 PUSH3 0x3B3 JUMP JUMPDEST PUSH1 0x0 JUMPDEST DUP3 DUP2 LT ISZERO PUSH3 0x637 JUMPI DUP5 DUP10 ADD MLOAD DUP3 SSTORE PUSH1 0x1 DUP3 ADD SWAP2 POP PUSH1 0x20 DUP6 ADD SWAP5 POP PUSH1 0x20 DUP2 ADD SWAP1 POP PUSH3 0x610 JUMP JUMPDEST DUP7 DUP4 LT ISZERO PUSH3 0x657 JUMPI DUP5 DUP10 ADD MLOAD PUSH3 0x653 PUSH1 0x1F DUP10 AND DUP3 PUSH3 0x547 JUMP JUMPDEST DUP4 SSTORE POP JUMPDEST PUSH1 0x1 PUSH1 0x2 DUP9 MUL ADD DUP9 SSTORE POP POP POP JUMPDEST POP POP POP POP POP POP JUMP JUMPDEST PUSH2 0x2520 DUP1 PUSH3 0x67C PUSH1 0x0 CODECOPY PUSH1 0x0 RETURN INVALID PUSH1 0x80 PUSH1 0x40 MSTORE CALLVALUE DUP1 ISZERO PUSH2 0x10 JUMPI PUSH1 0x0 DUP1 REVERT JUMPDEST POP PUSH1 0x4 CALLDATASIZE LT PUSH2 0x121 JUMPI PUSH1 0x0 CALLDATALOAD PUSH1 0xE0 SHR DUP1 PUSH4 0x8901ADA7 GT PUSH2 0xAD JUMPI DUP1 PUSH4 0xAC3EF22D GT PUSH2 0x71 JUMPI DUP1 PUSH4 0xAC3EF22D EQ PUSH2 0x2EC JUMPI DUP1 PUSH4 0xB74513C1 EQ PUSH2 0x2F6 JUMPI DUP1 PUSH4 0xCC203155 EQ PUSH2 0x314 JUMPI DUP1 PUSH4 0xE5A72D5B EQ PUSH2 0x344 JUMPI DUP1 PUSH4 0xFC68B3ED EQ PUSH2 0x360 JUMPI PUSH2 0x121 JUMP JUMPDEST DUP1 PUSH4 0x8901ADA7 EQ PUSH2 0x246 JUMPI DUP1 PUSH4 0x8DA5CB5B EQ PUSH2 0x276 JUMPI DUP1 PUSH4 0x904C6094 EQ PUSH2 0x294 JUMPI DUP1 PUSH4 0x98BEAA4C EQ PUSH2 0x2B2 JUMPI DUP1 PUSH4 0xABCC7A65 EQ PUSH2 0x2CE JUMPI PUSH2 0x121 JUMP JUMPDEST DUP1 PUSH4 0x58975919 GT PUSH2 0xF4 JUMPI DUP1 PUSH4 0x58975919 EQ PUSH2 0x1B0 JUMPI DUP1 PUSH4 0x65A6BB29 EQ PUSH2 0x1CE JUMPI DUP1 PUSH4 0x7F4E4849 EQ PUSH2 0x1EC JUMPI DUP1 PUSH4 0x84731D6F EQ PUSH2 0x20A JUMPI DUP1 PUSH4 0x8594C127 EQ PUSH2 0x228 JUMPI PUSH2 0x121 JUMP JUMPDEST DUP1 PUSH4 0x35254BCD EQ PUSH2 0x126 JUMPI DUP1 PUSH4 0x38FCBC01 EQ PUSH2 0x130 JUMPI DUP1 PUSH4 0x42BE8CB5 EQ PUSH2 0x14C JUMPI DUP1 PUSH4 0x499BA0AA EQ PUSH2 0x17C JUMPI JUMPDEST PUSH1 0x0 DUP1 REVERT JUMPDEST PUSH2 0x12E PUSH2 0x37C JUMP JUMPDEST STOP JUMPDEST PUSH2 0x14A PUSH1 0x4 DUP1 CALLDATASIZE SUB DUP2 ADD SWAP1 PUSH2 0x145 SWAP2 SWAP1 PUSH2 0x197B JUMP JUMPDEST PUSH2 0x4BD JUMP JUMPDEST STOP JUMPDEST PUSH2 0x166 PUSH1 0x4 DUP1 CALLDATASIZE SUB DUP2 ADD SWAP1 PUSH2 0x161 SWAP2 SWAP1 PUSH2 0x19CE JUMP JUMPDEST PUSH2 0x71C JUMP JUMPDEST PUSH1 0x40 MLOAD PUSH2 0x173 SWAP2 SWAP1 PUSH2 0x1A0A JUMP JUMPDEST PUSH1 0x40 MLOAD DUP1 SWAP2 SUB SWAP1 RETURN JUMPDEST PUSH2 0x196 PUSH1 0x4 DUP1 CALLDATASIZE SUB DUP2 ADD SWAP1 PUSH2 0x191 SWAP2 SWAP1 PUSH2 0x19CE JUMP JUMPDEST PUSH2 0x746 JUMP JUMPDEST PUSH1 0x40 MLOAD PUSH2 0x1A7 SWAP6 SWAP5 SWAP4 SWAP3 SWAP2 SWAP1 PUSH2 0x1B3B JUMP JUMPDEST PUSH1 0x40 MLOAD DUP1 SWAP2 SUB SWAP1 RETURN JUMPDEST PUSH2 0x1B8 PUSH2 0x8B6 JUMP JUMPDEST PUSH1 0x40 MLOAD PUSH2 0x1C5 SWAP2 SWAP1 PUSH2 0x1A0A JUMP JUMPDEST PUSH1 0x40 MLOAD DUP1 SWAP2 SUB SWAP1 RETURN JUMPDEST PUSH2 0x1D6 PUSH2 0x8BC JUMP JUMPDEST PUSH1 0x40 MLOAD PUSH2 0x1E3 SWAP2 SWAP1 PUSH2 0x1C5A JUMP JUMPDEST PUSH1 0x40 MLOAD DUP1 SWAP2 SUB SWAP1 RETURN JUMPDEST PUSH2 0x1F4 PUSH2 0x9CE JUMP JUMPDEST PUSH1 0x40 MLOAD PUSH2 0x201 SWAP2 SWAP1 PUSH2 0x1C7C JUMP JUMPDEST PUSH1 0x40 MLOAD DUP1 SWAP2 SUB SWAP1 RETURN JUMPDEST PUSH2 0x212 PUSH2 0xABC JUMP JUMPDEST PUSH1 0x40 MLOAD PUSH2 0x21F SWAP2 SWAP1 PUSH2 0x1CE6 JUMP JUMPDEST PUSH1 0x40 MLOAD DUP1 SWAP2 SUB SWAP1 RETURN JUMPDEST PUSH2 0x230 PUSH2 0xACF JUMP JUMPDEST PUSH1 0x40 MLOAD PUSH2 0x23D SWAP2 SWAP1 PUSH2 0x1C7C JUMP JUMPDEST PUSH1 0x40 MLOAD DUP1 SWAP2 SUB SWAP1 RETURN JUMPDEST PUSH2 0x260 PUSH1 0x4 DUP1 CALLDATASIZE SUB DUP2 ADD SWAP1 PUSH2 0x25B SWAP2 SWAP1 PUSH2 0x19CE JUMP JUMPDEST PUSH2 0xBDD JUMP JUMPDEST PUSH1 0x40 MLOAD PUSH2 0x26D SWAP2 SWAP1 PUSH2 0x1C7C JUMP JUMPDEST PUSH1 0x40 MLOAD DUP1 SWAP2 SUB SWAP1 RETURN JUMPDEST PUSH2 0x27E PUSH2 0xEFD JUMP JUMPDEST PUSH1 0x40 MLOAD PUSH2 0x28B SWAP2 SWAP1 PUSH2 0x1D42 JUMP JUMPDEST PUSH1 0x40 MLOAD DUP1 SWAP2 SUB SWAP1 RETURN JUMPDEST PUSH2 0x29C PUSH2 0xF21 JUMP JUMPDEST PUSH1 0x40 MLOAD PUSH2 0x2A9 SWAP2 SWAP1 PUSH2 0x1C7C JUMP JUMPDEST PUSH1 0x40 MLOAD DUP1 SWAP2 SUB SWAP1 RETURN JUMPDEST PUSH2 0x2CC PUSH1 0x4 DUP1 CALLDATASIZE SUB DUP2 ADD SWAP1 PUSH2 0x2C7 SWAP2 SWAP1 PUSH2 0x1E92 JUMP JUMPDEST PUSH2 0xFAF JUMP JUMPDEST STOP JUMPDEST PUSH2 0x2D6 PUSH2 0x1189 JUMP JUMPDEST PUSH1 0x40 MLOAD PUSH2 0x2E3 SWAP2 SWAP1 PUSH2 0x1F1D JUMP JUMPDEST PUSH1 0x40 MLOAD DUP1 SWAP2 SUB SWAP1 RETURN JUMPDEST PUSH2 0x2F4 PUSH2 0x119C JUMP JUMPDEST STOP JUMPDEST PUSH2 0x2FE PUSH2 0x12EC JUMP JUMPDEST PUSH1 0x40 MLOAD PUSH2 0x30B SWAP2 SWAP1 PUSH2 0x1C5A JUMP JUMPDEST PUSH1 0x40 MLOAD DUP1 SWAP2 SUB SWAP1 RETURN JUMPDEST PUSH2 0x32E PUSH1 0x4 DUP1 CALLDATASIZE SUB DUP2 ADD SWAP1 PUSH2 0x329 SWAP2 SWAP1 PUSH2 0x19CE JUMP JUMPDEST PUSH2 0x1402 JUMP JUMPDEST PUSH1 0x40 MLOAD PUSH2 0x33B SWAP2 SWAP1 PUSH2 0x1C7C JUMP JUMPDEST PUSH1 0x40 MLOAD DUP1 SWAP2 SUB SWAP1 RETURN JUMPDEST PUSH2 0x35E PUSH1 0x4 DUP1 CALLDATASIZE SUB DUP2 ADD SWAP1 PUSH2 0x359 SWAP2 SWAP1 PUSH2 0x19CE JUMP JUMPDEST PUSH2 0x1575 JUMP JUMPDEST STOP JUMPDEST PUSH2 0x37A PUSH1 0x4 DUP1 CALLDATASIZE SUB DUP2 ADD SWAP1 PUSH2 0x375 SWAP2 SWAP1 PUSH2 0x19CE JUMP JUMPDEST PUSH2 0x166D JUMP JUMPDEST STOP JUMPDEST PUSH1 0x0 DUP1 SLOAD SWAP1 PUSH2 0x100 EXP SWAP1 DIV PUSH20 0xFFFFFFFFFFFFFFFFFFFFFFFFFFFFFFFFFFFFFFFF AND PUSH20 0xFFFFFFFFFFFFFFFFFFFFFFFFFFFFFFFFFFFFFFFF AND CALLER PUSH20 0xFFFFFFFFFFFFFFFFFFFFFFFFFFFFFFFFFFFFFFFF AND EQ PUSH2 0x3D4 JUMPI PUSH1 0x0 DUP1 REVERT JUMPDEST PUSH1 0x0 ISZERO ISZERO PUSH1 0x3 PUSH1 0x0 SWAP1 SLOAD SWAP1 PUSH2 0x100 EXP SWAP1 DIV PUSH1 0xFF AND ISZERO ISZERO EQ PUSH2 0x42A JUMPI PUSH1 0x40 MLOAD PUSH32 0x8C379A000000000000000000000000000000000000000000000000000000000 DUP2 MSTORE PUSH1 0x4 ADD PUSH2 0x421 SWAP1 PUSH2 0x1F84 JUMP JUMPDEST PUSH1 0x40 MLOAD DUP1 SWAP2 SUB SWAP1 REVERT JUMPDEST PUSH1 0x0 PUSH1 0x1 DUP2 GT ISZERO PUSH2 0x43E JUMPI PUSH2 0x43D PUSH2 0x1AB5 JUMP JUMPDEST JUMPDEST PUSH1 0x3 PUSH1 0x1 SWAP1 SLOAD SWAP1 PUSH2 0x100 EXP SWAP1 DIV PUSH1 0xFF AND PUSH1 0x1 DUP2 GT ISZERO PUSH2 0x460 JUMPI PUSH2 0x45F PUSH2 0x1AB5 JUMP JUMPDEST JUMPDEST EQ PUSH2 0x4A0 JUMPI PUSH1 0x40 MLOAD PUSH32 0x8C379A000000000000000000000000000000000000000000000000000000000 DUP2 MSTORE PUSH1 0x4 ADD PUSH2 0x497 SWAP1 PUSH2 0x1FF0 JUMP JUMPDEST PUSH1 0x40 MLOAD DUP1 SWAP2 SUB SWAP1 REVERT JUMPDEST PUSH1 0x1 PUSH1 0x3 PUSH1 0x0 PUSH2 0x100 EXP DUP2 SLOAD DUP2 PUSH1 0xFF MUL NOT AND SWAP1 DUP4 ISZERO ISZERO MUL OR SWAP1 SSTORE POP JUMP JUMPDEST PUSH1 0x0 DUP1 SLOAD SWAP1 PUSH2 0x100 EXP SWAP1 DIV PUSH20 0xFFFFFFFFFFFFFFFFFFFFFFFFFFFFFFFFFFFFFFFF AND PUSH20 0xFFFFFFFFFFFFFFFFFFFFFFFFFFFFFFFFFFFFFFFF AND CALLER PUSH20 0xFFFFFFFFFFFFFFFFFFFFFFFFFFFFFFFFFFFFFFFF AND EQ PUSH2 0x515 JUMPI PUSH1 0x0 DUP1 REVERT JUMPDEST PUSH1 0x0 ISZERO ISZERO PUSH1 0x3 PUSH1 0x0 SWAP1 SLOAD SWAP1 PUSH2 0x100 EXP SWAP1 DIV PUSH1 0xFF AND ISZERO ISZERO EQ PUSH2 0x56B JUMPI PUSH1 0x40 MLOAD PUSH32 0x8C379A000000000000000000000000000000000000000000000000000000000 DUP2 MSTORE PUSH1 0x4 ADD PUSH2 0x562 SWAP1 PUSH2 0x1F84 JUMP JUMPDEST PUSH1 0x40 MLOAD DUP1 SWAP2 SUB SWAP1 REVERT JUMPDEST PUSH1 0x0 PUSH1 0x1 DUP2 GT ISZERO PUSH2 0x57F JUMPI PUSH2 0x57E PUSH2 0x1AB5 JUMP JUMPDEST JUMPDEST PUSH1 0x3 PUSH1 0x1 SWAP1 SLOAD SWAP1 PUSH2 0x100 EXP SWAP1 DIV PUSH1 0xFF AND PUSH1 0x1 DUP2 GT ISZERO PUSH2 0x5A1 JUMPI PUSH2 0x5A0 PUSH2 0x1AB5 JUMP JUMPDEST JUMPDEST EQ PUSH2 0x5E1 JUMPI PUSH1 0x40 MLOAD PUSH32 0x8C379A000000000000000000000000000000000000000000000000000000000 DUP2 MSTORE PUSH1 0x4 ADD PUSH2 0x5D8 SWAP1 PUSH2 0x1FF0 JUMP JUMPDEST PUSH1 0x40 MLOAD DUP1 SWAP2 SUB SWAP1 REVERT JUMPDEST PUSH1 0x0 JUMPDEST PUSH1 0x4 DUP1 SLOAD SWAP1 POP DUP2 LT ISZERO PUSH2 0x716 JUMPI DUP4 PUSH1 0x4 DUP3 DUP2 SLOAD DUP2 LT PUSH2 0x606 JUMPI PUSH2 0x605 PUSH2 0x2010 JUMP JUMPDEST JUMPDEST SWAP1 PUSH1 0x0 MSTORE PUSH1 0x20 PUSH1 0x0 KECCAK256 SWAP1 PUSH1 0x4 MUL ADD PUSH1 0x0 ADD SLOAD SUB PUSH2 0x709 JUMPI PUSH1 0x1 ISZERO ISZERO DUP4 ISZERO ISZERO SUB PUSH2 0x67C JUMPI PUSH1 0x0 PUSH1 0x4 DUP3 DUP2 SLOAD DUP2 LT PUSH2 0x63F JUMPI PUSH2 0x63E PUSH2 0x2010 JUMP JUMPDEST JUMPDEST SWAP1 PUSH1 0x0 MSTORE PUSH1 0x20 PUSH1 0x0 KECCAK256 SWAP1 PUSH1 0x4 MUL ADD PUSH1 0x3 ADD PUSH1 0x0 PUSH2 0x100 EXP DUP2 SLOAD DUP2 PUSH1 0xFF MUL NOT AND SWAP1 DUP4 PUSH1 0x2 DUP2 GT ISZERO PUSH2 0x672 JUMPI PUSH2 0x671 PUSH2 0x1AB5 JUMP JUMPDEST JUMPDEST MUL OR SWAP1 SSTORE POP PUSH2 0x6CB JUMP JUMPDEST PUSH1 0x1 PUSH1 0x4 DUP3 DUP2 SLOAD DUP2 LT PUSH2 0x692 JUMPI PUSH2 0x691 PUSH2 0x2010 JUMP JUMPDEST JUMPDEST SWAP1 PUSH1 0x0 MSTORE PUSH1 0x20 PUSH1 0x0 KECCAK256 SWAP1 PUSH1 0x4 MUL ADD PUSH1 0x3 ADD PUSH1 0x0 PUSH2 0x100 EXP DUP2 SLOAD DUP2 PUSH1 0xFF MUL NOT AND SWAP1 DUP4 PUSH1 0x2 DUP2 GT ISZERO PUSH2 0x6C5 JUMPI PUSH2 0x6C4 PUSH2 0x1AB5 JUMP JUMPDEST JUMPDEST MUL OR SWAP1 SSTORE POP JUMPDEST DUP2 PUSH1 0x4 DUP3 DUP2 SLOAD DUP2 LT PUSH2 0x6E0 JUMPI PUSH2 0x6DF PUSH2 0x2010 JUMP JUMPDEST JUMPDEST SWAP1 PUSH1 0x0 MSTORE PUSH1 0x20 PUSH1 0x0 KECCAK256 SWAP1 PUSH1 0x4 MUL ADD PUSH1 0x3 ADD PUSH1 0x1 PUSH2 0x100 EXP DUP2 SLOAD DUP2 PUSH1 0xFF MUL NOT AND SWAP1 DUP4 ISZERO ISZERO MUL OR SWAP1 SSTORE POP JUMPDEST DUP1 DUP1 PUSH1 0x1 ADD SWAP2 POP POP PUSH2 0x5E4 JUMP JUMPDEST POP POP POP POP JUMP JUMPDEST PUSH1 0x5 DUP2 DUP2 SLOAD DUP2 LT PUSH2 0x72C JUMPI PUSH1 0x0 DUP1 REVERT JUMPDEST SWAP1 PUSH1 0x0 MSTORE PUSH1 0x20 PUSH1 0x0 KECCAK256 ADD PUSH1 0x0 SWAP2 POP SWAP1 POP DUP1 PUSH1 0x0 ADD SLOAD SWAP1 POP DUP2 JUMP JUMPDEST PUSH1 0x4 DUP2 DUP2 SLOAD DUP2 LT PUSH2 0x756 JUMPI PUSH1 0x0 DUP1 REVERT JUMPDEST SWAP1 PUSH1 0x0 MSTORE PUSH1 0x20 PUSH1 0x0 KECCAK256 SWAP1 PUSH1 0x4 MUL ADD PUSH1 0x0 SWAP2 POP SWAP1 POP DUP1 PUSH1 0x0 ADD SLOAD SWAP1 DUP1 PUSH1 0x1 ADD DUP1 SLOAD PUSH2 0x77F SWAP1 PUSH2 0x206E JUMP JUMPDEST DUP1 PUSH1 0x1F ADD PUSH1 0x20 DUP1 SWAP2 DIV MUL PUSH1 0x20 ADD PUSH1 0x40 MLOAD SWAP1 DUP2 ADD PUSH1 0x40 MSTORE DUP1 SWAP3 SWAP2 SWAP1 DUP2 DUP2 MSTORE PUSH1 0x20 ADD DUP3 DUP1 SLOAD PUSH2 0x7AB SWAP1 PUSH2 0x206E JUMP JUMPDEST DUP1 ISZERO PUSH2 0x7F8 JUMPI DUP1 PUSH1 0x1F LT PUSH2 0x7CD JUMPI PUSH2 0x100 DUP1 DUP4 SLOAD DIV MUL DUP4 MSTORE SWAP2 PUSH1 0x20 ADD SWAP2 PUSH2 0x7F8 JUMP JUMPDEST DUP3 ADD SWAP2 SWAP1 PUSH1 0x0 MSTORE PUSH1 0x20 PUSH1 0x0 KECCAK256 SWAP1 JUMPDEST DUP2 SLOAD DUP2 MSTORE SWAP1 PUSH1 0x1 ADD SWAP1 PUSH1 0x20 ADD DUP1 DUP4 GT PUSH2 0x7DB JUMPI DUP3 SWAP1 SUB PUSH1 0x1F AND DUP3 ADD SWAP2 JUMPDEST POP POP POP POP POP SWAP1 DUP1 PUSH1 0x2 ADD DUP1 SLOAD PUSH2 0x80D SWAP1 PUSH2 0x206E JUMP JUMPDEST DUP1 PUSH1 0x1F ADD PUSH1 0x20 DUP1 SWAP2 DIV MUL PUSH1 0x20 ADD PUSH1 0x40 MLOAD SWAP1 DUP2 ADD PUSH1 0x40 MSTORE DUP1 SWAP3 SWAP2 SWAP1 DUP2 DUP2 MSTORE PUSH1 0x20 ADD DUP3 DUP1 SLOAD PUSH2 0x839 SWAP1 PUSH2 0x206E JUMP JUMPDEST DUP1 ISZERO PUSH2 0x886 JUMPI DUP1 PUSH1 0x1F LT PUSH2 0x85B JUMPI PUSH2 0x100 DUP1 DUP4 SLOAD DIV MUL DUP4 MSTORE SWAP2 PUSH1 0x20 ADD SWAP2 PUSH2 0x886 JUMP JUMPDEST DUP3 ADD SWAP2 SWAP1 PUSH1 0x0 MSTORE PUSH1 0x20 PUSH1 0x0 KECCAK256 SWAP1 JUMPDEST DUP2 SLOAD DUP2 MSTORE SWAP1 PUSH1 0x1 ADD SWAP1 PUSH1 0x20 ADD DUP1 DUP4 GT PUSH2 0x869 JUMPI DUP3 SWAP1 SUB PUSH1 0x1F AND DUP3 ADD SWAP2 JUMPDEST POP POP POP POP POP SWAP1 DUP1 PUSH1 0x3 ADD PUSH1 0x0 SWAP1 SLOAD SWAP1 PUSH2 0x100 EXP SWAP1 DIV PUSH1 0xFF AND SWAP1 DUP1 PUSH1 0x3 ADD PUSH1 0x1 SWAP1 SLOAD SWAP1 PUSH2 0x100 EXP SWAP1 DIV PUSH1 0xFF AND SWAP1 POP DUP6 JUMP JUMPDEST PUSH1 0x1 SLOAD DUP2 JUMP JUMPDEST PUSH1 0x60 PUSH1 0x0 DUP1 SLOAD SWAP1 PUSH2 0x100 EXP SWAP1 DIV PUSH20 0xFFFFFFFFFFFFFFFFFFFFFFFFFFFFFFFFFFFFFFFF AND PUSH20 0xFFFFFFFFFFFFFFFFFFFFFFFFFFFFFFFFFFFFFFFF AND CALLER PUSH20 0xFFFFFFFFFFFFFFFFFFFFFFFFFFFFFFFFFFFFFFFF AND EQ PUSH2 0x916 JUMPI PUSH1 0x0 DUP1 REVERT JUMPDEST PUSH1 0x0 PUSH1 0x5 DUP1 SLOAD SWAP1 POP PUSH8 0xFFFFFFFFFFFFFFFF DUP2 GT ISZERO PUSH2 0x937 JUMPI PUSH2 0x936 PUSH2 0x1D67 JUMP JUMPDEST JUMPDEST PUSH1 0x40 MLOAD SWAP1 DUP1 DUP3 MSTORE DUP1 PUSH1 0x20 MUL PUSH1 0x20 ADD DUP3 ADD PUSH1 0x40 MSTORE DUP1 ISZERO PUSH2 0x965 JUMPI DUP2 PUSH1 0x20 ADD PUSH1 0x20 DUP3 MUL DUP1 CALLDATASIZE DUP4 CALLDATACOPY DUP1 DUP3 ADD SWAP2 POP POP SWAP1 POP JUMPDEST POP SWAP1 POP PUSH1 0x0 JUMPDEST PUSH1 0x5 DUP1 SLOAD SWAP1 POP DUP2 LT ISZERO PUSH2 0x9C6 JUMPI PUSH1 0x5 DUP2 DUP2 SLOAD DUP2 LT PUSH2 0x98C JUMPI PUSH2 0x98B PUSH2 0x2010 JUMP JUMPDEST JUMPDEST SWAP1 PUSH1 0x0 MSTORE PUSH1 0x20 PUSH1 0x0 KECCAK256 ADD PUSH1 0x0 ADD SLOAD DUP3 DUP3 DUP2 MLOAD DUP2 LT PUSH2 0x9AD JUMPI PUSH2 0x9AC PUSH2 0x2010 JUMP JUMPDEST JUMPDEST PUSH1 0x20 MUL PUSH1 0x20 ADD ADD DUP2 DUP2 MSTORE POP POP DUP1 DUP1 PUSH1 0x1 ADD SWAP2 POP POP PUSH2 0x96B JUMP JUMPDEST POP DUP1 SWAP2 POP POP SWAP1 JUMP JUMPDEST PUSH1 0x60 PUSH1 0x0 DUP1 SLOAD SWAP1 PUSH2 0x100 EXP SWAP1 DIV PUSH20 0xFFFFFFFFFFFFFFFFFFFFFFFFFFFFFFFFFFFFFFFF AND PUSH20 0xFFFFFFFFFFFFFFFFFFFFFFFFFFFFFFFFFFFFFFFF AND CALLER PUSH20 0xFFFFFFFFFFFFFFFFFFFFFFFFFFFFFFFFFFFFFFFF AND EQ PUSH2 0xA28 JUMPI PUSH1 0x0 DUP1 REVERT JUMPDEST PUSH1 0x1 ISZERO ISZERO PUSH1 0x3 PUSH1 0x0 SWAP1 SLOAD SWAP1 PUSH2 0x100 EXP SWAP1 DIV PUSH1 0xFF AND ISZERO ISZERO SUB PUSH2 0xA80 JUMPI PUSH1 0x40 MLOAD DUP1 PUSH1 0x40 ADD PUSH1 0x40 MSTORE DUP1 PUSH1 0xF DUP2 MSTORE PUSH1 0x20 ADD PUSH32 0x436F6E747261637420436C6F7365640000000000000000000000000000000000 DUP2 MSTORE POP SWAP1 POP PUSH2 0xAB9 JUMP JUMPDEST PUSH1 0x40 MLOAD DUP1 PUSH1 0x40 ADD PUSH1 0x40 MSTORE DUP1 PUSH1 0xD DUP2 MSTORE PUSH1 0x20 ADD PUSH32 0x436F6E7472616374204F70656E00000000000000000000000000000000000000 DUP2 MSTORE POP SWAP1 POP JUMPDEST SWAP1 JUMP JUMPDEST PUSH1 0x3 PUSH1 0x1 SWAP1 SLOAD SWAP1 PUSH2 0x100 EXP SWAP1 DIV PUSH1 0xFF AND DUP2 JUMP JUMPDEST PUSH1 0x60 PUSH1 0x0 DUP1 SLOAD SWAP1 PUSH2 0x100 EXP SWAP1 DIV PUSH20 0xFFFFFFFFFFFFFFFFFFFFFFFFFFFFFFFFFFFFFFFF AND PUSH20 0xFFFFFFFFFFFFFFFFFFFFFFFFFFFFFFFFFFFFFFFF AND CALLER PUSH20 0xFFFFFFFFFFFFFFFFFFFFFFFFFFFFFFFFFFFFFFFF AND EQ PUSH2 0xB29 JUMPI PUSH1 0x0 DUP1 REVERT JUMPDEST PUSH1 0x0 PUSH1 0x1 DUP2 GT ISZERO PUSH2 0xB3D JUMPI PUSH2 0xB3C PUSH2 0x1AB5 JUMP JUMPDEST JUMPDEST PUSH1 0x3 PUSH1 0x1 SWAP1 SLOAD SWAP1 PUSH2 0x100 EXP SWAP1 DIV PUSH1 0xFF AND PUSH1 0x1 DUP2 GT ISZERO PUSH2 0xB5F JUMPI PUSH2 0xB5E PUSH2 0x1AB5 JUMP JUMPDEST JUMPDEST SUB PUSH2 0xBA1 JUMPI PUSH1 0x40 MLOAD DUP1 PUSH1 0x40 ADD PUSH1 0x40 MSTORE DUP1 PUSH1 0x8 DUP2 MSTORE PUSH1 0x20 ADD PUSH32 0x4465636561736564000000000000000000000000000000000000000000000000 DUP2 MSTORE POP SWAP1 POP PUSH2 0xBDA JUMP JUMPDEST PUSH1 0x40 MLOAD DUP1 PUSH1 0x40 ADD PUSH1 0x40 MSTORE DUP1 PUSH1 0x5 DUP2 MSTORE PUSH1 0x20 ADD PUSH32 0x416C697665000000000000000000000000000000000000000000000000000000 DUP2 MSTORE POP SWAP1 POP JUMPDEST SWAP1 JUMP JUMPDEST PUSH1 0x60 PUSH1 0x0 DUP1 SLOAD SWAP1 PUSH2 0x100 EXP SWAP1 DIV PUSH20 0xFFFFFFFFFFFFFFFFFFFFFFFFFFFFFFFFFFFFFFFF AND PUSH20 0xFFFFFFFFFFFFFFFFFFFFFFFFFFFFFFFFFFFFFFFF AND CALLER PUSH20 0xFFFFFFFFFFFFFFFFFFFFFFFFFFFFFFFFFFFFFFFF AND EQ PUSH2 0xC37 JUMPI PUSH1 0x0 DUP1 REVERT JUMPDEST PUSH1 0x0 JUMPDEST PUSH1 0x4 DUP1 SLOAD SWAP1 POP DUP2 LT ISZERO PUSH2 0xEBE JUMPI DUP3 PUSH1 0x4 DUP3 DUP2 SLOAD DUP2 LT PUSH2 0xC5C JUMPI PUSH2 0xC5B PUSH2 0x2010 JUMP JUMPDEST JUMPDEST SWAP1 PUSH1 0x0 MSTORE PUSH1 0x20 PUSH1 0x0 KECCAK256 SWAP1 PUSH1 0x4 MUL ADD PUSH1 0x0 ADD SLOAD SUB PUSH2 0xEB1 JUMPI PUSH1 0x0 PUSH1 0x2 DUP2 GT ISZERO PUSH2 0xC87 JUMPI PUSH2 0xC86 PUSH2 0x1AB5 JUMP JUMPDEST JUMPDEST PUSH1 0x4 DUP3 DUP2 SLOAD DUP2 LT PUSH2 0xC9B JUMPI PUSH2 0xC9A PUSH2 0x2010 JUMP JUMPDEST JUMPDEST SWAP1 PUSH1 0x0 MSTORE PUSH1 0x20 PUSH1 0x0 KECCAK256 SWAP1 PUSH1 0x4 MUL ADD PUSH1 0x3 ADD PUSH1 0x0 SWAP1 SLOAD SWAP1 PUSH2 0x100 EXP SWAP1 DIV PUSH1 0xFF AND PUSH1 0x2 DUP2 GT ISZERO PUSH2 0xCCC JUMPI PUSH2 0xCCB PUSH2 0x1AB5 JUMP JUMPDEST JUMPDEST SUB PUSH2 0xD0F JUMPI PUSH1 0x40 MLOAD DUP1 PUSH1 0x40 ADD PUSH1 0x40 MSTORE DUP1 PUSH1 0x8 DUP2 MSTORE PUSH1 0x20 ADD PUSH32 0x4163636570746564000000000000000000000000000000000000000000000000 DUP2 MSTORE POP SWAP2 POP POP PUSH2 0xEF8 JUMP JUMPDEST PUSH1 0x1 PUSH1 0x2 DUP2 GT ISZERO PUSH2 0xD23 JUMPI PUSH2 0xD22 PUSH2 0x1AB5 JUMP JUMPDEST JUMPDEST PUSH1 0x4 DUP3 DUP2 SLOAD DUP2 LT PUSH2 0xD37 JUMPI PUSH2 0xD36 PUSH2 0x2010 JUMP JUMPDEST JUMPDEST SWAP1 PUSH1 0x0 MSTORE PUSH1 0x20 PUSH1 0x0 KECCAK256 SWAP1 PUSH1 0x4 MUL ADD PUSH1 0x3 ADD PUSH1 0x0 SWAP1 SLOAD SWAP1 PUSH2 0x100 EXP SWAP1 DIV PUSH1 0xFF AND PUSH1 0x2 DUP2 GT ISZERO PUSH2 0xD68 JUMPI PUSH2 0xD67 PUSH2 0x1AB5 JUMP JUMPDEST JUMPDEST EQ DUP1 ISZERO PUSH2 0xDAB JUMPI POP PUSH1 0x0 ISZERO ISZERO PUSH1 0x4 DUP3 DUP2 SLOAD DUP2 LT PUSH2 0xD88 JUMPI PUSH2 0xD87 PUSH2 0x2010 JUMP JUMPDEST JUMPDEST SWAP1 PUSH1 0x0 MSTORE PUSH1 0x20 PUSH1 0x0 KECCAK256 SWAP1 PUSH1 0x4 MUL ADD PUSH1 0x3 ADD PUSH1 0x1 SWAP1 SLOAD SWAP1 PUSH2 0x100 EXP SWAP1 DIV PUSH1 0xFF AND ISZERO ISZERO EQ JUMPDEST ISZERO PUSH2 0xDEE JUMPI PUSH1 0x40 MLOAD DUP1 PUSH1 0x40 ADD PUSH1 0x40 MSTORE DUP1 PUSH1 0x8 DUP2 MSTORE PUSH1 0x20 ADD PUSH32 0x52656A6563746564000000000000000000000000000000000000000000000000 DUP2 MSTORE POP SWAP2 POP POP PUSH2 0xEF8 JUMP JUMPDEST PUSH1 0x1 PUSH1 0x2 DUP2 GT ISZERO PUSH2 0xE02 JUMPI PUSH2 0xE01 PUSH2 0x1AB5 JUMP JUMPDEST JUMPDEST PUSH1 0x4 DUP3 DUP2 SLOAD DUP2 LT PUSH2 0xE16 JUMPI PUSH2 0xE15 PUSH2 0x2010 JUMP JUMPDEST JUMPDEST SWAP1 PUSH1 0x0 MSTORE PUSH1 0x20 PUSH1 0x0 KECCAK256 SWAP1 PUSH1 0x4 MUL ADD PUSH1 0x3 ADD PUSH1 0x0 SWAP1 SLOAD SWAP1 PUSH2 0x100 EXP SWAP1 DIV PUSH1 0xFF AND PUSH1 0x2 DUP2 GT ISZERO PUSH2 0xE47 JUMPI PUSH2 0xE46 PUSH2 0x1AB5 JUMP JUMPDEST JUMPDEST EQ DUP1 ISZERO PUSH2 0xE8A JUMPI POP PUSH1 0x1 ISZERO ISZERO PUSH1 0x4 DUP3 DUP2 SLOAD DUP2 LT PUSH2 0xE67 JUMPI PUSH2 0xE66 PUSH2 0x2010 JUMP JUMPDEST JUMPDEST SWAP1 PUSH1 0x0 MSTORE PUSH1 0x20 PUSH1 0x0 KECCAK256 SWAP1 PUSH1 0x4 MUL ADD PUSH1 0x3 ADD PUSH1 0x1 SWAP1 SLOAD SWAP1 PUSH2 0x100 EXP SWAP1 DIV PUSH1 0xFF AND ISZERO ISZERO EQ JUMPDEST ISZERO PUSH2 0xEB0 JUMPI PUSH1 0x40 MLOAD DUP1 PUSH1 0x60 ADD PUSH1 0x40 MSTORE DUP1 PUSH1 0x32 DUP2 MSTORE PUSH1 0x20 ADD PUSH2 0x24B9 PUSH1 0x32 SWAP2 CODECOPY SWAP2 POP POP PUSH2 0xEF8 JUMP JUMPDEST JUMPDEST DUP1 DUP1 PUSH1 0x1 ADD SWAP2 POP POP PUSH2 0xC3A JUMP JUMPDEST POP PUSH1 0x40 MLOAD DUP1 PUSH1 0x40 ADD PUSH1 0x40 MSTORE DUP1 PUSH1 0x6 DUP2 MSTORE PUSH1 0x20 ADD PUSH32 0x6E6F646174610000000000000000000000000000000000000000000000000000 DUP2 MSTORE POP SWAP1 POP JUMPDEST SWAP2 SWAP1 POP JUMP JUMPDEST PUSH1 0x0 DUP1 SLOAD SWAP1 PUSH2 0x100 EXP SWAP1 DIV PUSH20 0xFFFFFFFFFFFFFFFFFFFFFFFFFFFFFFFFFFFFFFFF AND DUP2 JUMP JUMPDEST PUSH1 0x2 DUP1 SLOAD PUSH2 0xF2E SWAP1 PUSH2 0x206E JUMP JUMPDEST DUP1 PUSH1 0x1F ADD PUSH1 0x20 DUP1 SWAP2 DIV MUL PUSH1 0x20 ADD PUSH1 0x40 MLOAD SWAP1 DUP2 ADD PUSH1 0x40 MSTORE DUP1 SWAP3 SWAP2 SWAP1 DUP2 DUP2 MSTORE PUSH1 0x20 ADD DUP3 DUP1 SLOAD PUSH2 0xF5A SWAP1 PUSH2 0x206E JUMP JUMPDEST DUP1 ISZERO PUSH2 0xFA7 JUMPI DUP1 PUSH1 0x1F LT PUSH2 0xF7C JUMPI PUSH2 0x100 DUP1 DUP4 SLOAD DIV MUL DUP4 MSTORE SWAP2 PUSH1 0x20 ADD SWAP2 PUSH2 0xFA7 JUMP JUMPDEST DUP3 ADD SWAP2 SWAP1 PUSH1 0x0 MSTORE PUSH1 0x20 PUSH1 0x0 KECCAK256 SWAP1 JUMPDEST DUP2 SLOAD DUP2 MSTORE SWAP1 PUSH1 0x1 ADD SWAP1 PUSH1 0x20 ADD DUP1 DUP4 GT PUSH2 0xF8A JUMPI DUP3 SWAP1 SUB PUSH1 0x1F AND DUP3 ADD SWAP2 JUMPDEST POP POP POP POP POP DUP2 JUMP JUMPDEST PUSH1 0x0 DUP1 SLOAD SWAP1 PUSH2 0x100 EXP SWAP1 DIV PUSH20 0xFFFFFFFFFFFFFFFFFFFFFFFFFFFFFFFFFFFFFFFF AND PUSH20 0xFFFFFFFFFFFFFFFFFFFFFFFFFFFFFFFFFFFFFFFF AND CALLER PUSH20 0xFFFFFFFFFFFFFFFFFFFFFFFFFFFFFFFFFFFFFFFF AND EQ PUSH2 0x1007 JUMPI PUSH1 0x0 DUP1 REVERT JUMPDEST PUSH1 0x0 ISZERO ISZERO PUSH1 0x3 PUSH1 0x0 SWAP1 SLOAD SWAP1 PUSH2 0x100 EXP SWAP1 DIV PUSH1 0xFF AND ISZERO ISZERO EQ PUSH2 0x105D JUMPI PUSH1 0x40 MLOAD PUSH32 0x8C379A000000000000000000000000000000000000000000000000000000000 DUP2 MSTORE PUSH1 0x4 ADD PUSH2 0x1054 SWAP1 PUSH2 0x1F84 JUMP JUMPDEST PUSH1 0x40 MLOAD DUP1 SWAP2 SUB SWAP1 REVERT JUMPDEST PUSH1 0x0 PUSH1 0x1 DUP2 GT ISZERO PUSH2 0x1071 JUMPI PUSH2 0x1070 PUSH2 0x1AB5 JUMP JUMPDEST JUMPDEST PUSH1 0x3 PUSH1 0x1 SWAP1 SLOAD SWAP1 PUSH2 0x100 EXP SWAP1 DIV PUSH1 0xFF AND PUSH1 0x1 DUP2 GT ISZERO PUSH2 0x1093 JUMPI PUSH2 0x1092 PUSH2 0x1AB5 JUMP JUMPDEST JUMPDEST EQ PUSH2 0x10D3 JUMPI PUSH1 0x40 MLOAD PUSH32 0x8C379A000000000000000000000000000000000000000000000000000000000 DUP2 MSTORE PUSH1 0x4 ADD PUSH2 0x10CA SWAP1 PUSH2 0x1FF0 JUMP JUMPDEST PUSH1 0x40 MLOAD DUP1 SWAP2 SUB SWAP1 REVERT JUMPDEST PUSH1 0x0 JUMPDEST PUSH1 0x4 DUP1 SLOAD SWAP1 POP DUP2 LT ISZERO PUSH2 0x1183 JUMPI DUP4 PUSH1 0x4 DUP3 DUP2 SLOAD DUP2 LT PUSH2 0x10F8 JUMPI PUSH2 0x10F7 PUSH2 0x2010 JUMP JUMPDEST JUMPDEST SWAP1 PUSH1 0x0 MSTORE PUSH1 0x20 PUSH1 0x0 KECCAK256 SWAP1 PUSH1 0x4 MUL ADD PUSH1 0x0 ADD SLOAD SUB PUSH2 0x1176 JUMPI DUP3 PUSH1 0x4 DUP3 DUP2 SLOAD DUP2 LT PUSH2 0x1124 JUMPI PUSH2 0x1123 PUSH2 0x2010 JUMP JUMPDEST JUMPDEST SWAP1 PUSH1 0x0 MSTORE PUSH1 0x20 PUSH1 0x0 KECCAK256 SWAP1 PUSH1 0x4 MUL ADD PUSH1 0x1 ADD SWAP1 DUP2 PUSH2 0x1141 SWAP2 SWAP1 PUSH2 0x224B JUMP JUMPDEST POP DUP2 PUSH1 0x4 DUP3 DUP2 SLOAD DUP2 LT PUSH2 0x1157 JUMPI PUSH2 0x1156 PUSH2 0x2010 JUMP JUMPDEST JUMPDEST SWAP1 PUSH1 0x0 MSTORE PUSH1 0x20 PUSH1 0x0 KECCAK256 SWAP1 PUSH1 0x4 MUL ADD PUSH1 0x2 ADD SWAP1 DUP2 PUSH2 0x1174 SWAP2 SWAP1 PUSH2 0x224B JUMP JUMPDEST POP JUMPDEST DUP1 DUP1 PUSH1 0x1 ADD SWAP2 POP POP PUSH2 0x10D6 JUMP JUMPDEST POP POP POP POP JUMP JUMPDEST PUSH1 0x3 PUSH1 0x0 SWAP1 SLOAD SWAP1 PUSH2 0x100 EXP SWAP1 DIV PUSH1 0xFF AND DUP2 JUMP JUMPDEST PUSH1 0x0 DUP1 SLOAD SWAP1 PUSH2 0x100 EXP SWAP1 DIV PUSH20 0xFFFFFFFFFFFFFFFFFFFFFFFFFFFFFFFFFFFFFFFF AND PUSH20 0xFFFFFFFFFFFFFFFFFFFFFFFFFFFFFFFFFFFFFFFF AND CALLER PUSH20 0xFFFFFFFFFFFFFFFFFFFFFFFFFFFFFFFFFFFFFFFF AND EQ PUSH2 0x11F4 JUMPI PUSH1 0x0 DUP1 REVERT JUMPDEST PUSH1 0x1 DUP1 DUP2 GT ISZERO PUSH2 0x1207 JUMPI PUSH2 0x1206 PUSH2 0x1AB5 JUMP JUMPDEST JUMPDEST PUSH1 0x3 PUSH1 0x1 SWAP1 SLOAD SWAP1 PUSH2 0x100 EXP SWAP1 DIV PUSH1 0xFF AND PUSH1 0x1 DUP2 GT ISZERO PUSH2 0x1229 JUMPI PUSH2 0x1228 PUSH2 0x1AB5 JUMP JUMPDEST JUMPDEST EQ PUSH2 0x1269 JUMPI PUSH1 0x40 MLOAD PUSH32 0x8C379A000000000000000000000000000000000000000000000000000000000 DUP2 MSTORE PUSH1 0x4 ADD PUSH2 0x1260 SWAP1 PUSH2 0x2369 JUMP JUMPDEST PUSH1 0x40 MLOAD DUP1 SWAP2 SUB SWAP1 REVERT JUMPDEST PUSH1 0x0 ISZERO ISZERO PUSH1 0x3 PUSH1 0x0 SWAP1 SLOAD SWAP1 PUSH2 0x100 EXP SWAP1 DIV PUSH1 0xFF AND ISZERO ISZERO EQ PUSH2 0x12BF JUMPI PUSH1 0x40 MLOAD PUSH32 0x8C379A000000000000000000000000000000000000000000000000000000000 DUP2 MSTORE PUSH1 0x4 ADD PUSH2 0x12B6 SWAP1 PUSH2 0x1F84 JUMP JUMPDEST PUSH1 0x40 MLOAD DUP1 SWAP2 SUB SWAP1 REVERT JUMPDEST PUSH1 0x0 PUSH1 0x3 PUSH1 0x1 PUSH2 0x100 EXP DUP2 SLOAD DUP2 PUSH1 0xFF MUL NOT AND SWAP1 DUP4 PUSH1 0x1 DUP2 GT ISZERO PUSH2 0x12E5 JUMPI PUSH2 0x12E4 PUSH2 0x1AB5 JUMP JUMPDEST JUMPDEST MUL OR SWAP1 SSTORE POP JUMP JUMPDEST PUSH1 0x60 PUSH1 0x0 DUP1 SLOAD SWAP1 PUSH2 0x100 EXP SWAP1 DIV PUSH20 0xFFFFFFFFFFFFFFFFFFFFFFFFFFFFFFFFFFFFFFFF AND PUSH20 0xFFFFFFFFFFFFFFFFFFFFFFFFFFFFFFFFFFFFFFFF AND CALLER PUSH20 0xFFFFFFFFFFFFFFFFFFFFFFFFFFFFFFFFFFFFFFFF AND EQ PUSH2 0x1346 JUMPI PUSH1 0x0 DUP1 REVERT JUMPDEST PUSH1 0x0 PUSH1 0x4 DUP1 SLOAD SWAP1 POP PUSH8 0xFFFFFFFFFFFFFFFF DUP2 GT ISZERO PUSH2 0x1367 JUMPI PUSH2 0x1366 PUSH2 0x1D67 JUMP JUMPDEST JUMPDEST PUSH1 0x40 MLOAD SWAP1 DUP1 DUP3 MSTORE DUP1 PUSH1 0x20 MUL PUSH1 0x20 ADD DUP3 ADD PUSH1 0x40 MSTORE DUP1 ISZERO PUSH2 0x1395 JUMPI DUP2 PUSH1 0x20 ADD PUSH1 0x20 DUP3 MUL DUP1 CALLDATASIZE DUP4 CALLDATACOPY DUP1 DUP3 ADD SWAP2 POP POP SWAP1 POP JUMPDEST POP SWAP1 POP PUSH1 0x0 JUMPDEST PUSH1 0x4 DUP1 SLOAD SWAP1 POP DUP2 LT ISZERO PUSH2 0x13FA JUMPI PUSH1 0x4 DUP2 DUP2 SLOAD DUP2 LT PUSH2 0x13BC JUMPI PUSH2 0x13BB PUSH2 0x2010 JUMP JUMPDEST JUMPDEST SWAP1 PUSH1 0x0 MSTORE PUSH1 0x20 PUSH1 0x0 KECCAK256 SWAP1 PUSH1 0x4 MUL ADD PUSH1 0x0 ADD SLOAD DUP3 DUP3 DUP2 MLOAD DUP2 LT PUSH2 0x13E1 JUMPI PUSH2 0x13E0 PUSH2 0x2010 JUMP JUMPDEST JUMPDEST PUSH1 0x20 MUL PUSH1 0x20 ADD ADD DUP2 DUP2 MSTORE POP POP DUP1 DUP1 PUSH1 0x1 ADD SWAP2 POP POP PUSH2 0x139B JUMP JUMPDEST POP DUP1 SWAP2 POP POP SWAP1 JUMP JUMPDEST PUSH1 0x60 PUSH1 0x0 DUP1 SLOAD SWAP1 PUSH2 0x100 EXP SWAP1 DIV PUSH20 0xFFFFFFFFFFFFFFFFFFFFFFFFFFFFFFFFFFFFFFFF AND PUSH20 0xFFFFFFFFFFFFFFFFFFFFFFFFFFFFFFFFFFFFFFFF AND CALLER PUSH20 0xFFFFFFFFFFFFFFFFFFFFFFFFFFFFFFFFFFFFFFFF AND EQ PUSH2 0x145C JUMPI PUSH1 0x0 DUP1 REVERT JUMPDEST PUSH1 0x0 JUMPDEST PUSH1 0x4 DUP1 SLOAD SWAP1 POP DUP2 LT ISZERO PUSH2 0x1536 JUMPI DUP3 PUSH1 0x4 DUP3 DUP2 SLOAD DUP2 LT PUSH2 0x1481 JUMPI PUSH2 0x1480 PUSH2 0x2010 JUMP JUMPDEST JUMPDEST SWAP1 PUSH1 0x0 MSTORE PUSH1 0x20 PUSH1 0x0 KECCAK256 SWAP1 PUSH1 0x4 MUL ADD PUSH1 0x0 ADD SLOAD SUB PUSH2 0x1529 JUMPI PUSH1 0x4 DUP2 DUP2 SLOAD DUP2 LT PUSH2 0x14AC JUMPI PUSH2 0x14AB PUSH2 0x2010 JUMP JUMPDEST JUMPDEST SWAP1 PUSH1 0x0 MSTORE PUSH1 0x20 PUSH1 0x0 KECCAK256 SWAP1 PUSH1 0x4 MUL ADD PUSH1 0x2 ADD PUSH1 0x40 MLOAD PUSH1 0x20 ADD PUSH2 0x14CD SWAP2 SWAP1 PUSH2 0x243D JUMP JUMPDEST PUSH1 0x40 MLOAD PUSH1 0x20 DUP2 DUP4 SUB SUB DUP2 MSTORE SWAP1 PUSH1 0x40 MSTORE PUSH1 0x4 DUP3 DUP2 SLOAD DUP2 LT PUSH2 0x14F0 JUMPI PUSH2 0x14EF PUSH2 0x2010 JUMP JUMPDEST JUMPDEST SWAP1 PUSH1 0x0 MSTORE PUSH1 0x20 PUSH1 0x0 KECCAK256 SWAP1 PUSH1 0x4 MUL ADD PUSH1 0x1 ADD PUSH1 0x40 MLOAD PUSH1 0x20 ADD PUSH2 0x1512 SWAP3 SWAP2 SWAP1 PUSH2 0x2494 JUMP JUMPDEST PUSH1 0x40 MLOAD PUSH1 0x20 DUP2 DUP4 SUB SUB DUP2 MSTORE SWAP1 PUSH1 0x40 MSTORE SWAP2 POP POP PUSH2 0x1570 JUMP JUMPDEST DUP1 DUP1 PUSH1 0x1 ADD SWAP2 POP POP PUSH2 0x145F JUMP JUMPDEST POP PUSH1 0x40 MLOAD DUP1 PUSH1 0x40 ADD PUSH1 0x40 MSTORE DUP1 PUSH1 0x6 DUP2 MSTORE PUSH1 0x20 ADD PUSH32 0x6E6F646174610000000000000000000000000000000000000000000000000000 DUP2 MSTORE POP SWAP1 POP JUMPDEST SWAP2 SWAP1 POP JUMP JUMPDEST PUSH1 0x0 DUP1 SLOAD SWAP1 PUSH2 0x100 EXP SWAP1 DIV PUSH20 0xFFFFFFFFFFFFFFFFFFFFFFFFFFFFFFFFFFFFFFFF AND PUSH20 0xFFFFFFFFFFFFFFFFFFFFFFFFFFFFFFFFFFFFFFFF AND CALLER PUSH20 0xFFFFFFFFFFFFFFFFFFFFFFFFFFFFFFFFFFFFFFFF AND EQ PUSH2 0x15CD JUMPI PUSH1 0x0 DUP1 REVERT JUMPDEST PUSH1 0x0 ISZERO ISZERO PUSH1 0x3 PUSH1 0x0 SWAP1 SLOAD SWAP1 PUSH2 0x100 EXP SWAP1 DIV PUSH1 0xFF AND ISZERO ISZERO EQ PUSH2 0x1623 JUMPI PUSH1 0x40 MLOAD PUSH32 0x8C379A000000000000000000000000000000000000000000000000000000000 DUP2 MSTORE PUSH1 0x4 ADD PUSH2 0x161A SWAP1 PUSH2 0x1F84 JUMP JUMPDEST PUSH1 0x40 MLOAD DUP1 SWAP2 SUB SWAP1 REVERT JUMPDEST PUSH2 0x162B PUSH2 0x18A3 JUMP JUMPDEST DUP2 DUP2 PUSH1 0x0 ADD DUP2 DUP2 MSTORE POP POP PUSH1 0x5 DUP2 SWAP1 DUP1 PUSH1 0x1 DUP2 SLOAD ADD DUP1 DUP3 SSTORE DUP1 SWAP2 POP POP PUSH1 0x1 SWAP1 SUB SWAP1 PUSH1 0x0 MSTORE PUSH1 0x20 PUSH1 0x0 KECCAK256 ADD PUSH1 0x0 SWAP1 SWAP2 SWAP1 SWAP2 SWAP1 SWAP2 POP PUSH1 0x0 DUP3 ADD MLOAD DUP2 PUSH1 0x0 ADD SSTORE POP POP POP POP JUMP JUMPDEST PUSH1 0x0 DUP1 SLOAD SWAP1 PUSH2 0x100 EXP SWAP1 DIV PUSH20 0xFFFFFFFFFFFFFFFFFFFFFFFFFFFFFFFFFFFFFFFF AND PUSH20 0xFFFFFFFFFFFFFFFFFFFFFFFFFFFFFFFFFFFFFFFF AND CALLER PUSH20 0xFFFFFFFFFFFFFFFFFFFFFFFFFFFFFFFFFFFFFFFF AND EQ PUSH2 0x16C5 JUMPI PUSH1 0x0 DUP1 REVERT JUMPDEST PUSH1 0x0 ISZERO ISZERO PUSH1 0x3 PUSH1 0x0 SWAP1 SLOAD SWAP1 PUSH2 0x100 EXP SWAP1 DIV PUSH1 0xFF AND ISZERO ISZERO EQ PUSH2 0x171B JUMPI PUSH1 0x40 MLOAD PUSH32 0x8C379A000000000000000000000000000000000000000000000000000000000 DUP2 MSTORE PUSH1 0x4 ADD PUSH2 0x1712 SWAP1 PUSH2 0x1F84 JUMP JUMPDEST PUSH1 0x40 MLOAD DUP1 SWAP2 SUB SWAP1 REVERT JUMPDEST PUSH2 0x1723 PUSH2 0x18B6 JUMP JUMPDEST DUP2 DUP2 PUSH1 0x0 ADD DUP2 DUP2 MSTORE POP POP PUSH1 0x2 DUP2 PUSH1 0x60 ADD SWAP1 PUSH1 0x2 DUP2 GT ISZERO PUSH2 0x1746 JUMPI PUSH2 0x1745 PUSH2 0x1AB5 JUMP JUMPDEST JUMPDEST SWAP1 DUP2 PUSH1 0x2 DUP2 GT ISZERO PUSH2 0x175A JUMPI PUSH2 0x1759 PUSH2 0x1AB5 JUMP JUMPDEST JUMPDEST DUP2 MSTORE POP POP PUSH1 0x40 MLOAD DUP1 PUSH1 0x40 ADD PUSH1 0x40 MSTORE DUP1 PUSH1 0x6 DUP2 MSTORE PUSH1 0x20 ADD PUSH32 0x6E6F646174610000000000000000000000000000000000000000000000000000 DUP2 MSTORE POP DUP2 PUSH1 0x20 ADD DUP2 SWAP1 MSTORE POP PUSH1 0x40 MLOAD DUP1 PUSH1 0x40 ADD PUSH1 0x40 MSTORE DUP1 PUSH1 0x6 DUP2 MSTORE PUSH1 0x20 ADD PUSH32 0x6E6F646174610000000000000000000000000000000000000000000000000000 DUP2 MSTORE POP DUP2 PUSH1 0x40 ADD DUP2 SWAP1 MSTORE POP PUSH1 0x0 DUP2 PUSH1 0x80 ADD SWAP1 ISZERO ISZERO SWAP1 DUP2 ISZERO ISZERO DUP2 MSTORE POP POP PUSH1 0x4 DUP2 SWAP1 DUP1 PUSH1 0x1 DUP2 SLOAD ADD DUP1 DUP3 SSTORE DUP1 SWAP2 POP POP PUSH1 0x1 SWAP1 SUB SWAP1 PUSH1 0x0 MSTORE PUSH1 0x20 PUSH1 0x0 KECCAK256 SWAP1 PUSH1 0x4 MUL ADD PUSH1 0x0 SWAP1 SWAP2 SWAP1 SWAP2 SWAP1 SWAP2 POP PUSH1 0x0 DUP3 ADD MLOAD DUP2 PUSH1 0x0 ADD SSTORE PUSH1 0x20 DUP3 ADD MLOAD DUP2 PUSH1 0x1 ADD SWAP1 DUP2 PUSH2 0x1836 SWAP2 SWAP1 PUSH2 0x224B JUMP JUMPDEST POP PUSH1 0x40 DUP3 ADD MLOAD DUP2 PUSH1 0x2 ADD SWAP1 DUP2 PUSH2 0x184C SWAP2 SWAP1 PUSH2 0x224B JUMP JUMPDEST POP PUSH1 0x60 DUP3 ADD MLOAD DUP2 PUSH1 0x3 ADD PUSH1 0x0 PUSH2 0x100 EXP DUP2 SLOAD DUP2 PUSH1 0xFF MUL NOT AND SWAP1 DUP4 PUSH1 0x2 DUP2 GT ISZERO PUSH2 0x1878 JUMPI PUSH2 0x1877 PUSH2 0x1AB5 JUMP JUMPDEST JUMPDEST MUL OR SWAP1 SSTORE POP PUSH1 0x80 DUP3 ADD MLOAD DUP2 PUSH1 0x3 ADD PUSH1 0x1 PUSH2 0x100 EXP DUP2 SLOAD DUP2 PUSH1 0xFF MUL NOT AND SWAP1 DUP4 ISZERO ISZERO MUL OR SWAP1 SSTORE POP POP POP POP POP JUMP JUMPDEST PUSH1 0x40 MLOAD DUP1 PUSH1 0x20 ADD PUSH1 0x40 MSTORE DUP1 PUSH1 0x0 DUP2 MSTORE POP SWAP1 JUMP JUMPDEST PUSH1 0x40 MLOAD DUP1 PUSH1 0xA0 ADD PUSH1 0x40 MSTORE DUP1 PUSH1 0x0 DUP2 MSTORE PUSH1 0x20 ADD PUSH1 0x60 DUP2 MSTORE PUSH1 0x20 ADD PUSH1 0x60 DUP2 MSTORE PUSH1 0x20 ADD PUSH1 0x0 PUSH1 0x2 DUP2 GT ISZERO PUSH2 0x18EA JUMPI PUSH2 0x18E9 PUSH2 0x1AB5 JUMP JUMPDEST JUMPDEST DUP2 MSTORE PUSH1 0x20 ADD PUSH1 0x0 ISZERO ISZERO DUP2 MSTORE POP SWAP1 JUMP JUMPDEST PUSH1 0x0 PUSH1 0x40 MLOAD SWAP1 POP SWAP1 JUMP JUMPDEST PUSH1 0x0 DUP1 REVERT JUMPDEST PUSH1 0x0 DUP1 REVERT JUMPDEST PUSH1 0x0 DUP2 SWAP1 POP SWAP2 SWAP1 POP JUMP JUMPDEST PUSH2 0x1920 DUP2 PUSH2 0x190D JUMP JUMPDEST DUP2 EQ PUSH2 0x192B JUMPI PUSH1 0x0 DUP1 REVERT JUMPDEST POP JUMP JUMPDEST PUSH1 0x0 DUP2 CALLDATALOAD SWAP1 POP PUSH2 0x193D DUP2 PUSH2 0x1917 JUMP JUMPDEST SWAP3 SWAP2 POP POP JUMP JUMPDEST PUSH1 0x0 DUP2 ISZERO ISZERO SWAP1 POP SWAP2 SWAP1 POP JUMP JUMPDEST PUSH2 0x1958 DUP2 PUSH2 0x1943 JUMP JUMPDEST DUP2 EQ PUSH2 0x1963 JUMPI PUSH1 0x0 DUP1 REVERT JUMPDEST POP JUMP JUMPDEST PUSH1 0x0 DUP2 CALLDATALOAD SWAP1 POP PUSH2 0x1975 DUP2 PUSH2 0x194F JUMP JUMPDEST SWAP3 SWAP2 POP POP JUMP JUMPDEST PUSH1 0x0 DUP1 PUSH1 0x0 PUSH1 0x60 DUP5 DUP7 SUB SLT ISZERO PUSH2 0x1994 JUMPI PUSH2 0x1993 PUSH2 0x1903 JUMP JUMPDEST JUMPDEST PUSH1 0x0 PUSH2 0x19A2 DUP7 DUP3 DUP8 ADD PUSH2 0x192E JUMP JUMPDEST SWAP4 POP POP PUSH1 0x20 PUSH2 0x19B3 DUP7 DUP3 DUP8 ADD PUSH2 0x1966 JUMP JUMPDEST SWAP3 POP POP PUSH1 0x40 PUSH2 0x19C4 DUP7 DUP3 DUP8 ADD PUSH2 0x1966 JUMP JUMPDEST SWAP2 POP POP SWAP3 POP SWAP3 POP SWAP3 JUMP JUMPDEST PUSH1 0x0 PUSH1 0x20 DUP3 DUP5 SUB SLT ISZERO PUSH2 0x19E4 JUMPI PUSH2 0x19E3 PUSH2 0x1903 JUMP JUMPDEST JUMPDEST PUSH1 0x0 PUSH2 0x19F2 DUP5 DUP3 DUP6 ADD PUSH2 0x192E JUMP JUMPDEST SWAP2 POP POP SWAP3 SWAP2 POP POP JUMP JUMPDEST PUSH2 0x1A04 DUP2 PUSH2 0x190D JUMP JUMPDEST DUP3 MSTORE POP POP JUMP JUMPDEST PUSH1 0x0 PUSH1 0x20 DUP3 ADD SWAP1 POP PUSH2 0x1A1F PUSH1 0x0 DUP4 ADD DUP5 PUSH2 0x19FB JUMP JUMPDEST SWAP3 SWAP2 POP POP JUMP JUMPDEST PUSH1 0x0 DUP2 MLOAD SWAP1 POP SWAP2 SWAP1 POP JUMP JUMPDEST PUSH1 0x0 DUP3 DUP3 MSTORE PUSH1 0x20 DUP3 ADD SWAP1 POP SWAP3 SWAP2 POP POP JUMP JUMPDEST PUSH1 0x0 JUMPDEST DUP4 DUP2 LT ISZERO PUSH2 0x1A5F JUMPI DUP1 DUP3 ADD MLOAD DUP2 DUP5 ADD MSTORE PUSH1 0x20 DUP2 ADD SWAP1 POP PUSH2 0x1A44 JUMP JUMPDEST PUSH1 0x0 DUP5 DUP5 ADD MSTORE POP POP POP POP JUMP JUMPDEST PUSH1 0x0 PUSH1 0x1F NOT PUSH1 0x1F DUP4 ADD AND SWAP1 POP SWAP2 SWAP1 POP JUMP JUMPDEST PUSH1 0x0 PUSH2 0x1A87 DUP3 PUSH2 0x1A25 JUMP JUMPDEST PUSH2 0x1A91 DUP2 DUP6 PUSH2 0x1A30 JUMP JUMPDEST SWAP4 POP PUSH2 0x1AA1 DUP2 DUP6 PUSH1 0x20 DUP7 ADD PUSH2 0x1A41 JUMP JUMPDEST PUSH2 0x1AAA DUP2 PUSH2 0x1A6B JUMP JUMPDEST DUP5 ADD SWAP2 POP POP SWAP3 SWAP2 POP POP JUMP JUMPDEST PUSH32 0x4E487B7100000000000000000000000000000000000000000000000000000000 PUSH1 0x0 MSTORE PUSH1 0x21 PUSH1 0x4 MSTORE PUSH1 0x24 PUSH1 0x0 REVERT JUMPDEST PUSH1 0x3 DUP2 LT PUSH2 0x1AF5 JUMPI PUSH2 0x1AF4 PUSH2 0x1AB5 JUMP JUMPDEST JUMPDEST POP JUMP JUMPDEST PUSH1 0x0 DUP2 SWAP1 POP PUSH2 0x1B06 DUP3 PUSH2 0x1AE4 JUMP JUMPDEST SWAP2 SWAP1 POP JUMP JUMPDEST PUSH1 0x0 PUSH2 0x1B16 DUP3 PUSH2 0x1AF8 JUMP JUMPDEST SWAP1 POP SWAP2 SWAP1 POP JUMP JUMPDEST PUSH2 0x1B26 DUP2 PUSH2 0x1B0B JUMP JUMPDEST DUP3 MSTORE POP POP JUMP JUMPDEST PUSH2 0x1B35 DUP2 PUSH2 0x1943 JUMP JUMPDEST DUP3 MSTORE POP POP JUMP JUMPDEST PUSH1 0x0 PUSH1 0xA0 DUP3 ADD SWAP1 POP PUSH2 0x1B50 PUSH1 0x0 DUP4 ADD DUP9 PUSH2 0x19FB JUMP JUMPDEST DUP2 DUP2 SUB PUSH1 0x20 DUP4 ADD MSTORE PUSH2 0x1B62 DUP2 DUP8 PUSH2 0x1A7C JUMP JUMPDEST SWAP1 POP DUP2 DUP2 SUB PUSH1 0x40 DUP4 ADD MSTORE PUSH2 0x1B76 DUP2 DUP7 PUSH2 0x1A7C JUMP JUMPDEST SWAP1 POP PUSH2 0x1B85 PUSH1 0x60 DUP4 ADD DUP6 PUSH2 0x1B1D JUMP JUMPDEST PUSH2 0x1B92 PUSH1 0x80 DUP4 ADD DUP5 PUSH2 0x1B2C JUMP JUMPDEST SWAP7 SWAP6 POP POP POP POP POP POP JUMP JUMPDEST PUSH1 0x0 DUP2 MLOAD SWAP1 POP SWAP2 SWAP1 POP JUMP JUMPDEST PUSH1 0x0 DUP3 DUP3 MSTORE PUSH1 0x20 DUP3 ADD SWAP1 POP SWAP3 SWAP2 POP POP JUMP JUMPDEST PUSH1 0x0 DUP2 SWAP1 POP PUSH1 0x20 DUP3 ADD SWAP1 POP SWAP2 SWAP1 POP JUMP JUMPDEST PUSH2 0x1BD1 DUP2 PUSH2 0x190D JUMP JUMPDEST DUP3 MSTORE POP POP JUMP JUMPDEST PUSH1 0x0 PUSH2 0x1BE3 DUP4 DUP4 PUSH2 0x1BC8 JUMP JUMPDEST PUSH1 0x20 DUP4 ADD SWAP1 POP SWAP3 SWAP2 POP POP JUMP JUMPDEST PUSH1 0x0 PUSH1 0x20 DUP3 ADD SWAP1 POP SWAP2 SWAP1 POP JUMP JUMPDEST PUSH1 0x0 PUSH2 0x1C07 DUP3 PUSH2 0x1B9C JUMP JUMPDEST PUSH2 0x1C11 DUP2 DUP6 PUSH2 0x1BA7 JUMP JUMPDEST SWAP4 POP PUSH2 0x1C1C DUP4 PUSH2 0x1BB8 JUMP JUMPDEST DUP1 PUSH1 0x0 JUMPDEST DUP4 DUP2 LT ISZERO PUSH2 0x1C4D JUMPI DUP2 MLOAD PUSH2 0x1C34 DUP9 DUP3 PUSH2 0x1BD7 JUMP JUMPDEST SWAP8 POP PUSH2 0x1C3F DUP4 PUSH2 0x1BEF JUMP JUMPDEST SWAP3 POP POP PUSH1 0x1 DUP2 ADD SWAP1 POP PUSH2 0x1C20 JUMP JUMPDEST POP DUP6 SWAP4 POP POP POP POP SWAP3 SWAP2 POP POP JUMP JUMPDEST PUSH1 0x0 PUSH1 0x20 DUP3 ADD SWAP1 POP DUP2 DUP2 SUB PUSH1 0x0 DUP4 ADD MSTORE PUSH2 0x1C74 DUP2 DUP5 PUSH2 0x1BFC JUMP JUMPDEST SWAP1 POP SWAP3 SWAP2 POP POP JUMP JUMPDEST PUSH1 0x0 PUSH1 0x20 DUP3 ADD SWAP1 POP DUP2 DUP2 SUB PUSH1 0x0 DUP4 ADD MSTORE PUSH2 0x1C96 DUP2 DUP5 PUSH2 0x1A7C JUMP JUMPDEST SWAP1 POP SWAP3 SWAP2 POP POP JUMP JUMPDEST PUSH1 0x2 DUP2 LT PUSH2 0x1CAF JUMPI PUSH2 0x1CAE PUSH2 0x1AB5 JUMP JUMPDEST JUMPDEST POP JUMP JUMPDEST PUSH1 0x0 DUP2 SWAP1 POP PUSH2 0x1CC0 DUP3 PUSH2 0x1C9E JUMP JUMPDEST SWAP2 SWAP1 POP JUMP JUMPDEST PUSH1 0x0 PUSH2 0x1CD0 DUP3 PUSH2 0x1CB2 JUMP JUMPDEST SWAP1 POP SWAP2 SWAP1 POP JUMP JUMPDEST PUSH2 0x1CE0 DUP2 PUSH2 0x1CC5 JUMP JUMPDEST DUP3 MSTORE POP POP JUMP JUMPDEST PUSH1 0x0 PUSH1 0x20 DUP3 ADD SWAP1 POP PUSH2 0x1CFB PUSH1 0x0 DUP4 ADD DUP5 PUSH2 0x1CD7 JUMP JUMPDEST SWAP3 SWAP2 POP POP JUMP JUMPDEST PUSH1 0x0 PUSH20 0xFFFFFFFFFFFFFFFFFFFFFFFFFFFFFFFFFFFFFFFF DUP3 AND SWAP1 POP SWAP2 SWAP1 POP JUMP JUMPDEST PUSH1 0x0 PUSH2 0x1D2C DUP3 PUSH2 0x1D01 JUMP JUMPDEST SWAP1 POP SWAP2 SWAP1 POP JUMP JUMPDEST PUSH2 0x1D3C DUP2 PUSH2 0x1D21 JUMP JUMPDEST DUP3 MSTORE POP POP JUMP JUMPDEST PUSH1 0x0 PUSH1 0x20 DUP3 ADD SWAP1 POP PUSH2 0x1D57 PUSH1 0x0 DUP4 ADD DUP5 PUSH2 0x1D33 JUMP JUMPDEST SWAP3 SWAP2 POP POP JUMP JUMPDEST PUSH1 0x0 DUP1 REVERT JUMPDEST PUSH1 0x0 DUP1 REVERT JUMPDEST PUSH32 0x4E487B7100000000000000000000000000000000000000000000000000000000 PUSH1 0x0 MSTORE PUSH1 0x41 PUSH1 0x4 MSTORE PUSH1 0x24 PUSH1 0x0 REVERT JUMPDEST PUSH2 0x1D9F DUP3 PUSH2 0x1A6B JUMP JUMPDEST DUP2 ADD DUP2 DUP2 LT PUSH8 0xFFFFFFFFFFFFFFFF DUP3 GT OR ISZERO PUSH2 0x1DBE JUMPI PUSH2 0x1DBD PUSH2 0x1D67 JUMP JUMPDEST JUMPDEST DUP1 PUSH1 0x40 MSTORE POP POP POP JUMP JUMPDEST PUSH1 0x0 PUSH2 0x1DD1 PUSH2 0x18F9 JUMP JUMPDEST SWAP1 POP PUSH2 0x1DDD DUP3 DUP3 PUSH2 0x1D96 JUMP JUMPDEST SWAP2 SWAP1 POP JUMP JUMPDEST PUSH1 0x0 PUSH8 0xFFFFFFFFFFFFFFFF DUP3 GT ISZERO PUSH2 0x1DFD JUMPI PUSH2 0x1DFC PUSH2 0x1D67 JUMP JUMPDEST JUMPDEST PUSH2 0x1E06 DUP3 PUSH2 0x1A6B JUMP JUMPDEST SWAP1 POP PUSH1 0x20 DUP2 ADD SWAP1 POP SWAP2 SWAP1 POP JUMP JUMPDEST DUP3 DUP2 DUP4 CALLDATACOPY PUSH1 0x0 DUP4 DUP4 ADD MSTORE POP POP POP JUMP JUMPDEST PUSH1 0x0 PUSH2 0x1E35 PUSH2 0x1E30 DUP5 PUSH2 0x1DE2 JUMP JUMPDEST PUSH2 0x1DC7 JUMP JUMPDEST SWAP1 POP DUP3 DUP2 MSTORE PUSH1 0x20 DUP2 ADD DUP5 DUP5 DUP5 ADD GT ISZERO PUSH2 0x1E51 JUMPI PUSH2 0x1E50 PUSH2 0x1D62 JUMP JUMPDEST JUMPDEST PUSH2 0x1E5C DUP5 DUP3 DUP6 PUSH2 0x1E13 JUMP JUMPDEST POP SWAP4 SWAP3 POP POP POP JUMP JUMPDEST PUSH1 0x0 DUP3 PUSH1 0x1F DUP4 ADD SLT PUSH2 0x1E79 JUMPI PUSH2 0x1E78 PUSH2 0x1D5D JUMP JUMPDEST JUMPDEST DUP2 CALLDATALOAD PUSH2 0x1E89 DUP5 DUP3 PUSH1 0x20 DUP7 ADD PUSH2 0x1E22 JUMP JUMPDEST SWAP2 POP POP SWAP3 SWAP2 POP POP JUMP JUMPDEST PUSH1 0x0 DUP1 PUSH1 0x0 PUSH1 0x60 DUP5 DUP7 SUB SLT ISZERO PUSH2 0x1EAB JUMPI PUSH2 0x1EAA PUSH2 0x1903 JUMP JUMPDEST JUMPDEST PUSH1 0x0 PUSH2 0x1EB9 DUP7 DUP3 DUP8 ADD PUSH2 0x192E JUMP JUMPDEST SWAP4 POP POP PUSH1 0x20 DUP5 ADD CALLDATALOAD PUSH8 0xFFFFFFFFFFFFFFFF DUP2 GT ISZERO PUSH2 0x1EDA JUMPI PUSH2 0x1ED9 PUSH2 0x1908 JUMP JUMPDEST JUMPDEST PUSH2 0x1EE6 DUP7 DUP3 DUP8 ADD PUSH2 0x1E64 JUMP JUMPDEST SWAP3 POP POP PUSH1 0x40 DUP5 ADD CALLDATALOAD PUSH8 0xFFFFFFFFFFFFFFFF DUP2 GT ISZERO PUSH2 0x1F07 JUMPI PUSH2 0x1F06 PUSH2 0x1908 JUMP JUMPDEST JUMPDEST PUSH2 0x1F13 DUP7 DUP3 DUP8 ADD PUSH2 0x1E64 JUMP JUMPDEST SWAP2 POP POP SWAP3 POP SWAP3 POP SWAP3 JUMP JUMPDEST PUSH1 0x0 PUSH1 0x20 DUP3 ADD SWAP1 POP PUSH2 0x1F32 PUSH1 0x0 DUP4 ADD DUP5 PUSH2 0x1B2C JUMP JUMPDEST SWAP3 SWAP2 POP POP JUMP JUMPDEST PUSH32 0x536D61727420436F6E747261637420697320636C6F7365640000000000000000 PUSH1 0x0 DUP3 ADD MSTORE POP JUMP JUMPDEST PUSH1 0x0 PUSH2 0x1F6E PUSH1 0x18 DUP4 PUSH2 0x1A30 JUMP JUMPDEST SWAP2 POP PUSH2 0x1F79 DUP3 PUSH2 0x1F38 JUMP JUMPDEST PUSH1 0x20 DUP3 ADD SWAP1 POP SWAP2 SWAP1 POP JUMP JUMPDEST PUSH1 0x0 PUSH1 0x20 DUP3 ADD SWAP1 POP DUP2 DUP2 SUB PUSH1 0x0 DUP4 ADD MSTORE PUSH2 0x1F9D DUP2 PUSH2 0x1F61 JUMP JUMPDEST SWAP1 POP SWAP2 SWAP1 POP JUMP JUMPDEST PUSH32 0x55736572206973207374696C6C20616C69766500000000000000000000000000 PUSH1 0x0 DUP3 ADD MSTORE POP JUMP JUMPDEST PUSH1 0x0 PUSH2 0x1FDA PUSH1 0x13 DUP4 PUSH2 0x1A30 JUMP JUMPDEST SWAP2 POP PUSH2 0x1FE5 DUP3 PUSH2 0x1FA4 JUMP JUMPDEST PUSH1 0x20 DUP3 ADD SWAP1 POP SWAP2 SWAP1 POP JUMP JUMPDEST PUSH1 0x0 PUSH1 0x20 DUP3 ADD SWAP1 POP DUP2 DUP2 SUB PUSH1 0x0 DUP4 ADD MSTORE PUSH2 0x2009 DUP2 PUSH2 0x1FCD JUMP JUMPDEST SWAP1 POP SWAP2 SWAP1 POP JUMP JUMPDEST PUSH32 0x4E487B7100000000000000000000000000000000000000000000000000000000 PUSH1 0x0 MSTORE PUSH1 0x32 PUSH1 0x4 MSTORE PUSH1 0x24 PUSH1 0x0 REVERT JUMPDEST PUSH32 0x4E487B7100000000000000000000000000000000000000000000000000000000 PUSH1 0x0 MSTORE PUSH1 0x22 PUSH1 0x4 MSTORE PUSH1 0x24 PUSH1 0x0 REVERT JUMPDEST PUSH1 0x0 PUSH1 0x2 DUP3 DIV SWAP1 POP PUSH1 0x1 DUP3 AND DUP1 PUSH2 0x2086 JUMPI PUSH1 0x7F DUP3 AND SWAP2 POP JUMPDEST PUSH1 0x20 DUP3 LT DUP2 SUB PUSH2 0x2099 JUMPI PUSH2 0x2098 PUSH2 0x203F JUMP JUMPDEST JUMPDEST POP SWAP2 SWAP1 POP JUMP JUMPDEST PUSH1 0x0 DUP2 SWAP1 POP DUP2 PUSH1 0x0 MSTORE PUSH1 0x20 PUSH1 0x0 KECCAK256 SWAP1 POP SWAP2 SWAP1 POP JUMP JUMPDEST PUSH1 0x0 PUSH1 0x20 PUSH1 0x1F DUP4 ADD DIV SWAP1 POP SWAP2 SWAP1 POP JUMP JUMPDEST PUSH1 0x0 DUP3 DUP3 SHL SWAP1 POP SWAP3 SWAP2 POP POP JUMP JUMPDEST PUSH1 0x0 PUSH1 0x8 DUP4 MUL PUSH2 0x2101 PUSH32 0xFFFFFFFFFFFFFFFFFFFFFFFFFFFFFFFFFFFFFFFFFFFFFFFFFFFFFFFFFFFFFFFF DUP3 PUSH2 0x20C4 JUMP JUMPDEST PUSH2 0x210B DUP7 DUP4 PUSH2 0x20C4 JUMP JUMPDEST SWAP6 POP DUP1 NOT DUP5 AND SWAP4 POP DUP1 DUP7 AND DUP5 OR SWAP3 POP POP POP SWAP4 SWAP3 POP POP POP JUMP JUMPDEST PUSH1 0x0 DUP2 SWAP1 POP SWAP2 SWAP1 POP JUMP JUMPDEST PUSH1 0x0 PUSH2 0x2148 PUSH2 0x2143 PUSH2 0x213E DUP5 PUSH2 0x190D JUMP JUMPDEST PUSH2 0x2123 JUMP JUMPDEST PUSH2 0x190D JUMP JUMPDEST SWAP1 POP SWAP2 SWAP1 POP JUMP JUMPDEST PUSH1 0x0 DUP2 SWAP1 POP SWAP2 SWAP1 POP JUMP JUMPDEST PUSH2 0x2162 DUP4 PUSH2 0x212D JUMP JUMPDEST PUSH2 0x2176 PUSH2 0x216E DUP3 PUSH2 0x214F JUMP JUMPDEST DUP5 DUP5 SLOAD PUSH2 0x20D1 JUMP JUMPDEST DUP3 SSTORE POP POP POP POP JUMP JUMPDEST PUSH1 0x0 SWAP1 JUMP JUMPDEST PUSH2 0x218B PUSH2 0x217E JUMP JUMPDEST PUSH2 0x2196 DUP2 DUP5 DUP5 PUSH2 0x2159 JUMP JUMPDEST POP POP POP JUMP JUMPDEST JUMPDEST DUP2 DUP2 LT ISZERO PUSH2 0x21BA JUMPI PUSH2 0x21AF PUSH1 0x0 DUP3 PUSH2 0x2183 JUMP JUMPDEST PUSH1 0x1 DUP2 ADD SWAP1 POP PUSH2 0x219C JUMP JUMPDEST POP POP JUMP JUMPDEST PUSH1 0x1F DUP3 GT ISZERO PUSH2 0x21FF JUMPI PUSH2 0x21D0 DUP2 PUSH2 0x209F JUMP JUMPDEST PUSH2 0x21D9 DUP5 PUSH2 0x20B4 JUMP JUMPDEST DUP2 ADD PUSH1 0x20 DUP6 LT ISZERO PUSH2 0x21E8 JUMPI DUP2 SWAP1 POP JUMPDEST PUSH2 0x21FC PUSH2 0x21F4 DUP6 PUSH2 0x20B4 JUMP JUMPDEST DUP4 ADD DUP3 PUSH2 0x219B JUMP JUMPDEST POP POP JUMPDEST POP POP POP JUMP JUMPDEST PUSH1 0x0 DUP3 DUP3 SHR SWAP1 POP SWAP3 SWAP2 POP POP JUMP JUMPDEST PUSH1 0x0 PUSH2 0x2222 PUSH1 0x0 NOT DUP5 PUSH1 0x8 MUL PUSH2 0x2204 JUMP JUMPDEST NOT DUP1 DUP4 AND SWAP2 POP POP SWAP3 SWAP2 POP POP JUMP JUMPDEST PUSH1 0x0 PUSH2 0x223B DUP4 DUP4 PUSH2 0x2211 JUMP JUMPDEST SWAP2 POP DUP3 PUSH1 0x2 MUL DUP3 OR SWAP1 POP SWAP3 SWAP2 POP POP JUMP JUMPDEST PUSH2 0x2254 DUP3 PUSH2 0x1A25 JUMP JUMPDEST PUSH8 0xFFFFFFFFFFFFFFFF DUP2 GT ISZERO PUSH2 0x226D JUMPI PUSH2 0x226C PUSH2 0x1D67 JUMP JUMPDEST JUMPDEST PUSH2 0x2277 DUP3 SLOAD PUSH2 0x206E JUMP JUMPDEST PUSH2 0x2282 DUP3 DUP3 DUP6 PUSH2 0x21BE JUMP JUMPDEST PUSH1 0x0 PUSH1 0x20 SWAP1 POP PUSH1 0x1F DUP4 GT PUSH1 0x1 DUP2 EQ PUSH2 0x22B5 JUMPI PUSH1 0x0 DUP5 ISZERO PUSH2 0x22A3 JUMPI DUP3 DUP8 ADD MLOAD SWAP1 POP JUMPDEST PUSH2 0x22AD DUP6 DUP3 PUSH2 0x222F JUMP JUMPDEST DUP7 SSTORE POP PUSH2 0x2315 JUMP JUMPDEST PUSH1 0x1F NOT DUP5 AND PUSH2 0x22C3 DUP7 PUSH2 0x209F JUMP JUMPDEST PUSH1 0x0 JUMPDEST DUP3 DUP2 LT ISZERO PUSH2 0x22EB JUMPI DUP5 DUP10 ADD MLOAD DUP3 SSTORE PUSH1 0x1 DUP3 ADD SWAP2 POP PUSH1 0x20 DUP6 ADD SWAP5 POP PUSH1 0x20 DUP2 ADD SWAP1 POP PUSH2 0x22C6 JUMP JUMPDEST DUP7 DUP4 LT ISZERO PUSH2 0x2308 JUMPI DUP5 DUP10 ADD MLOAD PUSH2 0x2304 PUSH1 0x1F DUP10 AND DUP3 PUSH2 0x2211 JUMP JUMPDEST DUP4 SSTORE POP JUMPDEST PUSH1 0x1 PUSH1 0x2 DUP9 MUL ADD DUP9 SSTORE POP POP POP JUMPDEST POP POP POP POP POP POP JUMP JUMPDEST PUSH32 0x5573657220646563656173656420697320616C72656164792073657400000000 PUSH1 0x0 DUP3 ADD MSTORE POP JUMP JUMPDEST PUSH1 0x0 PUSH2 0x2353 PUSH1 0x1C DUP4 PUSH2 0x1A30 JUMP JUMPDEST SWAP2 POP PUSH2 0x235E DUP3 PUSH2 0x231D JUMP JUMPDEST PUSH1 0x20 DUP3 ADD SWAP1 POP SWAP2 SWAP1 POP JUMP JUMPDEST PUSH1 0x0 PUSH1 0x20 DUP3 ADD SWAP1 POP DUP2 DUP2 SUB PUSH1 0x0 DUP4 ADD MSTORE PUSH2 0x2382 DUP2 PUSH2 0x2346 JUMP JUMPDEST SWAP1 POP SWAP2 SWAP1 POP JUMP JUMPDEST PUSH1 0x0 DUP2 SWAP1 POP SWAP3 SWAP2 POP POP JUMP JUMPDEST PUSH1 0x0 DUP2 SLOAD PUSH2 0x23A1 DUP2 PUSH2 0x206E JUMP JUMPDEST PUSH2 0x23AB DUP2 DUP7 PUSH2 0x2389 JUMP JUMPDEST SWAP5 POP PUSH1 0x1 DUP3 AND PUSH1 0x0 DUP2 EQ PUSH2 0x23C6 JUMPI PUSH1 0x1 DUP2 EQ PUSH2 0x23DB JUMPI PUSH2 0x240E JUMP JUMPDEST PUSH1 0xFF NOT DUP4 AND DUP7 MSTORE DUP2 ISZERO ISZERO DUP3 MUL DUP7 ADD SWAP4 POP PUSH2 0x240E JUMP JUMPDEST PUSH2 0x23E4 DUP6 PUSH2 0x209F JUMP JUMPDEST PUSH1 0x0 JUMPDEST DUP4 DUP2 LT ISZERO PUSH2 0x2406 JUMPI DUP2 SLOAD DUP2 DUP10 ADD MSTORE PUSH1 0x1 DUP3 ADD SWAP2 POP PUSH1 0x20 DUP2 ADD SWAP1 POP PUSH2 0x23E7 JUMP JUMPDEST DUP4 DUP9 ADD SWAP6 POP POP POP JUMPDEST POP POP POP SWAP3 SWAP2 POP POP JUMP JUMPDEST PUSH32 0x2000000000000000000000000000000000000000000000000000000000000000 DUP2 MSTORE POP JUMP JUMPDEST PUSH1 0x0 PUSH2 0x2449 DUP3 DUP5 PUSH2 0x2394 JUMP JUMPDEST SWAP2 POP PUSH2 0x2454 DUP3 PUSH2 0x2417 JUMP JUMPDEST PUSH1 0x1 DUP3 ADD SWAP2 POP DUP2 SWAP1 POP SWAP3 SWAP2 POP POP JUMP JUMPDEST PUSH1 0x0 PUSH2 0x246E DUP3 PUSH2 0x1A25 JUMP JUMPDEST PUSH2 0x2478 DUP2 DUP6 PUSH2 0x2389 JUMP JUMPDEST SWAP4 POP PUSH2 0x2488 DUP2 DUP6 PUSH1 0x20 DUP7 ADD PUSH2 0x1A41 JUMP JUMPDEST DUP1 DUP5 ADD SWAP2 POP POP SWAP3 SWAP2 POP POP JUMP JUMPDEST PUSH1 0x0 PUSH2 0x24A0 DUP3 DUP6 PUSH2 0x2463 JUMP JUMPDEST SWAP2 POP PUSH2 0x24AC DUP3 DUP5 PUSH2 0x2394 JUMP JUMPDEST SWAP2 POP DUP2 SWAP1 POP SWAP4 SWAP3 POP POP POP JUMP INVALID MSTORE PUSH6 0x6A6563746564 0x2C KECCAK256 PUSH21 0x696D6520657870697265643A206E6F20726573706F PUSH15 0x73652066726F6D2072656369706965 PUSH15 0x74A2646970667358221220C2C8CFA2 PUSH8 0xA20A65FADA01E2E9 SWAP16 CHAINID 0x28 ADDMOD INVALID 0xCA MULMOD 0xE8 SUB REVERT JUMPDEST RETURNDATACOPY ADD 0x2F SWAP5 PUSH1 0xE8 0x22 PUSH15 0x64736F6C6343000817003300000000 "
				},
				"gasEstimates": {
					"creation": {
						"codeDepositCost": "1900800",
						"executionCost": "infinite",
						"totalCost": "infinite"
					},
					"external": {
						"actual_user_state()": "2699",
						"addOracle(uint256)": "51375",
						"addRecipient(uint256)": "infinite",
						"closeUserContract()": "31034",
						"contractHash()": "infinite",
						"getAllOracles()": "infinite",
						"getAllRecipients()": "infinite",
						"getContractState()": "infinite",
						"getRecipientResponse(uint256)": "infinite",
						"getRecipientTimeStamp(uint256)": "infinite",
						"getUserState()": "infinite",
						"isContractClosed()": "2582",
						"oracles_list(uint256)": "infinite",
						"owner()": "2556",
						"recipients_list(uint256)": "infinite",
						"setRecipientResponse(uint256,bool,bool)": "infinite",
						"setRecipientTimeStamp(uint256,string,string)": "infinite",
						"setUserStateToDeceased()": "31102",
						"userId()": "2452"
					}
				},
				"methodIdentifiers": {
					"actual_user_state()": "84731d6f",
					"addOracle(uint256)": "e5a72d5b",
					"addRecipient(uint256)": "fc68b3ed",
					"closeUserContract()": "35254bcd",
					"contractHash()": "904c6094",
					"getAllOracles()": "65a6bb29",
					"getAllRecipients()": "b74513c1",
					"getContractState()": "7f4e4849",
					"getRecipientResponse(uint256)": "8901ada7",
					"getRecipientTimeStamp(uint256)": "cc203155",
					"getUserState()": "8594c127",
					"isContractClosed()": "abcc7a65",
					"oracles_list(uint256)": "42be8cb5",
					"owner()": "8da5cb5b",
					"recipients_list(uint256)": "499ba0aa",
					"setRecipientResponse(uint256,bool,bool)": "38fcbc01",
					"setRecipientTimeStamp(uint256,string,string)": "98beaa4c",
					"setUserStateToDeceased()": "ac3ef22d",
					"userId()": "58975919"
				}
			},
			"storageLayout": {
				"storage": [
					{
						"astId": 3,
						"contract": "Lincloud/.deps/contract/contract2.sol:user_contract",
						"label": "owner",
						"offset": 0,
						"slot": "0",
						"type": "t_address"
					},
					{
						"astId": 5,
						"contract": "Lincloud/.deps/contract/contract2.sol:user_contract",
						"label": "userId",
						"offset": 0,
						"slot": "1",
						"type": "t_uint256"
					},
					{
						"astId": 7,
						"contract": "Lincloud/.deps/contract/contract2.sol:user_contract",
						"label": "contractHash",
						"offset": 0,
						"slot": "2",
						"type": "t_string_storage"
					},
					{
						"astId": 9,
						"contract": "Lincloud/.deps/contract/contract2.sol:user_contract",
						"label": "isContractClosed",
						"offset": 0,
						"slot": "3",
						"type": "t_bool"
					},
					{
						"astId": 12,
						"contract": "Lincloud/.deps/contract/contract2.sol:user_contract",
						"label": "actual_user_state",
						"offset": 1,
						"slot": "3",
						"type": "t_enum(user_state)23"
					},
					{
						"astId": 16,
						"contract": "Lincloud/.deps/contract/contract2.sol:user_contract",
						"label": "recipients_list",
						"offset": 0,
						"slot": "4",
						"type": "t_array(t_struct(Recipient)39_storage)dyn_storage"
					},
					{
						"astId": 20,
						"contract": "Lincloud/.deps/contract/contract2.sol:user_contract",
						"label": "oracles_list",
						"offset": 0,
						"slot": "5",
						"type": "t_array(t_struct(Oracle)42_storage)dyn_storage"
					}
				],
				"types": {
					"t_address": {
						"encoding": "inplace",
						"label": "address",
						"numberOfBytes": "20"
					},
					"t_array(t_struct(Oracle)42_storage)dyn_storage": {
						"base": "t_struct(Oracle)42_storage",
						"encoding": "dynamic_array",
						"label": "struct user_contract.Oracle[]",
						"numberOfBytes": "32"
					},
					"t_array(t_struct(Recipient)39_storage)dyn_storage": {
						"base": "t_struct(Recipient)39_storage",
						"encoding": "dynamic_array",
						"label": "struct user_contract.Recipient[]",
						"numberOfBytes": "32"
					},
					"t_bool": {
						"encoding": "inplace",
						"label": "bool",
						"numberOfBytes": "1"
					},
					"t_enum(recipient_response_state)27": {
						"encoding": "inplace",
						"label": "enum user_contract.recipient_response_state",
						"numberOfBytes": "1"
					},
					"t_enum(user_state)23": {
						"encoding": "inplace",
						"label": "enum user_contract.user_state",
						"numberOfBytes": "1"
					},
					"t_string_storage": {
						"encoding": "bytes",
						"label": "string",
						"numberOfBytes": "32"
					},
					"t_struct(Oracle)42_storage": {
						"encoding": "inplace",
						"label": "struct user_contract.Oracle",
						"members": [
							{
								"astId": 41,
								"contract": "Lincloud/.deps/contract/contract2.sol:user_contract",
								"label": "id_oracle",
								"offset": 0,
								"slot": "0",
								"type": "t_uint256"
							}
						],
						"numberOfBytes": "32"
					},
					"t_struct(Recipient)39_storage": {
						"encoding": "inplace",
						"label": "struct user_contract.Recipient",
						"members": [
							{
								"astId": 29,
								"contract": "Lincloud/.deps/contract/contract2.sol:user_contract",
								"label": "id_recipient",
								"offset": 0,
								"slot": "0",
								"type": "t_uint256"
							},
							{
								"astId": 31,
								"contract": "Lincloud/.deps/contract/contract2.sol:user_contract",
								"label": "time",
								"offset": 0,
								"slot": "1",
								"type": "t_string_storage"
							},
							{
								"astId": 33,
								"contract": "Lincloud/.deps/contract/contract2.sol:user_contract",
								"label": "date",
								"offset": 0,
								"slot": "2",
								"type": "t_string_storage"
							},
							{
								"astId": 36,
								"contract": "Lincloud/.deps/contract/contract2.sol:user_contract",
								"label": "responseState",
								"offset": 0,
								"slot": "3",
								"type": "t_enum(recipient_response_state)27"
							},
							{
								"astId": 38,
								"contract": "Lincloud/.deps/contract/contract2.sol:user_contract",
								"label": "isTimeExpired",
								"offset": 1,
								"slot": "3",
								"type": "t_bool"
							}
						],
						"numberOfBytes": "128"
					},
					"t_uint256": {
						"encoding": "inplace",
						"label": "uint256",
						"numberOfBytes": "32"
					}
				}
			},
			"userdoc": {
				"kind": "user",
				"methods": {},
				"version": 1
			}
		}
	}
}