{
	".deps/contract/contract.sol": {
		"lincloud": {
			"abi": [
				{
					"inputs": [
						{
							"internalType": "uint256",
							"name": "userId",
							"type": "uint256"
						},
						{
							"internalType": "uint256",
							"name": "oracleId",
							"type": "uint256"
						}
					],
					"name": "addNewOracle",
					"outputs": [],
					"stateMutability": "nonpayable",
					"type": "function"
				},
				{
					"inputs": [
						{
							"internalType": "uint256",
							"name": "userId",
							"type": "uint256"
						},
						{
							"internalType": "uint256",
							"name": "recipientId",
							"type": "uint256"
						}
					],
					"name": "addNewRecipient",
					"outputs": [],
					"stateMutability": "nonpayable",
					"type": "function"
				},
				{
					"inputs": [
						{
							"internalType": "uint256",
							"name": "userId",
							"type": "uint256"
						}
					],
					"name": "createNewUser",
					"outputs": [],
					"stateMutability": "nonpayable",
					"type": "function"
				},
				{
					"inputs": [
						{
							"internalType": "uint256",
							"name": "userId",
							"type": "uint256"
						}
					],
					"name": "getAllOracles",
					"outputs": [
						{
							"internalType": "uint256[]",
							"name": "",
							"type": "uint256[]"
						}
					],
					"stateMutability": "view",
					"type": "function"
				},
				{
					"inputs": [
						{
							"internalType": "uint256",
							"name": "userId",
							"type": "uint256"
						}
					],
					"name": "getAllRecipients",
					"outputs": [
						{
							"internalType": "uint256[]",
							"name": "",
							"type": "uint256[]"
						}
					],
					"stateMutability": "view",
					"type": "function"
				},
				{
					"inputs": [],
					"name": "getAllUsers",
					"outputs": [
						{
							"internalType": "uint256[]",
							"name": "",
							"type": "uint256[]"
						}
					],
					"stateMutability": "view",
					"type": "function"
				},
				{
					"inputs": [
						{
							"internalType": "uint256",
							"name": "",
							"type": "uint256"
						}
					],
					"name": "users_list",
					"outputs": [
						{
							"internalType": "contract user",
							"name": "",
							"type": "address"
						}
					],
					"stateMutability": "view",
					"type": "function"
				}
			],
			"devdoc": {
				"kind": "dev",
				"methods": {},
				"version": 1
			},
			"evm": {
				"assembly": "    /* \".deps/contract/contract.sol\":1671:4545  contract lincloud{... */\n  mstore(0x40, 0x80)\n  callvalue\n  dup1\n  iszero\n  tag_1\n  jumpi\n  0x00\n  dup1\n  revert\ntag_1:\n  pop\n  dataSize(sub_0)\n  dup1\n  dataOffset(sub_0)\n  0x00\n  codecopy\n  0x00\n  return\nstop\n\nsub_0: assembly {\n        /* \".deps/contract/contract.sol\":1671:4545  contract lincloud{... */\n      mstore(0x40, 0x80)\n      callvalue\n      dup1\n      iszero\n      tag_1\n      jumpi\n      0x00\n      dup1\n      revert\n    tag_1:\n      pop\n      jumpi(tag_2, lt(calldatasize, 0x04))\n      shr(0xe0, calldataload(0x00))\n      dup1\n      0xa32da9d1\n      gt\n      tag_10\n      jumpi\n      dup1\n      0xa32da9d1\n      eq\n      tag_6\n      jumpi\n      dup1\n      0xadebaea6\n      eq\n      tag_7\n      jumpi\n      dup1\n      0xe2842d79\n      eq\n      tag_8\n      jumpi\n      dup1\n      0xfcd6704c\n      eq\n      tag_9\n      jumpi\n      jump(tag_2)\n    tag_10:\n      dup1\n      0x1440a7f2\n      eq\n      tag_3\n      jumpi\n      dup1\n      0x2661317e\n      eq\n      tag_4\n      jumpi\n      dup1\n      0x9efb6289\n      eq\n      tag_5\n      jumpi\n    tag_2:\n      0x00\n      dup1\n      revert\n        /* \".deps/contract/contract.sol\":2340:2676  function addNewRecipient(uint256 userId, uint256 recipientId) public {... */\n    tag_3:\n      tag_11\n      0x04\n      dup1\n      calldatasize\n      sub\n      dup2\n      add\n      swap1\n      tag_12\n      swap2\n      swap1\n      tag_13\n      jump\t// in\n    tag_12:\n      tag_14\n      jump\t// in\n    tag_11:\n      stop\n        /* \".deps/contract/contract.sol\":2684:3008  function addNewOracle(uint256 userId, uint256 oracleId) public {... */\n    tag_4:\n      tag_15\n      0x04\n      dup1\n      calldatasize\n      sub\n      dup2\n      add\n      swap1\n      tag_16\n      swap2\n      swap1\n      tag_13\n      jump\t// in\n    tag_16:\n      tag_17\n      jump\t// in\n    tag_15:\n      stop\n        /* \".deps/contract/contract.sol\":3491:3939  function getAllOracles(uint256 userId) public view returns (uint256[] memory){... */\n    tag_5:\n      tag_18\n      0x04\n      dup1\n      calldatasize\n      sub\n      dup2\n      add\n      swap1\n      tag_19\n      swap2\n      swap1\n      tag_20\n      jump\t// in\n    tag_19:\n      tag_21\n      jump\t// in\n    tag_18:\n      mload(0x40)\n      tag_22\n      swap2\n      swap1\n      tag_23\n      jump\t// in\n    tag_22:\n      mload(0x40)\n      dup1\n      swap2\n      sub\n      swap1\n      return\n        /* \".deps/contract/contract.sol\":1736:1760  user[] public users_list */\n    tag_6:\n      tag_24\n      0x04\n      dup1\n      calldatasize\n      sub\n      dup2\n      add\n      swap1\n      tag_25\n      swap2\n      swap1\n      tag_20\n      jump\t// in\n    tag_25:\n      tag_26\n      jump\t// in\n    tag_24:\n      mload(0x40)\n      tag_27\n      swap2\n      swap1\n      tag_28\n      jump\t// in\n    tag_27:\n      mload(0x40)\n      dup1\n      swap2\n      sub\n      swap1\n      return\n        /* \".deps/contract/contract.sol\":3947:4247  function createNewUser(uint256 userId) public {  // Crea un nuovo utente e aggiungilo alla lista degli utenti... */\n    tag_7:\n      tag_29\n      0x04\n      dup1\n      calldatasize\n      sub\n      dup2\n      add\n      swap1\n      tag_30\n      swap2\n      swap1\n      tag_20\n      jump\t// in\n    tag_30:\n      tag_31\n      jump\t// in\n    tag_29:\n      stop\n        /* \".deps/contract/contract.sol\":2044:2332  function getAllUsers() public view returns (uint256[] memory) {... */\n    tag_8:\n      tag_32\n      tag_33\n      jump\t// in\n    tag_32:\n      mload(0x40)\n      tag_34\n      swap2\n      swap1\n      tag_23\n      jump\t// in\n    tag_34:\n      mload(0x40)\n      dup1\n      swap2\n      sub\n      swap1\n      return\n        /* \".deps/contract/contract.sol\":3016:3479  function getAllRecipients(uint256 userId) public view returns (uint256[] memory){... */\n    tag_9:\n      tag_35\n      0x04\n      dup1\n      calldatasize\n      sub\n      dup2\n      add\n      swap1\n      tag_36\n      swap2\n      swap1\n      tag_20\n      jump\t// in\n    tag_36:\n      tag_37\n      jump\t// in\n    tag_35:\n      mload(0x40)\n      tag_38\n      swap2\n      swap1\n      tag_23\n      jump\t// in\n    tag_38:\n      mload(0x40)\n      dup1\n      swap2\n      sub\n      swap1\n      return\n        /* \".deps/contract/contract.sol\":2340:2676  function addNewRecipient(uint256 userId, uint256 recipientId) public {... */\n    tag_14:\n        /* \".deps/contract/contract.sol\":2428:2448  isUserExists(userId) */\n      tag_40\n        /* \".deps/contract/contract.sol\":2441:2447  userId */\n      dup3\n        /* \".deps/contract/contract.sol\":2428:2440  isUserExists */\n      tag_41\n        /* \".deps/contract/contract.sol\":2428:2448  isUserExists(userId) */\n      jump\t// in\n    tag_40:\n        /* \".deps/contract/contract.sol\":2420:2471  require(isUserExists(userId), \"Utente non trovato\") */\n      tag_42\n      jumpi\n      mload(0x40)\n      0x08c379a000000000000000000000000000000000000000000000000000000000\n      dup2\n      mstore\n      0x04\n      add\n      tag_43\n      swap1\n      tag_44\n      jump\t// in\n    tag_43:\n      mload(0x40)\n      dup1\n      swap2\n      sub\n      swap1\n      revert\n    tag_42:\n        /* \".deps/contract/contract.sol\":2487:2496  uint256 i */\n      0x00\n        /* \".deps/contract/contract.sol\":2482:2669  for (uint256 i = 0; i < users_list.length; i++) {... */\n    tag_45:\n        /* \".deps/contract/contract.sol\":2506:2516  users_list */\n      0x00\n        /* \".deps/contract/contract.sol\":2506:2523  users_list.length */\n      dup1\n      sload\n      swap1\n      pop\n        /* \".deps/contract/contract.sol\":2502:2503  i */\n      dup2\n        /* \".deps/contract/contract.sol\":2502:2523  i < users_list.length */\n      lt\n        /* \".deps/contract/contract.sol\":2482:2669  for (uint256 i = 0; i < users_list.length; i++) {... */\n      iszero\n      tag_46\n      jumpi\n        /* \".deps/contract/contract.sol\":2576:2582  userId */\n      dup3\n        /* \".deps/contract/contract.sol\":2549:2559  users_list */\n      0x00\n        /* \".deps/contract/contract.sol\":2560:2561  i */\n      dup3\n        /* \".deps/contract/contract.sol\":2549:2562  users_list[i] */\n      dup2\n      sload\n      dup2\n      lt\n      tag_48\n      jumpi\n      tag_49\n      tag_50\n      jump\t// in\n    tag_49:\n    tag_48:\n      swap1\n      0x00\n      mstore\n      keccak256(0x00, 0x20)\n      add\n      0x00\n      swap1\n      sload\n      swap1\n      0x0100\n      exp\n      swap1\n      div\n      0xffffffffffffffffffffffffffffffffffffffff\n      and\n        /* \".deps/contract/contract.sol\":2549:2570  users_list[i].id_user */\n      0xffffffffffffffffffffffffffffffffffffffff\n      and\n      0x8cee71e0\n        /* \".deps/contract/contract.sol\":2549:2572  users_list[i].id_user() */\n      mload(0x40)\n      dup2\n      0xffffffff\n      and\n      0xe0\n      shl\n      dup2\n      mstore\n      0x04\n      add\n      0x20\n      mload(0x40)\n      dup1\n      dup4\n      sub\n      dup2\n      dup7\n      gas\n      staticcall\n      iszero\n      dup1\n      iszero\n      tag_53\n      jumpi\n      returndatasize\n      0x00\n      dup1\n      returndatacopy\n      revert(0x00, returndatasize)\n    tag_53:\n      pop\n      pop\n      pop\n      pop\n      mload(0x40)\n      returndatasize\n      not(0x1f)\n      0x1f\n      dup3\n      add\n      and\n      dup3\n      add\n      dup1\n      0x40\n      mstore\n      pop\n      dup2\n      add\n      swap1\n      tag_54\n      swap2\n      swap1\n      tag_55\n      jump\t// in\n    tag_54:\n        /* \".deps/contract/contract.sol\":2549:2582  users_list[i].id_user() == userId */\n      sub\n        /* \".deps/contract/contract.sol\":2545:2658  if (users_list[i].id_user() == userId) {... */\n      tag_56\n      jumpi\n        /* \".deps/contract/contract.sol\":2603:2613  users_list */\n      0x00\n        /* \".deps/contract/contract.sol\":2614:2615  i */\n      dup2\n        /* \".deps/contract/contract.sol\":2603:2616  users_list[i] */\n      dup2\n      sload\n      dup2\n      lt\n      tag_57\n      jumpi\n      tag_58\n      tag_50\n      jump\t// in\n    tag_58:\n    tag_57:\n      swap1\n      0x00\n      mstore\n      keccak256(0x00, 0x20)\n      add\n      0x00\n      swap1\n      sload\n      swap1\n      0x0100\n      exp\n      swap1\n      div\n      0xffffffffffffffffffffffffffffffffffffffff\n      and\n        /* \".deps/contract/contract.sol\":2603:2629  users_list[i].addRecipient */\n      0xffffffffffffffffffffffffffffffffffffffff\n      and\n      0xfc68b3ed\n        /* \".deps/contract/contract.sol\":2630:2641  recipientId */\n      dup4\n        /* \".deps/contract/contract.sol\":2603:2642  users_list[i].addRecipient(recipientId) */\n      mload(0x40)\n      dup3\n      0xffffffff\n      and\n      0xe0\n      shl\n      dup2\n      mstore\n      0x04\n      add\n      tag_60\n      swap2\n      swap1\n      tag_61\n      jump\t// in\n    tag_60:\n      0x00\n      mload(0x40)\n      dup1\n      dup4\n      sub\n      dup2\n      0x00\n      dup8\n      dup1\n      extcodesize\n      iszero\n      dup1\n      iszero\n      tag_62\n      jumpi\n      0x00\n      dup1\n      revert\n    tag_62:\n      pop\n      gas\n      call\n      iszero\n      dup1\n      iszero\n      tag_64\n      jumpi\n      returndatasize\n      0x00\n      dup1\n      returndatacopy\n      revert(0x00, returndatasize)\n    tag_64:\n      pop\n      pop\n      pop\n      pop\n        /* \".deps/contract/contract.sol\":2545:2658  if (users_list[i].id_user() == userId) {... */\n    tag_56:\n        /* \".deps/contract/contract.sol\":2525:2528  i++ */\n      dup1\n      dup1\n      tag_65\n      swap1\n      tag_66\n      jump\t// in\n    tag_65:\n      swap2\n      pop\n      pop\n        /* \".deps/contract/contract.sol\":2482:2669  for (uint256 i = 0; i < users_list.length; i++) {... */\n      jump(tag_45)\n    tag_46:\n      pop\n        /* \".deps/contract/contract.sol\":2340:2676  function addNewRecipient(uint256 userId, uint256 recipientId) public {... */\n      pop\n      pop\n      jump\t// out\n        /* \".deps/contract/contract.sol\":2684:3008  function addNewOracle(uint256 userId, uint256 oracleId) public {... */\n    tag_17:\n        /* \".deps/contract/contract.sol\":2766:2786  isUserExists(userId) */\n      tag_68\n        /* \".deps/contract/contract.sol\":2779:2785  userId */\n      dup3\n        /* \".deps/contract/contract.sol\":2766:2778  isUserExists */\n      tag_41\n        /* \".deps/contract/contract.sol\":2766:2786  isUserExists(userId) */\n      jump\t// in\n    tag_68:\n        /* \".deps/contract/contract.sol\":2758:2809  require(isUserExists(userId), \"Utente non trovato\") */\n      tag_69\n      jumpi\n      mload(0x40)\n      0x08c379a000000000000000000000000000000000000000000000000000000000\n      dup2\n      mstore\n      0x04\n      add\n      tag_70\n      swap1\n      tag_44\n      jump\t// in\n    tag_70:\n      mload(0x40)\n      dup1\n      swap2\n      sub\n      swap1\n      revert\n    tag_69:\n        /* \".deps/contract/contract.sol\":2825:2834  uint256 i */\n      0x00\n        /* \".deps/contract/contract.sol\":2820:3001  for (uint256 i = 0; i < users_list.length; i++) {... */\n    tag_71:\n        /* \".deps/contract/contract.sol\":2844:2854  users_list */\n      0x00\n        /* \".deps/contract/contract.sol\":2844:2861  users_list.length */\n      dup1\n      sload\n      swap1\n      pop\n        /* \".deps/contract/contract.sol\":2840:2841  i */\n      dup2\n        /* \".deps/contract/contract.sol\":2840:2861  i < users_list.length */\n      lt\n        /* \".deps/contract/contract.sol\":2820:3001  for (uint256 i = 0; i < users_list.length; i++) {... */\n      iszero\n      tag_72\n      jumpi\n        /* \".deps/contract/contract.sol\":2914:2920  userId */\n      dup3\n        /* \".deps/contract/contract.sol\":2887:2897  users_list */\n      0x00\n        /* \".deps/contract/contract.sol\":2898:2899  i */\n      dup3\n        /* \".deps/contract/contract.sol\":2887:2900  users_list[i] */\n      dup2\n      sload\n      dup2\n      lt\n      tag_74\n      jumpi\n      tag_75\n      tag_50\n      jump\t// in\n    tag_75:\n    tag_74:\n      swap1\n      0x00\n      mstore\n      keccak256(0x00, 0x20)\n      add\n      0x00\n      swap1\n      sload\n      swap1\n      0x0100\n      exp\n      swap1\n      div\n      0xffffffffffffffffffffffffffffffffffffffff\n      and\n        /* \".deps/contract/contract.sol\":2887:2908  users_list[i].id_user */\n      0xffffffffffffffffffffffffffffffffffffffff\n      and\n      0x8cee71e0\n        /* \".deps/contract/contract.sol\":2887:2910  users_list[i].id_user() */\n      mload(0x40)\n      dup2\n      0xffffffff\n      and\n      0xe0\n      shl\n      dup2\n      mstore\n      0x04\n      add\n      0x20\n      mload(0x40)\n      dup1\n      dup4\n      sub\n      dup2\n      dup7\n      gas\n      staticcall\n      iszero\n      dup1\n      iszero\n      tag_78\n      jumpi\n      returndatasize\n      0x00\n      dup1\n      returndatacopy\n      revert(0x00, returndatasize)\n    tag_78:\n      pop\n      pop\n      pop\n      pop\n      mload(0x40)\n      returndatasize\n      not(0x1f)\n      0x1f\n      dup3\n      add\n      and\n      dup3\n      add\n      dup1\n      0x40\n      mstore\n      pop\n      dup2\n      add\n      swap1\n      tag_79\n      swap2\n      swap1\n      tag_55\n      jump\t// in\n    tag_79:\n        /* \".deps/contract/contract.sol\":2887:2920  users_list[i].id_user() == userId */\n      sub\n        /* \".deps/contract/contract.sol\":2883:2990  if (users_list[i].id_user() == userId) {... */\n      tag_80\n      jumpi\n        /* \".deps/contract/contract.sol\":2941:2951  users_list */\n      0x00\n        /* \".deps/contract/contract.sol\":2952:2953  i */\n      dup2\n        /* \".deps/contract/contract.sol\":2941:2954  users_list[i] */\n      dup2\n      sload\n      dup2\n      lt\n      tag_81\n      jumpi\n      tag_82\n      tag_50\n      jump\t// in\n    tag_82:\n    tag_81:\n      swap1\n      0x00\n      mstore\n      keccak256(0x00, 0x20)\n      add\n      0x00\n      swap1\n      sload\n      swap1\n      0x0100\n      exp\n      swap1\n      div\n      0xffffffffffffffffffffffffffffffffffffffff\n      and\n        /* \".deps/contract/contract.sol\":2941:2964  users_list[i].addOracle */\n      0xffffffffffffffffffffffffffffffffffffffff\n      and\n      0xe5a72d5b\n        /* \".deps/contract/contract.sol\":2965:2973  oracleId */\n      dup4\n        /* \".deps/contract/contract.sol\":2941:2974  users_list[i].addOracle(oracleId) */\n      mload(0x40)\n      dup3\n      0xffffffff\n      and\n      0xe0\n      shl\n      dup2\n      mstore\n      0x04\n      add\n      tag_84\n      swap2\n      swap1\n      tag_61\n      jump\t// in\n    tag_84:\n      0x00\n      mload(0x40)\n      dup1\n      dup4\n      sub\n      dup2\n      0x00\n      dup8\n      dup1\n      extcodesize\n      iszero\n      dup1\n      iszero\n      tag_85\n      jumpi\n      0x00\n      dup1\n      revert\n    tag_85:\n      pop\n      gas\n      call\n      iszero\n      dup1\n      iszero\n      tag_87\n      jumpi\n      returndatasize\n      0x00\n      dup1\n      returndatacopy\n      revert(0x00, returndatasize)\n    tag_87:\n      pop\n      pop\n      pop\n      pop\n        /* \".deps/contract/contract.sol\":2883:2990  if (users_list[i].id_user() == userId) {... */\n    tag_80:\n        /* \".deps/contract/contract.sol\":2863:2866  i++ */\n      dup1\n      dup1\n      tag_88\n      swap1\n      tag_66\n      jump\t// in\n    tag_88:\n      swap2\n      pop\n      pop\n        /* \".deps/contract/contract.sol\":2820:3001  for (uint256 i = 0; i < users_list.length; i++) {... */\n      jump(tag_71)\n    tag_72:\n      pop\n        /* \".deps/contract/contract.sol\":2684:3008  function addNewOracle(uint256 userId, uint256 oracleId) public {... */\n      pop\n      pop\n      jump\t// out\n        /* \".deps/contract/contract.sol\":3491:3939  function getAllOracles(uint256 userId) public view returns (uint256[] memory){... */\n    tag_21:\n        /* \".deps/contract/contract.sol\":3551:3567  uint256[] memory */\n      0x60\n        /* \".deps/contract/contract.sol\":3587:3607  isUserExists(userId) */\n      tag_90\n        /* \".deps/contract/contract.sol\":3600:3606  userId */\n      dup3\n        /* \".deps/contract/contract.sol\":3587:3599  isUserExists */\n      tag_41\n        /* \".deps/contract/contract.sol\":3587:3607  isUserExists(userId) */\n      jump\t// in\n    tag_90:\n        /* \".deps/contract/contract.sol\":3579:3630  require(isUserExists(userId), \"Utente non trovato\") */\n      tag_91\n      jumpi\n      mload(0x40)\n      0x08c379a000000000000000000000000000000000000000000000000000000000\n      dup2\n      mstore\n      0x04\n      add\n      tag_92\n      swap1\n      tag_44\n      jump\t// in\n    tag_92:\n      mload(0x40)\n      dup1\n      swap2\n      sub\n      swap1\n      revert\n    tag_91:\n        /* \".deps/contract/contract.sol\":3641:3668  uint256[] memory oraclesIds */\n      0x00\n        /* \".deps/contract/contract.sol\":3685:3695  users_list */\n      dup1\n        /* \".deps/contract/contract.sol\":3685:3702  users_list.length */\n      dup1\n      sload\n      swap1\n      pop\n        /* \".deps/contract/contract.sol\":3671:3703  new uint256[](users_list.length) */\n      0xffffffffffffffff\n      dup2\n      gt\n      iszero\n      tag_93\n      jumpi\n      tag_94\n      tag_95\n      jump\t// in\n    tag_94:\n    tag_93:\n      mload(0x40)\n      swap1\n      dup1\n      dup3\n      mstore\n      dup1\n      0x20\n      mul\n      0x20\n      add\n      dup3\n      add\n      0x40\n      mstore\n      dup1\n      iszero\n      tag_96\n      jumpi\n      dup2\n      0x20\n      add\n      0x20\n      dup3\n      mul\n      dup1\n      calldatasize\n      dup4\n      calldatacopy\n      dup1\n      dup3\n      add\n      swap2\n      pop\n      pop\n      swap1\n      pop\n    tag_96:\n      pop\n        /* \".deps/contract/contract.sol\":3641:3703  uint256[] memory oraclesIds = new uint256[](users_list.length) */\n      swap1\n      pop\n        /* \".deps/contract/contract.sol\":3719:3728  uint256 i */\n      0x00\n        /* \".deps/contract/contract.sol\":3714:3904  for (uint256 i = 0; i < users_list.length; i++) {... */\n    tag_97:\n        /* \".deps/contract/contract.sol\":3738:3748  users_list */\n      0x00\n        /* \".deps/contract/contract.sol\":3738:3755  users_list.length */\n      dup1\n      sload\n      swap1\n      pop\n        /* \".deps/contract/contract.sol\":3734:3735  i */\n      dup2\n        /* \".deps/contract/contract.sol\":3734:3755  i < users_list.length */\n      lt\n        /* \".deps/contract/contract.sol\":3714:3904  for (uint256 i = 0; i < users_list.length; i++) {... */\n      iszero\n      tag_98\n      jumpi\n        /* \".deps/contract/contract.sol\":3808:3814  userId */\n      dup4\n        /* \".deps/contract/contract.sol\":3781:3791  users_list */\n      0x00\n        /* \".deps/contract/contract.sol\":3792:3793  i */\n      dup3\n        /* \".deps/contract/contract.sol\":3781:3794  users_list[i] */\n      dup2\n      sload\n      dup2\n      lt\n      tag_100\n      jumpi\n      tag_101\n      tag_50\n      jump\t// in\n    tag_101:\n    tag_100:\n      swap1\n      0x00\n      mstore\n      keccak256(0x00, 0x20)\n      add\n      0x00\n      swap1\n      sload\n      swap1\n      0x0100\n      exp\n      swap1\n      div\n      0xffffffffffffffffffffffffffffffffffffffff\n      and\n        /* \".deps/contract/contract.sol\":3781:3802  users_list[i].id_user */\n      0xffffffffffffffffffffffffffffffffffffffff\n      and\n      0x8cee71e0\n        /* \".deps/contract/contract.sol\":3781:3804  users_list[i].id_user() */\n      mload(0x40)\n      dup2\n      0xffffffff\n      and\n      0xe0\n      shl\n      dup2\n      mstore\n      0x04\n      add\n      0x20\n      mload(0x40)\n      dup1\n      dup4\n      sub\n      dup2\n      dup7\n      gas\n      staticcall\n      iszero\n      dup1\n      iszero\n      tag_104\n      jumpi\n      returndatasize\n      0x00\n      dup1\n      returndatacopy\n      revert(0x00, returndatasize)\n    tag_104:\n      pop\n      pop\n      pop\n      pop\n      mload(0x40)\n      returndatasize\n      not(0x1f)\n      0x1f\n      dup3\n      add\n      and\n      dup3\n      add\n      dup1\n      0x40\n      mstore\n      pop\n      dup2\n      add\n      swap1\n      tag_105\n      swap2\n      swap1\n      tag_55\n      jump\t// in\n    tag_105:\n        /* \".deps/contract/contract.sol\":3781:3814  users_list[i].id_user() == userId */\n      sub\n        /* \".deps/contract/contract.sol\":3777:3893  if (users_list[i].id_user() == userId) {... */\n      tag_106\n      jumpi\n        /* \".deps/contract/contract.sol\":3848:3858  users_list */\n      0x00\n        /* \".deps/contract/contract.sol\":3859:3860  i */\n      dup2\n        /* \".deps/contract/contract.sol\":3848:3861  users_list[i] */\n      dup2\n      sload\n      dup2\n      lt\n      tag_107\n      jumpi\n      tag_108\n      tag_50\n      jump\t// in\n    tag_108:\n    tag_107:\n      swap1\n      0x00\n      mstore\n      keccak256(0x00, 0x20)\n      add\n      0x00\n      swap1\n      sload\n      swap1\n      0x0100\n      exp\n      swap1\n      div\n      0xffffffffffffffffffffffffffffffffffffffff\n      and\n        /* \".deps/contract/contract.sol\":3848:3875  users_list[i].getAllOracles */\n      0xffffffffffffffffffffffffffffffffffffffff\n      and\n      0x65a6bb29\n        /* \".deps/contract/contract.sol\":3848:3877  users_list[i].getAllOracles() */\n      mload(0x40)\n      dup2\n      0xffffffff\n      and\n      0xe0\n      shl\n      dup2\n      mstore\n      0x04\n      add\n      0x00\n      mload(0x40)\n      dup1\n      dup4\n      sub\n      dup2\n      dup7\n      gas\n      staticcall\n      iszero\n      dup1\n      iszero\n      tag_111\n      jumpi\n      returndatasize\n      0x00\n      dup1\n      returndatacopy\n      revert(0x00, returndatasize)\n    tag_111:\n      pop\n      pop\n      pop\n      pop\n      mload(0x40)\n      returndatasize\n      0x00\n      dup3\n      returndatacopy\n      returndatasize\n      not(0x1f)\n      0x1f\n      dup3\n      add\n      and\n      dup3\n      add\n      dup1\n      0x40\n      mstore\n      pop\n      dup2\n      add\n      swap1\n      tag_112\n      swap2\n      swap1\n      tag_113\n      jump\t// in\n    tag_112:\n        /* \".deps/contract/contract.sol\":3835:3877  oraclesIds = users_list[i].getAllOracles() */\n      swap2\n      pop\n        /* \".deps/contract/contract.sol\":3777:3893  if (users_list[i].id_user() == userId) {... */\n    tag_106:\n        /* \".deps/contract/contract.sol\":3757:3760  i++ */\n      dup1\n      dup1\n      tag_114\n      swap1\n      tag_66\n      jump\t// in\n    tag_114:\n      swap2\n      pop\n      pop\n        /* \".deps/contract/contract.sol\":3714:3904  for (uint256 i = 0; i < users_list.length; i++) {... */\n      jump(tag_97)\n    tag_98:\n      pop\n        /* \".deps/contract/contract.sol\":3921:3931  oraclesIds */\n      dup1\n        /* \".deps/contract/contract.sol\":3914:3931  return oraclesIds */\n      swap2\n      pop\n      pop\n        /* \".deps/contract/contract.sol\":3491:3939  function getAllOracles(uint256 userId) public view returns (uint256[] memory){... */\n      swap2\n      swap1\n      pop\n      jump\t// out\n        /* \".deps/contract/contract.sol\":1736:1760  user[] public users_list */\n    tag_26:\n      0x00\n      dup2\n      dup2\n      sload\n      dup2\n      lt\n      tag_115\n      jumpi\n      0x00\n      dup1\n      revert\n    tag_115:\n      swap1\n      0x00\n      mstore\n      keccak256(0x00, 0x20)\n      add\n      0x00\n      swap2\n      pop\n      sload\n      swap1\n      0x0100\n      exp\n      swap1\n      div\n      0xffffffffffffffffffffffffffffffffffffffff\n      and\n      dup2\n      jump\t// out\n        /* \".deps/contract/contract.sol\":3947:4247  function createNewUser(uint256 userId) public {  // Crea un nuovo utente e aggiungilo alla lista degli utenti... */\n    tag_31:\n        /* \".deps/contract/contract.sol\":4075:4095  isUserExists(userId) */\n      tag_118\n        /* \".deps/contract/contract.sol\":4088:4094  userId */\n      dup2\n        /* \".deps/contract/contract.sol\":4075:4087  isUserExists */\n      tag_41\n        /* \".deps/contract/contract.sol\":4075:4095  isUserExists(userId) */\n      jump\t// in\n    tag_118:\n        /* \".deps/contract/contract.sol\":4074:4095  !isUserExists(userId) */\n      iszero\n        /* \".deps/contract/contract.sol\":4066:4116  require(!isUserExists(userId), \"Utente esistente\") */\n      tag_119\n      jumpi\n      mload(0x40)\n      0x08c379a000000000000000000000000000000000000000000000000000000000\n      dup2\n      mstore\n      0x04\n      add\n      tag_120\n      swap1\n      tag_121\n      jump\t// in\n    tag_120:\n      mload(0x40)\n      dup1\n      swap2\n      sub\n      swap1\n      revert\n    tag_119:\n        /* \".deps/contract/contract.sol\":4173:4185  user newUser */\n      0x00\n        /* \".deps/contract/contract.sol\":4197:4203  userId */\n      dup2\n        /* \".deps/contract/contract.sol\":4188:4204  new user(userId) */\n      mload(0x40)\n      tag_122\n      swap1\n      tag_123\n      jump\t// in\n    tag_122:\n      tag_124\n      swap2\n      swap1\n      tag_61\n      jump\t// in\n    tag_124:\n      mload(0x40)\n      dup1\n      swap2\n      sub\n      swap1\n      0x00\n      create\n      dup1\n      iszero\n      dup1\n      iszero\n      tag_125\n      jumpi\n      returndatasize\n      0x00\n      dup1\n      returndatacopy\n      revert(0x00, returndatasize)\n    tag_125:\n      pop\n        /* \".deps/contract/contract.sol\":4173:4204  user newUser = new user(userId) */\n      swap1\n      pop\n        /* \".deps/contract/contract.sol\":4215:4225  users_list */\n      0x00\n        /* \".deps/contract/contract.sol\":4231:4238  newUser */\n      dup2\n        /* \".deps/contract/contract.sol\":4215:4239  users_list.push(newUser) */\n      swap1\n      dup1\n      0x01\n      dup2\n      sload\n      add\n      dup1\n      dup3\n      sstore\n      dup1\n      swap2\n      pop\n      pop\n      0x01\n      swap1\n      sub\n      swap1\n      0x00\n      mstore\n      keccak256(0x00, 0x20)\n      add\n      0x00\n      swap1\n      swap2\n      swap1\n      swap2\n      swap1\n      swap2\n      0x0100\n      exp\n      dup2\n      sload\n      dup2\n      0xffffffffffffffffffffffffffffffffffffffff\n      mul\n      not\n      and\n      swap1\n      dup4\n      0xffffffffffffffffffffffffffffffffffffffff\n      and\n      mul\n      or\n      swap1\n      sstore\n      pop\n        /* \".deps/contract/contract.sol\":3993:4247  {  // Crea un nuovo utente e aggiungilo alla lista degli utenti... */\n      pop\n        /* \".deps/contract/contract.sol\":3947:4247  function createNewUser(uint256 userId) public {  // Crea un nuovo utente e aggiungilo alla lista degli utenti... */\n      pop\n      jump\t// out\n        /* \".deps/contract/contract.sol\":2044:2332  function getAllUsers() public view returns (uint256[] memory) {... */\n    tag_33:\n        /* \".deps/contract/contract.sol\":2088:2104  uint256[] memory */\n      0x60\n        /* \".deps/contract/contract.sol\":2117:2141  uint256[] memory userIDs */\n      0x00\n        /* \".deps/contract/contract.sol\":2158:2168  users_list */\n      dup1\n        /* \".deps/contract/contract.sol\":2158:2175  users_list.length */\n      dup1\n      sload\n      swap1\n      pop\n        /* \".deps/contract/contract.sol\":2144:2176  new uint256[](users_list.length) */\n      0xffffffffffffffff\n      dup2\n      gt\n      iszero\n      tag_128\n      jumpi\n      tag_129\n      tag_95\n      jump\t// in\n    tag_129:\n    tag_128:\n      mload(0x40)\n      swap1\n      dup1\n      dup3\n      mstore\n      dup1\n      0x20\n      mul\n      0x20\n      add\n      dup3\n      add\n      0x40\n      mstore\n      dup1\n      iszero\n      tag_130\n      jumpi\n      dup2\n      0x20\n      add\n      0x20\n      dup3\n      mul\n      dup1\n      calldatasize\n      dup4\n      calldatacopy\n      dup1\n      dup3\n      add\n      swap2\n      pop\n      pop\n      swap1\n      pop\n    tag_130:\n      pop\n        /* \".deps/contract/contract.sol\":2117:2176  uint256[] memory userIDs = new uint256[](users_list.length) */\n      swap1\n      pop\n        /* \".deps/contract/contract.sol\":2192:2201  uint256 i */\n      0x00\n        /* \".deps/contract/contract.sol\":2187:2300  for (uint256 i = 0; i < users_list.length; i++) {... */\n    tag_131:\n        /* \".deps/contract/contract.sol\":2211:2221  users_list */\n      0x00\n        /* \".deps/contract/contract.sol\":2211:2228  users_list.length */\n      dup1\n      sload\n      swap1\n      pop\n        /* \".deps/contract/contract.sol\":2207:2208  i */\n      dup2\n        /* \".deps/contract/contract.sol\":2207:2228  i < users_list.length */\n      lt\n        /* \".deps/contract/contract.sol\":2187:2300  for (uint256 i = 0; i < users_list.length; i++) {... */\n      iszero\n      tag_132\n      jumpi\n        /* \".deps/contract/contract.sol\":2263:2273  users_list */\n      0x00\n        /* \".deps/contract/contract.sol\":2274:2275  i */\n      dup2\n        /* \".deps/contract/contract.sol\":2263:2276  users_list[i] */\n      dup2\n      sload\n      dup2\n      lt\n      tag_134\n      jumpi\n      tag_135\n      tag_50\n      jump\t// in\n    tag_135:\n    tag_134:\n      swap1\n      0x00\n      mstore\n      keccak256(0x00, 0x20)\n      add\n      0x00\n      swap1\n      sload\n      swap1\n      0x0100\n      exp\n      swap1\n      div\n      0xffffffffffffffffffffffffffffffffffffffff\n      and\n        /* \".deps/contract/contract.sol\":2263:2286  users_list[i].getUserId */\n      0xffffffffffffffffffffffffffffffffffffffff\n      and\n      0x2ebcb653\n        /* \".deps/contract/contract.sol\":2263:2288  users_list[i].getUserId() */\n      mload(0x40)\n      dup2\n      0xffffffff\n      and\n      0xe0\n      shl\n      dup2\n      mstore\n      0x04\n      add\n      0x20\n      mload(0x40)\n      dup1\n      dup4\n      sub\n      dup2\n      dup7\n      gas\n      staticcall\n      iszero\n      dup1\n      iszero\n      tag_138\n      jumpi\n      returndatasize\n      0x00\n      dup1\n      returndatacopy\n      revert(0x00, returndatasize)\n    tag_138:\n      pop\n      pop\n      pop\n      pop\n      mload(0x40)\n      returndatasize\n      not(0x1f)\n      0x1f\n      dup3\n      add\n      and\n      dup3\n      add\n      dup1\n      0x40\n      mstore\n      pop\n      dup2\n      add\n      swap1\n      tag_139\n      swap2\n      swap1\n      tag_55\n      jump\t// in\n    tag_139:\n        /* \".deps/contract/contract.sol\":2250:2257  userIDs */\n      dup3\n        /* \".deps/contract/contract.sol\":2258:2259  i */\n      dup3\n        /* \".deps/contract/contract.sol\":2250:2260  userIDs[i] */\n      dup2\n      mload\n      dup2\n      lt\n      tag_140\n      jumpi\n      tag_141\n      tag_50\n      jump\t// in\n    tag_141:\n    tag_140:\n      0x20\n      mul\n      0x20\n      add\n      add\n        /* \".deps/contract/contract.sol\":2250:2288  userIDs[i] = users_list[i].getUserId() */\n      dup2\n      dup2\n      mstore\n      pop\n      pop\n        /* \".deps/contract/contract.sol\":2230:2233  i++ */\n      dup1\n      dup1\n      tag_142\n      swap1\n      tag_66\n      jump\t// in\n    tag_142:\n      swap2\n      pop\n      pop\n        /* \".deps/contract/contract.sol\":2187:2300  for (uint256 i = 0; i < users_list.length; i++) {... */\n      jump(tag_131)\n    tag_132:\n      pop\n        /* \".deps/contract/contract.sol\":2317:2324  userIDs */\n      dup1\n        /* \".deps/contract/contract.sol\":2310:2324  return userIDs */\n      swap2\n      pop\n      pop\n        /* \".deps/contract/contract.sol\":2044:2332  function getAllUsers() public view returns (uint256[] memory) {... */\n      swap1\n      jump\t// out\n        /* \".deps/contract/contract.sol\":3016:3479  function getAllRecipients(uint256 userId) public view returns (uint256[] memory){... */\n    tag_37:\n        /* \".deps/contract/contract.sol\":3079:3095  uint256[] memory */\n      0x60\n        /* \".deps/contract/contract.sol\":3115:3135  isUserExists(userId) */\n      tag_144\n        /* \".deps/contract/contract.sol\":3128:3134  userId */\n      dup3\n        /* \".deps/contract/contract.sol\":3115:3127  isUserExists */\n      tag_41\n        /* \".deps/contract/contract.sol\":3115:3135  isUserExists(userId) */\n      jump\t// in\n    tag_144:\n        /* \".deps/contract/contract.sol\":3107:3158  require(isUserExists(userId), \"Utente non trovato\") */\n      tag_145\n      jumpi\n      mload(0x40)\n      0x08c379a000000000000000000000000000000000000000000000000000000000\n      dup2\n      mstore\n      0x04\n      add\n      tag_146\n      swap1\n      tag_44\n      jump\t// in\n    tag_146:\n      mload(0x40)\n      dup1\n      swap2\n      sub\n      swap1\n      revert\n    tag_145:\n        /* \".deps/contract/contract.sol\":3169:3199  uint256[] memory recipientsIds */\n      0x00\n        /* \".deps/contract/contract.sol\":3216:3226  users_list */\n      dup1\n        /* \".deps/contract/contract.sol\":3216:3233  users_list.length */\n      dup1\n      sload\n      swap1\n      pop\n        /* \".deps/contract/contract.sol\":3202:3234  new uint256[](users_list.length) */\n      0xffffffffffffffff\n      dup2\n      gt\n      iszero\n      tag_147\n      jumpi\n      tag_148\n      tag_95\n      jump\t// in\n    tag_148:\n    tag_147:\n      mload(0x40)\n      swap1\n      dup1\n      dup3\n      mstore\n      dup1\n      0x20\n      mul\n      0x20\n      add\n      dup3\n      add\n      0x40\n      mstore\n      dup1\n      iszero\n      tag_149\n      jumpi\n      dup2\n      0x20\n      add\n      0x20\n      dup3\n      mul\n      dup1\n      calldatasize\n      dup4\n      calldatacopy\n      dup1\n      dup3\n      add\n      swap2\n      pop\n      pop\n      swap1\n      pop\n    tag_149:\n      pop\n        /* \".deps/contract/contract.sol\":3169:3234  uint256[] memory recipientsIds = new uint256[](users_list.length) */\n      swap1\n      pop\n        /* \".deps/contract/contract.sol\":3250:3259  uint256 i */\n      0x00\n        /* \".deps/contract/contract.sol\":3245:3441  for (uint256 i = 0; i < users_list.length; i++) {... */\n    tag_150:\n        /* \".deps/contract/contract.sol\":3269:3279  users_list */\n      0x00\n        /* \".deps/contract/contract.sol\":3269:3286  users_list.length */\n      dup1\n      sload\n      swap1\n      pop\n        /* \".deps/contract/contract.sol\":3265:3266  i */\n      dup2\n        /* \".deps/contract/contract.sol\":3265:3286  i < users_list.length */\n      lt\n        /* \".deps/contract/contract.sol\":3245:3441  for (uint256 i = 0; i < users_list.length; i++) {... */\n      iszero\n      tag_151\n      jumpi\n        /* \".deps/contract/contract.sol\":3339:3345  userId */\n      dup4\n        /* \".deps/contract/contract.sol\":3312:3322  users_list */\n      0x00\n        /* \".deps/contract/contract.sol\":3323:3324  i */\n      dup3\n        /* \".deps/contract/contract.sol\":3312:3325  users_list[i] */\n      dup2\n      sload\n      dup2\n      lt\n      tag_153\n      jumpi\n      tag_154\n      tag_50\n      jump\t// in\n    tag_154:\n    tag_153:\n      swap1\n      0x00\n      mstore\n      keccak256(0x00, 0x20)\n      add\n      0x00\n      swap1\n      sload\n      swap1\n      0x0100\n      exp\n      swap1\n      div\n      0xffffffffffffffffffffffffffffffffffffffff\n      and\n        /* \".deps/contract/contract.sol\":3312:3333  users_list[i].id_user */\n      0xffffffffffffffffffffffffffffffffffffffff\n      and\n      0x8cee71e0\n        /* \".deps/contract/contract.sol\":3312:3335  users_list[i].id_user() */\n      mload(0x40)\n      dup2\n      0xffffffff\n      and\n      0xe0\n      shl\n      dup2\n      mstore\n      0x04\n      add\n      0x20\n      mload(0x40)\n      dup1\n      dup4\n      sub\n      dup2\n      dup7\n      gas\n      staticcall\n      iszero\n      dup1\n      iszero\n      tag_157\n      jumpi\n      returndatasize\n      0x00\n      dup1\n      returndatacopy\n      revert(0x00, returndatasize)\n    tag_157:\n      pop\n      pop\n      pop\n      pop\n      mload(0x40)\n      returndatasize\n      not(0x1f)\n      0x1f\n      dup3\n      add\n      and\n      dup3\n      add\n      dup1\n      0x40\n      mstore\n      pop\n      dup2\n      add\n      swap1\n      tag_158\n      swap2\n      swap1\n      tag_55\n      jump\t// in\n    tag_158:\n        /* \".deps/contract/contract.sol\":3312:3345  users_list[i].id_user() == userId */\n      sub\n        /* \".deps/contract/contract.sol\":3308:3430  if (users_list[i].id_user() == userId) {... */\n      tag_159\n      jumpi\n        /* \".deps/contract/contract.sol\":3382:3392  users_list */\n      0x00\n        /* \".deps/contract/contract.sol\":3393:3394  i */\n      dup2\n        /* \".deps/contract/contract.sol\":3382:3395  users_list[i] */\n      dup2\n      sload\n      dup2\n      lt\n      tag_160\n      jumpi\n      tag_161\n      tag_50\n      jump\t// in\n    tag_161:\n    tag_160:\n      swap1\n      0x00\n      mstore\n      keccak256(0x00, 0x20)\n      add\n      0x00\n      swap1\n      sload\n      swap1\n      0x0100\n      exp\n      swap1\n      div\n      0xffffffffffffffffffffffffffffffffffffffff\n      and\n        /* \".deps/contract/contract.sol\":3382:3412  users_list[i].getAllRecipients */\n      0xffffffffffffffffffffffffffffffffffffffff\n      and\n      0xb74513c1\n        /* \".deps/contract/contract.sol\":3382:3414  users_list[i].getAllRecipients() */\n      mload(0x40)\n      dup2\n      0xffffffff\n      and\n      0xe0\n      shl\n      dup2\n      mstore\n      0x04\n      add\n      0x00\n      mload(0x40)\n      dup1\n      dup4\n      sub\n      dup2\n      dup7\n      gas\n      staticcall\n      iszero\n      dup1\n      iszero\n      tag_164\n      jumpi\n      returndatasize\n      0x00\n      dup1\n      returndatacopy\n      revert(0x00, returndatasize)\n    tag_164:\n      pop\n      pop\n      pop\n      pop\n      mload(0x40)\n      returndatasize\n      0x00\n      dup3\n      returndatacopy\n      returndatasize\n      not(0x1f)\n      0x1f\n      dup3\n      add\n      and\n      dup3\n      add\n      dup1\n      0x40\n      mstore\n      pop\n      dup2\n      add\n      swap1\n      tag_165\n      swap2\n      swap1\n      tag_113\n      jump\t// in\n    tag_165:\n        /* \".deps/contract/contract.sol\":3366:3414  recipientsIds = users_list[i].getAllRecipients() */\n      swap2\n      pop\n        /* \".deps/contract/contract.sol\":3308:3430  if (users_list[i].id_user() == userId) {... */\n    tag_159:\n        /* \".deps/contract/contract.sol\":3288:3291  i++ */\n      dup1\n      dup1\n      tag_166\n      swap1\n      tag_66\n      jump\t// in\n    tag_166:\n      swap2\n      pop\n      pop\n        /* \".deps/contract/contract.sol\":3245:3441  for (uint256 i = 0; i < users_list.length; i++) {... */\n      jump(tag_150)\n    tag_151:\n      pop\n        /* \".deps/contract/contract.sol\":3458:3471  recipientsIds */\n      dup1\n        /* \".deps/contract/contract.sol\":3451:3471  return recipientsIds */\n      swap2\n      pop\n      pop\n        /* \".deps/contract/contract.sol\":3016:3479  function getAllRecipients(uint256 userId) public view returns (uint256[] memory){... */\n      swap2\n      swap1\n      pop\n      jump\t// out\n        /* \".deps/contract/contract.sol\":1769:2036  function isUserExists(uint256 userId) internal view returns (bool) {... */\n    tag_41:\n        /* \".deps/contract/contract.sol\":1830:1834  bool */\n      0x00\n        /* \".deps/contract/contract.sol\":1852:1861  uint256 i */\n      dup1\n        /* \".deps/contract/contract.sol\":1864:1865  0 */\n      0x00\n        /* \".deps/contract/contract.sol\":1852:1865  uint256 i = 0 */\n      swap1\n      pop\n        /* \".deps/contract/contract.sol\":1847:2006  for (uint256 i = 0; i < users_list.length; i++) {... */\n    tag_168:\n        /* \".deps/contract/contract.sol\":1871:1881  users_list */\n      0x00\n        /* \".deps/contract/contract.sol\":1871:1888  users_list.length */\n      dup1\n      sload\n      swap1\n      pop\n        /* \".deps/contract/contract.sol\":1867:1868  i */\n      dup2\n        /* \".deps/contract/contract.sol\":1867:1888  i < users_list.length */\n      lt\n        /* \".deps/contract/contract.sol\":1847:2006  for (uint256 i = 0; i < users_list.length; i++) {... */\n      iszero\n      tag_169\n      jumpi\n        /* \".deps/contract/contract.sol\":1941:1947  userId */\n      dup3\n        /* \".deps/contract/contract.sol\":1914:1924  users_list */\n      0x00\n        /* \".deps/contract/contract.sol\":1925:1926  i */\n      dup3\n        /* \".deps/contract/contract.sol\":1914:1927  users_list[i] */\n      dup2\n      sload\n      dup2\n      lt\n      tag_171\n      jumpi\n      tag_172\n      tag_50\n      jump\t// in\n    tag_172:\n    tag_171:\n      swap1\n      0x00\n      mstore\n      keccak256(0x00, 0x20)\n      add\n      0x00\n      swap1\n      sload\n      swap1\n      0x0100\n      exp\n      swap1\n      div\n      0xffffffffffffffffffffffffffffffffffffffff\n      and\n        /* \".deps/contract/contract.sol\":1914:1935  users_list[i].id_user */\n      0xffffffffffffffffffffffffffffffffffffffff\n      and\n      0x8cee71e0\n        /* \".deps/contract/contract.sol\":1914:1937  users_list[i].id_user() */\n      mload(0x40)\n      dup2\n      0xffffffff\n      and\n      0xe0\n      shl\n      dup2\n      mstore\n      0x04\n      add\n      0x20\n      mload(0x40)\n      dup1\n      dup4\n      sub\n      dup2\n      dup7\n      gas\n      staticcall\n      iszero\n      dup1\n      iszero\n      tag_175\n      jumpi\n      returndatasize\n      0x00\n      dup1\n      returndatacopy\n      revert(0x00, returndatasize)\n    tag_175:\n      pop\n      pop\n      pop\n      pop\n      mload(0x40)\n      returndatasize\n      not(0x1f)\n      0x1f\n      dup3\n      add\n      and\n      dup3\n      add\n      dup1\n      0x40\n      mstore\n      pop\n      dup2\n      add\n      swap1\n      tag_176\n      swap2\n      swap1\n      tag_55\n      jump\t// in\n    tag_176:\n        /* \".deps/contract/contract.sol\":1914:1947  users_list[i].id_user() == userId */\n      sub\n        /* \".deps/contract/contract.sol\":1910:1995  if (users_list[i].id_user() == userId) {... */\n      tag_177\n      jumpi\n        /* \".deps/contract/contract.sol\":1975:1979  true */\n      0x01\n        /* \".deps/contract/contract.sol\":1968:1979  return true */\n      swap2\n      pop\n      pop\n      jump(tag_167)\n        /* \".deps/contract/contract.sol\":1910:1995  if (users_list[i].id_user() == userId) {... */\n    tag_177:\n        /* \".deps/contract/contract.sol\":1890:1893  i++ */\n      dup1\n      dup1\n      tag_178\n      swap1\n      tag_66\n      jump\t// in\n    tag_178:\n      swap2\n      pop\n      pop\n        /* \".deps/contract/contract.sol\":1847:2006  for (uint256 i = 0; i < users_list.length; i++) {... */\n      jump(tag_168)\n    tag_169:\n      pop\n        /* \".deps/contract/contract.sol\":2023:2028  false */\n      0x00\n        /* \".deps/contract/contract.sol\":2016:2028  return false */\n      swap1\n      pop\n        /* \".deps/contract/contract.sol\":1769:2036  function isUserExists(uint256 userId) internal view returns (bool) {... */\n    tag_167:\n      swap2\n      swap1\n      pop\n      jump\t// out\n    tag_123:\n      dataSize(sub_0)\n      dup1\n      dataOffset(sub_0)\n      dup4\n      codecopy\n      add\n      swap1\n      jump\t// out\n        /* \"#utility.yul\":7:82   */\n    tag_179:\n        /* \"#utility.yul\":40:46   */\n      0x00\n        /* \"#utility.yul\":73:75   */\n      0x40\n        /* \"#utility.yul\":67:76   */\n      mload\n        /* \"#utility.yul\":57:76   */\n      swap1\n      pop\n        /* \"#utility.yul\":7:82   */\n      swap1\n      jump\t// out\n        /* \"#utility.yul\":88:205   */\n    tag_180:\n        /* \"#utility.yul\":197:198   */\n      0x00\n        /* \"#utility.yul\":194:195   */\n      dup1\n        /* \"#utility.yul\":187:199   */\n      revert\n        /* \"#utility.yul\":211:328   */\n    tag_181:\n        /* \"#utility.yul\":320:321   */\n      0x00\n        /* \"#utility.yul\":317:318   */\n      dup1\n        /* \"#utility.yul\":310:322   */\n      revert\n        /* \"#utility.yul\":334:411   */\n    tag_182:\n        /* \"#utility.yul\":371:378   */\n      0x00\n        /* \"#utility.yul\":400:405   */\n      dup2\n        /* \"#utility.yul\":389:405   */\n      swap1\n      pop\n        /* \"#utility.yul\":334:411   */\n      swap2\n      swap1\n      pop\n      jump\t// out\n        /* \"#utility.yul\":417:539   */\n    tag_183:\n        /* \"#utility.yul\":490:514   */\n      tag_220\n        /* \"#utility.yul\":508:513   */\n      dup2\n        /* \"#utility.yul\":490:514   */\n      tag_182\n      jump\t// in\n    tag_220:\n        /* \"#utility.yul\":483:488   */\n      dup2\n        /* \"#utility.yul\":480:515   */\n      eq\n        /* \"#utility.yul\":470:533   */\n      tag_221\n      jumpi\n        /* \"#utility.yul\":529:530   */\n      0x00\n        /* \"#utility.yul\":526:527   */\n      dup1\n        /* \"#utility.yul\":519:531   */\n      revert\n        /* \"#utility.yul\":470:533   */\n    tag_221:\n        /* \"#utility.yul\":417:539   */\n      pop\n      jump\t// out\n        /* \"#utility.yul\":545:684   */\n    tag_184:\n        /* \"#utility.yul\":591:596   */\n      0x00\n        /* \"#utility.yul\":629:635   */\n      dup2\n        /* \"#utility.yul\":616:636   */\n      calldataload\n        /* \"#utility.yul\":607:636   */\n      swap1\n      pop\n        /* \"#utility.yul\":645:678   */\n      tag_223\n        /* \"#utility.yul\":672:677   */\n      dup2\n        /* \"#utility.yul\":645:678   */\n      tag_183\n      jump\t// in\n    tag_223:\n        /* \"#utility.yul\":545:684   */\n      swap3\n      swap2\n      pop\n      pop\n      jump\t// out\n        /* \"#utility.yul\":690:1164   */\n    tag_13:\n        /* \"#utility.yul\":758:764   */\n      0x00\n        /* \"#utility.yul\":766:772   */\n      dup1\n        /* \"#utility.yul\":815:817   */\n      0x40\n        /* \"#utility.yul\":803:812   */\n      dup4\n        /* \"#utility.yul\":794:801   */\n      dup6\n        /* \"#utility.yul\":790:813   */\n      sub\n        /* \"#utility.yul\":786:818   */\n      slt\n        /* \"#utility.yul\":783:902   */\n      iszero\n      tag_225\n      jumpi\n        /* \"#utility.yul\":821:900   */\n      tag_226\n      tag_180\n      jump\t// in\n    tag_226:\n        /* \"#utility.yul\":783:902   */\n    tag_225:\n        /* \"#utility.yul\":941:942   */\n      0x00\n        /* \"#utility.yul\":966:1019   */\n      tag_227\n        /* \"#utility.yul\":1011:1018   */\n      dup6\n        /* \"#utility.yul\":1002:1008   */\n      dup3\n        /* \"#utility.yul\":991:1000   */\n      dup7\n        /* \"#utility.yul\":987:1009   */\n      add\n        /* \"#utility.yul\":966:1019   */\n      tag_184\n      jump\t// in\n    tag_227:\n        /* \"#utility.yul\":956:1019   */\n      swap3\n      pop\n        /* \"#utility.yul\":912:1029   */\n      pop\n        /* \"#utility.yul\":1068:1070   */\n      0x20\n        /* \"#utility.yul\":1094:1147   */\n      tag_228\n        /* \"#utility.yul\":1139:1146   */\n      dup6\n        /* \"#utility.yul\":1130:1136   */\n      dup3\n        /* \"#utility.yul\":1119:1128   */\n      dup7\n        /* \"#utility.yul\":1115:1137   */\n      add\n        /* \"#utility.yul\":1094:1147   */\n      tag_184\n      jump\t// in\n    tag_228:\n        /* \"#utility.yul\":1084:1147   */\n      swap2\n      pop\n        /* \"#utility.yul\":1039:1157   */\n      pop\n        /* \"#utility.yul\":690:1164   */\n      swap3\n      pop\n      swap3\n      swap1\n      pop\n      jump\t// out\n        /* \"#utility.yul\":1170:1499   */\n    tag_20:\n        /* \"#utility.yul\":1229:1235   */\n      0x00\n        /* \"#utility.yul\":1278:1280   */\n      0x20\n        /* \"#utility.yul\":1266:1275   */\n      dup3\n        /* \"#utility.yul\":1257:1264   */\n      dup5\n        /* \"#utility.yul\":1253:1276   */\n      sub\n        /* \"#utility.yul\":1249:1281   */\n      slt\n        /* \"#utility.yul\":1246:1365   */\n      iszero\n      tag_230\n      jumpi\n        /* \"#utility.yul\":1284:1363   */\n      tag_231\n      tag_180\n      jump\t// in\n    tag_231:\n        /* \"#utility.yul\":1246:1365   */\n    tag_230:\n        /* \"#utility.yul\":1404:1405   */\n      0x00\n        /* \"#utility.yul\":1429:1482   */\n      tag_232\n        /* \"#utility.yul\":1474:1481   */\n      dup5\n        /* \"#utility.yul\":1465:1471   */\n      dup3\n        /* \"#utility.yul\":1454:1463   */\n      dup6\n        /* \"#utility.yul\":1450:1472   */\n      add\n        /* \"#utility.yul\":1429:1482   */\n      tag_184\n      jump\t// in\n    tag_232:\n        /* \"#utility.yul\":1419:1482   */\n      swap2\n      pop\n        /* \"#utility.yul\":1375:1492   */\n      pop\n        /* \"#utility.yul\":1170:1499   */\n      swap3\n      swap2\n      pop\n      pop\n      jump\t// out\n        /* \"#utility.yul\":1505:1619   */\n    tag_185:\n        /* \"#utility.yul\":1572:1578   */\n      0x00\n        /* \"#utility.yul\":1606:1611   */\n      dup2\n        /* \"#utility.yul\":1600:1612   */\n      mload\n        /* \"#utility.yul\":1590:1612   */\n      swap1\n      pop\n        /* \"#utility.yul\":1505:1619   */\n      swap2\n      swap1\n      pop\n      jump\t// out\n        /* \"#utility.yul\":1625:1809   */\n    tag_186:\n        /* \"#utility.yul\":1724:1735   */\n      0x00\n        /* \"#utility.yul\":1758:1764   */\n      dup3\n        /* \"#utility.yul\":1753:1756   */\n      dup3\n        /* \"#utility.yul\":1746:1765   */\n      mstore\n        /* \"#utility.yul\":1798:1802   */\n      0x20\n        /* \"#utility.yul\":1793:1796   */\n      dup3\n        /* \"#utility.yul\":1789:1803   */\n      add\n        /* \"#utility.yul\":1774:1803   */\n      swap1\n      pop\n        /* \"#utility.yul\":1625:1809   */\n      swap3\n      swap2\n      pop\n      pop\n      jump\t// out\n        /* \"#utility.yul\":1815:1947   */\n    tag_187:\n        /* \"#utility.yul\":1882:1886   */\n      0x00\n        /* \"#utility.yul\":1905:1908   */\n      dup2\n        /* \"#utility.yul\":1897:1908   */\n      swap1\n      pop\n        /* \"#utility.yul\":1935:1939   */\n      0x20\n        /* \"#utility.yul\":1930:1933   */\n      dup3\n        /* \"#utility.yul\":1926:1940   */\n      add\n        /* \"#utility.yul\":1918:1940   */\n      swap1\n      pop\n        /* \"#utility.yul\":1815:1947   */\n      swap2\n      swap1\n      pop\n      jump\t// out\n        /* \"#utility.yul\":1953:2061   */\n    tag_188:\n        /* \"#utility.yul\":2030:2054   */\n      tag_237\n        /* \"#utility.yul\":2048:2053   */\n      dup2\n        /* \"#utility.yul\":2030:2054   */\n      tag_182\n      jump\t// in\n    tag_237:\n        /* \"#utility.yul\":2025:2028   */\n      dup3\n        /* \"#utility.yul\":2018:2055   */\n      mstore\n        /* \"#utility.yul\":1953:2061   */\n      pop\n      pop\n      jump\t// out\n        /* \"#utility.yul\":2067:2246   */\n    tag_189:\n        /* \"#utility.yul\":2136:2146   */\n      0x00\n        /* \"#utility.yul\":2157:2203   */\n      tag_239\n        /* \"#utility.yul\":2199:2202   */\n      dup4\n        /* \"#utility.yul\":2191:2197   */\n      dup4\n        /* \"#utility.yul\":2157:2203   */\n      tag_188\n      jump\t// in\n    tag_239:\n        /* \"#utility.yul\":2235:2239   */\n      0x20\n        /* \"#utility.yul\":2230:2233   */\n      dup4\n        /* \"#utility.yul\":2226:2240   */\n      add\n        /* \"#utility.yul\":2212:2240   */\n      swap1\n      pop\n        /* \"#utility.yul\":2067:2246   */\n      swap3\n      swap2\n      pop\n      pop\n      jump\t// out\n        /* \"#utility.yul\":2252:2365   */\n    tag_190:\n        /* \"#utility.yul\":2322:2326   */\n      0x00\n        /* \"#utility.yul\":2354:2358   */\n      0x20\n        /* \"#utility.yul\":2349:2352   */\n      dup3\n        /* \"#utility.yul\":2345:2359   */\n      add\n        /* \"#utility.yul\":2337:2359   */\n      swap1\n      pop\n        /* \"#utility.yul\":2252:2365   */\n      swap2\n      swap1\n      pop\n      jump\t// out\n        /* \"#utility.yul\":2401:3133   */\n    tag_191:\n        /* \"#utility.yul\":2520:2523   */\n      0x00\n        /* \"#utility.yul\":2549:2603   */\n      tag_242\n        /* \"#utility.yul\":2597:2602   */\n      dup3\n        /* \"#utility.yul\":2549:2603   */\n      tag_185\n      jump\t// in\n    tag_242:\n        /* \"#utility.yul\":2619:2705   */\n      tag_243\n        /* \"#utility.yul\":2698:2704   */\n      dup2\n        /* \"#utility.yul\":2693:2696   */\n      dup6\n        /* \"#utility.yul\":2619:2705   */\n      tag_186\n      jump\t// in\n    tag_243:\n        /* \"#utility.yul\":2612:2705   */\n      swap4\n      pop\n        /* \"#utility.yul\":2729:2785   */\n      tag_244\n        /* \"#utility.yul\":2779:2784   */\n      dup4\n        /* \"#utility.yul\":2729:2785   */\n      tag_187\n      jump\t// in\n    tag_244:\n        /* \"#utility.yul\":2808:2815   */\n      dup1\n        /* \"#utility.yul\":2839:2840   */\n      0x00\n        /* \"#utility.yul\":2824:3108   */\n    tag_245:\n        /* \"#utility.yul\":2849:2855   */\n      dup4\n        /* \"#utility.yul\":2846:2847   */\n      dup2\n        /* \"#utility.yul\":2843:2856   */\n      lt\n        /* \"#utility.yul\":2824:3108   */\n      iszero\n      tag_247\n      jumpi\n        /* \"#utility.yul\":2925:2931   */\n      dup2\n        /* \"#utility.yul\":2919:2932   */\n      mload\n        /* \"#utility.yul\":2952:3015   */\n      tag_248\n        /* \"#utility.yul\":3011:3014   */\n      dup9\n        /* \"#utility.yul\":2996:3009   */\n      dup3\n        /* \"#utility.yul\":2952:3015   */\n      tag_189\n      jump\t// in\n    tag_248:\n        /* \"#utility.yul\":2945:3015   */\n      swap8\n      pop\n        /* \"#utility.yul\":3038:3098   */\n      tag_249\n        /* \"#utility.yul\":3091:3097   */\n      dup4\n        /* \"#utility.yul\":3038:3098   */\n      tag_190\n      jump\t// in\n    tag_249:\n        /* \"#utility.yul\":3028:3098   */\n      swap3\n      pop\n        /* \"#utility.yul\":2884:3108   */\n      pop\n        /* \"#utility.yul\":2871:2872   */\n      0x01\n        /* \"#utility.yul\":2868:2869   */\n      dup2\n        /* \"#utility.yul\":2864:2873   */\n      add\n        /* \"#utility.yul\":2859:2873   */\n      swap1\n      pop\n        /* \"#utility.yul\":2824:3108   */\n      jump(tag_245)\n    tag_247:\n        /* \"#utility.yul\":2828:2842   */\n      pop\n        /* \"#utility.yul\":3124:3127   */\n      dup6\n        /* \"#utility.yul\":3117:3127   */\n      swap4\n      pop\n        /* \"#utility.yul\":2525:3133   */\n      pop\n      pop\n      pop\n        /* \"#utility.yul\":2401:3133   */\n      swap3\n      swap2\n      pop\n      pop\n      jump\t// out\n        /* \"#utility.yul\":3139:3512   */\n    tag_23:\n        /* \"#utility.yul\":3282:3286   */\n      0x00\n        /* \"#utility.yul\":3320:3322   */\n      0x20\n        /* \"#utility.yul\":3309:3318   */\n      dup3\n        /* \"#utility.yul\":3305:3323   */\n      add\n        /* \"#utility.yul\":3297:3323   */\n      swap1\n      pop\n        /* \"#utility.yul\":3369:3378   */\n      dup2\n        /* \"#utility.yul\":3363:3367   */\n      dup2\n        /* \"#utility.yul\":3359:3379   */\n      sub\n        /* \"#utility.yul\":3355:3356   */\n      0x00\n        /* \"#utility.yul\":3344:3353   */\n      dup4\n        /* \"#utility.yul\":3340:3357   */\n      add\n        /* \"#utility.yul\":3333:3380   */\n      mstore\n        /* \"#utility.yul\":3397:3505   */\n      tag_251\n        /* \"#utility.yul\":3500:3504   */\n      dup2\n        /* \"#utility.yul\":3491:3497   */\n      dup5\n        /* \"#utility.yul\":3397:3505   */\n      tag_191\n      jump\t// in\n    tag_251:\n        /* \"#utility.yul\":3389:3505   */\n      swap1\n      pop\n        /* \"#utility.yul\":3139:3512   */\n      swap3\n      swap2\n      pop\n      pop\n      jump\t// out\n        /* \"#utility.yul\":3518:3644   */\n    tag_192:\n        /* \"#utility.yul\":3555:3562   */\n      0x00\n        /* \"#utility.yul\":3595:3637   */\n      0xffffffffffffffffffffffffffffffffffffffff\n        /* \"#utility.yul\":3588:3593   */\n      dup3\n        /* \"#utility.yul\":3584:3638   */\n      and\n        /* \"#utility.yul\":3573:3638   */\n      swap1\n      pop\n        /* \"#utility.yul\":3518:3644   */\n      swap2\n      swap1\n      pop\n      jump\t// out\n        /* \"#utility.yul\":3650:3710   */\n    tag_193:\n        /* \"#utility.yul\":3678:3681   */\n      0x00\n        /* \"#utility.yul\":3699:3704   */\n      dup2\n        /* \"#utility.yul\":3692:3704   */\n      swap1\n      pop\n        /* \"#utility.yul\":3650:3710   */\n      swap2\n      swap1\n      pop\n      jump\t// out\n        /* \"#utility.yul\":3716:3858   */\n    tag_194:\n        /* \"#utility.yul\":3766:3775   */\n      0x00\n        /* \"#utility.yul\":3799:3852   */\n      tag_255\n        /* \"#utility.yul\":3817:3851   */\n      tag_256\n        /* \"#utility.yul\":3826:3850   */\n      tag_257\n        /* \"#utility.yul\":3844:3849   */\n      dup5\n        /* \"#utility.yul\":3826:3850   */\n      tag_192\n      jump\t// in\n    tag_257:\n        /* \"#utility.yul\":3817:3851   */\n      tag_193\n      jump\t// in\n    tag_256:\n        /* \"#utility.yul\":3799:3852   */\n      tag_192\n      jump\t// in\n    tag_255:\n        /* \"#utility.yul\":3786:3852   */\n      swap1\n      pop\n        /* \"#utility.yul\":3716:3858   */\n      swap2\n      swap1\n      pop\n      jump\t// out\n        /* \"#utility.yul\":3864:3990   */\n    tag_195:\n        /* \"#utility.yul\":3914:3923   */\n      0x00\n        /* \"#utility.yul\":3947:3984   */\n      tag_259\n        /* \"#utility.yul\":3978:3983   */\n      dup3\n        /* \"#utility.yul\":3947:3984   */\n      tag_194\n      jump\t// in\n    tag_259:\n        /* \"#utility.yul\":3934:3984   */\n      swap1\n      pop\n        /* \"#utility.yul\":3864:3990   */\n      swap2\n      swap1\n      pop\n      jump\t// out\n        /* \"#utility.yul\":3996:4134   */\n    tag_196:\n        /* \"#utility.yul\":4058:4067   */\n      0x00\n        /* \"#utility.yul\":4091:4128   */\n      tag_261\n        /* \"#utility.yul\":4122:4127   */\n      dup3\n        /* \"#utility.yul\":4091:4128   */\n      tag_195\n      jump\t// in\n    tag_261:\n        /* \"#utility.yul\":4078:4128   */\n      swap1\n      pop\n        /* \"#utility.yul\":3996:4134   */\n      swap2\n      swap1\n      pop\n      jump\t// out\n        /* \"#utility.yul\":4140:4295   */\n    tag_197:\n        /* \"#utility.yul\":4239:4288   */\n      tag_263\n        /* \"#utility.yul\":4282:4287   */\n      dup2\n        /* \"#utility.yul\":4239:4288   */\n      tag_196\n      jump\t// in\n    tag_263:\n        /* \"#utility.yul\":4234:4237   */\n      dup3\n        /* \"#utility.yul\":4227:4289   */\n      mstore\n        /* \"#utility.yul\":4140:4295   */\n      pop\n      pop\n      jump\t// out\n        /* \"#utility.yul\":4301:4547   */\n    tag_28:\n        /* \"#utility.yul\":4406:4410   */\n      0x00\n        /* \"#utility.yul\":4444:4446   */\n      0x20\n        /* \"#utility.yul\":4433:4442   */\n      dup3\n        /* \"#utility.yul\":4429:4447   */\n      add\n        /* \"#utility.yul\":4421:4447   */\n      swap1\n      pop\n        /* \"#utility.yul\":4457:4540   */\n      tag_265\n        /* \"#utility.yul\":4537:4538   */\n      0x00\n        /* \"#utility.yul\":4526:4535   */\n      dup4\n        /* \"#utility.yul\":4522:4539   */\n      add\n        /* \"#utility.yul\":4513:4519   */\n      dup5\n        /* \"#utility.yul\":4457:4540   */\n      tag_197\n      jump\t// in\n    tag_265:\n        /* \"#utility.yul\":4301:4547   */\n      swap3\n      swap2\n      pop\n      pop\n      jump\t// out\n        /* \"#utility.yul\":4553:4722   */\n    tag_198:\n        /* \"#utility.yul\":4637:4648   */\n      0x00\n        /* \"#utility.yul\":4671:4677   */\n      dup3\n        /* \"#utility.yul\":4666:4669   */\n      dup3\n        /* \"#utility.yul\":4659:4678   */\n      mstore\n        /* \"#utility.yul\":4711:4715   */\n      0x20\n        /* \"#utility.yul\":4706:4709   */\n      dup3\n        /* \"#utility.yul\":4702:4716   */\n      add\n        /* \"#utility.yul\":4687:4716   */\n      swap1\n      pop\n        /* \"#utility.yul\":4553:4722   */\n      swap3\n      swap2\n      pop\n      pop\n      jump\t// out\n        /* \"#utility.yul\":4728:4896   */\n    tag_199:\n        /* \"#utility.yul\":4868:4888   */\n      0x5574656e7465206e6f6e2074726f7661746f0000000000000000000000000000\n        /* \"#utility.yul\":4864:4865   */\n      0x00\n        /* \"#utility.yul\":4856:4862   */\n      dup3\n        /* \"#utility.yul\":4852:4866   */\n      add\n        /* \"#utility.yul\":4845:4889   */\n      mstore\n        /* \"#utility.yul\":4728:4896   */\n      pop\n      jump\t// out\n        /* \"#utility.yul\":4902:5268   */\n    tag_200:\n        /* \"#utility.yul\":5044:5047   */\n      0x00\n        /* \"#utility.yul\":5065:5132   */\n      tag_269\n        /* \"#utility.yul\":5129:5131   */\n      0x12\n        /* \"#utility.yul\":5124:5127   */\n      dup4\n        /* \"#utility.yul\":5065:5132   */\n      tag_198\n      jump\t// in\n    tag_269:\n        /* \"#utility.yul\":5058:5132   */\n      swap2\n      pop\n        /* \"#utility.yul\":5141:5234   */\n      tag_270\n        /* \"#utility.yul\":5230:5233   */\n      dup3\n        /* \"#utility.yul\":5141:5234   */\n      tag_199\n      jump\t// in\n    tag_270:\n        /* \"#utility.yul\":5259:5261   */\n      0x20\n        /* \"#utility.yul\":5254:5257   */\n      dup3\n        /* \"#utility.yul\":5250:5262   */\n      add\n        /* \"#utility.yul\":5243:5262   */\n      swap1\n      pop\n        /* \"#utility.yul\":4902:5268   */\n      swap2\n      swap1\n      pop\n      jump\t// out\n        /* \"#utility.yul\":5274:5693   */\n    tag_44:\n        /* \"#utility.yul\":5440:5444   */\n      0x00\n        /* \"#utility.yul\":5478:5480   */\n      0x20\n        /* \"#utility.yul\":5467:5476   */\n      dup3\n        /* \"#utility.yul\":5463:5481   */\n      add\n        /* \"#utility.yul\":5455:5481   */\n      swap1\n      pop\n        /* \"#utility.yul\":5527:5536   */\n      dup2\n        /* \"#utility.yul\":5521:5525   */\n      dup2\n        /* \"#utility.yul\":5517:5537   */\n      sub\n        /* \"#utility.yul\":5513:5514   */\n      0x00\n        /* \"#utility.yul\":5502:5511   */\n      dup4\n        /* \"#utility.yul\":5498:5515   */\n      add\n        /* \"#utility.yul\":5491:5538   */\n      mstore\n        /* \"#utility.yul\":5555:5686   */\n      tag_272\n        /* \"#utility.yul\":5681:5685   */\n      dup2\n        /* \"#utility.yul\":5555:5686   */\n      tag_200\n      jump\t// in\n    tag_272:\n        /* \"#utility.yul\":5547:5686   */\n      swap1\n      pop\n        /* \"#utility.yul\":5274:5693   */\n      swap2\n      swap1\n      pop\n      jump\t// out\n        /* \"#utility.yul\":5699:5879   */\n    tag_50:\n        /* \"#utility.yul\":5747:5824   */\n      0x4e487b7100000000000000000000000000000000000000000000000000000000\n        /* \"#utility.yul\":5744:5745   */\n      0x00\n        /* \"#utility.yul\":5737:5825   */\n      mstore\n        /* \"#utility.yul\":5844:5848   */\n      0x32\n        /* \"#utility.yul\":5841:5842   */\n      0x04\n        /* \"#utility.yul\":5834:5849   */\n      mstore\n        /* \"#utility.yul\":5868:5872   */\n      0x24\n        /* \"#utility.yul\":5865:5866   */\n      0x00\n        /* \"#utility.yul\":5858:5873   */\n      revert\n        /* \"#utility.yul\":5885:6028   */\n    tag_201:\n        /* \"#utility.yul\":5942:5947   */\n      0x00\n        /* \"#utility.yul\":5973:5979   */\n      dup2\n        /* \"#utility.yul\":5967:5980   */\n      mload\n        /* \"#utility.yul\":5958:5980   */\n      swap1\n      pop\n        /* \"#utility.yul\":5989:6022   */\n      tag_275\n        /* \"#utility.yul\":6016:6021   */\n      dup2\n        /* \"#utility.yul\":5989:6022   */\n      tag_183\n      jump\t// in\n    tag_275:\n        /* \"#utility.yul\":5885:6028   */\n      swap3\n      swap2\n      pop\n      pop\n      jump\t// out\n        /* \"#utility.yul\":6034:6385   */\n    tag_55:\n        /* \"#utility.yul\":6104:6110   */\n      0x00\n        /* \"#utility.yul\":6153:6155   */\n      0x20\n        /* \"#utility.yul\":6141:6150   */\n      dup3\n        /* \"#utility.yul\":6132:6139   */\n      dup5\n        /* \"#utility.yul\":6128:6151   */\n      sub\n        /* \"#utility.yul\":6124:6156   */\n      slt\n        /* \"#utility.yul\":6121:6240   */\n      iszero\n      tag_277\n      jumpi\n        /* \"#utility.yul\":6159:6238   */\n      tag_278\n      tag_180\n      jump\t// in\n    tag_278:\n        /* \"#utility.yul\":6121:6240   */\n    tag_277:\n        /* \"#utility.yul\":6279:6280   */\n      0x00\n        /* \"#utility.yul\":6304:6368   */\n      tag_279\n        /* \"#utility.yul\":6360:6367   */\n      dup5\n        /* \"#utility.yul\":6351:6357   */\n      dup3\n        /* \"#utility.yul\":6340:6349   */\n      dup6\n        /* \"#utility.yul\":6336:6358   */\n      add\n        /* \"#utility.yul\":6304:6368   */\n      tag_201\n      jump\t// in\n    tag_279:\n        /* \"#utility.yul\":6294:6368   */\n      swap2\n      pop\n        /* \"#utility.yul\":6250:6378   */\n      pop\n        /* \"#utility.yul\":6034:6385   */\n      swap3\n      swap2\n      pop\n      pop\n      jump\t// out\n        /* \"#utility.yul\":6391:6509   */\n    tag_202:\n        /* \"#utility.yul\":6478:6502   */\n      tag_281\n        /* \"#utility.yul\":6496:6501   */\n      dup2\n        /* \"#utility.yul\":6478:6502   */\n      tag_182\n      jump\t// in\n    tag_281:\n        /* \"#utility.yul\":6473:6476   */\n      dup3\n        /* \"#utility.yul\":6466:6503   */\n      mstore\n        /* \"#utility.yul\":6391:6509   */\n      pop\n      pop\n      jump\t// out\n        /* \"#utility.yul\":6515:6737   */\n    tag_61:\n        /* \"#utility.yul\":6608:6612   */\n      0x00\n        /* \"#utility.yul\":6646:6648   */\n      0x20\n        /* \"#utility.yul\":6635:6644   */\n      dup3\n        /* \"#utility.yul\":6631:6649   */\n      add\n        /* \"#utility.yul\":6623:6649   */\n      swap1\n      pop\n        /* \"#utility.yul\":6659:6730   */\n      tag_283\n        /* \"#utility.yul\":6727:6728   */\n      0x00\n        /* \"#utility.yul\":6716:6725   */\n      dup4\n        /* \"#utility.yul\":6712:6729   */\n      add\n        /* \"#utility.yul\":6703:6709   */\n      dup5\n        /* \"#utility.yul\":6659:6730   */\n      tag_202\n      jump\t// in\n    tag_283:\n        /* \"#utility.yul\":6515:6737   */\n      swap3\n      swap2\n      pop\n      pop\n      jump\t// out\n        /* \"#utility.yul\":6743:6923   */\n    tag_203:\n        /* \"#utility.yul\":6791:6868   */\n      0x4e487b7100000000000000000000000000000000000000000000000000000000\n        /* \"#utility.yul\":6788:6789   */\n      0x00\n        /* \"#utility.yul\":6781:6869   */\n      mstore\n        /* \"#utility.yul\":6888:6892   */\n      0x11\n        /* \"#utility.yul\":6885:6886   */\n      0x04\n        /* \"#utility.yul\":6878:6893   */\n      mstore\n        /* \"#utility.yul\":6912:6916   */\n      0x24\n        /* \"#utility.yul\":6909:6910   */\n      0x00\n        /* \"#utility.yul\":6902:6917   */\n      revert\n        /* \"#utility.yul\":6929:7162   */\n    tag_66:\n        /* \"#utility.yul\":6968:6971   */\n      0x00\n        /* \"#utility.yul\":6991:7015   */\n      tag_286\n        /* \"#utility.yul\":7009:7014   */\n      dup3\n        /* \"#utility.yul\":6991:7015   */\n      tag_182\n      jump\t// in\n    tag_286:\n        /* \"#utility.yul\":6982:7015   */\n      swap2\n      pop\n        /* \"#utility.yul\":7037:7103   */\n      0xffffffffffffffffffffffffffffffffffffffffffffffffffffffffffffffff\n        /* \"#utility.yul\":7030:7035   */\n      dup3\n        /* \"#utility.yul\":7027:7104   */\n      sub\n        /* \"#utility.yul\":7024:7127   */\n      tag_287\n      jumpi\n        /* \"#utility.yul\":7107:7125   */\n      tag_288\n      tag_203\n      jump\t// in\n    tag_288:\n        /* \"#utility.yul\":7024:7127   */\n    tag_287:\n        /* \"#utility.yul\":7154:7155   */\n      0x01\n        /* \"#utility.yul\":7147:7152   */\n      dup3\n        /* \"#utility.yul\":7143:7156   */\n      add\n        /* \"#utility.yul\":7136:7156   */\n      swap1\n      pop\n        /* \"#utility.yul\":6929:7162   */\n      swap2\n      swap1\n      pop\n      jump\t// out\n        /* \"#utility.yul\":7168:7348   */\n    tag_95:\n        /* \"#utility.yul\":7216:7293   */\n      0x4e487b7100000000000000000000000000000000000000000000000000000000\n        /* \"#utility.yul\":7213:7214   */\n      0x00\n        /* \"#utility.yul\":7206:7294   */\n      mstore\n        /* \"#utility.yul\":7313:7317   */\n      0x41\n        /* \"#utility.yul\":7310:7311   */\n      0x04\n        /* \"#utility.yul\":7303:7318   */\n      mstore\n        /* \"#utility.yul\":7337:7341   */\n      0x24\n        /* \"#utility.yul\":7334:7335   */\n      0x00\n        /* \"#utility.yul\":7327:7342   */\n      revert\n        /* \"#utility.yul\":7354:7471   */\n    tag_204:\n        /* \"#utility.yul\":7463:7464   */\n      0x00\n        /* \"#utility.yul\":7460:7461   */\n      dup1\n        /* \"#utility.yul\":7453:7465   */\n      revert\n        /* \"#utility.yul\":7477:7579   */\n    tag_205:\n        /* \"#utility.yul\":7518:7524   */\n      0x00\n        /* \"#utility.yul\":7569:7571   */\n      0x1f\n        /* \"#utility.yul\":7565:7572   */\n      not\n        /* \"#utility.yul\":7560:7562   */\n      0x1f\n        /* \"#utility.yul\":7553:7558   */\n      dup4\n        /* \"#utility.yul\":7549:7563   */\n      add\n        /* \"#utility.yul\":7545:7573   */\n      and\n        /* \"#utility.yul\":7535:7573   */\n      swap1\n      pop\n        /* \"#utility.yul\":7477:7579   */\n      swap2\n      swap1\n      pop\n      jump\t// out\n        /* \"#utility.yul\":7585:7866   */\n    tag_206:\n        /* \"#utility.yul\":7668:7695   */\n      tag_293\n        /* \"#utility.yul\":7690:7694   */\n      dup3\n        /* \"#utility.yul\":7668:7695   */\n      tag_205\n      jump\t// in\n    tag_293:\n        /* \"#utility.yul\":7660:7666   */\n      dup2\n        /* \"#utility.yul\":7656:7696   */\n      add\n        /* \"#utility.yul\":7798:7804   */\n      dup2\n        /* \"#utility.yul\":7786:7796   */\n      dup2\n        /* \"#utility.yul\":7783:7805   */\n      lt\n        /* \"#utility.yul\":7762:7780   */\n      0xffffffffffffffff\n        /* \"#utility.yul\":7750:7760   */\n      dup3\n        /* \"#utility.yul\":7747:7781   */\n      gt\n        /* \"#utility.yul\":7744:7806   */\n      or\n        /* \"#utility.yul\":7741:7829   */\n      iszero\n      tag_294\n      jumpi\n        /* \"#utility.yul\":7809:7827   */\n      tag_295\n      tag_95\n      jump\t// in\n    tag_295:\n        /* \"#utility.yul\":7741:7829   */\n    tag_294:\n        /* \"#utility.yul\":7849:7859   */\n      dup1\n        /* \"#utility.yul\":7845:7847   */\n      0x40\n        /* \"#utility.yul\":7838:7860   */\n      mstore\n        /* \"#utility.yul\":7628:7866   */\n      pop\n        /* \"#utility.yul\":7585:7866   */\n      pop\n      pop\n      jump\t// out\n        /* \"#utility.yul\":7872:8001   */\n    tag_207:\n        /* \"#utility.yul\":7906:7912   */\n      0x00\n        /* \"#utility.yul\":7933:7953   */\n      tag_297\n      tag_179\n      jump\t// in\n    tag_297:\n        /* \"#utility.yul\":7923:7953   */\n      swap1\n      pop\n        /* \"#utility.yul\":7962:7995   */\n      tag_298\n        /* \"#utility.yul\":7990:7994   */\n      dup3\n        /* \"#utility.yul\":7982:7988   */\n      dup3\n        /* \"#utility.yul\":7962:7995   */\n      tag_206\n      jump\t// in\n    tag_298:\n        /* \"#utility.yul\":7872:8001   */\n      swap2\n      swap1\n      pop\n      jump\t// out\n        /* \"#utility.yul\":8007:8318   */\n    tag_208:\n        /* \"#utility.yul\":8084:8088   */\n      0x00\n        /* \"#utility.yul\":8174:8192   */\n      0xffffffffffffffff\n        /* \"#utility.yul\":8166:8172   */\n      dup3\n        /* \"#utility.yul\":8163:8193   */\n      gt\n        /* \"#utility.yul\":8160:8216   */\n      iszero\n      tag_300\n      jumpi\n        /* \"#utility.yul\":8196:8214   */\n      tag_301\n      tag_95\n      jump\t// in\n    tag_301:\n        /* \"#utility.yul\":8160:8216   */\n    tag_300:\n        /* \"#utility.yul\":8246:8250   */\n      0x20\n        /* \"#utility.yul\":8238:8244   */\n      dup3\n        /* \"#utility.yul\":8234:8251   */\n      mul\n        /* \"#utility.yul\":8226:8251   */\n      swap1\n      pop\n        /* \"#utility.yul\":8306:8310   */\n      0x20\n        /* \"#utility.yul\":8300:8304   */\n      dup2\n        /* \"#utility.yul\":8296:8311   */\n      add\n        /* \"#utility.yul\":8288:8311   */\n      swap1\n      pop\n        /* \"#utility.yul\":8007:8318   */\n      swap2\n      swap1\n      pop\n      jump\t// out\n        /* \"#utility.yul\":8324:8441   */\n    tag_209:\n        /* \"#utility.yul\":8433:8434   */\n      0x00\n        /* \"#utility.yul\":8430:8431   */\n      dup1\n        /* \"#utility.yul\":8423:8435   */\n      revert\n        /* \"#utility.yul\":8464:9196   */\n    tag_210:\n        /* \"#utility.yul\":8571:8576   */\n      0x00\n        /* \"#utility.yul\":8596:8677   */\n      tag_304\n        /* \"#utility.yul\":8612:8676   */\n      tag_305\n        /* \"#utility.yul\":8669:8675   */\n      dup5\n        /* \"#utility.yul\":8612:8676   */\n      tag_208\n      jump\t// in\n    tag_305:\n        /* \"#utility.yul\":8596:8677   */\n      tag_207\n      jump\t// in\n    tag_304:\n        /* \"#utility.yul\":8587:8677   */\n      swap1\n      pop\n        /* \"#utility.yul\":8697:8702   */\n      dup1\n        /* \"#utility.yul\":8726:8732   */\n      dup4\n        /* \"#utility.yul\":8719:8724   */\n      dup3\n        /* \"#utility.yul\":8712:8733   */\n      mstore\n        /* \"#utility.yul\":8760:8764   */\n      0x20\n        /* \"#utility.yul\":8753:8758   */\n      dup3\n        /* \"#utility.yul\":8749:8765   */\n      add\n        /* \"#utility.yul\":8742:8765   */\n      swap1\n      pop\n        /* \"#utility.yul\":8813:8817   */\n      0x20\n        /* \"#utility.yul\":8805:8811   */\n      dup5\n        /* \"#utility.yul\":8801:8818   */\n      mul\n        /* \"#utility.yul\":8793:8799   */\n      dup4\n        /* \"#utility.yul\":8789:8819   */\n      add\n        /* \"#utility.yul\":8842:8845   */\n      dup6\n        /* \"#utility.yul\":8834:8840   */\n      dup2\n        /* \"#utility.yul\":8831:8846   */\n      gt\n        /* \"#utility.yul\":8828:8950   */\n      iszero\n      tag_306\n      jumpi\n        /* \"#utility.yul\":8861:8940   */\n      tag_307\n      tag_209\n      jump\t// in\n    tag_307:\n        /* \"#utility.yul\":8828:8950   */\n    tag_306:\n        /* \"#utility.yul\":8976:8982   */\n      dup4\n        /* \"#utility.yul\":8959:9190   */\n    tag_308:\n        /* \"#utility.yul\":8993:8999   */\n      dup2\n        /* \"#utility.yul\":8988:8991   */\n      dup2\n        /* \"#utility.yul\":8985:9000   */\n      lt\n        /* \"#utility.yul\":8959:9190   */\n      iszero\n      tag_310\n      jumpi\n        /* \"#utility.yul\":9068:9071   */\n      dup1\n        /* \"#utility.yul\":9097:9145   */\n      tag_311\n        /* \"#utility.yul\":9141:9144   */\n      dup9\n        /* \"#utility.yul\":9129:9139   */\n      dup3\n        /* \"#utility.yul\":9097:9145   */\n      tag_201\n      jump\t// in\n    tag_311:\n        /* \"#utility.yul\":9092:9095   */\n      dup5\n        /* \"#utility.yul\":9085:9146   */\n      mstore\n        /* \"#utility.yul\":9175:9179   */\n      0x20\n        /* \"#utility.yul\":9170:9173   */\n      dup5\n        /* \"#utility.yul\":9166:9180   */\n      add\n        /* \"#utility.yul\":9159:9180   */\n      swap4\n      pop\n        /* \"#utility.yul\":9035:9190   */\n      pop\n        /* \"#utility.yul\":9019:9023   */\n      0x20\n        /* \"#utility.yul\":9014:9017   */\n      dup2\n        /* \"#utility.yul\":9010:9024   */\n      add\n        /* \"#utility.yul\":9003:9024   */\n      swap1\n      pop\n        /* \"#utility.yul\":8959:9190   */\n      jump(tag_308)\n    tag_310:\n        /* \"#utility.yul\":8963:8984   */\n      pop\n        /* \"#utility.yul\":8577:9196   */\n      pop\n      pop\n        /* \"#utility.yul\":8464:9196   */\n      swap4\n      swap3\n      pop\n      pop\n      pop\n      jump\t// out\n        /* \"#utility.yul\":9219:9604   */\n    tag_211:\n        /* \"#utility.yul\":9301:9306   */\n      0x00\n        /* \"#utility.yul\":9350:9353   */\n      dup3\n        /* \"#utility.yul\":9343:9347   */\n      0x1f\n        /* \"#utility.yul\":9335:9341   */\n      dup4\n        /* \"#utility.yul\":9331:9348   */\n      add\n        /* \"#utility.yul\":9327:9354   */\n      slt\n        /* \"#utility.yul\":9317:9439   */\n      tag_313\n      jumpi\n        /* \"#utility.yul\":9358:9437   */\n      tag_314\n      tag_204\n      jump\t// in\n    tag_314:\n        /* \"#utility.yul\":9317:9439   */\n    tag_313:\n        /* \"#utility.yul\":9468:9474   */\n      dup2\n        /* \"#utility.yul\":9462:9475   */\n      mload\n        /* \"#utility.yul\":9493:9598   */\n      tag_315\n        /* \"#utility.yul\":9594:9597   */\n      dup5\n        /* \"#utility.yul\":9586:9592   */\n      dup3\n        /* \"#utility.yul\":9579:9583   */\n      0x20\n        /* \"#utility.yul\":9571:9577   */\n      dup7\n        /* \"#utility.yul\":9567:9584   */\n      add\n        /* \"#utility.yul\":9493:9598   */\n      tag_210\n      jump\t// in\n    tag_315:\n        /* \"#utility.yul\":9484:9598   */\n      swap2\n      pop\n        /* \"#utility.yul\":9307:9604   */\n      pop\n        /* \"#utility.yul\":9219:9604   */\n      swap3\n      swap2\n      pop\n      pop\n      jump\t// out\n        /* \"#utility.yul\":9610:10164   */\n    tag_113:\n        /* \"#utility.yul\":9705:9711   */\n      0x00\n        /* \"#utility.yul\":9754:9756   */\n      0x20\n        /* \"#utility.yul\":9742:9751   */\n      dup3\n        /* \"#utility.yul\":9733:9740   */\n      dup5\n        /* \"#utility.yul\":9729:9752   */\n      sub\n        /* \"#utility.yul\":9725:9757   */\n      slt\n        /* \"#utility.yul\":9722:9841   */\n      iszero\n      tag_317\n      jumpi\n        /* \"#utility.yul\":9760:9839   */\n      tag_318\n      tag_180\n      jump\t// in\n    tag_318:\n        /* \"#utility.yul\":9722:9841   */\n    tag_317:\n        /* \"#utility.yul\":9901:9902   */\n      0x00\n        /* \"#utility.yul\":9890:9899   */\n      dup3\n        /* \"#utility.yul\":9886:9903   */\n      add\n        /* \"#utility.yul\":9880:9904   */\n      mload\n        /* \"#utility.yul\":9931:9949   */\n      0xffffffffffffffff\n        /* \"#utility.yul\":9923:9929   */\n      dup2\n        /* \"#utility.yul\":9920:9950   */\n      gt\n        /* \"#utility.yul\":9917:10034   */\n      iszero\n      tag_319\n      jumpi\n        /* \"#utility.yul\":9953:10032   */\n      tag_320\n      tag_181\n      jump\t// in\n    tag_320:\n        /* \"#utility.yul\":9917:10034   */\n    tag_319:\n        /* \"#utility.yul\":10058:10147   */\n      tag_321\n        /* \"#utility.yul\":10139:10146   */\n      dup5\n        /* \"#utility.yul\":10130:10136   */\n      dup3\n        /* \"#utility.yul\":10119:10128   */\n      dup6\n        /* \"#utility.yul\":10115:10137   */\n      add\n        /* \"#utility.yul\":10058:10147   */\n      tag_211\n      jump\t// in\n    tag_321:\n        /* \"#utility.yul\":10048:10147   */\n      swap2\n      pop\n        /* \"#utility.yul\":9851:10157   */\n      pop\n        /* \"#utility.yul\":9610:10164   */\n      swap3\n      swap2\n      pop\n      pop\n      jump\t// out\n        /* \"#utility.yul\":10170:10336   */\n    tag_212:\n        /* \"#utility.yul\":10310:10328   */\n      0x5574656e7465206573697374656e746500000000000000000000000000000000\n        /* \"#utility.yul\":10306:10307   */\n      0x00\n        /* \"#utility.yul\":10298:10304   */\n      dup3\n        /* \"#utility.yul\":10294:10308   */\n      add\n        /* \"#utility.yul\":10287:10329   */\n      mstore\n        /* \"#utility.yul\":10170:10336   */\n      pop\n      jump\t// out\n        /* \"#utility.yul\":10342:10708   */\n    tag_213:\n        /* \"#utility.yul\":10484:10487   */\n      0x00\n        /* \"#utility.yul\":10505:10572   */\n      tag_324\n        /* \"#utility.yul\":10569:10571   */\n      0x10\n        /* \"#utility.yul\":10564:10567   */\n      dup4\n        /* \"#utility.yul\":10505:10572   */\n      tag_198\n      jump\t// in\n    tag_324:\n        /* \"#utility.yul\":10498:10572   */\n      swap2\n      pop\n        /* \"#utility.yul\":10581:10674   */\n      tag_325\n        /* \"#utility.yul\":10670:10673   */\n      dup3\n        /* \"#utility.yul\":10581:10674   */\n      tag_212\n      jump\t// in\n    tag_325:\n        /* \"#utility.yul\":10699:10701   */\n      0x20\n        /* \"#utility.yul\":10694:10697   */\n      dup3\n        /* \"#utility.yul\":10690:10702   */\n      add\n        /* \"#utility.yul\":10683:10702   */\n      swap1\n      pop\n        /* \"#utility.yul\":10342:10708   */\n      swap2\n      swap1\n      pop\n      jump\t// out\n        /* \"#utility.yul\":10714:11133   */\n    tag_121:\n        /* \"#utility.yul\":10880:10884   */\n      0x00\n        /* \"#utility.yul\":10918:10920   */\n      0x20\n        /* \"#utility.yul\":10907:10916   */\n      dup3\n        /* \"#utility.yul\":10903:10921   */\n      add\n        /* \"#utility.yul\":10895:10921   */\n      swap1\n      pop\n        /* \"#utility.yul\":10967:10976   */\n      dup2\n        /* \"#utility.yul\":10961:10965   */\n      dup2\n        /* \"#utility.yul\":10957:10977   */\n      sub\n        /* \"#utility.yul\":10953:10954   */\n      0x00\n        /* \"#utility.yul\":10942:10951   */\n      dup4\n        /* \"#utility.yul\":10938:10955   */\n      add\n        /* \"#utility.yul\":10931:10978   */\n      mstore\n        /* \"#utility.yul\":10995:11126   */\n      tag_327\n        /* \"#utility.yul\":11121:11125   */\n      dup2\n        /* \"#utility.yul\":10995:11126   */\n      tag_213\n      jump\t// in\n    tag_327:\n        /* \"#utility.yul\":10987:11126   */\n      swap1\n      pop\n        /* \"#utility.yul\":10714:11133   */\n      swap2\n      swap1\n      pop\n      jump\t// out\n    stop\n\n    sub_0: assembly {\n            /* \".deps/contract/contract.sol\":65:1667  contract user{... */\n          mstore(0x40, 0x80)\n            /* \".deps/contract/contract.sol\":398:499  constructor(uint256 id){... */\n          callvalue\n          dup1\n          iszero\n          tag_1\n          jumpi\n          0x00\n          dup1\n          revert\n        tag_1:\n          pop\n          mload(0x40)\n          sub(codesize, bytecodeSize)\n          dup1\n          bytecodeSize\n          dup4\n          codecopy\n          dup2\n          dup2\n          add\n          0x40\n          mstore\n          dup2\n          add\n          swap1\n          tag_2\n          swap2\n          swap1\n          tag_3\n          jump\t// in\n        tag_2:\n            /* \".deps/contract/contract.sol\":442:444  id */\n          dup1\n            /* \".deps/contract/contract.sol\":432:439  id_user */\n          0x00\n            /* \".deps/contract/contract.sol\":432:444  id_user = id */\n          dup2\n          swap1\n          sstore\n          pop\n            /* \".deps/contract/contract.sol\":475:491  user_state.alive */\n          0x01\n            /* \".deps/contract/contract.sol\":455:472  actual_user_state */\n          dup1\n          0x00\n            /* \".deps/contract/contract.sol\":455:491  actual_user_state = user_state.alive */\n          0x0100\n          exp\n          dup2\n          sload\n          dup2\n          0xff\n          mul\n          not\n          and\n          swap1\n          dup4\n          0x01\n          dup2\n          gt\n          iszero\n          tag_6\n          jumpi\n          tag_7\n          tag_8\n          jump\t// in\n        tag_7:\n        tag_6:\n          mul\n          or\n          swap1\n          sstore\n          pop\n            /* \".deps/contract/contract.sol\":398:499  constructor(uint256 id){... */\n          pop\n            /* \".deps/contract/contract.sol\":65:1667  contract user{... */\n          jump(tag_9)\n            /* \"#utility.yul\":88:205   */\n        tag_11:\n            /* \"#utility.yul\":197:198   */\n          0x00\n            /* \"#utility.yul\":194:195   */\n          dup1\n            /* \"#utility.yul\":187:199   */\n          revert\n            /* \"#utility.yul\":334:411   */\n        tag_13:\n            /* \"#utility.yul\":371:378   */\n          0x00\n            /* \"#utility.yul\":400:405   */\n          dup2\n            /* \"#utility.yul\":389:405   */\n          swap1\n          pop\n            /* \"#utility.yul\":334:411   */\n          swap2\n          swap1\n          pop\n          jump\t// out\n            /* \"#utility.yul\":417:539   */\n        tag_14:\n            /* \"#utility.yul\":490:514   */\n          tag_22\n            /* \"#utility.yul\":508:513   */\n          dup2\n            /* \"#utility.yul\":490:514   */\n          tag_13\n          jump\t// in\n        tag_22:\n            /* \"#utility.yul\":483:488   */\n          dup2\n            /* \"#utility.yul\":480:515   */\n          eq\n            /* \"#utility.yul\":470:533   */\n          tag_23\n          jumpi\n            /* \"#utility.yul\":529:530   */\n          0x00\n            /* \"#utility.yul\":526:527   */\n          dup1\n            /* \"#utility.yul\":519:531   */\n          revert\n            /* \"#utility.yul\":470:533   */\n        tag_23:\n            /* \"#utility.yul\":417:539   */\n          pop\n          jump\t// out\n            /* \"#utility.yul\":545:688   */\n        tag_15:\n            /* \"#utility.yul\":602:607   */\n          0x00\n            /* \"#utility.yul\":633:639   */\n          dup2\n            /* \"#utility.yul\":627:640   */\n          mload\n            /* \"#utility.yul\":618:640   */\n          swap1\n          pop\n            /* \"#utility.yul\":649:682   */\n          tag_25\n            /* \"#utility.yul\":676:681   */\n          dup2\n            /* \"#utility.yul\":649:682   */\n          tag_14\n          jump\t// in\n        tag_25:\n            /* \"#utility.yul\":545:688   */\n          swap3\n          swap2\n          pop\n          pop\n          jump\t// out\n            /* \"#utility.yul\":694:1045   */\n        tag_3:\n            /* \"#utility.yul\":764:770   */\n          0x00\n            /* \"#utility.yul\":813:815   */\n          0x20\n            /* \"#utility.yul\":801:810   */\n          dup3\n            /* \"#utility.yul\":792:799   */\n          dup5\n            /* \"#utility.yul\":788:811   */\n          sub\n            /* \"#utility.yul\":784:816   */\n          slt\n            /* \"#utility.yul\":781:900   */\n          iszero\n          tag_27\n          jumpi\n            /* \"#utility.yul\":819:898   */\n          tag_28\n          tag_11\n          jump\t// in\n        tag_28:\n            /* \"#utility.yul\":781:900   */\n        tag_27:\n            /* \"#utility.yul\":939:940   */\n          0x00\n            /* \"#utility.yul\":964:1028   */\n          tag_29\n            /* \"#utility.yul\":1020:1027   */\n          dup5\n            /* \"#utility.yul\":1011:1017   */\n          dup3\n            /* \"#utility.yul\":1000:1009   */\n          dup6\n            /* \"#utility.yul\":996:1018   */\n          add\n            /* \"#utility.yul\":964:1028   */\n          tag_15\n          jump\t// in\n        tag_29:\n            /* \"#utility.yul\":954:1028   */\n          swap2\n          pop\n            /* \"#utility.yul\":910:1038   */\n          pop\n            /* \"#utility.yul\":694:1045   */\n          swap3\n          swap2\n          pop\n          pop\n          jump\t// out\n            /* \"#utility.yul\":1051:1231   */\n        tag_8:\n            /* \"#utility.yul\":1099:1176   */\n          0x4e487b7100000000000000000000000000000000000000000000000000000000\n            /* \"#utility.yul\":1096:1097   */\n          0x00\n            /* \"#utility.yul\":1089:1177   */\n          mstore\n            /* \"#utility.yul\":1196:1200   */\n          0x21\n            /* \"#utility.yul\":1193:1194   */\n          0x04\n            /* \"#utility.yul\":1186:1201   */\n          mstore\n            /* \"#utility.yul\":1220:1224   */\n          0x24\n            /* \"#utility.yul\":1217:1218   */\n          0x00\n            /* \"#utility.yul\":1210:1225   */\n          revert\n            /* \".deps/contract/contract.sol\":65:1667  contract user{... */\n        tag_9:\n          dataSize(sub_0)\n          dup1\n          dataOffset(sub_0)\n          0x00\n          codecopy\n          0x00\n          return\n        stop\n\n        sub_0: assembly {\n                /* \".deps/contract/contract.sol\":65:1667  contract user{... */\n              mstore(0x40, 0x80)\n              callvalue\n              dup1\n              iszero\n              tag_1\n              jumpi\n              0x00\n              dup1\n              revert\n            tag_1:\n              pop\n              jumpi(tag_2, lt(calldatasize, 0x04))\n              shr(0xe0, calldataload(0x00))\n              dup1\n              0x84731d6f\n              gt\n              tag_12\n              jumpi\n              dup1\n              0x84731d6f\n              eq\n              tag_7\n              jumpi\n              dup1\n              0x8cee71e0\n              eq\n              tag_8\n              jumpi\n              dup1\n              0xb74513c1\n              eq\n              tag_9\n              jumpi\n              dup1\n              0xe5a72d5b\n              eq\n              tag_10\n              jumpi\n              dup1\n              0xfc68b3ed\n              eq\n              tag_11\n              jumpi\n              jump(tag_2)\n            tag_12:\n              dup1\n              0x2ebcb653\n              eq\n              tag_3\n              jumpi\n              dup1\n              0x42be8cb5\n              eq\n              tag_4\n              jumpi\n              dup1\n              0x499ba0aa\n              eq\n              tag_5\n              jumpi\n              dup1\n              0x65a6bb29\n              eq\n              tag_6\n              jumpi\n            tag_2:\n              0x00\n              dup1\n              revert\n                /* \".deps/contract/contract.sol\":507:590  function getUserId() public view returns (uint256){... */\n            tag_3:\n              tag_13\n              tag_14\n              jump\t// in\n            tag_13:\n              mload(0x40)\n              tag_15\n              swap2\n              swap1\n              tag_16\n              jump\t// in\n            tag_15:\n              mload(0x40)\n              dup1\n              swap2\n              sub\n              swap1\n              return\n                /* \".deps/contract/contract.sol\":360:388  Oracle[] public oracles_list */\n            tag_4:\n              tag_17\n              0x04\n              dup1\n              calldatasize\n              sub\n              dup2\n              add\n              swap1\n              tag_18\n              swap2\n              swap1\n              tag_19\n              jump\t// in\n            tag_18:\n              tag_20\n              jump\t// in\n            tag_17:\n              mload(0x40)\n              tag_21\n              swap2\n              swap1\n              tag_16\n              jump\t// in\n            tag_21:\n              mload(0x40)\n              dup1\n              swap2\n              sub\n              swap1\n              return\n                /* \".deps/contract/contract.sol\":319:353  Recipient[] public recipients_list */\n            tag_5:\n              tag_22\n              0x04\n              dup1\n              calldatasize\n              sub\n              dup2\n              add\n              swap1\n              tag_23\n              swap2\n              swap1\n              tag_19\n              jump\t// in\n            tag_23:\n              tag_24\n              jump\t// in\n            tag_22:\n              mload(0x40)\n              tag_25\n              swap2\n              swap1\n              tag_16\n              jump\t// in\n            tag_25:\n              mload(0x40)\n              dup1\n              swap2\n              sub\n              swap1\n              return\n                /* \".deps/contract/contract.sol\":929:1231  function getAllOracles() public view returns (uint256[] memory){... */\n            tag_6:\n              tag_26\n              tag_27\n              jump\t// in\n            tag_26:\n              mload(0x40)\n              tag_28\n              swap2\n              swap1\n              tag_29\n              jump\t// in\n            tag_28:\n              mload(0x40)\n              dup1\n              swap2\n              sub\n              swap1\n              return\n                /* \".deps/contract/contract.sol\":277:312  user_state public actual_user_state */\n            tag_7:\n              tag_30\n              tag_31\n              jump\t// in\n            tag_30:\n              mload(0x40)\n              tag_32\n              swap2\n              swap1\n              tag_33\n              jump\t// in\n            tag_32:\n              mload(0x40)\n              dup1\n              swap2\n              sub\n              swap1\n              return\n                /* \".deps/contract/contract.sol\":248:270  uint256 public id_user */\n            tag_8:\n              tag_34\n              tag_35\n              jump\t// in\n            tag_34:\n              mload(0x40)\n              tag_36\n              swap2\n              swap1\n              tag_16\n              jump\t// in\n            tag_36:\n              mload(0x40)\n              dup1\n              swap2\n              sub\n              swap1\n              return\n                /* \".deps/contract/contract.sol\":598:921  function getAllRecipients() public view returns (uint256[] memory){... */\n            tag_9:\n              tag_37\n              tag_38\n              jump\t// in\n            tag_37:\n              mload(0x40)\n              tag_39\n              swap2\n              swap1\n              tag_29\n              jump\t// in\n            tag_39:\n              mload(0x40)\n              dup1\n              swap2\n              sub\n              swap1\n              return\n                /* \".deps/contract/contract.sol\":1469:1664  function addOracle(uint256 oracleId) public { // non deve essere public... */\n            tag_10:\n              tag_40\n              0x04\n              dup1\n              calldatasize\n              sub\n              dup2\n              add\n              swap1\n              tag_41\n              swap2\n              swap1\n              tag_19\n              jump\t// in\n            tag_41:\n              tag_42\n              jump\t// in\n            tag_40:\n              stop\n                /* \".deps/contract/contract.sol\":1239:1461  function addRecipient(uint256 recipientId) public { // non deve essere public... */\n            tag_11:\n              tag_43\n              0x04\n              dup1\n              calldatasize\n              sub\n              dup2\n              add\n              swap1\n              tag_44\n              swap2\n              swap1\n              tag_19\n              jump\t// in\n            tag_44:\n              tag_45\n              jump\t// in\n            tag_43:\n              stop\n                /* \".deps/contract/contract.sol\":507:590  function getUserId() public view returns (uint256){... */\n            tag_14:\n                /* \".deps/contract/contract.sol\":549:556  uint256 */\n              0x00\n                /* \".deps/contract/contract.sol\":575:582  id_user */\n              dup1\n              sload\n                /* \".deps/contract/contract.sol\":568:582  return id_user */\n              swap1\n              pop\n                /* \".deps/contract/contract.sol\":507:590  function getUserId() public view returns (uint256){... */\n              swap1\n              jump\t// out\n                /* \".deps/contract/contract.sol\":360:388  Oracle[] public oracles_list */\n            tag_20:\n              0x03\n              dup2\n              dup2\n              sload\n              dup2\n              lt\n              tag_47\n              jumpi\n              0x00\n              dup1\n              revert\n            tag_47:\n              swap1\n              0x00\n              mstore\n              keccak256(0x00, 0x20)\n              add\n              0x00\n              swap2\n              pop\n              swap1\n              pop\n              dup1\n              0x00\n              add\n              sload\n              swap1\n              pop\n              dup2\n              jump\t// out\n                /* \".deps/contract/contract.sol\":319:353  Recipient[] public recipients_list */\n            tag_24:\n              0x02\n              dup2\n              dup2\n              sload\n              dup2\n              lt\n              tag_49\n              jumpi\n              0x00\n              dup1\n              revert\n            tag_49:\n              swap1\n              0x00\n              mstore\n              keccak256(0x00, 0x20)\n              add\n              0x00\n              swap2\n              pop\n              swap1\n              pop\n              dup1\n              0x00\n              add\n              sload\n              swap1\n              pop\n              dup2\n              jump\t// out\n                /* \".deps/contract/contract.sol\":929:1231  function getAllOracles() public view returns (uint256[] memory){... */\n            tag_27:\n                /* \".deps/contract/contract.sol\":975:991  uint256[] memory */\n              0x60\n                /* \".deps/contract/contract.sol\":1003:1030  uint256[] memory oraclesIds */\n              0x00\n                /* \".deps/contract/contract.sol\":1047:1059  oracles_list */\n              0x03\n                /* \".deps/contract/contract.sol\":1047:1066  oracles_list.length */\n              dup1\n              sload\n              swap1\n              pop\n                /* \".deps/contract/contract.sol\":1033:1067  new uint256[](oracles_list.length) */\n              0xffffffffffffffff\n              dup2\n              gt\n              iszero\n              tag_52\n              jumpi\n              tag_53\n              tag_54\n              jump\t// in\n            tag_53:\n            tag_52:\n              mload(0x40)\n              swap1\n              dup1\n              dup3\n              mstore\n              dup1\n              0x20\n              mul\n              0x20\n              add\n              dup3\n              add\n              0x40\n              mstore\n              dup1\n              iszero\n              tag_55\n              jumpi\n              dup2\n              0x20\n              add\n              0x20\n              dup3\n              mul\n              dup1\n              calldatasize\n              dup4\n              calldatacopy\n              dup1\n              dup3\n              add\n              swap2\n              pop\n              pop\n              swap1\n              pop\n            tag_55:\n              pop\n                /* \".deps/contract/contract.sol\":1003:1067  uint256[] memory oraclesIds = new uint256[](oracles_list.length) */\n              swap1\n              pop\n                /* \".deps/contract/contract.sol\":1083:1092  uint256 i */\n              0x00\n                /* \".deps/contract/contract.sol\":1078:1196  for (uint256 i = 0; i < oracles_list.length; i++) {... */\n            tag_56:\n                /* \".deps/contract/contract.sol\":1102:1114  oracles_list */\n              0x03\n                /* \".deps/contract/contract.sol\":1102:1121  oracles_list.length */\n              dup1\n              sload\n              swap1\n              pop\n                /* \".deps/contract/contract.sol\":1098:1099  i */\n              dup2\n                /* \".deps/contract/contract.sol\":1098:1121  i < oracles_list.length */\n              lt\n                /* \".deps/contract/contract.sol\":1078:1196  for (uint256 i = 0; i < oracles_list.length; i++) {... */\n              iszero\n              tag_57\n              jumpi\n                /* \".deps/contract/contract.sol\":1159:1171  oracles_list */\n              0x03\n                /* \".deps/contract/contract.sol\":1172:1173  i */\n              dup2\n                /* \".deps/contract/contract.sol\":1159:1174  oracles_list[i] */\n              dup2\n              sload\n              dup2\n              lt\n              tag_59\n              jumpi\n              tag_60\n              tag_61\n              jump\t// in\n            tag_60:\n            tag_59:\n              swap1\n              0x00\n              mstore\n              keccak256(0x00, 0x20)\n              add\n                /* \".deps/contract/contract.sol\":1159:1184  oracles_list[i].id_oracle */\n              0x00\n              add\n              sload\n                /* \".deps/contract/contract.sol\":1143:1153  oraclesIds */\n              dup3\n                /* \".deps/contract/contract.sol\":1154:1155  i */\n              dup3\n                /* \".deps/contract/contract.sol\":1143:1156  oraclesIds[i] */\n              dup2\n              mload\n              dup2\n              lt\n              tag_63\n              jumpi\n              tag_64\n              tag_61\n              jump\t// in\n            tag_64:\n            tag_63:\n              0x20\n              mul\n              0x20\n              add\n              add\n                /* \".deps/contract/contract.sol\":1143:1184  oraclesIds[i] = oracles_list[i].id_oracle */\n              dup2\n              dup2\n              mstore\n              pop\n              pop\n                /* \".deps/contract/contract.sol\":1123:1126  i++ */\n              dup1\n              dup1\n              tag_65\n              swap1\n              tag_66\n              jump\t// in\n            tag_65:\n              swap2\n              pop\n              pop\n                /* \".deps/contract/contract.sol\":1078:1196  for (uint256 i = 0; i < oracles_list.length; i++) {... */\n              jump(tag_56)\n            tag_57:\n              pop\n                /* \".deps/contract/contract.sol\":1213:1223  oraclesIds */\n              dup1\n                /* \".deps/contract/contract.sol\":1206:1223  return oraclesIds */\n              swap2\n              pop\n              pop\n                /* \".deps/contract/contract.sol\":929:1231  function getAllOracles() public view returns (uint256[] memory){... */\n              swap1\n              jump\t// out\n                /* \".deps/contract/contract.sol\":277:312  user_state public actual_user_state */\n            tag_31:\n              0x01\n              0x00\n              swap1\n              sload\n              swap1\n              0x0100\n              exp\n              swap1\n              div\n              0xff\n              and\n              dup2\n              jump\t// out\n                /* \".deps/contract/contract.sol\":248:270  uint256 public id_user */\n            tag_35:\n              sload(0x00)\n              dup2\n              jump\t// out\n                /* \".deps/contract/contract.sol\":598:921  function getAllRecipients() public view returns (uint256[] memory){... */\n            tag_38:\n                /* \".deps/contract/contract.sol\":647:663  uint256[] memory */\n              0x60\n                /* \".deps/contract/contract.sol\":675:704  uint256[] memory recipientIDs */\n              0x00\n                /* \".deps/contract/contract.sol\":721:736  recipients_list */\n              0x02\n                /* \".deps/contract/contract.sol\":721:743  recipients_list.length */\n              dup1\n              sload\n              swap1\n              pop\n                /* \".deps/contract/contract.sol\":707:744  new uint256[](recipients_list.length) */\n              0xffffffffffffffff\n              dup2\n              gt\n              iszero\n              tag_68\n              jumpi\n              tag_69\n              tag_54\n              jump\t// in\n            tag_69:\n            tag_68:\n              mload(0x40)\n              swap1\n              dup1\n              dup3\n              mstore\n              dup1\n              0x20\n              mul\n              0x20\n              add\n              dup3\n              add\n              0x40\n              mstore\n              dup1\n              iszero\n              tag_70\n              jumpi\n              dup2\n              0x20\n              add\n              0x20\n              dup3\n              mul\n              dup1\n              calldatasize\n              dup4\n              calldatacopy\n              dup1\n              dup3\n              add\n              swap2\n              pop\n              pop\n              swap1\n              pop\n            tag_70:\n              pop\n                /* \".deps/contract/contract.sol\":675:744  uint256[] memory recipientIDs = new uint256[](recipients_list.length) */\n              swap1\n              pop\n                /* \".deps/contract/contract.sol\":760:769  uint256 i */\n              0x00\n                /* \".deps/contract/contract.sol\":755:884  for (uint256 i = 0; i < recipients_list.length; i++) {... */\n            tag_71:\n                /* \".deps/contract/contract.sol\":779:794  recipients_list */\n              0x02\n                /* \".deps/contract/contract.sol\":779:801  recipients_list.length */\n              dup1\n              sload\n              swap1\n              pop\n                /* \".deps/contract/contract.sol\":775:776  i */\n              dup2\n                /* \".deps/contract/contract.sol\":775:801  i < recipients_list.length */\n              lt\n                /* \".deps/contract/contract.sol\":755:884  for (uint256 i = 0; i < recipients_list.length; i++) {... */\n              iszero\n              tag_72\n              jumpi\n                /* \".deps/contract/contract.sol\":841:856  recipients_list */\n              0x02\n                /* \".deps/contract/contract.sol\":857:858  i */\n              dup2\n                /* \".deps/contract/contract.sol\":841:859  recipients_list[i] */\n              dup2\n              sload\n              dup2\n              lt\n              tag_74\n              jumpi\n              tag_75\n              tag_61\n              jump\t// in\n            tag_75:\n            tag_74:\n              swap1\n              0x00\n              mstore\n              keccak256(0x00, 0x20)\n              add\n                /* \".deps/contract/contract.sol\":841:872  recipients_list[i].id_recipient */\n              0x00\n              add\n              sload\n                /* \".deps/contract/contract.sol\":823:835  recipientIDs */\n              dup3\n                /* \".deps/contract/contract.sol\":836:837  i */\n              dup3\n                /* \".deps/contract/contract.sol\":823:838  recipientIDs[i] */\n              dup2\n              mload\n              dup2\n              lt\n              tag_77\n              jumpi\n              tag_78\n              tag_61\n              jump\t// in\n            tag_78:\n            tag_77:\n              0x20\n              mul\n              0x20\n              add\n              add\n                /* \".deps/contract/contract.sol\":823:872  recipientIDs[i] = recipients_list[i].id_recipient */\n              dup2\n              dup2\n              mstore\n              pop\n              pop\n                /* \".deps/contract/contract.sol\":803:806  i++ */\n              dup1\n              dup1\n              tag_79\n              swap1\n              tag_66\n              jump\t// in\n            tag_79:\n              swap2\n              pop\n              pop\n                /* \".deps/contract/contract.sol\":755:884  for (uint256 i = 0; i < recipients_list.length; i++) {... */\n              jump(tag_71)\n            tag_72:\n              pop\n                /* \".deps/contract/contract.sol\":901:913  recipientIDs */\n              dup1\n                /* \".deps/contract/contract.sol\":894:913  return recipientIDs */\n              swap2\n              pop\n              pop\n                /* \".deps/contract/contract.sol\":598:921  function getAllRecipients() public view returns (uint256[] memory){... */\n              swap1\n              jump\t// out\n                /* \".deps/contract/contract.sol\":1469:1664  function addOracle(uint256 oracleId) public { // non deve essere public... */\n            tag_42:\n                /* \".deps/contract/contract.sol\":1550:1574  Oracle memory new_oracle */\n              tag_81\n              tag_82\n              jump\t// in\n            tag_81:\n                /* \".deps/contract/contract.sol\":1608:1616  oracleId */\n              dup2\n                /* \".deps/contract/contract.sol\":1585:1595  new_oracle */\n              dup2\n                /* \".deps/contract/contract.sol\":1585:1605  new_oracle.id_oracle */\n              0x00\n              add\n                /* \".deps/contract/contract.sol\":1585:1616  new_oracle.id_oracle = oracleId */\n              dup2\n              dup2\n              mstore\n              pop\n              pop\n                /* \".deps/contract/contract.sol\":1627:1639  oracles_list */\n              0x03\n                /* \".deps/contract/contract.sol\":1645:1655  new_oracle */\n              dup2\n                /* \".deps/contract/contract.sol\":1627:1656  oracles_list.push(new_oracle) */\n              swap1\n              dup1\n              0x01\n              dup2\n              sload\n              add\n              dup1\n              dup3\n              sstore\n              dup1\n              swap2\n              pop\n              pop\n              0x01\n              swap1\n              sub\n              swap1\n              0x00\n              mstore\n              keccak256(0x00, 0x20)\n              add\n              0x00\n              swap1\n              swap2\n              swap1\n              swap2\n              swap1\n              swap2\n              pop\n              0x00\n              dup3\n              add\n              mload\n              dup2\n              0x00\n              add\n              sstore\n              pop\n              pop\n                /* \".deps/contract/contract.sol\":1513:1664  { // non deve essere public... */\n              pop\n                /* \".deps/contract/contract.sol\":1469:1664  function addOracle(uint256 oracleId) public { // non deve essere public... */\n              pop\n              jump\t// out\n                /* \".deps/contract/contract.sol\":1239:1461  function addRecipient(uint256 recipientId) public { // non deve essere public... */\n            tag_45:\n                /* \".deps/contract/contract.sol\":1326:1356  Recipient memory new_recipient */\n              tag_85\n              tag_86\n              jump\t// in\n            tag_85:\n                /* \".deps/contract/contract.sol\":1396:1407  recipientId */\n              dup2\n                /* \".deps/contract/contract.sol\":1367:1380  new_recipient */\n              dup2\n                /* \".deps/contract/contract.sol\":1367:1393  new_recipient.id_recipient */\n              0x00\n              add\n                /* \".deps/contract/contract.sol\":1367:1407  new_recipient.id_recipient = recipientId */\n              dup2\n              dup2\n              mstore\n              pop\n              pop\n                /* \".deps/contract/contract.sol\":1418:1433  recipients_list */\n              0x02\n                /* \".deps/contract/contract.sol\":1439:1452  new_recipient */\n              dup2\n                /* \".deps/contract/contract.sol\":1418:1453  recipients_list.push(new_recipient) */\n              swap1\n              dup1\n              0x01\n              dup2\n              sload\n              add\n              dup1\n              dup3\n              sstore\n              dup1\n              swap2\n              pop\n              pop\n              0x01\n              swap1\n              sub\n              swap1\n              0x00\n              mstore\n              keccak256(0x00, 0x20)\n              add\n              0x00\n              swap1\n              swap2\n              swap1\n              swap2\n              swap1\n              swap2\n              pop\n              0x00\n              dup3\n              add\n              mload\n              dup2\n              0x00\n              add\n              sstore\n              pop\n              pop\n                /* \".deps/contract/contract.sol\":1289:1461  { // non deve essere public... */\n              pop\n                /* \".deps/contract/contract.sol\":1239:1461  function addRecipient(uint256 recipientId) public { // non deve essere public... */\n              pop\n              jump\t// out\n            tag_82:\n              mload(0x40)\n              dup1\n              0x20\n              add\n              0x40\n              mstore\n              dup1\n              0x00\n              dup2\n              mstore\n              pop\n              swap1\n              jump\t// out\n            tag_86:\n              mload(0x40)\n              dup1\n              0x20\n              add\n              0x40\n              mstore\n              dup1\n              0x00\n              dup2\n              mstore\n              pop\n              swap1\n              jump\t// out\n                /* \"#utility.yul\":7:84   */\n            tag_88:\n                /* \"#utility.yul\":44:51   */\n              0x00\n                /* \"#utility.yul\":73:78   */\n              dup2\n                /* \"#utility.yul\":62:78   */\n              swap1\n              pop\n                /* \"#utility.yul\":7:84   */\n              swap2\n              swap1\n              pop\n              jump\t// out\n                /* \"#utility.yul\":90:208   */\n            tag_89:\n                /* \"#utility.yul\":177:201   */\n              tag_111\n                /* \"#utility.yul\":195:200   */\n              dup2\n                /* \"#utility.yul\":177:201   */\n              tag_88\n              jump\t// in\n            tag_111:\n                /* \"#utility.yul\":172:175   */\n              dup3\n                /* \"#utility.yul\":165:202   */\n              mstore\n                /* \"#utility.yul\":90:208   */\n              pop\n              pop\n              jump\t// out\n                /* \"#utility.yul\":214:436   */\n            tag_16:\n                /* \"#utility.yul\":307:311   */\n              0x00\n                /* \"#utility.yul\":345:347   */\n              0x20\n                /* \"#utility.yul\":334:343   */\n              dup3\n                /* \"#utility.yul\":330:348   */\n              add\n                /* \"#utility.yul\":322:348   */\n              swap1\n              pop\n                /* \"#utility.yul\":358:429   */\n              tag_113\n                /* \"#utility.yul\":426:427   */\n              0x00\n                /* \"#utility.yul\":415:424   */\n              dup4\n                /* \"#utility.yul\":411:428   */\n              add\n                /* \"#utility.yul\":402:408   */\n              dup5\n                /* \"#utility.yul\":358:429   */\n              tag_89\n              jump\t// in\n            tag_113:\n                /* \"#utility.yul\":214:436   */\n              swap3\n              swap2\n              pop\n              pop\n              jump\t// out\n                /* \"#utility.yul\":523:640   */\n            tag_91:\n                /* \"#utility.yul\":632:633   */\n              0x00\n                /* \"#utility.yul\":629:630   */\n              dup1\n                /* \"#utility.yul\":622:634   */\n              revert\n                /* \"#utility.yul\":769:891   */\n            tag_93:\n                /* \"#utility.yul\":842:866   */\n              tag_118\n                /* \"#utility.yul\":860:865   */\n              dup2\n                /* \"#utility.yul\":842:866   */\n              tag_88\n              jump\t// in\n            tag_118:\n                /* \"#utility.yul\":835:840   */\n              dup2\n                /* \"#utility.yul\":832:867   */\n              eq\n                /* \"#utility.yul\":822:885   */\n              tag_119\n              jumpi\n                /* \"#utility.yul\":881:882   */\n              0x00\n                /* \"#utility.yul\":878:879   */\n              dup1\n                /* \"#utility.yul\":871:883   */\n              revert\n                /* \"#utility.yul\":822:885   */\n            tag_119:\n                /* \"#utility.yul\":769:891   */\n              pop\n              jump\t// out\n                /* \"#utility.yul\":897:1036   */\n            tag_94:\n                /* \"#utility.yul\":943:948   */\n              0x00\n                /* \"#utility.yul\":981:987   */\n              dup2\n                /* \"#utility.yul\":968:988   */\n              calldataload\n                /* \"#utility.yul\":959:988   */\n              swap1\n              pop\n                /* \"#utility.yul\":997:1030   */\n              tag_121\n                /* \"#utility.yul\":1024:1029   */\n              dup2\n                /* \"#utility.yul\":997:1030   */\n              tag_93\n              jump\t// in\n            tag_121:\n                /* \"#utility.yul\":897:1036   */\n              swap3\n              swap2\n              pop\n              pop\n              jump\t// out\n                /* \"#utility.yul\":1042:1371   */\n            tag_19:\n                /* \"#utility.yul\":1101:1107   */\n              0x00\n                /* \"#utility.yul\":1150:1152   */\n              0x20\n                /* \"#utility.yul\":1138:1147   */\n              dup3\n                /* \"#utility.yul\":1129:1136   */\n              dup5\n                /* \"#utility.yul\":1125:1148   */\n              sub\n                /* \"#utility.yul\":1121:1153   */\n              slt\n                /* \"#utility.yul\":1118:1237   */\n              iszero\n              tag_123\n              jumpi\n                /* \"#utility.yul\":1156:1235   */\n              tag_124\n              tag_91\n              jump\t// in\n            tag_124:\n                /* \"#utility.yul\":1118:1237   */\n            tag_123:\n                /* \"#utility.yul\":1276:1277   */\n              0x00\n                /* \"#utility.yul\":1301:1354   */\n              tag_125\n                /* \"#utility.yul\":1346:1353   */\n              dup5\n                /* \"#utility.yul\":1337:1343   */\n              dup3\n                /* \"#utility.yul\":1326:1335   */\n              dup6\n                /* \"#utility.yul\":1322:1344   */\n              add\n                /* \"#utility.yul\":1301:1354   */\n              tag_94\n              jump\t// in\n            tag_125:\n                /* \"#utility.yul\":1291:1354   */\n              swap2\n              pop\n                /* \"#utility.yul\":1247:1364   */\n              pop\n                /* \"#utility.yul\":1042:1371   */\n              swap3\n              swap2\n              pop\n              pop\n              jump\t// out\n                /* \"#utility.yul\":1377:1491   */\n            tag_95:\n                /* \"#utility.yul\":1444:1450   */\n              0x00\n                /* \"#utility.yul\":1478:1483   */\n              dup2\n                /* \"#utility.yul\":1472:1484   */\n              mload\n                /* \"#utility.yul\":1462:1484   */\n              swap1\n              pop\n                /* \"#utility.yul\":1377:1491   */\n              swap2\n              swap1\n              pop\n              jump\t// out\n                /* \"#utility.yul\":1497:1681   */\n            tag_96:\n                /* \"#utility.yul\":1596:1607   */\n              0x00\n                /* \"#utility.yul\":1630:1636   */\n              dup3\n                /* \"#utility.yul\":1625:1628   */\n              dup3\n                /* \"#utility.yul\":1618:1637   */\n              mstore\n                /* \"#utility.yul\":1670:1674   */\n              0x20\n                /* \"#utility.yul\":1665:1668   */\n              dup3\n                /* \"#utility.yul\":1661:1675   */\n              add\n                /* \"#utility.yul\":1646:1675   */\n              swap1\n              pop\n                /* \"#utility.yul\":1497:1681   */\n              swap3\n              swap2\n              pop\n              pop\n              jump\t// out\n                /* \"#utility.yul\":1687:1819   */\n            tag_97:\n                /* \"#utility.yul\":1754:1758   */\n              0x00\n                /* \"#utility.yul\":1777:1780   */\n              dup2\n                /* \"#utility.yul\":1769:1780   */\n              swap1\n              pop\n                /* \"#utility.yul\":1807:1811   */\n              0x20\n                /* \"#utility.yul\":1802:1805   */\n              dup3\n                /* \"#utility.yul\":1798:1812   */\n              add\n                /* \"#utility.yul\":1790:1812   */\n              swap1\n              pop\n                /* \"#utility.yul\":1687:1819   */\n              swap2\n              swap1\n              pop\n              jump\t// out\n                /* \"#utility.yul\":1825:1933   */\n            tag_98:\n                /* \"#utility.yul\":1902:1926   */\n              tag_130\n                /* \"#utility.yul\":1920:1925   */\n              dup2\n                /* \"#utility.yul\":1902:1926   */\n              tag_88\n              jump\t// in\n            tag_130:\n                /* \"#utility.yul\":1897:1900   */\n              dup3\n                /* \"#utility.yul\":1890:1927   */\n              mstore\n                /* \"#utility.yul\":1825:1933   */\n              pop\n              pop\n              jump\t// out\n                /* \"#utility.yul\":1939:2118   */\n            tag_99:\n                /* \"#utility.yul\":2008:2018   */\n              0x00\n                /* \"#utility.yul\":2029:2075   */\n              tag_132\n                /* \"#utility.yul\":2071:2074   */\n              dup4\n                /* \"#utility.yul\":2063:2069   */\n              dup4\n                /* \"#utility.yul\":2029:2075   */\n              tag_98\n              jump\t// in\n            tag_132:\n                /* \"#utility.yul\":2107:2111   */\n              0x20\n                /* \"#utility.yul\":2102:2105   */\n              dup4\n                /* \"#utility.yul\":2098:2112   */\n              add\n                /* \"#utility.yul\":2084:2112   */\n              swap1\n              pop\n                /* \"#utility.yul\":1939:2118   */\n              swap3\n              swap2\n              pop\n              pop\n              jump\t// out\n                /* \"#utility.yul\":2124:2237   */\n            tag_100:\n                /* \"#utility.yul\":2194:2198   */\n              0x00\n                /* \"#utility.yul\":2226:2230   */\n              0x20\n                /* \"#utility.yul\":2221:2224   */\n              dup3\n                /* \"#utility.yul\":2217:2231   */\n              add\n                /* \"#utility.yul\":2209:2231   */\n              swap1\n              pop\n                /* \"#utility.yul\":2124:2237   */\n              swap2\n              swap1\n              pop\n              jump\t// out\n                /* \"#utility.yul\":2273:3005   */\n            tag_101:\n                /* \"#utility.yul\":2392:2395   */\n              0x00\n                /* \"#utility.yul\":2421:2475   */\n              tag_135\n                /* \"#utility.yul\":2469:2474   */\n              dup3\n                /* \"#utility.yul\":2421:2475   */\n              tag_95\n              jump\t// in\n            tag_135:\n                /* \"#utility.yul\":2491:2577   */\n              tag_136\n                /* \"#utility.yul\":2570:2576   */\n              dup2\n                /* \"#utility.yul\":2565:2568   */\n              dup6\n                /* \"#utility.yul\":2491:2577   */\n              tag_96\n              jump\t// in\n            tag_136:\n                /* \"#utility.yul\":2484:2577   */\n              swap4\n              pop\n                /* \"#utility.yul\":2601:2657   */\n              tag_137\n                /* \"#utility.yul\":2651:2656   */\n              dup4\n                /* \"#utility.yul\":2601:2657   */\n              tag_97\n              jump\t// in\n            tag_137:\n                /* \"#utility.yul\":2680:2687   */\n              dup1\n                /* \"#utility.yul\":2711:2712   */\n              0x00\n                /* \"#utility.yul\":2696:2980   */\n            tag_138:\n                /* \"#utility.yul\":2721:2727   */\n              dup4\n                /* \"#utility.yul\":2718:2719   */\n              dup2\n                /* \"#utility.yul\":2715:2728   */\n              lt\n                /* \"#utility.yul\":2696:2980   */\n              iszero\n              tag_140\n              jumpi\n                /* \"#utility.yul\":2797:2803   */\n              dup2\n                /* \"#utility.yul\":2791:2804   */\n              mload\n                /* \"#utility.yul\":2824:2887   */\n              tag_141\n                /* \"#utility.yul\":2883:2886   */\n              dup9\n                /* \"#utility.yul\":2868:2881   */\n              dup3\n                /* \"#utility.yul\":2824:2887   */\n              tag_99\n              jump\t// in\n            tag_141:\n                /* \"#utility.yul\":2817:2887   */\n              swap8\n              pop\n                /* \"#utility.yul\":2910:2970   */\n              tag_142\n                /* \"#utility.yul\":2963:2969   */\n              dup4\n                /* \"#utility.yul\":2910:2970   */\n              tag_100\n              jump\t// in\n            tag_142:\n                /* \"#utility.yul\":2900:2970   */\n              swap3\n              pop\n                /* \"#utility.yul\":2756:2980   */\n              pop\n                /* \"#utility.yul\":2743:2744   */\n              0x01\n                /* \"#utility.yul\":2740:2741   */\n              dup2\n                /* \"#utility.yul\":2736:2745   */\n              add\n                /* \"#utility.yul\":2731:2745   */\n              swap1\n              pop\n                /* \"#utility.yul\":2696:2980   */\n              jump(tag_138)\n            tag_140:\n                /* \"#utility.yul\":2700:2714   */\n              pop\n                /* \"#utility.yul\":2996:2999   */\n              dup6\n                /* \"#utility.yul\":2989:2999   */\n              swap4\n              pop\n                /* \"#utility.yul\":2397:3005   */\n              pop\n              pop\n              pop\n                /* \"#utility.yul\":2273:3005   */\n              swap3\n              swap2\n              pop\n              pop\n              jump\t// out\n                /* \"#utility.yul\":3011:3384   */\n            tag_29:\n                /* \"#utility.yul\":3154:3158   */\n              0x00\n                /* \"#utility.yul\":3192:3194   */\n              0x20\n                /* \"#utility.yul\":3181:3190   */\n              dup3\n                /* \"#utility.yul\":3177:3195   */\n              add\n                /* \"#utility.yul\":3169:3195   */\n              swap1\n              pop\n                /* \"#utility.yul\":3241:3250   */\n              dup2\n                /* \"#utility.yul\":3235:3239   */\n              dup2\n                /* \"#utility.yul\":3231:3251   */\n              sub\n                /* \"#utility.yul\":3227:3228   */\n              0x00\n                /* \"#utility.yul\":3216:3225   */\n              dup4\n                /* \"#utility.yul\":3212:3229   */\n              add\n                /* \"#utility.yul\":3205:3252   */\n              mstore\n                /* \"#utility.yul\":3269:3377   */\n              tag_144\n                /* \"#utility.yul\":3372:3376   */\n              dup2\n                /* \"#utility.yul\":3363:3369   */\n              dup5\n                /* \"#utility.yul\":3269:3377   */\n              tag_101\n              jump\t// in\n            tag_144:\n                /* \"#utility.yul\":3261:3377   */\n              swap1\n              pop\n                /* \"#utility.yul\":3011:3384   */\n              swap3\n              swap2\n              pop\n              pop\n              jump\t// out\n                /* \"#utility.yul\":3390:3570   */\n            tag_102:\n                /* \"#utility.yul\":3438:3515   */\n              0x4e487b7100000000000000000000000000000000000000000000000000000000\n                /* \"#utility.yul\":3435:3436   */\n              0x00\n                /* \"#utility.yul\":3428:3516   */\n              mstore\n                /* \"#utility.yul\":3535:3539   */\n              0x21\n                /* \"#utility.yul\":3532:3533   */\n              0x04\n                /* \"#utility.yul\":3525:3540   */\n              mstore\n                /* \"#utility.yul\":3559:3563   */\n              0x24\n                /* \"#utility.yul\":3556:3557   */\n              0x00\n                /* \"#utility.yul\":3549:3564   */\n              revert\n                /* \"#utility.yul\":3576:3693   */\n            tag_103:\n                /* \"#utility.yul\":3661:3662   */\n              0x02\n                /* \"#utility.yul\":3654:3659   */\n              dup2\n                /* \"#utility.yul\":3651:3663   */\n              lt\n                /* \"#utility.yul\":3641:3687   */\n              tag_147\n              jumpi\n                /* \"#utility.yul\":3667:3685   */\n              tag_148\n              tag_102\n              jump\t// in\n            tag_148:\n                /* \"#utility.yul\":3641:3687   */\n            tag_147:\n                /* \"#utility.yul\":3576:3693   */\n              pop\n              jump\t// out\n                /* \"#utility.yul\":3699:3834   */\n            tag_104:\n                /* \"#utility.yul\":3748:3755   */\n              0x00\n                /* \"#utility.yul\":3777:3782   */\n              dup2\n                /* \"#utility.yul\":3766:3782   */\n              swap1\n              pop\n                /* \"#utility.yul\":3783:3828   */\n              tag_150\n                /* \"#utility.yul\":3822:3827   */\n              dup3\n                /* \"#utility.yul\":3783:3828   */\n              tag_103\n              jump\t// in\n            tag_150:\n                /* \"#utility.yul\":3699:3834   */\n              swap2\n              swap1\n              pop\n              jump\t// out\n                /* \"#utility.yul\":3840:3975   */\n            tag_105:\n                /* \"#utility.yul\":3900:3909   */\n              0x00\n                /* \"#utility.yul\":3933:3969   */\n              tag_152\n                /* \"#utility.yul\":3963:3968   */\n              dup3\n                /* \"#utility.yul\":3933:3969   */\n              tag_104\n              jump\t// in\n            tag_152:\n                /* \"#utility.yul\":3920:3969   */\n              swap1\n              pop\n                /* \"#utility.yul\":3840:3975   */\n              swap2\n              swap1\n              pop\n              jump\t// out\n                /* \"#utility.yul\":3981:4132   */\n            tag_106:\n                /* \"#utility.yul\":4078:4125   */\n              tag_154\n                /* \"#utility.yul\":4119:4124   */\n              dup2\n                /* \"#utility.yul\":4078:4125   */\n              tag_105\n              jump\t// in\n            tag_154:\n                /* \"#utility.yul\":4073:4076   */\n              dup3\n                /* \"#utility.yul\":4066:4126   */\n              mstore\n                /* \"#utility.yul\":3981:4132   */\n              pop\n              pop\n              jump\t// out\n                /* \"#utility.yul\":4138:4380   */\n            tag_33:\n                /* \"#utility.yul\":4241:4245   */\n              0x00\n                /* \"#utility.yul\":4279:4281   */\n              0x20\n                /* \"#utility.yul\":4268:4277   */\n              dup3\n                /* \"#utility.yul\":4264:4282   */\n              add\n                /* \"#utility.yul\":4256:4282   */\n              swap1\n              pop\n                /* \"#utility.yul\":4292:4373   */\n              tag_156\n                /* \"#utility.yul\":4370:4371   */\n              0x00\n                /* \"#utility.yul\":4359:4368   */\n              dup4\n                /* \"#utility.yul\":4355:4372   */\n              add\n                /* \"#utility.yul\":4346:4352   */\n              dup5\n                /* \"#utility.yul\":4292:4373   */\n              tag_106\n              jump\t// in\n            tag_156:\n                /* \"#utility.yul\":4138:4380   */\n              swap3\n              swap2\n              pop\n              pop\n              jump\t// out\n                /* \"#utility.yul\":4386:4566   */\n            tag_54:\n                /* \"#utility.yul\":4434:4511   */\n              0x4e487b7100000000000000000000000000000000000000000000000000000000\n                /* \"#utility.yul\":4431:4432   */\n              0x00\n                /* \"#utility.yul\":4424:4512   */\n              mstore\n                /* \"#utility.yul\":4531:4535   */\n              0x41\n                /* \"#utility.yul\":4528:4529   */\n              0x04\n                /* \"#utility.yul\":4521:4536   */\n              mstore\n                /* \"#utility.yul\":4555:4559   */\n              0x24\n                /* \"#utility.yul\":4552:4553   */\n              0x00\n                /* \"#utility.yul\":4545:4560   */\n              revert\n                /* \"#utility.yul\":4572:4752   */\n            tag_61:\n                /* \"#utility.yul\":4620:4697   */\n              0x4e487b7100000000000000000000000000000000000000000000000000000000\n                /* \"#utility.yul\":4617:4618   */\n              0x00\n                /* \"#utility.yul\":4610:4698   */\n              mstore\n                /* \"#utility.yul\":4717:4721   */\n              0x32\n                /* \"#utility.yul\":4714:4715   */\n              0x04\n                /* \"#utility.yul\":4707:4722   */\n              mstore\n                /* \"#utility.yul\":4741:4745   */\n              0x24\n                /* \"#utility.yul\":4738:4739   */\n              0x00\n                /* \"#utility.yul\":4731:4746   */\n              revert\n                /* \"#utility.yul\":4758:4938   */\n            tag_107:\n                /* \"#utility.yul\":4806:4883   */\n              0x4e487b7100000000000000000000000000000000000000000000000000000000\n                /* \"#utility.yul\":4803:4804   */\n              0x00\n                /* \"#utility.yul\":4796:4884   */\n              mstore\n                /* \"#utility.yul\":4903:4907   */\n              0x11\n                /* \"#utility.yul\":4900:4901   */\n              0x04\n                /* \"#utility.yul\":4893:4908   */\n              mstore\n                /* \"#utility.yul\":4927:4931   */\n              0x24\n                /* \"#utility.yul\":4924:4925   */\n              0x00\n                /* \"#utility.yul\":4917:4932   */\n              revert\n                /* \"#utility.yul\":4944:5177   */\n            tag_66:\n                /* \"#utility.yul\":4983:4986   */\n              0x00\n                /* \"#utility.yul\":5006:5030   */\n              tag_161\n                /* \"#utility.yul\":5024:5029   */\n              dup3\n                /* \"#utility.yul\":5006:5030   */\n              tag_88\n              jump\t// in\n            tag_161:\n                /* \"#utility.yul\":4997:5030   */\n              swap2\n              pop\n                /* \"#utility.yul\":5052:5118   */\n              0xffffffffffffffffffffffffffffffffffffffffffffffffffffffffffffffff\n                /* \"#utility.yul\":5045:5050   */\n              dup3\n                /* \"#utility.yul\":5042:5119   */\n              sub\n                /* \"#utility.yul\":5039:5142   */\n              tag_162\n              jumpi\n                /* \"#utility.yul\":5122:5140   */\n              tag_163\n              tag_107\n              jump\t// in\n            tag_163:\n                /* \"#utility.yul\":5039:5142   */\n            tag_162:\n                /* \"#utility.yul\":5169:5170   */\n              0x01\n                /* \"#utility.yul\":5162:5167   */\n              dup3\n                /* \"#utility.yul\":5158:5171   */\n              add\n                /* \"#utility.yul\":5151:5171   */\n              swap1\n              pop\n                /* \"#utility.yul\":4944:5177   */\n              swap2\n              swap1\n              pop\n              jump\t// out\n\n            auxdata: 0xa264697066735822122016a8736c381ad76b99401675175710c45ec0ad1c5c09e496d4f8f6432f523e3364736f6c63430008120033\n        }\n    }\n\n    auxdata: 0xa26469706673582212201ee46c2cb1dd95f954629b21cef8d4497e8f6c20e544679c4c7ee5238824071464736f6c63430008120033\n}\n",
				"bytecode": {
					"linkReferences": {},
					"object": "608060405234801561001057600080fd5b50611cad806100206000396000f3fe60806040523480156200001157600080fd5b5060043610620000885760003560e01c8063a32da9d11162000063578063a32da9d11462000103578063adebaea61462000139578063e2842d791462000159578063fcd6704c146200017b5762000088565b80631440a7f2146200008d5780632661317e14620000ad5780639efb628914620000cd575b600080fd5b620000ab6004803603810190620000a5919062000df3565b620001b1565b005b620000cb6004803603810190620000c5919062000df3565b62000395565b005b620000eb6004803603810190620000e5919062000e3a565b62000579565b604051620000fa919062000f3a565b60405180910390f35b6200012160048036038101906200011b919062000e3a565b620007c3565b60405162000130919062000fe9565b60405180910390f35b62000157600480360381019062000151919062000e3a565b62000803565b005b62000163620008f5565b60405162000172919062000f3a565b60405180910390f35b62000199600480360381019062000193919062000e3a565b62000a50565b604051620001a8919062000f3a565b60405180910390f35b620001bc8262000c9a565b620001fe576040517f08c379a0000000000000000000000000000000000000000000000000000000008152600401620001f59062001067565b60405180910390fd5b60005b6000805490508110156200039057826000828154811062000227576200022662001089565b5b9060005260206000200160009054906101000a900473ffffffffffffffffffffffffffffffffffffffff1673ffffffffffffffffffffffffffffffffffffffff16638cee71e06040518163ffffffff1660e01b8152600401602060405180830381865afa1580156200029d573d6000803e3d6000fd5b505050506040513d601f19601f82011682018060405250810190620002c39190620010cf565b036200037a5760008181548110620002e057620002df62001089565b5b9060005260206000200160009054906101000a900473ffffffffffffffffffffffffffffffffffffffff1673ffffffffffffffffffffffffffffffffffffffff1663fc68b3ed836040518263ffffffff1660e01b815260040162000345919062001112565b600060405180830381600087803b1580156200036057600080fd5b505af115801562000375573d6000803e3d6000fd5b505050505b808062000387906200115e565b91505062000201565b505050565b620003a08262000c9a565b620003e2576040517f08c379a0000000000000000000000000000000000000000000000000000000008152600401620003d99062001067565b60405180910390fd5b60005b600080549050811015620005745782600082815481106200040b576200040a62001089565b5b9060005260206000200160009054906101000a900473ffffffffffffffffffffffffffffffffffffffff1673ffffffffffffffffffffffffffffffffffffffff16638cee71e06040518163ffffffff1660e01b8152600401602060405180830381865afa15801562000481573d6000803e3d6000fd5b505050506040513d601f19601f82011682018060405250810190620004a79190620010cf565b036200055e5760008181548110620004c457620004c362001089565b5b9060005260206000200160009054906101000a900473ffffffffffffffffffffffffffffffffffffffff1673ffffffffffffffffffffffffffffffffffffffff1663e5a72d5b836040518263ffffffff1660e01b815260040162000529919062001112565b600060405180830381600087803b1580156200054457600080fd5b505af115801562000559573d6000803e3d6000fd5b505050505b80806200056b906200115e565b915050620003e5565b505050565b6060620005868262000c9a565b620005c8576040517f08c379a0000000000000000000000000000000000000000000000000000000008152600401620005bf9062001067565b60405180910390fd5b6000808054905067ffffffffffffffff811115620005eb57620005ea620011ab565b5b6040519080825280602002602001820160405280156200061a5781602001602082028036833780820191505090505b50905060005b600080549050811015620007b957836000828154811062000646576200064562001089565b5b9060005260206000200160009054906101000a900473ffffffffffffffffffffffffffffffffffffffff1673ffffffffffffffffffffffffffffffffffffffff16638cee71e06040518163ffffffff1660e01b8152600401602060405180830381865afa158015620006bc573d6000803e3d6000fd5b505050506040513d601f19601f82011682018060405250810190620006e29190620010cf565b03620007a35760008181548110620006ff57620006fe62001089565b5b9060005260206000200160009054906101000a900473ffffffffffffffffffffffffffffffffffffffff1673ffffffffffffffffffffffffffffffffffffffff166365a6bb296040518163ffffffff1660e01b8152600401600060405180830381865afa15801562000775573d6000803e3d6000fd5b505050506040513d6000823e3d601f19601f82011682018060405250810190620007a0919062001320565b91505b8080620007b0906200115e565b91505062000620565b5080915050919050565b60008181548110620007d457600080fd5b906000526020600020016000915054906101000a900473ffffffffffffffffffffffffffffffffffffffff1681565b6200080e8162000c9a565b1562000851576040517f08c379a00000000000000000000000000000000000000000000000000000000081526004016200084890620013c1565b60405180910390fd5b600081604051620008629062000d96565b6200086e919062001112565b604051809103906000f0801580156200088b573d6000803e3d6000fd5b5090506000819080600181540180825580915050600190039060005260206000200160009091909190916101000a81548173ffffffffffffffffffffffffffffffffffffffff021916908373ffffffffffffffffffffffffffffffffffffffff1602179055505050565b60606000808054905067ffffffffffffffff8111156200091a5762000919620011ab565b5b604051908082528060200260200182016040528015620009495781602001602082028036833780820191505090505b50905060005b60008054905081101562000a48576000818154811062000974576200097362001089565b5b9060005260206000200160009054906101000a900473ffffffffffffffffffffffffffffffffffffffff1673ffffffffffffffffffffffffffffffffffffffff16632ebcb6536040518163ffffffff1660e01b8152600401602060405180830381865afa158015620009ea573d6000803e3d6000fd5b505050506040513d601f19601f8201168201806040525081019062000a109190620010cf565b82828151811062000a265762000a2562001089565b5b602002602001018181525050808062000a3f906200115e565b9150506200094f565b508091505090565b606062000a5d8262000c9a565b62000a9f576040517f08c379a000000000000000000000000000000000000000000000000000000000815260040162000a969062001067565b60405180910390fd5b6000808054905067ffffffffffffffff81111562000ac25762000ac1620011ab565b5b60405190808252806020026020018201604052801562000af15781602001602082028036833780820191505090505b50905060005b60008054905081101562000c9057836000828154811062000b1d5762000b1c62001089565b5b9060005260206000200160009054906101000a900473ffffffffffffffffffffffffffffffffffffffff1673ffffffffffffffffffffffffffffffffffffffff16638cee71e06040518163ffffffff1660e01b8152600401602060405180830381865afa15801562000b93573d6000803e3d6000fd5b505050506040513d601f19601f8201168201806040525081019062000bb99190620010cf565b0362000c7a576000818154811062000bd65762000bd562001089565b5b9060005260206000200160009054906101000a900473ffffffffffffffffffffffffffffffffffffffff1673ffffffffffffffffffffffffffffffffffffffff1663b74513c16040518163ffffffff1660e01b8152600401600060405180830381865afa15801562000c4c573d6000803e3d6000fd5b505050506040513d6000823e3d601f19601f8201168201806040525081019062000c77919062001320565b91505b808062000c87906200115e565b91505062000af7565b5080915050919050565b600080600090505b60008054905081101562000d8b57826000828154811062000cc85762000cc762001089565b5b9060005260206000200160009054906101000a900473ffffffffffffffffffffffffffffffffffffffff1673ffffffffffffffffffffffffffffffffffffffff16638cee71e06040518163ffffffff1660e01b8152600401602060405180830381865afa15801562000d3e573d6000803e3d6000fd5b505050506040513d601f19601f8201168201806040525081019062000d649190620010cf565b0362000d7557600191505062000d91565b808062000d82906200115e565b91505062000ca2565b50600090505b919050565b61089480620013e483390190565b6000604051905090565b600080fd5b600080fd5b6000819050919050565b62000dcd8162000db8565b811462000dd957600080fd5b50565b60008135905062000ded8162000dc2565b92915050565b6000806040838503121562000e0d5762000e0c62000dae565b5b600062000e1d8582860162000ddc565b925050602062000e308582860162000ddc565b9150509250929050565b60006020828403121562000e535762000e5262000dae565b5b600062000e638482850162000ddc565b91505092915050565b600081519050919050565b600082825260208201905092915050565b6000819050602082019050919050565b62000ea38162000db8565b82525050565b600062000eb7838362000e98565b60208301905092915050565b6000602082019050919050565b600062000edd8262000e6c565b62000ee9818562000e77565b935062000ef68362000e88565b8060005b8381101562000f2d57815162000f11888262000ea9565b975062000f1e8362000ec3565b92505060018101905062000efa565b5085935050505092915050565b6000602082019050818103600083015262000f56818462000ed0565b905092915050565b600073ffffffffffffffffffffffffffffffffffffffff82169050919050565b6000819050919050565b600062000fa962000fa362000f9d8462000f5e565b62000f7e565b62000f5e565b9050919050565b600062000fbd8262000f88565b9050919050565b600062000fd18262000fb0565b9050919050565b62000fe38162000fc4565b82525050565b600060208201905062001000600083018462000fd8565b92915050565b600082825260208201905092915050565b7f5574656e7465206e6f6e2074726f7661746f0000000000000000000000000000600082015250565b60006200104f60128362001006565b91506200105c8262001017565b602082019050919050565b60006020820190508181036000830152620010828162001040565b9050919050565b7f4e487b7100000000000000000000000000000000000000000000000000000000600052603260045260246000fd5b600081519050620010c98162000dc2565b92915050565b600060208284031215620010e857620010e762000dae565b5b6000620010f884828501620010b8565b91505092915050565b6200110c8162000db8565b82525050565b600060208201905062001129600083018462001101565b92915050565b7f4e487b7100000000000000000000000000000000000000000000000000000000600052601160045260246000fd5b60006200116b8262000db8565b91507fffffffffffffffffffffffffffffffffffffffffffffffffffffffffffffffff8203620011a0576200119f6200112f565b5b600182019050919050565b7f4e487b7100000000000000000000000000000000000000000000000000000000600052604160045260246000fd5b600080fd5b6000601f19601f8301169050919050565b620011fb82620011df565b810181811067ffffffffffffffff821117156200121d576200121c620011ab565b5b80604052505050565b60006200123262000da4565b9050620012408282620011f0565b919050565b600067ffffffffffffffff821115620012635762001262620011ab565b5b602082029050602081019050919050565b600080fd5b6000620012906200128a8462001245565b62001226565b90508083825260208201905060208402830185811115620012b657620012b562001274565b5b835b81811015620012e35780620012ce8882620010b8565b845260208401935050602081019050620012b8565b5050509392505050565b600082601f830112620013055762001304620011da565b5b81516200131784826020860162001279565b91505092915050565b60006020828403121562001339576200133862000dae565b5b600082015167ffffffffffffffff8111156200135a576200135962000db3565b5b6200136884828501620012ed565b91505092915050565b7f5574656e7465206573697374656e746500000000000000000000000000000000600082015250565b6000620013a960108362001006565b9150620013b68262001371565b602082019050919050565b60006020820190508181036000830152620013dc816200139a565b905091905056fe608060405234801561001057600080fd5b50604051610894380380610894833981810160405281019061003291906100a4565b8060008190555060018060006101000a81548160ff0219169083600181111561005e5761005d6100d1565b5b021790555050610100565b600080fd5b6000819050919050565b6100818161006e565b811461008c57600080fd5b50565b60008151905061009e81610078565b92915050565b6000602082840312156100ba576100b9610069565b5b60006100c88482850161008f565b91505092915050565b7f4e487b7100000000000000000000000000000000000000000000000000000000600052602160045260246000fd5b6107858061010f6000396000f3fe608060405234801561001057600080fd5b50600436106100935760003560e01c806384731d6f1161006657806384731d6f146101345780638cee71e014610152578063b74513c114610170578063e5a72d5b1461018e578063fc68b3ed146101aa57610093565b80632ebcb6531461009857806342be8cb5146100b6578063499ba0aa146100e657806365a6bb2914610116575b600080fd5b6100a06101c6565b6040516100ad919061048f565b60405180910390f35b6100d060048036038101906100cb91906104db565b6101cf565b6040516100dd919061048f565b60405180910390f35b61010060048036038101906100fb91906104db565b6101f9565b60405161010d919061048f565b60405180910390f35b61011e610223565b60405161012b91906105c6565b60405180910390f35b61013c6102e3565b604051610149919061065f565b60405180910390f35b61015a6102f6565b604051610167919061048f565b60405180910390f35b6101786102fc565b60405161018591906105c6565b60405180910390f35b6101a860048036038101906101a391906104db565b6103bc565b005b6101c460048036038101906101bf91906104db565b610406565b005b60008054905090565b600381815481106101df57600080fd5b906000526020600020016000915090508060000154905081565b6002818154811061020957600080fd5b906000526020600020016000915090508060000154905081565b6060600060038054905067ffffffffffffffff8111156102465761024561067a565b5b6040519080825280602002602001820160405280156102745781602001602082028036833780820191505090505b50905060005b6003805490508110156102db576003818154811061029b5761029a6106a9565b5b90600052602060002001600001548282815181106102bc576102bb6106a9565b5b60200260200101818152505080806102d390610707565b91505061027a565b508091505090565b600160009054906101000a900460ff1681565b60005481565b6060600060028054905067ffffffffffffffff81111561031f5761031e61067a565b5b60405190808252806020026020018201604052801561034d5781602001602082028036833780820191505090505b50905060005b6002805490508110156103b45760028181548110610374576103736106a9565b5b9060005260206000200160000154828281518110610395576103946106a9565b5b60200260200101818152505080806103ac90610707565b915050610353565b508091505090565b6103c4610450565b81816000018181525050600381908060018154018082558091505060019003906000526020600020016000909190919091506000820151816000015550505050565b61040e610463565b81816000018181525050600281908060018154018082558091505060019003906000526020600020016000909190919091506000820151816000015550505050565b6040518060200160405280600081525090565b6040518060200160405280600081525090565b6000819050919050565b61048981610476565b82525050565b60006020820190506104a46000830184610480565b92915050565b600080fd5b6104b881610476565b81146104c357600080fd5b50565b6000813590506104d5816104af565b92915050565b6000602082840312156104f1576104f06104aa565b5b60006104ff848285016104c6565b91505092915050565b600081519050919050565b600082825260208201905092915050565b6000819050602082019050919050565b61053d81610476565b82525050565b600061054f8383610534565b60208301905092915050565b6000602082019050919050565b600061057382610508565b61057d8185610513565b935061058883610524565b8060005b838110156105b95781516105a08882610543565b97506105ab8361055b565b92505060018101905061058c565b5085935050505092915050565b600060208201905081810360008301526105e08184610568565b905092915050565b7f4e487b7100000000000000000000000000000000000000000000000000000000600052602160045260246000fd5b60028110610628576106276105e8565b5b50565b600081905061063982610617565b919050565b60006106498261062b565b9050919050565b6106598161063e565b82525050565b60006020820190506106746000830184610650565b92915050565b7f4e487b7100000000000000000000000000000000000000000000000000000000600052604160045260246000fd5b7f4e487b7100000000000000000000000000000000000000000000000000000000600052603260045260246000fd5b7f4e487b7100000000000000000000000000000000000000000000000000000000600052601160045260246000fd5b600061071282610476565b91507fffffffffffffffffffffffffffffffffffffffffffffffffffffffffffffffff8203610744576107436106d8565b5b60018201905091905056fea264697066735822122016a8736c381ad76b99401675175710c45ec0ad1c5c09e496d4f8f6432f523e3364736f6c63430008120033a26469706673582212201ee46c2cb1dd95f954629b21cef8d4497e8f6c20e544679c4c7ee5238824071464736f6c63430008120033",
					"opcodes": "PUSH1 0x80 PUSH1 0x40 MSTORE CALLVALUE DUP1 ISZERO PUSH2 0x10 JUMPI PUSH1 0x0 DUP1 REVERT JUMPDEST POP PUSH2 0x1CAD DUP1 PUSH2 0x20 PUSH1 0x0 CODECOPY PUSH1 0x0 RETURN INVALID PUSH1 0x80 PUSH1 0x40 MSTORE CALLVALUE DUP1 ISZERO PUSH3 0x11 JUMPI PUSH1 0x0 DUP1 REVERT JUMPDEST POP PUSH1 0x4 CALLDATASIZE LT PUSH3 0x88 JUMPI PUSH1 0x0 CALLDATALOAD PUSH1 0xE0 SHR DUP1 PUSH4 0xA32DA9D1 GT PUSH3 0x63 JUMPI DUP1 PUSH4 0xA32DA9D1 EQ PUSH3 0x103 JUMPI DUP1 PUSH4 0xADEBAEA6 EQ PUSH3 0x139 JUMPI DUP1 PUSH4 0xE2842D79 EQ PUSH3 0x159 JUMPI DUP1 PUSH4 0xFCD6704C EQ PUSH3 0x17B JUMPI PUSH3 0x88 JUMP JUMPDEST DUP1 PUSH4 0x1440A7F2 EQ PUSH3 0x8D JUMPI DUP1 PUSH4 0x2661317E EQ PUSH3 0xAD JUMPI DUP1 PUSH4 0x9EFB6289 EQ PUSH3 0xCD JUMPI JUMPDEST PUSH1 0x0 DUP1 REVERT JUMPDEST PUSH3 0xAB PUSH1 0x4 DUP1 CALLDATASIZE SUB DUP2 ADD SWAP1 PUSH3 0xA5 SWAP2 SWAP1 PUSH3 0xDF3 JUMP JUMPDEST PUSH3 0x1B1 JUMP JUMPDEST STOP JUMPDEST PUSH3 0xCB PUSH1 0x4 DUP1 CALLDATASIZE SUB DUP2 ADD SWAP1 PUSH3 0xC5 SWAP2 SWAP1 PUSH3 0xDF3 JUMP JUMPDEST PUSH3 0x395 JUMP JUMPDEST STOP JUMPDEST PUSH3 0xEB PUSH1 0x4 DUP1 CALLDATASIZE SUB DUP2 ADD SWAP1 PUSH3 0xE5 SWAP2 SWAP1 PUSH3 0xE3A JUMP JUMPDEST PUSH3 0x579 JUMP JUMPDEST PUSH1 0x40 MLOAD PUSH3 0xFA SWAP2 SWAP1 PUSH3 0xF3A JUMP JUMPDEST PUSH1 0x40 MLOAD DUP1 SWAP2 SUB SWAP1 RETURN JUMPDEST PUSH3 0x121 PUSH1 0x4 DUP1 CALLDATASIZE SUB DUP2 ADD SWAP1 PUSH3 0x11B SWAP2 SWAP1 PUSH3 0xE3A JUMP JUMPDEST PUSH3 0x7C3 JUMP JUMPDEST PUSH1 0x40 MLOAD PUSH3 0x130 SWAP2 SWAP1 PUSH3 0xFE9 JUMP JUMPDEST PUSH1 0x40 MLOAD DUP1 SWAP2 SUB SWAP1 RETURN JUMPDEST PUSH3 0x157 PUSH1 0x4 DUP1 CALLDATASIZE SUB DUP2 ADD SWAP1 PUSH3 0x151 SWAP2 SWAP1 PUSH3 0xE3A JUMP JUMPDEST PUSH3 0x803 JUMP JUMPDEST STOP JUMPDEST PUSH3 0x163 PUSH3 0x8F5 JUMP JUMPDEST PUSH1 0x40 MLOAD PUSH3 0x172 SWAP2 SWAP1 PUSH3 0xF3A JUMP JUMPDEST PUSH1 0x40 MLOAD DUP1 SWAP2 SUB SWAP1 RETURN JUMPDEST PUSH3 0x199 PUSH1 0x4 DUP1 CALLDATASIZE SUB DUP2 ADD SWAP1 PUSH3 0x193 SWAP2 SWAP1 PUSH3 0xE3A JUMP JUMPDEST PUSH3 0xA50 JUMP JUMPDEST PUSH1 0x40 MLOAD PUSH3 0x1A8 SWAP2 SWAP1 PUSH3 0xF3A JUMP JUMPDEST PUSH1 0x40 MLOAD DUP1 SWAP2 SUB SWAP1 RETURN JUMPDEST PUSH3 0x1BC DUP3 PUSH3 0xC9A JUMP JUMPDEST PUSH3 0x1FE JUMPI PUSH1 0x40 MLOAD PUSH32 0x8C379A000000000000000000000000000000000000000000000000000000000 DUP2 MSTORE PUSH1 0x4 ADD PUSH3 0x1F5 SWAP1 PUSH3 0x1067 JUMP JUMPDEST PUSH1 0x40 MLOAD DUP1 SWAP2 SUB SWAP1 REVERT JUMPDEST PUSH1 0x0 JUMPDEST PUSH1 0x0 DUP1 SLOAD SWAP1 POP DUP2 LT ISZERO PUSH3 0x390 JUMPI DUP3 PUSH1 0x0 DUP3 DUP2 SLOAD DUP2 LT PUSH3 0x227 JUMPI PUSH3 0x226 PUSH3 0x1089 JUMP JUMPDEST JUMPDEST SWAP1 PUSH1 0x0 MSTORE PUSH1 0x20 PUSH1 0x0 KECCAK256 ADD PUSH1 0x0 SWAP1 SLOAD SWAP1 PUSH2 0x100 EXP SWAP1 DIV PUSH20 0xFFFFFFFFFFFFFFFFFFFFFFFFFFFFFFFFFFFFFFFF AND PUSH20 0xFFFFFFFFFFFFFFFFFFFFFFFFFFFFFFFFFFFFFFFF AND PUSH4 0x8CEE71E0 PUSH1 0x40 MLOAD DUP2 PUSH4 0xFFFFFFFF AND PUSH1 0xE0 SHL DUP2 MSTORE PUSH1 0x4 ADD PUSH1 0x20 PUSH1 0x40 MLOAD DUP1 DUP4 SUB DUP2 DUP7 GAS STATICCALL ISZERO DUP1 ISZERO PUSH3 0x29D JUMPI RETURNDATASIZE PUSH1 0x0 DUP1 RETURNDATACOPY RETURNDATASIZE PUSH1 0x0 REVERT JUMPDEST POP POP POP POP PUSH1 0x40 MLOAD RETURNDATASIZE PUSH1 0x1F NOT PUSH1 0x1F DUP3 ADD AND DUP3 ADD DUP1 PUSH1 0x40 MSTORE POP DUP2 ADD SWAP1 PUSH3 0x2C3 SWAP2 SWAP1 PUSH3 0x10CF JUMP JUMPDEST SUB PUSH3 0x37A JUMPI PUSH1 0x0 DUP2 DUP2 SLOAD DUP2 LT PUSH3 0x2E0 JUMPI PUSH3 0x2DF PUSH3 0x1089 JUMP JUMPDEST JUMPDEST SWAP1 PUSH1 0x0 MSTORE PUSH1 0x20 PUSH1 0x0 KECCAK256 ADD PUSH1 0x0 SWAP1 SLOAD SWAP1 PUSH2 0x100 EXP SWAP1 DIV PUSH20 0xFFFFFFFFFFFFFFFFFFFFFFFFFFFFFFFFFFFFFFFF AND PUSH20 0xFFFFFFFFFFFFFFFFFFFFFFFFFFFFFFFFFFFFFFFF AND PUSH4 0xFC68B3ED DUP4 PUSH1 0x40 MLOAD DUP3 PUSH4 0xFFFFFFFF AND PUSH1 0xE0 SHL DUP2 MSTORE PUSH1 0x4 ADD PUSH3 0x345 SWAP2 SWAP1 PUSH3 0x1112 JUMP JUMPDEST PUSH1 0x0 PUSH1 0x40 MLOAD DUP1 DUP4 SUB DUP2 PUSH1 0x0 DUP8 DUP1 EXTCODESIZE ISZERO DUP1 ISZERO PUSH3 0x360 JUMPI PUSH1 0x0 DUP1 REVERT JUMPDEST POP GAS CALL ISZERO DUP1 ISZERO PUSH3 0x375 JUMPI RETURNDATASIZE PUSH1 0x0 DUP1 RETURNDATACOPY RETURNDATASIZE PUSH1 0x0 REVERT JUMPDEST POP POP POP POP JUMPDEST DUP1 DUP1 PUSH3 0x387 SWAP1 PUSH3 0x115E JUMP JUMPDEST SWAP2 POP POP PUSH3 0x201 JUMP JUMPDEST POP POP POP JUMP JUMPDEST PUSH3 0x3A0 DUP3 PUSH3 0xC9A JUMP JUMPDEST PUSH3 0x3E2 JUMPI PUSH1 0x40 MLOAD PUSH32 0x8C379A000000000000000000000000000000000000000000000000000000000 DUP2 MSTORE PUSH1 0x4 ADD PUSH3 0x3D9 SWAP1 PUSH3 0x1067 JUMP JUMPDEST PUSH1 0x40 MLOAD DUP1 SWAP2 SUB SWAP1 REVERT JUMPDEST PUSH1 0x0 JUMPDEST PUSH1 0x0 DUP1 SLOAD SWAP1 POP DUP2 LT ISZERO PUSH3 0x574 JUMPI DUP3 PUSH1 0x0 DUP3 DUP2 SLOAD DUP2 LT PUSH3 0x40B JUMPI PUSH3 0x40A PUSH3 0x1089 JUMP JUMPDEST JUMPDEST SWAP1 PUSH1 0x0 MSTORE PUSH1 0x20 PUSH1 0x0 KECCAK256 ADD PUSH1 0x0 SWAP1 SLOAD SWAP1 PUSH2 0x100 EXP SWAP1 DIV PUSH20 0xFFFFFFFFFFFFFFFFFFFFFFFFFFFFFFFFFFFFFFFF AND PUSH20 0xFFFFFFFFFFFFFFFFFFFFFFFFFFFFFFFFFFFFFFFF AND PUSH4 0x8CEE71E0 PUSH1 0x40 MLOAD DUP2 PUSH4 0xFFFFFFFF AND PUSH1 0xE0 SHL DUP2 MSTORE PUSH1 0x4 ADD PUSH1 0x20 PUSH1 0x40 MLOAD DUP1 DUP4 SUB DUP2 DUP7 GAS STATICCALL ISZERO DUP1 ISZERO PUSH3 0x481 JUMPI RETURNDATASIZE PUSH1 0x0 DUP1 RETURNDATACOPY RETURNDATASIZE PUSH1 0x0 REVERT JUMPDEST POP POP POP POP PUSH1 0x40 MLOAD RETURNDATASIZE PUSH1 0x1F NOT PUSH1 0x1F DUP3 ADD AND DUP3 ADD DUP1 PUSH1 0x40 MSTORE POP DUP2 ADD SWAP1 PUSH3 0x4A7 SWAP2 SWAP1 PUSH3 0x10CF JUMP JUMPDEST SUB PUSH3 0x55E JUMPI PUSH1 0x0 DUP2 DUP2 SLOAD DUP2 LT PUSH3 0x4C4 JUMPI PUSH3 0x4C3 PUSH3 0x1089 JUMP JUMPDEST JUMPDEST SWAP1 PUSH1 0x0 MSTORE PUSH1 0x20 PUSH1 0x0 KECCAK256 ADD PUSH1 0x0 SWAP1 SLOAD SWAP1 PUSH2 0x100 EXP SWAP1 DIV PUSH20 0xFFFFFFFFFFFFFFFFFFFFFFFFFFFFFFFFFFFFFFFF AND PUSH20 0xFFFFFFFFFFFFFFFFFFFFFFFFFFFFFFFFFFFFFFFF AND PUSH4 0xE5A72D5B DUP4 PUSH1 0x40 MLOAD DUP3 PUSH4 0xFFFFFFFF AND PUSH1 0xE0 SHL DUP2 MSTORE PUSH1 0x4 ADD PUSH3 0x529 SWAP2 SWAP1 PUSH3 0x1112 JUMP JUMPDEST PUSH1 0x0 PUSH1 0x40 MLOAD DUP1 DUP4 SUB DUP2 PUSH1 0x0 DUP8 DUP1 EXTCODESIZE ISZERO DUP1 ISZERO PUSH3 0x544 JUMPI PUSH1 0x0 DUP1 REVERT JUMPDEST POP GAS CALL ISZERO DUP1 ISZERO PUSH3 0x559 JUMPI RETURNDATASIZE PUSH1 0x0 DUP1 RETURNDATACOPY RETURNDATASIZE PUSH1 0x0 REVERT JUMPDEST POP POP POP POP JUMPDEST DUP1 DUP1 PUSH3 0x56B SWAP1 PUSH3 0x115E JUMP JUMPDEST SWAP2 POP POP PUSH3 0x3E5 JUMP JUMPDEST POP POP POP JUMP JUMPDEST PUSH1 0x60 PUSH3 0x586 DUP3 PUSH3 0xC9A JUMP JUMPDEST PUSH3 0x5C8 JUMPI PUSH1 0x40 MLOAD PUSH32 0x8C379A000000000000000000000000000000000000000000000000000000000 DUP2 MSTORE PUSH1 0x4 ADD PUSH3 0x5BF SWAP1 PUSH3 0x1067 JUMP JUMPDEST PUSH1 0x40 MLOAD DUP1 SWAP2 SUB SWAP1 REVERT JUMPDEST PUSH1 0x0 DUP1 DUP1 SLOAD SWAP1 POP PUSH8 0xFFFFFFFFFFFFFFFF DUP2 GT ISZERO PUSH3 0x5EB JUMPI PUSH3 0x5EA PUSH3 0x11AB JUMP JUMPDEST JUMPDEST PUSH1 0x40 MLOAD SWAP1 DUP1 DUP3 MSTORE DUP1 PUSH1 0x20 MUL PUSH1 0x20 ADD DUP3 ADD PUSH1 0x40 MSTORE DUP1 ISZERO PUSH3 0x61A JUMPI DUP2 PUSH1 0x20 ADD PUSH1 0x20 DUP3 MUL DUP1 CALLDATASIZE DUP4 CALLDATACOPY DUP1 DUP3 ADD SWAP2 POP POP SWAP1 POP JUMPDEST POP SWAP1 POP PUSH1 0x0 JUMPDEST PUSH1 0x0 DUP1 SLOAD SWAP1 POP DUP2 LT ISZERO PUSH3 0x7B9 JUMPI DUP4 PUSH1 0x0 DUP3 DUP2 SLOAD DUP2 LT PUSH3 0x646 JUMPI PUSH3 0x645 PUSH3 0x1089 JUMP JUMPDEST JUMPDEST SWAP1 PUSH1 0x0 MSTORE PUSH1 0x20 PUSH1 0x0 KECCAK256 ADD PUSH1 0x0 SWAP1 SLOAD SWAP1 PUSH2 0x100 EXP SWAP1 DIV PUSH20 0xFFFFFFFFFFFFFFFFFFFFFFFFFFFFFFFFFFFFFFFF AND PUSH20 0xFFFFFFFFFFFFFFFFFFFFFFFFFFFFFFFFFFFFFFFF AND PUSH4 0x8CEE71E0 PUSH1 0x40 MLOAD DUP2 PUSH4 0xFFFFFFFF AND PUSH1 0xE0 SHL DUP2 MSTORE PUSH1 0x4 ADD PUSH1 0x20 PUSH1 0x40 MLOAD DUP1 DUP4 SUB DUP2 DUP7 GAS STATICCALL ISZERO DUP1 ISZERO PUSH3 0x6BC JUMPI RETURNDATASIZE PUSH1 0x0 DUP1 RETURNDATACOPY RETURNDATASIZE PUSH1 0x0 REVERT JUMPDEST POP POP POP POP PUSH1 0x40 MLOAD RETURNDATASIZE PUSH1 0x1F NOT PUSH1 0x1F DUP3 ADD AND DUP3 ADD DUP1 PUSH1 0x40 MSTORE POP DUP2 ADD SWAP1 PUSH3 0x6E2 SWAP2 SWAP1 PUSH3 0x10CF JUMP JUMPDEST SUB PUSH3 0x7A3 JUMPI PUSH1 0x0 DUP2 DUP2 SLOAD DUP2 LT PUSH3 0x6FF JUMPI PUSH3 0x6FE PUSH3 0x1089 JUMP JUMPDEST JUMPDEST SWAP1 PUSH1 0x0 MSTORE PUSH1 0x20 PUSH1 0x0 KECCAK256 ADD PUSH1 0x0 SWAP1 SLOAD SWAP1 PUSH2 0x100 EXP SWAP1 DIV PUSH20 0xFFFFFFFFFFFFFFFFFFFFFFFFFFFFFFFFFFFFFFFF AND PUSH20 0xFFFFFFFFFFFFFFFFFFFFFFFFFFFFFFFFFFFFFFFF AND PUSH4 0x65A6BB29 PUSH1 0x40 MLOAD DUP2 PUSH4 0xFFFFFFFF AND PUSH1 0xE0 SHL DUP2 MSTORE PUSH1 0x4 ADD PUSH1 0x0 PUSH1 0x40 MLOAD DUP1 DUP4 SUB DUP2 DUP7 GAS STATICCALL ISZERO DUP1 ISZERO PUSH3 0x775 JUMPI RETURNDATASIZE PUSH1 0x0 DUP1 RETURNDATACOPY RETURNDATASIZE PUSH1 0x0 REVERT JUMPDEST POP POP POP POP PUSH1 0x40 MLOAD RETURNDATASIZE PUSH1 0x0 DUP3 RETURNDATACOPY RETURNDATASIZE PUSH1 0x1F NOT PUSH1 0x1F DUP3 ADD AND DUP3 ADD DUP1 PUSH1 0x40 MSTORE POP DUP2 ADD SWAP1 PUSH3 0x7A0 SWAP2 SWAP1 PUSH3 0x1320 JUMP JUMPDEST SWAP2 POP JUMPDEST DUP1 DUP1 PUSH3 0x7B0 SWAP1 PUSH3 0x115E JUMP JUMPDEST SWAP2 POP POP PUSH3 0x620 JUMP JUMPDEST POP DUP1 SWAP2 POP POP SWAP2 SWAP1 POP JUMP JUMPDEST PUSH1 0x0 DUP2 DUP2 SLOAD DUP2 LT PUSH3 0x7D4 JUMPI PUSH1 0x0 DUP1 REVERT JUMPDEST SWAP1 PUSH1 0x0 MSTORE PUSH1 0x20 PUSH1 0x0 KECCAK256 ADD PUSH1 0x0 SWAP2 POP SLOAD SWAP1 PUSH2 0x100 EXP SWAP1 DIV PUSH20 0xFFFFFFFFFFFFFFFFFFFFFFFFFFFFFFFFFFFFFFFF AND DUP2 JUMP JUMPDEST PUSH3 0x80E DUP2 PUSH3 0xC9A JUMP JUMPDEST ISZERO PUSH3 0x851 JUMPI PUSH1 0x40 MLOAD PUSH32 0x8C379A000000000000000000000000000000000000000000000000000000000 DUP2 MSTORE PUSH1 0x4 ADD PUSH3 0x848 SWAP1 PUSH3 0x13C1 JUMP JUMPDEST PUSH1 0x40 MLOAD DUP1 SWAP2 SUB SWAP1 REVERT JUMPDEST PUSH1 0x0 DUP2 PUSH1 0x40 MLOAD PUSH3 0x862 SWAP1 PUSH3 0xD96 JUMP JUMPDEST PUSH3 0x86E SWAP2 SWAP1 PUSH3 0x1112 JUMP JUMPDEST PUSH1 0x40 MLOAD DUP1 SWAP2 SUB SWAP1 PUSH1 0x0 CREATE DUP1 ISZERO DUP1 ISZERO PUSH3 0x88B JUMPI RETURNDATASIZE PUSH1 0x0 DUP1 RETURNDATACOPY RETURNDATASIZE PUSH1 0x0 REVERT JUMPDEST POP SWAP1 POP PUSH1 0x0 DUP2 SWAP1 DUP1 PUSH1 0x1 DUP2 SLOAD ADD DUP1 DUP3 SSTORE DUP1 SWAP2 POP POP PUSH1 0x1 SWAP1 SUB SWAP1 PUSH1 0x0 MSTORE PUSH1 0x20 PUSH1 0x0 KECCAK256 ADD PUSH1 0x0 SWAP1 SWAP2 SWAP1 SWAP2 SWAP1 SWAP2 PUSH2 0x100 EXP DUP2 SLOAD DUP2 PUSH20 0xFFFFFFFFFFFFFFFFFFFFFFFFFFFFFFFFFFFFFFFF MUL NOT AND SWAP1 DUP4 PUSH20 0xFFFFFFFFFFFFFFFFFFFFFFFFFFFFFFFFFFFFFFFF AND MUL OR SWAP1 SSTORE POP POP POP JUMP JUMPDEST PUSH1 0x60 PUSH1 0x0 DUP1 DUP1 SLOAD SWAP1 POP PUSH8 0xFFFFFFFFFFFFFFFF DUP2 GT ISZERO PUSH3 0x91A JUMPI PUSH3 0x919 PUSH3 0x11AB JUMP JUMPDEST JUMPDEST PUSH1 0x40 MLOAD SWAP1 DUP1 DUP3 MSTORE DUP1 PUSH1 0x20 MUL PUSH1 0x20 ADD DUP3 ADD PUSH1 0x40 MSTORE DUP1 ISZERO PUSH3 0x949 JUMPI DUP2 PUSH1 0x20 ADD PUSH1 0x20 DUP3 MUL DUP1 CALLDATASIZE DUP4 CALLDATACOPY DUP1 DUP3 ADD SWAP2 POP POP SWAP1 POP JUMPDEST POP SWAP1 POP PUSH1 0x0 JUMPDEST PUSH1 0x0 DUP1 SLOAD SWAP1 POP DUP2 LT ISZERO PUSH3 0xA48 JUMPI PUSH1 0x0 DUP2 DUP2 SLOAD DUP2 LT PUSH3 0x974 JUMPI PUSH3 0x973 PUSH3 0x1089 JUMP JUMPDEST JUMPDEST SWAP1 PUSH1 0x0 MSTORE PUSH1 0x20 PUSH1 0x0 KECCAK256 ADD PUSH1 0x0 SWAP1 SLOAD SWAP1 PUSH2 0x100 EXP SWAP1 DIV PUSH20 0xFFFFFFFFFFFFFFFFFFFFFFFFFFFFFFFFFFFFFFFF AND PUSH20 0xFFFFFFFFFFFFFFFFFFFFFFFFFFFFFFFFFFFFFFFF AND PUSH4 0x2EBCB653 PUSH1 0x40 MLOAD DUP2 PUSH4 0xFFFFFFFF AND PUSH1 0xE0 SHL DUP2 MSTORE PUSH1 0x4 ADD PUSH1 0x20 PUSH1 0x40 MLOAD DUP1 DUP4 SUB DUP2 DUP7 GAS STATICCALL ISZERO DUP1 ISZERO PUSH3 0x9EA JUMPI RETURNDATASIZE PUSH1 0x0 DUP1 RETURNDATACOPY RETURNDATASIZE PUSH1 0x0 REVERT JUMPDEST POP POP POP POP PUSH1 0x40 MLOAD RETURNDATASIZE PUSH1 0x1F NOT PUSH1 0x1F DUP3 ADD AND DUP3 ADD DUP1 PUSH1 0x40 MSTORE POP DUP2 ADD SWAP1 PUSH3 0xA10 SWAP2 SWAP1 PUSH3 0x10CF JUMP JUMPDEST DUP3 DUP3 DUP2 MLOAD DUP2 LT PUSH3 0xA26 JUMPI PUSH3 0xA25 PUSH3 0x1089 JUMP JUMPDEST JUMPDEST PUSH1 0x20 MUL PUSH1 0x20 ADD ADD DUP2 DUP2 MSTORE POP POP DUP1 DUP1 PUSH3 0xA3F SWAP1 PUSH3 0x115E JUMP JUMPDEST SWAP2 POP POP PUSH3 0x94F JUMP JUMPDEST POP DUP1 SWAP2 POP POP SWAP1 JUMP JUMPDEST PUSH1 0x60 PUSH3 0xA5D DUP3 PUSH3 0xC9A JUMP JUMPDEST PUSH3 0xA9F JUMPI PUSH1 0x40 MLOAD PUSH32 0x8C379A000000000000000000000000000000000000000000000000000000000 DUP2 MSTORE PUSH1 0x4 ADD PUSH3 0xA96 SWAP1 PUSH3 0x1067 JUMP JUMPDEST PUSH1 0x40 MLOAD DUP1 SWAP2 SUB SWAP1 REVERT JUMPDEST PUSH1 0x0 DUP1 DUP1 SLOAD SWAP1 POP PUSH8 0xFFFFFFFFFFFFFFFF DUP2 GT ISZERO PUSH3 0xAC2 JUMPI PUSH3 0xAC1 PUSH3 0x11AB JUMP JUMPDEST JUMPDEST PUSH1 0x40 MLOAD SWAP1 DUP1 DUP3 MSTORE DUP1 PUSH1 0x20 MUL PUSH1 0x20 ADD DUP3 ADD PUSH1 0x40 MSTORE DUP1 ISZERO PUSH3 0xAF1 JUMPI DUP2 PUSH1 0x20 ADD PUSH1 0x20 DUP3 MUL DUP1 CALLDATASIZE DUP4 CALLDATACOPY DUP1 DUP3 ADD SWAP2 POP POP SWAP1 POP JUMPDEST POP SWAP1 POP PUSH1 0x0 JUMPDEST PUSH1 0x0 DUP1 SLOAD SWAP1 POP DUP2 LT ISZERO PUSH3 0xC90 JUMPI DUP4 PUSH1 0x0 DUP3 DUP2 SLOAD DUP2 LT PUSH3 0xB1D JUMPI PUSH3 0xB1C PUSH3 0x1089 JUMP JUMPDEST JUMPDEST SWAP1 PUSH1 0x0 MSTORE PUSH1 0x20 PUSH1 0x0 KECCAK256 ADD PUSH1 0x0 SWAP1 SLOAD SWAP1 PUSH2 0x100 EXP SWAP1 DIV PUSH20 0xFFFFFFFFFFFFFFFFFFFFFFFFFFFFFFFFFFFFFFFF AND PUSH20 0xFFFFFFFFFFFFFFFFFFFFFFFFFFFFFFFFFFFFFFFF AND PUSH4 0x8CEE71E0 PUSH1 0x40 MLOAD DUP2 PUSH4 0xFFFFFFFF AND PUSH1 0xE0 SHL DUP2 MSTORE PUSH1 0x4 ADD PUSH1 0x20 PUSH1 0x40 MLOAD DUP1 DUP4 SUB DUP2 DUP7 GAS STATICCALL ISZERO DUP1 ISZERO PUSH3 0xB93 JUMPI RETURNDATASIZE PUSH1 0x0 DUP1 RETURNDATACOPY RETURNDATASIZE PUSH1 0x0 REVERT JUMPDEST POP POP POP POP PUSH1 0x40 MLOAD RETURNDATASIZE PUSH1 0x1F NOT PUSH1 0x1F DUP3 ADD AND DUP3 ADD DUP1 PUSH1 0x40 MSTORE POP DUP2 ADD SWAP1 PUSH3 0xBB9 SWAP2 SWAP1 PUSH3 0x10CF JUMP JUMPDEST SUB PUSH3 0xC7A JUMPI PUSH1 0x0 DUP2 DUP2 SLOAD DUP2 LT PUSH3 0xBD6 JUMPI PUSH3 0xBD5 PUSH3 0x1089 JUMP JUMPDEST JUMPDEST SWAP1 PUSH1 0x0 MSTORE PUSH1 0x20 PUSH1 0x0 KECCAK256 ADD PUSH1 0x0 SWAP1 SLOAD SWAP1 PUSH2 0x100 EXP SWAP1 DIV PUSH20 0xFFFFFFFFFFFFFFFFFFFFFFFFFFFFFFFFFFFFFFFF AND PUSH20 0xFFFFFFFFFFFFFFFFFFFFFFFFFFFFFFFFFFFFFFFF AND PUSH4 0xB74513C1 PUSH1 0x40 MLOAD DUP2 PUSH4 0xFFFFFFFF AND PUSH1 0xE0 SHL DUP2 MSTORE PUSH1 0x4 ADD PUSH1 0x0 PUSH1 0x40 MLOAD DUP1 DUP4 SUB DUP2 DUP7 GAS STATICCALL ISZERO DUP1 ISZERO PUSH3 0xC4C JUMPI RETURNDATASIZE PUSH1 0x0 DUP1 RETURNDATACOPY RETURNDATASIZE PUSH1 0x0 REVERT JUMPDEST POP POP POP POP PUSH1 0x40 MLOAD RETURNDATASIZE PUSH1 0x0 DUP3 RETURNDATACOPY RETURNDATASIZE PUSH1 0x1F NOT PUSH1 0x1F DUP3 ADD AND DUP3 ADD DUP1 PUSH1 0x40 MSTORE POP DUP2 ADD SWAP1 PUSH3 0xC77 SWAP2 SWAP1 PUSH3 0x1320 JUMP JUMPDEST SWAP2 POP JUMPDEST DUP1 DUP1 PUSH3 0xC87 SWAP1 PUSH3 0x115E JUMP JUMPDEST SWAP2 POP POP PUSH3 0xAF7 JUMP JUMPDEST POP DUP1 SWAP2 POP POP SWAP2 SWAP1 POP JUMP JUMPDEST PUSH1 0x0 DUP1 PUSH1 0x0 SWAP1 POP JUMPDEST PUSH1 0x0 DUP1 SLOAD SWAP1 POP DUP2 LT ISZERO PUSH3 0xD8B JUMPI DUP3 PUSH1 0x0 DUP3 DUP2 SLOAD DUP2 LT PUSH3 0xCC8 JUMPI PUSH3 0xCC7 PUSH3 0x1089 JUMP JUMPDEST JUMPDEST SWAP1 PUSH1 0x0 MSTORE PUSH1 0x20 PUSH1 0x0 KECCAK256 ADD PUSH1 0x0 SWAP1 SLOAD SWAP1 PUSH2 0x100 EXP SWAP1 DIV PUSH20 0xFFFFFFFFFFFFFFFFFFFFFFFFFFFFFFFFFFFFFFFF AND PUSH20 0xFFFFFFFFFFFFFFFFFFFFFFFFFFFFFFFFFFFFFFFF AND PUSH4 0x8CEE71E0 PUSH1 0x40 MLOAD DUP2 PUSH4 0xFFFFFFFF AND PUSH1 0xE0 SHL DUP2 MSTORE PUSH1 0x4 ADD PUSH1 0x20 PUSH1 0x40 MLOAD DUP1 DUP4 SUB DUP2 DUP7 GAS STATICCALL ISZERO DUP1 ISZERO PUSH3 0xD3E JUMPI RETURNDATASIZE PUSH1 0x0 DUP1 RETURNDATACOPY RETURNDATASIZE PUSH1 0x0 REVERT JUMPDEST POP POP POP POP PUSH1 0x40 MLOAD RETURNDATASIZE PUSH1 0x1F NOT PUSH1 0x1F DUP3 ADD AND DUP3 ADD DUP1 PUSH1 0x40 MSTORE POP DUP2 ADD SWAP1 PUSH3 0xD64 SWAP2 SWAP1 PUSH3 0x10CF JUMP JUMPDEST SUB PUSH3 0xD75 JUMPI PUSH1 0x1 SWAP2 POP POP PUSH3 0xD91 JUMP JUMPDEST DUP1 DUP1 PUSH3 0xD82 SWAP1 PUSH3 0x115E JUMP JUMPDEST SWAP2 POP POP PUSH3 0xCA2 JUMP JUMPDEST POP PUSH1 0x0 SWAP1 POP JUMPDEST SWAP2 SWAP1 POP JUMP JUMPDEST PUSH2 0x894 DUP1 PUSH3 0x13E4 DUP4 CODECOPY ADD SWAP1 JUMP JUMPDEST PUSH1 0x0 PUSH1 0x40 MLOAD SWAP1 POP SWAP1 JUMP JUMPDEST PUSH1 0x0 DUP1 REVERT JUMPDEST PUSH1 0x0 DUP1 REVERT JUMPDEST PUSH1 0x0 DUP2 SWAP1 POP SWAP2 SWAP1 POP JUMP JUMPDEST PUSH3 0xDCD DUP2 PUSH3 0xDB8 JUMP JUMPDEST DUP2 EQ PUSH3 0xDD9 JUMPI PUSH1 0x0 DUP1 REVERT JUMPDEST POP JUMP JUMPDEST PUSH1 0x0 DUP2 CALLDATALOAD SWAP1 POP PUSH3 0xDED DUP2 PUSH3 0xDC2 JUMP JUMPDEST SWAP3 SWAP2 POP POP JUMP JUMPDEST PUSH1 0x0 DUP1 PUSH1 0x40 DUP4 DUP6 SUB SLT ISZERO PUSH3 0xE0D JUMPI PUSH3 0xE0C PUSH3 0xDAE JUMP JUMPDEST JUMPDEST PUSH1 0x0 PUSH3 0xE1D DUP6 DUP3 DUP7 ADD PUSH3 0xDDC JUMP JUMPDEST SWAP3 POP POP PUSH1 0x20 PUSH3 0xE30 DUP6 DUP3 DUP7 ADD PUSH3 0xDDC JUMP JUMPDEST SWAP2 POP POP SWAP3 POP SWAP3 SWAP1 POP JUMP JUMPDEST PUSH1 0x0 PUSH1 0x20 DUP3 DUP5 SUB SLT ISZERO PUSH3 0xE53 JUMPI PUSH3 0xE52 PUSH3 0xDAE JUMP JUMPDEST JUMPDEST PUSH1 0x0 PUSH3 0xE63 DUP5 DUP3 DUP6 ADD PUSH3 0xDDC JUMP JUMPDEST SWAP2 POP POP SWAP3 SWAP2 POP POP JUMP JUMPDEST PUSH1 0x0 DUP2 MLOAD SWAP1 POP SWAP2 SWAP1 POP JUMP JUMPDEST PUSH1 0x0 DUP3 DUP3 MSTORE PUSH1 0x20 DUP3 ADD SWAP1 POP SWAP3 SWAP2 POP POP JUMP JUMPDEST PUSH1 0x0 DUP2 SWAP1 POP PUSH1 0x20 DUP3 ADD SWAP1 POP SWAP2 SWAP1 POP JUMP JUMPDEST PUSH3 0xEA3 DUP2 PUSH3 0xDB8 JUMP JUMPDEST DUP3 MSTORE POP POP JUMP JUMPDEST PUSH1 0x0 PUSH3 0xEB7 DUP4 DUP4 PUSH3 0xE98 JUMP JUMPDEST PUSH1 0x20 DUP4 ADD SWAP1 POP SWAP3 SWAP2 POP POP JUMP JUMPDEST PUSH1 0x0 PUSH1 0x20 DUP3 ADD SWAP1 POP SWAP2 SWAP1 POP JUMP JUMPDEST PUSH1 0x0 PUSH3 0xEDD DUP3 PUSH3 0xE6C JUMP JUMPDEST PUSH3 0xEE9 DUP2 DUP6 PUSH3 0xE77 JUMP JUMPDEST SWAP4 POP PUSH3 0xEF6 DUP4 PUSH3 0xE88 JUMP JUMPDEST DUP1 PUSH1 0x0 JUMPDEST DUP4 DUP2 LT ISZERO PUSH3 0xF2D JUMPI DUP2 MLOAD PUSH3 0xF11 DUP9 DUP3 PUSH3 0xEA9 JUMP JUMPDEST SWAP8 POP PUSH3 0xF1E DUP4 PUSH3 0xEC3 JUMP JUMPDEST SWAP3 POP POP PUSH1 0x1 DUP2 ADD SWAP1 POP PUSH3 0xEFA JUMP JUMPDEST POP DUP6 SWAP4 POP POP POP POP SWAP3 SWAP2 POP POP JUMP JUMPDEST PUSH1 0x0 PUSH1 0x20 DUP3 ADD SWAP1 POP DUP2 DUP2 SUB PUSH1 0x0 DUP4 ADD MSTORE PUSH3 0xF56 DUP2 DUP5 PUSH3 0xED0 JUMP JUMPDEST SWAP1 POP SWAP3 SWAP2 POP POP JUMP JUMPDEST PUSH1 0x0 PUSH20 0xFFFFFFFFFFFFFFFFFFFFFFFFFFFFFFFFFFFFFFFF DUP3 AND SWAP1 POP SWAP2 SWAP1 POP JUMP JUMPDEST PUSH1 0x0 DUP2 SWAP1 POP SWAP2 SWAP1 POP JUMP JUMPDEST PUSH1 0x0 PUSH3 0xFA9 PUSH3 0xFA3 PUSH3 0xF9D DUP5 PUSH3 0xF5E JUMP JUMPDEST PUSH3 0xF7E JUMP JUMPDEST PUSH3 0xF5E JUMP JUMPDEST SWAP1 POP SWAP2 SWAP1 POP JUMP JUMPDEST PUSH1 0x0 PUSH3 0xFBD DUP3 PUSH3 0xF88 JUMP JUMPDEST SWAP1 POP SWAP2 SWAP1 POP JUMP JUMPDEST PUSH1 0x0 PUSH3 0xFD1 DUP3 PUSH3 0xFB0 JUMP JUMPDEST SWAP1 POP SWAP2 SWAP1 POP JUMP JUMPDEST PUSH3 0xFE3 DUP2 PUSH3 0xFC4 JUMP JUMPDEST DUP3 MSTORE POP POP JUMP JUMPDEST PUSH1 0x0 PUSH1 0x20 DUP3 ADD SWAP1 POP PUSH3 0x1000 PUSH1 0x0 DUP4 ADD DUP5 PUSH3 0xFD8 JUMP JUMPDEST SWAP3 SWAP2 POP POP JUMP JUMPDEST PUSH1 0x0 DUP3 DUP3 MSTORE PUSH1 0x20 DUP3 ADD SWAP1 POP SWAP3 SWAP2 POP POP JUMP JUMPDEST PUSH32 0x5574656E7465206E6F6E2074726F7661746F0000000000000000000000000000 PUSH1 0x0 DUP3 ADD MSTORE POP JUMP JUMPDEST PUSH1 0x0 PUSH3 0x104F PUSH1 0x12 DUP4 PUSH3 0x1006 JUMP JUMPDEST SWAP2 POP PUSH3 0x105C DUP3 PUSH3 0x1017 JUMP JUMPDEST PUSH1 0x20 DUP3 ADD SWAP1 POP SWAP2 SWAP1 POP JUMP JUMPDEST PUSH1 0x0 PUSH1 0x20 DUP3 ADD SWAP1 POP DUP2 DUP2 SUB PUSH1 0x0 DUP4 ADD MSTORE PUSH3 0x1082 DUP2 PUSH3 0x1040 JUMP JUMPDEST SWAP1 POP SWAP2 SWAP1 POP JUMP JUMPDEST PUSH32 0x4E487B7100000000000000000000000000000000000000000000000000000000 PUSH1 0x0 MSTORE PUSH1 0x32 PUSH1 0x4 MSTORE PUSH1 0x24 PUSH1 0x0 REVERT JUMPDEST PUSH1 0x0 DUP2 MLOAD SWAP1 POP PUSH3 0x10C9 DUP2 PUSH3 0xDC2 JUMP JUMPDEST SWAP3 SWAP2 POP POP JUMP JUMPDEST PUSH1 0x0 PUSH1 0x20 DUP3 DUP5 SUB SLT ISZERO PUSH3 0x10E8 JUMPI PUSH3 0x10E7 PUSH3 0xDAE JUMP JUMPDEST JUMPDEST PUSH1 0x0 PUSH3 0x10F8 DUP5 DUP3 DUP6 ADD PUSH3 0x10B8 JUMP JUMPDEST SWAP2 POP POP SWAP3 SWAP2 POP POP JUMP JUMPDEST PUSH3 0x110C DUP2 PUSH3 0xDB8 JUMP JUMPDEST DUP3 MSTORE POP POP JUMP JUMPDEST PUSH1 0x0 PUSH1 0x20 DUP3 ADD SWAP1 POP PUSH3 0x1129 PUSH1 0x0 DUP4 ADD DUP5 PUSH3 0x1101 JUMP JUMPDEST SWAP3 SWAP2 POP POP JUMP JUMPDEST PUSH32 0x4E487B7100000000000000000000000000000000000000000000000000000000 PUSH1 0x0 MSTORE PUSH1 0x11 PUSH1 0x4 MSTORE PUSH1 0x24 PUSH1 0x0 REVERT JUMPDEST PUSH1 0x0 PUSH3 0x116B DUP3 PUSH3 0xDB8 JUMP JUMPDEST SWAP2 POP PUSH32 0xFFFFFFFFFFFFFFFFFFFFFFFFFFFFFFFFFFFFFFFFFFFFFFFFFFFFFFFFFFFFFFFF DUP3 SUB PUSH3 0x11A0 JUMPI PUSH3 0x119F PUSH3 0x112F JUMP JUMPDEST JUMPDEST PUSH1 0x1 DUP3 ADD SWAP1 POP SWAP2 SWAP1 POP JUMP JUMPDEST PUSH32 0x4E487B7100000000000000000000000000000000000000000000000000000000 PUSH1 0x0 MSTORE PUSH1 0x41 PUSH1 0x4 MSTORE PUSH1 0x24 PUSH1 0x0 REVERT JUMPDEST PUSH1 0x0 DUP1 REVERT JUMPDEST PUSH1 0x0 PUSH1 0x1F NOT PUSH1 0x1F DUP4 ADD AND SWAP1 POP SWAP2 SWAP1 POP JUMP JUMPDEST PUSH3 0x11FB DUP3 PUSH3 0x11DF JUMP JUMPDEST DUP2 ADD DUP2 DUP2 LT PUSH8 0xFFFFFFFFFFFFFFFF DUP3 GT OR ISZERO PUSH3 0x121D JUMPI PUSH3 0x121C PUSH3 0x11AB JUMP JUMPDEST JUMPDEST DUP1 PUSH1 0x40 MSTORE POP POP POP JUMP JUMPDEST PUSH1 0x0 PUSH3 0x1232 PUSH3 0xDA4 JUMP JUMPDEST SWAP1 POP PUSH3 0x1240 DUP3 DUP3 PUSH3 0x11F0 JUMP JUMPDEST SWAP2 SWAP1 POP JUMP JUMPDEST PUSH1 0x0 PUSH8 0xFFFFFFFFFFFFFFFF DUP3 GT ISZERO PUSH3 0x1263 JUMPI PUSH3 0x1262 PUSH3 0x11AB JUMP JUMPDEST JUMPDEST PUSH1 0x20 DUP3 MUL SWAP1 POP PUSH1 0x20 DUP2 ADD SWAP1 POP SWAP2 SWAP1 POP JUMP JUMPDEST PUSH1 0x0 DUP1 REVERT JUMPDEST PUSH1 0x0 PUSH3 0x1290 PUSH3 0x128A DUP5 PUSH3 0x1245 JUMP JUMPDEST PUSH3 0x1226 JUMP JUMPDEST SWAP1 POP DUP1 DUP4 DUP3 MSTORE PUSH1 0x20 DUP3 ADD SWAP1 POP PUSH1 0x20 DUP5 MUL DUP4 ADD DUP6 DUP2 GT ISZERO PUSH3 0x12B6 JUMPI PUSH3 0x12B5 PUSH3 0x1274 JUMP JUMPDEST JUMPDEST DUP4 JUMPDEST DUP2 DUP2 LT ISZERO PUSH3 0x12E3 JUMPI DUP1 PUSH3 0x12CE DUP9 DUP3 PUSH3 0x10B8 JUMP JUMPDEST DUP5 MSTORE PUSH1 0x20 DUP5 ADD SWAP4 POP POP PUSH1 0x20 DUP2 ADD SWAP1 POP PUSH3 0x12B8 JUMP JUMPDEST POP POP POP SWAP4 SWAP3 POP POP POP JUMP JUMPDEST PUSH1 0x0 DUP3 PUSH1 0x1F DUP4 ADD SLT PUSH3 0x1305 JUMPI PUSH3 0x1304 PUSH3 0x11DA JUMP JUMPDEST JUMPDEST DUP2 MLOAD PUSH3 0x1317 DUP5 DUP3 PUSH1 0x20 DUP7 ADD PUSH3 0x1279 JUMP JUMPDEST SWAP2 POP POP SWAP3 SWAP2 POP POP JUMP JUMPDEST PUSH1 0x0 PUSH1 0x20 DUP3 DUP5 SUB SLT ISZERO PUSH3 0x1339 JUMPI PUSH3 0x1338 PUSH3 0xDAE JUMP JUMPDEST JUMPDEST PUSH1 0x0 DUP3 ADD MLOAD PUSH8 0xFFFFFFFFFFFFFFFF DUP2 GT ISZERO PUSH3 0x135A JUMPI PUSH3 0x1359 PUSH3 0xDB3 JUMP JUMPDEST JUMPDEST PUSH3 0x1368 DUP5 DUP3 DUP6 ADD PUSH3 0x12ED JUMP JUMPDEST SWAP2 POP POP SWAP3 SWAP2 POP POP JUMP JUMPDEST PUSH32 0x5574656E7465206573697374656E746500000000000000000000000000000000 PUSH1 0x0 DUP3 ADD MSTORE POP JUMP JUMPDEST PUSH1 0x0 PUSH3 0x13A9 PUSH1 0x10 DUP4 PUSH3 0x1006 JUMP JUMPDEST SWAP2 POP PUSH3 0x13B6 DUP3 PUSH3 0x1371 JUMP JUMPDEST PUSH1 0x20 DUP3 ADD SWAP1 POP SWAP2 SWAP1 POP JUMP JUMPDEST PUSH1 0x0 PUSH1 0x20 DUP3 ADD SWAP1 POP DUP2 DUP2 SUB PUSH1 0x0 DUP4 ADD MSTORE PUSH3 0x13DC DUP2 PUSH3 0x139A JUMP JUMPDEST SWAP1 POP SWAP2 SWAP1 POP JUMP INVALID PUSH1 0x80 PUSH1 0x40 MSTORE CALLVALUE DUP1 ISZERO PUSH2 0x10 JUMPI PUSH1 0x0 DUP1 REVERT JUMPDEST POP PUSH1 0x40 MLOAD PUSH2 0x894 CODESIZE SUB DUP1 PUSH2 0x894 DUP4 CODECOPY DUP2 DUP2 ADD PUSH1 0x40 MSTORE DUP2 ADD SWAP1 PUSH2 0x32 SWAP2 SWAP1 PUSH2 0xA4 JUMP JUMPDEST DUP1 PUSH1 0x0 DUP2 SWAP1 SSTORE POP PUSH1 0x1 DUP1 PUSH1 0x0 PUSH2 0x100 EXP DUP2 SLOAD DUP2 PUSH1 0xFF MUL NOT AND SWAP1 DUP4 PUSH1 0x1 DUP2 GT ISZERO PUSH2 0x5E JUMPI PUSH2 0x5D PUSH2 0xD1 JUMP JUMPDEST JUMPDEST MUL OR SWAP1 SSTORE POP POP PUSH2 0x100 JUMP JUMPDEST PUSH1 0x0 DUP1 REVERT JUMPDEST PUSH1 0x0 DUP2 SWAP1 POP SWAP2 SWAP1 POP JUMP JUMPDEST PUSH2 0x81 DUP2 PUSH2 0x6E JUMP JUMPDEST DUP2 EQ PUSH2 0x8C JUMPI PUSH1 0x0 DUP1 REVERT JUMPDEST POP JUMP JUMPDEST PUSH1 0x0 DUP2 MLOAD SWAP1 POP PUSH2 0x9E DUP2 PUSH2 0x78 JUMP JUMPDEST SWAP3 SWAP2 POP POP JUMP JUMPDEST PUSH1 0x0 PUSH1 0x20 DUP3 DUP5 SUB SLT ISZERO PUSH2 0xBA JUMPI PUSH2 0xB9 PUSH2 0x69 JUMP JUMPDEST JUMPDEST PUSH1 0x0 PUSH2 0xC8 DUP5 DUP3 DUP6 ADD PUSH2 0x8F JUMP JUMPDEST SWAP2 POP POP SWAP3 SWAP2 POP POP JUMP JUMPDEST PUSH32 0x4E487B7100000000000000000000000000000000000000000000000000000000 PUSH1 0x0 MSTORE PUSH1 0x21 PUSH1 0x4 MSTORE PUSH1 0x24 PUSH1 0x0 REVERT JUMPDEST PUSH2 0x785 DUP1 PUSH2 0x10F PUSH1 0x0 CODECOPY PUSH1 0x0 RETURN INVALID PUSH1 0x80 PUSH1 0x40 MSTORE CALLVALUE DUP1 ISZERO PUSH2 0x10 JUMPI PUSH1 0x0 DUP1 REVERT JUMPDEST POP PUSH1 0x4 CALLDATASIZE LT PUSH2 0x93 JUMPI PUSH1 0x0 CALLDATALOAD PUSH1 0xE0 SHR DUP1 PUSH4 0x84731D6F GT PUSH2 0x66 JUMPI DUP1 PUSH4 0x84731D6F EQ PUSH2 0x134 JUMPI DUP1 PUSH4 0x8CEE71E0 EQ PUSH2 0x152 JUMPI DUP1 PUSH4 0xB74513C1 EQ PUSH2 0x170 JUMPI DUP1 PUSH4 0xE5A72D5B EQ PUSH2 0x18E JUMPI DUP1 PUSH4 0xFC68B3ED EQ PUSH2 0x1AA JUMPI PUSH2 0x93 JUMP JUMPDEST DUP1 PUSH4 0x2EBCB653 EQ PUSH2 0x98 JUMPI DUP1 PUSH4 0x42BE8CB5 EQ PUSH2 0xB6 JUMPI DUP1 PUSH4 0x499BA0AA EQ PUSH2 0xE6 JUMPI DUP1 PUSH4 0x65A6BB29 EQ PUSH2 0x116 JUMPI JUMPDEST PUSH1 0x0 DUP1 REVERT JUMPDEST PUSH2 0xA0 PUSH2 0x1C6 JUMP JUMPDEST PUSH1 0x40 MLOAD PUSH2 0xAD SWAP2 SWAP1 PUSH2 0x48F JUMP JUMPDEST PUSH1 0x40 MLOAD DUP1 SWAP2 SUB SWAP1 RETURN JUMPDEST PUSH2 0xD0 PUSH1 0x4 DUP1 CALLDATASIZE SUB DUP2 ADD SWAP1 PUSH2 0xCB SWAP2 SWAP1 PUSH2 0x4DB JUMP JUMPDEST PUSH2 0x1CF JUMP JUMPDEST PUSH1 0x40 MLOAD PUSH2 0xDD SWAP2 SWAP1 PUSH2 0x48F JUMP JUMPDEST PUSH1 0x40 MLOAD DUP1 SWAP2 SUB SWAP1 RETURN JUMPDEST PUSH2 0x100 PUSH1 0x4 DUP1 CALLDATASIZE SUB DUP2 ADD SWAP1 PUSH2 0xFB SWAP2 SWAP1 PUSH2 0x4DB JUMP JUMPDEST PUSH2 0x1F9 JUMP JUMPDEST PUSH1 0x40 MLOAD PUSH2 0x10D SWAP2 SWAP1 PUSH2 0x48F JUMP JUMPDEST PUSH1 0x40 MLOAD DUP1 SWAP2 SUB SWAP1 RETURN JUMPDEST PUSH2 0x11E PUSH2 0x223 JUMP JUMPDEST PUSH1 0x40 MLOAD PUSH2 0x12B SWAP2 SWAP1 PUSH2 0x5C6 JUMP JUMPDEST PUSH1 0x40 MLOAD DUP1 SWAP2 SUB SWAP1 RETURN JUMPDEST PUSH2 0x13C PUSH2 0x2E3 JUMP JUMPDEST PUSH1 0x40 MLOAD PUSH2 0x149 SWAP2 SWAP1 PUSH2 0x65F JUMP JUMPDEST PUSH1 0x40 MLOAD DUP1 SWAP2 SUB SWAP1 RETURN JUMPDEST PUSH2 0x15A PUSH2 0x2F6 JUMP JUMPDEST PUSH1 0x40 MLOAD PUSH2 0x167 SWAP2 SWAP1 PUSH2 0x48F JUMP JUMPDEST PUSH1 0x40 MLOAD DUP1 SWAP2 SUB SWAP1 RETURN JUMPDEST PUSH2 0x178 PUSH2 0x2FC JUMP JUMPDEST PUSH1 0x40 MLOAD PUSH2 0x185 SWAP2 SWAP1 PUSH2 0x5C6 JUMP JUMPDEST PUSH1 0x40 MLOAD DUP1 SWAP2 SUB SWAP1 RETURN JUMPDEST PUSH2 0x1A8 PUSH1 0x4 DUP1 CALLDATASIZE SUB DUP2 ADD SWAP1 PUSH2 0x1A3 SWAP2 SWAP1 PUSH2 0x4DB JUMP JUMPDEST PUSH2 0x3BC JUMP JUMPDEST STOP JUMPDEST PUSH2 0x1C4 PUSH1 0x4 DUP1 CALLDATASIZE SUB DUP2 ADD SWAP1 PUSH2 0x1BF SWAP2 SWAP1 PUSH2 0x4DB JUMP JUMPDEST PUSH2 0x406 JUMP JUMPDEST STOP JUMPDEST PUSH1 0x0 DUP1 SLOAD SWAP1 POP SWAP1 JUMP JUMPDEST PUSH1 0x3 DUP2 DUP2 SLOAD DUP2 LT PUSH2 0x1DF JUMPI PUSH1 0x0 DUP1 REVERT JUMPDEST SWAP1 PUSH1 0x0 MSTORE PUSH1 0x20 PUSH1 0x0 KECCAK256 ADD PUSH1 0x0 SWAP2 POP SWAP1 POP DUP1 PUSH1 0x0 ADD SLOAD SWAP1 POP DUP2 JUMP JUMPDEST PUSH1 0x2 DUP2 DUP2 SLOAD DUP2 LT PUSH2 0x209 JUMPI PUSH1 0x0 DUP1 REVERT JUMPDEST SWAP1 PUSH1 0x0 MSTORE PUSH1 0x20 PUSH1 0x0 KECCAK256 ADD PUSH1 0x0 SWAP2 POP SWAP1 POP DUP1 PUSH1 0x0 ADD SLOAD SWAP1 POP DUP2 JUMP JUMPDEST PUSH1 0x60 PUSH1 0x0 PUSH1 0x3 DUP1 SLOAD SWAP1 POP PUSH8 0xFFFFFFFFFFFFFFFF DUP2 GT ISZERO PUSH2 0x246 JUMPI PUSH2 0x245 PUSH2 0x67A JUMP JUMPDEST JUMPDEST PUSH1 0x40 MLOAD SWAP1 DUP1 DUP3 MSTORE DUP1 PUSH1 0x20 MUL PUSH1 0x20 ADD DUP3 ADD PUSH1 0x40 MSTORE DUP1 ISZERO PUSH2 0x274 JUMPI DUP2 PUSH1 0x20 ADD PUSH1 0x20 DUP3 MUL DUP1 CALLDATASIZE DUP4 CALLDATACOPY DUP1 DUP3 ADD SWAP2 POP POP SWAP1 POP JUMPDEST POP SWAP1 POP PUSH1 0x0 JUMPDEST PUSH1 0x3 DUP1 SLOAD SWAP1 POP DUP2 LT ISZERO PUSH2 0x2DB JUMPI PUSH1 0x3 DUP2 DUP2 SLOAD DUP2 LT PUSH2 0x29B JUMPI PUSH2 0x29A PUSH2 0x6A9 JUMP JUMPDEST JUMPDEST SWAP1 PUSH1 0x0 MSTORE PUSH1 0x20 PUSH1 0x0 KECCAK256 ADD PUSH1 0x0 ADD SLOAD DUP3 DUP3 DUP2 MLOAD DUP2 LT PUSH2 0x2BC JUMPI PUSH2 0x2BB PUSH2 0x6A9 JUMP JUMPDEST JUMPDEST PUSH1 0x20 MUL PUSH1 0x20 ADD ADD DUP2 DUP2 MSTORE POP POP DUP1 DUP1 PUSH2 0x2D3 SWAP1 PUSH2 0x707 JUMP JUMPDEST SWAP2 POP POP PUSH2 0x27A JUMP JUMPDEST POP DUP1 SWAP2 POP POP SWAP1 JUMP JUMPDEST PUSH1 0x1 PUSH1 0x0 SWAP1 SLOAD SWAP1 PUSH2 0x100 EXP SWAP1 DIV PUSH1 0xFF AND DUP2 JUMP JUMPDEST PUSH1 0x0 SLOAD DUP2 JUMP JUMPDEST PUSH1 0x60 PUSH1 0x0 PUSH1 0x2 DUP1 SLOAD SWAP1 POP PUSH8 0xFFFFFFFFFFFFFFFF DUP2 GT ISZERO PUSH2 0x31F JUMPI PUSH2 0x31E PUSH2 0x67A JUMP JUMPDEST JUMPDEST PUSH1 0x40 MLOAD SWAP1 DUP1 DUP3 MSTORE DUP1 PUSH1 0x20 MUL PUSH1 0x20 ADD DUP3 ADD PUSH1 0x40 MSTORE DUP1 ISZERO PUSH2 0x34D JUMPI DUP2 PUSH1 0x20 ADD PUSH1 0x20 DUP3 MUL DUP1 CALLDATASIZE DUP4 CALLDATACOPY DUP1 DUP3 ADD SWAP2 POP POP SWAP1 POP JUMPDEST POP SWAP1 POP PUSH1 0x0 JUMPDEST PUSH1 0x2 DUP1 SLOAD SWAP1 POP DUP2 LT ISZERO PUSH2 0x3B4 JUMPI PUSH1 0x2 DUP2 DUP2 SLOAD DUP2 LT PUSH2 0x374 JUMPI PUSH2 0x373 PUSH2 0x6A9 JUMP JUMPDEST JUMPDEST SWAP1 PUSH1 0x0 MSTORE PUSH1 0x20 PUSH1 0x0 KECCAK256 ADD PUSH1 0x0 ADD SLOAD DUP3 DUP3 DUP2 MLOAD DUP2 LT PUSH2 0x395 JUMPI PUSH2 0x394 PUSH2 0x6A9 JUMP JUMPDEST JUMPDEST PUSH1 0x20 MUL PUSH1 0x20 ADD ADD DUP2 DUP2 MSTORE POP POP DUP1 DUP1 PUSH2 0x3AC SWAP1 PUSH2 0x707 JUMP JUMPDEST SWAP2 POP POP PUSH2 0x353 JUMP JUMPDEST POP DUP1 SWAP2 POP POP SWAP1 JUMP JUMPDEST PUSH2 0x3C4 PUSH2 0x450 JUMP JUMPDEST DUP2 DUP2 PUSH1 0x0 ADD DUP2 DUP2 MSTORE POP POP PUSH1 0x3 DUP2 SWAP1 DUP1 PUSH1 0x1 DUP2 SLOAD ADD DUP1 DUP3 SSTORE DUP1 SWAP2 POP POP PUSH1 0x1 SWAP1 SUB SWAP1 PUSH1 0x0 MSTORE PUSH1 0x20 PUSH1 0x0 KECCAK256 ADD PUSH1 0x0 SWAP1 SWAP2 SWAP1 SWAP2 SWAP1 SWAP2 POP PUSH1 0x0 DUP3 ADD MLOAD DUP2 PUSH1 0x0 ADD SSTORE POP POP POP POP JUMP JUMPDEST PUSH2 0x40E PUSH2 0x463 JUMP JUMPDEST DUP2 DUP2 PUSH1 0x0 ADD DUP2 DUP2 MSTORE POP POP PUSH1 0x2 DUP2 SWAP1 DUP1 PUSH1 0x1 DUP2 SLOAD ADD DUP1 DUP3 SSTORE DUP1 SWAP2 POP POP PUSH1 0x1 SWAP1 SUB SWAP1 PUSH1 0x0 MSTORE PUSH1 0x20 PUSH1 0x0 KECCAK256 ADD PUSH1 0x0 SWAP1 SWAP2 SWAP1 SWAP2 SWAP1 SWAP2 POP PUSH1 0x0 DUP3 ADD MLOAD DUP2 PUSH1 0x0 ADD SSTORE POP POP POP POP JUMP JUMPDEST PUSH1 0x40 MLOAD DUP1 PUSH1 0x20 ADD PUSH1 0x40 MSTORE DUP1 PUSH1 0x0 DUP2 MSTORE POP SWAP1 JUMP JUMPDEST PUSH1 0x40 MLOAD DUP1 PUSH1 0x20 ADD PUSH1 0x40 MSTORE DUP1 PUSH1 0x0 DUP2 MSTORE POP SWAP1 JUMP JUMPDEST PUSH1 0x0 DUP2 SWAP1 POP SWAP2 SWAP1 POP JUMP JUMPDEST PUSH2 0x489 DUP2 PUSH2 0x476 JUMP JUMPDEST DUP3 MSTORE POP POP JUMP JUMPDEST PUSH1 0x0 PUSH1 0x20 DUP3 ADD SWAP1 POP PUSH2 0x4A4 PUSH1 0x0 DUP4 ADD DUP5 PUSH2 0x480 JUMP JUMPDEST SWAP3 SWAP2 POP POP JUMP JUMPDEST PUSH1 0x0 DUP1 REVERT JUMPDEST PUSH2 0x4B8 DUP2 PUSH2 0x476 JUMP JUMPDEST DUP2 EQ PUSH2 0x4C3 JUMPI PUSH1 0x0 DUP1 REVERT JUMPDEST POP JUMP JUMPDEST PUSH1 0x0 DUP2 CALLDATALOAD SWAP1 POP PUSH2 0x4D5 DUP2 PUSH2 0x4AF JUMP JUMPDEST SWAP3 SWAP2 POP POP JUMP JUMPDEST PUSH1 0x0 PUSH1 0x20 DUP3 DUP5 SUB SLT ISZERO PUSH2 0x4F1 JUMPI PUSH2 0x4F0 PUSH2 0x4AA JUMP JUMPDEST JUMPDEST PUSH1 0x0 PUSH2 0x4FF DUP5 DUP3 DUP6 ADD PUSH2 0x4C6 JUMP JUMPDEST SWAP2 POP POP SWAP3 SWAP2 POP POP JUMP JUMPDEST PUSH1 0x0 DUP2 MLOAD SWAP1 POP SWAP2 SWAP1 POP JUMP JUMPDEST PUSH1 0x0 DUP3 DUP3 MSTORE PUSH1 0x20 DUP3 ADD SWAP1 POP SWAP3 SWAP2 POP POP JUMP JUMPDEST PUSH1 0x0 DUP2 SWAP1 POP PUSH1 0x20 DUP3 ADD SWAP1 POP SWAP2 SWAP1 POP JUMP JUMPDEST PUSH2 0x53D DUP2 PUSH2 0x476 JUMP JUMPDEST DUP3 MSTORE POP POP JUMP JUMPDEST PUSH1 0x0 PUSH2 0x54F DUP4 DUP4 PUSH2 0x534 JUMP JUMPDEST PUSH1 0x20 DUP4 ADD SWAP1 POP SWAP3 SWAP2 POP POP JUMP JUMPDEST PUSH1 0x0 PUSH1 0x20 DUP3 ADD SWAP1 POP SWAP2 SWAP1 POP JUMP JUMPDEST PUSH1 0x0 PUSH2 0x573 DUP3 PUSH2 0x508 JUMP JUMPDEST PUSH2 0x57D DUP2 DUP6 PUSH2 0x513 JUMP JUMPDEST SWAP4 POP PUSH2 0x588 DUP4 PUSH2 0x524 JUMP JUMPDEST DUP1 PUSH1 0x0 JUMPDEST DUP4 DUP2 LT ISZERO PUSH2 0x5B9 JUMPI DUP2 MLOAD PUSH2 0x5A0 DUP9 DUP3 PUSH2 0x543 JUMP JUMPDEST SWAP8 POP PUSH2 0x5AB DUP4 PUSH2 0x55B JUMP JUMPDEST SWAP3 POP POP PUSH1 0x1 DUP2 ADD SWAP1 POP PUSH2 0x58C JUMP JUMPDEST POP DUP6 SWAP4 POP POP POP POP SWAP3 SWAP2 POP POP JUMP JUMPDEST PUSH1 0x0 PUSH1 0x20 DUP3 ADD SWAP1 POP DUP2 DUP2 SUB PUSH1 0x0 DUP4 ADD MSTORE PUSH2 0x5E0 DUP2 DUP5 PUSH2 0x568 JUMP JUMPDEST SWAP1 POP SWAP3 SWAP2 POP POP JUMP JUMPDEST PUSH32 0x4E487B7100000000000000000000000000000000000000000000000000000000 PUSH1 0x0 MSTORE PUSH1 0x21 PUSH1 0x4 MSTORE PUSH1 0x24 PUSH1 0x0 REVERT JUMPDEST PUSH1 0x2 DUP2 LT PUSH2 0x628 JUMPI PUSH2 0x627 PUSH2 0x5E8 JUMP JUMPDEST JUMPDEST POP JUMP JUMPDEST PUSH1 0x0 DUP2 SWAP1 POP PUSH2 0x639 DUP3 PUSH2 0x617 JUMP JUMPDEST SWAP2 SWAP1 POP JUMP JUMPDEST PUSH1 0x0 PUSH2 0x649 DUP3 PUSH2 0x62B JUMP JUMPDEST SWAP1 POP SWAP2 SWAP1 POP JUMP JUMPDEST PUSH2 0x659 DUP2 PUSH2 0x63E JUMP JUMPDEST DUP3 MSTORE POP POP JUMP JUMPDEST PUSH1 0x0 PUSH1 0x20 DUP3 ADD SWAP1 POP PUSH2 0x674 PUSH1 0x0 DUP4 ADD DUP5 PUSH2 0x650 JUMP JUMPDEST SWAP3 SWAP2 POP POP JUMP JUMPDEST PUSH32 0x4E487B7100000000000000000000000000000000000000000000000000000000 PUSH1 0x0 MSTORE PUSH1 0x41 PUSH1 0x4 MSTORE PUSH1 0x24 PUSH1 0x0 REVERT JUMPDEST PUSH32 0x4E487B7100000000000000000000000000000000000000000000000000000000 PUSH1 0x0 MSTORE PUSH1 0x32 PUSH1 0x4 MSTORE PUSH1 0x24 PUSH1 0x0 REVERT JUMPDEST PUSH32 0x4E487B7100000000000000000000000000000000000000000000000000000000 PUSH1 0x0 MSTORE PUSH1 0x11 PUSH1 0x4 MSTORE PUSH1 0x24 PUSH1 0x0 REVERT JUMPDEST PUSH1 0x0 PUSH2 0x712 DUP3 PUSH2 0x476 JUMP JUMPDEST SWAP2 POP PUSH32 0xFFFFFFFFFFFFFFFFFFFFFFFFFFFFFFFFFFFFFFFFFFFFFFFFFFFFFFFFFFFFFFFF DUP3 SUB PUSH2 0x744 JUMPI PUSH2 0x743 PUSH2 0x6D8 JUMP JUMPDEST JUMPDEST PUSH1 0x1 DUP3 ADD SWAP1 POP SWAP2 SWAP1 POP JUMP INVALID LOG2 PUSH5 0x6970667358 0x22 SLT KECCAK256 AND 0xA8 PUSH20 0x6C381AD76B99401675175710C45EC0AD1C5C09E4 SWAP7 0xD4 0xF8 0xF6 NUMBER 0x2F MSTORE RETURNDATACOPY CALLER PUSH5 0x736F6C6343 STOP ADDMOD SLT STOP CALLER LOG2 PUSH5 0x6970667358 0x22 SLT KECCAK256 0x1E 0xE4 PUSH13 0x2CB1DD95F954629B21CEF8D449 PUSH31 0x8F6C20E544679C4C7EE5238824071464736F6C634300081200330000000000 "
				},
				"gasEstimates": {
					"creation": {
						"codeDepositCost": "1468200",
						"executionCost": "1534",
						"totalCost": "1469734"
					},
					"external": {
						"addNewOracle(uint256,uint256)": "infinite",
						"addNewRecipient(uint256,uint256)": "infinite",
						"createNewUser(uint256)": "infinite",
						"getAllOracles(uint256)": "infinite",
						"getAllRecipients(uint256)": "infinite",
						"getAllUsers()": "infinite",
						"users_list(uint256)": "infinite"
					},
					"internal": {
						"isUserExists(uint256)": "infinite"
					}
				},
				"methodIdentifiers": {
					"addNewOracle(uint256,uint256)": "2661317e",
					"addNewRecipient(uint256,uint256)": "1440a7f2",
					"createNewUser(uint256)": "adebaea6",
					"getAllOracles(uint256)": "9efb6289",
					"getAllRecipients(uint256)": "fcd6704c",
					"getAllUsers()": "e2842d79",
					"users_list(uint256)": "a32da9d1"
				}
			},
			"storageLayout": {
				"storage": [
					{
						"astId": 184,
						"contract": ".deps/contract/contract.sol:lincloud",
						"label": "users_list",
						"offset": 0,
						"slot": "0",
						"type": "t_array(t_contract(user)177)dyn_storage"
					}
				],
				"types": {
					"t_array(t_contract(user)177)dyn_storage": {
						"base": "t_contract(user)177",
						"encoding": "dynamic_array",
						"label": "contract user[]",
						"numberOfBytes": "32"
					},
					"t_contract(user)177": {
						"encoding": "inplace",
						"label": "contract user",
						"numberOfBytes": "20"
					}
				}
			},
			"userdoc": {
				"kind": "user",
				"methods": {},
				"version": 1
			}
		}
	}
}