{
	".deps/contract/contract.sol": {
		"user": {
			"abi": [
				{
					"inputs": [
						{
							"internalType": "uint256",
							"name": "id",
							"type": "uint256"
						}
					],
					"stateMutability": "nonpayable",
					"type": "constructor"
				},
				{
					"inputs": [],
					"name": "actual_user_state",
					"outputs": [
						{
							"internalType": "enum user.user_state",
							"name": "",
							"type": "uint8"
						}
					],
					"stateMutability": "view",
					"type": "function"
				},
				{
					"inputs": [
						{
							"internalType": "uint256",
							"name": "oracleId",
							"type": "uint256"
						}
					],
					"name": "addOracle",
					"outputs": [],
					"stateMutability": "nonpayable",
					"type": "function"
				},
				{
					"inputs": [
						{
							"internalType": "uint256",
							"name": "recipientId",
							"type": "uint256"
						}
					],
					"name": "addRecipient",
					"outputs": [],
					"stateMutability": "nonpayable",
					"type": "function"
				},
				{
					"inputs": [],
					"name": "getAllOracles",
					"outputs": [
						{
							"internalType": "uint256[]",
							"name": "",
							"type": "uint256[]"
						}
					],
					"stateMutability": "view",
					"type": "function"
				},
				{
					"inputs": [],
					"name": "getAllRecipients",
					"outputs": [
						{
							"internalType": "uint256[]",
							"name": "",
							"type": "uint256[]"
						}
					],
					"stateMutability": "view",
					"type": "function"
				},
				{
					"inputs": [],
					"name": "getUserId",
					"outputs": [
						{
							"internalType": "uint256",
							"name": "",
							"type": "uint256"
						}
					],
					"stateMutability": "view",
					"type": "function"
				},
				{
					"inputs": [],
					"name": "id_user",
					"outputs": [
						{
							"internalType": "uint256",
							"name": "",
							"type": "uint256"
						}
					],
					"stateMutability": "view",
					"type": "function"
				},
				{
					"inputs": [
						{
							"internalType": "uint256",
							"name": "",
							"type": "uint256"
						}
					],
					"name": "oracles_list",
					"outputs": [
						{
							"internalType": "uint256",
							"name": "id_oracle",
							"type": "uint256"
						}
					],
					"stateMutability": "view",
					"type": "function"
				},
				{
					"inputs": [
						{
							"internalType": "uint256",
							"name": "",
							"type": "uint256"
						}
					],
					"name": "recipients_list",
					"outputs": [
						{
							"internalType": "uint256",
							"name": "id_recipient",
							"type": "uint256"
						}
					],
					"stateMutability": "view",
					"type": "function"
				}
			],
			"devdoc": {
				"kind": "dev",
				"methods": {},
				"version": 1
			},
			"evm": {
				"assembly": "    /* \".deps/contract/contract.sol\":65:1667  contract user{... */\n  mstore(0x40, 0x80)\n    /* \".deps/contract/contract.sol\":398:499  constructor(uint256 id){... */\n  callvalue\n  dup1\n  iszero\n  tag_1\n  jumpi\n  0x00\n  dup1\n  revert\ntag_1:\n  pop\n  mload(0x40)\n  sub(codesize, bytecodeSize)\n  dup1\n  bytecodeSize\n  dup4\n  codecopy\n  dup2\n  dup2\n  add\n  0x40\n  mstore\n  dup2\n  add\n  swap1\n  tag_2\n  swap2\n  swap1\n  tag_3\n  jump\t// in\ntag_2:\n    /* \".deps/contract/contract.sol\":442:444  id */\n  dup1\n    /* \".deps/contract/contract.sol\":432:439  id_user */\n  0x00\n    /* \".deps/contract/contract.sol\":432:444  id_user = id */\n  dup2\n  swap1\n  sstore\n  pop\n    /* \".deps/contract/contract.sol\":475:491  user_state.alive */\n  0x01\n    /* \".deps/contract/contract.sol\":455:472  actual_user_state */\n  dup1\n  0x00\n    /* \".deps/contract/contract.sol\":455:491  actual_user_state = user_state.alive */\n  0x0100\n  exp\n  dup2\n  sload\n  dup2\n  0xff\n  mul\n  not\n  and\n  swap1\n  dup4\n  0x01\n  dup2\n  gt\n  iszero\n  tag_6\n  jumpi\n  tag_7\n  tag_8\n  jump\t// in\ntag_7:\ntag_6:\n  mul\n  or\n  swap1\n  sstore\n  pop\n    /* \".deps/contract/contract.sol\":398:499  constructor(uint256 id){... */\n  pop\n    /* \".deps/contract/contract.sol\":65:1667  contract user{... */\n  jump(tag_9)\n    /* \"#utility.yul\":88:205   */\ntag_11:\n    /* \"#utility.yul\":197:198   */\n  0x00\n    /* \"#utility.yul\":194:195   */\n  dup1\n    /* \"#utility.yul\":187:199   */\n  revert\n    /* \"#utility.yul\":334:411   */\ntag_13:\n    /* \"#utility.yul\":371:378   */\n  0x00\n    /* \"#utility.yul\":400:405   */\n  dup2\n    /* \"#utility.yul\":389:405   */\n  swap1\n  pop\n    /* \"#utility.yul\":334:411   */\n  swap2\n  swap1\n  pop\n  jump\t// out\n    /* \"#utility.yul\":417:539   */\ntag_14:\n    /* \"#utility.yul\":490:514   */\n  tag_22\n    /* \"#utility.yul\":508:513   */\n  dup2\n    /* \"#utility.yul\":490:514   */\n  tag_13\n  jump\t// in\ntag_22:\n    /* \"#utility.yul\":483:488   */\n  dup2\n    /* \"#utility.yul\":480:515   */\n  eq\n    /* \"#utility.yul\":470:533   */\n  tag_23\n  jumpi\n    /* \"#utility.yul\":529:530   */\n  0x00\n    /* \"#utility.yul\":526:527   */\n  dup1\n    /* \"#utility.yul\":519:531   */\n  revert\n    /* \"#utility.yul\":470:533   */\ntag_23:\n    /* \"#utility.yul\":417:539   */\n  pop\n  jump\t// out\n    /* \"#utility.yul\":545:688   */\ntag_15:\n    /* \"#utility.yul\":602:607   */\n  0x00\n    /* \"#utility.yul\":633:639   */\n  dup2\n    /* \"#utility.yul\":627:640   */\n  mload\n    /* \"#utility.yul\":618:640   */\n  swap1\n  pop\n    /* \"#utility.yul\":649:682   */\n  tag_25\n    /* \"#utility.yul\":676:681   */\n  dup2\n    /* \"#utility.yul\":649:682   */\n  tag_14\n  jump\t// in\ntag_25:\n    /* \"#utility.yul\":545:688   */\n  swap3\n  swap2\n  pop\n  pop\n  jump\t// out\n    /* \"#utility.yul\":694:1045   */\ntag_3:\n    /* \"#utility.yul\":764:770   */\n  0x00\n    /* \"#utility.yul\":813:815   */\n  0x20\n    /* \"#utility.yul\":801:810   */\n  dup3\n    /* \"#utility.yul\":792:799   */\n  dup5\n    /* \"#utility.yul\":788:811   */\n  sub\n    /* \"#utility.yul\":784:816   */\n  slt\n    /* \"#utility.yul\":781:900   */\n  iszero\n  tag_27\n  jumpi\n    /* \"#utility.yul\":819:898   */\n  tag_28\n  tag_11\n  jump\t// in\ntag_28:\n    /* \"#utility.yul\":781:900   */\ntag_27:\n    /* \"#utility.yul\":939:940   */\n  0x00\n    /* \"#utility.yul\":964:1028   */\n  tag_29\n    /* \"#utility.yul\":1020:1027   */\n  dup5\n    /* \"#utility.yul\":1011:1017   */\n  dup3\n    /* \"#utility.yul\":1000:1009   */\n  dup6\n    /* \"#utility.yul\":996:1018   */\n  add\n    /* \"#utility.yul\":964:1028   */\n  tag_15\n  jump\t// in\ntag_29:\n    /* \"#utility.yul\":954:1028   */\n  swap2\n  pop\n    /* \"#utility.yul\":910:1038   */\n  pop\n    /* \"#utility.yul\":694:1045   */\n  swap3\n  swap2\n  pop\n  pop\n  jump\t// out\n    /* \"#utility.yul\":1051:1231   */\ntag_8:\n    /* \"#utility.yul\":1099:1176   */\n  0x4e487b7100000000000000000000000000000000000000000000000000000000\n    /* \"#utility.yul\":1096:1097   */\n  0x00\n    /* \"#utility.yul\":1089:1177   */\n  mstore\n    /* \"#utility.yul\":1196:1200   */\n  0x21\n    /* \"#utility.yul\":1193:1194   */\n  0x04\n    /* \"#utility.yul\":1186:1201   */\n  mstore\n    /* \"#utility.yul\":1220:1224   */\n  0x24\n    /* \"#utility.yul\":1217:1218   */\n  0x00\n    /* \"#utility.yul\":1210:1225   */\n  revert\n    /* \".deps/contract/contract.sol\":65:1667  contract user{... */\ntag_9:\n  dataSize(sub_0)\n  dup1\n  dataOffset(sub_0)\n  0x00\n  codecopy\n  0x00\n  return\nstop\n\nsub_0: assembly {\n        /* \".deps/contract/contract.sol\":65:1667  contract user{... */\n      mstore(0x40, 0x80)\n      callvalue\n      dup1\n      iszero\n      tag_1\n      jumpi\n      0x00\n      dup1\n      revert\n    tag_1:\n      pop\n      jumpi(tag_2, lt(calldatasize, 0x04))\n      shr(0xe0, calldataload(0x00))\n      dup1\n      0x84731d6f\n      gt\n      tag_12\n      jumpi\n      dup1\n      0x84731d6f\n      eq\n      tag_7\n      jumpi\n      dup1\n      0x8cee71e0\n      eq\n      tag_8\n      jumpi\n      dup1\n      0xb74513c1\n      eq\n      tag_9\n      jumpi\n      dup1\n      0xe5a72d5b\n      eq\n      tag_10\n      jumpi\n      dup1\n      0xfc68b3ed\n      eq\n      tag_11\n      jumpi\n      jump(tag_2)\n    tag_12:\n      dup1\n      0x2ebcb653\n      eq\n      tag_3\n      jumpi\n      dup1\n      0x42be8cb5\n      eq\n      tag_4\n      jumpi\n      dup1\n      0x499ba0aa\n      eq\n      tag_5\n      jumpi\n      dup1\n      0x65a6bb29\n      eq\n      tag_6\n      jumpi\n    tag_2:\n      0x00\n      dup1\n      revert\n        /* \".deps/contract/contract.sol\":507:590  function getUserId() public view returns (uint256){... */\n    tag_3:\n      tag_13\n      tag_14\n      jump\t// in\n    tag_13:\n      mload(0x40)\n      tag_15\n      swap2\n      swap1\n      tag_16\n      jump\t// in\n    tag_15:\n      mload(0x40)\n      dup1\n      swap2\n      sub\n      swap1\n      return\n        /* \".deps/contract/contract.sol\":360:388  Oracle[] public oracles_list */\n    tag_4:\n      tag_17\n      0x04\n      dup1\n      calldatasize\n      sub\n      dup2\n      add\n      swap1\n      tag_18\n      swap2\n      swap1\n      tag_19\n      jump\t// in\n    tag_18:\n      tag_20\n      jump\t// in\n    tag_17:\n      mload(0x40)\n      tag_21\n      swap2\n      swap1\n      tag_16\n      jump\t// in\n    tag_21:\n      mload(0x40)\n      dup1\n      swap2\n      sub\n      swap1\n      return\n        /* \".deps/contract/contract.sol\":319:353  Recipient[] public recipients_list */\n    tag_5:\n      tag_22\n      0x04\n      dup1\n      calldatasize\n      sub\n      dup2\n      add\n      swap1\n      tag_23\n      swap2\n      swap1\n      tag_19\n      jump\t// in\n    tag_23:\n      tag_24\n      jump\t// in\n    tag_22:\n      mload(0x40)\n      tag_25\n      swap2\n      swap1\n      tag_16\n      jump\t// in\n    tag_25:\n      mload(0x40)\n      dup1\n      swap2\n      sub\n      swap1\n      return\n        /* \".deps/contract/contract.sol\":929:1231  function getAllOracles() public view returns (uint256[] memory){... */\n    tag_6:\n      tag_26\n      tag_27\n      jump\t// in\n    tag_26:\n      mload(0x40)\n      tag_28\n      swap2\n      swap1\n      tag_29\n      jump\t// in\n    tag_28:\n      mload(0x40)\n      dup1\n      swap2\n      sub\n      swap1\n      return\n        /* \".deps/contract/contract.sol\":277:312  user_state public actual_user_state */\n    tag_7:\n      tag_30\n      tag_31\n      jump\t// in\n    tag_30:\n      mload(0x40)\n      tag_32\n      swap2\n      swap1\n      tag_33\n      jump\t// in\n    tag_32:\n      mload(0x40)\n      dup1\n      swap2\n      sub\n      swap1\n      return\n        /* \".deps/contract/contract.sol\":248:270  uint256 public id_user */\n    tag_8:\n      tag_34\n      tag_35\n      jump\t// in\n    tag_34:\n      mload(0x40)\n      tag_36\n      swap2\n      swap1\n      tag_16\n      jump\t// in\n    tag_36:\n      mload(0x40)\n      dup1\n      swap2\n      sub\n      swap1\n      return\n        /* \".deps/contract/contract.sol\":598:921  function getAllRecipients() public view returns (uint256[] memory){... */\n    tag_9:\n      tag_37\n      tag_38\n      jump\t// in\n    tag_37:\n      mload(0x40)\n      tag_39\n      swap2\n      swap1\n      tag_29\n      jump\t// in\n    tag_39:\n      mload(0x40)\n      dup1\n      swap2\n      sub\n      swap1\n      return\n        /* \".deps/contract/contract.sol\":1469:1664  function addOracle(uint256 oracleId) public { // non deve essere public... */\n    tag_10:\n      tag_40\n      0x04\n      dup1\n      calldatasize\n      sub\n      dup2\n      add\n      swap1\n      tag_41\n      swap2\n      swap1\n      tag_19\n      jump\t// in\n    tag_41:\n      tag_42\n      jump\t// in\n    tag_40:\n      stop\n        /* \".deps/contract/contract.sol\":1239:1461  function addRecipient(uint256 recipientId) public { // non deve essere public... */\n    tag_11:\n      tag_43\n      0x04\n      dup1\n      calldatasize\n      sub\n      dup2\n      add\n      swap1\n      tag_44\n      swap2\n      swap1\n      tag_19\n      jump\t// in\n    tag_44:\n      tag_45\n      jump\t// in\n    tag_43:\n      stop\n        /* \".deps/contract/contract.sol\":507:590  function getUserId() public view returns (uint256){... */\n    tag_14:\n        /* \".deps/contract/contract.sol\":549:556  uint256 */\n      0x00\n        /* \".deps/contract/contract.sol\":575:582  id_user */\n      dup1\n      sload\n        /* \".deps/contract/contract.sol\":568:582  return id_user */\n      swap1\n      pop\n        /* \".deps/contract/contract.sol\":507:590  function getUserId() public view returns (uint256){... */\n      swap1\n      jump\t// out\n        /* \".deps/contract/contract.sol\":360:388  Oracle[] public oracles_list */\n    tag_20:\n      0x03\n      dup2\n      dup2\n      sload\n      dup2\n      lt\n      tag_47\n      jumpi\n      0x00\n      dup1\n      revert\n    tag_47:\n      swap1\n      0x00\n      mstore\n      keccak256(0x00, 0x20)\n      add\n      0x00\n      swap2\n      pop\n      swap1\n      pop\n      dup1\n      0x00\n      add\n      sload\n      swap1\n      pop\n      dup2\n      jump\t// out\n        /* \".deps/contract/contract.sol\":319:353  Recipient[] public recipients_list */\n    tag_24:\n      0x02\n      dup2\n      dup2\n      sload\n      dup2\n      lt\n      tag_49\n      jumpi\n      0x00\n      dup1\n      revert\n    tag_49:\n      swap1\n      0x00\n      mstore\n      keccak256(0x00, 0x20)\n      add\n      0x00\n      swap2\n      pop\n      swap1\n      pop\n      dup1\n      0x00\n      add\n      sload\n      swap1\n      pop\n      dup2\n      jump\t// out\n        /* \".deps/contract/contract.sol\":929:1231  function getAllOracles() public view returns (uint256[] memory){... */\n    tag_27:\n        /* \".deps/contract/contract.sol\":975:991  uint256[] memory */\n      0x60\n        /* \".deps/contract/contract.sol\":1003:1030  uint256[] memory oraclesIds */\n      0x00\n        /* \".deps/contract/contract.sol\":1047:1059  oracles_list */\n      0x03\n        /* \".deps/contract/contract.sol\":1047:1066  oracles_list.length */\n      dup1\n      sload\n      swap1\n      pop\n        /* \".deps/contract/contract.sol\":1033:1067  new uint256[](oracles_list.length) */\n      0xffffffffffffffff\n      dup2\n      gt\n      iszero\n      tag_52\n      jumpi\n      tag_53\n      tag_54\n      jump\t// in\n    tag_53:\n    tag_52:\n      mload(0x40)\n      swap1\n      dup1\n      dup3\n      mstore\n      dup1\n      0x20\n      mul\n      0x20\n      add\n      dup3\n      add\n      0x40\n      mstore\n      dup1\n      iszero\n      tag_55\n      jumpi\n      dup2\n      0x20\n      add\n      0x20\n      dup3\n      mul\n      dup1\n      calldatasize\n      dup4\n      calldatacopy\n      dup1\n      dup3\n      add\n      swap2\n      pop\n      pop\n      swap1\n      pop\n    tag_55:\n      pop\n        /* \".deps/contract/contract.sol\":1003:1067  uint256[] memory oraclesIds = new uint256[](oracles_list.length) */\n      swap1\n      pop\n        /* \".deps/contract/contract.sol\":1083:1092  uint256 i */\n      0x00\n        /* \".deps/contract/contract.sol\":1078:1196  for (uint256 i = 0; i < oracles_list.length; i++) {... */\n    tag_56:\n        /* \".deps/contract/contract.sol\":1102:1114  oracles_list */\n      0x03\n        /* \".deps/contract/contract.sol\":1102:1121  oracles_list.length */\n      dup1\n      sload\n      swap1\n      pop\n        /* \".deps/contract/contract.sol\":1098:1099  i */\n      dup2\n        /* \".deps/contract/contract.sol\":1098:1121  i < oracles_list.length */\n      lt\n        /* \".deps/contract/contract.sol\":1078:1196  for (uint256 i = 0; i < oracles_list.length; i++) {... */\n      iszero\n      tag_57\n      jumpi\n        /* \".deps/contract/contract.sol\":1159:1171  oracles_list */\n      0x03\n        /* \".deps/contract/contract.sol\":1172:1173  i */\n      dup2\n        /* \".deps/contract/contract.sol\":1159:1174  oracles_list[i] */\n      dup2\n      sload\n      dup2\n      lt\n      tag_59\n      jumpi\n      tag_60\n      tag_61\n      jump\t// in\n    tag_60:\n    tag_59:\n      swap1\n      0x00\n      mstore\n      keccak256(0x00, 0x20)\n      add\n        /* \".deps/contract/contract.sol\":1159:1184  oracles_list[i].id_oracle */\n      0x00\n      add\n      sload\n        /* \".deps/contract/contract.sol\":1143:1153  oraclesIds */\n      dup3\n        /* \".deps/contract/contract.sol\":1154:1155  i */\n      dup3\n        /* \".deps/contract/contract.sol\":1143:1156  oraclesIds[i] */\n      dup2\n      mload\n      dup2\n      lt\n      tag_63\n      jumpi\n      tag_64\n      tag_61\n      jump\t// in\n    tag_64:\n    tag_63:\n      0x20\n      mul\n      0x20\n      add\n      add\n        /* \".deps/contract/contract.sol\":1143:1184  oraclesIds[i] = oracles_list[i].id_oracle */\n      dup2\n      dup2\n      mstore\n      pop\n      pop\n        /* \".deps/contract/contract.sol\":1123:1126  i++ */\n      dup1\n      dup1\n      tag_65\n      swap1\n      tag_66\n      jump\t// in\n    tag_65:\n      swap2\n      pop\n      pop\n        /* \".deps/contract/contract.sol\":1078:1196  for (uint256 i = 0; i < oracles_list.length; i++) {... */\n      jump(tag_56)\n    tag_57:\n      pop\n        /* \".deps/contract/contract.sol\":1213:1223  oraclesIds */\n      dup1\n        /* \".deps/contract/contract.sol\":1206:1223  return oraclesIds */\n      swap2\n      pop\n      pop\n        /* \".deps/contract/contract.sol\":929:1231  function getAllOracles() public view returns (uint256[] memory){... */\n      swap1\n      jump\t// out\n        /* \".deps/contract/contract.sol\":277:312  user_state public actual_user_state */\n    tag_31:\n      0x01\n      0x00\n      swap1\n      sload\n      swap1\n      0x0100\n      exp\n      swap1\n      div\n      0xff\n      and\n      dup2\n      jump\t// out\n        /* \".deps/contract/contract.sol\":248:270  uint256 public id_user */\n    tag_35:\n      sload(0x00)\n      dup2\n      jump\t// out\n        /* \".deps/contract/contract.sol\":598:921  function getAllRecipients() public view returns (uint256[] memory){... */\n    tag_38:\n        /* \".deps/contract/contract.sol\":647:663  uint256[] memory */\n      0x60\n        /* \".deps/contract/contract.sol\":675:704  uint256[] memory recipientIDs */\n      0x00\n        /* \".deps/contract/contract.sol\":721:736  recipients_list */\n      0x02\n        /* \".deps/contract/contract.sol\":721:743  recipients_list.length */\n      dup1\n      sload\n      swap1\n      pop\n        /* \".deps/contract/contract.sol\":707:744  new uint256[](recipients_list.length) */\n      0xffffffffffffffff\n      dup2\n      gt\n      iszero\n      tag_68\n      jumpi\n      tag_69\n      tag_54\n      jump\t// in\n    tag_69:\n    tag_68:\n      mload(0x40)\n      swap1\n      dup1\n      dup3\n      mstore\n      dup1\n      0x20\n      mul\n      0x20\n      add\n      dup3\n      add\n      0x40\n      mstore\n      dup1\n      iszero\n      tag_70\n      jumpi\n      dup2\n      0x20\n      add\n      0x20\n      dup3\n      mul\n      dup1\n      calldatasize\n      dup4\n      calldatacopy\n      dup1\n      dup3\n      add\n      swap2\n      pop\n      pop\n      swap1\n      pop\n    tag_70:\n      pop\n        /* \".deps/contract/contract.sol\":675:744  uint256[] memory recipientIDs = new uint256[](recipients_list.length) */\n      swap1\n      pop\n        /* \".deps/contract/contract.sol\":760:769  uint256 i */\n      0x00\n        /* \".deps/contract/contract.sol\":755:884  for (uint256 i = 0; i < recipients_list.length; i++) {... */\n    tag_71:\n        /* \".deps/contract/contract.sol\":779:794  recipients_list */\n      0x02\n        /* \".deps/contract/contract.sol\":779:801  recipients_list.length */\n      dup1\n      sload\n      swap1\n      pop\n        /* \".deps/contract/contract.sol\":775:776  i */\n      dup2\n        /* \".deps/contract/contract.sol\":775:801  i < recipients_list.length */\n      lt\n        /* \".deps/contract/contract.sol\":755:884  for (uint256 i = 0; i < recipients_list.length; i++) {... */\n      iszero\n      tag_72\n      jumpi\n        /* \".deps/contract/contract.sol\":841:856  recipients_list */\n      0x02\n        /* \".deps/contract/contract.sol\":857:858  i */\n      dup2\n        /* \".deps/contract/contract.sol\":841:859  recipients_list[i] */\n      dup2\n      sload\n      dup2\n      lt\n      tag_74\n      jumpi\n      tag_75\n      tag_61\n      jump\t// in\n    tag_75:\n    tag_74:\n      swap1\n      0x00\n      mstore\n      keccak256(0x00, 0x20)\n      add\n        /* \".deps/contract/contract.sol\":841:872  recipients_list[i].id_recipient */\n      0x00\n      add\n      sload\n        /* \".deps/contract/contract.sol\":823:835  recipientIDs */\n      dup3\n        /* \".deps/contract/contract.sol\":836:837  i */\n      dup3\n        /* \".deps/contract/contract.sol\":823:838  recipientIDs[i] */\n      dup2\n      mload\n      dup2\n      lt\n      tag_77\n      jumpi\n      tag_78\n      tag_61\n      jump\t// in\n    tag_78:\n    tag_77:\n      0x20\n      mul\n      0x20\n      add\n      add\n        /* \".deps/contract/contract.sol\":823:872  recipientIDs[i] = recipients_list[i].id_recipient */\n      dup2\n      dup2\n      mstore\n      pop\n      pop\n        /* \".deps/contract/contract.sol\":803:806  i++ */\n      dup1\n      dup1\n      tag_79\n      swap1\n      tag_66\n      jump\t// in\n    tag_79:\n      swap2\n      pop\n      pop\n        /* \".deps/contract/contract.sol\":755:884  for (uint256 i = 0; i < recipients_list.length; i++) {... */\n      jump(tag_71)\n    tag_72:\n      pop\n        /* \".deps/contract/contract.sol\":901:913  recipientIDs */\n      dup1\n        /* \".deps/contract/contract.sol\":894:913  return recipientIDs */\n      swap2\n      pop\n      pop\n        /* \".deps/contract/contract.sol\":598:921  function getAllRecipients() public view returns (uint256[] memory){... */\n      swap1\n      jump\t// out\n        /* \".deps/contract/contract.sol\":1469:1664  function addOracle(uint256 oracleId) public { // non deve essere public... */\n    tag_42:\n        /* \".deps/contract/contract.sol\":1550:1574  Oracle memory new_oracle */\n      tag_81\n      tag_82\n      jump\t// in\n    tag_81:\n        /* \".deps/contract/contract.sol\":1608:1616  oracleId */\n      dup2\n        /* \".deps/contract/contract.sol\":1585:1595  new_oracle */\n      dup2\n        /* \".deps/contract/contract.sol\":1585:1605  new_oracle.id_oracle */\n      0x00\n      add\n        /* \".deps/contract/contract.sol\":1585:1616  new_oracle.id_oracle = oracleId */\n      dup2\n      dup2\n      mstore\n      pop\n      pop\n        /* \".deps/contract/contract.sol\":1627:1639  oracles_list */\n      0x03\n        /* \".deps/contract/contract.sol\":1645:1655  new_oracle */\n      dup2\n        /* \".deps/contract/contract.sol\":1627:1656  oracles_list.push(new_oracle) */\n      swap1\n      dup1\n      0x01\n      dup2\n      sload\n      add\n      dup1\n      dup3\n      sstore\n      dup1\n      swap2\n      pop\n      pop\n      0x01\n      swap1\n      sub\n      swap1\n      0x00\n      mstore\n      keccak256(0x00, 0x20)\n      add\n      0x00\n      swap1\n      swap2\n      swap1\n      swap2\n      swap1\n      swap2\n      pop\n      0x00\n      dup3\n      add\n      mload\n      dup2\n      0x00\n      add\n      sstore\n      pop\n      pop\n        /* \".deps/contract/contract.sol\":1513:1664  { // non deve essere public... */\n      pop\n        /* \".deps/contract/contract.sol\":1469:1664  function addOracle(uint256 oracleId) public { // non deve essere public... */\n      pop\n      jump\t// out\n        /* \".deps/contract/contract.sol\":1239:1461  function addRecipient(uint256 recipientId) public { // non deve essere public... */\n    tag_45:\n        /* \".deps/contract/contract.sol\":1326:1356  Recipient memory new_recipient */\n      tag_85\n      tag_86\n      jump\t// in\n    tag_85:\n        /* \".deps/contract/contract.sol\":1396:1407  recipientId */\n      dup2\n        /* \".deps/contract/contract.sol\":1367:1380  new_recipient */\n      dup2\n        /* \".deps/contract/contract.sol\":1367:1393  new_recipient.id_recipient */\n      0x00\n      add\n        /* \".deps/contract/contract.sol\":1367:1407  new_recipient.id_recipient = recipientId */\n      dup2\n      dup2\n      mstore\n      pop\n      pop\n        /* \".deps/contract/contract.sol\":1418:1433  recipients_list */\n      0x02\n        /* \".deps/contract/contract.sol\":1439:1452  new_recipient */\n      dup2\n        /* \".deps/contract/contract.sol\":1418:1453  recipients_list.push(new_recipient) */\n      swap1\n      dup1\n      0x01\n      dup2\n      sload\n      add\n      dup1\n      dup3\n      sstore\n      dup1\n      swap2\n      pop\n      pop\n      0x01\n      swap1\n      sub\n      swap1\n      0x00\n      mstore\n      keccak256(0x00, 0x20)\n      add\n      0x00\n      swap1\n      swap2\n      swap1\n      swap2\n      swap1\n      swap2\n      pop\n      0x00\n      dup3\n      add\n      mload\n      dup2\n      0x00\n      add\n      sstore\n      pop\n      pop\n        /* \".deps/contract/contract.sol\":1289:1461  { // non deve essere public... */\n      pop\n        /* \".deps/contract/contract.sol\":1239:1461  function addRecipient(uint256 recipientId) public { // non deve essere public... */\n      pop\n      jump\t// out\n    tag_82:\n      mload(0x40)\n      dup1\n      0x20\n      add\n      0x40\n      mstore\n      dup1\n      0x00\n      dup2\n      mstore\n      pop\n      swap1\n      jump\t// out\n    tag_86:\n      mload(0x40)\n      dup1\n      0x20\n      add\n      0x40\n      mstore\n      dup1\n      0x00\n      dup2\n      mstore\n      pop\n      swap1\n      jump\t// out\n        /* \"#utility.yul\":7:84   */\n    tag_88:\n        /* \"#utility.yul\":44:51   */\n      0x00\n        /* \"#utility.yul\":73:78   */\n      dup2\n        /* \"#utility.yul\":62:78   */\n      swap1\n      pop\n        /* \"#utility.yul\":7:84   */\n      swap2\n      swap1\n      pop\n      jump\t// out\n        /* \"#utility.yul\":90:208   */\n    tag_89:\n        /* \"#utility.yul\":177:201   */\n      tag_111\n        /* \"#utility.yul\":195:200   */\n      dup2\n        /* \"#utility.yul\":177:201   */\n      tag_88\n      jump\t// in\n    tag_111:\n        /* \"#utility.yul\":172:175   */\n      dup3\n        /* \"#utility.yul\":165:202   */\n      mstore\n        /* \"#utility.yul\":90:208   */\n      pop\n      pop\n      jump\t// out\n        /* \"#utility.yul\":214:436   */\n    tag_16:\n        /* \"#utility.yul\":307:311   */\n      0x00\n        /* \"#utility.yul\":345:347   */\n      0x20\n        /* \"#utility.yul\":334:343   */\n      dup3\n        /* \"#utility.yul\":330:348   */\n      add\n        /* \"#utility.yul\":322:348   */\n      swap1\n      pop\n        /* \"#utility.yul\":358:429   */\n      tag_113\n        /* \"#utility.yul\":426:427   */\n      0x00\n        /* \"#utility.yul\":415:424   */\n      dup4\n        /* \"#utility.yul\":411:428   */\n      add\n        /* \"#utility.yul\":402:408   */\n      dup5\n        /* \"#utility.yul\":358:429   */\n      tag_89\n      jump\t// in\n    tag_113:\n        /* \"#utility.yul\":214:436   */\n      swap3\n      swap2\n      pop\n      pop\n      jump\t// out\n        /* \"#utility.yul\":523:640   */\n    tag_91:\n        /* \"#utility.yul\":632:633   */\n      0x00\n        /* \"#utility.yul\":629:630   */\n      dup1\n        /* \"#utility.yul\":622:634   */\n      revert\n        /* \"#utility.yul\":769:891   */\n    tag_93:\n        /* \"#utility.yul\":842:866   */\n      tag_118\n        /* \"#utility.yul\":860:865   */\n      dup2\n        /* \"#utility.yul\":842:866   */\n      tag_88\n      jump\t// in\n    tag_118:\n        /* \"#utility.yul\":835:840   */\n      dup2\n        /* \"#utility.yul\":832:867   */\n      eq\n        /* \"#utility.yul\":822:885   */\n      tag_119\n      jumpi\n        /* \"#utility.yul\":881:882   */\n      0x00\n        /* \"#utility.yul\":878:879   */\n      dup1\n        /* \"#utility.yul\":871:883   */\n      revert\n        /* \"#utility.yul\":822:885   */\n    tag_119:\n        /* \"#utility.yul\":769:891   */\n      pop\n      jump\t// out\n        /* \"#utility.yul\":897:1036   */\n    tag_94:\n        /* \"#utility.yul\":943:948   */\n      0x00\n        /* \"#utility.yul\":981:987   */\n      dup2\n        /* \"#utility.yul\":968:988   */\n      calldataload\n        /* \"#utility.yul\":959:988   */\n      swap1\n      pop\n        /* \"#utility.yul\":997:1030   */\n      tag_121\n        /* \"#utility.yul\":1024:1029   */\n      dup2\n        /* \"#utility.yul\":997:1030   */\n      tag_93\n      jump\t// in\n    tag_121:\n        /* \"#utility.yul\":897:1036   */\n      swap3\n      swap2\n      pop\n      pop\n      jump\t// out\n        /* \"#utility.yul\":1042:1371   */\n    tag_19:\n        /* \"#utility.yul\":1101:1107   */\n      0x00\n        /* \"#utility.yul\":1150:1152   */\n      0x20\n        /* \"#utility.yul\":1138:1147   */\n      dup3\n        /* \"#utility.yul\":1129:1136   */\n      dup5\n        /* \"#utility.yul\":1125:1148   */\n      sub\n        /* \"#utility.yul\":1121:1153   */\n      slt\n        /* \"#utility.yul\":1118:1237   */\n      iszero\n      tag_123\n      jumpi\n        /* \"#utility.yul\":1156:1235   */\n      tag_124\n      tag_91\n      jump\t// in\n    tag_124:\n        /* \"#utility.yul\":1118:1237   */\n    tag_123:\n        /* \"#utility.yul\":1276:1277   */\n      0x00\n        /* \"#utility.yul\":1301:1354   */\n      tag_125\n        /* \"#utility.yul\":1346:1353   */\n      dup5\n        /* \"#utility.yul\":1337:1343   */\n      dup3\n        /* \"#utility.yul\":1326:1335   */\n      dup6\n        /* \"#utility.yul\":1322:1344   */\n      add\n        /* \"#utility.yul\":1301:1354   */\n      tag_94\n      jump\t// in\n    tag_125:\n        /* \"#utility.yul\":1291:1354   */\n      swap2\n      pop\n        /* \"#utility.yul\":1247:1364   */\n      pop\n        /* \"#utility.yul\":1042:1371   */\n      swap3\n      swap2\n      pop\n      pop\n      jump\t// out\n        /* \"#utility.yul\":1377:1491   */\n    tag_95:\n        /* \"#utility.yul\":1444:1450   */\n      0x00\n        /* \"#utility.yul\":1478:1483   */\n      dup2\n        /* \"#utility.yul\":1472:1484   */\n      mload\n        /* \"#utility.yul\":1462:1484   */\n      swap1\n      pop\n        /* \"#utility.yul\":1377:1491   */\n      swap2\n      swap1\n      pop\n      jump\t// out\n        /* \"#utility.yul\":1497:1681   */\n    tag_96:\n        /* \"#utility.yul\":1596:1607   */\n      0x00\n        /* \"#utility.yul\":1630:1636   */\n      dup3\n        /* \"#utility.yul\":1625:1628   */\n      dup3\n        /* \"#utility.yul\":1618:1637   */\n      mstore\n        /* \"#utility.yul\":1670:1674   */\n      0x20\n        /* \"#utility.yul\":1665:1668   */\n      dup3\n        /* \"#utility.yul\":1661:1675   */\n      add\n        /* \"#utility.yul\":1646:1675   */\n      swap1\n      pop\n        /* \"#utility.yul\":1497:1681   */\n      swap3\n      swap2\n      pop\n      pop\n      jump\t// out\n        /* \"#utility.yul\":1687:1819   */\n    tag_97:\n        /* \"#utility.yul\":1754:1758   */\n      0x00\n        /* \"#utility.yul\":1777:1780   */\n      dup2\n        /* \"#utility.yul\":1769:1780   */\n      swap1\n      pop\n        /* \"#utility.yul\":1807:1811   */\n      0x20\n        /* \"#utility.yul\":1802:1805   */\n      dup3\n        /* \"#utility.yul\":1798:1812   */\n      add\n        /* \"#utility.yul\":1790:1812   */\n      swap1\n      pop\n        /* \"#utility.yul\":1687:1819   */\n      swap2\n      swap1\n      pop\n      jump\t// out\n        /* \"#utility.yul\":1825:1933   */\n    tag_98:\n        /* \"#utility.yul\":1902:1926   */\n      tag_130\n        /* \"#utility.yul\":1920:1925   */\n      dup2\n        /* \"#utility.yul\":1902:1926   */\n      tag_88\n      jump\t// in\n    tag_130:\n        /* \"#utility.yul\":1897:1900   */\n      dup3\n        /* \"#utility.yul\":1890:1927   */\n      mstore\n        /* \"#utility.yul\":1825:1933   */\n      pop\n      pop\n      jump\t// out\n        /* \"#utility.yul\":1939:2118   */\n    tag_99:\n        /* \"#utility.yul\":2008:2018   */\n      0x00\n        /* \"#utility.yul\":2029:2075   */\n      tag_132\n        /* \"#utility.yul\":2071:2074   */\n      dup4\n        /* \"#utility.yul\":2063:2069   */\n      dup4\n        /* \"#utility.yul\":2029:2075   */\n      tag_98\n      jump\t// in\n    tag_132:\n        /* \"#utility.yul\":2107:2111   */\n      0x20\n        /* \"#utility.yul\":2102:2105   */\n      dup4\n        /* \"#utility.yul\":2098:2112   */\n      add\n        /* \"#utility.yul\":2084:2112   */\n      swap1\n      pop\n        /* \"#utility.yul\":1939:2118   */\n      swap3\n      swap2\n      pop\n      pop\n      jump\t// out\n        /* \"#utility.yul\":2124:2237   */\n    tag_100:\n        /* \"#utility.yul\":2194:2198   */\n      0x00\n        /* \"#utility.yul\":2226:2230   */\n      0x20\n        /* \"#utility.yul\":2221:2224   */\n      dup3\n        /* \"#utility.yul\":2217:2231   */\n      add\n        /* \"#utility.yul\":2209:2231   */\n      swap1\n      pop\n        /* \"#utility.yul\":2124:2237   */\n      swap2\n      swap1\n      pop\n      jump\t// out\n        /* \"#utility.yul\":2273:3005   */\n    tag_101:\n        /* \"#utility.yul\":2392:2395   */\n      0x00\n        /* \"#utility.yul\":2421:2475   */\n      tag_135\n        /* \"#utility.yul\":2469:2474   */\n      dup3\n        /* \"#utility.yul\":2421:2475   */\n      tag_95\n      jump\t// in\n    tag_135:\n        /* \"#utility.yul\":2491:2577   */\n      tag_136\n        /* \"#utility.yul\":2570:2576   */\n      dup2\n        /* \"#utility.yul\":2565:2568   */\n      dup6\n        /* \"#utility.yul\":2491:2577   */\n      tag_96\n      jump\t// in\n    tag_136:\n        /* \"#utility.yul\":2484:2577   */\n      swap4\n      pop\n        /* \"#utility.yul\":2601:2657   */\n      tag_137\n        /* \"#utility.yul\":2651:2656   */\n      dup4\n        /* \"#utility.yul\":2601:2657   */\n      tag_97\n      jump\t// in\n    tag_137:\n        /* \"#utility.yul\":2680:2687   */\n      dup1\n        /* \"#utility.yul\":2711:2712   */\n      0x00\n        /* \"#utility.yul\":2696:2980   */\n    tag_138:\n        /* \"#utility.yul\":2721:2727   */\n      dup4\n        /* \"#utility.yul\":2718:2719   */\n      dup2\n        /* \"#utility.yul\":2715:2728   */\n      lt\n        /* \"#utility.yul\":2696:2980   */\n      iszero\n      tag_140\n      jumpi\n        /* \"#utility.yul\":2797:2803   */\n      dup2\n        /* \"#utility.yul\":2791:2804   */\n      mload\n        /* \"#utility.yul\":2824:2887   */\n      tag_141\n        /* \"#utility.yul\":2883:2886   */\n      dup9\n        /* \"#utility.yul\":2868:2881   */\n      dup3\n        /* \"#utility.yul\":2824:2887   */\n      tag_99\n      jump\t// in\n    tag_141:\n        /* \"#utility.yul\":2817:2887   */\n      swap8\n      pop\n        /* \"#utility.yul\":2910:2970   */\n      tag_142\n        /* \"#utility.yul\":2963:2969   */\n      dup4\n        /* \"#utility.yul\":2910:2970   */\n      tag_100\n      jump\t// in\n    tag_142:\n        /* \"#utility.yul\":2900:2970   */\n      swap3\n      pop\n        /* \"#utility.yul\":2756:2980   */\n      pop\n        /* \"#utility.yul\":2743:2744   */\n      0x01\n        /* \"#utility.yul\":2740:2741   */\n      dup2\n        /* \"#utility.yul\":2736:2745   */\n      add\n        /* \"#utility.yul\":2731:2745   */\n      swap1\n      pop\n        /* \"#utility.yul\":2696:2980   */\n      jump(tag_138)\n    tag_140:\n        /* \"#utility.yul\":2700:2714   */\n      pop\n        /* \"#utility.yul\":2996:2999   */\n      dup6\n        /* \"#utility.yul\":2989:2999   */\n      swap4\n      pop\n        /* \"#utility.yul\":2397:3005   */\n      pop\n      pop\n      pop\n        /* \"#utility.yul\":2273:3005   */\n      swap3\n      swap2\n      pop\n      pop\n      jump\t// out\n        /* \"#utility.yul\":3011:3384   */\n    tag_29:\n        /* \"#utility.yul\":3154:3158   */\n      0x00\n        /* \"#utility.yul\":3192:3194   */\n      0x20\n        /* \"#utility.yul\":3181:3190   */\n      dup3\n        /* \"#utility.yul\":3177:3195   */\n      add\n        /* \"#utility.yul\":3169:3195   */\n      swap1\n      pop\n        /* \"#utility.yul\":3241:3250   */\n      dup2\n        /* \"#utility.yul\":3235:3239   */\n      dup2\n        /* \"#utility.yul\":3231:3251   */\n      sub\n        /* \"#utility.yul\":3227:3228   */\n      0x00\n        /* \"#utility.yul\":3216:3225   */\n      dup4\n        /* \"#utility.yul\":3212:3229   */\n      add\n        /* \"#utility.yul\":3205:3252   */\n      mstore\n        /* \"#utility.yul\":3269:3377   */\n      tag_144\n        /* \"#utility.yul\":3372:3376   */\n      dup2\n        /* \"#utility.yul\":3363:3369   */\n      dup5\n        /* \"#utility.yul\":3269:3377   */\n      tag_101\n      jump\t// in\n    tag_144:\n        /* \"#utility.yul\":3261:3377   */\n      swap1\n      pop\n        /* \"#utility.yul\":3011:3384   */\n      swap3\n      swap2\n      pop\n      pop\n      jump\t// out\n        /* \"#utility.yul\":3390:3570   */\n    tag_102:\n        /* \"#utility.yul\":3438:3515   */\n      0x4e487b7100000000000000000000000000000000000000000000000000000000\n        /* \"#utility.yul\":3435:3436   */\n      0x00\n        /* \"#utility.yul\":3428:3516   */\n      mstore\n        /* \"#utility.yul\":3535:3539   */\n      0x21\n        /* \"#utility.yul\":3532:3533   */\n      0x04\n        /* \"#utility.yul\":3525:3540   */\n      mstore\n        /* \"#utility.yul\":3559:3563   */\n      0x24\n        /* \"#utility.yul\":3556:3557   */\n      0x00\n        /* \"#utility.yul\":3549:3564   */\n      revert\n        /* \"#utility.yul\":3576:3693   */\n    tag_103:\n        /* \"#utility.yul\":3661:3662   */\n      0x02\n        /* \"#utility.yul\":3654:3659   */\n      dup2\n        /* \"#utility.yul\":3651:3663   */\n      lt\n        /* \"#utility.yul\":3641:3687   */\n      tag_147\n      jumpi\n        /* \"#utility.yul\":3667:3685   */\n      tag_148\n      tag_102\n      jump\t// in\n    tag_148:\n        /* \"#utility.yul\":3641:3687   */\n    tag_147:\n        /* \"#utility.yul\":3576:3693   */\n      pop\n      jump\t// out\n        /* \"#utility.yul\":3699:3834   */\n    tag_104:\n        /* \"#utility.yul\":3748:3755   */\n      0x00\n        /* \"#utility.yul\":3777:3782   */\n      dup2\n        /* \"#utility.yul\":3766:3782   */\n      swap1\n      pop\n        /* \"#utility.yul\":3783:3828   */\n      tag_150\n        /* \"#utility.yul\":3822:3827   */\n      dup3\n        /* \"#utility.yul\":3783:3828   */\n      tag_103\n      jump\t// in\n    tag_150:\n        /* \"#utility.yul\":3699:3834   */\n      swap2\n      swap1\n      pop\n      jump\t// out\n        /* \"#utility.yul\":3840:3975   */\n    tag_105:\n        /* \"#utility.yul\":3900:3909   */\n      0x00\n        /* \"#utility.yul\":3933:3969   */\n      tag_152\n        /* \"#utility.yul\":3963:3968   */\n      dup3\n        /* \"#utility.yul\":3933:3969   */\n      tag_104\n      jump\t// in\n    tag_152:\n        /* \"#utility.yul\":3920:3969   */\n      swap1\n      pop\n        /* \"#utility.yul\":3840:3975   */\n      swap2\n      swap1\n      pop\n      jump\t// out\n        /* \"#utility.yul\":3981:4132   */\n    tag_106:\n        /* \"#utility.yul\":4078:4125   */\n      tag_154\n        /* \"#utility.yul\":4119:4124   */\n      dup2\n        /* \"#utility.yul\":4078:4125   */\n      tag_105\n      jump\t// in\n    tag_154:\n        /* \"#utility.yul\":4073:4076   */\n      dup3\n        /* \"#utility.yul\":4066:4126   */\n      mstore\n        /* \"#utility.yul\":3981:4132   */\n      pop\n      pop\n      jump\t// out\n        /* \"#utility.yul\":4138:4380   */\n    tag_33:\n        /* \"#utility.yul\":4241:4245   */\n      0x00\n        /* \"#utility.yul\":4279:4281   */\n      0x20\n        /* \"#utility.yul\":4268:4277   */\n      dup3\n        /* \"#utility.yul\":4264:4282   */\n      add\n        /* \"#utility.yul\":4256:4282   */\n      swap1\n      pop\n        /* \"#utility.yul\":4292:4373   */\n      tag_156\n        /* \"#utility.yul\":4370:4371   */\n      0x00\n        /* \"#utility.yul\":4359:4368   */\n      dup4\n        /* \"#utility.yul\":4355:4372   */\n      add\n        /* \"#utility.yul\":4346:4352   */\n      dup5\n        /* \"#utility.yul\":4292:4373   */\n      tag_106\n      jump\t// in\n    tag_156:\n        /* \"#utility.yul\":4138:4380   */\n      swap3\n      swap2\n      pop\n      pop\n      jump\t// out\n        /* \"#utility.yul\":4386:4566   */\n    tag_54:\n        /* \"#utility.yul\":4434:4511   */\n      0x4e487b7100000000000000000000000000000000000000000000000000000000\n        /* \"#utility.yul\":4431:4432   */\n      0x00\n        /* \"#utility.yul\":4424:4512   */\n      mstore\n        /* \"#utility.yul\":4531:4535   */\n      0x41\n        /* \"#utility.yul\":4528:4529   */\n      0x04\n        /* \"#utility.yul\":4521:4536   */\n      mstore\n        /* \"#utility.yul\":4555:4559   */\n      0x24\n        /* \"#utility.yul\":4552:4553   */\n      0x00\n        /* \"#utility.yul\":4545:4560   */\n      revert\n        /* \"#utility.yul\":4572:4752   */\n    tag_61:\n        /* \"#utility.yul\":4620:4697   */\n      0x4e487b7100000000000000000000000000000000000000000000000000000000\n        /* \"#utility.yul\":4617:4618   */\n      0x00\n        /* \"#utility.yul\":4610:4698   */\n      mstore\n        /* \"#utility.yul\":4717:4721   */\n      0x32\n        /* \"#utility.yul\":4714:4715   */\n      0x04\n        /* \"#utility.yul\":4707:4722   */\n      mstore\n        /* \"#utility.yul\":4741:4745   */\n      0x24\n        /* \"#utility.yul\":4738:4739   */\n      0x00\n        /* \"#utility.yul\":4731:4746   */\n      revert\n        /* \"#utility.yul\":4758:4938   */\n    tag_107:\n        /* \"#utility.yul\":4806:4883   */\n      0x4e487b7100000000000000000000000000000000000000000000000000000000\n        /* \"#utility.yul\":4803:4804   */\n      0x00\n        /* \"#utility.yul\":4796:4884   */\n      mstore\n        /* \"#utility.yul\":4903:4907   */\n      0x11\n        /* \"#utility.yul\":4900:4901   */\n      0x04\n        /* \"#utility.yul\":4893:4908   */\n      mstore\n        /* \"#utility.yul\":4927:4931   */\n      0x24\n        /* \"#utility.yul\":4924:4925   */\n      0x00\n        /* \"#utility.yul\":4917:4932   */\n      revert\n        /* \"#utility.yul\":4944:5177   */\n    tag_66:\n        /* \"#utility.yul\":4983:4986   */\n      0x00\n        /* \"#utility.yul\":5006:5030   */\n      tag_161\n        /* \"#utility.yul\":5024:5029   */\n      dup3\n        /* \"#utility.yul\":5006:5030   */\n      tag_88\n      jump\t// in\n    tag_161:\n        /* \"#utility.yul\":4997:5030   */\n      swap2\n      pop\n        /* \"#utility.yul\":5052:5118   */\n      0xffffffffffffffffffffffffffffffffffffffffffffffffffffffffffffffff\n        /* \"#utility.yul\":5045:5050   */\n      dup3\n        /* \"#utility.yul\":5042:5119   */\n      sub\n        /* \"#utility.yul\":5039:5142   */\n      tag_162\n      jumpi\n        /* \"#utility.yul\":5122:5140   */\n      tag_163\n      tag_107\n      jump\t// in\n    tag_163:\n        /* \"#utility.yul\":5039:5142   */\n    tag_162:\n        /* \"#utility.yul\":5169:5170   */\n      0x01\n        /* \"#utility.yul\":5162:5167   */\n      dup3\n        /* \"#utility.yul\":5158:5171   */\n      add\n        /* \"#utility.yul\":5151:5171   */\n      swap1\n      pop\n        /* \"#utility.yul\":4944:5177   */\n      swap2\n      swap1\n      pop\n      jump\t// out\n\n    auxdata: 0xa264697066735822122016a8736c381ad76b99401675175710c45ec0ad1c5c09e496d4f8f6432f523e3364736f6c63430008120033\n}\n",
				"bytecode": {
					"linkReferences": {},
					"object": "608060405234801561001057600080fd5b50604051610894380380610894833981810160405281019061003291906100a4565b8060008190555060018060006101000a81548160ff0219169083600181111561005e5761005d6100d1565b5b021790555050610100565b600080fd5b6000819050919050565b6100818161006e565b811461008c57600080fd5b50565b60008151905061009e81610078565b92915050565b6000602082840312156100ba576100b9610069565b5b60006100c88482850161008f565b91505092915050565b7f4e487b7100000000000000000000000000000000000000000000000000000000600052602160045260246000fd5b6107858061010f6000396000f3fe608060405234801561001057600080fd5b50600436106100935760003560e01c806384731d6f1161006657806384731d6f146101345780638cee71e014610152578063b74513c114610170578063e5a72d5b1461018e578063fc68b3ed146101aa57610093565b80632ebcb6531461009857806342be8cb5146100b6578063499ba0aa146100e657806365a6bb2914610116575b600080fd5b6100a06101c6565b6040516100ad919061048f565b60405180910390f35b6100d060048036038101906100cb91906104db565b6101cf565b6040516100dd919061048f565b60405180910390f35b61010060048036038101906100fb91906104db565b6101f9565b60405161010d919061048f565b60405180910390f35b61011e610223565b60405161012b91906105c6565b60405180910390f35b61013c6102e3565b604051610149919061065f565b60405180910390f35b61015a6102f6565b604051610167919061048f565b60405180910390f35b6101786102fc565b60405161018591906105c6565b60405180910390f35b6101a860048036038101906101a391906104db565b6103bc565b005b6101c460048036038101906101bf91906104db565b610406565b005b60008054905090565b600381815481106101df57600080fd5b906000526020600020016000915090508060000154905081565b6002818154811061020957600080fd5b906000526020600020016000915090508060000154905081565b6060600060038054905067ffffffffffffffff8111156102465761024561067a565b5b6040519080825280602002602001820160405280156102745781602001602082028036833780820191505090505b50905060005b6003805490508110156102db576003818154811061029b5761029a6106a9565b5b90600052602060002001600001548282815181106102bc576102bb6106a9565b5b60200260200101818152505080806102d390610707565b91505061027a565b508091505090565b600160009054906101000a900460ff1681565b60005481565b6060600060028054905067ffffffffffffffff81111561031f5761031e61067a565b5b60405190808252806020026020018201604052801561034d5781602001602082028036833780820191505090505b50905060005b6002805490508110156103b45760028181548110610374576103736106a9565b5b9060005260206000200160000154828281518110610395576103946106a9565b5b60200260200101818152505080806103ac90610707565b915050610353565b508091505090565b6103c4610450565b81816000018181525050600381908060018154018082558091505060019003906000526020600020016000909190919091506000820151816000015550505050565b61040e610463565b81816000018181525050600281908060018154018082558091505060019003906000526020600020016000909190919091506000820151816000015550505050565b6040518060200160405280600081525090565b6040518060200160405280600081525090565b6000819050919050565b61048981610476565b82525050565b60006020820190506104a46000830184610480565b92915050565b600080fd5b6104b881610476565b81146104c357600080fd5b50565b6000813590506104d5816104af565b92915050565b6000602082840312156104f1576104f06104aa565b5b60006104ff848285016104c6565b91505092915050565b600081519050919050565b600082825260208201905092915050565b6000819050602082019050919050565b61053d81610476565b82525050565b600061054f8383610534565b60208301905092915050565b6000602082019050919050565b600061057382610508565b61057d8185610513565b935061058883610524565b8060005b838110156105b95781516105a08882610543565b97506105ab8361055b565b92505060018101905061058c565b5085935050505092915050565b600060208201905081810360008301526105e08184610568565b905092915050565b7f4e487b7100000000000000000000000000000000000000000000000000000000600052602160045260246000fd5b60028110610628576106276105e8565b5b50565b600081905061063982610617565b919050565b60006106498261062b565b9050919050565b6106598161063e565b82525050565b60006020820190506106746000830184610650565b92915050565b7f4e487b7100000000000000000000000000000000000000000000000000000000600052604160045260246000fd5b7f4e487b7100000000000000000000000000000000000000000000000000000000600052603260045260246000fd5b7f4e487b7100000000000000000000000000000000000000000000000000000000600052601160045260246000fd5b600061071282610476565b91507fffffffffffffffffffffffffffffffffffffffffffffffffffffffffffffffff8203610744576107436106d8565b5b60018201905091905056fea264697066735822122016a8736c381ad76b99401675175710c45ec0ad1c5c09e496d4f8f6432f523e3364736f6c63430008120033",
					"opcodes": "PUSH1 0x80 PUSH1 0x40 MSTORE CALLVALUE DUP1 ISZERO PUSH2 0x10 JUMPI PUSH1 0x0 DUP1 REVERT JUMPDEST POP PUSH1 0x40 MLOAD PUSH2 0x894 CODESIZE SUB DUP1 PUSH2 0x894 DUP4 CODECOPY DUP2 DUP2 ADD PUSH1 0x40 MSTORE DUP2 ADD SWAP1 PUSH2 0x32 SWAP2 SWAP1 PUSH2 0xA4 JUMP JUMPDEST DUP1 PUSH1 0x0 DUP2 SWAP1 SSTORE POP PUSH1 0x1 DUP1 PUSH1 0x0 PUSH2 0x100 EXP DUP2 SLOAD DUP2 PUSH1 0xFF MUL NOT AND SWAP1 DUP4 PUSH1 0x1 DUP2 GT ISZERO PUSH2 0x5E JUMPI PUSH2 0x5D PUSH2 0xD1 JUMP JUMPDEST JUMPDEST MUL OR SWAP1 SSTORE POP POP PUSH2 0x100 JUMP JUMPDEST PUSH1 0x0 DUP1 REVERT JUMPDEST PUSH1 0x0 DUP2 SWAP1 POP SWAP2 SWAP1 POP JUMP JUMPDEST PUSH2 0x81 DUP2 PUSH2 0x6E JUMP JUMPDEST DUP2 EQ PUSH2 0x8C JUMPI PUSH1 0x0 DUP1 REVERT JUMPDEST POP JUMP JUMPDEST PUSH1 0x0 DUP2 MLOAD SWAP1 POP PUSH2 0x9E DUP2 PUSH2 0x78 JUMP JUMPDEST SWAP3 SWAP2 POP POP JUMP JUMPDEST PUSH1 0x0 PUSH1 0x20 DUP3 DUP5 SUB SLT ISZERO PUSH2 0xBA JUMPI PUSH2 0xB9 PUSH2 0x69 JUMP JUMPDEST JUMPDEST PUSH1 0x0 PUSH2 0xC8 DUP5 DUP3 DUP6 ADD PUSH2 0x8F JUMP JUMPDEST SWAP2 POP POP SWAP3 SWAP2 POP POP JUMP JUMPDEST PUSH32 0x4E487B7100000000000000000000000000000000000000000000000000000000 PUSH1 0x0 MSTORE PUSH1 0x21 PUSH1 0x4 MSTORE PUSH1 0x24 PUSH1 0x0 REVERT JUMPDEST PUSH2 0x785 DUP1 PUSH2 0x10F PUSH1 0x0 CODECOPY PUSH1 0x0 RETURN INVALID PUSH1 0x80 PUSH1 0x40 MSTORE CALLVALUE DUP1 ISZERO PUSH2 0x10 JUMPI PUSH1 0x0 DUP1 REVERT JUMPDEST POP PUSH1 0x4 CALLDATASIZE LT PUSH2 0x93 JUMPI PUSH1 0x0 CALLDATALOAD PUSH1 0xE0 SHR DUP1 PUSH4 0x84731D6F GT PUSH2 0x66 JUMPI DUP1 PUSH4 0x84731D6F EQ PUSH2 0x134 JUMPI DUP1 PUSH4 0x8CEE71E0 EQ PUSH2 0x152 JUMPI DUP1 PUSH4 0xB74513C1 EQ PUSH2 0x170 JUMPI DUP1 PUSH4 0xE5A72D5B EQ PUSH2 0x18E JUMPI DUP1 PUSH4 0xFC68B3ED EQ PUSH2 0x1AA JUMPI PUSH2 0x93 JUMP JUMPDEST DUP1 PUSH4 0x2EBCB653 EQ PUSH2 0x98 JUMPI DUP1 PUSH4 0x42BE8CB5 EQ PUSH2 0xB6 JUMPI DUP1 PUSH4 0x499BA0AA EQ PUSH2 0xE6 JUMPI DUP1 PUSH4 0x65A6BB29 EQ PUSH2 0x116 JUMPI JUMPDEST PUSH1 0x0 DUP1 REVERT JUMPDEST PUSH2 0xA0 PUSH2 0x1C6 JUMP JUMPDEST PUSH1 0x40 MLOAD PUSH2 0xAD SWAP2 SWAP1 PUSH2 0x48F JUMP JUMPDEST PUSH1 0x40 MLOAD DUP1 SWAP2 SUB SWAP1 RETURN JUMPDEST PUSH2 0xD0 PUSH1 0x4 DUP1 CALLDATASIZE SUB DUP2 ADD SWAP1 PUSH2 0xCB SWAP2 SWAP1 PUSH2 0x4DB JUMP JUMPDEST PUSH2 0x1CF JUMP JUMPDEST PUSH1 0x40 MLOAD PUSH2 0xDD SWAP2 SWAP1 PUSH2 0x48F JUMP JUMPDEST PUSH1 0x40 MLOAD DUP1 SWAP2 SUB SWAP1 RETURN JUMPDEST PUSH2 0x100 PUSH1 0x4 DUP1 CALLDATASIZE SUB DUP2 ADD SWAP1 PUSH2 0xFB SWAP2 SWAP1 PUSH2 0x4DB JUMP JUMPDEST PUSH2 0x1F9 JUMP JUMPDEST PUSH1 0x40 MLOAD PUSH2 0x10D SWAP2 SWAP1 PUSH2 0x48F JUMP JUMPDEST PUSH1 0x40 MLOAD DUP1 SWAP2 SUB SWAP1 RETURN JUMPDEST PUSH2 0x11E PUSH2 0x223 JUMP JUMPDEST PUSH1 0x40 MLOAD PUSH2 0x12B SWAP2 SWAP1 PUSH2 0x5C6 JUMP JUMPDEST PUSH1 0x40 MLOAD DUP1 SWAP2 SUB SWAP1 RETURN JUMPDEST PUSH2 0x13C PUSH2 0x2E3 JUMP JUMPDEST PUSH1 0x40 MLOAD PUSH2 0x149 SWAP2 SWAP1 PUSH2 0x65F JUMP JUMPDEST PUSH1 0x40 MLOAD DUP1 SWAP2 SUB SWAP1 RETURN JUMPDEST PUSH2 0x15A PUSH2 0x2F6 JUMP JUMPDEST PUSH1 0x40 MLOAD PUSH2 0x167 SWAP2 SWAP1 PUSH2 0x48F JUMP JUMPDEST PUSH1 0x40 MLOAD DUP1 SWAP2 SUB SWAP1 RETURN JUMPDEST PUSH2 0x178 PUSH2 0x2FC JUMP JUMPDEST PUSH1 0x40 MLOAD PUSH2 0x185 SWAP2 SWAP1 PUSH2 0x5C6 JUMP JUMPDEST PUSH1 0x40 MLOAD DUP1 SWAP2 SUB SWAP1 RETURN JUMPDEST PUSH2 0x1A8 PUSH1 0x4 DUP1 CALLDATASIZE SUB DUP2 ADD SWAP1 PUSH2 0x1A3 SWAP2 SWAP1 PUSH2 0x4DB JUMP JUMPDEST PUSH2 0x3BC JUMP JUMPDEST STOP JUMPDEST PUSH2 0x1C4 PUSH1 0x4 DUP1 CALLDATASIZE SUB DUP2 ADD SWAP1 PUSH2 0x1BF SWAP2 SWAP1 PUSH2 0x4DB JUMP JUMPDEST PUSH2 0x406 JUMP JUMPDEST STOP JUMPDEST PUSH1 0x0 DUP1 SLOAD SWAP1 POP SWAP1 JUMP JUMPDEST PUSH1 0x3 DUP2 DUP2 SLOAD DUP2 LT PUSH2 0x1DF JUMPI PUSH1 0x0 DUP1 REVERT JUMPDEST SWAP1 PUSH1 0x0 MSTORE PUSH1 0x20 PUSH1 0x0 KECCAK256 ADD PUSH1 0x0 SWAP2 POP SWAP1 POP DUP1 PUSH1 0x0 ADD SLOAD SWAP1 POP DUP2 JUMP JUMPDEST PUSH1 0x2 DUP2 DUP2 SLOAD DUP2 LT PUSH2 0x209 JUMPI PUSH1 0x0 DUP1 REVERT JUMPDEST SWAP1 PUSH1 0x0 MSTORE PUSH1 0x20 PUSH1 0x0 KECCAK256 ADD PUSH1 0x0 SWAP2 POP SWAP1 POP DUP1 PUSH1 0x0 ADD SLOAD SWAP1 POP DUP2 JUMP JUMPDEST PUSH1 0x60 PUSH1 0x0 PUSH1 0x3 DUP1 SLOAD SWAP1 POP PUSH8 0xFFFFFFFFFFFFFFFF DUP2 GT ISZERO PUSH2 0x246 JUMPI PUSH2 0x245 PUSH2 0x67A JUMP JUMPDEST JUMPDEST PUSH1 0x40 MLOAD SWAP1 DUP1 DUP3 MSTORE DUP1 PUSH1 0x20 MUL PUSH1 0x20 ADD DUP3 ADD PUSH1 0x40 MSTORE DUP1 ISZERO PUSH2 0x274 JUMPI DUP2 PUSH1 0x20 ADD PUSH1 0x20 DUP3 MUL DUP1 CALLDATASIZE DUP4 CALLDATACOPY DUP1 DUP3 ADD SWAP2 POP POP SWAP1 POP JUMPDEST POP SWAP1 POP PUSH1 0x0 JUMPDEST PUSH1 0x3 DUP1 SLOAD SWAP1 POP DUP2 LT ISZERO PUSH2 0x2DB JUMPI PUSH1 0x3 DUP2 DUP2 SLOAD DUP2 LT PUSH2 0x29B JUMPI PUSH2 0x29A PUSH2 0x6A9 JUMP JUMPDEST JUMPDEST SWAP1 PUSH1 0x0 MSTORE PUSH1 0x20 PUSH1 0x0 KECCAK256 ADD PUSH1 0x0 ADD SLOAD DUP3 DUP3 DUP2 MLOAD DUP2 LT PUSH2 0x2BC JUMPI PUSH2 0x2BB PUSH2 0x6A9 JUMP JUMPDEST JUMPDEST PUSH1 0x20 MUL PUSH1 0x20 ADD ADD DUP2 DUP2 MSTORE POP POP DUP1 DUP1 PUSH2 0x2D3 SWAP1 PUSH2 0x707 JUMP JUMPDEST SWAP2 POP POP PUSH2 0x27A JUMP JUMPDEST POP DUP1 SWAP2 POP POP SWAP1 JUMP JUMPDEST PUSH1 0x1 PUSH1 0x0 SWAP1 SLOAD SWAP1 PUSH2 0x100 EXP SWAP1 DIV PUSH1 0xFF AND DUP2 JUMP JUMPDEST PUSH1 0x0 SLOAD DUP2 JUMP JUMPDEST PUSH1 0x60 PUSH1 0x0 PUSH1 0x2 DUP1 SLOAD SWAP1 POP PUSH8 0xFFFFFFFFFFFFFFFF DUP2 GT ISZERO PUSH2 0x31F JUMPI PUSH2 0x31E PUSH2 0x67A JUMP JUMPDEST JUMPDEST PUSH1 0x40 MLOAD SWAP1 DUP1 DUP3 MSTORE DUP1 PUSH1 0x20 MUL PUSH1 0x20 ADD DUP3 ADD PUSH1 0x40 MSTORE DUP1 ISZERO PUSH2 0x34D JUMPI DUP2 PUSH1 0x20 ADD PUSH1 0x20 DUP3 MUL DUP1 CALLDATASIZE DUP4 CALLDATACOPY DUP1 DUP3 ADD SWAP2 POP POP SWAP1 POP JUMPDEST POP SWAP1 POP PUSH1 0x0 JUMPDEST PUSH1 0x2 DUP1 SLOAD SWAP1 POP DUP2 LT ISZERO PUSH2 0x3B4 JUMPI PUSH1 0x2 DUP2 DUP2 SLOAD DUP2 LT PUSH2 0x374 JUMPI PUSH2 0x373 PUSH2 0x6A9 JUMP JUMPDEST JUMPDEST SWAP1 PUSH1 0x0 MSTORE PUSH1 0x20 PUSH1 0x0 KECCAK256 ADD PUSH1 0x0 ADD SLOAD DUP3 DUP3 DUP2 MLOAD DUP2 LT PUSH2 0x395 JUMPI PUSH2 0x394 PUSH2 0x6A9 JUMP JUMPDEST JUMPDEST PUSH1 0x20 MUL PUSH1 0x20 ADD ADD DUP2 DUP2 MSTORE POP POP DUP1 DUP1 PUSH2 0x3AC SWAP1 PUSH2 0x707 JUMP JUMPDEST SWAP2 POP POP PUSH2 0x353 JUMP JUMPDEST POP DUP1 SWAP2 POP POP SWAP1 JUMP JUMPDEST PUSH2 0x3C4 PUSH2 0x450 JUMP JUMPDEST DUP2 DUP2 PUSH1 0x0 ADD DUP2 DUP2 MSTORE POP POP PUSH1 0x3 DUP2 SWAP1 DUP1 PUSH1 0x1 DUP2 SLOAD ADD DUP1 DUP3 SSTORE DUP1 SWAP2 POP POP PUSH1 0x1 SWAP1 SUB SWAP1 PUSH1 0x0 MSTORE PUSH1 0x20 PUSH1 0x0 KECCAK256 ADD PUSH1 0x0 SWAP1 SWAP2 SWAP1 SWAP2 SWAP1 SWAP2 POP PUSH1 0x0 DUP3 ADD MLOAD DUP2 PUSH1 0x0 ADD SSTORE POP POP POP POP JUMP JUMPDEST PUSH2 0x40E PUSH2 0x463 JUMP JUMPDEST DUP2 DUP2 PUSH1 0x0 ADD DUP2 DUP2 MSTORE POP POP PUSH1 0x2 DUP2 SWAP1 DUP1 PUSH1 0x1 DUP2 SLOAD ADD DUP1 DUP3 SSTORE DUP1 SWAP2 POP POP PUSH1 0x1 SWAP1 SUB SWAP1 PUSH1 0x0 MSTORE PUSH1 0x20 PUSH1 0x0 KECCAK256 ADD PUSH1 0x0 SWAP1 SWAP2 SWAP1 SWAP2 SWAP1 SWAP2 POP PUSH1 0x0 DUP3 ADD MLOAD DUP2 PUSH1 0x0 ADD SSTORE POP POP POP POP JUMP JUMPDEST PUSH1 0x40 MLOAD DUP1 PUSH1 0x20 ADD PUSH1 0x40 MSTORE DUP1 PUSH1 0x0 DUP2 MSTORE POP SWAP1 JUMP JUMPDEST PUSH1 0x40 MLOAD DUP1 PUSH1 0x20 ADD PUSH1 0x40 MSTORE DUP1 PUSH1 0x0 DUP2 MSTORE POP SWAP1 JUMP JUMPDEST PUSH1 0x0 DUP2 SWAP1 POP SWAP2 SWAP1 POP JUMP JUMPDEST PUSH2 0x489 DUP2 PUSH2 0x476 JUMP JUMPDEST DUP3 MSTORE POP POP JUMP JUMPDEST PUSH1 0x0 PUSH1 0x20 DUP3 ADD SWAP1 POP PUSH2 0x4A4 PUSH1 0x0 DUP4 ADD DUP5 PUSH2 0x480 JUMP JUMPDEST SWAP3 SWAP2 POP POP JUMP JUMPDEST PUSH1 0x0 DUP1 REVERT JUMPDEST PUSH2 0x4B8 DUP2 PUSH2 0x476 JUMP JUMPDEST DUP2 EQ PUSH2 0x4C3 JUMPI PUSH1 0x0 DUP1 REVERT JUMPDEST POP JUMP JUMPDEST PUSH1 0x0 DUP2 CALLDATALOAD SWAP1 POP PUSH2 0x4D5 DUP2 PUSH2 0x4AF JUMP JUMPDEST SWAP3 SWAP2 POP POP JUMP JUMPDEST PUSH1 0x0 PUSH1 0x20 DUP3 DUP5 SUB SLT ISZERO PUSH2 0x4F1 JUMPI PUSH2 0x4F0 PUSH2 0x4AA JUMP JUMPDEST JUMPDEST PUSH1 0x0 PUSH2 0x4FF DUP5 DUP3 DUP6 ADD PUSH2 0x4C6 JUMP JUMPDEST SWAP2 POP POP SWAP3 SWAP2 POP POP JUMP JUMPDEST PUSH1 0x0 DUP2 MLOAD SWAP1 POP SWAP2 SWAP1 POP JUMP JUMPDEST PUSH1 0x0 DUP3 DUP3 MSTORE PUSH1 0x20 DUP3 ADD SWAP1 POP SWAP3 SWAP2 POP POP JUMP JUMPDEST PUSH1 0x0 DUP2 SWAP1 POP PUSH1 0x20 DUP3 ADD SWAP1 POP SWAP2 SWAP1 POP JUMP JUMPDEST PUSH2 0x53D DUP2 PUSH2 0x476 JUMP JUMPDEST DUP3 MSTORE POP POP JUMP JUMPDEST PUSH1 0x0 PUSH2 0x54F DUP4 DUP4 PUSH2 0x534 JUMP JUMPDEST PUSH1 0x20 DUP4 ADD SWAP1 POP SWAP3 SWAP2 POP POP JUMP JUMPDEST PUSH1 0x0 PUSH1 0x20 DUP3 ADD SWAP1 POP SWAP2 SWAP1 POP JUMP JUMPDEST PUSH1 0x0 PUSH2 0x573 DUP3 PUSH2 0x508 JUMP JUMPDEST PUSH2 0x57D DUP2 DUP6 PUSH2 0x513 JUMP JUMPDEST SWAP4 POP PUSH2 0x588 DUP4 PUSH2 0x524 JUMP JUMPDEST DUP1 PUSH1 0x0 JUMPDEST DUP4 DUP2 LT ISZERO PUSH2 0x5B9 JUMPI DUP2 MLOAD PUSH2 0x5A0 DUP9 DUP3 PUSH2 0x543 JUMP JUMPDEST SWAP8 POP PUSH2 0x5AB DUP4 PUSH2 0x55B JUMP JUMPDEST SWAP3 POP POP PUSH1 0x1 DUP2 ADD SWAP1 POP PUSH2 0x58C JUMP JUMPDEST POP DUP6 SWAP4 POP POP POP POP SWAP3 SWAP2 POP POP JUMP JUMPDEST PUSH1 0x0 PUSH1 0x20 DUP3 ADD SWAP1 POP DUP2 DUP2 SUB PUSH1 0x0 DUP4 ADD MSTORE PUSH2 0x5E0 DUP2 DUP5 PUSH2 0x568 JUMP JUMPDEST SWAP1 POP SWAP3 SWAP2 POP POP JUMP JUMPDEST PUSH32 0x4E487B7100000000000000000000000000000000000000000000000000000000 PUSH1 0x0 MSTORE PUSH1 0x21 PUSH1 0x4 MSTORE PUSH1 0x24 PUSH1 0x0 REVERT JUMPDEST PUSH1 0x2 DUP2 LT PUSH2 0x628 JUMPI PUSH2 0x627 PUSH2 0x5E8 JUMP JUMPDEST JUMPDEST POP JUMP JUMPDEST PUSH1 0x0 DUP2 SWAP1 POP PUSH2 0x639 DUP3 PUSH2 0x617 JUMP JUMPDEST SWAP2 SWAP1 POP JUMP JUMPDEST PUSH1 0x0 PUSH2 0x649 DUP3 PUSH2 0x62B JUMP JUMPDEST SWAP1 POP SWAP2 SWAP1 POP JUMP JUMPDEST PUSH2 0x659 DUP2 PUSH2 0x63E JUMP JUMPDEST DUP3 MSTORE POP POP JUMP JUMPDEST PUSH1 0x0 PUSH1 0x20 DUP3 ADD SWAP1 POP PUSH2 0x674 PUSH1 0x0 DUP4 ADD DUP5 PUSH2 0x650 JUMP JUMPDEST SWAP3 SWAP2 POP POP JUMP JUMPDEST PUSH32 0x4E487B7100000000000000000000000000000000000000000000000000000000 PUSH1 0x0 MSTORE PUSH1 0x41 PUSH1 0x4 MSTORE PUSH1 0x24 PUSH1 0x0 REVERT JUMPDEST PUSH32 0x4E487B7100000000000000000000000000000000000000000000000000000000 PUSH1 0x0 MSTORE PUSH1 0x32 PUSH1 0x4 MSTORE PUSH1 0x24 PUSH1 0x0 REVERT JUMPDEST PUSH32 0x4E487B7100000000000000000000000000000000000000000000000000000000 PUSH1 0x0 MSTORE PUSH1 0x11 PUSH1 0x4 MSTORE PUSH1 0x24 PUSH1 0x0 REVERT JUMPDEST PUSH1 0x0 PUSH2 0x712 DUP3 PUSH2 0x476 JUMP JUMPDEST SWAP2 POP PUSH32 0xFFFFFFFFFFFFFFFFFFFFFFFFFFFFFFFFFFFFFFFFFFFFFFFFFFFFFFFFFFFFFFFF DUP3 SUB PUSH2 0x744 JUMPI PUSH2 0x743 PUSH2 0x6D8 JUMP JUMPDEST JUMPDEST PUSH1 0x1 DUP3 ADD SWAP1 POP SWAP2 SWAP1 POP JUMP INVALID LOG2 PUSH5 0x6970667358 0x22 SLT KECCAK256 AND 0xA8 PUSH20 0x6C381AD76B99401675175710C45EC0AD1C5C09E4 SWAP7 0xD4 0xF8 0xF6 NUMBER 0x2F MSTORE RETURNDATACOPY CALLER PUSH5 0x736F6C6343 STOP ADDMOD SLT STOP CALLER "
				},
				"gasEstimates": {
					"creation": {
						"codeDepositCost": "385000",
						"executionCost": "infinite",
						"totalCost": "infinite"
					},
					"external": {
						"actual_user_state()": "2560",
						"addOracle(uint256)": "47015",
						"addRecipient(uint256)": "47037",
						"getAllOracles()": "infinite",
						"getAllRecipients()": "infinite",
						"getUserId()": "2438",
						"id_user()": "2451",
						"oracles_list(uint256)": "infinite",
						"recipients_list(uint256)": "infinite"
					}
				},
				"methodIdentifiers": {
					"actual_user_state()": "84731d6f",
					"addOracle(uint256)": "e5a72d5b",
					"addRecipient(uint256)": "fc68b3ed",
					"getAllOracles()": "65a6bb29",
					"getAllRecipients()": "b74513c1",
					"getUserId()": "2ebcb653",
					"id_user()": "8cee71e0",
					"oracles_list(uint256)": "42be8cb5",
					"recipients_list(uint256)": "499ba0aa"
				}
			},
			"storageLayout": {
				"storage": [
					{
						"astId": 12,
						"contract": ".deps/contract/contract.sol:user",
						"label": "id_user",
						"offset": 0,
						"slot": "0",
						"type": "t_uint256"
					},
					{
						"astId": 15,
						"contract": ".deps/contract/contract.sol:user",
						"label": "actual_user_state",
						"offset": 0,
						"slot": "1",
						"type": "t_enum(user_state)4"
					},
					{
						"astId": 19,
						"contract": ".deps/contract/contract.sol:user",
						"label": "recipients_list",
						"offset": 0,
						"slot": "2",
						"type": "t_array(t_struct(Recipient)7_storage)dyn_storage"
					},
					{
						"astId": 23,
						"contract": ".deps/contract/contract.sol:user",
						"label": "oracles_list",
						"offset": 0,
						"slot": "3",
						"type": "t_array(t_struct(Oracle)10_storage)dyn_storage"
					}
				],
				"types": {
					"t_array(t_struct(Oracle)10_storage)dyn_storage": {
						"base": "t_struct(Oracle)10_storage",
						"encoding": "dynamic_array",
						"label": "struct user.Oracle[]",
						"numberOfBytes": "32"
					},
					"t_array(t_struct(Recipient)7_storage)dyn_storage": {
						"base": "t_struct(Recipient)7_storage",
						"encoding": "dynamic_array",
						"label": "struct user.Recipient[]",
						"numberOfBytes": "32"
					},
					"t_enum(user_state)4": {
						"encoding": "inplace",
						"label": "enum user.user_state",
						"numberOfBytes": "1"
					},
					"t_struct(Oracle)10_storage": {
						"encoding": "inplace",
						"label": "struct user.Oracle",
						"members": [
							{
								"astId": 9,
								"contract": ".deps/contract/contract.sol:user",
								"label": "id_oracle",
								"offset": 0,
								"slot": "0",
								"type": "t_uint256"
							}
						],
						"numberOfBytes": "32"
					},
					"t_struct(Recipient)7_storage": {
						"encoding": "inplace",
						"label": "struct user.Recipient",
						"members": [
							{
								"astId": 6,
								"contract": ".deps/contract/contract.sol:user",
								"label": "id_recipient",
								"offset": 0,
								"slot": "0",
								"type": "t_uint256"
							}
						],
						"numberOfBytes": "32"
					},
					"t_uint256": {
						"encoding": "inplace",
						"label": "uint256",
						"numberOfBytes": "32"
					}
				}
			},
			"userdoc": {
				"kind": "user",
				"methods": {},
				"version": 1
			}
		}
	}
}