{
	"Lincloud/.deps/contract/contract.sol": {
		"lincloud_contract": {
			"abi": [
				{
					"inputs": [],
					"stateMutability": "nonpayable",
					"type": "constructor"
				},
				{
					"inputs": [
						{
							"internalType": "uint256",
							"name": "userId",
							"type": "uint256"
						},
						{
							"internalType": "uint256",
							"name": "oracleId",
							"type": "uint256"
						}
					],
					"name": "addNewOracle",
					"outputs": [],
					"stateMutability": "nonpayable",
					"type": "function"
				},
				{
					"inputs": [
						{
							"internalType": "uint256",
							"name": "userId",
							"type": "uint256"
						},
						{
							"internalType": "uint256",
							"name": "recipientId",
							"type": "uint256"
						}
					],
					"name": "addNewRecipient",
					"outputs": [],
					"stateMutability": "nonpayable",
					"type": "function"
				},
				{
					"inputs": [
						{
							"internalType": "uint256",
							"name": "userId",
							"type": "uint256"
						}
					],
					"name": "closeUserContractNotify",
					"outputs": [],
					"stateMutability": "nonpayable",
					"type": "function"
				},
				{
					"inputs": [
						{
							"internalType": "uint256",
							"name": "",
							"type": "uint256"
						}
					],
					"name": "contract_user_map",
					"outputs": [
						{
							"internalType": "address",
							"name": "",
							"type": "address"
						}
					],
					"stateMutability": "view",
					"type": "function"
				},
				{
					"inputs": [
						{
							"internalType": "uint256",
							"name": "userId",
							"type": "uint256"
						},
						{
							"internalType": "string",
							"name": "contractHash",
							"type": "string"
						}
					],
					"name": "createNewUserContract",
					"outputs": [],
					"stateMutability": "nonpayable",
					"type": "function"
				},
				{
					"inputs": [],
					"name": "getAllUsersId",
					"outputs": [
						{
							"internalType": "uint256[]",
							"name": "",
							"type": "uint256[]"
						}
					],
					"stateMutability": "view",
					"type": "function"
				},
				{
					"inputs": [],
					"name": "owner",
					"outputs": [
						{
							"internalType": "address",
							"name": "",
							"type": "address"
						}
					],
					"stateMutability": "view",
					"type": "function"
				},
				{
					"inputs": [
						{
							"internalType": "uint256",
							"name": "userId",
							"type": "uint256"
						},
						{
							"internalType": "uint256",
							"name": "recipientId",
							"type": "uint256"
						},
						{
							"internalType": "bool",
							"name": "isAccepted",
							"type": "bool"
						},
						{
							"internalType": "bool",
							"name": "isTimeExpired",
							"type": "bool"
						}
					],
					"name": "recipientResponse",
					"outputs": [],
					"stateMutability": "nonpayable",
					"type": "function"
				},
				{
					"inputs": [
						{
							"internalType": "uint256",
							"name": "userId",
							"type": "uint256"
						},
						{
							"internalType": "uint256",
							"name": "recipientId",
							"type": "uint256"
						},
						{
							"internalType": "string",
							"name": "timestamp",
							"type": "string"
						}
					],
					"name": "updateTimestamp",
					"outputs": [],
					"stateMutability": "nonpayable",
					"type": "function"
				},
				{
					"inputs": [
						{
							"internalType": "uint256",
							"name": "userId",
							"type": "uint256"
						}
					],
					"name": "userDeathNotify",
					"outputs": [],
					"stateMutability": "nonpayable",
					"type": "function"
				}
			],
			"devdoc": {
				"kind": "dev",
				"methods": {},
				"version": 1
			},
			"evm": {
				"assembly": "    /* \"Lincloud/.deps/contract/contract.sol\":61:5215  contract lincloud_contract ... */\n  mstore(0x40, 0x80)\n    /* \"Lincloud/.deps/contract/contract.sol\":396:447  constructor() {... */\n  callvalue\n  dup1\n  iszero\n  tag_1\n  jumpi\n  0x00\n  dup1\n  revert\ntag_1:\n  pop\n    /* \"Lincloud/.deps/contract/contract.sol\":429:439  msg.sender */\n  caller\n    /* \"Lincloud/.deps/contract/contract.sol\":421:426  owner */\n  0x00\n  dup1\n    /* \"Lincloud/.deps/contract/contract.sol\":421:439  owner = msg.sender */\n  0x0100\n  exp\n  dup2\n  sload\n  dup2\n  0xffffffffffffffffffffffffffffffffffffffff\n  mul\n  not\n  and\n  swap1\n  dup4\n  0xffffffffffffffffffffffffffffffffffffffff\n  and\n  mul\n  or\n  swap1\n  sstore\n  pop\n    /* \"Lincloud/.deps/contract/contract.sol\":61:5215  contract lincloud_contract ... */\n  dataSize(sub_0)\n  dup1\n  dataOffset(sub_0)\n  0x00\n  codecopy\n  0x00\n  return\nstop\n\nsub_0: assembly {\n        /* \"Lincloud/.deps/contract/contract.sol\":61:5215  contract lincloud_contract ... */\n      mstore(0x40, 0x80)\n      callvalue\n      dup1\n      iszero\n      tag_1\n      jumpi\n      0x00\n      dup1\n      revert\n    tag_1:\n      pop\n      jumpi(tag_2, lt(calldatasize, 0x04))\n      shr(0xe0, calldataload(0x00))\n      dup1\n      0x947fd5c3\n      gt\n      tag_13\n      jumpi\n      dup1\n      0x947fd5c3\n      eq\n      tag_8\n      jumpi\n      dup1\n      0x990b4ec5\n      eq\n      tag_9\n      jumpi\n      dup1\n      0xa50dfd78\n      eq\n      tag_10\n      jumpi\n      dup1\n      0xd43b8fab\n      eq\n      tag_11\n      jumpi\n      dup1\n      0xeb9cbe7a\n      eq\n      tag_12\n      jumpi\n      jump(tag_2)\n    tag_13:\n      dup1\n      0x04740a17\n      eq\n      tag_3\n      jumpi\n      dup1\n      0x1440a7f2\n      eq\n      tag_4\n      jumpi\n      dup1\n      0x21132777\n      eq\n      tag_5\n      jumpi\n      dup1\n      0x2661317e\n      eq\n      tag_6\n      jumpi\n      dup1\n      0x8da5cb5b\n      eq\n      tag_7\n      jumpi\n    tag_2:\n      0x00\n      dup1\n      revert\n        /* \"Lincloud/.deps/contract/contract.sol\":3907:4221  function getAllUsersId() public view returns (uint256[] memory) {... */\n    tag_3:\n      tag_14\n      tag_15\n      jump\t// in\n    tag_14:\n      mload(0x40)\n      tag_16\n      swap2\n      swap1\n      tag_17\n      jump\t// in\n    tag_16:\n      mload(0x40)\n      dup1\n      swap2\n      sub\n      swap1\n      return\n        /* \"Lincloud/.deps/contract/contract.sol\":959:1419  function addNewRecipient(uint256 userId, uint256 recipientId) public { // aggiungi un nuovo destinatario per l'utente specificato... */\n    tag_4:\n      tag_18\n      0x04\n      dup1\n      calldatasize\n      sub\n      dup2\n      add\n      swap1\n      tag_19\n      swap2\n      swap1\n      tag_20\n      jump\t// in\n    tag_19:\n      tag_21\n      jump\t// in\n    tag_18:\n      stop\n        /* \"Lincloud/.deps/contract/contract.sol\":239:291  mapping(uint256 => address) public contract_user_map */\n    tag_5:\n      tag_22\n      0x04\n      dup1\n      calldatasize\n      sub\n      dup2\n      add\n      swap1\n      tag_23\n      swap2\n      swap1\n      tag_24\n      jump\t// in\n    tag_23:\n      tag_25\n      jump\t// in\n    tag_22:\n      mload(0x40)\n      tag_26\n      swap2\n      swap1\n      tag_27\n      jump\t// in\n    tag_26:\n      mload(0x40)\n      dup1\n      swap2\n      sub\n      swap1\n      return\n        /* \"Lincloud/.deps/contract/contract.sol\":1427:1816  function addNewOracle(uint256 userId, uint256 oracleId) public {... */\n    tag_6:\n      tag_28\n      0x04\n      dup1\n      calldatasize\n      sub\n      dup2\n      add\n      swap1\n      tag_29\n      swap2\n      swap1\n      tag_20\n      jump\t// in\n    tag_29:\n      tag_30\n      jump\t// in\n    tag_28:\n      stop\n        /* \"Lincloud/.deps/contract/contract.sol\":99:119  address public owner */\n    tag_7:\n      tag_31\n      tag_32\n      jump\t// in\n    tag_31:\n      mload(0x40)\n      tag_33\n      swap2\n      swap1\n      tag_27\n      jump\t// in\n    tag_33:\n      mload(0x40)\n      dup1\n      swap2\n      sub\n      swap1\n      return\n        /* \"Lincloud/.deps/contract/contract.sol\":1824:2203  function userDeathNotify(uint256 userId) public {... */\n    tag_8:\n      tag_34\n      0x04\n      dup1\n      calldatasize\n      sub\n      dup2\n      add\n      swap1\n      tag_35\n      swap2\n      swap1\n      tag_24\n      jump\t// in\n    tag_35:\n      tag_36\n      jump\t// in\n    tag_34:\n      stop\n        /* \"Lincloud/.deps/contract/contract.sol\":2211:2657  function updateTimestamp(uint256 userId, uint256 recipientId, string memory timestamp) public {... */\n    tag_9:\n      tag_37\n      0x04\n      dup1\n      calldatasize\n      sub\n      dup2\n      add\n      swap1\n      tag_38\n      swap2\n      swap1\n      tag_39\n      jump\t// in\n    tag_38:\n      tag_40\n      jump\t// in\n    tag_37:\n      stop\n        /* \"Lincloud/.deps/contract/contract.sol\":455:951  function createNewUserContract(uint256 userId, string memory contractHash) public {  // Crea un nuovo utente e aggiungilo alla lista degli utenti... */\n    tag_10:\n      tag_41\n      0x04\n      dup1\n      calldatasize\n      sub\n      dup2\n      add\n      swap1\n      tag_42\n      swap2\n      swap1\n      tag_43\n      jump\t// in\n    tag_42:\n      tag_44\n      jump\t// in\n    tag_41:\n      stop\n        /* \"Lincloud/.deps/contract/contract.sol\":2665:3140  function recipientResponse(uint256 userId, uint256 recipientId, bool isAccepted, bool isTimeExpired) public {... */\n    tag_11:\n      tag_45\n      0x04\n      dup1\n      calldatasize\n      sub\n      dup2\n      add\n      swap1\n      tag_46\n      swap2\n      swap1\n      tag_47\n      jump\t// in\n    tag_46:\n      tag_48\n      jump\t// in\n    tag_45:\n      stop\n        /* \"Lincloud/.deps/contract/contract.sol\":3148:3530  function closeUserContractNotify(uint256 userId) public {... */\n    tag_12:\n      tag_49\n      0x04\n      dup1\n      calldatasize\n      sub\n      dup2\n      add\n      swap1\n      tag_50\n      swap2\n      swap1\n      tag_24\n      jump\t// in\n    tag_50:\n      tag_51\n      jump\t// in\n    tag_49:\n      stop\n        /* \"Lincloud/.deps/contract/contract.sol\":3907:4221  function getAllUsersId() public view returns (uint256[] memory) {... */\n    tag_15:\n        /* \"Lincloud/.deps/contract/contract.sol\":3953:3969  uint256[] memory */\n      0x60\n        /* \"Lincloud/.deps/contract/contract.sol\":3982:4006  uint256[] memory userIds */\n      0x00\n        /* \"Lincloud/.deps/contract/contract.sol\":4023:4042  user_contracts_list */\n      0x01\n        /* \"Lincloud/.deps/contract/contract.sol\":4023:4049  user_contracts_list.length */\n      dup1\n      sload\n      swap1\n      pop\n        /* \"Lincloud/.deps/contract/contract.sol\":4009:4050  new uint256[](user_contracts_list.length) */\n      0xffffffffffffffff\n      dup2\n      gt\n      iszero\n      tag_53\n      jumpi\n      tag_54\n      tag_55\n      jump\t// in\n    tag_54:\n    tag_53:\n      mload(0x40)\n      swap1\n      dup1\n      dup3\n      mstore\n      dup1\n      0x20\n      mul\n      0x20\n      add\n      dup3\n      add\n      0x40\n      mstore\n      dup1\n      iszero\n      tag_56\n      jumpi\n      dup2\n      0x20\n      add\n      0x20\n      dup3\n      mul\n      dup1\n      calldatasize\n      dup4\n      calldatacopy\n      dup1\n      dup3\n      add\n      swap2\n      pop\n      pop\n      swap1\n      pop\n    tag_56:\n      pop\n        /* \"Lincloud/.deps/contract/contract.sol\":3982:4050  uint256[] memory userIds = new uint256[](user_contracts_list.length) */\n      swap1\n      pop\n        /* \"Lincloud/.deps/contract/contract.sol\":4066:4075  uint256 i */\n      0x00\n        /* \"Lincloud/.deps/contract/contract.sol\":4061:4189  for (uint256 i = 0; i < user_contracts_list.length; i++) {... */\n    tag_57:\n        /* \"Lincloud/.deps/contract/contract.sol\":4085:4104  user_contracts_list */\n      0x01\n        /* \"Lincloud/.deps/contract/contract.sol\":4085:4111  user_contracts_list.length */\n      dup1\n      sload\n      swap1\n      pop\n        /* \"Lincloud/.deps/contract/contract.sol\":4081:4082  i */\n      dup2\n        /* \"Lincloud/.deps/contract/contract.sol\":4081:4111  i < user_contracts_list.length */\n      lt\n        /* \"Lincloud/.deps/contract/contract.sol\":4061:4189  for (uint256 i = 0; i < user_contracts_list.length; i++) {... */\n      iszero\n      tag_58\n      jumpi\n        /* \"Lincloud/.deps/contract/contract.sol\":4146:4165  user_contracts_list */\n      0x01\n        /* \"Lincloud/.deps/contract/contract.sol\":4166:4167  i */\n      dup2\n        /* \"Lincloud/.deps/contract/contract.sol\":4146:4168  user_contracts_list[i] */\n      dup2\n      sload\n      dup2\n      lt\n      tag_60\n      jumpi\n      tag_61\n      tag_62\n      jump\t// in\n    tag_61:\n    tag_60:\n      swap1\n      0x00\n      mstore\n      keccak256(0x00, 0x20)\n      add\n      0x00\n      swap1\n      sload\n      swap1\n      0x0100\n      exp\n      swap1\n      div\n      0xffffffffffffffffffffffffffffffffffffffff\n      and\n        /* \"Lincloud/.deps/contract/contract.sol\":4146:4175  user_contracts_list[i].userId */\n      0xffffffffffffffffffffffffffffffffffffffff\n      and\n      0x58975919\n        /* \"Lincloud/.deps/contract/contract.sol\":4146:4177  user_contracts_list[i].userId() */\n      mload(0x40)\n      dup2\n      0xffffffff\n      and\n      0xe0\n      shl\n      dup2\n      mstore\n      0x04\n      add\n      0x20\n      mload(0x40)\n      dup1\n      dup4\n      sub\n      dup2\n      dup7\n      gas\n      staticcall\n      iszero\n      dup1\n      iszero\n      tag_65\n      jumpi\n      returndatasize\n      0x00\n      dup1\n      returndatacopy\n      revert(0x00, returndatasize)\n    tag_65:\n      pop\n      pop\n      pop\n      pop\n      mload(0x40)\n      returndatasize\n      not(0x1f)\n      0x1f\n      dup3\n      add\n      and\n      dup3\n      add\n      dup1\n      0x40\n      mstore\n      pop\n      dup2\n      add\n      swap1\n      tag_66\n      swap2\n      swap1\n      tag_67\n      jump\t// in\n    tag_66:\n        /* \"Lincloud/.deps/contract/contract.sol\":4133:4140  userIds */\n      dup3\n        /* \"Lincloud/.deps/contract/contract.sol\":4141:4142  i */\n      dup3\n        /* \"Lincloud/.deps/contract/contract.sol\":4133:4143  userIds[i] */\n      dup2\n      mload\n      dup2\n      lt\n      tag_68\n      jumpi\n      tag_69\n      tag_62\n      jump\t// in\n    tag_69:\n    tag_68:\n      0x20\n      mul\n      0x20\n      add\n      add\n        /* \"Lincloud/.deps/contract/contract.sol\":4133:4177  userIds[i] = user_contracts_list[i].userId() */\n      dup2\n      dup2\n      mstore\n      pop\n      pop\n        /* \"Lincloud/.deps/contract/contract.sol\":4113:4116  i++ */\n      dup1\n      dup1\n      0x01\n      add\n      swap2\n      pop\n      pop\n        /* \"Lincloud/.deps/contract/contract.sol\":4061:4189  for (uint256 i = 0; i < user_contracts_list.length; i++) {... */\n      jump(tag_57)\n    tag_58:\n      pop\n        /* \"Lincloud/.deps/contract/contract.sol\":4206:4213  userIds */\n      dup1\n        /* \"Lincloud/.deps/contract/contract.sol\":4199:4213  return userIds */\n      swap2\n      pop\n      pop\n        /* \"Lincloud/.deps/contract/contract.sol\":3907:4221  function getAllUsersId() public view returns (uint256[] memory) {... */\n      swap1\n      jump\t// out\n        /* \"Lincloud/.deps/contract/contract.sol\":959:1419  function addNewRecipient(uint256 userId, uint256 recipientId) public { // aggiungi un nuovo destinatario per l'utente specificato... */\n    tag_21:\n        /* \"Lincloud/.deps/contract/contract.sol\":1120:1125  owner */\n      0x00\n      dup1\n      sload\n      swap1\n      0x0100\n      exp\n      swap1\n      div\n      0xffffffffffffffffffffffffffffffffffffffff\n      and\n        /* \"Lincloud/.deps/contract/contract.sol\":1106:1125  msg.sender == owner */\n      0xffffffffffffffffffffffffffffffffffffffff\n      and\n        /* \"Lincloud/.deps/contract/contract.sol\":1106:1116  msg.sender */\n      caller\n        /* \"Lincloud/.deps/contract/contract.sol\":1106:1125  msg.sender == owner */\n      0xffffffffffffffffffffffffffffffffffffffff\n      and\n      eq\n        /* \"Lincloud/.deps/contract/contract.sol\":1098:1126  require(msg.sender == owner) */\n      tag_71\n      jumpi\n      0x00\n      dup1\n      revert\n    tag_71:\n        /* \"Lincloud/.deps/contract/contract.sol\":1146:1165  isUserExist(userId) */\n      tag_72\n        /* \"Lincloud/.deps/contract/contract.sol\":1158:1164  userId */\n      dup3\n        /* \"Lincloud/.deps/contract/contract.sol\":1146:1157  isUserExist */\n      tag_73\n        /* \"Lincloud/.deps/contract/contract.sol\":1146:1165  isUserExist(userId) */\n      jump\t// in\n    tag_72:\n        /* \"Lincloud/.deps/contract/contract.sol\":1145:1165  !isUserExist(userId) */\n      iszero\n        /* \"Lincloud/.deps/contract/contract.sol\":1137:1188  require(!isUserExist(userId), \"User already exist\") */\n      tag_74\n      jumpi\n      mload(0x40)\n      0x08c379a000000000000000000000000000000000000000000000000000000000\n      dup2\n      mstore\n      0x04\n      add\n      tag_75\n      swap1\n      tag_76\n      jump\t// in\n    tag_75:\n      mload(0x40)\n      dup1\n      swap2\n      sub\n      swap1\n      revert\n    tag_74:\n        /* \"Lincloud/.deps/contract/contract.sol\":1204:1213  uint256 i */\n      0x00\n        /* \"Lincloud/.deps/contract/contract.sol\":1199:1412  for (uint256 i = 0; i < user_contracts_list.length; i++) {... */\n    tag_77:\n        /* \"Lincloud/.deps/contract/contract.sol\":1223:1242  user_contracts_list */\n      0x01\n        /* \"Lincloud/.deps/contract/contract.sol\":1223:1249  user_contracts_list.length */\n      dup1\n      sload\n      swap1\n      pop\n        /* \"Lincloud/.deps/contract/contract.sol\":1219:1220  i */\n      dup2\n        /* \"Lincloud/.deps/contract/contract.sol\":1219:1249  i < user_contracts_list.length */\n      lt\n        /* \"Lincloud/.deps/contract/contract.sol\":1199:1412  for (uint256 i = 0; i < user_contracts_list.length; i++) {... */\n      iszero\n      tag_78\n      jumpi\n        /* \"Lincloud/.deps/contract/contract.sol\":1310:1316  userId */\n      dup3\n        /* \"Lincloud/.deps/contract/contract.sol\":1275:1294  user_contracts_list */\n      0x01\n        /* \"Lincloud/.deps/contract/contract.sol\":1295:1296  i */\n      dup3\n        /* \"Lincloud/.deps/contract/contract.sol\":1275:1297  user_contracts_list[i] */\n      dup2\n      sload\n      dup2\n      lt\n      tag_80\n      jumpi\n      tag_81\n      tag_62\n      jump\t// in\n    tag_81:\n    tag_80:\n      swap1\n      0x00\n      mstore\n      keccak256(0x00, 0x20)\n      add\n      0x00\n      swap1\n      sload\n      swap1\n      0x0100\n      exp\n      swap1\n      div\n      0xffffffffffffffffffffffffffffffffffffffff\n      and\n        /* \"Lincloud/.deps/contract/contract.sol\":1275:1304  user_contracts_list[i].userId */\n      0xffffffffffffffffffffffffffffffffffffffff\n      and\n      0x58975919\n        /* \"Lincloud/.deps/contract/contract.sol\":1275:1306  user_contracts_list[i].userId() */\n      mload(0x40)\n      dup2\n      0xffffffff\n      and\n      0xe0\n      shl\n      dup2\n      mstore\n      0x04\n      add\n      0x20\n      mload(0x40)\n      dup1\n      dup4\n      sub\n      dup2\n      dup7\n      gas\n      staticcall\n      iszero\n      dup1\n      iszero\n      tag_84\n      jumpi\n      returndatasize\n      0x00\n      dup1\n      returndatacopy\n      revert(0x00, returndatasize)\n    tag_84:\n      pop\n      pop\n      pop\n      pop\n      mload(0x40)\n      returndatasize\n      not(0x1f)\n      0x1f\n      dup3\n      add\n      and\n      dup3\n      add\n      dup1\n      0x40\n      mstore\n      pop\n      dup2\n      add\n      swap1\n      tag_85\n      swap2\n      swap1\n      tag_67\n      jump\t// in\n    tag_85:\n        /* \"Lincloud/.deps/contract/contract.sol\":1275:1316  user_contracts_list[i].userId() == userId */\n      sub\n        /* \"Lincloud/.deps/contract/contract.sol\":1271:1401  if (user_contracts_list[i].userId() == userId) {... */\n      tag_86\n      jumpi\n        /* \"Lincloud/.deps/contract/contract.sol\":1337:1356  user_contracts_list */\n      0x01\n        /* \"Lincloud/.deps/contract/contract.sol\":1357:1358  i */\n      dup2\n        /* \"Lincloud/.deps/contract/contract.sol\":1337:1359  user_contracts_list[i] */\n      dup2\n      sload\n      dup2\n      lt\n      tag_87\n      jumpi\n      tag_88\n      tag_62\n      jump\t// in\n    tag_88:\n    tag_87:\n      swap1\n      0x00\n      mstore\n      keccak256(0x00, 0x20)\n      add\n      0x00\n      swap1\n      sload\n      swap1\n      0x0100\n      exp\n      swap1\n      div\n      0xffffffffffffffffffffffffffffffffffffffff\n      and\n        /* \"Lincloud/.deps/contract/contract.sol\":1337:1372  user_contracts_list[i].addRecipient */\n      0xffffffffffffffffffffffffffffffffffffffff\n      and\n      0xfc68b3ed\n        /* \"Lincloud/.deps/contract/contract.sol\":1373:1384  recipientId */\n      dup4\n        /* \"Lincloud/.deps/contract/contract.sol\":1337:1385  user_contracts_list[i].addRecipient(recipientId) */\n      mload(0x40)\n      dup3\n      0xffffffff\n      and\n      0xe0\n      shl\n      dup2\n      mstore\n      0x04\n      add\n      tag_90\n      swap2\n      swap1\n      tag_91\n      jump\t// in\n    tag_90:\n      0x00\n      mload(0x40)\n      dup1\n      dup4\n      sub\n      dup2\n      0x00\n      dup8\n      dup1\n      extcodesize\n      iszero\n      dup1\n      iszero\n      tag_92\n      jumpi\n      0x00\n      dup1\n      revert\n    tag_92:\n      pop\n      gas\n      call\n      iszero\n      dup1\n      iszero\n      tag_94\n      jumpi\n      returndatasize\n      0x00\n      dup1\n      returndatacopy\n      revert(0x00, returndatasize)\n    tag_94:\n      pop\n      pop\n      pop\n      pop\n        /* \"Lincloud/.deps/contract/contract.sol\":1271:1401  if (user_contracts_list[i].userId() == userId) {... */\n    tag_86:\n        /* \"Lincloud/.deps/contract/contract.sol\":1251:1254  i++ */\n      dup1\n      dup1\n      0x01\n      add\n      swap2\n      pop\n      pop\n        /* \"Lincloud/.deps/contract/contract.sol\":1199:1412  for (uint256 i = 0; i < user_contracts_list.length; i++) {... */\n      jump(tag_77)\n    tag_78:\n      pop\n        /* \"Lincloud/.deps/contract/contract.sol\":959:1419  function addNewRecipient(uint256 userId, uint256 recipientId) public { // aggiungi un nuovo destinatario per l'utente specificato... */\n      pop\n      pop\n      jump\t// out\n        /* \"Lincloud/.deps/contract/contract.sol\":239:291  mapping(uint256 => address) public contract_user_map */\n    tag_25:\n      mstore(0x20, 0x02)\n      dup1\n      0x00\n      mstore\n      keccak256(0x00, 0x40)\n      0x00\n      swap2\n      pop\n      sload\n      swap1\n      0x0100\n      exp\n      swap1\n      div\n      0xffffffffffffffffffffffffffffffffffffffff\n      and\n      dup2\n      jump\t// out\n        /* \"Lincloud/.deps/contract/contract.sol\":1427:1816  function addNewOracle(uint256 userId, uint256 oracleId) public {... */\n    tag_30:\n        /* \"Lincloud/.deps/contract/contract.sol\":1523:1528  owner */\n      0x00\n      dup1\n      sload\n      swap1\n      0x0100\n      exp\n      swap1\n      div\n      0xffffffffffffffffffffffffffffffffffffffff\n      and\n        /* \"Lincloud/.deps/contract/contract.sol\":1509:1528  msg.sender == owner */\n      0xffffffffffffffffffffffffffffffffffffffff\n      and\n        /* \"Lincloud/.deps/contract/contract.sol\":1509:1519  msg.sender */\n      caller\n        /* \"Lincloud/.deps/contract/contract.sol\":1509:1528  msg.sender == owner */\n      0xffffffffffffffffffffffffffffffffffffffff\n      and\n      eq\n        /* \"Lincloud/.deps/contract/contract.sol\":1501:1529  require(msg.sender == owner) */\n      tag_96\n      jumpi\n      0x00\n      dup1\n      revert\n    tag_96:\n        /* \"Lincloud/.deps/contract/contract.sol\":1549:1568  isUserExist(userId) */\n      tag_97\n        /* \"Lincloud/.deps/contract/contract.sol\":1561:1567  userId */\n      dup3\n        /* \"Lincloud/.deps/contract/contract.sol\":1549:1560  isUserExist */\n      tag_73\n        /* \"Lincloud/.deps/contract/contract.sol\":1549:1568  isUserExist(userId) */\n      jump\t// in\n    tag_97:\n        /* \"Lincloud/.deps/contract/contract.sol\":1548:1568  !isUserExist(userId) */\n      iszero\n        /* \"Lincloud/.deps/contract/contract.sol\":1540:1591  require(!isUserExist(userId), \"User already exist\") */\n      tag_98\n      jumpi\n      mload(0x40)\n      0x08c379a000000000000000000000000000000000000000000000000000000000\n      dup2\n      mstore\n      0x04\n      add\n      tag_99\n      swap1\n      tag_76\n      jump\t// in\n    tag_99:\n      mload(0x40)\n      dup1\n      swap2\n      sub\n      swap1\n      revert\n    tag_98:\n        /* \"Lincloud/.deps/contract/contract.sol\":1607:1616  uint256 i */\n      0x00\n        /* \"Lincloud/.deps/contract/contract.sol\":1602:1809  for (uint256 i = 0; i < user_contracts_list.length; i++) {... */\n    tag_100:\n        /* \"Lincloud/.deps/contract/contract.sol\":1626:1645  user_contracts_list */\n      0x01\n        /* \"Lincloud/.deps/contract/contract.sol\":1626:1652  user_contracts_list.length */\n      dup1\n      sload\n      swap1\n      pop\n        /* \"Lincloud/.deps/contract/contract.sol\":1622:1623  i */\n      dup2\n        /* \"Lincloud/.deps/contract/contract.sol\":1622:1652  i < user_contracts_list.length */\n      lt\n        /* \"Lincloud/.deps/contract/contract.sol\":1602:1809  for (uint256 i = 0; i < user_contracts_list.length; i++) {... */\n      iszero\n      tag_101\n      jumpi\n        /* \"Lincloud/.deps/contract/contract.sol\":1713:1719  userId */\n      dup3\n        /* \"Lincloud/.deps/contract/contract.sol\":1678:1697  user_contracts_list */\n      0x01\n        /* \"Lincloud/.deps/contract/contract.sol\":1698:1699  i */\n      dup3\n        /* \"Lincloud/.deps/contract/contract.sol\":1678:1700  user_contracts_list[i] */\n      dup2\n      sload\n      dup2\n      lt\n      tag_103\n      jumpi\n      tag_104\n      tag_62\n      jump\t// in\n    tag_104:\n    tag_103:\n      swap1\n      0x00\n      mstore\n      keccak256(0x00, 0x20)\n      add\n      0x00\n      swap1\n      sload\n      swap1\n      0x0100\n      exp\n      swap1\n      div\n      0xffffffffffffffffffffffffffffffffffffffff\n      and\n        /* \"Lincloud/.deps/contract/contract.sol\":1678:1707  user_contracts_list[i].userId */\n      0xffffffffffffffffffffffffffffffffffffffff\n      and\n      0x58975919\n        /* \"Lincloud/.deps/contract/contract.sol\":1678:1709  user_contracts_list[i].userId() */\n      mload(0x40)\n      dup2\n      0xffffffff\n      and\n      0xe0\n      shl\n      dup2\n      mstore\n      0x04\n      add\n      0x20\n      mload(0x40)\n      dup1\n      dup4\n      sub\n      dup2\n      dup7\n      gas\n      staticcall\n      iszero\n      dup1\n      iszero\n      tag_107\n      jumpi\n      returndatasize\n      0x00\n      dup1\n      returndatacopy\n      revert(0x00, returndatasize)\n    tag_107:\n      pop\n      pop\n      pop\n      pop\n      mload(0x40)\n      returndatasize\n      not(0x1f)\n      0x1f\n      dup3\n      add\n      and\n      dup3\n      add\n      dup1\n      0x40\n      mstore\n      pop\n      dup2\n      add\n      swap1\n      tag_108\n      swap2\n      swap1\n      tag_67\n      jump\t// in\n    tag_108:\n        /* \"Lincloud/.deps/contract/contract.sol\":1678:1719  user_contracts_list[i].userId() == userId */\n      sub\n        /* \"Lincloud/.deps/contract/contract.sol\":1674:1798  if (user_contracts_list[i].userId() == userId) {... */\n      tag_109\n      jumpi\n        /* \"Lincloud/.deps/contract/contract.sol\":1740:1759  user_contracts_list */\n      0x01\n        /* \"Lincloud/.deps/contract/contract.sol\":1760:1761  i */\n      dup2\n        /* \"Lincloud/.deps/contract/contract.sol\":1740:1762  user_contracts_list[i] */\n      dup2\n      sload\n      dup2\n      lt\n      tag_110\n      jumpi\n      tag_111\n      tag_62\n      jump\t// in\n    tag_111:\n    tag_110:\n      swap1\n      0x00\n      mstore\n      keccak256(0x00, 0x20)\n      add\n      0x00\n      swap1\n      sload\n      swap1\n      0x0100\n      exp\n      swap1\n      div\n      0xffffffffffffffffffffffffffffffffffffffff\n      and\n        /* \"Lincloud/.deps/contract/contract.sol\":1740:1772  user_contracts_list[i].addOracle */\n      0xffffffffffffffffffffffffffffffffffffffff\n      and\n      0xe5a72d5b\n        /* \"Lincloud/.deps/contract/contract.sol\":1773:1781  oracleId */\n      dup4\n        /* \"Lincloud/.deps/contract/contract.sol\":1740:1782  user_contracts_list[i].addOracle(oracleId) */\n      mload(0x40)\n      dup3\n      0xffffffff\n      and\n      0xe0\n      shl\n      dup2\n      mstore\n      0x04\n      add\n      tag_113\n      swap2\n      swap1\n      tag_91\n      jump\t// in\n    tag_113:\n      0x00\n      mload(0x40)\n      dup1\n      dup4\n      sub\n      dup2\n      0x00\n      dup8\n      dup1\n      extcodesize\n      iszero\n      dup1\n      iszero\n      tag_114\n      jumpi\n      0x00\n      dup1\n      revert\n    tag_114:\n      pop\n      gas\n      call\n      iszero\n      dup1\n      iszero\n      tag_116\n      jumpi\n      returndatasize\n      0x00\n      dup1\n      returndatacopy\n      revert(0x00, returndatasize)\n    tag_116:\n      pop\n      pop\n      pop\n      pop\n        /* \"Lincloud/.deps/contract/contract.sol\":1674:1798  if (user_contracts_list[i].userId() == userId) {... */\n    tag_109:\n        /* \"Lincloud/.deps/contract/contract.sol\":1654:1657  i++ */\n      dup1\n      dup1\n      0x01\n      add\n      swap2\n      pop\n      pop\n        /* \"Lincloud/.deps/contract/contract.sol\":1602:1809  for (uint256 i = 0; i < user_contracts_list.length; i++) {... */\n      jump(tag_100)\n    tag_101:\n      pop\n        /* \"Lincloud/.deps/contract/contract.sol\":1427:1816  function addNewOracle(uint256 userId, uint256 oracleId) public {... */\n      pop\n      pop\n      jump\t// out\n        /* \"Lincloud/.deps/contract/contract.sol\":99:119  address public owner */\n    tag_32:\n      0x00\n      dup1\n      sload\n      swap1\n      0x0100\n      exp\n      swap1\n      div\n      0xffffffffffffffffffffffffffffffffffffffff\n      and\n      dup2\n      jump\t// out\n        /* \"Lincloud/.deps/contract/contract.sol\":1824:2203  function userDeathNotify(uint256 userId) public {... */\n    tag_36:\n        /* \"Lincloud/.deps/contract/contract.sol\":1905:1910  owner */\n      0x00\n      dup1\n      sload\n      swap1\n      0x0100\n      exp\n      swap1\n      div\n      0xffffffffffffffffffffffffffffffffffffffff\n      and\n        /* \"Lincloud/.deps/contract/contract.sol\":1891:1910  msg.sender == owner */\n      0xffffffffffffffffffffffffffffffffffffffff\n      and\n        /* \"Lincloud/.deps/contract/contract.sol\":1891:1901  msg.sender */\n      caller\n        /* \"Lincloud/.deps/contract/contract.sol\":1891:1910  msg.sender == owner */\n      0xffffffffffffffffffffffffffffffffffffffff\n      and\n      eq\n        /* \"Lincloud/.deps/contract/contract.sol\":1883:1911  require(msg.sender == owner) */\n      tag_118\n      jumpi\n      0x00\n      dup1\n      revert\n    tag_118:\n        /* \"Lincloud/.deps/contract/contract.sol\":1931:1950  isUserExist(userId) */\n      tag_119\n        /* \"Lincloud/.deps/contract/contract.sol\":1943:1949  userId */\n      dup2\n        /* \"Lincloud/.deps/contract/contract.sol\":1931:1942  isUserExist */\n      tag_73\n        /* \"Lincloud/.deps/contract/contract.sol\":1931:1950  isUserExist(userId) */\n      jump\t// in\n    tag_119:\n        /* \"Lincloud/.deps/contract/contract.sol\":1930:1950  !isUserExist(userId) */\n      iszero\n        /* \"Lincloud/.deps/contract/contract.sol\":1922:1973  require(!isUserExist(userId), \"User already exist\") */\n      tag_120\n      jumpi\n      mload(0x40)\n      0x08c379a000000000000000000000000000000000000000000000000000000000\n      dup2\n      mstore\n      0x04\n      add\n      tag_121\n      swap1\n      tag_76\n      jump\t// in\n    tag_121:\n      mload(0x40)\n      dup1\n      swap2\n      sub\n      swap1\n      revert\n    tag_120:\n        /* \"Lincloud/.deps/contract/contract.sol\":1989:1998  uint256 i */\n      0x00\n        /* \"Lincloud/.deps/contract/contract.sol\":1984:2196  for (uint256 i = 0; i < user_contracts_list.length; i++) {... */\n    tag_122:\n        /* \"Lincloud/.deps/contract/contract.sol\":2008:2027  user_contracts_list */\n      0x01\n        /* \"Lincloud/.deps/contract/contract.sol\":2008:2034  user_contracts_list.length */\n      dup1\n      sload\n      swap1\n      pop\n        /* \"Lincloud/.deps/contract/contract.sol\":2004:2005  i */\n      dup2\n        /* \"Lincloud/.deps/contract/contract.sol\":2004:2034  i < user_contracts_list.length */\n      lt\n        /* \"Lincloud/.deps/contract/contract.sol\":1984:2196  for (uint256 i = 0; i < user_contracts_list.length; i++) {... */\n      iszero\n      tag_123\n      jumpi\n        /* \"Lincloud/.deps/contract/contract.sol\":2095:2101  userId */\n      dup2\n        /* \"Lincloud/.deps/contract/contract.sol\":2060:2079  user_contracts_list */\n      0x01\n        /* \"Lincloud/.deps/contract/contract.sol\":2080:2081  i */\n      dup3\n        /* \"Lincloud/.deps/contract/contract.sol\":2060:2082  user_contracts_list[i] */\n      dup2\n      sload\n      dup2\n      lt\n      tag_125\n      jumpi\n      tag_126\n      tag_62\n      jump\t// in\n    tag_126:\n    tag_125:\n      swap1\n      0x00\n      mstore\n      keccak256(0x00, 0x20)\n      add\n      0x00\n      swap1\n      sload\n      swap1\n      0x0100\n      exp\n      swap1\n      div\n      0xffffffffffffffffffffffffffffffffffffffff\n      and\n        /* \"Lincloud/.deps/contract/contract.sol\":2060:2089  user_contracts_list[i].userId */\n      0xffffffffffffffffffffffffffffffffffffffff\n      and\n      0x58975919\n        /* \"Lincloud/.deps/contract/contract.sol\":2060:2091  user_contracts_list[i].userId() */\n      mload(0x40)\n      dup2\n      0xffffffff\n      and\n      0xe0\n      shl\n      dup2\n      mstore\n      0x04\n      add\n      0x20\n      mload(0x40)\n      dup1\n      dup4\n      sub\n      dup2\n      dup7\n      gas\n      staticcall\n      iszero\n      dup1\n      iszero\n      tag_129\n      jumpi\n      returndatasize\n      0x00\n      dup1\n      returndatacopy\n      revert(0x00, returndatasize)\n    tag_129:\n      pop\n      pop\n      pop\n      pop\n      mload(0x40)\n      returndatasize\n      not(0x1f)\n      0x1f\n      dup3\n      add\n      and\n      dup3\n      add\n      dup1\n      0x40\n      mstore\n      pop\n      dup2\n      add\n      swap1\n      tag_130\n      swap2\n      swap1\n      tag_67\n      jump\t// in\n    tag_130:\n        /* \"Lincloud/.deps/contract/contract.sol\":2060:2101  user_contracts_list[i].userId() == userId */\n      sub\n        /* \"Lincloud/.deps/contract/contract.sol\":2056:2185  if (user_contracts_list[i].userId() == userId) {... */\n      tag_131\n      jumpi\n        /* \"Lincloud/.deps/contract/contract.sol\":2122:2141  user_contracts_list */\n      0x01\n        /* \"Lincloud/.deps/contract/contract.sol\":2142:2143  i */\n      dup2\n        /* \"Lincloud/.deps/contract/contract.sol\":2122:2144  user_contracts_list[i] */\n      dup2\n      sload\n      dup2\n      lt\n      tag_132\n      jumpi\n      tag_133\n      tag_62\n      jump\t// in\n    tag_133:\n    tag_132:\n      swap1\n      0x00\n      mstore\n      keccak256(0x00, 0x20)\n      add\n      0x00\n      swap1\n      sload\n      swap1\n      0x0100\n      exp\n      swap1\n      div\n      0xffffffffffffffffffffffffffffffffffffffff\n      and\n        /* \"Lincloud/.deps/contract/contract.sol\":2122:2167  user_contracts_list[i].setUserStateToDeceased */\n      0xffffffffffffffffffffffffffffffffffffffff\n      and\n      0xac3ef22d\n        /* \"Lincloud/.deps/contract/contract.sol\":2122:2169  user_contracts_list[i].setUserStateToDeceased() */\n      mload(0x40)\n      dup2\n      0xffffffff\n      and\n      0xe0\n      shl\n      dup2\n      mstore\n      0x04\n      add\n      0x00\n      mload(0x40)\n      dup1\n      dup4\n      sub\n      dup2\n      0x00\n      dup8\n      dup1\n      extcodesize\n      iszero\n      dup1\n      iszero\n      tag_135\n      jumpi\n      0x00\n      dup1\n      revert\n    tag_135:\n      pop\n      gas\n      call\n      iszero\n      dup1\n      iszero\n      tag_137\n      jumpi\n      returndatasize\n      0x00\n      dup1\n      returndatacopy\n      revert(0x00, returndatasize)\n    tag_137:\n      pop\n      pop\n      pop\n      pop\n        /* \"Lincloud/.deps/contract/contract.sol\":2056:2185  if (user_contracts_list[i].userId() == userId) {... */\n    tag_131:\n        /* \"Lincloud/.deps/contract/contract.sol\":2036:2039  i++ */\n      dup1\n      dup1\n      0x01\n      add\n      swap2\n      pop\n      pop\n        /* \"Lincloud/.deps/contract/contract.sol\":1984:2196  for (uint256 i = 0; i < user_contracts_list.length; i++) {... */\n      jump(tag_122)\n    tag_123:\n      pop\n        /* \"Lincloud/.deps/contract/contract.sol\":1824:2203  function userDeathNotify(uint256 userId) public {... */\n      pop\n      jump\t// out\n        /* \"Lincloud/.deps/contract/contract.sol\":2211:2657  function updateTimestamp(uint256 userId, uint256 recipientId, string memory timestamp) public {... */\n    tag_40:\n        /* \"Lincloud/.deps/contract/contract.sol\":2338:2343  owner */\n      0x00\n      dup1\n      sload\n      swap1\n      0x0100\n      exp\n      swap1\n      div\n      0xffffffffffffffffffffffffffffffffffffffff\n      and\n        /* \"Lincloud/.deps/contract/contract.sol\":2324:2343  msg.sender == owner */\n      0xffffffffffffffffffffffffffffffffffffffff\n      and\n        /* \"Lincloud/.deps/contract/contract.sol\":2324:2334  msg.sender */\n      caller\n        /* \"Lincloud/.deps/contract/contract.sol\":2324:2343  msg.sender == owner */\n      0xffffffffffffffffffffffffffffffffffffffff\n      and\n      eq\n        /* \"Lincloud/.deps/contract/contract.sol\":2316:2344  require(msg.sender == owner) */\n      tag_139\n      jumpi\n      0x00\n      dup1\n      revert\n    tag_139:\n        /* \"Lincloud/.deps/contract/contract.sol\":2364:2383  isUserExist(userId) */\n      tag_140\n        /* \"Lincloud/.deps/contract/contract.sol\":2376:2382  userId */\n      dup4\n        /* \"Lincloud/.deps/contract/contract.sol\":2364:2375  isUserExist */\n      tag_73\n        /* \"Lincloud/.deps/contract/contract.sol\":2364:2383  isUserExist(userId) */\n      jump\t// in\n    tag_140:\n        /* \"Lincloud/.deps/contract/contract.sol\":2363:2383  !isUserExist(userId) */\n      iszero\n        /* \"Lincloud/.deps/contract/contract.sol\":2355:2406  require(!isUserExist(userId), \"User already exist\") */\n      tag_141\n      jumpi\n      mload(0x40)\n      0x08c379a000000000000000000000000000000000000000000000000000000000\n      dup2\n      mstore\n      0x04\n      add\n      tag_142\n      swap1\n      tag_76\n      jump\t// in\n    tag_142:\n      mload(0x40)\n      dup1\n      swap2\n      sub\n      swap1\n      revert\n    tag_141:\n        /* \"Lincloud/.deps/contract/contract.sol\":2422:2431  uint256 i */\n      0x00\n        /* \"Lincloud/.deps/contract/contract.sol\":2417:2650  for (uint256 i = 0; i < user_contracts_list.length; i++) {... */\n    tag_143:\n        /* \"Lincloud/.deps/contract/contract.sol\":2441:2460  user_contracts_list */\n      0x01\n        /* \"Lincloud/.deps/contract/contract.sol\":2441:2467  user_contracts_list.length */\n      dup1\n      sload\n      swap1\n      pop\n        /* \"Lincloud/.deps/contract/contract.sol\":2437:2438  i */\n      dup2\n        /* \"Lincloud/.deps/contract/contract.sol\":2437:2467  i < user_contracts_list.length */\n      lt\n        /* \"Lincloud/.deps/contract/contract.sol\":2417:2650  for (uint256 i = 0; i < user_contracts_list.length; i++) {... */\n      iszero\n      tag_144\n      jumpi\n        /* \"Lincloud/.deps/contract/contract.sol\":2528:2534  userId */\n      dup4\n        /* \"Lincloud/.deps/contract/contract.sol\":2493:2512  user_contracts_list */\n      0x01\n        /* \"Lincloud/.deps/contract/contract.sol\":2513:2514  i */\n      dup3\n        /* \"Lincloud/.deps/contract/contract.sol\":2493:2515  user_contracts_list[i] */\n      dup2\n      sload\n      dup2\n      lt\n      tag_146\n      jumpi\n      tag_147\n      tag_62\n      jump\t// in\n    tag_147:\n    tag_146:\n      swap1\n      0x00\n      mstore\n      keccak256(0x00, 0x20)\n      add\n      0x00\n      swap1\n      sload\n      swap1\n      0x0100\n      exp\n      swap1\n      div\n      0xffffffffffffffffffffffffffffffffffffffff\n      and\n        /* \"Lincloud/.deps/contract/contract.sol\":2493:2522  user_contracts_list[i].userId */\n      0xffffffffffffffffffffffffffffffffffffffff\n      and\n      0x58975919\n        /* \"Lincloud/.deps/contract/contract.sol\":2493:2524  user_contracts_list[i].userId() */\n      mload(0x40)\n      dup2\n      0xffffffff\n      and\n      0xe0\n      shl\n      dup2\n      mstore\n      0x04\n      add\n      0x20\n      mload(0x40)\n      dup1\n      dup4\n      sub\n      dup2\n      dup7\n      gas\n      staticcall\n      iszero\n      dup1\n      iszero\n      tag_150\n      jumpi\n      returndatasize\n      0x00\n      dup1\n      returndatacopy\n      revert(0x00, returndatasize)\n    tag_150:\n      pop\n      pop\n      pop\n      pop\n      mload(0x40)\n      returndatasize\n      not(0x1f)\n      0x1f\n      dup3\n      add\n      and\n      dup3\n      add\n      dup1\n      0x40\n      mstore\n      pop\n      dup2\n      add\n      swap1\n      tag_151\n      swap2\n      swap1\n      tag_67\n      jump\t// in\n    tag_151:\n        /* \"Lincloud/.deps/contract/contract.sol\":2493:2534  user_contracts_list[i].userId() == userId */\n      sub\n        /* \"Lincloud/.deps/contract/contract.sol\":2489:2639  if (user_contracts_list[i].userId() == userId) {... */\n      tag_152\n      jumpi\n        /* \"Lincloud/.deps/contract/contract.sol\":2555:2574  user_contracts_list */\n      0x01\n        /* \"Lincloud/.deps/contract/contract.sol\":2575:2576  i */\n      dup2\n        /* \"Lincloud/.deps/contract/contract.sol\":2555:2577  user_contracts_list[i] */\n      dup2\n      sload\n      dup2\n      lt\n      tag_153\n      jumpi\n      tag_154\n      tag_62\n      jump\t// in\n    tag_154:\n    tag_153:\n      swap1\n      0x00\n      mstore\n      keccak256(0x00, 0x20)\n      add\n      0x00\n      swap1\n      sload\n      swap1\n      0x0100\n      exp\n      swap1\n      div\n      0xffffffffffffffffffffffffffffffffffffffff\n      and\n        /* \"Lincloud/.deps/contract/contract.sol\":2555:2599  user_contracts_list[i].setRecipientTimeStamp */\n      0xffffffffffffffffffffffffffffffffffffffff\n      and\n      0x3121924d\n        /* \"Lincloud/.deps/contract/contract.sol\":2600:2611  recipientId */\n      dup5\n        /* \"Lincloud/.deps/contract/contract.sol\":2613:2622  timestamp */\n      dup5\n        /* \"Lincloud/.deps/contract/contract.sol\":2555:2623  user_contracts_list[i].setRecipientTimeStamp(recipientId, timestamp) */\n      mload(0x40)\n      dup4\n      0xffffffff\n      and\n      0xe0\n      shl\n      dup2\n      mstore\n      0x04\n      add\n      tag_156\n      swap3\n      swap2\n      swap1\n      tag_157\n      jump\t// in\n    tag_156:\n      0x00\n      mload(0x40)\n      dup1\n      dup4\n      sub\n      dup2\n      0x00\n      dup8\n      dup1\n      extcodesize\n      iszero\n      dup1\n      iszero\n      tag_158\n      jumpi\n      0x00\n      dup1\n      revert\n    tag_158:\n      pop\n      gas\n      call\n      iszero\n      dup1\n      iszero\n      tag_160\n      jumpi\n      returndatasize\n      0x00\n      dup1\n      returndatacopy\n      revert(0x00, returndatasize)\n    tag_160:\n      pop\n      pop\n      pop\n      pop\n        /* \"Lincloud/.deps/contract/contract.sol\":2489:2639  if (user_contracts_list[i].userId() == userId) {... */\n    tag_152:\n        /* \"Lincloud/.deps/contract/contract.sol\":2469:2472  i++ */\n      dup1\n      dup1\n      0x01\n      add\n      swap2\n      pop\n      pop\n        /* \"Lincloud/.deps/contract/contract.sol\":2417:2650  for (uint256 i = 0; i < user_contracts_list.length; i++) {... */\n      jump(tag_143)\n    tag_144:\n      pop\n        /* \"Lincloud/.deps/contract/contract.sol\":2211:2657  function updateTimestamp(uint256 userId, uint256 recipientId, string memory timestamp) public {... */\n      pop\n      pop\n      pop\n      jump\t// out\n        /* \"Lincloud/.deps/contract/contract.sol\":455:951  function createNewUserContract(uint256 userId, string memory contractHash) public {  // Crea un nuovo utente e aggiungilo alla lista degli utenti... */\n    tag_44:\n        /* \"Lincloud/.deps/contract/contract.sol\":632:637  owner */\n      0x00\n      dup1\n      sload\n      swap1\n      0x0100\n      exp\n      swap1\n      div\n      0xffffffffffffffffffffffffffffffffffffffff\n      and\n        /* \"Lincloud/.deps/contract/contract.sol\":618:637  msg.sender == owner */\n      0xffffffffffffffffffffffffffffffffffffffff\n      and\n        /* \"Lincloud/.deps/contract/contract.sol\":618:628  msg.sender */\n      caller\n        /* \"Lincloud/.deps/contract/contract.sol\":618:637  msg.sender == owner */\n      0xffffffffffffffffffffffffffffffffffffffff\n      and\n      eq\n        /* \"Lincloud/.deps/contract/contract.sol\":610:638  require(msg.sender == owner) */\n      tag_162\n      jumpi\n      0x00\n      dup1\n      revert\n    tag_162:\n        /* \"Lincloud/.deps/contract/contract.sol\":658:677  isUserExist(userId) */\n      tag_163\n        /* \"Lincloud/.deps/contract/contract.sol\":670:676  userId */\n      dup3\n        /* \"Lincloud/.deps/contract/contract.sol\":658:669  isUserExist */\n      tag_73\n        /* \"Lincloud/.deps/contract/contract.sol\":658:677  isUserExist(userId) */\n      jump\t// in\n    tag_163:\n        /* \"Lincloud/.deps/contract/contract.sol\":657:677  !isUserExist(userId) */\n      iszero\n        /* \"Lincloud/.deps/contract/contract.sol\":649:700  require(!isUserExist(userId), \"User already exist\") */\n      tag_164\n      jumpi\n      mload(0x40)\n      0x08c379a000000000000000000000000000000000000000000000000000000000\n      dup2\n      mstore\n      0x04\n      add\n      tag_165\n      swap1\n      tag_76\n      jump\t// in\n    tag_165:\n      mload(0x40)\n      dup1\n      swap2\n      sub\n      swap1\n      revert\n    tag_164:\n        /* \"Lincloud/.deps/contract/contract.sol\":757:786  user_contract newUserContract */\n      0x00\n        /* \"Lincloud/.deps/contract/contract.sol\":807:813  userId */\n      dup3\n        /* \"Lincloud/.deps/contract/contract.sol\":815:827  contractHash */\n      dup3\n        /* \"Lincloud/.deps/contract/contract.sol\":789:828  new user_contract(userId, contractHash) */\n      mload(0x40)\n      tag_166\n      swap1\n      tag_167\n      jump\t// in\n    tag_166:\n      tag_168\n      swap3\n      swap2\n      swap1\n      tag_157\n      jump\t// in\n    tag_168:\n      mload(0x40)\n      dup1\n      swap2\n      sub\n      swap1\n      0x00\n      create\n      dup1\n      iszero\n      dup1\n      iszero\n      tag_169\n      jumpi\n      returndatasize\n      0x00\n      dup1\n      returndatacopy\n      revert(0x00, returndatasize)\n    tag_169:\n      pop\n        /* \"Lincloud/.deps/contract/contract.sol\":757:828  user_contract newUserContract = new user_contract(userId, contractHash) */\n      swap1\n      pop\n        /* \"Lincloud/.deps/contract/contract.sol\":839:858  user_contracts_list */\n      0x01\n        /* \"Lincloud/.deps/contract/contract.sol\":864:879  newUserContract */\n      dup2\n        /* \"Lincloud/.deps/contract/contract.sol\":839:880  user_contracts_list.push(newUserContract) */\n      swap1\n      dup1\n      0x01\n      dup2\n      sload\n      add\n      dup1\n      dup3\n      sstore\n      dup1\n      swap2\n      pop\n      pop\n      0x01\n      swap1\n      sub\n      swap1\n      0x00\n      mstore\n      keccak256(0x00, 0x20)\n      add\n      0x00\n      swap1\n      swap2\n      swap1\n      swap2\n      swap1\n      swap2\n      0x0100\n      exp\n      dup2\n      sload\n      dup2\n      0xffffffffffffffffffffffffffffffffffffffff\n      mul\n      not\n      and\n      swap1\n      dup4\n      0xffffffffffffffffffffffffffffffffffffffff\n      and\n      mul\n      or\n      swap1\n      sstore\n      pop\n        /* \"Lincloud/.deps/contract/contract.sol\":927:942  newUserContract */\n      dup1\n        /* \"Lincloud/.deps/contract/contract.sol\":891:908  contract_user_map */\n      0x02\n        /* \"Lincloud/.deps/contract/contract.sol\":891:916  contract_user_map[userId] */\n      0x00\n        /* \"Lincloud/.deps/contract/contract.sol\":909:915  userId */\n      dup6\n        /* \"Lincloud/.deps/contract/contract.sol\":891:916  contract_user_map[userId] */\n      dup2\n      mstore\n      0x20\n      add\n      swap1\n      dup2\n      mstore\n      0x20\n      add\n      0x00\n      keccak256\n      0x00\n        /* \"Lincloud/.deps/contract/contract.sol\":891:943  contract_user_map[userId] = address(newUserContract) */\n      0x0100\n      exp\n      dup2\n      sload\n      dup2\n      0xffffffffffffffffffffffffffffffffffffffff\n      mul\n      not\n      and\n      swap1\n      dup4\n      0xffffffffffffffffffffffffffffffffffffffff\n      and\n      mul\n      or\n      swap1\n      sstore\n      pop\n        /* \"Lincloud/.deps/contract/contract.sol\":537:951  {  // Crea un nuovo utente e aggiungilo alla lista degli utenti... */\n      pop\n        /* \"Lincloud/.deps/contract/contract.sol\":455:951  function createNewUserContract(uint256 userId, string memory contractHash) public {  // Crea un nuovo utente e aggiungilo alla lista degli utenti... */\n      pop\n      pop\n      jump\t// out\n        /* \"Lincloud/.deps/contract/contract.sol\":2665:3140  function recipientResponse(uint256 userId, uint256 recipientId, bool isAccepted, bool isTimeExpired) public {... */\n    tag_48:\n        /* \"Lincloud/.deps/contract/contract.sol\":2806:2811  owner */\n      0x00\n      dup1\n      sload\n      swap1\n      0x0100\n      exp\n      swap1\n      div\n      0xffffffffffffffffffffffffffffffffffffffff\n      and\n        /* \"Lincloud/.deps/contract/contract.sol\":2792:2811  msg.sender == owner */\n      0xffffffffffffffffffffffffffffffffffffffff\n      and\n        /* \"Lincloud/.deps/contract/contract.sol\":2792:2802  msg.sender */\n      caller\n        /* \"Lincloud/.deps/contract/contract.sol\":2792:2811  msg.sender == owner */\n      0xffffffffffffffffffffffffffffffffffffffff\n      and\n      eq\n        /* \"Lincloud/.deps/contract/contract.sol\":2784:2812  require(msg.sender == owner) */\n      tag_172\n      jumpi\n      0x00\n      dup1\n      revert\n    tag_172:\n        /* \"Lincloud/.deps/contract/contract.sol\":2832:2851  isUserExist(userId) */\n      tag_173\n        /* \"Lincloud/.deps/contract/contract.sol\":2844:2850  userId */\n      dup5\n        /* \"Lincloud/.deps/contract/contract.sol\":2832:2843  isUserExist */\n      tag_73\n        /* \"Lincloud/.deps/contract/contract.sol\":2832:2851  isUserExist(userId) */\n      jump\t// in\n    tag_173:\n        /* \"Lincloud/.deps/contract/contract.sol\":2831:2851  !isUserExist(userId) */\n      iszero\n        /* \"Lincloud/.deps/contract/contract.sol\":2823:2874  require(!isUserExist(userId), \"User already exist\") */\n      tag_174\n      jumpi\n      mload(0x40)\n      0x08c379a000000000000000000000000000000000000000000000000000000000\n      dup2\n      mstore\n      0x04\n      add\n      tag_175\n      swap1\n      tag_76\n      jump\t// in\n    tag_175:\n      mload(0x40)\n      dup1\n      swap2\n      sub\n      swap1\n      revert\n    tag_174:\n        /* \"Lincloud/.deps/contract/contract.sol\":2890:2899  uint256 i */\n      0x00\n        /* \"Lincloud/.deps/contract/contract.sol\":2885:3133  for (uint256 i = 0; i < user_contracts_list.length; i++) {... */\n    tag_176:\n        /* \"Lincloud/.deps/contract/contract.sol\":2909:2928  user_contracts_list */\n      0x01\n        /* \"Lincloud/.deps/contract/contract.sol\":2909:2935  user_contracts_list.length */\n      dup1\n      sload\n      swap1\n      pop\n        /* \"Lincloud/.deps/contract/contract.sol\":2905:2906  i */\n      dup2\n        /* \"Lincloud/.deps/contract/contract.sol\":2905:2935  i < user_contracts_list.length */\n      lt\n        /* \"Lincloud/.deps/contract/contract.sol\":2885:3133  for (uint256 i = 0; i < user_contracts_list.length; i++) {... */\n      iszero\n      tag_177\n      jumpi\n        /* \"Lincloud/.deps/contract/contract.sol\":2996:3002  userId */\n      dup5\n        /* \"Lincloud/.deps/contract/contract.sol\":2961:2980  user_contracts_list */\n      0x01\n        /* \"Lincloud/.deps/contract/contract.sol\":2981:2982  i */\n      dup3\n        /* \"Lincloud/.deps/contract/contract.sol\":2961:2983  user_contracts_list[i] */\n      dup2\n      sload\n      dup2\n      lt\n      tag_179\n      jumpi\n      tag_180\n      tag_62\n      jump\t// in\n    tag_180:\n    tag_179:\n      swap1\n      0x00\n      mstore\n      keccak256(0x00, 0x20)\n      add\n      0x00\n      swap1\n      sload\n      swap1\n      0x0100\n      exp\n      swap1\n      div\n      0xffffffffffffffffffffffffffffffffffffffff\n      and\n        /* \"Lincloud/.deps/contract/contract.sol\":2961:2990  user_contracts_list[i].userId */\n      0xffffffffffffffffffffffffffffffffffffffff\n      and\n      0x58975919\n        /* \"Lincloud/.deps/contract/contract.sol\":2961:2992  user_contracts_list[i].userId() */\n      mload(0x40)\n      dup2\n      0xffffffff\n      and\n      0xe0\n      shl\n      dup2\n      mstore\n      0x04\n      add\n      0x20\n      mload(0x40)\n      dup1\n      dup4\n      sub\n      dup2\n      dup7\n      gas\n      staticcall\n      iszero\n      dup1\n      iszero\n      tag_183\n      jumpi\n      returndatasize\n      0x00\n      dup1\n      returndatacopy\n      revert(0x00, returndatasize)\n    tag_183:\n      pop\n      pop\n      pop\n      pop\n      mload(0x40)\n      returndatasize\n      not(0x1f)\n      0x1f\n      dup3\n      add\n      and\n      dup3\n      add\n      dup1\n      0x40\n      mstore\n      pop\n      dup2\n      add\n      swap1\n      tag_184\n      swap2\n      swap1\n      tag_67\n      jump\t// in\n    tag_184:\n        /* \"Lincloud/.deps/contract/contract.sol\":2961:3002  user_contracts_list[i].userId() == userId */\n      sub\n        /* \"Lincloud/.deps/contract/contract.sol\":2957:3122  if (user_contracts_list[i].userId() == userId) {... */\n      tag_185\n      jumpi\n        /* \"Lincloud/.deps/contract/contract.sol\":3023:3042  user_contracts_list */\n      0x01\n        /* \"Lincloud/.deps/contract/contract.sol\":3043:3044  i */\n      dup2\n        /* \"Lincloud/.deps/contract/contract.sol\":3023:3045  user_contracts_list[i] */\n      dup2\n      sload\n      dup2\n      lt\n      tag_186\n      jumpi\n      tag_187\n      tag_62\n      jump\t// in\n    tag_187:\n    tag_186:\n      swap1\n      0x00\n      mstore\n      keccak256(0x00, 0x20)\n      add\n      0x00\n      swap1\n      sload\n      swap1\n      0x0100\n      exp\n      swap1\n      div\n      0xffffffffffffffffffffffffffffffffffffffff\n      and\n        /* \"Lincloud/.deps/contract/contract.sol\":3023:3066  user_contracts_list[i].setRecipientResponse */\n      0xffffffffffffffffffffffffffffffffffffffff\n      and\n      0x38fcbc01\n        /* \"Lincloud/.deps/contract/contract.sol\":3067:3078  recipientId */\n      dup6\n        /* \"Lincloud/.deps/contract/contract.sol\":3080:3090  isAccepted */\n      dup6\n        /* \"Lincloud/.deps/contract/contract.sol\":3092:3105  isTimeExpired */\n      dup6\n        /* \"Lincloud/.deps/contract/contract.sol\":3023:3106  user_contracts_list[i].setRecipientResponse(recipientId, isAccepted, isTimeExpired) */\n      mload(0x40)\n      dup5\n      0xffffffff\n      and\n      0xe0\n      shl\n      dup2\n      mstore\n      0x04\n      add\n      tag_189\n      swap4\n      swap3\n      swap2\n      swap1\n      tag_190\n      jump\t// in\n    tag_189:\n      0x00\n      mload(0x40)\n      dup1\n      dup4\n      sub\n      dup2\n      0x00\n      dup8\n      dup1\n      extcodesize\n      iszero\n      dup1\n      iszero\n      tag_191\n      jumpi\n      0x00\n      dup1\n      revert\n    tag_191:\n      pop\n      gas\n      call\n      iszero\n      dup1\n      iszero\n      tag_193\n      jumpi\n      returndatasize\n      0x00\n      dup1\n      returndatacopy\n      revert(0x00, returndatasize)\n    tag_193:\n      pop\n      pop\n      pop\n      pop\n        /* \"Lincloud/.deps/contract/contract.sol\":2957:3122  if (user_contracts_list[i].userId() == userId) {... */\n    tag_185:\n        /* \"Lincloud/.deps/contract/contract.sol\":2937:2940  i++ */\n      dup1\n      dup1\n      0x01\n      add\n      swap2\n      pop\n      pop\n        /* \"Lincloud/.deps/contract/contract.sol\":2885:3133  for (uint256 i = 0; i < user_contracts_list.length; i++) {... */\n      jump(tag_176)\n    tag_177:\n      pop\n        /* \"Lincloud/.deps/contract/contract.sol\":2665:3140  function recipientResponse(uint256 userId, uint256 recipientId, bool isAccepted, bool isTimeExpired) public {... */\n      pop\n      pop\n      pop\n      pop\n      jump\t// out\n        /* \"Lincloud/.deps/contract/contract.sol\":3148:3530  function closeUserContractNotify(uint256 userId) public {... */\n    tag_51:\n        /* \"Lincloud/.deps/contract/contract.sol\":3237:3242  owner */\n      0x00\n      dup1\n      sload\n      swap1\n      0x0100\n      exp\n      swap1\n      div\n      0xffffffffffffffffffffffffffffffffffffffff\n      and\n        /* \"Lincloud/.deps/contract/contract.sol\":3223:3242  msg.sender == owner */\n      0xffffffffffffffffffffffffffffffffffffffff\n      and\n        /* \"Lincloud/.deps/contract/contract.sol\":3223:3233  msg.sender */\n      caller\n        /* \"Lincloud/.deps/contract/contract.sol\":3223:3242  msg.sender == owner */\n      0xffffffffffffffffffffffffffffffffffffffff\n      and\n      eq\n        /* \"Lincloud/.deps/contract/contract.sol\":3215:3243  require(msg.sender == owner) */\n      tag_195\n      jumpi\n      0x00\n      dup1\n      revert\n    tag_195:\n        /* \"Lincloud/.deps/contract/contract.sol\":3263:3282  isUserExist(userId) */\n      tag_196\n        /* \"Lincloud/.deps/contract/contract.sol\":3275:3281  userId */\n      dup2\n        /* \"Lincloud/.deps/contract/contract.sol\":3263:3274  isUserExist */\n      tag_73\n        /* \"Lincloud/.deps/contract/contract.sol\":3263:3282  isUserExist(userId) */\n      jump\t// in\n    tag_196:\n        /* \"Lincloud/.deps/contract/contract.sol\":3262:3282  !isUserExist(userId) */\n      iszero\n        /* \"Lincloud/.deps/contract/contract.sol\":3254:3305  require(!isUserExist(userId), \"User already exist\") */\n      tag_197\n      jumpi\n      mload(0x40)\n      0x08c379a000000000000000000000000000000000000000000000000000000000\n      dup2\n      mstore\n      0x04\n      add\n      tag_198\n      swap1\n      tag_76\n      jump\t// in\n    tag_198:\n      mload(0x40)\n      dup1\n      swap2\n      sub\n      swap1\n      revert\n    tag_197:\n        /* \"Lincloud/.deps/contract/contract.sol\":3321:3330  uint256 i */\n      0x00\n        /* \"Lincloud/.deps/contract/contract.sol\":3316:3523  for (uint256 i = 0; i < user_contracts_list.length; i++) {... */\n    tag_199:\n        /* \"Lincloud/.deps/contract/contract.sol\":3340:3359  user_contracts_list */\n      0x01\n        /* \"Lincloud/.deps/contract/contract.sol\":3340:3366  user_contracts_list.length */\n      dup1\n      sload\n      swap1\n      pop\n        /* \"Lincloud/.deps/contract/contract.sol\":3336:3337  i */\n      dup2\n        /* \"Lincloud/.deps/contract/contract.sol\":3336:3366  i < user_contracts_list.length */\n      lt\n        /* \"Lincloud/.deps/contract/contract.sol\":3316:3523  for (uint256 i = 0; i < user_contracts_list.length; i++) {... */\n      iszero\n      tag_200\n      jumpi\n        /* \"Lincloud/.deps/contract/contract.sol\":3427:3433  userId */\n      dup2\n        /* \"Lincloud/.deps/contract/contract.sol\":3392:3411  user_contracts_list */\n      0x01\n        /* \"Lincloud/.deps/contract/contract.sol\":3412:3413  i */\n      dup3\n        /* \"Lincloud/.deps/contract/contract.sol\":3392:3414  user_contracts_list[i] */\n      dup2\n      sload\n      dup2\n      lt\n      tag_202\n      jumpi\n      tag_203\n      tag_62\n      jump\t// in\n    tag_203:\n    tag_202:\n      swap1\n      0x00\n      mstore\n      keccak256(0x00, 0x20)\n      add\n      0x00\n      swap1\n      sload\n      swap1\n      0x0100\n      exp\n      swap1\n      div\n      0xffffffffffffffffffffffffffffffffffffffff\n      and\n        /* \"Lincloud/.deps/contract/contract.sol\":3392:3421  user_contracts_list[i].userId */\n      0xffffffffffffffffffffffffffffffffffffffff\n      and\n      0x58975919\n        /* \"Lincloud/.deps/contract/contract.sol\":3392:3423  user_contracts_list[i].userId() */\n      mload(0x40)\n      dup2\n      0xffffffff\n      and\n      0xe0\n      shl\n      dup2\n      mstore\n      0x04\n      add\n      0x20\n      mload(0x40)\n      dup1\n      dup4\n      sub\n      dup2\n      dup7\n      gas\n      staticcall\n      iszero\n      dup1\n      iszero\n      tag_206\n      jumpi\n      returndatasize\n      0x00\n      dup1\n      returndatacopy\n      revert(0x00, returndatasize)\n    tag_206:\n      pop\n      pop\n      pop\n      pop\n      mload(0x40)\n      returndatasize\n      not(0x1f)\n      0x1f\n      dup3\n      add\n      and\n      dup3\n      add\n      dup1\n      0x40\n      mstore\n      pop\n      dup2\n      add\n      swap1\n      tag_207\n      swap2\n      swap1\n      tag_67\n      jump\t// in\n    tag_207:\n        /* \"Lincloud/.deps/contract/contract.sol\":3392:3433  user_contracts_list[i].userId() == userId */\n      sub\n        /* \"Lincloud/.deps/contract/contract.sol\":3388:3512  if (user_contracts_list[i].userId() == userId) {... */\n      tag_208\n      jumpi\n        /* \"Lincloud/.deps/contract/contract.sol\":3454:3473  user_contracts_list */\n      0x01\n        /* \"Lincloud/.deps/contract/contract.sol\":3474:3475  i */\n      dup2\n        /* \"Lincloud/.deps/contract/contract.sol\":3454:3476  user_contracts_list[i] */\n      dup2\n      sload\n      dup2\n      lt\n      tag_209\n      jumpi\n      tag_210\n      tag_62\n      jump\t// in\n    tag_210:\n    tag_209:\n      swap1\n      0x00\n      mstore\n      keccak256(0x00, 0x20)\n      add\n      0x00\n      swap1\n      sload\n      swap1\n      0x0100\n      exp\n      swap1\n      div\n      0xffffffffffffffffffffffffffffffffffffffff\n      and\n        /* \"Lincloud/.deps/contract/contract.sol\":3454:3494  user_contracts_list[i].closeUserContract */\n      0xffffffffffffffffffffffffffffffffffffffff\n      and\n      0x35254bcd\n        /* \"Lincloud/.deps/contract/contract.sol\":3454:3496  user_contracts_list[i].closeUserContract() */\n      mload(0x40)\n      dup2\n      0xffffffff\n      and\n      0xe0\n      shl\n      dup2\n      mstore\n      0x04\n      add\n      0x00\n      mload(0x40)\n      dup1\n      dup4\n      sub\n      dup2\n      0x00\n      dup8\n      dup1\n      extcodesize\n      iszero\n      dup1\n      iszero\n      tag_212\n      jumpi\n      0x00\n      dup1\n      revert\n    tag_212:\n      pop\n      gas\n      call\n      iszero\n      dup1\n      iszero\n      tag_214\n      jumpi\n      returndatasize\n      0x00\n      dup1\n      returndatacopy\n      revert(0x00, returndatasize)\n    tag_214:\n      pop\n      pop\n      pop\n      pop\n        /* \"Lincloud/.deps/contract/contract.sol\":3388:3512  if (user_contracts_list[i].userId() == userId) {... */\n    tag_208:\n        /* \"Lincloud/.deps/contract/contract.sol\":3368:3371  i++ */\n      dup1\n      dup1\n      0x01\n      add\n      swap2\n      pop\n      pop\n        /* \"Lincloud/.deps/contract/contract.sol\":3316:3523  for (uint256 i = 0; i < user_contracts_list.length; i++) {... */\n      jump(tag_199)\n    tag_200:\n      pop\n        /* \"Lincloud/.deps/contract/contract.sol\":3148:3530  function closeUserContractNotify(uint256 userId) public {... */\n      pop\n      jump\t// out\n        /* \"Lincloud/.deps/contract/contract.sol\":3538:3821  function isUserExist(uint256 userId) internal view returns (bool) {... */\n    tag_73:\n        /* \"Lincloud/.deps/contract/contract.sol\":3598:3602  bool */\n      0x00\n        /* \"Lincloud/.deps/contract/contract.sol\":3620:3629  uint256 i */\n      dup1\n        /* \"Lincloud/.deps/contract/contract.sol\":3632:3633  0 */\n      0x00\n        /* \"Lincloud/.deps/contract/contract.sol\":3620:3633  uint256 i = 0 */\n      swap1\n      pop\n        /* \"Lincloud/.deps/contract/contract.sol\":3615:3791  for (uint256 i = 0; i < user_contracts_list.length; i++) {... */\n    tag_216:\n        /* \"Lincloud/.deps/contract/contract.sol\":3639:3658  user_contracts_list */\n      0x01\n        /* \"Lincloud/.deps/contract/contract.sol\":3639:3665  user_contracts_list.length */\n      dup1\n      sload\n      swap1\n      pop\n        /* \"Lincloud/.deps/contract/contract.sol\":3635:3636  i */\n      dup2\n        /* \"Lincloud/.deps/contract/contract.sol\":3635:3665  i < user_contracts_list.length */\n      lt\n        /* \"Lincloud/.deps/contract/contract.sol\":3615:3791  for (uint256 i = 0; i < user_contracts_list.length; i++) {... */\n      iszero\n      tag_217\n      jumpi\n        /* \"Lincloud/.deps/contract/contract.sol\":3726:3732  userId */\n      dup3\n        /* \"Lincloud/.deps/contract/contract.sol\":3691:3710  user_contracts_list */\n      0x01\n        /* \"Lincloud/.deps/contract/contract.sol\":3711:3712  i */\n      dup3\n        /* \"Lincloud/.deps/contract/contract.sol\":3691:3713  user_contracts_list[i] */\n      dup2\n      sload\n      dup2\n      lt\n      tag_219\n      jumpi\n      tag_220\n      tag_62\n      jump\t// in\n    tag_220:\n    tag_219:\n      swap1\n      0x00\n      mstore\n      keccak256(0x00, 0x20)\n      add\n      0x00\n      swap1\n      sload\n      swap1\n      0x0100\n      exp\n      swap1\n      div\n      0xffffffffffffffffffffffffffffffffffffffff\n      and\n        /* \"Lincloud/.deps/contract/contract.sol\":3691:3720  user_contracts_list[i].userId */\n      0xffffffffffffffffffffffffffffffffffffffff\n      and\n      0x58975919\n        /* \"Lincloud/.deps/contract/contract.sol\":3691:3722  user_contracts_list[i].userId() */\n      mload(0x40)\n      dup2\n      0xffffffff\n      and\n      0xe0\n      shl\n      dup2\n      mstore\n      0x04\n      add\n      0x20\n      mload(0x40)\n      dup1\n      dup4\n      sub\n      dup2\n      dup7\n      gas\n      staticcall\n      iszero\n      dup1\n      iszero\n      tag_223\n      jumpi\n      returndatasize\n      0x00\n      dup1\n      returndatacopy\n      revert(0x00, returndatasize)\n    tag_223:\n      pop\n      pop\n      pop\n      pop\n      mload(0x40)\n      returndatasize\n      not(0x1f)\n      0x1f\n      dup3\n      add\n      and\n      dup3\n      add\n      dup1\n      0x40\n      mstore\n      pop\n      dup2\n      add\n      swap1\n      tag_224\n      swap2\n      swap1\n      tag_67\n      jump\t// in\n    tag_224:\n        /* \"Lincloud/.deps/contract/contract.sol\":3691:3732  user_contracts_list[i].userId() == userId */\n      sub\n        /* \"Lincloud/.deps/contract/contract.sol\":3687:3780  if (user_contracts_list[i].userId() == userId) {... */\n      tag_225\n      jumpi\n        /* \"Lincloud/.deps/contract/contract.sol\":3760:3764  true */\n      0x01\n        /* \"Lincloud/.deps/contract/contract.sol\":3753:3764  return true */\n      swap2\n      pop\n      pop\n      jump(tag_215)\n        /* \"Lincloud/.deps/contract/contract.sol\":3687:3780  if (user_contracts_list[i].userId() == userId) {... */\n    tag_225:\n        /* \"Lincloud/.deps/contract/contract.sol\":3667:3670  i++ */\n      dup1\n      dup1\n      0x01\n      add\n      swap2\n      pop\n      pop\n        /* \"Lincloud/.deps/contract/contract.sol\":3615:3791  for (uint256 i = 0; i < user_contracts_list.length; i++) {... */\n      jump(tag_216)\n    tag_217:\n      pop\n        /* \"Lincloud/.deps/contract/contract.sol\":3808:3813  false */\n      0x00\n        /* \"Lincloud/.deps/contract/contract.sol\":3801:3813  return false */\n      swap1\n      pop\n        /* \"Lincloud/.deps/contract/contract.sol\":3538:3821  function isUserExist(uint256 userId) internal view returns (bool) {... */\n    tag_215:\n      swap2\n      swap1\n      pop\n      jump\t// out\n    tag_167:\n      dataSize(sub_0)\n      dup1\n      dataOffset(sub_0)\n      dup4\n      codecopy\n      add\n      swap1\n      jump\t// out\n        /* \"#utility.yul\":7:121   */\n    tag_226:\n        /* \"#utility.yul\":74:80   */\n      0x00\n        /* \"#utility.yul\":108:113   */\n      dup2\n        /* \"#utility.yul\":102:114   */\n      mload\n        /* \"#utility.yul\":92:114   */\n      swap1\n      pop\n        /* \"#utility.yul\":7:121   */\n      swap2\n      swap1\n      pop\n      jump\t// out\n        /* \"#utility.yul\":127:311   */\n    tag_227:\n        /* \"#utility.yul\":226:237   */\n      0x00\n        /* \"#utility.yul\":260:266   */\n      dup3\n        /* \"#utility.yul\":255:258   */\n      dup3\n        /* \"#utility.yul\":248:267   */\n      mstore\n        /* \"#utility.yul\":300:304   */\n      0x20\n        /* \"#utility.yul\":295:298   */\n      dup3\n        /* \"#utility.yul\":291:305   */\n      add\n        /* \"#utility.yul\":276:305   */\n      swap1\n      pop\n        /* \"#utility.yul\":127:311   */\n      swap3\n      swap2\n      pop\n      pop\n      jump\t// out\n        /* \"#utility.yul\":317:449   */\n    tag_228:\n        /* \"#utility.yul\":384:388   */\n      0x00\n        /* \"#utility.yul\":407:410   */\n      dup2\n        /* \"#utility.yul\":399:410   */\n      swap1\n      pop\n        /* \"#utility.yul\":437:441   */\n      0x20\n        /* \"#utility.yul\":432:435   */\n      dup3\n        /* \"#utility.yul\":428:442   */\n      add\n        /* \"#utility.yul\":420:442   */\n      swap1\n      pop\n        /* \"#utility.yul\":317:449   */\n      swap2\n      swap1\n      pop\n      jump\t// out\n        /* \"#utility.yul\":455:532   */\n    tag_229:\n        /* \"#utility.yul\":492:499   */\n      0x00\n        /* \"#utility.yul\":521:526   */\n      dup2\n        /* \"#utility.yul\":510:526   */\n      swap1\n      pop\n        /* \"#utility.yul\":455:532   */\n      swap2\n      swap1\n      pop\n      jump\t// out\n        /* \"#utility.yul\":538:646   */\n    tag_230:\n        /* \"#utility.yul\":615:639   */\n      tag_269\n        /* \"#utility.yul\":633:638   */\n      dup2\n        /* \"#utility.yul\":615:639   */\n      tag_229\n      jump\t// in\n    tag_269:\n        /* \"#utility.yul\":610:613   */\n      dup3\n        /* \"#utility.yul\":603:640   */\n      mstore\n        /* \"#utility.yul\":538:646   */\n      pop\n      pop\n      jump\t// out\n        /* \"#utility.yul\":652:831   */\n    tag_231:\n        /* \"#utility.yul\":721:731   */\n      0x00\n        /* \"#utility.yul\":742:788   */\n      tag_271\n        /* \"#utility.yul\":784:787   */\n      dup4\n        /* \"#utility.yul\":776:782   */\n      dup4\n        /* \"#utility.yul\":742:788   */\n      tag_230\n      jump\t// in\n    tag_271:\n        /* \"#utility.yul\":820:824   */\n      0x20\n        /* \"#utility.yul\":815:818   */\n      dup4\n        /* \"#utility.yul\":811:825   */\n      add\n        /* \"#utility.yul\":797:825   */\n      swap1\n      pop\n        /* \"#utility.yul\":652:831   */\n      swap3\n      swap2\n      pop\n      pop\n      jump\t// out\n        /* \"#utility.yul\":837:950   */\n    tag_232:\n        /* \"#utility.yul\":907:911   */\n      0x00\n        /* \"#utility.yul\":939:943   */\n      0x20\n        /* \"#utility.yul\":934:937   */\n      dup3\n        /* \"#utility.yul\":930:944   */\n      add\n        /* \"#utility.yul\":922:944   */\n      swap1\n      pop\n        /* \"#utility.yul\":837:950   */\n      swap2\n      swap1\n      pop\n      jump\t// out\n        /* \"#utility.yul\":986:1718   */\n    tag_233:\n        /* \"#utility.yul\":1105:1108   */\n      0x00\n        /* \"#utility.yul\":1134:1188   */\n      tag_274\n        /* \"#utility.yul\":1182:1187   */\n      dup3\n        /* \"#utility.yul\":1134:1188   */\n      tag_226\n      jump\t// in\n    tag_274:\n        /* \"#utility.yul\":1204:1290   */\n      tag_275\n        /* \"#utility.yul\":1283:1289   */\n      dup2\n        /* \"#utility.yul\":1278:1281   */\n      dup6\n        /* \"#utility.yul\":1204:1290   */\n      tag_227\n      jump\t// in\n    tag_275:\n        /* \"#utility.yul\":1197:1290   */\n      swap4\n      pop\n        /* \"#utility.yul\":1314:1370   */\n      tag_276\n        /* \"#utility.yul\":1364:1369   */\n      dup4\n        /* \"#utility.yul\":1314:1370   */\n      tag_228\n      jump\t// in\n    tag_276:\n        /* \"#utility.yul\":1393:1400   */\n      dup1\n        /* \"#utility.yul\":1424:1425   */\n      0x00\n        /* \"#utility.yul\":1409:1693   */\n    tag_277:\n        /* \"#utility.yul\":1434:1440   */\n      dup4\n        /* \"#utility.yul\":1431:1432   */\n      dup2\n        /* \"#utility.yul\":1428:1441   */\n      lt\n        /* \"#utility.yul\":1409:1693   */\n      iszero\n      tag_279\n      jumpi\n        /* \"#utility.yul\":1510:1516   */\n      dup2\n        /* \"#utility.yul\":1504:1517   */\n      mload\n        /* \"#utility.yul\":1537:1600   */\n      tag_280\n        /* \"#utility.yul\":1596:1599   */\n      dup9\n        /* \"#utility.yul\":1581:1594   */\n      dup3\n        /* \"#utility.yul\":1537:1600   */\n      tag_231\n      jump\t// in\n    tag_280:\n        /* \"#utility.yul\":1530:1600   */\n      swap8\n      pop\n        /* \"#utility.yul\":1623:1683   */\n      tag_281\n        /* \"#utility.yul\":1676:1682   */\n      dup4\n        /* \"#utility.yul\":1623:1683   */\n      tag_232\n      jump\t// in\n    tag_281:\n        /* \"#utility.yul\":1613:1683   */\n      swap3\n      pop\n        /* \"#utility.yul\":1469:1693   */\n      pop\n        /* \"#utility.yul\":1456:1457   */\n      0x01\n        /* \"#utility.yul\":1453:1454   */\n      dup2\n        /* \"#utility.yul\":1449:1458   */\n      add\n        /* \"#utility.yul\":1444:1458   */\n      swap1\n      pop\n        /* \"#utility.yul\":1409:1693   */\n      jump(tag_277)\n    tag_279:\n        /* \"#utility.yul\":1413:1427   */\n      pop\n        /* \"#utility.yul\":1709:1712   */\n      dup6\n        /* \"#utility.yul\":1702:1712   */\n      swap4\n      pop\n        /* \"#utility.yul\":1110:1718   */\n      pop\n      pop\n      pop\n        /* \"#utility.yul\":986:1718   */\n      swap3\n      swap2\n      pop\n      pop\n      jump\t// out\n        /* \"#utility.yul\":1724:2097   */\n    tag_17:\n        /* \"#utility.yul\":1867:1871   */\n      0x00\n        /* \"#utility.yul\":1905:1907   */\n      0x20\n        /* \"#utility.yul\":1894:1903   */\n      dup3\n        /* \"#utility.yul\":1890:1908   */\n      add\n        /* \"#utility.yul\":1882:1908   */\n      swap1\n      pop\n        /* \"#utility.yul\":1954:1963   */\n      dup2\n        /* \"#utility.yul\":1948:1952   */\n      dup2\n        /* \"#utility.yul\":1944:1964   */\n      sub\n        /* \"#utility.yul\":1940:1941   */\n      0x00\n        /* \"#utility.yul\":1929:1938   */\n      dup4\n        /* \"#utility.yul\":1925:1942   */\n      add\n        /* \"#utility.yul\":1918:1965   */\n      mstore\n        /* \"#utility.yul\":1982:2090   */\n      tag_283\n        /* \"#utility.yul\":2085:2089   */\n      dup2\n        /* \"#utility.yul\":2076:2082   */\n      dup5\n        /* \"#utility.yul\":1982:2090   */\n      tag_233\n      jump\t// in\n    tag_283:\n        /* \"#utility.yul\":1974:2090   */\n      swap1\n      pop\n        /* \"#utility.yul\":1724:2097   */\n      swap3\n      swap2\n      pop\n      pop\n      jump\t// out\n        /* \"#utility.yul\":2103:2178   */\n    tag_234:\n        /* \"#utility.yul\":2136:2142   */\n      0x00\n        /* \"#utility.yul\":2169:2171   */\n      0x40\n        /* \"#utility.yul\":2163:2172   */\n      mload\n        /* \"#utility.yul\":2153:2172   */\n      swap1\n      pop\n        /* \"#utility.yul\":2103:2178   */\n      swap1\n      jump\t// out\n        /* \"#utility.yul\":2184:2301   */\n    tag_235:\n        /* \"#utility.yul\":2293:2294   */\n      0x00\n        /* \"#utility.yul\":2290:2291   */\n      dup1\n        /* \"#utility.yul\":2283:2295   */\n      revert\n        /* \"#utility.yul\":2307:2424   */\n    tag_236:\n        /* \"#utility.yul\":2416:2417   */\n      0x00\n        /* \"#utility.yul\":2413:2414   */\n      dup1\n        /* \"#utility.yul\":2406:2418   */\n      revert\n        /* \"#utility.yul\":2430:2552   */\n    tag_237:\n        /* \"#utility.yul\":2503:2527   */\n      tag_288\n        /* \"#utility.yul\":2521:2526   */\n      dup2\n        /* \"#utility.yul\":2503:2527   */\n      tag_229\n      jump\t// in\n    tag_288:\n        /* \"#utility.yul\":2496:2501   */\n      dup2\n        /* \"#utility.yul\":2493:2528   */\n      eq\n        /* \"#utility.yul\":2483:2546   */\n      tag_289\n      jumpi\n        /* \"#utility.yul\":2542:2543   */\n      0x00\n        /* \"#utility.yul\":2539:2540   */\n      dup1\n        /* \"#utility.yul\":2532:2544   */\n      revert\n        /* \"#utility.yul\":2483:2546   */\n    tag_289:\n        /* \"#utility.yul\":2430:2552   */\n      pop\n      jump\t// out\n        /* \"#utility.yul\":2558:2697   */\n    tag_238:\n        /* \"#utility.yul\":2604:2609   */\n      0x00\n        /* \"#utility.yul\":2642:2648   */\n      dup2\n        /* \"#utility.yul\":2629:2649   */\n      calldataload\n        /* \"#utility.yul\":2620:2649   */\n      swap1\n      pop\n        /* \"#utility.yul\":2658:2691   */\n      tag_291\n        /* \"#utility.yul\":2685:2690   */\n      dup2\n        /* \"#utility.yul\":2658:2691   */\n      tag_237\n      jump\t// in\n    tag_291:\n        /* \"#utility.yul\":2558:2697   */\n      swap3\n      swap2\n      pop\n      pop\n      jump\t// out\n        /* \"#utility.yul\":2703:3177   */\n    tag_20:\n        /* \"#utility.yul\":2771:2777   */\n      0x00\n        /* \"#utility.yul\":2779:2785   */\n      dup1\n        /* \"#utility.yul\":2828:2830   */\n      0x40\n        /* \"#utility.yul\":2816:2825   */\n      dup4\n        /* \"#utility.yul\":2807:2814   */\n      dup6\n        /* \"#utility.yul\":2803:2826   */\n      sub\n        /* \"#utility.yul\":2799:2831   */\n      slt\n        /* \"#utility.yul\":2796:2915   */\n      iszero\n      tag_293\n      jumpi\n        /* \"#utility.yul\":2834:2913   */\n      tag_294\n      tag_235\n      jump\t// in\n    tag_294:\n        /* \"#utility.yul\":2796:2915   */\n    tag_293:\n        /* \"#utility.yul\":2954:2955   */\n      0x00\n        /* \"#utility.yul\":2979:3032   */\n      tag_295\n        /* \"#utility.yul\":3024:3031   */\n      dup6\n        /* \"#utility.yul\":3015:3021   */\n      dup3\n        /* \"#utility.yul\":3004:3013   */\n      dup7\n        /* \"#utility.yul\":3000:3022   */\n      add\n        /* \"#utility.yul\":2979:3032   */\n      tag_238\n      jump\t// in\n    tag_295:\n        /* \"#utility.yul\":2969:3032   */\n      swap3\n      pop\n        /* \"#utility.yul\":2925:3042   */\n      pop\n        /* \"#utility.yul\":3081:3083   */\n      0x20\n        /* \"#utility.yul\":3107:3160   */\n      tag_296\n        /* \"#utility.yul\":3152:3159   */\n      dup6\n        /* \"#utility.yul\":3143:3149   */\n      dup3\n        /* \"#utility.yul\":3132:3141   */\n      dup7\n        /* \"#utility.yul\":3128:3150   */\n      add\n        /* \"#utility.yul\":3107:3160   */\n      tag_238\n      jump\t// in\n    tag_296:\n        /* \"#utility.yul\":3097:3160   */\n      swap2\n      pop\n        /* \"#utility.yul\":3052:3170   */\n      pop\n        /* \"#utility.yul\":2703:3177   */\n      swap3\n      pop\n      swap3\n      swap1\n      pop\n      jump\t// out\n        /* \"#utility.yul\":3183:3512   */\n    tag_24:\n        /* \"#utility.yul\":3242:3248   */\n      0x00\n        /* \"#utility.yul\":3291:3293   */\n      0x20\n        /* \"#utility.yul\":3279:3288   */\n      dup3\n        /* \"#utility.yul\":3270:3277   */\n      dup5\n        /* \"#utility.yul\":3266:3289   */\n      sub\n        /* \"#utility.yul\":3262:3294   */\n      slt\n        /* \"#utility.yul\":3259:3378   */\n      iszero\n      tag_298\n      jumpi\n        /* \"#utility.yul\":3297:3376   */\n      tag_299\n      tag_235\n      jump\t// in\n    tag_299:\n        /* \"#utility.yul\":3259:3378   */\n    tag_298:\n        /* \"#utility.yul\":3417:3418   */\n      0x00\n        /* \"#utility.yul\":3442:3495   */\n      tag_300\n        /* \"#utility.yul\":3487:3494   */\n      dup5\n        /* \"#utility.yul\":3478:3484   */\n      dup3\n        /* \"#utility.yul\":3467:3476   */\n      dup6\n        /* \"#utility.yul\":3463:3485   */\n      add\n        /* \"#utility.yul\":3442:3495   */\n      tag_238\n      jump\t// in\n    tag_300:\n        /* \"#utility.yul\":3432:3495   */\n      swap2\n      pop\n        /* \"#utility.yul\":3388:3505   */\n      pop\n        /* \"#utility.yul\":3183:3512   */\n      swap3\n      swap2\n      pop\n      pop\n      jump\t// out\n        /* \"#utility.yul\":3518:3644   */\n    tag_239:\n        /* \"#utility.yul\":3555:3562   */\n      0x00\n        /* \"#utility.yul\":3595:3637   */\n      0xffffffffffffffffffffffffffffffffffffffff\n        /* \"#utility.yul\":3588:3593   */\n      dup3\n        /* \"#utility.yul\":3584:3638   */\n      and\n        /* \"#utility.yul\":3573:3638   */\n      swap1\n      pop\n        /* \"#utility.yul\":3518:3644   */\n      swap2\n      swap1\n      pop\n      jump\t// out\n        /* \"#utility.yul\":3650:3746   */\n    tag_240:\n        /* \"#utility.yul\":3687:3694   */\n      0x00\n        /* \"#utility.yul\":3716:3740   */\n      tag_303\n        /* \"#utility.yul\":3734:3739   */\n      dup3\n        /* \"#utility.yul\":3716:3740   */\n      tag_239\n      jump\t// in\n    tag_303:\n        /* \"#utility.yul\":3705:3740   */\n      swap1\n      pop\n        /* \"#utility.yul\":3650:3746   */\n      swap2\n      swap1\n      pop\n      jump\t// out\n        /* \"#utility.yul\":3752:3870   */\n    tag_241:\n        /* \"#utility.yul\":3839:3863   */\n      tag_305\n        /* \"#utility.yul\":3857:3862   */\n      dup2\n        /* \"#utility.yul\":3839:3863   */\n      tag_240\n      jump\t// in\n    tag_305:\n        /* \"#utility.yul\":3834:3837   */\n      dup3\n        /* \"#utility.yul\":3827:3864   */\n      mstore\n        /* \"#utility.yul\":3752:3870   */\n      pop\n      pop\n      jump\t// out\n        /* \"#utility.yul\":3876:4098   */\n    tag_27:\n        /* \"#utility.yul\":3969:3973   */\n      0x00\n        /* \"#utility.yul\":4007:4009   */\n      0x20\n        /* \"#utility.yul\":3996:4005   */\n      dup3\n        /* \"#utility.yul\":3992:4010   */\n      add\n        /* \"#utility.yul\":3984:4010   */\n      swap1\n      pop\n        /* \"#utility.yul\":4020:4091   */\n      tag_307\n        /* \"#utility.yul\":4088:4089   */\n      0x00\n        /* \"#utility.yul\":4077:4086   */\n      dup4\n        /* \"#utility.yul\":4073:4090   */\n      add\n        /* \"#utility.yul\":4064:4070   */\n      dup5\n        /* \"#utility.yul\":4020:4091   */\n      tag_241\n      jump\t// in\n    tag_307:\n        /* \"#utility.yul\":3876:4098   */\n      swap3\n      swap2\n      pop\n      pop\n      jump\t// out\n        /* \"#utility.yul\":4104:4221   */\n    tag_242:\n        /* \"#utility.yul\":4213:4214   */\n      0x00\n        /* \"#utility.yul\":4210:4211   */\n      dup1\n        /* \"#utility.yul\":4203:4215   */\n      revert\n        /* \"#utility.yul\":4227:4344   */\n    tag_243:\n        /* \"#utility.yul\":4336:4337   */\n      0x00\n        /* \"#utility.yul\":4333:4334   */\n      dup1\n        /* \"#utility.yul\":4326:4338   */\n      revert\n        /* \"#utility.yul\":4350:4452   */\n    tag_244:\n        /* \"#utility.yul\":4391:4397   */\n      0x00\n        /* \"#utility.yul\":4442:4444   */\n      0x1f\n        /* \"#utility.yul\":4438:4445   */\n      not\n        /* \"#utility.yul\":4433:4435   */\n      0x1f\n        /* \"#utility.yul\":4426:4431   */\n      dup4\n        /* \"#utility.yul\":4422:4436   */\n      add\n        /* \"#utility.yul\":4418:4446   */\n      and\n        /* \"#utility.yul\":4408:4446   */\n      swap1\n      pop\n        /* \"#utility.yul\":4350:4452   */\n      swap2\n      swap1\n      pop\n      jump\t// out\n        /* \"#utility.yul\":4458:4638   */\n    tag_55:\n        /* \"#utility.yul\":4506:4583   */\n      0x4e487b7100000000000000000000000000000000000000000000000000000000\n        /* \"#utility.yul\":4503:4504   */\n      0x00\n        /* \"#utility.yul\":4496:4584   */\n      mstore\n        /* \"#utility.yul\":4603:4607   */\n      0x41\n        /* \"#utility.yul\":4600:4601   */\n      0x04\n        /* \"#utility.yul\":4593:4608   */\n      mstore\n        /* \"#utility.yul\":4627:4631   */\n      0x24\n        /* \"#utility.yul\":4624:4625   */\n      0x00\n        /* \"#utility.yul\":4617:4632   */\n      revert\n        /* \"#utility.yul\":4644:4925   */\n    tag_245:\n        /* \"#utility.yul\":4727:4754   */\n      tag_313\n        /* \"#utility.yul\":4749:4753   */\n      dup3\n        /* \"#utility.yul\":4727:4754   */\n      tag_244\n      jump\t// in\n    tag_313:\n        /* \"#utility.yul\":4719:4725   */\n      dup2\n        /* \"#utility.yul\":4715:4755   */\n      add\n        /* \"#utility.yul\":4857:4863   */\n      dup2\n        /* \"#utility.yul\":4845:4855   */\n      dup2\n        /* \"#utility.yul\":4842:4864   */\n      lt\n        /* \"#utility.yul\":4821:4839   */\n      0xffffffffffffffff\n        /* \"#utility.yul\":4809:4819   */\n      dup3\n        /* \"#utility.yul\":4806:4840   */\n      gt\n        /* \"#utility.yul\":4803:4865   */\n      or\n        /* \"#utility.yul\":4800:4888   */\n      iszero\n      tag_314\n      jumpi\n        /* \"#utility.yul\":4868:4886   */\n      tag_315\n      tag_55\n      jump\t// in\n    tag_315:\n        /* \"#utility.yul\":4800:4888   */\n    tag_314:\n        /* \"#utility.yul\":4908:4918   */\n      dup1\n        /* \"#utility.yul\":4904:4906   */\n      0x40\n        /* \"#utility.yul\":4897:4919   */\n      mstore\n        /* \"#utility.yul\":4687:4925   */\n      pop\n        /* \"#utility.yul\":4644:4925   */\n      pop\n      pop\n      jump\t// out\n        /* \"#utility.yul\":4931:5060   */\n    tag_246:\n        /* \"#utility.yul\":4965:4971   */\n      0x00\n        /* \"#utility.yul\":4992:5012   */\n      tag_317\n      tag_234\n      jump\t// in\n    tag_317:\n        /* \"#utility.yul\":4982:5012   */\n      swap1\n      pop\n        /* \"#utility.yul\":5021:5054   */\n      tag_318\n        /* \"#utility.yul\":5049:5053   */\n      dup3\n        /* \"#utility.yul\":5041:5047   */\n      dup3\n        /* \"#utility.yul\":5021:5054   */\n      tag_245\n      jump\t// in\n    tag_318:\n        /* \"#utility.yul\":4931:5060   */\n      swap2\n      swap1\n      pop\n      jump\t// out\n        /* \"#utility.yul\":5066:5374   */\n    tag_247:\n        /* \"#utility.yul\":5128:5132   */\n      0x00\n        /* \"#utility.yul\":5218:5236   */\n      0xffffffffffffffff\n        /* \"#utility.yul\":5210:5216   */\n      dup3\n        /* \"#utility.yul\":5207:5237   */\n      gt\n        /* \"#utility.yul\":5204:5260   */\n      iszero\n      tag_320\n      jumpi\n        /* \"#utility.yul\":5240:5258   */\n      tag_321\n      tag_55\n      jump\t// in\n    tag_321:\n        /* \"#utility.yul\":5204:5260   */\n    tag_320:\n        /* \"#utility.yul\":5278:5307   */\n      tag_322\n        /* \"#utility.yul\":5300:5306   */\n      dup3\n        /* \"#utility.yul\":5278:5307   */\n      tag_244\n      jump\t// in\n    tag_322:\n        /* \"#utility.yul\":5270:5307   */\n      swap1\n      pop\n        /* \"#utility.yul\":5362:5366   */\n      0x20\n        /* \"#utility.yul\":5356:5360   */\n      dup2\n        /* \"#utility.yul\":5352:5367   */\n      add\n        /* \"#utility.yul\":5344:5367   */\n      swap1\n      pop\n        /* \"#utility.yul\":5066:5374   */\n      swap2\n      swap1\n      pop\n      jump\t// out\n        /* \"#utility.yul\":5380:5526   */\n    tag_248:\n        /* \"#utility.yul\":5477:5483   */\n      dup3\n        /* \"#utility.yul\":5472:5475   */\n      dup2\n        /* \"#utility.yul\":5467:5470   */\n      dup4\n        /* \"#utility.yul\":5454:5484   */\n      calldatacopy\n        /* \"#utility.yul\":5518:5519   */\n      0x00\n        /* \"#utility.yul\":5509:5515   */\n      dup4\n        /* \"#utility.yul\":5504:5507   */\n      dup4\n        /* \"#utility.yul\":5500:5516   */\n      add\n        /* \"#utility.yul\":5493:5520   */\n      mstore\n        /* \"#utility.yul\":5380:5526   */\n      pop\n      pop\n      pop\n      jump\t// out\n        /* \"#utility.yul\":5532:5957   */\n    tag_249:\n        /* \"#utility.yul\":5610:5615   */\n      0x00\n        /* \"#utility.yul\":5635:5701   */\n      tag_325\n        /* \"#utility.yul\":5651:5700   */\n      tag_326\n        /* \"#utility.yul\":5693:5699   */\n      dup5\n        /* \"#utility.yul\":5651:5700   */\n      tag_247\n      jump\t// in\n    tag_326:\n        /* \"#utility.yul\":5635:5701   */\n      tag_246\n      jump\t// in\n    tag_325:\n        /* \"#utility.yul\":5626:5701   */\n      swap1\n      pop\n        /* \"#utility.yul\":5724:5730   */\n      dup3\n        /* \"#utility.yul\":5717:5722   */\n      dup2\n        /* \"#utility.yul\":5710:5731   */\n      mstore\n        /* \"#utility.yul\":5762:5766   */\n      0x20\n        /* \"#utility.yul\":5755:5760   */\n      dup2\n        /* \"#utility.yul\":5751:5767   */\n      add\n        /* \"#utility.yul\":5800:5803   */\n      dup5\n        /* \"#utility.yul\":5791:5797   */\n      dup5\n        /* \"#utility.yul\":5786:5789   */\n      dup5\n        /* \"#utility.yul\":5782:5798   */\n      add\n        /* \"#utility.yul\":5779:5804   */\n      gt\n        /* \"#utility.yul\":5776:5888   */\n      iszero\n      tag_327\n      jumpi\n        /* \"#utility.yul\":5807:5886   */\n      tag_328\n      tag_243\n      jump\t// in\n    tag_328:\n        /* \"#utility.yul\":5776:5888   */\n    tag_327:\n        /* \"#utility.yul\":5897:5951   */\n      tag_329\n        /* \"#utility.yul\":5944:5950   */\n      dup5\n        /* \"#utility.yul\":5939:5942   */\n      dup3\n        /* \"#utility.yul\":5934:5937   */\n      dup6\n        /* \"#utility.yul\":5897:5951   */\n      tag_248\n      jump\t// in\n    tag_329:\n        /* \"#utility.yul\":5616:5957   */\n      pop\n        /* \"#utility.yul\":5532:5957   */\n      swap4\n      swap3\n      pop\n      pop\n      pop\n      jump\t// out\n        /* \"#utility.yul\":5977:6317   */\n    tag_250:\n        /* \"#utility.yul\":6033:6038   */\n      0x00\n        /* \"#utility.yul\":6082:6085   */\n      dup3\n        /* \"#utility.yul\":6075:6079   */\n      0x1f\n        /* \"#utility.yul\":6067:6073   */\n      dup4\n        /* \"#utility.yul\":6063:6080   */\n      add\n        /* \"#utility.yul\":6059:6086   */\n      slt\n        /* \"#utility.yul\":6049:6171   */\n      tag_331\n      jumpi\n        /* \"#utility.yul\":6090:6169   */\n      tag_332\n      tag_242\n      jump\t// in\n    tag_332:\n        /* \"#utility.yul\":6049:6171   */\n    tag_331:\n        /* \"#utility.yul\":6207:6213   */\n      dup2\n        /* \"#utility.yul\":6194:6214   */\n      calldataload\n        /* \"#utility.yul\":6232:6311   */\n      tag_333\n        /* \"#utility.yul\":6307:6310   */\n      dup5\n        /* \"#utility.yul\":6299:6305   */\n      dup3\n        /* \"#utility.yul\":6292:6296   */\n      0x20\n        /* \"#utility.yul\":6284:6290   */\n      dup7\n        /* \"#utility.yul\":6280:6297   */\n      add\n        /* \"#utility.yul\":6232:6311   */\n      tag_249\n      jump\t// in\n    tag_333:\n        /* \"#utility.yul\":6223:6311   */\n      swap2\n      pop\n        /* \"#utility.yul\":6039:6317   */\n      pop\n        /* \"#utility.yul\":5977:6317   */\n      swap3\n      swap2\n      pop\n      pop\n      jump\t// out\n        /* \"#utility.yul\":6323:7122   */\n    tag_39:\n        /* \"#utility.yul\":6410:6416   */\n      0x00\n        /* \"#utility.yul\":6418:6424   */\n      dup1\n        /* \"#utility.yul\":6426:6432   */\n      0x00\n        /* \"#utility.yul\":6475:6477   */\n      0x60\n        /* \"#utility.yul\":6463:6472   */\n      dup5\n        /* \"#utility.yul\":6454:6461   */\n      dup7\n        /* \"#utility.yul\":6450:6473   */\n      sub\n        /* \"#utility.yul\":6446:6478   */\n      slt\n        /* \"#utility.yul\":6443:6562   */\n      iszero\n      tag_335\n      jumpi\n        /* \"#utility.yul\":6481:6560   */\n      tag_336\n      tag_235\n      jump\t// in\n    tag_336:\n        /* \"#utility.yul\":6443:6562   */\n    tag_335:\n        /* \"#utility.yul\":6601:6602   */\n      0x00\n        /* \"#utility.yul\":6626:6679   */\n      tag_337\n        /* \"#utility.yul\":6671:6678   */\n      dup7\n        /* \"#utility.yul\":6662:6668   */\n      dup3\n        /* \"#utility.yul\":6651:6660   */\n      dup8\n        /* \"#utility.yul\":6647:6669   */\n      add\n        /* \"#utility.yul\":6626:6679   */\n      tag_238\n      jump\t// in\n    tag_337:\n        /* \"#utility.yul\":6616:6679   */\n      swap4\n      pop\n        /* \"#utility.yul\":6572:6689   */\n      pop\n        /* \"#utility.yul\":6728:6730   */\n      0x20\n        /* \"#utility.yul\":6754:6807   */\n      tag_338\n        /* \"#utility.yul\":6799:6806   */\n      dup7\n        /* \"#utility.yul\":6790:6796   */\n      dup3\n        /* \"#utility.yul\":6779:6788   */\n      dup8\n        /* \"#utility.yul\":6775:6797   */\n      add\n        /* \"#utility.yul\":6754:6807   */\n      tag_238\n      jump\t// in\n    tag_338:\n        /* \"#utility.yul\":6744:6807   */\n      swap3\n      pop\n        /* \"#utility.yul\":6699:6817   */\n      pop\n        /* \"#utility.yul\":6884:6886   */\n      0x40\n        /* \"#utility.yul\":6873:6882   */\n      dup5\n        /* \"#utility.yul\":6869:6887   */\n      add\n        /* \"#utility.yul\":6856:6888   */\n      calldataload\n        /* \"#utility.yul\":6915:6933   */\n      0xffffffffffffffff\n        /* \"#utility.yul\":6907:6913   */\n      dup2\n        /* \"#utility.yul\":6904:6934   */\n      gt\n        /* \"#utility.yul\":6901:7018   */\n      iszero\n      tag_339\n      jumpi\n        /* \"#utility.yul\":6937:7016   */\n      tag_340\n      tag_236\n      jump\t// in\n    tag_340:\n        /* \"#utility.yul\":6901:7018   */\n    tag_339:\n        /* \"#utility.yul\":7042:7105   */\n      tag_341\n        /* \"#utility.yul\":7097:7104   */\n      dup7\n        /* \"#utility.yul\":7088:7094   */\n      dup3\n        /* \"#utility.yul\":7077:7086   */\n      dup8\n        /* \"#utility.yul\":7073:7095   */\n      add\n        /* \"#utility.yul\":7042:7105   */\n      tag_250\n      jump\t// in\n    tag_341:\n        /* \"#utility.yul\":7032:7105   */\n      swap2\n      pop\n        /* \"#utility.yul\":6827:7115   */\n      pop\n        /* \"#utility.yul\":6323:7122   */\n      swap3\n      pop\n      swap3\n      pop\n      swap3\n      jump\t// out\n        /* \"#utility.yul\":7128:7782   */\n    tag_43:\n        /* \"#utility.yul\":7206:7212   */\n      0x00\n        /* \"#utility.yul\":7214:7220   */\n      dup1\n        /* \"#utility.yul\":7263:7265   */\n      0x40\n        /* \"#utility.yul\":7251:7260   */\n      dup4\n        /* \"#utility.yul\":7242:7249   */\n      dup6\n        /* \"#utility.yul\":7238:7261   */\n      sub\n        /* \"#utility.yul\":7234:7266   */\n      slt\n        /* \"#utility.yul\":7231:7350   */\n      iszero\n      tag_343\n      jumpi\n        /* \"#utility.yul\":7269:7348   */\n      tag_344\n      tag_235\n      jump\t// in\n    tag_344:\n        /* \"#utility.yul\":7231:7350   */\n    tag_343:\n        /* \"#utility.yul\":7389:7390   */\n      0x00\n        /* \"#utility.yul\":7414:7467   */\n      tag_345\n        /* \"#utility.yul\":7459:7466   */\n      dup6\n        /* \"#utility.yul\":7450:7456   */\n      dup3\n        /* \"#utility.yul\":7439:7448   */\n      dup7\n        /* \"#utility.yul\":7435:7457   */\n      add\n        /* \"#utility.yul\":7414:7467   */\n      tag_238\n      jump\t// in\n    tag_345:\n        /* \"#utility.yul\":7404:7467   */\n      swap3\n      pop\n        /* \"#utility.yul\":7360:7477   */\n      pop\n        /* \"#utility.yul\":7544:7546   */\n      0x20\n        /* \"#utility.yul\":7533:7542   */\n      dup4\n        /* \"#utility.yul\":7529:7547   */\n      add\n        /* \"#utility.yul\":7516:7548   */\n      calldataload\n        /* \"#utility.yul\":7575:7593   */\n      0xffffffffffffffff\n        /* \"#utility.yul\":7567:7573   */\n      dup2\n        /* \"#utility.yul\":7564:7594   */\n      gt\n        /* \"#utility.yul\":7561:7678   */\n      iszero\n      tag_346\n      jumpi\n        /* \"#utility.yul\":7597:7676   */\n      tag_347\n      tag_236\n      jump\t// in\n    tag_347:\n        /* \"#utility.yul\":7561:7678   */\n    tag_346:\n        /* \"#utility.yul\":7702:7765   */\n      tag_348\n        /* \"#utility.yul\":7757:7764   */\n      dup6\n        /* \"#utility.yul\":7748:7754   */\n      dup3\n        /* \"#utility.yul\":7737:7746   */\n      dup7\n        /* \"#utility.yul\":7733:7755   */\n      add\n        /* \"#utility.yul\":7702:7765   */\n      tag_250\n      jump\t// in\n    tag_348:\n        /* \"#utility.yul\":7692:7765   */\n      swap2\n      pop\n        /* \"#utility.yul\":7487:7775   */\n      pop\n        /* \"#utility.yul\":7128:7782   */\n      swap3\n      pop\n      swap3\n      swap1\n      pop\n      jump\t// out\n        /* \"#utility.yul\":7788:7878   */\n    tag_251:\n        /* \"#utility.yul\":7822:7829   */\n      0x00\n        /* \"#utility.yul\":7865:7870   */\n      dup2\n        /* \"#utility.yul\":7858:7871   */\n      iszero\n        /* \"#utility.yul\":7851:7872   */\n      iszero\n        /* \"#utility.yul\":7840:7872   */\n      swap1\n      pop\n        /* \"#utility.yul\":7788:7878   */\n      swap2\n      swap1\n      pop\n      jump\t// out\n        /* \"#utility.yul\":7884:8000   */\n    tag_252:\n        /* \"#utility.yul\":7954:7975   */\n      tag_351\n        /* \"#utility.yul\":7969:7974   */\n      dup2\n        /* \"#utility.yul\":7954:7975   */\n      tag_251\n      jump\t// in\n    tag_351:\n        /* \"#utility.yul\":7947:7952   */\n      dup2\n        /* \"#utility.yul\":7944:7976   */\n      eq\n        /* \"#utility.yul\":7934:7994   */\n      tag_352\n      jumpi\n        /* \"#utility.yul\":7990:7991   */\n      0x00\n        /* \"#utility.yul\":7987:7988   */\n      dup1\n        /* \"#utility.yul\":7980:7992   */\n      revert\n        /* \"#utility.yul\":7934:7994   */\n    tag_352:\n        /* \"#utility.yul\":7884:8000   */\n      pop\n      jump\t// out\n        /* \"#utility.yul\":8006:8139   */\n    tag_253:\n        /* \"#utility.yul\":8049:8054   */\n      0x00\n        /* \"#utility.yul\":8087:8093   */\n      dup2\n        /* \"#utility.yul\":8074:8094   */\n      calldataload\n        /* \"#utility.yul\":8065:8094   */\n      swap1\n      pop\n        /* \"#utility.yul\":8103:8133   */\n      tag_354\n        /* \"#utility.yul\":8127:8132   */\n      dup2\n        /* \"#utility.yul\":8103:8133   */\n      tag_252\n      jump\t// in\n    tag_354:\n        /* \"#utility.yul\":8006:8139   */\n      swap3\n      swap2\n      pop\n      pop\n      jump\t// out\n        /* \"#utility.yul\":8145:8898   */\n    tag_47:\n        /* \"#utility.yul\":8225:8231   */\n      0x00\n        /* \"#utility.yul\":8233:8239   */\n      dup1\n        /* \"#utility.yul\":8241:8247   */\n      0x00\n        /* \"#utility.yul\":8249:8255   */\n      dup1\n        /* \"#utility.yul\":8298:8301   */\n      0x80\n        /* \"#utility.yul\":8286:8295   */\n      dup6\n        /* \"#utility.yul\":8277:8284   */\n      dup8\n        /* \"#utility.yul\":8273:8296   */\n      sub\n        /* \"#utility.yul\":8269:8302   */\n      slt\n        /* \"#utility.yul\":8266:8386   */\n      iszero\n      tag_356\n      jumpi\n        /* \"#utility.yul\":8305:8384   */\n      tag_357\n      tag_235\n      jump\t// in\n    tag_357:\n        /* \"#utility.yul\":8266:8386   */\n    tag_356:\n        /* \"#utility.yul\":8425:8426   */\n      0x00\n        /* \"#utility.yul\":8450:8503   */\n      tag_358\n        /* \"#utility.yul\":8495:8502   */\n      dup8\n        /* \"#utility.yul\":8486:8492   */\n      dup3\n        /* \"#utility.yul\":8475:8484   */\n      dup9\n        /* \"#utility.yul\":8471:8493   */\n      add\n        /* \"#utility.yul\":8450:8503   */\n      tag_238\n      jump\t// in\n    tag_358:\n        /* \"#utility.yul\":8440:8503   */\n      swap5\n      pop\n        /* \"#utility.yul\":8396:8513   */\n      pop\n        /* \"#utility.yul\":8552:8554   */\n      0x20\n        /* \"#utility.yul\":8578:8631   */\n      tag_359\n        /* \"#utility.yul\":8623:8630   */\n      dup8\n        /* \"#utility.yul\":8614:8620   */\n      dup3\n        /* \"#utility.yul\":8603:8612   */\n      dup9\n        /* \"#utility.yul\":8599:8621   */\n      add\n        /* \"#utility.yul\":8578:8631   */\n      tag_238\n      jump\t// in\n    tag_359:\n        /* \"#utility.yul\":8568:8631   */\n      swap4\n      pop\n        /* \"#utility.yul\":8523:8641   */\n      pop\n        /* \"#utility.yul\":8680:8682   */\n      0x40\n        /* \"#utility.yul\":8706:8756   */\n      tag_360\n        /* \"#utility.yul\":8748:8755   */\n      dup8\n        /* \"#utility.yul\":8739:8745   */\n      dup3\n        /* \"#utility.yul\":8728:8737   */\n      dup9\n        /* \"#utility.yul\":8724:8746   */\n      add\n        /* \"#utility.yul\":8706:8756   */\n      tag_253\n      jump\t// in\n    tag_360:\n        /* \"#utility.yul\":8696:8756   */\n      swap3\n      pop\n        /* \"#utility.yul\":8651:8766   */\n      pop\n        /* \"#utility.yul\":8805:8807   */\n      0x60\n        /* \"#utility.yul\":8831:8881   */\n      tag_361\n        /* \"#utility.yul\":8873:8880   */\n      dup8\n        /* \"#utility.yul\":8864:8870   */\n      dup3\n        /* \"#utility.yul\":8853:8862   */\n      dup9\n        /* \"#utility.yul\":8849:8871   */\n      add\n        /* \"#utility.yul\":8831:8881   */\n      tag_253\n      jump\t// in\n    tag_361:\n        /* \"#utility.yul\":8821:8881   */\n      swap2\n      pop\n        /* \"#utility.yul\":8776:8891   */\n      pop\n        /* \"#utility.yul\":8145:8898   */\n      swap3\n      swap6\n      swap2\n      swap5\n      pop\n      swap3\n      pop\n      jump\t// out\n        /* \"#utility.yul\":8904:9084   */\n    tag_62:\n        /* \"#utility.yul\":8952:9029   */\n      0x4e487b7100000000000000000000000000000000000000000000000000000000\n        /* \"#utility.yul\":8949:8950   */\n      0x00\n        /* \"#utility.yul\":8942:9030   */\n      mstore\n        /* \"#utility.yul\":9049:9053   */\n      0x32\n        /* \"#utility.yul\":9046:9047   */\n      0x04\n        /* \"#utility.yul\":9039:9054   */\n      mstore\n        /* \"#utility.yul\":9073:9077   */\n      0x24\n        /* \"#utility.yul\":9070:9071   */\n      0x00\n        /* \"#utility.yul\":9063:9078   */\n      revert\n        /* \"#utility.yul\":9090:9233   */\n    tag_254:\n        /* \"#utility.yul\":9147:9152   */\n      0x00\n        /* \"#utility.yul\":9178:9184   */\n      dup2\n        /* \"#utility.yul\":9172:9185   */\n      mload\n        /* \"#utility.yul\":9163:9185   */\n      swap1\n      pop\n        /* \"#utility.yul\":9194:9227   */\n      tag_364\n        /* \"#utility.yul\":9221:9226   */\n      dup2\n        /* \"#utility.yul\":9194:9227   */\n      tag_237\n      jump\t// in\n    tag_364:\n        /* \"#utility.yul\":9090:9233   */\n      swap3\n      swap2\n      pop\n      pop\n      jump\t// out\n        /* \"#utility.yul\":9239:9590   */\n    tag_67:\n        /* \"#utility.yul\":9309:9315   */\n      0x00\n        /* \"#utility.yul\":9358:9360   */\n      0x20\n        /* \"#utility.yul\":9346:9355   */\n      dup3\n        /* \"#utility.yul\":9337:9344   */\n      dup5\n        /* \"#utility.yul\":9333:9356   */\n      sub\n        /* \"#utility.yul\":9329:9361   */\n      slt\n        /* \"#utility.yul\":9326:9445   */\n      iszero\n      tag_366\n      jumpi\n        /* \"#utility.yul\":9364:9443   */\n      tag_367\n      tag_235\n      jump\t// in\n    tag_367:\n        /* \"#utility.yul\":9326:9445   */\n    tag_366:\n        /* \"#utility.yul\":9484:9485   */\n      0x00\n        /* \"#utility.yul\":9509:9573   */\n      tag_368\n        /* \"#utility.yul\":9565:9572   */\n      dup5\n        /* \"#utility.yul\":9556:9562   */\n      dup3\n        /* \"#utility.yul\":9545:9554   */\n      dup6\n        /* \"#utility.yul\":9541:9563   */\n      add\n        /* \"#utility.yul\":9509:9573   */\n      tag_254\n      jump\t// in\n    tag_368:\n        /* \"#utility.yul\":9499:9573   */\n      swap2\n      pop\n        /* \"#utility.yul\":9455:9583   */\n      pop\n        /* \"#utility.yul\":9239:9590   */\n      swap3\n      swap2\n      pop\n      pop\n      jump\t// out\n        /* \"#utility.yul\":9596:9765   */\n    tag_255:\n        /* \"#utility.yul\":9680:9691   */\n      0x00\n        /* \"#utility.yul\":9714:9720   */\n      dup3\n        /* \"#utility.yul\":9709:9712   */\n      dup3\n        /* \"#utility.yul\":9702:9721   */\n      mstore\n        /* \"#utility.yul\":9754:9758   */\n      0x20\n        /* \"#utility.yul\":9749:9752   */\n      dup3\n        /* \"#utility.yul\":9745:9759   */\n      add\n        /* \"#utility.yul\":9730:9759   */\n      swap1\n      pop\n        /* \"#utility.yul\":9596:9765   */\n      swap3\n      swap2\n      pop\n      pop\n      jump\t// out\n        /* \"#utility.yul\":9771:9939   */\n    tag_256:\n        /* \"#utility.yul\":9911:9931   */\n      0x5573657220616c72656164792065786973740000000000000000000000000000\n        /* \"#utility.yul\":9907:9908   */\n      0x00\n        /* \"#utility.yul\":9899:9905   */\n      dup3\n        /* \"#utility.yul\":9895:9909   */\n      add\n        /* \"#utility.yul\":9888:9932   */\n      mstore\n        /* \"#utility.yul\":9771:9939   */\n      pop\n      jump\t// out\n        /* \"#utility.yul\":9945:10311   */\n    tag_257:\n        /* \"#utility.yul\":10087:10090   */\n      0x00\n        /* \"#utility.yul\":10108:10175   */\n      tag_372\n        /* \"#utility.yul\":10172:10174   */\n      0x12\n        /* \"#utility.yul\":10167:10170   */\n      dup4\n        /* \"#utility.yul\":10108:10175   */\n      tag_255\n      jump\t// in\n    tag_372:\n        /* \"#utility.yul\":10101:10175   */\n      swap2\n      pop\n        /* \"#utility.yul\":10184:10277   */\n      tag_373\n        /* \"#utility.yul\":10273:10276   */\n      dup3\n        /* \"#utility.yul\":10184:10277   */\n      tag_256\n      jump\t// in\n    tag_373:\n        /* \"#utility.yul\":10302:10304   */\n      0x20\n        /* \"#utility.yul\":10297:10300   */\n      dup3\n        /* \"#utility.yul\":10293:10305   */\n      add\n        /* \"#utility.yul\":10286:10305   */\n      swap1\n      pop\n        /* \"#utility.yul\":9945:10311   */\n      swap2\n      swap1\n      pop\n      jump\t// out\n        /* \"#utility.yul\":10317:10736   */\n    tag_76:\n        /* \"#utility.yul\":10483:10487   */\n      0x00\n        /* \"#utility.yul\":10521:10523   */\n      0x20\n        /* \"#utility.yul\":10510:10519   */\n      dup3\n        /* \"#utility.yul\":10506:10524   */\n      add\n        /* \"#utility.yul\":10498:10524   */\n      swap1\n      pop\n        /* \"#utility.yul\":10570:10579   */\n      dup2\n        /* \"#utility.yul\":10564:10568   */\n      dup2\n        /* \"#utility.yul\":10560:10580   */\n      sub\n        /* \"#utility.yul\":10556:10557   */\n      0x00\n        /* \"#utility.yul\":10545:10554   */\n      dup4\n        /* \"#utility.yul\":10541:10558   */\n      add\n        /* \"#utility.yul\":10534:10581   */\n      mstore\n        /* \"#utility.yul\":10598:10729   */\n      tag_375\n        /* \"#utility.yul\":10724:10728   */\n      dup2\n        /* \"#utility.yul\":10598:10729   */\n      tag_257\n      jump\t// in\n    tag_375:\n        /* \"#utility.yul\":10590:10729   */\n      swap1\n      pop\n        /* \"#utility.yul\":10317:10736   */\n      swap2\n      swap1\n      pop\n      jump\t// out\n        /* \"#utility.yul\":10742:10860   */\n    tag_258:\n        /* \"#utility.yul\":10829:10853   */\n      tag_377\n        /* \"#utility.yul\":10847:10852   */\n      dup2\n        /* \"#utility.yul\":10829:10853   */\n      tag_229\n      jump\t// in\n    tag_377:\n        /* \"#utility.yul\":10824:10827   */\n      dup3\n        /* \"#utility.yul\":10817:10854   */\n      mstore\n        /* \"#utility.yul\":10742:10860   */\n      pop\n      pop\n      jump\t// out\n        /* \"#utility.yul\":10866:11088   */\n    tag_91:\n        /* \"#utility.yul\":10959:10963   */\n      0x00\n        /* \"#utility.yul\":10997:10999   */\n      0x20\n        /* \"#utility.yul\":10986:10995   */\n      dup3\n        /* \"#utility.yul\":10982:11000   */\n      add\n        /* \"#utility.yul\":10974:11000   */\n      swap1\n      pop\n        /* \"#utility.yul\":11010:11081   */\n      tag_379\n        /* \"#utility.yul\":11078:11079   */\n      0x00\n        /* \"#utility.yul\":11067:11076   */\n      dup4\n        /* \"#utility.yul\":11063:11080   */\n      add\n        /* \"#utility.yul\":11054:11060   */\n      dup5\n        /* \"#utility.yul\":11010:11081   */\n      tag_258\n      jump\t// in\n    tag_379:\n        /* \"#utility.yul\":10866:11088   */\n      swap3\n      swap2\n      pop\n      pop\n      jump\t// out\n        /* \"#utility.yul\":11094:11193   */\n    tag_259:\n        /* \"#utility.yul\":11146:11152   */\n      0x00\n        /* \"#utility.yul\":11180:11185   */\n      dup2\n        /* \"#utility.yul\":11174:11186   */\n      mload\n        /* \"#utility.yul\":11164:11186   */\n      swap1\n      pop\n        /* \"#utility.yul\":11094:11193   */\n      swap2\n      swap1\n      pop\n      jump\t// out\n        /* \"#utility.yul\":11199:11445   */\n    tag_260:\n        /* \"#utility.yul\":11280:11281   */\n      0x00\n        /* \"#utility.yul\":11290:11403   */\n    tag_382:\n        /* \"#utility.yul\":11304:11310   */\n      dup4\n        /* \"#utility.yul\":11301:11302   */\n      dup2\n        /* \"#utility.yul\":11298:11311   */\n      lt\n        /* \"#utility.yul\":11290:11403   */\n      iszero\n      tag_384\n      jumpi\n        /* \"#utility.yul\":11389:11390   */\n      dup1\n        /* \"#utility.yul\":11384:11387   */\n      dup3\n        /* \"#utility.yul\":11380:11391   */\n      add\n        /* \"#utility.yul\":11374:11392   */\n      mload\n        /* \"#utility.yul\":11370:11371   */\n      dup2\n        /* \"#utility.yul\":11365:11368   */\n      dup5\n        /* \"#utility.yul\":11361:11372   */\n      add\n        /* \"#utility.yul\":11354:11393   */\n      mstore\n        /* \"#utility.yul\":11326:11328   */\n      0x20\n        /* \"#utility.yul\":11323:11324   */\n      dup2\n        /* \"#utility.yul\":11319:11329   */\n      add\n        /* \"#utility.yul\":11314:11329   */\n      swap1\n      pop\n        /* \"#utility.yul\":11290:11403   */\n      jump(tag_382)\n    tag_384:\n        /* \"#utility.yul\":11437:11438   */\n      0x00\n        /* \"#utility.yul\":11428:11434   */\n      dup5\n        /* \"#utility.yul\":11423:11426   */\n      dup5\n        /* \"#utility.yul\":11419:11435   */\n      add\n        /* \"#utility.yul\":11412:11439   */\n      mstore\n        /* \"#utility.yul\":11261:11445   */\n      pop\n        /* \"#utility.yul\":11199:11445   */\n      pop\n      pop\n      pop\n      jump\t// out\n        /* \"#utility.yul\":11451:11828   */\n    tag_261:\n        /* \"#utility.yul\":11539:11542   */\n      0x00\n        /* \"#utility.yul\":11567:11606   */\n      tag_386\n        /* \"#utility.yul\":11600:11605   */\n      dup3\n        /* \"#utility.yul\":11567:11606   */\n      tag_259\n      jump\t// in\n    tag_386:\n        /* \"#utility.yul\":11622:11693   */\n      tag_387\n        /* \"#utility.yul\":11686:11692   */\n      dup2\n        /* \"#utility.yul\":11681:11684   */\n      dup6\n        /* \"#utility.yul\":11622:11693   */\n      tag_255\n      jump\t// in\n    tag_387:\n        /* \"#utility.yul\":11615:11693   */\n      swap4\n      pop\n        /* \"#utility.yul\":11702:11767   */\n      tag_388\n        /* \"#utility.yul\":11760:11766   */\n      dup2\n        /* \"#utility.yul\":11755:11758   */\n      dup6\n        /* \"#utility.yul\":11748:11752   */\n      0x20\n        /* \"#utility.yul\":11741:11746   */\n      dup7\n        /* \"#utility.yul\":11737:11753   */\n      add\n        /* \"#utility.yul\":11702:11767   */\n      tag_260\n      jump\t// in\n    tag_388:\n        /* \"#utility.yul\":11792:11821   */\n      tag_389\n        /* \"#utility.yul\":11814:11820   */\n      dup2\n        /* \"#utility.yul\":11792:11821   */\n      tag_244\n      jump\t// in\n    tag_389:\n        /* \"#utility.yul\":11787:11790   */\n      dup5\n        /* \"#utility.yul\":11783:11822   */\n      add\n        /* \"#utility.yul\":11776:11822   */\n      swap2\n      pop\n        /* \"#utility.yul\":11543:11828   */\n      pop\n        /* \"#utility.yul\":11451:11828   */\n      swap3\n      swap2\n      pop\n      pop\n      jump\t// out\n        /* \"#utility.yul\":11834:12257   */\n    tag_157:\n        /* \"#utility.yul\":11975:11979   */\n      0x00\n        /* \"#utility.yul\":12013:12015   */\n      0x40\n        /* \"#utility.yul\":12002:12011   */\n      dup3\n        /* \"#utility.yul\":11998:12016   */\n      add\n        /* \"#utility.yul\":11990:12016   */\n      swap1\n      pop\n        /* \"#utility.yul\":12026:12097   */\n      tag_391\n        /* \"#utility.yul\":12094:12095   */\n      0x00\n        /* \"#utility.yul\":12083:12092   */\n      dup4\n        /* \"#utility.yul\":12079:12096   */\n      add\n        /* \"#utility.yul\":12070:12076   */\n      dup6\n        /* \"#utility.yul\":12026:12097   */\n      tag_258\n      jump\t// in\n    tag_391:\n        /* \"#utility.yul\":12144:12153   */\n      dup2\n        /* \"#utility.yul\":12138:12142   */\n      dup2\n        /* \"#utility.yul\":12134:12154   */\n      sub\n        /* \"#utility.yul\":12129:12131   */\n      0x20\n        /* \"#utility.yul\":12118:12127   */\n      dup4\n        /* \"#utility.yul\":12114:12132   */\n      add\n        /* \"#utility.yul\":12107:12155   */\n      mstore\n        /* \"#utility.yul\":12172:12250   */\n      tag_392\n        /* \"#utility.yul\":12245:12249   */\n      dup2\n        /* \"#utility.yul\":12236:12242   */\n      dup5\n        /* \"#utility.yul\":12172:12250   */\n      tag_261\n      jump\t// in\n    tag_392:\n        /* \"#utility.yul\":12164:12250   */\n      swap1\n      pop\n        /* \"#utility.yul\":11834:12257   */\n      swap4\n      swap3\n      pop\n      pop\n      pop\n      jump\t// out\n        /* \"#utility.yul\":12263:12372   */\n    tag_262:\n        /* \"#utility.yul\":12344:12365   */\n      tag_394\n        /* \"#utility.yul\":12359:12364   */\n      dup2\n        /* \"#utility.yul\":12344:12365   */\n      tag_251\n      jump\t// in\n    tag_394:\n        /* \"#utility.yul\":12339:12342   */\n      dup3\n        /* \"#utility.yul\":12332:12366   */\n      mstore\n        /* \"#utility.yul\":12263:12372   */\n      pop\n      pop\n      jump\t// out\n        /* \"#utility.yul\":12378:12796   */\n    tag_190:\n        /* \"#utility.yul\":12515:12519   */\n      0x00\n        /* \"#utility.yul\":12553:12555   */\n      0x60\n        /* \"#utility.yul\":12542:12551   */\n      dup3\n        /* \"#utility.yul\":12538:12556   */\n      add\n        /* \"#utility.yul\":12530:12556   */\n      swap1\n      pop\n        /* \"#utility.yul\":12566:12637   */\n      tag_396\n        /* \"#utility.yul\":12634:12635   */\n      0x00\n        /* \"#utility.yul\":12623:12632   */\n      dup4\n        /* \"#utility.yul\":12619:12636   */\n      add\n        /* \"#utility.yul\":12610:12616   */\n      dup7\n        /* \"#utility.yul\":12566:12637   */\n      tag_258\n      jump\t// in\n    tag_396:\n        /* \"#utility.yul\":12647:12713   */\n      tag_397\n        /* \"#utility.yul\":12709:12711   */\n      0x20\n        /* \"#utility.yul\":12698:12707   */\n      dup4\n        /* \"#utility.yul\":12694:12712   */\n      add\n        /* \"#utility.yul\":12685:12691   */\n      dup6\n        /* \"#utility.yul\":12647:12713   */\n      tag_262\n      jump\t// in\n    tag_397:\n        /* \"#utility.yul\":12723:12789   */\n      tag_398\n        /* \"#utility.yul\":12785:12787   */\n      0x40\n        /* \"#utility.yul\":12774:12783   */\n      dup4\n        /* \"#utility.yul\":12770:12788   */\n      add\n        /* \"#utility.yul\":12761:12767   */\n      dup5\n        /* \"#utility.yul\":12723:12789   */\n      tag_262\n      jump\t// in\n    tag_398:\n        /* \"#utility.yul\":12378:12796   */\n      swap5\n      swap4\n      pop\n      pop\n      pop\n      pop\n      jump\t// out\n    stop\n\n    sub_0: assembly {\n            /* \"Lincloud/.deps/contract/contract.sol\":5219:8701  contract user_contract... */\n          mstore(0x40, 0x80)\n            /* \"Lincloud/.deps/contract/contract.sol\":5828:6139  constructor(uint256 _id, string memory _hash) {... */\n          callvalue\n          dup1\n          iszero\n          tag_1\n          jumpi\n          0x00\n          dup1\n          revert\n        tag_1:\n          pop\n          mload(0x40)\n          sub(codesize, bytecodeSize)\n          dup1\n          bytecodeSize\n          dup4\n          codecopy\n          dup2\n          dup2\n          add\n          0x40\n          mstore\n          dup2\n          add\n          swap1\n          tag_2\n          swap2\n          swap1\n          tag_3\n          jump\t// in\n        tag_2:\n            /* \"Lincloud/.deps/contract/contract.sol\":5894:5897  _id */\n          dup2\n            /* \"Lincloud/.deps/contract/contract.sol\":5885:5891  userId */\n          0x01\n            /* \"Lincloud/.deps/contract/contract.sol\":5885:5897  userId = _id */\n          dup2\n          swap1\n          sstore\n          pop\n            /* \"Lincloud/.deps/contract/contract.sol\":5928:5944  user_state.alive */\n          0x01\n            /* \"Lincloud/.deps/contract/contract.sol\":5908:5925  actual_user_state */\n          0x03\n          0x01\n            /* \"Lincloud/.deps/contract/contract.sol\":5908:5944  actual_user_state = user_state.alive */\n          0x0100\n          exp\n          dup2\n          sload\n          dup2\n          0xff\n          mul\n          not\n          and\n          swap1\n          dup4\n          0x01\n          dup2\n          gt\n          iszero\n          tag_6\n          jumpi\n          tag_7\n          tag_8\n          jump\t// in\n        tag_7:\n        tag_6:\n          mul\n          or\n          swap1\n          sstore\n          pop\n            /* \"Lincloud/.deps/contract/contract.sol\":5970:5975  _hash */\n          dup1\n            /* \"Lincloud/.deps/contract/contract.sol\":5955:5967  contractHash */\n          0x02\n            /* \"Lincloud/.deps/contract/contract.sol\":5955:5975  contractHash = _hash */\n          swap1\n          dup2\n          tag_9\n          swap2\n          swap1\n          tag_10\n          jump\t// in\n        tag_9:\n          pop\n            /* \"Lincloud/.deps/contract/contract.sol\":6005:6010  false */\n          0x00\n            /* \"Lincloud/.deps/contract/contract.sol\":5986:6002  isContractClosed */\n          0x03\n          0x00\n            /* \"Lincloud/.deps/contract/contract.sol\":5986:6010  isContractClosed = false */\n          0x0100\n          exp\n          dup2\n          sload\n          dup2\n          0xff\n          mul\n          not\n          and\n          swap1\n          dup4\n          iszero\n          iszero\n          mul\n          or\n          swap1\n          sstore\n          pop\n            /* \"Lincloud/.deps/contract/contract.sol\":6025:6034  uint256 i */\n          0x00\n            /* \"Lincloud/.deps/contract/contract.sol\":6021:6132  for(uint256 i = 0; i < recipients_list.length; i++){... */\n        tag_11:\n            /* \"Lincloud/.deps/contract/contract.sol\":6044:6059  recipients_list */\n          0x04\n            /* \"Lincloud/.deps/contract/contract.sol\":6044:6066  recipients_list.length */\n          dup1\n          sload\n          swap1\n          pop\n            /* \"Lincloud/.deps/contract/contract.sol\":6040:6041  i */\n          dup2\n            /* \"Lincloud/.deps/contract/contract.sol\":6040:6066  i < recipients_list.length */\n          lt\n            /* \"Lincloud/.deps/contract/contract.sol\":6021:6132  for(uint256 i = 0; i < recipients_list.length; i++){... */\n          iszero\n          tag_12\n          jumpi\n            /* \"Lincloud/.deps/contract/contract.sol\":6087:6120  recipients_list[i].timestamp = \"\" */\n          mload(0x40)\n          dup1\n          0x20\n          add\n          0x40\n          mstore\n          dup1\n          0x00\n          dup2\n          mstore\n          pop\n            /* \"Lincloud/.deps/contract/contract.sol\":6087:6102  recipients_list */\n          0x04\n            /* \"Lincloud/.deps/contract/contract.sol\":6103:6104  i */\n          dup3\n            /* \"Lincloud/.deps/contract/contract.sol\":6087:6105  recipients_list[i] */\n          dup2\n          sload\n          dup2\n          lt\n          tag_14\n          jumpi\n          tag_15\n          tag_16\n          jump\t// in\n        tag_15:\n        tag_14:\n          swap1\n          0x00\n          mstore\n          keccak256(0x00, 0x20)\n          swap1\n          0x03\n          mul\n          add\n            /* \"Lincloud/.deps/contract/contract.sol\":6087:6115  recipients_list[i].timestamp */\n          0x01\n          add\n            /* \"Lincloud/.deps/contract/contract.sol\":6087:6120  recipients_list[i].timestamp = \"\" */\n          swap1\n          dup2\n          tag_18\n          swap2\n          swap1\n          tag_10\n          jump\t// in\n        tag_18:\n          pop\n            /* \"Lincloud/.deps/contract/contract.sol\":6068:6071  i++ */\n          dup1\n          dup1\n          0x01\n          add\n          swap2\n          pop\n          pop\n            /* \"Lincloud/.deps/contract/contract.sol\":6021:6132  for(uint256 i = 0; i < recipients_list.length; i++){... */\n          jump(tag_11)\n        tag_12:\n          pop\n            /* \"Lincloud/.deps/contract/contract.sol\":5828:6139  constructor(uint256 _id, string memory _hash) {... */\n          pop\n          pop\n            /* \"Lincloud/.deps/contract/contract.sol\":5219:8701  contract user_contract... */\n          jump(tag_19)\n            /* \"#utility.yul\":7:82   */\n        tag_20:\n            /* \"#utility.yul\":40:46   */\n          0x00\n            /* \"#utility.yul\":73:75   */\n          0x40\n            /* \"#utility.yul\":67:76   */\n          mload\n            /* \"#utility.yul\":57:76   */\n          swap1\n          pop\n            /* \"#utility.yul\":7:82   */\n          swap1\n          jump\t// out\n            /* \"#utility.yul\":88:205   */\n        tag_21:\n            /* \"#utility.yul\":197:198   */\n          0x00\n            /* \"#utility.yul\":194:195   */\n          dup1\n            /* \"#utility.yul\":187:199   */\n          revert\n            /* \"#utility.yul\":211:328   */\n        tag_22:\n            /* \"#utility.yul\":320:321   */\n          0x00\n            /* \"#utility.yul\":317:318   */\n          dup1\n            /* \"#utility.yul\":310:322   */\n          revert\n            /* \"#utility.yul\":334:411   */\n        tag_23:\n            /* \"#utility.yul\":371:378   */\n          0x00\n            /* \"#utility.yul\":400:405   */\n          dup2\n            /* \"#utility.yul\":389:405   */\n          swap1\n          pop\n            /* \"#utility.yul\":334:411   */\n          swap2\n          swap1\n          pop\n          jump\t// out\n            /* \"#utility.yul\":417:539   */\n        tag_24:\n            /* \"#utility.yul\":490:514   */\n          tag_60\n            /* \"#utility.yul\":508:513   */\n          dup2\n            /* \"#utility.yul\":490:514   */\n          tag_23\n          jump\t// in\n        tag_60:\n            /* \"#utility.yul\":483:488   */\n          dup2\n            /* \"#utility.yul\":480:515   */\n          eq\n            /* \"#utility.yul\":470:533   */\n          tag_61\n          jumpi\n            /* \"#utility.yul\":529:530   */\n          0x00\n            /* \"#utility.yul\":526:527   */\n          dup1\n            /* \"#utility.yul\":519:531   */\n          revert\n            /* \"#utility.yul\":470:533   */\n        tag_61:\n            /* \"#utility.yul\":417:539   */\n          pop\n          jump\t// out\n            /* \"#utility.yul\":545:688   */\n        tag_25:\n            /* \"#utility.yul\":602:607   */\n          0x00\n            /* \"#utility.yul\":633:639   */\n          dup2\n            /* \"#utility.yul\":627:640   */\n          mload\n            /* \"#utility.yul\":618:640   */\n          swap1\n          pop\n            /* \"#utility.yul\":649:682   */\n          tag_63\n            /* \"#utility.yul\":676:681   */\n          dup2\n            /* \"#utility.yul\":649:682   */\n          tag_24\n          jump\t// in\n        tag_63:\n            /* \"#utility.yul\":545:688   */\n          swap3\n          swap2\n          pop\n          pop\n          jump\t// out\n            /* \"#utility.yul\":694:811   */\n        tag_26:\n            /* \"#utility.yul\":803:804   */\n          0x00\n            /* \"#utility.yul\":800:801   */\n          dup1\n            /* \"#utility.yul\":793:805   */\n          revert\n            /* \"#utility.yul\":817:934   */\n        tag_27:\n            /* \"#utility.yul\":926:927   */\n          0x00\n            /* \"#utility.yul\":923:924   */\n          dup1\n            /* \"#utility.yul\":916:928   */\n          revert\n            /* \"#utility.yul\":940:1042   */\n        tag_28:\n            /* \"#utility.yul\":981:987   */\n          0x00\n            /* \"#utility.yul\":1032:1034   */\n          0x1f\n            /* \"#utility.yul\":1028:1035   */\n          not\n            /* \"#utility.yul\":1023:1025   */\n          0x1f\n            /* \"#utility.yul\":1016:1021   */\n          dup4\n            /* \"#utility.yul\":1012:1026   */\n          add\n            /* \"#utility.yul\":1008:1036   */\n          and\n            /* \"#utility.yul\":998:1036   */\n          swap1\n          pop\n            /* \"#utility.yul\":940:1042   */\n          swap2\n          swap1\n          pop\n          jump\t// out\n            /* \"#utility.yul\":1048:1228   */\n        tag_29:\n            /* \"#utility.yul\":1096:1173   */\n          0x4e487b7100000000000000000000000000000000000000000000000000000000\n            /* \"#utility.yul\":1093:1094   */\n          0x00\n            /* \"#utility.yul\":1086:1174   */\n          mstore\n            /* \"#utility.yul\":1193:1197   */\n          0x41\n            /* \"#utility.yul\":1190:1191   */\n          0x04\n            /* \"#utility.yul\":1183:1198   */\n          mstore\n            /* \"#utility.yul\":1217:1221   */\n          0x24\n            /* \"#utility.yul\":1214:1215   */\n          0x00\n            /* \"#utility.yul\":1207:1222   */\n          revert\n            /* \"#utility.yul\":1234:1515   */\n        tag_30:\n            /* \"#utility.yul\":1317:1344   */\n          tag_69\n            /* \"#utility.yul\":1339:1343   */\n          dup3\n            /* \"#utility.yul\":1317:1344   */\n          tag_28\n          jump\t// in\n        tag_69:\n            /* \"#utility.yul\":1309:1315   */\n          dup2\n            /* \"#utility.yul\":1305:1345   */\n          add\n            /* \"#utility.yul\":1447:1453   */\n          dup2\n            /* \"#utility.yul\":1435:1445   */\n          dup2\n            /* \"#utility.yul\":1432:1454   */\n          lt\n            /* \"#utility.yul\":1411:1429   */\n          0xffffffffffffffff\n            /* \"#utility.yul\":1399:1409   */\n          dup3\n            /* \"#utility.yul\":1396:1430   */\n          gt\n            /* \"#utility.yul\":1393:1455   */\n          or\n            /* \"#utility.yul\":1390:1478   */\n          iszero\n          tag_70\n          jumpi\n            /* \"#utility.yul\":1458:1476   */\n          tag_71\n          tag_29\n          jump\t// in\n        tag_71:\n            /* \"#utility.yul\":1390:1478   */\n        tag_70:\n            /* \"#utility.yul\":1498:1508   */\n          dup1\n            /* \"#utility.yul\":1494:1496   */\n          0x40\n            /* \"#utility.yul\":1487:1509   */\n          mstore\n            /* \"#utility.yul\":1277:1515   */\n          pop\n            /* \"#utility.yul\":1234:1515   */\n          pop\n          pop\n          jump\t// out\n            /* \"#utility.yul\":1521:1650   */\n        tag_31:\n            /* \"#utility.yul\":1555:1561   */\n          0x00\n            /* \"#utility.yul\":1582:1602   */\n          tag_73\n          tag_20\n          jump\t// in\n        tag_73:\n            /* \"#utility.yul\":1572:1602   */\n          swap1\n          pop\n            /* \"#utility.yul\":1611:1644   */\n          tag_74\n            /* \"#utility.yul\":1639:1643   */\n          dup3\n            /* \"#utility.yul\":1631:1637   */\n          dup3\n            /* \"#utility.yul\":1611:1644   */\n          tag_30\n          jump\t// in\n        tag_74:\n            /* \"#utility.yul\":1521:1650   */\n          swap2\n          swap1\n          pop\n          jump\t// out\n            /* \"#utility.yul\":1656:1964   */\n        tag_32:\n            /* \"#utility.yul\":1718:1722   */\n          0x00\n            /* \"#utility.yul\":1808:1826   */\n          0xffffffffffffffff\n            /* \"#utility.yul\":1800:1806   */\n          dup3\n            /* \"#utility.yul\":1797:1827   */\n          gt\n            /* \"#utility.yul\":1794:1850   */\n          iszero\n          tag_76\n          jumpi\n            /* \"#utility.yul\":1830:1848   */\n          tag_77\n          tag_29\n          jump\t// in\n        tag_77:\n            /* \"#utility.yul\":1794:1850   */\n        tag_76:\n            /* \"#utility.yul\":1868:1897   */\n          tag_78\n            /* \"#utility.yul\":1890:1896   */\n          dup3\n            /* \"#utility.yul\":1868:1897   */\n          tag_28\n          jump\t// in\n        tag_78:\n            /* \"#utility.yul\":1860:1897   */\n          swap1\n          pop\n            /* \"#utility.yul\":1952:1956   */\n          0x20\n            /* \"#utility.yul\":1946:1950   */\n          dup2\n            /* \"#utility.yul\":1942:1957   */\n          add\n            /* \"#utility.yul\":1934:1957   */\n          swap1\n          pop\n            /* \"#utility.yul\":1656:1964   */\n          swap2\n          swap1\n          pop\n          jump\t// out\n            /* \"#utility.yul\":1970:2216   */\n        tag_33:\n            /* \"#utility.yul\":2051:2052   */\n          0x00\n            /* \"#utility.yul\":2061:2174   */\n        tag_80:\n            /* \"#utility.yul\":2075:2081   */\n          dup4\n            /* \"#utility.yul\":2072:2073   */\n          dup2\n            /* \"#utility.yul\":2069:2082   */\n          lt\n            /* \"#utility.yul\":2061:2174   */\n          iszero\n          tag_82\n          jumpi\n            /* \"#utility.yul\":2160:2161   */\n          dup1\n            /* \"#utility.yul\":2155:2158   */\n          dup3\n            /* \"#utility.yul\":2151:2162   */\n          add\n            /* \"#utility.yul\":2145:2163   */\n          mload\n            /* \"#utility.yul\":2141:2142   */\n          dup2\n            /* \"#utility.yul\":2136:2139   */\n          dup5\n            /* \"#utility.yul\":2132:2143   */\n          add\n            /* \"#utility.yul\":2125:2164   */\n          mstore\n            /* \"#utility.yul\":2097:2099   */\n          0x20\n            /* \"#utility.yul\":2094:2095   */\n          dup2\n            /* \"#utility.yul\":2090:2100   */\n          add\n            /* \"#utility.yul\":2085:2100   */\n          swap1\n          pop\n            /* \"#utility.yul\":2061:2174   */\n          jump(tag_80)\n        tag_82:\n            /* \"#utility.yul\":2208:2209   */\n          0x00\n            /* \"#utility.yul\":2199:2205   */\n          dup5\n            /* \"#utility.yul\":2194:2197   */\n          dup5\n            /* \"#utility.yul\":2190:2206   */\n          add\n            /* \"#utility.yul\":2183:2210   */\n          mstore\n            /* \"#utility.yul\":2032:2216   */\n          pop\n            /* \"#utility.yul\":1970:2216   */\n          pop\n          pop\n          pop\n          jump\t// out\n            /* \"#utility.yul\":2222:2656   */\n        tag_34:\n            /* \"#utility.yul\":2311:2316   */\n          0x00\n            /* \"#utility.yul\":2336:2402   */\n          tag_84\n            /* \"#utility.yul\":2352:2401   */\n          tag_85\n            /* \"#utility.yul\":2394:2400   */\n          dup5\n            /* \"#utility.yul\":2352:2401   */\n          tag_32\n          jump\t// in\n        tag_85:\n            /* \"#utility.yul\":2336:2402   */\n          tag_31\n          jump\t// in\n        tag_84:\n            /* \"#utility.yul\":2327:2402   */\n          swap1\n          pop\n            /* \"#utility.yul\":2425:2431   */\n          dup3\n            /* \"#utility.yul\":2418:2423   */\n          dup2\n            /* \"#utility.yul\":2411:2432   */\n          mstore\n            /* \"#utility.yul\":2463:2467   */\n          0x20\n            /* \"#utility.yul\":2456:2461   */\n          dup2\n            /* \"#utility.yul\":2452:2468   */\n          add\n            /* \"#utility.yul\":2501:2504   */\n          dup5\n            /* \"#utility.yul\":2492:2498   */\n          dup5\n            /* \"#utility.yul\":2487:2490   */\n          dup5\n            /* \"#utility.yul\":2483:2499   */\n          add\n            /* \"#utility.yul\":2480:2505   */\n          gt\n            /* \"#utility.yul\":2477:2589   */\n          iszero\n          tag_86\n          jumpi\n            /* \"#utility.yul\":2508:2587   */\n          tag_87\n          tag_27\n          jump\t// in\n        tag_87:\n            /* \"#utility.yul\":2477:2589   */\n        tag_86:\n            /* \"#utility.yul\":2598:2650   */\n          tag_88\n            /* \"#utility.yul\":2643:2649   */\n          dup5\n            /* \"#utility.yul\":2638:2641   */\n          dup3\n            /* \"#utility.yul\":2633:2636   */\n          dup6\n            /* \"#utility.yul\":2598:2650   */\n          tag_33\n          jump\t// in\n        tag_88:\n            /* \"#utility.yul\":2317:2656   */\n          pop\n            /* \"#utility.yul\":2222:2656   */\n          swap4\n          swap3\n          pop\n          pop\n          pop\n          jump\t// out\n            /* \"#utility.yul\":2676:3031   */\n        tag_35:\n            /* \"#utility.yul\":2743:2748   */\n          0x00\n            /* \"#utility.yul\":2792:2795   */\n          dup3\n            /* \"#utility.yul\":2785:2789   */\n          0x1f\n            /* \"#utility.yul\":2777:2783   */\n          dup4\n            /* \"#utility.yul\":2773:2790   */\n          add\n            /* \"#utility.yul\":2769:2796   */\n          slt\n            /* \"#utility.yul\":2759:2881   */\n          tag_90\n          jumpi\n            /* \"#utility.yul\":2800:2879   */\n          tag_91\n          tag_26\n          jump\t// in\n        tag_91:\n            /* \"#utility.yul\":2759:2881   */\n        tag_90:\n            /* \"#utility.yul\":2910:2916   */\n          dup2\n            /* \"#utility.yul\":2904:2917   */\n          mload\n            /* \"#utility.yul\":2935:3025   */\n          tag_92\n            /* \"#utility.yul\":3021:3024   */\n          dup5\n            /* \"#utility.yul\":3013:3019   */\n          dup3\n            /* \"#utility.yul\":3006:3010   */\n          0x20\n            /* \"#utility.yul\":2998:3004   */\n          dup7\n            /* \"#utility.yul\":2994:3011   */\n          add\n            /* \"#utility.yul\":2935:3025   */\n          tag_34\n          jump\t// in\n        tag_92:\n            /* \"#utility.yul\":2926:3025   */\n          swap2\n          pop\n            /* \"#utility.yul\":2749:3031   */\n          pop\n            /* \"#utility.yul\":2676:3031   */\n          swap3\n          swap2\n          pop\n          pop\n          jump\t// out\n            /* \"#utility.yul\":3037:3717   */\n        tag_3:\n            /* \"#utility.yul\":3126:3132   */\n          0x00\n            /* \"#utility.yul\":3134:3140   */\n          dup1\n            /* \"#utility.yul\":3183:3185   */\n          0x40\n            /* \"#utility.yul\":3171:3180   */\n          dup4\n            /* \"#utility.yul\":3162:3169   */\n          dup6\n            /* \"#utility.yul\":3158:3181   */\n          sub\n            /* \"#utility.yul\":3154:3186   */\n          slt\n            /* \"#utility.yul\":3151:3270   */\n          iszero\n          tag_94\n          jumpi\n            /* \"#utility.yul\":3189:3268   */\n          tag_95\n          tag_21\n          jump\t// in\n        tag_95:\n            /* \"#utility.yul\":3151:3270   */\n        tag_94:\n            /* \"#utility.yul\":3309:3310   */\n          0x00\n            /* \"#utility.yul\":3334:3398   */\n          tag_96\n            /* \"#utility.yul\":3390:3397   */\n          dup6\n            /* \"#utility.yul\":3381:3387   */\n          dup3\n            /* \"#utility.yul\":3370:3379   */\n          dup7\n            /* \"#utility.yul\":3366:3388   */\n          add\n            /* \"#utility.yul\":3334:3398   */\n          tag_25\n          jump\t// in\n        tag_96:\n            /* \"#utility.yul\":3324:3398   */\n          swap3\n          pop\n            /* \"#utility.yul\":3280:3408   */\n          pop\n            /* \"#utility.yul\":3468:3470   */\n          0x20\n            /* \"#utility.yul\":3457:3466   */\n          dup4\n            /* \"#utility.yul\":3453:3471   */\n          add\n            /* \"#utility.yul\":3447:3472   */\n          mload\n            /* \"#utility.yul\":3499:3517   */\n          0xffffffffffffffff\n            /* \"#utility.yul\":3491:3497   */\n          dup2\n            /* \"#utility.yul\":3488:3518   */\n          gt\n            /* \"#utility.yul\":3485:3602   */\n          iszero\n          tag_97\n          jumpi\n            /* \"#utility.yul\":3521:3600   */\n          tag_98\n          tag_22\n          jump\t// in\n        tag_98:\n            /* \"#utility.yul\":3485:3602   */\n        tag_97:\n            /* \"#utility.yul\":3626:3700   */\n          tag_99\n            /* \"#utility.yul\":3692:3699   */\n          dup6\n            /* \"#utility.yul\":3683:3689   */\n          dup3\n            /* \"#utility.yul\":3672:3681   */\n          dup7\n            /* \"#utility.yul\":3668:3690   */\n          add\n            /* \"#utility.yul\":3626:3700   */\n          tag_35\n          jump\t// in\n        tag_99:\n            /* \"#utility.yul\":3616:3700   */\n          swap2\n          pop\n            /* \"#utility.yul\":3418:3710   */\n          pop\n            /* \"#utility.yul\":3037:3717   */\n          swap3\n          pop\n          swap3\n          swap1\n          pop\n          jump\t// out\n            /* \"#utility.yul\":3723:3903   */\n        tag_8:\n            /* \"#utility.yul\":3771:3848   */\n          0x4e487b7100000000000000000000000000000000000000000000000000000000\n            /* \"#utility.yul\":3768:3769   */\n          0x00\n            /* \"#utility.yul\":3761:3849   */\n          mstore\n            /* \"#utility.yul\":3868:3872   */\n          0x21\n            /* \"#utility.yul\":3865:3866   */\n          0x04\n            /* \"#utility.yul\":3858:3873   */\n          mstore\n            /* \"#utility.yul\":3892:3896   */\n          0x24\n            /* \"#utility.yul\":3889:3890   */\n          0x00\n            /* \"#utility.yul\":3882:3897   */\n          revert\n            /* \"#utility.yul\":3909:4008   */\n        tag_36:\n            /* \"#utility.yul\":3961:3967   */\n          0x00\n            /* \"#utility.yul\":3995:4000   */\n          dup2\n            /* \"#utility.yul\":3989:4001   */\n          mload\n            /* \"#utility.yul\":3979:4001   */\n          swap1\n          pop\n            /* \"#utility.yul\":3909:4008   */\n          swap2\n          swap1\n          pop\n          jump\t// out\n            /* \"#utility.yul\":4014:4194   */\n        tag_37:\n            /* \"#utility.yul\":4062:4139   */\n          0x4e487b7100000000000000000000000000000000000000000000000000000000\n            /* \"#utility.yul\":4059:4060   */\n          0x00\n            /* \"#utility.yul\":4052:4140   */\n          mstore\n            /* \"#utility.yul\":4159:4163   */\n          0x22\n            /* \"#utility.yul\":4156:4157   */\n          0x04\n            /* \"#utility.yul\":4149:4164   */\n          mstore\n            /* \"#utility.yul\":4183:4187   */\n          0x24\n            /* \"#utility.yul\":4180:4181   */\n          0x00\n            /* \"#utility.yul\":4173:4188   */\n          revert\n            /* \"#utility.yul\":4200:4520   */\n        tag_38:\n            /* \"#utility.yul\":4244:4250   */\n          0x00\n            /* \"#utility.yul\":4281:4282   */\n          0x02\n            /* \"#utility.yul\":4275:4279   */\n          dup3\n            /* \"#utility.yul\":4271:4283   */\n          div\n            /* \"#utility.yul\":4261:4283   */\n          swap1\n          pop\n            /* \"#utility.yul\":4328:4329   */\n          0x01\n            /* \"#utility.yul\":4322:4326   */\n          dup3\n            /* \"#utility.yul\":4318:4330   */\n          and\n            /* \"#utility.yul\":4349:4367   */\n          dup1\n            /* \"#utility.yul\":4339:4420   */\n          tag_104\n          jumpi\n            /* \"#utility.yul\":4405:4409   */\n          0x7f\n            /* \"#utility.yul\":4397:4403   */\n          dup3\n            /* \"#utility.yul\":4393:4410   */\n          and\n            /* \"#utility.yul\":4383:4410   */\n          swap2\n          pop\n            /* \"#utility.yul\":4339:4420   */\n        tag_104:\n            /* \"#utility.yul\":4467:4469   */\n          0x20\n            /* \"#utility.yul\":4459:4465   */\n          dup3\n            /* \"#utility.yul\":4456:4470   */\n          lt\n            /* \"#utility.yul\":4436:4454   */\n          dup2\n            /* \"#utility.yul\":4433:4471   */\n          sub\n            /* \"#utility.yul\":4430:4514   */\n          tag_105\n          jumpi\n            /* \"#utility.yul\":4486:4504   */\n          tag_106\n          tag_37\n          jump\t// in\n        tag_106:\n            /* \"#utility.yul\":4430:4514   */\n        tag_105:\n            /* \"#utility.yul\":4251:4520   */\n          pop\n            /* \"#utility.yul\":4200:4520   */\n          swap2\n          swap1\n          pop\n          jump\t// out\n            /* \"#utility.yul\":4526:4667   */\n        tag_39:\n            /* \"#utility.yul\":4575:4579   */\n          0x00\n            /* \"#utility.yul\":4598:4601   */\n          dup2\n            /* \"#utility.yul\":4590:4601   */\n          swap1\n          pop\n            /* \"#utility.yul\":4621:4624   */\n          dup2\n            /* \"#utility.yul\":4618:4619   */\n          0x00\n            /* \"#utility.yul\":4611:4625   */\n          mstore\n            /* \"#utility.yul\":4655:4659   */\n          0x20\n            /* \"#utility.yul\":4652:4653   */\n          0x00\n            /* \"#utility.yul\":4642:4660   */\n          keccak256\n            /* \"#utility.yul\":4634:4660   */\n          swap1\n          pop\n            /* \"#utility.yul\":4526:4667   */\n          swap2\n          swap1\n          pop\n          jump\t// out\n            /* \"#utility.yul\":4673:4766   */\n        tag_40:\n            /* \"#utility.yul\":4710:4716   */\n          0x00\n            /* \"#utility.yul\":4757:4759   */\n          0x20\n            /* \"#utility.yul\":4752:4754   */\n          0x1f\n            /* \"#utility.yul\":4745:4750   */\n          dup4\n            /* \"#utility.yul\":4741:4755   */\n          add\n            /* \"#utility.yul\":4737:4760   */\n          div\n            /* \"#utility.yul\":4727:4760   */\n          swap1\n          pop\n            /* \"#utility.yul\":4673:4766   */\n          swap2\n          swap1\n          pop\n          jump\t// out\n            /* \"#utility.yul\":4772:4879   */\n        tag_41:\n            /* \"#utility.yul\":4816:4824   */\n          0x00\n            /* \"#utility.yul\":4866:4871   */\n          dup3\n            /* \"#utility.yul\":4860:4864   */\n          dup3\n            /* \"#utility.yul\":4856:4872   */\n          shl\n            /* \"#utility.yul\":4835:4872   */\n          swap1\n          pop\n            /* \"#utility.yul\":4772:4879   */\n          swap3\n          swap2\n          pop\n          pop\n          jump\t// out\n            /* \"#utility.yul\":4885:5278   */\n        tag_42:\n            /* \"#utility.yul\":4954:4960   */\n          0x00\n            /* \"#utility.yul\":5004:5005   */\n          0x08\n            /* \"#utility.yul\":4992:5002   */\n          dup4\n            /* \"#utility.yul\":4988:5006   */\n          mul\n            /* \"#utility.yul\":5027:5124   */\n          tag_111\n            /* \"#utility.yul\":5057:5123   */\n          0xffffffffffffffffffffffffffffffffffffffffffffffffffffffffffffffff\n            /* \"#utility.yul\":5046:5055   */\n          dup3\n            /* \"#utility.yul\":5027:5124   */\n          tag_41\n          jump\t// in\n        tag_111:\n            /* \"#utility.yul\":5145:5184   */\n          tag_112\n            /* \"#utility.yul\":5175:5183   */\n          dup7\n            /* \"#utility.yul\":5164:5173   */\n          dup4\n            /* \"#utility.yul\":5145:5184   */\n          tag_41\n          jump\t// in\n        tag_112:\n            /* \"#utility.yul\":5133:5184   */\n          swap6\n          pop\n            /* \"#utility.yul\":5217:5221   */\n          dup1\n            /* \"#utility.yul\":5213:5222   */\n          not\n            /* \"#utility.yul\":5206:5211   */\n          dup5\n            /* \"#utility.yul\":5202:5223   */\n          and\n            /* \"#utility.yul\":5193:5223   */\n          swap4\n          pop\n            /* \"#utility.yul\":5266:5270   */\n          dup1\n            /* \"#utility.yul\":5256:5264   */\n          dup7\n            /* \"#utility.yul\":5252:5271   */\n          and\n            /* \"#utility.yul\":5245:5250   */\n          dup5\n            /* \"#utility.yul\":5242:5272   */\n          or\n            /* \"#utility.yul\":5232:5272   */\n          swap3\n          pop\n            /* \"#utility.yul\":4961:5278   */\n          pop\n          pop\n            /* \"#utility.yul\":4885:5278   */\n          swap4\n          swap3\n          pop\n          pop\n          pop\n          jump\t// out\n            /* \"#utility.yul\":5284:5344   */\n        tag_43:\n            /* \"#utility.yul\":5312:5315   */\n          0x00\n            /* \"#utility.yul\":5333:5338   */\n          dup2\n            /* \"#utility.yul\":5326:5338   */\n          swap1\n          pop\n            /* \"#utility.yul\":5284:5344   */\n          swap2\n          swap1\n          pop\n          jump\t// out\n            /* \"#utility.yul\":5350:5492   */\n        tag_44:\n            /* \"#utility.yul\":5400:5409   */\n          0x00\n            /* \"#utility.yul\":5433:5486   */\n          tag_115\n            /* \"#utility.yul\":5451:5485   */\n          tag_116\n            /* \"#utility.yul\":5460:5484   */\n          tag_117\n            /* \"#utility.yul\":5478:5483   */\n          dup5\n            /* \"#utility.yul\":5460:5484   */\n          tag_23\n          jump\t// in\n        tag_117:\n            /* \"#utility.yul\":5451:5485   */\n          tag_43\n          jump\t// in\n        tag_116:\n            /* \"#utility.yul\":5433:5486   */\n          tag_23\n          jump\t// in\n        tag_115:\n            /* \"#utility.yul\":5420:5486   */\n          swap1\n          pop\n            /* \"#utility.yul\":5350:5492   */\n          swap2\n          swap1\n          pop\n          jump\t// out\n            /* \"#utility.yul\":5498:5573   */\n        tag_45:\n            /* \"#utility.yul\":5541:5544   */\n          0x00\n            /* \"#utility.yul\":5562:5567   */\n          dup2\n            /* \"#utility.yul\":5555:5567   */\n          swap1\n          pop\n            /* \"#utility.yul\":5498:5573   */\n          swap2\n          swap1\n          pop\n          jump\t// out\n            /* \"#utility.yul\":5579:5848   */\n        tag_46:\n            /* \"#utility.yul\":5689:5728   */\n          tag_120\n            /* \"#utility.yul\":5720:5727   */\n          dup4\n            /* \"#utility.yul\":5689:5728   */\n          tag_44\n          jump\t// in\n        tag_120:\n            /* \"#utility.yul\":5750:5841   */\n          tag_121\n            /* \"#utility.yul\":5799:5840   */\n          tag_122\n            /* \"#utility.yul\":5823:5839   */\n          dup3\n            /* \"#utility.yul\":5799:5840   */\n          tag_45\n          jump\t// in\n        tag_122:\n            /* \"#utility.yul\":5791:5797   */\n          dup5\n            /* \"#utility.yul\":5784:5788   */\n          dup5\n            /* \"#utility.yul\":5778:5789   */\n          sload\n            /* \"#utility.yul\":5750:5841   */\n          tag_42\n          jump\t// in\n        tag_121:\n            /* \"#utility.yul\":5744:5748   */\n          dup3\n            /* \"#utility.yul\":5737:5842   */\n          sstore\n            /* \"#utility.yul\":5655:5848   */\n          pop\n            /* \"#utility.yul\":5579:5848   */\n          pop\n          pop\n          pop\n          jump\t// out\n            /* \"#utility.yul\":5854:5927   */\n        tag_47:\n            /* \"#utility.yul\":5899:5902   */\n          0x00\n            /* \"#utility.yul\":5854:5927   */\n          swap1\n          jump\t// out\n            /* \"#utility.yul\":5933:6122   */\n        tag_48:\n            /* \"#utility.yul\":6010:6042   */\n          tag_125\n          tag_47\n          jump\t// in\n        tag_125:\n            /* \"#utility.yul\":6051:6116   */\n          tag_126\n            /* \"#utility.yul\":6109:6115   */\n          dup2\n            /* \"#utility.yul\":6101:6107   */\n          dup5\n            /* \"#utility.yul\":6095:6099   */\n          dup5\n            /* \"#utility.yul\":6051:6116   */\n          tag_46\n          jump\t// in\n        tag_126:\n            /* \"#utility.yul\":5986:6122   */\n          pop\n            /* \"#utility.yul\":5933:6122   */\n          pop\n          pop\n          jump\t// out\n            /* \"#utility.yul\":6128:6314   */\n        tag_49:\n            /* \"#utility.yul\":6188:6308   */\n        tag_128:\n            /* \"#utility.yul\":6205:6208   */\n          dup2\n            /* \"#utility.yul\":6198:6203   */\n          dup2\n            /* \"#utility.yul\":6195:6209   */\n          lt\n            /* \"#utility.yul\":6188:6308   */\n          iszero\n          tag_130\n          jumpi\n            /* \"#utility.yul\":6259:6298   */\n          tag_131\n            /* \"#utility.yul\":6296:6297   */\n          0x00\n            /* \"#utility.yul\":6289:6294   */\n          dup3\n            /* \"#utility.yul\":6259:6298   */\n          tag_48\n          jump\t// in\n        tag_131:\n            /* \"#utility.yul\":6232:6233   */\n          0x01\n            /* \"#utility.yul\":6225:6230   */\n          dup2\n            /* \"#utility.yul\":6221:6234   */\n          add\n            /* \"#utility.yul\":6212:6234   */\n          swap1\n          pop\n            /* \"#utility.yul\":6188:6308   */\n          jump(tag_128)\n        tag_130:\n            /* \"#utility.yul\":6128:6314   */\n          pop\n          pop\n          jump\t// out\n            /* \"#utility.yul\":6320:6863   */\n        tag_50:\n            /* \"#utility.yul\":6421:6423   */\n          0x1f\n            /* \"#utility.yul\":6416:6419   */\n          dup3\n            /* \"#utility.yul\":6413:6424   */\n          gt\n            /* \"#utility.yul\":6410:6856   */\n          iszero\n          tag_133\n          jumpi\n            /* \"#utility.yul\":6455:6493   */\n          tag_134\n            /* \"#utility.yul\":6487:6492   */\n          dup2\n            /* \"#utility.yul\":6455:6493   */\n          tag_39\n          jump\t// in\n        tag_134:\n            /* \"#utility.yul\":6539:6568   */\n          tag_135\n            /* \"#utility.yul\":6557:6567   */\n          dup5\n            /* \"#utility.yul\":6539:6568   */\n          tag_40\n          jump\t// in\n        tag_135:\n            /* \"#utility.yul\":6529:6537   */\n          dup2\n            /* \"#utility.yul\":6525:6569   */\n          add\n            /* \"#utility.yul\":6722:6724   */\n          0x20\n            /* \"#utility.yul\":6710:6720   */\n          dup6\n            /* \"#utility.yul\":6707:6725   */\n          lt\n            /* \"#utility.yul\":6704:6753   */\n          iszero\n          tag_136\n          jumpi\n            /* \"#utility.yul\":6743:6751   */\n          dup2\n            /* \"#utility.yul\":6728:6751   */\n          swap1\n          pop\n            /* \"#utility.yul\":6704:6753   */\n        tag_136:\n            /* \"#utility.yul\":6766:6846   */\n          tag_137\n            /* \"#utility.yul\":6822:6844   */\n          tag_138\n            /* \"#utility.yul\":6840:6843   */\n          dup6\n            /* \"#utility.yul\":6822:6844   */\n          tag_40\n          jump\t// in\n        tag_138:\n            /* \"#utility.yul\":6812:6820   */\n          dup4\n            /* \"#utility.yul\":6808:6845   */\n          add\n            /* \"#utility.yul\":6795:6806   */\n          dup3\n            /* \"#utility.yul\":6766:6846   */\n          tag_49\n          jump\t// in\n        tag_137:\n            /* \"#utility.yul\":6425:6856   */\n          pop\n          pop\n            /* \"#utility.yul\":6410:6856   */\n        tag_133:\n            /* \"#utility.yul\":6320:6863   */\n          pop\n          pop\n          pop\n          jump\t// out\n            /* \"#utility.yul\":6869:6986   */\n        tag_51:\n            /* \"#utility.yul\":6923:6931   */\n          0x00\n            /* \"#utility.yul\":6973:6978   */\n          dup3\n            /* \"#utility.yul\":6967:6971   */\n          dup3\n            /* \"#utility.yul\":6963:6979   */\n          shr\n            /* \"#utility.yul\":6942:6979   */\n          swap1\n          pop\n            /* \"#utility.yul\":6869:6986   */\n          swap3\n          swap2\n          pop\n          pop\n          jump\t// out\n            /* \"#utility.yul\":6992:7161   */\n        tag_52:\n            /* \"#utility.yul\":7036:7042   */\n          0x00\n            /* \"#utility.yul\":7069:7120   */\n          tag_141\n            /* \"#utility.yul\":7117:7118   */\n          0x00\n            /* \"#utility.yul\":7113:7119   */\n          not\n            /* \"#utility.yul\":7105:7110   */\n          dup5\n            /* \"#utility.yul\":7102:7103   */\n          0x08\n            /* \"#utility.yul\":7098:7111   */\n          mul\n            /* \"#utility.yul\":7069:7120   */\n          tag_51\n          jump\t// in\n        tag_141:\n            /* \"#utility.yul\":7065:7121   */\n          not\n            /* \"#utility.yul\":7150:7154   */\n          dup1\n            /* \"#utility.yul\":7144:7148   */\n          dup4\n            /* \"#utility.yul\":7140:7155   */\n          and\n            /* \"#utility.yul\":7130:7155   */\n          swap2\n          pop\n            /* \"#utility.yul\":7043:7161   */\n          pop\n            /* \"#utility.yul\":6992:7161   */\n          swap3\n          swap2\n          pop\n          pop\n          jump\t// out\n            /* \"#utility.yul\":7166:7461   */\n        tag_53:\n            /* \"#utility.yul\":7242:7246   */\n          0x00\n            /* \"#utility.yul\":7388:7417   */\n          tag_143\n            /* \"#utility.yul\":7413:7416   */\n          dup4\n            /* \"#utility.yul\":7407:7411   */\n          dup4\n            /* \"#utility.yul\":7388:7417   */\n          tag_52\n          jump\t// in\n        tag_143:\n            /* \"#utility.yul\":7380:7417   */\n          swap2\n          pop\n            /* \"#utility.yul\":7450:7453   */\n          dup3\n            /* \"#utility.yul\":7447:7448   */\n          0x02\n            /* \"#utility.yul\":7443:7454   */\n          mul\n            /* \"#utility.yul\":7437:7441   */\n          dup3\n            /* \"#utility.yul\":7434:7455   */\n          or\n            /* \"#utility.yul\":7426:7455   */\n          swap1\n          pop\n            /* \"#utility.yul\":7166:7461   */\n          swap3\n          swap2\n          pop\n          pop\n          jump\t// out\n            /* \"#utility.yul\":7466:8861   */\n        tag_10:\n            /* \"#utility.yul\":7583:7620   */\n          tag_145\n            /* \"#utility.yul\":7616:7619   */\n          dup3\n            /* \"#utility.yul\":7583:7620   */\n          tag_36\n          jump\t// in\n        tag_145:\n            /* \"#utility.yul\":7685:7703   */\n          0xffffffffffffffff\n            /* \"#utility.yul\":7677:7683   */\n          dup2\n            /* \"#utility.yul\":7674:7704   */\n          gt\n            /* \"#utility.yul\":7671:7727   */\n          iszero\n          tag_146\n          jumpi\n            /* \"#utility.yul\":7707:7725   */\n          tag_147\n          tag_29\n          jump\t// in\n        tag_147:\n            /* \"#utility.yul\":7671:7727   */\n        tag_146:\n            /* \"#utility.yul\":7751:7789   */\n          tag_148\n            /* \"#utility.yul\":7783:7787   */\n          dup3\n            /* \"#utility.yul\":7777:7788   */\n          sload\n            /* \"#utility.yul\":7751:7789   */\n          tag_38\n          jump\t// in\n        tag_148:\n            /* \"#utility.yul\":7836:7903   */\n          tag_149\n            /* \"#utility.yul\":7896:7902   */\n          dup3\n            /* \"#utility.yul\":7888:7894   */\n          dup3\n            /* \"#utility.yul\":7882:7886   */\n          dup6\n            /* \"#utility.yul\":7836:7903   */\n          tag_50\n          jump\t// in\n        tag_149:\n            /* \"#utility.yul\":7930:7931   */\n          0x00\n            /* \"#utility.yul\":7954:7958   */\n          0x20\n            /* \"#utility.yul\":7941:7958   */\n          swap1\n          pop\n            /* \"#utility.yul\":7986:7988   */\n          0x1f\n            /* \"#utility.yul\":7978:7984   */\n          dup4\n            /* \"#utility.yul\":7975:7989   */\n          gt\n            /* \"#utility.yul\":8003:8004   */\n          0x01\n            /* \"#utility.yul\":7998:8616   */\n          dup2\n          eq\n          tag_151\n          jumpi\n            /* \"#utility.yul\":8660:8661   */\n          0x00\n            /* \"#utility.yul\":8677:8683   */\n          dup5\n            /* \"#utility.yul\":8674:8751   */\n          iszero\n          tag_152\n          jumpi\n            /* \"#utility.yul\":8726:8735   */\n          dup3\n            /* \"#utility.yul\":8721:8724   */\n          dup8\n            /* \"#utility.yul\":8717:8736   */\n          add\n            /* \"#utility.yul\":8711:8737   */\n          mload\n            /* \"#utility.yul\":8702:8737   */\n          swap1\n          pop\n            /* \"#utility.yul\":8674:8751   */\n        tag_152:\n            /* \"#utility.yul\":8777:8844   */\n          tag_153\n            /* \"#utility.yul\":8837:8843   */\n          dup6\n            /* \"#utility.yul\":8830:8835   */\n          dup3\n            /* \"#utility.yul\":8777:8844   */\n          tag_53\n          jump\t// in\n        tag_153:\n            /* \"#utility.yul\":8771:8775   */\n          dup7\n            /* \"#utility.yul\":8764:8845   */\n          sstore\n            /* \"#utility.yul\":8633:8855   */\n          pop\n            /* \"#utility.yul\":7968:8855   */\n          jump(tag_150)\n            /* \"#utility.yul\":7998:8616   */\n        tag_151:\n            /* \"#utility.yul\":8050:8054   */\n          0x1f\n            /* \"#utility.yul\":8046:8055   */\n          not\n            /* \"#utility.yul\":8038:8044   */\n          dup5\n            /* \"#utility.yul\":8034:8056   */\n          and\n            /* \"#utility.yul\":8084:8121   */\n          tag_154\n            /* \"#utility.yul\":8116:8120   */\n          dup7\n            /* \"#utility.yul\":8084:8121   */\n          tag_39\n          jump\t// in\n        tag_154:\n            /* \"#utility.yul\":8143:8144   */\n          0x00\n            /* \"#utility.yul\":8157:8365   */\n        tag_155:\n            /* \"#utility.yul\":8171:8178   */\n          dup3\n            /* \"#utility.yul\":8168:8169   */\n          dup2\n            /* \"#utility.yul\":8165:8179   */\n          lt\n            /* \"#utility.yul\":8157:8365   */\n          iszero\n          tag_157\n          jumpi\n            /* \"#utility.yul\":8250:8259   */\n          dup5\n            /* \"#utility.yul\":8245:8248   */\n          dup10\n            /* \"#utility.yul\":8241:8260   */\n          add\n            /* \"#utility.yul\":8235:8261   */\n          mload\n            /* \"#utility.yul\":8227:8233   */\n          dup3\n            /* \"#utility.yul\":8220:8262   */\n          sstore\n            /* \"#utility.yul\":8301:8302   */\n          0x01\n            /* \"#utility.yul\":8293:8299   */\n          dup3\n            /* \"#utility.yul\":8289:8303   */\n          add\n            /* \"#utility.yul\":8279:8303   */\n          swap2\n          pop\n            /* \"#utility.yul\":8348:8350   */\n          0x20\n            /* \"#utility.yul\":8337:8346   */\n          dup6\n            /* \"#utility.yul\":8333:8351   */\n          add\n            /* \"#utility.yul\":8320:8351   */\n          swap5\n          pop\n            /* \"#utility.yul\":8194:8198   */\n          0x20\n            /* \"#utility.yul\":8191:8192   */\n          dup2\n            /* \"#utility.yul\":8187:8199   */\n          add\n            /* \"#utility.yul\":8182:8199   */\n          swap1\n          pop\n            /* \"#utility.yul\":8157:8365   */\n          jump(tag_155)\n        tag_157:\n            /* \"#utility.yul\":8393:8399   */\n          dup7\n            /* \"#utility.yul\":8384:8391   */\n          dup4\n            /* \"#utility.yul\":8381:8400   */\n          lt\n            /* \"#utility.yul\":8378:8557   */\n          iszero\n          tag_158\n          jumpi\n            /* \"#utility.yul\":8451:8460   */\n          dup5\n            /* \"#utility.yul\":8446:8449   */\n          dup10\n            /* \"#utility.yul\":8442:8461   */\n          add\n            /* \"#utility.yul\":8436:8462   */\n          mload\n            /* \"#utility.yul\":8494:8542   */\n          tag_159\n            /* \"#utility.yul\":8536:8540   */\n          0x1f\n            /* \"#utility.yul\":8528:8534   */\n          dup10\n            /* \"#utility.yul\":8524:8541   */\n          and\n            /* \"#utility.yul\":8513:8522   */\n          dup3\n            /* \"#utility.yul\":8494:8542   */\n          tag_52\n          jump\t// in\n        tag_159:\n            /* \"#utility.yul\":8486:8492   */\n          dup4\n            /* \"#utility.yul\":8479:8543   */\n          sstore\n            /* \"#utility.yul\":8401:8557   */\n          pop\n            /* \"#utility.yul\":8378:8557   */\n        tag_158:\n            /* \"#utility.yul\":8603:8604   */\n          0x01\n            /* \"#utility.yul\":8599:8600   */\n          0x02\n            /* \"#utility.yul\":8591:8597   */\n          dup9\n            /* \"#utility.yul\":8587:8601   */\n          mul\n            /* \"#utility.yul\":8583:8605   */\n          add\n            /* \"#utility.yul\":8577:8581   */\n          dup9\n            /* \"#utility.yul\":8570:8606   */\n          sstore\n            /* \"#utility.yul\":8005:8616   */\n          pop\n          pop\n          pop\n            /* \"#utility.yul\":7968:8855   */\n        tag_150:\n          pop\n            /* \"#utility.yul\":7558:8861   */\n          pop\n          pop\n          pop\n            /* \"#utility.yul\":7466:8861   */\n          pop\n          pop\n          jump\t// out\n            /* \"#utility.yul\":8867:9047   */\n        tag_16:\n            /* \"#utility.yul\":8915:8992   */\n          0x4e487b7100000000000000000000000000000000000000000000000000000000\n            /* \"#utility.yul\":8912:8913   */\n          0x00\n            /* \"#utility.yul\":8905:8993   */\n          mstore\n            /* \"#utility.yul\":9012:9016   */\n          0x32\n            /* \"#utility.yul\":9009:9010   */\n          0x04\n            /* \"#utility.yul\":9002:9017   */\n          mstore\n            /* \"#utility.yul\":9036:9040   */\n          0x24\n            /* \"#utility.yul\":9033:9034   */\n          0x00\n            /* \"#utility.yul\":9026:9041   */\n          revert\n            /* \"Lincloud/.deps/contract/contract.sol\":5219:8701  contract user_contract... */\n        tag_19:\n          dataSize(sub_0)\n          dup1\n          dataOffset(sub_0)\n          0x00\n          codecopy\n          0x00\n          return\n        stop\n\n        sub_0: assembly {\n                /* \"Lincloud/.deps/contract/contract.sol\":5219:8701  contract user_contract... */\n              mstore(0x40, 0x80)\n              callvalue\n              dup1\n              iszero\n              tag_1\n              jumpi\n              0x00\n              dup1\n              revert\n            tag_1:\n              pop\n              jumpi(tag_2, lt(calldatasize, 0x04))\n              shr(0xe0, calldataload(0x00))\n              dup1\n              0x84731d6f\n              gt\n              tag_18\n              jumpi\n              dup1\n              0xac3ef22d\n              gt\n              tag_19\n              jumpi\n              dup1\n              0xac3ef22d\n              eq\n              tag_14\n              jumpi\n              dup1\n              0xb74513c1\n              eq\n              tag_15\n              jumpi\n              dup1\n              0xe5a72d5b\n              eq\n              tag_16\n              jumpi\n              dup1\n              0xfc68b3ed\n              eq\n              tag_17\n              jumpi\n              jump(tag_2)\n            tag_19:\n              dup1\n              0x84731d6f\n              eq\n              tag_10\n              jumpi\n              dup1\n              0x8da5cb5b\n              eq\n              tag_11\n              jumpi\n              dup1\n              0x904c6094\n              eq\n              tag_12\n              jumpi\n              dup1\n              0xabcc7a65\n              eq\n              tag_13\n              jumpi\n              jump(tag_2)\n            tag_18:\n              dup1\n              0x42be8cb5\n              gt\n              tag_20\n              jumpi\n              dup1\n              0x42be8cb5\n              eq\n              tag_6\n              jumpi\n              dup1\n              0x499ba0aa\n              eq\n              tag_7\n              jumpi\n              dup1\n              0x58975919\n              eq\n              tag_8\n              jumpi\n              dup1\n              0x65a6bb29\n              eq\n              tag_9\n              jumpi\n              jump(tag_2)\n            tag_20:\n              dup1\n              0x3121924d\n              eq\n              tag_3\n              jumpi\n              dup1\n              0x35254bcd\n              eq\n              tag_4\n              jumpi\n              dup1\n              0x38fcbc01\n              eq\n              tag_5\n              jumpi\n            tag_2:\n              0x00\n              dup1\n              revert\n                /* \"Lincloud/.deps/contract/contract.sol\":6951:7334  function setRecipientTimeStamp(uint256 recipientId, string memory timestamp) external {... */\n            tag_3:\n              tag_21\n              0x04\n              dup1\n              calldatasize\n              sub\n              dup2\n              add\n              swap1\n              tag_22\n              swap2\n              swap1\n              tag_23\n              jump\t// in\n            tag_22:\n              tag_24\n              jump\t// in\n            tag_21:\n              stop\n                /* \"Lincloud/.deps/contract/contract.sol\":7811:8029  function closeUserContract() external {... */\n            tag_4:\n              tag_25\n              tag_26\n              jump\t// in\n            tag_25:\n              stop\n                /* \"Lincloud/.deps/contract/contract.sol\":7342:7803  function setRecipientResponse(uint256 recipientId, bool isAccepted, bool isTimeExpired) external {... */\n            tag_5:\n              tag_27\n              0x04\n              dup1\n              calldatasize\n              sub\n              dup2\n              add\n              swap1\n              tag_28\n              swap2\n              swap1\n              tag_29\n              jump\t// in\n            tag_28:\n              tag_30\n              jump\t// in\n            tag_27:\n              stop\n                /* \"Lincloud/.deps/contract/contract.sol\":5546:5574  Oracle[] public oracles_list */\n            tag_6:\n              tag_31\n              0x04\n              dup1\n              calldatasize\n              sub\n              dup2\n              add\n              swap1\n              tag_32\n              swap2\n              swap1\n              tag_33\n              jump\t// in\n            tag_32:\n              tag_34\n              jump\t// in\n            tag_31:\n              mload(0x40)\n              tag_35\n              swap2\n              swap1\n              tag_36\n              jump\t// in\n            tag_35:\n              mload(0x40)\n              dup1\n              swap2\n              sub\n              swap1\n              return\n                /* \"Lincloud/.deps/contract/contract.sol\":5505:5539  Recipient[] public recipients_list */\n            tag_7:\n              tag_37\n              0x04\n              dup1\n              calldatasize\n              sub\n              dup2\n              add\n              swap1\n              tag_38\n              swap2\n              swap1\n              tag_33\n              jump\t// in\n            tag_38:\n              tag_39\n              jump\t// in\n            tag_37:\n              mload(0x40)\n              tag_40\n              swap5\n              swap4\n              swap3\n              swap2\n              swap1\n              tag_41\n              jump\t// in\n            tag_40:\n              mload(0x40)\n              dup1\n              swap2\n              sub\n              swap1\n              return\n                /* \"Lincloud/.deps/contract/contract.sol\":5277:5298  uint256 public userId */\n            tag_8:\n              tag_42\n              tag_43\n              jump\t// in\n            tag_42:\n              mload(0x40)\n              tag_44\n              swap2\n              swap1\n              tag_36\n              jump\t// in\n            tag_44:\n              mload(0x40)\n              dup1\n              swap2\n              sub\n              swap1\n              return\n                /* \"Lincloud/.deps/contract/contract.sol\":8396:8698  function getAllOracles() public view returns (uint256[] memory){... */\n            tag_9:\n              tag_45\n              tag_46\n              jump\t// in\n            tag_45:\n              mload(0x40)\n              tag_47\n              swap2\n              swap1\n              tag_48\n              jump\t// in\n            tag_47:\n              mload(0x40)\n              dup1\n              swap2\n              sub\n              swap1\n              return\n                /* \"Lincloud/.deps/contract/contract.sol\":5463:5498  user_state public actual_user_state */\n            tag_10:\n              tag_49\n              tag_50\n              jump\t// in\n            tag_49:\n              mload(0x40)\n              tag_51\n              swap2\n              swap1\n              tag_52\n              jump\t// in\n            tag_51:\n              mload(0x40)\n              dup1\n              swap2\n              sub\n              swap1\n              return\n                /* \"Lincloud/.deps/contract/contract.sol\":5250:5270  address public owner */\n            tag_11:\n              tag_53\n              tag_54\n              jump\t// in\n            tag_53:\n              mload(0x40)\n              tag_55\n              swap2\n              swap1\n              tag_56\n              jump\t// in\n            tag_55:\n              mload(0x40)\n              dup1\n              swap2\n              sub\n              swap1\n              return\n                /* \"Lincloud/.deps/contract/contract.sol\":5305:5331  string public contractHash */\n            tag_12:\n              tag_57\n              tag_58\n              jump\t// in\n            tag_57:\n              mload(0x40)\n              tag_59\n              swap2\n              swap1\n              tag_60\n              jump\t// in\n            tag_59:\n              mload(0x40)\n              dup1\n              swap2\n              sub\n              swap1\n              return\n                /* \"Lincloud/.deps/contract/contract.sol\":5338:5366  bool public isContractClosed */\n            tag_13:\n              tag_61\n              tag_62\n              jump\t// in\n            tag_61:\n              mload(0x40)\n              tag_63\n              swap2\n              swap1\n              tag_64\n              jump\t// in\n            tag_63:\n              mload(0x40)\n              dup1\n              swap2\n              sub\n              swap1\n              return\n                /* \"Lincloud/.deps/contract/contract.sol\":6680:6943  function setUserStateToDeceased() external {... */\n            tag_14:\n              tag_65\n              tag_66\n              jump\t// in\n            tag_65:\n              stop\n                /* \"Lincloud/.deps/contract/contract.sol\":8065:8388  function getAllRecipients() public view returns (uint256[] memory){... */\n            tag_15:\n              tag_67\n              tag_68\n              jump\t// in\n            tag_67:\n              mload(0x40)\n              tag_69\n              swap2\n              swap1\n              tag_48\n              jump\t// in\n            tag_69:\n              mload(0x40)\n              dup1\n              swap2\n              sub\n              swap1\n              return\n                /* \"Lincloud/.deps/contract/contract.sol\":6427:6672  function addOracle(uint256 oracleId) external { ... */\n            tag_16:\n              tag_70\n              0x04\n              dup1\n              calldatasize\n              sub\n              dup2\n              add\n              swap1\n              tag_71\n              swap2\n              swap1\n              tag_33\n              jump\t// in\n            tag_71:\n              tag_72\n              jump\t// in\n            tag_70:\n              stop\n                /* \"Lincloud/.deps/contract/contract.sol\":6147:6419  function addRecipient(uint256 recipientId) external { ... */\n            tag_17:\n              tag_73\n              0x04\n              dup1\n              calldatasize\n              sub\n              dup2\n              add\n              swap1\n              tag_74\n              swap2\n              swap1\n              tag_33\n              jump\t// in\n            tag_74:\n              tag_75\n              jump\t// in\n            tag_73:\n              stop\n                /* \"Lincloud/.deps/contract/contract.sol\":6951:7334  function setRecipientTimeStamp(uint256 recipientId, string memory timestamp) external {... */\n            tag_24:\n                /* \"Lincloud/.deps/contract/contract.sol\":7076:7081  false */\n              0x00\n                /* \"Lincloud/.deps/contract/contract.sol\":7056:7081  isContractClosed == false */\n              iszero\n              iszero\n                /* \"Lincloud/.deps/contract/contract.sol\":7056:7072  isContractClosed */\n              0x03\n              0x00\n              swap1\n              sload\n              swap1\n              0x0100\n              exp\n              swap1\n              div\n              0xff\n              and\n                /* \"Lincloud/.deps/contract/contract.sol\":7056:7081  isContractClosed == false */\n              iszero\n              iszero\n              eq\n                /* \"Lincloud/.deps/contract/contract.sol\":7048:7110  require(isContractClosed == false, \"Smart Contract is closed\") */\n              tag_77\n              jumpi\n              mload(0x40)\n              0x08c379a000000000000000000000000000000000000000000000000000000000\n              dup2\n              mstore\n              0x04\n              add\n              tag_78\n              swap1\n              tag_79\n              jump\t// in\n            tag_78:\n              mload(0x40)\n              dup1\n              swap2\n              sub\n              swap1\n              revert\n            tag_77:\n                /* \"Lincloud/.deps/contract/contract.sol\":7126:7135  uint256 i */\n              0x00\n                /* \"Lincloud/.deps/contract/contract.sol\":7121:7327  for (uint256 i = 0; i < recipients_list.length; i++) {... */\n            tag_80:\n                /* \"Lincloud/.deps/contract/contract.sol\":7145:7160  recipients_list */\n              0x04\n                /* \"Lincloud/.deps/contract/contract.sol\":7145:7167  recipients_list.length */\n              dup1\n              sload\n              swap1\n              pop\n                /* \"Lincloud/.deps/contract/contract.sol\":7141:7142  i */\n              dup2\n                /* \"Lincloud/.deps/contract/contract.sol\":7141:7167  i < recipients_list.length */\n              lt\n                /* \"Lincloud/.deps/contract/contract.sol\":7121:7327  for (uint256 i = 0; i < recipients_list.length; i++) {... */\n              iszero\n              tag_81\n              jumpi\n                /* \"Lincloud/.deps/contract/contract.sol\":7228:7239  recipientId */\n              dup3\n                /* \"Lincloud/.deps/contract/contract.sol\":7193:7208  recipients_list */\n              0x04\n                /* \"Lincloud/.deps/contract/contract.sol\":7209:7210  i */\n              dup3\n                /* \"Lincloud/.deps/contract/contract.sol\":7193:7211  recipients_list[i] */\n              dup2\n              sload\n              dup2\n              lt\n              tag_83\n              jumpi\n              tag_84\n              tag_85\n              jump\t// in\n            tag_84:\n            tag_83:\n              swap1\n              0x00\n              mstore\n              keccak256(0x00, 0x20)\n              swap1\n              0x03\n              mul\n              add\n                /* \"Lincloud/.deps/contract/contract.sol\":7193:7224  recipients_list[i].id_recipient */\n              0x00\n              add\n              sload\n                /* \"Lincloud/.deps/contract/contract.sol\":7193:7239  recipients_list[i].id_recipient == recipientId */\n              sub\n                /* \"Lincloud/.deps/contract/contract.sol\":7189:7316  if (recipients_list[i].id_recipient == recipientId) {... */\n              tag_87\n              jumpi\n                /* \"Lincloud/.deps/contract/contract.sol\":7291:7300  timestamp */\n              dup2\n                /* \"Lincloud/.deps/contract/contract.sol\":7260:7275  recipients_list */\n              0x04\n                /* \"Lincloud/.deps/contract/contract.sol\":7276:7277  i */\n              dup3\n                /* \"Lincloud/.deps/contract/contract.sol\":7260:7278  recipients_list[i] */\n              dup2\n              sload\n              dup2\n              lt\n              tag_88\n              jumpi\n              tag_89\n              tag_85\n              jump\t// in\n            tag_89:\n            tag_88:\n              swap1\n              0x00\n              mstore\n              keccak256(0x00, 0x20)\n              swap1\n              0x03\n              mul\n              add\n                /* \"Lincloud/.deps/contract/contract.sol\":7260:7288  recipients_list[i].timestamp */\n              0x01\n              add\n                /* \"Lincloud/.deps/contract/contract.sol\":7260:7300  recipients_list[i].timestamp = timestamp */\n              swap1\n              dup2\n              tag_91\n              swap2\n              swap1\n              tag_92\n              jump\t// in\n            tag_91:\n              pop\n                /* \"Lincloud/.deps/contract/contract.sol\":7189:7316  if (recipients_list[i].id_recipient == recipientId) {... */\n            tag_87:\n                /* \"Lincloud/.deps/contract/contract.sol\":7169:7172  i++ */\n              dup1\n              dup1\n              0x01\n              add\n              swap2\n              pop\n              pop\n                /* \"Lincloud/.deps/contract/contract.sol\":7121:7327  for (uint256 i = 0; i < recipients_list.length; i++) {... */\n              jump(tag_80)\n            tag_81:\n              pop\n                /* \"Lincloud/.deps/contract/contract.sol\":6951:7334  function setRecipientTimeStamp(uint256 recipientId, string memory timestamp) external {... */\n              pop\n              pop\n              jump\t// out\n                /* \"Lincloud/.deps/contract/contract.sol\":7811:8029  function closeUserContract() external {... */\n            tag_26:\n                /* \"Lincloud/.deps/contract/contract.sol\":7888:7893  false */\n              0x00\n                /* \"Lincloud/.deps/contract/contract.sol\":7868:7893  isContractClosed == false */\n              iszero\n              iszero\n                /* \"Lincloud/.deps/contract/contract.sol\":7868:7884  isContractClosed */\n              0x03\n              0x00\n              swap1\n              sload\n              swap1\n              0x0100\n              exp\n              swap1\n              div\n              0xff\n              and\n                /* \"Lincloud/.deps/contract/contract.sol\":7868:7893  isContractClosed == false */\n              iszero\n              iszero\n              eq\n                /* \"Lincloud/.deps/contract/contract.sol\":7860:7922  require(isContractClosed == false, \"Smart Contract is closed\") */\n              tag_94\n              jumpi\n              mload(0x40)\n              0x08c379a000000000000000000000000000000000000000000000000000000000\n              dup2\n              mstore\n              0x04\n              add\n              tag_95\n              swap1\n              tag_79\n              jump\t// in\n            tag_95:\n              mload(0x40)\n              dup1\n              swap2\n              sub\n              swap1\n              revert\n            tag_94:\n                /* \"Lincloud/.deps/contract/contract.sol\":7952:7956  true */\n              0x01\n                /* \"Lincloud/.deps/contract/contract.sol\":7933:7949  isContractClosed */\n              0x03\n              0x00\n                /* \"Lincloud/.deps/contract/contract.sol\":7933:7956  isContractClosed = true */\n              0x0100\n              exp\n              dup2\n              sload\n              dup2\n              0xff\n              mul\n              not\n              and\n              swap1\n              dup4\n              iszero\n              iszero\n              mul\n              or\n              swap1\n              sstore\n              pop\n                /* \"Lincloud/.deps/contract/contract.sol\":7811:8029  function closeUserContract() external {... */\n              jump\t// out\n                /* \"Lincloud/.deps/contract/contract.sol\":7342:7803  function setRecipientResponse(uint256 recipientId, bool isAccepted, bool isTimeExpired) external {... */\n            tag_30:\n                /* \"Lincloud/.deps/contract/contract.sol\":7478:7483  false */\n              0x00\n                /* \"Lincloud/.deps/contract/contract.sol\":7458:7483  isContractClosed == false */\n              iszero\n              iszero\n                /* \"Lincloud/.deps/contract/contract.sol\":7458:7474  isContractClosed */\n              0x03\n              0x00\n              swap1\n              sload\n              swap1\n              0x0100\n              exp\n              swap1\n              div\n              0xff\n              and\n                /* \"Lincloud/.deps/contract/contract.sol\":7458:7483  isContractClosed == false */\n              iszero\n              iszero\n              eq\n                /* \"Lincloud/.deps/contract/contract.sol\":7450:7512  require(isContractClosed == false, \"Smart Contract is closed\") */\n              tag_97\n              jumpi\n              mload(0x40)\n              0x08c379a000000000000000000000000000000000000000000000000000000000\n              dup2\n              mstore\n              0x04\n              add\n              tag_98\n              swap1\n              tag_79\n              jump\t// in\n            tag_98:\n              mload(0x40)\n              dup1\n              swap2\n              sub\n              swap1\n              revert\n            tag_97:\n                /* \"Lincloud/.deps/contract/contract.sol\":7528:7537  uint256 i */\n              0x00\n                /* \"Lincloud/.deps/contract/contract.sol\":7523:7796  for (uint256 i = 0; i < recipients_list.length; i++) {... */\n            tag_99:\n                /* \"Lincloud/.deps/contract/contract.sol\":7547:7562  recipients_list */\n              0x04\n                /* \"Lincloud/.deps/contract/contract.sol\":7547:7569  recipients_list.length */\n              dup1\n              sload\n              swap1\n              pop\n                /* \"Lincloud/.deps/contract/contract.sol\":7543:7544  i */\n              dup2\n                /* \"Lincloud/.deps/contract/contract.sol\":7543:7569  i < recipients_list.length */\n              lt\n                /* \"Lincloud/.deps/contract/contract.sol\":7523:7796  for (uint256 i = 0; i < recipients_list.length; i++) {... */\n              iszero\n              tag_100\n              jumpi\n                /* \"Lincloud/.deps/contract/contract.sol\":7630:7641  recipientId */\n              dup4\n                /* \"Lincloud/.deps/contract/contract.sol\":7595:7610  recipients_list */\n              0x04\n                /* \"Lincloud/.deps/contract/contract.sol\":7611:7612  i */\n              dup3\n                /* \"Lincloud/.deps/contract/contract.sol\":7595:7613  recipients_list[i] */\n              dup2\n              sload\n              dup2\n              lt\n              tag_102\n              jumpi\n              tag_103\n              tag_85\n              jump\t// in\n            tag_103:\n            tag_102:\n              swap1\n              0x00\n              mstore\n              keccak256(0x00, 0x20)\n              swap1\n              0x03\n              mul\n              add\n                /* \"Lincloud/.deps/contract/contract.sol\":7595:7626  recipients_list[i].id_recipient */\n              0x00\n              add\n              sload\n                /* \"Lincloud/.deps/contract/contract.sol\":7595:7641  recipients_list[i].id_recipient == recipientId */\n              sub\n                /* \"Lincloud/.deps/contract/contract.sol\":7591:7785  if (recipients_list[i].id_recipient == recipientId) {... */\n              tag_105\n              jumpi\n                /* \"Lincloud/.deps/contract/contract.sol\":7692:7702  isAccepted */\n              dup3\n                /* \"Lincloud/.deps/contract/contract.sol\":7662:7677  recipients_list */\n              0x04\n                /* \"Lincloud/.deps/contract/contract.sol\":7678:7679  i */\n              dup3\n                /* \"Lincloud/.deps/contract/contract.sol\":7662:7680  recipients_list[i] */\n              dup2\n              sload\n              dup2\n              lt\n              tag_106\n              jumpi\n              tag_107\n              tag_85\n              jump\t// in\n            tag_107:\n            tag_106:\n              swap1\n              0x00\n              mstore\n              keccak256(0x00, 0x20)\n              swap1\n              0x03\n              mul\n              add\n                /* \"Lincloud/.deps/contract/contract.sol\":7662:7689  recipients_list[i].response */\n              0x02\n              add\n              0x00\n                /* \"Lincloud/.deps/contract/contract.sol\":7662:7702  recipients_list[i].response = isAccepted */\n              0x0100\n              exp\n              dup2\n              sload\n              dup2\n              0xff\n              mul\n              not\n              and\n              swap1\n              dup4\n              iszero\n              iszero\n              mul\n              or\n              swap1\n              sstore\n              pop\n                /* \"Lincloud/.deps/contract/contract.sol\":7756:7769  isTimeExpired */\n              dup2\n                /* \"Lincloud/.deps/contract/contract.sol\":7721:7736  recipients_list */\n              0x04\n                /* \"Lincloud/.deps/contract/contract.sol\":7737:7738  i */\n              dup3\n                /* \"Lincloud/.deps/contract/contract.sol\":7721:7739  recipients_list[i] */\n              dup2\n              sload\n              dup2\n              lt\n              tag_109\n              jumpi\n              tag_110\n              tag_85\n              jump\t// in\n            tag_110:\n            tag_109:\n              swap1\n              0x00\n              mstore\n              keccak256(0x00, 0x20)\n              swap1\n              0x03\n              mul\n              add\n                /* \"Lincloud/.deps/contract/contract.sol\":7721:7753  recipients_list[i].isTimeExpired */\n              0x02\n              add\n              0x01\n                /* \"Lincloud/.deps/contract/contract.sol\":7721:7769  recipients_list[i].isTimeExpired = isTimeExpired */\n              0x0100\n              exp\n              dup2\n              sload\n              dup2\n              0xff\n              mul\n              not\n              and\n              swap1\n              dup4\n              iszero\n              iszero\n              mul\n              or\n              swap1\n              sstore\n              pop\n                /* \"Lincloud/.deps/contract/contract.sol\":7591:7785  if (recipients_list[i].id_recipient == recipientId) {... */\n            tag_105:\n                /* \"Lincloud/.deps/contract/contract.sol\":7571:7574  i++ */\n              dup1\n              dup1\n              0x01\n              add\n              swap2\n              pop\n              pop\n                /* \"Lincloud/.deps/contract/contract.sol\":7523:7796  for (uint256 i = 0; i < recipients_list.length; i++) {... */\n              jump(tag_99)\n            tag_100:\n              pop\n                /* \"Lincloud/.deps/contract/contract.sol\":7342:7803  function setRecipientResponse(uint256 recipientId, bool isAccepted, bool isTimeExpired) external {... */\n              pop\n              pop\n              pop\n              jump\t// out\n                /* \"Lincloud/.deps/contract/contract.sol\":5546:5574  Oracle[] public oracles_list */\n            tag_34:\n              0x05\n              dup2\n              dup2\n              sload\n              dup2\n              lt\n              tag_112\n              jumpi\n              0x00\n              dup1\n              revert\n            tag_112:\n              swap1\n              0x00\n              mstore\n              keccak256(0x00, 0x20)\n              add\n              0x00\n              swap2\n              pop\n              swap1\n              pop\n              dup1\n              0x00\n              add\n              sload\n              swap1\n              pop\n              dup2\n              jump\t// out\n                /* \"Lincloud/.deps/contract/contract.sol\":5505:5539  Recipient[] public recipients_list */\n            tag_39:\n              0x04\n              dup2\n              dup2\n              sload\n              dup2\n              lt\n              tag_114\n              jumpi\n              0x00\n              dup1\n              revert\n            tag_114:\n              swap1\n              0x00\n              mstore\n              keccak256(0x00, 0x20)\n              swap1\n              0x03\n              mul\n              add\n              0x00\n              swap2\n              pop\n              swap1\n              pop\n              dup1\n              0x00\n              add\n              sload\n              swap1\n              dup1\n              0x01\n              add\n              dup1\n              sload\n              tag_116\n              swap1\n              tag_117\n              jump\t// in\n            tag_116:\n              dup1\n              0x1f\n              add\n              0x20\n              dup1\n              swap2\n              div\n              mul\n              0x20\n              add\n              mload(0x40)\n              swap1\n              dup2\n              add\n              0x40\n              mstore\n              dup1\n              swap3\n              swap2\n              swap1\n              dup2\n              dup2\n              mstore\n              0x20\n              add\n              dup3\n              dup1\n              sload\n              tag_118\n              swap1\n              tag_117\n              jump\t// in\n            tag_118:\n              dup1\n              iszero\n              tag_119\n              jumpi\n              dup1\n              0x1f\n              lt\n              tag_120\n              jumpi\n              0x0100\n              dup1\n              dup4\n              sload\n              div\n              mul\n              dup4\n              mstore\n              swap2\n              0x20\n              add\n              swap2\n              jump(tag_119)\n            tag_120:\n              dup3\n              add\n              swap2\n              swap1\n              0x00\n              mstore\n              keccak256(0x00, 0x20)\n              swap1\n            tag_121:\n              dup2\n              sload\n              dup2\n              mstore\n              swap1\n              0x01\n              add\n              swap1\n              0x20\n              add\n              dup1\n              dup4\n              gt\n              tag_121\n              jumpi\n              dup3\n              swap1\n              sub\n              0x1f\n              and\n              dup3\n              add\n              swap2\n            tag_119:\n              pop\n              pop\n              pop\n              pop\n              pop\n              swap1\n              dup1\n              0x02\n              add\n              0x00\n              swap1\n              sload\n              swap1\n              0x0100\n              exp\n              swap1\n              div\n              0xff\n              and\n              swap1\n              dup1\n              0x02\n              add\n              0x01\n              swap1\n              sload\n              swap1\n              0x0100\n              exp\n              swap1\n              div\n              0xff\n              and\n              swap1\n              pop\n              dup5\n              jump\t// out\n                /* \"Lincloud/.deps/contract/contract.sol\":5277:5298  uint256 public userId */\n            tag_43:\n              sload(0x01)\n              dup2\n              jump\t// out\n                /* \"Lincloud/.deps/contract/contract.sol\":8396:8698  function getAllOracles() public view returns (uint256[] memory){... */\n            tag_46:\n                /* \"Lincloud/.deps/contract/contract.sol\":8442:8458  uint256[] memory */\n              0x60\n                /* \"Lincloud/.deps/contract/contract.sol\":8470:8497  uint256[] memory oraclesIds */\n              0x00\n                /* \"Lincloud/.deps/contract/contract.sol\":8514:8526  oracles_list */\n              0x05\n                /* \"Lincloud/.deps/contract/contract.sol\":8514:8533  oracles_list.length */\n              dup1\n              sload\n              swap1\n              pop\n                /* \"Lincloud/.deps/contract/contract.sol\":8500:8534  new uint256[](oracles_list.length) */\n              0xffffffffffffffff\n              dup2\n              gt\n              iszero\n              tag_123\n              jumpi\n              tag_124\n              tag_125\n              jump\t// in\n            tag_124:\n            tag_123:\n              mload(0x40)\n              swap1\n              dup1\n              dup3\n              mstore\n              dup1\n              0x20\n              mul\n              0x20\n              add\n              dup3\n              add\n              0x40\n              mstore\n              dup1\n              iszero\n              tag_126\n              jumpi\n              dup2\n              0x20\n              add\n              0x20\n              dup3\n              mul\n              dup1\n              calldatasize\n              dup4\n              calldatacopy\n              dup1\n              dup3\n              add\n              swap2\n              pop\n              pop\n              swap1\n              pop\n            tag_126:\n              pop\n                /* \"Lincloud/.deps/contract/contract.sol\":8470:8534  uint256[] memory oraclesIds = new uint256[](oracles_list.length) */\n              swap1\n              pop\n                /* \"Lincloud/.deps/contract/contract.sol\":8550:8559  uint256 i */\n              0x00\n                /* \"Lincloud/.deps/contract/contract.sol\":8545:8663  for (uint256 i = 0; i < oracles_list.length; i++) {... */\n            tag_127:\n                /* \"Lincloud/.deps/contract/contract.sol\":8569:8581  oracles_list */\n              0x05\n                /* \"Lincloud/.deps/contract/contract.sol\":8569:8588  oracles_list.length */\n              dup1\n              sload\n              swap1\n              pop\n                /* \"Lincloud/.deps/contract/contract.sol\":8565:8566  i */\n              dup2\n                /* \"Lincloud/.deps/contract/contract.sol\":8565:8588  i < oracles_list.length */\n              lt\n                /* \"Lincloud/.deps/contract/contract.sol\":8545:8663  for (uint256 i = 0; i < oracles_list.length; i++) {... */\n              iszero\n              tag_128\n              jumpi\n                /* \"Lincloud/.deps/contract/contract.sol\":8626:8638  oracles_list */\n              0x05\n                /* \"Lincloud/.deps/contract/contract.sol\":8639:8640  i */\n              dup2\n                /* \"Lincloud/.deps/contract/contract.sol\":8626:8641  oracles_list[i] */\n              dup2\n              sload\n              dup2\n              lt\n              tag_130\n              jumpi\n              tag_131\n              tag_85\n              jump\t// in\n            tag_131:\n            tag_130:\n              swap1\n              0x00\n              mstore\n              keccak256(0x00, 0x20)\n              add\n                /* \"Lincloud/.deps/contract/contract.sol\":8626:8651  oracles_list[i].id_oracle */\n              0x00\n              add\n              sload\n                /* \"Lincloud/.deps/contract/contract.sol\":8610:8620  oraclesIds */\n              dup3\n                /* \"Lincloud/.deps/contract/contract.sol\":8621:8622  i */\n              dup3\n                /* \"Lincloud/.deps/contract/contract.sol\":8610:8623  oraclesIds[i] */\n              dup2\n              mload\n              dup2\n              lt\n              tag_133\n              jumpi\n              tag_134\n              tag_85\n              jump\t// in\n            tag_134:\n            tag_133:\n              0x20\n              mul\n              0x20\n              add\n              add\n                /* \"Lincloud/.deps/contract/contract.sol\":8610:8651  oraclesIds[i] = oracles_list[i].id_oracle */\n              dup2\n              dup2\n              mstore\n              pop\n              pop\n                /* \"Lincloud/.deps/contract/contract.sol\":8590:8593  i++ */\n              dup1\n              dup1\n              0x01\n              add\n              swap2\n              pop\n              pop\n                /* \"Lincloud/.deps/contract/contract.sol\":8545:8663  for (uint256 i = 0; i < oracles_list.length; i++) {... */\n              jump(tag_127)\n            tag_128:\n              pop\n                /* \"Lincloud/.deps/contract/contract.sol\":8680:8690  oraclesIds */\n              dup1\n                /* \"Lincloud/.deps/contract/contract.sol\":8673:8690  return oraclesIds */\n              swap2\n              pop\n              pop\n                /* \"Lincloud/.deps/contract/contract.sol\":8396:8698  function getAllOracles() public view returns (uint256[] memory){... */\n              swap1\n              jump\t// out\n                /* \"Lincloud/.deps/contract/contract.sol\":5463:5498  user_state public actual_user_state */\n            tag_50:\n              0x03\n              0x01\n              swap1\n              sload\n              swap1\n              0x0100\n              exp\n              swap1\n              div\n              0xff\n              and\n              dup2\n              jump\t// out\n                /* \"Lincloud/.deps/contract/contract.sol\":5250:5270  address public owner */\n            tag_54:\n              0x00\n              dup1\n              sload\n              swap1\n              0x0100\n              exp\n              swap1\n              div\n              0xffffffffffffffffffffffffffffffffffffffff\n              and\n              dup2\n              jump\t// out\n                /* \"Lincloud/.deps/contract/contract.sol\":5305:5331  string public contractHash */\n            tag_58:\n              0x02\n              dup1\n              sload\n              tag_135\n              swap1\n              tag_117\n              jump\t// in\n            tag_135:\n              dup1\n              0x1f\n              add\n              0x20\n              dup1\n              swap2\n              div\n              mul\n              0x20\n              add\n              mload(0x40)\n              swap1\n              dup2\n              add\n              0x40\n              mstore\n              dup1\n              swap3\n              swap2\n              swap1\n              dup2\n              dup2\n              mstore\n              0x20\n              add\n              dup3\n              dup1\n              sload\n              tag_136\n              swap1\n              tag_117\n              jump\t// in\n            tag_136:\n              dup1\n              iszero\n              tag_137\n              jumpi\n              dup1\n              0x1f\n              lt\n              tag_138\n              jumpi\n              0x0100\n              dup1\n              dup4\n              sload\n              div\n              mul\n              dup4\n              mstore\n              swap2\n              0x20\n              add\n              swap2\n              jump(tag_137)\n            tag_138:\n              dup3\n              add\n              swap2\n              swap1\n              0x00\n              mstore\n              keccak256(0x00, 0x20)\n              swap1\n            tag_139:\n              dup2\n              sload\n              dup2\n              mstore\n              swap1\n              0x01\n              add\n              swap1\n              0x20\n              add\n              dup1\n              dup4\n              gt\n              tag_139\n              jumpi\n              dup3\n              swap1\n              sub\n              0x1f\n              and\n              dup3\n              add\n              swap2\n            tag_137:\n              pop\n              pop\n              pop\n              pop\n              pop\n              dup2\n              jump\t// out\n                /* \"Lincloud/.deps/contract/contract.sol\":5338:5366  bool public isContractClosed */\n            tag_62:\n              0x03\n              0x00\n              swap1\n              sload\n              swap1\n              0x0100\n              exp\n              swap1\n              div\n              0xff\n              and\n              dup2\n              jump\t// out\n                /* \"Lincloud/.deps/contract/contract.sol\":6680:6943  function setUserStateToDeceased() external {... */\n            tag_66:\n                /* \"Lincloud/.deps/contract/contract.sol\":6763:6779  user_state.alive */\n              0x01\n                /* \"Lincloud/.deps/contract/contract.sol\":6742:6779  actual_user_state == user_state.alive */\n              dup1\n              dup2\n              gt\n              iszero\n              tag_141\n              jumpi\n              tag_142\n              tag_143\n              jump\t// in\n            tag_142:\n            tag_141:\n                /* \"Lincloud/.deps/contract/contract.sol\":6742:6759  actual_user_state */\n              0x03\n              0x01\n              swap1\n              sload\n              swap1\n              0x0100\n              exp\n              swap1\n              div\n              0xff\n              and\n                /* \"Lincloud/.deps/contract/contract.sol\":6742:6779  actual_user_state == user_state.alive */\n              0x01\n              dup2\n              gt\n              iszero\n              tag_144\n              jumpi\n              tag_145\n              tag_143\n              jump\t// in\n            tag_145:\n            tag_144:\n              eq\n                /* \"Lincloud/.deps/contract/contract.sol\":6734:6812  require(actual_user_state == user_state.alive, \"User deceased is already set\") */\n              tag_146\n              jumpi\n              mload(0x40)\n              0x08c379a000000000000000000000000000000000000000000000000000000000\n              dup2\n              mstore\n              0x04\n              add\n              tag_147\n              swap1\n              tag_148\n              jump\t// in\n            tag_147:\n              mload(0x40)\n              dup1\n              swap2\n              sub\n              swap1\n              revert\n            tag_146:\n                /* \"Lincloud/.deps/contract/contract.sol\":6851:6856  false */\n              0x00\n                /* \"Lincloud/.deps/contract/contract.sol\":6831:6856  isContractClosed == false */\n              iszero\n              iszero\n                /* \"Lincloud/.deps/contract/contract.sol\":6831:6847  isContractClosed */\n              0x03\n              0x00\n              swap1\n              sload\n              swap1\n              0x0100\n              exp\n              swap1\n              div\n              0xff\n              and\n                /* \"Lincloud/.deps/contract/contract.sol\":6831:6856  isContractClosed == false */\n              iszero\n              iszero\n              eq\n                /* \"Lincloud/.deps/contract/contract.sol\":6823:6885  require(isContractClosed == false, \"Smart Contract is closed\") */\n              tag_149\n              jumpi\n              mload(0x40)\n              0x08c379a000000000000000000000000000000000000000000000000000000000\n              dup2\n              mstore\n              0x04\n              add\n              tag_150\n              swap1\n              tag_79\n              jump\t// in\n            tag_150:\n              mload(0x40)\n              dup1\n              swap2\n              sub\n              swap1\n              revert\n            tag_149:\n                /* \"Lincloud/.deps/contract/contract.sol\":6916:6935  user_state.deceased */\n              0x00\n                /* \"Lincloud/.deps/contract/contract.sol\":6896:6913  actual_user_state */\n              0x03\n              0x01\n                /* \"Lincloud/.deps/contract/contract.sol\":6896:6935  actual_user_state = user_state.deceased */\n              0x0100\n              exp\n              dup2\n              sload\n              dup2\n              0xff\n              mul\n              not\n              and\n              swap1\n              dup4\n              0x01\n              dup2\n              gt\n              iszero\n              tag_151\n              jumpi\n              tag_152\n              tag_143\n              jump\t// in\n            tag_152:\n            tag_151:\n              mul\n              or\n              swap1\n              sstore\n              pop\n                /* \"Lincloud/.deps/contract/contract.sol\":6680:6943  function setUserStateToDeceased() external {... */\n              jump\t// out\n                /* \"Lincloud/.deps/contract/contract.sol\":8065:8388  function getAllRecipients() public view returns (uint256[] memory){... */\n            tag_68:\n                /* \"Lincloud/.deps/contract/contract.sol\":8114:8130  uint256[] memory */\n              0x60\n                /* \"Lincloud/.deps/contract/contract.sol\":8142:8171  uint256[] memory recipientIDs */\n              0x00\n                /* \"Lincloud/.deps/contract/contract.sol\":8188:8203  recipients_list */\n              0x04\n                /* \"Lincloud/.deps/contract/contract.sol\":8188:8210  recipients_list.length */\n              dup1\n              sload\n              swap1\n              pop\n                /* \"Lincloud/.deps/contract/contract.sol\":8174:8211  new uint256[](recipients_list.length) */\n              0xffffffffffffffff\n              dup2\n              gt\n              iszero\n              tag_154\n              jumpi\n              tag_155\n              tag_125\n              jump\t// in\n            tag_155:\n            tag_154:\n              mload(0x40)\n              swap1\n              dup1\n              dup3\n              mstore\n              dup1\n              0x20\n              mul\n              0x20\n              add\n              dup3\n              add\n              0x40\n              mstore\n              dup1\n              iszero\n              tag_156\n              jumpi\n              dup2\n              0x20\n              add\n              0x20\n              dup3\n              mul\n              dup1\n              calldatasize\n              dup4\n              calldatacopy\n              dup1\n              dup3\n              add\n              swap2\n              pop\n              pop\n              swap1\n              pop\n            tag_156:\n              pop\n                /* \"Lincloud/.deps/contract/contract.sol\":8142:8211  uint256[] memory recipientIDs = new uint256[](recipients_list.length) */\n              swap1\n              pop\n                /* \"Lincloud/.deps/contract/contract.sol\":8227:8236  uint256 i */\n              0x00\n                /* \"Lincloud/.deps/contract/contract.sol\":8222:8351  for (uint256 i = 0; i < recipients_list.length; i++) {... */\n            tag_157:\n                /* \"Lincloud/.deps/contract/contract.sol\":8246:8261  recipients_list */\n              0x04\n                /* \"Lincloud/.deps/contract/contract.sol\":8246:8268  recipients_list.length */\n              dup1\n              sload\n              swap1\n              pop\n                /* \"Lincloud/.deps/contract/contract.sol\":8242:8243  i */\n              dup2\n                /* \"Lincloud/.deps/contract/contract.sol\":8242:8268  i < recipients_list.length */\n              lt\n                /* \"Lincloud/.deps/contract/contract.sol\":8222:8351  for (uint256 i = 0; i < recipients_list.length; i++) {... */\n              iszero\n              tag_158\n              jumpi\n                /* \"Lincloud/.deps/contract/contract.sol\":8308:8323  recipients_list */\n              0x04\n                /* \"Lincloud/.deps/contract/contract.sol\":8324:8325  i */\n              dup2\n                /* \"Lincloud/.deps/contract/contract.sol\":8308:8326  recipients_list[i] */\n              dup2\n              sload\n              dup2\n              lt\n              tag_160\n              jumpi\n              tag_161\n              tag_85\n              jump\t// in\n            tag_161:\n            tag_160:\n              swap1\n              0x00\n              mstore\n              keccak256(0x00, 0x20)\n              swap1\n              0x03\n              mul\n              add\n                /* \"Lincloud/.deps/contract/contract.sol\":8308:8339  recipients_list[i].id_recipient */\n              0x00\n              add\n              sload\n                /* \"Lincloud/.deps/contract/contract.sol\":8290:8302  recipientIDs */\n              dup3\n                /* \"Lincloud/.deps/contract/contract.sol\":8303:8304  i */\n              dup3\n                /* \"Lincloud/.deps/contract/contract.sol\":8290:8305  recipientIDs[i] */\n              dup2\n              mload\n              dup2\n              lt\n              tag_163\n              jumpi\n              tag_164\n              tag_85\n              jump\t// in\n            tag_164:\n            tag_163:\n              0x20\n              mul\n              0x20\n              add\n              add\n                /* \"Lincloud/.deps/contract/contract.sol\":8290:8339  recipientIDs[i] = recipients_list[i].id_recipient */\n              dup2\n              dup2\n              mstore\n              pop\n              pop\n                /* \"Lincloud/.deps/contract/contract.sol\":8270:8273  i++ */\n              dup1\n              dup1\n              0x01\n              add\n              swap2\n              pop\n              pop\n                /* \"Lincloud/.deps/contract/contract.sol\":8222:8351  for (uint256 i = 0; i < recipients_list.length; i++) {... */\n              jump(tag_157)\n            tag_158:\n              pop\n                /* \"Lincloud/.deps/contract/contract.sol\":8368:8380  recipientIDs */\n              dup1\n                /* \"Lincloud/.deps/contract/contract.sol\":8361:8380  return recipientIDs */\n              swap2\n              pop\n              pop\n                /* \"Lincloud/.deps/contract/contract.sol\":8065:8388  function getAllRecipients() public view returns (uint256[] memory){... */\n              swap1\n              jump\t// out\n                /* \"Lincloud/.deps/contract/contract.sol\":6427:6672  function addOracle(uint256 oracleId) external { ... */\n            tag_72:\n                /* \"Lincloud/.deps/contract/contract.sol\":6513:6518  false */\n              0x00\n                /* \"Lincloud/.deps/contract/contract.sol\":6493:6518  isContractClosed == false */\n              iszero\n              iszero\n                /* \"Lincloud/.deps/contract/contract.sol\":6493:6509  isContractClosed */\n              0x03\n              0x00\n              swap1\n              sload\n              swap1\n              0x0100\n              exp\n              swap1\n              div\n              0xff\n              and\n                /* \"Lincloud/.deps/contract/contract.sol\":6493:6518  isContractClosed == false */\n              iszero\n              iszero\n              eq\n                /* \"Lincloud/.deps/contract/contract.sol\":6485:6547  require(isContractClosed == false, \"Smart Contract is closed\") */\n              tag_166\n              jumpi\n              mload(0x40)\n              0x08c379a000000000000000000000000000000000000000000000000000000000\n              dup2\n              mstore\n              0x04\n              add\n              tag_167\n              swap1\n              tag_79\n              jump\t// in\n            tag_167:\n              mload(0x40)\n              dup1\n              swap2\n              sub\n              swap1\n              revert\n            tag_166:\n                /* \"Lincloud/.deps/contract/contract.sol\":6558:6582  Oracle memory new_oracle */\n              tag_168\n              tag_169\n              jump\t// in\n            tag_168:\n                /* \"Lincloud/.deps/contract/contract.sol\":6616:6624  oracleId */\n              dup2\n                /* \"Lincloud/.deps/contract/contract.sol\":6593:6603  new_oracle */\n              dup2\n                /* \"Lincloud/.deps/contract/contract.sol\":6593:6613  new_oracle.id_oracle */\n              0x00\n              add\n                /* \"Lincloud/.deps/contract/contract.sol\":6593:6624  new_oracle.id_oracle = oracleId */\n              dup2\n              dup2\n              mstore\n              pop\n              pop\n                /* \"Lincloud/.deps/contract/contract.sol\":6635:6647  oracles_list */\n              0x05\n                /* \"Lincloud/.deps/contract/contract.sol\":6653:6663  new_oracle */\n              dup2\n                /* \"Lincloud/.deps/contract/contract.sol\":6635:6664  oracles_list.push(new_oracle) */\n              swap1\n              dup1\n              0x01\n              dup2\n              sload\n              add\n              dup1\n              dup3\n              sstore\n              dup1\n              swap2\n              pop\n              pop\n              0x01\n              swap1\n              sub\n              swap1\n              0x00\n              mstore\n              keccak256(0x00, 0x20)\n              add\n              0x00\n              swap1\n              swap2\n              swap1\n              swap2\n              swap1\n              swap2\n              pop\n              0x00\n              dup3\n              add\n              mload\n              dup2\n              0x00\n              add\n              sstore\n              pop\n              pop\n                /* \"Lincloud/.deps/contract/contract.sol\":6473:6672  { ... */\n              pop\n                /* \"Lincloud/.deps/contract/contract.sol\":6427:6672  function addOracle(uint256 oracleId) external { ... */\n              pop\n              jump\t// out\n                /* \"Lincloud/.deps/contract/contract.sol\":6147:6419  function addRecipient(uint256 recipientId) external { ... */\n            tag_75:\n                /* \"Lincloud/.deps/contract/contract.sol\":6239:6244  false */\n              0x00\n                /* \"Lincloud/.deps/contract/contract.sol\":6219:6244  isContractClosed == false */\n              iszero\n              iszero\n                /* \"Lincloud/.deps/contract/contract.sol\":6219:6235  isContractClosed */\n              0x03\n              0x00\n              swap1\n              sload\n              swap1\n              0x0100\n              exp\n              swap1\n              div\n              0xff\n              and\n                /* \"Lincloud/.deps/contract/contract.sol\":6219:6244  isContractClosed == false */\n              iszero\n              iszero\n              eq\n                /* \"Lincloud/.deps/contract/contract.sol\":6211:6273  require(isContractClosed == false, \"Smart Contract is closed\") */\n              tag_172\n              jumpi\n              mload(0x40)\n              0x08c379a000000000000000000000000000000000000000000000000000000000\n              dup2\n              mstore\n              0x04\n              add\n              tag_173\n              swap1\n              tag_79\n              jump\t// in\n            tag_173:\n              mload(0x40)\n              dup1\n              swap2\n              sub\n              swap1\n              revert\n            tag_172:\n                /* \"Lincloud/.deps/contract/contract.sol\":6284:6314  Recipient memory new_recipient */\n              tag_174\n              tag_175\n              jump\t// in\n            tag_174:\n                /* \"Lincloud/.deps/contract/contract.sol\":6354:6365  recipientId */\n              dup2\n                /* \"Lincloud/.deps/contract/contract.sol\":6325:6338  new_recipient */\n              dup2\n                /* \"Lincloud/.deps/contract/contract.sol\":6325:6351  new_recipient.id_recipient */\n              0x00\n              add\n                /* \"Lincloud/.deps/contract/contract.sol\":6325:6365  new_recipient.id_recipient = recipientId */\n              dup2\n              dup2\n              mstore\n              pop\n              pop\n                /* \"Lincloud/.deps/contract/contract.sol\":6376:6391  recipients_list */\n              0x04\n                /* \"Lincloud/.deps/contract/contract.sol\":6397:6410  new_recipient */\n              dup2\n                /* \"Lincloud/.deps/contract/contract.sol\":6376:6411  recipients_list.push(new_recipient) */\n              swap1\n              dup1\n              0x01\n              dup2\n              sload\n              add\n              dup1\n              dup3\n              sstore\n              dup1\n              swap2\n              pop\n              pop\n              0x01\n              swap1\n              sub\n              swap1\n              0x00\n              mstore\n              keccak256(0x00, 0x20)\n              swap1\n              0x03\n              mul\n              add\n              0x00\n              swap1\n              swap2\n              swap1\n              swap2\n              swap1\n              swap2\n              pop\n              0x00\n              dup3\n              add\n              mload\n              dup2\n              0x00\n              add\n              sstore\n              0x20\n              dup3\n              add\n              mload\n              dup2\n              0x01\n              add\n              swap1\n              dup2\n              tag_177\n              swap2\n              swap1\n              tag_92\n              jump\t// in\n            tag_177:\n              pop\n              0x40\n              dup3\n              add\n              mload\n              dup2\n              0x02\n              add\n              exp(0x0100, 0x00)\n              dup2\n              sload\n              dup2\n              0xff\n              mul\n              not\n              and\n              swap1\n              dup4\n              iszero\n              iszero\n              mul\n              or\n              swap1\n              sstore\n              pop\n              0x60\n              dup3\n              add\n              mload\n              dup2\n              0x02\n              add\n              exp(0x0100, 0x01)\n              dup2\n              sload\n              dup2\n              0xff\n              mul\n              not\n              and\n              swap1\n              dup4\n              iszero\n              iszero\n              mul\n              or\n              swap1\n              sstore\n              pop\n              pop\n              pop\n                /* \"Lincloud/.deps/contract/contract.sol\":6199:6419  { ... */\n              pop\n                /* \"Lincloud/.deps/contract/contract.sol\":6147:6419  function addRecipient(uint256 recipientId) external { ... */\n              pop\n              jump\t// out\n            tag_169:\n              mload(0x40)\n              dup1\n              0x20\n              add\n              0x40\n              mstore\n              dup1\n              0x00\n              dup2\n              mstore\n              pop\n              swap1\n              jump\t// out\n            tag_175:\n              mload(0x40)\n              dup1\n              0x80\n              add\n              0x40\n              mstore\n              dup1\n              0x00\n              dup2\n              mstore\n              0x20\n              add\n              0x60\n              dup2\n              mstore\n              0x20\n              add\n              iszero(iszero(0x00))\n              dup2\n              mstore\n              0x20\n              add\n              iszero(iszero(0x00))\n              dup2\n              mstore\n              pop\n              swap1\n              jump\t// out\n                /* \"#utility.yul\":7:82   */\n            tag_178:\n                /* \"#utility.yul\":40:46   */\n              0x00\n                /* \"#utility.yul\":73:75   */\n              0x40\n                /* \"#utility.yul\":67:76   */\n              mload\n                /* \"#utility.yul\":57:76   */\n              swap1\n              pop\n                /* \"#utility.yul\":7:82   */\n              swap1\n              jump\t// out\n                /* \"#utility.yul\":88:205   */\n            tag_179:\n                /* \"#utility.yul\":197:198   */\n              0x00\n                /* \"#utility.yul\":194:195   */\n              dup1\n                /* \"#utility.yul\":187:199   */\n              revert\n                /* \"#utility.yul\":211:328   */\n            tag_180:\n                /* \"#utility.yul\":320:321   */\n              0x00\n                /* \"#utility.yul\":317:318   */\n              dup1\n                /* \"#utility.yul\":310:322   */\n              revert\n                /* \"#utility.yul\":334:411   */\n            tag_181:\n                /* \"#utility.yul\":371:378   */\n              0x00\n                /* \"#utility.yul\":400:405   */\n              dup2\n                /* \"#utility.yul\":389:405   */\n              swap1\n              pop\n                /* \"#utility.yul\":334:411   */\n              swap2\n              swap1\n              pop\n              jump\t// out\n                /* \"#utility.yul\":417:539   */\n            tag_182:\n                /* \"#utility.yul\":490:514   */\n              tag_242\n                /* \"#utility.yul\":508:513   */\n              dup2\n                /* \"#utility.yul\":490:514   */\n              tag_181\n              jump\t// in\n            tag_242:\n                /* \"#utility.yul\":483:488   */\n              dup2\n                /* \"#utility.yul\":480:515   */\n              eq\n                /* \"#utility.yul\":470:533   */\n              tag_243\n              jumpi\n                /* \"#utility.yul\":529:530   */\n              0x00\n                /* \"#utility.yul\":526:527   */\n              dup1\n                /* \"#utility.yul\":519:531   */\n              revert\n                /* \"#utility.yul\":470:533   */\n            tag_243:\n                /* \"#utility.yul\":417:539   */\n              pop\n              jump\t// out\n                /* \"#utility.yul\":545:684   */\n            tag_183:\n                /* \"#utility.yul\":591:596   */\n              0x00\n                /* \"#utility.yul\":629:635   */\n              dup2\n                /* \"#utility.yul\":616:636   */\n              calldataload\n                /* \"#utility.yul\":607:636   */\n              swap1\n              pop\n                /* \"#utility.yul\":645:678   */\n              tag_245\n                /* \"#utility.yul\":672:677   */\n              dup2\n                /* \"#utility.yul\":645:678   */\n              tag_182\n              jump\t// in\n            tag_245:\n                /* \"#utility.yul\":545:684   */\n              swap3\n              swap2\n              pop\n              pop\n              jump\t// out\n                /* \"#utility.yul\":690:807   */\n            tag_184:\n                /* \"#utility.yul\":799:800   */\n              0x00\n                /* \"#utility.yul\":796:797   */\n              dup1\n                /* \"#utility.yul\":789:801   */\n              revert\n                /* \"#utility.yul\":813:930   */\n            tag_185:\n                /* \"#utility.yul\":922:923   */\n              0x00\n                /* \"#utility.yul\":919:920   */\n              dup1\n                /* \"#utility.yul\":912:924   */\n              revert\n                /* \"#utility.yul\":936:1038   */\n            tag_186:\n                /* \"#utility.yul\":977:983   */\n              0x00\n                /* \"#utility.yul\":1028:1030   */\n              0x1f\n                /* \"#utility.yul\":1024:1031   */\n              not\n                /* \"#utility.yul\":1019:1021   */\n              0x1f\n                /* \"#utility.yul\":1012:1017   */\n              dup4\n                /* \"#utility.yul\":1008:1022   */\n              add\n                /* \"#utility.yul\":1004:1032   */\n              and\n                /* \"#utility.yul\":994:1032   */\n              swap1\n              pop\n                /* \"#utility.yul\":936:1038   */\n              swap2\n              swap1\n              pop\n              jump\t// out\n                /* \"#utility.yul\":1044:1224   */\n            tag_125:\n                /* \"#utility.yul\":1092:1169   */\n              0x4e487b7100000000000000000000000000000000000000000000000000000000\n                /* \"#utility.yul\":1089:1090   */\n              0x00\n                /* \"#utility.yul\":1082:1170   */\n              mstore\n                /* \"#utility.yul\":1189:1193   */\n              0x41\n                /* \"#utility.yul\":1186:1187   */\n              0x04\n                /* \"#utility.yul\":1179:1194   */\n              mstore\n                /* \"#utility.yul\":1213:1217   */\n              0x24\n                /* \"#utility.yul\":1210:1211   */\n              0x00\n                /* \"#utility.yul\":1203:1218   */\n              revert\n                /* \"#utility.yul\":1230:1511   */\n            tag_187:\n                /* \"#utility.yul\":1313:1340   */\n              tag_251\n                /* \"#utility.yul\":1335:1339   */\n              dup3\n                /* \"#utility.yul\":1313:1340   */\n              tag_186\n              jump\t// in\n            tag_251:\n                /* \"#utility.yul\":1305:1311   */\n              dup2\n                /* \"#utility.yul\":1301:1341   */\n              add\n                /* \"#utility.yul\":1443:1449   */\n              dup2\n                /* \"#utility.yul\":1431:1441   */\n              dup2\n                /* \"#utility.yul\":1428:1450   */\n              lt\n                /* \"#utility.yul\":1407:1425   */\n              0xffffffffffffffff\n                /* \"#utility.yul\":1395:1405   */\n              dup3\n                /* \"#utility.yul\":1392:1426   */\n              gt\n                /* \"#utility.yul\":1389:1451   */\n              or\n                /* \"#utility.yul\":1386:1474   */\n              iszero\n              tag_252\n              jumpi\n                /* \"#utility.yul\":1454:1472   */\n              tag_253\n              tag_125\n              jump\t// in\n            tag_253:\n                /* \"#utility.yul\":1386:1474   */\n            tag_252:\n                /* \"#utility.yul\":1494:1504   */\n              dup1\n                /* \"#utility.yul\":1490:1492   */\n              0x40\n                /* \"#utility.yul\":1483:1505   */\n              mstore\n                /* \"#utility.yul\":1273:1511   */\n              pop\n                /* \"#utility.yul\":1230:1511   */\n              pop\n              pop\n              jump\t// out\n                /* \"#utility.yul\":1517:1646   */\n            tag_188:\n                /* \"#utility.yul\":1551:1557   */\n              0x00\n                /* \"#utility.yul\":1578:1598   */\n              tag_255\n              tag_178\n              jump\t// in\n            tag_255:\n                /* \"#utility.yul\":1568:1598   */\n              swap1\n              pop\n                /* \"#utility.yul\":1607:1640   */\n              tag_256\n                /* \"#utility.yul\":1635:1639   */\n              dup3\n                /* \"#utility.yul\":1627:1633   */\n              dup3\n                /* \"#utility.yul\":1607:1640   */\n              tag_187\n              jump\t// in\n            tag_256:\n                /* \"#utility.yul\":1517:1646   */\n              swap2\n              swap1\n              pop\n              jump\t// out\n                /* \"#utility.yul\":1652:1960   */\n            tag_189:\n                /* \"#utility.yul\":1714:1718   */\n              0x00\n                /* \"#utility.yul\":1804:1822   */\n              0xffffffffffffffff\n                /* \"#utility.yul\":1796:1802   */\n              dup3\n                /* \"#utility.yul\":1793:1823   */\n              gt\n                /* \"#utility.yul\":1790:1846   */\n              iszero\n              tag_258\n              jumpi\n                /* \"#utility.yul\":1826:1844   */\n              tag_259\n              tag_125\n              jump\t// in\n            tag_259:\n                /* \"#utility.yul\":1790:1846   */\n            tag_258:\n                /* \"#utility.yul\":1864:1893   */\n              tag_260\n                /* \"#utility.yul\":1886:1892   */\n              dup3\n                /* \"#utility.yul\":1864:1893   */\n              tag_186\n              jump\t// in\n            tag_260:\n                /* \"#utility.yul\":1856:1893   */\n              swap1\n              pop\n                /* \"#utility.yul\":1948:1952   */\n              0x20\n                /* \"#utility.yul\":1942:1946   */\n              dup2\n                /* \"#utility.yul\":1938:1953   */\n              add\n                /* \"#utility.yul\":1930:1953   */\n              swap1\n              pop\n                /* \"#utility.yul\":1652:1960   */\n              swap2\n              swap1\n              pop\n              jump\t// out\n                /* \"#utility.yul\":1966:2112   */\n            tag_190:\n                /* \"#utility.yul\":2063:2069   */\n              dup3\n                /* \"#utility.yul\":2058:2061   */\n              dup2\n                /* \"#utility.yul\":2053:2056   */\n              dup4\n                /* \"#utility.yul\":2040:2070   */\n              calldatacopy\n                /* \"#utility.yul\":2104:2105   */\n              0x00\n                /* \"#utility.yul\":2095:2101   */\n              dup4\n                /* \"#utility.yul\":2090:2093   */\n              dup4\n                /* \"#utility.yul\":2086:2102   */\n              add\n                /* \"#utility.yul\":2079:2106   */\n              mstore\n                /* \"#utility.yul\":1966:2112   */\n              pop\n              pop\n              pop\n              jump\t// out\n                /* \"#utility.yul\":2118:2543   */\n            tag_191:\n                /* \"#utility.yul\":2196:2201   */\n              0x00\n                /* \"#utility.yul\":2221:2287   */\n              tag_263\n                /* \"#utility.yul\":2237:2286   */\n              tag_264\n                /* \"#utility.yul\":2279:2285   */\n              dup5\n                /* \"#utility.yul\":2237:2286   */\n              tag_189\n              jump\t// in\n            tag_264:\n                /* \"#utility.yul\":2221:2287   */\n              tag_188\n              jump\t// in\n            tag_263:\n                /* \"#utility.yul\":2212:2287   */\n              swap1\n              pop\n                /* \"#utility.yul\":2310:2316   */\n              dup3\n                /* \"#utility.yul\":2303:2308   */\n              dup2\n                /* \"#utility.yul\":2296:2317   */\n              mstore\n                /* \"#utility.yul\":2348:2352   */\n              0x20\n                /* \"#utility.yul\":2341:2346   */\n              dup2\n                /* \"#utility.yul\":2337:2353   */\n              add\n                /* \"#utility.yul\":2386:2389   */\n              dup5\n                /* \"#utility.yul\":2377:2383   */\n              dup5\n                /* \"#utility.yul\":2372:2375   */\n              dup5\n                /* \"#utility.yul\":2368:2384   */\n              add\n                /* \"#utility.yul\":2365:2390   */\n              gt\n                /* \"#utility.yul\":2362:2474   */\n              iszero\n              tag_265\n              jumpi\n                /* \"#utility.yul\":2393:2472   */\n              tag_266\n              tag_185\n              jump\t// in\n            tag_266:\n                /* \"#utility.yul\":2362:2474   */\n            tag_265:\n                /* \"#utility.yul\":2483:2537   */\n              tag_267\n                /* \"#utility.yul\":2530:2536   */\n              dup5\n                /* \"#utility.yul\":2525:2528   */\n              dup3\n                /* \"#utility.yul\":2520:2523   */\n              dup6\n                /* \"#utility.yul\":2483:2537   */\n              tag_190\n              jump\t// in\n            tag_267:\n                /* \"#utility.yul\":2202:2543   */\n              pop\n                /* \"#utility.yul\":2118:2543   */\n              swap4\n              swap3\n              pop\n              pop\n              pop\n              jump\t// out\n                /* \"#utility.yul\":2563:2903   */\n            tag_192:\n                /* \"#utility.yul\":2619:2624   */\n              0x00\n                /* \"#utility.yul\":2668:2671   */\n              dup3\n                /* \"#utility.yul\":2661:2665   */\n              0x1f\n                /* \"#utility.yul\":2653:2659   */\n              dup4\n                /* \"#utility.yul\":2649:2666   */\n              add\n                /* \"#utility.yul\":2645:2672   */\n              slt\n                /* \"#utility.yul\":2635:2757   */\n              tag_269\n              jumpi\n                /* \"#utility.yul\":2676:2755   */\n              tag_270\n              tag_184\n              jump\t// in\n            tag_270:\n                /* \"#utility.yul\":2635:2757   */\n            tag_269:\n                /* \"#utility.yul\":2793:2799   */\n              dup2\n                /* \"#utility.yul\":2780:2800   */\n              calldataload\n                /* \"#utility.yul\":2818:2897   */\n              tag_271\n                /* \"#utility.yul\":2893:2896   */\n              dup5\n                /* \"#utility.yul\":2885:2891   */\n              dup3\n                /* \"#utility.yul\":2878:2882   */\n              0x20\n                /* \"#utility.yul\":2870:2876   */\n              dup7\n                /* \"#utility.yul\":2866:2883   */\n              add\n                /* \"#utility.yul\":2818:2897   */\n              tag_191\n              jump\t// in\n            tag_271:\n                /* \"#utility.yul\":2809:2897   */\n              swap2\n              pop\n                /* \"#utility.yul\":2625:2903   */\n              pop\n                /* \"#utility.yul\":2563:2903   */\n              swap3\n              swap2\n              pop\n              pop\n              jump\t// out\n                /* \"#utility.yul\":2909:3563   */\n            tag_23:\n                /* \"#utility.yul\":2987:2993   */\n              0x00\n                /* \"#utility.yul\":2995:3001   */\n              dup1\n                /* \"#utility.yul\":3044:3046   */\n              0x40\n                /* \"#utility.yul\":3032:3041   */\n              dup4\n                /* \"#utility.yul\":3023:3030   */\n              dup6\n                /* \"#utility.yul\":3019:3042   */\n              sub\n                /* \"#utility.yul\":3015:3047   */\n              slt\n                /* \"#utility.yul\":3012:3131   */\n              iszero\n              tag_273\n              jumpi\n                /* \"#utility.yul\":3050:3129   */\n              tag_274\n              tag_179\n              jump\t// in\n            tag_274:\n                /* \"#utility.yul\":3012:3131   */\n            tag_273:\n                /* \"#utility.yul\":3170:3171   */\n              0x00\n                /* \"#utility.yul\":3195:3248   */\n              tag_275\n                /* \"#utility.yul\":3240:3247   */\n              dup6\n                /* \"#utility.yul\":3231:3237   */\n              dup3\n                /* \"#utility.yul\":3220:3229   */\n              dup7\n                /* \"#utility.yul\":3216:3238   */\n              add\n                /* \"#utility.yul\":3195:3248   */\n              tag_183\n              jump\t// in\n            tag_275:\n                /* \"#utility.yul\":3185:3248   */\n              swap3\n              pop\n                /* \"#utility.yul\":3141:3258   */\n              pop\n                /* \"#utility.yul\":3325:3327   */\n              0x20\n                /* \"#utility.yul\":3314:3323   */\n              dup4\n                /* \"#utility.yul\":3310:3328   */\n              add\n                /* \"#utility.yul\":3297:3329   */\n              calldataload\n                /* \"#utility.yul\":3356:3374   */\n              0xffffffffffffffff\n                /* \"#utility.yul\":3348:3354   */\n              dup2\n                /* \"#utility.yul\":3345:3375   */\n              gt\n                /* \"#utility.yul\":3342:3459   */\n              iszero\n              tag_276\n              jumpi\n                /* \"#utility.yul\":3378:3457   */\n              tag_277\n              tag_180\n              jump\t// in\n            tag_277:\n                /* \"#utility.yul\":3342:3459   */\n            tag_276:\n                /* \"#utility.yul\":3483:3546   */\n              tag_278\n                /* \"#utility.yul\":3538:3545   */\n              dup6\n                /* \"#utility.yul\":3529:3535   */\n              dup3\n                /* \"#utility.yul\":3518:3527   */\n              dup7\n                /* \"#utility.yul\":3514:3536   */\n              add\n                /* \"#utility.yul\":3483:3546   */\n              tag_192\n              jump\t// in\n            tag_278:\n                /* \"#utility.yul\":3473:3546   */\n              swap2\n              pop\n                /* \"#utility.yul\":3268:3556   */\n              pop\n                /* \"#utility.yul\":2909:3563   */\n              swap3\n              pop\n              swap3\n              swap1\n              pop\n              jump\t// out\n                /* \"#utility.yul\":3569:3659   */\n            tag_193:\n                /* \"#utility.yul\":3603:3610   */\n              0x00\n                /* \"#utility.yul\":3646:3651   */\n              dup2\n                /* \"#utility.yul\":3639:3652   */\n              iszero\n                /* \"#utility.yul\":3632:3653   */\n              iszero\n                /* \"#utility.yul\":3621:3653   */\n              swap1\n              pop\n                /* \"#utility.yul\":3569:3659   */\n              swap2\n              swap1\n              pop\n              jump\t// out\n                /* \"#utility.yul\":3665:3781   */\n            tag_194:\n                /* \"#utility.yul\":3735:3756   */\n              tag_281\n                /* \"#utility.yul\":3750:3755   */\n              dup2\n                /* \"#utility.yul\":3735:3756   */\n              tag_193\n              jump\t// in\n            tag_281:\n                /* \"#utility.yul\":3728:3733   */\n              dup2\n                /* \"#utility.yul\":3725:3757   */\n              eq\n                /* \"#utility.yul\":3715:3775   */\n              tag_282\n              jumpi\n                /* \"#utility.yul\":3771:3772   */\n              0x00\n                /* \"#utility.yul\":3768:3769   */\n              dup1\n                /* \"#utility.yul\":3761:3773   */\n              revert\n                /* \"#utility.yul\":3715:3775   */\n            tag_282:\n                /* \"#utility.yul\":3665:3781   */\n              pop\n              jump\t// out\n                /* \"#utility.yul\":3787:3920   */\n            tag_195:\n                /* \"#utility.yul\":3830:3835   */\n              0x00\n                /* \"#utility.yul\":3868:3874   */\n              dup2\n                /* \"#utility.yul\":3855:3875   */\n              calldataload\n                /* \"#utility.yul\":3846:3875   */\n              swap1\n              pop\n                /* \"#utility.yul\":3884:3914   */\n              tag_284\n                /* \"#utility.yul\":3908:3913   */\n              dup2\n                /* \"#utility.yul\":3884:3914   */\n              tag_194\n              jump\t// in\n            tag_284:\n                /* \"#utility.yul\":3787:3920   */\n              swap3\n              swap2\n              pop\n              pop\n              jump\t// out\n                /* \"#utility.yul\":3926:4533   */\n            tag_29:\n                /* \"#utility.yul\":3997:4003   */\n              0x00\n                /* \"#utility.yul\":4005:4011   */\n              dup1\n                /* \"#utility.yul\":4013:4019   */\n              0x00\n                /* \"#utility.yul\":4062:4064   */\n              0x60\n                /* \"#utility.yul\":4050:4059   */\n              dup5\n                /* \"#utility.yul\":4041:4048   */\n              dup7\n                /* \"#utility.yul\":4037:4060   */\n              sub\n                /* \"#utility.yul\":4033:4065   */\n              slt\n                /* \"#utility.yul\":4030:4149   */\n              iszero\n              tag_286\n              jumpi\n                /* \"#utility.yul\":4068:4147   */\n              tag_287\n              tag_179\n              jump\t// in\n            tag_287:\n                /* \"#utility.yul\":4030:4149   */\n            tag_286:\n                /* \"#utility.yul\":4188:4189   */\n              0x00\n                /* \"#utility.yul\":4213:4266   */\n              tag_288\n                /* \"#utility.yul\":4258:4265   */\n              dup7\n                /* \"#utility.yul\":4249:4255   */\n              dup3\n                /* \"#utility.yul\":4238:4247   */\n              dup8\n                /* \"#utility.yul\":4234:4256   */\n              add\n                /* \"#utility.yul\":4213:4266   */\n              tag_183\n              jump\t// in\n            tag_288:\n                /* \"#utility.yul\":4203:4266   */\n              swap4\n              pop\n                /* \"#utility.yul\":4159:4276   */\n              pop\n                /* \"#utility.yul\":4315:4317   */\n              0x20\n                /* \"#utility.yul\":4341:4391   */\n              tag_289\n                /* \"#utility.yul\":4383:4390   */\n              dup7\n                /* \"#utility.yul\":4374:4380   */\n              dup3\n                /* \"#utility.yul\":4363:4372   */\n              dup8\n                /* \"#utility.yul\":4359:4381   */\n              add\n                /* \"#utility.yul\":4341:4391   */\n              tag_195\n              jump\t// in\n            tag_289:\n                /* \"#utility.yul\":4331:4391   */\n              swap3\n              pop\n                /* \"#utility.yul\":4286:4401   */\n              pop\n                /* \"#utility.yul\":4440:4442   */\n              0x40\n                /* \"#utility.yul\":4466:4516   */\n              tag_290\n                /* \"#utility.yul\":4508:4515   */\n              dup7\n                /* \"#utility.yul\":4499:4505   */\n              dup3\n                /* \"#utility.yul\":4488:4497   */\n              dup8\n                /* \"#utility.yul\":4484:4506   */\n              add\n                /* \"#utility.yul\":4466:4516   */\n              tag_195\n              jump\t// in\n            tag_290:\n                /* \"#utility.yul\":4456:4516   */\n              swap2\n              pop\n                /* \"#utility.yul\":4411:4526   */\n              pop\n                /* \"#utility.yul\":3926:4533   */\n              swap3\n              pop\n              swap3\n              pop\n              swap3\n              jump\t// out\n                /* \"#utility.yul\":4539:4868   */\n            tag_33:\n                /* \"#utility.yul\":4598:4604   */\n              0x00\n                /* \"#utility.yul\":4647:4649   */\n              0x20\n                /* \"#utility.yul\":4635:4644   */\n              dup3\n                /* \"#utility.yul\":4626:4633   */\n              dup5\n                /* \"#utility.yul\":4622:4645   */\n              sub\n                /* \"#utility.yul\":4618:4650   */\n              slt\n                /* \"#utility.yul\":4615:4734   */\n              iszero\n              tag_292\n              jumpi\n                /* \"#utility.yul\":4653:4732   */\n              tag_293\n              tag_179\n              jump\t// in\n            tag_293:\n                /* \"#utility.yul\":4615:4734   */\n            tag_292:\n                /* \"#utility.yul\":4773:4774   */\n              0x00\n                /* \"#utility.yul\":4798:4851   */\n              tag_294\n                /* \"#utility.yul\":4843:4850   */\n              dup5\n                /* \"#utility.yul\":4834:4840   */\n              dup3\n                /* \"#utility.yul\":4823:4832   */\n              dup6\n                /* \"#utility.yul\":4819:4841   */\n              add\n                /* \"#utility.yul\":4798:4851   */\n              tag_183\n              jump\t// in\n            tag_294:\n                /* \"#utility.yul\":4788:4851   */\n              swap2\n              pop\n                /* \"#utility.yul\":4744:4861   */\n              pop\n                /* \"#utility.yul\":4539:4868   */\n              swap3\n              swap2\n              pop\n              pop\n              jump\t// out\n                /* \"#utility.yul\":4874:4992   */\n            tag_196:\n                /* \"#utility.yul\":4961:4985   */\n              tag_296\n                /* \"#utility.yul\":4979:4984   */\n              dup2\n                /* \"#utility.yul\":4961:4985   */\n              tag_181\n              jump\t// in\n            tag_296:\n                /* \"#utility.yul\":4956:4959   */\n              dup3\n                /* \"#utility.yul\":4949:4986   */\n              mstore\n                /* \"#utility.yul\":4874:4992   */\n              pop\n              pop\n              jump\t// out\n                /* \"#utility.yul\":4998:5220   */\n            tag_36:\n                /* \"#utility.yul\":5091:5095   */\n              0x00\n                /* \"#utility.yul\":5129:5131   */\n              0x20\n                /* \"#utility.yul\":5118:5127   */\n              dup3\n                /* \"#utility.yul\":5114:5132   */\n              add\n                /* \"#utility.yul\":5106:5132   */\n              swap1\n              pop\n                /* \"#utility.yul\":5142:5213   */\n              tag_298\n                /* \"#utility.yul\":5210:5211   */\n              0x00\n                /* \"#utility.yul\":5199:5208   */\n              dup4\n                /* \"#utility.yul\":5195:5212   */\n              add\n                /* \"#utility.yul\":5186:5192   */\n              dup5\n                /* \"#utility.yul\":5142:5213   */\n              tag_196\n              jump\t// in\n            tag_298:\n                /* \"#utility.yul\":4998:5220   */\n              swap3\n              swap2\n              pop\n              pop\n              jump\t// out\n                /* \"#utility.yul\":5226:5325   */\n            tag_197:\n                /* \"#utility.yul\":5278:5284   */\n              0x00\n                /* \"#utility.yul\":5312:5317   */\n              dup2\n                /* \"#utility.yul\":5306:5318   */\n              mload\n                /* \"#utility.yul\":5296:5318   */\n              swap1\n              pop\n                /* \"#utility.yul\":5226:5325   */\n              swap2\n              swap1\n              pop\n              jump\t// out\n                /* \"#utility.yul\":5331:5500   */\n            tag_198:\n                /* \"#utility.yul\":5415:5426   */\n              0x00\n                /* \"#utility.yul\":5449:5455   */\n              dup3\n                /* \"#utility.yul\":5444:5447   */\n              dup3\n                /* \"#utility.yul\":5437:5456   */\n              mstore\n                /* \"#utility.yul\":5489:5493   */\n              0x20\n                /* \"#utility.yul\":5484:5487   */\n              dup3\n                /* \"#utility.yul\":5480:5494   */\n              add\n                /* \"#utility.yul\":5465:5494   */\n              swap1\n              pop\n                /* \"#utility.yul\":5331:5500   */\n              swap3\n              swap2\n              pop\n              pop\n              jump\t// out\n                /* \"#utility.yul\":5506:5752   */\n            tag_199:\n                /* \"#utility.yul\":5587:5588   */\n              0x00\n                /* \"#utility.yul\":5597:5710   */\n            tag_302:\n                /* \"#utility.yul\":5611:5617   */\n              dup4\n                /* \"#utility.yul\":5608:5609   */\n              dup2\n                /* \"#utility.yul\":5605:5618   */\n              lt\n                /* \"#utility.yul\":5597:5710   */\n              iszero\n              tag_304\n              jumpi\n                /* \"#utility.yul\":5696:5697   */\n              dup1\n                /* \"#utility.yul\":5691:5694   */\n              dup3\n                /* \"#utility.yul\":5687:5698   */\n              add\n                /* \"#utility.yul\":5681:5699   */\n              mload\n                /* \"#utility.yul\":5677:5678   */\n              dup2\n                /* \"#utility.yul\":5672:5675   */\n              dup5\n                /* \"#utility.yul\":5668:5679   */\n              add\n                /* \"#utility.yul\":5661:5700   */\n              mstore\n                /* \"#utility.yul\":5633:5635   */\n              0x20\n                /* \"#utility.yul\":5630:5631   */\n              dup2\n                /* \"#utility.yul\":5626:5636   */\n              add\n                /* \"#utility.yul\":5621:5636   */\n              swap1\n              pop\n                /* \"#utility.yul\":5597:5710   */\n              jump(tag_302)\n            tag_304:\n                /* \"#utility.yul\":5744:5745   */\n              0x00\n                /* \"#utility.yul\":5735:5741   */\n              dup5\n                /* \"#utility.yul\":5730:5733   */\n              dup5\n                /* \"#utility.yul\":5726:5742   */\n              add\n                /* \"#utility.yul\":5719:5746   */\n              mstore\n                /* \"#utility.yul\":5568:5752   */\n              pop\n                /* \"#utility.yul\":5506:5752   */\n              pop\n              pop\n              pop\n              jump\t// out\n                /* \"#utility.yul\":5758:6135   */\n            tag_200:\n                /* \"#utility.yul\":5846:5849   */\n              0x00\n                /* \"#utility.yul\":5874:5913   */\n              tag_306\n                /* \"#utility.yul\":5907:5912   */\n              dup3\n                /* \"#utility.yul\":5874:5913   */\n              tag_197\n              jump\t// in\n            tag_306:\n                /* \"#utility.yul\":5929:6000   */\n              tag_307\n                /* \"#utility.yul\":5993:5999   */\n              dup2\n                /* \"#utility.yul\":5988:5991   */\n              dup6\n                /* \"#utility.yul\":5929:6000   */\n              tag_198\n              jump\t// in\n            tag_307:\n                /* \"#utility.yul\":5922:6000   */\n              swap4\n              pop\n                /* \"#utility.yul\":6009:6074   */\n              tag_308\n                /* \"#utility.yul\":6067:6073   */\n              dup2\n                /* \"#utility.yul\":6062:6065   */\n              dup6\n                /* \"#utility.yul\":6055:6059   */\n              0x20\n                /* \"#utility.yul\":6048:6053   */\n              dup7\n                /* \"#utility.yul\":6044:6060   */\n              add\n                /* \"#utility.yul\":6009:6074   */\n              tag_199\n              jump\t// in\n            tag_308:\n                /* \"#utility.yul\":6099:6128   */\n              tag_309\n                /* \"#utility.yul\":6121:6127   */\n              dup2\n                /* \"#utility.yul\":6099:6128   */\n              tag_186\n              jump\t// in\n            tag_309:\n                /* \"#utility.yul\":6094:6097   */\n              dup5\n                /* \"#utility.yul\":6090:6129   */\n              add\n                /* \"#utility.yul\":6083:6129   */\n              swap2\n              pop\n                /* \"#utility.yul\":5850:6135   */\n              pop\n                /* \"#utility.yul\":5758:6135   */\n              swap3\n              swap2\n              pop\n              pop\n              jump\t// out\n                /* \"#utility.yul\":6141:6250   */\n            tag_201:\n                /* \"#utility.yul\":6222:6243   */\n              tag_311\n                /* \"#utility.yul\":6237:6242   */\n              dup2\n                /* \"#utility.yul\":6222:6243   */\n              tag_193\n              jump\t// in\n            tag_311:\n                /* \"#utility.yul\":6217:6220   */\n              dup3\n                /* \"#utility.yul\":6210:6244   */\n              mstore\n                /* \"#utility.yul\":6141:6250   */\n              pop\n              pop\n              jump\t// out\n                /* \"#utility.yul\":6256:6876   */\n            tag_41:\n                /* \"#utility.yul\":6441:6445   */\n              0x00\n                /* \"#utility.yul\":6479:6482   */\n              0x80\n                /* \"#utility.yul\":6468:6477   */\n              dup3\n                /* \"#utility.yul\":6464:6483   */\n              add\n                /* \"#utility.yul\":6456:6483   */\n              swap1\n              pop\n                /* \"#utility.yul\":6493:6564   */\n              tag_313\n                /* \"#utility.yul\":6561:6562   */\n              0x00\n                /* \"#utility.yul\":6550:6559   */\n              dup4\n                /* \"#utility.yul\":6546:6563   */\n              add\n                /* \"#utility.yul\":6537:6543   */\n              dup8\n                /* \"#utility.yul\":6493:6564   */\n              tag_196\n              jump\t// in\n            tag_313:\n                /* \"#utility.yul\":6611:6620   */\n              dup2\n                /* \"#utility.yul\":6605:6609   */\n              dup2\n                /* \"#utility.yul\":6601:6621   */\n              sub\n                /* \"#utility.yul\":6596:6598   */\n              0x20\n                /* \"#utility.yul\":6585:6594   */\n              dup4\n                /* \"#utility.yul\":6581:6599   */\n              add\n                /* \"#utility.yul\":6574:6622   */\n              mstore\n                /* \"#utility.yul\":6639:6717   */\n              tag_314\n                /* \"#utility.yul\":6712:6716   */\n              dup2\n                /* \"#utility.yul\":6703:6709   */\n              dup7\n                /* \"#utility.yul\":6639:6717   */\n              tag_200\n              jump\t// in\n            tag_314:\n                /* \"#utility.yul\":6631:6717   */\n              swap1\n              pop\n                /* \"#utility.yul\":6727:6793   */\n              tag_315\n                /* \"#utility.yul\":6789:6791   */\n              0x40\n                /* \"#utility.yul\":6778:6787   */\n              dup4\n                /* \"#utility.yul\":6774:6792   */\n              add\n                /* \"#utility.yul\":6765:6771   */\n              dup6\n                /* \"#utility.yul\":6727:6793   */\n              tag_201\n              jump\t// in\n            tag_315:\n                /* \"#utility.yul\":6803:6869   */\n              tag_316\n                /* \"#utility.yul\":6865:6867   */\n              0x60\n                /* \"#utility.yul\":6854:6863   */\n              dup4\n                /* \"#utility.yul\":6850:6868   */\n              add\n                /* \"#utility.yul\":6841:6847   */\n              dup5\n                /* \"#utility.yul\":6803:6869   */\n              tag_201\n              jump\t// in\n            tag_316:\n                /* \"#utility.yul\":6256:6876   */\n              swap6\n              swap5\n              pop\n              pop\n              pop\n              pop\n              pop\n              jump\t// out\n                /* \"#utility.yul\":6882:6996   */\n            tag_202:\n                /* \"#utility.yul\":6949:6955   */\n              0x00\n                /* \"#utility.yul\":6983:6988   */\n              dup2\n                /* \"#utility.yul\":6977:6989   */\n              mload\n                /* \"#utility.yul\":6967:6989   */\n              swap1\n              pop\n                /* \"#utility.yul\":6882:6996   */\n              swap2\n              swap1\n              pop\n              jump\t// out\n                /* \"#utility.yul\":7002:7186   */\n            tag_203:\n                /* \"#utility.yul\":7101:7112   */\n              0x00\n                /* \"#utility.yul\":7135:7141   */\n              dup3\n                /* \"#utility.yul\":7130:7133   */\n              dup3\n                /* \"#utility.yul\":7123:7142   */\n              mstore\n                /* \"#utility.yul\":7175:7179   */\n              0x20\n                /* \"#utility.yul\":7170:7173   */\n              dup3\n                /* \"#utility.yul\":7166:7180   */\n              add\n                /* \"#utility.yul\":7151:7180   */\n              swap1\n              pop\n                /* \"#utility.yul\":7002:7186   */\n              swap3\n              swap2\n              pop\n              pop\n              jump\t// out\n                /* \"#utility.yul\":7192:7324   */\n            tag_204:\n                /* \"#utility.yul\":7259:7263   */\n              0x00\n                /* \"#utility.yul\":7282:7285   */\n              dup2\n                /* \"#utility.yul\":7274:7285   */\n              swap1\n              pop\n                /* \"#utility.yul\":7312:7316   */\n              0x20\n                /* \"#utility.yul\":7307:7310   */\n              dup3\n                /* \"#utility.yul\":7303:7317   */\n              add\n                /* \"#utility.yul\":7295:7317   */\n              swap1\n              pop\n                /* \"#utility.yul\":7192:7324   */\n              swap2\n              swap1\n              pop\n              jump\t// out\n                /* \"#utility.yul\":7330:7438   */\n            tag_205:\n                /* \"#utility.yul\":7407:7431   */\n              tag_321\n                /* \"#utility.yul\":7425:7430   */\n              dup2\n                /* \"#utility.yul\":7407:7431   */\n              tag_181\n              jump\t// in\n            tag_321:\n                /* \"#utility.yul\":7402:7405   */\n              dup3\n                /* \"#utility.yul\":7395:7432   */\n              mstore\n                /* \"#utility.yul\":7330:7438   */\n              pop\n              pop\n              jump\t// out\n                /* \"#utility.yul\":7444:7623   */\n            tag_206:\n                /* \"#utility.yul\":7513:7523   */\n              0x00\n                /* \"#utility.yul\":7534:7580   */\n              tag_323\n                /* \"#utility.yul\":7576:7579   */\n              dup4\n                /* \"#utility.yul\":7568:7574   */\n              dup4\n                /* \"#utility.yul\":7534:7580   */\n              tag_205\n              jump\t// in\n            tag_323:\n                /* \"#utility.yul\":7612:7616   */\n              0x20\n                /* \"#utility.yul\":7607:7610   */\n              dup4\n                /* \"#utility.yul\":7603:7617   */\n              add\n                /* \"#utility.yul\":7589:7617   */\n              swap1\n              pop\n                /* \"#utility.yul\":7444:7623   */\n              swap3\n              swap2\n              pop\n              pop\n              jump\t// out\n                /* \"#utility.yul\":7629:7742   */\n            tag_207:\n                /* \"#utility.yul\":7699:7703   */\n              0x00\n                /* \"#utility.yul\":7731:7735   */\n              0x20\n                /* \"#utility.yul\":7726:7729   */\n              dup3\n                /* \"#utility.yul\":7722:7736   */\n              add\n                /* \"#utility.yul\":7714:7736   */\n              swap1\n              pop\n                /* \"#utility.yul\":7629:7742   */\n              swap2\n              swap1\n              pop\n              jump\t// out\n                /* \"#utility.yul\":7778:8510   */\n            tag_208:\n                /* \"#utility.yul\":7897:7900   */\n              0x00\n                /* \"#utility.yul\":7926:7980   */\n              tag_326\n                /* \"#utility.yul\":7974:7979   */\n              dup3\n                /* \"#utility.yul\":7926:7980   */\n              tag_202\n              jump\t// in\n            tag_326:\n                /* \"#utility.yul\":7996:8082   */\n              tag_327\n                /* \"#utility.yul\":8075:8081   */\n              dup2\n                /* \"#utility.yul\":8070:8073   */\n              dup6\n                /* \"#utility.yul\":7996:8082   */\n              tag_203\n              jump\t// in\n            tag_327:\n                /* \"#utility.yul\":7989:8082   */\n              swap4\n              pop\n                /* \"#utility.yul\":8106:8162   */\n              tag_328\n                /* \"#utility.yul\":8156:8161   */\n              dup4\n                /* \"#utility.yul\":8106:8162   */\n              tag_204\n              jump\t// in\n            tag_328:\n                /* \"#utility.yul\":8185:8192   */\n              dup1\n                /* \"#utility.yul\":8216:8217   */\n              0x00\n                /* \"#utility.yul\":8201:8485   */\n            tag_329:\n                /* \"#utility.yul\":8226:8232   */\n              dup4\n                /* \"#utility.yul\":8223:8224   */\n              dup2\n                /* \"#utility.yul\":8220:8233   */\n              lt\n                /* \"#utility.yul\":8201:8485   */\n              iszero\n              tag_331\n              jumpi\n                /* \"#utility.yul\":8302:8308   */\n              dup2\n                /* \"#utility.yul\":8296:8309   */\n              mload\n                /* \"#utility.yul\":8329:8392   */\n              tag_332\n                /* \"#utility.yul\":8388:8391   */\n              dup9\n                /* \"#utility.yul\":8373:8386   */\n              dup3\n                /* \"#utility.yul\":8329:8392   */\n              tag_206\n              jump\t// in\n            tag_332:\n                /* \"#utility.yul\":8322:8392   */\n              swap8\n              pop\n                /* \"#utility.yul\":8415:8475   */\n              tag_333\n                /* \"#utility.yul\":8468:8474   */\n              dup4\n                /* \"#utility.yul\":8415:8475   */\n              tag_207\n              jump\t// in\n            tag_333:\n                /* \"#utility.yul\":8405:8475   */\n              swap3\n              pop\n                /* \"#utility.yul\":8261:8485   */\n              pop\n                /* \"#utility.yul\":8248:8249   */\n              0x01\n                /* \"#utility.yul\":8245:8246   */\n              dup2\n                /* \"#utility.yul\":8241:8250   */\n              add\n                /* \"#utility.yul\":8236:8250   */\n              swap1\n              pop\n                /* \"#utility.yul\":8201:8485   */\n              jump(tag_329)\n            tag_331:\n                /* \"#utility.yul\":8205:8219   */\n              pop\n                /* \"#utility.yul\":8501:8504   */\n              dup6\n                /* \"#utility.yul\":8494:8504   */\n              swap4\n              pop\n                /* \"#utility.yul\":7902:8510   */\n              pop\n              pop\n              pop\n                /* \"#utility.yul\":7778:8510   */\n              swap3\n              swap2\n              pop\n              pop\n              jump\t// out\n                /* \"#utility.yul\":8516:8889   */\n            tag_48:\n                /* \"#utility.yul\":8659:8663   */\n              0x00\n                /* \"#utility.yul\":8697:8699   */\n              0x20\n                /* \"#utility.yul\":8686:8695   */\n              dup3\n                /* \"#utility.yul\":8682:8700   */\n              add\n                /* \"#utility.yul\":8674:8700   */\n              swap1\n              pop\n                /* \"#utility.yul\":8746:8755   */\n              dup2\n                /* \"#utility.yul\":8740:8744   */\n              dup2\n                /* \"#utility.yul\":8736:8756   */\n              sub\n                /* \"#utility.yul\":8732:8733   */\n              0x00\n                /* \"#utility.yul\":8721:8730   */\n              dup4\n                /* \"#utility.yul\":8717:8734   */\n              add\n                /* \"#utility.yul\":8710:8757   */\n              mstore\n                /* \"#utility.yul\":8774:8882   */\n              tag_335\n                /* \"#utility.yul\":8877:8881   */\n              dup2\n                /* \"#utility.yul\":8868:8874   */\n              dup5\n                /* \"#utility.yul\":8774:8882   */\n              tag_208\n              jump\t// in\n            tag_335:\n                /* \"#utility.yul\":8766:8882   */\n              swap1\n              pop\n                /* \"#utility.yul\":8516:8889   */\n              swap3\n              swap2\n              pop\n              pop\n              jump\t// out\n                /* \"#utility.yul\":8895:9075   */\n            tag_143:\n                /* \"#utility.yul\":8943:9020   */\n              0x4e487b7100000000000000000000000000000000000000000000000000000000\n                /* \"#utility.yul\":8940:8941   */\n              0x00\n                /* \"#utility.yul\":8933:9021   */\n              mstore\n                /* \"#utility.yul\":9040:9044   */\n              0x21\n                /* \"#utility.yul\":9037:9038   */\n              0x04\n                /* \"#utility.yul\":9030:9045   */\n              mstore\n                /* \"#utility.yul\":9064:9068   */\n              0x24\n                /* \"#utility.yul\":9061:9062   */\n              0x00\n                /* \"#utility.yul\":9054:9069   */\n              revert\n                /* \"#utility.yul\":9081:9200   */\n            tag_209:\n                /* \"#utility.yul\":9168:9169   */\n              0x02\n                /* \"#utility.yul\":9161:9166   */\n              dup2\n                /* \"#utility.yul\":9158:9170   */\n              lt\n                /* \"#utility.yul\":9148:9194   */\n              tag_338\n              jumpi\n                /* \"#utility.yul\":9174:9192   */\n              tag_339\n              tag_143\n              jump\t// in\n            tag_339:\n                /* \"#utility.yul\":9148:9194   */\n            tag_338:\n                /* \"#utility.yul\":9081:9200   */\n              pop\n              jump\t// out\n                /* \"#utility.yul\":9206:9345   */\n            tag_210:\n                /* \"#utility.yul\":9257:9264   */\n              0x00\n                /* \"#utility.yul\":9286:9291   */\n              dup2\n                /* \"#utility.yul\":9275:9291   */\n              swap1\n              pop\n                /* \"#utility.yul\":9292:9339   */\n              tag_341\n                /* \"#utility.yul\":9333:9338   */\n              dup3\n                /* \"#utility.yul\":9292:9339   */\n              tag_209\n              jump\t// in\n            tag_341:\n                /* \"#utility.yul\":9206:9345   */\n              swap2\n              swap1\n              pop\n              jump\t// out\n                /* \"#utility.yul\":9351:9490   */\n            tag_211:\n                /* \"#utility.yul\":9413:9422   */\n              0x00\n                /* \"#utility.yul\":9446:9484   */\n              tag_343\n                /* \"#utility.yul\":9478:9483   */\n              dup3\n                /* \"#utility.yul\":9446:9484   */\n              tag_210\n              jump\t// in\n            tag_343:\n                /* \"#utility.yul\":9433:9484   */\n              swap1\n              pop\n                /* \"#utility.yul\":9351:9490   */\n              swap2\n              swap1\n              pop\n              jump\t// out\n                /* \"#utility.yul\":9496:9651   */\n            tag_212:\n                /* \"#utility.yul\":9595:9644   */\n              tag_345\n                /* \"#utility.yul\":9638:9643   */\n              dup2\n                /* \"#utility.yul\":9595:9644   */\n              tag_211\n              jump\t// in\n            tag_345:\n                /* \"#utility.yul\":9590:9593   */\n              dup3\n                /* \"#utility.yul\":9583:9645   */\n              mstore\n                /* \"#utility.yul\":9496:9651   */\n              pop\n              pop\n              jump\t// out\n                /* \"#utility.yul\":9657:9903   */\n            tag_52:\n                /* \"#utility.yul\":9762:9766   */\n              0x00\n                /* \"#utility.yul\":9800:9802   */\n              0x20\n                /* \"#utility.yul\":9789:9798   */\n              dup3\n                /* \"#utility.yul\":9785:9803   */\n              add\n                /* \"#utility.yul\":9777:9803   */\n              swap1\n              pop\n                /* \"#utility.yul\":9813:9896   */\n              tag_347\n                /* \"#utility.yul\":9893:9894   */\n              0x00\n                /* \"#utility.yul\":9882:9891   */\n              dup4\n                /* \"#utility.yul\":9878:9895   */\n              add\n                /* \"#utility.yul\":9869:9875   */\n              dup5\n                /* \"#utility.yul\":9813:9896   */\n              tag_212\n              jump\t// in\n            tag_347:\n                /* \"#utility.yul\":9657:9903   */\n              swap3\n              swap2\n              pop\n              pop\n              jump\t// out\n                /* \"#utility.yul\":9909:10035   */\n            tag_213:\n                /* \"#utility.yul\":9946:9953   */\n              0x00\n                /* \"#utility.yul\":9986:10028   */\n              0xffffffffffffffffffffffffffffffffffffffff\n                /* \"#utility.yul\":9979:9984   */\n              dup3\n                /* \"#utility.yul\":9975:10029   */\n              and\n                /* \"#utility.yul\":9964:10029   */\n              swap1\n              pop\n                /* \"#utility.yul\":9909:10035   */\n              swap2\n              swap1\n              pop\n              jump\t// out\n                /* \"#utility.yul\":10041:10137   */\n            tag_214:\n                /* \"#utility.yul\":10078:10085   */\n              0x00\n                /* \"#utility.yul\":10107:10131   */\n              tag_350\n                /* \"#utility.yul\":10125:10130   */\n              dup3\n                /* \"#utility.yul\":10107:10131   */\n              tag_213\n              jump\t// in\n            tag_350:\n                /* \"#utility.yul\":10096:10131   */\n              swap1\n              pop\n                /* \"#utility.yul\":10041:10137   */\n              swap2\n              swap1\n              pop\n              jump\t// out\n                /* \"#utility.yul\":10143:10261   */\n            tag_215:\n                /* \"#utility.yul\":10230:10254   */\n              tag_352\n                /* \"#utility.yul\":10248:10253   */\n              dup2\n                /* \"#utility.yul\":10230:10254   */\n              tag_214\n              jump\t// in\n            tag_352:\n                /* \"#utility.yul\":10225:10228   */\n              dup3\n                /* \"#utility.yul\":10218:10255   */\n              mstore\n                /* \"#utility.yul\":10143:10261   */\n              pop\n              pop\n              jump\t// out\n                /* \"#utility.yul\":10267:10489   */\n            tag_56:\n                /* \"#utility.yul\":10360:10364   */\n              0x00\n                /* \"#utility.yul\":10398:10400   */\n              0x20\n                /* \"#utility.yul\":10387:10396   */\n              dup3\n                /* \"#utility.yul\":10383:10401   */\n              add\n                /* \"#utility.yul\":10375:10401   */\n              swap1\n              pop\n                /* \"#utility.yul\":10411:10482   */\n              tag_354\n                /* \"#utility.yul\":10479:10480   */\n              0x00\n                /* \"#utility.yul\":10468:10477   */\n              dup4\n                /* \"#utility.yul\":10464:10481   */\n              add\n                /* \"#utility.yul\":10455:10461   */\n              dup5\n                /* \"#utility.yul\":10411:10482   */\n              tag_215\n              jump\t// in\n            tag_354:\n                /* \"#utility.yul\":10267:10489   */\n              swap3\n              swap2\n              pop\n              pop\n              jump\t// out\n                /* \"#utility.yul\":10495:10808   */\n            tag_60:\n                /* \"#utility.yul\":10608:10612   */\n              0x00\n                /* \"#utility.yul\":10646:10648   */\n              0x20\n                /* \"#utility.yul\":10635:10644   */\n              dup3\n                /* \"#utility.yul\":10631:10649   */\n              add\n                /* \"#utility.yul\":10623:10649   */\n              swap1\n              pop\n                /* \"#utility.yul\":10695:10704   */\n              dup2\n                /* \"#utility.yul\":10689:10693   */\n              dup2\n                /* \"#utility.yul\":10685:10705   */\n              sub\n                /* \"#utility.yul\":10681:10682   */\n              0x00\n                /* \"#utility.yul\":10670:10679   */\n              dup4\n                /* \"#utility.yul\":10666:10683   */\n              add\n                /* \"#utility.yul\":10659:10706   */\n              mstore\n                /* \"#utility.yul\":10723:10801   */\n              tag_356\n                /* \"#utility.yul\":10796:10800   */\n              dup2\n                /* \"#utility.yul\":10787:10793   */\n              dup5\n                /* \"#utility.yul\":10723:10801   */\n              tag_200\n              jump\t// in\n            tag_356:\n                /* \"#utility.yul\":10715:10801   */\n              swap1\n              pop\n                /* \"#utility.yul\":10495:10808   */\n              swap3\n              swap2\n              pop\n              pop\n              jump\t// out\n                /* \"#utility.yul\":10814:11024   */\n            tag_64:\n                /* \"#utility.yul\":10901:10905   */\n              0x00\n                /* \"#utility.yul\":10939:10941   */\n              0x20\n                /* \"#utility.yul\":10928:10937   */\n              dup3\n                /* \"#utility.yul\":10924:10942   */\n              add\n                /* \"#utility.yul\":10916:10942   */\n              swap1\n              pop\n                /* \"#utility.yul\":10952:11017   */\n              tag_358\n                /* \"#utility.yul\":11014:11015   */\n              0x00\n                /* \"#utility.yul\":11003:11012   */\n              dup4\n                /* \"#utility.yul\":10999:11016   */\n              add\n                /* \"#utility.yul\":10990:10996   */\n              dup5\n                /* \"#utility.yul\":10952:11017   */\n              tag_201\n              jump\t// in\n            tag_358:\n                /* \"#utility.yul\":10814:11024   */\n              swap3\n              swap2\n              pop\n              pop\n              jump\t// out\n                /* \"#utility.yul\":11030:11204   */\n            tag_216:\n                /* \"#utility.yul\":11170:11196   */\n              0x536d61727420436f6e747261637420697320636c6f7365640000000000000000\n                /* \"#utility.yul\":11166:11167   */\n              0x00\n                /* \"#utility.yul\":11158:11164   */\n              dup3\n                /* \"#utility.yul\":11154:11168   */\n              add\n                /* \"#utility.yul\":11147:11197   */\n              mstore\n                /* \"#utility.yul\":11030:11204   */\n              pop\n              jump\t// out\n                /* \"#utility.yul\":11210:11576   */\n            tag_217:\n                /* \"#utility.yul\":11352:11355   */\n              0x00\n                /* \"#utility.yul\":11373:11440   */\n              tag_361\n                /* \"#utility.yul\":11437:11439   */\n              0x18\n                /* \"#utility.yul\":11432:11435   */\n              dup4\n                /* \"#utility.yul\":11373:11440   */\n              tag_198\n              jump\t// in\n            tag_361:\n                /* \"#utility.yul\":11366:11440   */\n              swap2\n              pop\n                /* \"#utility.yul\":11449:11542   */\n              tag_362\n                /* \"#utility.yul\":11538:11541   */\n              dup3\n                /* \"#utility.yul\":11449:11542   */\n              tag_216\n              jump\t// in\n            tag_362:\n                /* \"#utility.yul\":11567:11569   */\n              0x20\n                /* \"#utility.yul\":11562:11565   */\n              dup3\n                /* \"#utility.yul\":11558:11570   */\n              add\n                /* \"#utility.yul\":11551:11570   */\n              swap1\n              pop\n                /* \"#utility.yul\":11210:11576   */\n              swap2\n              swap1\n              pop\n              jump\t// out\n                /* \"#utility.yul\":11582:12001   */\n            tag_79:\n                /* \"#utility.yul\":11748:11752   */\n              0x00\n                /* \"#utility.yul\":11786:11788   */\n              0x20\n                /* \"#utility.yul\":11775:11784   */\n              dup3\n                /* \"#utility.yul\":11771:11789   */\n              add\n                /* \"#utility.yul\":11763:11789   */\n              swap1\n              pop\n                /* \"#utility.yul\":11835:11844   */\n              dup2\n                /* \"#utility.yul\":11829:11833   */\n              dup2\n                /* \"#utility.yul\":11825:11845   */\n              sub\n                /* \"#utility.yul\":11821:11822   */\n              0x00\n                /* \"#utility.yul\":11810:11819   */\n              dup4\n                /* \"#utility.yul\":11806:11823   */\n              add\n                /* \"#utility.yul\":11799:11846   */\n              mstore\n                /* \"#utility.yul\":11863:11994   */\n              tag_364\n                /* \"#utility.yul\":11989:11993   */\n              dup2\n                /* \"#utility.yul\":11863:11994   */\n              tag_217\n              jump\t// in\n            tag_364:\n                /* \"#utility.yul\":11855:11994   */\n              swap1\n              pop\n                /* \"#utility.yul\":11582:12001   */\n              swap2\n              swap1\n              pop\n              jump\t// out\n                /* \"#utility.yul\":12007:12187   */\n            tag_85:\n                /* \"#utility.yul\":12055:12132   */\n              0x4e487b7100000000000000000000000000000000000000000000000000000000\n                /* \"#utility.yul\":12052:12053   */\n              0x00\n                /* \"#utility.yul\":12045:12133   */\n              mstore\n                /* \"#utility.yul\":12152:12156   */\n              0x32\n                /* \"#utility.yul\":12149:12150   */\n              0x04\n                /* \"#utility.yul\":12142:12157   */\n              mstore\n                /* \"#utility.yul\":12176:12180   */\n              0x24\n                /* \"#utility.yul\":12173:12174   */\n              0x00\n                /* \"#utility.yul\":12166:12181   */\n              revert\n                /* \"#utility.yul\":12193:12373   */\n            tag_218:\n                /* \"#utility.yul\":12241:12318   */\n              0x4e487b7100000000000000000000000000000000000000000000000000000000\n                /* \"#utility.yul\":12238:12239   */\n              0x00\n                /* \"#utility.yul\":12231:12319   */\n              mstore\n                /* \"#utility.yul\":12338:12342   */\n              0x22\n                /* \"#utility.yul\":12335:12336   */\n              0x04\n                /* \"#utility.yul\":12328:12343   */\n              mstore\n                /* \"#utility.yul\":12362:12366   */\n              0x24\n                /* \"#utility.yul\":12359:12360   */\n              0x00\n                /* \"#utility.yul\":12352:12367   */\n              revert\n                /* \"#utility.yul\":12379:12699   */\n            tag_117:\n                /* \"#utility.yul\":12423:12429   */\n              0x00\n                /* \"#utility.yul\":12460:12461   */\n              0x02\n                /* \"#utility.yul\":12454:12458   */\n              dup3\n                /* \"#utility.yul\":12450:12462   */\n              div\n                /* \"#utility.yul\":12440:12462   */\n              swap1\n              pop\n                /* \"#utility.yul\":12507:12508   */\n              0x01\n                /* \"#utility.yul\":12501:12505   */\n              dup3\n                /* \"#utility.yul\":12497:12509   */\n              and\n                /* \"#utility.yul\":12528:12546   */\n              dup1\n                /* \"#utility.yul\":12518:12599   */\n              tag_368\n              jumpi\n                /* \"#utility.yul\":12584:12588   */\n              0x7f\n                /* \"#utility.yul\":12576:12582   */\n              dup3\n                /* \"#utility.yul\":12572:12589   */\n              and\n                /* \"#utility.yul\":12562:12589   */\n              swap2\n              pop\n                /* \"#utility.yul\":12518:12599   */\n            tag_368:\n                /* \"#utility.yul\":12646:12648   */\n              0x20\n                /* \"#utility.yul\":12638:12644   */\n              dup3\n                /* \"#utility.yul\":12635:12649   */\n              lt\n                /* \"#utility.yul\":12615:12633   */\n              dup2\n                /* \"#utility.yul\":12612:12650   */\n              sub\n                /* \"#utility.yul\":12609:12693   */\n              tag_369\n              jumpi\n                /* \"#utility.yul\":12665:12683   */\n              tag_370\n              tag_218\n              jump\t// in\n            tag_370:\n                /* \"#utility.yul\":12609:12693   */\n            tag_369:\n                /* \"#utility.yul\":12430:12699   */\n              pop\n                /* \"#utility.yul\":12379:12699   */\n              swap2\n              swap1\n              pop\n              jump\t// out\n                /* \"#utility.yul\":12705:12846   */\n            tag_219:\n                /* \"#utility.yul\":12754:12758   */\n              0x00\n                /* \"#utility.yul\":12777:12780   */\n              dup2\n                /* \"#utility.yul\":12769:12780   */\n              swap1\n              pop\n                /* \"#utility.yul\":12800:12803   */\n              dup2\n                /* \"#utility.yul\":12797:12798   */\n              0x00\n                /* \"#utility.yul\":12790:12804   */\n              mstore\n                /* \"#utility.yul\":12834:12838   */\n              0x20\n                /* \"#utility.yul\":12831:12832   */\n              0x00\n                /* \"#utility.yul\":12821:12839   */\n              keccak256\n                /* \"#utility.yul\":12813:12839   */\n              swap1\n              pop\n                /* \"#utility.yul\":12705:12846   */\n              swap2\n              swap1\n              pop\n              jump\t// out\n                /* \"#utility.yul\":12852:12945   */\n            tag_220:\n                /* \"#utility.yul\":12889:12895   */\n              0x00\n                /* \"#utility.yul\":12936:12938   */\n              0x20\n                /* \"#utility.yul\":12931:12933   */\n              0x1f\n                /* \"#utility.yul\":12924:12929   */\n              dup4\n                /* \"#utility.yul\":12920:12934   */\n              add\n                /* \"#utility.yul\":12916:12939   */\n              div\n                /* \"#utility.yul\":12906:12939   */\n              swap1\n              pop\n                /* \"#utility.yul\":12852:12945   */\n              swap2\n              swap1\n              pop\n              jump\t// out\n                /* \"#utility.yul\":12951:13058   */\n            tag_221:\n                /* \"#utility.yul\":12995:13003   */\n              0x00\n                /* \"#utility.yul\":13045:13050   */\n              dup3\n                /* \"#utility.yul\":13039:13043   */\n              dup3\n                /* \"#utility.yul\":13035:13051   */\n              shl\n                /* \"#utility.yul\":13014:13051   */\n              swap1\n              pop\n                /* \"#utility.yul\":12951:13058   */\n              swap3\n              swap2\n              pop\n              pop\n              jump\t// out\n                /* \"#utility.yul\":13064:13457   */\n            tag_222:\n                /* \"#utility.yul\":13133:13139   */\n              0x00\n                /* \"#utility.yul\":13183:13184   */\n              0x08\n                /* \"#utility.yul\":13171:13181   */\n              dup4\n                /* \"#utility.yul\":13167:13185   */\n              mul\n                /* \"#utility.yul\":13206:13303   */\n              tag_375\n                /* \"#utility.yul\":13236:13302   */\n              0xffffffffffffffffffffffffffffffffffffffffffffffffffffffffffffffff\n                /* \"#utility.yul\":13225:13234   */\n              dup3\n                /* \"#utility.yul\":13206:13303   */\n              tag_221\n              jump\t// in\n            tag_375:\n                /* \"#utility.yul\":13324:13363   */\n              tag_376\n                /* \"#utility.yul\":13354:13362   */\n              dup7\n                /* \"#utility.yul\":13343:13352   */\n              dup4\n                /* \"#utility.yul\":13324:13363   */\n              tag_221\n              jump\t// in\n            tag_376:\n                /* \"#utility.yul\":13312:13363   */\n              swap6\n              pop\n                /* \"#utility.yul\":13396:13400   */\n              dup1\n                /* \"#utility.yul\":13392:13401   */\n              not\n                /* \"#utility.yul\":13385:13390   */\n              dup5\n                /* \"#utility.yul\":13381:13402   */\n              and\n                /* \"#utility.yul\":13372:13402   */\n              swap4\n              pop\n                /* \"#utility.yul\":13445:13449   */\n              dup1\n                /* \"#utility.yul\":13435:13443   */\n              dup7\n                /* \"#utility.yul\":13431:13450   */\n              and\n                /* \"#utility.yul\":13424:13429   */\n              dup5\n                /* \"#utility.yul\":13421:13451   */\n              or\n                /* \"#utility.yul\":13411:13451   */\n              swap3\n              pop\n                /* \"#utility.yul\":13140:13457   */\n              pop\n              pop\n                /* \"#utility.yul\":13064:13457   */\n              swap4\n              swap3\n              pop\n              pop\n              pop\n              jump\t// out\n                /* \"#utility.yul\":13463:13523   */\n            tag_223:\n                /* \"#utility.yul\":13491:13494   */\n              0x00\n                /* \"#utility.yul\":13512:13517   */\n              dup2\n                /* \"#utility.yul\":13505:13517   */\n              swap1\n              pop\n                /* \"#utility.yul\":13463:13523   */\n              swap2\n              swap1\n              pop\n              jump\t// out\n                /* \"#utility.yul\":13529:13671   */\n            tag_224:\n                /* \"#utility.yul\":13579:13588   */\n              0x00\n                /* \"#utility.yul\":13612:13665   */\n              tag_379\n                /* \"#utility.yul\":13630:13664   */\n              tag_380\n                /* \"#utility.yul\":13639:13663   */\n              tag_381\n                /* \"#utility.yul\":13657:13662   */\n              dup5\n                /* \"#utility.yul\":13639:13663   */\n              tag_181\n              jump\t// in\n            tag_381:\n                /* \"#utility.yul\":13630:13664   */\n              tag_223\n              jump\t// in\n            tag_380:\n                /* \"#utility.yul\":13612:13665   */\n              tag_181\n              jump\t// in\n            tag_379:\n                /* \"#utility.yul\":13599:13665   */\n              swap1\n              pop\n                /* \"#utility.yul\":13529:13671   */\n              swap2\n              swap1\n              pop\n              jump\t// out\n                /* \"#utility.yul\":13677:13752   */\n            tag_225:\n                /* \"#utility.yul\":13720:13723   */\n              0x00\n                /* \"#utility.yul\":13741:13746   */\n              dup2\n                /* \"#utility.yul\":13734:13746   */\n              swap1\n              pop\n                /* \"#utility.yul\":13677:13752   */\n              swap2\n              swap1\n              pop\n              jump\t// out\n                /* \"#utility.yul\":13758:14027   */\n            tag_226:\n                /* \"#utility.yul\":13868:13907   */\n              tag_384\n                /* \"#utility.yul\":13899:13906   */\n              dup4\n                /* \"#utility.yul\":13868:13907   */\n              tag_224\n              jump\t// in\n            tag_384:\n                /* \"#utility.yul\":13929:14020   */\n              tag_385\n                /* \"#utility.yul\":13978:14019   */\n              tag_386\n                /* \"#utility.yul\":14002:14018   */\n              dup3\n                /* \"#utility.yul\":13978:14019   */\n              tag_225\n              jump\t// in\n            tag_386:\n                /* \"#utility.yul\":13970:13976   */\n              dup5\n                /* \"#utility.yul\":13963:13967   */\n              dup5\n                /* \"#utility.yul\":13957:13968   */\n              sload\n                /* \"#utility.yul\":13929:14020   */\n              tag_222\n              jump\t// in\n            tag_385:\n                /* \"#utility.yul\":13923:13927   */\n              dup3\n                /* \"#utility.yul\":13916:14021   */\n              sstore\n                /* \"#utility.yul\":13834:14027   */\n              pop\n                /* \"#utility.yul\":13758:14027   */\n              pop\n              pop\n              pop\n              jump\t// out\n                /* \"#utility.yul\":14033:14106   */\n            tag_227:\n                /* \"#utility.yul\":14078:14081   */\n              0x00\n                /* \"#utility.yul\":14033:14106   */\n              swap1\n              jump\t// out\n                /* \"#utility.yul\":14112:14301   */\n            tag_228:\n                /* \"#utility.yul\":14189:14221   */\n              tag_389\n              tag_227\n              jump\t// in\n            tag_389:\n                /* \"#utility.yul\":14230:14295   */\n              tag_390\n                /* \"#utility.yul\":14288:14294   */\n              dup2\n                /* \"#utility.yul\":14280:14286   */\n              dup5\n                /* \"#utility.yul\":14274:14278   */\n              dup5\n                /* \"#utility.yul\":14230:14295   */\n              tag_226\n              jump\t// in\n            tag_390:\n                /* \"#utility.yul\":14165:14301   */\n              pop\n                /* \"#utility.yul\":14112:14301   */\n              pop\n              pop\n              jump\t// out\n                /* \"#utility.yul\":14307:14493   */\n            tag_229:\n                /* \"#utility.yul\":14367:14487   */\n            tag_392:\n                /* \"#utility.yul\":14384:14387   */\n              dup2\n                /* \"#utility.yul\":14377:14382   */\n              dup2\n                /* \"#utility.yul\":14374:14388   */\n              lt\n                /* \"#utility.yul\":14367:14487   */\n              iszero\n              tag_394\n              jumpi\n                /* \"#utility.yul\":14438:14477   */\n              tag_395\n                /* \"#utility.yul\":14475:14476   */\n              0x00\n                /* \"#utility.yul\":14468:14473   */\n              dup3\n                /* \"#utility.yul\":14438:14477   */\n              tag_228\n              jump\t// in\n            tag_395:\n                /* \"#utility.yul\":14411:14412   */\n              0x01\n                /* \"#utility.yul\":14404:14409   */\n              dup2\n                /* \"#utility.yul\":14400:14413   */\n              add\n                /* \"#utility.yul\":14391:14413   */\n              swap1\n              pop\n                /* \"#utility.yul\":14367:14487   */\n              jump(tag_392)\n            tag_394:\n                /* \"#utility.yul\":14307:14493   */\n              pop\n              pop\n              jump\t// out\n                /* \"#utility.yul\":14499:15042   */\n            tag_230:\n                /* \"#utility.yul\":14600:14602   */\n              0x1f\n                /* \"#utility.yul\":14595:14598   */\n              dup3\n                /* \"#utility.yul\":14592:14603   */\n              gt\n                /* \"#utility.yul\":14589:15035   */\n              iszero\n              tag_397\n              jumpi\n                /* \"#utility.yul\":14634:14672   */\n              tag_398\n                /* \"#utility.yul\":14666:14671   */\n              dup2\n                /* \"#utility.yul\":14634:14672   */\n              tag_219\n              jump\t// in\n            tag_398:\n                /* \"#utility.yul\":14718:14747   */\n              tag_399\n                /* \"#utility.yul\":14736:14746   */\n              dup5\n                /* \"#utility.yul\":14718:14747   */\n              tag_220\n              jump\t// in\n            tag_399:\n                /* \"#utility.yul\":14708:14716   */\n              dup2\n                /* \"#utility.yul\":14704:14748   */\n              add\n                /* \"#utility.yul\":14901:14903   */\n              0x20\n                /* \"#utility.yul\":14889:14899   */\n              dup6\n                /* \"#utility.yul\":14886:14904   */\n              lt\n                /* \"#utility.yul\":14883:14932   */\n              iszero\n              tag_400\n              jumpi\n                /* \"#utility.yul\":14922:14930   */\n              dup2\n                /* \"#utility.yul\":14907:14930   */\n              swap1\n              pop\n                /* \"#utility.yul\":14883:14932   */\n            tag_400:\n                /* \"#utility.yul\":14945:15025   */\n              tag_401\n                /* \"#utility.yul\":15001:15023   */\n              tag_402\n                /* \"#utility.yul\":15019:15022   */\n              dup6\n                /* \"#utility.yul\":15001:15023   */\n              tag_220\n              jump\t// in\n            tag_402:\n                /* \"#utility.yul\":14991:14999   */\n              dup4\n                /* \"#utility.yul\":14987:15024   */\n              add\n                /* \"#utility.yul\":14974:14985   */\n              dup3\n                /* \"#utility.yul\":14945:15025   */\n              tag_229\n              jump\t// in\n            tag_401:\n                /* \"#utility.yul\":14604:15035   */\n              pop\n              pop\n                /* \"#utility.yul\":14589:15035   */\n            tag_397:\n                /* \"#utility.yul\":14499:15042   */\n              pop\n              pop\n              pop\n              jump\t// out\n                /* \"#utility.yul\":15048:15165   */\n            tag_231:\n                /* \"#utility.yul\":15102:15110   */\n              0x00\n                /* \"#utility.yul\":15152:15157   */\n              dup3\n                /* \"#utility.yul\":15146:15150   */\n              dup3\n                /* \"#utility.yul\":15142:15158   */\n              shr\n                /* \"#utility.yul\":15121:15158   */\n              swap1\n              pop\n                /* \"#utility.yul\":15048:15165   */\n              swap3\n              swap2\n              pop\n              pop\n              jump\t// out\n                /* \"#utility.yul\":15171:15340   */\n            tag_232:\n                /* \"#utility.yul\":15215:15221   */\n              0x00\n                /* \"#utility.yul\":15248:15299   */\n              tag_405\n                /* \"#utility.yul\":15296:15297   */\n              0x00\n                /* \"#utility.yul\":15292:15298   */\n              not\n                /* \"#utility.yul\":15284:15289   */\n              dup5\n                /* \"#utility.yul\":15281:15282   */\n              0x08\n                /* \"#utility.yul\":15277:15290   */\n              mul\n                /* \"#utility.yul\":15248:15299   */\n              tag_231\n              jump\t// in\n            tag_405:\n                /* \"#utility.yul\":15244:15300   */\n              not\n                /* \"#utility.yul\":15329:15333   */\n              dup1\n                /* \"#utility.yul\":15323:15327   */\n              dup4\n                /* \"#utility.yul\":15319:15334   */\n              and\n                /* \"#utility.yul\":15309:15334   */\n              swap2\n              pop\n                /* \"#utility.yul\":15222:15340   */\n              pop\n                /* \"#utility.yul\":15171:15340   */\n              swap3\n              swap2\n              pop\n              pop\n              jump\t// out\n                /* \"#utility.yul\":15345:15640   */\n            tag_233:\n                /* \"#utility.yul\":15421:15425   */\n              0x00\n                /* \"#utility.yul\":15567:15596   */\n              tag_407\n                /* \"#utility.yul\":15592:15595   */\n              dup4\n                /* \"#utility.yul\":15586:15590   */\n              dup4\n                /* \"#utility.yul\":15567:15596   */\n              tag_232\n              jump\t// in\n            tag_407:\n                /* \"#utility.yul\":15559:15596   */\n              swap2\n              pop\n                /* \"#utility.yul\":15629:15632   */\n              dup3\n                /* \"#utility.yul\":15626:15627   */\n              0x02\n                /* \"#utility.yul\":15622:15633   */\n              mul\n                /* \"#utility.yul\":15616:15620   */\n              dup3\n                /* \"#utility.yul\":15613:15634   */\n              or\n                /* \"#utility.yul\":15605:15634   */\n              swap1\n              pop\n                /* \"#utility.yul\":15345:15640   */\n              swap3\n              swap2\n              pop\n              pop\n              jump\t// out\n                /* \"#utility.yul\":15645:17040   */\n            tag_92:\n                /* \"#utility.yul\":15762:15799   */\n              tag_409\n                /* \"#utility.yul\":15795:15798   */\n              dup3\n                /* \"#utility.yul\":15762:15799   */\n              tag_197\n              jump\t// in\n            tag_409:\n                /* \"#utility.yul\":15864:15882   */\n              0xffffffffffffffff\n                /* \"#utility.yul\":15856:15862   */\n              dup2\n                /* \"#utility.yul\":15853:15883   */\n              gt\n                /* \"#utility.yul\":15850:15906   */\n              iszero\n              tag_410\n              jumpi\n                /* \"#utility.yul\":15886:15904   */\n              tag_411\n              tag_125\n              jump\t// in\n            tag_411:\n                /* \"#utility.yul\":15850:15906   */\n            tag_410:\n                /* \"#utility.yul\":15930:15968   */\n              tag_412\n                /* \"#utility.yul\":15962:15966   */\n              dup3\n                /* \"#utility.yul\":15956:15967   */\n              sload\n                /* \"#utility.yul\":15930:15968   */\n              tag_117\n              jump\t// in\n            tag_412:\n                /* \"#utility.yul\":16015:16082   */\n              tag_413\n                /* \"#utility.yul\":16075:16081   */\n              dup3\n                /* \"#utility.yul\":16067:16073   */\n              dup3\n                /* \"#utility.yul\":16061:16065   */\n              dup6\n                /* \"#utility.yul\":16015:16082   */\n              tag_230\n              jump\t// in\n            tag_413:\n                /* \"#utility.yul\":16109:16110   */\n              0x00\n                /* \"#utility.yul\":16133:16137   */\n              0x20\n                /* \"#utility.yul\":16120:16137   */\n              swap1\n              pop\n                /* \"#utility.yul\":16165:16167   */\n              0x1f\n                /* \"#utility.yul\":16157:16163   */\n              dup4\n                /* \"#utility.yul\":16154:16168   */\n              gt\n                /* \"#utility.yul\":16182:16183   */\n              0x01\n                /* \"#utility.yul\":16177:16795   */\n              dup2\n              eq\n              tag_415\n              jumpi\n                /* \"#utility.yul\":16839:16840   */\n              0x00\n                /* \"#utility.yul\":16856:16862   */\n              dup5\n                /* \"#utility.yul\":16853:16930   */\n              iszero\n              tag_416\n              jumpi\n                /* \"#utility.yul\":16905:16914   */\n              dup3\n                /* \"#utility.yul\":16900:16903   */\n              dup8\n                /* \"#utility.yul\":16896:16915   */\n              add\n                /* \"#utility.yul\":16890:16916   */\n              mload\n                /* \"#utility.yul\":16881:16916   */\n              swap1\n              pop\n                /* \"#utility.yul\":16853:16930   */\n            tag_416:\n                /* \"#utility.yul\":16956:17023   */\n              tag_417\n                /* \"#utility.yul\":17016:17022   */\n              dup6\n                /* \"#utility.yul\":17009:17014   */\n              dup3\n                /* \"#utility.yul\":16956:17023   */\n              tag_233\n              jump\t// in\n            tag_417:\n                /* \"#utility.yul\":16950:16954   */\n              dup7\n                /* \"#utility.yul\":16943:17024   */\n              sstore\n                /* \"#utility.yul\":16812:17034   */\n              pop\n                /* \"#utility.yul\":16147:17034   */\n              jump(tag_414)\n                /* \"#utility.yul\":16177:16795   */\n            tag_415:\n                /* \"#utility.yul\":16229:16233   */\n              0x1f\n                /* \"#utility.yul\":16225:16234   */\n              not\n                /* \"#utility.yul\":16217:16223   */\n              dup5\n                /* \"#utility.yul\":16213:16235   */\n              and\n                /* \"#utility.yul\":16263:16300   */\n              tag_418\n                /* \"#utility.yul\":16295:16299   */\n              dup7\n                /* \"#utility.yul\":16263:16300   */\n              tag_219\n              jump\t// in\n            tag_418:\n                /* \"#utility.yul\":16322:16323   */\n              0x00\n                /* \"#utility.yul\":16336:16544   */\n            tag_419:\n                /* \"#utility.yul\":16350:16357   */\n              dup3\n                /* \"#utility.yul\":16347:16348   */\n              dup2\n                /* \"#utility.yul\":16344:16358   */\n              lt\n                /* \"#utility.yul\":16336:16544   */\n              iszero\n              tag_421\n              jumpi\n                /* \"#utility.yul\":16429:16438   */\n              dup5\n                /* \"#utility.yul\":16424:16427   */\n              dup10\n                /* \"#utility.yul\":16420:16439   */\n              add\n                /* \"#utility.yul\":16414:16440   */\n              mload\n                /* \"#utility.yul\":16406:16412   */\n              dup3\n                /* \"#utility.yul\":16399:16441   */\n              sstore\n                /* \"#utility.yul\":16480:16481   */\n              0x01\n                /* \"#utility.yul\":16472:16478   */\n              dup3\n                /* \"#utility.yul\":16468:16482   */\n              add\n                /* \"#utility.yul\":16458:16482   */\n              swap2\n              pop\n                /* \"#utility.yul\":16527:16529   */\n              0x20\n                /* \"#utility.yul\":16516:16525   */\n              dup6\n                /* \"#utility.yul\":16512:16530   */\n              add\n                /* \"#utility.yul\":16499:16530   */\n              swap5\n              pop\n                /* \"#utility.yul\":16373:16377   */\n              0x20\n                /* \"#utility.yul\":16370:16371   */\n              dup2\n                /* \"#utility.yul\":16366:16378   */\n              add\n                /* \"#utility.yul\":16361:16378   */\n              swap1\n              pop\n                /* \"#utility.yul\":16336:16544   */\n              jump(tag_419)\n            tag_421:\n                /* \"#utility.yul\":16572:16578   */\n              dup7\n                /* \"#utility.yul\":16563:16570   */\n              dup4\n                /* \"#utility.yul\":16560:16579   */\n              lt\n                /* \"#utility.yul\":16557:16736   */\n              iszero\n              tag_422\n              jumpi\n                /* \"#utility.yul\":16630:16639   */\n              dup5\n                /* \"#utility.yul\":16625:16628   */\n              dup10\n                /* \"#utility.yul\":16621:16640   */\n              add\n                /* \"#utility.yul\":16615:16641   */\n              mload\n                /* \"#utility.yul\":16673:16721   */\n              tag_423\n                /* \"#utility.yul\":16715:16719   */\n              0x1f\n                /* \"#utility.yul\":16707:16713   */\n              dup10\n                /* \"#utility.yul\":16703:16720   */\n              and\n                /* \"#utility.yul\":16692:16701   */\n              dup3\n                /* \"#utility.yul\":16673:16721   */\n              tag_232\n              jump\t// in\n            tag_423:\n                /* \"#utility.yul\":16665:16671   */\n              dup4\n                /* \"#utility.yul\":16658:16722   */\n              sstore\n                /* \"#utility.yul\":16580:16736   */\n              pop\n                /* \"#utility.yul\":16557:16736   */\n            tag_422:\n                /* \"#utility.yul\":16782:16783   */\n              0x01\n                /* \"#utility.yul\":16778:16779   */\n              0x02\n                /* \"#utility.yul\":16770:16776   */\n              dup9\n                /* \"#utility.yul\":16766:16780   */\n              mul\n                /* \"#utility.yul\":16762:16784   */\n              add\n                /* \"#utility.yul\":16756:16760   */\n              dup9\n                /* \"#utility.yul\":16749:16785   */\n              sstore\n                /* \"#utility.yul\":16184:16795   */\n              pop\n              pop\n              pop\n                /* \"#utility.yul\":16147:17034   */\n            tag_414:\n              pop\n                /* \"#utility.yul\":15737:17040   */\n              pop\n              pop\n              pop\n                /* \"#utility.yul\":15645:17040   */\n              pop\n              pop\n              jump\t// out\n                /* \"#utility.yul\":17046:17224   */\n            tag_234:\n                /* \"#utility.yul\":17186:17216   */\n              0x5573657220646563656173656420697320616c72656164792073657400000000\n                /* \"#utility.yul\":17182:17183   */\n              0x00\n                /* \"#utility.yul\":17174:17180   */\n              dup3\n                /* \"#utility.yul\":17170:17184   */\n              add\n                /* \"#utility.yul\":17163:17217   */\n              mstore\n                /* \"#utility.yul\":17046:17224   */\n              pop\n              jump\t// out\n                /* \"#utility.yul\":17230:17596   */\n            tag_235:\n                /* \"#utility.yul\":17372:17375   */\n              0x00\n                /* \"#utility.yul\":17393:17460   */\n              tag_426\n                /* \"#utility.yul\":17457:17459   */\n              0x1c\n                /* \"#utility.yul\":17452:17455   */\n              dup4\n                /* \"#utility.yul\":17393:17460   */\n              tag_198\n              jump\t// in\n            tag_426:\n                /* \"#utility.yul\":17386:17460   */\n              swap2\n              pop\n                /* \"#utility.yul\":17469:17562   */\n              tag_427\n                /* \"#utility.yul\":17558:17561   */\n              dup3\n                /* \"#utility.yul\":17469:17562   */\n              tag_234\n              jump\t// in\n            tag_427:\n                /* \"#utility.yul\":17587:17589   */\n              0x20\n                /* \"#utility.yul\":17582:17585   */\n              dup3\n                /* \"#utility.yul\":17578:17590   */\n              add\n                /* \"#utility.yul\":17571:17590   */\n              swap1\n              pop\n                /* \"#utility.yul\":17230:17596   */\n              swap2\n              swap1\n              pop\n              jump\t// out\n                /* \"#utility.yul\":17602:18021   */\n            tag_148:\n                /* \"#utility.yul\":17768:17772   */\n              0x00\n                /* \"#utility.yul\":17806:17808   */\n              0x20\n                /* \"#utility.yul\":17795:17804   */\n              dup3\n                /* \"#utility.yul\":17791:17809   */\n              add\n                /* \"#utility.yul\":17783:17809   */\n              swap1\n              pop\n                /* \"#utility.yul\":17855:17864   */\n              dup2\n                /* \"#utility.yul\":17849:17853   */\n              dup2\n                /* \"#utility.yul\":17845:17865   */\n              sub\n                /* \"#utility.yul\":17841:17842   */\n              0x00\n                /* \"#utility.yul\":17830:17839   */\n              dup4\n                /* \"#utility.yul\":17826:17843   */\n              add\n                /* \"#utility.yul\":17819:17866   */\n              mstore\n                /* \"#utility.yul\":17883:18014   */\n              tag_429\n                /* \"#utility.yul\":18009:18013   */\n              dup2\n                /* \"#utility.yul\":17883:18014   */\n              tag_235\n              jump\t// in\n            tag_429:\n                /* \"#utility.yul\":17875:18014   */\n              swap1\n              pop\n                /* \"#utility.yul\":17602:18021   */\n              swap2\n              swap1\n              pop\n              jump\t// out\n\n            auxdata: 0xa2646970667358221220694e76c051faf0f7dac3617a695597542352385a43785c0e828885e994c21c3c64736f6c63430008170033\n        }\n    }\n\n    auxdata: 0xa2646970667358221220e3121d1a17a7320f2a2de8ecf87c9cd6a819ba7e8d1df8a86d1dbc395c0fb5d364736f6c63430008170033\n}\n",
				"bytecode": {
					"linkReferences": {},
					"object": "608060405234801561001057600080fd5b50336000806101000a81548173ffffffffffffffffffffffffffffffffffffffff021916908373ffffffffffffffffffffffffffffffffffffffff1602179055506136e1806100606000396000f3fe60806040523480156200001157600080fd5b5060043610620000ac5760003560e01c8063947fd5c3116200006f578063947fd5c3146200016b578063990b4ec5146200018b578063a50dfd7814620001ab578063d43b8fab14620001cb578063eb9cbe7a14620001eb57620000ac565b806304740a1714620000b15780631440a7f214620000d35780632113277714620000f35780632661317e14620001295780638da5cb5b1462000149575b600080fd5b620000bb6200020b565b604051620000ca919062001461565b60405180910390f35b620000f16004803603810190620000eb9190620014ca565b6200035f565b005b6200011160048036038101906200010b919062001511565b62000595565b60405162000120919062001588565b60405180910390f35b620001476004803603810190620001419190620014ca565b620005c8565b005b62000153620007fe565b60405162000162919062001588565b60405180910390f35b62000189600480360381019062000183919062001511565b62000822565b005b620001a96004803603810190620001a3919062001707565b62000a4a565b005b620001c96004803603810190620001c3919062001782565b62000c83565b005b620001e96004803603810190620001e3919062001825565b62000e23565b005b62000209600480360381019062000203919062001511565b6200105f565b005b6060600060018054905067ffffffffffffffff811115620002315762000230620015c0565b5b604051908082528060200260200182016040528015620002605781602001602082028036833780820191505090505b50905060005b6001805490508110156200035757600181815481106200028b576200028a62001897565b5b9060005260206000200160009054906101000a900473ffffffffffffffffffffffffffffffffffffffff1673ffffffffffffffffffffffffffffffffffffffff1663589759196040518163ffffffff1660e01b8152600401602060405180830381865afa15801562000301573d6000803e3d6000fd5b505050506040513d601f19601f82011682018060405250810190620003279190620018dd565b8282815181106200033d576200033c62001897565b5b602002602001018181525050808060010191505062000266565b508091505090565b60008054906101000a900473ffffffffffffffffffffffffffffffffffffffff1673ffffffffffffffffffffffffffffffffffffffff163373ffffffffffffffffffffffffffffffffffffffff1614620003b857600080fd5b620003c38262001287565b1562000406576040517f08c379a0000000000000000000000000000000000000000000000000000000008152600401620003fd9062001970565b60405180910390fd5b60005b600180549050811015620005905782600182815481106200042f576200042e62001897565b5b9060005260206000200160009054906101000a900473ffffffffffffffffffffffffffffffffffffffff1673ffffffffffffffffffffffffffffffffffffffff1663589759196040518163ffffffff1660e01b8152600401602060405180830381865afa158015620004a5573d6000803e3d6000fd5b505050506040513d601f19601f82011682018060405250810190620004cb9190620018dd565b03620005825760018181548110620004e857620004e762001897565b5b9060005260206000200160009054906101000a900473ffffffffffffffffffffffffffffffffffffffff1673ffffffffffffffffffffffffffffffffffffffff1663fc68b3ed836040518263ffffffff1660e01b81526004016200054d9190620019a3565b600060405180830381600087803b1580156200056857600080fd5b505af11580156200057d573d6000803e3d6000fd5b505050505b808060010191505062000409565b505050565b60026020528060005260406000206000915054906101000a900473ffffffffffffffffffffffffffffffffffffffff1681565b60008054906101000a900473ffffffffffffffffffffffffffffffffffffffff1673ffffffffffffffffffffffffffffffffffffffff163373ffffffffffffffffffffffffffffffffffffffff16146200062157600080fd5b6200062c8262001287565b156200066f576040517f08c379a0000000000000000000000000000000000000000000000000000000008152600401620006669062001970565b60405180910390fd5b60005b600180549050811015620007f957826001828154811062000698576200069762001897565b5b9060005260206000200160009054906101000a900473ffffffffffffffffffffffffffffffffffffffff1673ffffffffffffffffffffffffffffffffffffffff1663589759196040518163ffffffff1660e01b8152600401602060405180830381865afa1580156200070e573d6000803e3d6000fd5b505050506040513d601f19601f82011682018060405250810190620007349190620018dd565b03620007eb576001818154811062000751576200075062001897565b5b9060005260206000200160009054906101000a900473ffffffffffffffffffffffffffffffffffffffff1673ffffffffffffffffffffffffffffffffffffffff1663e5a72d5b836040518263ffffffff1660e01b8152600401620007b69190620019a3565b600060405180830381600087803b158015620007d157600080fd5b505af1158015620007e6573d6000803e3d6000fd5b505050505b808060010191505062000672565b505050565b60008054906101000a900473ffffffffffffffffffffffffffffffffffffffff1681565b60008054906101000a900473ffffffffffffffffffffffffffffffffffffffff1673ffffffffffffffffffffffffffffffffffffffff163373ffffffffffffffffffffffffffffffffffffffff16146200087b57600080fd5b620008868162001287565b15620008c9576040517f08c379a0000000000000000000000000000000000000000000000000000000008152600401620008c09062001970565b60405180910390fd5b60005b60018054905081101562000a46578160018281548110620008f257620008f162001897565b5b9060005260206000200160009054906101000a900473ffffffffffffffffffffffffffffffffffffffff1673ffffffffffffffffffffffffffffffffffffffff1663589759196040518163ffffffff1660e01b8152600401602060405180830381865afa15801562000968573d6000803e3d6000fd5b505050506040513d601f19601f820116820180604052508101906200098e9190620018dd565b0362000a385760018181548110620009ab57620009aa62001897565b5b9060005260206000200160009054906101000a900473ffffffffffffffffffffffffffffffffffffffff1673ffffffffffffffffffffffffffffffffffffffff1663ac3ef22d6040518163ffffffff1660e01b8152600401600060405180830381600087803b15801562000a1e57600080fd5b505af115801562000a33573d6000803e3d6000fd5b505050505b8080600101915050620008cc565b5050565b60008054906101000a900473ffffffffffffffffffffffffffffffffffffffff1673ffffffffffffffffffffffffffffffffffffffff163373ffffffffffffffffffffffffffffffffffffffff161462000aa357600080fd5b62000aae8362001287565b1562000af1576040517f08c379a000000000000000000000000000000000000000000000000000000000815260040162000ae89062001970565b60405180910390fd5b60005b60018054905081101562000c7d57836001828154811062000b1a5762000b1962001897565b5b9060005260206000200160009054906101000a900473ffffffffffffffffffffffffffffffffffffffff1673ffffffffffffffffffffffffffffffffffffffff1663589759196040518163ffffffff1660e01b8152600401602060405180830381865afa15801562000b90573d6000803e3d6000fd5b505050506040513d601f19601f8201168201806040525081019062000bb69190620018dd565b0362000c6f576001818154811062000bd35762000bd262001897565b5b9060005260206000200160009054906101000a900473ffffffffffffffffffffffffffffffffffffffff1673ffffffffffffffffffffffffffffffffffffffff16633121924d84846040518363ffffffff1660e01b815260040162000c3a92919062001a38565b600060405180830381600087803b15801562000c5557600080fd5b505af115801562000c6a573d6000803e3d6000fd5b505050505b808060010191505062000af4565b50505050565b60008054906101000a900473ffffffffffffffffffffffffffffffffffffffff1673ffffffffffffffffffffffffffffffffffffffff163373ffffffffffffffffffffffffffffffffffffffff161462000cdc57600080fd5b62000ce78262001287565b1562000d2a576040517f08c379a000000000000000000000000000000000000000000000000000000000815260040162000d219062001970565b60405180910390fd5b6000828260405162000d3c906200137b565b62000d4992919062001a38565b604051809103906000f08015801562000d66573d6000803e3d6000fd5b5090506001819080600181540180825580915050600190039060005260206000200160009091909190916101000a81548173ffffffffffffffffffffffffffffffffffffffff021916908373ffffffffffffffffffffffffffffffffffffffff160217905550806002600085815260200190815260200160002060006101000a81548173ffffffffffffffffffffffffffffffffffffffff021916908373ffffffffffffffffffffffffffffffffffffffff160217905550505050565b60008054906101000a900473ffffffffffffffffffffffffffffffffffffffff1673ffffffffffffffffffffffffffffffffffffffff163373ffffffffffffffffffffffffffffffffffffffff161462000e7c57600080fd5b62000e878462001287565b1562000eca576040517f08c379a000000000000000000000000000000000000000000000000000000000815260040162000ec19062001970565b60405180910390fd5b60005b6001805490508110156200105857846001828154811062000ef35762000ef262001897565b5b9060005260206000200160009054906101000a900473ffffffffffffffffffffffffffffffffffffffff1673ffffffffffffffffffffffffffffffffffffffff1663589759196040518163ffffffff1660e01b8152600401602060405180830381865afa15801562000f69573d6000803e3d6000fd5b505050506040513d601f19601f8201168201806040525081019062000f8f9190620018dd565b036200104a576001818154811062000fac5762000fab62001897565b5b9060005260206000200160009054906101000a900473ffffffffffffffffffffffffffffffffffffffff1673ffffffffffffffffffffffffffffffffffffffff166338fcbc018585856040518463ffffffff1660e01b8152600401620010159392919062001a7d565b600060405180830381600087803b1580156200103057600080fd5b505af115801562001045573d6000803e3d6000fd5b505050505b808060010191505062000ecd565b5050505050565b60008054906101000a900473ffffffffffffffffffffffffffffffffffffffff1673ffffffffffffffffffffffffffffffffffffffff163373ffffffffffffffffffffffffffffffffffffffff1614620010b857600080fd5b620010c38162001287565b1562001106576040517f08c379a0000000000000000000000000000000000000000000000000000000008152600401620010fd9062001970565b60405180910390fd5b60005b600180549050811015620012835781600182815481106200112f576200112e62001897565b5b9060005260206000200160009054906101000a900473ffffffffffffffffffffffffffffffffffffffff1673ffffffffffffffffffffffffffffffffffffffff1663589759196040518163ffffffff1660e01b8152600401602060405180830381865afa158015620011a5573d6000803e3d6000fd5b505050506040513d601f19601f82011682018060405250810190620011cb9190620018dd565b03620012755760018181548110620011e857620011e762001897565b5b9060005260206000200160009054906101000a900473ffffffffffffffffffffffffffffffffffffffff1673ffffffffffffffffffffffffffffffffffffffff166335254bcd6040518163ffffffff1660e01b8152600401600060405180830381600087803b1580156200125b57600080fd5b505af115801562001270573d6000803e3d6000fd5b505050505b808060010191505062001109565b5050565b600080600090505b60018054905081101562001370578260018281548110620012b557620012b462001897565b5b9060005260206000200160009054906101000a900473ffffffffffffffffffffffffffffffffffffffff1673ffffffffffffffffffffffffffffffffffffffff1663589759196040518163ffffffff1660e01b8152600401602060405180830381865afa1580156200132b573d6000803e3d6000fd5b505050506040513d601f19601f82011682018060405250810190620013519190620018dd565b036200136257600191505062001376565b80806001019150506200128f565b50600090505b919050565b611bf18062001abb83390190565b600081519050919050565b600082825260208201905092915050565b6000819050602082019050919050565b6000819050919050565b620013ca81620013b5565b82525050565b6000620013de8383620013bf565b60208301905092915050565b6000602082019050919050565b6000620014048262001389565b62001410818562001394565b93506200141d83620013a5565b8060005b8381101562001454578151620014388882620013d0565b97506200144583620013ea565b92505060018101905062001421565b5085935050505092915050565b600060208201905081810360008301526200147d8184620013f7565b905092915050565b6000604051905090565b600080fd5b600080fd5b620014a481620013b5565b8114620014b057600080fd5b50565b600081359050620014c48162001499565b92915050565b60008060408385031215620014e457620014e36200148f565b5b6000620014f485828601620014b3565b92505060206200150785828601620014b3565b9150509250929050565b6000602082840312156200152a57620015296200148f565b5b60006200153a84828501620014b3565b91505092915050565b600073ffffffffffffffffffffffffffffffffffffffff82169050919050565b6000620015708262001543565b9050919050565b620015828162001563565b82525050565b60006020820190506200159f600083018462001577565b92915050565b600080fd5b600080fd5b6000601f19601f8301169050919050565b7f4e487b7100000000000000000000000000000000000000000000000000000000600052604160045260246000fd5b620015fa82620015af565b810181811067ffffffffffffffff821117156200161c576200161b620015c0565b5b80604052505050565b60006200163162001485565b90506200163f8282620015ef565b919050565b600067ffffffffffffffff821115620016625762001661620015c0565b5b6200166d82620015af565b9050602081019050919050565b82818337600083830152505050565b6000620016a06200169a8462001644565b62001625565b905082815260208101848484011115620016bf57620016be620015aa565b5b620016cc8482856200167a565b509392505050565b600082601f830112620016ec57620016eb620015a5565b5b8135620016fe84826020860162001689565b91505092915050565b6000806000606084860312156200172357620017226200148f565b5b60006200173386828701620014b3565b93505060206200174686828701620014b3565b925050604084013567ffffffffffffffff8111156200176a576200176962001494565b5b6200177886828701620016d4565b9150509250925092565b600080604083850312156200179c576200179b6200148f565b5b6000620017ac85828601620014b3565b925050602083013567ffffffffffffffff811115620017d057620017cf62001494565b5b620017de85828601620016d4565b9150509250929050565b60008115159050919050565b620017ff81620017e8565b81146200180b57600080fd5b50565b6000813590506200181f81620017f4565b92915050565b600080600080608085870312156200184257620018416200148f565b5b60006200185287828801620014b3565b94505060206200186587828801620014b3565b935050604062001878878288016200180e565b92505060606200188b878288016200180e565b91505092959194509250565b7f4e487b7100000000000000000000000000000000000000000000000000000000600052603260045260246000fd5b600081519050620018d78162001499565b92915050565b600060208284031215620018f657620018f56200148f565b5b60006200190684828501620018c6565b91505092915050565b600082825260208201905092915050565b7f5573657220616c72656164792065786973740000000000000000000000000000600082015250565b6000620019586012836200190f565b9150620019658262001920565b602082019050919050565b600060208201905081810360008301526200198b8162001949565b9050919050565b6200199d81620013b5565b82525050565b6000602082019050620019ba600083018462001992565b92915050565b600081519050919050565b60005b83811015620019eb578082015181840152602081019050620019ce565b60008484015250505050565b600062001a0482620019c0565b62001a1081856200190f565b935062001a22818560208601620019cb565b62001a2d81620015af565b840191505092915050565b600060408201905062001a4f600083018562001992565b818103602083015262001a638184620019f7565b90509392505050565b62001a7781620017e8565b82525050565b600060608201905062001a94600083018662001992565b62001aa3602083018562001a6c565b62001ab2604083018462001a6c565b94935050505056fe60806040523480156200001157600080fd5b5060405162001bf138038062001bf18339818101604052810190620000379190620002d6565b816001819055506001600360016101000a81548160ff021916908360018111156200006757620000666200033c565b5b021790555080600290816200007d9190620005ac565b506000600360006101000a81548160ff02191690831515021790555060005b600480549050811015620000ff576040518060200160405280600081525060048281548110620000d157620000d062000693565b5b90600052602060002090600302016001019081620000f09190620005ac565b5080806001019150506200009c565b505050620006c2565b6000604051905090565b600080fd5b600080fd5b6000819050919050565b62000131816200011c565b81146200013d57600080fd5b50565b600081519050620001518162000126565b92915050565b600080fd5b600080fd5b6000601f19601f8301169050919050565b7f4e487b7100000000000000000000000000000000000000000000000000000000600052604160045260246000fd5b620001ac8262000161565b810181811067ffffffffffffffff82111715620001ce57620001cd62000172565b5b80604052505050565b6000620001e362000108565b9050620001f18282620001a1565b919050565b600067ffffffffffffffff82111562000214576200021362000172565b5b6200021f8262000161565b9050602081019050919050565b60005b838110156200024c5780820151818401526020810190506200022f565b60008484015250505050565b60006200026f6200026984620001f6565b620001d7565b9050828152602081018484840111156200028e576200028d6200015c565b5b6200029b8482856200022c565b509392505050565b600082601f830112620002bb57620002ba62000157565b5b8151620002cd84826020860162000258565b91505092915050565b60008060408385031215620002f057620002ef62000112565b5b6000620003008582860162000140565b925050602083015167ffffffffffffffff81111562000324576200032362000117565b5b6200033285828601620002a3565b9150509250929050565b7f4e487b7100000000000000000000000000000000000000000000000000000000600052602160045260246000fd5b600081519050919050565b7f4e487b7100000000000000000000000000000000000000000000000000000000600052602260045260246000fd5b60006002820490506001821680620003be57607f821691505b602082108103620003d457620003d362000376565b5b50919050565b60008190508160005260206000209050919050565b60006020601f8301049050919050565b600082821b905092915050565b6000600883026200043e7fffffffffffffffffffffffffffffffffffffffffffffffffffffffffffffffff82620003ff565b6200044a8683620003ff565b95508019841693508086168417925050509392505050565b6000819050919050565b60006200048d6200048762000481846200011c565b62000462565b6200011c565b9050919050565b6000819050919050565b620004a9836200046c565b620004c1620004b88262000494565b8484546200040c565b825550505050565b600090565b620004d8620004c9565b620004e58184846200049e565b505050565b5b818110156200050d5762000501600082620004ce565b600181019050620004eb565b5050565b601f8211156200055c576200052681620003da565b6200053184620003ef565b8101602085101562000541578190505b620005596200055085620003ef565b830182620004ea565b50505b505050565b600082821c905092915050565b6000620005816000198460080262000561565b1980831691505092915050565b60006200059c83836200056e565b9150826002028217905092915050565b620005b7826200036b565b67ffffffffffffffff811115620005d357620005d262000172565b5b620005df8254620003a5565b620005ec82828562000511565b600060209050601f8311600181146200062457600084156200060f578287015190505b6200061b85826200058e565b8655506200068b565b601f1984166200063486620003da565b60005b828110156200065e5784890151825560018201915060208501945060208101905062000637565b868310156200067e57848901516200067a601f8916826200056e565b8355505b6001600288020188555050505b505050505050565b7f4e487b7100000000000000000000000000000000000000000000000000000000600052603260045260246000fd5b61151f80620006d26000396000f3fe608060405234801561001057600080fd5b50600436106100f55760003560e01c806384731d6f11610097578063ac3ef22d11610066578063ac3ef22d14610253578063b74513c11461025d578063e5a72d5b1461027b578063fc68b3ed14610297576100f5565b806384731d6f146101db5780638da5cb5b146101f9578063904c609414610217578063abcc7a6514610235576100f5565b806342be8cb5116100d357806342be8cb51461013c578063499ba0aa1461016c578063589759191461019f57806365a6bb29146101bd576100f5565b80633121924d146100fa57806335254bcd1461011657806338fcbc0114610120575b600080fd5b610114600480360381019061010f9190610ce1565b6102b3565b005b61011e61038b565b005b61013a60048036038101906101359190610d75565b6103fe565b005b61015660048036038101906101519190610dc8565b61051e565b6040516101639190610e04565b60405180910390f35b61018660048036038101906101819190610dc8565b610548565b6040516101969493929190610ead565b60405180910390f35b6101a761062a565b6040516101b49190610e04565b60405180910390f35b6101c5610630565b6040516101d29190610fb7565b60405180910390f35b6101e36106ea565b6040516101f09190611050565b60405180910390f35b6102016106fd565b60405161020e91906110ac565b60405180910390f35b61021f610721565b60405161022c91906110c7565b60405180910390f35b61023d6107af565b60405161024a91906110e9565b60405180910390f35b61025b6107c2565b005b6102656108ba565b6040516102729190610fb7565b60405180910390f35b61029560048036038101906102909190610dc8565b610978565b005b6102b160048036038101906102ac9190610dc8565b610a18565b005b60001515600360009054906101000a900460ff16151514610309576040517f08c379a000000000000000000000000000000000000000000000000000000000815260040161030090611150565b60405180910390fd5b60005b60048054905081101561038657826004828154811061032e5761032d611170565b5b9060005260206000209060030201600001540361037957816004828154811061035a57610359611170565b5b9060005260206000209060030201600101908161037791906113ab565b505b808060010191505061030c565b505050565b60001515600360009054906101000a900460ff161515146103e1576040517f08c379a00000000000000000000000000000000000000000000000000000000081526004016103d890611150565b60405180910390fd5b6001600360006101000a81548160ff021916908315150217905550565b60001515600360009054906101000a900460ff16151514610454576040517f08c379a000000000000000000000000000000000000000000000000000000000815260040161044b90611150565b60405180910390fd5b60005b60048054905081101561051857836004828154811061047957610478611170565b5b9060005260206000209060030201600001540361050b5782600482815481106104a5576104a4611170565b5b906000526020600020906003020160020160006101000a81548160ff02191690831515021790555081600482815481106104e2576104e1611170565b5b906000526020600020906003020160020160016101000a81548160ff0219169083151502179055505b8080600101915050610457565b50505050565b6005818154811061052e57600080fd5b906000526020600020016000915090508060000154905081565b6004818154811061055857600080fd5b9060005260206000209060030201600091509050806000015490806001018054610581906111ce565b80601f01602080910402602001604051908101604052809291908181526020018280546105ad906111ce565b80156105fa5780601f106105cf576101008083540402835291602001916105fa565b820191906000526020600020905b8154815290600101906020018083116105dd57829003601f168201915b5050505050908060020160009054906101000a900460ff16908060020160019054906101000a900460ff16905084565b60015481565b6060600060058054905067ffffffffffffffff81111561065357610652610bb6565b5b6040519080825280602002602001820160405280156106815781602001602082028036833780820191505090505b50905060005b6005805490508110156106e257600581815481106106a8576106a7611170565b5b90600052602060002001600001548282815181106106c9576106c8611170565b5b6020026020010181815250508080600101915050610687565b508091505090565b600360019054906101000a900460ff1681565b60008054906101000a900473ffffffffffffffffffffffffffffffffffffffff1681565b6002805461072e906111ce565b80601f016020809104026020016040519081016040528092919081815260200182805461075a906111ce565b80156107a75780601f1061077c576101008083540402835291602001916107a7565b820191906000526020600020905b81548152906001019060200180831161078a57829003601f168201915b505050505081565b600360009054906101000a900460ff1681565b6001808111156107d5576107d4610fd9565b5b600360019054906101000a900460ff1660018111156107f7576107f6610fd9565b5b14610837576040517f08c379a000000000000000000000000000000000000000000000000000000000815260040161082e906114c9565b60405180910390fd5b60001515600360009054906101000a900460ff1615151461088d576040517f08c379a000000000000000000000000000000000000000000000000000000000815260040161088490611150565b60405180910390fd5b6000600360016101000a81548160ff021916908360018111156108b3576108b2610fd9565b5b0217905550565b6060600060048054905067ffffffffffffffff8111156108dd576108dc610bb6565b5b60405190808252806020026020018201604052801561090b5781602001602082028036833780820191505090505b50905060005b600480549050811015610970576004818154811061093257610931611170565b5b90600052602060002090600302016000015482828151811061095757610956611170565b5b6020026020010181815250508080600101915050610911565b508091505090565b60001515600360009054906101000a900460ff161515146109ce576040517f08c379a00000000000000000000000000000000000000000000000000000000081526004016109c590611150565b60405180910390fd5b6109d6610b12565b81816000018181525050600581908060018154018082558091505060019003906000526020600020016000909190919091506000820151816000015550505050565b60001515600360009054906101000a900460ff16151514610a6e576040517f08c379a0000000000000000000000000000000000000000000000000000000008152600401610a6590611150565b60405180910390fd5b610a76610b25565b818160000181815250506004819080600181540180825580915050600190039060005260206000209060030201600090919091909150600082015181600001556020820151816001019081610acb91906113ab565b5060408201518160020160006101000a81548160ff02191690831515021790555060608201518160020160016101000a81548160ff02191690831515021790555050505050565b6040518060200160405280600081525090565b604051806080016040528060008152602001606081526020016000151581526020016000151581525090565b6000604051905090565b600080fd5b600080fd5b6000819050919050565b610b7881610b65565b8114610b8357600080fd5b50565b600081359050610b9581610b6f565b92915050565b600080fd5b600080fd5b6000601f19601f8301169050919050565b7f4e487b7100000000000000000000000000000000000000000000000000000000600052604160045260246000fd5b610bee82610ba5565b810181811067ffffffffffffffff82111715610c0d57610c0c610bb6565b5b80604052505050565b6000610c20610b51565b9050610c2c8282610be5565b919050565b600067ffffffffffffffff821115610c4c57610c4b610bb6565b5b610c5582610ba5565b9050602081019050919050565b82818337600083830152505050565b6000610c84610c7f84610c31565b610c16565b905082815260208101848484011115610ca057610c9f610ba0565b5b610cab848285610c62565b509392505050565b600082601f830112610cc857610cc7610b9b565b5b8135610cd8848260208601610c71565b91505092915050565b60008060408385031215610cf857610cf7610b5b565b5b6000610d0685828601610b86565b925050602083013567ffffffffffffffff811115610d2757610d26610b60565b5b610d3385828601610cb3565b9150509250929050565b60008115159050919050565b610d5281610d3d565b8114610d5d57600080fd5b50565b600081359050610d6f81610d49565b92915050565b600080600060608486031215610d8e57610d8d610b5b565b5b6000610d9c86828701610b86565b9350506020610dad86828701610d60565b9250506040610dbe86828701610d60565b9150509250925092565b600060208284031215610dde57610ddd610b5b565b5b6000610dec84828501610b86565b91505092915050565b610dfe81610b65565b82525050565b6000602082019050610e196000830184610df5565b92915050565b600081519050919050565b600082825260208201905092915050565b60005b83811015610e59578082015181840152602081019050610e3e565b60008484015250505050565b6000610e7082610e1f565b610e7a8185610e2a565b9350610e8a818560208601610e3b565b610e9381610ba5565b840191505092915050565b610ea781610d3d565b82525050565b6000608082019050610ec26000830187610df5565b8181036020830152610ed48186610e65565b9050610ee36040830185610e9e565b610ef06060830184610e9e565b95945050505050565b600081519050919050565b600082825260208201905092915050565b6000819050602082019050919050565b610f2e81610b65565b82525050565b6000610f408383610f25565b60208301905092915050565b6000602082019050919050565b6000610f6482610ef9565b610f6e8185610f04565b9350610f7983610f15565b8060005b83811015610faa578151610f918882610f34565b9750610f9c83610f4c565b925050600181019050610f7d565b5085935050505092915050565b60006020820190508181036000830152610fd18184610f59565b905092915050565b7f4e487b7100000000000000000000000000000000000000000000000000000000600052602160045260246000fd5b6002811061101957611018610fd9565b5b50565b600081905061102a82611008565b919050565b600061103a8261101c565b9050919050565b61104a8161102f565b82525050565b60006020820190506110656000830184611041565b92915050565b600073ffffffffffffffffffffffffffffffffffffffff82169050919050565b60006110968261106b565b9050919050565b6110a68161108b565b82525050565b60006020820190506110c1600083018461109d565b92915050565b600060208201905081810360008301526110e18184610e65565b905092915050565b60006020820190506110fe6000830184610e9e565b92915050565b7f536d61727420436f6e747261637420697320636c6f7365640000000000000000600082015250565b600061113a601883610e2a565b915061114582611104565b602082019050919050565b600060208201905081810360008301526111698161112d565b9050919050565b7f4e487b7100000000000000000000000000000000000000000000000000000000600052603260045260246000fd5b7f4e487b7100000000000000000000000000000000000000000000000000000000600052602260045260246000fd5b600060028204905060018216806111e657607f821691505b6020821081036111f9576111f861119f565b5b50919050565b60008190508160005260206000209050919050565b60006020601f8301049050919050565b600082821b905092915050565b6000600883026112617fffffffffffffffffffffffffffffffffffffffffffffffffffffffffffffffff82611224565b61126b8683611224565b95508019841693508086168417925050509392505050565b6000819050919050565b60006112a86112a361129e84610b65565b611283565b610b65565b9050919050565b6000819050919050565b6112c28361128d565b6112d66112ce826112af565b848454611231565b825550505050565b600090565b6112eb6112de565b6112f68184846112b9565b505050565b5b8181101561131a5761130f6000826112e3565b6001810190506112fc565b5050565b601f82111561135f57611330816111ff565b61133984611214565b81016020851015611348578190505b61135c61135485611214565b8301826112fb565b50505b505050565b600082821c905092915050565b600061138260001984600802611364565b1980831691505092915050565b600061139b8383611371565b9150826002028217905092915050565b6113b482610e1f565b67ffffffffffffffff8111156113cd576113cc610bb6565b5b6113d782546111ce565b6113e282828561131e565b600060209050601f8311600181146114155760008415611403578287015190505b61140d858261138f565b865550611475565b601f198416611423866111ff565b60005b8281101561144b57848901518255600182019150602085019450602081019050611426565b868310156114685784890151611464601f891682611371565b8355505b6001600288020188555050505b505050505050565b7f5573657220646563656173656420697320616c72656164792073657400000000600082015250565b60006114b3601c83610e2a565b91506114be8261147d565b602082019050919050565b600060208201905081810360008301526114e2816114a6565b905091905056fea2646970667358221220694e76c051faf0f7dac3617a695597542352385a43785c0e828885e994c21c3c64736f6c63430008170033a2646970667358221220e3121d1a17a7320f2a2de8ecf87c9cd6a819ba7e8d1df8a86d1dbc395c0fb5d364736f6c63430008170033",
					"opcodes": "PUSH1 0x80 PUSH1 0x40 MSTORE CALLVALUE DUP1 ISZERO PUSH2 0x10 JUMPI PUSH1 0x0 DUP1 REVERT JUMPDEST POP CALLER PUSH1 0x0 DUP1 PUSH2 0x100 EXP DUP2 SLOAD DUP2 PUSH20 0xFFFFFFFFFFFFFFFFFFFFFFFFFFFFFFFFFFFFFFFF MUL NOT AND SWAP1 DUP4 PUSH20 0xFFFFFFFFFFFFFFFFFFFFFFFFFFFFFFFFFFFFFFFF AND MUL OR SWAP1 SSTORE POP PUSH2 0x36E1 DUP1 PUSH2 0x60 PUSH1 0x0 CODECOPY PUSH1 0x0 RETURN INVALID PUSH1 0x80 PUSH1 0x40 MSTORE CALLVALUE DUP1 ISZERO PUSH3 0x11 JUMPI PUSH1 0x0 DUP1 REVERT JUMPDEST POP PUSH1 0x4 CALLDATASIZE LT PUSH3 0xAC JUMPI PUSH1 0x0 CALLDATALOAD PUSH1 0xE0 SHR DUP1 PUSH4 0x947FD5C3 GT PUSH3 0x6F JUMPI DUP1 PUSH4 0x947FD5C3 EQ PUSH3 0x16B JUMPI DUP1 PUSH4 0x990B4EC5 EQ PUSH3 0x18B JUMPI DUP1 PUSH4 0xA50DFD78 EQ PUSH3 0x1AB JUMPI DUP1 PUSH4 0xD43B8FAB EQ PUSH3 0x1CB JUMPI DUP1 PUSH4 0xEB9CBE7A EQ PUSH3 0x1EB JUMPI PUSH3 0xAC JUMP JUMPDEST DUP1 PUSH4 0x4740A17 EQ PUSH3 0xB1 JUMPI DUP1 PUSH4 0x1440A7F2 EQ PUSH3 0xD3 JUMPI DUP1 PUSH4 0x21132777 EQ PUSH3 0xF3 JUMPI DUP1 PUSH4 0x2661317E EQ PUSH3 0x129 JUMPI DUP1 PUSH4 0x8DA5CB5B EQ PUSH3 0x149 JUMPI JUMPDEST PUSH1 0x0 DUP1 REVERT JUMPDEST PUSH3 0xBB PUSH3 0x20B JUMP JUMPDEST PUSH1 0x40 MLOAD PUSH3 0xCA SWAP2 SWAP1 PUSH3 0x1461 JUMP JUMPDEST PUSH1 0x40 MLOAD DUP1 SWAP2 SUB SWAP1 RETURN JUMPDEST PUSH3 0xF1 PUSH1 0x4 DUP1 CALLDATASIZE SUB DUP2 ADD SWAP1 PUSH3 0xEB SWAP2 SWAP1 PUSH3 0x14CA JUMP JUMPDEST PUSH3 0x35F JUMP JUMPDEST STOP JUMPDEST PUSH3 0x111 PUSH1 0x4 DUP1 CALLDATASIZE SUB DUP2 ADD SWAP1 PUSH3 0x10B SWAP2 SWAP1 PUSH3 0x1511 JUMP JUMPDEST PUSH3 0x595 JUMP JUMPDEST PUSH1 0x40 MLOAD PUSH3 0x120 SWAP2 SWAP1 PUSH3 0x1588 JUMP JUMPDEST PUSH1 0x40 MLOAD DUP1 SWAP2 SUB SWAP1 RETURN JUMPDEST PUSH3 0x147 PUSH1 0x4 DUP1 CALLDATASIZE SUB DUP2 ADD SWAP1 PUSH3 0x141 SWAP2 SWAP1 PUSH3 0x14CA JUMP JUMPDEST PUSH3 0x5C8 JUMP JUMPDEST STOP JUMPDEST PUSH3 0x153 PUSH3 0x7FE JUMP JUMPDEST PUSH1 0x40 MLOAD PUSH3 0x162 SWAP2 SWAP1 PUSH3 0x1588 JUMP JUMPDEST PUSH1 0x40 MLOAD DUP1 SWAP2 SUB SWAP1 RETURN JUMPDEST PUSH3 0x189 PUSH1 0x4 DUP1 CALLDATASIZE SUB DUP2 ADD SWAP1 PUSH3 0x183 SWAP2 SWAP1 PUSH3 0x1511 JUMP JUMPDEST PUSH3 0x822 JUMP JUMPDEST STOP JUMPDEST PUSH3 0x1A9 PUSH1 0x4 DUP1 CALLDATASIZE SUB DUP2 ADD SWAP1 PUSH3 0x1A3 SWAP2 SWAP1 PUSH3 0x1707 JUMP JUMPDEST PUSH3 0xA4A JUMP JUMPDEST STOP JUMPDEST PUSH3 0x1C9 PUSH1 0x4 DUP1 CALLDATASIZE SUB DUP2 ADD SWAP1 PUSH3 0x1C3 SWAP2 SWAP1 PUSH3 0x1782 JUMP JUMPDEST PUSH3 0xC83 JUMP JUMPDEST STOP JUMPDEST PUSH3 0x1E9 PUSH1 0x4 DUP1 CALLDATASIZE SUB DUP2 ADD SWAP1 PUSH3 0x1E3 SWAP2 SWAP1 PUSH3 0x1825 JUMP JUMPDEST PUSH3 0xE23 JUMP JUMPDEST STOP JUMPDEST PUSH3 0x209 PUSH1 0x4 DUP1 CALLDATASIZE SUB DUP2 ADD SWAP1 PUSH3 0x203 SWAP2 SWAP1 PUSH3 0x1511 JUMP JUMPDEST PUSH3 0x105F JUMP JUMPDEST STOP JUMPDEST PUSH1 0x60 PUSH1 0x0 PUSH1 0x1 DUP1 SLOAD SWAP1 POP PUSH8 0xFFFFFFFFFFFFFFFF DUP2 GT ISZERO PUSH3 0x231 JUMPI PUSH3 0x230 PUSH3 0x15C0 JUMP JUMPDEST JUMPDEST PUSH1 0x40 MLOAD SWAP1 DUP1 DUP3 MSTORE DUP1 PUSH1 0x20 MUL PUSH1 0x20 ADD DUP3 ADD PUSH1 0x40 MSTORE DUP1 ISZERO PUSH3 0x260 JUMPI DUP2 PUSH1 0x20 ADD PUSH1 0x20 DUP3 MUL DUP1 CALLDATASIZE DUP4 CALLDATACOPY DUP1 DUP3 ADD SWAP2 POP POP SWAP1 POP JUMPDEST POP SWAP1 POP PUSH1 0x0 JUMPDEST PUSH1 0x1 DUP1 SLOAD SWAP1 POP DUP2 LT ISZERO PUSH3 0x357 JUMPI PUSH1 0x1 DUP2 DUP2 SLOAD DUP2 LT PUSH3 0x28B JUMPI PUSH3 0x28A PUSH3 0x1897 JUMP JUMPDEST JUMPDEST SWAP1 PUSH1 0x0 MSTORE PUSH1 0x20 PUSH1 0x0 KECCAK256 ADD PUSH1 0x0 SWAP1 SLOAD SWAP1 PUSH2 0x100 EXP SWAP1 DIV PUSH20 0xFFFFFFFFFFFFFFFFFFFFFFFFFFFFFFFFFFFFFFFF AND PUSH20 0xFFFFFFFFFFFFFFFFFFFFFFFFFFFFFFFFFFFFFFFF AND PUSH4 0x58975919 PUSH1 0x40 MLOAD DUP2 PUSH4 0xFFFFFFFF AND PUSH1 0xE0 SHL DUP2 MSTORE PUSH1 0x4 ADD PUSH1 0x20 PUSH1 0x40 MLOAD DUP1 DUP4 SUB DUP2 DUP7 GAS STATICCALL ISZERO DUP1 ISZERO PUSH3 0x301 JUMPI RETURNDATASIZE PUSH1 0x0 DUP1 RETURNDATACOPY RETURNDATASIZE PUSH1 0x0 REVERT JUMPDEST POP POP POP POP PUSH1 0x40 MLOAD RETURNDATASIZE PUSH1 0x1F NOT PUSH1 0x1F DUP3 ADD AND DUP3 ADD DUP1 PUSH1 0x40 MSTORE POP DUP2 ADD SWAP1 PUSH3 0x327 SWAP2 SWAP1 PUSH3 0x18DD JUMP JUMPDEST DUP3 DUP3 DUP2 MLOAD DUP2 LT PUSH3 0x33D JUMPI PUSH3 0x33C PUSH3 0x1897 JUMP JUMPDEST JUMPDEST PUSH1 0x20 MUL PUSH1 0x20 ADD ADD DUP2 DUP2 MSTORE POP POP DUP1 DUP1 PUSH1 0x1 ADD SWAP2 POP POP PUSH3 0x266 JUMP JUMPDEST POP DUP1 SWAP2 POP POP SWAP1 JUMP JUMPDEST PUSH1 0x0 DUP1 SLOAD SWAP1 PUSH2 0x100 EXP SWAP1 DIV PUSH20 0xFFFFFFFFFFFFFFFFFFFFFFFFFFFFFFFFFFFFFFFF AND PUSH20 0xFFFFFFFFFFFFFFFFFFFFFFFFFFFFFFFFFFFFFFFF AND CALLER PUSH20 0xFFFFFFFFFFFFFFFFFFFFFFFFFFFFFFFFFFFFFFFF AND EQ PUSH3 0x3B8 JUMPI PUSH1 0x0 DUP1 REVERT JUMPDEST PUSH3 0x3C3 DUP3 PUSH3 0x1287 JUMP JUMPDEST ISZERO PUSH3 0x406 JUMPI PUSH1 0x40 MLOAD PUSH32 0x8C379A000000000000000000000000000000000000000000000000000000000 DUP2 MSTORE PUSH1 0x4 ADD PUSH3 0x3FD SWAP1 PUSH3 0x1970 JUMP JUMPDEST PUSH1 0x40 MLOAD DUP1 SWAP2 SUB SWAP1 REVERT JUMPDEST PUSH1 0x0 JUMPDEST PUSH1 0x1 DUP1 SLOAD SWAP1 POP DUP2 LT ISZERO PUSH3 0x590 JUMPI DUP3 PUSH1 0x1 DUP3 DUP2 SLOAD DUP2 LT PUSH3 0x42F JUMPI PUSH3 0x42E PUSH3 0x1897 JUMP JUMPDEST JUMPDEST SWAP1 PUSH1 0x0 MSTORE PUSH1 0x20 PUSH1 0x0 KECCAK256 ADD PUSH1 0x0 SWAP1 SLOAD SWAP1 PUSH2 0x100 EXP SWAP1 DIV PUSH20 0xFFFFFFFFFFFFFFFFFFFFFFFFFFFFFFFFFFFFFFFF AND PUSH20 0xFFFFFFFFFFFFFFFFFFFFFFFFFFFFFFFFFFFFFFFF AND PUSH4 0x58975919 PUSH1 0x40 MLOAD DUP2 PUSH4 0xFFFFFFFF AND PUSH1 0xE0 SHL DUP2 MSTORE PUSH1 0x4 ADD PUSH1 0x20 PUSH1 0x40 MLOAD DUP1 DUP4 SUB DUP2 DUP7 GAS STATICCALL ISZERO DUP1 ISZERO PUSH3 0x4A5 JUMPI RETURNDATASIZE PUSH1 0x0 DUP1 RETURNDATACOPY RETURNDATASIZE PUSH1 0x0 REVERT JUMPDEST POP POP POP POP PUSH1 0x40 MLOAD RETURNDATASIZE PUSH1 0x1F NOT PUSH1 0x1F DUP3 ADD AND DUP3 ADD DUP1 PUSH1 0x40 MSTORE POP DUP2 ADD SWAP1 PUSH3 0x4CB SWAP2 SWAP1 PUSH3 0x18DD JUMP JUMPDEST SUB PUSH3 0x582 JUMPI PUSH1 0x1 DUP2 DUP2 SLOAD DUP2 LT PUSH3 0x4E8 JUMPI PUSH3 0x4E7 PUSH3 0x1897 JUMP JUMPDEST JUMPDEST SWAP1 PUSH1 0x0 MSTORE PUSH1 0x20 PUSH1 0x0 KECCAK256 ADD PUSH1 0x0 SWAP1 SLOAD SWAP1 PUSH2 0x100 EXP SWAP1 DIV PUSH20 0xFFFFFFFFFFFFFFFFFFFFFFFFFFFFFFFFFFFFFFFF AND PUSH20 0xFFFFFFFFFFFFFFFFFFFFFFFFFFFFFFFFFFFFFFFF AND PUSH4 0xFC68B3ED DUP4 PUSH1 0x40 MLOAD DUP3 PUSH4 0xFFFFFFFF AND PUSH1 0xE0 SHL DUP2 MSTORE PUSH1 0x4 ADD PUSH3 0x54D SWAP2 SWAP1 PUSH3 0x19A3 JUMP JUMPDEST PUSH1 0x0 PUSH1 0x40 MLOAD DUP1 DUP4 SUB DUP2 PUSH1 0x0 DUP8 DUP1 EXTCODESIZE ISZERO DUP1 ISZERO PUSH3 0x568 JUMPI PUSH1 0x0 DUP1 REVERT JUMPDEST POP GAS CALL ISZERO DUP1 ISZERO PUSH3 0x57D JUMPI RETURNDATASIZE PUSH1 0x0 DUP1 RETURNDATACOPY RETURNDATASIZE PUSH1 0x0 REVERT JUMPDEST POP POP POP POP JUMPDEST DUP1 DUP1 PUSH1 0x1 ADD SWAP2 POP POP PUSH3 0x409 JUMP JUMPDEST POP POP POP JUMP JUMPDEST PUSH1 0x2 PUSH1 0x20 MSTORE DUP1 PUSH1 0x0 MSTORE PUSH1 0x40 PUSH1 0x0 KECCAK256 PUSH1 0x0 SWAP2 POP SLOAD SWAP1 PUSH2 0x100 EXP SWAP1 DIV PUSH20 0xFFFFFFFFFFFFFFFFFFFFFFFFFFFFFFFFFFFFFFFF AND DUP2 JUMP JUMPDEST PUSH1 0x0 DUP1 SLOAD SWAP1 PUSH2 0x100 EXP SWAP1 DIV PUSH20 0xFFFFFFFFFFFFFFFFFFFFFFFFFFFFFFFFFFFFFFFF AND PUSH20 0xFFFFFFFFFFFFFFFFFFFFFFFFFFFFFFFFFFFFFFFF AND CALLER PUSH20 0xFFFFFFFFFFFFFFFFFFFFFFFFFFFFFFFFFFFFFFFF AND EQ PUSH3 0x621 JUMPI PUSH1 0x0 DUP1 REVERT JUMPDEST PUSH3 0x62C DUP3 PUSH3 0x1287 JUMP JUMPDEST ISZERO PUSH3 0x66F JUMPI PUSH1 0x40 MLOAD PUSH32 0x8C379A000000000000000000000000000000000000000000000000000000000 DUP2 MSTORE PUSH1 0x4 ADD PUSH3 0x666 SWAP1 PUSH3 0x1970 JUMP JUMPDEST PUSH1 0x40 MLOAD DUP1 SWAP2 SUB SWAP1 REVERT JUMPDEST PUSH1 0x0 JUMPDEST PUSH1 0x1 DUP1 SLOAD SWAP1 POP DUP2 LT ISZERO PUSH3 0x7F9 JUMPI DUP3 PUSH1 0x1 DUP3 DUP2 SLOAD DUP2 LT PUSH3 0x698 JUMPI PUSH3 0x697 PUSH3 0x1897 JUMP JUMPDEST JUMPDEST SWAP1 PUSH1 0x0 MSTORE PUSH1 0x20 PUSH1 0x0 KECCAK256 ADD PUSH1 0x0 SWAP1 SLOAD SWAP1 PUSH2 0x100 EXP SWAP1 DIV PUSH20 0xFFFFFFFFFFFFFFFFFFFFFFFFFFFFFFFFFFFFFFFF AND PUSH20 0xFFFFFFFFFFFFFFFFFFFFFFFFFFFFFFFFFFFFFFFF AND PUSH4 0x58975919 PUSH1 0x40 MLOAD DUP2 PUSH4 0xFFFFFFFF AND PUSH1 0xE0 SHL DUP2 MSTORE PUSH1 0x4 ADD PUSH1 0x20 PUSH1 0x40 MLOAD DUP1 DUP4 SUB DUP2 DUP7 GAS STATICCALL ISZERO DUP1 ISZERO PUSH3 0x70E JUMPI RETURNDATASIZE PUSH1 0x0 DUP1 RETURNDATACOPY RETURNDATASIZE PUSH1 0x0 REVERT JUMPDEST POP POP POP POP PUSH1 0x40 MLOAD RETURNDATASIZE PUSH1 0x1F NOT PUSH1 0x1F DUP3 ADD AND DUP3 ADD DUP1 PUSH1 0x40 MSTORE POP DUP2 ADD SWAP1 PUSH3 0x734 SWAP2 SWAP1 PUSH3 0x18DD JUMP JUMPDEST SUB PUSH3 0x7EB JUMPI PUSH1 0x1 DUP2 DUP2 SLOAD DUP2 LT PUSH3 0x751 JUMPI PUSH3 0x750 PUSH3 0x1897 JUMP JUMPDEST JUMPDEST SWAP1 PUSH1 0x0 MSTORE PUSH1 0x20 PUSH1 0x0 KECCAK256 ADD PUSH1 0x0 SWAP1 SLOAD SWAP1 PUSH2 0x100 EXP SWAP1 DIV PUSH20 0xFFFFFFFFFFFFFFFFFFFFFFFFFFFFFFFFFFFFFFFF AND PUSH20 0xFFFFFFFFFFFFFFFFFFFFFFFFFFFFFFFFFFFFFFFF AND PUSH4 0xE5A72D5B DUP4 PUSH1 0x40 MLOAD DUP3 PUSH4 0xFFFFFFFF AND PUSH1 0xE0 SHL DUP2 MSTORE PUSH1 0x4 ADD PUSH3 0x7B6 SWAP2 SWAP1 PUSH3 0x19A3 JUMP JUMPDEST PUSH1 0x0 PUSH1 0x40 MLOAD DUP1 DUP4 SUB DUP2 PUSH1 0x0 DUP8 DUP1 EXTCODESIZE ISZERO DUP1 ISZERO PUSH3 0x7D1 JUMPI PUSH1 0x0 DUP1 REVERT JUMPDEST POP GAS CALL ISZERO DUP1 ISZERO PUSH3 0x7E6 JUMPI RETURNDATASIZE PUSH1 0x0 DUP1 RETURNDATACOPY RETURNDATASIZE PUSH1 0x0 REVERT JUMPDEST POP POP POP POP JUMPDEST DUP1 DUP1 PUSH1 0x1 ADD SWAP2 POP POP PUSH3 0x672 JUMP JUMPDEST POP POP POP JUMP JUMPDEST PUSH1 0x0 DUP1 SLOAD SWAP1 PUSH2 0x100 EXP SWAP1 DIV PUSH20 0xFFFFFFFFFFFFFFFFFFFFFFFFFFFFFFFFFFFFFFFF AND DUP2 JUMP JUMPDEST PUSH1 0x0 DUP1 SLOAD SWAP1 PUSH2 0x100 EXP SWAP1 DIV PUSH20 0xFFFFFFFFFFFFFFFFFFFFFFFFFFFFFFFFFFFFFFFF AND PUSH20 0xFFFFFFFFFFFFFFFFFFFFFFFFFFFFFFFFFFFFFFFF AND CALLER PUSH20 0xFFFFFFFFFFFFFFFFFFFFFFFFFFFFFFFFFFFFFFFF AND EQ PUSH3 0x87B JUMPI PUSH1 0x0 DUP1 REVERT JUMPDEST PUSH3 0x886 DUP2 PUSH3 0x1287 JUMP JUMPDEST ISZERO PUSH3 0x8C9 JUMPI PUSH1 0x40 MLOAD PUSH32 0x8C379A000000000000000000000000000000000000000000000000000000000 DUP2 MSTORE PUSH1 0x4 ADD PUSH3 0x8C0 SWAP1 PUSH3 0x1970 JUMP JUMPDEST PUSH1 0x40 MLOAD DUP1 SWAP2 SUB SWAP1 REVERT JUMPDEST PUSH1 0x0 JUMPDEST PUSH1 0x1 DUP1 SLOAD SWAP1 POP DUP2 LT ISZERO PUSH3 0xA46 JUMPI DUP2 PUSH1 0x1 DUP3 DUP2 SLOAD DUP2 LT PUSH3 0x8F2 JUMPI PUSH3 0x8F1 PUSH3 0x1897 JUMP JUMPDEST JUMPDEST SWAP1 PUSH1 0x0 MSTORE PUSH1 0x20 PUSH1 0x0 KECCAK256 ADD PUSH1 0x0 SWAP1 SLOAD SWAP1 PUSH2 0x100 EXP SWAP1 DIV PUSH20 0xFFFFFFFFFFFFFFFFFFFFFFFFFFFFFFFFFFFFFFFF AND PUSH20 0xFFFFFFFFFFFFFFFFFFFFFFFFFFFFFFFFFFFFFFFF AND PUSH4 0x58975919 PUSH1 0x40 MLOAD DUP2 PUSH4 0xFFFFFFFF AND PUSH1 0xE0 SHL DUP2 MSTORE PUSH1 0x4 ADD PUSH1 0x20 PUSH1 0x40 MLOAD DUP1 DUP4 SUB DUP2 DUP7 GAS STATICCALL ISZERO DUP1 ISZERO PUSH3 0x968 JUMPI RETURNDATASIZE PUSH1 0x0 DUP1 RETURNDATACOPY RETURNDATASIZE PUSH1 0x0 REVERT JUMPDEST POP POP POP POP PUSH1 0x40 MLOAD RETURNDATASIZE PUSH1 0x1F NOT PUSH1 0x1F DUP3 ADD AND DUP3 ADD DUP1 PUSH1 0x40 MSTORE POP DUP2 ADD SWAP1 PUSH3 0x98E SWAP2 SWAP1 PUSH3 0x18DD JUMP JUMPDEST SUB PUSH3 0xA38 JUMPI PUSH1 0x1 DUP2 DUP2 SLOAD DUP2 LT PUSH3 0x9AB JUMPI PUSH3 0x9AA PUSH3 0x1897 JUMP JUMPDEST JUMPDEST SWAP1 PUSH1 0x0 MSTORE PUSH1 0x20 PUSH1 0x0 KECCAK256 ADD PUSH1 0x0 SWAP1 SLOAD SWAP1 PUSH2 0x100 EXP SWAP1 DIV PUSH20 0xFFFFFFFFFFFFFFFFFFFFFFFFFFFFFFFFFFFFFFFF AND PUSH20 0xFFFFFFFFFFFFFFFFFFFFFFFFFFFFFFFFFFFFFFFF AND PUSH4 0xAC3EF22D PUSH1 0x40 MLOAD DUP2 PUSH4 0xFFFFFFFF AND PUSH1 0xE0 SHL DUP2 MSTORE PUSH1 0x4 ADD PUSH1 0x0 PUSH1 0x40 MLOAD DUP1 DUP4 SUB DUP2 PUSH1 0x0 DUP8 DUP1 EXTCODESIZE ISZERO DUP1 ISZERO PUSH3 0xA1E JUMPI PUSH1 0x0 DUP1 REVERT JUMPDEST POP GAS CALL ISZERO DUP1 ISZERO PUSH3 0xA33 JUMPI RETURNDATASIZE PUSH1 0x0 DUP1 RETURNDATACOPY RETURNDATASIZE PUSH1 0x0 REVERT JUMPDEST POP POP POP POP JUMPDEST DUP1 DUP1 PUSH1 0x1 ADD SWAP2 POP POP PUSH3 0x8CC JUMP JUMPDEST POP POP JUMP JUMPDEST PUSH1 0x0 DUP1 SLOAD SWAP1 PUSH2 0x100 EXP SWAP1 DIV PUSH20 0xFFFFFFFFFFFFFFFFFFFFFFFFFFFFFFFFFFFFFFFF AND PUSH20 0xFFFFFFFFFFFFFFFFFFFFFFFFFFFFFFFFFFFFFFFF AND CALLER PUSH20 0xFFFFFFFFFFFFFFFFFFFFFFFFFFFFFFFFFFFFFFFF AND EQ PUSH3 0xAA3 JUMPI PUSH1 0x0 DUP1 REVERT JUMPDEST PUSH3 0xAAE DUP4 PUSH3 0x1287 JUMP JUMPDEST ISZERO PUSH3 0xAF1 JUMPI PUSH1 0x40 MLOAD PUSH32 0x8C379A000000000000000000000000000000000000000000000000000000000 DUP2 MSTORE PUSH1 0x4 ADD PUSH3 0xAE8 SWAP1 PUSH3 0x1970 JUMP JUMPDEST PUSH1 0x40 MLOAD DUP1 SWAP2 SUB SWAP1 REVERT JUMPDEST PUSH1 0x0 JUMPDEST PUSH1 0x1 DUP1 SLOAD SWAP1 POP DUP2 LT ISZERO PUSH3 0xC7D JUMPI DUP4 PUSH1 0x1 DUP3 DUP2 SLOAD DUP2 LT PUSH3 0xB1A JUMPI PUSH3 0xB19 PUSH3 0x1897 JUMP JUMPDEST JUMPDEST SWAP1 PUSH1 0x0 MSTORE PUSH1 0x20 PUSH1 0x0 KECCAK256 ADD PUSH1 0x0 SWAP1 SLOAD SWAP1 PUSH2 0x100 EXP SWAP1 DIV PUSH20 0xFFFFFFFFFFFFFFFFFFFFFFFFFFFFFFFFFFFFFFFF AND PUSH20 0xFFFFFFFFFFFFFFFFFFFFFFFFFFFFFFFFFFFFFFFF AND PUSH4 0x58975919 PUSH1 0x40 MLOAD DUP2 PUSH4 0xFFFFFFFF AND PUSH1 0xE0 SHL DUP2 MSTORE PUSH1 0x4 ADD PUSH1 0x20 PUSH1 0x40 MLOAD DUP1 DUP4 SUB DUP2 DUP7 GAS STATICCALL ISZERO DUP1 ISZERO PUSH3 0xB90 JUMPI RETURNDATASIZE PUSH1 0x0 DUP1 RETURNDATACOPY RETURNDATASIZE PUSH1 0x0 REVERT JUMPDEST POP POP POP POP PUSH1 0x40 MLOAD RETURNDATASIZE PUSH1 0x1F NOT PUSH1 0x1F DUP3 ADD AND DUP3 ADD DUP1 PUSH1 0x40 MSTORE POP DUP2 ADD SWAP1 PUSH3 0xBB6 SWAP2 SWAP1 PUSH3 0x18DD JUMP JUMPDEST SUB PUSH3 0xC6F JUMPI PUSH1 0x1 DUP2 DUP2 SLOAD DUP2 LT PUSH3 0xBD3 JUMPI PUSH3 0xBD2 PUSH3 0x1897 JUMP JUMPDEST JUMPDEST SWAP1 PUSH1 0x0 MSTORE PUSH1 0x20 PUSH1 0x0 KECCAK256 ADD PUSH1 0x0 SWAP1 SLOAD SWAP1 PUSH2 0x100 EXP SWAP1 DIV PUSH20 0xFFFFFFFFFFFFFFFFFFFFFFFFFFFFFFFFFFFFFFFF AND PUSH20 0xFFFFFFFFFFFFFFFFFFFFFFFFFFFFFFFFFFFFFFFF AND PUSH4 0x3121924D DUP5 DUP5 PUSH1 0x40 MLOAD DUP4 PUSH4 0xFFFFFFFF AND PUSH1 0xE0 SHL DUP2 MSTORE PUSH1 0x4 ADD PUSH3 0xC3A SWAP3 SWAP2 SWAP1 PUSH3 0x1A38 JUMP JUMPDEST PUSH1 0x0 PUSH1 0x40 MLOAD DUP1 DUP4 SUB DUP2 PUSH1 0x0 DUP8 DUP1 EXTCODESIZE ISZERO DUP1 ISZERO PUSH3 0xC55 JUMPI PUSH1 0x0 DUP1 REVERT JUMPDEST POP GAS CALL ISZERO DUP1 ISZERO PUSH3 0xC6A JUMPI RETURNDATASIZE PUSH1 0x0 DUP1 RETURNDATACOPY RETURNDATASIZE PUSH1 0x0 REVERT JUMPDEST POP POP POP POP JUMPDEST DUP1 DUP1 PUSH1 0x1 ADD SWAP2 POP POP PUSH3 0xAF4 JUMP JUMPDEST POP POP POP POP JUMP JUMPDEST PUSH1 0x0 DUP1 SLOAD SWAP1 PUSH2 0x100 EXP SWAP1 DIV PUSH20 0xFFFFFFFFFFFFFFFFFFFFFFFFFFFFFFFFFFFFFFFF AND PUSH20 0xFFFFFFFFFFFFFFFFFFFFFFFFFFFFFFFFFFFFFFFF AND CALLER PUSH20 0xFFFFFFFFFFFFFFFFFFFFFFFFFFFFFFFFFFFFFFFF AND EQ PUSH3 0xCDC JUMPI PUSH1 0x0 DUP1 REVERT JUMPDEST PUSH3 0xCE7 DUP3 PUSH3 0x1287 JUMP JUMPDEST ISZERO PUSH3 0xD2A JUMPI PUSH1 0x40 MLOAD PUSH32 0x8C379A000000000000000000000000000000000000000000000000000000000 DUP2 MSTORE PUSH1 0x4 ADD PUSH3 0xD21 SWAP1 PUSH3 0x1970 JUMP JUMPDEST PUSH1 0x40 MLOAD DUP1 SWAP2 SUB SWAP1 REVERT JUMPDEST PUSH1 0x0 DUP3 DUP3 PUSH1 0x40 MLOAD PUSH3 0xD3C SWAP1 PUSH3 0x137B JUMP JUMPDEST PUSH3 0xD49 SWAP3 SWAP2 SWAP1 PUSH3 0x1A38 JUMP JUMPDEST PUSH1 0x40 MLOAD DUP1 SWAP2 SUB SWAP1 PUSH1 0x0 CREATE DUP1 ISZERO DUP1 ISZERO PUSH3 0xD66 JUMPI RETURNDATASIZE PUSH1 0x0 DUP1 RETURNDATACOPY RETURNDATASIZE PUSH1 0x0 REVERT JUMPDEST POP SWAP1 POP PUSH1 0x1 DUP2 SWAP1 DUP1 PUSH1 0x1 DUP2 SLOAD ADD DUP1 DUP3 SSTORE DUP1 SWAP2 POP POP PUSH1 0x1 SWAP1 SUB SWAP1 PUSH1 0x0 MSTORE PUSH1 0x20 PUSH1 0x0 KECCAK256 ADD PUSH1 0x0 SWAP1 SWAP2 SWAP1 SWAP2 SWAP1 SWAP2 PUSH2 0x100 EXP DUP2 SLOAD DUP2 PUSH20 0xFFFFFFFFFFFFFFFFFFFFFFFFFFFFFFFFFFFFFFFF MUL NOT AND SWAP1 DUP4 PUSH20 0xFFFFFFFFFFFFFFFFFFFFFFFFFFFFFFFFFFFFFFFF AND MUL OR SWAP1 SSTORE POP DUP1 PUSH1 0x2 PUSH1 0x0 DUP6 DUP2 MSTORE PUSH1 0x20 ADD SWAP1 DUP2 MSTORE PUSH1 0x20 ADD PUSH1 0x0 KECCAK256 PUSH1 0x0 PUSH2 0x100 EXP DUP2 SLOAD DUP2 PUSH20 0xFFFFFFFFFFFFFFFFFFFFFFFFFFFFFFFFFFFFFFFF MUL NOT AND SWAP1 DUP4 PUSH20 0xFFFFFFFFFFFFFFFFFFFFFFFFFFFFFFFFFFFFFFFF AND MUL OR SWAP1 SSTORE POP POP POP POP JUMP JUMPDEST PUSH1 0x0 DUP1 SLOAD SWAP1 PUSH2 0x100 EXP SWAP1 DIV PUSH20 0xFFFFFFFFFFFFFFFFFFFFFFFFFFFFFFFFFFFFFFFF AND PUSH20 0xFFFFFFFFFFFFFFFFFFFFFFFFFFFFFFFFFFFFFFFF AND CALLER PUSH20 0xFFFFFFFFFFFFFFFFFFFFFFFFFFFFFFFFFFFFFFFF AND EQ PUSH3 0xE7C JUMPI PUSH1 0x0 DUP1 REVERT JUMPDEST PUSH3 0xE87 DUP5 PUSH3 0x1287 JUMP JUMPDEST ISZERO PUSH3 0xECA JUMPI PUSH1 0x40 MLOAD PUSH32 0x8C379A000000000000000000000000000000000000000000000000000000000 DUP2 MSTORE PUSH1 0x4 ADD PUSH3 0xEC1 SWAP1 PUSH3 0x1970 JUMP JUMPDEST PUSH1 0x40 MLOAD DUP1 SWAP2 SUB SWAP1 REVERT JUMPDEST PUSH1 0x0 JUMPDEST PUSH1 0x1 DUP1 SLOAD SWAP1 POP DUP2 LT ISZERO PUSH3 0x1058 JUMPI DUP5 PUSH1 0x1 DUP3 DUP2 SLOAD DUP2 LT PUSH3 0xEF3 JUMPI PUSH3 0xEF2 PUSH3 0x1897 JUMP JUMPDEST JUMPDEST SWAP1 PUSH1 0x0 MSTORE PUSH1 0x20 PUSH1 0x0 KECCAK256 ADD PUSH1 0x0 SWAP1 SLOAD SWAP1 PUSH2 0x100 EXP SWAP1 DIV PUSH20 0xFFFFFFFFFFFFFFFFFFFFFFFFFFFFFFFFFFFFFFFF AND PUSH20 0xFFFFFFFFFFFFFFFFFFFFFFFFFFFFFFFFFFFFFFFF AND PUSH4 0x58975919 PUSH1 0x40 MLOAD DUP2 PUSH4 0xFFFFFFFF AND PUSH1 0xE0 SHL DUP2 MSTORE PUSH1 0x4 ADD PUSH1 0x20 PUSH1 0x40 MLOAD DUP1 DUP4 SUB DUP2 DUP7 GAS STATICCALL ISZERO DUP1 ISZERO PUSH3 0xF69 JUMPI RETURNDATASIZE PUSH1 0x0 DUP1 RETURNDATACOPY RETURNDATASIZE PUSH1 0x0 REVERT JUMPDEST POP POP POP POP PUSH1 0x40 MLOAD RETURNDATASIZE PUSH1 0x1F NOT PUSH1 0x1F DUP3 ADD AND DUP3 ADD DUP1 PUSH1 0x40 MSTORE POP DUP2 ADD SWAP1 PUSH3 0xF8F SWAP2 SWAP1 PUSH3 0x18DD JUMP JUMPDEST SUB PUSH3 0x104A JUMPI PUSH1 0x1 DUP2 DUP2 SLOAD DUP2 LT PUSH3 0xFAC JUMPI PUSH3 0xFAB PUSH3 0x1897 JUMP JUMPDEST JUMPDEST SWAP1 PUSH1 0x0 MSTORE PUSH1 0x20 PUSH1 0x0 KECCAK256 ADD PUSH1 0x0 SWAP1 SLOAD SWAP1 PUSH2 0x100 EXP SWAP1 DIV PUSH20 0xFFFFFFFFFFFFFFFFFFFFFFFFFFFFFFFFFFFFFFFF AND PUSH20 0xFFFFFFFFFFFFFFFFFFFFFFFFFFFFFFFFFFFFFFFF AND PUSH4 0x38FCBC01 DUP6 DUP6 DUP6 PUSH1 0x40 MLOAD DUP5 PUSH4 0xFFFFFFFF AND PUSH1 0xE0 SHL DUP2 MSTORE PUSH1 0x4 ADD PUSH3 0x1015 SWAP4 SWAP3 SWAP2 SWAP1 PUSH3 0x1A7D JUMP JUMPDEST PUSH1 0x0 PUSH1 0x40 MLOAD DUP1 DUP4 SUB DUP2 PUSH1 0x0 DUP8 DUP1 EXTCODESIZE ISZERO DUP1 ISZERO PUSH3 0x1030 JUMPI PUSH1 0x0 DUP1 REVERT JUMPDEST POP GAS CALL ISZERO DUP1 ISZERO PUSH3 0x1045 JUMPI RETURNDATASIZE PUSH1 0x0 DUP1 RETURNDATACOPY RETURNDATASIZE PUSH1 0x0 REVERT JUMPDEST POP POP POP POP JUMPDEST DUP1 DUP1 PUSH1 0x1 ADD SWAP2 POP POP PUSH3 0xECD JUMP JUMPDEST POP POP POP POP POP JUMP JUMPDEST PUSH1 0x0 DUP1 SLOAD SWAP1 PUSH2 0x100 EXP SWAP1 DIV PUSH20 0xFFFFFFFFFFFFFFFFFFFFFFFFFFFFFFFFFFFFFFFF AND PUSH20 0xFFFFFFFFFFFFFFFFFFFFFFFFFFFFFFFFFFFFFFFF AND CALLER PUSH20 0xFFFFFFFFFFFFFFFFFFFFFFFFFFFFFFFFFFFFFFFF AND EQ PUSH3 0x10B8 JUMPI PUSH1 0x0 DUP1 REVERT JUMPDEST PUSH3 0x10C3 DUP2 PUSH3 0x1287 JUMP JUMPDEST ISZERO PUSH3 0x1106 JUMPI PUSH1 0x40 MLOAD PUSH32 0x8C379A000000000000000000000000000000000000000000000000000000000 DUP2 MSTORE PUSH1 0x4 ADD PUSH3 0x10FD SWAP1 PUSH3 0x1970 JUMP JUMPDEST PUSH1 0x40 MLOAD DUP1 SWAP2 SUB SWAP1 REVERT JUMPDEST PUSH1 0x0 JUMPDEST PUSH1 0x1 DUP1 SLOAD SWAP1 POP DUP2 LT ISZERO PUSH3 0x1283 JUMPI DUP2 PUSH1 0x1 DUP3 DUP2 SLOAD DUP2 LT PUSH3 0x112F JUMPI PUSH3 0x112E PUSH3 0x1897 JUMP JUMPDEST JUMPDEST SWAP1 PUSH1 0x0 MSTORE PUSH1 0x20 PUSH1 0x0 KECCAK256 ADD PUSH1 0x0 SWAP1 SLOAD SWAP1 PUSH2 0x100 EXP SWAP1 DIV PUSH20 0xFFFFFFFFFFFFFFFFFFFFFFFFFFFFFFFFFFFFFFFF AND PUSH20 0xFFFFFFFFFFFFFFFFFFFFFFFFFFFFFFFFFFFFFFFF AND PUSH4 0x58975919 PUSH1 0x40 MLOAD DUP2 PUSH4 0xFFFFFFFF AND PUSH1 0xE0 SHL DUP2 MSTORE PUSH1 0x4 ADD PUSH1 0x20 PUSH1 0x40 MLOAD DUP1 DUP4 SUB DUP2 DUP7 GAS STATICCALL ISZERO DUP1 ISZERO PUSH3 0x11A5 JUMPI RETURNDATASIZE PUSH1 0x0 DUP1 RETURNDATACOPY RETURNDATASIZE PUSH1 0x0 REVERT JUMPDEST POP POP POP POP PUSH1 0x40 MLOAD RETURNDATASIZE PUSH1 0x1F NOT PUSH1 0x1F DUP3 ADD AND DUP3 ADD DUP1 PUSH1 0x40 MSTORE POP DUP2 ADD SWAP1 PUSH3 0x11CB SWAP2 SWAP1 PUSH3 0x18DD JUMP JUMPDEST SUB PUSH3 0x1275 JUMPI PUSH1 0x1 DUP2 DUP2 SLOAD DUP2 LT PUSH3 0x11E8 JUMPI PUSH3 0x11E7 PUSH3 0x1897 JUMP JUMPDEST JUMPDEST SWAP1 PUSH1 0x0 MSTORE PUSH1 0x20 PUSH1 0x0 KECCAK256 ADD PUSH1 0x0 SWAP1 SLOAD SWAP1 PUSH2 0x100 EXP SWAP1 DIV PUSH20 0xFFFFFFFFFFFFFFFFFFFFFFFFFFFFFFFFFFFFFFFF AND PUSH20 0xFFFFFFFFFFFFFFFFFFFFFFFFFFFFFFFFFFFFFFFF AND PUSH4 0x35254BCD PUSH1 0x40 MLOAD DUP2 PUSH4 0xFFFFFFFF AND PUSH1 0xE0 SHL DUP2 MSTORE PUSH1 0x4 ADD PUSH1 0x0 PUSH1 0x40 MLOAD DUP1 DUP4 SUB DUP2 PUSH1 0x0 DUP8 DUP1 EXTCODESIZE ISZERO DUP1 ISZERO PUSH3 0x125B JUMPI PUSH1 0x0 DUP1 REVERT JUMPDEST POP GAS CALL ISZERO DUP1 ISZERO PUSH3 0x1270 JUMPI RETURNDATASIZE PUSH1 0x0 DUP1 RETURNDATACOPY RETURNDATASIZE PUSH1 0x0 REVERT JUMPDEST POP POP POP POP JUMPDEST DUP1 DUP1 PUSH1 0x1 ADD SWAP2 POP POP PUSH3 0x1109 JUMP JUMPDEST POP POP JUMP JUMPDEST PUSH1 0x0 DUP1 PUSH1 0x0 SWAP1 POP JUMPDEST PUSH1 0x1 DUP1 SLOAD SWAP1 POP DUP2 LT ISZERO PUSH3 0x1370 JUMPI DUP3 PUSH1 0x1 DUP3 DUP2 SLOAD DUP2 LT PUSH3 0x12B5 JUMPI PUSH3 0x12B4 PUSH3 0x1897 JUMP JUMPDEST JUMPDEST SWAP1 PUSH1 0x0 MSTORE PUSH1 0x20 PUSH1 0x0 KECCAK256 ADD PUSH1 0x0 SWAP1 SLOAD SWAP1 PUSH2 0x100 EXP SWAP1 DIV PUSH20 0xFFFFFFFFFFFFFFFFFFFFFFFFFFFFFFFFFFFFFFFF AND PUSH20 0xFFFFFFFFFFFFFFFFFFFFFFFFFFFFFFFFFFFFFFFF AND PUSH4 0x58975919 PUSH1 0x40 MLOAD DUP2 PUSH4 0xFFFFFFFF AND PUSH1 0xE0 SHL DUP2 MSTORE PUSH1 0x4 ADD PUSH1 0x20 PUSH1 0x40 MLOAD DUP1 DUP4 SUB DUP2 DUP7 GAS STATICCALL ISZERO DUP1 ISZERO PUSH3 0x132B JUMPI RETURNDATASIZE PUSH1 0x0 DUP1 RETURNDATACOPY RETURNDATASIZE PUSH1 0x0 REVERT JUMPDEST POP POP POP POP PUSH1 0x40 MLOAD RETURNDATASIZE PUSH1 0x1F NOT PUSH1 0x1F DUP3 ADD AND DUP3 ADD DUP1 PUSH1 0x40 MSTORE POP DUP2 ADD SWAP1 PUSH3 0x1351 SWAP2 SWAP1 PUSH3 0x18DD JUMP JUMPDEST SUB PUSH3 0x1362 JUMPI PUSH1 0x1 SWAP2 POP POP PUSH3 0x1376 JUMP JUMPDEST DUP1 DUP1 PUSH1 0x1 ADD SWAP2 POP POP PUSH3 0x128F JUMP JUMPDEST POP PUSH1 0x0 SWAP1 POP JUMPDEST SWAP2 SWAP1 POP JUMP JUMPDEST PUSH2 0x1BF1 DUP1 PUSH3 0x1ABB DUP4 CODECOPY ADD SWAP1 JUMP JUMPDEST PUSH1 0x0 DUP2 MLOAD SWAP1 POP SWAP2 SWAP1 POP JUMP JUMPDEST PUSH1 0x0 DUP3 DUP3 MSTORE PUSH1 0x20 DUP3 ADD SWAP1 POP SWAP3 SWAP2 POP POP JUMP JUMPDEST PUSH1 0x0 DUP2 SWAP1 POP PUSH1 0x20 DUP3 ADD SWAP1 POP SWAP2 SWAP1 POP JUMP JUMPDEST PUSH1 0x0 DUP2 SWAP1 POP SWAP2 SWAP1 POP JUMP JUMPDEST PUSH3 0x13CA DUP2 PUSH3 0x13B5 JUMP JUMPDEST DUP3 MSTORE POP POP JUMP JUMPDEST PUSH1 0x0 PUSH3 0x13DE DUP4 DUP4 PUSH3 0x13BF JUMP JUMPDEST PUSH1 0x20 DUP4 ADD SWAP1 POP SWAP3 SWAP2 POP POP JUMP JUMPDEST PUSH1 0x0 PUSH1 0x20 DUP3 ADD SWAP1 POP SWAP2 SWAP1 POP JUMP JUMPDEST PUSH1 0x0 PUSH3 0x1404 DUP3 PUSH3 0x1389 JUMP JUMPDEST PUSH3 0x1410 DUP2 DUP6 PUSH3 0x1394 JUMP JUMPDEST SWAP4 POP PUSH3 0x141D DUP4 PUSH3 0x13A5 JUMP JUMPDEST DUP1 PUSH1 0x0 JUMPDEST DUP4 DUP2 LT ISZERO PUSH3 0x1454 JUMPI DUP2 MLOAD PUSH3 0x1438 DUP9 DUP3 PUSH3 0x13D0 JUMP JUMPDEST SWAP8 POP PUSH3 0x1445 DUP4 PUSH3 0x13EA JUMP JUMPDEST SWAP3 POP POP PUSH1 0x1 DUP2 ADD SWAP1 POP PUSH3 0x1421 JUMP JUMPDEST POP DUP6 SWAP4 POP POP POP POP SWAP3 SWAP2 POP POP JUMP JUMPDEST PUSH1 0x0 PUSH1 0x20 DUP3 ADD SWAP1 POP DUP2 DUP2 SUB PUSH1 0x0 DUP4 ADD MSTORE PUSH3 0x147D DUP2 DUP5 PUSH3 0x13F7 JUMP JUMPDEST SWAP1 POP SWAP3 SWAP2 POP POP JUMP JUMPDEST PUSH1 0x0 PUSH1 0x40 MLOAD SWAP1 POP SWAP1 JUMP JUMPDEST PUSH1 0x0 DUP1 REVERT JUMPDEST PUSH1 0x0 DUP1 REVERT JUMPDEST PUSH3 0x14A4 DUP2 PUSH3 0x13B5 JUMP JUMPDEST DUP2 EQ PUSH3 0x14B0 JUMPI PUSH1 0x0 DUP1 REVERT JUMPDEST POP JUMP JUMPDEST PUSH1 0x0 DUP2 CALLDATALOAD SWAP1 POP PUSH3 0x14C4 DUP2 PUSH3 0x1499 JUMP JUMPDEST SWAP3 SWAP2 POP POP JUMP JUMPDEST PUSH1 0x0 DUP1 PUSH1 0x40 DUP4 DUP6 SUB SLT ISZERO PUSH3 0x14E4 JUMPI PUSH3 0x14E3 PUSH3 0x148F JUMP JUMPDEST JUMPDEST PUSH1 0x0 PUSH3 0x14F4 DUP6 DUP3 DUP7 ADD PUSH3 0x14B3 JUMP JUMPDEST SWAP3 POP POP PUSH1 0x20 PUSH3 0x1507 DUP6 DUP3 DUP7 ADD PUSH3 0x14B3 JUMP JUMPDEST SWAP2 POP POP SWAP3 POP SWAP3 SWAP1 POP JUMP JUMPDEST PUSH1 0x0 PUSH1 0x20 DUP3 DUP5 SUB SLT ISZERO PUSH3 0x152A JUMPI PUSH3 0x1529 PUSH3 0x148F JUMP JUMPDEST JUMPDEST PUSH1 0x0 PUSH3 0x153A DUP5 DUP3 DUP6 ADD PUSH3 0x14B3 JUMP JUMPDEST SWAP2 POP POP SWAP3 SWAP2 POP POP JUMP JUMPDEST PUSH1 0x0 PUSH20 0xFFFFFFFFFFFFFFFFFFFFFFFFFFFFFFFFFFFFFFFF DUP3 AND SWAP1 POP SWAP2 SWAP1 POP JUMP JUMPDEST PUSH1 0x0 PUSH3 0x1570 DUP3 PUSH3 0x1543 JUMP JUMPDEST SWAP1 POP SWAP2 SWAP1 POP JUMP JUMPDEST PUSH3 0x1582 DUP2 PUSH3 0x1563 JUMP JUMPDEST DUP3 MSTORE POP POP JUMP JUMPDEST PUSH1 0x0 PUSH1 0x20 DUP3 ADD SWAP1 POP PUSH3 0x159F PUSH1 0x0 DUP4 ADD DUP5 PUSH3 0x1577 JUMP JUMPDEST SWAP3 SWAP2 POP POP JUMP JUMPDEST PUSH1 0x0 DUP1 REVERT JUMPDEST PUSH1 0x0 DUP1 REVERT JUMPDEST PUSH1 0x0 PUSH1 0x1F NOT PUSH1 0x1F DUP4 ADD AND SWAP1 POP SWAP2 SWAP1 POP JUMP JUMPDEST PUSH32 0x4E487B7100000000000000000000000000000000000000000000000000000000 PUSH1 0x0 MSTORE PUSH1 0x41 PUSH1 0x4 MSTORE PUSH1 0x24 PUSH1 0x0 REVERT JUMPDEST PUSH3 0x15FA DUP3 PUSH3 0x15AF JUMP JUMPDEST DUP2 ADD DUP2 DUP2 LT PUSH8 0xFFFFFFFFFFFFFFFF DUP3 GT OR ISZERO PUSH3 0x161C JUMPI PUSH3 0x161B PUSH3 0x15C0 JUMP JUMPDEST JUMPDEST DUP1 PUSH1 0x40 MSTORE POP POP POP JUMP JUMPDEST PUSH1 0x0 PUSH3 0x1631 PUSH3 0x1485 JUMP JUMPDEST SWAP1 POP PUSH3 0x163F DUP3 DUP3 PUSH3 0x15EF JUMP JUMPDEST SWAP2 SWAP1 POP JUMP JUMPDEST PUSH1 0x0 PUSH8 0xFFFFFFFFFFFFFFFF DUP3 GT ISZERO PUSH3 0x1662 JUMPI PUSH3 0x1661 PUSH3 0x15C0 JUMP JUMPDEST JUMPDEST PUSH3 0x166D DUP3 PUSH3 0x15AF JUMP JUMPDEST SWAP1 POP PUSH1 0x20 DUP2 ADD SWAP1 POP SWAP2 SWAP1 POP JUMP JUMPDEST DUP3 DUP2 DUP4 CALLDATACOPY PUSH1 0x0 DUP4 DUP4 ADD MSTORE POP POP POP JUMP JUMPDEST PUSH1 0x0 PUSH3 0x16A0 PUSH3 0x169A DUP5 PUSH3 0x1644 JUMP JUMPDEST PUSH3 0x1625 JUMP JUMPDEST SWAP1 POP DUP3 DUP2 MSTORE PUSH1 0x20 DUP2 ADD DUP5 DUP5 DUP5 ADD GT ISZERO PUSH3 0x16BF JUMPI PUSH3 0x16BE PUSH3 0x15AA JUMP JUMPDEST JUMPDEST PUSH3 0x16CC DUP5 DUP3 DUP6 PUSH3 0x167A JUMP JUMPDEST POP SWAP4 SWAP3 POP POP POP JUMP JUMPDEST PUSH1 0x0 DUP3 PUSH1 0x1F DUP4 ADD SLT PUSH3 0x16EC JUMPI PUSH3 0x16EB PUSH3 0x15A5 JUMP JUMPDEST JUMPDEST DUP2 CALLDATALOAD PUSH3 0x16FE DUP5 DUP3 PUSH1 0x20 DUP7 ADD PUSH3 0x1689 JUMP JUMPDEST SWAP2 POP POP SWAP3 SWAP2 POP POP JUMP JUMPDEST PUSH1 0x0 DUP1 PUSH1 0x0 PUSH1 0x60 DUP5 DUP7 SUB SLT ISZERO PUSH3 0x1723 JUMPI PUSH3 0x1722 PUSH3 0x148F JUMP JUMPDEST JUMPDEST PUSH1 0x0 PUSH3 0x1733 DUP7 DUP3 DUP8 ADD PUSH3 0x14B3 JUMP JUMPDEST SWAP4 POP POP PUSH1 0x20 PUSH3 0x1746 DUP7 DUP3 DUP8 ADD PUSH3 0x14B3 JUMP JUMPDEST SWAP3 POP POP PUSH1 0x40 DUP5 ADD CALLDATALOAD PUSH8 0xFFFFFFFFFFFFFFFF DUP2 GT ISZERO PUSH3 0x176A JUMPI PUSH3 0x1769 PUSH3 0x1494 JUMP JUMPDEST JUMPDEST PUSH3 0x1778 DUP7 DUP3 DUP8 ADD PUSH3 0x16D4 JUMP JUMPDEST SWAP2 POP POP SWAP3 POP SWAP3 POP SWAP3 JUMP JUMPDEST PUSH1 0x0 DUP1 PUSH1 0x40 DUP4 DUP6 SUB SLT ISZERO PUSH3 0x179C JUMPI PUSH3 0x179B PUSH3 0x148F JUMP JUMPDEST JUMPDEST PUSH1 0x0 PUSH3 0x17AC DUP6 DUP3 DUP7 ADD PUSH3 0x14B3 JUMP JUMPDEST SWAP3 POP POP PUSH1 0x20 DUP4 ADD CALLDATALOAD PUSH8 0xFFFFFFFFFFFFFFFF DUP2 GT ISZERO PUSH3 0x17D0 JUMPI PUSH3 0x17CF PUSH3 0x1494 JUMP JUMPDEST JUMPDEST PUSH3 0x17DE DUP6 DUP3 DUP7 ADD PUSH3 0x16D4 JUMP JUMPDEST SWAP2 POP POP SWAP3 POP SWAP3 SWAP1 POP JUMP JUMPDEST PUSH1 0x0 DUP2 ISZERO ISZERO SWAP1 POP SWAP2 SWAP1 POP JUMP JUMPDEST PUSH3 0x17FF DUP2 PUSH3 0x17E8 JUMP JUMPDEST DUP2 EQ PUSH3 0x180B JUMPI PUSH1 0x0 DUP1 REVERT JUMPDEST POP JUMP JUMPDEST PUSH1 0x0 DUP2 CALLDATALOAD SWAP1 POP PUSH3 0x181F DUP2 PUSH3 0x17F4 JUMP JUMPDEST SWAP3 SWAP2 POP POP JUMP JUMPDEST PUSH1 0x0 DUP1 PUSH1 0x0 DUP1 PUSH1 0x80 DUP6 DUP8 SUB SLT ISZERO PUSH3 0x1842 JUMPI PUSH3 0x1841 PUSH3 0x148F JUMP JUMPDEST JUMPDEST PUSH1 0x0 PUSH3 0x1852 DUP8 DUP3 DUP9 ADD PUSH3 0x14B3 JUMP JUMPDEST SWAP5 POP POP PUSH1 0x20 PUSH3 0x1865 DUP8 DUP3 DUP9 ADD PUSH3 0x14B3 JUMP JUMPDEST SWAP4 POP POP PUSH1 0x40 PUSH3 0x1878 DUP8 DUP3 DUP9 ADD PUSH3 0x180E JUMP JUMPDEST SWAP3 POP POP PUSH1 0x60 PUSH3 0x188B DUP8 DUP3 DUP9 ADD PUSH3 0x180E JUMP JUMPDEST SWAP2 POP POP SWAP3 SWAP6 SWAP2 SWAP5 POP SWAP3 POP JUMP JUMPDEST PUSH32 0x4E487B7100000000000000000000000000000000000000000000000000000000 PUSH1 0x0 MSTORE PUSH1 0x32 PUSH1 0x4 MSTORE PUSH1 0x24 PUSH1 0x0 REVERT JUMPDEST PUSH1 0x0 DUP2 MLOAD SWAP1 POP PUSH3 0x18D7 DUP2 PUSH3 0x1499 JUMP JUMPDEST SWAP3 SWAP2 POP POP JUMP JUMPDEST PUSH1 0x0 PUSH1 0x20 DUP3 DUP5 SUB SLT ISZERO PUSH3 0x18F6 JUMPI PUSH3 0x18F5 PUSH3 0x148F JUMP JUMPDEST JUMPDEST PUSH1 0x0 PUSH3 0x1906 DUP5 DUP3 DUP6 ADD PUSH3 0x18C6 JUMP JUMPDEST SWAP2 POP POP SWAP3 SWAP2 POP POP JUMP JUMPDEST PUSH1 0x0 DUP3 DUP3 MSTORE PUSH1 0x20 DUP3 ADD SWAP1 POP SWAP3 SWAP2 POP POP JUMP JUMPDEST PUSH32 0x5573657220616C72656164792065786973740000000000000000000000000000 PUSH1 0x0 DUP3 ADD MSTORE POP JUMP JUMPDEST PUSH1 0x0 PUSH3 0x1958 PUSH1 0x12 DUP4 PUSH3 0x190F JUMP JUMPDEST SWAP2 POP PUSH3 0x1965 DUP3 PUSH3 0x1920 JUMP JUMPDEST PUSH1 0x20 DUP3 ADD SWAP1 POP SWAP2 SWAP1 POP JUMP JUMPDEST PUSH1 0x0 PUSH1 0x20 DUP3 ADD SWAP1 POP DUP2 DUP2 SUB PUSH1 0x0 DUP4 ADD MSTORE PUSH3 0x198B DUP2 PUSH3 0x1949 JUMP JUMPDEST SWAP1 POP SWAP2 SWAP1 POP JUMP JUMPDEST PUSH3 0x199D DUP2 PUSH3 0x13B5 JUMP JUMPDEST DUP3 MSTORE POP POP JUMP JUMPDEST PUSH1 0x0 PUSH1 0x20 DUP3 ADD SWAP1 POP PUSH3 0x19BA PUSH1 0x0 DUP4 ADD DUP5 PUSH3 0x1992 JUMP JUMPDEST SWAP3 SWAP2 POP POP JUMP JUMPDEST PUSH1 0x0 DUP2 MLOAD SWAP1 POP SWAP2 SWAP1 POP JUMP JUMPDEST PUSH1 0x0 JUMPDEST DUP4 DUP2 LT ISZERO PUSH3 0x19EB JUMPI DUP1 DUP3 ADD MLOAD DUP2 DUP5 ADD MSTORE PUSH1 0x20 DUP2 ADD SWAP1 POP PUSH3 0x19CE JUMP JUMPDEST PUSH1 0x0 DUP5 DUP5 ADD MSTORE POP POP POP POP JUMP JUMPDEST PUSH1 0x0 PUSH3 0x1A04 DUP3 PUSH3 0x19C0 JUMP JUMPDEST PUSH3 0x1A10 DUP2 DUP6 PUSH3 0x190F JUMP JUMPDEST SWAP4 POP PUSH3 0x1A22 DUP2 DUP6 PUSH1 0x20 DUP7 ADD PUSH3 0x19CB JUMP JUMPDEST PUSH3 0x1A2D DUP2 PUSH3 0x15AF JUMP JUMPDEST DUP5 ADD SWAP2 POP POP SWAP3 SWAP2 POP POP JUMP JUMPDEST PUSH1 0x0 PUSH1 0x40 DUP3 ADD SWAP1 POP PUSH3 0x1A4F PUSH1 0x0 DUP4 ADD DUP6 PUSH3 0x1992 JUMP JUMPDEST DUP2 DUP2 SUB PUSH1 0x20 DUP4 ADD MSTORE PUSH3 0x1A63 DUP2 DUP5 PUSH3 0x19F7 JUMP JUMPDEST SWAP1 POP SWAP4 SWAP3 POP POP POP JUMP JUMPDEST PUSH3 0x1A77 DUP2 PUSH3 0x17E8 JUMP JUMPDEST DUP3 MSTORE POP POP JUMP JUMPDEST PUSH1 0x0 PUSH1 0x60 DUP3 ADD SWAP1 POP PUSH3 0x1A94 PUSH1 0x0 DUP4 ADD DUP7 PUSH3 0x1992 JUMP JUMPDEST PUSH3 0x1AA3 PUSH1 0x20 DUP4 ADD DUP6 PUSH3 0x1A6C JUMP JUMPDEST PUSH3 0x1AB2 PUSH1 0x40 DUP4 ADD DUP5 PUSH3 0x1A6C JUMP JUMPDEST SWAP5 SWAP4 POP POP POP POP JUMP INVALID PUSH1 0x80 PUSH1 0x40 MSTORE CALLVALUE DUP1 ISZERO PUSH3 0x11 JUMPI PUSH1 0x0 DUP1 REVERT JUMPDEST POP PUSH1 0x40 MLOAD PUSH3 0x1BF1 CODESIZE SUB DUP1 PUSH3 0x1BF1 DUP4 CODECOPY DUP2 DUP2 ADD PUSH1 0x40 MSTORE DUP2 ADD SWAP1 PUSH3 0x37 SWAP2 SWAP1 PUSH3 0x2D6 JUMP JUMPDEST DUP2 PUSH1 0x1 DUP2 SWAP1 SSTORE POP PUSH1 0x1 PUSH1 0x3 PUSH1 0x1 PUSH2 0x100 EXP DUP2 SLOAD DUP2 PUSH1 0xFF MUL NOT AND SWAP1 DUP4 PUSH1 0x1 DUP2 GT ISZERO PUSH3 0x67 JUMPI PUSH3 0x66 PUSH3 0x33C JUMP JUMPDEST JUMPDEST MUL OR SWAP1 SSTORE POP DUP1 PUSH1 0x2 SWAP1 DUP2 PUSH3 0x7D SWAP2 SWAP1 PUSH3 0x5AC JUMP JUMPDEST POP PUSH1 0x0 PUSH1 0x3 PUSH1 0x0 PUSH2 0x100 EXP DUP2 SLOAD DUP2 PUSH1 0xFF MUL NOT AND SWAP1 DUP4 ISZERO ISZERO MUL OR SWAP1 SSTORE POP PUSH1 0x0 JUMPDEST PUSH1 0x4 DUP1 SLOAD SWAP1 POP DUP2 LT ISZERO PUSH3 0xFF JUMPI PUSH1 0x40 MLOAD DUP1 PUSH1 0x20 ADD PUSH1 0x40 MSTORE DUP1 PUSH1 0x0 DUP2 MSTORE POP PUSH1 0x4 DUP3 DUP2 SLOAD DUP2 LT PUSH3 0xD1 JUMPI PUSH3 0xD0 PUSH3 0x693 JUMP JUMPDEST JUMPDEST SWAP1 PUSH1 0x0 MSTORE PUSH1 0x20 PUSH1 0x0 KECCAK256 SWAP1 PUSH1 0x3 MUL ADD PUSH1 0x1 ADD SWAP1 DUP2 PUSH3 0xF0 SWAP2 SWAP1 PUSH3 0x5AC JUMP JUMPDEST POP DUP1 DUP1 PUSH1 0x1 ADD SWAP2 POP POP PUSH3 0x9C JUMP JUMPDEST POP POP POP PUSH3 0x6C2 JUMP JUMPDEST PUSH1 0x0 PUSH1 0x40 MLOAD SWAP1 POP SWAP1 JUMP JUMPDEST PUSH1 0x0 DUP1 REVERT JUMPDEST PUSH1 0x0 DUP1 REVERT JUMPDEST PUSH1 0x0 DUP2 SWAP1 POP SWAP2 SWAP1 POP JUMP JUMPDEST PUSH3 0x131 DUP2 PUSH3 0x11C JUMP JUMPDEST DUP2 EQ PUSH3 0x13D JUMPI PUSH1 0x0 DUP1 REVERT JUMPDEST POP JUMP JUMPDEST PUSH1 0x0 DUP2 MLOAD SWAP1 POP PUSH3 0x151 DUP2 PUSH3 0x126 JUMP JUMPDEST SWAP3 SWAP2 POP POP JUMP JUMPDEST PUSH1 0x0 DUP1 REVERT JUMPDEST PUSH1 0x0 DUP1 REVERT JUMPDEST PUSH1 0x0 PUSH1 0x1F NOT PUSH1 0x1F DUP4 ADD AND SWAP1 POP SWAP2 SWAP1 POP JUMP JUMPDEST PUSH32 0x4E487B7100000000000000000000000000000000000000000000000000000000 PUSH1 0x0 MSTORE PUSH1 0x41 PUSH1 0x4 MSTORE PUSH1 0x24 PUSH1 0x0 REVERT JUMPDEST PUSH3 0x1AC DUP3 PUSH3 0x161 JUMP JUMPDEST DUP2 ADD DUP2 DUP2 LT PUSH8 0xFFFFFFFFFFFFFFFF DUP3 GT OR ISZERO PUSH3 0x1CE JUMPI PUSH3 0x1CD PUSH3 0x172 JUMP JUMPDEST JUMPDEST DUP1 PUSH1 0x40 MSTORE POP POP POP JUMP JUMPDEST PUSH1 0x0 PUSH3 0x1E3 PUSH3 0x108 JUMP JUMPDEST SWAP1 POP PUSH3 0x1F1 DUP3 DUP3 PUSH3 0x1A1 JUMP JUMPDEST SWAP2 SWAP1 POP JUMP JUMPDEST PUSH1 0x0 PUSH8 0xFFFFFFFFFFFFFFFF DUP3 GT ISZERO PUSH3 0x214 JUMPI PUSH3 0x213 PUSH3 0x172 JUMP JUMPDEST JUMPDEST PUSH3 0x21F DUP3 PUSH3 0x161 JUMP JUMPDEST SWAP1 POP PUSH1 0x20 DUP2 ADD SWAP1 POP SWAP2 SWAP1 POP JUMP JUMPDEST PUSH1 0x0 JUMPDEST DUP4 DUP2 LT ISZERO PUSH3 0x24C JUMPI DUP1 DUP3 ADD MLOAD DUP2 DUP5 ADD MSTORE PUSH1 0x20 DUP2 ADD SWAP1 POP PUSH3 0x22F JUMP JUMPDEST PUSH1 0x0 DUP5 DUP5 ADD MSTORE POP POP POP POP JUMP JUMPDEST PUSH1 0x0 PUSH3 0x26F PUSH3 0x269 DUP5 PUSH3 0x1F6 JUMP JUMPDEST PUSH3 0x1D7 JUMP JUMPDEST SWAP1 POP DUP3 DUP2 MSTORE PUSH1 0x20 DUP2 ADD DUP5 DUP5 DUP5 ADD GT ISZERO PUSH3 0x28E JUMPI PUSH3 0x28D PUSH3 0x15C JUMP JUMPDEST JUMPDEST PUSH3 0x29B DUP5 DUP3 DUP6 PUSH3 0x22C JUMP JUMPDEST POP SWAP4 SWAP3 POP POP POP JUMP JUMPDEST PUSH1 0x0 DUP3 PUSH1 0x1F DUP4 ADD SLT PUSH3 0x2BB JUMPI PUSH3 0x2BA PUSH3 0x157 JUMP JUMPDEST JUMPDEST DUP2 MLOAD PUSH3 0x2CD DUP5 DUP3 PUSH1 0x20 DUP7 ADD PUSH3 0x258 JUMP JUMPDEST SWAP2 POP POP SWAP3 SWAP2 POP POP JUMP JUMPDEST PUSH1 0x0 DUP1 PUSH1 0x40 DUP4 DUP6 SUB SLT ISZERO PUSH3 0x2F0 JUMPI PUSH3 0x2EF PUSH3 0x112 JUMP JUMPDEST JUMPDEST PUSH1 0x0 PUSH3 0x300 DUP6 DUP3 DUP7 ADD PUSH3 0x140 JUMP JUMPDEST SWAP3 POP POP PUSH1 0x20 DUP4 ADD MLOAD PUSH8 0xFFFFFFFFFFFFFFFF DUP2 GT ISZERO PUSH3 0x324 JUMPI PUSH3 0x323 PUSH3 0x117 JUMP JUMPDEST JUMPDEST PUSH3 0x332 DUP6 DUP3 DUP7 ADD PUSH3 0x2A3 JUMP JUMPDEST SWAP2 POP POP SWAP3 POP SWAP3 SWAP1 POP JUMP JUMPDEST PUSH32 0x4E487B7100000000000000000000000000000000000000000000000000000000 PUSH1 0x0 MSTORE PUSH1 0x21 PUSH1 0x4 MSTORE PUSH1 0x24 PUSH1 0x0 REVERT JUMPDEST PUSH1 0x0 DUP2 MLOAD SWAP1 POP SWAP2 SWAP1 POP JUMP JUMPDEST PUSH32 0x4E487B7100000000000000000000000000000000000000000000000000000000 PUSH1 0x0 MSTORE PUSH1 0x22 PUSH1 0x4 MSTORE PUSH1 0x24 PUSH1 0x0 REVERT JUMPDEST PUSH1 0x0 PUSH1 0x2 DUP3 DIV SWAP1 POP PUSH1 0x1 DUP3 AND DUP1 PUSH3 0x3BE JUMPI PUSH1 0x7F DUP3 AND SWAP2 POP JUMPDEST PUSH1 0x20 DUP3 LT DUP2 SUB PUSH3 0x3D4 JUMPI PUSH3 0x3D3 PUSH3 0x376 JUMP JUMPDEST JUMPDEST POP SWAP2 SWAP1 POP JUMP JUMPDEST PUSH1 0x0 DUP2 SWAP1 POP DUP2 PUSH1 0x0 MSTORE PUSH1 0x20 PUSH1 0x0 KECCAK256 SWAP1 POP SWAP2 SWAP1 POP JUMP JUMPDEST PUSH1 0x0 PUSH1 0x20 PUSH1 0x1F DUP4 ADD DIV SWAP1 POP SWAP2 SWAP1 POP JUMP JUMPDEST PUSH1 0x0 DUP3 DUP3 SHL SWAP1 POP SWAP3 SWAP2 POP POP JUMP JUMPDEST PUSH1 0x0 PUSH1 0x8 DUP4 MUL PUSH3 0x43E PUSH32 0xFFFFFFFFFFFFFFFFFFFFFFFFFFFFFFFFFFFFFFFFFFFFFFFFFFFFFFFFFFFFFFFF DUP3 PUSH3 0x3FF JUMP JUMPDEST PUSH3 0x44A DUP7 DUP4 PUSH3 0x3FF JUMP JUMPDEST SWAP6 POP DUP1 NOT DUP5 AND SWAP4 POP DUP1 DUP7 AND DUP5 OR SWAP3 POP POP POP SWAP4 SWAP3 POP POP POP JUMP JUMPDEST PUSH1 0x0 DUP2 SWAP1 POP SWAP2 SWAP1 POP JUMP JUMPDEST PUSH1 0x0 PUSH3 0x48D PUSH3 0x487 PUSH3 0x481 DUP5 PUSH3 0x11C JUMP JUMPDEST PUSH3 0x462 JUMP JUMPDEST PUSH3 0x11C JUMP JUMPDEST SWAP1 POP SWAP2 SWAP1 POP JUMP JUMPDEST PUSH1 0x0 DUP2 SWAP1 POP SWAP2 SWAP1 POP JUMP JUMPDEST PUSH3 0x4A9 DUP4 PUSH3 0x46C JUMP JUMPDEST PUSH3 0x4C1 PUSH3 0x4B8 DUP3 PUSH3 0x494 JUMP JUMPDEST DUP5 DUP5 SLOAD PUSH3 0x40C JUMP JUMPDEST DUP3 SSTORE POP POP POP POP JUMP JUMPDEST PUSH1 0x0 SWAP1 JUMP JUMPDEST PUSH3 0x4D8 PUSH3 0x4C9 JUMP JUMPDEST PUSH3 0x4E5 DUP2 DUP5 DUP5 PUSH3 0x49E JUMP JUMPDEST POP POP POP JUMP JUMPDEST JUMPDEST DUP2 DUP2 LT ISZERO PUSH3 0x50D JUMPI PUSH3 0x501 PUSH1 0x0 DUP3 PUSH3 0x4CE JUMP JUMPDEST PUSH1 0x1 DUP2 ADD SWAP1 POP PUSH3 0x4EB JUMP JUMPDEST POP POP JUMP JUMPDEST PUSH1 0x1F DUP3 GT ISZERO PUSH3 0x55C JUMPI PUSH3 0x526 DUP2 PUSH3 0x3DA JUMP JUMPDEST PUSH3 0x531 DUP5 PUSH3 0x3EF JUMP JUMPDEST DUP2 ADD PUSH1 0x20 DUP6 LT ISZERO PUSH3 0x541 JUMPI DUP2 SWAP1 POP JUMPDEST PUSH3 0x559 PUSH3 0x550 DUP6 PUSH3 0x3EF JUMP JUMPDEST DUP4 ADD DUP3 PUSH3 0x4EA JUMP JUMPDEST POP POP JUMPDEST POP POP POP JUMP JUMPDEST PUSH1 0x0 DUP3 DUP3 SHR SWAP1 POP SWAP3 SWAP2 POP POP JUMP JUMPDEST PUSH1 0x0 PUSH3 0x581 PUSH1 0x0 NOT DUP5 PUSH1 0x8 MUL PUSH3 0x561 JUMP JUMPDEST NOT DUP1 DUP4 AND SWAP2 POP POP SWAP3 SWAP2 POP POP JUMP JUMPDEST PUSH1 0x0 PUSH3 0x59C DUP4 DUP4 PUSH3 0x56E JUMP JUMPDEST SWAP2 POP DUP3 PUSH1 0x2 MUL DUP3 OR SWAP1 POP SWAP3 SWAP2 POP POP JUMP JUMPDEST PUSH3 0x5B7 DUP3 PUSH3 0x36B JUMP JUMPDEST PUSH8 0xFFFFFFFFFFFFFFFF DUP2 GT ISZERO PUSH3 0x5D3 JUMPI PUSH3 0x5D2 PUSH3 0x172 JUMP JUMPDEST JUMPDEST PUSH3 0x5DF DUP3 SLOAD PUSH3 0x3A5 JUMP JUMPDEST PUSH3 0x5EC DUP3 DUP3 DUP6 PUSH3 0x511 JUMP JUMPDEST PUSH1 0x0 PUSH1 0x20 SWAP1 POP PUSH1 0x1F DUP4 GT PUSH1 0x1 DUP2 EQ PUSH3 0x624 JUMPI PUSH1 0x0 DUP5 ISZERO PUSH3 0x60F JUMPI DUP3 DUP8 ADD MLOAD SWAP1 POP JUMPDEST PUSH3 0x61B DUP6 DUP3 PUSH3 0x58E JUMP JUMPDEST DUP7 SSTORE POP PUSH3 0x68B JUMP JUMPDEST PUSH1 0x1F NOT DUP5 AND PUSH3 0x634 DUP7 PUSH3 0x3DA JUMP JUMPDEST PUSH1 0x0 JUMPDEST DUP3 DUP2 LT ISZERO PUSH3 0x65E JUMPI DUP5 DUP10 ADD MLOAD DUP3 SSTORE PUSH1 0x1 DUP3 ADD SWAP2 POP PUSH1 0x20 DUP6 ADD SWAP5 POP PUSH1 0x20 DUP2 ADD SWAP1 POP PUSH3 0x637 JUMP JUMPDEST DUP7 DUP4 LT ISZERO PUSH3 0x67E JUMPI DUP5 DUP10 ADD MLOAD PUSH3 0x67A PUSH1 0x1F DUP10 AND DUP3 PUSH3 0x56E JUMP JUMPDEST DUP4 SSTORE POP JUMPDEST PUSH1 0x1 PUSH1 0x2 DUP9 MUL ADD DUP9 SSTORE POP POP POP JUMPDEST POP POP POP POP POP POP JUMP JUMPDEST PUSH32 0x4E487B7100000000000000000000000000000000000000000000000000000000 PUSH1 0x0 MSTORE PUSH1 0x32 PUSH1 0x4 MSTORE PUSH1 0x24 PUSH1 0x0 REVERT JUMPDEST PUSH2 0x151F DUP1 PUSH3 0x6D2 PUSH1 0x0 CODECOPY PUSH1 0x0 RETURN INVALID PUSH1 0x80 PUSH1 0x40 MSTORE CALLVALUE DUP1 ISZERO PUSH2 0x10 JUMPI PUSH1 0x0 DUP1 REVERT JUMPDEST POP PUSH1 0x4 CALLDATASIZE LT PUSH2 0xF5 JUMPI PUSH1 0x0 CALLDATALOAD PUSH1 0xE0 SHR DUP1 PUSH4 0x84731D6F GT PUSH2 0x97 JUMPI DUP1 PUSH4 0xAC3EF22D GT PUSH2 0x66 JUMPI DUP1 PUSH4 0xAC3EF22D EQ PUSH2 0x253 JUMPI DUP1 PUSH4 0xB74513C1 EQ PUSH2 0x25D JUMPI DUP1 PUSH4 0xE5A72D5B EQ PUSH2 0x27B JUMPI DUP1 PUSH4 0xFC68B3ED EQ PUSH2 0x297 JUMPI PUSH2 0xF5 JUMP JUMPDEST DUP1 PUSH4 0x84731D6F EQ PUSH2 0x1DB JUMPI DUP1 PUSH4 0x8DA5CB5B EQ PUSH2 0x1F9 JUMPI DUP1 PUSH4 0x904C6094 EQ PUSH2 0x217 JUMPI DUP1 PUSH4 0xABCC7A65 EQ PUSH2 0x235 JUMPI PUSH2 0xF5 JUMP JUMPDEST DUP1 PUSH4 0x42BE8CB5 GT PUSH2 0xD3 JUMPI DUP1 PUSH4 0x42BE8CB5 EQ PUSH2 0x13C JUMPI DUP1 PUSH4 0x499BA0AA EQ PUSH2 0x16C JUMPI DUP1 PUSH4 0x58975919 EQ PUSH2 0x19F JUMPI DUP1 PUSH4 0x65A6BB29 EQ PUSH2 0x1BD JUMPI PUSH2 0xF5 JUMP JUMPDEST DUP1 PUSH4 0x3121924D EQ PUSH2 0xFA JUMPI DUP1 PUSH4 0x35254BCD EQ PUSH2 0x116 JUMPI DUP1 PUSH4 0x38FCBC01 EQ PUSH2 0x120 JUMPI JUMPDEST PUSH1 0x0 DUP1 REVERT JUMPDEST PUSH2 0x114 PUSH1 0x4 DUP1 CALLDATASIZE SUB DUP2 ADD SWAP1 PUSH2 0x10F SWAP2 SWAP1 PUSH2 0xCE1 JUMP JUMPDEST PUSH2 0x2B3 JUMP JUMPDEST STOP JUMPDEST PUSH2 0x11E PUSH2 0x38B JUMP JUMPDEST STOP JUMPDEST PUSH2 0x13A PUSH1 0x4 DUP1 CALLDATASIZE SUB DUP2 ADD SWAP1 PUSH2 0x135 SWAP2 SWAP1 PUSH2 0xD75 JUMP JUMPDEST PUSH2 0x3FE JUMP JUMPDEST STOP JUMPDEST PUSH2 0x156 PUSH1 0x4 DUP1 CALLDATASIZE SUB DUP2 ADD SWAP1 PUSH2 0x151 SWAP2 SWAP1 PUSH2 0xDC8 JUMP JUMPDEST PUSH2 0x51E JUMP JUMPDEST PUSH1 0x40 MLOAD PUSH2 0x163 SWAP2 SWAP1 PUSH2 0xE04 JUMP JUMPDEST PUSH1 0x40 MLOAD DUP1 SWAP2 SUB SWAP1 RETURN JUMPDEST PUSH2 0x186 PUSH1 0x4 DUP1 CALLDATASIZE SUB DUP2 ADD SWAP1 PUSH2 0x181 SWAP2 SWAP1 PUSH2 0xDC8 JUMP JUMPDEST PUSH2 0x548 JUMP JUMPDEST PUSH1 0x40 MLOAD PUSH2 0x196 SWAP5 SWAP4 SWAP3 SWAP2 SWAP1 PUSH2 0xEAD JUMP JUMPDEST PUSH1 0x40 MLOAD DUP1 SWAP2 SUB SWAP1 RETURN JUMPDEST PUSH2 0x1A7 PUSH2 0x62A JUMP JUMPDEST PUSH1 0x40 MLOAD PUSH2 0x1B4 SWAP2 SWAP1 PUSH2 0xE04 JUMP JUMPDEST PUSH1 0x40 MLOAD DUP1 SWAP2 SUB SWAP1 RETURN JUMPDEST PUSH2 0x1C5 PUSH2 0x630 JUMP JUMPDEST PUSH1 0x40 MLOAD PUSH2 0x1D2 SWAP2 SWAP1 PUSH2 0xFB7 JUMP JUMPDEST PUSH1 0x40 MLOAD DUP1 SWAP2 SUB SWAP1 RETURN JUMPDEST PUSH2 0x1E3 PUSH2 0x6EA JUMP JUMPDEST PUSH1 0x40 MLOAD PUSH2 0x1F0 SWAP2 SWAP1 PUSH2 0x1050 JUMP JUMPDEST PUSH1 0x40 MLOAD DUP1 SWAP2 SUB SWAP1 RETURN JUMPDEST PUSH2 0x201 PUSH2 0x6FD JUMP JUMPDEST PUSH1 0x40 MLOAD PUSH2 0x20E SWAP2 SWAP1 PUSH2 0x10AC JUMP JUMPDEST PUSH1 0x40 MLOAD DUP1 SWAP2 SUB SWAP1 RETURN JUMPDEST PUSH2 0x21F PUSH2 0x721 JUMP JUMPDEST PUSH1 0x40 MLOAD PUSH2 0x22C SWAP2 SWAP1 PUSH2 0x10C7 JUMP JUMPDEST PUSH1 0x40 MLOAD DUP1 SWAP2 SUB SWAP1 RETURN JUMPDEST PUSH2 0x23D PUSH2 0x7AF JUMP JUMPDEST PUSH1 0x40 MLOAD PUSH2 0x24A SWAP2 SWAP1 PUSH2 0x10E9 JUMP JUMPDEST PUSH1 0x40 MLOAD DUP1 SWAP2 SUB SWAP1 RETURN JUMPDEST PUSH2 0x25B PUSH2 0x7C2 JUMP JUMPDEST STOP JUMPDEST PUSH2 0x265 PUSH2 0x8BA JUMP JUMPDEST PUSH1 0x40 MLOAD PUSH2 0x272 SWAP2 SWAP1 PUSH2 0xFB7 JUMP JUMPDEST PUSH1 0x40 MLOAD DUP1 SWAP2 SUB SWAP1 RETURN JUMPDEST PUSH2 0x295 PUSH1 0x4 DUP1 CALLDATASIZE SUB DUP2 ADD SWAP1 PUSH2 0x290 SWAP2 SWAP1 PUSH2 0xDC8 JUMP JUMPDEST PUSH2 0x978 JUMP JUMPDEST STOP JUMPDEST PUSH2 0x2B1 PUSH1 0x4 DUP1 CALLDATASIZE SUB DUP2 ADD SWAP1 PUSH2 0x2AC SWAP2 SWAP1 PUSH2 0xDC8 JUMP JUMPDEST PUSH2 0xA18 JUMP JUMPDEST STOP JUMPDEST PUSH1 0x0 ISZERO ISZERO PUSH1 0x3 PUSH1 0x0 SWAP1 SLOAD SWAP1 PUSH2 0x100 EXP SWAP1 DIV PUSH1 0xFF AND ISZERO ISZERO EQ PUSH2 0x309 JUMPI PUSH1 0x40 MLOAD PUSH32 0x8C379A000000000000000000000000000000000000000000000000000000000 DUP2 MSTORE PUSH1 0x4 ADD PUSH2 0x300 SWAP1 PUSH2 0x1150 JUMP JUMPDEST PUSH1 0x40 MLOAD DUP1 SWAP2 SUB SWAP1 REVERT JUMPDEST PUSH1 0x0 JUMPDEST PUSH1 0x4 DUP1 SLOAD SWAP1 POP DUP2 LT ISZERO PUSH2 0x386 JUMPI DUP3 PUSH1 0x4 DUP3 DUP2 SLOAD DUP2 LT PUSH2 0x32E JUMPI PUSH2 0x32D PUSH2 0x1170 JUMP JUMPDEST JUMPDEST SWAP1 PUSH1 0x0 MSTORE PUSH1 0x20 PUSH1 0x0 KECCAK256 SWAP1 PUSH1 0x3 MUL ADD PUSH1 0x0 ADD SLOAD SUB PUSH2 0x379 JUMPI DUP2 PUSH1 0x4 DUP3 DUP2 SLOAD DUP2 LT PUSH2 0x35A JUMPI PUSH2 0x359 PUSH2 0x1170 JUMP JUMPDEST JUMPDEST SWAP1 PUSH1 0x0 MSTORE PUSH1 0x20 PUSH1 0x0 KECCAK256 SWAP1 PUSH1 0x3 MUL ADD PUSH1 0x1 ADD SWAP1 DUP2 PUSH2 0x377 SWAP2 SWAP1 PUSH2 0x13AB JUMP JUMPDEST POP JUMPDEST DUP1 DUP1 PUSH1 0x1 ADD SWAP2 POP POP PUSH2 0x30C JUMP JUMPDEST POP POP POP JUMP JUMPDEST PUSH1 0x0 ISZERO ISZERO PUSH1 0x3 PUSH1 0x0 SWAP1 SLOAD SWAP1 PUSH2 0x100 EXP SWAP1 DIV PUSH1 0xFF AND ISZERO ISZERO EQ PUSH2 0x3E1 JUMPI PUSH1 0x40 MLOAD PUSH32 0x8C379A000000000000000000000000000000000000000000000000000000000 DUP2 MSTORE PUSH1 0x4 ADD PUSH2 0x3D8 SWAP1 PUSH2 0x1150 JUMP JUMPDEST PUSH1 0x40 MLOAD DUP1 SWAP2 SUB SWAP1 REVERT JUMPDEST PUSH1 0x1 PUSH1 0x3 PUSH1 0x0 PUSH2 0x100 EXP DUP2 SLOAD DUP2 PUSH1 0xFF MUL NOT AND SWAP1 DUP4 ISZERO ISZERO MUL OR SWAP1 SSTORE POP JUMP JUMPDEST PUSH1 0x0 ISZERO ISZERO PUSH1 0x3 PUSH1 0x0 SWAP1 SLOAD SWAP1 PUSH2 0x100 EXP SWAP1 DIV PUSH1 0xFF AND ISZERO ISZERO EQ PUSH2 0x454 JUMPI PUSH1 0x40 MLOAD PUSH32 0x8C379A000000000000000000000000000000000000000000000000000000000 DUP2 MSTORE PUSH1 0x4 ADD PUSH2 0x44B SWAP1 PUSH2 0x1150 JUMP JUMPDEST PUSH1 0x40 MLOAD DUP1 SWAP2 SUB SWAP1 REVERT JUMPDEST PUSH1 0x0 JUMPDEST PUSH1 0x4 DUP1 SLOAD SWAP1 POP DUP2 LT ISZERO PUSH2 0x518 JUMPI DUP4 PUSH1 0x4 DUP3 DUP2 SLOAD DUP2 LT PUSH2 0x479 JUMPI PUSH2 0x478 PUSH2 0x1170 JUMP JUMPDEST JUMPDEST SWAP1 PUSH1 0x0 MSTORE PUSH1 0x20 PUSH1 0x0 KECCAK256 SWAP1 PUSH1 0x3 MUL ADD PUSH1 0x0 ADD SLOAD SUB PUSH2 0x50B JUMPI DUP3 PUSH1 0x4 DUP3 DUP2 SLOAD DUP2 LT PUSH2 0x4A5 JUMPI PUSH2 0x4A4 PUSH2 0x1170 JUMP JUMPDEST JUMPDEST SWAP1 PUSH1 0x0 MSTORE PUSH1 0x20 PUSH1 0x0 KECCAK256 SWAP1 PUSH1 0x3 MUL ADD PUSH1 0x2 ADD PUSH1 0x0 PUSH2 0x100 EXP DUP2 SLOAD DUP2 PUSH1 0xFF MUL NOT AND SWAP1 DUP4 ISZERO ISZERO MUL OR SWAP1 SSTORE POP DUP2 PUSH1 0x4 DUP3 DUP2 SLOAD DUP2 LT PUSH2 0x4E2 JUMPI PUSH2 0x4E1 PUSH2 0x1170 JUMP JUMPDEST JUMPDEST SWAP1 PUSH1 0x0 MSTORE PUSH1 0x20 PUSH1 0x0 KECCAK256 SWAP1 PUSH1 0x3 MUL ADD PUSH1 0x2 ADD PUSH1 0x1 PUSH2 0x100 EXP DUP2 SLOAD DUP2 PUSH1 0xFF MUL NOT AND SWAP1 DUP4 ISZERO ISZERO MUL OR SWAP1 SSTORE POP JUMPDEST DUP1 DUP1 PUSH1 0x1 ADD SWAP2 POP POP PUSH2 0x457 JUMP JUMPDEST POP POP POP POP JUMP JUMPDEST PUSH1 0x5 DUP2 DUP2 SLOAD DUP2 LT PUSH2 0x52E JUMPI PUSH1 0x0 DUP1 REVERT JUMPDEST SWAP1 PUSH1 0x0 MSTORE PUSH1 0x20 PUSH1 0x0 KECCAK256 ADD PUSH1 0x0 SWAP2 POP SWAP1 POP DUP1 PUSH1 0x0 ADD SLOAD SWAP1 POP DUP2 JUMP JUMPDEST PUSH1 0x4 DUP2 DUP2 SLOAD DUP2 LT PUSH2 0x558 JUMPI PUSH1 0x0 DUP1 REVERT JUMPDEST SWAP1 PUSH1 0x0 MSTORE PUSH1 0x20 PUSH1 0x0 KECCAK256 SWAP1 PUSH1 0x3 MUL ADD PUSH1 0x0 SWAP2 POP SWAP1 POP DUP1 PUSH1 0x0 ADD SLOAD SWAP1 DUP1 PUSH1 0x1 ADD DUP1 SLOAD PUSH2 0x581 SWAP1 PUSH2 0x11CE JUMP JUMPDEST DUP1 PUSH1 0x1F ADD PUSH1 0x20 DUP1 SWAP2 DIV MUL PUSH1 0x20 ADD PUSH1 0x40 MLOAD SWAP1 DUP2 ADD PUSH1 0x40 MSTORE DUP1 SWAP3 SWAP2 SWAP1 DUP2 DUP2 MSTORE PUSH1 0x20 ADD DUP3 DUP1 SLOAD PUSH2 0x5AD SWAP1 PUSH2 0x11CE JUMP JUMPDEST DUP1 ISZERO PUSH2 0x5FA JUMPI DUP1 PUSH1 0x1F LT PUSH2 0x5CF JUMPI PUSH2 0x100 DUP1 DUP4 SLOAD DIV MUL DUP4 MSTORE SWAP2 PUSH1 0x20 ADD SWAP2 PUSH2 0x5FA JUMP JUMPDEST DUP3 ADD SWAP2 SWAP1 PUSH1 0x0 MSTORE PUSH1 0x20 PUSH1 0x0 KECCAK256 SWAP1 JUMPDEST DUP2 SLOAD DUP2 MSTORE SWAP1 PUSH1 0x1 ADD SWAP1 PUSH1 0x20 ADD DUP1 DUP4 GT PUSH2 0x5DD JUMPI DUP3 SWAP1 SUB PUSH1 0x1F AND DUP3 ADD SWAP2 JUMPDEST POP POP POP POP POP SWAP1 DUP1 PUSH1 0x2 ADD PUSH1 0x0 SWAP1 SLOAD SWAP1 PUSH2 0x100 EXP SWAP1 DIV PUSH1 0xFF AND SWAP1 DUP1 PUSH1 0x2 ADD PUSH1 0x1 SWAP1 SLOAD SWAP1 PUSH2 0x100 EXP SWAP1 DIV PUSH1 0xFF AND SWAP1 POP DUP5 JUMP JUMPDEST PUSH1 0x1 SLOAD DUP2 JUMP JUMPDEST PUSH1 0x60 PUSH1 0x0 PUSH1 0x5 DUP1 SLOAD SWAP1 POP PUSH8 0xFFFFFFFFFFFFFFFF DUP2 GT ISZERO PUSH2 0x653 JUMPI PUSH2 0x652 PUSH2 0xBB6 JUMP JUMPDEST JUMPDEST PUSH1 0x40 MLOAD SWAP1 DUP1 DUP3 MSTORE DUP1 PUSH1 0x20 MUL PUSH1 0x20 ADD DUP3 ADD PUSH1 0x40 MSTORE DUP1 ISZERO PUSH2 0x681 JUMPI DUP2 PUSH1 0x20 ADD PUSH1 0x20 DUP3 MUL DUP1 CALLDATASIZE DUP4 CALLDATACOPY DUP1 DUP3 ADD SWAP2 POP POP SWAP1 POP JUMPDEST POP SWAP1 POP PUSH1 0x0 JUMPDEST PUSH1 0x5 DUP1 SLOAD SWAP1 POP DUP2 LT ISZERO PUSH2 0x6E2 JUMPI PUSH1 0x5 DUP2 DUP2 SLOAD DUP2 LT PUSH2 0x6A8 JUMPI PUSH2 0x6A7 PUSH2 0x1170 JUMP JUMPDEST JUMPDEST SWAP1 PUSH1 0x0 MSTORE PUSH1 0x20 PUSH1 0x0 KECCAK256 ADD PUSH1 0x0 ADD SLOAD DUP3 DUP3 DUP2 MLOAD DUP2 LT PUSH2 0x6C9 JUMPI PUSH2 0x6C8 PUSH2 0x1170 JUMP JUMPDEST JUMPDEST PUSH1 0x20 MUL PUSH1 0x20 ADD ADD DUP2 DUP2 MSTORE POP POP DUP1 DUP1 PUSH1 0x1 ADD SWAP2 POP POP PUSH2 0x687 JUMP JUMPDEST POP DUP1 SWAP2 POP POP SWAP1 JUMP JUMPDEST PUSH1 0x3 PUSH1 0x1 SWAP1 SLOAD SWAP1 PUSH2 0x100 EXP SWAP1 DIV PUSH1 0xFF AND DUP2 JUMP JUMPDEST PUSH1 0x0 DUP1 SLOAD SWAP1 PUSH2 0x100 EXP SWAP1 DIV PUSH20 0xFFFFFFFFFFFFFFFFFFFFFFFFFFFFFFFFFFFFFFFF AND DUP2 JUMP JUMPDEST PUSH1 0x2 DUP1 SLOAD PUSH2 0x72E SWAP1 PUSH2 0x11CE JUMP JUMPDEST DUP1 PUSH1 0x1F ADD PUSH1 0x20 DUP1 SWAP2 DIV MUL PUSH1 0x20 ADD PUSH1 0x40 MLOAD SWAP1 DUP2 ADD PUSH1 0x40 MSTORE DUP1 SWAP3 SWAP2 SWAP1 DUP2 DUP2 MSTORE PUSH1 0x20 ADD DUP3 DUP1 SLOAD PUSH2 0x75A SWAP1 PUSH2 0x11CE JUMP JUMPDEST DUP1 ISZERO PUSH2 0x7A7 JUMPI DUP1 PUSH1 0x1F LT PUSH2 0x77C JUMPI PUSH2 0x100 DUP1 DUP4 SLOAD DIV MUL DUP4 MSTORE SWAP2 PUSH1 0x20 ADD SWAP2 PUSH2 0x7A7 JUMP JUMPDEST DUP3 ADD SWAP2 SWAP1 PUSH1 0x0 MSTORE PUSH1 0x20 PUSH1 0x0 KECCAK256 SWAP1 JUMPDEST DUP2 SLOAD DUP2 MSTORE SWAP1 PUSH1 0x1 ADD SWAP1 PUSH1 0x20 ADD DUP1 DUP4 GT PUSH2 0x78A JUMPI DUP3 SWAP1 SUB PUSH1 0x1F AND DUP3 ADD SWAP2 JUMPDEST POP POP POP POP POP DUP2 JUMP JUMPDEST PUSH1 0x3 PUSH1 0x0 SWAP1 SLOAD SWAP1 PUSH2 0x100 EXP SWAP1 DIV PUSH1 0xFF AND DUP2 JUMP JUMPDEST PUSH1 0x1 DUP1 DUP2 GT ISZERO PUSH2 0x7D5 JUMPI PUSH2 0x7D4 PUSH2 0xFD9 JUMP JUMPDEST JUMPDEST PUSH1 0x3 PUSH1 0x1 SWAP1 SLOAD SWAP1 PUSH2 0x100 EXP SWAP1 DIV PUSH1 0xFF AND PUSH1 0x1 DUP2 GT ISZERO PUSH2 0x7F7 JUMPI PUSH2 0x7F6 PUSH2 0xFD9 JUMP JUMPDEST JUMPDEST EQ PUSH2 0x837 JUMPI PUSH1 0x40 MLOAD PUSH32 0x8C379A000000000000000000000000000000000000000000000000000000000 DUP2 MSTORE PUSH1 0x4 ADD PUSH2 0x82E SWAP1 PUSH2 0x14C9 JUMP JUMPDEST PUSH1 0x40 MLOAD DUP1 SWAP2 SUB SWAP1 REVERT JUMPDEST PUSH1 0x0 ISZERO ISZERO PUSH1 0x3 PUSH1 0x0 SWAP1 SLOAD SWAP1 PUSH2 0x100 EXP SWAP1 DIV PUSH1 0xFF AND ISZERO ISZERO EQ PUSH2 0x88D JUMPI PUSH1 0x40 MLOAD PUSH32 0x8C379A000000000000000000000000000000000000000000000000000000000 DUP2 MSTORE PUSH1 0x4 ADD PUSH2 0x884 SWAP1 PUSH2 0x1150 JUMP JUMPDEST PUSH1 0x40 MLOAD DUP1 SWAP2 SUB SWAP1 REVERT JUMPDEST PUSH1 0x0 PUSH1 0x3 PUSH1 0x1 PUSH2 0x100 EXP DUP2 SLOAD DUP2 PUSH1 0xFF MUL NOT AND SWAP1 DUP4 PUSH1 0x1 DUP2 GT ISZERO PUSH2 0x8B3 JUMPI PUSH2 0x8B2 PUSH2 0xFD9 JUMP JUMPDEST JUMPDEST MUL OR SWAP1 SSTORE POP JUMP JUMPDEST PUSH1 0x60 PUSH1 0x0 PUSH1 0x4 DUP1 SLOAD SWAP1 POP PUSH8 0xFFFFFFFFFFFFFFFF DUP2 GT ISZERO PUSH2 0x8DD JUMPI PUSH2 0x8DC PUSH2 0xBB6 JUMP JUMPDEST JUMPDEST PUSH1 0x40 MLOAD SWAP1 DUP1 DUP3 MSTORE DUP1 PUSH1 0x20 MUL PUSH1 0x20 ADD DUP3 ADD PUSH1 0x40 MSTORE DUP1 ISZERO PUSH2 0x90B JUMPI DUP2 PUSH1 0x20 ADD PUSH1 0x20 DUP3 MUL DUP1 CALLDATASIZE DUP4 CALLDATACOPY DUP1 DUP3 ADD SWAP2 POP POP SWAP1 POP JUMPDEST POP SWAP1 POP PUSH1 0x0 JUMPDEST PUSH1 0x4 DUP1 SLOAD SWAP1 POP DUP2 LT ISZERO PUSH2 0x970 JUMPI PUSH1 0x4 DUP2 DUP2 SLOAD DUP2 LT PUSH2 0x932 JUMPI PUSH2 0x931 PUSH2 0x1170 JUMP JUMPDEST JUMPDEST SWAP1 PUSH1 0x0 MSTORE PUSH1 0x20 PUSH1 0x0 KECCAK256 SWAP1 PUSH1 0x3 MUL ADD PUSH1 0x0 ADD SLOAD DUP3 DUP3 DUP2 MLOAD DUP2 LT PUSH2 0x957 JUMPI PUSH2 0x956 PUSH2 0x1170 JUMP JUMPDEST JUMPDEST PUSH1 0x20 MUL PUSH1 0x20 ADD ADD DUP2 DUP2 MSTORE POP POP DUP1 DUP1 PUSH1 0x1 ADD SWAP2 POP POP PUSH2 0x911 JUMP JUMPDEST POP DUP1 SWAP2 POP POP SWAP1 JUMP JUMPDEST PUSH1 0x0 ISZERO ISZERO PUSH1 0x3 PUSH1 0x0 SWAP1 SLOAD SWAP1 PUSH2 0x100 EXP SWAP1 DIV PUSH1 0xFF AND ISZERO ISZERO EQ PUSH2 0x9CE JUMPI PUSH1 0x40 MLOAD PUSH32 0x8C379A000000000000000000000000000000000000000000000000000000000 DUP2 MSTORE PUSH1 0x4 ADD PUSH2 0x9C5 SWAP1 PUSH2 0x1150 JUMP JUMPDEST PUSH1 0x40 MLOAD DUP1 SWAP2 SUB SWAP1 REVERT JUMPDEST PUSH2 0x9D6 PUSH2 0xB12 JUMP JUMPDEST DUP2 DUP2 PUSH1 0x0 ADD DUP2 DUP2 MSTORE POP POP PUSH1 0x5 DUP2 SWAP1 DUP1 PUSH1 0x1 DUP2 SLOAD ADD DUP1 DUP3 SSTORE DUP1 SWAP2 POP POP PUSH1 0x1 SWAP1 SUB SWAP1 PUSH1 0x0 MSTORE PUSH1 0x20 PUSH1 0x0 KECCAK256 ADD PUSH1 0x0 SWAP1 SWAP2 SWAP1 SWAP2 SWAP1 SWAP2 POP PUSH1 0x0 DUP3 ADD MLOAD DUP2 PUSH1 0x0 ADD SSTORE POP POP POP POP JUMP JUMPDEST PUSH1 0x0 ISZERO ISZERO PUSH1 0x3 PUSH1 0x0 SWAP1 SLOAD SWAP1 PUSH2 0x100 EXP SWAP1 DIV PUSH1 0xFF AND ISZERO ISZERO EQ PUSH2 0xA6E JUMPI PUSH1 0x40 MLOAD PUSH32 0x8C379A000000000000000000000000000000000000000000000000000000000 DUP2 MSTORE PUSH1 0x4 ADD PUSH2 0xA65 SWAP1 PUSH2 0x1150 JUMP JUMPDEST PUSH1 0x40 MLOAD DUP1 SWAP2 SUB SWAP1 REVERT JUMPDEST PUSH2 0xA76 PUSH2 0xB25 JUMP JUMPDEST DUP2 DUP2 PUSH1 0x0 ADD DUP2 DUP2 MSTORE POP POP PUSH1 0x4 DUP2 SWAP1 DUP1 PUSH1 0x1 DUP2 SLOAD ADD DUP1 DUP3 SSTORE DUP1 SWAP2 POP POP PUSH1 0x1 SWAP1 SUB SWAP1 PUSH1 0x0 MSTORE PUSH1 0x20 PUSH1 0x0 KECCAK256 SWAP1 PUSH1 0x3 MUL ADD PUSH1 0x0 SWAP1 SWAP2 SWAP1 SWAP2 SWAP1 SWAP2 POP PUSH1 0x0 DUP3 ADD MLOAD DUP2 PUSH1 0x0 ADD SSTORE PUSH1 0x20 DUP3 ADD MLOAD DUP2 PUSH1 0x1 ADD SWAP1 DUP2 PUSH2 0xACB SWAP2 SWAP1 PUSH2 0x13AB JUMP JUMPDEST POP PUSH1 0x40 DUP3 ADD MLOAD DUP2 PUSH1 0x2 ADD PUSH1 0x0 PUSH2 0x100 EXP DUP2 SLOAD DUP2 PUSH1 0xFF MUL NOT AND SWAP1 DUP4 ISZERO ISZERO MUL OR SWAP1 SSTORE POP PUSH1 0x60 DUP3 ADD MLOAD DUP2 PUSH1 0x2 ADD PUSH1 0x1 PUSH2 0x100 EXP DUP2 SLOAD DUP2 PUSH1 0xFF MUL NOT AND SWAP1 DUP4 ISZERO ISZERO MUL OR SWAP1 SSTORE POP POP POP POP POP JUMP JUMPDEST PUSH1 0x40 MLOAD DUP1 PUSH1 0x20 ADD PUSH1 0x40 MSTORE DUP1 PUSH1 0x0 DUP2 MSTORE POP SWAP1 JUMP JUMPDEST PUSH1 0x40 MLOAD DUP1 PUSH1 0x80 ADD PUSH1 0x40 MSTORE DUP1 PUSH1 0x0 DUP2 MSTORE PUSH1 0x20 ADD PUSH1 0x60 DUP2 MSTORE PUSH1 0x20 ADD PUSH1 0x0 ISZERO ISZERO DUP2 MSTORE PUSH1 0x20 ADD PUSH1 0x0 ISZERO ISZERO DUP2 MSTORE POP SWAP1 JUMP JUMPDEST PUSH1 0x0 PUSH1 0x40 MLOAD SWAP1 POP SWAP1 JUMP JUMPDEST PUSH1 0x0 DUP1 REVERT JUMPDEST PUSH1 0x0 DUP1 REVERT JUMPDEST PUSH1 0x0 DUP2 SWAP1 POP SWAP2 SWAP1 POP JUMP JUMPDEST PUSH2 0xB78 DUP2 PUSH2 0xB65 JUMP JUMPDEST DUP2 EQ PUSH2 0xB83 JUMPI PUSH1 0x0 DUP1 REVERT JUMPDEST POP JUMP JUMPDEST PUSH1 0x0 DUP2 CALLDATALOAD SWAP1 POP PUSH2 0xB95 DUP2 PUSH2 0xB6F JUMP JUMPDEST SWAP3 SWAP2 POP POP JUMP JUMPDEST PUSH1 0x0 DUP1 REVERT JUMPDEST PUSH1 0x0 DUP1 REVERT JUMPDEST PUSH1 0x0 PUSH1 0x1F NOT PUSH1 0x1F DUP4 ADD AND SWAP1 POP SWAP2 SWAP1 POP JUMP JUMPDEST PUSH32 0x4E487B7100000000000000000000000000000000000000000000000000000000 PUSH1 0x0 MSTORE PUSH1 0x41 PUSH1 0x4 MSTORE PUSH1 0x24 PUSH1 0x0 REVERT JUMPDEST PUSH2 0xBEE DUP3 PUSH2 0xBA5 JUMP JUMPDEST DUP2 ADD DUP2 DUP2 LT PUSH8 0xFFFFFFFFFFFFFFFF DUP3 GT OR ISZERO PUSH2 0xC0D JUMPI PUSH2 0xC0C PUSH2 0xBB6 JUMP JUMPDEST JUMPDEST DUP1 PUSH1 0x40 MSTORE POP POP POP JUMP JUMPDEST PUSH1 0x0 PUSH2 0xC20 PUSH2 0xB51 JUMP JUMPDEST SWAP1 POP PUSH2 0xC2C DUP3 DUP3 PUSH2 0xBE5 JUMP JUMPDEST SWAP2 SWAP1 POP JUMP JUMPDEST PUSH1 0x0 PUSH8 0xFFFFFFFFFFFFFFFF DUP3 GT ISZERO PUSH2 0xC4C JUMPI PUSH2 0xC4B PUSH2 0xBB6 JUMP JUMPDEST JUMPDEST PUSH2 0xC55 DUP3 PUSH2 0xBA5 JUMP JUMPDEST SWAP1 POP PUSH1 0x20 DUP2 ADD SWAP1 POP SWAP2 SWAP1 POP JUMP JUMPDEST DUP3 DUP2 DUP4 CALLDATACOPY PUSH1 0x0 DUP4 DUP4 ADD MSTORE POP POP POP JUMP JUMPDEST PUSH1 0x0 PUSH2 0xC84 PUSH2 0xC7F DUP5 PUSH2 0xC31 JUMP JUMPDEST PUSH2 0xC16 JUMP JUMPDEST SWAP1 POP DUP3 DUP2 MSTORE PUSH1 0x20 DUP2 ADD DUP5 DUP5 DUP5 ADD GT ISZERO PUSH2 0xCA0 JUMPI PUSH2 0xC9F PUSH2 0xBA0 JUMP JUMPDEST JUMPDEST PUSH2 0xCAB DUP5 DUP3 DUP6 PUSH2 0xC62 JUMP JUMPDEST POP SWAP4 SWAP3 POP POP POP JUMP JUMPDEST PUSH1 0x0 DUP3 PUSH1 0x1F DUP4 ADD SLT PUSH2 0xCC8 JUMPI PUSH2 0xCC7 PUSH2 0xB9B JUMP JUMPDEST JUMPDEST DUP2 CALLDATALOAD PUSH2 0xCD8 DUP5 DUP3 PUSH1 0x20 DUP7 ADD PUSH2 0xC71 JUMP JUMPDEST SWAP2 POP POP SWAP3 SWAP2 POP POP JUMP JUMPDEST PUSH1 0x0 DUP1 PUSH1 0x40 DUP4 DUP6 SUB SLT ISZERO PUSH2 0xCF8 JUMPI PUSH2 0xCF7 PUSH2 0xB5B JUMP JUMPDEST JUMPDEST PUSH1 0x0 PUSH2 0xD06 DUP6 DUP3 DUP7 ADD PUSH2 0xB86 JUMP JUMPDEST SWAP3 POP POP PUSH1 0x20 DUP4 ADD CALLDATALOAD PUSH8 0xFFFFFFFFFFFFFFFF DUP2 GT ISZERO PUSH2 0xD27 JUMPI PUSH2 0xD26 PUSH2 0xB60 JUMP JUMPDEST JUMPDEST PUSH2 0xD33 DUP6 DUP3 DUP7 ADD PUSH2 0xCB3 JUMP JUMPDEST SWAP2 POP POP SWAP3 POP SWAP3 SWAP1 POP JUMP JUMPDEST PUSH1 0x0 DUP2 ISZERO ISZERO SWAP1 POP SWAP2 SWAP1 POP JUMP JUMPDEST PUSH2 0xD52 DUP2 PUSH2 0xD3D JUMP JUMPDEST DUP2 EQ PUSH2 0xD5D JUMPI PUSH1 0x0 DUP1 REVERT JUMPDEST POP JUMP JUMPDEST PUSH1 0x0 DUP2 CALLDATALOAD SWAP1 POP PUSH2 0xD6F DUP2 PUSH2 0xD49 JUMP JUMPDEST SWAP3 SWAP2 POP POP JUMP JUMPDEST PUSH1 0x0 DUP1 PUSH1 0x0 PUSH1 0x60 DUP5 DUP7 SUB SLT ISZERO PUSH2 0xD8E JUMPI PUSH2 0xD8D PUSH2 0xB5B JUMP JUMPDEST JUMPDEST PUSH1 0x0 PUSH2 0xD9C DUP7 DUP3 DUP8 ADD PUSH2 0xB86 JUMP JUMPDEST SWAP4 POP POP PUSH1 0x20 PUSH2 0xDAD DUP7 DUP3 DUP8 ADD PUSH2 0xD60 JUMP JUMPDEST SWAP3 POP POP PUSH1 0x40 PUSH2 0xDBE DUP7 DUP3 DUP8 ADD PUSH2 0xD60 JUMP JUMPDEST SWAP2 POP POP SWAP3 POP SWAP3 POP SWAP3 JUMP JUMPDEST PUSH1 0x0 PUSH1 0x20 DUP3 DUP5 SUB SLT ISZERO PUSH2 0xDDE JUMPI PUSH2 0xDDD PUSH2 0xB5B JUMP JUMPDEST JUMPDEST PUSH1 0x0 PUSH2 0xDEC DUP5 DUP3 DUP6 ADD PUSH2 0xB86 JUMP JUMPDEST SWAP2 POP POP SWAP3 SWAP2 POP POP JUMP JUMPDEST PUSH2 0xDFE DUP2 PUSH2 0xB65 JUMP JUMPDEST DUP3 MSTORE POP POP JUMP JUMPDEST PUSH1 0x0 PUSH1 0x20 DUP3 ADD SWAP1 POP PUSH2 0xE19 PUSH1 0x0 DUP4 ADD DUP5 PUSH2 0xDF5 JUMP JUMPDEST SWAP3 SWAP2 POP POP JUMP JUMPDEST PUSH1 0x0 DUP2 MLOAD SWAP1 POP SWAP2 SWAP1 POP JUMP JUMPDEST PUSH1 0x0 DUP3 DUP3 MSTORE PUSH1 0x20 DUP3 ADD SWAP1 POP SWAP3 SWAP2 POP POP JUMP JUMPDEST PUSH1 0x0 JUMPDEST DUP4 DUP2 LT ISZERO PUSH2 0xE59 JUMPI DUP1 DUP3 ADD MLOAD DUP2 DUP5 ADD MSTORE PUSH1 0x20 DUP2 ADD SWAP1 POP PUSH2 0xE3E JUMP JUMPDEST PUSH1 0x0 DUP5 DUP5 ADD MSTORE POP POP POP POP JUMP JUMPDEST PUSH1 0x0 PUSH2 0xE70 DUP3 PUSH2 0xE1F JUMP JUMPDEST PUSH2 0xE7A DUP2 DUP6 PUSH2 0xE2A JUMP JUMPDEST SWAP4 POP PUSH2 0xE8A DUP2 DUP6 PUSH1 0x20 DUP7 ADD PUSH2 0xE3B JUMP JUMPDEST PUSH2 0xE93 DUP2 PUSH2 0xBA5 JUMP JUMPDEST DUP5 ADD SWAP2 POP POP SWAP3 SWAP2 POP POP JUMP JUMPDEST PUSH2 0xEA7 DUP2 PUSH2 0xD3D JUMP JUMPDEST DUP3 MSTORE POP POP JUMP JUMPDEST PUSH1 0x0 PUSH1 0x80 DUP3 ADD SWAP1 POP PUSH2 0xEC2 PUSH1 0x0 DUP4 ADD DUP8 PUSH2 0xDF5 JUMP JUMPDEST DUP2 DUP2 SUB PUSH1 0x20 DUP4 ADD MSTORE PUSH2 0xED4 DUP2 DUP7 PUSH2 0xE65 JUMP JUMPDEST SWAP1 POP PUSH2 0xEE3 PUSH1 0x40 DUP4 ADD DUP6 PUSH2 0xE9E JUMP JUMPDEST PUSH2 0xEF0 PUSH1 0x60 DUP4 ADD DUP5 PUSH2 0xE9E JUMP JUMPDEST SWAP6 SWAP5 POP POP POP POP POP JUMP JUMPDEST PUSH1 0x0 DUP2 MLOAD SWAP1 POP SWAP2 SWAP1 POP JUMP JUMPDEST PUSH1 0x0 DUP3 DUP3 MSTORE PUSH1 0x20 DUP3 ADD SWAP1 POP SWAP3 SWAP2 POP POP JUMP JUMPDEST PUSH1 0x0 DUP2 SWAP1 POP PUSH1 0x20 DUP3 ADD SWAP1 POP SWAP2 SWAP1 POP JUMP JUMPDEST PUSH2 0xF2E DUP2 PUSH2 0xB65 JUMP JUMPDEST DUP3 MSTORE POP POP JUMP JUMPDEST PUSH1 0x0 PUSH2 0xF40 DUP4 DUP4 PUSH2 0xF25 JUMP JUMPDEST PUSH1 0x20 DUP4 ADD SWAP1 POP SWAP3 SWAP2 POP POP JUMP JUMPDEST PUSH1 0x0 PUSH1 0x20 DUP3 ADD SWAP1 POP SWAP2 SWAP1 POP JUMP JUMPDEST PUSH1 0x0 PUSH2 0xF64 DUP3 PUSH2 0xEF9 JUMP JUMPDEST PUSH2 0xF6E DUP2 DUP6 PUSH2 0xF04 JUMP JUMPDEST SWAP4 POP PUSH2 0xF79 DUP4 PUSH2 0xF15 JUMP JUMPDEST DUP1 PUSH1 0x0 JUMPDEST DUP4 DUP2 LT ISZERO PUSH2 0xFAA JUMPI DUP2 MLOAD PUSH2 0xF91 DUP9 DUP3 PUSH2 0xF34 JUMP JUMPDEST SWAP8 POP PUSH2 0xF9C DUP4 PUSH2 0xF4C JUMP JUMPDEST SWAP3 POP POP PUSH1 0x1 DUP2 ADD SWAP1 POP PUSH2 0xF7D JUMP JUMPDEST POP DUP6 SWAP4 POP POP POP POP SWAP3 SWAP2 POP POP JUMP JUMPDEST PUSH1 0x0 PUSH1 0x20 DUP3 ADD SWAP1 POP DUP2 DUP2 SUB PUSH1 0x0 DUP4 ADD MSTORE PUSH2 0xFD1 DUP2 DUP5 PUSH2 0xF59 JUMP JUMPDEST SWAP1 POP SWAP3 SWAP2 POP POP JUMP JUMPDEST PUSH32 0x4E487B7100000000000000000000000000000000000000000000000000000000 PUSH1 0x0 MSTORE PUSH1 0x21 PUSH1 0x4 MSTORE PUSH1 0x24 PUSH1 0x0 REVERT JUMPDEST PUSH1 0x2 DUP2 LT PUSH2 0x1019 JUMPI PUSH2 0x1018 PUSH2 0xFD9 JUMP JUMPDEST JUMPDEST POP JUMP JUMPDEST PUSH1 0x0 DUP2 SWAP1 POP PUSH2 0x102A DUP3 PUSH2 0x1008 JUMP JUMPDEST SWAP2 SWAP1 POP JUMP JUMPDEST PUSH1 0x0 PUSH2 0x103A DUP3 PUSH2 0x101C JUMP JUMPDEST SWAP1 POP SWAP2 SWAP1 POP JUMP JUMPDEST PUSH2 0x104A DUP2 PUSH2 0x102F JUMP JUMPDEST DUP3 MSTORE POP POP JUMP JUMPDEST PUSH1 0x0 PUSH1 0x20 DUP3 ADD SWAP1 POP PUSH2 0x1065 PUSH1 0x0 DUP4 ADD DUP5 PUSH2 0x1041 JUMP JUMPDEST SWAP3 SWAP2 POP POP JUMP JUMPDEST PUSH1 0x0 PUSH20 0xFFFFFFFFFFFFFFFFFFFFFFFFFFFFFFFFFFFFFFFF DUP3 AND SWAP1 POP SWAP2 SWAP1 POP JUMP JUMPDEST PUSH1 0x0 PUSH2 0x1096 DUP3 PUSH2 0x106B JUMP JUMPDEST SWAP1 POP SWAP2 SWAP1 POP JUMP JUMPDEST PUSH2 0x10A6 DUP2 PUSH2 0x108B JUMP JUMPDEST DUP3 MSTORE POP POP JUMP JUMPDEST PUSH1 0x0 PUSH1 0x20 DUP3 ADD SWAP1 POP PUSH2 0x10C1 PUSH1 0x0 DUP4 ADD DUP5 PUSH2 0x109D JUMP JUMPDEST SWAP3 SWAP2 POP POP JUMP JUMPDEST PUSH1 0x0 PUSH1 0x20 DUP3 ADD SWAP1 POP DUP2 DUP2 SUB PUSH1 0x0 DUP4 ADD MSTORE PUSH2 0x10E1 DUP2 DUP5 PUSH2 0xE65 JUMP JUMPDEST SWAP1 POP SWAP3 SWAP2 POP POP JUMP JUMPDEST PUSH1 0x0 PUSH1 0x20 DUP3 ADD SWAP1 POP PUSH2 0x10FE PUSH1 0x0 DUP4 ADD DUP5 PUSH2 0xE9E JUMP JUMPDEST SWAP3 SWAP2 POP POP JUMP JUMPDEST PUSH32 0x536D61727420436F6E747261637420697320636C6F7365640000000000000000 PUSH1 0x0 DUP3 ADD MSTORE POP JUMP JUMPDEST PUSH1 0x0 PUSH2 0x113A PUSH1 0x18 DUP4 PUSH2 0xE2A JUMP JUMPDEST SWAP2 POP PUSH2 0x1145 DUP3 PUSH2 0x1104 JUMP JUMPDEST PUSH1 0x20 DUP3 ADD SWAP1 POP SWAP2 SWAP1 POP JUMP JUMPDEST PUSH1 0x0 PUSH1 0x20 DUP3 ADD SWAP1 POP DUP2 DUP2 SUB PUSH1 0x0 DUP4 ADD MSTORE PUSH2 0x1169 DUP2 PUSH2 0x112D JUMP JUMPDEST SWAP1 POP SWAP2 SWAP1 POP JUMP JUMPDEST PUSH32 0x4E487B7100000000000000000000000000000000000000000000000000000000 PUSH1 0x0 MSTORE PUSH1 0x32 PUSH1 0x4 MSTORE PUSH1 0x24 PUSH1 0x0 REVERT JUMPDEST PUSH32 0x4E487B7100000000000000000000000000000000000000000000000000000000 PUSH1 0x0 MSTORE PUSH1 0x22 PUSH1 0x4 MSTORE PUSH1 0x24 PUSH1 0x0 REVERT JUMPDEST PUSH1 0x0 PUSH1 0x2 DUP3 DIV SWAP1 POP PUSH1 0x1 DUP3 AND DUP1 PUSH2 0x11E6 JUMPI PUSH1 0x7F DUP3 AND SWAP2 POP JUMPDEST PUSH1 0x20 DUP3 LT DUP2 SUB PUSH2 0x11F9 JUMPI PUSH2 0x11F8 PUSH2 0x119F JUMP JUMPDEST JUMPDEST POP SWAP2 SWAP1 POP JUMP JUMPDEST PUSH1 0x0 DUP2 SWAP1 POP DUP2 PUSH1 0x0 MSTORE PUSH1 0x20 PUSH1 0x0 KECCAK256 SWAP1 POP SWAP2 SWAP1 POP JUMP JUMPDEST PUSH1 0x0 PUSH1 0x20 PUSH1 0x1F DUP4 ADD DIV SWAP1 POP SWAP2 SWAP1 POP JUMP JUMPDEST PUSH1 0x0 DUP3 DUP3 SHL SWAP1 POP SWAP3 SWAP2 POP POP JUMP JUMPDEST PUSH1 0x0 PUSH1 0x8 DUP4 MUL PUSH2 0x1261 PUSH32 0xFFFFFFFFFFFFFFFFFFFFFFFFFFFFFFFFFFFFFFFFFFFFFFFFFFFFFFFFFFFFFFFF DUP3 PUSH2 0x1224 JUMP JUMPDEST PUSH2 0x126B DUP7 DUP4 PUSH2 0x1224 JUMP JUMPDEST SWAP6 POP DUP1 NOT DUP5 AND SWAP4 POP DUP1 DUP7 AND DUP5 OR SWAP3 POP POP POP SWAP4 SWAP3 POP POP POP JUMP JUMPDEST PUSH1 0x0 DUP2 SWAP1 POP SWAP2 SWAP1 POP JUMP JUMPDEST PUSH1 0x0 PUSH2 0x12A8 PUSH2 0x12A3 PUSH2 0x129E DUP5 PUSH2 0xB65 JUMP JUMPDEST PUSH2 0x1283 JUMP JUMPDEST PUSH2 0xB65 JUMP JUMPDEST SWAP1 POP SWAP2 SWAP1 POP JUMP JUMPDEST PUSH1 0x0 DUP2 SWAP1 POP SWAP2 SWAP1 POP JUMP JUMPDEST PUSH2 0x12C2 DUP4 PUSH2 0x128D JUMP JUMPDEST PUSH2 0x12D6 PUSH2 0x12CE DUP3 PUSH2 0x12AF JUMP JUMPDEST DUP5 DUP5 SLOAD PUSH2 0x1231 JUMP JUMPDEST DUP3 SSTORE POP POP POP POP JUMP JUMPDEST PUSH1 0x0 SWAP1 JUMP JUMPDEST PUSH2 0x12EB PUSH2 0x12DE JUMP JUMPDEST PUSH2 0x12F6 DUP2 DUP5 DUP5 PUSH2 0x12B9 JUMP JUMPDEST POP POP POP JUMP JUMPDEST JUMPDEST DUP2 DUP2 LT ISZERO PUSH2 0x131A JUMPI PUSH2 0x130F PUSH1 0x0 DUP3 PUSH2 0x12E3 JUMP JUMPDEST PUSH1 0x1 DUP2 ADD SWAP1 POP PUSH2 0x12FC JUMP JUMPDEST POP POP JUMP JUMPDEST PUSH1 0x1F DUP3 GT ISZERO PUSH2 0x135F JUMPI PUSH2 0x1330 DUP2 PUSH2 0x11FF JUMP JUMPDEST PUSH2 0x1339 DUP5 PUSH2 0x1214 JUMP JUMPDEST DUP2 ADD PUSH1 0x20 DUP6 LT ISZERO PUSH2 0x1348 JUMPI DUP2 SWAP1 POP JUMPDEST PUSH2 0x135C PUSH2 0x1354 DUP6 PUSH2 0x1214 JUMP JUMPDEST DUP4 ADD DUP3 PUSH2 0x12FB JUMP JUMPDEST POP POP JUMPDEST POP POP POP JUMP JUMPDEST PUSH1 0x0 DUP3 DUP3 SHR SWAP1 POP SWAP3 SWAP2 POP POP JUMP JUMPDEST PUSH1 0x0 PUSH2 0x1382 PUSH1 0x0 NOT DUP5 PUSH1 0x8 MUL PUSH2 0x1364 JUMP JUMPDEST NOT DUP1 DUP4 AND SWAP2 POP POP SWAP3 SWAP2 POP POP JUMP JUMPDEST PUSH1 0x0 PUSH2 0x139B DUP4 DUP4 PUSH2 0x1371 JUMP JUMPDEST SWAP2 POP DUP3 PUSH1 0x2 MUL DUP3 OR SWAP1 POP SWAP3 SWAP2 POP POP JUMP JUMPDEST PUSH2 0x13B4 DUP3 PUSH2 0xE1F JUMP JUMPDEST PUSH8 0xFFFFFFFFFFFFFFFF DUP2 GT ISZERO PUSH2 0x13CD JUMPI PUSH2 0x13CC PUSH2 0xBB6 JUMP JUMPDEST JUMPDEST PUSH2 0x13D7 DUP3 SLOAD PUSH2 0x11CE JUMP JUMPDEST PUSH2 0x13E2 DUP3 DUP3 DUP6 PUSH2 0x131E JUMP JUMPDEST PUSH1 0x0 PUSH1 0x20 SWAP1 POP PUSH1 0x1F DUP4 GT PUSH1 0x1 DUP2 EQ PUSH2 0x1415 JUMPI PUSH1 0x0 DUP5 ISZERO PUSH2 0x1403 JUMPI DUP3 DUP8 ADD MLOAD SWAP1 POP JUMPDEST PUSH2 0x140D DUP6 DUP3 PUSH2 0x138F JUMP JUMPDEST DUP7 SSTORE POP PUSH2 0x1475 JUMP JUMPDEST PUSH1 0x1F NOT DUP5 AND PUSH2 0x1423 DUP7 PUSH2 0x11FF JUMP JUMPDEST PUSH1 0x0 JUMPDEST DUP3 DUP2 LT ISZERO PUSH2 0x144B JUMPI DUP5 DUP10 ADD MLOAD DUP3 SSTORE PUSH1 0x1 DUP3 ADD SWAP2 POP PUSH1 0x20 DUP6 ADD SWAP5 POP PUSH1 0x20 DUP2 ADD SWAP1 POP PUSH2 0x1426 JUMP JUMPDEST DUP7 DUP4 LT ISZERO PUSH2 0x1468 JUMPI DUP5 DUP10 ADD MLOAD PUSH2 0x1464 PUSH1 0x1F DUP10 AND DUP3 PUSH2 0x1371 JUMP JUMPDEST DUP4 SSTORE POP JUMPDEST PUSH1 0x1 PUSH1 0x2 DUP9 MUL ADD DUP9 SSTORE POP POP POP JUMPDEST POP POP POP POP POP POP JUMP JUMPDEST PUSH32 0x5573657220646563656173656420697320616C72656164792073657400000000 PUSH1 0x0 DUP3 ADD MSTORE POP JUMP JUMPDEST PUSH1 0x0 PUSH2 0x14B3 PUSH1 0x1C DUP4 PUSH2 0xE2A JUMP JUMPDEST SWAP2 POP PUSH2 0x14BE DUP3 PUSH2 0x147D JUMP JUMPDEST PUSH1 0x20 DUP3 ADD SWAP1 POP SWAP2 SWAP1 POP JUMP JUMPDEST PUSH1 0x0 PUSH1 0x20 DUP3 ADD SWAP1 POP DUP2 DUP2 SUB PUSH1 0x0 DUP4 ADD MSTORE PUSH2 0x14E2 DUP2 PUSH2 0x14A6 JUMP JUMPDEST SWAP1 POP SWAP2 SWAP1 POP JUMP INVALID LOG2 PUSH5 0x6970667358 0x22 SLT KECCAK256 PUSH10 0x4E76C051FAF0F7DAC361 PUSH27 0x695597542352385A43785C0E828885E994C21C3C64736F6C634300 ADDMOD OR STOP CALLER LOG2 PUSH5 0x6970667358 0x22 SLT KECCAK256 0xE3 SLT SAR BYTE OR 0xA7 ORIGIN 0xF 0x2A 0x2D 0xE8 0xEC 0xF8 PUSH29 0x9CD6A819BA7E8D1DF8A86D1DBC395C0FB5D364736F6C63430008170033 "
				},
				"gasEstimates": {
					"creation": {
						"codeDepositCost": "2809800",
						"executionCost": "27335",
						"totalCost": "2837135"
					},
					"external": {
						"addNewOracle(uint256,uint256)": "infinite",
						"addNewRecipient(uint256,uint256)": "infinite",
						"closeUserContractNotify(uint256)": "infinite",
						"contract_user_map(uint256)": "2884",
						"createNewUserContract(uint256,string)": "infinite",
						"getAllUsersId()": "infinite",
						"owner()": "2600",
						"recipientResponse(uint256,uint256,bool,bool)": "infinite",
						"updateTimestamp(uint256,uint256,string)": "infinite",
						"userDeathNotify(uint256)": "infinite"
					},
					"internal": {
						"isUserExist(uint256)": "infinite"
					}
				},
				"methodIdentifiers": {
					"addNewOracle(uint256,uint256)": "2661317e",
					"addNewRecipient(uint256,uint256)": "1440a7f2",
					"closeUserContractNotify(uint256)": "eb9cbe7a",
					"contract_user_map(uint256)": "21132777",
					"createNewUserContract(uint256,string)": "a50dfd78",
					"getAllUsersId()": "04740a17",
					"owner()": "8da5cb5b",
					"recipientResponse(uint256,uint256,bool,bool)": "d43b8fab",
					"updateTimestamp(uint256,uint256,string)": "990b4ec5",
					"userDeathNotify(uint256)": "947fd5c3"
				}
			},
			"storageLayout": {
				"storage": [
					{
						"astId": 3,
						"contract": "Lincloud/.deps/contract/contract.sol:lincloud_contract",
						"label": "owner",
						"offset": 0,
						"slot": "0",
						"type": "t_address"
					},
					{
						"astId": 7,
						"contract": "Lincloud/.deps/contract/contract.sol:lincloud_contract",
						"label": "user_contracts_list",
						"offset": 0,
						"slot": "1",
						"type": "t_array(t_contract(user_contract)823)dyn_storage"
					},
					{
						"astId": 11,
						"contract": "Lincloud/.deps/contract/contract.sol:lincloud_contract",
						"label": "contract_user_map",
						"offset": 0,
						"slot": "2",
						"type": "t_mapping(t_uint256,t_address)"
					}
				],
				"types": {
					"t_address": {
						"encoding": "inplace",
						"label": "address",
						"numberOfBytes": "20"
					},
					"t_array(t_contract(user_contract)823)dyn_storage": {
						"base": "t_contract(user_contract)823",
						"encoding": "dynamic_array",
						"label": "contract user_contract[]",
						"numberOfBytes": "32"
					},
					"t_contract(user_contract)823": {
						"encoding": "inplace",
						"label": "contract user_contract",
						"numberOfBytes": "20"
					},
					"t_mapping(t_uint256,t_address)": {
						"encoding": "mapping",
						"key": "t_uint256",
						"label": "mapping(uint256 => address)",
						"numberOfBytes": "32",
						"value": "t_address"
					},
					"t_uint256": {
						"encoding": "inplace",
						"label": "uint256",
						"numberOfBytes": "32"
					}
				}
			},
			"userdoc": {
				"kind": "user",
				"methods": {},
				"version": 1
			}
		}
	}
}