{
	"Lincloud/.deps/contract/contract.sol": {
		"user": {
			"abi": [
				{
					"inputs": [
						{
							"internalType": "uint256",
							"name": "id",
							"type": "uint256"
						},
						{
							"internalType": "bytes32",
							"name": "hash",
							"type": "bytes32"
						}
					],
					"stateMutability": "nonpayable",
					"type": "constructor"
				},
				{
					"inputs": [],
					"name": "actual_user_state",
					"outputs": [
						{
							"internalType": "enum user.user_state",
							"name": "",
							"type": "uint8"
						}
					],
					"stateMutability": "view",
					"type": "function"
				},
				{
					"inputs": [
						{
							"internalType": "uint256",
							"name": "oracleId",
							"type": "uint256"
						}
					],
					"name": "addOracle",
					"outputs": [],
					"stateMutability": "nonpayable",
					"type": "function"
				},
				{
					"inputs": [
						{
							"internalType": "uint256",
							"name": "recipientId",
							"type": "uint256"
						}
					],
					"name": "addRecipient",
					"outputs": [],
					"stateMutability": "nonpayable",
					"type": "function"
				},
				{
					"inputs": [],
					"name": "closeUserContract",
					"outputs": [],
					"stateMutability": "nonpayable",
					"type": "function"
				},
				{
					"inputs": [],
					"name": "getAllOracles",
					"outputs": [
						{
							"internalType": "uint256[]",
							"name": "",
							"type": "uint256[]"
						}
					],
					"stateMutability": "view",
					"type": "function"
				},
				{
					"inputs": [],
					"name": "getAllRecipients",
					"outputs": [
						{
							"internalType": "uint256[]",
							"name": "",
							"type": "uint256[]"
						}
					],
					"stateMutability": "view",
					"type": "function"
				},
				{
					"inputs": [],
					"name": "getUserId",
					"outputs": [
						{
							"internalType": "uint256",
							"name": "",
							"type": "uint256"
						}
					],
					"stateMutability": "view",
					"type": "function"
				},
				{
					"inputs": [],
					"name": "id_user",
					"outputs": [
						{
							"internalType": "uint256",
							"name": "",
							"type": "uint256"
						}
					],
					"stateMutability": "view",
					"type": "function"
				},
				{
					"inputs": [
						{
							"internalType": "uint256",
							"name": "",
							"type": "uint256"
						}
					],
					"name": "oracles_list",
					"outputs": [
						{
							"internalType": "uint256",
							"name": "id_oracle",
							"type": "uint256"
						}
					],
					"stateMutability": "view",
					"type": "function"
				},
				{
					"inputs": [
						{
							"internalType": "uint256",
							"name": "",
							"type": "uint256"
						}
					],
					"name": "recipients_list",
					"outputs": [
						{
							"internalType": "uint256",
							"name": "id_recipient",
							"type": "uint256"
						},
						{
							"internalType": "string",
							"name": "timestamp",
							"type": "string"
						},
						{
							"internalType": "bool",
							"name": "response",
							"type": "bool"
						},
						{
							"internalType": "bool",
							"name": "isTimeExpired",
							"type": "bool"
						}
					],
					"stateMutability": "view",
					"type": "function"
				},
				{
					"inputs": [
						{
							"internalType": "uint256",
							"name": "recipientId",
							"type": "uint256"
						},
						{
							"internalType": "bool",
							"name": "response",
							"type": "bool"
						},
						{
							"internalType": "bool",
							"name": "isTimeExpired",
							"type": "bool"
						}
					],
					"name": "setRecipientResponse",
					"outputs": [],
					"stateMutability": "nonpayable",
					"type": "function"
				},
				{
					"inputs": [
						{
							"internalType": "uint256",
							"name": "recipientId",
							"type": "uint256"
						},
						{
							"internalType": "string",
							"name": "timestamp",
							"type": "string"
						}
					],
					"name": "setRecipientTimeStamp",
					"outputs": [],
					"stateMutability": "nonpayable",
					"type": "function"
				},
				{
					"inputs": [],
					"name": "setUserStateToDeceased",
					"outputs": [],
					"stateMutability": "nonpayable",
					"type": "function"
				}
			],
			"devdoc": {
				"kind": "dev",
				"methods": {},
				"version": 1
			},
			"evm": {
				"assembly": "    /* \"Lincloud/.deps/contract/contract.sol\":61:2952  contract user{... */\n  mstore(0x40, 0x80)\n    /* \"Lincloud/.deps/contract/contract.sol\":626:806  constructor(uint256 id, bytes32 hash){... */\n  callvalue\n  dup1\n  iszero\n  tag_1\n  jumpi\n  0x00\n  dup1\n  revert\ntag_1:\n  pop\n  mload(0x40)\n  sub(codesize, bytecodeSize)\n  dup1\n  bytecodeSize\n  dup4\n  codecopy\n  dup2\n  dup2\n  add\n  0x40\n  mstore\n  dup2\n  add\n  swap1\n  tag_2\n  swap2\n  swap1\n  tag_3\n  jump\t// in\ntag_2:\n    /* \"Lincloud/.deps/contract/contract.sol\":684:686  id */\n  dup2\n    /* \"Lincloud/.deps/contract/contract.sol\":674:681  id_user */\n  0x00\n    /* \"Lincloud/.deps/contract/contract.sol\":674:686  id_user = id */\n  dup2\n  swap1\n  sstore\n  pop\n    /* \"Lincloud/.deps/contract/contract.sol\":717:733  user_state.alive */\n  0x01\n    /* \"Lincloud/.deps/contract/contract.sol\":697:714  actual_user_state */\n  dup1\n  0x00\n    /* \"Lincloud/.deps/contract/contract.sol\":697:733  actual_user_state = user_state.alive */\n  0x0100\n  exp\n  dup2\n  sload\n  dup2\n  0xff\n  mul\n  not\n  and\n  swap1\n  dup4\n  0x01\n  dup2\n  gt\n  iszero\n  tag_6\n  jumpi\n  tag_7\n  tag_8\n  jump\t// in\ntag_7:\ntag_6:\n  mul\n  or\n  swap1\n  sstore\n  pop\n    /* \"Lincloud/.deps/contract/contract.sol\":759:763  hash */\n  dup1\n    /* \"Lincloud/.deps/contract/contract.sol\":744:756  contractHash */\n  0x04\n    /* \"Lincloud/.deps/contract/contract.sol\":744:763  contractHash = hash */\n  dup2\n  swap1\n  sstore\n  pop\n    /* \"Lincloud/.deps/contract/contract.sol\":793:798  false */\n  0x00\n    /* \"Lincloud/.deps/contract/contract.sol\":774:790  isContractClosed */\n  0x05\n  0x00\n    /* \"Lincloud/.deps/contract/contract.sol\":774:798  isContractClosed = false */\n  0x0100\n  exp\n  dup2\n  sload\n  dup2\n  0xff\n  mul\n  not\n  and\n  swap1\n  dup4\n  iszero\n  iszero\n  mul\n  or\n  swap1\n  sstore\n  pop\n    /* \"Lincloud/.deps/contract/contract.sol\":626:806  constructor(uint256 id, bytes32 hash){... */\n  pop\n  pop\n    /* \"Lincloud/.deps/contract/contract.sol\":61:2952  contract user{... */\n  jump(tag_9)\n    /* \"#utility.yul\":88:205   */\ntag_11:\n    /* \"#utility.yul\":197:198   */\n  0x00\n    /* \"#utility.yul\":194:195   */\n  dup1\n    /* \"#utility.yul\":187:199   */\n  revert\n    /* \"#utility.yul\":334:411   */\ntag_13:\n    /* \"#utility.yul\":371:378   */\n  0x00\n    /* \"#utility.yul\":400:405   */\n  dup2\n    /* \"#utility.yul\":389:405   */\n  swap1\n  pop\n    /* \"#utility.yul\":334:411   */\n  swap2\n  swap1\n  pop\n  jump\t// out\n    /* \"#utility.yul\":417:539   */\ntag_14:\n    /* \"#utility.yul\":490:514   */\n  tag_25\n    /* \"#utility.yul\":508:513   */\n  dup2\n    /* \"#utility.yul\":490:514   */\n  tag_13\n  jump\t// in\ntag_25:\n    /* \"#utility.yul\":483:488   */\n  dup2\n    /* \"#utility.yul\":480:515   */\n  eq\n    /* \"#utility.yul\":470:533   */\n  tag_26\n  jumpi\n    /* \"#utility.yul\":529:530   */\n  0x00\n    /* \"#utility.yul\":526:527   */\n  dup1\n    /* \"#utility.yul\":519:531   */\n  revert\n    /* \"#utility.yul\":470:533   */\ntag_26:\n    /* \"#utility.yul\":417:539   */\n  pop\n  jump\t// out\n    /* \"#utility.yul\":545:688   */\ntag_15:\n    /* \"#utility.yul\":602:607   */\n  0x00\n    /* \"#utility.yul\":633:639   */\n  dup2\n    /* \"#utility.yul\":627:640   */\n  mload\n    /* \"#utility.yul\":618:640   */\n  swap1\n  pop\n    /* \"#utility.yul\":649:682   */\n  tag_28\n    /* \"#utility.yul\":676:681   */\n  dup2\n    /* \"#utility.yul\":649:682   */\n  tag_14\n  jump\t// in\ntag_28:\n    /* \"#utility.yul\":545:688   */\n  swap3\n  swap2\n  pop\n  pop\n  jump\t// out\n    /* \"#utility.yul\":694:771   */\ntag_16:\n    /* \"#utility.yul\":731:738   */\n  0x00\n    /* \"#utility.yul\":760:765   */\n  dup2\n    /* \"#utility.yul\":749:765   */\n  swap1\n  pop\n    /* \"#utility.yul\":694:771   */\n  swap2\n  swap1\n  pop\n  jump\t// out\n    /* \"#utility.yul\":777:899   */\ntag_17:\n    /* \"#utility.yul\":850:874   */\n  tag_31\n    /* \"#utility.yul\":868:873   */\n  dup2\n    /* \"#utility.yul\":850:874   */\n  tag_16\n  jump\t// in\ntag_31:\n    /* \"#utility.yul\":843:848   */\n  dup2\n    /* \"#utility.yul\":840:875   */\n  eq\n    /* \"#utility.yul\":830:893   */\n  tag_32\n  jumpi\n    /* \"#utility.yul\":889:890   */\n  0x00\n    /* \"#utility.yul\":886:887   */\n  dup1\n    /* \"#utility.yul\":879:891   */\n  revert\n    /* \"#utility.yul\":830:893   */\ntag_32:\n    /* \"#utility.yul\":777:899   */\n  pop\n  jump\t// out\n    /* \"#utility.yul\":905:1048   */\ntag_18:\n    /* \"#utility.yul\":962:967   */\n  0x00\n    /* \"#utility.yul\":993:999   */\n  dup2\n    /* \"#utility.yul\":987:1000   */\n  mload\n    /* \"#utility.yul\":978:1000   */\n  swap1\n  pop\n    /* \"#utility.yul\":1009:1042   */\n  tag_34\n    /* \"#utility.yul\":1036:1041   */\n  dup2\n    /* \"#utility.yul\":1009:1042   */\n  tag_17\n  jump\t// in\ntag_34:\n    /* \"#utility.yul\":905:1048   */\n  swap3\n  swap2\n  pop\n  pop\n  jump\t// out\n    /* \"#utility.yul\":1054:1561   */\ntag_3:\n    /* \"#utility.yul\":1133:1139   */\n  0x00\n    /* \"#utility.yul\":1141:1147   */\n  dup1\n    /* \"#utility.yul\":1190:1192   */\n  0x40\n    /* \"#utility.yul\":1178:1187   */\n  dup4\n    /* \"#utility.yul\":1169:1176   */\n  dup6\n    /* \"#utility.yul\":1165:1188   */\n  sub\n    /* \"#utility.yul\":1161:1193   */\n  slt\n    /* \"#utility.yul\":1158:1277   */\n  iszero\n  tag_36\n  jumpi\n    /* \"#utility.yul\":1196:1275   */\n  tag_37\n  tag_11\n  jump\t// in\ntag_37:\n    /* \"#utility.yul\":1158:1277   */\ntag_36:\n    /* \"#utility.yul\":1316:1317   */\n  0x00\n    /* \"#utility.yul\":1341:1405   */\n  tag_38\n    /* \"#utility.yul\":1397:1404   */\n  dup6\n    /* \"#utility.yul\":1388:1394   */\n  dup3\n    /* \"#utility.yul\":1377:1386   */\n  dup7\n    /* \"#utility.yul\":1373:1395   */\n  add\n    /* \"#utility.yul\":1341:1405   */\n  tag_15\n  jump\t// in\ntag_38:\n    /* \"#utility.yul\":1331:1405   */\n  swap3\n  pop\n    /* \"#utility.yul\":1287:1415   */\n  pop\n    /* \"#utility.yul\":1454:1456   */\n  0x20\n    /* \"#utility.yul\":1480:1544   */\n  tag_39\n    /* \"#utility.yul\":1536:1543   */\n  dup6\n    /* \"#utility.yul\":1527:1533   */\n  dup3\n    /* \"#utility.yul\":1516:1525   */\n  dup7\n    /* \"#utility.yul\":1512:1534   */\n  add\n    /* \"#utility.yul\":1480:1544   */\n  tag_18\n  jump\t// in\ntag_39:\n    /* \"#utility.yul\":1470:1544   */\n  swap2\n  pop\n    /* \"#utility.yul\":1425:1554   */\n  pop\n    /* \"#utility.yul\":1054:1561   */\n  swap3\n  pop\n  swap3\n  swap1\n  pop\n  jump\t// out\n    /* \"#utility.yul\":1567:1747   */\ntag_8:\n    /* \"#utility.yul\":1615:1692   */\n  0x4e487b7100000000000000000000000000000000000000000000000000000000\n    /* \"#utility.yul\":1612:1613   */\n  0x00\n    /* \"#utility.yul\":1605:1693   */\n  mstore\n    /* \"#utility.yul\":1712:1716   */\n  0x21\n    /* \"#utility.yul\":1709:1710   */\n  0x04\n    /* \"#utility.yul\":1702:1717   */\n  mstore\n    /* \"#utility.yul\":1736:1740   */\n  0x24\n    /* \"#utility.yul\":1733:1734   */\n  0x00\n    /* \"#utility.yul\":1726:1741   */\n  revert\n    /* \"Lincloud/.deps/contract/contract.sol\":61:2952  contract user{... */\ntag_9:\n  dataSize(sub_0)\n  dup1\n  dataOffset(sub_0)\n  0x00\n  codecopy\n  0x00\n  return\nstop\n\nsub_0: assembly {\n        /* \"Lincloud/.deps/contract/contract.sol\":61:2952  contract user{... */\n      mstore(0x40, 0x80)\n      callvalue\n      dup1\n      iszero\n      tag_1\n      jumpi\n      0x00\n      dup1\n      revert\n    tag_1:\n      pop\n      jumpi(tag_2, lt(calldatasize, 0x04))\n      shr(0xe0, calldataload(0x00))\n      dup1\n      0x65a6bb29\n      gt\n      tag_16\n      jumpi\n      dup1\n      0xac3ef22d\n      gt\n      tag_17\n      jumpi\n      dup1\n      0xac3ef22d\n      eq\n      tag_12\n      jumpi\n      dup1\n      0xb74513c1\n      eq\n      tag_13\n      jumpi\n      dup1\n      0xe5a72d5b\n      eq\n      tag_14\n      jumpi\n      dup1\n      0xfc68b3ed\n      eq\n      tag_15\n      jumpi\n      jump(tag_2)\n    tag_17:\n      dup1\n      0x65a6bb29\n      eq\n      tag_9\n      jumpi\n      dup1\n      0x84731d6f\n      eq\n      tag_10\n      jumpi\n      dup1\n      0x8cee71e0\n      eq\n      tag_11\n      jumpi\n      jump(tag_2)\n    tag_16:\n      dup1\n      0x2ebcb653\n      eq\n      tag_3\n      jumpi\n      dup1\n      0x3121924d\n      eq\n      tag_4\n      jumpi\n      dup1\n      0x35254bcd\n      eq\n      tag_5\n      jumpi\n      dup1\n      0x38fcbc01\n      eq\n      tag_6\n      jumpi\n      dup1\n      0x42be8cb5\n      eq\n      tag_7\n      jumpi\n      dup1\n      0x499ba0aa\n      eq\n      tag_8\n      jumpi\n    tag_2:\n      0x00\n      dup1\n      revert\n        /* \"Lincloud/.deps/contract/contract.sol\":2225:2308  function getUserId() public view returns (uint256){... */\n    tag_3:\n      tag_18\n      tag_19\n      jump\t// in\n    tag_18:\n      mload(0x40)\n      tag_20\n      swap2\n      swap1\n      tag_21\n      jump\t// in\n    tag_20:\n      mload(0x40)\n      dup1\n      swap2\n      sub\n      swap1\n      return\n        /* \"Lincloud/.deps/contract/contract.sol\":1353:1660  function setRecipientTimeStamp(uint256 recipientId, string memory timestamp) public{... */\n    tag_4:\n      tag_22\n      0x04\n      dup1\n      calldatasize\n      sub\n      dup2\n      add\n      swap1\n      tag_23\n      swap2\n      swap1\n      tag_24\n      jump\t// in\n    tag_23:\n      tag_25\n      jump\t// in\n    tag_22:\n      stop\n        /* \"Lincloud/.deps/contract/contract.sol\":2058:2187  function closeUserContract() public{... */\n    tag_5:\n      tag_26\n      tag_27\n      jump\t// in\n    tag_26:\n      stop\n        /* \"Lincloud/.deps/contract/contract.sol\":1668:2050  function setRecipientResponse(uint256 recipientId, bool response, bool isTimeExpired) public {... */\n    tag_6:\n      tag_28\n      0x04\n      dup1\n      calldatasize\n      sub\n      dup2\n      add\n      swap1\n      tag_29\n      swap2\n      swap1\n      tag_30\n      jump\t// in\n    tag_29:\n      tag_31\n      jump\t// in\n    tag_28:\n      stop\n        /* \"Lincloud/.deps/contract/contract.sol\":436:464  Oracle[] public oracles_list */\n    tag_7:\n      tag_32\n      0x04\n      dup1\n      calldatasize\n      sub\n      dup2\n      add\n      swap1\n      tag_33\n      swap2\n      swap1\n      tag_34\n      jump\t// in\n    tag_33:\n      tag_35\n      jump\t// in\n    tag_32:\n      mload(0x40)\n      tag_36\n      swap2\n      swap1\n      tag_21\n      jump\t// in\n    tag_36:\n      mload(0x40)\n      dup1\n      swap2\n      sub\n      swap1\n      return\n        /* \"Lincloud/.deps/contract/contract.sol\":395:429  Recipient[] public recipients_list */\n    tag_8:\n      tag_37\n      0x04\n      dup1\n      calldatasize\n      sub\n      dup2\n      add\n      swap1\n      tag_38\n      swap2\n      swap1\n      tag_34\n      jump\t// in\n    tag_38:\n      tag_39\n      jump\t// in\n    tag_37:\n      mload(0x40)\n      tag_40\n      swap5\n      swap4\n      swap3\n      swap2\n      swap1\n      tag_41\n      jump\t// in\n    tag_40:\n      mload(0x40)\n      dup1\n      swap2\n      sub\n      swap1\n      return\n        /* \"Lincloud/.deps/contract/contract.sol\":2647:2949  function getAllOracles() public view returns (uint256[] memory){... */\n    tag_9:\n      tag_42\n      tag_43\n      jump\t// in\n    tag_42:\n      mload(0x40)\n      tag_44\n      swap2\n      swap1\n      tag_45\n      jump\t// in\n    tag_44:\n      mload(0x40)\n      dup1\n      swap2\n      sub\n      swap1\n      return\n        /* \"Lincloud/.deps/contract/contract.sol\":353:388  user_state public actual_user_state */\n    tag_10:\n      tag_46\n      tag_47\n      jump\t// in\n    tag_46:\n      mload(0x40)\n      tag_48\n      swap2\n      swap1\n      tag_49\n      jump\t// in\n    tag_48:\n      mload(0x40)\n      dup1\n      swap2\n      sub\n      swap1\n      return\n        /* \"Lincloud/.deps/contract/contract.sol\":324:346  uint256 public id_user */\n    tag_11:\n      tag_50\n      tag_51\n      jump\t// in\n    tag_50:\n      mload(0x40)\n      tag_52\n      swap2\n      swap1\n      tag_21\n      jump\t// in\n    tag_52:\n      mload(0x40)\n      dup1\n      swap2\n      sub\n      swap1\n      return\n        /* \"Lincloud/.deps/contract/contract.sol\":1247:1345  function setUserStateToDeceased() public{... */\n    tag_12:\n      tag_53\n      tag_54\n      jump\t// in\n    tag_53:\n      stop\n        /* \"Lincloud/.deps/contract/contract.sol\":2316:2639  function getAllRecipients() public view returns (uint256[] memory){... */\n    tag_13:\n      tag_55\n      tag_56\n      jump\t// in\n    tag_55:\n      mload(0x40)\n      tag_57\n      swap2\n      swap1\n      tag_45\n      jump\t// in\n    tag_57:\n      mload(0x40)\n      dup1\n      swap2\n      sub\n      swap1\n      return\n        /* \"Lincloud/.deps/contract/contract.sol\":1044:1239  function addOracle(uint256 oracleId) public { // non deve essere public... */\n    tag_14:\n      tag_58\n      0x04\n      dup1\n      calldatasize\n      sub\n      dup2\n      add\n      swap1\n      tag_59\n      swap2\n      swap1\n      tag_34\n      jump\t// in\n    tag_59:\n      tag_60\n      jump\t// in\n    tag_58:\n      stop\n        /* \"Lincloud/.deps/contract/contract.sol\":814:1036  function addRecipient(uint256 recipientId) public { // non deve essere public... */\n    tag_15:\n      tag_61\n      0x04\n      dup1\n      calldatasize\n      sub\n      dup2\n      add\n      swap1\n      tag_62\n      swap2\n      swap1\n      tag_34\n      jump\t// in\n    tag_62:\n      tag_63\n      jump\t// in\n    tag_61:\n      stop\n        /* \"Lincloud/.deps/contract/contract.sol\":2225:2308  function getUserId() public view returns (uint256){... */\n    tag_19:\n        /* \"Lincloud/.deps/contract/contract.sol\":2267:2274  uint256 */\n      0x00\n        /* \"Lincloud/.deps/contract/contract.sol\":2293:2300  id_user */\n      dup1\n      sload\n        /* \"Lincloud/.deps/contract/contract.sol\":2286:2300  return id_user */\n      swap1\n      pop\n        /* \"Lincloud/.deps/contract/contract.sol\":2225:2308  function getUserId() public view returns (uint256){... */\n      swap1\n      jump\t// out\n        /* \"Lincloud/.deps/contract/contract.sol\":1353:1660  function setRecipientTimeStamp(uint256 recipientId, string memory timestamp) public{... */\n    tag_25:\n        /* \"Lincloud/.deps/contract/contract.sol\":1452:1461  uint256 i */\n      0x00\n        /* \"Lincloud/.deps/contract/contract.sol\":1447:1653  for (uint256 i = 0; i < recipients_list.length; i++) {... */\n    tag_66:\n        /* \"Lincloud/.deps/contract/contract.sol\":1471:1486  recipients_list */\n      0x02\n        /* \"Lincloud/.deps/contract/contract.sol\":1471:1493  recipients_list.length */\n      dup1\n      sload\n      swap1\n      pop\n        /* \"Lincloud/.deps/contract/contract.sol\":1467:1468  i */\n      dup2\n        /* \"Lincloud/.deps/contract/contract.sol\":1467:1493  i < recipients_list.length */\n      lt\n        /* \"Lincloud/.deps/contract/contract.sol\":1447:1653  for (uint256 i = 0; i < recipients_list.length; i++) {... */\n      iszero\n      tag_67\n      jumpi\n        /* \"Lincloud/.deps/contract/contract.sol\":1554:1565  recipientId */\n      dup3\n        /* \"Lincloud/.deps/contract/contract.sol\":1519:1534  recipients_list */\n      0x02\n        /* \"Lincloud/.deps/contract/contract.sol\":1535:1536  i */\n      dup3\n        /* \"Lincloud/.deps/contract/contract.sol\":1519:1537  recipients_list[i] */\n      dup2\n      sload\n      dup2\n      lt\n      tag_69\n      jumpi\n      tag_70\n      tag_71\n      jump\t// in\n    tag_70:\n    tag_69:\n      swap1\n      0x00\n      mstore\n      keccak256(0x00, 0x20)\n      swap1\n      0x03\n      mul\n      add\n        /* \"Lincloud/.deps/contract/contract.sol\":1519:1550  recipients_list[i].id_recipient */\n      0x00\n      add\n      sload\n        /* \"Lincloud/.deps/contract/contract.sol\":1519:1565  recipients_list[i].id_recipient == recipientId */\n      sub\n        /* \"Lincloud/.deps/contract/contract.sol\":1515:1642  if (recipients_list[i].id_recipient == recipientId) {... */\n      tag_73\n      jumpi\n        /* \"Lincloud/.deps/contract/contract.sol\":1617:1626  timestamp */\n      dup2\n        /* \"Lincloud/.deps/contract/contract.sol\":1586:1601  recipients_list */\n      0x02\n        /* \"Lincloud/.deps/contract/contract.sol\":1602:1603  i */\n      dup3\n        /* \"Lincloud/.deps/contract/contract.sol\":1586:1604  recipients_list[i] */\n      dup2\n      sload\n      dup2\n      lt\n      tag_74\n      jumpi\n      tag_75\n      tag_71\n      jump\t// in\n    tag_75:\n    tag_74:\n      swap1\n      0x00\n      mstore\n      keccak256(0x00, 0x20)\n      swap1\n      0x03\n      mul\n      add\n        /* \"Lincloud/.deps/contract/contract.sol\":1586:1614  recipients_list[i].timestamp */\n      0x01\n      add\n        /* \"Lincloud/.deps/contract/contract.sol\":1586:1626  recipients_list[i].timestamp = timestamp */\n      swap1\n      dup2\n      tag_77\n      swap2\n      swap1\n      tag_78\n      jump\t// in\n    tag_77:\n      pop\n        /* \"Lincloud/.deps/contract/contract.sol\":1515:1642  if (recipients_list[i].id_recipient == recipientId) {... */\n    tag_73:\n        /* \"Lincloud/.deps/contract/contract.sol\":1495:1498  i++ */\n      dup1\n      dup1\n      0x01\n      add\n      swap2\n      pop\n      pop\n        /* \"Lincloud/.deps/contract/contract.sol\":1447:1653  for (uint256 i = 0; i < recipients_list.length; i++) {... */\n      jump(tag_66)\n    tag_67:\n      pop\n        /* \"Lincloud/.deps/contract/contract.sol\":1353:1660  function setRecipientTimeStamp(uint256 recipientId, string memory timestamp) public{... */\n      pop\n      pop\n      jump\t// out\n        /* \"Lincloud/.deps/contract/contract.sol\":2058:2187  function closeUserContract() public{... */\n    tag_27:\n        /* \"Lincloud/.deps/contract/contract.sol\":2123:2127  true */\n      0x01\n        /* \"Lincloud/.deps/contract/contract.sol\":2104:2120  isContractClosed */\n      0x05\n      0x00\n        /* \"Lincloud/.deps/contract/contract.sol\":2104:2127  isContractClosed = true */\n      0x0100\n      exp\n      dup2\n      sload\n      dup2\n      0xff\n      mul\n      not\n      and\n      swap1\n      dup4\n      iszero\n      iszero\n      mul\n      or\n      swap1\n      sstore\n      pop\n        /* \"Lincloud/.deps/contract/contract.sol\":2058:2187  function closeUserContract() public{... */\n      jump\t// out\n        /* \"Lincloud/.deps/contract/contract.sol\":1668:2050  function setRecipientResponse(uint256 recipientId, bool response, bool isTimeExpired) public {... */\n    tag_31:\n        /* \"Lincloud/.deps/contract/contract.sol\":1777:1786  uint256 i */\n      0x00\n        /* \"Lincloud/.deps/contract/contract.sol\":1772:2043  for (uint256 i = 0; i < recipients_list.length; i++) {... */\n    tag_81:\n        /* \"Lincloud/.deps/contract/contract.sol\":1796:1811  recipients_list */\n      0x02\n        /* \"Lincloud/.deps/contract/contract.sol\":1796:1818  recipients_list.length */\n      dup1\n      sload\n      swap1\n      pop\n        /* \"Lincloud/.deps/contract/contract.sol\":1792:1793  i */\n      dup2\n        /* \"Lincloud/.deps/contract/contract.sol\":1792:1818  i < recipients_list.length */\n      lt\n        /* \"Lincloud/.deps/contract/contract.sol\":1772:2043  for (uint256 i = 0; i < recipients_list.length; i++) {... */\n      iszero\n      tag_82\n      jumpi\n        /* \"Lincloud/.deps/contract/contract.sol\":1879:1890  recipientId */\n      dup4\n        /* \"Lincloud/.deps/contract/contract.sol\":1844:1859  recipients_list */\n      0x02\n        /* \"Lincloud/.deps/contract/contract.sol\":1860:1861  i */\n      dup3\n        /* \"Lincloud/.deps/contract/contract.sol\":1844:1862  recipients_list[i] */\n      dup2\n      sload\n      dup2\n      lt\n      tag_84\n      jumpi\n      tag_85\n      tag_71\n      jump\t// in\n    tag_85:\n    tag_84:\n      swap1\n      0x00\n      mstore\n      keccak256(0x00, 0x20)\n      swap1\n      0x03\n      mul\n      add\n        /* \"Lincloud/.deps/contract/contract.sol\":1844:1875  recipients_list[i].id_recipient */\n      0x00\n      add\n      sload\n        /* \"Lincloud/.deps/contract/contract.sol\":1844:1890  recipients_list[i].id_recipient == recipientId */\n      sub\n        /* \"Lincloud/.deps/contract/contract.sol\":1840:2032  if (recipients_list[i].id_recipient == recipientId) {... */\n      tag_87\n      jumpi\n        /* \"Lincloud/.deps/contract/contract.sol\":1941:1949  response */\n      dup3\n        /* \"Lincloud/.deps/contract/contract.sol\":1911:1926  recipients_list */\n      0x02\n        /* \"Lincloud/.deps/contract/contract.sol\":1927:1928  i */\n      dup3\n        /* \"Lincloud/.deps/contract/contract.sol\":1911:1929  recipients_list[i] */\n      dup2\n      sload\n      dup2\n      lt\n      tag_88\n      jumpi\n      tag_89\n      tag_71\n      jump\t// in\n    tag_89:\n    tag_88:\n      swap1\n      0x00\n      mstore\n      keccak256(0x00, 0x20)\n      swap1\n      0x03\n      mul\n      add\n        /* \"Lincloud/.deps/contract/contract.sol\":1911:1938  recipients_list[i].response */\n      0x02\n      add\n      0x00\n        /* \"Lincloud/.deps/contract/contract.sol\":1911:1949  recipients_list[i].response = response */\n      0x0100\n      exp\n      dup2\n      sload\n      dup2\n      0xff\n      mul\n      not\n      and\n      swap1\n      dup4\n      iszero\n      iszero\n      mul\n      or\n      swap1\n      sstore\n      pop\n        /* \"Lincloud/.deps/contract/contract.sol\":2003:2016  isTimeExpired */\n      dup2\n        /* \"Lincloud/.deps/contract/contract.sol\":1968:1983  recipients_list */\n      0x02\n        /* \"Lincloud/.deps/contract/contract.sol\":1984:1985  i */\n      dup3\n        /* \"Lincloud/.deps/contract/contract.sol\":1968:1986  recipients_list[i] */\n      dup2\n      sload\n      dup2\n      lt\n      tag_91\n      jumpi\n      tag_92\n      tag_71\n      jump\t// in\n    tag_92:\n    tag_91:\n      swap1\n      0x00\n      mstore\n      keccak256(0x00, 0x20)\n      swap1\n      0x03\n      mul\n      add\n        /* \"Lincloud/.deps/contract/contract.sol\":1968:2000  recipients_list[i].isTimeExpired */\n      0x02\n      add\n      0x01\n        /* \"Lincloud/.deps/contract/contract.sol\":1968:2016  recipients_list[i].isTimeExpired = isTimeExpired */\n      0x0100\n      exp\n      dup2\n      sload\n      dup2\n      0xff\n      mul\n      not\n      and\n      swap1\n      dup4\n      iszero\n      iszero\n      mul\n      or\n      swap1\n      sstore\n      pop\n        /* \"Lincloud/.deps/contract/contract.sol\":1840:2032  if (recipients_list[i].id_recipient == recipientId) {... */\n    tag_87:\n        /* \"Lincloud/.deps/contract/contract.sol\":1820:1823  i++ */\n      dup1\n      dup1\n      0x01\n      add\n      swap2\n      pop\n      pop\n        /* \"Lincloud/.deps/contract/contract.sol\":1772:2043  for (uint256 i = 0; i < recipients_list.length; i++) {... */\n      jump(tag_81)\n    tag_82:\n      pop\n        /* \"Lincloud/.deps/contract/contract.sol\":1668:2050  function setRecipientResponse(uint256 recipientId, bool response, bool isTimeExpired) public {... */\n      pop\n      pop\n      pop\n      jump\t// out\n        /* \"Lincloud/.deps/contract/contract.sol\":436:464  Oracle[] public oracles_list */\n    tag_35:\n      0x03\n      dup2\n      dup2\n      sload\n      dup2\n      lt\n      tag_94\n      jumpi\n      0x00\n      dup1\n      revert\n    tag_94:\n      swap1\n      0x00\n      mstore\n      keccak256(0x00, 0x20)\n      add\n      0x00\n      swap2\n      pop\n      swap1\n      pop\n      dup1\n      0x00\n      add\n      sload\n      swap1\n      pop\n      dup2\n      jump\t// out\n        /* \"Lincloud/.deps/contract/contract.sol\":395:429  Recipient[] public recipients_list */\n    tag_39:\n      0x02\n      dup2\n      dup2\n      sload\n      dup2\n      lt\n      tag_96\n      jumpi\n      0x00\n      dup1\n      revert\n    tag_96:\n      swap1\n      0x00\n      mstore\n      keccak256(0x00, 0x20)\n      swap1\n      0x03\n      mul\n      add\n      0x00\n      swap2\n      pop\n      swap1\n      pop\n      dup1\n      0x00\n      add\n      sload\n      swap1\n      dup1\n      0x01\n      add\n      dup1\n      sload\n      tag_98\n      swap1\n      tag_99\n      jump\t// in\n    tag_98:\n      dup1\n      0x1f\n      add\n      0x20\n      dup1\n      swap2\n      div\n      mul\n      0x20\n      add\n      mload(0x40)\n      swap1\n      dup2\n      add\n      0x40\n      mstore\n      dup1\n      swap3\n      swap2\n      swap1\n      dup2\n      dup2\n      mstore\n      0x20\n      add\n      dup3\n      dup1\n      sload\n      tag_100\n      swap1\n      tag_99\n      jump\t// in\n    tag_100:\n      dup1\n      iszero\n      tag_101\n      jumpi\n      dup1\n      0x1f\n      lt\n      tag_102\n      jumpi\n      0x0100\n      dup1\n      dup4\n      sload\n      div\n      mul\n      dup4\n      mstore\n      swap2\n      0x20\n      add\n      swap2\n      jump(tag_101)\n    tag_102:\n      dup3\n      add\n      swap2\n      swap1\n      0x00\n      mstore\n      keccak256(0x00, 0x20)\n      swap1\n    tag_103:\n      dup2\n      sload\n      dup2\n      mstore\n      swap1\n      0x01\n      add\n      swap1\n      0x20\n      add\n      dup1\n      dup4\n      gt\n      tag_103\n      jumpi\n      dup3\n      swap1\n      sub\n      0x1f\n      and\n      dup3\n      add\n      swap2\n    tag_101:\n      pop\n      pop\n      pop\n      pop\n      pop\n      swap1\n      dup1\n      0x02\n      add\n      0x00\n      swap1\n      sload\n      swap1\n      0x0100\n      exp\n      swap1\n      div\n      0xff\n      and\n      swap1\n      dup1\n      0x02\n      add\n      0x01\n      swap1\n      sload\n      swap1\n      0x0100\n      exp\n      swap1\n      div\n      0xff\n      and\n      swap1\n      pop\n      dup5\n      jump\t// out\n        /* \"Lincloud/.deps/contract/contract.sol\":2647:2949  function getAllOracles() public view returns (uint256[] memory){... */\n    tag_43:\n        /* \"Lincloud/.deps/contract/contract.sol\":2693:2709  uint256[] memory */\n      0x60\n        /* \"Lincloud/.deps/contract/contract.sol\":2721:2748  uint256[] memory oraclesIds */\n      0x00\n        /* \"Lincloud/.deps/contract/contract.sol\":2765:2777  oracles_list */\n      0x03\n        /* \"Lincloud/.deps/contract/contract.sol\":2765:2784  oracles_list.length */\n      dup1\n      sload\n      swap1\n      pop\n        /* \"Lincloud/.deps/contract/contract.sol\":2751:2785  new uint256[](oracles_list.length) */\n      0xffffffffffffffff\n      dup2\n      gt\n      iszero\n      tag_105\n      jumpi\n      tag_106\n      tag_107\n      jump\t// in\n    tag_106:\n    tag_105:\n      mload(0x40)\n      swap1\n      dup1\n      dup3\n      mstore\n      dup1\n      0x20\n      mul\n      0x20\n      add\n      dup3\n      add\n      0x40\n      mstore\n      dup1\n      iszero\n      tag_108\n      jumpi\n      dup2\n      0x20\n      add\n      0x20\n      dup3\n      mul\n      dup1\n      calldatasize\n      dup4\n      calldatacopy\n      dup1\n      dup3\n      add\n      swap2\n      pop\n      pop\n      swap1\n      pop\n    tag_108:\n      pop\n        /* \"Lincloud/.deps/contract/contract.sol\":2721:2785  uint256[] memory oraclesIds = new uint256[](oracles_list.length) */\n      swap1\n      pop\n        /* \"Lincloud/.deps/contract/contract.sol\":2801:2810  uint256 i */\n      0x00\n        /* \"Lincloud/.deps/contract/contract.sol\":2796:2914  for (uint256 i = 0; i < oracles_list.length; i++) {... */\n    tag_109:\n        /* \"Lincloud/.deps/contract/contract.sol\":2820:2832  oracles_list */\n      0x03\n        /* \"Lincloud/.deps/contract/contract.sol\":2820:2839  oracles_list.length */\n      dup1\n      sload\n      swap1\n      pop\n        /* \"Lincloud/.deps/contract/contract.sol\":2816:2817  i */\n      dup2\n        /* \"Lincloud/.deps/contract/contract.sol\":2816:2839  i < oracles_list.length */\n      lt\n        /* \"Lincloud/.deps/contract/contract.sol\":2796:2914  for (uint256 i = 0; i < oracles_list.length; i++) {... */\n      iszero\n      tag_110\n      jumpi\n        /* \"Lincloud/.deps/contract/contract.sol\":2877:2889  oracles_list */\n      0x03\n        /* \"Lincloud/.deps/contract/contract.sol\":2890:2891  i */\n      dup2\n        /* \"Lincloud/.deps/contract/contract.sol\":2877:2892  oracles_list[i] */\n      dup2\n      sload\n      dup2\n      lt\n      tag_112\n      jumpi\n      tag_113\n      tag_71\n      jump\t// in\n    tag_113:\n    tag_112:\n      swap1\n      0x00\n      mstore\n      keccak256(0x00, 0x20)\n      add\n        /* \"Lincloud/.deps/contract/contract.sol\":2877:2902  oracles_list[i].id_oracle */\n      0x00\n      add\n      sload\n        /* \"Lincloud/.deps/contract/contract.sol\":2861:2871  oraclesIds */\n      dup3\n        /* \"Lincloud/.deps/contract/contract.sol\":2872:2873  i */\n      dup3\n        /* \"Lincloud/.deps/contract/contract.sol\":2861:2874  oraclesIds[i] */\n      dup2\n      mload\n      dup2\n      lt\n      tag_115\n      jumpi\n      tag_116\n      tag_71\n      jump\t// in\n    tag_116:\n    tag_115:\n      0x20\n      mul\n      0x20\n      add\n      add\n        /* \"Lincloud/.deps/contract/contract.sol\":2861:2902  oraclesIds[i] = oracles_list[i].id_oracle */\n      dup2\n      dup2\n      mstore\n      pop\n      pop\n        /* \"Lincloud/.deps/contract/contract.sol\":2841:2844  i++ */\n      dup1\n      dup1\n      0x01\n      add\n      swap2\n      pop\n      pop\n        /* \"Lincloud/.deps/contract/contract.sol\":2796:2914  for (uint256 i = 0; i < oracles_list.length; i++) {... */\n      jump(tag_109)\n    tag_110:\n      pop\n        /* \"Lincloud/.deps/contract/contract.sol\":2931:2941  oraclesIds */\n      dup1\n        /* \"Lincloud/.deps/contract/contract.sol\":2924:2941  return oraclesIds */\n      swap2\n      pop\n      pop\n        /* \"Lincloud/.deps/contract/contract.sol\":2647:2949  function getAllOracles() public view returns (uint256[] memory){... */\n      swap1\n      jump\t// out\n        /* \"Lincloud/.deps/contract/contract.sol\":353:388  user_state public actual_user_state */\n    tag_47:\n      0x01\n      0x00\n      swap1\n      sload\n      swap1\n      0x0100\n      exp\n      swap1\n      div\n      0xff\n      and\n      dup2\n      jump\t// out\n        /* \"Lincloud/.deps/contract/contract.sol\":324:346  uint256 public id_user */\n    tag_51:\n      sload(0x00)\n      dup2\n      jump\t// out\n        /* \"Lincloud/.deps/contract/contract.sol\":1247:1345  function setUserStateToDeceased() public{... */\n    tag_54:\n        /* \"Lincloud/.deps/contract/contract.sol\":1318:1337  user_state.deceased */\n      0x00\n        /* \"Lincloud/.deps/contract/contract.sol\":1298:1315  actual_user_state */\n      0x01\n      0x00\n        /* \"Lincloud/.deps/contract/contract.sol\":1298:1337  actual_user_state = user_state.deceased */\n      0x0100\n      exp\n      dup2\n      sload\n      dup2\n      0xff\n      mul\n      not\n      and\n      swap1\n      dup4\n      0x01\n      dup2\n      gt\n      iszero\n      tag_118\n      jumpi\n      tag_119\n      tag_120\n      jump\t// in\n    tag_119:\n    tag_118:\n      mul\n      or\n      swap1\n      sstore\n      pop\n        /* \"Lincloud/.deps/contract/contract.sol\":1247:1345  function setUserStateToDeceased() public{... */\n      jump\t// out\n        /* \"Lincloud/.deps/contract/contract.sol\":2316:2639  function getAllRecipients() public view returns (uint256[] memory){... */\n    tag_56:\n        /* \"Lincloud/.deps/contract/contract.sol\":2365:2381  uint256[] memory */\n      0x60\n        /* \"Lincloud/.deps/contract/contract.sol\":2393:2422  uint256[] memory recipientIDs */\n      0x00\n        /* \"Lincloud/.deps/contract/contract.sol\":2439:2454  recipients_list */\n      0x02\n        /* \"Lincloud/.deps/contract/contract.sol\":2439:2461  recipients_list.length */\n      dup1\n      sload\n      swap1\n      pop\n        /* \"Lincloud/.deps/contract/contract.sol\":2425:2462  new uint256[](recipients_list.length) */\n      0xffffffffffffffff\n      dup2\n      gt\n      iszero\n      tag_122\n      jumpi\n      tag_123\n      tag_107\n      jump\t// in\n    tag_123:\n    tag_122:\n      mload(0x40)\n      swap1\n      dup1\n      dup3\n      mstore\n      dup1\n      0x20\n      mul\n      0x20\n      add\n      dup3\n      add\n      0x40\n      mstore\n      dup1\n      iszero\n      tag_124\n      jumpi\n      dup2\n      0x20\n      add\n      0x20\n      dup3\n      mul\n      dup1\n      calldatasize\n      dup4\n      calldatacopy\n      dup1\n      dup3\n      add\n      swap2\n      pop\n      pop\n      swap1\n      pop\n    tag_124:\n      pop\n        /* \"Lincloud/.deps/contract/contract.sol\":2393:2462  uint256[] memory recipientIDs = new uint256[](recipients_list.length) */\n      swap1\n      pop\n        /* \"Lincloud/.deps/contract/contract.sol\":2478:2487  uint256 i */\n      0x00\n        /* \"Lincloud/.deps/contract/contract.sol\":2473:2602  for (uint256 i = 0; i < recipients_list.length; i++) {... */\n    tag_125:\n        /* \"Lincloud/.deps/contract/contract.sol\":2497:2512  recipients_list */\n      0x02\n        /* \"Lincloud/.deps/contract/contract.sol\":2497:2519  recipients_list.length */\n      dup1\n      sload\n      swap1\n      pop\n        /* \"Lincloud/.deps/contract/contract.sol\":2493:2494  i */\n      dup2\n        /* \"Lincloud/.deps/contract/contract.sol\":2493:2519  i < recipients_list.length */\n      lt\n        /* \"Lincloud/.deps/contract/contract.sol\":2473:2602  for (uint256 i = 0; i < recipients_list.length; i++) {... */\n      iszero\n      tag_126\n      jumpi\n        /* \"Lincloud/.deps/contract/contract.sol\":2559:2574  recipients_list */\n      0x02\n        /* \"Lincloud/.deps/contract/contract.sol\":2575:2576  i */\n      dup2\n        /* \"Lincloud/.deps/contract/contract.sol\":2559:2577  recipients_list[i] */\n      dup2\n      sload\n      dup2\n      lt\n      tag_128\n      jumpi\n      tag_129\n      tag_71\n      jump\t// in\n    tag_129:\n    tag_128:\n      swap1\n      0x00\n      mstore\n      keccak256(0x00, 0x20)\n      swap1\n      0x03\n      mul\n      add\n        /* \"Lincloud/.deps/contract/contract.sol\":2559:2590  recipients_list[i].id_recipient */\n      0x00\n      add\n      sload\n        /* \"Lincloud/.deps/contract/contract.sol\":2541:2553  recipientIDs */\n      dup3\n        /* \"Lincloud/.deps/contract/contract.sol\":2554:2555  i */\n      dup3\n        /* \"Lincloud/.deps/contract/contract.sol\":2541:2556  recipientIDs[i] */\n      dup2\n      mload\n      dup2\n      lt\n      tag_131\n      jumpi\n      tag_132\n      tag_71\n      jump\t// in\n    tag_132:\n    tag_131:\n      0x20\n      mul\n      0x20\n      add\n      add\n        /* \"Lincloud/.deps/contract/contract.sol\":2541:2590  recipientIDs[i] = recipients_list[i].id_recipient */\n      dup2\n      dup2\n      mstore\n      pop\n      pop\n        /* \"Lincloud/.deps/contract/contract.sol\":2521:2524  i++ */\n      dup1\n      dup1\n      0x01\n      add\n      swap2\n      pop\n      pop\n        /* \"Lincloud/.deps/contract/contract.sol\":2473:2602  for (uint256 i = 0; i < recipients_list.length; i++) {... */\n      jump(tag_125)\n    tag_126:\n      pop\n        /* \"Lincloud/.deps/contract/contract.sol\":2619:2631  recipientIDs */\n      dup1\n        /* \"Lincloud/.deps/contract/contract.sol\":2612:2631  return recipientIDs */\n      swap2\n      pop\n      pop\n        /* \"Lincloud/.deps/contract/contract.sol\":2316:2639  function getAllRecipients() public view returns (uint256[] memory){... */\n      swap1\n      jump\t// out\n        /* \"Lincloud/.deps/contract/contract.sol\":1044:1239  function addOracle(uint256 oracleId) public { // non deve essere public... */\n    tag_60:\n        /* \"Lincloud/.deps/contract/contract.sol\":1125:1149  Oracle memory new_oracle */\n      tag_134\n      tag_135\n      jump\t// in\n    tag_134:\n        /* \"Lincloud/.deps/contract/contract.sol\":1183:1191  oracleId */\n      dup2\n        /* \"Lincloud/.deps/contract/contract.sol\":1160:1170  new_oracle */\n      dup2\n        /* \"Lincloud/.deps/contract/contract.sol\":1160:1180  new_oracle.id_oracle */\n      0x00\n      add\n        /* \"Lincloud/.deps/contract/contract.sol\":1160:1191  new_oracle.id_oracle = oracleId */\n      dup2\n      dup2\n      mstore\n      pop\n      pop\n        /* \"Lincloud/.deps/contract/contract.sol\":1202:1214  oracles_list */\n      0x03\n        /* \"Lincloud/.deps/contract/contract.sol\":1220:1230  new_oracle */\n      dup2\n        /* \"Lincloud/.deps/contract/contract.sol\":1202:1231  oracles_list.push(new_oracle) */\n      swap1\n      dup1\n      0x01\n      dup2\n      sload\n      add\n      dup1\n      dup3\n      sstore\n      dup1\n      swap2\n      pop\n      pop\n      0x01\n      swap1\n      sub\n      swap1\n      0x00\n      mstore\n      keccak256(0x00, 0x20)\n      add\n      0x00\n      swap1\n      swap2\n      swap1\n      swap2\n      swap1\n      swap2\n      pop\n      0x00\n      dup3\n      add\n      mload\n      dup2\n      0x00\n      add\n      sstore\n      pop\n      pop\n        /* \"Lincloud/.deps/contract/contract.sol\":1088:1239  { // non deve essere public... */\n      pop\n        /* \"Lincloud/.deps/contract/contract.sol\":1044:1239  function addOracle(uint256 oracleId) public { // non deve essere public... */\n      pop\n      jump\t// out\n        /* \"Lincloud/.deps/contract/contract.sol\":814:1036  function addRecipient(uint256 recipientId) public { // non deve essere public... */\n    tag_63:\n        /* \"Lincloud/.deps/contract/contract.sol\":901:931  Recipient memory new_recipient */\n      tag_138\n      tag_139\n      jump\t// in\n    tag_138:\n        /* \"Lincloud/.deps/contract/contract.sol\":971:982  recipientId */\n      dup2\n        /* \"Lincloud/.deps/contract/contract.sol\":942:955  new_recipient */\n      dup2\n        /* \"Lincloud/.deps/contract/contract.sol\":942:968  new_recipient.id_recipient */\n      0x00\n      add\n        /* \"Lincloud/.deps/contract/contract.sol\":942:982  new_recipient.id_recipient = recipientId */\n      dup2\n      dup2\n      mstore\n      pop\n      pop\n        /* \"Lincloud/.deps/contract/contract.sol\":993:1008  recipients_list */\n      0x02\n        /* \"Lincloud/.deps/contract/contract.sol\":1014:1027  new_recipient */\n      dup2\n        /* \"Lincloud/.deps/contract/contract.sol\":993:1028  recipients_list.push(new_recipient) */\n      swap1\n      dup1\n      0x01\n      dup2\n      sload\n      add\n      dup1\n      dup3\n      sstore\n      dup1\n      swap2\n      pop\n      pop\n      0x01\n      swap1\n      sub\n      swap1\n      0x00\n      mstore\n      keccak256(0x00, 0x20)\n      swap1\n      0x03\n      mul\n      add\n      0x00\n      swap1\n      swap2\n      swap1\n      swap2\n      swap1\n      swap2\n      pop\n      0x00\n      dup3\n      add\n      mload\n      dup2\n      0x00\n      add\n      sstore\n      0x20\n      dup3\n      add\n      mload\n      dup2\n      0x01\n      add\n      swap1\n      dup2\n      tag_141\n      swap2\n      swap1\n      tag_78\n      jump\t// in\n    tag_141:\n      pop\n      0x40\n      dup3\n      add\n      mload\n      dup2\n      0x02\n      add\n      exp(0x0100, 0x00)\n      dup2\n      sload\n      dup2\n      0xff\n      mul\n      not\n      and\n      swap1\n      dup4\n      iszero\n      iszero\n      mul\n      or\n      swap1\n      sstore\n      pop\n      0x60\n      dup3\n      add\n      mload\n      dup2\n      0x02\n      add\n      exp(0x0100, 0x01)\n      dup2\n      sload\n      dup2\n      0xff\n      mul\n      not\n      and\n      swap1\n      dup4\n      iszero\n      iszero\n      mul\n      or\n      swap1\n      sstore\n      pop\n      pop\n      pop\n        /* \"Lincloud/.deps/contract/contract.sol\":864:1036  { // non deve essere public... */\n      pop\n        /* \"Lincloud/.deps/contract/contract.sol\":814:1036  function addRecipient(uint256 recipientId) public { // non deve essere public... */\n      pop\n      jump\t// out\n    tag_135:\n      mload(0x40)\n      dup1\n      0x20\n      add\n      0x40\n      mstore\n      dup1\n      0x00\n      dup2\n      mstore\n      pop\n      swap1\n      jump\t// out\n    tag_139:\n      mload(0x40)\n      dup1\n      0x80\n      add\n      0x40\n      mstore\n      dup1\n      0x00\n      dup2\n      mstore\n      0x20\n      add\n      0x60\n      dup2\n      mstore\n      0x20\n      add\n      iszero(iszero(0x00))\n      dup2\n      mstore\n      0x20\n      add\n      iszero(iszero(0x00))\n      dup2\n      mstore\n      pop\n      swap1\n      jump\t// out\n        /* \"#utility.yul\":7:84   */\n    tag_142:\n        /* \"#utility.yul\":44:51   */\n      0x00\n        /* \"#utility.yul\":73:78   */\n      dup2\n        /* \"#utility.yul\":62:78   */\n      swap1\n      pop\n        /* \"#utility.yul\":7:84   */\n      swap2\n      swap1\n      pop\n      jump\t// out\n        /* \"#utility.yul\":90:208   */\n    tag_143:\n        /* \"#utility.yul\":177:201   */\n      tag_196\n        /* \"#utility.yul\":195:200   */\n      dup2\n        /* \"#utility.yul\":177:201   */\n      tag_142\n      jump\t// in\n    tag_196:\n        /* \"#utility.yul\":172:175   */\n      dup3\n        /* \"#utility.yul\":165:202   */\n      mstore\n        /* \"#utility.yul\":90:208   */\n      pop\n      pop\n      jump\t// out\n        /* \"#utility.yul\":214:436   */\n    tag_21:\n        /* \"#utility.yul\":307:311   */\n      0x00\n        /* \"#utility.yul\":345:347   */\n      0x20\n        /* \"#utility.yul\":334:343   */\n      dup3\n        /* \"#utility.yul\":330:348   */\n      add\n        /* \"#utility.yul\":322:348   */\n      swap1\n      pop\n        /* \"#utility.yul\":358:429   */\n      tag_198\n        /* \"#utility.yul\":426:427   */\n      0x00\n        /* \"#utility.yul\":415:424   */\n      dup4\n        /* \"#utility.yul\":411:428   */\n      add\n        /* \"#utility.yul\":402:408   */\n      dup5\n        /* \"#utility.yul\":358:429   */\n      tag_143\n      jump\t// in\n    tag_198:\n        /* \"#utility.yul\":214:436   */\n      swap3\n      swap2\n      pop\n      pop\n      jump\t// out\n        /* \"#utility.yul\":442:517   */\n    tag_144:\n        /* \"#utility.yul\":475:481   */\n      0x00\n        /* \"#utility.yul\":508:510   */\n      0x40\n        /* \"#utility.yul\":502:511   */\n      mload\n        /* \"#utility.yul\":492:511   */\n      swap1\n      pop\n        /* \"#utility.yul\":442:517   */\n      swap1\n      jump\t// out\n        /* \"#utility.yul\":523:640   */\n    tag_145:\n        /* \"#utility.yul\":632:633   */\n      0x00\n        /* \"#utility.yul\":629:630   */\n      dup1\n        /* \"#utility.yul\":622:634   */\n      revert\n        /* \"#utility.yul\":646:763   */\n    tag_146:\n        /* \"#utility.yul\":755:756   */\n      0x00\n        /* \"#utility.yul\":752:753   */\n      dup1\n        /* \"#utility.yul\":745:757   */\n      revert\n        /* \"#utility.yul\":769:891   */\n    tag_147:\n        /* \"#utility.yul\":842:866   */\n      tag_203\n        /* \"#utility.yul\":860:865   */\n      dup2\n        /* \"#utility.yul\":842:866   */\n      tag_142\n      jump\t// in\n    tag_203:\n        /* \"#utility.yul\":835:840   */\n      dup2\n        /* \"#utility.yul\":832:867   */\n      eq\n        /* \"#utility.yul\":822:885   */\n      tag_204\n      jumpi\n        /* \"#utility.yul\":881:882   */\n      0x00\n        /* \"#utility.yul\":878:879   */\n      dup1\n        /* \"#utility.yul\":871:883   */\n      revert\n        /* \"#utility.yul\":822:885   */\n    tag_204:\n        /* \"#utility.yul\":769:891   */\n      pop\n      jump\t// out\n        /* \"#utility.yul\":897:1036   */\n    tag_148:\n        /* \"#utility.yul\":943:948   */\n      0x00\n        /* \"#utility.yul\":981:987   */\n      dup2\n        /* \"#utility.yul\":968:988   */\n      calldataload\n        /* \"#utility.yul\":959:988   */\n      swap1\n      pop\n        /* \"#utility.yul\":997:1030   */\n      tag_206\n        /* \"#utility.yul\":1024:1029   */\n      dup2\n        /* \"#utility.yul\":997:1030   */\n      tag_147\n      jump\t// in\n    tag_206:\n        /* \"#utility.yul\":897:1036   */\n      swap3\n      swap2\n      pop\n      pop\n      jump\t// out\n        /* \"#utility.yul\":1042:1159   */\n    tag_149:\n        /* \"#utility.yul\":1151:1152   */\n      0x00\n        /* \"#utility.yul\":1148:1149   */\n      dup1\n        /* \"#utility.yul\":1141:1153   */\n      revert\n        /* \"#utility.yul\":1165:1282   */\n    tag_150:\n        /* \"#utility.yul\":1274:1275   */\n      0x00\n        /* \"#utility.yul\":1271:1272   */\n      dup1\n        /* \"#utility.yul\":1264:1276   */\n      revert\n        /* \"#utility.yul\":1288:1390   */\n    tag_151:\n        /* \"#utility.yul\":1329:1335   */\n      0x00\n        /* \"#utility.yul\":1380:1382   */\n      0x1f\n        /* \"#utility.yul\":1376:1383   */\n      not\n        /* \"#utility.yul\":1371:1373   */\n      0x1f\n        /* \"#utility.yul\":1364:1369   */\n      dup4\n        /* \"#utility.yul\":1360:1374   */\n      add\n        /* \"#utility.yul\":1356:1384   */\n      and\n        /* \"#utility.yul\":1346:1384   */\n      swap1\n      pop\n        /* \"#utility.yul\":1288:1390   */\n      swap2\n      swap1\n      pop\n      jump\t// out\n        /* \"#utility.yul\":1396:1576   */\n    tag_107:\n        /* \"#utility.yul\":1444:1521   */\n      0x4e487b7100000000000000000000000000000000000000000000000000000000\n        /* \"#utility.yul\":1441:1442   */\n      0x00\n        /* \"#utility.yul\":1434:1522   */\n      mstore\n        /* \"#utility.yul\":1541:1545   */\n      0x41\n        /* \"#utility.yul\":1538:1539   */\n      0x04\n        /* \"#utility.yul\":1531:1546   */\n      mstore\n        /* \"#utility.yul\":1565:1569   */\n      0x24\n        /* \"#utility.yul\":1562:1563   */\n      0x00\n        /* \"#utility.yul\":1555:1570   */\n      revert\n        /* \"#utility.yul\":1582:1863   */\n    tag_152:\n        /* \"#utility.yul\":1665:1692   */\n      tag_212\n        /* \"#utility.yul\":1687:1691   */\n      dup3\n        /* \"#utility.yul\":1665:1692   */\n      tag_151\n      jump\t// in\n    tag_212:\n        /* \"#utility.yul\":1657:1663   */\n      dup2\n        /* \"#utility.yul\":1653:1693   */\n      add\n        /* \"#utility.yul\":1795:1801   */\n      dup2\n        /* \"#utility.yul\":1783:1793   */\n      dup2\n        /* \"#utility.yul\":1780:1802   */\n      lt\n        /* \"#utility.yul\":1759:1777   */\n      0xffffffffffffffff\n        /* \"#utility.yul\":1747:1757   */\n      dup3\n        /* \"#utility.yul\":1744:1778   */\n      gt\n        /* \"#utility.yul\":1741:1803   */\n      or\n        /* \"#utility.yul\":1738:1826   */\n      iszero\n      tag_213\n      jumpi\n        /* \"#utility.yul\":1806:1824   */\n      tag_214\n      tag_107\n      jump\t// in\n    tag_214:\n        /* \"#utility.yul\":1738:1826   */\n    tag_213:\n        /* \"#utility.yul\":1846:1856   */\n      dup1\n        /* \"#utility.yul\":1842:1844   */\n      0x40\n        /* \"#utility.yul\":1835:1857   */\n      mstore\n        /* \"#utility.yul\":1625:1863   */\n      pop\n        /* \"#utility.yul\":1582:1863   */\n      pop\n      pop\n      jump\t// out\n        /* \"#utility.yul\":1869:1998   */\n    tag_153:\n        /* \"#utility.yul\":1903:1909   */\n      0x00\n        /* \"#utility.yul\":1930:1950   */\n      tag_216\n      tag_144\n      jump\t// in\n    tag_216:\n        /* \"#utility.yul\":1920:1950   */\n      swap1\n      pop\n        /* \"#utility.yul\":1959:1992   */\n      tag_217\n        /* \"#utility.yul\":1987:1991   */\n      dup3\n        /* \"#utility.yul\":1979:1985   */\n      dup3\n        /* \"#utility.yul\":1959:1992   */\n      tag_152\n      jump\t// in\n    tag_217:\n        /* \"#utility.yul\":1869:1998   */\n      swap2\n      swap1\n      pop\n      jump\t// out\n        /* \"#utility.yul\":2004:2312   */\n    tag_154:\n        /* \"#utility.yul\":2066:2070   */\n      0x00\n        /* \"#utility.yul\":2156:2174   */\n      0xffffffffffffffff\n        /* \"#utility.yul\":2148:2154   */\n      dup3\n        /* \"#utility.yul\":2145:2175   */\n      gt\n        /* \"#utility.yul\":2142:2198   */\n      iszero\n      tag_219\n      jumpi\n        /* \"#utility.yul\":2178:2196   */\n      tag_220\n      tag_107\n      jump\t// in\n    tag_220:\n        /* \"#utility.yul\":2142:2198   */\n    tag_219:\n        /* \"#utility.yul\":2216:2245   */\n      tag_221\n        /* \"#utility.yul\":2238:2244   */\n      dup3\n        /* \"#utility.yul\":2216:2245   */\n      tag_151\n      jump\t// in\n    tag_221:\n        /* \"#utility.yul\":2208:2245   */\n      swap1\n      pop\n        /* \"#utility.yul\":2300:2304   */\n      0x20\n        /* \"#utility.yul\":2294:2298   */\n      dup2\n        /* \"#utility.yul\":2290:2305   */\n      add\n        /* \"#utility.yul\":2282:2305   */\n      swap1\n      pop\n        /* \"#utility.yul\":2004:2312   */\n      swap2\n      swap1\n      pop\n      jump\t// out\n        /* \"#utility.yul\":2318:2464   */\n    tag_155:\n        /* \"#utility.yul\":2415:2421   */\n      dup3\n        /* \"#utility.yul\":2410:2413   */\n      dup2\n        /* \"#utility.yul\":2405:2408   */\n      dup4\n        /* \"#utility.yul\":2392:2422   */\n      calldatacopy\n        /* \"#utility.yul\":2456:2457   */\n      0x00\n        /* \"#utility.yul\":2447:2453   */\n      dup4\n        /* \"#utility.yul\":2442:2445   */\n      dup4\n        /* \"#utility.yul\":2438:2454   */\n      add\n        /* \"#utility.yul\":2431:2458   */\n      mstore\n        /* \"#utility.yul\":2318:2464   */\n      pop\n      pop\n      pop\n      jump\t// out\n        /* \"#utility.yul\":2470:2895   */\n    tag_156:\n        /* \"#utility.yul\":2548:2553   */\n      0x00\n        /* \"#utility.yul\":2573:2639   */\n      tag_224\n        /* \"#utility.yul\":2589:2638   */\n      tag_225\n        /* \"#utility.yul\":2631:2637   */\n      dup5\n        /* \"#utility.yul\":2589:2638   */\n      tag_154\n      jump\t// in\n    tag_225:\n        /* \"#utility.yul\":2573:2639   */\n      tag_153\n      jump\t// in\n    tag_224:\n        /* \"#utility.yul\":2564:2639   */\n      swap1\n      pop\n        /* \"#utility.yul\":2662:2668   */\n      dup3\n        /* \"#utility.yul\":2655:2660   */\n      dup2\n        /* \"#utility.yul\":2648:2669   */\n      mstore\n        /* \"#utility.yul\":2700:2704   */\n      0x20\n        /* \"#utility.yul\":2693:2698   */\n      dup2\n        /* \"#utility.yul\":2689:2705   */\n      add\n        /* \"#utility.yul\":2738:2741   */\n      dup5\n        /* \"#utility.yul\":2729:2735   */\n      dup5\n        /* \"#utility.yul\":2724:2727   */\n      dup5\n        /* \"#utility.yul\":2720:2736   */\n      add\n        /* \"#utility.yul\":2717:2742   */\n      gt\n        /* \"#utility.yul\":2714:2826   */\n      iszero\n      tag_226\n      jumpi\n        /* \"#utility.yul\":2745:2824   */\n      tag_227\n      tag_150\n      jump\t// in\n    tag_227:\n        /* \"#utility.yul\":2714:2826   */\n    tag_226:\n        /* \"#utility.yul\":2835:2889   */\n      tag_228\n        /* \"#utility.yul\":2882:2888   */\n      dup5\n        /* \"#utility.yul\":2877:2880   */\n      dup3\n        /* \"#utility.yul\":2872:2875   */\n      dup6\n        /* \"#utility.yul\":2835:2889   */\n      tag_155\n      jump\t// in\n    tag_228:\n        /* \"#utility.yul\":2554:2895   */\n      pop\n        /* \"#utility.yul\":2470:2895   */\n      swap4\n      swap3\n      pop\n      pop\n      pop\n      jump\t// out\n        /* \"#utility.yul\":2915:3255   */\n    tag_157:\n        /* \"#utility.yul\":2971:2976   */\n      0x00\n        /* \"#utility.yul\":3020:3023   */\n      dup3\n        /* \"#utility.yul\":3013:3017   */\n      0x1f\n        /* \"#utility.yul\":3005:3011   */\n      dup4\n        /* \"#utility.yul\":3001:3018   */\n      add\n        /* \"#utility.yul\":2997:3024   */\n      slt\n        /* \"#utility.yul\":2987:3109   */\n      tag_230\n      jumpi\n        /* \"#utility.yul\":3028:3107   */\n      tag_231\n      tag_149\n      jump\t// in\n    tag_231:\n        /* \"#utility.yul\":2987:3109   */\n    tag_230:\n        /* \"#utility.yul\":3145:3151   */\n      dup2\n        /* \"#utility.yul\":3132:3152   */\n      calldataload\n        /* \"#utility.yul\":3170:3249   */\n      tag_232\n        /* \"#utility.yul\":3245:3248   */\n      dup5\n        /* \"#utility.yul\":3237:3243   */\n      dup3\n        /* \"#utility.yul\":3230:3234   */\n      0x20\n        /* \"#utility.yul\":3222:3228   */\n      dup7\n        /* \"#utility.yul\":3218:3235   */\n      add\n        /* \"#utility.yul\":3170:3249   */\n      tag_156\n      jump\t// in\n    tag_232:\n        /* \"#utility.yul\":3161:3249   */\n      swap2\n      pop\n        /* \"#utility.yul\":2977:3255   */\n      pop\n        /* \"#utility.yul\":2915:3255   */\n      swap3\n      swap2\n      pop\n      pop\n      jump\t// out\n        /* \"#utility.yul\":3261:3915   */\n    tag_24:\n        /* \"#utility.yul\":3339:3345   */\n      0x00\n        /* \"#utility.yul\":3347:3353   */\n      dup1\n        /* \"#utility.yul\":3396:3398   */\n      0x40\n        /* \"#utility.yul\":3384:3393   */\n      dup4\n        /* \"#utility.yul\":3375:3382   */\n      dup6\n        /* \"#utility.yul\":3371:3394   */\n      sub\n        /* \"#utility.yul\":3367:3399   */\n      slt\n        /* \"#utility.yul\":3364:3483   */\n      iszero\n      tag_234\n      jumpi\n        /* \"#utility.yul\":3402:3481   */\n      tag_235\n      tag_145\n      jump\t// in\n    tag_235:\n        /* \"#utility.yul\":3364:3483   */\n    tag_234:\n        /* \"#utility.yul\":3522:3523   */\n      0x00\n        /* \"#utility.yul\":3547:3600   */\n      tag_236\n        /* \"#utility.yul\":3592:3599   */\n      dup6\n        /* \"#utility.yul\":3583:3589   */\n      dup3\n        /* \"#utility.yul\":3572:3581   */\n      dup7\n        /* \"#utility.yul\":3568:3590   */\n      add\n        /* \"#utility.yul\":3547:3600   */\n      tag_148\n      jump\t// in\n    tag_236:\n        /* \"#utility.yul\":3537:3600   */\n      swap3\n      pop\n        /* \"#utility.yul\":3493:3610   */\n      pop\n        /* \"#utility.yul\":3677:3679   */\n      0x20\n        /* \"#utility.yul\":3666:3675   */\n      dup4\n        /* \"#utility.yul\":3662:3680   */\n      add\n        /* \"#utility.yul\":3649:3681   */\n      calldataload\n        /* \"#utility.yul\":3708:3726   */\n      0xffffffffffffffff\n        /* \"#utility.yul\":3700:3706   */\n      dup2\n        /* \"#utility.yul\":3697:3727   */\n      gt\n        /* \"#utility.yul\":3694:3811   */\n      iszero\n      tag_237\n      jumpi\n        /* \"#utility.yul\":3730:3809   */\n      tag_238\n      tag_146\n      jump\t// in\n    tag_238:\n        /* \"#utility.yul\":3694:3811   */\n    tag_237:\n        /* \"#utility.yul\":3835:3898   */\n      tag_239\n        /* \"#utility.yul\":3890:3897   */\n      dup6\n        /* \"#utility.yul\":3881:3887   */\n      dup3\n        /* \"#utility.yul\":3870:3879   */\n      dup7\n        /* \"#utility.yul\":3866:3888   */\n      add\n        /* \"#utility.yul\":3835:3898   */\n      tag_157\n      jump\t// in\n    tag_239:\n        /* \"#utility.yul\":3825:3898   */\n      swap2\n      pop\n        /* \"#utility.yul\":3620:3908   */\n      pop\n        /* \"#utility.yul\":3261:3915   */\n      swap3\n      pop\n      swap3\n      swap1\n      pop\n      jump\t// out\n        /* \"#utility.yul\":3921:4011   */\n    tag_158:\n        /* \"#utility.yul\":3955:3962   */\n      0x00\n        /* \"#utility.yul\":3998:4003   */\n      dup2\n        /* \"#utility.yul\":3991:4004   */\n      iszero\n        /* \"#utility.yul\":3984:4005   */\n      iszero\n        /* \"#utility.yul\":3973:4005   */\n      swap1\n      pop\n        /* \"#utility.yul\":3921:4011   */\n      swap2\n      swap1\n      pop\n      jump\t// out\n        /* \"#utility.yul\":4017:4133   */\n    tag_159:\n        /* \"#utility.yul\":4087:4108   */\n      tag_242\n        /* \"#utility.yul\":4102:4107   */\n      dup2\n        /* \"#utility.yul\":4087:4108   */\n      tag_158\n      jump\t// in\n    tag_242:\n        /* \"#utility.yul\":4080:4085   */\n      dup2\n        /* \"#utility.yul\":4077:4109   */\n      eq\n        /* \"#utility.yul\":4067:4127   */\n      tag_243\n      jumpi\n        /* \"#utility.yul\":4123:4124   */\n      0x00\n        /* \"#utility.yul\":4120:4121   */\n      dup1\n        /* \"#utility.yul\":4113:4125   */\n      revert\n        /* \"#utility.yul\":4067:4127   */\n    tag_243:\n        /* \"#utility.yul\":4017:4133   */\n      pop\n      jump\t// out\n        /* \"#utility.yul\":4139:4272   */\n    tag_160:\n        /* \"#utility.yul\":4182:4187   */\n      0x00\n        /* \"#utility.yul\":4220:4226   */\n      dup2\n        /* \"#utility.yul\":4207:4227   */\n      calldataload\n        /* \"#utility.yul\":4198:4227   */\n      swap1\n      pop\n        /* \"#utility.yul\":4236:4266   */\n      tag_245\n        /* \"#utility.yul\":4260:4265   */\n      dup2\n        /* \"#utility.yul\":4236:4266   */\n      tag_159\n      jump\t// in\n    tag_245:\n        /* \"#utility.yul\":4139:4272   */\n      swap3\n      swap2\n      pop\n      pop\n      jump\t// out\n        /* \"#utility.yul\":4278:4885   */\n    tag_30:\n        /* \"#utility.yul\":4349:4355   */\n      0x00\n        /* \"#utility.yul\":4357:4363   */\n      dup1\n        /* \"#utility.yul\":4365:4371   */\n      0x00\n        /* \"#utility.yul\":4414:4416   */\n      0x60\n        /* \"#utility.yul\":4402:4411   */\n      dup5\n        /* \"#utility.yul\":4393:4400   */\n      dup7\n        /* \"#utility.yul\":4389:4412   */\n      sub\n        /* \"#utility.yul\":4385:4417   */\n      slt\n        /* \"#utility.yul\":4382:4501   */\n      iszero\n      tag_247\n      jumpi\n        /* \"#utility.yul\":4420:4499   */\n      tag_248\n      tag_145\n      jump\t// in\n    tag_248:\n        /* \"#utility.yul\":4382:4501   */\n    tag_247:\n        /* \"#utility.yul\":4540:4541   */\n      0x00\n        /* \"#utility.yul\":4565:4618   */\n      tag_249\n        /* \"#utility.yul\":4610:4617   */\n      dup7\n        /* \"#utility.yul\":4601:4607   */\n      dup3\n        /* \"#utility.yul\":4590:4599   */\n      dup8\n        /* \"#utility.yul\":4586:4608   */\n      add\n        /* \"#utility.yul\":4565:4618   */\n      tag_148\n      jump\t// in\n    tag_249:\n        /* \"#utility.yul\":4555:4618   */\n      swap4\n      pop\n        /* \"#utility.yul\":4511:4628   */\n      pop\n        /* \"#utility.yul\":4667:4669   */\n      0x20\n        /* \"#utility.yul\":4693:4743   */\n      tag_250\n        /* \"#utility.yul\":4735:4742   */\n      dup7\n        /* \"#utility.yul\":4726:4732   */\n      dup3\n        /* \"#utility.yul\":4715:4724   */\n      dup8\n        /* \"#utility.yul\":4711:4733   */\n      add\n        /* \"#utility.yul\":4693:4743   */\n      tag_160\n      jump\t// in\n    tag_250:\n        /* \"#utility.yul\":4683:4743   */\n      swap3\n      pop\n        /* \"#utility.yul\":4638:4753   */\n      pop\n        /* \"#utility.yul\":4792:4794   */\n      0x40\n        /* \"#utility.yul\":4818:4868   */\n      tag_251\n        /* \"#utility.yul\":4860:4867   */\n      dup7\n        /* \"#utility.yul\":4851:4857   */\n      dup3\n        /* \"#utility.yul\":4840:4849   */\n      dup8\n        /* \"#utility.yul\":4836:4858   */\n      add\n        /* \"#utility.yul\":4818:4868   */\n      tag_160\n      jump\t// in\n    tag_251:\n        /* \"#utility.yul\":4808:4868   */\n      swap2\n      pop\n        /* \"#utility.yul\":4763:4878   */\n      pop\n        /* \"#utility.yul\":4278:4885   */\n      swap3\n      pop\n      swap3\n      pop\n      swap3\n      jump\t// out\n        /* \"#utility.yul\":4891:5220   */\n    tag_34:\n        /* \"#utility.yul\":4950:4956   */\n      0x00\n        /* \"#utility.yul\":4999:5001   */\n      0x20\n        /* \"#utility.yul\":4987:4996   */\n      dup3\n        /* \"#utility.yul\":4978:4985   */\n      dup5\n        /* \"#utility.yul\":4974:4997   */\n      sub\n        /* \"#utility.yul\":4970:5002   */\n      slt\n        /* \"#utility.yul\":4967:5086   */\n      iszero\n      tag_253\n      jumpi\n        /* \"#utility.yul\":5005:5084   */\n      tag_254\n      tag_145\n      jump\t// in\n    tag_254:\n        /* \"#utility.yul\":4967:5086   */\n    tag_253:\n        /* \"#utility.yul\":5125:5126   */\n      0x00\n        /* \"#utility.yul\":5150:5203   */\n      tag_255\n        /* \"#utility.yul\":5195:5202   */\n      dup5\n        /* \"#utility.yul\":5186:5192   */\n      dup3\n        /* \"#utility.yul\":5175:5184   */\n      dup6\n        /* \"#utility.yul\":5171:5193   */\n      add\n        /* \"#utility.yul\":5150:5203   */\n      tag_148\n      jump\t// in\n    tag_255:\n        /* \"#utility.yul\":5140:5203   */\n      swap2\n      pop\n        /* \"#utility.yul\":5096:5213   */\n      pop\n        /* \"#utility.yul\":4891:5220   */\n      swap3\n      swap2\n      pop\n      pop\n      jump\t// out\n        /* \"#utility.yul\":5226:5325   */\n    tag_161:\n        /* \"#utility.yul\":5278:5284   */\n      0x00\n        /* \"#utility.yul\":5312:5317   */\n      dup2\n        /* \"#utility.yul\":5306:5318   */\n      mload\n        /* \"#utility.yul\":5296:5318   */\n      swap1\n      pop\n        /* \"#utility.yul\":5226:5325   */\n      swap2\n      swap1\n      pop\n      jump\t// out\n        /* \"#utility.yul\":5331:5500   */\n    tag_162:\n        /* \"#utility.yul\":5415:5426   */\n      0x00\n        /* \"#utility.yul\":5449:5455   */\n      dup3\n        /* \"#utility.yul\":5444:5447   */\n      dup3\n        /* \"#utility.yul\":5437:5456   */\n      mstore\n        /* \"#utility.yul\":5489:5493   */\n      0x20\n        /* \"#utility.yul\":5484:5487   */\n      dup3\n        /* \"#utility.yul\":5480:5494   */\n      add\n        /* \"#utility.yul\":5465:5494   */\n      swap1\n      pop\n        /* \"#utility.yul\":5331:5500   */\n      swap3\n      swap2\n      pop\n      pop\n      jump\t// out\n        /* \"#utility.yul\":5506:5752   */\n    tag_163:\n        /* \"#utility.yul\":5587:5588   */\n      0x00\n        /* \"#utility.yul\":5597:5710   */\n    tag_259:\n        /* \"#utility.yul\":5611:5617   */\n      dup4\n        /* \"#utility.yul\":5608:5609   */\n      dup2\n        /* \"#utility.yul\":5605:5618   */\n      lt\n        /* \"#utility.yul\":5597:5710   */\n      iszero\n      tag_261\n      jumpi\n        /* \"#utility.yul\":5696:5697   */\n      dup1\n        /* \"#utility.yul\":5691:5694   */\n      dup3\n        /* \"#utility.yul\":5687:5698   */\n      add\n        /* \"#utility.yul\":5681:5699   */\n      mload\n        /* \"#utility.yul\":5677:5678   */\n      dup2\n        /* \"#utility.yul\":5672:5675   */\n      dup5\n        /* \"#utility.yul\":5668:5679   */\n      add\n        /* \"#utility.yul\":5661:5700   */\n      mstore\n        /* \"#utility.yul\":5633:5635   */\n      0x20\n        /* \"#utility.yul\":5630:5631   */\n      dup2\n        /* \"#utility.yul\":5626:5636   */\n      add\n        /* \"#utility.yul\":5621:5636   */\n      swap1\n      pop\n        /* \"#utility.yul\":5597:5710   */\n      jump(tag_259)\n    tag_261:\n        /* \"#utility.yul\":5744:5745   */\n      0x00\n        /* \"#utility.yul\":5735:5741   */\n      dup5\n        /* \"#utility.yul\":5730:5733   */\n      dup5\n        /* \"#utility.yul\":5726:5742   */\n      add\n        /* \"#utility.yul\":5719:5746   */\n      mstore\n        /* \"#utility.yul\":5568:5752   */\n      pop\n        /* \"#utility.yul\":5506:5752   */\n      pop\n      pop\n      pop\n      jump\t// out\n        /* \"#utility.yul\":5758:6135   */\n    tag_164:\n        /* \"#utility.yul\":5846:5849   */\n      0x00\n        /* \"#utility.yul\":5874:5913   */\n      tag_263\n        /* \"#utility.yul\":5907:5912   */\n      dup3\n        /* \"#utility.yul\":5874:5913   */\n      tag_161\n      jump\t// in\n    tag_263:\n        /* \"#utility.yul\":5929:6000   */\n      tag_264\n        /* \"#utility.yul\":5993:5999   */\n      dup2\n        /* \"#utility.yul\":5988:5991   */\n      dup6\n        /* \"#utility.yul\":5929:6000   */\n      tag_162\n      jump\t// in\n    tag_264:\n        /* \"#utility.yul\":5922:6000   */\n      swap4\n      pop\n        /* \"#utility.yul\":6009:6074   */\n      tag_265\n        /* \"#utility.yul\":6067:6073   */\n      dup2\n        /* \"#utility.yul\":6062:6065   */\n      dup6\n        /* \"#utility.yul\":6055:6059   */\n      0x20\n        /* \"#utility.yul\":6048:6053   */\n      dup7\n        /* \"#utility.yul\":6044:6060   */\n      add\n        /* \"#utility.yul\":6009:6074   */\n      tag_163\n      jump\t// in\n    tag_265:\n        /* \"#utility.yul\":6099:6128   */\n      tag_266\n        /* \"#utility.yul\":6121:6127   */\n      dup2\n        /* \"#utility.yul\":6099:6128   */\n      tag_151\n      jump\t// in\n    tag_266:\n        /* \"#utility.yul\":6094:6097   */\n      dup5\n        /* \"#utility.yul\":6090:6129   */\n      add\n        /* \"#utility.yul\":6083:6129   */\n      swap2\n      pop\n        /* \"#utility.yul\":5850:6135   */\n      pop\n        /* \"#utility.yul\":5758:6135   */\n      swap3\n      swap2\n      pop\n      pop\n      jump\t// out\n        /* \"#utility.yul\":6141:6250   */\n    tag_165:\n        /* \"#utility.yul\":6222:6243   */\n      tag_268\n        /* \"#utility.yul\":6237:6242   */\n      dup2\n        /* \"#utility.yul\":6222:6243   */\n      tag_158\n      jump\t// in\n    tag_268:\n        /* \"#utility.yul\":6217:6220   */\n      dup3\n        /* \"#utility.yul\":6210:6244   */\n      mstore\n        /* \"#utility.yul\":6141:6250   */\n      pop\n      pop\n      jump\t// out\n        /* \"#utility.yul\":6256:6876   */\n    tag_41:\n        /* \"#utility.yul\":6441:6445   */\n      0x00\n        /* \"#utility.yul\":6479:6482   */\n      0x80\n        /* \"#utility.yul\":6468:6477   */\n      dup3\n        /* \"#utility.yul\":6464:6483   */\n      add\n        /* \"#utility.yul\":6456:6483   */\n      swap1\n      pop\n        /* \"#utility.yul\":6493:6564   */\n      tag_270\n        /* \"#utility.yul\":6561:6562   */\n      0x00\n        /* \"#utility.yul\":6550:6559   */\n      dup4\n        /* \"#utility.yul\":6546:6563   */\n      add\n        /* \"#utility.yul\":6537:6543   */\n      dup8\n        /* \"#utility.yul\":6493:6564   */\n      tag_143\n      jump\t// in\n    tag_270:\n        /* \"#utility.yul\":6611:6620   */\n      dup2\n        /* \"#utility.yul\":6605:6609   */\n      dup2\n        /* \"#utility.yul\":6601:6621   */\n      sub\n        /* \"#utility.yul\":6596:6598   */\n      0x20\n        /* \"#utility.yul\":6585:6594   */\n      dup4\n        /* \"#utility.yul\":6581:6599   */\n      add\n        /* \"#utility.yul\":6574:6622   */\n      mstore\n        /* \"#utility.yul\":6639:6717   */\n      tag_271\n        /* \"#utility.yul\":6712:6716   */\n      dup2\n        /* \"#utility.yul\":6703:6709   */\n      dup7\n        /* \"#utility.yul\":6639:6717   */\n      tag_164\n      jump\t// in\n    tag_271:\n        /* \"#utility.yul\":6631:6717   */\n      swap1\n      pop\n        /* \"#utility.yul\":6727:6793   */\n      tag_272\n        /* \"#utility.yul\":6789:6791   */\n      0x40\n        /* \"#utility.yul\":6778:6787   */\n      dup4\n        /* \"#utility.yul\":6774:6792   */\n      add\n        /* \"#utility.yul\":6765:6771   */\n      dup6\n        /* \"#utility.yul\":6727:6793   */\n      tag_165\n      jump\t// in\n    tag_272:\n        /* \"#utility.yul\":6803:6869   */\n      tag_273\n        /* \"#utility.yul\":6865:6867   */\n      0x60\n        /* \"#utility.yul\":6854:6863   */\n      dup4\n        /* \"#utility.yul\":6850:6868   */\n      add\n        /* \"#utility.yul\":6841:6847   */\n      dup5\n        /* \"#utility.yul\":6803:6869   */\n      tag_165\n      jump\t// in\n    tag_273:\n        /* \"#utility.yul\":6256:6876   */\n      swap6\n      swap5\n      pop\n      pop\n      pop\n      pop\n      pop\n      jump\t// out\n        /* \"#utility.yul\":6882:6996   */\n    tag_166:\n        /* \"#utility.yul\":6949:6955   */\n      0x00\n        /* \"#utility.yul\":6983:6988   */\n      dup2\n        /* \"#utility.yul\":6977:6989   */\n      mload\n        /* \"#utility.yul\":6967:6989   */\n      swap1\n      pop\n        /* \"#utility.yul\":6882:6996   */\n      swap2\n      swap1\n      pop\n      jump\t// out\n        /* \"#utility.yul\":7002:7186   */\n    tag_167:\n        /* \"#utility.yul\":7101:7112   */\n      0x00\n        /* \"#utility.yul\":7135:7141   */\n      dup3\n        /* \"#utility.yul\":7130:7133   */\n      dup3\n        /* \"#utility.yul\":7123:7142   */\n      mstore\n        /* \"#utility.yul\":7175:7179   */\n      0x20\n        /* \"#utility.yul\":7170:7173   */\n      dup3\n        /* \"#utility.yul\":7166:7180   */\n      add\n        /* \"#utility.yul\":7151:7180   */\n      swap1\n      pop\n        /* \"#utility.yul\":7002:7186   */\n      swap3\n      swap2\n      pop\n      pop\n      jump\t// out\n        /* \"#utility.yul\":7192:7324   */\n    tag_168:\n        /* \"#utility.yul\":7259:7263   */\n      0x00\n        /* \"#utility.yul\":7282:7285   */\n      dup2\n        /* \"#utility.yul\":7274:7285   */\n      swap1\n      pop\n        /* \"#utility.yul\":7312:7316   */\n      0x20\n        /* \"#utility.yul\":7307:7310   */\n      dup3\n        /* \"#utility.yul\":7303:7317   */\n      add\n        /* \"#utility.yul\":7295:7317   */\n      swap1\n      pop\n        /* \"#utility.yul\":7192:7324   */\n      swap2\n      swap1\n      pop\n      jump\t// out\n        /* \"#utility.yul\":7330:7438   */\n    tag_169:\n        /* \"#utility.yul\":7407:7431   */\n      tag_278\n        /* \"#utility.yul\":7425:7430   */\n      dup2\n        /* \"#utility.yul\":7407:7431   */\n      tag_142\n      jump\t// in\n    tag_278:\n        /* \"#utility.yul\":7402:7405   */\n      dup3\n        /* \"#utility.yul\":7395:7432   */\n      mstore\n        /* \"#utility.yul\":7330:7438   */\n      pop\n      pop\n      jump\t// out\n        /* \"#utility.yul\":7444:7623   */\n    tag_170:\n        /* \"#utility.yul\":7513:7523   */\n      0x00\n        /* \"#utility.yul\":7534:7580   */\n      tag_280\n        /* \"#utility.yul\":7576:7579   */\n      dup4\n        /* \"#utility.yul\":7568:7574   */\n      dup4\n        /* \"#utility.yul\":7534:7580   */\n      tag_169\n      jump\t// in\n    tag_280:\n        /* \"#utility.yul\":7612:7616   */\n      0x20\n        /* \"#utility.yul\":7607:7610   */\n      dup4\n        /* \"#utility.yul\":7603:7617   */\n      add\n        /* \"#utility.yul\":7589:7617   */\n      swap1\n      pop\n        /* \"#utility.yul\":7444:7623   */\n      swap3\n      swap2\n      pop\n      pop\n      jump\t// out\n        /* \"#utility.yul\":7629:7742   */\n    tag_171:\n        /* \"#utility.yul\":7699:7703   */\n      0x00\n        /* \"#utility.yul\":7731:7735   */\n      0x20\n        /* \"#utility.yul\":7726:7729   */\n      dup3\n        /* \"#utility.yul\":7722:7736   */\n      add\n        /* \"#utility.yul\":7714:7736   */\n      swap1\n      pop\n        /* \"#utility.yul\":7629:7742   */\n      swap2\n      swap1\n      pop\n      jump\t// out\n        /* \"#utility.yul\":7778:8510   */\n    tag_172:\n        /* \"#utility.yul\":7897:7900   */\n      0x00\n        /* \"#utility.yul\":7926:7980   */\n      tag_283\n        /* \"#utility.yul\":7974:7979   */\n      dup3\n        /* \"#utility.yul\":7926:7980   */\n      tag_166\n      jump\t// in\n    tag_283:\n        /* \"#utility.yul\":7996:8082   */\n      tag_284\n        /* \"#utility.yul\":8075:8081   */\n      dup2\n        /* \"#utility.yul\":8070:8073   */\n      dup6\n        /* \"#utility.yul\":7996:8082   */\n      tag_167\n      jump\t// in\n    tag_284:\n        /* \"#utility.yul\":7989:8082   */\n      swap4\n      pop\n        /* \"#utility.yul\":8106:8162   */\n      tag_285\n        /* \"#utility.yul\":8156:8161   */\n      dup4\n        /* \"#utility.yul\":8106:8162   */\n      tag_168\n      jump\t// in\n    tag_285:\n        /* \"#utility.yul\":8185:8192   */\n      dup1\n        /* \"#utility.yul\":8216:8217   */\n      0x00\n        /* \"#utility.yul\":8201:8485   */\n    tag_286:\n        /* \"#utility.yul\":8226:8232   */\n      dup4\n        /* \"#utility.yul\":8223:8224   */\n      dup2\n        /* \"#utility.yul\":8220:8233   */\n      lt\n        /* \"#utility.yul\":8201:8485   */\n      iszero\n      tag_288\n      jumpi\n        /* \"#utility.yul\":8302:8308   */\n      dup2\n        /* \"#utility.yul\":8296:8309   */\n      mload\n        /* \"#utility.yul\":8329:8392   */\n      tag_289\n        /* \"#utility.yul\":8388:8391   */\n      dup9\n        /* \"#utility.yul\":8373:8386   */\n      dup3\n        /* \"#utility.yul\":8329:8392   */\n      tag_170\n      jump\t// in\n    tag_289:\n        /* \"#utility.yul\":8322:8392   */\n      swap8\n      pop\n        /* \"#utility.yul\":8415:8475   */\n      tag_290\n        /* \"#utility.yul\":8468:8474   */\n      dup4\n        /* \"#utility.yul\":8415:8475   */\n      tag_171\n      jump\t// in\n    tag_290:\n        /* \"#utility.yul\":8405:8475   */\n      swap3\n      pop\n        /* \"#utility.yul\":8261:8485   */\n      pop\n        /* \"#utility.yul\":8248:8249   */\n      0x01\n        /* \"#utility.yul\":8245:8246   */\n      dup2\n        /* \"#utility.yul\":8241:8250   */\n      add\n        /* \"#utility.yul\":8236:8250   */\n      swap1\n      pop\n        /* \"#utility.yul\":8201:8485   */\n      jump(tag_286)\n    tag_288:\n        /* \"#utility.yul\":8205:8219   */\n      pop\n        /* \"#utility.yul\":8501:8504   */\n      dup6\n        /* \"#utility.yul\":8494:8504   */\n      swap4\n      pop\n        /* \"#utility.yul\":7902:8510   */\n      pop\n      pop\n      pop\n        /* \"#utility.yul\":7778:8510   */\n      swap3\n      swap2\n      pop\n      pop\n      jump\t// out\n        /* \"#utility.yul\":8516:8889   */\n    tag_45:\n        /* \"#utility.yul\":8659:8663   */\n      0x00\n        /* \"#utility.yul\":8697:8699   */\n      0x20\n        /* \"#utility.yul\":8686:8695   */\n      dup3\n        /* \"#utility.yul\":8682:8700   */\n      add\n        /* \"#utility.yul\":8674:8700   */\n      swap1\n      pop\n        /* \"#utility.yul\":8746:8755   */\n      dup2\n        /* \"#utility.yul\":8740:8744   */\n      dup2\n        /* \"#utility.yul\":8736:8756   */\n      sub\n        /* \"#utility.yul\":8732:8733   */\n      0x00\n        /* \"#utility.yul\":8721:8730   */\n      dup4\n        /* \"#utility.yul\":8717:8734   */\n      add\n        /* \"#utility.yul\":8710:8757   */\n      mstore\n        /* \"#utility.yul\":8774:8882   */\n      tag_292\n        /* \"#utility.yul\":8877:8881   */\n      dup2\n        /* \"#utility.yul\":8868:8874   */\n      dup5\n        /* \"#utility.yul\":8774:8882   */\n      tag_172\n      jump\t// in\n    tag_292:\n        /* \"#utility.yul\":8766:8882   */\n      swap1\n      pop\n        /* \"#utility.yul\":8516:8889   */\n      swap3\n      swap2\n      pop\n      pop\n      jump\t// out\n        /* \"#utility.yul\":8895:9075   */\n    tag_120:\n        /* \"#utility.yul\":8943:9020   */\n      0x4e487b7100000000000000000000000000000000000000000000000000000000\n        /* \"#utility.yul\":8940:8941   */\n      0x00\n        /* \"#utility.yul\":8933:9021   */\n      mstore\n        /* \"#utility.yul\":9040:9044   */\n      0x21\n        /* \"#utility.yul\":9037:9038   */\n      0x04\n        /* \"#utility.yul\":9030:9045   */\n      mstore\n        /* \"#utility.yul\":9064:9068   */\n      0x24\n        /* \"#utility.yul\":9061:9062   */\n      0x00\n        /* \"#utility.yul\":9054:9069   */\n      revert\n        /* \"#utility.yul\":9081:9198   */\n    tag_173:\n        /* \"#utility.yul\":9166:9167   */\n      0x02\n        /* \"#utility.yul\":9159:9164   */\n      dup2\n        /* \"#utility.yul\":9156:9168   */\n      lt\n        /* \"#utility.yul\":9146:9192   */\n      tag_295\n      jumpi\n        /* \"#utility.yul\":9172:9190   */\n      tag_296\n      tag_120\n      jump\t// in\n    tag_296:\n        /* \"#utility.yul\":9146:9192   */\n    tag_295:\n        /* \"#utility.yul\":9081:9198   */\n      pop\n      jump\t// out\n        /* \"#utility.yul\":9204:9339   */\n    tag_174:\n        /* \"#utility.yul\":9253:9260   */\n      0x00\n        /* \"#utility.yul\":9282:9287   */\n      dup2\n        /* \"#utility.yul\":9271:9287   */\n      swap1\n      pop\n        /* \"#utility.yul\":9288:9333   */\n      tag_298\n        /* \"#utility.yul\":9327:9332   */\n      dup3\n        /* \"#utility.yul\":9288:9333   */\n      tag_173\n      jump\t// in\n    tag_298:\n        /* \"#utility.yul\":9204:9339   */\n      swap2\n      swap1\n      pop\n      jump\t// out\n        /* \"#utility.yul\":9345:9480   */\n    tag_175:\n        /* \"#utility.yul\":9405:9414   */\n      0x00\n        /* \"#utility.yul\":9438:9474   */\n      tag_300\n        /* \"#utility.yul\":9468:9473   */\n      dup3\n        /* \"#utility.yul\":9438:9474   */\n      tag_174\n      jump\t// in\n    tag_300:\n        /* \"#utility.yul\":9425:9474   */\n      swap1\n      pop\n        /* \"#utility.yul\":9345:9480   */\n      swap2\n      swap1\n      pop\n      jump\t// out\n        /* \"#utility.yul\":9486:9637   */\n    tag_176:\n        /* \"#utility.yul\":9583:9630   */\n      tag_302\n        /* \"#utility.yul\":9624:9629   */\n      dup2\n        /* \"#utility.yul\":9583:9630   */\n      tag_175\n      jump\t// in\n    tag_302:\n        /* \"#utility.yul\":9578:9581   */\n      dup3\n        /* \"#utility.yul\":9571:9631   */\n      mstore\n        /* \"#utility.yul\":9486:9637   */\n      pop\n      pop\n      jump\t// out\n        /* \"#utility.yul\":9643:9885   */\n    tag_49:\n        /* \"#utility.yul\":9746:9750   */\n      0x00\n        /* \"#utility.yul\":9784:9786   */\n      0x20\n        /* \"#utility.yul\":9773:9782   */\n      dup3\n        /* \"#utility.yul\":9769:9787   */\n      add\n        /* \"#utility.yul\":9761:9787   */\n      swap1\n      pop\n        /* \"#utility.yul\":9797:9878   */\n      tag_304\n        /* \"#utility.yul\":9875:9876   */\n      0x00\n        /* \"#utility.yul\":9864:9873   */\n      dup4\n        /* \"#utility.yul\":9860:9877   */\n      add\n        /* \"#utility.yul\":9851:9857   */\n      dup5\n        /* \"#utility.yul\":9797:9878   */\n      tag_176\n      jump\t// in\n    tag_304:\n        /* \"#utility.yul\":9643:9885   */\n      swap3\n      swap2\n      pop\n      pop\n      jump\t// out\n        /* \"#utility.yul\":9891:10071   */\n    tag_71:\n        /* \"#utility.yul\":9939:10016   */\n      0x4e487b7100000000000000000000000000000000000000000000000000000000\n        /* \"#utility.yul\":9936:9937   */\n      0x00\n        /* \"#utility.yul\":9929:10017   */\n      mstore\n        /* \"#utility.yul\":10036:10040   */\n      0x32\n        /* \"#utility.yul\":10033:10034   */\n      0x04\n        /* \"#utility.yul\":10026:10041   */\n      mstore\n        /* \"#utility.yul\":10060:10064   */\n      0x24\n        /* \"#utility.yul\":10057:10058   */\n      0x00\n        /* \"#utility.yul\":10050:10065   */\n      revert\n        /* \"#utility.yul\":10077:10257   */\n    tag_177:\n        /* \"#utility.yul\":10125:10202   */\n      0x4e487b7100000000000000000000000000000000000000000000000000000000\n        /* \"#utility.yul\":10122:10123   */\n      0x00\n        /* \"#utility.yul\":10115:10203   */\n      mstore\n        /* \"#utility.yul\":10222:10226   */\n      0x22\n        /* \"#utility.yul\":10219:10220   */\n      0x04\n        /* \"#utility.yul\":10212:10227   */\n      mstore\n        /* \"#utility.yul\":10246:10250   */\n      0x24\n        /* \"#utility.yul\":10243:10244   */\n      0x00\n        /* \"#utility.yul\":10236:10251   */\n      revert\n        /* \"#utility.yul\":10263:10583   */\n    tag_99:\n        /* \"#utility.yul\":10307:10313   */\n      0x00\n        /* \"#utility.yul\":10344:10345   */\n      0x02\n        /* \"#utility.yul\":10338:10342   */\n      dup3\n        /* \"#utility.yul\":10334:10346   */\n      div\n        /* \"#utility.yul\":10324:10346   */\n      swap1\n      pop\n        /* \"#utility.yul\":10391:10392   */\n      0x01\n        /* \"#utility.yul\":10385:10389   */\n      dup3\n        /* \"#utility.yul\":10381:10393   */\n      and\n        /* \"#utility.yul\":10412:10430   */\n      dup1\n        /* \"#utility.yul\":10402:10483   */\n      tag_308\n      jumpi\n        /* \"#utility.yul\":10468:10472   */\n      0x7f\n        /* \"#utility.yul\":10460:10466   */\n      dup3\n        /* \"#utility.yul\":10456:10473   */\n      and\n        /* \"#utility.yul\":10446:10473   */\n      swap2\n      pop\n        /* \"#utility.yul\":10402:10483   */\n    tag_308:\n        /* \"#utility.yul\":10530:10532   */\n      0x20\n        /* \"#utility.yul\":10522:10528   */\n      dup3\n        /* \"#utility.yul\":10519:10533   */\n      lt\n        /* \"#utility.yul\":10499:10517   */\n      dup2\n        /* \"#utility.yul\":10496:10534   */\n      sub\n        /* \"#utility.yul\":10493:10577   */\n      tag_309\n      jumpi\n        /* \"#utility.yul\":10549:10567   */\n      tag_310\n      tag_177\n      jump\t// in\n    tag_310:\n        /* \"#utility.yul\":10493:10577   */\n    tag_309:\n        /* \"#utility.yul\":10314:10583   */\n      pop\n        /* \"#utility.yul\":10263:10583   */\n      swap2\n      swap1\n      pop\n      jump\t// out\n        /* \"#utility.yul\":10589:10730   */\n    tag_178:\n        /* \"#utility.yul\":10638:10642   */\n      0x00\n        /* \"#utility.yul\":10661:10664   */\n      dup2\n        /* \"#utility.yul\":10653:10664   */\n      swap1\n      pop\n        /* \"#utility.yul\":10684:10687   */\n      dup2\n        /* \"#utility.yul\":10681:10682   */\n      0x00\n        /* \"#utility.yul\":10674:10688   */\n      mstore\n        /* \"#utility.yul\":10718:10722   */\n      0x20\n        /* \"#utility.yul\":10715:10716   */\n      0x00\n        /* \"#utility.yul\":10705:10723   */\n      keccak256\n        /* \"#utility.yul\":10697:10723   */\n      swap1\n      pop\n        /* \"#utility.yul\":10589:10730   */\n      swap2\n      swap1\n      pop\n      jump\t// out\n        /* \"#utility.yul\":10736:10829   */\n    tag_179:\n        /* \"#utility.yul\":10773:10779   */\n      0x00\n        /* \"#utility.yul\":10820:10822   */\n      0x20\n        /* \"#utility.yul\":10815:10817   */\n      0x1f\n        /* \"#utility.yul\":10808:10813   */\n      dup4\n        /* \"#utility.yul\":10804:10818   */\n      add\n        /* \"#utility.yul\":10800:10823   */\n      div\n        /* \"#utility.yul\":10790:10823   */\n      swap1\n      pop\n        /* \"#utility.yul\":10736:10829   */\n      swap2\n      swap1\n      pop\n      jump\t// out\n        /* \"#utility.yul\":10835:10942   */\n    tag_180:\n        /* \"#utility.yul\":10879:10887   */\n      0x00\n        /* \"#utility.yul\":10929:10934   */\n      dup3\n        /* \"#utility.yul\":10923:10927   */\n      dup3\n        /* \"#utility.yul\":10919:10935   */\n      shl\n        /* \"#utility.yul\":10898:10935   */\n      swap1\n      pop\n        /* \"#utility.yul\":10835:10942   */\n      swap3\n      swap2\n      pop\n      pop\n      jump\t// out\n        /* \"#utility.yul\":10948:11341   */\n    tag_181:\n        /* \"#utility.yul\":11017:11023   */\n      0x00\n        /* \"#utility.yul\":11067:11068   */\n      0x08\n        /* \"#utility.yul\":11055:11065   */\n      dup4\n        /* \"#utility.yul\":11051:11069   */\n      mul\n        /* \"#utility.yul\":11090:11187   */\n      tag_315\n        /* \"#utility.yul\":11120:11186   */\n      0xffffffffffffffffffffffffffffffffffffffffffffffffffffffffffffffff\n        /* \"#utility.yul\":11109:11118   */\n      dup3\n        /* \"#utility.yul\":11090:11187   */\n      tag_180\n      jump\t// in\n    tag_315:\n        /* \"#utility.yul\":11208:11247   */\n      tag_316\n        /* \"#utility.yul\":11238:11246   */\n      dup7\n        /* \"#utility.yul\":11227:11236   */\n      dup4\n        /* \"#utility.yul\":11208:11247   */\n      tag_180\n      jump\t// in\n    tag_316:\n        /* \"#utility.yul\":11196:11247   */\n      swap6\n      pop\n        /* \"#utility.yul\":11280:11284   */\n      dup1\n        /* \"#utility.yul\":11276:11285   */\n      not\n        /* \"#utility.yul\":11269:11274   */\n      dup5\n        /* \"#utility.yul\":11265:11286   */\n      and\n        /* \"#utility.yul\":11256:11286   */\n      swap4\n      pop\n        /* \"#utility.yul\":11329:11333   */\n      dup1\n        /* \"#utility.yul\":11319:11327   */\n      dup7\n        /* \"#utility.yul\":11315:11334   */\n      and\n        /* \"#utility.yul\":11308:11313   */\n      dup5\n        /* \"#utility.yul\":11305:11335   */\n      or\n        /* \"#utility.yul\":11295:11335   */\n      swap3\n      pop\n        /* \"#utility.yul\":11024:11341   */\n      pop\n      pop\n        /* \"#utility.yul\":10948:11341   */\n      swap4\n      swap3\n      pop\n      pop\n      pop\n      jump\t// out\n        /* \"#utility.yul\":11347:11407   */\n    tag_182:\n        /* \"#utility.yul\":11375:11378   */\n      0x00\n        /* \"#utility.yul\":11396:11401   */\n      dup2\n        /* \"#utility.yul\":11389:11401   */\n      swap1\n      pop\n        /* \"#utility.yul\":11347:11407   */\n      swap2\n      swap1\n      pop\n      jump\t// out\n        /* \"#utility.yul\":11413:11555   */\n    tag_183:\n        /* \"#utility.yul\":11463:11472   */\n      0x00\n        /* \"#utility.yul\":11496:11549   */\n      tag_319\n        /* \"#utility.yul\":11514:11548   */\n      tag_320\n        /* \"#utility.yul\":11523:11547   */\n      tag_321\n        /* \"#utility.yul\":11541:11546   */\n      dup5\n        /* \"#utility.yul\":11523:11547   */\n      tag_142\n      jump\t// in\n    tag_321:\n        /* \"#utility.yul\":11514:11548   */\n      tag_182\n      jump\t// in\n    tag_320:\n        /* \"#utility.yul\":11496:11549   */\n      tag_142\n      jump\t// in\n    tag_319:\n        /* \"#utility.yul\":11483:11549   */\n      swap1\n      pop\n        /* \"#utility.yul\":11413:11555   */\n      swap2\n      swap1\n      pop\n      jump\t// out\n        /* \"#utility.yul\":11561:11636   */\n    tag_184:\n        /* \"#utility.yul\":11604:11607   */\n      0x00\n        /* \"#utility.yul\":11625:11630   */\n      dup2\n        /* \"#utility.yul\":11618:11630   */\n      swap1\n      pop\n        /* \"#utility.yul\":11561:11636   */\n      swap2\n      swap1\n      pop\n      jump\t// out\n        /* \"#utility.yul\":11642:11911   */\n    tag_185:\n        /* \"#utility.yul\":11752:11791   */\n      tag_324\n        /* \"#utility.yul\":11783:11790   */\n      dup4\n        /* \"#utility.yul\":11752:11791   */\n      tag_183\n      jump\t// in\n    tag_324:\n        /* \"#utility.yul\":11813:11904   */\n      tag_325\n        /* \"#utility.yul\":11862:11903   */\n      tag_326\n        /* \"#utility.yul\":11886:11902   */\n      dup3\n        /* \"#utility.yul\":11862:11903   */\n      tag_184\n      jump\t// in\n    tag_326:\n        /* \"#utility.yul\":11854:11860   */\n      dup5\n        /* \"#utility.yul\":11847:11851   */\n      dup5\n        /* \"#utility.yul\":11841:11852   */\n      sload\n        /* \"#utility.yul\":11813:11904   */\n      tag_181\n      jump\t// in\n    tag_325:\n        /* \"#utility.yul\":11807:11811   */\n      dup3\n        /* \"#utility.yul\":11800:11905   */\n      sstore\n        /* \"#utility.yul\":11718:11911   */\n      pop\n        /* \"#utility.yul\":11642:11911   */\n      pop\n      pop\n      pop\n      jump\t// out\n        /* \"#utility.yul\":11917:11990   */\n    tag_186:\n        /* \"#utility.yul\":11962:11965   */\n      0x00\n        /* \"#utility.yul\":11917:11990   */\n      swap1\n      jump\t// out\n        /* \"#utility.yul\":11996:12185   */\n    tag_187:\n        /* \"#utility.yul\":12073:12105   */\n      tag_329\n      tag_186\n      jump\t// in\n    tag_329:\n        /* \"#utility.yul\":12114:12179   */\n      tag_330\n        /* \"#utility.yul\":12172:12178   */\n      dup2\n        /* \"#utility.yul\":12164:12170   */\n      dup5\n        /* \"#utility.yul\":12158:12162   */\n      dup5\n        /* \"#utility.yul\":12114:12179   */\n      tag_185\n      jump\t// in\n    tag_330:\n        /* \"#utility.yul\":12049:12185   */\n      pop\n        /* \"#utility.yul\":11996:12185   */\n      pop\n      pop\n      jump\t// out\n        /* \"#utility.yul\":12191:12377   */\n    tag_188:\n        /* \"#utility.yul\":12251:12371   */\n    tag_332:\n        /* \"#utility.yul\":12268:12271   */\n      dup2\n        /* \"#utility.yul\":12261:12266   */\n      dup2\n        /* \"#utility.yul\":12258:12272   */\n      lt\n        /* \"#utility.yul\":12251:12371   */\n      iszero\n      tag_334\n      jumpi\n        /* \"#utility.yul\":12322:12361   */\n      tag_335\n        /* \"#utility.yul\":12359:12360   */\n      0x00\n        /* \"#utility.yul\":12352:12357   */\n      dup3\n        /* \"#utility.yul\":12322:12361   */\n      tag_187\n      jump\t// in\n    tag_335:\n        /* \"#utility.yul\":12295:12296   */\n      0x01\n        /* \"#utility.yul\":12288:12293   */\n      dup2\n        /* \"#utility.yul\":12284:12297   */\n      add\n        /* \"#utility.yul\":12275:12297   */\n      swap1\n      pop\n        /* \"#utility.yul\":12251:12371   */\n      jump(tag_332)\n    tag_334:\n        /* \"#utility.yul\":12191:12377   */\n      pop\n      pop\n      jump\t// out\n        /* \"#utility.yul\":12383:12926   */\n    tag_189:\n        /* \"#utility.yul\":12484:12486   */\n      0x1f\n        /* \"#utility.yul\":12479:12482   */\n      dup3\n        /* \"#utility.yul\":12476:12487   */\n      gt\n        /* \"#utility.yul\":12473:12919   */\n      iszero\n      tag_337\n      jumpi\n        /* \"#utility.yul\":12518:12556   */\n      tag_338\n        /* \"#utility.yul\":12550:12555   */\n      dup2\n        /* \"#utility.yul\":12518:12556   */\n      tag_178\n      jump\t// in\n    tag_338:\n        /* \"#utility.yul\":12602:12631   */\n      tag_339\n        /* \"#utility.yul\":12620:12630   */\n      dup5\n        /* \"#utility.yul\":12602:12631   */\n      tag_179\n      jump\t// in\n    tag_339:\n        /* \"#utility.yul\":12592:12600   */\n      dup2\n        /* \"#utility.yul\":12588:12632   */\n      add\n        /* \"#utility.yul\":12785:12787   */\n      0x20\n        /* \"#utility.yul\":12773:12783   */\n      dup6\n        /* \"#utility.yul\":12770:12788   */\n      lt\n        /* \"#utility.yul\":12767:12816   */\n      iszero\n      tag_340\n      jumpi\n        /* \"#utility.yul\":12806:12814   */\n      dup2\n        /* \"#utility.yul\":12791:12814   */\n      swap1\n      pop\n        /* \"#utility.yul\":12767:12816   */\n    tag_340:\n        /* \"#utility.yul\":12829:12909   */\n      tag_341\n        /* \"#utility.yul\":12885:12907   */\n      tag_342\n        /* \"#utility.yul\":12903:12906   */\n      dup6\n        /* \"#utility.yul\":12885:12907   */\n      tag_179\n      jump\t// in\n    tag_342:\n        /* \"#utility.yul\":12875:12883   */\n      dup4\n        /* \"#utility.yul\":12871:12908   */\n      add\n        /* \"#utility.yul\":12858:12869   */\n      dup3\n        /* \"#utility.yul\":12829:12909   */\n      tag_188\n      jump\t// in\n    tag_341:\n        /* \"#utility.yul\":12488:12919   */\n      pop\n      pop\n        /* \"#utility.yul\":12473:12919   */\n    tag_337:\n        /* \"#utility.yul\":12383:12926   */\n      pop\n      pop\n      pop\n      jump\t// out\n        /* \"#utility.yul\":12932:13049   */\n    tag_190:\n        /* \"#utility.yul\":12986:12994   */\n      0x00\n        /* \"#utility.yul\":13036:13041   */\n      dup3\n        /* \"#utility.yul\":13030:13034   */\n      dup3\n        /* \"#utility.yul\":13026:13042   */\n      shr\n        /* \"#utility.yul\":13005:13042   */\n      swap1\n      pop\n        /* \"#utility.yul\":12932:13049   */\n      swap3\n      swap2\n      pop\n      pop\n      jump\t// out\n        /* \"#utility.yul\":13055:13224   */\n    tag_191:\n        /* \"#utility.yul\":13099:13105   */\n      0x00\n        /* \"#utility.yul\":13132:13183   */\n      tag_345\n        /* \"#utility.yul\":13180:13181   */\n      0x00\n        /* \"#utility.yul\":13176:13182   */\n      not\n        /* \"#utility.yul\":13168:13173   */\n      dup5\n        /* \"#utility.yul\":13165:13166   */\n      0x08\n        /* \"#utility.yul\":13161:13174   */\n      mul\n        /* \"#utility.yul\":13132:13183   */\n      tag_190\n      jump\t// in\n    tag_345:\n        /* \"#utility.yul\":13128:13184   */\n      not\n        /* \"#utility.yul\":13213:13217   */\n      dup1\n        /* \"#utility.yul\":13207:13211   */\n      dup4\n        /* \"#utility.yul\":13203:13218   */\n      and\n        /* \"#utility.yul\":13193:13218   */\n      swap2\n      pop\n        /* \"#utility.yul\":13106:13224   */\n      pop\n        /* \"#utility.yul\":13055:13224   */\n      swap3\n      swap2\n      pop\n      pop\n      jump\t// out\n        /* \"#utility.yul\":13229:13524   */\n    tag_192:\n        /* \"#utility.yul\":13305:13309   */\n      0x00\n        /* \"#utility.yul\":13451:13480   */\n      tag_347\n        /* \"#utility.yul\":13476:13479   */\n      dup4\n        /* \"#utility.yul\":13470:13474   */\n      dup4\n        /* \"#utility.yul\":13451:13480   */\n      tag_191\n      jump\t// in\n    tag_347:\n        /* \"#utility.yul\":13443:13480   */\n      swap2\n      pop\n        /* \"#utility.yul\":13513:13516   */\n      dup3\n        /* \"#utility.yul\":13510:13511   */\n      0x02\n        /* \"#utility.yul\":13506:13517   */\n      mul\n        /* \"#utility.yul\":13500:13504   */\n      dup3\n        /* \"#utility.yul\":13497:13518   */\n      or\n        /* \"#utility.yul\":13489:13518   */\n      swap1\n      pop\n        /* \"#utility.yul\":13229:13524   */\n      swap3\n      swap2\n      pop\n      pop\n      jump\t// out\n        /* \"#utility.yul\":13529:14924   */\n    tag_78:\n        /* \"#utility.yul\":13646:13683   */\n      tag_349\n        /* \"#utility.yul\":13679:13682   */\n      dup3\n        /* \"#utility.yul\":13646:13683   */\n      tag_161\n      jump\t// in\n    tag_349:\n        /* \"#utility.yul\":13748:13766   */\n      0xffffffffffffffff\n        /* \"#utility.yul\":13740:13746   */\n      dup2\n        /* \"#utility.yul\":13737:13767   */\n      gt\n        /* \"#utility.yul\":13734:13790   */\n      iszero\n      tag_350\n      jumpi\n        /* \"#utility.yul\":13770:13788   */\n      tag_351\n      tag_107\n      jump\t// in\n    tag_351:\n        /* \"#utility.yul\":13734:13790   */\n    tag_350:\n        /* \"#utility.yul\":13814:13852   */\n      tag_352\n        /* \"#utility.yul\":13846:13850   */\n      dup3\n        /* \"#utility.yul\":13840:13851   */\n      sload\n        /* \"#utility.yul\":13814:13852   */\n      tag_99\n      jump\t// in\n    tag_352:\n        /* \"#utility.yul\":13899:13966   */\n      tag_353\n        /* \"#utility.yul\":13959:13965   */\n      dup3\n        /* \"#utility.yul\":13951:13957   */\n      dup3\n        /* \"#utility.yul\":13945:13949   */\n      dup6\n        /* \"#utility.yul\":13899:13966   */\n      tag_189\n      jump\t// in\n    tag_353:\n        /* \"#utility.yul\":13993:13994   */\n      0x00\n        /* \"#utility.yul\":14017:14021   */\n      0x20\n        /* \"#utility.yul\":14004:14021   */\n      swap1\n      pop\n        /* \"#utility.yul\":14049:14051   */\n      0x1f\n        /* \"#utility.yul\":14041:14047   */\n      dup4\n        /* \"#utility.yul\":14038:14052   */\n      gt\n        /* \"#utility.yul\":14066:14067   */\n      0x01\n        /* \"#utility.yul\":14061:14679   */\n      dup2\n      eq\n      tag_355\n      jumpi\n        /* \"#utility.yul\":14723:14724   */\n      0x00\n        /* \"#utility.yul\":14740:14746   */\n      dup5\n        /* \"#utility.yul\":14737:14814   */\n      iszero\n      tag_356\n      jumpi\n        /* \"#utility.yul\":14789:14798   */\n      dup3\n        /* \"#utility.yul\":14784:14787   */\n      dup8\n        /* \"#utility.yul\":14780:14799   */\n      add\n        /* \"#utility.yul\":14774:14800   */\n      mload\n        /* \"#utility.yul\":14765:14800   */\n      swap1\n      pop\n        /* \"#utility.yul\":14737:14814   */\n    tag_356:\n        /* \"#utility.yul\":14840:14907   */\n      tag_357\n        /* \"#utility.yul\":14900:14906   */\n      dup6\n        /* \"#utility.yul\":14893:14898   */\n      dup3\n        /* \"#utility.yul\":14840:14907   */\n      tag_192\n      jump\t// in\n    tag_357:\n        /* \"#utility.yul\":14834:14838   */\n      dup7\n        /* \"#utility.yul\":14827:14908   */\n      sstore\n        /* \"#utility.yul\":14696:14918   */\n      pop\n        /* \"#utility.yul\":14031:14918   */\n      jump(tag_354)\n        /* \"#utility.yul\":14061:14679   */\n    tag_355:\n        /* \"#utility.yul\":14113:14117   */\n      0x1f\n        /* \"#utility.yul\":14109:14118   */\n      not\n        /* \"#utility.yul\":14101:14107   */\n      dup5\n        /* \"#utility.yul\":14097:14119   */\n      and\n        /* \"#utility.yul\":14147:14184   */\n      tag_358\n        /* \"#utility.yul\":14179:14183   */\n      dup7\n        /* \"#utility.yul\":14147:14184   */\n      tag_178\n      jump\t// in\n    tag_358:\n        /* \"#utility.yul\":14206:14207   */\n      0x00\n        /* \"#utility.yul\":14220:14428   */\n    tag_359:\n        /* \"#utility.yul\":14234:14241   */\n      dup3\n        /* \"#utility.yul\":14231:14232   */\n      dup2\n        /* \"#utility.yul\":14228:14242   */\n      lt\n        /* \"#utility.yul\":14220:14428   */\n      iszero\n      tag_361\n      jumpi\n        /* \"#utility.yul\":14313:14322   */\n      dup5\n        /* \"#utility.yul\":14308:14311   */\n      dup10\n        /* \"#utility.yul\":14304:14323   */\n      add\n        /* \"#utility.yul\":14298:14324   */\n      mload\n        /* \"#utility.yul\":14290:14296   */\n      dup3\n        /* \"#utility.yul\":14283:14325   */\n      sstore\n        /* \"#utility.yul\":14364:14365   */\n      0x01\n        /* \"#utility.yul\":14356:14362   */\n      dup3\n        /* \"#utility.yul\":14352:14366   */\n      add\n        /* \"#utility.yul\":14342:14366   */\n      swap2\n      pop\n        /* \"#utility.yul\":14411:14413   */\n      0x20\n        /* \"#utility.yul\":14400:14409   */\n      dup6\n        /* \"#utility.yul\":14396:14414   */\n      add\n        /* \"#utility.yul\":14383:14414   */\n      swap5\n      pop\n        /* \"#utility.yul\":14257:14261   */\n      0x20\n        /* \"#utility.yul\":14254:14255   */\n      dup2\n        /* \"#utility.yul\":14250:14262   */\n      add\n        /* \"#utility.yul\":14245:14262   */\n      swap1\n      pop\n        /* \"#utility.yul\":14220:14428   */\n      jump(tag_359)\n    tag_361:\n        /* \"#utility.yul\":14456:14462   */\n      dup7\n        /* \"#utility.yul\":14447:14454   */\n      dup4\n        /* \"#utility.yul\":14444:14463   */\n      lt\n        /* \"#utility.yul\":14441:14620   */\n      iszero\n      tag_362\n      jumpi\n        /* \"#utility.yul\":14514:14523   */\n      dup5\n        /* \"#utility.yul\":14509:14512   */\n      dup10\n        /* \"#utility.yul\":14505:14524   */\n      add\n        /* \"#utility.yul\":14499:14525   */\n      mload\n        /* \"#utility.yul\":14557:14605   */\n      tag_363\n        /* \"#utility.yul\":14599:14603   */\n      0x1f\n        /* \"#utility.yul\":14591:14597   */\n      dup10\n        /* \"#utility.yul\":14587:14604   */\n      and\n        /* \"#utility.yul\":14576:14585   */\n      dup3\n        /* \"#utility.yul\":14557:14605   */\n      tag_191\n      jump\t// in\n    tag_363:\n        /* \"#utility.yul\":14549:14555   */\n      dup4\n        /* \"#utility.yul\":14542:14606   */\n      sstore\n        /* \"#utility.yul\":14464:14620   */\n      pop\n        /* \"#utility.yul\":14441:14620   */\n    tag_362:\n        /* \"#utility.yul\":14666:14667   */\n      0x01\n        /* \"#utility.yul\":14662:14663   */\n      0x02\n        /* \"#utility.yul\":14654:14660   */\n      dup9\n        /* \"#utility.yul\":14650:14664   */\n      mul\n        /* \"#utility.yul\":14646:14668   */\n      add\n        /* \"#utility.yul\":14640:14644   */\n      dup9\n        /* \"#utility.yul\":14633:14669   */\n      sstore\n        /* \"#utility.yul\":14068:14679   */\n      pop\n      pop\n      pop\n        /* \"#utility.yul\":14031:14918   */\n    tag_354:\n      pop\n        /* \"#utility.yul\":13621:14924   */\n      pop\n      pop\n      pop\n        /* \"#utility.yul\":13529:14924   */\n      pop\n      pop\n      jump\t// out\n\n    auxdata: 0xa26469706673582212202a3f6919cf6ca988309a3aac45c1ec07a9391cf92fca7c76afadba90cf4148f264736f6c63430008160033\n}\n",
				"bytecode": {
					"linkReferences": {},
					"object": "608060405234801562000010575f80fd5b506040516200111238038062001112833981810160405281019062000036919062000104565b815f819055506001805f6101000a81548160ff0219169083600181111562000063576200006262000149565b5b0217905550806004819055505f60055f6101000a81548160ff021916908315150217905550505062000176565b5f80fd5b5f819050919050565b620000a88162000094565b8114620000b3575f80fd5b50565b5f81519050620000c6816200009d565b92915050565b5f819050919050565b620000e081620000cc565b8114620000eb575f80fd5b50565b5f81519050620000fe81620000d5565b92915050565b5f80604083850312156200011d576200011c62000090565b5b5f6200012c85828601620000b6565b92505060206200013f85828601620000ee565b9150509250929050565b7f4e487b71000000000000000000000000000000000000000000000000000000005f52602160045260245ffd5b610f8e80620001845f395ff3fe608060405234801561000f575f80fd5b50600436106100cd575f3560e01c806365a6bb291161008a578063ac3ef22d11610064578063ac3ef22d146101ee578063b74513c1146101f8578063e5a72d5b14610216578063fc68b3ed14610232576100cd565b806365a6bb291461019457806384731d6f146101b25780638cee71e0146101d0576100cd565b80632ebcb653146100d15780633121924d146100ef57806335254bcd1461010b57806338fcbc011461011557806342be8cb514610131578063499ba0aa14610161575b5f80fd5b6100d961024e565b6040516100e69190610792565b60405180910390f35b61010960048036038101906101049190610922565b610256565b005b6101136102d2565b005b61012f600480360381019061012a91906109b1565b6102ee565b005b61014b60048036038101906101469190610a01565b6103af565b6040516101589190610792565b60405180910390f35b61017b60048036038101906101769190610a01565b6103d4565b60405161018b9493929190610ab5565b60405180910390f35b61019c6104ae565b6040516101a99190610bb6565b60405180910390f35b6101ba610563565b6040516101c79190610c49565b60405180910390f35b6101d8610575565b6040516101e59190610792565b60405180910390f35b6101f661057a565b005b6102006105a5565b60405161020d9190610bb6565b60405180910390f35b610230600480360381019061022b9190610a01565b61065e565b005b61024c60048036038101906102479190610a01565b6106a2565b005b5f8054905090565b5f5b6002805490508110156102cd57826002828154811061027a57610279610c62565b5b905f5260205f2090600302015f0154036102c05781600282815481106102a3576102a2610c62565b5b905f5260205f20906003020160010190816102be9190610e89565b505b8080600101915050610258565b505050565b600160055f6101000a81548160ff021916908315150217905550565b5f5b6002805490508110156103a957836002828154811061031257610311610c62565b5b905f5260205f2090600302015f01540361039c57826002828154811061033b5761033a610c62565b5b905f5260205f2090600302016002015f6101000a81548160ff021916908315150217905550816002828154811061037557610374610c62565b5b905f5260205f20906003020160020160016101000a81548160ff0219169083151502179055505b80806001019150506102f0565b50505050565b600381815481106103be575f80fd5b905f5260205f20015f91509050805f0154905081565b600281815481106103e3575f80fd5b905f5260205f2090600302015f91509050805f01549080600101805461040890610cbc565b80601f016020809104026020016040519081016040528092919081815260200182805461043490610cbc565b801561047f5780601f106104565761010080835404028352916020019161047f565b820191905f5260205f20905b81548152906001019060200180831161046257829003601f168201915b505050505090806002015f9054906101000a900460ff16908060020160019054906101000a900460ff16905084565b60605f60038054905067ffffffffffffffff8111156104d0576104cf6107fe565b5b6040519080825280602002602001820160405280156104fe5781602001602082028036833780820191505090505b5090505f5b60038054905081101561055b576003818154811061052457610523610c62565b5b905f5260205f20015f015482828151811061054257610541610c62565b5b6020026020010181815250508080600101915050610503565b508091505090565b60015f9054906101000a900460ff1681565b5f5481565b5f60015f6101000a81548160ff0219169083600181111561059e5761059d610bd6565b5b0217905550565b60605f60028054905067ffffffffffffffff8111156105c7576105c66107fe565b5b6040519080825280602002602001820160405280156105f55781602001602082028036833780820191505090505b5090505f5b600280549050811015610656576002818154811061061b5761061a610c62565b5b905f5260205f2090600302015f015482828151811061063d5761063c610c62565b5b60200260200101818152505080806001019150506105fa565b508091505090565b61066661073f565b81815f018181525050600381908060018154018082558091505060019003905f5260205f20015f909190919091505f820151815f015550505050565b6106aa610751565b81815f018181525050600281908060018154018082558091505060019003905f5260205f2090600302015f909190919091505f820151815f015560208201518160010190816106f99190610e89565b506040820151816002015f6101000a81548160ff02191690831515021790555060608201518160020160016101000a81548160ff02191690831515021790555050505050565b60405180602001604052805f81525090565b60405180608001604052805f8152602001606081526020015f151581526020015f151581525090565b5f819050919050565b61078c8161077a565b82525050565b5f6020820190506107a55f830184610783565b92915050565b5f604051905090565b5f80fd5b5f80fd5b6107c58161077a565b81146107cf575f80fd5b50565b5f813590506107e0816107bc565b92915050565b5f80fd5b5f80fd5b5f601f19601f8301169050919050565b7f4e487b71000000000000000000000000000000000000000000000000000000005f52604160045260245ffd5b610834826107ee565b810181811067ffffffffffffffff82111715610853576108526107fe565b5b80604052505050565b5f6108656107ab565b9050610871828261082b565b919050565b5f67ffffffffffffffff8211156108905761088f6107fe565b5b610899826107ee565b9050602081019050919050565b828183375f83830152505050565b5f6108c66108c184610876565b61085c565b9050828152602081018484840111156108e2576108e16107ea565b5b6108ed8482856108a6565b509392505050565b5f82601f830112610909576109086107e6565b5b81356109198482602086016108b4565b91505092915050565b5f8060408385031215610938576109376107b4565b5b5f610945858286016107d2565b925050602083013567ffffffffffffffff811115610966576109656107b8565b5b610972858286016108f5565b9150509250929050565b5f8115159050919050565b6109908161097c565b811461099a575f80fd5b50565b5f813590506109ab81610987565b92915050565b5f805f606084860312156109c8576109c76107b4565b5b5f6109d5868287016107d2565b93505060206109e68682870161099d565b92505060406109f78682870161099d565b9150509250925092565b5f60208284031215610a1657610a156107b4565b5b5f610a23848285016107d2565b91505092915050565b5f81519050919050565b5f82825260208201905092915050565b5f5b83811015610a63578082015181840152602081019050610a48565b5f8484015250505050565b5f610a7882610a2c565b610a828185610a36565b9350610a92818560208601610a46565b610a9b816107ee565b840191505092915050565b610aaf8161097c565b82525050565b5f608082019050610ac85f830187610783565b8181036020830152610ada8186610a6e565b9050610ae96040830185610aa6565b610af66060830184610aa6565b95945050505050565b5f81519050919050565b5f82825260208201905092915050565b5f819050602082019050919050565b610b318161077a565b82525050565b5f610b428383610b28565b60208301905092915050565b5f602082019050919050565b5f610b6482610aff565b610b6e8185610b09565b9350610b7983610b19565b805f5b83811015610ba9578151610b908882610b37565b9750610b9b83610b4e565b925050600181019050610b7c565b5085935050505092915050565b5f6020820190508181035f830152610bce8184610b5a565b905092915050565b7f4e487b71000000000000000000000000000000000000000000000000000000005f52602160045260245ffd5b60028110610c1457610c13610bd6565b5b50565b5f819050610c2482610c03565b919050565b5f610c3382610c17565b9050919050565b610c4381610c29565b82525050565b5f602082019050610c5c5f830184610c3a565b92915050565b7f4e487b71000000000000000000000000000000000000000000000000000000005f52603260045260245ffd5b7f4e487b71000000000000000000000000000000000000000000000000000000005f52602260045260245ffd5b5f6002820490506001821680610cd357607f821691505b602082108103610ce657610ce5610c8f565b5b50919050565b5f819050815f5260205f209050919050565b5f6020601f8301049050919050565b5f82821b905092915050565b5f60088302610d487fffffffffffffffffffffffffffffffffffffffffffffffffffffffffffffffff82610d0d565b610d528683610d0d565b95508019841693508086168417925050509392505050565b5f819050919050565b5f610d8d610d88610d838461077a565b610d6a565b61077a565b9050919050565b5f819050919050565b610da683610d73565b610dba610db282610d94565b848454610d19565b825550505050565b5f90565b610dce610dc2565b610dd9818484610d9d565b505050565b5b81811015610dfc57610df15f82610dc6565b600181019050610ddf565b5050565b601f821115610e4157610e1281610cec565b610e1b84610cfe565b81016020851015610e2a578190505b610e3e610e3685610cfe565b830182610dde565b50505b505050565b5f82821c905092915050565b5f610e615f1984600802610e46565b1980831691505092915050565b5f610e798383610e52565b9150826002028217905092915050565b610e9282610a2c565b67ffffffffffffffff811115610eab57610eaa6107fe565b5b610eb58254610cbc565b610ec0828285610e00565b5f60209050601f831160018114610ef1575f8415610edf578287015190505b610ee98582610e6e565b865550610f50565b601f198416610eff86610cec565b5f5b82811015610f2657848901518255600182019150602085019450602081019050610f01565b86831015610f435784890151610f3f601f891682610e52565b8355505b6001600288020188555050505b50505050505056fea26469706673582212202a3f6919cf6ca988309a3aac45c1ec07a9391cf92fca7c76afadba90cf4148f264736f6c63430008160033",
					"opcodes": "PUSH1 0x80 PUSH1 0x40 MSTORE CALLVALUE DUP1 ISZERO PUSH3 0x10 JUMPI PUSH0 DUP1 REVERT JUMPDEST POP PUSH1 0x40 MLOAD PUSH3 0x1112 CODESIZE SUB DUP1 PUSH3 0x1112 DUP4 CODECOPY DUP2 DUP2 ADD PUSH1 0x40 MSTORE DUP2 ADD SWAP1 PUSH3 0x36 SWAP2 SWAP1 PUSH3 0x104 JUMP JUMPDEST DUP2 PUSH0 DUP2 SWAP1 SSTORE POP PUSH1 0x1 DUP1 PUSH0 PUSH2 0x100 EXP DUP2 SLOAD DUP2 PUSH1 0xFF MUL NOT AND SWAP1 DUP4 PUSH1 0x1 DUP2 GT ISZERO PUSH3 0x63 JUMPI PUSH3 0x62 PUSH3 0x149 JUMP JUMPDEST JUMPDEST MUL OR SWAP1 SSTORE POP DUP1 PUSH1 0x4 DUP2 SWAP1 SSTORE POP PUSH0 PUSH1 0x5 PUSH0 PUSH2 0x100 EXP DUP2 SLOAD DUP2 PUSH1 0xFF MUL NOT AND SWAP1 DUP4 ISZERO ISZERO MUL OR SWAP1 SSTORE POP POP POP PUSH3 0x176 JUMP JUMPDEST PUSH0 DUP1 REVERT JUMPDEST PUSH0 DUP2 SWAP1 POP SWAP2 SWAP1 POP JUMP JUMPDEST PUSH3 0xA8 DUP2 PUSH3 0x94 JUMP JUMPDEST DUP2 EQ PUSH3 0xB3 JUMPI PUSH0 DUP1 REVERT JUMPDEST POP JUMP JUMPDEST PUSH0 DUP2 MLOAD SWAP1 POP PUSH3 0xC6 DUP2 PUSH3 0x9D JUMP JUMPDEST SWAP3 SWAP2 POP POP JUMP JUMPDEST PUSH0 DUP2 SWAP1 POP SWAP2 SWAP1 POP JUMP JUMPDEST PUSH3 0xE0 DUP2 PUSH3 0xCC JUMP JUMPDEST DUP2 EQ PUSH3 0xEB JUMPI PUSH0 DUP1 REVERT JUMPDEST POP JUMP JUMPDEST PUSH0 DUP2 MLOAD SWAP1 POP PUSH3 0xFE DUP2 PUSH3 0xD5 JUMP JUMPDEST SWAP3 SWAP2 POP POP JUMP JUMPDEST PUSH0 DUP1 PUSH1 0x40 DUP4 DUP6 SUB SLT ISZERO PUSH3 0x11D JUMPI PUSH3 0x11C PUSH3 0x90 JUMP JUMPDEST JUMPDEST PUSH0 PUSH3 0x12C DUP6 DUP3 DUP7 ADD PUSH3 0xB6 JUMP JUMPDEST SWAP3 POP POP PUSH1 0x20 PUSH3 0x13F DUP6 DUP3 DUP7 ADD PUSH3 0xEE JUMP JUMPDEST SWAP2 POP POP SWAP3 POP SWAP3 SWAP1 POP JUMP JUMPDEST PUSH32 0x4E487B7100000000000000000000000000000000000000000000000000000000 PUSH0 MSTORE PUSH1 0x21 PUSH1 0x4 MSTORE PUSH1 0x24 PUSH0 REVERT JUMPDEST PUSH2 0xF8E DUP1 PUSH3 0x184 PUSH0 CODECOPY PUSH0 RETURN INVALID PUSH1 0x80 PUSH1 0x40 MSTORE CALLVALUE DUP1 ISZERO PUSH2 0xF JUMPI PUSH0 DUP1 REVERT JUMPDEST POP PUSH1 0x4 CALLDATASIZE LT PUSH2 0xCD JUMPI PUSH0 CALLDATALOAD PUSH1 0xE0 SHR DUP1 PUSH4 0x65A6BB29 GT PUSH2 0x8A JUMPI DUP1 PUSH4 0xAC3EF22D GT PUSH2 0x64 JUMPI DUP1 PUSH4 0xAC3EF22D EQ PUSH2 0x1EE JUMPI DUP1 PUSH4 0xB74513C1 EQ PUSH2 0x1F8 JUMPI DUP1 PUSH4 0xE5A72D5B EQ PUSH2 0x216 JUMPI DUP1 PUSH4 0xFC68B3ED EQ PUSH2 0x232 JUMPI PUSH2 0xCD JUMP JUMPDEST DUP1 PUSH4 0x65A6BB29 EQ PUSH2 0x194 JUMPI DUP1 PUSH4 0x84731D6F EQ PUSH2 0x1B2 JUMPI DUP1 PUSH4 0x8CEE71E0 EQ PUSH2 0x1D0 JUMPI PUSH2 0xCD JUMP JUMPDEST DUP1 PUSH4 0x2EBCB653 EQ PUSH2 0xD1 JUMPI DUP1 PUSH4 0x3121924D EQ PUSH2 0xEF JUMPI DUP1 PUSH4 0x35254BCD EQ PUSH2 0x10B JUMPI DUP1 PUSH4 0x38FCBC01 EQ PUSH2 0x115 JUMPI DUP1 PUSH4 0x42BE8CB5 EQ PUSH2 0x131 JUMPI DUP1 PUSH4 0x499BA0AA EQ PUSH2 0x161 JUMPI JUMPDEST PUSH0 DUP1 REVERT JUMPDEST PUSH2 0xD9 PUSH2 0x24E JUMP JUMPDEST PUSH1 0x40 MLOAD PUSH2 0xE6 SWAP2 SWAP1 PUSH2 0x792 JUMP JUMPDEST PUSH1 0x40 MLOAD DUP1 SWAP2 SUB SWAP1 RETURN JUMPDEST PUSH2 0x109 PUSH1 0x4 DUP1 CALLDATASIZE SUB DUP2 ADD SWAP1 PUSH2 0x104 SWAP2 SWAP1 PUSH2 0x922 JUMP JUMPDEST PUSH2 0x256 JUMP JUMPDEST STOP JUMPDEST PUSH2 0x113 PUSH2 0x2D2 JUMP JUMPDEST STOP JUMPDEST PUSH2 0x12F PUSH1 0x4 DUP1 CALLDATASIZE SUB DUP2 ADD SWAP1 PUSH2 0x12A SWAP2 SWAP1 PUSH2 0x9B1 JUMP JUMPDEST PUSH2 0x2EE JUMP JUMPDEST STOP JUMPDEST PUSH2 0x14B PUSH1 0x4 DUP1 CALLDATASIZE SUB DUP2 ADD SWAP1 PUSH2 0x146 SWAP2 SWAP1 PUSH2 0xA01 JUMP JUMPDEST PUSH2 0x3AF JUMP JUMPDEST PUSH1 0x40 MLOAD PUSH2 0x158 SWAP2 SWAP1 PUSH2 0x792 JUMP JUMPDEST PUSH1 0x40 MLOAD DUP1 SWAP2 SUB SWAP1 RETURN JUMPDEST PUSH2 0x17B PUSH1 0x4 DUP1 CALLDATASIZE SUB DUP2 ADD SWAP1 PUSH2 0x176 SWAP2 SWAP1 PUSH2 0xA01 JUMP JUMPDEST PUSH2 0x3D4 JUMP JUMPDEST PUSH1 0x40 MLOAD PUSH2 0x18B SWAP5 SWAP4 SWAP3 SWAP2 SWAP1 PUSH2 0xAB5 JUMP JUMPDEST PUSH1 0x40 MLOAD DUP1 SWAP2 SUB SWAP1 RETURN JUMPDEST PUSH2 0x19C PUSH2 0x4AE JUMP JUMPDEST PUSH1 0x40 MLOAD PUSH2 0x1A9 SWAP2 SWAP1 PUSH2 0xBB6 JUMP JUMPDEST PUSH1 0x40 MLOAD DUP1 SWAP2 SUB SWAP1 RETURN JUMPDEST PUSH2 0x1BA PUSH2 0x563 JUMP JUMPDEST PUSH1 0x40 MLOAD PUSH2 0x1C7 SWAP2 SWAP1 PUSH2 0xC49 JUMP JUMPDEST PUSH1 0x40 MLOAD DUP1 SWAP2 SUB SWAP1 RETURN JUMPDEST PUSH2 0x1D8 PUSH2 0x575 JUMP JUMPDEST PUSH1 0x40 MLOAD PUSH2 0x1E5 SWAP2 SWAP1 PUSH2 0x792 JUMP JUMPDEST PUSH1 0x40 MLOAD DUP1 SWAP2 SUB SWAP1 RETURN JUMPDEST PUSH2 0x1F6 PUSH2 0x57A JUMP JUMPDEST STOP JUMPDEST PUSH2 0x200 PUSH2 0x5A5 JUMP JUMPDEST PUSH1 0x40 MLOAD PUSH2 0x20D SWAP2 SWAP1 PUSH2 0xBB6 JUMP JUMPDEST PUSH1 0x40 MLOAD DUP1 SWAP2 SUB SWAP1 RETURN JUMPDEST PUSH2 0x230 PUSH1 0x4 DUP1 CALLDATASIZE SUB DUP2 ADD SWAP1 PUSH2 0x22B SWAP2 SWAP1 PUSH2 0xA01 JUMP JUMPDEST PUSH2 0x65E JUMP JUMPDEST STOP JUMPDEST PUSH2 0x24C PUSH1 0x4 DUP1 CALLDATASIZE SUB DUP2 ADD SWAP1 PUSH2 0x247 SWAP2 SWAP1 PUSH2 0xA01 JUMP JUMPDEST PUSH2 0x6A2 JUMP JUMPDEST STOP JUMPDEST PUSH0 DUP1 SLOAD SWAP1 POP SWAP1 JUMP JUMPDEST PUSH0 JUMPDEST PUSH1 0x2 DUP1 SLOAD SWAP1 POP DUP2 LT ISZERO PUSH2 0x2CD JUMPI DUP3 PUSH1 0x2 DUP3 DUP2 SLOAD DUP2 LT PUSH2 0x27A JUMPI PUSH2 0x279 PUSH2 0xC62 JUMP JUMPDEST JUMPDEST SWAP1 PUSH0 MSTORE PUSH1 0x20 PUSH0 KECCAK256 SWAP1 PUSH1 0x3 MUL ADD PUSH0 ADD SLOAD SUB PUSH2 0x2C0 JUMPI DUP2 PUSH1 0x2 DUP3 DUP2 SLOAD DUP2 LT PUSH2 0x2A3 JUMPI PUSH2 0x2A2 PUSH2 0xC62 JUMP JUMPDEST JUMPDEST SWAP1 PUSH0 MSTORE PUSH1 0x20 PUSH0 KECCAK256 SWAP1 PUSH1 0x3 MUL ADD PUSH1 0x1 ADD SWAP1 DUP2 PUSH2 0x2BE SWAP2 SWAP1 PUSH2 0xE89 JUMP JUMPDEST POP JUMPDEST DUP1 DUP1 PUSH1 0x1 ADD SWAP2 POP POP PUSH2 0x258 JUMP JUMPDEST POP POP POP JUMP JUMPDEST PUSH1 0x1 PUSH1 0x5 PUSH0 PUSH2 0x100 EXP DUP2 SLOAD DUP2 PUSH1 0xFF MUL NOT AND SWAP1 DUP4 ISZERO ISZERO MUL OR SWAP1 SSTORE POP JUMP JUMPDEST PUSH0 JUMPDEST PUSH1 0x2 DUP1 SLOAD SWAP1 POP DUP2 LT ISZERO PUSH2 0x3A9 JUMPI DUP4 PUSH1 0x2 DUP3 DUP2 SLOAD DUP2 LT PUSH2 0x312 JUMPI PUSH2 0x311 PUSH2 0xC62 JUMP JUMPDEST JUMPDEST SWAP1 PUSH0 MSTORE PUSH1 0x20 PUSH0 KECCAK256 SWAP1 PUSH1 0x3 MUL ADD PUSH0 ADD SLOAD SUB PUSH2 0x39C JUMPI DUP3 PUSH1 0x2 DUP3 DUP2 SLOAD DUP2 LT PUSH2 0x33B JUMPI PUSH2 0x33A PUSH2 0xC62 JUMP JUMPDEST JUMPDEST SWAP1 PUSH0 MSTORE PUSH1 0x20 PUSH0 KECCAK256 SWAP1 PUSH1 0x3 MUL ADD PUSH1 0x2 ADD PUSH0 PUSH2 0x100 EXP DUP2 SLOAD DUP2 PUSH1 0xFF MUL NOT AND SWAP1 DUP4 ISZERO ISZERO MUL OR SWAP1 SSTORE POP DUP2 PUSH1 0x2 DUP3 DUP2 SLOAD DUP2 LT PUSH2 0x375 JUMPI PUSH2 0x374 PUSH2 0xC62 JUMP JUMPDEST JUMPDEST SWAP1 PUSH0 MSTORE PUSH1 0x20 PUSH0 KECCAK256 SWAP1 PUSH1 0x3 MUL ADD PUSH1 0x2 ADD PUSH1 0x1 PUSH2 0x100 EXP DUP2 SLOAD DUP2 PUSH1 0xFF MUL NOT AND SWAP1 DUP4 ISZERO ISZERO MUL OR SWAP1 SSTORE POP JUMPDEST DUP1 DUP1 PUSH1 0x1 ADD SWAP2 POP POP PUSH2 0x2F0 JUMP JUMPDEST POP POP POP POP JUMP JUMPDEST PUSH1 0x3 DUP2 DUP2 SLOAD DUP2 LT PUSH2 0x3BE JUMPI PUSH0 DUP1 REVERT JUMPDEST SWAP1 PUSH0 MSTORE PUSH1 0x20 PUSH0 KECCAK256 ADD PUSH0 SWAP2 POP SWAP1 POP DUP1 PUSH0 ADD SLOAD SWAP1 POP DUP2 JUMP JUMPDEST PUSH1 0x2 DUP2 DUP2 SLOAD DUP2 LT PUSH2 0x3E3 JUMPI PUSH0 DUP1 REVERT JUMPDEST SWAP1 PUSH0 MSTORE PUSH1 0x20 PUSH0 KECCAK256 SWAP1 PUSH1 0x3 MUL ADD PUSH0 SWAP2 POP SWAP1 POP DUP1 PUSH0 ADD SLOAD SWAP1 DUP1 PUSH1 0x1 ADD DUP1 SLOAD PUSH2 0x408 SWAP1 PUSH2 0xCBC JUMP JUMPDEST DUP1 PUSH1 0x1F ADD PUSH1 0x20 DUP1 SWAP2 DIV MUL PUSH1 0x20 ADD PUSH1 0x40 MLOAD SWAP1 DUP2 ADD PUSH1 0x40 MSTORE DUP1 SWAP3 SWAP2 SWAP1 DUP2 DUP2 MSTORE PUSH1 0x20 ADD DUP3 DUP1 SLOAD PUSH2 0x434 SWAP1 PUSH2 0xCBC JUMP JUMPDEST DUP1 ISZERO PUSH2 0x47F JUMPI DUP1 PUSH1 0x1F LT PUSH2 0x456 JUMPI PUSH2 0x100 DUP1 DUP4 SLOAD DIV MUL DUP4 MSTORE SWAP2 PUSH1 0x20 ADD SWAP2 PUSH2 0x47F JUMP JUMPDEST DUP3 ADD SWAP2 SWAP1 PUSH0 MSTORE PUSH1 0x20 PUSH0 KECCAK256 SWAP1 JUMPDEST DUP2 SLOAD DUP2 MSTORE SWAP1 PUSH1 0x1 ADD SWAP1 PUSH1 0x20 ADD DUP1 DUP4 GT PUSH2 0x462 JUMPI DUP3 SWAP1 SUB PUSH1 0x1F AND DUP3 ADD SWAP2 JUMPDEST POP POP POP POP POP SWAP1 DUP1 PUSH1 0x2 ADD PUSH0 SWAP1 SLOAD SWAP1 PUSH2 0x100 EXP SWAP1 DIV PUSH1 0xFF AND SWAP1 DUP1 PUSH1 0x2 ADD PUSH1 0x1 SWAP1 SLOAD SWAP1 PUSH2 0x100 EXP SWAP1 DIV PUSH1 0xFF AND SWAP1 POP DUP5 JUMP JUMPDEST PUSH1 0x60 PUSH0 PUSH1 0x3 DUP1 SLOAD SWAP1 POP PUSH8 0xFFFFFFFFFFFFFFFF DUP2 GT ISZERO PUSH2 0x4D0 JUMPI PUSH2 0x4CF PUSH2 0x7FE JUMP JUMPDEST JUMPDEST PUSH1 0x40 MLOAD SWAP1 DUP1 DUP3 MSTORE DUP1 PUSH1 0x20 MUL PUSH1 0x20 ADD DUP3 ADD PUSH1 0x40 MSTORE DUP1 ISZERO PUSH2 0x4FE JUMPI DUP2 PUSH1 0x20 ADD PUSH1 0x20 DUP3 MUL DUP1 CALLDATASIZE DUP4 CALLDATACOPY DUP1 DUP3 ADD SWAP2 POP POP SWAP1 POP JUMPDEST POP SWAP1 POP PUSH0 JUMPDEST PUSH1 0x3 DUP1 SLOAD SWAP1 POP DUP2 LT ISZERO PUSH2 0x55B JUMPI PUSH1 0x3 DUP2 DUP2 SLOAD DUP2 LT PUSH2 0x524 JUMPI PUSH2 0x523 PUSH2 0xC62 JUMP JUMPDEST JUMPDEST SWAP1 PUSH0 MSTORE PUSH1 0x20 PUSH0 KECCAK256 ADD PUSH0 ADD SLOAD DUP3 DUP3 DUP2 MLOAD DUP2 LT PUSH2 0x542 JUMPI PUSH2 0x541 PUSH2 0xC62 JUMP JUMPDEST JUMPDEST PUSH1 0x20 MUL PUSH1 0x20 ADD ADD DUP2 DUP2 MSTORE POP POP DUP1 DUP1 PUSH1 0x1 ADD SWAP2 POP POP PUSH2 0x503 JUMP JUMPDEST POP DUP1 SWAP2 POP POP SWAP1 JUMP JUMPDEST PUSH1 0x1 PUSH0 SWAP1 SLOAD SWAP1 PUSH2 0x100 EXP SWAP1 DIV PUSH1 0xFF AND DUP2 JUMP JUMPDEST PUSH0 SLOAD DUP2 JUMP JUMPDEST PUSH0 PUSH1 0x1 PUSH0 PUSH2 0x100 EXP DUP2 SLOAD DUP2 PUSH1 0xFF MUL NOT AND SWAP1 DUP4 PUSH1 0x1 DUP2 GT ISZERO PUSH2 0x59E JUMPI PUSH2 0x59D PUSH2 0xBD6 JUMP JUMPDEST JUMPDEST MUL OR SWAP1 SSTORE POP JUMP JUMPDEST PUSH1 0x60 PUSH0 PUSH1 0x2 DUP1 SLOAD SWAP1 POP PUSH8 0xFFFFFFFFFFFFFFFF DUP2 GT ISZERO PUSH2 0x5C7 JUMPI PUSH2 0x5C6 PUSH2 0x7FE JUMP JUMPDEST JUMPDEST PUSH1 0x40 MLOAD SWAP1 DUP1 DUP3 MSTORE DUP1 PUSH1 0x20 MUL PUSH1 0x20 ADD DUP3 ADD PUSH1 0x40 MSTORE DUP1 ISZERO PUSH2 0x5F5 JUMPI DUP2 PUSH1 0x20 ADD PUSH1 0x20 DUP3 MUL DUP1 CALLDATASIZE DUP4 CALLDATACOPY DUP1 DUP3 ADD SWAP2 POP POP SWAP1 POP JUMPDEST POP SWAP1 POP PUSH0 JUMPDEST PUSH1 0x2 DUP1 SLOAD SWAP1 POP DUP2 LT ISZERO PUSH2 0x656 JUMPI PUSH1 0x2 DUP2 DUP2 SLOAD DUP2 LT PUSH2 0x61B JUMPI PUSH2 0x61A PUSH2 0xC62 JUMP JUMPDEST JUMPDEST SWAP1 PUSH0 MSTORE PUSH1 0x20 PUSH0 KECCAK256 SWAP1 PUSH1 0x3 MUL ADD PUSH0 ADD SLOAD DUP3 DUP3 DUP2 MLOAD DUP2 LT PUSH2 0x63D JUMPI PUSH2 0x63C PUSH2 0xC62 JUMP JUMPDEST JUMPDEST PUSH1 0x20 MUL PUSH1 0x20 ADD ADD DUP2 DUP2 MSTORE POP POP DUP1 DUP1 PUSH1 0x1 ADD SWAP2 POP POP PUSH2 0x5FA JUMP JUMPDEST POP DUP1 SWAP2 POP POP SWAP1 JUMP JUMPDEST PUSH2 0x666 PUSH2 0x73F JUMP JUMPDEST DUP2 DUP2 PUSH0 ADD DUP2 DUP2 MSTORE POP POP PUSH1 0x3 DUP2 SWAP1 DUP1 PUSH1 0x1 DUP2 SLOAD ADD DUP1 DUP3 SSTORE DUP1 SWAP2 POP POP PUSH1 0x1 SWAP1 SUB SWAP1 PUSH0 MSTORE PUSH1 0x20 PUSH0 KECCAK256 ADD PUSH0 SWAP1 SWAP2 SWAP1 SWAP2 SWAP1 SWAP2 POP PUSH0 DUP3 ADD MLOAD DUP2 PUSH0 ADD SSTORE POP POP POP POP JUMP JUMPDEST PUSH2 0x6AA PUSH2 0x751 JUMP JUMPDEST DUP2 DUP2 PUSH0 ADD DUP2 DUP2 MSTORE POP POP PUSH1 0x2 DUP2 SWAP1 DUP1 PUSH1 0x1 DUP2 SLOAD ADD DUP1 DUP3 SSTORE DUP1 SWAP2 POP POP PUSH1 0x1 SWAP1 SUB SWAP1 PUSH0 MSTORE PUSH1 0x20 PUSH0 KECCAK256 SWAP1 PUSH1 0x3 MUL ADD PUSH0 SWAP1 SWAP2 SWAP1 SWAP2 SWAP1 SWAP2 POP PUSH0 DUP3 ADD MLOAD DUP2 PUSH0 ADD SSTORE PUSH1 0x20 DUP3 ADD MLOAD DUP2 PUSH1 0x1 ADD SWAP1 DUP2 PUSH2 0x6F9 SWAP2 SWAP1 PUSH2 0xE89 JUMP JUMPDEST POP PUSH1 0x40 DUP3 ADD MLOAD DUP2 PUSH1 0x2 ADD PUSH0 PUSH2 0x100 EXP DUP2 SLOAD DUP2 PUSH1 0xFF MUL NOT AND SWAP1 DUP4 ISZERO ISZERO MUL OR SWAP1 SSTORE POP PUSH1 0x60 DUP3 ADD MLOAD DUP2 PUSH1 0x2 ADD PUSH1 0x1 PUSH2 0x100 EXP DUP2 SLOAD DUP2 PUSH1 0xFF MUL NOT AND SWAP1 DUP4 ISZERO ISZERO MUL OR SWAP1 SSTORE POP POP POP POP POP JUMP JUMPDEST PUSH1 0x40 MLOAD DUP1 PUSH1 0x20 ADD PUSH1 0x40 MSTORE DUP1 PUSH0 DUP2 MSTORE POP SWAP1 JUMP JUMPDEST PUSH1 0x40 MLOAD DUP1 PUSH1 0x80 ADD PUSH1 0x40 MSTORE DUP1 PUSH0 DUP2 MSTORE PUSH1 0x20 ADD PUSH1 0x60 DUP2 MSTORE PUSH1 0x20 ADD PUSH0 ISZERO ISZERO DUP2 MSTORE PUSH1 0x20 ADD PUSH0 ISZERO ISZERO DUP2 MSTORE POP SWAP1 JUMP JUMPDEST PUSH0 DUP2 SWAP1 POP SWAP2 SWAP1 POP JUMP JUMPDEST PUSH2 0x78C DUP2 PUSH2 0x77A JUMP JUMPDEST DUP3 MSTORE POP POP JUMP JUMPDEST PUSH0 PUSH1 0x20 DUP3 ADD SWAP1 POP PUSH2 0x7A5 PUSH0 DUP4 ADD DUP5 PUSH2 0x783 JUMP JUMPDEST SWAP3 SWAP2 POP POP JUMP JUMPDEST PUSH0 PUSH1 0x40 MLOAD SWAP1 POP SWAP1 JUMP JUMPDEST PUSH0 DUP1 REVERT JUMPDEST PUSH0 DUP1 REVERT JUMPDEST PUSH2 0x7C5 DUP2 PUSH2 0x77A JUMP JUMPDEST DUP2 EQ PUSH2 0x7CF JUMPI PUSH0 DUP1 REVERT JUMPDEST POP JUMP JUMPDEST PUSH0 DUP2 CALLDATALOAD SWAP1 POP PUSH2 0x7E0 DUP2 PUSH2 0x7BC JUMP JUMPDEST SWAP3 SWAP2 POP POP JUMP JUMPDEST PUSH0 DUP1 REVERT JUMPDEST PUSH0 DUP1 REVERT JUMPDEST PUSH0 PUSH1 0x1F NOT PUSH1 0x1F DUP4 ADD AND SWAP1 POP SWAP2 SWAP1 POP JUMP JUMPDEST PUSH32 0x4E487B7100000000000000000000000000000000000000000000000000000000 PUSH0 MSTORE PUSH1 0x41 PUSH1 0x4 MSTORE PUSH1 0x24 PUSH0 REVERT JUMPDEST PUSH2 0x834 DUP3 PUSH2 0x7EE JUMP JUMPDEST DUP2 ADD DUP2 DUP2 LT PUSH8 0xFFFFFFFFFFFFFFFF DUP3 GT OR ISZERO PUSH2 0x853 JUMPI PUSH2 0x852 PUSH2 0x7FE JUMP JUMPDEST JUMPDEST DUP1 PUSH1 0x40 MSTORE POP POP POP JUMP JUMPDEST PUSH0 PUSH2 0x865 PUSH2 0x7AB JUMP JUMPDEST SWAP1 POP PUSH2 0x871 DUP3 DUP3 PUSH2 0x82B JUMP JUMPDEST SWAP2 SWAP1 POP JUMP JUMPDEST PUSH0 PUSH8 0xFFFFFFFFFFFFFFFF DUP3 GT ISZERO PUSH2 0x890 JUMPI PUSH2 0x88F PUSH2 0x7FE JUMP JUMPDEST JUMPDEST PUSH2 0x899 DUP3 PUSH2 0x7EE JUMP JUMPDEST SWAP1 POP PUSH1 0x20 DUP2 ADD SWAP1 POP SWAP2 SWAP1 POP JUMP JUMPDEST DUP3 DUP2 DUP4 CALLDATACOPY PUSH0 DUP4 DUP4 ADD MSTORE POP POP POP JUMP JUMPDEST PUSH0 PUSH2 0x8C6 PUSH2 0x8C1 DUP5 PUSH2 0x876 JUMP JUMPDEST PUSH2 0x85C JUMP JUMPDEST SWAP1 POP DUP3 DUP2 MSTORE PUSH1 0x20 DUP2 ADD DUP5 DUP5 DUP5 ADD GT ISZERO PUSH2 0x8E2 JUMPI PUSH2 0x8E1 PUSH2 0x7EA JUMP JUMPDEST JUMPDEST PUSH2 0x8ED DUP5 DUP3 DUP6 PUSH2 0x8A6 JUMP JUMPDEST POP SWAP4 SWAP3 POP POP POP JUMP JUMPDEST PUSH0 DUP3 PUSH1 0x1F DUP4 ADD SLT PUSH2 0x909 JUMPI PUSH2 0x908 PUSH2 0x7E6 JUMP JUMPDEST JUMPDEST DUP2 CALLDATALOAD PUSH2 0x919 DUP5 DUP3 PUSH1 0x20 DUP7 ADD PUSH2 0x8B4 JUMP JUMPDEST SWAP2 POP POP SWAP3 SWAP2 POP POP JUMP JUMPDEST PUSH0 DUP1 PUSH1 0x40 DUP4 DUP6 SUB SLT ISZERO PUSH2 0x938 JUMPI PUSH2 0x937 PUSH2 0x7B4 JUMP JUMPDEST JUMPDEST PUSH0 PUSH2 0x945 DUP6 DUP3 DUP7 ADD PUSH2 0x7D2 JUMP JUMPDEST SWAP3 POP POP PUSH1 0x20 DUP4 ADD CALLDATALOAD PUSH8 0xFFFFFFFFFFFFFFFF DUP2 GT ISZERO PUSH2 0x966 JUMPI PUSH2 0x965 PUSH2 0x7B8 JUMP JUMPDEST JUMPDEST PUSH2 0x972 DUP6 DUP3 DUP7 ADD PUSH2 0x8F5 JUMP JUMPDEST SWAP2 POP POP SWAP3 POP SWAP3 SWAP1 POP JUMP JUMPDEST PUSH0 DUP2 ISZERO ISZERO SWAP1 POP SWAP2 SWAP1 POP JUMP JUMPDEST PUSH2 0x990 DUP2 PUSH2 0x97C JUMP JUMPDEST DUP2 EQ PUSH2 0x99A JUMPI PUSH0 DUP1 REVERT JUMPDEST POP JUMP JUMPDEST PUSH0 DUP2 CALLDATALOAD SWAP1 POP PUSH2 0x9AB DUP2 PUSH2 0x987 JUMP JUMPDEST SWAP3 SWAP2 POP POP JUMP JUMPDEST PUSH0 DUP1 PUSH0 PUSH1 0x60 DUP5 DUP7 SUB SLT ISZERO PUSH2 0x9C8 JUMPI PUSH2 0x9C7 PUSH2 0x7B4 JUMP JUMPDEST JUMPDEST PUSH0 PUSH2 0x9D5 DUP7 DUP3 DUP8 ADD PUSH2 0x7D2 JUMP JUMPDEST SWAP4 POP POP PUSH1 0x20 PUSH2 0x9E6 DUP7 DUP3 DUP8 ADD PUSH2 0x99D JUMP JUMPDEST SWAP3 POP POP PUSH1 0x40 PUSH2 0x9F7 DUP7 DUP3 DUP8 ADD PUSH2 0x99D JUMP JUMPDEST SWAP2 POP POP SWAP3 POP SWAP3 POP SWAP3 JUMP JUMPDEST PUSH0 PUSH1 0x20 DUP3 DUP5 SUB SLT ISZERO PUSH2 0xA16 JUMPI PUSH2 0xA15 PUSH2 0x7B4 JUMP JUMPDEST JUMPDEST PUSH0 PUSH2 0xA23 DUP5 DUP3 DUP6 ADD PUSH2 0x7D2 JUMP JUMPDEST SWAP2 POP POP SWAP3 SWAP2 POP POP JUMP JUMPDEST PUSH0 DUP2 MLOAD SWAP1 POP SWAP2 SWAP1 POP JUMP JUMPDEST PUSH0 DUP3 DUP3 MSTORE PUSH1 0x20 DUP3 ADD SWAP1 POP SWAP3 SWAP2 POP POP JUMP JUMPDEST PUSH0 JUMPDEST DUP4 DUP2 LT ISZERO PUSH2 0xA63 JUMPI DUP1 DUP3 ADD MLOAD DUP2 DUP5 ADD MSTORE PUSH1 0x20 DUP2 ADD SWAP1 POP PUSH2 0xA48 JUMP JUMPDEST PUSH0 DUP5 DUP5 ADD MSTORE POP POP POP POP JUMP JUMPDEST PUSH0 PUSH2 0xA78 DUP3 PUSH2 0xA2C JUMP JUMPDEST PUSH2 0xA82 DUP2 DUP6 PUSH2 0xA36 JUMP JUMPDEST SWAP4 POP PUSH2 0xA92 DUP2 DUP6 PUSH1 0x20 DUP7 ADD PUSH2 0xA46 JUMP JUMPDEST PUSH2 0xA9B DUP2 PUSH2 0x7EE JUMP JUMPDEST DUP5 ADD SWAP2 POP POP SWAP3 SWAP2 POP POP JUMP JUMPDEST PUSH2 0xAAF DUP2 PUSH2 0x97C JUMP JUMPDEST DUP3 MSTORE POP POP JUMP JUMPDEST PUSH0 PUSH1 0x80 DUP3 ADD SWAP1 POP PUSH2 0xAC8 PUSH0 DUP4 ADD DUP8 PUSH2 0x783 JUMP JUMPDEST DUP2 DUP2 SUB PUSH1 0x20 DUP4 ADD MSTORE PUSH2 0xADA DUP2 DUP7 PUSH2 0xA6E JUMP JUMPDEST SWAP1 POP PUSH2 0xAE9 PUSH1 0x40 DUP4 ADD DUP6 PUSH2 0xAA6 JUMP JUMPDEST PUSH2 0xAF6 PUSH1 0x60 DUP4 ADD DUP5 PUSH2 0xAA6 JUMP JUMPDEST SWAP6 SWAP5 POP POP POP POP POP JUMP JUMPDEST PUSH0 DUP2 MLOAD SWAP1 POP SWAP2 SWAP1 POP JUMP JUMPDEST PUSH0 DUP3 DUP3 MSTORE PUSH1 0x20 DUP3 ADD SWAP1 POP SWAP3 SWAP2 POP POP JUMP JUMPDEST PUSH0 DUP2 SWAP1 POP PUSH1 0x20 DUP3 ADD SWAP1 POP SWAP2 SWAP1 POP JUMP JUMPDEST PUSH2 0xB31 DUP2 PUSH2 0x77A JUMP JUMPDEST DUP3 MSTORE POP POP JUMP JUMPDEST PUSH0 PUSH2 0xB42 DUP4 DUP4 PUSH2 0xB28 JUMP JUMPDEST PUSH1 0x20 DUP4 ADD SWAP1 POP SWAP3 SWAP2 POP POP JUMP JUMPDEST PUSH0 PUSH1 0x20 DUP3 ADD SWAP1 POP SWAP2 SWAP1 POP JUMP JUMPDEST PUSH0 PUSH2 0xB64 DUP3 PUSH2 0xAFF JUMP JUMPDEST PUSH2 0xB6E DUP2 DUP6 PUSH2 0xB09 JUMP JUMPDEST SWAP4 POP PUSH2 0xB79 DUP4 PUSH2 0xB19 JUMP JUMPDEST DUP1 PUSH0 JUMPDEST DUP4 DUP2 LT ISZERO PUSH2 0xBA9 JUMPI DUP2 MLOAD PUSH2 0xB90 DUP9 DUP3 PUSH2 0xB37 JUMP JUMPDEST SWAP8 POP PUSH2 0xB9B DUP4 PUSH2 0xB4E JUMP JUMPDEST SWAP3 POP POP PUSH1 0x1 DUP2 ADD SWAP1 POP PUSH2 0xB7C JUMP JUMPDEST POP DUP6 SWAP4 POP POP POP POP SWAP3 SWAP2 POP POP JUMP JUMPDEST PUSH0 PUSH1 0x20 DUP3 ADD SWAP1 POP DUP2 DUP2 SUB PUSH0 DUP4 ADD MSTORE PUSH2 0xBCE DUP2 DUP5 PUSH2 0xB5A JUMP JUMPDEST SWAP1 POP SWAP3 SWAP2 POP POP JUMP JUMPDEST PUSH32 0x4E487B7100000000000000000000000000000000000000000000000000000000 PUSH0 MSTORE PUSH1 0x21 PUSH1 0x4 MSTORE PUSH1 0x24 PUSH0 REVERT JUMPDEST PUSH1 0x2 DUP2 LT PUSH2 0xC14 JUMPI PUSH2 0xC13 PUSH2 0xBD6 JUMP JUMPDEST JUMPDEST POP JUMP JUMPDEST PUSH0 DUP2 SWAP1 POP PUSH2 0xC24 DUP3 PUSH2 0xC03 JUMP JUMPDEST SWAP2 SWAP1 POP JUMP JUMPDEST PUSH0 PUSH2 0xC33 DUP3 PUSH2 0xC17 JUMP JUMPDEST SWAP1 POP SWAP2 SWAP1 POP JUMP JUMPDEST PUSH2 0xC43 DUP2 PUSH2 0xC29 JUMP JUMPDEST DUP3 MSTORE POP POP JUMP JUMPDEST PUSH0 PUSH1 0x20 DUP3 ADD SWAP1 POP PUSH2 0xC5C PUSH0 DUP4 ADD DUP5 PUSH2 0xC3A JUMP JUMPDEST SWAP3 SWAP2 POP POP JUMP JUMPDEST PUSH32 0x4E487B7100000000000000000000000000000000000000000000000000000000 PUSH0 MSTORE PUSH1 0x32 PUSH1 0x4 MSTORE PUSH1 0x24 PUSH0 REVERT JUMPDEST PUSH32 0x4E487B7100000000000000000000000000000000000000000000000000000000 PUSH0 MSTORE PUSH1 0x22 PUSH1 0x4 MSTORE PUSH1 0x24 PUSH0 REVERT JUMPDEST PUSH0 PUSH1 0x2 DUP3 DIV SWAP1 POP PUSH1 0x1 DUP3 AND DUP1 PUSH2 0xCD3 JUMPI PUSH1 0x7F DUP3 AND SWAP2 POP JUMPDEST PUSH1 0x20 DUP3 LT DUP2 SUB PUSH2 0xCE6 JUMPI PUSH2 0xCE5 PUSH2 0xC8F JUMP JUMPDEST JUMPDEST POP SWAP2 SWAP1 POP JUMP JUMPDEST PUSH0 DUP2 SWAP1 POP DUP2 PUSH0 MSTORE PUSH1 0x20 PUSH0 KECCAK256 SWAP1 POP SWAP2 SWAP1 POP JUMP JUMPDEST PUSH0 PUSH1 0x20 PUSH1 0x1F DUP4 ADD DIV SWAP1 POP SWAP2 SWAP1 POP JUMP JUMPDEST PUSH0 DUP3 DUP3 SHL SWAP1 POP SWAP3 SWAP2 POP POP JUMP JUMPDEST PUSH0 PUSH1 0x8 DUP4 MUL PUSH2 0xD48 PUSH32 0xFFFFFFFFFFFFFFFFFFFFFFFFFFFFFFFFFFFFFFFFFFFFFFFFFFFFFFFFFFFFFFFF DUP3 PUSH2 0xD0D JUMP JUMPDEST PUSH2 0xD52 DUP7 DUP4 PUSH2 0xD0D JUMP JUMPDEST SWAP6 POP DUP1 NOT DUP5 AND SWAP4 POP DUP1 DUP7 AND DUP5 OR SWAP3 POP POP POP SWAP4 SWAP3 POP POP POP JUMP JUMPDEST PUSH0 DUP2 SWAP1 POP SWAP2 SWAP1 POP JUMP JUMPDEST PUSH0 PUSH2 0xD8D PUSH2 0xD88 PUSH2 0xD83 DUP5 PUSH2 0x77A JUMP JUMPDEST PUSH2 0xD6A JUMP JUMPDEST PUSH2 0x77A JUMP JUMPDEST SWAP1 POP SWAP2 SWAP1 POP JUMP JUMPDEST PUSH0 DUP2 SWAP1 POP SWAP2 SWAP1 POP JUMP JUMPDEST PUSH2 0xDA6 DUP4 PUSH2 0xD73 JUMP JUMPDEST PUSH2 0xDBA PUSH2 0xDB2 DUP3 PUSH2 0xD94 JUMP JUMPDEST DUP5 DUP5 SLOAD PUSH2 0xD19 JUMP JUMPDEST DUP3 SSTORE POP POP POP POP JUMP JUMPDEST PUSH0 SWAP1 JUMP JUMPDEST PUSH2 0xDCE PUSH2 0xDC2 JUMP JUMPDEST PUSH2 0xDD9 DUP2 DUP5 DUP5 PUSH2 0xD9D JUMP JUMPDEST POP POP POP JUMP JUMPDEST JUMPDEST DUP2 DUP2 LT ISZERO PUSH2 0xDFC JUMPI PUSH2 0xDF1 PUSH0 DUP3 PUSH2 0xDC6 JUMP JUMPDEST PUSH1 0x1 DUP2 ADD SWAP1 POP PUSH2 0xDDF JUMP JUMPDEST POP POP JUMP JUMPDEST PUSH1 0x1F DUP3 GT ISZERO PUSH2 0xE41 JUMPI PUSH2 0xE12 DUP2 PUSH2 0xCEC JUMP JUMPDEST PUSH2 0xE1B DUP5 PUSH2 0xCFE JUMP JUMPDEST DUP2 ADD PUSH1 0x20 DUP6 LT ISZERO PUSH2 0xE2A JUMPI DUP2 SWAP1 POP JUMPDEST PUSH2 0xE3E PUSH2 0xE36 DUP6 PUSH2 0xCFE JUMP JUMPDEST DUP4 ADD DUP3 PUSH2 0xDDE JUMP JUMPDEST POP POP JUMPDEST POP POP POP JUMP JUMPDEST PUSH0 DUP3 DUP3 SHR SWAP1 POP SWAP3 SWAP2 POP POP JUMP JUMPDEST PUSH0 PUSH2 0xE61 PUSH0 NOT DUP5 PUSH1 0x8 MUL PUSH2 0xE46 JUMP JUMPDEST NOT DUP1 DUP4 AND SWAP2 POP POP SWAP3 SWAP2 POP POP JUMP JUMPDEST PUSH0 PUSH2 0xE79 DUP4 DUP4 PUSH2 0xE52 JUMP JUMPDEST SWAP2 POP DUP3 PUSH1 0x2 MUL DUP3 OR SWAP1 POP SWAP3 SWAP2 POP POP JUMP JUMPDEST PUSH2 0xE92 DUP3 PUSH2 0xA2C JUMP JUMPDEST PUSH8 0xFFFFFFFFFFFFFFFF DUP2 GT ISZERO PUSH2 0xEAB JUMPI PUSH2 0xEAA PUSH2 0x7FE JUMP JUMPDEST JUMPDEST PUSH2 0xEB5 DUP3 SLOAD PUSH2 0xCBC JUMP JUMPDEST PUSH2 0xEC0 DUP3 DUP3 DUP6 PUSH2 0xE00 JUMP JUMPDEST PUSH0 PUSH1 0x20 SWAP1 POP PUSH1 0x1F DUP4 GT PUSH1 0x1 DUP2 EQ PUSH2 0xEF1 JUMPI PUSH0 DUP5 ISZERO PUSH2 0xEDF JUMPI DUP3 DUP8 ADD MLOAD SWAP1 POP JUMPDEST PUSH2 0xEE9 DUP6 DUP3 PUSH2 0xE6E JUMP JUMPDEST DUP7 SSTORE POP PUSH2 0xF50 JUMP JUMPDEST PUSH1 0x1F NOT DUP5 AND PUSH2 0xEFF DUP7 PUSH2 0xCEC JUMP JUMPDEST PUSH0 JUMPDEST DUP3 DUP2 LT ISZERO PUSH2 0xF26 JUMPI DUP5 DUP10 ADD MLOAD DUP3 SSTORE PUSH1 0x1 DUP3 ADD SWAP2 POP PUSH1 0x20 DUP6 ADD SWAP5 POP PUSH1 0x20 DUP2 ADD SWAP1 POP PUSH2 0xF01 JUMP JUMPDEST DUP7 DUP4 LT ISZERO PUSH2 0xF43 JUMPI DUP5 DUP10 ADD MLOAD PUSH2 0xF3F PUSH1 0x1F DUP10 AND DUP3 PUSH2 0xE52 JUMP JUMPDEST DUP4 SSTORE POP JUMPDEST PUSH1 0x1 PUSH1 0x2 DUP9 MUL ADD DUP9 SSTORE POP POP POP JUMPDEST POP POP POP POP POP POP JUMP INVALID LOG2 PUSH5 0x6970667358 0x22 SLT KECCAK256 0x2A EXTCODEHASH PUSH10 0x19CF6CA988309A3AAC45 0xC1 0xEC SMOD 0xA9 CODECOPY SHR 0xF9 0x2F 0xCA PUSH29 0x76AFADBA90CF4148F264736F6C63430008160033000000000000000000 "
				},
				"gasEstimates": {
					"creation": {
						"codeDepositCost": "796400",
						"executionCost": "infinite",
						"totalCost": "infinite"
					},
					"external": {
						"actual_user_state()": "2599",
						"addOracle(uint256)": "47003",
						"addRecipient(uint256)": "infinite",
						"closeUserContract()": "24454",
						"getAllOracles()": "infinite",
						"getAllRecipients()": "infinite",
						"getUserId()": "2433",
						"id_user()": "2491",
						"oracles_list(uint256)": "infinite",
						"recipients_list(uint256)": "infinite",
						"setRecipientResponse(uint256,bool,bool)": "infinite",
						"setRecipientTimeStamp(uint256,string)": "infinite",
						"setUserStateToDeceased()": "24450"
					}
				},
				"methodIdentifiers": {
					"actual_user_state()": "84731d6f",
					"addOracle(uint256)": "e5a72d5b",
					"addRecipient(uint256)": "fc68b3ed",
					"closeUserContract()": "35254bcd",
					"getAllOracles()": "65a6bb29",
					"getAllRecipients()": "b74513c1",
					"getUserId()": "2ebcb653",
					"id_user()": "8cee71e0",
					"oracles_list(uint256)": "42be8cb5",
					"recipients_list(uint256)": "499ba0aa",
					"setRecipientResponse(uint256,bool,bool)": "38fcbc01",
					"setRecipientTimeStamp(uint256,string)": "3121924d",
					"setUserStateToDeceased()": "ac3ef22d"
				}
			},
			"storageLayout": {
				"storage": [
					{
						"astId": 18,
						"contract": "Lincloud/.deps/contract/contract.sol:user",
						"label": "id_user",
						"offset": 0,
						"slot": "0",
						"type": "t_uint256"
					},
					{
						"astId": 21,
						"contract": "Lincloud/.deps/contract/contract.sol:user",
						"label": "actual_user_state",
						"offset": 0,
						"slot": "1",
						"type": "t_enum(user_state)4"
					},
					{
						"astId": 25,
						"contract": "Lincloud/.deps/contract/contract.sol:user",
						"label": "recipients_list",
						"offset": 0,
						"slot": "2",
						"type": "t_array(t_struct(Recipient)13_storage)dyn_storage"
					},
					{
						"astId": 29,
						"contract": "Lincloud/.deps/contract/contract.sol:user",
						"label": "oracles_list",
						"offset": 0,
						"slot": "3",
						"type": "t_array(t_struct(Oracle)16_storage)dyn_storage"
					},
					{
						"astId": 31,
						"contract": "Lincloud/.deps/contract/contract.sol:user",
						"label": "contractHash",
						"offset": 0,
						"slot": "4",
						"type": "t_bytes32"
					},
					{
						"astId": 33,
						"contract": "Lincloud/.deps/contract/contract.sol:user",
						"label": "isContractClosed",
						"offset": 0,
						"slot": "5",
						"type": "t_bool"
					}
				],
				"types": {
					"t_array(t_struct(Oracle)16_storage)dyn_storage": {
						"base": "t_struct(Oracle)16_storage",
						"encoding": "dynamic_array",
						"label": "struct user.Oracle[]",
						"numberOfBytes": "32"
					},
					"t_array(t_struct(Recipient)13_storage)dyn_storage": {
						"base": "t_struct(Recipient)13_storage",
						"encoding": "dynamic_array",
						"label": "struct user.Recipient[]",
						"numberOfBytes": "32"
					},
					"t_bool": {
						"encoding": "inplace",
						"label": "bool",
						"numberOfBytes": "1"
					},
					"t_bytes32": {
						"encoding": "inplace",
						"label": "bytes32",
						"numberOfBytes": "32"
					},
					"t_enum(user_state)4": {
						"encoding": "inplace",
						"label": "enum user.user_state",
						"numberOfBytes": "1"
					},
					"t_string_storage": {
						"encoding": "bytes",
						"label": "string",
						"numberOfBytes": "32"
					},
					"t_struct(Oracle)16_storage": {
						"encoding": "inplace",
						"label": "struct user.Oracle",
						"members": [
							{
								"astId": 15,
								"contract": "Lincloud/.deps/contract/contract.sol:user",
								"label": "id_oracle",
								"offset": 0,
								"slot": "0",
								"type": "t_uint256"
							}
						],
						"numberOfBytes": "32"
					},
					"t_struct(Recipient)13_storage": {
						"encoding": "inplace",
						"label": "struct user.Recipient",
						"members": [
							{
								"astId": 6,
								"contract": "Lincloud/.deps/contract/contract.sol:user",
								"label": "id_recipient",
								"offset": 0,
								"slot": "0",
								"type": "t_uint256"
							},
							{
								"astId": 8,
								"contract": "Lincloud/.deps/contract/contract.sol:user",
								"label": "timestamp",
								"offset": 0,
								"slot": "1",
								"type": "t_string_storage"
							},
							{
								"astId": 10,
								"contract": "Lincloud/.deps/contract/contract.sol:user",
								"label": "response",
								"offset": 0,
								"slot": "2",
								"type": "t_bool"
							},
							{
								"astId": 12,
								"contract": "Lincloud/.deps/contract/contract.sol:user",
								"label": "isTimeExpired",
								"offset": 1,
								"slot": "2",
								"type": "t_bool"
							}
						],
						"numberOfBytes": "96"
					},
					"t_uint256": {
						"encoding": "inplace",
						"label": "uint256",
						"numberOfBytes": "32"
					}
				}
			},
			"userdoc": {
				"kind": "user",
				"methods": {},
				"version": 1
			}
		}
	}
}