{
	"Lincloud/.deps/contract/contract.sol": {
		"lincloud_contract": {
			"abi": [
				{
					"inputs": [
						{
							"internalType": "uint256",
							"name": "userId",
							"type": "uint256"
						},
						{
							"internalType": "uint256",
							"name": "oracleId",
							"type": "uint256"
						}
					],
					"name": "addNewOracle",
					"outputs": [],
					"stateMutability": "nonpayable",
					"type": "function"
				},
				{
					"inputs": [
						{
							"internalType": "uint256",
							"name": "userId",
							"type": "uint256"
						},
						{
							"internalType": "uint256",
							"name": "recipientId",
							"type": "uint256"
						}
					],
					"name": "addNewRecipient",
					"outputs": [],
					"stateMutability": "nonpayable",
					"type": "function"
				},
				{
					"inputs": [
						{
							"internalType": "uint256",
							"name": "userId",
							"type": "uint256"
						}
					],
					"name": "closeUserContractNotify",
					"outputs": [],
					"stateMutability": "nonpayable",
					"type": "function"
				},
				{
					"inputs": [
						{
							"internalType": "uint256",
							"name": "userId",
							"type": "uint256"
						},
						{
							"internalType": "bytes32",
							"name": "contractHash",
							"type": "bytes32"
						}
					],
					"name": "createNewUserContract",
					"outputs": [],
					"stateMutability": "nonpayable",
					"type": "function"
				},
				{
					"inputs": [
						{
							"internalType": "uint256",
							"name": "userId",
							"type": "uint256"
						}
					],
					"name": "getAllOracles",
					"outputs": [
						{
							"internalType": "uint256[]",
							"name": "",
							"type": "uint256[]"
						}
					],
					"stateMutability": "view",
					"type": "function"
				},
				{
					"inputs": [
						{
							"internalType": "uint256",
							"name": "userId",
							"type": "uint256"
						}
					],
					"name": "getAllRecipients",
					"outputs": [
						{
							"internalType": "uint256[]",
							"name": "",
							"type": "uint256[]"
						}
					],
					"stateMutability": "view",
					"type": "function"
				},
				{
					"inputs": [],
					"name": "getAllUsers",
					"outputs": [
						{
							"internalType": "uint256[]",
							"name": "",
							"type": "uint256[]"
						}
					],
					"stateMutability": "view",
					"type": "function"
				},
				{
					"inputs": [
						{
							"internalType": "uint256",
							"name": "userId",
							"type": "uint256"
						},
						{
							"internalType": "uint256",
							"name": "recipientId",
							"type": "uint256"
						},
						{
							"internalType": "bool",
							"name": "response",
							"type": "bool"
						},
						{
							"internalType": "bool",
							"name": "isTimeExpired",
							"type": "bool"
						}
					],
					"name": "recipientResponse",
					"outputs": [],
					"stateMutability": "nonpayable",
					"type": "function"
				},
				{
					"inputs": [
						{
							"internalType": "uint256",
							"name": "userId",
							"type": "uint256"
						},
						{
							"internalType": "uint256",
							"name": "recipientId",
							"type": "uint256"
						},
						{
							"internalType": "string",
							"name": "timestamp",
							"type": "string"
						}
					],
					"name": "updateTimestamp",
					"outputs": [],
					"stateMutability": "nonpayable",
					"type": "function"
				},
				{
					"inputs": [
						{
							"internalType": "uint256",
							"name": "userId",
							"type": "uint256"
						}
					],
					"name": "userDeathNotify",
					"outputs": [],
					"stateMutability": "nonpayable",
					"type": "function"
				},
				{
					"inputs": [
						{
							"internalType": "uint256",
							"name": "",
							"type": "uint256"
						}
					],
					"name": "users_list",
					"outputs": [
						{
							"internalType": "contract user",
							"name": "",
							"type": "address"
						}
					],
					"stateMutability": "view",
					"type": "function"
				}
			],
			"devdoc": {
				"kind": "dev",
				"methods": {},
				"version": 1
			},
			"evm": {
				"assembly": "    /* \"Lincloud/.deps/contract/contract.sol\":2956:7058  contract lincloud_contract{... */\n  mstore(0x40, 0x80)\n  callvalue\n  dup1\n  iszero\n  tag_1\n  jumpi\n  0x00\n  dup1\n  revert\ntag_1:\n  pop\n  dataSize(sub_0)\n  dup1\n  dataOffset(sub_0)\n  0x00\n  codecopy\n  0x00\n  return\nstop\n\nsub_0: assembly {\n        /* \"Lincloud/.deps/contract/contract.sol\":2956:7058  contract lincloud_contract{... */\n      mstore(0x40, 0x80)\n      callvalue\n      dup1\n      iszero\n      tag_1\n      jumpi\n      0x00\n      dup1\n      revert\n    tag_1:\n      pop\n      jumpi(tag_2, lt(calldatasize, 0x04))\n      shr(0xe0, calldataload(0x00))\n      dup1\n      0xa32da9d1\n      gt\n      tag_14\n      jumpi\n      dup1\n      0xa32da9d1\n      eq\n      tag_8\n      jumpi\n      dup1\n      0xd43b8fab\n      eq\n      tag_9\n      jumpi\n      dup1\n      0xd773f772\n      eq\n      tag_10\n      jumpi\n      dup1\n      0xe2842d79\n      eq\n      tag_11\n      jumpi\n      dup1\n      0xeb9cbe7a\n      eq\n      tag_12\n      jumpi\n      dup1\n      0xfcd6704c\n      eq\n      tag_13\n      jumpi\n      jump(tag_2)\n    tag_14:\n      dup1\n      0x1440a7f2\n      eq\n      tag_3\n      jumpi\n      dup1\n      0x2661317e\n      eq\n      tag_4\n      jumpi\n      dup1\n      0x947fd5c3\n      eq\n      tag_5\n      jumpi\n      dup1\n      0x990b4ec5\n      eq\n      tag_6\n      jumpi\n      dup1\n      0x9efb6289\n      eq\n      tag_7\n      jumpi\n    tag_2:\n      0x00\n      dup1\n      revert\n        /* \"Lincloud/.deps/contract/contract.sol\":3414:3749  function addNewRecipient(uint256 userId, uint256 recipientId) public {... */\n    tag_3:\n      tag_15\n      0x04\n      dup1\n      calldatasize\n      sub\n      dup2\n      add\n      swap1\n      tag_16\n      swap2\n      swap1\n      tag_17\n      jump\t// in\n    tag_16:\n      tag_18\n      jump\t// in\n    tag_15:\n      stop\n        /* \"Lincloud/.deps/contract/contract.sol\":3757:4080  function addNewOracle(uint256 userId, uint256 oracleId) public {... */\n    tag_4:\n      tag_19\n      0x04\n      dup1\n      calldatasize\n      sub\n      dup2\n      add\n      swap1\n      tag_20\n      swap2\n      swap1\n      tag_17\n      jump\t// in\n    tag_20:\n      tag_21\n      jump\t// in\n    tag_19:\n      stop\n        /* \"Lincloud/.deps/contract/contract.sol\":4088:4400  function userDeathNotify(uint256 userId) public{... */\n    tag_5:\n      tag_22\n      0x04\n      dup1\n      calldatasize\n      sub\n      dup2\n      add\n      swap1\n      tag_23\n      swap2\n      swap1\n      tag_24\n      jump\t// in\n    tag_23:\n      tag_25\n      jump\t// in\n    tag_22:\n      stop\n        /* \"Lincloud/.deps/contract/contract.sol\":4408:4787  function updateTimestamp(uint256 userId, uint256 recipientId, string memory timestamp) public{... */\n    tag_6:\n      tag_26\n      0x04\n      dup1\n      calldatasize\n      sub\n      dup2\n      add\n      swap1\n      tag_27\n      swap2\n      swap1\n      tag_28\n      jump\t// in\n    tag_27:\n      tag_29\n      jump\t// in\n    tag_26:\n      stop\n        /* \"Lincloud/.deps/contract/contract.sol\":6606:7053  function getAllOracles(uint256 userId) public view returns (uint256[] memory){... */\n    tag_7:\n      tag_30\n      0x04\n      dup1\n      calldatasize\n      sub\n      dup2\n      add\n      swap1\n      tag_31\n      swap2\n      swap1\n      tag_24\n      jump\t// in\n    tag_31:\n      tag_32\n      jump\t// in\n    tag_30:\n      mload(0x40)\n      tag_33\n      swap2\n      swap1\n      tag_34\n      jump\t// in\n    tag_33:\n      mload(0x40)\n      dup1\n      swap2\n      sub\n      swap1\n      return\n        /* \"Lincloud/.deps/contract/contract.sol\":3030:3054  user[] public users_list */\n    tag_8:\n      tag_35\n      0x04\n      dup1\n      calldatasize\n      sub\n      dup2\n      add\n      swap1\n      tag_36\n      swap2\n      swap1\n      tag_24\n      jump\t// in\n    tag_36:\n      tag_37\n      jump\t// in\n    tag_35:\n      mload(0x40)\n      tag_38\n      swap2\n      swap1\n      tag_39\n      jump\t// in\n    tag_38:\n      mload(0x40)\n      dup1\n      swap2\n      sub\n      swap1\n      return\n        /* \"Lincloud/.deps/contract/contract.sol\":4795:5200  function recipientResponse(uint256 userId, uint256 recipientId, bool response, bool isTimeExpired) public {... */\n    tag_9:\n      tag_40\n      0x04\n      dup1\n      calldatasize\n      sub\n      dup2\n      add\n      swap1\n      tag_41\n      swap2\n      swap1\n      tag_42\n      jump\t// in\n    tag_41:\n      tag_43\n      jump\t// in\n    tag_40:\n      stop\n        /* \"Lincloud/.deps/contract/contract.sol\":3063:3406  function createNewUserContract(uint256 userId, bytes32 contractHash) public {  // Crea un nuovo utente e aggiungilo alla lista degli utenti... */\n    tag_10:\n      tag_44\n      0x04\n      dup1\n      calldatasize\n      sub\n      dup2\n      add\n      swap1\n      tag_45\n      swap2\n      swap1\n      tag_46\n      jump\t// in\n    tag_45:\n      tag_47\n      jump\t// in\n    tag_44:\n      stop\n        /* \"Lincloud/.deps/contract/contract.sol\":5836:6124  function getAllUsers() public view returns (uint256[] memory) {... */\n    tag_11:\n      tag_48\n      tag_49\n      jump\t// in\n    tag_48:\n      mload(0x40)\n      tag_50\n      swap2\n      swap1\n      tag_34\n      jump\t// in\n    tag_50:\n      mload(0x40)\n      dup1\n      swap2\n      sub\n      swap1\n      return\n        /* \"Lincloud/.deps/contract/contract.sol\":5208:5524  function closeUserContractNotify(uint256 userId) public {... */\n    tag_12:\n      tag_51\n      0x04\n      dup1\n      calldatasize\n      sub\n      dup2\n      add\n      swap1\n      tag_52\n      swap2\n      swap1\n      tag_24\n      jump\t// in\n    tag_52:\n      tag_53\n      jump\t// in\n    tag_51:\n      stop\n        /* \"Lincloud/.deps/contract/contract.sol\":6132:6594  function getAllRecipients(uint256 userId) public view returns (uint256[] memory){... */\n    tag_13:\n      tag_54\n      0x04\n      dup1\n      calldatasize\n      sub\n      dup2\n      add\n      swap1\n      tag_55\n      swap2\n      swap1\n      tag_24\n      jump\t// in\n    tag_55:\n      tag_56\n      jump\t// in\n    tag_54:\n      mload(0x40)\n      tag_57\n      swap2\n      swap1\n      tag_34\n      jump\t// in\n    tag_57:\n      mload(0x40)\n      dup1\n      swap2\n      sub\n      swap1\n      return\n        /* \"Lincloud/.deps/contract/contract.sol\":3414:3749  function addNewRecipient(uint256 userId, uint256 recipientId) public {... */\n    tag_18:\n        /* \"Lincloud/.deps/contract/contract.sol\":3502:3521  isUserExist(userId) */\n      tag_59\n        /* \"Lincloud/.deps/contract/contract.sol\":3514:3520  userId */\n      dup3\n        /* \"Lincloud/.deps/contract/contract.sol\":3502:3513  isUserExist */\n      tag_60\n        /* \"Lincloud/.deps/contract/contract.sol\":3502:3521  isUserExist(userId) */\n      jump\t// in\n    tag_59:\n        /* \"Lincloud/.deps/contract/contract.sol\":3494:3544  require(isUserExist(userId), \"Utente non trovato\") */\n      tag_61\n      jumpi\n      mload(0x40)\n      0x08c379a000000000000000000000000000000000000000000000000000000000\n      dup2\n      mstore\n      0x04\n      add\n      tag_62\n      swap1\n      tag_63\n      jump\t// in\n    tag_62:\n      mload(0x40)\n      dup1\n      swap2\n      sub\n      swap1\n      revert\n    tag_61:\n        /* \"Lincloud/.deps/contract/contract.sol\":3560:3569  uint256 i */\n      0x00\n        /* \"Lincloud/.deps/contract/contract.sol\":3555:3742  for (uint256 i = 0; i < users_list.length; i++) {... */\n    tag_64:\n        /* \"Lincloud/.deps/contract/contract.sol\":3579:3589  users_list */\n      0x00\n        /* \"Lincloud/.deps/contract/contract.sol\":3579:3596  users_list.length */\n      dup1\n      sload\n      swap1\n      pop\n        /* \"Lincloud/.deps/contract/contract.sol\":3575:3576  i */\n      dup2\n        /* \"Lincloud/.deps/contract/contract.sol\":3575:3596  i < users_list.length */\n      lt\n        /* \"Lincloud/.deps/contract/contract.sol\":3555:3742  for (uint256 i = 0; i < users_list.length; i++) {... */\n      iszero\n      tag_65\n      jumpi\n        /* \"Lincloud/.deps/contract/contract.sol\":3649:3655  userId */\n      dup3\n        /* \"Lincloud/.deps/contract/contract.sol\":3622:3632  users_list */\n      0x00\n        /* \"Lincloud/.deps/contract/contract.sol\":3633:3634  i */\n      dup3\n        /* \"Lincloud/.deps/contract/contract.sol\":3622:3635  users_list[i] */\n      dup2\n      sload\n      dup2\n      lt\n      tag_67\n      jumpi\n      tag_68\n      tag_69\n      jump\t// in\n    tag_68:\n    tag_67:\n      swap1\n      0x00\n      mstore\n      keccak256(0x00, 0x20)\n      add\n      0x00\n      swap1\n      sload\n      swap1\n      0x0100\n      exp\n      swap1\n      div\n      0xffffffffffffffffffffffffffffffffffffffff\n      and\n        /* \"Lincloud/.deps/contract/contract.sol\":3622:3643  users_list[i].id_user */\n      0xffffffffffffffffffffffffffffffffffffffff\n      and\n      0x8cee71e0\n        /* \"Lincloud/.deps/contract/contract.sol\":3622:3645  users_list[i].id_user() */\n      mload(0x40)\n      dup2\n      0xffffffff\n      and\n      0xe0\n      shl\n      dup2\n      mstore\n      0x04\n      add\n      0x20\n      mload(0x40)\n      dup1\n      dup4\n      sub\n      dup2\n      dup7\n      gas\n      staticcall\n      iszero\n      dup1\n      iszero\n      tag_72\n      jumpi\n      returndatasize\n      0x00\n      dup1\n      returndatacopy\n      revert(0x00, returndatasize)\n    tag_72:\n      pop\n      pop\n      pop\n      pop\n      mload(0x40)\n      returndatasize\n      not(0x1f)\n      0x1f\n      dup3\n      add\n      and\n      dup3\n      add\n      dup1\n      0x40\n      mstore\n      pop\n      dup2\n      add\n      swap1\n      tag_73\n      swap2\n      swap1\n      tag_74\n      jump\t// in\n    tag_73:\n        /* \"Lincloud/.deps/contract/contract.sol\":3622:3655  users_list[i].id_user() == userId */\n      sub\n        /* \"Lincloud/.deps/contract/contract.sol\":3618:3731  if (users_list[i].id_user() == userId) {... */\n      tag_75\n      jumpi\n        /* \"Lincloud/.deps/contract/contract.sol\":3676:3686  users_list */\n      0x00\n        /* \"Lincloud/.deps/contract/contract.sol\":3687:3688  i */\n      dup2\n        /* \"Lincloud/.deps/contract/contract.sol\":3676:3689  users_list[i] */\n      dup2\n      sload\n      dup2\n      lt\n      tag_76\n      jumpi\n      tag_77\n      tag_69\n      jump\t// in\n    tag_77:\n    tag_76:\n      swap1\n      0x00\n      mstore\n      keccak256(0x00, 0x20)\n      add\n      0x00\n      swap1\n      sload\n      swap1\n      0x0100\n      exp\n      swap1\n      div\n      0xffffffffffffffffffffffffffffffffffffffff\n      and\n        /* \"Lincloud/.deps/contract/contract.sol\":3676:3702  users_list[i].addRecipient */\n      0xffffffffffffffffffffffffffffffffffffffff\n      and\n      0xfc68b3ed\n        /* \"Lincloud/.deps/contract/contract.sol\":3703:3714  recipientId */\n      dup4\n        /* \"Lincloud/.deps/contract/contract.sol\":3676:3715  users_list[i].addRecipient(recipientId) */\n      mload(0x40)\n      dup3\n      0xffffffff\n      and\n      0xe0\n      shl\n      dup2\n      mstore\n      0x04\n      add\n      tag_79\n      swap2\n      swap1\n      tag_80\n      jump\t// in\n    tag_79:\n      0x00\n      mload(0x40)\n      dup1\n      dup4\n      sub\n      dup2\n      0x00\n      dup8\n      dup1\n      extcodesize\n      iszero\n      dup1\n      iszero\n      tag_81\n      jumpi\n      0x00\n      dup1\n      revert\n    tag_81:\n      pop\n      gas\n      call\n      iszero\n      dup1\n      iszero\n      tag_83\n      jumpi\n      returndatasize\n      0x00\n      dup1\n      returndatacopy\n      revert(0x00, returndatasize)\n    tag_83:\n      pop\n      pop\n      pop\n      pop\n        /* \"Lincloud/.deps/contract/contract.sol\":3618:3731  if (users_list[i].id_user() == userId) {... */\n    tag_75:\n        /* \"Lincloud/.deps/contract/contract.sol\":3598:3601  i++ */\n      dup1\n      dup1\n      0x01\n      add\n      swap2\n      pop\n      pop\n        /* \"Lincloud/.deps/contract/contract.sol\":3555:3742  for (uint256 i = 0; i < users_list.length; i++) {... */\n      jump(tag_64)\n    tag_65:\n      pop\n        /* \"Lincloud/.deps/contract/contract.sol\":3414:3749  function addNewRecipient(uint256 userId, uint256 recipientId) public {... */\n      pop\n      pop\n      jump\t// out\n        /* \"Lincloud/.deps/contract/contract.sol\":3757:4080  function addNewOracle(uint256 userId, uint256 oracleId) public {... */\n    tag_21:\n        /* \"Lincloud/.deps/contract/contract.sol\":3839:3858  isUserExist(userId) */\n      tag_85\n        /* \"Lincloud/.deps/contract/contract.sol\":3851:3857  userId */\n      dup3\n        /* \"Lincloud/.deps/contract/contract.sol\":3839:3850  isUserExist */\n      tag_60\n        /* \"Lincloud/.deps/contract/contract.sol\":3839:3858  isUserExist(userId) */\n      jump\t// in\n    tag_85:\n        /* \"Lincloud/.deps/contract/contract.sol\":3831:3881  require(isUserExist(userId), \"Utente non trovato\") */\n      tag_86\n      jumpi\n      mload(0x40)\n      0x08c379a000000000000000000000000000000000000000000000000000000000\n      dup2\n      mstore\n      0x04\n      add\n      tag_87\n      swap1\n      tag_63\n      jump\t// in\n    tag_87:\n      mload(0x40)\n      dup1\n      swap2\n      sub\n      swap1\n      revert\n    tag_86:\n        /* \"Lincloud/.deps/contract/contract.sol\":3897:3906  uint256 i */\n      0x00\n        /* \"Lincloud/.deps/contract/contract.sol\":3892:4073  for (uint256 i = 0; i < users_list.length; i++) {... */\n    tag_88:\n        /* \"Lincloud/.deps/contract/contract.sol\":3916:3926  users_list */\n      0x00\n        /* \"Lincloud/.deps/contract/contract.sol\":3916:3933  users_list.length */\n      dup1\n      sload\n      swap1\n      pop\n        /* \"Lincloud/.deps/contract/contract.sol\":3912:3913  i */\n      dup2\n        /* \"Lincloud/.deps/contract/contract.sol\":3912:3933  i < users_list.length */\n      lt\n        /* \"Lincloud/.deps/contract/contract.sol\":3892:4073  for (uint256 i = 0; i < users_list.length; i++) {... */\n      iszero\n      tag_89\n      jumpi\n        /* \"Lincloud/.deps/contract/contract.sol\":3986:3992  userId */\n      dup3\n        /* \"Lincloud/.deps/contract/contract.sol\":3959:3969  users_list */\n      0x00\n        /* \"Lincloud/.deps/contract/contract.sol\":3970:3971  i */\n      dup3\n        /* \"Lincloud/.deps/contract/contract.sol\":3959:3972  users_list[i] */\n      dup2\n      sload\n      dup2\n      lt\n      tag_91\n      jumpi\n      tag_92\n      tag_69\n      jump\t// in\n    tag_92:\n    tag_91:\n      swap1\n      0x00\n      mstore\n      keccak256(0x00, 0x20)\n      add\n      0x00\n      swap1\n      sload\n      swap1\n      0x0100\n      exp\n      swap1\n      div\n      0xffffffffffffffffffffffffffffffffffffffff\n      and\n        /* \"Lincloud/.deps/contract/contract.sol\":3959:3980  users_list[i].id_user */\n      0xffffffffffffffffffffffffffffffffffffffff\n      and\n      0x8cee71e0\n        /* \"Lincloud/.deps/contract/contract.sol\":3959:3982  users_list[i].id_user() */\n      mload(0x40)\n      dup2\n      0xffffffff\n      and\n      0xe0\n      shl\n      dup2\n      mstore\n      0x04\n      add\n      0x20\n      mload(0x40)\n      dup1\n      dup4\n      sub\n      dup2\n      dup7\n      gas\n      staticcall\n      iszero\n      dup1\n      iszero\n      tag_95\n      jumpi\n      returndatasize\n      0x00\n      dup1\n      returndatacopy\n      revert(0x00, returndatasize)\n    tag_95:\n      pop\n      pop\n      pop\n      pop\n      mload(0x40)\n      returndatasize\n      not(0x1f)\n      0x1f\n      dup3\n      add\n      and\n      dup3\n      add\n      dup1\n      0x40\n      mstore\n      pop\n      dup2\n      add\n      swap1\n      tag_96\n      swap2\n      swap1\n      tag_74\n      jump\t// in\n    tag_96:\n        /* \"Lincloud/.deps/contract/contract.sol\":3959:3992  users_list[i].id_user() == userId */\n      sub\n        /* \"Lincloud/.deps/contract/contract.sol\":3955:4062  if (users_list[i].id_user() == userId) {... */\n      tag_97\n      jumpi\n        /* \"Lincloud/.deps/contract/contract.sol\":4013:4023  users_list */\n      0x00\n        /* \"Lincloud/.deps/contract/contract.sol\":4024:4025  i */\n      dup2\n        /* \"Lincloud/.deps/contract/contract.sol\":4013:4026  users_list[i] */\n      dup2\n      sload\n      dup2\n      lt\n      tag_98\n      jumpi\n      tag_99\n      tag_69\n      jump\t// in\n    tag_99:\n    tag_98:\n      swap1\n      0x00\n      mstore\n      keccak256(0x00, 0x20)\n      add\n      0x00\n      swap1\n      sload\n      swap1\n      0x0100\n      exp\n      swap1\n      div\n      0xffffffffffffffffffffffffffffffffffffffff\n      and\n        /* \"Lincloud/.deps/contract/contract.sol\":4013:4036  users_list[i].addOracle */\n      0xffffffffffffffffffffffffffffffffffffffff\n      and\n      0xe5a72d5b\n        /* \"Lincloud/.deps/contract/contract.sol\":4037:4045  oracleId */\n      dup4\n        /* \"Lincloud/.deps/contract/contract.sol\":4013:4046  users_list[i].addOracle(oracleId) */\n      mload(0x40)\n      dup3\n      0xffffffff\n      and\n      0xe0\n      shl\n      dup2\n      mstore\n      0x04\n      add\n      tag_101\n      swap2\n      swap1\n      tag_80\n      jump\t// in\n    tag_101:\n      0x00\n      mload(0x40)\n      dup1\n      dup4\n      sub\n      dup2\n      0x00\n      dup8\n      dup1\n      extcodesize\n      iszero\n      dup1\n      iszero\n      tag_102\n      jumpi\n      0x00\n      dup1\n      revert\n    tag_102:\n      pop\n      gas\n      call\n      iszero\n      dup1\n      iszero\n      tag_104\n      jumpi\n      returndatasize\n      0x00\n      dup1\n      returndatacopy\n      revert(0x00, returndatasize)\n    tag_104:\n      pop\n      pop\n      pop\n      pop\n        /* \"Lincloud/.deps/contract/contract.sol\":3955:4062  if (users_list[i].id_user() == userId) {... */\n    tag_97:\n        /* \"Lincloud/.deps/contract/contract.sol\":3935:3938  i++ */\n      dup1\n      dup1\n      0x01\n      add\n      swap2\n      pop\n      pop\n        /* \"Lincloud/.deps/contract/contract.sol\":3892:4073  for (uint256 i = 0; i < users_list.length; i++) {... */\n      jump(tag_88)\n    tag_89:\n      pop\n        /* \"Lincloud/.deps/contract/contract.sol\":3757:4080  function addNewOracle(uint256 userId, uint256 oracleId) public {... */\n      pop\n      pop\n      jump\t// out\n        /* \"Lincloud/.deps/contract/contract.sol\":4088:4400  function userDeathNotify(uint256 userId) public{... */\n    tag_25:\n        /* \"Lincloud/.deps/contract/contract.sol\":4154:4173  isUserExist(userId) */\n      tag_106\n        /* \"Lincloud/.deps/contract/contract.sol\":4166:4172  userId */\n      dup2\n        /* \"Lincloud/.deps/contract/contract.sol\":4154:4165  isUserExist */\n      tag_60\n        /* \"Lincloud/.deps/contract/contract.sol\":4154:4173  isUserExist(userId) */\n      jump\t// in\n    tag_106:\n        /* \"Lincloud/.deps/contract/contract.sol\":4146:4196  require(isUserExist(userId), \"Utente non trovato\") */\n      tag_107\n      jumpi\n      mload(0x40)\n      0x08c379a000000000000000000000000000000000000000000000000000000000\n      dup2\n      mstore\n      0x04\n      add\n      tag_108\n      swap1\n      tag_63\n      jump\t// in\n    tag_108:\n      mload(0x40)\n      dup1\n      swap2\n      sub\n      swap1\n      revert\n    tag_107:\n        /* \"Lincloud/.deps/contract/contract.sol\":4212:4221  uint256 i */\n      0x00\n        /* \"Lincloud/.deps/contract/contract.sol\":4207:4393  for (uint256 i = 0; i < users_list.length; i++) {... */\n    tag_109:\n        /* \"Lincloud/.deps/contract/contract.sol\":4231:4241  users_list */\n      0x00\n        /* \"Lincloud/.deps/contract/contract.sol\":4231:4248  users_list.length */\n      dup1\n      sload\n      swap1\n      pop\n        /* \"Lincloud/.deps/contract/contract.sol\":4227:4228  i */\n      dup2\n        /* \"Lincloud/.deps/contract/contract.sol\":4227:4248  i < users_list.length */\n      lt\n        /* \"Lincloud/.deps/contract/contract.sol\":4207:4393  for (uint256 i = 0; i < users_list.length; i++) {... */\n      iszero\n      tag_110\n      jumpi\n        /* \"Lincloud/.deps/contract/contract.sol\":4301:4307  userId */\n      dup2\n        /* \"Lincloud/.deps/contract/contract.sol\":4274:4284  users_list */\n      0x00\n        /* \"Lincloud/.deps/contract/contract.sol\":4285:4286  i */\n      dup3\n        /* \"Lincloud/.deps/contract/contract.sol\":4274:4287  users_list[i] */\n      dup2\n      sload\n      dup2\n      lt\n      tag_112\n      jumpi\n      tag_113\n      tag_69\n      jump\t// in\n    tag_113:\n    tag_112:\n      swap1\n      0x00\n      mstore\n      keccak256(0x00, 0x20)\n      add\n      0x00\n      swap1\n      sload\n      swap1\n      0x0100\n      exp\n      swap1\n      div\n      0xffffffffffffffffffffffffffffffffffffffff\n      and\n        /* \"Lincloud/.deps/contract/contract.sol\":4274:4295  users_list[i].id_user */\n      0xffffffffffffffffffffffffffffffffffffffff\n      and\n      0x8cee71e0\n        /* \"Lincloud/.deps/contract/contract.sol\":4274:4297  users_list[i].id_user() */\n      mload(0x40)\n      dup2\n      0xffffffff\n      and\n      0xe0\n      shl\n      dup2\n      mstore\n      0x04\n      add\n      0x20\n      mload(0x40)\n      dup1\n      dup4\n      sub\n      dup2\n      dup7\n      gas\n      staticcall\n      iszero\n      dup1\n      iszero\n      tag_116\n      jumpi\n      returndatasize\n      0x00\n      dup1\n      returndatacopy\n      revert(0x00, returndatasize)\n    tag_116:\n      pop\n      pop\n      pop\n      pop\n      mload(0x40)\n      returndatasize\n      not(0x1f)\n      0x1f\n      dup3\n      add\n      and\n      dup3\n      add\n      dup1\n      0x40\n      mstore\n      pop\n      dup2\n      add\n      swap1\n      tag_117\n      swap2\n      swap1\n      tag_74\n      jump\t// in\n    tag_117:\n        /* \"Lincloud/.deps/contract/contract.sol\":4274:4307  users_list[i].id_user() == userId */\n      sub\n        /* \"Lincloud/.deps/contract/contract.sol\":4270:4382  if (users_list[i].id_user() == userId) {... */\n      tag_118\n      jumpi\n        /* \"Lincloud/.deps/contract/contract.sol\":4328:4338  users_list */\n      0x00\n        /* \"Lincloud/.deps/contract/contract.sol\":4339:4340  i */\n      dup2\n        /* \"Lincloud/.deps/contract/contract.sol\":4328:4341  users_list[i] */\n      dup2\n      sload\n      dup2\n      lt\n      tag_119\n      jumpi\n      tag_120\n      tag_69\n      jump\t// in\n    tag_120:\n    tag_119:\n      swap1\n      0x00\n      mstore\n      keccak256(0x00, 0x20)\n      add\n      0x00\n      swap1\n      sload\n      swap1\n      0x0100\n      exp\n      swap1\n      div\n      0xffffffffffffffffffffffffffffffffffffffff\n      and\n        /* \"Lincloud/.deps/contract/contract.sol\":4328:4364  users_list[i].setUserStateToDeceased */\n      0xffffffffffffffffffffffffffffffffffffffff\n      and\n      0xac3ef22d\n        /* \"Lincloud/.deps/contract/contract.sol\":4328:4366  users_list[i].setUserStateToDeceased() */\n      mload(0x40)\n      dup2\n      0xffffffff\n      and\n      0xe0\n      shl\n      dup2\n      mstore\n      0x04\n      add\n      0x00\n      mload(0x40)\n      dup1\n      dup4\n      sub\n      dup2\n      0x00\n      dup8\n      dup1\n      extcodesize\n      iszero\n      dup1\n      iszero\n      tag_122\n      jumpi\n      0x00\n      dup1\n      revert\n    tag_122:\n      pop\n      gas\n      call\n      iszero\n      dup1\n      iszero\n      tag_124\n      jumpi\n      returndatasize\n      0x00\n      dup1\n      returndatacopy\n      revert(0x00, returndatasize)\n    tag_124:\n      pop\n      pop\n      pop\n      pop\n        /* \"Lincloud/.deps/contract/contract.sol\":4270:4382  if (users_list[i].id_user() == userId) {... */\n    tag_118:\n        /* \"Lincloud/.deps/contract/contract.sol\":4250:4253  i++ */\n      dup1\n      dup1\n      0x01\n      add\n      swap2\n      pop\n      pop\n        /* \"Lincloud/.deps/contract/contract.sol\":4207:4393  for (uint256 i = 0; i < users_list.length; i++) {... */\n      jump(tag_109)\n    tag_110:\n      pop\n        /* \"Lincloud/.deps/contract/contract.sol\":4088:4400  function userDeathNotify(uint256 userId) public{... */\n      pop\n      jump\t// out\n        /* \"Lincloud/.deps/contract/contract.sol\":4408:4787  function updateTimestamp(uint256 userId, uint256 recipientId, string memory timestamp) public{... */\n    tag_29:\n        /* \"Lincloud/.deps/contract/contract.sol\":4520:4539  isUserExist(userId) */\n      tag_126\n        /* \"Lincloud/.deps/contract/contract.sol\":4532:4538  userId */\n      dup4\n        /* \"Lincloud/.deps/contract/contract.sol\":4520:4531  isUserExist */\n      tag_60\n        /* \"Lincloud/.deps/contract/contract.sol\":4520:4539  isUserExist(userId) */\n      jump\t// in\n    tag_126:\n        /* \"Lincloud/.deps/contract/contract.sol\":4512:4562  require(isUserExist(userId), \"Utente non trovato\") */\n      tag_127\n      jumpi\n      mload(0x40)\n      0x08c379a000000000000000000000000000000000000000000000000000000000\n      dup2\n      mstore\n      0x04\n      add\n      tag_128\n      swap1\n      tag_63\n      jump\t// in\n    tag_128:\n      mload(0x40)\n      dup1\n      swap2\n      sub\n      swap1\n      revert\n    tag_127:\n        /* \"Lincloud/.deps/contract/contract.sol\":4578:4587  uint256 i */\n      0x00\n        /* \"Lincloud/.deps/contract/contract.sol\":4573:4780  for (uint256 i = 0; i < users_list.length; i++) {... */\n    tag_129:\n        /* \"Lincloud/.deps/contract/contract.sol\":4597:4607  users_list */\n      0x00\n        /* \"Lincloud/.deps/contract/contract.sol\":4597:4614  users_list.length */\n      dup1\n      sload\n      swap1\n      pop\n        /* \"Lincloud/.deps/contract/contract.sol\":4593:4594  i */\n      dup2\n        /* \"Lincloud/.deps/contract/contract.sol\":4593:4614  i < users_list.length */\n      lt\n        /* \"Lincloud/.deps/contract/contract.sol\":4573:4780  for (uint256 i = 0; i < users_list.length; i++) {... */\n      iszero\n      tag_130\n      jumpi\n        /* \"Lincloud/.deps/contract/contract.sol\":4667:4673  userId */\n      dup4\n        /* \"Lincloud/.deps/contract/contract.sol\":4640:4650  users_list */\n      0x00\n        /* \"Lincloud/.deps/contract/contract.sol\":4651:4652  i */\n      dup3\n        /* \"Lincloud/.deps/contract/contract.sol\":4640:4653  users_list[i] */\n      dup2\n      sload\n      dup2\n      lt\n      tag_132\n      jumpi\n      tag_133\n      tag_69\n      jump\t// in\n    tag_133:\n    tag_132:\n      swap1\n      0x00\n      mstore\n      keccak256(0x00, 0x20)\n      add\n      0x00\n      swap1\n      sload\n      swap1\n      0x0100\n      exp\n      swap1\n      div\n      0xffffffffffffffffffffffffffffffffffffffff\n      and\n        /* \"Lincloud/.deps/contract/contract.sol\":4640:4661  users_list[i].id_user */\n      0xffffffffffffffffffffffffffffffffffffffff\n      and\n      0x8cee71e0\n        /* \"Lincloud/.deps/contract/contract.sol\":4640:4663  users_list[i].id_user() */\n      mload(0x40)\n      dup2\n      0xffffffff\n      and\n      0xe0\n      shl\n      dup2\n      mstore\n      0x04\n      add\n      0x20\n      mload(0x40)\n      dup1\n      dup4\n      sub\n      dup2\n      dup7\n      gas\n      staticcall\n      iszero\n      dup1\n      iszero\n      tag_136\n      jumpi\n      returndatasize\n      0x00\n      dup1\n      returndatacopy\n      revert(0x00, returndatasize)\n    tag_136:\n      pop\n      pop\n      pop\n      pop\n      mload(0x40)\n      returndatasize\n      not(0x1f)\n      0x1f\n      dup3\n      add\n      and\n      dup3\n      add\n      dup1\n      0x40\n      mstore\n      pop\n      dup2\n      add\n      swap1\n      tag_137\n      swap2\n      swap1\n      tag_74\n      jump\t// in\n    tag_137:\n        /* \"Lincloud/.deps/contract/contract.sol\":4640:4673  users_list[i].id_user() == userId */\n      sub\n        /* \"Lincloud/.deps/contract/contract.sol\":4636:4769  if (users_list[i].id_user() == userId) {... */\n      tag_138\n      jumpi\n        /* \"Lincloud/.deps/contract/contract.sol\":4694:4704  users_list */\n      0x00\n        /* \"Lincloud/.deps/contract/contract.sol\":4705:4706  i */\n      dup2\n        /* \"Lincloud/.deps/contract/contract.sol\":4694:4707  users_list[i] */\n      dup2\n      sload\n      dup2\n      lt\n      tag_139\n      jumpi\n      tag_140\n      tag_69\n      jump\t// in\n    tag_140:\n    tag_139:\n      swap1\n      0x00\n      mstore\n      keccak256(0x00, 0x20)\n      add\n      0x00\n      swap1\n      sload\n      swap1\n      0x0100\n      exp\n      swap1\n      div\n      0xffffffffffffffffffffffffffffffffffffffff\n      and\n        /* \"Lincloud/.deps/contract/contract.sol\":4694:4729  users_list[i].setRecipientTimeStamp */\n      0xffffffffffffffffffffffffffffffffffffffff\n      and\n      0x3121924d\n        /* \"Lincloud/.deps/contract/contract.sol\":4730:4741  recipientId */\n      dup5\n        /* \"Lincloud/.deps/contract/contract.sol\":4743:4752  timestamp */\n      dup5\n        /* \"Lincloud/.deps/contract/contract.sol\":4694:4753  users_list[i].setRecipientTimeStamp(recipientId, timestamp) */\n      mload(0x40)\n      dup4\n      0xffffffff\n      and\n      0xe0\n      shl\n      dup2\n      mstore\n      0x04\n      add\n      tag_142\n      swap3\n      swap2\n      swap1\n      tag_143\n      jump\t// in\n    tag_142:\n      0x00\n      mload(0x40)\n      dup1\n      dup4\n      sub\n      dup2\n      0x00\n      dup8\n      dup1\n      extcodesize\n      iszero\n      dup1\n      iszero\n      tag_144\n      jumpi\n      0x00\n      dup1\n      revert\n    tag_144:\n      pop\n      gas\n      call\n      iszero\n      dup1\n      iszero\n      tag_146\n      jumpi\n      returndatasize\n      0x00\n      dup1\n      returndatacopy\n      revert(0x00, returndatasize)\n    tag_146:\n      pop\n      pop\n      pop\n      pop\n        /* \"Lincloud/.deps/contract/contract.sol\":4636:4769  if (users_list[i].id_user() == userId) {... */\n    tag_138:\n        /* \"Lincloud/.deps/contract/contract.sol\":4616:4619  i++ */\n      dup1\n      dup1\n      0x01\n      add\n      swap2\n      pop\n      pop\n        /* \"Lincloud/.deps/contract/contract.sol\":4573:4780  for (uint256 i = 0; i < users_list.length; i++) {... */\n      jump(tag_129)\n    tag_130:\n      pop\n        /* \"Lincloud/.deps/contract/contract.sol\":4408:4787  function updateTimestamp(uint256 userId, uint256 recipientId, string memory timestamp) public{... */\n      pop\n      pop\n      pop\n      jump\t// out\n        /* \"Lincloud/.deps/contract/contract.sol\":6606:7053  function getAllOracles(uint256 userId) public view returns (uint256[] memory){... */\n    tag_32:\n        /* \"Lincloud/.deps/contract/contract.sol\":6666:6682  uint256[] memory */\n      0x60\n        /* \"Lincloud/.deps/contract/contract.sol\":6702:6721  isUserExist(userId) */\n      tag_148\n        /* \"Lincloud/.deps/contract/contract.sol\":6714:6720  userId */\n      dup3\n        /* \"Lincloud/.deps/contract/contract.sol\":6702:6713  isUserExist */\n      tag_60\n        /* \"Lincloud/.deps/contract/contract.sol\":6702:6721  isUserExist(userId) */\n      jump\t// in\n    tag_148:\n        /* \"Lincloud/.deps/contract/contract.sol\":6694:6744  require(isUserExist(userId), \"Utente non trovato\") */\n      tag_149\n      jumpi\n      mload(0x40)\n      0x08c379a000000000000000000000000000000000000000000000000000000000\n      dup2\n      mstore\n      0x04\n      add\n      tag_150\n      swap1\n      tag_63\n      jump\t// in\n    tag_150:\n      mload(0x40)\n      dup1\n      swap2\n      sub\n      swap1\n      revert\n    tag_149:\n        /* \"Lincloud/.deps/contract/contract.sol\":6755:6782  uint256[] memory oraclesIds */\n      0x00\n        /* \"Lincloud/.deps/contract/contract.sol\":6799:6809  users_list */\n      dup1\n        /* \"Lincloud/.deps/contract/contract.sol\":6799:6816  users_list.length */\n      dup1\n      sload\n      swap1\n      pop\n        /* \"Lincloud/.deps/contract/contract.sol\":6785:6817  new uint256[](users_list.length) */\n      0xffffffffffffffff\n      dup2\n      gt\n      iszero\n      tag_151\n      jumpi\n      tag_152\n      tag_153\n      jump\t// in\n    tag_152:\n    tag_151:\n      mload(0x40)\n      swap1\n      dup1\n      dup3\n      mstore\n      dup1\n      0x20\n      mul\n      0x20\n      add\n      dup3\n      add\n      0x40\n      mstore\n      dup1\n      iszero\n      tag_154\n      jumpi\n      dup2\n      0x20\n      add\n      0x20\n      dup3\n      mul\n      dup1\n      calldatasize\n      dup4\n      calldatacopy\n      dup1\n      dup3\n      add\n      swap2\n      pop\n      pop\n      swap1\n      pop\n    tag_154:\n      pop\n        /* \"Lincloud/.deps/contract/contract.sol\":6755:6817  uint256[] memory oraclesIds = new uint256[](users_list.length) */\n      swap1\n      pop\n        /* \"Lincloud/.deps/contract/contract.sol\":6833:6842  uint256 i */\n      0x00\n        /* \"Lincloud/.deps/contract/contract.sol\":6828:7018  for (uint256 i = 0; i < users_list.length; i++) {... */\n    tag_155:\n        /* \"Lincloud/.deps/contract/contract.sol\":6852:6862  users_list */\n      0x00\n        /* \"Lincloud/.deps/contract/contract.sol\":6852:6869  users_list.length */\n      dup1\n      sload\n      swap1\n      pop\n        /* \"Lincloud/.deps/contract/contract.sol\":6848:6849  i */\n      dup2\n        /* \"Lincloud/.deps/contract/contract.sol\":6848:6869  i < users_list.length */\n      lt\n        /* \"Lincloud/.deps/contract/contract.sol\":6828:7018  for (uint256 i = 0; i < users_list.length; i++) {... */\n      iszero\n      tag_156\n      jumpi\n        /* \"Lincloud/.deps/contract/contract.sol\":6922:6928  userId */\n      dup4\n        /* \"Lincloud/.deps/contract/contract.sol\":6895:6905  users_list */\n      0x00\n        /* \"Lincloud/.deps/contract/contract.sol\":6906:6907  i */\n      dup3\n        /* \"Lincloud/.deps/contract/contract.sol\":6895:6908  users_list[i] */\n      dup2\n      sload\n      dup2\n      lt\n      tag_158\n      jumpi\n      tag_159\n      tag_69\n      jump\t// in\n    tag_159:\n    tag_158:\n      swap1\n      0x00\n      mstore\n      keccak256(0x00, 0x20)\n      add\n      0x00\n      swap1\n      sload\n      swap1\n      0x0100\n      exp\n      swap1\n      div\n      0xffffffffffffffffffffffffffffffffffffffff\n      and\n        /* \"Lincloud/.deps/contract/contract.sol\":6895:6916  users_list[i].id_user */\n      0xffffffffffffffffffffffffffffffffffffffff\n      and\n      0x8cee71e0\n        /* \"Lincloud/.deps/contract/contract.sol\":6895:6918  users_list[i].id_user() */\n      mload(0x40)\n      dup2\n      0xffffffff\n      and\n      0xe0\n      shl\n      dup2\n      mstore\n      0x04\n      add\n      0x20\n      mload(0x40)\n      dup1\n      dup4\n      sub\n      dup2\n      dup7\n      gas\n      staticcall\n      iszero\n      dup1\n      iszero\n      tag_162\n      jumpi\n      returndatasize\n      0x00\n      dup1\n      returndatacopy\n      revert(0x00, returndatasize)\n    tag_162:\n      pop\n      pop\n      pop\n      pop\n      mload(0x40)\n      returndatasize\n      not(0x1f)\n      0x1f\n      dup3\n      add\n      and\n      dup3\n      add\n      dup1\n      0x40\n      mstore\n      pop\n      dup2\n      add\n      swap1\n      tag_163\n      swap2\n      swap1\n      tag_74\n      jump\t// in\n    tag_163:\n        /* \"Lincloud/.deps/contract/contract.sol\":6895:6928  users_list[i].id_user() == userId */\n      sub\n        /* \"Lincloud/.deps/contract/contract.sol\":6891:7007  if (users_list[i].id_user() == userId) {... */\n      tag_164\n      jumpi\n        /* \"Lincloud/.deps/contract/contract.sol\":6962:6972  users_list */\n      0x00\n        /* \"Lincloud/.deps/contract/contract.sol\":6973:6974  i */\n      dup2\n        /* \"Lincloud/.deps/contract/contract.sol\":6962:6975  users_list[i] */\n      dup2\n      sload\n      dup2\n      lt\n      tag_165\n      jumpi\n      tag_166\n      tag_69\n      jump\t// in\n    tag_166:\n    tag_165:\n      swap1\n      0x00\n      mstore\n      keccak256(0x00, 0x20)\n      add\n      0x00\n      swap1\n      sload\n      swap1\n      0x0100\n      exp\n      swap1\n      div\n      0xffffffffffffffffffffffffffffffffffffffff\n      and\n        /* \"Lincloud/.deps/contract/contract.sol\":6962:6989  users_list[i].getAllOracles */\n      0xffffffffffffffffffffffffffffffffffffffff\n      and\n      0x65a6bb29\n        /* \"Lincloud/.deps/contract/contract.sol\":6962:6991  users_list[i].getAllOracles() */\n      mload(0x40)\n      dup2\n      0xffffffff\n      and\n      0xe0\n      shl\n      dup2\n      mstore\n      0x04\n      add\n      0x00\n      mload(0x40)\n      dup1\n      dup4\n      sub\n      dup2\n      dup7\n      gas\n      staticcall\n      iszero\n      dup1\n      iszero\n      tag_169\n      jumpi\n      returndatasize\n      0x00\n      dup1\n      returndatacopy\n      revert(0x00, returndatasize)\n    tag_169:\n      pop\n      pop\n      pop\n      pop\n      mload(0x40)\n      returndatasize\n      0x00\n      dup3\n      returndatacopy\n      returndatasize\n      not(0x1f)\n      0x1f\n      dup3\n      add\n      and\n      dup3\n      add\n      dup1\n      0x40\n      mstore\n      pop\n      dup2\n      add\n      swap1\n      tag_170\n      swap2\n      swap1\n      tag_171\n      jump\t// in\n    tag_170:\n        /* \"Lincloud/.deps/contract/contract.sol\":6949:6991  oraclesIds = users_list[i].getAllOracles() */\n      swap2\n      pop\n        /* \"Lincloud/.deps/contract/contract.sol\":6891:7007  if (users_list[i].id_user() == userId) {... */\n    tag_164:\n        /* \"Lincloud/.deps/contract/contract.sol\":6871:6874  i++ */\n      dup1\n      dup1\n      0x01\n      add\n      swap2\n      pop\n      pop\n        /* \"Lincloud/.deps/contract/contract.sol\":6828:7018  for (uint256 i = 0; i < users_list.length; i++) {... */\n      jump(tag_155)\n    tag_156:\n      pop\n        /* \"Lincloud/.deps/contract/contract.sol\":7035:7045  oraclesIds */\n      dup1\n        /* \"Lincloud/.deps/contract/contract.sol\":7028:7045  return oraclesIds */\n      swap2\n      pop\n      pop\n        /* \"Lincloud/.deps/contract/contract.sol\":6606:7053  function getAllOracles(uint256 userId) public view returns (uint256[] memory){... */\n      swap2\n      swap1\n      pop\n      jump\t// out\n        /* \"Lincloud/.deps/contract/contract.sol\":3030:3054  user[] public users_list */\n    tag_37:\n      0x00\n      dup2\n      dup2\n      sload\n      dup2\n      lt\n      tag_172\n      jumpi\n      0x00\n      dup1\n      revert\n    tag_172:\n      swap1\n      0x00\n      mstore\n      keccak256(0x00, 0x20)\n      add\n      0x00\n      swap2\n      pop\n      sload\n      swap1\n      0x0100\n      exp\n      swap1\n      div\n      0xffffffffffffffffffffffffffffffffffffffff\n      and\n      dup2\n      jump\t// out\n        /* \"Lincloud/.deps/contract/contract.sol\":4795:5200  function recipientResponse(uint256 userId, uint256 recipientId, bool response, bool isTimeExpired) public {... */\n    tag_43:\n        /* \"Lincloud/.deps/contract/contract.sol\":4920:4939  isUserExist(userId) */\n      tag_175\n        /* \"Lincloud/.deps/contract/contract.sol\":4932:4938  userId */\n      dup5\n        /* \"Lincloud/.deps/contract/contract.sol\":4920:4931  isUserExist */\n      tag_60\n        /* \"Lincloud/.deps/contract/contract.sol\":4920:4939  isUserExist(userId) */\n      jump\t// in\n    tag_175:\n        /* \"Lincloud/.deps/contract/contract.sol\":4912:4962  require(isUserExist(userId), \"Utente non trovato\") */\n      tag_176\n      jumpi\n      mload(0x40)\n      0x08c379a000000000000000000000000000000000000000000000000000000000\n      dup2\n      mstore\n      0x04\n      add\n      tag_177\n      swap1\n      tag_63\n      jump\t// in\n    tag_177:\n      mload(0x40)\n      dup1\n      swap2\n      sub\n      swap1\n      revert\n    tag_176:\n        /* \"Lincloud/.deps/contract/contract.sol\":4978:4987  uint256 i */\n      0x00\n        /* \"Lincloud/.deps/contract/contract.sol\":4973:5193  for (uint256 i = 0; i < users_list.length; i++) {... */\n    tag_178:\n        /* \"Lincloud/.deps/contract/contract.sol\":4997:5007  users_list */\n      0x00\n        /* \"Lincloud/.deps/contract/contract.sol\":4997:5014  users_list.length */\n      dup1\n      sload\n      swap1\n      pop\n        /* \"Lincloud/.deps/contract/contract.sol\":4993:4994  i */\n      dup2\n        /* \"Lincloud/.deps/contract/contract.sol\":4993:5014  i < users_list.length */\n      lt\n        /* \"Lincloud/.deps/contract/contract.sol\":4973:5193  for (uint256 i = 0; i < users_list.length; i++) {... */\n      iszero\n      tag_179\n      jumpi\n        /* \"Lincloud/.deps/contract/contract.sol\":5067:5073  userId */\n      dup5\n        /* \"Lincloud/.deps/contract/contract.sol\":5040:5050  users_list */\n      0x00\n        /* \"Lincloud/.deps/contract/contract.sol\":5051:5052  i */\n      dup3\n        /* \"Lincloud/.deps/contract/contract.sol\":5040:5053  users_list[i] */\n      dup2\n      sload\n      dup2\n      lt\n      tag_181\n      jumpi\n      tag_182\n      tag_69\n      jump\t// in\n    tag_182:\n    tag_181:\n      swap1\n      0x00\n      mstore\n      keccak256(0x00, 0x20)\n      add\n      0x00\n      swap1\n      sload\n      swap1\n      0x0100\n      exp\n      swap1\n      div\n      0xffffffffffffffffffffffffffffffffffffffff\n      and\n        /* \"Lincloud/.deps/contract/contract.sol\":5040:5061  users_list[i].id_user */\n      0xffffffffffffffffffffffffffffffffffffffff\n      and\n      0x8cee71e0\n        /* \"Lincloud/.deps/contract/contract.sol\":5040:5063  users_list[i].id_user() */\n      mload(0x40)\n      dup2\n      0xffffffff\n      and\n      0xe0\n      shl\n      dup2\n      mstore\n      0x04\n      add\n      0x20\n      mload(0x40)\n      dup1\n      dup4\n      sub\n      dup2\n      dup7\n      gas\n      staticcall\n      iszero\n      dup1\n      iszero\n      tag_185\n      jumpi\n      returndatasize\n      0x00\n      dup1\n      returndatacopy\n      revert(0x00, returndatasize)\n    tag_185:\n      pop\n      pop\n      pop\n      pop\n      mload(0x40)\n      returndatasize\n      not(0x1f)\n      0x1f\n      dup3\n      add\n      and\n      dup3\n      add\n      dup1\n      0x40\n      mstore\n      pop\n      dup2\n      add\n      swap1\n      tag_186\n      swap2\n      swap1\n      tag_74\n      jump\t// in\n    tag_186:\n        /* \"Lincloud/.deps/contract/contract.sol\":5040:5073  users_list[i].id_user() == userId */\n      sub\n        /* \"Lincloud/.deps/contract/contract.sol\":5036:5182  if (users_list[i].id_user() == userId) {... */\n      tag_187\n      jumpi\n        /* \"Lincloud/.deps/contract/contract.sol\":5094:5104  users_list */\n      0x00\n        /* \"Lincloud/.deps/contract/contract.sol\":5105:5106  i */\n      dup2\n        /* \"Lincloud/.deps/contract/contract.sol\":5094:5107  users_list[i] */\n      dup2\n      sload\n      dup2\n      lt\n      tag_188\n      jumpi\n      tag_189\n      tag_69\n      jump\t// in\n    tag_189:\n    tag_188:\n      swap1\n      0x00\n      mstore\n      keccak256(0x00, 0x20)\n      add\n      0x00\n      swap1\n      sload\n      swap1\n      0x0100\n      exp\n      swap1\n      div\n      0xffffffffffffffffffffffffffffffffffffffff\n      and\n        /* \"Lincloud/.deps/contract/contract.sol\":5094:5128  users_list[i].setRecipientResponse */\n      0xffffffffffffffffffffffffffffffffffffffff\n      and\n      0x38fcbc01\n        /* \"Lincloud/.deps/contract/contract.sol\":5129:5140  recipientId */\n      dup6\n        /* \"Lincloud/.deps/contract/contract.sol\":5142:5150  response */\n      dup6\n        /* \"Lincloud/.deps/contract/contract.sol\":5152:5165  isTimeExpired */\n      dup6\n        /* \"Lincloud/.deps/contract/contract.sol\":5094:5166  users_list[i].setRecipientResponse(recipientId, response, isTimeExpired) */\n      mload(0x40)\n      dup5\n      0xffffffff\n      and\n      0xe0\n      shl\n      dup2\n      mstore\n      0x04\n      add\n      tag_191\n      swap4\n      swap3\n      swap2\n      swap1\n      tag_192\n      jump\t// in\n    tag_191:\n      0x00\n      mload(0x40)\n      dup1\n      dup4\n      sub\n      dup2\n      0x00\n      dup8\n      dup1\n      extcodesize\n      iszero\n      dup1\n      iszero\n      tag_193\n      jumpi\n      0x00\n      dup1\n      revert\n    tag_193:\n      pop\n      gas\n      call\n      iszero\n      dup1\n      iszero\n      tag_195\n      jumpi\n      returndatasize\n      0x00\n      dup1\n      returndatacopy\n      revert(0x00, returndatasize)\n    tag_195:\n      pop\n      pop\n      pop\n      pop\n        /* \"Lincloud/.deps/contract/contract.sol\":5036:5182  if (users_list[i].id_user() == userId) {... */\n    tag_187:\n        /* \"Lincloud/.deps/contract/contract.sol\":5016:5019  i++ */\n      dup1\n      dup1\n      0x01\n      add\n      swap2\n      pop\n      pop\n        /* \"Lincloud/.deps/contract/contract.sol\":4973:5193  for (uint256 i = 0; i < users_list.length; i++) {... */\n      jump(tag_178)\n    tag_179:\n      pop\n        /* \"Lincloud/.deps/contract/contract.sol\":4795:5200  function recipientResponse(uint256 userId, uint256 recipientId, bool response, bool isTimeExpired) public {... */\n      pop\n      pop\n      pop\n      pop\n      jump\t// out\n        /* \"Lincloud/.deps/contract/contract.sol\":3063:3406  function createNewUserContract(uint256 userId, bytes32 contractHash) public {  // Crea un nuovo utente e aggiungilo alla lista degli utenti... */\n    tag_47:\n        /* \"Lincloud/.deps/contract/contract.sol\":3221:3240  isUserExist(userId) */\n      tag_197\n        /* \"Lincloud/.deps/contract/contract.sol\":3233:3239  userId */\n      dup3\n        /* \"Lincloud/.deps/contract/contract.sol\":3221:3232  isUserExist */\n      tag_60\n        /* \"Lincloud/.deps/contract/contract.sol\":3221:3240  isUserExist(userId) */\n      jump\t// in\n    tag_197:\n        /* \"Lincloud/.deps/contract/contract.sol\":3220:3240  !isUserExist(userId) */\n      iszero\n        /* \"Lincloud/.deps/contract/contract.sol\":3212:3261  require(!isUserExist(userId), \"Utente esistente\") */\n      tag_198\n      jumpi\n      mload(0x40)\n      0x08c379a000000000000000000000000000000000000000000000000000000000\n      dup2\n      mstore\n      0x04\n      add\n      tag_199\n      swap1\n      tag_200\n      jump\t// in\n    tag_199:\n      mload(0x40)\n      dup1\n      swap2\n      sub\n      swap1\n      revert\n    tag_198:\n        /* \"Lincloud/.deps/contract/contract.sol\":3318:3330  user newUser */\n      0x00\n        /* \"Lincloud/.deps/contract/contract.sol\":3342:3348  userId */\n      dup3\n        /* \"Lincloud/.deps/contract/contract.sol\":3350:3362  contractHash */\n      dup3\n        /* \"Lincloud/.deps/contract/contract.sol\":3333:3363  new user(userId, contractHash) */\n      mload(0x40)\n      tag_201\n      swap1\n      tag_202\n      jump\t// in\n    tag_201:\n      tag_203\n      swap3\n      swap2\n      swap1\n      tag_204\n      jump\t// in\n    tag_203:\n      mload(0x40)\n      dup1\n      swap2\n      sub\n      swap1\n      0x00\n      create\n      dup1\n      iszero\n      dup1\n      iszero\n      tag_205\n      jumpi\n      returndatasize\n      0x00\n      dup1\n      returndatacopy\n      revert(0x00, returndatasize)\n    tag_205:\n      pop\n        /* \"Lincloud/.deps/contract/contract.sol\":3318:3363  user newUser = new user(userId, contractHash) */\n      swap1\n      pop\n        /* \"Lincloud/.deps/contract/contract.sol\":3374:3384  users_list */\n      0x00\n        /* \"Lincloud/.deps/contract/contract.sol\":3390:3397  newUser */\n      dup2\n        /* \"Lincloud/.deps/contract/contract.sol\":3374:3398  users_list.push(newUser) */\n      swap1\n      dup1\n      0x01\n      dup2\n      sload\n      add\n      dup1\n      dup3\n      sstore\n      dup1\n      swap2\n      pop\n      pop\n      0x01\n      swap1\n      sub\n      swap1\n      0x00\n      mstore\n      keccak256(0x00, 0x20)\n      add\n      0x00\n      swap1\n      swap2\n      swap1\n      swap2\n      swap1\n      swap2\n      0x0100\n      exp\n      dup2\n      sload\n      dup2\n      0xffffffffffffffffffffffffffffffffffffffff\n      mul\n      not\n      and\n      swap1\n      dup4\n      0xffffffffffffffffffffffffffffffffffffffff\n      and\n      mul\n      or\n      swap1\n      sstore\n      pop\n        /* \"Lincloud/.deps/contract/contract.sol\":3139:3406  {  // Crea un nuovo utente e aggiungilo alla lista degli utenti... */\n      pop\n        /* \"Lincloud/.deps/contract/contract.sol\":3063:3406  function createNewUserContract(uint256 userId, bytes32 contractHash) public {  // Crea un nuovo utente e aggiungilo alla lista degli utenti... */\n      pop\n      pop\n      jump\t// out\n        /* \"Lincloud/.deps/contract/contract.sol\":5836:6124  function getAllUsers() public view returns (uint256[] memory) {... */\n    tag_49:\n        /* \"Lincloud/.deps/contract/contract.sol\":5880:5896  uint256[] memory */\n      0x60\n        /* \"Lincloud/.deps/contract/contract.sol\":5909:5933  uint256[] memory userIDs */\n      0x00\n        /* \"Lincloud/.deps/contract/contract.sol\":5950:5960  users_list */\n      dup1\n        /* \"Lincloud/.deps/contract/contract.sol\":5950:5967  users_list.length */\n      dup1\n      sload\n      swap1\n      pop\n        /* \"Lincloud/.deps/contract/contract.sol\":5936:5968  new uint256[](users_list.length) */\n      0xffffffffffffffff\n      dup2\n      gt\n      iszero\n      tag_208\n      jumpi\n      tag_209\n      tag_153\n      jump\t// in\n    tag_209:\n    tag_208:\n      mload(0x40)\n      swap1\n      dup1\n      dup3\n      mstore\n      dup1\n      0x20\n      mul\n      0x20\n      add\n      dup3\n      add\n      0x40\n      mstore\n      dup1\n      iszero\n      tag_210\n      jumpi\n      dup2\n      0x20\n      add\n      0x20\n      dup3\n      mul\n      dup1\n      calldatasize\n      dup4\n      calldatacopy\n      dup1\n      dup3\n      add\n      swap2\n      pop\n      pop\n      swap1\n      pop\n    tag_210:\n      pop\n        /* \"Lincloud/.deps/contract/contract.sol\":5909:5968  uint256[] memory userIDs = new uint256[](users_list.length) */\n      swap1\n      pop\n        /* \"Lincloud/.deps/contract/contract.sol\":5984:5993  uint256 i */\n      0x00\n        /* \"Lincloud/.deps/contract/contract.sol\":5979:6092  for (uint256 i = 0; i < users_list.length; i++) {... */\n    tag_211:\n        /* \"Lincloud/.deps/contract/contract.sol\":6003:6013  users_list */\n      0x00\n        /* \"Lincloud/.deps/contract/contract.sol\":6003:6020  users_list.length */\n      dup1\n      sload\n      swap1\n      pop\n        /* \"Lincloud/.deps/contract/contract.sol\":5999:6000  i */\n      dup2\n        /* \"Lincloud/.deps/contract/contract.sol\":5999:6020  i < users_list.length */\n      lt\n        /* \"Lincloud/.deps/contract/contract.sol\":5979:6092  for (uint256 i = 0; i < users_list.length; i++) {... */\n      iszero\n      tag_212\n      jumpi\n        /* \"Lincloud/.deps/contract/contract.sol\":6055:6065  users_list */\n      0x00\n        /* \"Lincloud/.deps/contract/contract.sol\":6066:6067  i */\n      dup2\n        /* \"Lincloud/.deps/contract/contract.sol\":6055:6068  users_list[i] */\n      dup2\n      sload\n      dup2\n      lt\n      tag_214\n      jumpi\n      tag_215\n      tag_69\n      jump\t// in\n    tag_215:\n    tag_214:\n      swap1\n      0x00\n      mstore\n      keccak256(0x00, 0x20)\n      add\n      0x00\n      swap1\n      sload\n      swap1\n      0x0100\n      exp\n      swap1\n      div\n      0xffffffffffffffffffffffffffffffffffffffff\n      and\n        /* \"Lincloud/.deps/contract/contract.sol\":6055:6078  users_list[i].getUserId */\n      0xffffffffffffffffffffffffffffffffffffffff\n      and\n      0x2ebcb653\n        /* \"Lincloud/.deps/contract/contract.sol\":6055:6080  users_list[i].getUserId() */\n      mload(0x40)\n      dup2\n      0xffffffff\n      and\n      0xe0\n      shl\n      dup2\n      mstore\n      0x04\n      add\n      0x20\n      mload(0x40)\n      dup1\n      dup4\n      sub\n      dup2\n      dup7\n      gas\n      staticcall\n      iszero\n      dup1\n      iszero\n      tag_218\n      jumpi\n      returndatasize\n      0x00\n      dup1\n      returndatacopy\n      revert(0x00, returndatasize)\n    tag_218:\n      pop\n      pop\n      pop\n      pop\n      mload(0x40)\n      returndatasize\n      not(0x1f)\n      0x1f\n      dup3\n      add\n      and\n      dup3\n      add\n      dup1\n      0x40\n      mstore\n      pop\n      dup2\n      add\n      swap1\n      tag_219\n      swap2\n      swap1\n      tag_74\n      jump\t// in\n    tag_219:\n        /* \"Lincloud/.deps/contract/contract.sol\":6042:6049  userIDs */\n      dup3\n        /* \"Lincloud/.deps/contract/contract.sol\":6050:6051  i */\n      dup3\n        /* \"Lincloud/.deps/contract/contract.sol\":6042:6052  userIDs[i] */\n      dup2\n      mload\n      dup2\n      lt\n      tag_220\n      jumpi\n      tag_221\n      tag_69\n      jump\t// in\n    tag_221:\n    tag_220:\n      0x20\n      mul\n      0x20\n      add\n      add\n        /* \"Lincloud/.deps/contract/contract.sol\":6042:6080  userIDs[i] = users_list[i].getUserId() */\n      dup2\n      dup2\n      mstore\n      pop\n      pop\n        /* \"Lincloud/.deps/contract/contract.sol\":6022:6025  i++ */\n      dup1\n      dup1\n      0x01\n      add\n      swap2\n      pop\n      pop\n        /* \"Lincloud/.deps/contract/contract.sol\":5979:6092  for (uint256 i = 0; i < users_list.length; i++) {... */\n      jump(tag_211)\n    tag_212:\n      pop\n        /* \"Lincloud/.deps/contract/contract.sol\":6109:6116  userIDs */\n      dup1\n        /* \"Lincloud/.deps/contract/contract.sol\":6102:6116  return userIDs */\n      swap2\n      pop\n      pop\n        /* \"Lincloud/.deps/contract/contract.sol\":5836:6124  function getAllUsers() public view returns (uint256[] memory) {... */\n      swap1\n      jump\t// out\n        /* \"Lincloud/.deps/contract/contract.sol\":5208:5524  function closeUserContractNotify(uint256 userId) public {... */\n    tag_53:\n        /* \"Lincloud/.deps/contract/contract.sol\":5283:5302  isUserExist(userId) */\n      tag_223\n        /* \"Lincloud/.deps/contract/contract.sol\":5295:5301  userId */\n      dup2\n        /* \"Lincloud/.deps/contract/contract.sol\":5283:5294  isUserExist */\n      tag_60\n        /* \"Lincloud/.deps/contract/contract.sol\":5283:5302  isUserExist(userId) */\n      jump\t// in\n    tag_223:\n        /* \"Lincloud/.deps/contract/contract.sol\":5275:5325  require(isUserExist(userId), \"Utente non trovato\") */\n      tag_224\n      jumpi\n      mload(0x40)\n      0x08c379a000000000000000000000000000000000000000000000000000000000\n      dup2\n      mstore\n      0x04\n      add\n      tag_225\n      swap1\n      tag_63\n      jump\t// in\n    tag_225:\n      mload(0x40)\n      dup1\n      swap2\n      sub\n      swap1\n      revert\n    tag_224:\n        /* \"Lincloud/.deps/contract/contract.sol\":5341:5350  uint256 i */\n      0x00\n        /* \"Lincloud/.deps/contract/contract.sol\":5336:5517  for (uint256 i = 0; i < users_list.length; i++) {... */\n    tag_226:\n        /* \"Lincloud/.deps/contract/contract.sol\":5360:5370  users_list */\n      0x00\n        /* \"Lincloud/.deps/contract/contract.sol\":5360:5377  users_list.length */\n      dup1\n      sload\n      swap1\n      pop\n        /* \"Lincloud/.deps/contract/contract.sol\":5356:5357  i */\n      dup2\n        /* \"Lincloud/.deps/contract/contract.sol\":5356:5377  i < users_list.length */\n      lt\n        /* \"Lincloud/.deps/contract/contract.sol\":5336:5517  for (uint256 i = 0; i < users_list.length; i++) {... */\n      iszero\n      tag_227\n      jumpi\n        /* \"Lincloud/.deps/contract/contract.sol\":5430:5436  userId */\n      dup2\n        /* \"Lincloud/.deps/contract/contract.sol\":5403:5413  users_list */\n      0x00\n        /* \"Lincloud/.deps/contract/contract.sol\":5414:5415  i */\n      dup3\n        /* \"Lincloud/.deps/contract/contract.sol\":5403:5416  users_list[i] */\n      dup2\n      sload\n      dup2\n      lt\n      tag_229\n      jumpi\n      tag_230\n      tag_69\n      jump\t// in\n    tag_230:\n    tag_229:\n      swap1\n      0x00\n      mstore\n      keccak256(0x00, 0x20)\n      add\n      0x00\n      swap1\n      sload\n      swap1\n      0x0100\n      exp\n      swap1\n      div\n      0xffffffffffffffffffffffffffffffffffffffff\n      and\n        /* \"Lincloud/.deps/contract/contract.sol\":5403:5424  users_list[i].id_user */\n      0xffffffffffffffffffffffffffffffffffffffff\n      and\n      0x8cee71e0\n        /* \"Lincloud/.deps/contract/contract.sol\":5403:5426  users_list[i].id_user() */\n      mload(0x40)\n      dup2\n      0xffffffff\n      and\n      0xe0\n      shl\n      dup2\n      mstore\n      0x04\n      add\n      0x20\n      mload(0x40)\n      dup1\n      dup4\n      sub\n      dup2\n      dup7\n      gas\n      staticcall\n      iszero\n      dup1\n      iszero\n      tag_233\n      jumpi\n      returndatasize\n      0x00\n      dup1\n      returndatacopy\n      revert(0x00, returndatasize)\n    tag_233:\n      pop\n      pop\n      pop\n      pop\n      mload(0x40)\n      returndatasize\n      not(0x1f)\n      0x1f\n      dup3\n      add\n      and\n      dup3\n      add\n      dup1\n      0x40\n      mstore\n      pop\n      dup2\n      add\n      swap1\n      tag_234\n      swap2\n      swap1\n      tag_74\n      jump\t// in\n    tag_234:\n        /* \"Lincloud/.deps/contract/contract.sol\":5403:5436  users_list[i].id_user() == userId */\n      sub\n        /* \"Lincloud/.deps/contract/contract.sol\":5399:5506  if (users_list[i].id_user() == userId) {... */\n      tag_235\n      jumpi\n        /* \"Lincloud/.deps/contract/contract.sol\":5457:5467  users_list */\n      0x00\n        /* \"Lincloud/.deps/contract/contract.sol\":5468:5469  i */\n      dup2\n        /* \"Lincloud/.deps/contract/contract.sol\":5457:5470  users_list[i] */\n      dup2\n      sload\n      dup2\n      lt\n      tag_236\n      jumpi\n      tag_237\n      tag_69\n      jump\t// in\n    tag_237:\n    tag_236:\n      swap1\n      0x00\n      mstore\n      keccak256(0x00, 0x20)\n      add\n      0x00\n      swap1\n      sload\n      swap1\n      0x0100\n      exp\n      swap1\n      div\n      0xffffffffffffffffffffffffffffffffffffffff\n      and\n        /* \"Lincloud/.deps/contract/contract.sol\":5457:5488  users_list[i].closeUserContract */\n      0xffffffffffffffffffffffffffffffffffffffff\n      and\n      0x35254bcd\n        /* \"Lincloud/.deps/contract/contract.sol\":5457:5490  users_list[i].closeUserContract() */\n      mload(0x40)\n      dup2\n      0xffffffff\n      and\n      0xe0\n      shl\n      dup2\n      mstore\n      0x04\n      add\n      0x00\n      mload(0x40)\n      dup1\n      dup4\n      sub\n      dup2\n      0x00\n      dup8\n      dup1\n      extcodesize\n      iszero\n      dup1\n      iszero\n      tag_239\n      jumpi\n      0x00\n      dup1\n      revert\n    tag_239:\n      pop\n      gas\n      call\n      iszero\n      dup1\n      iszero\n      tag_241\n      jumpi\n      returndatasize\n      0x00\n      dup1\n      returndatacopy\n      revert(0x00, returndatasize)\n    tag_241:\n      pop\n      pop\n      pop\n      pop\n        /* \"Lincloud/.deps/contract/contract.sol\":5399:5506  if (users_list[i].id_user() == userId) {... */\n    tag_235:\n        /* \"Lincloud/.deps/contract/contract.sol\":5379:5382  i++ */\n      dup1\n      dup1\n      0x01\n      add\n      swap2\n      pop\n      pop\n        /* \"Lincloud/.deps/contract/contract.sol\":5336:5517  for (uint256 i = 0; i < users_list.length; i++) {... */\n      jump(tag_226)\n    tag_227:\n      pop\n        /* \"Lincloud/.deps/contract/contract.sol\":5208:5524  function closeUserContractNotify(uint256 userId) public {... */\n      pop\n      jump\t// out\n        /* \"Lincloud/.deps/contract/contract.sol\":6132:6594  function getAllRecipients(uint256 userId) public view returns (uint256[] memory){... */\n    tag_56:\n        /* \"Lincloud/.deps/contract/contract.sol\":6195:6211  uint256[] memory */\n      0x60\n        /* \"Lincloud/.deps/contract/contract.sol\":6231:6250  isUserExist(userId) */\n      tag_243\n        /* \"Lincloud/.deps/contract/contract.sol\":6243:6249  userId */\n      dup3\n        /* \"Lincloud/.deps/contract/contract.sol\":6231:6242  isUserExist */\n      tag_60\n        /* \"Lincloud/.deps/contract/contract.sol\":6231:6250  isUserExist(userId) */\n      jump\t// in\n    tag_243:\n        /* \"Lincloud/.deps/contract/contract.sol\":6223:6273  require(isUserExist(userId), \"Utente non trovato\") */\n      tag_244\n      jumpi\n      mload(0x40)\n      0x08c379a000000000000000000000000000000000000000000000000000000000\n      dup2\n      mstore\n      0x04\n      add\n      tag_245\n      swap1\n      tag_63\n      jump\t// in\n    tag_245:\n      mload(0x40)\n      dup1\n      swap2\n      sub\n      swap1\n      revert\n    tag_244:\n        /* \"Lincloud/.deps/contract/contract.sol\":6284:6314  uint256[] memory recipientsIds */\n      0x00\n        /* \"Lincloud/.deps/contract/contract.sol\":6331:6341  users_list */\n      dup1\n        /* \"Lincloud/.deps/contract/contract.sol\":6331:6348  users_list.length */\n      dup1\n      sload\n      swap1\n      pop\n        /* \"Lincloud/.deps/contract/contract.sol\":6317:6349  new uint256[](users_list.length) */\n      0xffffffffffffffff\n      dup2\n      gt\n      iszero\n      tag_246\n      jumpi\n      tag_247\n      tag_153\n      jump\t// in\n    tag_247:\n    tag_246:\n      mload(0x40)\n      swap1\n      dup1\n      dup3\n      mstore\n      dup1\n      0x20\n      mul\n      0x20\n      add\n      dup3\n      add\n      0x40\n      mstore\n      dup1\n      iszero\n      tag_248\n      jumpi\n      dup2\n      0x20\n      add\n      0x20\n      dup3\n      mul\n      dup1\n      calldatasize\n      dup4\n      calldatacopy\n      dup1\n      dup3\n      add\n      swap2\n      pop\n      pop\n      swap1\n      pop\n    tag_248:\n      pop\n        /* \"Lincloud/.deps/contract/contract.sol\":6284:6349  uint256[] memory recipientsIds = new uint256[](users_list.length) */\n      swap1\n      pop\n        /* \"Lincloud/.deps/contract/contract.sol\":6365:6374  uint256 i */\n      0x00\n        /* \"Lincloud/.deps/contract/contract.sol\":6360:6556  for (uint256 i = 0; i < users_list.length; i++) {... */\n    tag_249:\n        /* \"Lincloud/.deps/contract/contract.sol\":6384:6394  users_list */\n      0x00\n        /* \"Lincloud/.deps/contract/contract.sol\":6384:6401  users_list.length */\n      dup1\n      sload\n      swap1\n      pop\n        /* \"Lincloud/.deps/contract/contract.sol\":6380:6381  i */\n      dup2\n        /* \"Lincloud/.deps/contract/contract.sol\":6380:6401  i < users_list.length */\n      lt\n        /* \"Lincloud/.deps/contract/contract.sol\":6360:6556  for (uint256 i = 0; i < users_list.length; i++) {... */\n      iszero\n      tag_250\n      jumpi\n        /* \"Lincloud/.deps/contract/contract.sol\":6454:6460  userId */\n      dup4\n        /* \"Lincloud/.deps/contract/contract.sol\":6427:6437  users_list */\n      0x00\n        /* \"Lincloud/.deps/contract/contract.sol\":6438:6439  i */\n      dup3\n        /* \"Lincloud/.deps/contract/contract.sol\":6427:6440  users_list[i] */\n      dup2\n      sload\n      dup2\n      lt\n      tag_252\n      jumpi\n      tag_253\n      tag_69\n      jump\t// in\n    tag_253:\n    tag_252:\n      swap1\n      0x00\n      mstore\n      keccak256(0x00, 0x20)\n      add\n      0x00\n      swap1\n      sload\n      swap1\n      0x0100\n      exp\n      swap1\n      div\n      0xffffffffffffffffffffffffffffffffffffffff\n      and\n        /* \"Lincloud/.deps/contract/contract.sol\":6427:6448  users_list[i].id_user */\n      0xffffffffffffffffffffffffffffffffffffffff\n      and\n      0x8cee71e0\n        /* \"Lincloud/.deps/contract/contract.sol\":6427:6450  users_list[i].id_user() */\n      mload(0x40)\n      dup2\n      0xffffffff\n      and\n      0xe0\n      shl\n      dup2\n      mstore\n      0x04\n      add\n      0x20\n      mload(0x40)\n      dup1\n      dup4\n      sub\n      dup2\n      dup7\n      gas\n      staticcall\n      iszero\n      dup1\n      iszero\n      tag_256\n      jumpi\n      returndatasize\n      0x00\n      dup1\n      returndatacopy\n      revert(0x00, returndatasize)\n    tag_256:\n      pop\n      pop\n      pop\n      pop\n      mload(0x40)\n      returndatasize\n      not(0x1f)\n      0x1f\n      dup3\n      add\n      and\n      dup3\n      add\n      dup1\n      0x40\n      mstore\n      pop\n      dup2\n      add\n      swap1\n      tag_257\n      swap2\n      swap1\n      tag_74\n      jump\t// in\n    tag_257:\n        /* \"Lincloud/.deps/contract/contract.sol\":6427:6460  users_list[i].id_user() == userId */\n      sub\n        /* \"Lincloud/.deps/contract/contract.sol\":6423:6545  if (users_list[i].id_user() == userId) {... */\n      tag_258\n      jumpi\n        /* \"Lincloud/.deps/contract/contract.sol\":6497:6507  users_list */\n      0x00\n        /* \"Lincloud/.deps/contract/contract.sol\":6508:6509  i */\n      dup2\n        /* \"Lincloud/.deps/contract/contract.sol\":6497:6510  users_list[i] */\n      dup2\n      sload\n      dup2\n      lt\n      tag_259\n      jumpi\n      tag_260\n      tag_69\n      jump\t// in\n    tag_260:\n    tag_259:\n      swap1\n      0x00\n      mstore\n      keccak256(0x00, 0x20)\n      add\n      0x00\n      swap1\n      sload\n      swap1\n      0x0100\n      exp\n      swap1\n      div\n      0xffffffffffffffffffffffffffffffffffffffff\n      and\n        /* \"Lincloud/.deps/contract/contract.sol\":6497:6527  users_list[i].getAllRecipients */\n      0xffffffffffffffffffffffffffffffffffffffff\n      and\n      0xb74513c1\n        /* \"Lincloud/.deps/contract/contract.sol\":6497:6529  users_list[i].getAllRecipients() */\n      mload(0x40)\n      dup2\n      0xffffffff\n      and\n      0xe0\n      shl\n      dup2\n      mstore\n      0x04\n      add\n      0x00\n      mload(0x40)\n      dup1\n      dup4\n      sub\n      dup2\n      dup7\n      gas\n      staticcall\n      iszero\n      dup1\n      iszero\n      tag_263\n      jumpi\n      returndatasize\n      0x00\n      dup1\n      returndatacopy\n      revert(0x00, returndatasize)\n    tag_263:\n      pop\n      pop\n      pop\n      pop\n      mload(0x40)\n      returndatasize\n      0x00\n      dup3\n      returndatacopy\n      returndatasize\n      not(0x1f)\n      0x1f\n      dup3\n      add\n      and\n      dup3\n      add\n      dup1\n      0x40\n      mstore\n      pop\n      dup2\n      add\n      swap1\n      tag_264\n      swap2\n      swap1\n      tag_171\n      jump\t// in\n    tag_264:\n        /* \"Lincloud/.deps/contract/contract.sol\":6481:6529  recipientsIds = users_list[i].getAllRecipients() */\n      swap2\n      pop\n        /* \"Lincloud/.deps/contract/contract.sol\":6423:6545  if (users_list[i].id_user() == userId) {... */\n    tag_258:\n        /* \"Lincloud/.deps/contract/contract.sol\":6403:6406  i++ */\n      dup1\n      dup1\n      0x01\n      add\n      swap2\n      pop\n      pop\n        /* \"Lincloud/.deps/contract/contract.sol\":6360:6556  for (uint256 i = 0; i < users_list.length; i++) {... */\n      jump(tag_249)\n    tag_250:\n      pop\n        /* \"Lincloud/.deps/contract/contract.sol\":6573:6586  recipientsIds */\n      dup1\n        /* \"Lincloud/.deps/contract/contract.sol\":6566:6586  return recipientsIds */\n      swap2\n      pop\n      pop\n        /* \"Lincloud/.deps/contract/contract.sol\":6132:6594  function getAllRecipients(uint256 userId) public view returns (uint256[] memory){... */\n      swap2\n      swap1\n      pop\n      jump\t// out\n        /* \"Lincloud/.deps/contract/contract.sol\":5562:5828  function isUserExist(uint256 userId) internal view returns (bool) {... */\n    tag_60:\n        /* \"Lincloud/.deps/contract/contract.sol\":5622:5626  bool */\n      0x00\n        /* \"Lincloud/.deps/contract/contract.sol\":5644:5653  uint256 i */\n      dup1\n        /* \"Lincloud/.deps/contract/contract.sol\":5656:5657  0 */\n      0x00\n        /* \"Lincloud/.deps/contract/contract.sol\":5644:5657  uint256 i = 0 */\n      swap1\n      pop\n        /* \"Lincloud/.deps/contract/contract.sol\":5639:5798  for (uint256 i = 0; i < users_list.length; i++) {... */\n    tag_266:\n        /* \"Lincloud/.deps/contract/contract.sol\":5663:5673  users_list */\n      0x00\n        /* \"Lincloud/.deps/contract/contract.sol\":5663:5680  users_list.length */\n      dup1\n      sload\n      swap1\n      pop\n        /* \"Lincloud/.deps/contract/contract.sol\":5659:5660  i */\n      dup2\n        /* \"Lincloud/.deps/contract/contract.sol\":5659:5680  i < users_list.length */\n      lt\n        /* \"Lincloud/.deps/contract/contract.sol\":5639:5798  for (uint256 i = 0; i < users_list.length; i++) {... */\n      iszero\n      tag_267\n      jumpi\n        /* \"Lincloud/.deps/contract/contract.sol\":5733:5739  userId */\n      dup3\n        /* \"Lincloud/.deps/contract/contract.sol\":5706:5716  users_list */\n      0x00\n        /* \"Lincloud/.deps/contract/contract.sol\":5717:5718  i */\n      dup3\n        /* \"Lincloud/.deps/contract/contract.sol\":5706:5719  users_list[i] */\n      dup2\n      sload\n      dup2\n      lt\n      tag_269\n      jumpi\n      tag_270\n      tag_69\n      jump\t// in\n    tag_270:\n    tag_269:\n      swap1\n      0x00\n      mstore\n      keccak256(0x00, 0x20)\n      add\n      0x00\n      swap1\n      sload\n      swap1\n      0x0100\n      exp\n      swap1\n      div\n      0xffffffffffffffffffffffffffffffffffffffff\n      and\n        /* \"Lincloud/.deps/contract/contract.sol\":5706:5727  users_list[i].id_user */\n      0xffffffffffffffffffffffffffffffffffffffff\n      and\n      0x8cee71e0\n        /* \"Lincloud/.deps/contract/contract.sol\":5706:5729  users_list[i].id_user() */\n      mload(0x40)\n      dup2\n      0xffffffff\n      and\n      0xe0\n      shl\n      dup2\n      mstore\n      0x04\n      add\n      0x20\n      mload(0x40)\n      dup1\n      dup4\n      sub\n      dup2\n      dup7\n      gas\n      staticcall\n      iszero\n      dup1\n      iszero\n      tag_273\n      jumpi\n      returndatasize\n      0x00\n      dup1\n      returndatacopy\n      revert(0x00, returndatasize)\n    tag_273:\n      pop\n      pop\n      pop\n      pop\n      mload(0x40)\n      returndatasize\n      not(0x1f)\n      0x1f\n      dup3\n      add\n      and\n      dup3\n      add\n      dup1\n      0x40\n      mstore\n      pop\n      dup2\n      add\n      swap1\n      tag_274\n      swap2\n      swap1\n      tag_74\n      jump\t// in\n    tag_274:\n        /* \"Lincloud/.deps/contract/contract.sol\":5706:5739  users_list[i].id_user() == userId */\n      sub\n        /* \"Lincloud/.deps/contract/contract.sol\":5702:5787  if (users_list[i].id_user() == userId) {... */\n      tag_275\n      jumpi\n        /* \"Lincloud/.deps/contract/contract.sol\":5767:5771  true */\n      0x01\n        /* \"Lincloud/.deps/contract/contract.sol\":5760:5771  return true */\n      swap2\n      pop\n      pop\n      jump(tag_265)\n        /* \"Lincloud/.deps/contract/contract.sol\":5702:5787  if (users_list[i].id_user() == userId) {... */\n    tag_275:\n        /* \"Lincloud/.deps/contract/contract.sol\":5682:5685  i++ */\n      dup1\n      dup1\n      0x01\n      add\n      swap2\n      pop\n      pop\n        /* \"Lincloud/.deps/contract/contract.sol\":5639:5798  for (uint256 i = 0; i < users_list.length; i++) {... */\n      jump(tag_266)\n    tag_267:\n      pop\n        /* \"Lincloud/.deps/contract/contract.sol\":5815:5820  false */\n      0x00\n        /* \"Lincloud/.deps/contract/contract.sol\":5808:5820  return false */\n      swap1\n      pop\n        /* \"Lincloud/.deps/contract/contract.sol\":5562:5828  function isUserExist(uint256 userId) internal view returns (bool) {... */\n    tag_265:\n      swap2\n      swap1\n      pop\n      jump\t// out\n    tag_202:\n      dataSize(sub_0)\n      dup1\n      dataOffset(sub_0)\n      dup4\n      codecopy\n      add\n      swap1\n      jump\t// out\n        /* \"#utility.yul\":7:82   */\n    tag_276:\n        /* \"#utility.yul\":40:46   */\n      0x00\n        /* \"#utility.yul\":73:75   */\n      0x40\n        /* \"#utility.yul\":67:76   */\n      mload\n        /* \"#utility.yul\":57:76   */\n      swap1\n      pop\n        /* \"#utility.yul\":7:82   */\n      swap1\n      jump\t// out\n        /* \"#utility.yul\":88:205   */\n    tag_277:\n        /* \"#utility.yul\":197:198   */\n      0x00\n        /* \"#utility.yul\":194:195   */\n      dup1\n        /* \"#utility.yul\":187:199   */\n      revert\n        /* \"#utility.yul\":211:328   */\n    tag_278:\n        /* \"#utility.yul\":320:321   */\n      0x00\n        /* \"#utility.yul\":317:318   */\n      dup1\n        /* \"#utility.yul\":310:322   */\n      revert\n        /* \"#utility.yul\":334:411   */\n    tag_279:\n        /* \"#utility.yul\":371:378   */\n      0x00\n        /* \"#utility.yul\":400:405   */\n      dup2\n        /* \"#utility.yul\":389:405   */\n      swap1\n      pop\n        /* \"#utility.yul\":334:411   */\n      swap2\n      swap1\n      pop\n      jump\t// out\n        /* \"#utility.yul\":417:539   */\n    tag_280:\n        /* \"#utility.yul\":490:514   */\n      tag_332\n        /* \"#utility.yul\":508:513   */\n      dup2\n        /* \"#utility.yul\":490:514   */\n      tag_279\n      jump\t// in\n    tag_332:\n        /* \"#utility.yul\":483:488   */\n      dup2\n        /* \"#utility.yul\":480:515   */\n      eq\n        /* \"#utility.yul\":470:533   */\n      tag_333\n      jumpi\n        /* \"#utility.yul\":529:530   */\n      0x00\n        /* \"#utility.yul\":526:527   */\n      dup1\n        /* \"#utility.yul\":519:531   */\n      revert\n        /* \"#utility.yul\":470:533   */\n    tag_333:\n        /* \"#utility.yul\":417:539   */\n      pop\n      jump\t// out\n        /* \"#utility.yul\":545:684   */\n    tag_281:\n        /* \"#utility.yul\":591:596   */\n      0x00\n        /* \"#utility.yul\":629:635   */\n      dup2\n        /* \"#utility.yul\":616:636   */\n      calldataload\n        /* \"#utility.yul\":607:636   */\n      swap1\n      pop\n        /* \"#utility.yul\":645:678   */\n      tag_335\n        /* \"#utility.yul\":672:677   */\n      dup2\n        /* \"#utility.yul\":645:678   */\n      tag_280\n      jump\t// in\n    tag_335:\n        /* \"#utility.yul\":545:684   */\n      swap3\n      swap2\n      pop\n      pop\n      jump\t// out\n        /* \"#utility.yul\":690:1164   */\n    tag_17:\n        /* \"#utility.yul\":758:764   */\n      0x00\n        /* \"#utility.yul\":766:772   */\n      dup1\n        /* \"#utility.yul\":815:817   */\n      0x40\n        /* \"#utility.yul\":803:812   */\n      dup4\n        /* \"#utility.yul\":794:801   */\n      dup6\n        /* \"#utility.yul\":790:813   */\n      sub\n        /* \"#utility.yul\":786:818   */\n      slt\n        /* \"#utility.yul\":783:902   */\n      iszero\n      tag_337\n      jumpi\n        /* \"#utility.yul\":821:900   */\n      tag_338\n      tag_277\n      jump\t// in\n    tag_338:\n        /* \"#utility.yul\":783:902   */\n    tag_337:\n        /* \"#utility.yul\":941:942   */\n      0x00\n        /* \"#utility.yul\":966:1019   */\n      tag_339\n        /* \"#utility.yul\":1011:1018   */\n      dup6\n        /* \"#utility.yul\":1002:1008   */\n      dup3\n        /* \"#utility.yul\":991:1000   */\n      dup7\n        /* \"#utility.yul\":987:1009   */\n      add\n        /* \"#utility.yul\":966:1019   */\n      tag_281\n      jump\t// in\n    tag_339:\n        /* \"#utility.yul\":956:1019   */\n      swap3\n      pop\n        /* \"#utility.yul\":912:1029   */\n      pop\n        /* \"#utility.yul\":1068:1070   */\n      0x20\n        /* \"#utility.yul\":1094:1147   */\n      tag_340\n        /* \"#utility.yul\":1139:1146   */\n      dup6\n        /* \"#utility.yul\":1130:1136   */\n      dup3\n        /* \"#utility.yul\":1119:1128   */\n      dup7\n        /* \"#utility.yul\":1115:1137   */\n      add\n        /* \"#utility.yul\":1094:1147   */\n      tag_281\n      jump\t// in\n    tag_340:\n        /* \"#utility.yul\":1084:1147   */\n      swap2\n      pop\n        /* \"#utility.yul\":1039:1157   */\n      pop\n        /* \"#utility.yul\":690:1164   */\n      swap3\n      pop\n      swap3\n      swap1\n      pop\n      jump\t// out\n        /* \"#utility.yul\":1170:1499   */\n    tag_24:\n        /* \"#utility.yul\":1229:1235   */\n      0x00\n        /* \"#utility.yul\":1278:1280   */\n      0x20\n        /* \"#utility.yul\":1266:1275   */\n      dup3\n        /* \"#utility.yul\":1257:1264   */\n      dup5\n        /* \"#utility.yul\":1253:1276   */\n      sub\n        /* \"#utility.yul\":1249:1281   */\n      slt\n        /* \"#utility.yul\":1246:1365   */\n      iszero\n      tag_342\n      jumpi\n        /* \"#utility.yul\":1284:1363   */\n      tag_343\n      tag_277\n      jump\t// in\n    tag_343:\n        /* \"#utility.yul\":1246:1365   */\n    tag_342:\n        /* \"#utility.yul\":1404:1405   */\n      0x00\n        /* \"#utility.yul\":1429:1482   */\n      tag_344\n        /* \"#utility.yul\":1474:1481   */\n      dup5\n        /* \"#utility.yul\":1465:1471   */\n      dup3\n        /* \"#utility.yul\":1454:1463   */\n      dup6\n        /* \"#utility.yul\":1450:1472   */\n      add\n        /* \"#utility.yul\":1429:1482   */\n      tag_281\n      jump\t// in\n    tag_344:\n        /* \"#utility.yul\":1419:1482   */\n      swap2\n      pop\n        /* \"#utility.yul\":1375:1492   */\n      pop\n        /* \"#utility.yul\":1170:1499   */\n      swap3\n      swap2\n      pop\n      pop\n      jump\t// out\n        /* \"#utility.yul\":1505:1622   */\n    tag_282:\n        /* \"#utility.yul\":1614:1615   */\n      0x00\n        /* \"#utility.yul\":1611:1612   */\n      dup1\n        /* \"#utility.yul\":1604:1616   */\n      revert\n        /* \"#utility.yul\":1628:1745   */\n    tag_283:\n        /* \"#utility.yul\":1737:1738   */\n      0x00\n        /* \"#utility.yul\":1734:1735   */\n      dup1\n        /* \"#utility.yul\":1727:1739   */\n      revert\n        /* \"#utility.yul\":1751:1853   */\n    tag_284:\n        /* \"#utility.yul\":1792:1798   */\n      0x00\n        /* \"#utility.yul\":1843:1845   */\n      0x1f\n        /* \"#utility.yul\":1839:1846   */\n      not\n        /* \"#utility.yul\":1834:1836   */\n      0x1f\n        /* \"#utility.yul\":1827:1832   */\n      dup4\n        /* \"#utility.yul\":1823:1837   */\n      add\n        /* \"#utility.yul\":1819:1847   */\n      and\n        /* \"#utility.yul\":1809:1847   */\n      swap1\n      pop\n        /* \"#utility.yul\":1751:1853   */\n      swap2\n      swap1\n      pop\n      jump\t// out\n        /* \"#utility.yul\":1859:2039   */\n    tag_153:\n        /* \"#utility.yul\":1907:1984   */\n      0x4e487b7100000000000000000000000000000000000000000000000000000000\n        /* \"#utility.yul\":1904:1905   */\n      0x00\n        /* \"#utility.yul\":1897:1985   */\n      mstore\n        /* \"#utility.yul\":2004:2008   */\n      0x41\n        /* \"#utility.yul\":2001:2002   */\n      0x04\n        /* \"#utility.yul\":1994:2009   */\n      mstore\n        /* \"#utility.yul\":2028:2032   */\n      0x24\n        /* \"#utility.yul\":2025:2026   */\n      0x00\n        /* \"#utility.yul\":2018:2033   */\n      revert\n        /* \"#utility.yul\":2045:2326   */\n    tag_285:\n        /* \"#utility.yul\":2128:2155   */\n      tag_350\n        /* \"#utility.yul\":2150:2154   */\n      dup3\n        /* \"#utility.yul\":2128:2155   */\n      tag_284\n      jump\t// in\n    tag_350:\n        /* \"#utility.yul\":2120:2126   */\n      dup2\n        /* \"#utility.yul\":2116:2156   */\n      add\n        /* \"#utility.yul\":2258:2264   */\n      dup2\n        /* \"#utility.yul\":2246:2256   */\n      dup2\n        /* \"#utility.yul\":2243:2265   */\n      lt\n        /* \"#utility.yul\":2222:2240   */\n      0xffffffffffffffff\n        /* \"#utility.yul\":2210:2220   */\n      dup3\n        /* \"#utility.yul\":2207:2241   */\n      gt\n        /* \"#utility.yul\":2204:2266   */\n      or\n        /* \"#utility.yul\":2201:2289   */\n      iszero\n      tag_351\n      jumpi\n        /* \"#utility.yul\":2269:2287   */\n      tag_352\n      tag_153\n      jump\t// in\n    tag_352:\n        /* \"#utility.yul\":2201:2289   */\n    tag_351:\n        /* \"#utility.yul\":2309:2319   */\n      dup1\n        /* \"#utility.yul\":2305:2307   */\n      0x40\n        /* \"#utility.yul\":2298:2320   */\n      mstore\n        /* \"#utility.yul\":2088:2326   */\n      pop\n        /* \"#utility.yul\":2045:2326   */\n      pop\n      pop\n      jump\t// out\n        /* \"#utility.yul\":2332:2461   */\n    tag_286:\n        /* \"#utility.yul\":2366:2372   */\n      0x00\n        /* \"#utility.yul\":2393:2413   */\n      tag_354\n      tag_276\n      jump\t// in\n    tag_354:\n        /* \"#utility.yul\":2383:2413   */\n      swap1\n      pop\n        /* \"#utility.yul\":2422:2455   */\n      tag_355\n        /* \"#utility.yul\":2450:2454   */\n      dup3\n        /* \"#utility.yul\":2442:2448   */\n      dup3\n        /* \"#utility.yul\":2422:2455   */\n      tag_285\n      jump\t// in\n    tag_355:\n        /* \"#utility.yul\":2332:2461   */\n      swap2\n      swap1\n      pop\n      jump\t// out\n        /* \"#utility.yul\":2467:2775   */\n    tag_287:\n        /* \"#utility.yul\":2529:2533   */\n      0x00\n        /* \"#utility.yul\":2619:2637   */\n      0xffffffffffffffff\n        /* \"#utility.yul\":2611:2617   */\n      dup3\n        /* \"#utility.yul\":2608:2638   */\n      gt\n        /* \"#utility.yul\":2605:2661   */\n      iszero\n      tag_357\n      jumpi\n        /* \"#utility.yul\":2641:2659   */\n      tag_358\n      tag_153\n      jump\t// in\n    tag_358:\n        /* \"#utility.yul\":2605:2661   */\n    tag_357:\n        /* \"#utility.yul\":2679:2708   */\n      tag_359\n        /* \"#utility.yul\":2701:2707   */\n      dup3\n        /* \"#utility.yul\":2679:2708   */\n      tag_284\n      jump\t// in\n    tag_359:\n        /* \"#utility.yul\":2671:2708   */\n      swap1\n      pop\n        /* \"#utility.yul\":2763:2767   */\n      0x20\n        /* \"#utility.yul\":2757:2761   */\n      dup2\n        /* \"#utility.yul\":2753:2768   */\n      add\n        /* \"#utility.yul\":2745:2768   */\n      swap1\n      pop\n        /* \"#utility.yul\":2467:2775   */\n      swap2\n      swap1\n      pop\n      jump\t// out\n        /* \"#utility.yul\":2781:2927   */\n    tag_288:\n        /* \"#utility.yul\":2878:2884   */\n      dup3\n        /* \"#utility.yul\":2873:2876   */\n      dup2\n        /* \"#utility.yul\":2868:2871   */\n      dup4\n        /* \"#utility.yul\":2855:2885   */\n      calldatacopy\n        /* \"#utility.yul\":2919:2920   */\n      0x00\n        /* \"#utility.yul\":2910:2916   */\n      dup4\n        /* \"#utility.yul\":2905:2908   */\n      dup4\n        /* \"#utility.yul\":2901:2917   */\n      add\n        /* \"#utility.yul\":2894:2921   */\n      mstore\n        /* \"#utility.yul\":2781:2927   */\n      pop\n      pop\n      pop\n      jump\t// out\n        /* \"#utility.yul\":2933:3358   */\n    tag_289:\n        /* \"#utility.yul\":3011:3016   */\n      0x00\n        /* \"#utility.yul\":3036:3102   */\n      tag_362\n        /* \"#utility.yul\":3052:3101   */\n      tag_363\n        /* \"#utility.yul\":3094:3100   */\n      dup5\n        /* \"#utility.yul\":3052:3101   */\n      tag_287\n      jump\t// in\n    tag_363:\n        /* \"#utility.yul\":3036:3102   */\n      tag_286\n      jump\t// in\n    tag_362:\n        /* \"#utility.yul\":3027:3102   */\n      swap1\n      pop\n        /* \"#utility.yul\":3125:3131   */\n      dup3\n        /* \"#utility.yul\":3118:3123   */\n      dup2\n        /* \"#utility.yul\":3111:3132   */\n      mstore\n        /* \"#utility.yul\":3163:3167   */\n      0x20\n        /* \"#utility.yul\":3156:3161   */\n      dup2\n        /* \"#utility.yul\":3152:3168   */\n      add\n        /* \"#utility.yul\":3201:3204   */\n      dup5\n        /* \"#utility.yul\":3192:3198   */\n      dup5\n        /* \"#utility.yul\":3187:3190   */\n      dup5\n        /* \"#utility.yul\":3183:3199   */\n      add\n        /* \"#utility.yul\":3180:3205   */\n      gt\n        /* \"#utility.yul\":3177:3289   */\n      iszero\n      tag_364\n      jumpi\n        /* \"#utility.yul\":3208:3287   */\n      tag_365\n      tag_283\n      jump\t// in\n    tag_365:\n        /* \"#utility.yul\":3177:3289   */\n    tag_364:\n        /* \"#utility.yul\":3298:3352   */\n      tag_366\n        /* \"#utility.yul\":3345:3351   */\n      dup5\n        /* \"#utility.yul\":3340:3343   */\n      dup3\n        /* \"#utility.yul\":3335:3338   */\n      dup6\n        /* \"#utility.yul\":3298:3352   */\n      tag_288\n      jump\t// in\n    tag_366:\n        /* \"#utility.yul\":3017:3358   */\n      pop\n        /* \"#utility.yul\":2933:3358   */\n      swap4\n      swap3\n      pop\n      pop\n      pop\n      jump\t// out\n        /* \"#utility.yul\":3378:3718   */\n    tag_290:\n        /* \"#utility.yul\":3434:3439   */\n      0x00\n        /* \"#utility.yul\":3483:3486   */\n      dup3\n        /* \"#utility.yul\":3476:3480   */\n      0x1f\n        /* \"#utility.yul\":3468:3474   */\n      dup4\n        /* \"#utility.yul\":3464:3481   */\n      add\n        /* \"#utility.yul\":3460:3487   */\n      slt\n        /* \"#utility.yul\":3450:3572   */\n      tag_368\n      jumpi\n        /* \"#utility.yul\":3491:3570   */\n      tag_369\n      tag_282\n      jump\t// in\n    tag_369:\n        /* \"#utility.yul\":3450:3572   */\n    tag_368:\n        /* \"#utility.yul\":3608:3614   */\n      dup2\n        /* \"#utility.yul\":3595:3615   */\n      calldataload\n        /* \"#utility.yul\":3633:3712   */\n      tag_370\n        /* \"#utility.yul\":3708:3711   */\n      dup5\n        /* \"#utility.yul\":3700:3706   */\n      dup3\n        /* \"#utility.yul\":3693:3697   */\n      0x20\n        /* \"#utility.yul\":3685:3691   */\n      dup7\n        /* \"#utility.yul\":3681:3698   */\n      add\n        /* \"#utility.yul\":3633:3712   */\n      tag_289\n      jump\t// in\n    tag_370:\n        /* \"#utility.yul\":3624:3712   */\n      swap2\n      pop\n        /* \"#utility.yul\":3440:3718   */\n      pop\n        /* \"#utility.yul\":3378:3718   */\n      swap3\n      swap2\n      pop\n      pop\n      jump\t// out\n        /* \"#utility.yul\":3724:4523   */\n    tag_28:\n        /* \"#utility.yul\":3811:3817   */\n      0x00\n        /* \"#utility.yul\":3819:3825   */\n      dup1\n        /* \"#utility.yul\":3827:3833   */\n      0x00\n        /* \"#utility.yul\":3876:3878   */\n      0x60\n        /* \"#utility.yul\":3864:3873   */\n      dup5\n        /* \"#utility.yul\":3855:3862   */\n      dup7\n        /* \"#utility.yul\":3851:3874   */\n      sub\n        /* \"#utility.yul\":3847:3879   */\n      slt\n        /* \"#utility.yul\":3844:3963   */\n      iszero\n      tag_372\n      jumpi\n        /* \"#utility.yul\":3882:3961   */\n      tag_373\n      tag_277\n      jump\t// in\n    tag_373:\n        /* \"#utility.yul\":3844:3963   */\n    tag_372:\n        /* \"#utility.yul\":4002:4003   */\n      0x00\n        /* \"#utility.yul\":4027:4080   */\n      tag_374\n        /* \"#utility.yul\":4072:4079   */\n      dup7\n        /* \"#utility.yul\":4063:4069   */\n      dup3\n        /* \"#utility.yul\":4052:4061   */\n      dup8\n        /* \"#utility.yul\":4048:4070   */\n      add\n        /* \"#utility.yul\":4027:4080   */\n      tag_281\n      jump\t// in\n    tag_374:\n        /* \"#utility.yul\":4017:4080   */\n      swap4\n      pop\n        /* \"#utility.yul\":3973:4090   */\n      pop\n        /* \"#utility.yul\":4129:4131   */\n      0x20\n        /* \"#utility.yul\":4155:4208   */\n      tag_375\n        /* \"#utility.yul\":4200:4207   */\n      dup7\n        /* \"#utility.yul\":4191:4197   */\n      dup3\n        /* \"#utility.yul\":4180:4189   */\n      dup8\n        /* \"#utility.yul\":4176:4198   */\n      add\n        /* \"#utility.yul\":4155:4208   */\n      tag_281\n      jump\t// in\n    tag_375:\n        /* \"#utility.yul\":4145:4208   */\n      swap3\n      pop\n        /* \"#utility.yul\":4100:4218   */\n      pop\n        /* \"#utility.yul\":4285:4287   */\n      0x40\n        /* \"#utility.yul\":4274:4283   */\n      dup5\n        /* \"#utility.yul\":4270:4288   */\n      add\n        /* \"#utility.yul\":4257:4289   */\n      calldataload\n        /* \"#utility.yul\":4316:4334   */\n      0xffffffffffffffff\n        /* \"#utility.yul\":4308:4314   */\n      dup2\n        /* \"#utility.yul\":4305:4335   */\n      gt\n        /* \"#utility.yul\":4302:4419   */\n      iszero\n      tag_376\n      jumpi\n        /* \"#utility.yul\":4338:4417   */\n      tag_377\n      tag_278\n      jump\t// in\n    tag_377:\n        /* \"#utility.yul\":4302:4419   */\n    tag_376:\n        /* \"#utility.yul\":4443:4506   */\n      tag_378\n        /* \"#utility.yul\":4498:4505   */\n      dup7\n        /* \"#utility.yul\":4489:4495   */\n      dup3\n        /* \"#utility.yul\":4478:4487   */\n      dup8\n        /* \"#utility.yul\":4474:4496   */\n      add\n        /* \"#utility.yul\":4443:4506   */\n      tag_290\n      jump\t// in\n    tag_378:\n        /* \"#utility.yul\":4433:4506   */\n      swap2\n      pop\n        /* \"#utility.yul\":4228:4516   */\n      pop\n        /* \"#utility.yul\":3724:4523   */\n      swap3\n      pop\n      swap3\n      pop\n      swap3\n      jump\t// out\n        /* \"#utility.yul\":4529:4643   */\n    tag_291:\n        /* \"#utility.yul\":4596:4602   */\n      0x00\n        /* \"#utility.yul\":4630:4635   */\n      dup2\n        /* \"#utility.yul\":4624:4636   */\n      mload\n        /* \"#utility.yul\":4614:4636   */\n      swap1\n      pop\n        /* \"#utility.yul\":4529:4643   */\n      swap2\n      swap1\n      pop\n      jump\t// out\n        /* \"#utility.yul\":4649:4833   */\n    tag_292:\n        /* \"#utility.yul\":4748:4759   */\n      0x00\n        /* \"#utility.yul\":4782:4788   */\n      dup3\n        /* \"#utility.yul\":4777:4780   */\n      dup3\n        /* \"#utility.yul\":4770:4789   */\n      mstore\n        /* \"#utility.yul\":4822:4826   */\n      0x20\n        /* \"#utility.yul\":4817:4820   */\n      dup3\n        /* \"#utility.yul\":4813:4827   */\n      add\n        /* \"#utility.yul\":4798:4827   */\n      swap1\n      pop\n        /* \"#utility.yul\":4649:4833   */\n      swap3\n      swap2\n      pop\n      pop\n      jump\t// out\n        /* \"#utility.yul\":4839:4971   */\n    tag_293:\n        /* \"#utility.yul\":4906:4910   */\n      0x00\n        /* \"#utility.yul\":4929:4932   */\n      dup2\n        /* \"#utility.yul\":4921:4932   */\n      swap1\n      pop\n        /* \"#utility.yul\":4959:4963   */\n      0x20\n        /* \"#utility.yul\":4954:4957   */\n      dup3\n        /* \"#utility.yul\":4950:4964   */\n      add\n        /* \"#utility.yul\":4942:4964   */\n      swap1\n      pop\n        /* \"#utility.yul\":4839:4971   */\n      swap2\n      swap1\n      pop\n      jump\t// out\n        /* \"#utility.yul\":4977:5085   */\n    tag_294:\n        /* \"#utility.yul\":5054:5078   */\n      tag_383\n        /* \"#utility.yul\":5072:5077   */\n      dup2\n        /* \"#utility.yul\":5054:5078   */\n      tag_279\n      jump\t// in\n    tag_383:\n        /* \"#utility.yul\":5049:5052   */\n      dup3\n        /* \"#utility.yul\":5042:5079   */\n      mstore\n        /* \"#utility.yul\":4977:5085   */\n      pop\n      pop\n      jump\t// out\n        /* \"#utility.yul\":5091:5270   */\n    tag_295:\n        /* \"#utility.yul\":5160:5170   */\n      0x00\n        /* \"#utility.yul\":5181:5227   */\n      tag_385\n        /* \"#utility.yul\":5223:5226   */\n      dup4\n        /* \"#utility.yul\":5215:5221   */\n      dup4\n        /* \"#utility.yul\":5181:5227   */\n      tag_294\n      jump\t// in\n    tag_385:\n        /* \"#utility.yul\":5259:5263   */\n      0x20\n        /* \"#utility.yul\":5254:5257   */\n      dup4\n        /* \"#utility.yul\":5250:5264   */\n      add\n        /* \"#utility.yul\":5236:5264   */\n      swap1\n      pop\n        /* \"#utility.yul\":5091:5270   */\n      swap3\n      swap2\n      pop\n      pop\n      jump\t// out\n        /* \"#utility.yul\":5276:5389   */\n    tag_296:\n        /* \"#utility.yul\":5346:5350   */\n      0x00\n        /* \"#utility.yul\":5378:5382   */\n      0x20\n        /* \"#utility.yul\":5373:5376   */\n      dup3\n        /* \"#utility.yul\":5369:5383   */\n      add\n        /* \"#utility.yul\":5361:5383   */\n      swap1\n      pop\n        /* \"#utility.yul\":5276:5389   */\n      swap2\n      swap1\n      pop\n      jump\t// out\n        /* \"#utility.yul\":5425:6157   */\n    tag_297:\n        /* \"#utility.yul\":5544:5547   */\n      0x00\n        /* \"#utility.yul\":5573:5627   */\n      tag_388\n        /* \"#utility.yul\":5621:5626   */\n      dup3\n        /* \"#utility.yul\":5573:5627   */\n      tag_291\n      jump\t// in\n    tag_388:\n        /* \"#utility.yul\":5643:5729   */\n      tag_389\n        /* \"#utility.yul\":5722:5728   */\n      dup2\n        /* \"#utility.yul\":5717:5720   */\n      dup6\n        /* \"#utility.yul\":5643:5729   */\n      tag_292\n      jump\t// in\n    tag_389:\n        /* \"#utility.yul\":5636:5729   */\n      swap4\n      pop\n        /* \"#utility.yul\":5753:5809   */\n      tag_390\n        /* \"#utility.yul\":5803:5808   */\n      dup4\n        /* \"#utility.yul\":5753:5809   */\n      tag_293\n      jump\t// in\n    tag_390:\n        /* \"#utility.yul\":5832:5839   */\n      dup1\n        /* \"#utility.yul\":5863:5864   */\n      0x00\n        /* \"#utility.yul\":5848:6132   */\n    tag_391:\n        /* \"#utility.yul\":5873:5879   */\n      dup4\n        /* \"#utility.yul\":5870:5871   */\n      dup2\n        /* \"#utility.yul\":5867:5880   */\n      lt\n        /* \"#utility.yul\":5848:6132   */\n      iszero\n      tag_393\n      jumpi\n        /* \"#utility.yul\":5949:5955   */\n      dup2\n        /* \"#utility.yul\":5943:5956   */\n      mload\n        /* \"#utility.yul\":5976:6039   */\n      tag_394\n        /* \"#utility.yul\":6035:6038   */\n      dup9\n        /* \"#utility.yul\":6020:6033   */\n      dup3\n        /* \"#utility.yul\":5976:6039   */\n      tag_295\n      jump\t// in\n    tag_394:\n        /* \"#utility.yul\":5969:6039   */\n      swap8\n      pop\n        /* \"#utility.yul\":6062:6122   */\n      tag_395\n        /* \"#utility.yul\":6115:6121   */\n      dup4\n        /* \"#utility.yul\":6062:6122   */\n      tag_296\n      jump\t// in\n    tag_395:\n        /* \"#utility.yul\":6052:6122   */\n      swap3\n      pop\n        /* \"#utility.yul\":5908:6132   */\n      pop\n        /* \"#utility.yul\":5895:5896   */\n      0x01\n        /* \"#utility.yul\":5892:5893   */\n      dup2\n        /* \"#utility.yul\":5888:5897   */\n      add\n        /* \"#utility.yul\":5883:5897   */\n      swap1\n      pop\n        /* \"#utility.yul\":5848:6132   */\n      jump(tag_391)\n    tag_393:\n        /* \"#utility.yul\":5852:5866   */\n      pop\n        /* \"#utility.yul\":6148:6151   */\n      dup6\n        /* \"#utility.yul\":6141:6151   */\n      swap4\n      pop\n        /* \"#utility.yul\":5549:6157   */\n      pop\n      pop\n      pop\n        /* \"#utility.yul\":5425:6157   */\n      swap3\n      swap2\n      pop\n      pop\n      jump\t// out\n        /* \"#utility.yul\":6163:6536   */\n    tag_34:\n        /* \"#utility.yul\":6306:6310   */\n      0x00\n        /* \"#utility.yul\":6344:6346   */\n      0x20\n        /* \"#utility.yul\":6333:6342   */\n      dup3\n        /* \"#utility.yul\":6329:6347   */\n      add\n        /* \"#utility.yul\":6321:6347   */\n      swap1\n      pop\n        /* \"#utility.yul\":6393:6402   */\n      dup2\n        /* \"#utility.yul\":6387:6391   */\n      dup2\n        /* \"#utility.yul\":6383:6403   */\n      sub\n        /* \"#utility.yul\":6379:6380   */\n      0x00\n        /* \"#utility.yul\":6368:6377   */\n      dup4\n        /* \"#utility.yul\":6364:6381   */\n      add\n        /* \"#utility.yul\":6357:6404   */\n      mstore\n        /* \"#utility.yul\":6421:6529   */\n      tag_397\n        /* \"#utility.yul\":6524:6528   */\n      dup2\n        /* \"#utility.yul\":6515:6521   */\n      dup5\n        /* \"#utility.yul\":6421:6529   */\n      tag_297\n      jump\t// in\n    tag_397:\n        /* \"#utility.yul\":6413:6529   */\n      swap1\n      pop\n        /* \"#utility.yul\":6163:6536   */\n      swap3\n      swap2\n      pop\n      pop\n      jump\t// out\n        /* \"#utility.yul\":6542:6668   */\n    tag_298:\n        /* \"#utility.yul\":6579:6586   */\n      0x00\n        /* \"#utility.yul\":6619:6661   */\n      0xffffffffffffffffffffffffffffffffffffffff\n        /* \"#utility.yul\":6612:6617   */\n      dup3\n        /* \"#utility.yul\":6608:6662   */\n      and\n        /* \"#utility.yul\":6597:6662   */\n      swap1\n      pop\n        /* \"#utility.yul\":6542:6668   */\n      swap2\n      swap1\n      pop\n      jump\t// out\n        /* \"#utility.yul\":6674:6734   */\n    tag_299:\n        /* \"#utility.yul\":6702:6705   */\n      0x00\n        /* \"#utility.yul\":6723:6728   */\n      dup2\n        /* \"#utility.yul\":6716:6728   */\n      swap1\n      pop\n        /* \"#utility.yul\":6674:6734   */\n      swap2\n      swap1\n      pop\n      jump\t// out\n        /* \"#utility.yul\":6740:6882   */\n    tag_300:\n        /* \"#utility.yul\":6790:6799   */\n      0x00\n        /* \"#utility.yul\":6823:6876   */\n      tag_401\n        /* \"#utility.yul\":6841:6875   */\n      tag_402\n        /* \"#utility.yul\":6850:6874   */\n      tag_403\n        /* \"#utility.yul\":6868:6873   */\n      dup5\n        /* \"#utility.yul\":6850:6874   */\n      tag_298\n      jump\t// in\n    tag_403:\n        /* \"#utility.yul\":6841:6875   */\n      tag_299\n      jump\t// in\n    tag_402:\n        /* \"#utility.yul\":6823:6876   */\n      tag_298\n      jump\t// in\n    tag_401:\n        /* \"#utility.yul\":6810:6876   */\n      swap1\n      pop\n        /* \"#utility.yul\":6740:6882   */\n      swap2\n      swap1\n      pop\n      jump\t// out\n        /* \"#utility.yul\":6888:7014   */\n    tag_301:\n        /* \"#utility.yul\":6938:6947   */\n      0x00\n        /* \"#utility.yul\":6971:7008   */\n      tag_405\n        /* \"#utility.yul\":7002:7007   */\n      dup3\n        /* \"#utility.yul\":6971:7008   */\n      tag_300\n      jump\t// in\n    tag_405:\n        /* \"#utility.yul\":6958:7008   */\n      swap1\n      pop\n        /* \"#utility.yul\":6888:7014   */\n      swap2\n      swap1\n      pop\n      jump\t// out\n        /* \"#utility.yul\":7020:7158   */\n    tag_302:\n        /* \"#utility.yul\":7082:7091   */\n      0x00\n        /* \"#utility.yul\":7115:7152   */\n      tag_407\n        /* \"#utility.yul\":7146:7151   */\n      dup3\n        /* \"#utility.yul\":7115:7152   */\n      tag_301\n      jump\t// in\n    tag_407:\n        /* \"#utility.yul\":7102:7152   */\n      swap1\n      pop\n        /* \"#utility.yul\":7020:7158   */\n      swap2\n      swap1\n      pop\n      jump\t// out\n        /* \"#utility.yul\":7164:7319   */\n    tag_303:\n        /* \"#utility.yul\":7263:7312   */\n      tag_409\n        /* \"#utility.yul\":7306:7311   */\n      dup2\n        /* \"#utility.yul\":7263:7312   */\n      tag_302\n      jump\t// in\n    tag_409:\n        /* \"#utility.yul\":7258:7261   */\n      dup3\n        /* \"#utility.yul\":7251:7313   */\n      mstore\n        /* \"#utility.yul\":7164:7319   */\n      pop\n      pop\n      jump\t// out\n        /* \"#utility.yul\":7325:7571   */\n    tag_39:\n        /* \"#utility.yul\":7430:7434   */\n      0x00\n        /* \"#utility.yul\":7468:7470   */\n      0x20\n        /* \"#utility.yul\":7457:7466   */\n      dup3\n        /* \"#utility.yul\":7453:7471   */\n      add\n        /* \"#utility.yul\":7445:7471   */\n      swap1\n      pop\n        /* \"#utility.yul\":7481:7564   */\n      tag_411\n        /* \"#utility.yul\":7561:7562   */\n      0x00\n        /* \"#utility.yul\":7550:7559   */\n      dup4\n        /* \"#utility.yul\":7546:7563   */\n      add\n        /* \"#utility.yul\":7537:7543   */\n      dup5\n        /* \"#utility.yul\":7481:7564   */\n      tag_303\n      jump\t// in\n    tag_411:\n        /* \"#utility.yul\":7325:7571   */\n      swap3\n      swap2\n      pop\n      pop\n      jump\t// out\n        /* \"#utility.yul\":7577:7667   */\n    tag_304:\n        /* \"#utility.yul\":7611:7618   */\n      0x00\n        /* \"#utility.yul\":7654:7659   */\n      dup2\n        /* \"#utility.yul\":7647:7660   */\n      iszero\n        /* \"#utility.yul\":7640:7661   */\n      iszero\n        /* \"#utility.yul\":7629:7661   */\n      swap1\n      pop\n        /* \"#utility.yul\":7577:7667   */\n      swap2\n      swap1\n      pop\n      jump\t// out\n        /* \"#utility.yul\":7673:7789   */\n    tag_305:\n        /* \"#utility.yul\":7743:7764   */\n      tag_414\n        /* \"#utility.yul\":7758:7763   */\n      dup2\n        /* \"#utility.yul\":7743:7764   */\n      tag_304\n      jump\t// in\n    tag_414:\n        /* \"#utility.yul\":7736:7741   */\n      dup2\n        /* \"#utility.yul\":7733:7765   */\n      eq\n        /* \"#utility.yul\":7723:7783   */\n      tag_415\n      jumpi\n        /* \"#utility.yul\":7779:7780   */\n      0x00\n        /* \"#utility.yul\":7776:7777   */\n      dup1\n        /* \"#utility.yul\":7769:7781   */\n      revert\n        /* \"#utility.yul\":7723:7783   */\n    tag_415:\n        /* \"#utility.yul\":7673:7789   */\n      pop\n      jump\t// out\n        /* \"#utility.yul\":7795:7928   */\n    tag_306:\n        /* \"#utility.yul\":7838:7843   */\n      0x00\n        /* \"#utility.yul\":7876:7882   */\n      dup2\n        /* \"#utility.yul\":7863:7883   */\n      calldataload\n        /* \"#utility.yul\":7854:7883   */\n      swap1\n      pop\n        /* \"#utility.yul\":7892:7922   */\n      tag_417\n        /* \"#utility.yul\":7916:7921   */\n      dup2\n        /* \"#utility.yul\":7892:7922   */\n      tag_305\n      jump\t// in\n    tag_417:\n        /* \"#utility.yul\":7795:7928   */\n      swap3\n      swap2\n      pop\n      pop\n      jump\t// out\n        /* \"#utility.yul\":7934:8687   */\n    tag_42:\n        /* \"#utility.yul\":8014:8020   */\n      0x00\n        /* \"#utility.yul\":8022:8028   */\n      dup1\n        /* \"#utility.yul\":8030:8036   */\n      0x00\n        /* \"#utility.yul\":8038:8044   */\n      dup1\n        /* \"#utility.yul\":8087:8090   */\n      0x80\n        /* \"#utility.yul\":8075:8084   */\n      dup6\n        /* \"#utility.yul\":8066:8073   */\n      dup8\n        /* \"#utility.yul\":8062:8085   */\n      sub\n        /* \"#utility.yul\":8058:8091   */\n      slt\n        /* \"#utility.yul\":8055:8175   */\n      iszero\n      tag_419\n      jumpi\n        /* \"#utility.yul\":8094:8173   */\n      tag_420\n      tag_277\n      jump\t// in\n    tag_420:\n        /* \"#utility.yul\":8055:8175   */\n    tag_419:\n        /* \"#utility.yul\":8214:8215   */\n      0x00\n        /* \"#utility.yul\":8239:8292   */\n      tag_421\n        /* \"#utility.yul\":8284:8291   */\n      dup8\n        /* \"#utility.yul\":8275:8281   */\n      dup3\n        /* \"#utility.yul\":8264:8273   */\n      dup9\n        /* \"#utility.yul\":8260:8282   */\n      add\n        /* \"#utility.yul\":8239:8292   */\n      tag_281\n      jump\t// in\n    tag_421:\n        /* \"#utility.yul\":8229:8292   */\n      swap5\n      pop\n        /* \"#utility.yul\":8185:8302   */\n      pop\n        /* \"#utility.yul\":8341:8343   */\n      0x20\n        /* \"#utility.yul\":8367:8420   */\n      tag_422\n        /* \"#utility.yul\":8412:8419   */\n      dup8\n        /* \"#utility.yul\":8403:8409   */\n      dup3\n        /* \"#utility.yul\":8392:8401   */\n      dup9\n        /* \"#utility.yul\":8388:8410   */\n      add\n        /* \"#utility.yul\":8367:8420   */\n      tag_281\n      jump\t// in\n    tag_422:\n        /* \"#utility.yul\":8357:8420   */\n      swap4\n      pop\n        /* \"#utility.yul\":8312:8430   */\n      pop\n        /* \"#utility.yul\":8469:8471   */\n      0x40\n        /* \"#utility.yul\":8495:8545   */\n      tag_423\n        /* \"#utility.yul\":8537:8544   */\n      dup8\n        /* \"#utility.yul\":8528:8534   */\n      dup3\n        /* \"#utility.yul\":8517:8526   */\n      dup9\n        /* \"#utility.yul\":8513:8535   */\n      add\n        /* \"#utility.yul\":8495:8545   */\n      tag_306\n      jump\t// in\n    tag_423:\n        /* \"#utility.yul\":8485:8545   */\n      swap3\n      pop\n        /* \"#utility.yul\":8440:8555   */\n      pop\n        /* \"#utility.yul\":8594:8596   */\n      0x60\n        /* \"#utility.yul\":8620:8670   */\n      tag_424\n        /* \"#utility.yul\":8662:8669   */\n      dup8\n        /* \"#utility.yul\":8653:8659   */\n      dup3\n        /* \"#utility.yul\":8642:8651   */\n      dup9\n        /* \"#utility.yul\":8638:8660   */\n      add\n        /* \"#utility.yul\":8620:8670   */\n      tag_306\n      jump\t// in\n    tag_424:\n        /* \"#utility.yul\":8610:8670   */\n      swap2\n      pop\n        /* \"#utility.yul\":8565:8680   */\n      pop\n        /* \"#utility.yul\":7934:8687   */\n      swap3\n      swap6\n      swap2\n      swap5\n      pop\n      swap3\n      pop\n      jump\t// out\n        /* \"#utility.yul\":8693:8770   */\n    tag_307:\n        /* \"#utility.yul\":8730:8737   */\n      0x00\n        /* \"#utility.yul\":8759:8764   */\n      dup2\n        /* \"#utility.yul\":8748:8764   */\n      swap1\n      pop\n        /* \"#utility.yul\":8693:8770   */\n      swap2\n      swap1\n      pop\n      jump\t// out\n        /* \"#utility.yul\":8776:8898   */\n    tag_308:\n        /* \"#utility.yul\":8849:8873   */\n      tag_427\n        /* \"#utility.yul\":8867:8872   */\n      dup2\n        /* \"#utility.yul\":8849:8873   */\n      tag_307\n      jump\t// in\n    tag_427:\n        /* \"#utility.yul\":8842:8847   */\n      dup2\n        /* \"#utility.yul\":8839:8874   */\n      eq\n        /* \"#utility.yul\":8829:8892   */\n      tag_428\n      jumpi\n        /* \"#utility.yul\":8888:8889   */\n      0x00\n        /* \"#utility.yul\":8885:8886   */\n      dup1\n        /* \"#utility.yul\":8878:8890   */\n      revert\n        /* \"#utility.yul\":8829:8892   */\n    tag_428:\n        /* \"#utility.yul\":8776:8898   */\n      pop\n      jump\t// out\n        /* \"#utility.yul\":8904:9043   */\n    tag_309:\n        /* \"#utility.yul\":8950:8955   */\n      0x00\n        /* \"#utility.yul\":8988:8994   */\n      dup2\n        /* \"#utility.yul\":8975:8995   */\n      calldataload\n        /* \"#utility.yul\":8966:8995   */\n      swap1\n      pop\n        /* \"#utility.yul\":9004:9037   */\n      tag_430\n        /* \"#utility.yul\":9031:9036   */\n      dup2\n        /* \"#utility.yul\":9004:9037   */\n      tag_308\n      jump\t// in\n    tag_430:\n        /* \"#utility.yul\":8904:9043   */\n      swap3\n      swap2\n      pop\n      pop\n      jump\t// out\n        /* \"#utility.yul\":9049:9523   */\n    tag_46:\n        /* \"#utility.yul\":9117:9123   */\n      0x00\n        /* \"#utility.yul\":9125:9131   */\n      dup1\n        /* \"#utility.yul\":9174:9176   */\n      0x40\n        /* \"#utility.yul\":9162:9171   */\n      dup4\n        /* \"#utility.yul\":9153:9160   */\n      dup6\n        /* \"#utility.yul\":9149:9172   */\n      sub\n        /* \"#utility.yul\":9145:9177   */\n      slt\n        /* \"#utility.yul\":9142:9261   */\n      iszero\n      tag_432\n      jumpi\n        /* \"#utility.yul\":9180:9259   */\n      tag_433\n      tag_277\n      jump\t// in\n    tag_433:\n        /* \"#utility.yul\":9142:9261   */\n    tag_432:\n        /* \"#utility.yul\":9300:9301   */\n      0x00\n        /* \"#utility.yul\":9325:9378   */\n      tag_434\n        /* \"#utility.yul\":9370:9377   */\n      dup6\n        /* \"#utility.yul\":9361:9367   */\n      dup3\n        /* \"#utility.yul\":9350:9359   */\n      dup7\n        /* \"#utility.yul\":9346:9368   */\n      add\n        /* \"#utility.yul\":9325:9378   */\n      tag_281\n      jump\t// in\n    tag_434:\n        /* \"#utility.yul\":9315:9378   */\n      swap3\n      pop\n        /* \"#utility.yul\":9271:9388   */\n      pop\n        /* \"#utility.yul\":9427:9429   */\n      0x20\n        /* \"#utility.yul\":9453:9506   */\n      tag_435\n        /* \"#utility.yul\":9498:9505   */\n      dup6\n        /* \"#utility.yul\":9489:9495   */\n      dup3\n        /* \"#utility.yul\":9478:9487   */\n      dup7\n        /* \"#utility.yul\":9474:9496   */\n      add\n        /* \"#utility.yul\":9453:9506   */\n      tag_309\n      jump\t// in\n    tag_435:\n        /* \"#utility.yul\":9443:9506   */\n      swap2\n      pop\n        /* \"#utility.yul\":9398:9516   */\n      pop\n        /* \"#utility.yul\":9049:9523   */\n      swap3\n      pop\n      swap3\n      swap1\n      pop\n      jump\t// out\n        /* \"#utility.yul\":9529:9698   */\n    tag_310:\n        /* \"#utility.yul\":9613:9624   */\n      0x00\n        /* \"#utility.yul\":9647:9653   */\n      dup3\n        /* \"#utility.yul\":9642:9645   */\n      dup3\n        /* \"#utility.yul\":9635:9654   */\n      mstore\n        /* \"#utility.yul\":9687:9691   */\n      0x20\n        /* \"#utility.yul\":9682:9685   */\n      dup3\n        /* \"#utility.yul\":9678:9692   */\n      add\n        /* \"#utility.yul\":9663:9692   */\n      swap1\n      pop\n        /* \"#utility.yul\":9529:9698   */\n      swap3\n      swap2\n      pop\n      pop\n      jump\t// out\n        /* \"#utility.yul\":9704:9872   */\n    tag_311:\n        /* \"#utility.yul\":9844:9864   */\n      0x5574656e7465206e6f6e2074726f7661746f0000000000000000000000000000\n        /* \"#utility.yul\":9840:9841   */\n      0x00\n        /* \"#utility.yul\":9832:9838   */\n      dup3\n        /* \"#utility.yul\":9828:9842   */\n      add\n        /* \"#utility.yul\":9821:9865   */\n      mstore\n        /* \"#utility.yul\":9704:9872   */\n      pop\n      jump\t// out\n        /* \"#utility.yul\":9878:10244   */\n    tag_312:\n        /* \"#utility.yul\":10020:10023   */\n      0x00\n        /* \"#utility.yul\":10041:10108   */\n      tag_439\n        /* \"#utility.yul\":10105:10107   */\n      0x12\n        /* \"#utility.yul\":10100:10103   */\n      dup4\n        /* \"#utility.yul\":10041:10108   */\n      tag_310\n      jump\t// in\n    tag_439:\n        /* \"#utility.yul\":10034:10108   */\n      swap2\n      pop\n        /* \"#utility.yul\":10117:10210   */\n      tag_440\n        /* \"#utility.yul\":10206:10209   */\n      dup3\n        /* \"#utility.yul\":10117:10210   */\n      tag_311\n      jump\t// in\n    tag_440:\n        /* \"#utility.yul\":10235:10237   */\n      0x20\n        /* \"#utility.yul\":10230:10233   */\n      dup3\n        /* \"#utility.yul\":10226:10238   */\n      add\n        /* \"#utility.yul\":10219:10238   */\n      swap1\n      pop\n        /* \"#utility.yul\":9878:10244   */\n      swap2\n      swap1\n      pop\n      jump\t// out\n        /* \"#utility.yul\":10250:10669   */\n    tag_63:\n        /* \"#utility.yul\":10416:10420   */\n      0x00\n        /* \"#utility.yul\":10454:10456   */\n      0x20\n        /* \"#utility.yul\":10443:10452   */\n      dup3\n        /* \"#utility.yul\":10439:10457   */\n      add\n        /* \"#utility.yul\":10431:10457   */\n      swap1\n      pop\n        /* \"#utility.yul\":10503:10512   */\n      dup2\n        /* \"#utility.yul\":10497:10501   */\n      dup2\n        /* \"#utility.yul\":10493:10513   */\n      sub\n        /* \"#utility.yul\":10489:10490   */\n      0x00\n        /* \"#utility.yul\":10478:10487   */\n      dup4\n        /* \"#utility.yul\":10474:10491   */\n      add\n        /* \"#utility.yul\":10467:10514   */\n      mstore\n        /* \"#utility.yul\":10531:10662   */\n      tag_442\n        /* \"#utility.yul\":10657:10661   */\n      dup2\n        /* \"#utility.yul\":10531:10662   */\n      tag_312\n      jump\t// in\n    tag_442:\n        /* \"#utility.yul\":10523:10662   */\n      swap1\n      pop\n        /* \"#utility.yul\":10250:10669   */\n      swap2\n      swap1\n      pop\n      jump\t// out\n        /* \"#utility.yul\":10675:10855   */\n    tag_69:\n        /* \"#utility.yul\":10723:10800   */\n      0x4e487b7100000000000000000000000000000000000000000000000000000000\n        /* \"#utility.yul\":10720:10721   */\n      0x00\n        /* \"#utility.yul\":10713:10801   */\n      mstore\n        /* \"#utility.yul\":10820:10824   */\n      0x32\n        /* \"#utility.yul\":10817:10818   */\n      0x04\n        /* \"#utility.yul\":10810:10825   */\n      mstore\n        /* \"#utility.yul\":10844:10848   */\n      0x24\n        /* \"#utility.yul\":10841:10842   */\n      0x00\n        /* \"#utility.yul\":10834:10849   */\n      revert\n        /* \"#utility.yul\":10861:11004   */\n    tag_313:\n        /* \"#utility.yul\":10918:10923   */\n      0x00\n        /* \"#utility.yul\":10949:10955   */\n      dup2\n        /* \"#utility.yul\":10943:10956   */\n      mload\n        /* \"#utility.yul\":10934:10956   */\n      swap1\n      pop\n        /* \"#utility.yul\":10965:10998   */\n      tag_445\n        /* \"#utility.yul\":10992:10997   */\n      dup2\n        /* \"#utility.yul\":10965:10998   */\n      tag_280\n      jump\t// in\n    tag_445:\n        /* \"#utility.yul\":10861:11004   */\n      swap3\n      swap2\n      pop\n      pop\n      jump\t// out\n        /* \"#utility.yul\":11010:11361   */\n    tag_74:\n        /* \"#utility.yul\":11080:11086   */\n      0x00\n        /* \"#utility.yul\":11129:11131   */\n      0x20\n        /* \"#utility.yul\":11117:11126   */\n      dup3\n        /* \"#utility.yul\":11108:11115   */\n      dup5\n        /* \"#utility.yul\":11104:11127   */\n      sub\n        /* \"#utility.yul\":11100:11132   */\n      slt\n        /* \"#utility.yul\":11097:11216   */\n      iszero\n      tag_447\n      jumpi\n        /* \"#utility.yul\":11135:11214   */\n      tag_448\n      tag_277\n      jump\t// in\n    tag_448:\n        /* \"#utility.yul\":11097:11216   */\n    tag_447:\n        /* \"#utility.yul\":11255:11256   */\n      0x00\n        /* \"#utility.yul\":11280:11344   */\n      tag_449\n        /* \"#utility.yul\":11336:11343   */\n      dup5\n        /* \"#utility.yul\":11327:11333   */\n      dup3\n        /* \"#utility.yul\":11316:11325   */\n      dup6\n        /* \"#utility.yul\":11312:11334   */\n      add\n        /* \"#utility.yul\":11280:11344   */\n      tag_313\n      jump\t// in\n    tag_449:\n        /* \"#utility.yul\":11270:11344   */\n      swap2\n      pop\n        /* \"#utility.yul\":11226:11354   */\n      pop\n        /* \"#utility.yul\":11010:11361   */\n      swap3\n      swap2\n      pop\n      pop\n      jump\t// out\n        /* \"#utility.yul\":11367:11485   */\n    tag_314:\n        /* \"#utility.yul\":11454:11478   */\n      tag_451\n        /* \"#utility.yul\":11472:11477   */\n      dup2\n        /* \"#utility.yul\":11454:11478   */\n      tag_279\n      jump\t// in\n    tag_451:\n        /* \"#utility.yul\":11449:11452   */\n      dup3\n        /* \"#utility.yul\":11442:11479   */\n      mstore\n        /* \"#utility.yul\":11367:11485   */\n      pop\n      pop\n      jump\t// out\n        /* \"#utility.yul\":11491:11713   */\n    tag_80:\n        /* \"#utility.yul\":11584:11588   */\n      0x00\n        /* \"#utility.yul\":11622:11624   */\n      0x20\n        /* \"#utility.yul\":11611:11620   */\n      dup3\n        /* \"#utility.yul\":11607:11625   */\n      add\n        /* \"#utility.yul\":11599:11625   */\n      swap1\n      pop\n        /* \"#utility.yul\":11635:11706   */\n      tag_453\n        /* \"#utility.yul\":11703:11704   */\n      0x00\n        /* \"#utility.yul\":11692:11701   */\n      dup4\n        /* \"#utility.yul\":11688:11705   */\n      add\n        /* \"#utility.yul\":11679:11685   */\n      dup5\n        /* \"#utility.yul\":11635:11706   */\n      tag_314\n      jump\t// in\n    tag_453:\n        /* \"#utility.yul\":11491:11713   */\n      swap3\n      swap2\n      pop\n      pop\n      jump\t// out\n        /* \"#utility.yul\":11719:11818   */\n    tag_315:\n        /* \"#utility.yul\":11771:11777   */\n      0x00\n        /* \"#utility.yul\":11805:11810   */\n      dup2\n        /* \"#utility.yul\":11799:11811   */\n      mload\n        /* \"#utility.yul\":11789:11811   */\n      swap1\n      pop\n        /* \"#utility.yul\":11719:11818   */\n      swap2\n      swap1\n      pop\n      jump\t// out\n        /* \"#utility.yul\":11824:12070   */\n    tag_316:\n        /* \"#utility.yul\":11905:11906   */\n      0x00\n        /* \"#utility.yul\":11915:12028   */\n    tag_456:\n        /* \"#utility.yul\":11929:11935   */\n      dup4\n        /* \"#utility.yul\":11926:11927   */\n      dup2\n        /* \"#utility.yul\":11923:11936   */\n      lt\n        /* \"#utility.yul\":11915:12028   */\n      iszero\n      tag_458\n      jumpi\n        /* \"#utility.yul\":12014:12015   */\n      dup1\n        /* \"#utility.yul\":12009:12012   */\n      dup3\n        /* \"#utility.yul\":12005:12016   */\n      add\n        /* \"#utility.yul\":11999:12017   */\n      mload\n        /* \"#utility.yul\":11995:11996   */\n      dup2\n        /* \"#utility.yul\":11990:11993   */\n      dup5\n        /* \"#utility.yul\":11986:11997   */\n      add\n        /* \"#utility.yul\":11979:12018   */\n      mstore\n        /* \"#utility.yul\":11951:11953   */\n      0x20\n        /* \"#utility.yul\":11948:11949   */\n      dup2\n        /* \"#utility.yul\":11944:11954   */\n      add\n        /* \"#utility.yul\":11939:11954   */\n      swap1\n      pop\n        /* \"#utility.yul\":11915:12028   */\n      jump(tag_456)\n    tag_458:\n        /* \"#utility.yul\":12062:12063   */\n      0x00\n        /* \"#utility.yul\":12053:12059   */\n      dup5\n        /* \"#utility.yul\":12048:12051   */\n      dup5\n        /* \"#utility.yul\":12044:12060   */\n      add\n        /* \"#utility.yul\":12037:12064   */\n      mstore\n        /* \"#utility.yul\":11886:12070   */\n      pop\n        /* \"#utility.yul\":11824:12070   */\n      pop\n      pop\n      pop\n      jump\t// out\n        /* \"#utility.yul\":12076:12453   */\n    tag_317:\n        /* \"#utility.yul\":12164:12167   */\n      0x00\n        /* \"#utility.yul\":12192:12231   */\n      tag_460\n        /* \"#utility.yul\":12225:12230   */\n      dup3\n        /* \"#utility.yul\":12192:12231   */\n      tag_315\n      jump\t// in\n    tag_460:\n        /* \"#utility.yul\":12247:12318   */\n      tag_461\n        /* \"#utility.yul\":12311:12317   */\n      dup2\n        /* \"#utility.yul\":12306:12309   */\n      dup6\n        /* \"#utility.yul\":12247:12318   */\n      tag_310\n      jump\t// in\n    tag_461:\n        /* \"#utility.yul\":12240:12318   */\n      swap4\n      pop\n        /* \"#utility.yul\":12327:12392   */\n      tag_462\n        /* \"#utility.yul\":12385:12391   */\n      dup2\n        /* \"#utility.yul\":12380:12383   */\n      dup6\n        /* \"#utility.yul\":12373:12377   */\n      0x20\n        /* \"#utility.yul\":12366:12371   */\n      dup7\n        /* \"#utility.yul\":12362:12378   */\n      add\n        /* \"#utility.yul\":12327:12392   */\n      tag_316\n      jump\t// in\n    tag_462:\n        /* \"#utility.yul\":12417:12446   */\n      tag_463\n        /* \"#utility.yul\":12439:12445   */\n      dup2\n        /* \"#utility.yul\":12417:12446   */\n      tag_284\n      jump\t// in\n    tag_463:\n        /* \"#utility.yul\":12412:12415   */\n      dup5\n        /* \"#utility.yul\":12408:12447   */\n      add\n        /* \"#utility.yul\":12401:12447   */\n      swap2\n      pop\n        /* \"#utility.yul\":12168:12453   */\n      pop\n        /* \"#utility.yul\":12076:12453   */\n      swap3\n      swap2\n      pop\n      pop\n      jump\t// out\n        /* \"#utility.yul\":12459:12882   */\n    tag_143:\n        /* \"#utility.yul\":12600:12604   */\n      0x00\n        /* \"#utility.yul\":12638:12640   */\n      0x40\n        /* \"#utility.yul\":12627:12636   */\n      dup3\n        /* \"#utility.yul\":12623:12641   */\n      add\n        /* \"#utility.yul\":12615:12641   */\n      swap1\n      pop\n        /* \"#utility.yul\":12651:12722   */\n      tag_465\n        /* \"#utility.yul\":12719:12720   */\n      0x00\n        /* \"#utility.yul\":12708:12717   */\n      dup4\n        /* \"#utility.yul\":12704:12721   */\n      add\n        /* \"#utility.yul\":12695:12701   */\n      dup6\n        /* \"#utility.yul\":12651:12722   */\n      tag_314\n      jump\t// in\n    tag_465:\n        /* \"#utility.yul\":12769:12778   */\n      dup2\n        /* \"#utility.yul\":12763:12767   */\n      dup2\n        /* \"#utility.yul\":12759:12779   */\n      sub\n        /* \"#utility.yul\":12754:12756   */\n      0x20\n        /* \"#utility.yul\":12743:12752   */\n      dup4\n        /* \"#utility.yul\":12739:12757   */\n      add\n        /* \"#utility.yul\":12732:12780   */\n      mstore\n        /* \"#utility.yul\":12797:12875   */\n      tag_466\n        /* \"#utility.yul\":12870:12874   */\n      dup2\n        /* \"#utility.yul\":12861:12867   */\n      dup5\n        /* \"#utility.yul\":12797:12875   */\n      tag_317\n      jump\t// in\n    tag_466:\n        /* \"#utility.yul\":12789:12875   */\n      swap1\n      pop\n        /* \"#utility.yul\":12459:12882   */\n      swap4\n      swap3\n      pop\n      pop\n      pop\n      jump\t// out\n        /* \"#utility.yul\":12888:13199   */\n    tag_318:\n        /* \"#utility.yul\":12965:12969   */\n      0x00\n        /* \"#utility.yul\":13055:13073   */\n      0xffffffffffffffff\n        /* \"#utility.yul\":13047:13053   */\n      dup3\n        /* \"#utility.yul\":13044:13074   */\n      gt\n        /* \"#utility.yul\":13041:13097   */\n      iszero\n      tag_468\n      jumpi\n        /* \"#utility.yul\":13077:13095   */\n      tag_469\n      tag_153\n      jump\t// in\n    tag_469:\n        /* \"#utility.yul\":13041:13097   */\n    tag_468:\n        /* \"#utility.yul\":13127:13131   */\n      0x20\n        /* \"#utility.yul\":13119:13125   */\n      dup3\n        /* \"#utility.yul\":13115:13132   */\n      mul\n        /* \"#utility.yul\":13107:13132   */\n      swap1\n      pop\n        /* \"#utility.yul\":13187:13191   */\n      0x20\n        /* \"#utility.yul\":13181:13185   */\n      dup2\n        /* \"#utility.yul\":13177:13192   */\n      add\n        /* \"#utility.yul\":13169:13192   */\n      swap1\n      pop\n        /* \"#utility.yul\":12888:13199   */\n      swap2\n      swap1\n      pop\n      jump\t// out\n        /* \"#utility.yul\":13205:13322   */\n    tag_319:\n        /* \"#utility.yul\":13314:13315   */\n      0x00\n        /* \"#utility.yul\":13311:13312   */\n      dup1\n        /* \"#utility.yul\":13304:13316   */\n      revert\n        /* \"#utility.yul\":13345:14077   */\n    tag_320:\n        /* \"#utility.yul\":13452:13457   */\n      0x00\n        /* \"#utility.yul\":13477:13558   */\n      tag_472\n        /* \"#utility.yul\":13493:13557   */\n      tag_473\n        /* \"#utility.yul\":13550:13556   */\n      dup5\n        /* \"#utility.yul\":13493:13557   */\n      tag_318\n      jump\t// in\n    tag_473:\n        /* \"#utility.yul\":13477:13558   */\n      tag_286\n      jump\t// in\n    tag_472:\n        /* \"#utility.yul\":13468:13558   */\n      swap1\n      pop\n        /* \"#utility.yul\":13578:13583   */\n      dup1\n        /* \"#utility.yul\":13607:13613   */\n      dup4\n        /* \"#utility.yul\":13600:13605   */\n      dup3\n        /* \"#utility.yul\":13593:13614   */\n      mstore\n        /* \"#utility.yul\":13641:13645   */\n      0x20\n        /* \"#utility.yul\":13634:13639   */\n      dup3\n        /* \"#utility.yul\":13630:13646   */\n      add\n        /* \"#utility.yul\":13623:13646   */\n      swap1\n      pop\n        /* \"#utility.yul\":13694:13698   */\n      0x20\n        /* \"#utility.yul\":13686:13692   */\n      dup5\n        /* \"#utility.yul\":13682:13699   */\n      mul\n        /* \"#utility.yul\":13674:13680   */\n      dup4\n        /* \"#utility.yul\":13670:13700   */\n      add\n        /* \"#utility.yul\":13723:13726   */\n      dup6\n        /* \"#utility.yul\":13715:13721   */\n      dup2\n        /* \"#utility.yul\":13712:13727   */\n      gt\n        /* \"#utility.yul\":13709:13831   */\n      iszero\n      tag_474\n      jumpi\n        /* \"#utility.yul\":13742:13821   */\n      tag_475\n      tag_319\n      jump\t// in\n    tag_475:\n        /* \"#utility.yul\":13709:13831   */\n    tag_474:\n        /* \"#utility.yul\":13857:13863   */\n      dup4\n        /* \"#utility.yul\":13840:14071   */\n    tag_476:\n        /* \"#utility.yul\":13874:13880   */\n      dup2\n        /* \"#utility.yul\":13869:13872   */\n      dup2\n        /* \"#utility.yul\":13866:13881   */\n      lt\n        /* \"#utility.yul\":13840:14071   */\n      iszero\n      tag_478\n      jumpi\n        /* \"#utility.yul\":13949:13952   */\n      dup1\n        /* \"#utility.yul\":13978:14026   */\n      tag_479\n        /* \"#utility.yul\":14022:14025   */\n      dup9\n        /* \"#utility.yul\":14010:14020   */\n      dup3\n        /* \"#utility.yul\":13978:14026   */\n      tag_313\n      jump\t// in\n    tag_479:\n        /* \"#utility.yul\":13973:13976   */\n      dup5\n        /* \"#utility.yul\":13966:14027   */\n      mstore\n        /* \"#utility.yul\":14056:14060   */\n      0x20\n        /* \"#utility.yul\":14051:14054   */\n      dup5\n        /* \"#utility.yul\":14047:14061   */\n      add\n        /* \"#utility.yul\":14040:14061   */\n      swap4\n      pop\n        /* \"#utility.yul\":13916:14071   */\n      pop\n        /* \"#utility.yul\":13900:13904   */\n      0x20\n        /* \"#utility.yul\":13895:13898   */\n      dup2\n        /* \"#utility.yul\":13891:13905   */\n      add\n        /* \"#utility.yul\":13884:13905   */\n      swap1\n      pop\n        /* \"#utility.yul\":13840:14071   */\n      jump(tag_476)\n    tag_478:\n        /* \"#utility.yul\":13844:13865   */\n      pop\n        /* \"#utility.yul\":13458:14077   */\n      pop\n      pop\n        /* \"#utility.yul\":13345:14077   */\n      swap4\n      swap3\n      pop\n      pop\n      pop\n      jump\t// out\n        /* \"#utility.yul\":14100:14485   */\n    tag_321:\n        /* \"#utility.yul\":14182:14187   */\n      0x00\n        /* \"#utility.yul\":14231:14234   */\n      dup3\n        /* \"#utility.yul\":14224:14228   */\n      0x1f\n        /* \"#utility.yul\":14216:14222   */\n      dup4\n        /* \"#utility.yul\":14212:14229   */\n      add\n        /* \"#utility.yul\":14208:14235   */\n      slt\n        /* \"#utility.yul\":14198:14320   */\n      tag_481\n      jumpi\n        /* \"#utility.yul\":14239:14318   */\n      tag_482\n      tag_282\n      jump\t// in\n    tag_482:\n        /* \"#utility.yul\":14198:14320   */\n    tag_481:\n        /* \"#utility.yul\":14349:14355   */\n      dup2\n        /* \"#utility.yul\":14343:14356   */\n      mload\n        /* \"#utility.yul\":14374:14479   */\n      tag_483\n        /* \"#utility.yul\":14475:14478   */\n      dup5\n        /* \"#utility.yul\":14467:14473   */\n      dup3\n        /* \"#utility.yul\":14460:14464   */\n      0x20\n        /* \"#utility.yul\":14452:14458   */\n      dup7\n        /* \"#utility.yul\":14448:14465   */\n      add\n        /* \"#utility.yul\":14374:14479   */\n      tag_320\n      jump\t// in\n    tag_483:\n        /* \"#utility.yul\":14365:14479   */\n      swap2\n      pop\n        /* \"#utility.yul\":14188:14485   */\n      pop\n        /* \"#utility.yul\":14100:14485   */\n      swap3\n      swap2\n      pop\n      pop\n      jump\t// out\n        /* \"#utility.yul\":14491:15045   */\n    tag_171:\n        /* \"#utility.yul\":14586:14592   */\n      0x00\n        /* \"#utility.yul\":14635:14637   */\n      0x20\n        /* \"#utility.yul\":14623:14632   */\n      dup3\n        /* \"#utility.yul\":14614:14621   */\n      dup5\n        /* \"#utility.yul\":14610:14633   */\n      sub\n        /* \"#utility.yul\":14606:14638   */\n      slt\n        /* \"#utility.yul\":14603:14722   */\n      iszero\n      tag_485\n      jumpi\n        /* \"#utility.yul\":14641:14720   */\n      tag_486\n      tag_277\n      jump\t// in\n    tag_486:\n        /* \"#utility.yul\":14603:14722   */\n    tag_485:\n        /* \"#utility.yul\":14782:14783   */\n      0x00\n        /* \"#utility.yul\":14771:14780   */\n      dup3\n        /* \"#utility.yul\":14767:14784   */\n      add\n        /* \"#utility.yul\":14761:14785   */\n      mload\n        /* \"#utility.yul\":14812:14830   */\n      0xffffffffffffffff\n        /* \"#utility.yul\":14804:14810   */\n      dup2\n        /* \"#utility.yul\":14801:14831   */\n      gt\n        /* \"#utility.yul\":14798:14915   */\n      iszero\n      tag_487\n      jumpi\n        /* \"#utility.yul\":14834:14913   */\n      tag_488\n      tag_278\n      jump\t// in\n    tag_488:\n        /* \"#utility.yul\":14798:14915   */\n    tag_487:\n        /* \"#utility.yul\":14939:15028   */\n      tag_489\n        /* \"#utility.yul\":15020:15027   */\n      dup5\n        /* \"#utility.yul\":15011:15017   */\n      dup3\n        /* \"#utility.yul\":15000:15009   */\n      dup6\n        /* \"#utility.yul\":14996:15018   */\n      add\n        /* \"#utility.yul\":14939:15028   */\n      tag_321\n      jump\t// in\n    tag_489:\n        /* \"#utility.yul\":14929:15028   */\n      swap2\n      pop\n        /* \"#utility.yul\":14732:15038   */\n      pop\n        /* \"#utility.yul\":14491:15045   */\n      swap3\n      swap2\n      pop\n      pop\n      jump\t// out\n        /* \"#utility.yul\":15051:15160   */\n    tag_322:\n        /* \"#utility.yul\":15132:15153   */\n      tag_491\n        /* \"#utility.yul\":15147:15152   */\n      dup2\n        /* \"#utility.yul\":15132:15153   */\n      tag_304\n      jump\t// in\n    tag_491:\n        /* \"#utility.yul\":15127:15130   */\n      dup3\n        /* \"#utility.yul\":15120:15154   */\n      mstore\n        /* \"#utility.yul\":15051:15160   */\n      pop\n      pop\n      jump\t// out\n        /* \"#utility.yul\":15166:15584   */\n    tag_192:\n        /* \"#utility.yul\":15303:15307   */\n      0x00\n        /* \"#utility.yul\":15341:15343   */\n      0x60\n        /* \"#utility.yul\":15330:15339   */\n      dup3\n        /* \"#utility.yul\":15326:15344   */\n      add\n        /* \"#utility.yul\":15318:15344   */\n      swap1\n      pop\n        /* \"#utility.yul\":15354:15425   */\n      tag_493\n        /* \"#utility.yul\":15422:15423   */\n      0x00\n        /* \"#utility.yul\":15411:15420   */\n      dup4\n        /* \"#utility.yul\":15407:15424   */\n      add\n        /* \"#utility.yul\":15398:15404   */\n      dup7\n        /* \"#utility.yul\":15354:15425   */\n      tag_314\n      jump\t// in\n    tag_493:\n        /* \"#utility.yul\":15435:15501   */\n      tag_494\n        /* \"#utility.yul\":15497:15499   */\n      0x20\n        /* \"#utility.yul\":15486:15495   */\n      dup4\n        /* \"#utility.yul\":15482:15500   */\n      add\n        /* \"#utility.yul\":15473:15479   */\n      dup6\n        /* \"#utility.yul\":15435:15501   */\n      tag_322\n      jump\t// in\n    tag_494:\n        /* \"#utility.yul\":15511:15577   */\n      tag_495\n        /* \"#utility.yul\":15573:15575   */\n      0x40\n        /* \"#utility.yul\":15562:15571   */\n      dup4\n        /* \"#utility.yul\":15558:15576   */\n      add\n        /* \"#utility.yul\":15549:15555   */\n      dup5\n        /* \"#utility.yul\":15511:15577   */\n      tag_322\n      jump\t// in\n    tag_495:\n        /* \"#utility.yul\":15166:15584   */\n      swap5\n      swap4\n      pop\n      pop\n      pop\n      pop\n      jump\t// out\n        /* \"#utility.yul\":15590:15756   */\n    tag_323:\n        /* \"#utility.yul\":15730:15748   */\n      0x5574656e7465206573697374656e746500000000000000000000000000000000\n        /* \"#utility.yul\":15726:15727   */\n      0x00\n        /* \"#utility.yul\":15718:15724   */\n      dup3\n        /* \"#utility.yul\":15714:15728   */\n      add\n        /* \"#utility.yul\":15707:15749   */\n      mstore\n        /* \"#utility.yul\":15590:15756   */\n      pop\n      jump\t// out\n        /* \"#utility.yul\":15762:16128   */\n    tag_324:\n        /* \"#utility.yul\":15904:15907   */\n      0x00\n        /* \"#utility.yul\":15925:15992   */\n      tag_498\n        /* \"#utility.yul\":15989:15991   */\n      0x10\n        /* \"#utility.yul\":15984:15987   */\n      dup4\n        /* \"#utility.yul\":15925:15992   */\n      tag_310\n      jump\t// in\n    tag_498:\n        /* \"#utility.yul\":15918:15992   */\n      swap2\n      pop\n        /* \"#utility.yul\":16001:16094   */\n      tag_499\n        /* \"#utility.yul\":16090:16093   */\n      dup3\n        /* \"#utility.yul\":16001:16094   */\n      tag_323\n      jump\t// in\n    tag_499:\n        /* \"#utility.yul\":16119:16121   */\n      0x20\n        /* \"#utility.yul\":16114:16117   */\n      dup3\n        /* \"#utility.yul\":16110:16122   */\n      add\n        /* \"#utility.yul\":16103:16122   */\n      swap1\n      pop\n        /* \"#utility.yul\":15762:16128   */\n      swap2\n      swap1\n      pop\n      jump\t// out\n        /* \"#utility.yul\":16134:16553   */\n    tag_200:\n        /* \"#utility.yul\":16300:16304   */\n      0x00\n        /* \"#utility.yul\":16338:16340   */\n      0x20\n        /* \"#utility.yul\":16327:16336   */\n      dup3\n        /* \"#utility.yul\":16323:16341   */\n      add\n        /* \"#utility.yul\":16315:16341   */\n      swap1\n      pop\n        /* \"#utility.yul\":16387:16396   */\n      dup2\n        /* \"#utility.yul\":16381:16385   */\n      dup2\n        /* \"#utility.yul\":16377:16397   */\n      sub\n        /* \"#utility.yul\":16373:16374   */\n      0x00\n        /* \"#utility.yul\":16362:16371   */\n      dup4\n        /* \"#utility.yul\":16358:16375   */\n      add\n        /* \"#utility.yul\":16351:16398   */\n      mstore\n        /* \"#utility.yul\":16415:16546   */\n      tag_501\n        /* \"#utility.yul\":16541:16545   */\n      dup2\n        /* \"#utility.yul\":16415:16546   */\n      tag_324\n      jump\t// in\n    tag_501:\n        /* \"#utility.yul\":16407:16546   */\n      swap1\n      pop\n        /* \"#utility.yul\":16134:16553   */\n      swap2\n      swap1\n      pop\n      jump\t// out\n        /* \"#utility.yul\":16559:16677   */\n    tag_325:\n        /* \"#utility.yul\":16646:16670   */\n      tag_503\n        /* \"#utility.yul\":16664:16669   */\n      dup2\n        /* \"#utility.yul\":16646:16670   */\n      tag_307\n      jump\t// in\n    tag_503:\n        /* \"#utility.yul\":16641:16644   */\n      dup3\n        /* \"#utility.yul\":16634:16671   */\n      mstore\n        /* \"#utility.yul\":16559:16677   */\n      pop\n      pop\n      jump\t// out\n        /* \"#utility.yul\":16683:17015   */\n    tag_204:\n        /* \"#utility.yul\":16804:16808   */\n      0x00\n        /* \"#utility.yul\":16842:16844   */\n      0x40\n        /* \"#utility.yul\":16831:16840   */\n      dup3\n        /* \"#utility.yul\":16827:16845   */\n      add\n        /* \"#utility.yul\":16819:16845   */\n      swap1\n      pop\n        /* \"#utility.yul\":16855:16926   */\n      tag_505\n        /* \"#utility.yul\":16923:16924   */\n      0x00\n        /* \"#utility.yul\":16912:16921   */\n      dup4\n        /* \"#utility.yul\":16908:16925   */\n      add\n        /* \"#utility.yul\":16899:16905   */\n      dup6\n        /* \"#utility.yul\":16855:16926   */\n      tag_314\n      jump\t// in\n    tag_505:\n        /* \"#utility.yul\":16936:17008   */\n      tag_506\n        /* \"#utility.yul\":17004:17006   */\n      0x20\n        /* \"#utility.yul\":16993:17002   */\n      dup4\n        /* \"#utility.yul\":16989:17007   */\n      add\n        /* \"#utility.yul\":16980:16986   */\n      dup5\n        /* \"#utility.yul\":16936:17008   */\n      tag_325\n      jump\t// in\n    tag_506:\n        /* \"#utility.yul\":16683:17015   */\n      swap4\n      swap3\n      pop\n      pop\n      pop\n      jump\t// out\n    stop\n\n    sub_0: assembly {\n            /* \"Lincloud/.deps/contract/contract.sol\":61:2952  contract user{... */\n          mstore(0x40, 0x80)\n            /* \"Lincloud/.deps/contract/contract.sol\":626:806  constructor(uint256 id, bytes32 hash){... */\n          callvalue\n          dup1\n          iszero\n          tag_1\n          jumpi\n          0x00\n          dup1\n          revert\n        tag_1:\n          pop\n          mload(0x40)\n          sub(codesize, bytecodeSize)\n          dup1\n          bytecodeSize\n          dup4\n          codecopy\n          dup2\n          dup2\n          add\n          0x40\n          mstore\n          dup2\n          add\n          swap1\n          tag_2\n          swap2\n          swap1\n          tag_3\n          jump\t// in\n        tag_2:\n            /* \"Lincloud/.deps/contract/contract.sol\":684:686  id */\n          dup2\n            /* \"Lincloud/.deps/contract/contract.sol\":674:681  id_user */\n          0x00\n            /* \"Lincloud/.deps/contract/contract.sol\":674:686  id_user = id */\n          dup2\n          swap1\n          sstore\n          pop\n            /* \"Lincloud/.deps/contract/contract.sol\":717:733  user_state.alive */\n          0x01\n            /* \"Lincloud/.deps/contract/contract.sol\":697:714  actual_user_state */\n          dup1\n          0x00\n            /* \"Lincloud/.deps/contract/contract.sol\":697:733  actual_user_state = user_state.alive */\n          0x0100\n          exp\n          dup2\n          sload\n          dup2\n          0xff\n          mul\n          not\n          and\n          swap1\n          dup4\n          0x01\n          dup2\n          gt\n          iszero\n          tag_6\n          jumpi\n          tag_7\n          tag_8\n          jump\t// in\n        tag_7:\n        tag_6:\n          mul\n          or\n          swap1\n          sstore\n          pop\n            /* \"Lincloud/.deps/contract/contract.sol\":759:763  hash */\n          dup1\n            /* \"Lincloud/.deps/contract/contract.sol\":744:756  contractHash */\n          0x04\n            /* \"Lincloud/.deps/contract/contract.sol\":744:763  contractHash = hash */\n          dup2\n          swap1\n          sstore\n          pop\n            /* \"Lincloud/.deps/contract/contract.sol\":793:798  false */\n          0x00\n            /* \"Lincloud/.deps/contract/contract.sol\":774:790  isContractClosed */\n          0x05\n          0x00\n            /* \"Lincloud/.deps/contract/contract.sol\":774:798  isContractClosed = false */\n          0x0100\n          exp\n          dup2\n          sload\n          dup2\n          0xff\n          mul\n          not\n          and\n          swap1\n          dup4\n          iszero\n          iszero\n          mul\n          or\n          swap1\n          sstore\n          pop\n            /* \"Lincloud/.deps/contract/contract.sol\":626:806  constructor(uint256 id, bytes32 hash){... */\n          pop\n          pop\n            /* \"Lincloud/.deps/contract/contract.sol\":61:2952  contract user{... */\n          jump(tag_9)\n            /* \"#utility.yul\":88:205   */\n        tag_11:\n            /* \"#utility.yul\":197:198   */\n          0x00\n            /* \"#utility.yul\":194:195   */\n          dup1\n            /* \"#utility.yul\":187:199   */\n          revert\n            /* \"#utility.yul\":334:411   */\n        tag_13:\n            /* \"#utility.yul\":371:378   */\n          0x00\n            /* \"#utility.yul\":400:405   */\n          dup2\n            /* \"#utility.yul\":389:405   */\n          swap1\n          pop\n            /* \"#utility.yul\":334:411   */\n          swap2\n          swap1\n          pop\n          jump\t// out\n            /* \"#utility.yul\":417:539   */\n        tag_14:\n            /* \"#utility.yul\":490:514   */\n          tag_25\n            /* \"#utility.yul\":508:513   */\n          dup2\n            /* \"#utility.yul\":490:514   */\n          tag_13\n          jump\t// in\n        tag_25:\n            /* \"#utility.yul\":483:488   */\n          dup2\n            /* \"#utility.yul\":480:515   */\n          eq\n            /* \"#utility.yul\":470:533   */\n          tag_26\n          jumpi\n            /* \"#utility.yul\":529:530   */\n          0x00\n            /* \"#utility.yul\":526:527   */\n          dup1\n            /* \"#utility.yul\":519:531   */\n          revert\n            /* \"#utility.yul\":470:533   */\n        tag_26:\n            /* \"#utility.yul\":417:539   */\n          pop\n          jump\t// out\n            /* \"#utility.yul\":545:688   */\n        tag_15:\n            /* \"#utility.yul\":602:607   */\n          0x00\n            /* \"#utility.yul\":633:639   */\n          dup2\n            /* \"#utility.yul\":627:640   */\n          mload\n            /* \"#utility.yul\":618:640   */\n          swap1\n          pop\n            /* \"#utility.yul\":649:682   */\n          tag_28\n            /* \"#utility.yul\":676:681   */\n          dup2\n            /* \"#utility.yul\":649:682   */\n          tag_14\n          jump\t// in\n        tag_28:\n            /* \"#utility.yul\":545:688   */\n          swap3\n          swap2\n          pop\n          pop\n          jump\t// out\n            /* \"#utility.yul\":694:771   */\n        tag_16:\n            /* \"#utility.yul\":731:738   */\n          0x00\n            /* \"#utility.yul\":760:765   */\n          dup2\n            /* \"#utility.yul\":749:765   */\n          swap1\n          pop\n            /* \"#utility.yul\":694:771   */\n          swap2\n          swap1\n          pop\n          jump\t// out\n            /* \"#utility.yul\":777:899   */\n        tag_17:\n            /* \"#utility.yul\":850:874   */\n          tag_31\n            /* \"#utility.yul\":868:873   */\n          dup2\n            /* \"#utility.yul\":850:874   */\n          tag_16\n          jump\t// in\n        tag_31:\n            /* \"#utility.yul\":843:848   */\n          dup2\n            /* \"#utility.yul\":840:875   */\n          eq\n            /* \"#utility.yul\":830:893   */\n          tag_32\n          jumpi\n            /* \"#utility.yul\":889:890   */\n          0x00\n            /* \"#utility.yul\":886:887   */\n          dup1\n            /* \"#utility.yul\":879:891   */\n          revert\n            /* \"#utility.yul\":830:893   */\n        tag_32:\n            /* \"#utility.yul\":777:899   */\n          pop\n          jump\t// out\n            /* \"#utility.yul\":905:1048   */\n        tag_18:\n            /* \"#utility.yul\":962:967   */\n          0x00\n            /* \"#utility.yul\":993:999   */\n          dup2\n            /* \"#utility.yul\":987:1000   */\n          mload\n            /* \"#utility.yul\":978:1000   */\n          swap1\n          pop\n            /* \"#utility.yul\":1009:1042   */\n          tag_34\n            /* \"#utility.yul\":1036:1041   */\n          dup2\n            /* \"#utility.yul\":1009:1042   */\n          tag_17\n          jump\t// in\n        tag_34:\n            /* \"#utility.yul\":905:1048   */\n          swap3\n          swap2\n          pop\n          pop\n          jump\t// out\n            /* \"#utility.yul\":1054:1561   */\n        tag_3:\n            /* \"#utility.yul\":1133:1139   */\n          0x00\n            /* \"#utility.yul\":1141:1147   */\n          dup1\n            /* \"#utility.yul\":1190:1192   */\n          0x40\n            /* \"#utility.yul\":1178:1187   */\n          dup4\n            /* \"#utility.yul\":1169:1176   */\n          dup6\n            /* \"#utility.yul\":1165:1188   */\n          sub\n            /* \"#utility.yul\":1161:1193   */\n          slt\n            /* \"#utility.yul\":1158:1277   */\n          iszero\n          tag_36\n          jumpi\n            /* \"#utility.yul\":1196:1275   */\n          tag_37\n          tag_11\n          jump\t// in\n        tag_37:\n            /* \"#utility.yul\":1158:1277   */\n        tag_36:\n            /* \"#utility.yul\":1316:1317   */\n          0x00\n            /* \"#utility.yul\":1341:1405   */\n          tag_38\n            /* \"#utility.yul\":1397:1404   */\n          dup6\n            /* \"#utility.yul\":1388:1394   */\n          dup3\n            /* \"#utility.yul\":1377:1386   */\n          dup7\n            /* \"#utility.yul\":1373:1395   */\n          add\n            /* \"#utility.yul\":1341:1405   */\n          tag_15\n          jump\t// in\n        tag_38:\n            /* \"#utility.yul\":1331:1405   */\n          swap3\n          pop\n            /* \"#utility.yul\":1287:1415   */\n          pop\n            /* \"#utility.yul\":1454:1456   */\n          0x20\n            /* \"#utility.yul\":1480:1544   */\n          tag_39\n            /* \"#utility.yul\":1536:1543   */\n          dup6\n            /* \"#utility.yul\":1527:1533   */\n          dup3\n            /* \"#utility.yul\":1516:1525   */\n          dup7\n            /* \"#utility.yul\":1512:1534   */\n          add\n            /* \"#utility.yul\":1480:1544   */\n          tag_18\n          jump\t// in\n        tag_39:\n            /* \"#utility.yul\":1470:1544   */\n          swap2\n          pop\n            /* \"#utility.yul\":1425:1554   */\n          pop\n            /* \"#utility.yul\":1054:1561   */\n          swap3\n          pop\n          swap3\n          swap1\n          pop\n          jump\t// out\n            /* \"#utility.yul\":1567:1747   */\n        tag_8:\n            /* \"#utility.yul\":1615:1692   */\n          0x4e487b7100000000000000000000000000000000000000000000000000000000\n            /* \"#utility.yul\":1612:1613   */\n          0x00\n            /* \"#utility.yul\":1605:1693   */\n          mstore\n            /* \"#utility.yul\":1712:1716   */\n          0x21\n            /* \"#utility.yul\":1709:1710   */\n          0x04\n            /* \"#utility.yul\":1702:1717   */\n          mstore\n            /* \"#utility.yul\":1736:1740   */\n          0x24\n            /* \"#utility.yul\":1733:1734   */\n          0x00\n            /* \"#utility.yul\":1726:1741   */\n          revert\n            /* \"Lincloud/.deps/contract/contract.sol\":61:2952  contract user{... */\n        tag_9:\n          dataSize(sub_0)\n          dup1\n          dataOffset(sub_0)\n          0x00\n          codecopy\n          0x00\n          return\n        stop\n\n        sub_0: assembly {\n                /* \"Lincloud/.deps/contract/contract.sol\":61:2952  contract user{... */\n              mstore(0x40, 0x80)\n              callvalue\n              dup1\n              iszero\n              tag_1\n              jumpi\n              0x00\n              dup1\n              revert\n            tag_1:\n              pop\n              jumpi(tag_2, lt(calldatasize, 0x04))\n              shr(0xe0, calldataload(0x00))\n              dup1\n              0x65a6bb29\n              gt\n              tag_16\n              jumpi\n              dup1\n              0xac3ef22d\n              gt\n              tag_17\n              jumpi\n              dup1\n              0xac3ef22d\n              eq\n              tag_12\n              jumpi\n              dup1\n              0xb74513c1\n              eq\n              tag_13\n              jumpi\n              dup1\n              0xe5a72d5b\n              eq\n              tag_14\n              jumpi\n              dup1\n              0xfc68b3ed\n              eq\n              tag_15\n              jumpi\n              jump(tag_2)\n            tag_17:\n              dup1\n              0x65a6bb29\n              eq\n              tag_9\n              jumpi\n              dup1\n              0x84731d6f\n              eq\n              tag_10\n              jumpi\n              dup1\n              0x8cee71e0\n              eq\n              tag_11\n              jumpi\n              jump(tag_2)\n            tag_16:\n              dup1\n              0x2ebcb653\n              eq\n              tag_3\n              jumpi\n              dup1\n              0x3121924d\n              eq\n              tag_4\n              jumpi\n              dup1\n              0x35254bcd\n              eq\n              tag_5\n              jumpi\n              dup1\n              0x38fcbc01\n              eq\n              tag_6\n              jumpi\n              dup1\n              0x42be8cb5\n              eq\n              tag_7\n              jumpi\n              dup1\n              0x499ba0aa\n              eq\n              tag_8\n              jumpi\n            tag_2:\n              0x00\n              dup1\n              revert\n                /* \"Lincloud/.deps/contract/contract.sol\":2225:2308  function getUserId() public view returns (uint256){... */\n            tag_3:\n              tag_18\n              tag_19\n              jump\t// in\n            tag_18:\n              mload(0x40)\n              tag_20\n              swap2\n              swap1\n              tag_21\n              jump\t// in\n            tag_20:\n              mload(0x40)\n              dup1\n              swap2\n              sub\n              swap1\n              return\n                /* \"Lincloud/.deps/contract/contract.sol\":1353:1660  function setRecipientTimeStamp(uint256 recipientId, string memory timestamp) public{... */\n            tag_4:\n              tag_22\n              0x04\n              dup1\n              calldatasize\n              sub\n              dup2\n              add\n              swap1\n              tag_23\n              swap2\n              swap1\n              tag_24\n              jump\t// in\n            tag_23:\n              tag_25\n              jump\t// in\n            tag_22:\n              stop\n                /* \"Lincloud/.deps/contract/contract.sol\":2058:2187  function closeUserContract() public{... */\n            tag_5:\n              tag_26\n              tag_27\n              jump\t// in\n            tag_26:\n              stop\n                /* \"Lincloud/.deps/contract/contract.sol\":1668:2050  function setRecipientResponse(uint256 recipientId, bool response, bool isTimeExpired) public {... */\n            tag_6:\n              tag_28\n              0x04\n              dup1\n              calldatasize\n              sub\n              dup2\n              add\n              swap1\n              tag_29\n              swap2\n              swap1\n              tag_30\n              jump\t// in\n            tag_29:\n              tag_31\n              jump\t// in\n            tag_28:\n              stop\n                /* \"Lincloud/.deps/contract/contract.sol\":436:464  Oracle[] public oracles_list */\n            tag_7:\n              tag_32\n              0x04\n              dup1\n              calldatasize\n              sub\n              dup2\n              add\n              swap1\n              tag_33\n              swap2\n              swap1\n              tag_34\n              jump\t// in\n            tag_33:\n              tag_35\n              jump\t// in\n            tag_32:\n              mload(0x40)\n              tag_36\n              swap2\n              swap1\n              tag_21\n              jump\t// in\n            tag_36:\n              mload(0x40)\n              dup1\n              swap2\n              sub\n              swap1\n              return\n                /* \"Lincloud/.deps/contract/contract.sol\":395:429  Recipient[] public recipients_list */\n            tag_8:\n              tag_37\n              0x04\n              dup1\n              calldatasize\n              sub\n              dup2\n              add\n              swap1\n              tag_38\n              swap2\n              swap1\n              tag_34\n              jump\t// in\n            tag_38:\n              tag_39\n              jump\t// in\n            tag_37:\n              mload(0x40)\n              tag_40\n              swap5\n              swap4\n              swap3\n              swap2\n              swap1\n              tag_41\n              jump\t// in\n            tag_40:\n              mload(0x40)\n              dup1\n              swap2\n              sub\n              swap1\n              return\n                /* \"Lincloud/.deps/contract/contract.sol\":2647:2949  function getAllOracles() public view returns (uint256[] memory){... */\n            tag_9:\n              tag_42\n              tag_43\n              jump\t// in\n            tag_42:\n              mload(0x40)\n              tag_44\n              swap2\n              swap1\n              tag_45\n              jump\t// in\n            tag_44:\n              mload(0x40)\n              dup1\n              swap2\n              sub\n              swap1\n              return\n                /* \"Lincloud/.deps/contract/contract.sol\":353:388  user_state public actual_user_state */\n            tag_10:\n              tag_46\n              tag_47\n              jump\t// in\n            tag_46:\n              mload(0x40)\n              tag_48\n              swap2\n              swap1\n              tag_49\n              jump\t// in\n            tag_48:\n              mload(0x40)\n              dup1\n              swap2\n              sub\n              swap1\n              return\n                /* \"Lincloud/.deps/contract/contract.sol\":324:346  uint256 public id_user */\n            tag_11:\n              tag_50\n              tag_51\n              jump\t// in\n            tag_50:\n              mload(0x40)\n              tag_52\n              swap2\n              swap1\n              tag_21\n              jump\t// in\n            tag_52:\n              mload(0x40)\n              dup1\n              swap2\n              sub\n              swap1\n              return\n                /* \"Lincloud/.deps/contract/contract.sol\":1247:1345  function setUserStateToDeceased() public{... */\n            tag_12:\n              tag_53\n              tag_54\n              jump\t// in\n            tag_53:\n              stop\n                /* \"Lincloud/.deps/contract/contract.sol\":2316:2639  function getAllRecipients() public view returns (uint256[] memory){... */\n            tag_13:\n              tag_55\n              tag_56\n              jump\t// in\n            tag_55:\n              mload(0x40)\n              tag_57\n              swap2\n              swap1\n              tag_45\n              jump\t// in\n            tag_57:\n              mload(0x40)\n              dup1\n              swap2\n              sub\n              swap1\n              return\n                /* \"Lincloud/.deps/contract/contract.sol\":1044:1239  function addOracle(uint256 oracleId) public { // non deve essere public... */\n            tag_14:\n              tag_58\n              0x04\n              dup1\n              calldatasize\n              sub\n              dup2\n              add\n              swap1\n              tag_59\n              swap2\n              swap1\n              tag_34\n              jump\t// in\n            tag_59:\n              tag_60\n              jump\t// in\n            tag_58:\n              stop\n                /* \"Lincloud/.deps/contract/contract.sol\":814:1036  function addRecipient(uint256 recipientId) public { // non deve essere public... */\n            tag_15:\n              tag_61\n              0x04\n              dup1\n              calldatasize\n              sub\n              dup2\n              add\n              swap1\n              tag_62\n              swap2\n              swap1\n              tag_34\n              jump\t// in\n            tag_62:\n              tag_63\n              jump\t// in\n            tag_61:\n              stop\n                /* \"Lincloud/.deps/contract/contract.sol\":2225:2308  function getUserId() public view returns (uint256){... */\n            tag_19:\n                /* \"Lincloud/.deps/contract/contract.sol\":2267:2274  uint256 */\n              0x00\n                /* \"Lincloud/.deps/contract/contract.sol\":2293:2300  id_user */\n              dup1\n              sload\n                /* \"Lincloud/.deps/contract/contract.sol\":2286:2300  return id_user */\n              swap1\n              pop\n                /* \"Lincloud/.deps/contract/contract.sol\":2225:2308  function getUserId() public view returns (uint256){... */\n              swap1\n              jump\t// out\n                /* \"Lincloud/.deps/contract/contract.sol\":1353:1660  function setRecipientTimeStamp(uint256 recipientId, string memory timestamp) public{... */\n            tag_25:\n                /* \"Lincloud/.deps/contract/contract.sol\":1452:1461  uint256 i */\n              0x00\n                /* \"Lincloud/.deps/contract/contract.sol\":1447:1653  for (uint256 i = 0; i < recipients_list.length; i++) {... */\n            tag_66:\n                /* \"Lincloud/.deps/contract/contract.sol\":1471:1486  recipients_list */\n              0x02\n                /* \"Lincloud/.deps/contract/contract.sol\":1471:1493  recipients_list.length */\n              dup1\n              sload\n              swap1\n              pop\n                /* \"Lincloud/.deps/contract/contract.sol\":1467:1468  i */\n              dup2\n                /* \"Lincloud/.deps/contract/contract.sol\":1467:1493  i < recipients_list.length */\n              lt\n                /* \"Lincloud/.deps/contract/contract.sol\":1447:1653  for (uint256 i = 0; i < recipients_list.length; i++) {... */\n              iszero\n              tag_67\n              jumpi\n                /* \"Lincloud/.deps/contract/contract.sol\":1554:1565  recipientId */\n              dup3\n                /* \"Lincloud/.deps/contract/contract.sol\":1519:1534  recipients_list */\n              0x02\n                /* \"Lincloud/.deps/contract/contract.sol\":1535:1536  i */\n              dup3\n                /* \"Lincloud/.deps/contract/contract.sol\":1519:1537  recipients_list[i] */\n              dup2\n              sload\n              dup2\n              lt\n              tag_69\n              jumpi\n              tag_70\n              tag_71\n              jump\t// in\n            tag_70:\n            tag_69:\n              swap1\n              0x00\n              mstore\n              keccak256(0x00, 0x20)\n              swap1\n              0x03\n              mul\n              add\n                /* \"Lincloud/.deps/contract/contract.sol\":1519:1550  recipients_list[i].id_recipient */\n              0x00\n              add\n              sload\n                /* \"Lincloud/.deps/contract/contract.sol\":1519:1565  recipients_list[i].id_recipient == recipientId */\n              sub\n                /* \"Lincloud/.deps/contract/contract.sol\":1515:1642  if (recipients_list[i].id_recipient == recipientId) {... */\n              tag_73\n              jumpi\n                /* \"Lincloud/.deps/contract/contract.sol\":1617:1626  timestamp */\n              dup2\n                /* \"Lincloud/.deps/contract/contract.sol\":1586:1601  recipients_list */\n              0x02\n                /* \"Lincloud/.deps/contract/contract.sol\":1602:1603  i */\n              dup3\n                /* \"Lincloud/.deps/contract/contract.sol\":1586:1604  recipients_list[i] */\n              dup2\n              sload\n              dup2\n              lt\n              tag_74\n              jumpi\n              tag_75\n              tag_71\n              jump\t// in\n            tag_75:\n            tag_74:\n              swap1\n              0x00\n              mstore\n              keccak256(0x00, 0x20)\n              swap1\n              0x03\n              mul\n              add\n                /* \"Lincloud/.deps/contract/contract.sol\":1586:1614  recipients_list[i].timestamp */\n              0x01\n              add\n                /* \"Lincloud/.deps/contract/contract.sol\":1586:1626  recipients_list[i].timestamp = timestamp */\n              swap1\n              dup2\n              tag_77\n              swap2\n              swap1\n              tag_78\n              jump\t// in\n            tag_77:\n              pop\n                /* \"Lincloud/.deps/contract/contract.sol\":1515:1642  if (recipients_list[i].id_recipient == recipientId) {... */\n            tag_73:\n                /* \"Lincloud/.deps/contract/contract.sol\":1495:1498  i++ */\n              dup1\n              dup1\n              0x01\n              add\n              swap2\n              pop\n              pop\n                /* \"Lincloud/.deps/contract/contract.sol\":1447:1653  for (uint256 i = 0; i < recipients_list.length; i++) {... */\n              jump(tag_66)\n            tag_67:\n              pop\n                /* \"Lincloud/.deps/contract/contract.sol\":1353:1660  function setRecipientTimeStamp(uint256 recipientId, string memory timestamp) public{... */\n              pop\n              pop\n              jump\t// out\n                /* \"Lincloud/.deps/contract/contract.sol\":2058:2187  function closeUserContract() public{... */\n            tag_27:\n                /* \"Lincloud/.deps/contract/contract.sol\":2123:2127  true */\n              0x01\n                /* \"Lincloud/.deps/contract/contract.sol\":2104:2120  isContractClosed */\n              0x05\n              0x00\n                /* \"Lincloud/.deps/contract/contract.sol\":2104:2127  isContractClosed = true */\n              0x0100\n              exp\n              dup2\n              sload\n              dup2\n              0xff\n              mul\n              not\n              and\n              swap1\n              dup4\n              iszero\n              iszero\n              mul\n              or\n              swap1\n              sstore\n              pop\n                /* \"Lincloud/.deps/contract/contract.sol\":2058:2187  function closeUserContract() public{... */\n              jump\t// out\n                /* \"Lincloud/.deps/contract/contract.sol\":1668:2050  function setRecipientResponse(uint256 recipientId, bool response, bool isTimeExpired) public {... */\n            tag_31:\n                /* \"Lincloud/.deps/contract/contract.sol\":1777:1786  uint256 i */\n              0x00\n                /* \"Lincloud/.deps/contract/contract.sol\":1772:2043  for (uint256 i = 0; i < recipients_list.length; i++) {... */\n            tag_81:\n                /* \"Lincloud/.deps/contract/contract.sol\":1796:1811  recipients_list */\n              0x02\n                /* \"Lincloud/.deps/contract/contract.sol\":1796:1818  recipients_list.length */\n              dup1\n              sload\n              swap1\n              pop\n                /* \"Lincloud/.deps/contract/contract.sol\":1792:1793  i */\n              dup2\n                /* \"Lincloud/.deps/contract/contract.sol\":1792:1818  i < recipients_list.length */\n              lt\n                /* \"Lincloud/.deps/contract/contract.sol\":1772:2043  for (uint256 i = 0; i < recipients_list.length; i++) {... */\n              iszero\n              tag_82\n              jumpi\n                /* \"Lincloud/.deps/contract/contract.sol\":1879:1890  recipientId */\n              dup4\n                /* \"Lincloud/.deps/contract/contract.sol\":1844:1859  recipients_list */\n              0x02\n                /* \"Lincloud/.deps/contract/contract.sol\":1860:1861  i */\n              dup3\n                /* \"Lincloud/.deps/contract/contract.sol\":1844:1862  recipients_list[i] */\n              dup2\n              sload\n              dup2\n              lt\n              tag_84\n              jumpi\n              tag_85\n              tag_71\n              jump\t// in\n            tag_85:\n            tag_84:\n              swap1\n              0x00\n              mstore\n              keccak256(0x00, 0x20)\n              swap1\n              0x03\n              mul\n              add\n                /* \"Lincloud/.deps/contract/contract.sol\":1844:1875  recipients_list[i].id_recipient */\n              0x00\n              add\n              sload\n                /* \"Lincloud/.deps/contract/contract.sol\":1844:1890  recipients_list[i].id_recipient == recipientId */\n              sub\n                /* \"Lincloud/.deps/contract/contract.sol\":1840:2032  if (recipients_list[i].id_recipient == recipientId) {... */\n              tag_87\n              jumpi\n                /* \"Lincloud/.deps/contract/contract.sol\":1941:1949  response */\n              dup3\n                /* \"Lincloud/.deps/contract/contract.sol\":1911:1926  recipients_list */\n              0x02\n                /* \"Lincloud/.deps/contract/contract.sol\":1927:1928  i */\n              dup3\n                /* \"Lincloud/.deps/contract/contract.sol\":1911:1929  recipients_list[i] */\n              dup2\n              sload\n              dup2\n              lt\n              tag_88\n              jumpi\n              tag_89\n              tag_71\n              jump\t// in\n            tag_89:\n            tag_88:\n              swap1\n              0x00\n              mstore\n              keccak256(0x00, 0x20)\n              swap1\n              0x03\n              mul\n              add\n                /* \"Lincloud/.deps/contract/contract.sol\":1911:1938  recipients_list[i].response */\n              0x02\n              add\n              0x00\n                /* \"Lincloud/.deps/contract/contract.sol\":1911:1949  recipients_list[i].response = response */\n              0x0100\n              exp\n              dup2\n              sload\n              dup2\n              0xff\n              mul\n              not\n              and\n              swap1\n              dup4\n              iszero\n              iszero\n              mul\n              or\n              swap1\n              sstore\n              pop\n                /* \"Lincloud/.deps/contract/contract.sol\":2003:2016  isTimeExpired */\n              dup2\n                /* \"Lincloud/.deps/contract/contract.sol\":1968:1983  recipients_list */\n              0x02\n                /* \"Lincloud/.deps/contract/contract.sol\":1984:1985  i */\n              dup3\n                /* \"Lincloud/.deps/contract/contract.sol\":1968:1986  recipients_list[i] */\n              dup2\n              sload\n              dup2\n              lt\n              tag_91\n              jumpi\n              tag_92\n              tag_71\n              jump\t// in\n            tag_92:\n            tag_91:\n              swap1\n              0x00\n              mstore\n              keccak256(0x00, 0x20)\n              swap1\n              0x03\n              mul\n              add\n                /* \"Lincloud/.deps/contract/contract.sol\":1968:2000  recipients_list[i].isTimeExpired */\n              0x02\n              add\n              0x01\n                /* \"Lincloud/.deps/contract/contract.sol\":1968:2016  recipients_list[i].isTimeExpired = isTimeExpired */\n              0x0100\n              exp\n              dup2\n              sload\n              dup2\n              0xff\n              mul\n              not\n              and\n              swap1\n              dup4\n              iszero\n              iszero\n              mul\n              or\n              swap1\n              sstore\n              pop\n                /* \"Lincloud/.deps/contract/contract.sol\":1840:2032  if (recipients_list[i].id_recipient == recipientId) {... */\n            tag_87:\n                /* \"Lincloud/.deps/contract/contract.sol\":1820:1823  i++ */\n              dup1\n              dup1\n              0x01\n              add\n              swap2\n              pop\n              pop\n                /* \"Lincloud/.deps/contract/contract.sol\":1772:2043  for (uint256 i = 0; i < recipients_list.length; i++) {... */\n              jump(tag_81)\n            tag_82:\n              pop\n                /* \"Lincloud/.deps/contract/contract.sol\":1668:2050  function setRecipientResponse(uint256 recipientId, bool response, bool isTimeExpired) public {... */\n              pop\n              pop\n              pop\n              jump\t// out\n                /* \"Lincloud/.deps/contract/contract.sol\":436:464  Oracle[] public oracles_list */\n            tag_35:\n              0x03\n              dup2\n              dup2\n              sload\n              dup2\n              lt\n              tag_94\n              jumpi\n              0x00\n              dup1\n              revert\n            tag_94:\n              swap1\n              0x00\n              mstore\n              keccak256(0x00, 0x20)\n              add\n              0x00\n              swap2\n              pop\n              swap1\n              pop\n              dup1\n              0x00\n              add\n              sload\n              swap1\n              pop\n              dup2\n              jump\t// out\n                /* \"Lincloud/.deps/contract/contract.sol\":395:429  Recipient[] public recipients_list */\n            tag_39:\n              0x02\n              dup2\n              dup2\n              sload\n              dup2\n              lt\n              tag_96\n              jumpi\n              0x00\n              dup1\n              revert\n            tag_96:\n              swap1\n              0x00\n              mstore\n              keccak256(0x00, 0x20)\n              swap1\n              0x03\n              mul\n              add\n              0x00\n              swap2\n              pop\n              swap1\n              pop\n              dup1\n              0x00\n              add\n              sload\n              swap1\n              dup1\n              0x01\n              add\n              dup1\n              sload\n              tag_98\n              swap1\n              tag_99\n              jump\t// in\n            tag_98:\n              dup1\n              0x1f\n              add\n              0x20\n              dup1\n              swap2\n              div\n              mul\n              0x20\n              add\n              mload(0x40)\n              swap1\n              dup2\n              add\n              0x40\n              mstore\n              dup1\n              swap3\n              swap2\n              swap1\n              dup2\n              dup2\n              mstore\n              0x20\n              add\n              dup3\n              dup1\n              sload\n              tag_100\n              swap1\n              tag_99\n              jump\t// in\n            tag_100:\n              dup1\n              iszero\n              tag_101\n              jumpi\n              dup1\n              0x1f\n              lt\n              tag_102\n              jumpi\n              0x0100\n              dup1\n              dup4\n              sload\n              div\n              mul\n              dup4\n              mstore\n              swap2\n              0x20\n              add\n              swap2\n              jump(tag_101)\n            tag_102:\n              dup3\n              add\n              swap2\n              swap1\n              0x00\n              mstore\n              keccak256(0x00, 0x20)\n              swap1\n            tag_103:\n              dup2\n              sload\n              dup2\n              mstore\n              swap1\n              0x01\n              add\n              swap1\n              0x20\n              add\n              dup1\n              dup4\n              gt\n              tag_103\n              jumpi\n              dup3\n              swap1\n              sub\n              0x1f\n              and\n              dup3\n              add\n              swap2\n            tag_101:\n              pop\n              pop\n              pop\n              pop\n              pop\n              swap1\n              dup1\n              0x02\n              add\n              0x00\n              swap1\n              sload\n              swap1\n              0x0100\n              exp\n              swap1\n              div\n              0xff\n              and\n              swap1\n              dup1\n              0x02\n              add\n              0x01\n              swap1\n              sload\n              swap1\n              0x0100\n              exp\n              swap1\n              div\n              0xff\n              and\n              swap1\n              pop\n              dup5\n              jump\t// out\n                /* \"Lincloud/.deps/contract/contract.sol\":2647:2949  function getAllOracles() public view returns (uint256[] memory){... */\n            tag_43:\n                /* \"Lincloud/.deps/contract/contract.sol\":2693:2709  uint256[] memory */\n              0x60\n                /* \"Lincloud/.deps/contract/contract.sol\":2721:2748  uint256[] memory oraclesIds */\n              0x00\n                /* \"Lincloud/.deps/contract/contract.sol\":2765:2777  oracles_list */\n              0x03\n                /* \"Lincloud/.deps/contract/contract.sol\":2765:2784  oracles_list.length */\n              dup1\n              sload\n              swap1\n              pop\n                /* \"Lincloud/.deps/contract/contract.sol\":2751:2785  new uint256[](oracles_list.length) */\n              0xffffffffffffffff\n              dup2\n              gt\n              iszero\n              tag_105\n              jumpi\n              tag_106\n              tag_107\n              jump\t// in\n            tag_106:\n            tag_105:\n              mload(0x40)\n              swap1\n              dup1\n              dup3\n              mstore\n              dup1\n              0x20\n              mul\n              0x20\n              add\n              dup3\n              add\n              0x40\n              mstore\n              dup1\n              iszero\n              tag_108\n              jumpi\n              dup2\n              0x20\n              add\n              0x20\n              dup3\n              mul\n              dup1\n              calldatasize\n              dup4\n              calldatacopy\n              dup1\n              dup3\n              add\n              swap2\n              pop\n              pop\n              swap1\n              pop\n            tag_108:\n              pop\n                /* \"Lincloud/.deps/contract/contract.sol\":2721:2785  uint256[] memory oraclesIds = new uint256[](oracles_list.length) */\n              swap1\n              pop\n                /* \"Lincloud/.deps/contract/contract.sol\":2801:2810  uint256 i */\n              0x00\n                /* \"Lincloud/.deps/contract/contract.sol\":2796:2914  for (uint256 i = 0; i < oracles_list.length; i++) {... */\n            tag_109:\n                /* \"Lincloud/.deps/contract/contract.sol\":2820:2832  oracles_list */\n              0x03\n                /* \"Lincloud/.deps/contract/contract.sol\":2820:2839  oracles_list.length */\n              dup1\n              sload\n              swap1\n              pop\n                /* \"Lincloud/.deps/contract/contract.sol\":2816:2817  i */\n              dup2\n                /* \"Lincloud/.deps/contract/contract.sol\":2816:2839  i < oracles_list.length */\n              lt\n                /* \"Lincloud/.deps/contract/contract.sol\":2796:2914  for (uint256 i = 0; i < oracles_list.length; i++) {... */\n              iszero\n              tag_110\n              jumpi\n                /* \"Lincloud/.deps/contract/contract.sol\":2877:2889  oracles_list */\n              0x03\n                /* \"Lincloud/.deps/contract/contract.sol\":2890:2891  i */\n              dup2\n                /* \"Lincloud/.deps/contract/contract.sol\":2877:2892  oracles_list[i] */\n              dup2\n              sload\n              dup2\n              lt\n              tag_112\n              jumpi\n              tag_113\n              tag_71\n              jump\t// in\n            tag_113:\n            tag_112:\n              swap1\n              0x00\n              mstore\n              keccak256(0x00, 0x20)\n              add\n                /* \"Lincloud/.deps/contract/contract.sol\":2877:2902  oracles_list[i].id_oracle */\n              0x00\n              add\n              sload\n                /* \"Lincloud/.deps/contract/contract.sol\":2861:2871  oraclesIds */\n              dup3\n                /* \"Lincloud/.deps/contract/contract.sol\":2872:2873  i */\n              dup3\n                /* \"Lincloud/.deps/contract/contract.sol\":2861:2874  oraclesIds[i] */\n              dup2\n              mload\n              dup2\n              lt\n              tag_115\n              jumpi\n              tag_116\n              tag_71\n              jump\t// in\n            tag_116:\n            tag_115:\n              0x20\n              mul\n              0x20\n              add\n              add\n                /* \"Lincloud/.deps/contract/contract.sol\":2861:2902  oraclesIds[i] = oracles_list[i].id_oracle */\n              dup2\n              dup2\n              mstore\n              pop\n              pop\n                /* \"Lincloud/.deps/contract/contract.sol\":2841:2844  i++ */\n              dup1\n              dup1\n              0x01\n              add\n              swap2\n              pop\n              pop\n                /* \"Lincloud/.deps/contract/contract.sol\":2796:2914  for (uint256 i = 0; i < oracles_list.length; i++) {... */\n              jump(tag_109)\n            tag_110:\n              pop\n                /* \"Lincloud/.deps/contract/contract.sol\":2931:2941  oraclesIds */\n              dup1\n                /* \"Lincloud/.deps/contract/contract.sol\":2924:2941  return oraclesIds */\n              swap2\n              pop\n              pop\n                /* \"Lincloud/.deps/contract/contract.sol\":2647:2949  function getAllOracles() public view returns (uint256[] memory){... */\n              swap1\n              jump\t// out\n                /* \"Lincloud/.deps/contract/contract.sol\":353:388  user_state public actual_user_state */\n            tag_47:\n              0x01\n              0x00\n              swap1\n              sload\n              swap1\n              0x0100\n              exp\n              swap1\n              div\n              0xff\n              and\n              dup2\n              jump\t// out\n                /* \"Lincloud/.deps/contract/contract.sol\":324:346  uint256 public id_user */\n            tag_51:\n              sload(0x00)\n              dup2\n              jump\t// out\n                /* \"Lincloud/.deps/contract/contract.sol\":1247:1345  function setUserStateToDeceased() public{... */\n            tag_54:\n                /* \"Lincloud/.deps/contract/contract.sol\":1318:1337  user_state.deceased */\n              0x00\n                /* \"Lincloud/.deps/contract/contract.sol\":1298:1315  actual_user_state */\n              0x01\n              0x00\n                /* \"Lincloud/.deps/contract/contract.sol\":1298:1337  actual_user_state = user_state.deceased */\n              0x0100\n              exp\n              dup2\n              sload\n              dup2\n              0xff\n              mul\n              not\n              and\n              swap1\n              dup4\n              0x01\n              dup2\n              gt\n              iszero\n              tag_118\n              jumpi\n              tag_119\n              tag_120\n              jump\t// in\n            tag_119:\n            tag_118:\n              mul\n              or\n              swap1\n              sstore\n              pop\n                /* \"Lincloud/.deps/contract/contract.sol\":1247:1345  function setUserStateToDeceased() public{... */\n              jump\t// out\n                /* \"Lincloud/.deps/contract/contract.sol\":2316:2639  function getAllRecipients() public view returns (uint256[] memory){... */\n            tag_56:\n                /* \"Lincloud/.deps/contract/contract.sol\":2365:2381  uint256[] memory */\n              0x60\n                /* \"Lincloud/.deps/contract/contract.sol\":2393:2422  uint256[] memory recipientIDs */\n              0x00\n                /* \"Lincloud/.deps/contract/contract.sol\":2439:2454  recipients_list */\n              0x02\n                /* \"Lincloud/.deps/contract/contract.sol\":2439:2461  recipients_list.length */\n              dup1\n              sload\n              swap1\n              pop\n                /* \"Lincloud/.deps/contract/contract.sol\":2425:2462  new uint256[](recipients_list.length) */\n              0xffffffffffffffff\n              dup2\n              gt\n              iszero\n              tag_122\n              jumpi\n              tag_123\n              tag_107\n              jump\t// in\n            tag_123:\n            tag_122:\n              mload(0x40)\n              swap1\n              dup1\n              dup3\n              mstore\n              dup1\n              0x20\n              mul\n              0x20\n              add\n              dup3\n              add\n              0x40\n              mstore\n              dup1\n              iszero\n              tag_124\n              jumpi\n              dup2\n              0x20\n              add\n              0x20\n              dup3\n              mul\n              dup1\n              calldatasize\n              dup4\n              calldatacopy\n              dup1\n              dup3\n              add\n              swap2\n              pop\n              pop\n              swap1\n              pop\n            tag_124:\n              pop\n                /* \"Lincloud/.deps/contract/contract.sol\":2393:2462  uint256[] memory recipientIDs = new uint256[](recipients_list.length) */\n              swap1\n              pop\n                /* \"Lincloud/.deps/contract/contract.sol\":2478:2487  uint256 i */\n              0x00\n                /* \"Lincloud/.deps/contract/contract.sol\":2473:2602  for (uint256 i = 0; i < recipients_list.length; i++) {... */\n            tag_125:\n                /* \"Lincloud/.deps/contract/contract.sol\":2497:2512  recipients_list */\n              0x02\n                /* \"Lincloud/.deps/contract/contract.sol\":2497:2519  recipients_list.length */\n              dup1\n              sload\n              swap1\n              pop\n                /* \"Lincloud/.deps/contract/contract.sol\":2493:2494  i */\n              dup2\n                /* \"Lincloud/.deps/contract/contract.sol\":2493:2519  i < recipients_list.length */\n              lt\n                /* \"Lincloud/.deps/contract/contract.sol\":2473:2602  for (uint256 i = 0; i < recipients_list.length; i++) {... */\n              iszero\n              tag_126\n              jumpi\n                /* \"Lincloud/.deps/contract/contract.sol\":2559:2574  recipients_list */\n              0x02\n                /* \"Lincloud/.deps/contract/contract.sol\":2575:2576  i */\n              dup2\n                /* \"Lincloud/.deps/contract/contract.sol\":2559:2577  recipients_list[i] */\n              dup2\n              sload\n              dup2\n              lt\n              tag_128\n              jumpi\n              tag_129\n              tag_71\n              jump\t// in\n            tag_129:\n            tag_128:\n              swap1\n              0x00\n              mstore\n              keccak256(0x00, 0x20)\n              swap1\n              0x03\n              mul\n              add\n                /* \"Lincloud/.deps/contract/contract.sol\":2559:2590  recipients_list[i].id_recipient */\n              0x00\n              add\n              sload\n                /* \"Lincloud/.deps/contract/contract.sol\":2541:2553  recipientIDs */\n              dup3\n                /* \"Lincloud/.deps/contract/contract.sol\":2554:2555  i */\n              dup3\n                /* \"Lincloud/.deps/contract/contract.sol\":2541:2556  recipientIDs[i] */\n              dup2\n              mload\n              dup2\n              lt\n              tag_131\n              jumpi\n              tag_132\n              tag_71\n              jump\t// in\n            tag_132:\n            tag_131:\n              0x20\n              mul\n              0x20\n              add\n              add\n                /* \"Lincloud/.deps/contract/contract.sol\":2541:2590  recipientIDs[i] = recipients_list[i].id_recipient */\n              dup2\n              dup2\n              mstore\n              pop\n              pop\n                /* \"Lincloud/.deps/contract/contract.sol\":2521:2524  i++ */\n              dup1\n              dup1\n              0x01\n              add\n              swap2\n              pop\n              pop\n                /* \"Lincloud/.deps/contract/contract.sol\":2473:2602  for (uint256 i = 0; i < recipients_list.length; i++) {... */\n              jump(tag_125)\n            tag_126:\n              pop\n                /* \"Lincloud/.deps/contract/contract.sol\":2619:2631  recipientIDs */\n              dup1\n                /* \"Lincloud/.deps/contract/contract.sol\":2612:2631  return recipientIDs */\n              swap2\n              pop\n              pop\n                /* \"Lincloud/.deps/contract/contract.sol\":2316:2639  function getAllRecipients() public view returns (uint256[] memory){... */\n              swap1\n              jump\t// out\n                /* \"Lincloud/.deps/contract/contract.sol\":1044:1239  function addOracle(uint256 oracleId) public { // non deve essere public... */\n            tag_60:\n                /* \"Lincloud/.deps/contract/contract.sol\":1125:1149  Oracle memory new_oracle */\n              tag_134\n              tag_135\n              jump\t// in\n            tag_134:\n                /* \"Lincloud/.deps/contract/contract.sol\":1183:1191  oracleId */\n              dup2\n                /* \"Lincloud/.deps/contract/contract.sol\":1160:1170  new_oracle */\n              dup2\n                /* \"Lincloud/.deps/contract/contract.sol\":1160:1180  new_oracle.id_oracle */\n              0x00\n              add\n                /* \"Lincloud/.deps/contract/contract.sol\":1160:1191  new_oracle.id_oracle = oracleId */\n              dup2\n              dup2\n              mstore\n              pop\n              pop\n                /* \"Lincloud/.deps/contract/contract.sol\":1202:1214  oracles_list */\n              0x03\n                /* \"Lincloud/.deps/contract/contract.sol\":1220:1230  new_oracle */\n              dup2\n                /* \"Lincloud/.deps/contract/contract.sol\":1202:1231  oracles_list.push(new_oracle) */\n              swap1\n              dup1\n              0x01\n              dup2\n              sload\n              add\n              dup1\n              dup3\n              sstore\n              dup1\n              swap2\n              pop\n              pop\n              0x01\n              swap1\n              sub\n              swap1\n              0x00\n              mstore\n              keccak256(0x00, 0x20)\n              add\n              0x00\n              swap1\n              swap2\n              swap1\n              swap2\n              swap1\n              swap2\n              pop\n              0x00\n              dup3\n              add\n              mload\n              dup2\n              0x00\n              add\n              sstore\n              pop\n              pop\n                /* \"Lincloud/.deps/contract/contract.sol\":1088:1239  { // non deve essere public... */\n              pop\n                /* \"Lincloud/.deps/contract/contract.sol\":1044:1239  function addOracle(uint256 oracleId) public { // non deve essere public... */\n              pop\n              jump\t// out\n                /* \"Lincloud/.deps/contract/contract.sol\":814:1036  function addRecipient(uint256 recipientId) public { // non deve essere public... */\n            tag_63:\n                /* \"Lincloud/.deps/contract/contract.sol\":901:931  Recipient memory new_recipient */\n              tag_138\n              tag_139\n              jump\t// in\n            tag_138:\n                /* \"Lincloud/.deps/contract/contract.sol\":971:982  recipientId */\n              dup2\n                /* \"Lincloud/.deps/contract/contract.sol\":942:955  new_recipient */\n              dup2\n                /* \"Lincloud/.deps/contract/contract.sol\":942:968  new_recipient.id_recipient */\n              0x00\n              add\n                /* \"Lincloud/.deps/contract/contract.sol\":942:982  new_recipient.id_recipient = recipientId */\n              dup2\n              dup2\n              mstore\n              pop\n              pop\n                /* \"Lincloud/.deps/contract/contract.sol\":993:1008  recipients_list */\n              0x02\n                /* \"Lincloud/.deps/contract/contract.sol\":1014:1027  new_recipient */\n              dup2\n                /* \"Lincloud/.deps/contract/contract.sol\":993:1028  recipients_list.push(new_recipient) */\n              swap1\n              dup1\n              0x01\n              dup2\n              sload\n              add\n              dup1\n              dup3\n              sstore\n              dup1\n              swap2\n              pop\n              pop\n              0x01\n              swap1\n              sub\n              swap1\n              0x00\n              mstore\n              keccak256(0x00, 0x20)\n              swap1\n              0x03\n              mul\n              add\n              0x00\n              swap1\n              swap2\n              swap1\n              swap2\n              swap1\n              swap2\n              pop\n              0x00\n              dup3\n              add\n              mload\n              dup2\n              0x00\n              add\n              sstore\n              0x20\n              dup3\n              add\n              mload\n              dup2\n              0x01\n              add\n              swap1\n              dup2\n              tag_141\n              swap2\n              swap1\n              tag_78\n              jump\t// in\n            tag_141:\n              pop\n              0x40\n              dup3\n              add\n              mload\n              dup2\n              0x02\n              add\n              exp(0x0100, 0x00)\n              dup2\n              sload\n              dup2\n              0xff\n              mul\n              not\n              and\n              swap1\n              dup4\n              iszero\n              iszero\n              mul\n              or\n              swap1\n              sstore\n              pop\n              0x60\n              dup3\n              add\n              mload\n              dup2\n              0x02\n              add\n              exp(0x0100, 0x01)\n              dup2\n              sload\n              dup2\n              0xff\n              mul\n              not\n              and\n              swap1\n              dup4\n              iszero\n              iszero\n              mul\n              or\n              swap1\n              sstore\n              pop\n              pop\n              pop\n                /* \"Lincloud/.deps/contract/contract.sol\":864:1036  { // non deve essere public... */\n              pop\n                /* \"Lincloud/.deps/contract/contract.sol\":814:1036  function addRecipient(uint256 recipientId) public { // non deve essere public... */\n              pop\n              jump\t// out\n            tag_135:\n              mload(0x40)\n              dup1\n              0x20\n              add\n              0x40\n              mstore\n              dup1\n              0x00\n              dup2\n              mstore\n              pop\n              swap1\n              jump\t// out\n            tag_139:\n              mload(0x40)\n              dup1\n              0x80\n              add\n              0x40\n              mstore\n              dup1\n              0x00\n              dup2\n              mstore\n              0x20\n              add\n              0x60\n              dup2\n              mstore\n              0x20\n              add\n              iszero(iszero(0x00))\n              dup2\n              mstore\n              0x20\n              add\n              iszero(iszero(0x00))\n              dup2\n              mstore\n              pop\n              swap1\n              jump\t// out\n                /* \"#utility.yul\":7:84   */\n            tag_142:\n                /* \"#utility.yul\":44:51   */\n              0x00\n                /* \"#utility.yul\":73:78   */\n              dup2\n                /* \"#utility.yul\":62:78   */\n              swap1\n              pop\n                /* \"#utility.yul\":7:84   */\n              swap2\n              swap1\n              pop\n              jump\t// out\n                /* \"#utility.yul\":90:208   */\n            tag_143:\n                /* \"#utility.yul\":177:201   */\n              tag_196\n                /* \"#utility.yul\":195:200   */\n              dup2\n                /* \"#utility.yul\":177:201   */\n              tag_142\n              jump\t// in\n            tag_196:\n                /* \"#utility.yul\":172:175   */\n              dup3\n                /* \"#utility.yul\":165:202   */\n              mstore\n                /* \"#utility.yul\":90:208   */\n              pop\n              pop\n              jump\t// out\n                /* \"#utility.yul\":214:436   */\n            tag_21:\n                /* \"#utility.yul\":307:311   */\n              0x00\n                /* \"#utility.yul\":345:347   */\n              0x20\n                /* \"#utility.yul\":334:343   */\n              dup3\n                /* \"#utility.yul\":330:348   */\n              add\n                /* \"#utility.yul\":322:348   */\n              swap1\n              pop\n                /* \"#utility.yul\":358:429   */\n              tag_198\n                /* \"#utility.yul\":426:427   */\n              0x00\n                /* \"#utility.yul\":415:424   */\n              dup4\n                /* \"#utility.yul\":411:428   */\n              add\n                /* \"#utility.yul\":402:408   */\n              dup5\n                /* \"#utility.yul\":358:429   */\n              tag_143\n              jump\t// in\n            tag_198:\n                /* \"#utility.yul\":214:436   */\n              swap3\n              swap2\n              pop\n              pop\n              jump\t// out\n                /* \"#utility.yul\":442:517   */\n            tag_144:\n                /* \"#utility.yul\":475:481   */\n              0x00\n                /* \"#utility.yul\":508:510   */\n              0x40\n                /* \"#utility.yul\":502:511   */\n              mload\n                /* \"#utility.yul\":492:511   */\n              swap1\n              pop\n                /* \"#utility.yul\":442:517   */\n              swap1\n              jump\t// out\n                /* \"#utility.yul\":523:640   */\n            tag_145:\n                /* \"#utility.yul\":632:633   */\n              0x00\n                /* \"#utility.yul\":629:630   */\n              dup1\n                /* \"#utility.yul\":622:634   */\n              revert\n                /* \"#utility.yul\":646:763   */\n            tag_146:\n                /* \"#utility.yul\":755:756   */\n              0x00\n                /* \"#utility.yul\":752:753   */\n              dup1\n                /* \"#utility.yul\":745:757   */\n              revert\n                /* \"#utility.yul\":769:891   */\n            tag_147:\n                /* \"#utility.yul\":842:866   */\n              tag_203\n                /* \"#utility.yul\":860:865   */\n              dup2\n                /* \"#utility.yul\":842:866   */\n              tag_142\n              jump\t// in\n            tag_203:\n                /* \"#utility.yul\":835:840   */\n              dup2\n                /* \"#utility.yul\":832:867   */\n              eq\n                /* \"#utility.yul\":822:885   */\n              tag_204\n              jumpi\n                /* \"#utility.yul\":881:882   */\n              0x00\n                /* \"#utility.yul\":878:879   */\n              dup1\n                /* \"#utility.yul\":871:883   */\n              revert\n                /* \"#utility.yul\":822:885   */\n            tag_204:\n                /* \"#utility.yul\":769:891   */\n              pop\n              jump\t// out\n                /* \"#utility.yul\":897:1036   */\n            tag_148:\n                /* \"#utility.yul\":943:948   */\n              0x00\n                /* \"#utility.yul\":981:987   */\n              dup2\n                /* \"#utility.yul\":968:988   */\n              calldataload\n                /* \"#utility.yul\":959:988   */\n              swap1\n              pop\n                /* \"#utility.yul\":997:1030   */\n              tag_206\n                /* \"#utility.yul\":1024:1029   */\n              dup2\n                /* \"#utility.yul\":997:1030   */\n              tag_147\n              jump\t// in\n            tag_206:\n                /* \"#utility.yul\":897:1036   */\n              swap3\n              swap2\n              pop\n              pop\n              jump\t// out\n                /* \"#utility.yul\":1042:1159   */\n            tag_149:\n                /* \"#utility.yul\":1151:1152   */\n              0x00\n                /* \"#utility.yul\":1148:1149   */\n              dup1\n                /* \"#utility.yul\":1141:1153   */\n              revert\n                /* \"#utility.yul\":1165:1282   */\n            tag_150:\n                /* \"#utility.yul\":1274:1275   */\n              0x00\n                /* \"#utility.yul\":1271:1272   */\n              dup1\n                /* \"#utility.yul\":1264:1276   */\n              revert\n                /* \"#utility.yul\":1288:1390   */\n            tag_151:\n                /* \"#utility.yul\":1329:1335   */\n              0x00\n                /* \"#utility.yul\":1380:1382   */\n              0x1f\n                /* \"#utility.yul\":1376:1383   */\n              not\n                /* \"#utility.yul\":1371:1373   */\n              0x1f\n                /* \"#utility.yul\":1364:1369   */\n              dup4\n                /* \"#utility.yul\":1360:1374   */\n              add\n                /* \"#utility.yul\":1356:1384   */\n              and\n                /* \"#utility.yul\":1346:1384   */\n              swap1\n              pop\n                /* \"#utility.yul\":1288:1390   */\n              swap2\n              swap1\n              pop\n              jump\t// out\n                /* \"#utility.yul\":1396:1576   */\n            tag_107:\n                /* \"#utility.yul\":1444:1521   */\n              0x4e487b7100000000000000000000000000000000000000000000000000000000\n                /* \"#utility.yul\":1441:1442   */\n              0x00\n                /* \"#utility.yul\":1434:1522   */\n              mstore\n                /* \"#utility.yul\":1541:1545   */\n              0x41\n                /* \"#utility.yul\":1538:1539   */\n              0x04\n                /* \"#utility.yul\":1531:1546   */\n              mstore\n                /* \"#utility.yul\":1565:1569   */\n              0x24\n                /* \"#utility.yul\":1562:1563   */\n              0x00\n                /* \"#utility.yul\":1555:1570   */\n              revert\n                /* \"#utility.yul\":1582:1863   */\n            tag_152:\n                /* \"#utility.yul\":1665:1692   */\n              tag_212\n                /* \"#utility.yul\":1687:1691   */\n              dup3\n                /* \"#utility.yul\":1665:1692   */\n              tag_151\n              jump\t// in\n            tag_212:\n                /* \"#utility.yul\":1657:1663   */\n              dup2\n                /* \"#utility.yul\":1653:1693   */\n              add\n                /* \"#utility.yul\":1795:1801   */\n              dup2\n                /* \"#utility.yul\":1783:1793   */\n              dup2\n                /* \"#utility.yul\":1780:1802   */\n              lt\n                /* \"#utility.yul\":1759:1777   */\n              0xffffffffffffffff\n                /* \"#utility.yul\":1747:1757   */\n              dup3\n                /* \"#utility.yul\":1744:1778   */\n              gt\n                /* \"#utility.yul\":1741:1803   */\n              or\n                /* \"#utility.yul\":1738:1826   */\n              iszero\n              tag_213\n              jumpi\n                /* \"#utility.yul\":1806:1824   */\n              tag_214\n              tag_107\n              jump\t// in\n            tag_214:\n                /* \"#utility.yul\":1738:1826   */\n            tag_213:\n                /* \"#utility.yul\":1846:1856   */\n              dup1\n                /* \"#utility.yul\":1842:1844   */\n              0x40\n                /* \"#utility.yul\":1835:1857   */\n              mstore\n                /* \"#utility.yul\":1625:1863   */\n              pop\n                /* \"#utility.yul\":1582:1863   */\n              pop\n              pop\n              jump\t// out\n                /* \"#utility.yul\":1869:1998   */\n            tag_153:\n                /* \"#utility.yul\":1903:1909   */\n              0x00\n                /* \"#utility.yul\":1930:1950   */\n              tag_216\n              tag_144\n              jump\t// in\n            tag_216:\n                /* \"#utility.yul\":1920:1950   */\n              swap1\n              pop\n                /* \"#utility.yul\":1959:1992   */\n              tag_217\n                /* \"#utility.yul\":1987:1991   */\n              dup3\n                /* \"#utility.yul\":1979:1985   */\n              dup3\n                /* \"#utility.yul\":1959:1992   */\n              tag_152\n              jump\t// in\n            tag_217:\n                /* \"#utility.yul\":1869:1998   */\n              swap2\n              swap1\n              pop\n              jump\t// out\n                /* \"#utility.yul\":2004:2312   */\n            tag_154:\n                /* \"#utility.yul\":2066:2070   */\n              0x00\n                /* \"#utility.yul\":2156:2174   */\n              0xffffffffffffffff\n                /* \"#utility.yul\":2148:2154   */\n              dup3\n                /* \"#utility.yul\":2145:2175   */\n              gt\n                /* \"#utility.yul\":2142:2198   */\n              iszero\n              tag_219\n              jumpi\n                /* \"#utility.yul\":2178:2196   */\n              tag_220\n              tag_107\n              jump\t// in\n            tag_220:\n                /* \"#utility.yul\":2142:2198   */\n            tag_219:\n                /* \"#utility.yul\":2216:2245   */\n              tag_221\n                /* \"#utility.yul\":2238:2244   */\n              dup3\n                /* \"#utility.yul\":2216:2245   */\n              tag_151\n              jump\t// in\n            tag_221:\n                /* \"#utility.yul\":2208:2245   */\n              swap1\n              pop\n                /* \"#utility.yul\":2300:2304   */\n              0x20\n                /* \"#utility.yul\":2294:2298   */\n              dup2\n                /* \"#utility.yul\":2290:2305   */\n              add\n                /* \"#utility.yul\":2282:2305   */\n              swap1\n              pop\n                /* \"#utility.yul\":2004:2312   */\n              swap2\n              swap1\n              pop\n              jump\t// out\n                /* \"#utility.yul\":2318:2464   */\n            tag_155:\n                /* \"#utility.yul\":2415:2421   */\n              dup3\n                /* \"#utility.yul\":2410:2413   */\n              dup2\n                /* \"#utility.yul\":2405:2408   */\n              dup4\n                /* \"#utility.yul\":2392:2422   */\n              calldatacopy\n                /* \"#utility.yul\":2456:2457   */\n              0x00\n                /* \"#utility.yul\":2447:2453   */\n              dup4\n                /* \"#utility.yul\":2442:2445   */\n              dup4\n                /* \"#utility.yul\":2438:2454   */\n              add\n                /* \"#utility.yul\":2431:2458   */\n              mstore\n                /* \"#utility.yul\":2318:2464   */\n              pop\n              pop\n              pop\n              jump\t// out\n                /* \"#utility.yul\":2470:2895   */\n            tag_156:\n                /* \"#utility.yul\":2548:2553   */\n              0x00\n                /* \"#utility.yul\":2573:2639   */\n              tag_224\n                /* \"#utility.yul\":2589:2638   */\n              tag_225\n                /* \"#utility.yul\":2631:2637   */\n              dup5\n                /* \"#utility.yul\":2589:2638   */\n              tag_154\n              jump\t// in\n            tag_225:\n                /* \"#utility.yul\":2573:2639   */\n              tag_153\n              jump\t// in\n            tag_224:\n                /* \"#utility.yul\":2564:2639   */\n              swap1\n              pop\n                /* \"#utility.yul\":2662:2668   */\n              dup3\n                /* \"#utility.yul\":2655:2660   */\n              dup2\n                /* \"#utility.yul\":2648:2669   */\n              mstore\n                /* \"#utility.yul\":2700:2704   */\n              0x20\n                /* \"#utility.yul\":2693:2698   */\n              dup2\n                /* \"#utility.yul\":2689:2705   */\n              add\n                /* \"#utility.yul\":2738:2741   */\n              dup5\n                /* \"#utility.yul\":2729:2735   */\n              dup5\n                /* \"#utility.yul\":2724:2727   */\n              dup5\n                /* \"#utility.yul\":2720:2736   */\n              add\n                /* \"#utility.yul\":2717:2742   */\n              gt\n                /* \"#utility.yul\":2714:2826   */\n              iszero\n              tag_226\n              jumpi\n                /* \"#utility.yul\":2745:2824   */\n              tag_227\n              tag_150\n              jump\t// in\n            tag_227:\n                /* \"#utility.yul\":2714:2826   */\n            tag_226:\n                /* \"#utility.yul\":2835:2889   */\n              tag_228\n                /* \"#utility.yul\":2882:2888   */\n              dup5\n                /* \"#utility.yul\":2877:2880   */\n              dup3\n                /* \"#utility.yul\":2872:2875   */\n              dup6\n                /* \"#utility.yul\":2835:2889   */\n              tag_155\n              jump\t// in\n            tag_228:\n                /* \"#utility.yul\":2554:2895   */\n              pop\n                /* \"#utility.yul\":2470:2895   */\n              swap4\n              swap3\n              pop\n              pop\n              pop\n              jump\t// out\n                /* \"#utility.yul\":2915:3255   */\n            tag_157:\n                /* \"#utility.yul\":2971:2976   */\n              0x00\n                /* \"#utility.yul\":3020:3023   */\n              dup3\n                /* \"#utility.yul\":3013:3017   */\n              0x1f\n                /* \"#utility.yul\":3005:3011   */\n              dup4\n                /* \"#utility.yul\":3001:3018   */\n              add\n                /* \"#utility.yul\":2997:3024   */\n              slt\n                /* \"#utility.yul\":2987:3109   */\n              tag_230\n              jumpi\n                /* \"#utility.yul\":3028:3107   */\n              tag_231\n              tag_149\n              jump\t// in\n            tag_231:\n                /* \"#utility.yul\":2987:3109   */\n            tag_230:\n                /* \"#utility.yul\":3145:3151   */\n              dup2\n                /* \"#utility.yul\":3132:3152   */\n              calldataload\n                /* \"#utility.yul\":3170:3249   */\n              tag_232\n                /* \"#utility.yul\":3245:3248   */\n              dup5\n                /* \"#utility.yul\":3237:3243   */\n              dup3\n                /* \"#utility.yul\":3230:3234   */\n              0x20\n                /* \"#utility.yul\":3222:3228   */\n              dup7\n                /* \"#utility.yul\":3218:3235   */\n              add\n                /* \"#utility.yul\":3170:3249   */\n              tag_156\n              jump\t// in\n            tag_232:\n                /* \"#utility.yul\":3161:3249   */\n              swap2\n              pop\n                /* \"#utility.yul\":2977:3255   */\n              pop\n                /* \"#utility.yul\":2915:3255   */\n              swap3\n              swap2\n              pop\n              pop\n              jump\t// out\n                /* \"#utility.yul\":3261:3915   */\n            tag_24:\n                /* \"#utility.yul\":3339:3345   */\n              0x00\n                /* \"#utility.yul\":3347:3353   */\n              dup1\n                /* \"#utility.yul\":3396:3398   */\n              0x40\n                /* \"#utility.yul\":3384:3393   */\n              dup4\n                /* \"#utility.yul\":3375:3382   */\n              dup6\n                /* \"#utility.yul\":3371:3394   */\n              sub\n                /* \"#utility.yul\":3367:3399   */\n              slt\n                /* \"#utility.yul\":3364:3483   */\n              iszero\n              tag_234\n              jumpi\n                /* \"#utility.yul\":3402:3481   */\n              tag_235\n              tag_145\n              jump\t// in\n            tag_235:\n                /* \"#utility.yul\":3364:3483   */\n            tag_234:\n                /* \"#utility.yul\":3522:3523   */\n              0x00\n                /* \"#utility.yul\":3547:3600   */\n              tag_236\n                /* \"#utility.yul\":3592:3599   */\n              dup6\n                /* \"#utility.yul\":3583:3589   */\n              dup3\n                /* \"#utility.yul\":3572:3581   */\n              dup7\n                /* \"#utility.yul\":3568:3590   */\n              add\n                /* \"#utility.yul\":3547:3600   */\n              tag_148\n              jump\t// in\n            tag_236:\n                /* \"#utility.yul\":3537:3600   */\n              swap3\n              pop\n                /* \"#utility.yul\":3493:3610   */\n              pop\n                /* \"#utility.yul\":3677:3679   */\n              0x20\n                /* \"#utility.yul\":3666:3675   */\n              dup4\n                /* \"#utility.yul\":3662:3680   */\n              add\n                /* \"#utility.yul\":3649:3681   */\n              calldataload\n                /* \"#utility.yul\":3708:3726   */\n              0xffffffffffffffff\n                /* \"#utility.yul\":3700:3706   */\n              dup2\n                /* \"#utility.yul\":3697:3727   */\n              gt\n                /* \"#utility.yul\":3694:3811   */\n              iszero\n              tag_237\n              jumpi\n                /* \"#utility.yul\":3730:3809   */\n              tag_238\n              tag_146\n              jump\t// in\n            tag_238:\n                /* \"#utility.yul\":3694:3811   */\n            tag_237:\n                /* \"#utility.yul\":3835:3898   */\n              tag_239\n                /* \"#utility.yul\":3890:3897   */\n              dup6\n                /* \"#utility.yul\":3881:3887   */\n              dup3\n                /* \"#utility.yul\":3870:3879   */\n              dup7\n                /* \"#utility.yul\":3866:3888   */\n              add\n                /* \"#utility.yul\":3835:3898   */\n              tag_157\n              jump\t// in\n            tag_239:\n                /* \"#utility.yul\":3825:3898   */\n              swap2\n              pop\n                /* \"#utility.yul\":3620:3908   */\n              pop\n                /* \"#utility.yul\":3261:3915   */\n              swap3\n              pop\n              swap3\n              swap1\n              pop\n              jump\t// out\n                /* \"#utility.yul\":3921:4011   */\n            tag_158:\n                /* \"#utility.yul\":3955:3962   */\n              0x00\n                /* \"#utility.yul\":3998:4003   */\n              dup2\n                /* \"#utility.yul\":3991:4004   */\n              iszero\n                /* \"#utility.yul\":3984:4005   */\n              iszero\n                /* \"#utility.yul\":3973:4005   */\n              swap1\n              pop\n                /* \"#utility.yul\":3921:4011   */\n              swap2\n              swap1\n              pop\n              jump\t// out\n                /* \"#utility.yul\":4017:4133   */\n            tag_159:\n                /* \"#utility.yul\":4087:4108   */\n              tag_242\n                /* \"#utility.yul\":4102:4107   */\n              dup2\n                /* \"#utility.yul\":4087:4108   */\n              tag_158\n              jump\t// in\n            tag_242:\n                /* \"#utility.yul\":4080:4085   */\n              dup2\n                /* \"#utility.yul\":4077:4109   */\n              eq\n                /* \"#utility.yul\":4067:4127   */\n              tag_243\n              jumpi\n                /* \"#utility.yul\":4123:4124   */\n              0x00\n                /* \"#utility.yul\":4120:4121   */\n              dup1\n                /* \"#utility.yul\":4113:4125   */\n              revert\n                /* \"#utility.yul\":4067:4127   */\n            tag_243:\n                /* \"#utility.yul\":4017:4133   */\n              pop\n              jump\t// out\n                /* \"#utility.yul\":4139:4272   */\n            tag_160:\n                /* \"#utility.yul\":4182:4187   */\n              0x00\n                /* \"#utility.yul\":4220:4226   */\n              dup2\n                /* \"#utility.yul\":4207:4227   */\n              calldataload\n                /* \"#utility.yul\":4198:4227   */\n              swap1\n              pop\n                /* \"#utility.yul\":4236:4266   */\n              tag_245\n                /* \"#utility.yul\":4260:4265   */\n              dup2\n                /* \"#utility.yul\":4236:4266   */\n              tag_159\n              jump\t// in\n            tag_245:\n                /* \"#utility.yul\":4139:4272   */\n              swap3\n              swap2\n              pop\n              pop\n              jump\t// out\n                /* \"#utility.yul\":4278:4885   */\n            tag_30:\n                /* \"#utility.yul\":4349:4355   */\n              0x00\n                /* \"#utility.yul\":4357:4363   */\n              dup1\n                /* \"#utility.yul\":4365:4371   */\n              0x00\n                /* \"#utility.yul\":4414:4416   */\n              0x60\n                /* \"#utility.yul\":4402:4411   */\n              dup5\n                /* \"#utility.yul\":4393:4400   */\n              dup7\n                /* \"#utility.yul\":4389:4412   */\n              sub\n                /* \"#utility.yul\":4385:4417   */\n              slt\n                /* \"#utility.yul\":4382:4501   */\n              iszero\n              tag_247\n              jumpi\n                /* \"#utility.yul\":4420:4499   */\n              tag_248\n              tag_145\n              jump\t// in\n            tag_248:\n                /* \"#utility.yul\":4382:4501   */\n            tag_247:\n                /* \"#utility.yul\":4540:4541   */\n              0x00\n                /* \"#utility.yul\":4565:4618   */\n              tag_249\n                /* \"#utility.yul\":4610:4617   */\n              dup7\n                /* \"#utility.yul\":4601:4607   */\n              dup3\n                /* \"#utility.yul\":4590:4599   */\n              dup8\n                /* \"#utility.yul\":4586:4608   */\n              add\n                /* \"#utility.yul\":4565:4618   */\n              tag_148\n              jump\t// in\n            tag_249:\n                /* \"#utility.yul\":4555:4618   */\n              swap4\n              pop\n                /* \"#utility.yul\":4511:4628   */\n              pop\n                /* \"#utility.yul\":4667:4669   */\n              0x20\n                /* \"#utility.yul\":4693:4743   */\n              tag_250\n                /* \"#utility.yul\":4735:4742   */\n              dup7\n                /* \"#utility.yul\":4726:4732   */\n              dup3\n                /* \"#utility.yul\":4715:4724   */\n              dup8\n                /* \"#utility.yul\":4711:4733   */\n              add\n                /* \"#utility.yul\":4693:4743   */\n              tag_160\n              jump\t// in\n            tag_250:\n                /* \"#utility.yul\":4683:4743   */\n              swap3\n              pop\n                /* \"#utility.yul\":4638:4753   */\n              pop\n                /* \"#utility.yul\":4792:4794   */\n              0x40\n                /* \"#utility.yul\":4818:4868   */\n              tag_251\n                /* \"#utility.yul\":4860:4867   */\n              dup7\n                /* \"#utility.yul\":4851:4857   */\n              dup3\n                /* \"#utility.yul\":4840:4849   */\n              dup8\n                /* \"#utility.yul\":4836:4858   */\n              add\n                /* \"#utility.yul\":4818:4868   */\n              tag_160\n              jump\t// in\n            tag_251:\n                /* \"#utility.yul\":4808:4868   */\n              swap2\n              pop\n                /* \"#utility.yul\":4763:4878   */\n              pop\n                /* \"#utility.yul\":4278:4885   */\n              swap3\n              pop\n              swap3\n              pop\n              swap3\n              jump\t// out\n                /* \"#utility.yul\":4891:5220   */\n            tag_34:\n                /* \"#utility.yul\":4950:4956   */\n              0x00\n                /* \"#utility.yul\":4999:5001   */\n              0x20\n                /* \"#utility.yul\":4987:4996   */\n              dup3\n                /* \"#utility.yul\":4978:4985   */\n              dup5\n                /* \"#utility.yul\":4974:4997   */\n              sub\n                /* \"#utility.yul\":4970:5002   */\n              slt\n                /* \"#utility.yul\":4967:5086   */\n              iszero\n              tag_253\n              jumpi\n                /* \"#utility.yul\":5005:5084   */\n              tag_254\n              tag_145\n              jump\t// in\n            tag_254:\n                /* \"#utility.yul\":4967:5086   */\n            tag_253:\n                /* \"#utility.yul\":5125:5126   */\n              0x00\n                /* \"#utility.yul\":5150:5203   */\n              tag_255\n                /* \"#utility.yul\":5195:5202   */\n              dup5\n                /* \"#utility.yul\":5186:5192   */\n              dup3\n                /* \"#utility.yul\":5175:5184   */\n              dup6\n                /* \"#utility.yul\":5171:5193   */\n              add\n                /* \"#utility.yul\":5150:5203   */\n              tag_148\n              jump\t// in\n            tag_255:\n                /* \"#utility.yul\":5140:5203   */\n              swap2\n              pop\n                /* \"#utility.yul\":5096:5213   */\n              pop\n                /* \"#utility.yul\":4891:5220   */\n              swap3\n              swap2\n              pop\n              pop\n              jump\t// out\n                /* \"#utility.yul\":5226:5325   */\n            tag_161:\n                /* \"#utility.yul\":5278:5284   */\n              0x00\n                /* \"#utility.yul\":5312:5317   */\n              dup2\n                /* \"#utility.yul\":5306:5318   */\n              mload\n                /* \"#utility.yul\":5296:5318   */\n              swap1\n              pop\n                /* \"#utility.yul\":5226:5325   */\n              swap2\n              swap1\n              pop\n              jump\t// out\n                /* \"#utility.yul\":5331:5500   */\n            tag_162:\n                /* \"#utility.yul\":5415:5426   */\n              0x00\n                /* \"#utility.yul\":5449:5455   */\n              dup3\n                /* \"#utility.yul\":5444:5447   */\n              dup3\n                /* \"#utility.yul\":5437:5456   */\n              mstore\n                /* \"#utility.yul\":5489:5493   */\n              0x20\n                /* \"#utility.yul\":5484:5487   */\n              dup3\n                /* \"#utility.yul\":5480:5494   */\n              add\n                /* \"#utility.yul\":5465:5494   */\n              swap1\n              pop\n                /* \"#utility.yul\":5331:5500   */\n              swap3\n              swap2\n              pop\n              pop\n              jump\t// out\n                /* \"#utility.yul\":5506:5752   */\n            tag_163:\n                /* \"#utility.yul\":5587:5588   */\n              0x00\n                /* \"#utility.yul\":5597:5710   */\n            tag_259:\n                /* \"#utility.yul\":5611:5617   */\n              dup4\n                /* \"#utility.yul\":5608:5609   */\n              dup2\n                /* \"#utility.yul\":5605:5618   */\n              lt\n                /* \"#utility.yul\":5597:5710   */\n              iszero\n              tag_261\n              jumpi\n                /* \"#utility.yul\":5696:5697   */\n              dup1\n                /* \"#utility.yul\":5691:5694   */\n              dup3\n                /* \"#utility.yul\":5687:5698   */\n              add\n                /* \"#utility.yul\":5681:5699   */\n              mload\n                /* \"#utility.yul\":5677:5678   */\n              dup2\n                /* \"#utility.yul\":5672:5675   */\n              dup5\n                /* \"#utility.yul\":5668:5679   */\n              add\n                /* \"#utility.yul\":5661:5700   */\n              mstore\n                /* \"#utility.yul\":5633:5635   */\n              0x20\n                /* \"#utility.yul\":5630:5631   */\n              dup2\n                /* \"#utility.yul\":5626:5636   */\n              add\n                /* \"#utility.yul\":5621:5636   */\n              swap1\n              pop\n                /* \"#utility.yul\":5597:5710   */\n              jump(tag_259)\n            tag_261:\n                /* \"#utility.yul\":5744:5745   */\n              0x00\n                /* \"#utility.yul\":5735:5741   */\n              dup5\n                /* \"#utility.yul\":5730:5733   */\n              dup5\n                /* \"#utility.yul\":5726:5742   */\n              add\n                /* \"#utility.yul\":5719:5746   */\n              mstore\n                /* \"#utility.yul\":5568:5752   */\n              pop\n                /* \"#utility.yul\":5506:5752   */\n              pop\n              pop\n              pop\n              jump\t// out\n                /* \"#utility.yul\":5758:6135   */\n            tag_164:\n                /* \"#utility.yul\":5846:5849   */\n              0x00\n                /* \"#utility.yul\":5874:5913   */\n              tag_263\n                /* \"#utility.yul\":5907:5912   */\n              dup3\n                /* \"#utility.yul\":5874:5913   */\n              tag_161\n              jump\t// in\n            tag_263:\n                /* \"#utility.yul\":5929:6000   */\n              tag_264\n                /* \"#utility.yul\":5993:5999   */\n              dup2\n                /* \"#utility.yul\":5988:5991   */\n              dup6\n                /* \"#utility.yul\":5929:6000   */\n              tag_162\n              jump\t// in\n            tag_264:\n                /* \"#utility.yul\":5922:6000   */\n              swap4\n              pop\n                /* \"#utility.yul\":6009:6074   */\n              tag_265\n                /* \"#utility.yul\":6067:6073   */\n              dup2\n                /* \"#utility.yul\":6062:6065   */\n              dup6\n                /* \"#utility.yul\":6055:6059   */\n              0x20\n                /* \"#utility.yul\":6048:6053   */\n              dup7\n                /* \"#utility.yul\":6044:6060   */\n              add\n                /* \"#utility.yul\":6009:6074   */\n              tag_163\n              jump\t// in\n            tag_265:\n                /* \"#utility.yul\":6099:6128   */\n              tag_266\n                /* \"#utility.yul\":6121:6127   */\n              dup2\n                /* \"#utility.yul\":6099:6128   */\n              tag_151\n              jump\t// in\n            tag_266:\n                /* \"#utility.yul\":6094:6097   */\n              dup5\n                /* \"#utility.yul\":6090:6129   */\n              add\n                /* \"#utility.yul\":6083:6129   */\n              swap2\n              pop\n                /* \"#utility.yul\":5850:6135   */\n              pop\n                /* \"#utility.yul\":5758:6135   */\n              swap3\n              swap2\n              pop\n              pop\n              jump\t// out\n                /* \"#utility.yul\":6141:6250   */\n            tag_165:\n                /* \"#utility.yul\":6222:6243   */\n              tag_268\n                /* \"#utility.yul\":6237:6242   */\n              dup2\n                /* \"#utility.yul\":6222:6243   */\n              tag_158\n              jump\t// in\n            tag_268:\n                /* \"#utility.yul\":6217:6220   */\n              dup3\n                /* \"#utility.yul\":6210:6244   */\n              mstore\n                /* \"#utility.yul\":6141:6250   */\n              pop\n              pop\n              jump\t// out\n                /* \"#utility.yul\":6256:6876   */\n            tag_41:\n                /* \"#utility.yul\":6441:6445   */\n              0x00\n                /* \"#utility.yul\":6479:6482   */\n              0x80\n                /* \"#utility.yul\":6468:6477   */\n              dup3\n                /* \"#utility.yul\":6464:6483   */\n              add\n                /* \"#utility.yul\":6456:6483   */\n              swap1\n              pop\n                /* \"#utility.yul\":6493:6564   */\n              tag_270\n                /* \"#utility.yul\":6561:6562   */\n              0x00\n                /* \"#utility.yul\":6550:6559   */\n              dup4\n                /* \"#utility.yul\":6546:6563   */\n              add\n                /* \"#utility.yul\":6537:6543   */\n              dup8\n                /* \"#utility.yul\":6493:6564   */\n              tag_143\n              jump\t// in\n            tag_270:\n                /* \"#utility.yul\":6611:6620   */\n              dup2\n                /* \"#utility.yul\":6605:6609   */\n              dup2\n                /* \"#utility.yul\":6601:6621   */\n              sub\n                /* \"#utility.yul\":6596:6598   */\n              0x20\n                /* \"#utility.yul\":6585:6594   */\n              dup4\n                /* \"#utility.yul\":6581:6599   */\n              add\n                /* \"#utility.yul\":6574:6622   */\n              mstore\n                /* \"#utility.yul\":6639:6717   */\n              tag_271\n                /* \"#utility.yul\":6712:6716   */\n              dup2\n                /* \"#utility.yul\":6703:6709   */\n              dup7\n                /* \"#utility.yul\":6639:6717   */\n              tag_164\n              jump\t// in\n            tag_271:\n                /* \"#utility.yul\":6631:6717   */\n              swap1\n              pop\n                /* \"#utility.yul\":6727:6793   */\n              tag_272\n                /* \"#utility.yul\":6789:6791   */\n              0x40\n                /* \"#utility.yul\":6778:6787   */\n              dup4\n                /* \"#utility.yul\":6774:6792   */\n              add\n                /* \"#utility.yul\":6765:6771   */\n              dup6\n                /* \"#utility.yul\":6727:6793   */\n              tag_165\n              jump\t// in\n            tag_272:\n                /* \"#utility.yul\":6803:6869   */\n              tag_273\n                /* \"#utility.yul\":6865:6867   */\n              0x60\n                /* \"#utility.yul\":6854:6863   */\n              dup4\n                /* \"#utility.yul\":6850:6868   */\n              add\n                /* \"#utility.yul\":6841:6847   */\n              dup5\n                /* \"#utility.yul\":6803:6869   */\n              tag_165\n              jump\t// in\n            tag_273:\n                /* \"#utility.yul\":6256:6876   */\n              swap6\n              swap5\n              pop\n              pop\n              pop\n              pop\n              pop\n              jump\t// out\n                /* \"#utility.yul\":6882:6996   */\n            tag_166:\n                /* \"#utility.yul\":6949:6955   */\n              0x00\n                /* \"#utility.yul\":6983:6988   */\n              dup2\n                /* \"#utility.yul\":6977:6989   */\n              mload\n                /* \"#utility.yul\":6967:6989   */\n              swap1\n              pop\n                /* \"#utility.yul\":6882:6996   */\n              swap2\n              swap1\n              pop\n              jump\t// out\n                /* \"#utility.yul\":7002:7186   */\n            tag_167:\n                /* \"#utility.yul\":7101:7112   */\n              0x00\n                /* \"#utility.yul\":7135:7141   */\n              dup3\n                /* \"#utility.yul\":7130:7133   */\n              dup3\n                /* \"#utility.yul\":7123:7142   */\n              mstore\n                /* \"#utility.yul\":7175:7179   */\n              0x20\n                /* \"#utility.yul\":7170:7173   */\n              dup3\n                /* \"#utility.yul\":7166:7180   */\n              add\n                /* \"#utility.yul\":7151:7180   */\n              swap1\n              pop\n                /* \"#utility.yul\":7002:7186   */\n              swap3\n              swap2\n              pop\n              pop\n              jump\t// out\n                /* \"#utility.yul\":7192:7324   */\n            tag_168:\n                /* \"#utility.yul\":7259:7263   */\n              0x00\n                /* \"#utility.yul\":7282:7285   */\n              dup2\n                /* \"#utility.yul\":7274:7285   */\n              swap1\n              pop\n                /* \"#utility.yul\":7312:7316   */\n              0x20\n                /* \"#utility.yul\":7307:7310   */\n              dup3\n                /* \"#utility.yul\":7303:7317   */\n              add\n                /* \"#utility.yul\":7295:7317   */\n              swap1\n              pop\n                /* \"#utility.yul\":7192:7324   */\n              swap2\n              swap1\n              pop\n              jump\t// out\n                /* \"#utility.yul\":7330:7438   */\n            tag_169:\n                /* \"#utility.yul\":7407:7431   */\n              tag_278\n                /* \"#utility.yul\":7425:7430   */\n              dup2\n                /* \"#utility.yul\":7407:7431   */\n              tag_142\n              jump\t// in\n            tag_278:\n                /* \"#utility.yul\":7402:7405   */\n              dup3\n                /* \"#utility.yul\":7395:7432   */\n              mstore\n                /* \"#utility.yul\":7330:7438   */\n              pop\n              pop\n              jump\t// out\n                /* \"#utility.yul\":7444:7623   */\n            tag_170:\n                /* \"#utility.yul\":7513:7523   */\n              0x00\n                /* \"#utility.yul\":7534:7580   */\n              tag_280\n                /* \"#utility.yul\":7576:7579   */\n              dup4\n                /* \"#utility.yul\":7568:7574   */\n              dup4\n                /* \"#utility.yul\":7534:7580   */\n              tag_169\n              jump\t// in\n            tag_280:\n                /* \"#utility.yul\":7612:7616   */\n              0x20\n                /* \"#utility.yul\":7607:7610   */\n              dup4\n                /* \"#utility.yul\":7603:7617   */\n              add\n                /* \"#utility.yul\":7589:7617   */\n              swap1\n              pop\n                /* \"#utility.yul\":7444:7623   */\n              swap3\n              swap2\n              pop\n              pop\n              jump\t// out\n                /* \"#utility.yul\":7629:7742   */\n            tag_171:\n                /* \"#utility.yul\":7699:7703   */\n              0x00\n                /* \"#utility.yul\":7731:7735   */\n              0x20\n                /* \"#utility.yul\":7726:7729   */\n              dup3\n                /* \"#utility.yul\":7722:7736   */\n              add\n                /* \"#utility.yul\":7714:7736   */\n              swap1\n              pop\n                /* \"#utility.yul\":7629:7742   */\n              swap2\n              swap1\n              pop\n              jump\t// out\n                /* \"#utility.yul\":7778:8510   */\n            tag_172:\n                /* \"#utility.yul\":7897:7900   */\n              0x00\n                /* \"#utility.yul\":7926:7980   */\n              tag_283\n                /* \"#utility.yul\":7974:7979   */\n              dup3\n                /* \"#utility.yul\":7926:7980   */\n              tag_166\n              jump\t// in\n            tag_283:\n                /* \"#utility.yul\":7996:8082   */\n              tag_284\n                /* \"#utility.yul\":8075:8081   */\n              dup2\n                /* \"#utility.yul\":8070:8073   */\n              dup6\n                /* \"#utility.yul\":7996:8082   */\n              tag_167\n              jump\t// in\n            tag_284:\n                /* \"#utility.yul\":7989:8082   */\n              swap4\n              pop\n                /* \"#utility.yul\":8106:8162   */\n              tag_285\n                /* \"#utility.yul\":8156:8161   */\n              dup4\n                /* \"#utility.yul\":8106:8162   */\n              tag_168\n              jump\t// in\n            tag_285:\n                /* \"#utility.yul\":8185:8192   */\n              dup1\n                /* \"#utility.yul\":8216:8217   */\n              0x00\n                /* \"#utility.yul\":8201:8485   */\n            tag_286:\n                /* \"#utility.yul\":8226:8232   */\n              dup4\n                /* \"#utility.yul\":8223:8224   */\n              dup2\n                /* \"#utility.yul\":8220:8233   */\n              lt\n                /* \"#utility.yul\":8201:8485   */\n              iszero\n              tag_288\n              jumpi\n                /* \"#utility.yul\":8302:8308   */\n              dup2\n                /* \"#utility.yul\":8296:8309   */\n              mload\n                /* \"#utility.yul\":8329:8392   */\n              tag_289\n                /* \"#utility.yul\":8388:8391   */\n              dup9\n                /* \"#utility.yul\":8373:8386   */\n              dup3\n                /* \"#utility.yul\":8329:8392   */\n              tag_170\n              jump\t// in\n            tag_289:\n                /* \"#utility.yul\":8322:8392   */\n              swap8\n              pop\n                /* \"#utility.yul\":8415:8475   */\n              tag_290\n                /* \"#utility.yul\":8468:8474   */\n              dup4\n                /* \"#utility.yul\":8415:8475   */\n              tag_171\n              jump\t// in\n            tag_290:\n                /* \"#utility.yul\":8405:8475   */\n              swap3\n              pop\n                /* \"#utility.yul\":8261:8485   */\n              pop\n                /* \"#utility.yul\":8248:8249   */\n              0x01\n                /* \"#utility.yul\":8245:8246   */\n              dup2\n                /* \"#utility.yul\":8241:8250   */\n              add\n                /* \"#utility.yul\":8236:8250   */\n              swap1\n              pop\n                /* \"#utility.yul\":8201:8485   */\n              jump(tag_286)\n            tag_288:\n                /* \"#utility.yul\":8205:8219   */\n              pop\n                /* \"#utility.yul\":8501:8504   */\n              dup6\n                /* \"#utility.yul\":8494:8504   */\n              swap4\n              pop\n                /* \"#utility.yul\":7902:8510   */\n              pop\n              pop\n              pop\n                /* \"#utility.yul\":7778:8510   */\n              swap3\n              swap2\n              pop\n              pop\n              jump\t// out\n                /* \"#utility.yul\":8516:8889   */\n            tag_45:\n                /* \"#utility.yul\":8659:8663   */\n              0x00\n                /* \"#utility.yul\":8697:8699   */\n              0x20\n                /* \"#utility.yul\":8686:8695   */\n              dup3\n                /* \"#utility.yul\":8682:8700   */\n              add\n                /* \"#utility.yul\":8674:8700   */\n              swap1\n              pop\n                /* \"#utility.yul\":8746:8755   */\n              dup2\n                /* \"#utility.yul\":8740:8744   */\n              dup2\n                /* \"#utility.yul\":8736:8756   */\n              sub\n                /* \"#utility.yul\":8732:8733   */\n              0x00\n                /* \"#utility.yul\":8721:8730   */\n              dup4\n                /* \"#utility.yul\":8717:8734   */\n              add\n                /* \"#utility.yul\":8710:8757   */\n              mstore\n                /* \"#utility.yul\":8774:8882   */\n              tag_292\n                /* \"#utility.yul\":8877:8881   */\n              dup2\n                /* \"#utility.yul\":8868:8874   */\n              dup5\n                /* \"#utility.yul\":8774:8882   */\n              tag_172\n              jump\t// in\n            tag_292:\n                /* \"#utility.yul\":8766:8882   */\n              swap1\n              pop\n                /* \"#utility.yul\":8516:8889   */\n              swap3\n              swap2\n              pop\n              pop\n              jump\t// out\n                /* \"#utility.yul\":8895:9075   */\n            tag_120:\n                /* \"#utility.yul\":8943:9020   */\n              0x4e487b7100000000000000000000000000000000000000000000000000000000\n                /* \"#utility.yul\":8940:8941   */\n              0x00\n                /* \"#utility.yul\":8933:9021   */\n              mstore\n                /* \"#utility.yul\":9040:9044   */\n              0x21\n                /* \"#utility.yul\":9037:9038   */\n              0x04\n                /* \"#utility.yul\":9030:9045   */\n              mstore\n                /* \"#utility.yul\":9064:9068   */\n              0x24\n                /* \"#utility.yul\":9061:9062   */\n              0x00\n                /* \"#utility.yul\":9054:9069   */\n              revert\n                /* \"#utility.yul\":9081:9198   */\n            tag_173:\n                /* \"#utility.yul\":9166:9167   */\n              0x02\n                /* \"#utility.yul\":9159:9164   */\n              dup2\n                /* \"#utility.yul\":9156:9168   */\n              lt\n                /* \"#utility.yul\":9146:9192   */\n              tag_295\n              jumpi\n                /* \"#utility.yul\":9172:9190   */\n              tag_296\n              tag_120\n              jump\t// in\n            tag_296:\n                /* \"#utility.yul\":9146:9192   */\n            tag_295:\n                /* \"#utility.yul\":9081:9198   */\n              pop\n              jump\t// out\n                /* \"#utility.yul\":9204:9339   */\n            tag_174:\n                /* \"#utility.yul\":9253:9260   */\n              0x00\n                /* \"#utility.yul\":9282:9287   */\n              dup2\n                /* \"#utility.yul\":9271:9287   */\n              swap1\n              pop\n                /* \"#utility.yul\":9288:9333   */\n              tag_298\n                /* \"#utility.yul\":9327:9332   */\n              dup3\n                /* \"#utility.yul\":9288:9333   */\n              tag_173\n              jump\t// in\n            tag_298:\n                /* \"#utility.yul\":9204:9339   */\n              swap2\n              swap1\n              pop\n              jump\t// out\n                /* \"#utility.yul\":9345:9480   */\n            tag_175:\n                /* \"#utility.yul\":9405:9414   */\n              0x00\n                /* \"#utility.yul\":9438:9474   */\n              tag_300\n                /* \"#utility.yul\":9468:9473   */\n              dup3\n                /* \"#utility.yul\":9438:9474   */\n              tag_174\n              jump\t// in\n            tag_300:\n                /* \"#utility.yul\":9425:9474   */\n              swap1\n              pop\n                /* \"#utility.yul\":9345:9480   */\n              swap2\n              swap1\n              pop\n              jump\t// out\n                /* \"#utility.yul\":9486:9637   */\n            tag_176:\n                /* \"#utility.yul\":9583:9630   */\n              tag_302\n                /* \"#utility.yul\":9624:9629   */\n              dup2\n                /* \"#utility.yul\":9583:9630   */\n              tag_175\n              jump\t// in\n            tag_302:\n                /* \"#utility.yul\":9578:9581   */\n              dup3\n                /* \"#utility.yul\":9571:9631   */\n              mstore\n                /* \"#utility.yul\":9486:9637   */\n              pop\n              pop\n              jump\t// out\n                /* \"#utility.yul\":9643:9885   */\n            tag_49:\n                /* \"#utility.yul\":9746:9750   */\n              0x00\n                /* \"#utility.yul\":9784:9786   */\n              0x20\n                /* \"#utility.yul\":9773:9782   */\n              dup3\n                /* \"#utility.yul\":9769:9787   */\n              add\n                /* \"#utility.yul\":9761:9787   */\n              swap1\n              pop\n                /* \"#utility.yul\":9797:9878   */\n              tag_304\n                /* \"#utility.yul\":9875:9876   */\n              0x00\n                /* \"#utility.yul\":9864:9873   */\n              dup4\n                /* \"#utility.yul\":9860:9877   */\n              add\n                /* \"#utility.yul\":9851:9857   */\n              dup5\n                /* \"#utility.yul\":9797:9878   */\n              tag_176\n              jump\t// in\n            tag_304:\n                /* \"#utility.yul\":9643:9885   */\n              swap3\n              swap2\n              pop\n              pop\n              jump\t// out\n                /* \"#utility.yul\":9891:10071   */\n            tag_71:\n                /* \"#utility.yul\":9939:10016   */\n              0x4e487b7100000000000000000000000000000000000000000000000000000000\n                /* \"#utility.yul\":9936:9937   */\n              0x00\n                /* \"#utility.yul\":9929:10017   */\n              mstore\n                /* \"#utility.yul\":10036:10040   */\n              0x32\n                /* \"#utility.yul\":10033:10034   */\n              0x04\n                /* \"#utility.yul\":10026:10041   */\n              mstore\n                /* \"#utility.yul\":10060:10064   */\n              0x24\n                /* \"#utility.yul\":10057:10058   */\n              0x00\n                /* \"#utility.yul\":10050:10065   */\n              revert\n                /* \"#utility.yul\":10077:10257   */\n            tag_177:\n                /* \"#utility.yul\":10125:10202   */\n              0x4e487b7100000000000000000000000000000000000000000000000000000000\n                /* \"#utility.yul\":10122:10123   */\n              0x00\n                /* \"#utility.yul\":10115:10203   */\n              mstore\n                /* \"#utility.yul\":10222:10226   */\n              0x22\n                /* \"#utility.yul\":10219:10220   */\n              0x04\n                /* \"#utility.yul\":10212:10227   */\n              mstore\n                /* \"#utility.yul\":10246:10250   */\n              0x24\n                /* \"#utility.yul\":10243:10244   */\n              0x00\n                /* \"#utility.yul\":10236:10251   */\n              revert\n                /* \"#utility.yul\":10263:10583   */\n            tag_99:\n                /* \"#utility.yul\":10307:10313   */\n              0x00\n                /* \"#utility.yul\":10344:10345   */\n              0x02\n                /* \"#utility.yul\":10338:10342   */\n              dup3\n                /* \"#utility.yul\":10334:10346   */\n              div\n                /* \"#utility.yul\":10324:10346   */\n              swap1\n              pop\n                /* \"#utility.yul\":10391:10392   */\n              0x01\n                /* \"#utility.yul\":10385:10389   */\n              dup3\n                /* \"#utility.yul\":10381:10393   */\n              and\n                /* \"#utility.yul\":10412:10430   */\n              dup1\n                /* \"#utility.yul\":10402:10483   */\n              tag_308\n              jumpi\n                /* \"#utility.yul\":10468:10472   */\n              0x7f\n                /* \"#utility.yul\":10460:10466   */\n              dup3\n                /* \"#utility.yul\":10456:10473   */\n              and\n                /* \"#utility.yul\":10446:10473   */\n              swap2\n              pop\n                /* \"#utility.yul\":10402:10483   */\n            tag_308:\n                /* \"#utility.yul\":10530:10532   */\n              0x20\n                /* \"#utility.yul\":10522:10528   */\n              dup3\n                /* \"#utility.yul\":10519:10533   */\n              lt\n                /* \"#utility.yul\":10499:10517   */\n              dup2\n                /* \"#utility.yul\":10496:10534   */\n              sub\n                /* \"#utility.yul\":10493:10577   */\n              tag_309\n              jumpi\n                /* \"#utility.yul\":10549:10567   */\n              tag_310\n              tag_177\n              jump\t// in\n            tag_310:\n                /* \"#utility.yul\":10493:10577   */\n            tag_309:\n                /* \"#utility.yul\":10314:10583   */\n              pop\n                /* \"#utility.yul\":10263:10583   */\n              swap2\n              swap1\n              pop\n              jump\t// out\n                /* \"#utility.yul\":10589:10730   */\n            tag_178:\n                /* \"#utility.yul\":10638:10642   */\n              0x00\n                /* \"#utility.yul\":10661:10664   */\n              dup2\n                /* \"#utility.yul\":10653:10664   */\n              swap1\n              pop\n                /* \"#utility.yul\":10684:10687   */\n              dup2\n                /* \"#utility.yul\":10681:10682   */\n              0x00\n                /* \"#utility.yul\":10674:10688   */\n              mstore\n                /* \"#utility.yul\":10718:10722   */\n              0x20\n                /* \"#utility.yul\":10715:10716   */\n              0x00\n                /* \"#utility.yul\":10705:10723   */\n              keccak256\n                /* \"#utility.yul\":10697:10723   */\n              swap1\n              pop\n                /* \"#utility.yul\":10589:10730   */\n              swap2\n              swap1\n              pop\n              jump\t// out\n                /* \"#utility.yul\":10736:10829   */\n            tag_179:\n                /* \"#utility.yul\":10773:10779   */\n              0x00\n                /* \"#utility.yul\":10820:10822   */\n              0x20\n                /* \"#utility.yul\":10815:10817   */\n              0x1f\n                /* \"#utility.yul\":10808:10813   */\n              dup4\n                /* \"#utility.yul\":10804:10818   */\n              add\n                /* \"#utility.yul\":10800:10823   */\n              div\n                /* \"#utility.yul\":10790:10823   */\n              swap1\n              pop\n                /* \"#utility.yul\":10736:10829   */\n              swap2\n              swap1\n              pop\n              jump\t// out\n                /* \"#utility.yul\":10835:10942   */\n            tag_180:\n                /* \"#utility.yul\":10879:10887   */\n              0x00\n                /* \"#utility.yul\":10929:10934   */\n              dup3\n                /* \"#utility.yul\":10923:10927   */\n              dup3\n                /* \"#utility.yul\":10919:10935   */\n              shl\n                /* \"#utility.yul\":10898:10935   */\n              swap1\n              pop\n                /* \"#utility.yul\":10835:10942   */\n              swap3\n              swap2\n              pop\n              pop\n              jump\t// out\n                /* \"#utility.yul\":10948:11341   */\n            tag_181:\n                /* \"#utility.yul\":11017:11023   */\n              0x00\n                /* \"#utility.yul\":11067:11068   */\n              0x08\n                /* \"#utility.yul\":11055:11065   */\n              dup4\n                /* \"#utility.yul\":11051:11069   */\n              mul\n                /* \"#utility.yul\":11090:11187   */\n              tag_315\n                /* \"#utility.yul\":11120:11186   */\n              0xffffffffffffffffffffffffffffffffffffffffffffffffffffffffffffffff\n                /* \"#utility.yul\":11109:11118   */\n              dup3\n                /* \"#utility.yul\":11090:11187   */\n              tag_180\n              jump\t// in\n            tag_315:\n                /* \"#utility.yul\":11208:11247   */\n              tag_316\n                /* \"#utility.yul\":11238:11246   */\n              dup7\n                /* \"#utility.yul\":11227:11236   */\n              dup4\n                /* \"#utility.yul\":11208:11247   */\n              tag_180\n              jump\t// in\n            tag_316:\n                /* \"#utility.yul\":11196:11247   */\n              swap6\n              pop\n                /* \"#utility.yul\":11280:11284   */\n              dup1\n                /* \"#utility.yul\":11276:11285   */\n              not\n                /* \"#utility.yul\":11269:11274   */\n              dup5\n                /* \"#utility.yul\":11265:11286   */\n              and\n                /* \"#utility.yul\":11256:11286   */\n              swap4\n              pop\n                /* \"#utility.yul\":11329:11333   */\n              dup1\n                /* \"#utility.yul\":11319:11327   */\n              dup7\n                /* \"#utility.yul\":11315:11334   */\n              and\n                /* \"#utility.yul\":11308:11313   */\n              dup5\n                /* \"#utility.yul\":11305:11335   */\n              or\n                /* \"#utility.yul\":11295:11335   */\n              swap3\n              pop\n                /* \"#utility.yul\":11024:11341   */\n              pop\n              pop\n                /* \"#utility.yul\":10948:11341   */\n              swap4\n              swap3\n              pop\n              pop\n              pop\n              jump\t// out\n                /* \"#utility.yul\":11347:11407   */\n            tag_182:\n                /* \"#utility.yul\":11375:11378   */\n              0x00\n                /* \"#utility.yul\":11396:11401   */\n              dup2\n                /* \"#utility.yul\":11389:11401   */\n              swap1\n              pop\n                /* \"#utility.yul\":11347:11407   */\n              swap2\n              swap1\n              pop\n              jump\t// out\n                /* \"#utility.yul\":11413:11555   */\n            tag_183:\n                /* \"#utility.yul\":11463:11472   */\n              0x00\n                /* \"#utility.yul\":11496:11549   */\n              tag_319\n                /* \"#utility.yul\":11514:11548   */\n              tag_320\n                /* \"#utility.yul\":11523:11547   */\n              tag_321\n                /* \"#utility.yul\":11541:11546   */\n              dup5\n                /* \"#utility.yul\":11523:11547   */\n              tag_142\n              jump\t// in\n            tag_321:\n                /* \"#utility.yul\":11514:11548   */\n              tag_182\n              jump\t// in\n            tag_320:\n                /* \"#utility.yul\":11496:11549   */\n              tag_142\n              jump\t// in\n            tag_319:\n                /* \"#utility.yul\":11483:11549   */\n              swap1\n              pop\n                /* \"#utility.yul\":11413:11555   */\n              swap2\n              swap1\n              pop\n              jump\t// out\n                /* \"#utility.yul\":11561:11636   */\n            tag_184:\n                /* \"#utility.yul\":11604:11607   */\n              0x00\n                /* \"#utility.yul\":11625:11630   */\n              dup2\n                /* \"#utility.yul\":11618:11630   */\n              swap1\n              pop\n                /* \"#utility.yul\":11561:11636   */\n              swap2\n              swap1\n              pop\n              jump\t// out\n                /* \"#utility.yul\":11642:11911   */\n            tag_185:\n                /* \"#utility.yul\":11752:11791   */\n              tag_324\n                /* \"#utility.yul\":11783:11790   */\n              dup4\n                /* \"#utility.yul\":11752:11791   */\n              tag_183\n              jump\t// in\n            tag_324:\n                /* \"#utility.yul\":11813:11904   */\n              tag_325\n                /* \"#utility.yul\":11862:11903   */\n              tag_326\n                /* \"#utility.yul\":11886:11902   */\n              dup3\n                /* \"#utility.yul\":11862:11903   */\n              tag_184\n              jump\t// in\n            tag_326:\n                /* \"#utility.yul\":11854:11860   */\n              dup5\n                /* \"#utility.yul\":11847:11851   */\n              dup5\n                /* \"#utility.yul\":11841:11852   */\n              sload\n                /* \"#utility.yul\":11813:11904   */\n              tag_181\n              jump\t// in\n            tag_325:\n                /* \"#utility.yul\":11807:11811   */\n              dup3\n                /* \"#utility.yul\":11800:11905   */\n              sstore\n                /* \"#utility.yul\":11718:11911   */\n              pop\n                /* \"#utility.yul\":11642:11911   */\n              pop\n              pop\n              pop\n              jump\t// out\n                /* \"#utility.yul\":11917:11990   */\n            tag_186:\n                /* \"#utility.yul\":11962:11965   */\n              0x00\n                /* \"#utility.yul\":11917:11990   */\n              swap1\n              jump\t// out\n                /* \"#utility.yul\":11996:12185   */\n            tag_187:\n                /* \"#utility.yul\":12073:12105   */\n              tag_329\n              tag_186\n              jump\t// in\n            tag_329:\n                /* \"#utility.yul\":12114:12179   */\n              tag_330\n                /* \"#utility.yul\":12172:12178   */\n              dup2\n                /* \"#utility.yul\":12164:12170   */\n              dup5\n                /* \"#utility.yul\":12158:12162   */\n              dup5\n                /* \"#utility.yul\":12114:12179   */\n              tag_185\n              jump\t// in\n            tag_330:\n                /* \"#utility.yul\":12049:12185   */\n              pop\n                /* \"#utility.yul\":11996:12185   */\n              pop\n              pop\n              jump\t// out\n                /* \"#utility.yul\":12191:12377   */\n            tag_188:\n                /* \"#utility.yul\":12251:12371   */\n            tag_332:\n                /* \"#utility.yul\":12268:12271   */\n              dup2\n                /* \"#utility.yul\":12261:12266   */\n              dup2\n                /* \"#utility.yul\":12258:12272   */\n              lt\n                /* \"#utility.yul\":12251:12371   */\n              iszero\n              tag_334\n              jumpi\n                /* \"#utility.yul\":12322:12361   */\n              tag_335\n                /* \"#utility.yul\":12359:12360   */\n              0x00\n                /* \"#utility.yul\":12352:12357   */\n              dup3\n                /* \"#utility.yul\":12322:12361   */\n              tag_187\n              jump\t// in\n            tag_335:\n                /* \"#utility.yul\":12295:12296   */\n              0x01\n                /* \"#utility.yul\":12288:12293   */\n              dup2\n                /* \"#utility.yul\":12284:12297   */\n              add\n                /* \"#utility.yul\":12275:12297   */\n              swap1\n              pop\n                /* \"#utility.yul\":12251:12371   */\n              jump(tag_332)\n            tag_334:\n                /* \"#utility.yul\":12191:12377   */\n              pop\n              pop\n              jump\t// out\n                /* \"#utility.yul\":12383:12926   */\n            tag_189:\n                /* \"#utility.yul\":12484:12486   */\n              0x1f\n                /* \"#utility.yul\":12479:12482   */\n              dup3\n                /* \"#utility.yul\":12476:12487   */\n              gt\n                /* \"#utility.yul\":12473:12919   */\n              iszero\n              tag_337\n              jumpi\n                /* \"#utility.yul\":12518:12556   */\n              tag_338\n                /* \"#utility.yul\":12550:12555   */\n              dup2\n                /* \"#utility.yul\":12518:12556   */\n              tag_178\n              jump\t// in\n            tag_338:\n                /* \"#utility.yul\":12602:12631   */\n              tag_339\n                /* \"#utility.yul\":12620:12630   */\n              dup5\n                /* \"#utility.yul\":12602:12631   */\n              tag_179\n              jump\t// in\n            tag_339:\n                /* \"#utility.yul\":12592:12600   */\n              dup2\n                /* \"#utility.yul\":12588:12632   */\n              add\n                /* \"#utility.yul\":12785:12787   */\n              0x20\n                /* \"#utility.yul\":12773:12783   */\n              dup6\n                /* \"#utility.yul\":12770:12788   */\n              lt\n                /* \"#utility.yul\":12767:12816   */\n              iszero\n              tag_340\n              jumpi\n                /* \"#utility.yul\":12806:12814   */\n              dup2\n                /* \"#utility.yul\":12791:12814   */\n              swap1\n              pop\n                /* \"#utility.yul\":12767:12816   */\n            tag_340:\n                /* \"#utility.yul\":12829:12909   */\n              tag_341\n                /* \"#utility.yul\":12885:12907   */\n              tag_342\n                /* \"#utility.yul\":12903:12906   */\n              dup6\n                /* \"#utility.yul\":12885:12907   */\n              tag_179\n              jump\t// in\n            tag_342:\n                /* \"#utility.yul\":12875:12883   */\n              dup4\n                /* \"#utility.yul\":12871:12908   */\n              add\n                /* \"#utility.yul\":12858:12869   */\n              dup3\n                /* \"#utility.yul\":12829:12909   */\n              tag_188\n              jump\t// in\n            tag_341:\n                /* \"#utility.yul\":12488:12919   */\n              pop\n              pop\n                /* \"#utility.yul\":12473:12919   */\n            tag_337:\n                /* \"#utility.yul\":12383:12926   */\n              pop\n              pop\n              pop\n              jump\t// out\n                /* \"#utility.yul\":12932:13049   */\n            tag_190:\n                /* \"#utility.yul\":12986:12994   */\n              0x00\n                /* \"#utility.yul\":13036:13041   */\n              dup3\n                /* \"#utility.yul\":13030:13034   */\n              dup3\n                /* \"#utility.yul\":13026:13042   */\n              shr\n                /* \"#utility.yul\":13005:13042   */\n              swap1\n              pop\n                /* \"#utility.yul\":12932:13049   */\n              swap3\n              swap2\n              pop\n              pop\n              jump\t// out\n                /* \"#utility.yul\":13055:13224   */\n            tag_191:\n                /* \"#utility.yul\":13099:13105   */\n              0x00\n                /* \"#utility.yul\":13132:13183   */\n              tag_345\n                /* \"#utility.yul\":13180:13181   */\n              0x00\n                /* \"#utility.yul\":13176:13182   */\n              not\n                /* \"#utility.yul\":13168:13173   */\n              dup5\n                /* \"#utility.yul\":13165:13166   */\n              0x08\n                /* \"#utility.yul\":13161:13174   */\n              mul\n                /* \"#utility.yul\":13132:13183   */\n              tag_190\n              jump\t// in\n            tag_345:\n                /* \"#utility.yul\":13128:13184   */\n              not\n                /* \"#utility.yul\":13213:13217   */\n              dup1\n                /* \"#utility.yul\":13207:13211   */\n              dup4\n                /* \"#utility.yul\":13203:13218   */\n              and\n                /* \"#utility.yul\":13193:13218   */\n              swap2\n              pop\n                /* \"#utility.yul\":13106:13224   */\n              pop\n                /* \"#utility.yul\":13055:13224   */\n              swap3\n              swap2\n              pop\n              pop\n              jump\t// out\n                /* \"#utility.yul\":13229:13524   */\n            tag_192:\n                /* \"#utility.yul\":13305:13309   */\n              0x00\n                /* \"#utility.yul\":13451:13480   */\n              tag_347\n                /* \"#utility.yul\":13476:13479   */\n              dup4\n                /* \"#utility.yul\":13470:13474   */\n              dup4\n                /* \"#utility.yul\":13451:13480   */\n              tag_191\n              jump\t// in\n            tag_347:\n                /* \"#utility.yul\":13443:13480   */\n              swap2\n              pop\n                /* \"#utility.yul\":13513:13516   */\n              dup3\n                /* \"#utility.yul\":13510:13511   */\n              0x02\n                /* \"#utility.yul\":13506:13517   */\n              mul\n                /* \"#utility.yul\":13500:13504   */\n              dup3\n                /* \"#utility.yul\":13497:13518   */\n              or\n                /* \"#utility.yul\":13489:13518   */\n              swap1\n              pop\n                /* \"#utility.yul\":13229:13524   */\n              swap3\n              swap2\n              pop\n              pop\n              jump\t// out\n                /* \"#utility.yul\":13529:14924   */\n            tag_78:\n                /* \"#utility.yul\":13646:13683   */\n              tag_349\n                /* \"#utility.yul\":13679:13682   */\n              dup3\n                /* \"#utility.yul\":13646:13683   */\n              tag_161\n              jump\t// in\n            tag_349:\n                /* \"#utility.yul\":13748:13766   */\n              0xffffffffffffffff\n                /* \"#utility.yul\":13740:13746   */\n              dup2\n                /* \"#utility.yul\":13737:13767   */\n              gt\n                /* \"#utility.yul\":13734:13790   */\n              iszero\n              tag_350\n              jumpi\n                /* \"#utility.yul\":13770:13788   */\n              tag_351\n              tag_107\n              jump\t// in\n            tag_351:\n                /* \"#utility.yul\":13734:13790   */\n            tag_350:\n                /* \"#utility.yul\":13814:13852   */\n              tag_352\n                /* \"#utility.yul\":13846:13850   */\n              dup3\n                /* \"#utility.yul\":13840:13851   */\n              sload\n                /* \"#utility.yul\":13814:13852   */\n              tag_99\n              jump\t// in\n            tag_352:\n                /* \"#utility.yul\":13899:13966   */\n              tag_353\n                /* \"#utility.yul\":13959:13965   */\n              dup3\n                /* \"#utility.yul\":13951:13957   */\n              dup3\n                /* \"#utility.yul\":13945:13949   */\n              dup6\n                /* \"#utility.yul\":13899:13966   */\n              tag_189\n              jump\t// in\n            tag_353:\n                /* \"#utility.yul\":13993:13994   */\n              0x00\n                /* \"#utility.yul\":14017:14021   */\n              0x20\n                /* \"#utility.yul\":14004:14021   */\n              swap1\n              pop\n                /* \"#utility.yul\":14049:14051   */\n              0x1f\n                /* \"#utility.yul\":14041:14047   */\n              dup4\n                /* \"#utility.yul\":14038:14052   */\n              gt\n                /* \"#utility.yul\":14066:14067   */\n              0x01\n                /* \"#utility.yul\":14061:14679   */\n              dup2\n              eq\n              tag_355\n              jumpi\n                /* \"#utility.yul\":14723:14724   */\n              0x00\n                /* \"#utility.yul\":14740:14746   */\n              dup5\n                /* \"#utility.yul\":14737:14814   */\n              iszero\n              tag_356\n              jumpi\n                /* \"#utility.yul\":14789:14798   */\n              dup3\n                /* \"#utility.yul\":14784:14787   */\n              dup8\n                /* \"#utility.yul\":14780:14799   */\n              add\n                /* \"#utility.yul\":14774:14800   */\n              mload\n                /* \"#utility.yul\":14765:14800   */\n              swap1\n              pop\n                /* \"#utility.yul\":14737:14814   */\n            tag_356:\n                /* \"#utility.yul\":14840:14907   */\n              tag_357\n                /* \"#utility.yul\":14900:14906   */\n              dup6\n                /* \"#utility.yul\":14893:14898   */\n              dup3\n                /* \"#utility.yul\":14840:14907   */\n              tag_192\n              jump\t// in\n            tag_357:\n                /* \"#utility.yul\":14834:14838   */\n              dup7\n                /* \"#utility.yul\":14827:14908   */\n              sstore\n                /* \"#utility.yul\":14696:14918   */\n              pop\n                /* \"#utility.yul\":14031:14918   */\n              jump(tag_354)\n                /* \"#utility.yul\":14061:14679   */\n            tag_355:\n                /* \"#utility.yul\":14113:14117   */\n              0x1f\n                /* \"#utility.yul\":14109:14118   */\n              not\n                /* \"#utility.yul\":14101:14107   */\n              dup5\n                /* \"#utility.yul\":14097:14119   */\n              and\n                /* \"#utility.yul\":14147:14184   */\n              tag_358\n                /* \"#utility.yul\":14179:14183   */\n              dup7\n                /* \"#utility.yul\":14147:14184   */\n              tag_178\n              jump\t// in\n            tag_358:\n                /* \"#utility.yul\":14206:14207   */\n              0x00\n                /* \"#utility.yul\":14220:14428   */\n            tag_359:\n                /* \"#utility.yul\":14234:14241   */\n              dup3\n                /* \"#utility.yul\":14231:14232   */\n              dup2\n                /* \"#utility.yul\":14228:14242   */\n              lt\n                /* \"#utility.yul\":14220:14428   */\n              iszero\n              tag_361\n              jumpi\n                /* \"#utility.yul\":14313:14322   */\n              dup5\n                /* \"#utility.yul\":14308:14311   */\n              dup10\n                /* \"#utility.yul\":14304:14323   */\n              add\n                /* \"#utility.yul\":14298:14324   */\n              mload\n                /* \"#utility.yul\":14290:14296   */\n              dup3\n                /* \"#utility.yul\":14283:14325   */\n              sstore\n                /* \"#utility.yul\":14364:14365   */\n              0x01\n                /* \"#utility.yul\":14356:14362   */\n              dup3\n                /* \"#utility.yul\":14352:14366   */\n              add\n                /* \"#utility.yul\":14342:14366   */\n              swap2\n              pop\n                /* \"#utility.yul\":14411:14413   */\n              0x20\n                /* \"#utility.yul\":14400:14409   */\n              dup6\n                /* \"#utility.yul\":14396:14414   */\n              add\n                /* \"#utility.yul\":14383:14414   */\n              swap5\n              pop\n                /* \"#utility.yul\":14257:14261   */\n              0x20\n                /* \"#utility.yul\":14254:14255   */\n              dup2\n                /* \"#utility.yul\":14250:14262   */\n              add\n                /* \"#utility.yul\":14245:14262   */\n              swap1\n              pop\n                /* \"#utility.yul\":14220:14428   */\n              jump(tag_359)\n            tag_361:\n                /* \"#utility.yul\":14456:14462   */\n              dup7\n                /* \"#utility.yul\":14447:14454   */\n              dup4\n                /* \"#utility.yul\":14444:14463   */\n              lt\n                /* \"#utility.yul\":14441:14620   */\n              iszero\n              tag_362\n              jumpi\n                /* \"#utility.yul\":14514:14523   */\n              dup5\n                /* \"#utility.yul\":14509:14512   */\n              dup10\n                /* \"#utility.yul\":14505:14524   */\n              add\n                /* \"#utility.yul\":14499:14525   */\n              mload\n                /* \"#utility.yul\":14557:14605   */\n              tag_363\n                /* \"#utility.yul\":14599:14603   */\n              0x1f\n                /* \"#utility.yul\":14591:14597   */\n              dup10\n                /* \"#utility.yul\":14587:14604   */\n              and\n                /* \"#utility.yul\":14576:14585   */\n              dup3\n                /* \"#utility.yul\":14557:14605   */\n              tag_191\n              jump\t// in\n            tag_363:\n                /* \"#utility.yul\":14549:14555   */\n              dup4\n                /* \"#utility.yul\":14542:14606   */\n              sstore\n                /* \"#utility.yul\":14464:14620   */\n              pop\n                /* \"#utility.yul\":14441:14620   */\n            tag_362:\n                /* \"#utility.yul\":14666:14667   */\n              0x01\n                /* \"#utility.yul\":14662:14663   */\n              0x02\n                /* \"#utility.yul\":14654:14660   */\n              dup9\n                /* \"#utility.yul\":14650:14664   */\n              mul\n                /* \"#utility.yul\":14646:14668   */\n              add\n                /* \"#utility.yul\":14640:14644   */\n              dup9\n                /* \"#utility.yul\":14633:14669   */\n              sstore\n                /* \"#utility.yul\":14068:14679   */\n              pop\n              pop\n              pop\n                /* \"#utility.yul\":14031:14918   */\n            tag_354:\n              pop\n                /* \"#utility.yul\":13621:14924   */\n              pop\n              pop\n              pop\n                /* \"#utility.yul\":13529:14924   */\n              pop\n              pop\n              jump\t// out\n\n            auxdata: 0xa26469706673582212202a3f6919cf6ca988309a3aac45c1ec07a9391cf92fca7c76afadba90cf4148f264736f6c63430008160033\n        }\n    }\n\n    auxdata: 0xa26469706673582212208cde624a07f3bab35a3378b5d82ac1c4ad3f1dcedb93e223e0b6573a22383da164736f6c63430008160033\n}\n",
				"bytecode": {
					"linkReferences": {},
					"object": "608060405234801561000f575f80fd5b50612f3e8061001d5f395ff3fe608060405234801562000010575f80fd5b5060043610620000b6575f3560e01c8063a32da9d11162000079578063a32da9d11462000170578063d43b8fab14620001a6578063d773f77214620001c6578063e2842d7914620001e6578063eb9cbe7a1462000208578063fcd6704c146200022857620000b6565b80631440a7f214620000ba5780632661317e14620000da578063947fd5c314620000fa578063990b4ec5146200011a5780639efb6289146200013a575b5f80fd5b620000d86004803603810190620000d2919062001522565b6200025e565b005b620000f86004803603810190620000f2919062001522565b62000429565b005b62000118600480360381019062000112919062001567565b620005f4565b005b620001386004803603810190620001329190620016ef565b620007b1565b005b62000158600480360381019062000152919062001567565b6200097f565b6040516200016791906200182e565b60405180910390f35b6200018e600480360381019062000188919062001567565b62000bb0565b6040516200019d9190620018d6565b60405180910390f35b620001c46004803603810190620001be91906200192b565b62000beb565b005b620001e46004803603810190620001de9190620019d2565b62000dbc565b005b620001f062000ea9565b604051620001ff91906200182e565b60405180910390f35b62000226600480360381019062000220919062001567565b62000ff3565b005b62000246600480360381019062000240919062001567565b620011b0565b6040516200025591906200182e565b60405180910390f35b6200026982620013e1565b620002ab576040517f08c379a0000000000000000000000000000000000000000000000000000000008152600401620002a29062001a75565b60405180910390fd5b5f5b5f805490508110156200042457825f8281548110620002d157620002d062001a95565b5b905f5260205f20015f9054906101000a900473ffffffffffffffffffffffffffffffffffffffff1673ffffffffffffffffffffffffffffffffffffffff16638cee71e06040518163ffffffff1660e01b8152600401602060405180830381865afa15801562000342573d5f803e3d5ffd5b505050506040513d601f19601f8201168201806040525081019062000368919062001ad8565b0362000416575f818154811062000384576200038362001a95565b5b905f5260205f20015f9054906101000a900473ffffffffffffffffffffffffffffffffffffffff1673ffffffffffffffffffffffffffffffffffffffff1663fc68b3ed836040518263ffffffff1660e01b8152600401620003e6919062001b19565b5f604051808303815f87803b158015620003fe575f80fd5b505af115801562000411573d5f803e3d5ffd5b505050505b8080600101915050620002ad565b505050565b6200043482620013e1565b62000476576040517f08c379a00000000000000000000000000000000000000000000000000000000081526004016200046d9062001a75565b60405180910390fd5b5f5b5f80549050811015620005ef57825f82815481106200049c576200049b62001a95565b5b905f5260205f20015f9054906101000a900473ffffffffffffffffffffffffffffffffffffffff1673ffffffffffffffffffffffffffffffffffffffff16638cee71e06040518163ffffffff1660e01b8152600401602060405180830381865afa1580156200050d573d5f803e3d5ffd5b505050506040513d601f19601f8201168201806040525081019062000533919062001ad8565b03620005e1575f81815481106200054f576200054e62001a95565b5b905f5260205f20015f9054906101000a900473ffffffffffffffffffffffffffffffffffffffff1673ffffffffffffffffffffffffffffffffffffffff1663e5a72d5b836040518263ffffffff1660e01b8152600401620005b1919062001b19565b5f604051808303815f87803b158015620005c9575f80fd5b505af1158015620005dc573d5f803e3d5ffd5b505050505b808060010191505062000478565b505050565b620005ff81620013e1565b62000641576040517f08c379a0000000000000000000000000000000000000000000000000000000008152600401620006389062001a75565b60405180910390fd5b5f5b5f80549050811015620007ad57815f828154811062000667576200066662001a95565b5b905f5260205f20015f9054906101000a900473ffffffffffffffffffffffffffffffffffffffff1673ffffffffffffffffffffffffffffffffffffffff16638cee71e06040518163ffffffff1660e01b8152600401602060405180830381865afa158015620006d8573d5f803e3d5ffd5b505050506040513d601f19601f82011682018060405250810190620006fe919062001ad8565b036200079f575f81815481106200071a576200071962001a95565b5b905f5260205f20015f9054906101000a900473ffffffffffffffffffffffffffffffffffffffff1673ffffffffffffffffffffffffffffffffffffffff1663ac3ef22d6040518163ffffffff1660e01b81526004015f604051808303815f87803b15801562000787575f80fd5b505af11580156200079a573d5f803e3d5ffd5b505050505b808060010191505062000643565b5050565b620007bc83620013e1565b620007fe576040517f08c379a0000000000000000000000000000000000000000000000000000000008152600401620007f59062001a75565b60405180910390fd5b5f5b5f805490508110156200097957835f828154811062000824576200082362001a95565b5b905f5260205f20015f9054906101000a900473ffffffffffffffffffffffffffffffffffffffff1673ffffffffffffffffffffffffffffffffffffffff16638cee71e06040518163ffffffff1660e01b8152600401602060405180830381865afa15801562000895573d5f803e3d5ffd5b505050506040513d601f19601f82011682018060405250810190620008bb919062001ad8565b036200096b575f8181548110620008d757620008d662001a95565b5b905f5260205f20015f9054906101000a900473ffffffffffffffffffffffffffffffffffffffff1673ffffffffffffffffffffffffffffffffffffffff16633121924d84846040518363ffffffff1660e01b81526004016200093b92919062001ba8565b5f604051808303815f87803b15801562000953575f80fd5b505af115801562000966573d5f803e3d5ffd5b505050505b808060010191505062000800565b50505050565b60606200098c82620013e1565b620009ce576040517f08c379a0000000000000000000000000000000000000000000000000000000008152600401620009c59062001a75565b60405180910390fd5b5f808054905067ffffffffffffffff811115620009f057620009ef620015af565b5b60405190808252806020026020018201604052801562000a1f5781602001602082028036833780820191505090505b5090505f5b5f8054905081101562000ba657835f828154811062000a485762000a4762001a95565b5b905f5260205f20015f9054906101000a900473ffffffffffffffffffffffffffffffffffffffff1673ffffffffffffffffffffffffffffffffffffffff16638cee71e06040518163ffffffff1660e01b8152600401602060405180830381865afa15801562000ab9573d5f803e3d5ffd5b505050506040513d601f19601f8201168201806040525081019062000adf919062001ad8565b0362000b98575f818154811062000afb5762000afa62001a95565b5b905f5260205f20015f9054906101000a900473ffffffffffffffffffffffffffffffffffffffff1673ffffffffffffffffffffffffffffffffffffffff166365a6bb296040518163ffffffff1660e01b81526004015f60405180830381865afa15801562000b6b573d5f803e3d5ffd5b505050506040513d5f823e3d601f19601f8201168201806040525081019062000b95919062001cb1565b91505b808060010191505062000a24565b5080915050919050565b5f818154811062000bbf575f80fd5b905f5260205f20015f915054906101000a900473ffffffffffffffffffffffffffffffffffffffff1681565b62000bf684620013e1565b62000c38576040517f08c379a000000000000000000000000000000000000000000000000000000000815260040162000c2f9062001a75565b60405180910390fd5b5f5b5f8054905081101562000db557845f828154811062000c5e5762000c5d62001a95565b5b905f5260205f20015f9054906101000a900473ffffffffffffffffffffffffffffffffffffffff1673ffffffffffffffffffffffffffffffffffffffff16638cee71e06040518163ffffffff1660e01b8152600401602060405180830381865afa15801562000ccf573d5f803e3d5ffd5b505050506040513d601f19601f8201168201806040525081019062000cf5919062001ad8565b0362000da7575f818154811062000d115762000d1062001a95565b5b905f5260205f20015f9054906101000a900473ffffffffffffffffffffffffffffffffffffffff1673ffffffffffffffffffffffffffffffffffffffff166338fcbc018585856040518463ffffffff1660e01b815260040162000d779392919062001d11565b5f604051808303815f87803b15801562000d8f575f80fd5b505af115801562000da2573d5f803e3d5ffd5b505050505b808060010191505062000c3a565b5050505050565b62000dc782620013e1565b1562000e0a576040517f08c379a000000000000000000000000000000000000000000000000000000000815260040162000e019062001d9a565b60405180910390fd5b5f828260405162000e1b90620014cb565b62000e2892919062001dcb565b604051809103905ff08015801562000e42573d5f803e3d5ffd5b5090505f81908060018154018082558091505060019003905f5260205f20015f9091909190916101000a81548173ffffffffffffffffffffffffffffffffffffffff021916908373ffffffffffffffffffffffffffffffffffffffff160217905550505050565b60605f808054905067ffffffffffffffff81111562000ecd5762000ecc620015af565b5b60405190808252806020026020018201604052801562000efc5781602001602082028036833780820191505090505b5090505f5b5f8054905081101562000feb575f818154811062000f245762000f2362001a95565b5b905f5260205f20015f9054906101000a900473ffffffffffffffffffffffffffffffffffffffff1673ffffffffffffffffffffffffffffffffffffffff16632ebcb6536040518163ffffffff1660e01b8152600401602060405180830381865afa15801562000f95573d5f803e3d5ffd5b505050506040513d601f19601f8201168201806040525081019062000fbb919062001ad8565b82828151811062000fd15762000fd062001a95565b5b602002602001018181525050808060010191505062000f01565b508091505090565b62000ffe81620013e1565b62001040576040517f08c379a0000000000000000000000000000000000000000000000000000000008152600401620010379062001a75565b60405180910390fd5b5f5b5f80549050811015620011ac57815f828154811062001066576200106562001a95565b5b905f5260205f20015f9054906101000a900473ffffffffffffffffffffffffffffffffffffffff1673ffffffffffffffffffffffffffffffffffffffff16638cee71e06040518163ffffffff1660e01b8152600401602060405180830381865afa158015620010d7573d5f803e3d5ffd5b505050506040513d601f19601f82011682018060405250810190620010fd919062001ad8565b036200119e575f818154811062001119576200111862001a95565b5b905f5260205f20015f9054906101000a900473ffffffffffffffffffffffffffffffffffffffff1673ffffffffffffffffffffffffffffffffffffffff166335254bcd6040518163ffffffff1660e01b81526004015f604051808303815f87803b15801562001186575f80fd5b505af115801562001199573d5f803e3d5ffd5b505050505b808060010191505062001042565b5050565b6060620011bd82620013e1565b620011ff576040517f08c379a0000000000000000000000000000000000000000000000000000000008152600401620011f69062001a75565b60405180910390fd5b5f808054905067ffffffffffffffff811115620012215762001220620015af565b5b604051908082528060200260200182016040528015620012505781602001602082028036833780820191505090505b5090505f5b5f80549050811015620013d757835f828154811062001279576200127862001a95565b5b905f5260205f20015f9054906101000a900473ffffffffffffffffffffffffffffffffffffffff1673ffffffffffffffffffffffffffffffffffffffff16638cee71e06040518163ffffffff1660e01b8152600401602060405180830381865afa158015620012ea573d5f803e3d5ffd5b505050506040513d601f19601f8201168201806040525081019062001310919062001ad8565b03620013c9575f81815481106200132c576200132b62001a95565b5b905f5260205f20015f9054906101000a900473ffffffffffffffffffffffffffffffffffffffff1673ffffffffffffffffffffffffffffffffffffffff1663b74513c16040518163ffffffff1660e01b81526004015f60405180830381865afa1580156200139c573d5f803e3d5ffd5b505050506040513d5f823e3d601f19601f82011682018060405250810190620013c6919062001cb1565b91505b808060010191505062001255565b5080915050919050565b5f805f90505b5f80549050811015620014c157825f82815481106200140b576200140a62001a95565b5b905f5260205f20015f9054906101000a900473ffffffffffffffffffffffffffffffffffffffff1673ffffffffffffffffffffffffffffffffffffffff16638cee71e06040518163ffffffff1660e01b8152600401602060405180830381865afa1580156200147c573d5f803e3d5ffd5b505050506040513d601f19601f82011682018060405250810190620014a2919062001ad8565b03620014b3576001915050620014c6565b8080600101915050620013e7565b505f90505b919050565b6111128062001df783390190565b5f604051905090565b5f80fd5b5f80fd5b5f819050919050565b620014fe81620014ea565b811462001509575f80fd5b50565b5f813590506200151c81620014f3565b92915050565b5f80604083850312156200153b576200153a620014e2565b5b5f6200154a858286016200150c565b92505060206200155d858286016200150c565b9150509250929050565b5f602082840312156200157f576200157e620014e2565b5b5f6200158e848285016200150c565b91505092915050565b5f80fd5b5f80fd5b5f601f19601f8301169050919050565b7f4e487b71000000000000000000000000000000000000000000000000000000005f52604160045260245ffd5b620015e7826200159f565b810181811067ffffffffffffffff82111715620016095762001608620015af565b5b80604052505050565b5f6200161d620014d9565b90506200162b8282620015dc565b919050565b5f67ffffffffffffffff8211156200164d576200164c620015af565b5b62001658826200159f565b9050602081019050919050565b828183375f83830152505050565b5f62001689620016838462001630565b62001612565b905082815260208101848484011115620016a857620016a76200159b565b5b620016b584828562001665565b509392505050565b5f82601f830112620016d457620016d362001597565b5b8135620016e684826020860162001673565b91505092915050565b5f805f60608486031215620017095762001708620014e2565b5b5f62001718868287016200150c565b93505060206200172b868287016200150c565b925050604084013567ffffffffffffffff8111156200174f576200174e620014e6565b5b6200175d86828701620016bd565b9150509250925092565b5f81519050919050565b5f82825260208201905092915050565b5f819050602082019050919050565b6200179b81620014ea565b82525050565b5f620017ae838362001790565b60208301905092915050565b5f602082019050919050565b5f620017d28262001767565b620017de818562001771565b9350620017eb8362001781565b805f5b8381101562001821578151620018058882620017a1565b97506200181283620017ba565b925050600181019050620017ee565b5085935050505092915050565b5f6020820190508181035f830152620018488184620017c6565b905092915050565b5f73ffffffffffffffffffffffffffffffffffffffff82169050919050565b5f819050919050565b5f62001898620018926200188c8462001850565b6200186f565b62001850565b9050919050565b5f620018ab8262001878565b9050919050565b5f620018be826200189f565b9050919050565b620018d081620018b2565b82525050565b5f602082019050620018eb5f830184620018c5565b92915050565b5f8115159050919050565b6200190781620018f1565b811462001912575f80fd5b50565b5f813590506200192581620018fc565b92915050565b5f805f8060808587031215620019465762001945620014e2565b5b5f62001955878288016200150c565b945050602062001968878288016200150c565b93505060406200197b8782880162001915565b92505060606200198e8782880162001915565b91505092959194509250565b5f819050919050565b620019ae816200199a565b8114620019b9575f80fd5b50565b5f81359050620019cc81620019a3565b92915050565b5f8060408385031215620019eb57620019ea620014e2565b5b5f620019fa858286016200150c565b925050602062001a0d85828601620019bc565b9150509250929050565b5f82825260208201905092915050565b7f5574656e7465206e6f6e2074726f7661746f00000000000000000000000000005f82015250565b5f62001a5d60128362001a17565b915062001a6a8262001a27565b602082019050919050565b5f6020820190508181035f83015262001a8e8162001a4f565b9050919050565b7f4e487b71000000000000000000000000000000000000000000000000000000005f52603260045260245ffd5b5f8151905062001ad281620014f3565b92915050565b5f6020828403121562001af05762001aef620014e2565b5b5f62001aff8482850162001ac2565b91505092915050565b62001b1381620014ea565b82525050565b5f60208201905062001b2e5f83018462001b08565b92915050565b5f81519050919050565b5f5b8381101562001b5d57808201518184015260208101905062001b40565b5f8484015250505050565b5f62001b748262001b34565b62001b80818562001a17565b935062001b9281856020860162001b3e565b62001b9d816200159f565b840191505092915050565b5f60408201905062001bbd5f83018562001b08565b818103602083015262001bd1818462001b68565b90509392505050565b5f67ffffffffffffffff82111562001bf75762001bf6620015af565b5b602082029050602081019050919050565b5f80fd5b5f62001c2262001c1c8462001bda565b62001612565b9050808382526020820190506020840283018581111562001c485762001c4762001c08565b5b835b8181101562001c75578062001c60888262001ac2565b84526020840193505060208101905062001c4a565b5050509392505050565b5f82601f83011262001c965762001c9562001597565b5b815162001ca884826020860162001c0c565b91505092915050565b5f6020828403121562001cc95762001cc8620014e2565b5b5f82015167ffffffffffffffff81111562001ce95762001ce8620014e6565b5b62001cf78482850162001c7f565b91505092915050565b62001d0b81620018f1565b82525050565b5f60608201905062001d265f83018662001b08565b62001d35602083018562001d00565b62001d44604083018462001d00565b949350505050565b7f5574656e7465206573697374656e7465000000000000000000000000000000005f82015250565b5f62001d8260108362001a17565b915062001d8f8262001d4c565b602082019050919050565b5f6020820190508181035f83015262001db38162001d74565b9050919050565b62001dc5816200199a565b82525050565b5f60408201905062001de05f83018562001b08565b62001def602083018462001dba565b939250505056fe608060405234801562000010575f80fd5b506040516200111238038062001112833981810160405281019062000036919062000104565b815f819055506001805f6101000a81548160ff0219169083600181111562000063576200006262000149565b5b0217905550806004819055505f60055f6101000a81548160ff021916908315150217905550505062000176565b5f80fd5b5f819050919050565b620000a88162000094565b8114620000b3575f80fd5b50565b5f81519050620000c6816200009d565b92915050565b5f819050919050565b620000e081620000cc565b8114620000eb575f80fd5b50565b5f81519050620000fe81620000d5565b92915050565b5f80604083850312156200011d576200011c62000090565b5b5f6200012c85828601620000b6565b92505060206200013f85828601620000ee565b9150509250929050565b7f4e487b71000000000000000000000000000000000000000000000000000000005f52602160045260245ffd5b610f8e80620001845f395ff3fe608060405234801561000f575f80fd5b50600436106100cd575f3560e01c806365a6bb291161008a578063ac3ef22d11610064578063ac3ef22d146101ee578063b74513c1146101f8578063e5a72d5b14610216578063fc68b3ed14610232576100cd565b806365a6bb291461019457806384731d6f146101b25780638cee71e0146101d0576100cd565b80632ebcb653146100d15780633121924d146100ef57806335254bcd1461010b57806338fcbc011461011557806342be8cb514610131578063499ba0aa14610161575b5f80fd5b6100d961024e565b6040516100e69190610792565b60405180910390f35b61010960048036038101906101049190610922565b610256565b005b6101136102d2565b005b61012f600480360381019061012a91906109b1565b6102ee565b005b61014b60048036038101906101469190610a01565b6103af565b6040516101589190610792565b60405180910390f35b61017b60048036038101906101769190610a01565b6103d4565b60405161018b9493929190610ab5565b60405180910390f35b61019c6104ae565b6040516101a99190610bb6565b60405180910390f35b6101ba610563565b6040516101c79190610c49565b60405180910390f35b6101d8610575565b6040516101e59190610792565b60405180910390f35b6101f661057a565b005b6102006105a5565b60405161020d9190610bb6565b60405180910390f35b610230600480360381019061022b9190610a01565b61065e565b005b61024c60048036038101906102479190610a01565b6106a2565b005b5f8054905090565b5f5b6002805490508110156102cd57826002828154811061027a57610279610c62565b5b905f5260205f2090600302015f0154036102c05781600282815481106102a3576102a2610c62565b5b905f5260205f20906003020160010190816102be9190610e89565b505b8080600101915050610258565b505050565b600160055f6101000a81548160ff021916908315150217905550565b5f5b6002805490508110156103a957836002828154811061031257610311610c62565b5b905f5260205f2090600302015f01540361039c57826002828154811061033b5761033a610c62565b5b905f5260205f2090600302016002015f6101000a81548160ff021916908315150217905550816002828154811061037557610374610c62565b5b905f5260205f20906003020160020160016101000a81548160ff0219169083151502179055505b80806001019150506102f0565b50505050565b600381815481106103be575f80fd5b905f5260205f20015f91509050805f0154905081565b600281815481106103e3575f80fd5b905f5260205f2090600302015f91509050805f01549080600101805461040890610cbc565b80601f016020809104026020016040519081016040528092919081815260200182805461043490610cbc565b801561047f5780601f106104565761010080835404028352916020019161047f565b820191905f5260205f20905b81548152906001019060200180831161046257829003601f168201915b505050505090806002015f9054906101000a900460ff16908060020160019054906101000a900460ff16905084565b60605f60038054905067ffffffffffffffff8111156104d0576104cf6107fe565b5b6040519080825280602002602001820160405280156104fe5781602001602082028036833780820191505090505b5090505f5b60038054905081101561055b576003818154811061052457610523610c62565b5b905f5260205f20015f015482828151811061054257610541610c62565b5b6020026020010181815250508080600101915050610503565b508091505090565b60015f9054906101000a900460ff1681565b5f5481565b5f60015f6101000a81548160ff0219169083600181111561059e5761059d610bd6565b5b0217905550565b60605f60028054905067ffffffffffffffff8111156105c7576105c66107fe565b5b6040519080825280602002602001820160405280156105f55781602001602082028036833780820191505090505b5090505f5b600280549050811015610656576002818154811061061b5761061a610c62565b5b905f5260205f2090600302015f015482828151811061063d5761063c610c62565b5b60200260200101818152505080806001019150506105fa565b508091505090565b61066661073f565b81815f018181525050600381908060018154018082558091505060019003905f5260205f20015f909190919091505f820151815f015550505050565b6106aa610751565b81815f018181525050600281908060018154018082558091505060019003905f5260205f2090600302015f909190919091505f820151815f015560208201518160010190816106f99190610e89565b506040820151816002015f6101000a81548160ff02191690831515021790555060608201518160020160016101000a81548160ff02191690831515021790555050505050565b60405180602001604052805f81525090565b60405180608001604052805f8152602001606081526020015f151581526020015f151581525090565b5f819050919050565b61078c8161077a565b82525050565b5f6020820190506107a55f830184610783565b92915050565b5f604051905090565b5f80fd5b5f80fd5b6107c58161077a565b81146107cf575f80fd5b50565b5f813590506107e0816107bc565b92915050565b5f80fd5b5f80fd5b5f601f19601f8301169050919050565b7f4e487b71000000000000000000000000000000000000000000000000000000005f52604160045260245ffd5b610834826107ee565b810181811067ffffffffffffffff82111715610853576108526107fe565b5b80604052505050565b5f6108656107ab565b9050610871828261082b565b919050565b5f67ffffffffffffffff8211156108905761088f6107fe565b5b610899826107ee565b9050602081019050919050565b828183375f83830152505050565b5f6108c66108c184610876565b61085c565b9050828152602081018484840111156108e2576108e16107ea565b5b6108ed8482856108a6565b509392505050565b5f82601f830112610909576109086107e6565b5b81356109198482602086016108b4565b91505092915050565b5f8060408385031215610938576109376107b4565b5b5f610945858286016107d2565b925050602083013567ffffffffffffffff811115610966576109656107b8565b5b610972858286016108f5565b9150509250929050565b5f8115159050919050565b6109908161097c565b811461099a575f80fd5b50565b5f813590506109ab81610987565b92915050565b5f805f606084860312156109c8576109c76107b4565b5b5f6109d5868287016107d2565b93505060206109e68682870161099d565b92505060406109f78682870161099d565b9150509250925092565b5f60208284031215610a1657610a156107b4565b5b5f610a23848285016107d2565b91505092915050565b5f81519050919050565b5f82825260208201905092915050565b5f5b83811015610a63578082015181840152602081019050610a48565b5f8484015250505050565b5f610a7882610a2c565b610a828185610a36565b9350610a92818560208601610a46565b610a9b816107ee565b840191505092915050565b610aaf8161097c565b82525050565b5f608082019050610ac85f830187610783565b8181036020830152610ada8186610a6e565b9050610ae96040830185610aa6565b610af66060830184610aa6565b95945050505050565b5f81519050919050565b5f82825260208201905092915050565b5f819050602082019050919050565b610b318161077a565b82525050565b5f610b428383610b28565b60208301905092915050565b5f602082019050919050565b5f610b6482610aff565b610b6e8185610b09565b9350610b7983610b19565b805f5b83811015610ba9578151610b908882610b37565b9750610b9b83610b4e565b925050600181019050610b7c565b5085935050505092915050565b5f6020820190508181035f830152610bce8184610b5a565b905092915050565b7f4e487b71000000000000000000000000000000000000000000000000000000005f52602160045260245ffd5b60028110610c1457610c13610bd6565b5b50565b5f819050610c2482610c03565b919050565b5f610c3382610c17565b9050919050565b610c4381610c29565b82525050565b5f602082019050610c5c5f830184610c3a565b92915050565b7f4e487b71000000000000000000000000000000000000000000000000000000005f52603260045260245ffd5b7f4e487b71000000000000000000000000000000000000000000000000000000005f52602260045260245ffd5b5f6002820490506001821680610cd357607f821691505b602082108103610ce657610ce5610c8f565b5b50919050565b5f819050815f5260205f209050919050565b5f6020601f8301049050919050565b5f82821b905092915050565b5f60088302610d487fffffffffffffffffffffffffffffffffffffffffffffffffffffffffffffffff82610d0d565b610d528683610d0d565b95508019841693508086168417925050509392505050565b5f819050919050565b5f610d8d610d88610d838461077a565b610d6a565b61077a565b9050919050565b5f819050919050565b610da683610d73565b610dba610db282610d94565b848454610d19565b825550505050565b5f90565b610dce610dc2565b610dd9818484610d9d565b505050565b5b81811015610dfc57610df15f82610dc6565b600181019050610ddf565b5050565b601f821115610e4157610e1281610cec565b610e1b84610cfe565b81016020851015610e2a578190505b610e3e610e3685610cfe565b830182610dde565b50505b505050565b5f82821c905092915050565b5f610e615f1984600802610e46565b1980831691505092915050565b5f610e798383610e52565b9150826002028217905092915050565b610e9282610a2c565b67ffffffffffffffff811115610eab57610eaa6107fe565b5b610eb58254610cbc565b610ec0828285610e00565b5f60209050601f831160018114610ef1575f8415610edf578287015190505b610ee98582610e6e565b865550610f50565b601f198416610eff86610cec565b5f5b82811015610f2657848901518255600182019150602085019450602081019050610f01565b86831015610f435784890151610f3f601f891682610e52565b8355505b6001600288020188555050505b50505050505056fea26469706673582212202a3f6919cf6ca988309a3aac45c1ec07a9391cf92fca7c76afadba90cf4148f264736f6c63430008160033a26469706673582212208cde624a07f3bab35a3378b5d82ac1c4ad3f1dcedb93e223e0b6573a22383da164736f6c63430008160033",
					"opcodes": "PUSH1 0x80 PUSH1 0x40 MSTORE CALLVALUE DUP1 ISZERO PUSH2 0xF JUMPI PUSH0 DUP1 REVERT JUMPDEST POP PUSH2 0x2F3E DUP1 PUSH2 0x1D PUSH0 CODECOPY PUSH0 RETURN INVALID PUSH1 0x80 PUSH1 0x40 MSTORE CALLVALUE DUP1 ISZERO PUSH3 0x10 JUMPI PUSH0 DUP1 REVERT JUMPDEST POP PUSH1 0x4 CALLDATASIZE LT PUSH3 0xB6 JUMPI PUSH0 CALLDATALOAD PUSH1 0xE0 SHR DUP1 PUSH4 0xA32DA9D1 GT PUSH3 0x79 JUMPI DUP1 PUSH4 0xA32DA9D1 EQ PUSH3 0x170 JUMPI DUP1 PUSH4 0xD43B8FAB EQ PUSH3 0x1A6 JUMPI DUP1 PUSH4 0xD773F772 EQ PUSH3 0x1C6 JUMPI DUP1 PUSH4 0xE2842D79 EQ PUSH3 0x1E6 JUMPI DUP1 PUSH4 0xEB9CBE7A EQ PUSH3 0x208 JUMPI DUP1 PUSH4 0xFCD6704C EQ PUSH3 0x228 JUMPI PUSH3 0xB6 JUMP JUMPDEST DUP1 PUSH4 0x1440A7F2 EQ PUSH3 0xBA JUMPI DUP1 PUSH4 0x2661317E EQ PUSH3 0xDA JUMPI DUP1 PUSH4 0x947FD5C3 EQ PUSH3 0xFA JUMPI DUP1 PUSH4 0x990B4EC5 EQ PUSH3 0x11A JUMPI DUP1 PUSH4 0x9EFB6289 EQ PUSH3 0x13A JUMPI JUMPDEST PUSH0 DUP1 REVERT JUMPDEST PUSH3 0xD8 PUSH1 0x4 DUP1 CALLDATASIZE SUB DUP2 ADD SWAP1 PUSH3 0xD2 SWAP2 SWAP1 PUSH3 0x1522 JUMP JUMPDEST PUSH3 0x25E JUMP JUMPDEST STOP JUMPDEST PUSH3 0xF8 PUSH1 0x4 DUP1 CALLDATASIZE SUB DUP2 ADD SWAP1 PUSH3 0xF2 SWAP2 SWAP1 PUSH3 0x1522 JUMP JUMPDEST PUSH3 0x429 JUMP JUMPDEST STOP JUMPDEST PUSH3 0x118 PUSH1 0x4 DUP1 CALLDATASIZE SUB DUP2 ADD SWAP1 PUSH3 0x112 SWAP2 SWAP1 PUSH3 0x1567 JUMP JUMPDEST PUSH3 0x5F4 JUMP JUMPDEST STOP JUMPDEST PUSH3 0x138 PUSH1 0x4 DUP1 CALLDATASIZE SUB DUP2 ADD SWAP1 PUSH3 0x132 SWAP2 SWAP1 PUSH3 0x16EF JUMP JUMPDEST PUSH3 0x7B1 JUMP JUMPDEST STOP JUMPDEST PUSH3 0x158 PUSH1 0x4 DUP1 CALLDATASIZE SUB DUP2 ADD SWAP1 PUSH3 0x152 SWAP2 SWAP1 PUSH3 0x1567 JUMP JUMPDEST PUSH3 0x97F JUMP JUMPDEST PUSH1 0x40 MLOAD PUSH3 0x167 SWAP2 SWAP1 PUSH3 0x182E JUMP JUMPDEST PUSH1 0x40 MLOAD DUP1 SWAP2 SUB SWAP1 RETURN JUMPDEST PUSH3 0x18E PUSH1 0x4 DUP1 CALLDATASIZE SUB DUP2 ADD SWAP1 PUSH3 0x188 SWAP2 SWAP1 PUSH3 0x1567 JUMP JUMPDEST PUSH3 0xBB0 JUMP JUMPDEST PUSH1 0x40 MLOAD PUSH3 0x19D SWAP2 SWAP1 PUSH3 0x18D6 JUMP JUMPDEST PUSH1 0x40 MLOAD DUP1 SWAP2 SUB SWAP1 RETURN JUMPDEST PUSH3 0x1C4 PUSH1 0x4 DUP1 CALLDATASIZE SUB DUP2 ADD SWAP1 PUSH3 0x1BE SWAP2 SWAP1 PUSH3 0x192B JUMP JUMPDEST PUSH3 0xBEB JUMP JUMPDEST STOP JUMPDEST PUSH3 0x1E4 PUSH1 0x4 DUP1 CALLDATASIZE SUB DUP2 ADD SWAP1 PUSH3 0x1DE SWAP2 SWAP1 PUSH3 0x19D2 JUMP JUMPDEST PUSH3 0xDBC JUMP JUMPDEST STOP JUMPDEST PUSH3 0x1F0 PUSH3 0xEA9 JUMP JUMPDEST PUSH1 0x40 MLOAD PUSH3 0x1FF SWAP2 SWAP1 PUSH3 0x182E JUMP JUMPDEST PUSH1 0x40 MLOAD DUP1 SWAP2 SUB SWAP1 RETURN JUMPDEST PUSH3 0x226 PUSH1 0x4 DUP1 CALLDATASIZE SUB DUP2 ADD SWAP1 PUSH3 0x220 SWAP2 SWAP1 PUSH3 0x1567 JUMP JUMPDEST PUSH3 0xFF3 JUMP JUMPDEST STOP JUMPDEST PUSH3 0x246 PUSH1 0x4 DUP1 CALLDATASIZE SUB DUP2 ADD SWAP1 PUSH3 0x240 SWAP2 SWAP1 PUSH3 0x1567 JUMP JUMPDEST PUSH3 0x11B0 JUMP JUMPDEST PUSH1 0x40 MLOAD PUSH3 0x255 SWAP2 SWAP1 PUSH3 0x182E JUMP JUMPDEST PUSH1 0x40 MLOAD DUP1 SWAP2 SUB SWAP1 RETURN JUMPDEST PUSH3 0x269 DUP3 PUSH3 0x13E1 JUMP JUMPDEST PUSH3 0x2AB JUMPI PUSH1 0x40 MLOAD PUSH32 0x8C379A000000000000000000000000000000000000000000000000000000000 DUP2 MSTORE PUSH1 0x4 ADD PUSH3 0x2A2 SWAP1 PUSH3 0x1A75 JUMP JUMPDEST PUSH1 0x40 MLOAD DUP1 SWAP2 SUB SWAP1 REVERT JUMPDEST PUSH0 JUMPDEST PUSH0 DUP1 SLOAD SWAP1 POP DUP2 LT ISZERO PUSH3 0x424 JUMPI DUP3 PUSH0 DUP3 DUP2 SLOAD DUP2 LT PUSH3 0x2D1 JUMPI PUSH3 0x2D0 PUSH3 0x1A95 JUMP JUMPDEST JUMPDEST SWAP1 PUSH0 MSTORE PUSH1 0x20 PUSH0 KECCAK256 ADD PUSH0 SWAP1 SLOAD SWAP1 PUSH2 0x100 EXP SWAP1 DIV PUSH20 0xFFFFFFFFFFFFFFFFFFFFFFFFFFFFFFFFFFFFFFFF AND PUSH20 0xFFFFFFFFFFFFFFFFFFFFFFFFFFFFFFFFFFFFFFFF AND PUSH4 0x8CEE71E0 PUSH1 0x40 MLOAD DUP2 PUSH4 0xFFFFFFFF AND PUSH1 0xE0 SHL DUP2 MSTORE PUSH1 0x4 ADD PUSH1 0x20 PUSH1 0x40 MLOAD DUP1 DUP4 SUB DUP2 DUP7 GAS STATICCALL ISZERO DUP1 ISZERO PUSH3 0x342 JUMPI RETURNDATASIZE PUSH0 DUP1 RETURNDATACOPY RETURNDATASIZE PUSH0 REVERT JUMPDEST POP POP POP POP PUSH1 0x40 MLOAD RETURNDATASIZE PUSH1 0x1F NOT PUSH1 0x1F DUP3 ADD AND DUP3 ADD DUP1 PUSH1 0x40 MSTORE POP DUP2 ADD SWAP1 PUSH3 0x368 SWAP2 SWAP1 PUSH3 0x1AD8 JUMP JUMPDEST SUB PUSH3 0x416 JUMPI PUSH0 DUP2 DUP2 SLOAD DUP2 LT PUSH3 0x384 JUMPI PUSH3 0x383 PUSH3 0x1A95 JUMP JUMPDEST JUMPDEST SWAP1 PUSH0 MSTORE PUSH1 0x20 PUSH0 KECCAK256 ADD PUSH0 SWAP1 SLOAD SWAP1 PUSH2 0x100 EXP SWAP1 DIV PUSH20 0xFFFFFFFFFFFFFFFFFFFFFFFFFFFFFFFFFFFFFFFF AND PUSH20 0xFFFFFFFFFFFFFFFFFFFFFFFFFFFFFFFFFFFFFFFF AND PUSH4 0xFC68B3ED DUP4 PUSH1 0x40 MLOAD DUP3 PUSH4 0xFFFFFFFF AND PUSH1 0xE0 SHL DUP2 MSTORE PUSH1 0x4 ADD PUSH3 0x3E6 SWAP2 SWAP1 PUSH3 0x1B19 JUMP JUMPDEST PUSH0 PUSH1 0x40 MLOAD DUP1 DUP4 SUB DUP2 PUSH0 DUP8 DUP1 EXTCODESIZE ISZERO DUP1 ISZERO PUSH3 0x3FE JUMPI PUSH0 DUP1 REVERT JUMPDEST POP GAS CALL ISZERO DUP1 ISZERO PUSH3 0x411 JUMPI RETURNDATASIZE PUSH0 DUP1 RETURNDATACOPY RETURNDATASIZE PUSH0 REVERT JUMPDEST POP POP POP POP JUMPDEST DUP1 DUP1 PUSH1 0x1 ADD SWAP2 POP POP PUSH3 0x2AD JUMP JUMPDEST POP POP POP JUMP JUMPDEST PUSH3 0x434 DUP3 PUSH3 0x13E1 JUMP JUMPDEST PUSH3 0x476 JUMPI PUSH1 0x40 MLOAD PUSH32 0x8C379A000000000000000000000000000000000000000000000000000000000 DUP2 MSTORE PUSH1 0x4 ADD PUSH3 0x46D SWAP1 PUSH3 0x1A75 JUMP JUMPDEST PUSH1 0x40 MLOAD DUP1 SWAP2 SUB SWAP1 REVERT JUMPDEST PUSH0 JUMPDEST PUSH0 DUP1 SLOAD SWAP1 POP DUP2 LT ISZERO PUSH3 0x5EF JUMPI DUP3 PUSH0 DUP3 DUP2 SLOAD DUP2 LT PUSH3 0x49C JUMPI PUSH3 0x49B PUSH3 0x1A95 JUMP JUMPDEST JUMPDEST SWAP1 PUSH0 MSTORE PUSH1 0x20 PUSH0 KECCAK256 ADD PUSH0 SWAP1 SLOAD SWAP1 PUSH2 0x100 EXP SWAP1 DIV PUSH20 0xFFFFFFFFFFFFFFFFFFFFFFFFFFFFFFFFFFFFFFFF AND PUSH20 0xFFFFFFFFFFFFFFFFFFFFFFFFFFFFFFFFFFFFFFFF AND PUSH4 0x8CEE71E0 PUSH1 0x40 MLOAD DUP2 PUSH4 0xFFFFFFFF AND PUSH1 0xE0 SHL DUP2 MSTORE PUSH1 0x4 ADD PUSH1 0x20 PUSH1 0x40 MLOAD DUP1 DUP4 SUB DUP2 DUP7 GAS STATICCALL ISZERO DUP1 ISZERO PUSH3 0x50D JUMPI RETURNDATASIZE PUSH0 DUP1 RETURNDATACOPY RETURNDATASIZE PUSH0 REVERT JUMPDEST POP POP POP POP PUSH1 0x40 MLOAD RETURNDATASIZE PUSH1 0x1F NOT PUSH1 0x1F DUP3 ADD AND DUP3 ADD DUP1 PUSH1 0x40 MSTORE POP DUP2 ADD SWAP1 PUSH3 0x533 SWAP2 SWAP1 PUSH3 0x1AD8 JUMP JUMPDEST SUB PUSH3 0x5E1 JUMPI PUSH0 DUP2 DUP2 SLOAD DUP2 LT PUSH3 0x54F JUMPI PUSH3 0x54E PUSH3 0x1A95 JUMP JUMPDEST JUMPDEST SWAP1 PUSH0 MSTORE PUSH1 0x20 PUSH0 KECCAK256 ADD PUSH0 SWAP1 SLOAD SWAP1 PUSH2 0x100 EXP SWAP1 DIV PUSH20 0xFFFFFFFFFFFFFFFFFFFFFFFFFFFFFFFFFFFFFFFF AND PUSH20 0xFFFFFFFFFFFFFFFFFFFFFFFFFFFFFFFFFFFFFFFF AND PUSH4 0xE5A72D5B DUP4 PUSH1 0x40 MLOAD DUP3 PUSH4 0xFFFFFFFF AND PUSH1 0xE0 SHL DUP2 MSTORE PUSH1 0x4 ADD PUSH3 0x5B1 SWAP2 SWAP1 PUSH3 0x1B19 JUMP JUMPDEST PUSH0 PUSH1 0x40 MLOAD DUP1 DUP4 SUB DUP2 PUSH0 DUP8 DUP1 EXTCODESIZE ISZERO DUP1 ISZERO PUSH3 0x5C9 JUMPI PUSH0 DUP1 REVERT JUMPDEST POP GAS CALL ISZERO DUP1 ISZERO PUSH3 0x5DC JUMPI RETURNDATASIZE PUSH0 DUP1 RETURNDATACOPY RETURNDATASIZE PUSH0 REVERT JUMPDEST POP POP POP POP JUMPDEST DUP1 DUP1 PUSH1 0x1 ADD SWAP2 POP POP PUSH3 0x478 JUMP JUMPDEST POP POP POP JUMP JUMPDEST PUSH3 0x5FF DUP2 PUSH3 0x13E1 JUMP JUMPDEST PUSH3 0x641 JUMPI PUSH1 0x40 MLOAD PUSH32 0x8C379A000000000000000000000000000000000000000000000000000000000 DUP2 MSTORE PUSH1 0x4 ADD PUSH3 0x638 SWAP1 PUSH3 0x1A75 JUMP JUMPDEST PUSH1 0x40 MLOAD DUP1 SWAP2 SUB SWAP1 REVERT JUMPDEST PUSH0 JUMPDEST PUSH0 DUP1 SLOAD SWAP1 POP DUP2 LT ISZERO PUSH3 0x7AD JUMPI DUP2 PUSH0 DUP3 DUP2 SLOAD DUP2 LT PUSH3 0x667 JUMPI PUSH3 0x666 PUSH3 0x1A95 JUMP JUMPDEST JUMPDEST SWAP1 PUSH0 MSTORE PUSH1 0x20 PUSH0 KECCAK256 ADD PUSH0 SWAP1 SLOAD SWAP1 PUSH2 0x100 EXP SWAP1 DIV PUSH20 0xFFFFFFFFFFFFFFFFFFFFFFFFFFFFFFFFFFFFFFFF AND PUSH20 0xFFFFFFFFFFFFFFFFFFFFFFFFFFFFFFFFFFFFFFFF AND PUSH4 0x8CEE71E0 PUSH1 0x40 MLOAD DUP2 PUSH4 0xFFFFFFFF AND PUSH1 0xE0 SHL DUP2 MSTORE PUSH1 0x4 ADD PUSH1 0x20 PUSH1 0x40 MLOAD DUP1 DUP4 SUB DUP2 DUP7 GAS STATICCALL ISZERO DUP1 ISZERO PUSH3 0x6D8 JUMPI RETURNDATASIZE PUSH0 DUP1 RETURNDATACOPY RETURNDATASIZE PUSH0 REVERT JUMPDEST POP POP POP POP PUSH1 0x40 MLOAD RETURNDATASIZE PUSH1 0x1F NOT PUSH1 0x1F DUP3 ADD AND DUP3 ADD DUP1 PUSH1 0x40 MSTORE POP DUP2 ADD SWAP1 PUSH3 0x6FE SWAP2 SWAP1 PUSH3 0x1AD8 JUMP JUMPDEST SUB PUSH3 0x79F JUMPI PUSH0 DUP2 DUP2 SLOAD DUP2 LT PUSH3 0x71A JUMPI PUSH3 0x719 PUSH3 0x1A95 JUMP JUMPDEST JUMPDEST SWAP1 PUSH0 MSTORE PUSH1 0x20 PUSH0 KECCAK256 ADD PUSH0 SWAP1 SLOAD SWAP1 PUSH2 0x100 EXP SWAP1 DIV PUSH20 0xFFFFFFFFFFFFFFFFFFFFFFFFFFFFFFFFFFFFFFFF AND PUSH20 0xFFFFFFFFFFFFFFFFFFFFFFFFFFFFFFFFFFFFFFFF AND PUSH4 0xAC3EF22D PUSH1 0x40 MLOAD DUP2 PUSH4 0xFFFFFFFF AND PUSH1 0xE0 SHL DUP2 MSTORE PUSH1 0x4 ADD PUSH0 PUSH1 0x40 MLOAD DUP1 DUP4 SUB DUP2 PUSH0 DUP8 DUP1 EXTCODESIZE ISZERO DUP1 ISZERO PUSH3 0x787 JUMPI PUSH0 DUP1 REVERT JUMPDEST POP GAS CALL ISZERO DUP1 ISZERO PUSH3 0x79A JUMPI RETURNDATASIZE PUSH0 DUP1 RETURNDATACOPY RETURNDATASIZE PUSH0 REVERT JUMPDEST POP POP POP POP JUMPDEST DUP1 DUP1 PUSH1 0x1 ADD SWAP2 POP POP PUSH3 0x643 JUMP JUMPDEST POP POP JUMP JUMPDEST PUSH3 0x7BC DUP4 PUSH3 0x13E1 JUMP JUMPDEST PUSH3 0x7FE JUMPI PUSH1 0x40 MLOAD PUSH32 0x8C379A000000000000000000000000000000000000000000000000000000000 DUP2 MSTORE PUSH1 0x4 ADD PUSH3 0x7F5 SWAP1 PUSH3 0x1A75 JUMP JUMPDEST PUSH1 0x40 MLOAD DUP1 SWAP2 SUB SWAP1 REVERT JUMPDEST PUSH0 JUMPDEST PUSH0 DUP1 SLOAD SWAP1 POP DUP2 LT ISZERO PUSH3 0x979 JUMPI DUP4 PUSH0 DUP3 DUP2 SLOAD DUP2 LT PUSH3 0x824 JUMPI PUSH3 0x823 PUSH3 0x1A95 JUMP JUMPDEST JUMPDEST SWAP1 PUSH0 MSTORE PUSH1 0x20 PUSH0 KECCAK256 ADD PUSH0 SWAP1 SLOAD SWAP1 PUSH2 0x100 EXP SWAP1 DIV PUSH20 0xFFFFFFFFFFFFFFFFFFFFFFFFFFFFFFFFFFFFFFFF AND PUSH20 0xFFFFFFFFFFFFFFFFFFFFFFFFFFFFFFFFFFFFFFFF AND PUSH4 0x8CEE71E0 PUSH1 0x40 MLOAD DUP2 PUSH4 0xFFFFFFFF AND PUSH1 0xE0 SHL DUP2 MSTORE PUSH1 0x4 ADD PUSH1 0x20 PUSH1 0x40 MLOAD DUP1 DUP4 SUB DUP2 DUP7 GAS STATICCALL ISZERO DUP1 ISZERO PUSH3 0x895 JUMPI RETURNDATASIZE PUSH0 DUP1 RETURNDATACOPY RETURNDATASIZE PUSH0 REVERT JUMPDEST POP POP POP POP PUSH1 0x40 MLOAD RETURNDATASIZE PUSH1 0x1F NOT PUSH1 0x1F DUP3 ADD AND DUP3 ADD DUP1 PUSH1 0x40 MSTORE POP DUP2 ADD SWAP1 PUSH3 0x8BB SWAP2 SWAP1 PUSH3 0x1AD8 JUMP JUMPDEST SUB PUSH3 0x96B JUMPI PUSH0 DUP2 DUP2 SLOAD DUP2 LT PUSH3 0x8D7 JUMPI PUSH3 0x8D6 PUSH3 0x1A95 JUMP JUMPDEST JUMPDEST SWAP1 PUSH0 MSTORE PUSH1 0x20 PUSH0 KECCAK256 ADD PUSH0 SWAP1 SLOAD SWAP1 PUSH2 0x100 EXP SWAP1 DIV PUSH20 0xFFFFFFFFFFFFFFFFFFFFFFFFFFFFFFFFFFFFFFFF AND PUSH20 0xFFFFFFFFFFFFFFFFFFFFFFFFFFFFFFFFFFFFFFFF AND PUSH4 0x3121924D DUP5 DUP5 PUSH1 0x40 MLOAD DUP4 PUSH4 0xFFFFFFFF AND PUSH1 0xE0 SHL DUP2 MSTORE PUSH1 0x4 ADD PUSH3 0x93B SWAP3 SWAP2 SWAP1 PUSH3 0x1BA8 JUMP JUMPDEST PUSH0 PUSH1 0x40 MLOAD DUP1 DUP4 SUB DUP2 PUSH0 DUP8 DUP1 EXTCODESIZE ISZERO DUP1 ISZERO PUSH3 0x953 JUMPI PUSH0 DUP1 REVERT JUMPDEST POP GAS CALL ISZERO DUP1 ISZERO PUSH3 0x966 JUMPI RETURNDATASIZE PUSH0 DUP1 RETURNDATACOPY RETURNDATASIZE PUSH0 REVERT JUMPDEST POP POP POP POP JUMPDEST DUP1 DUP1 PUSH1 0x1 ADD SWAP2 POP POP PUSH3 0x800 JUMP JUMPDEST POP POP POP POP JUMP JUMPDEST PUSH1 0x60 PUSH3 0x98C DUP3 PUSH3 0x13E1 JUMP JUMPDEST PUSH3 0x9CE JUMPI PUSH1 0x40 MLOAD PUSH32 0x8C379A000000000000000000000000000000000000000000000000000000000 DUP2 MSTORE PUSH1 0x4 ADD PUSH3 0x9C5 SWAP1 PUSH3 0x1A75 JUMP JUMPDEST PUSH1 0x40 MLOAD DUP1 SWAP2 SUB SWAP1 REVERT JUMPDEST PUSH0 DUP1 DUP1 SLOAD SWAP1 POP PUSH8 0xFFFFFFFFFFFFFFFF DUP2 GT ISZERO PUSH3 0x9F0 JUMPI PUSH3 0x9EF PUSH3 0x15AF JUMP JUMPDEST JUMPDEST PUSH1 0x40 MLOAD SWAP1 DUP1 DUP3 MSTORE DUP1 PUSH1 0x20 MUL PUSH1 0x20 ADD DUP3 ADD PUSH1 0x40 MSTORE DUP1 ISZERO PUSH3 0xA1F JUMPI DUP2 PUSH1 0x20 ADD PUSH1 0x20 DUP3 MUL DUP1 CALLDATASIZE DUP4 CALLDATACOPY DUP1 DUP3 ADD SWAP2 POP POP SWAP1 POP JUMPDEST POP SWAP1 POP PUSH0 JUMPDEST PUSH0 DUP1 SLOAD SWAP1 POP DUP2 LT ISZERO PUSH3 0xBA6 JUMPI DUP4 PUSH0 DUP3 DUP2 SLOAD DUP2 LT PUSH3 0xA48 JUMPI PUSH3 0xA47 PUSH3 0x1A95 JUMP JUMPDEST JUMPDEST SWAP1 PUSH0 MSTORE PUSH1 0x20 PUSH0 KECCAK256 ADD PUSH0 SWAP1 SLOAD SWAP1 PUSH2 0x100 EXP SWAP1 DIV PUSH20 0xFFFFFFFFFFFFFFFFFFFFFFFFFFFFFFFFFFFFFFFF AND PUSH20 0xFFFFFFFFFFFFFFFFFFFFFFFFFFFFFFFFFFFFFFFF AND PUSH4 0x8CEE71E0 PUSH1 0x40 MLOAD DUP2 PUSH4 0xFFFFFFFF AND PUSH1 0xE0 SHL DUP2 MSTORE PUSH1 0x4 ADD PUSH1 0x20 PUSH1 0x40 MLOAD DUP1 DUP4 SUB DUP2 DUP7 GAS STATICCALL ISZERO DUP1 ISZERO PUSH3 0xAB9 JUMPI RETURNDATASIZE PUSH0 DUP1 RETURNDATACOPY RETURNDATASIZE PUSH0 REVERT JUMPDEST POP POP POP POP PUSH1 0x40 MLOAD RETURNDATASIZE PUSH1 0x1F NOT PUSH1 0x1F DUP3 ADD AND DUP3 ADD DUP1 PUSH1 0x40 MSTORE POP DUP2 ADD SWAP1 PUSH3 0xADF SWAP2 SWAP1 PUSH3 0x1AD8 JUMP JUMPDEST SUB PUSH3 0xB98 JUMPI PUSH0 DUP2 DUP2 SLOAD DUP2 LT PUSH3 0xAFB JUMPI PUSH3 0xAFA PUSH3 0x1A95 JUMP JUMPDEST JUMPDEST SWAP1 PUSH0 MSTORE PUSH1 0x20 PUSH0 KECCAK256 ADD PUSH0 SWAP1 SLOAD SWAP1 PUSH2 0x100 EXP SWAP1 DIV PUSH20 0xFFFFFFFFFFFFFFFFFFFFFFFFFFFFFFFFFFFFFFFF AND PUSH20 0xFFFFFFFFFFFFFFFFFFFFFFFFFFFFFFFFFFFFFFFF AND PUSH4 0x65A6BB29 PUSH1 0x40 MLOAD DUP2 PUSH4 0xFFFFFFFF AND PUSH1 0xE0 SHL DUP2 MSTORE PUSH1 0x4 ADD PUSH0 PUSH1 0x40 MLOAD DUP1 DUP4 SUB DUP2 DUP7 GAS STATICCALL ISZERO DUP1 ISZERO PUSH3 0xB6B JUMPI RETURNDATASIZE PUSH0 DUP1 RETURNDATACOPY RETURNDATASIZE PUSH0 REVERT JUMPDEST POP POP POP POP PUSH1 0x40 MLOAD RETURNDATASIZE PUSH0 DUP3 RETURNDATACOPY RETURNDATASIZE PUSH1 0x1F NOT PUSH1 0x1F DUP3 ADD AND DUP3 ADD DUP1 PUSH1 0x40 MSTORE POP DUP2 ADD SWAP1 PUSH3 0xB95 SWAP2 SWAP1 PUSH3 0x1CB1 JUMP JUMPDEST SWAP2 POP JUMPDEST DUP1 DUP1 PUSH1 0x1 ADD SWAP2 POP POP PUSH3 0xA24 JUMP JUMPDEST POP DUP1 SWAP2 POP POP SWAP2 SWAP1 POP JUMP JUMPDEST PUSH0 DUP2 DUP2 SLOAD DUP2 LT PUSH3 0xBBF JUMPI PUSH0 DUP1 REVERT JUMPDEST SWAP1 PUSH0 MSTORE PUSH1 0x20 PUSH0 KECCAK256 ADD PUSH0 SWAP2 POP SLOAD SWAP1 PUSH2 0x100 EXP SWAP1 DIV PUSH20 0xFFFFFFFFFFFFFFFFFFFFFFFFFFFFFFFFFFFFFFFF AND DUP2 JUMP JUMPDEST PUSH3 0xBF6 DUP5 PUSH3 0x13E1 JUMP JUMPDEST PUSH3 0xC38 JUMPI PUSH1 0x40 MLOAD PUSH32 0x8C379A000000000000000000000000000000000000000000000000000000000 DUP2 MSTORE PUSH1 0x4 ADD PUSH3 0xC2F SWAP1 PUSH3 0x1A75 JUMP JUMPDEST PUSH1 0x40 MLOAD DUP1 SWAP2 SUB SWAP1 REVERT JUMPDEST PUSH0 JUMPDEST PUSH0 DUP1 SLOAD SWAP1 POP DUP2 LT ISZERO PUSH3 0xDB5 JUMPI DUP5 PUSH0 DUP3 DUP2 SLOAD DUP2 LT PUSH3 0xC5E JUMPI PUSH3 0xC5D PUSH3 0x1A95 JUMP JUMPDEST JUMPDEST SWAP1 PUSH0 MSTORE PUSH1 0x20 PUSH0 KECCAK256 ADD PUSH0 SWAP1 SLOAD SWAP1 PUSH2 0x100 EXP SWAP1 DIV PUSH20 0xFFFFFFFFFFFFFFFFFFFFFFFFFFFFFFFFFFFFFFFF AND PUSH20 0xFFFFFFFFFFFFFFFFFFFFFFFFFFFFFFFFFFFFFFFF AND PUSH4 0x8CEE71E0 PUSH1 0x40 MLOAD DUP2 PUSH4 0xFFFFFFFF AND PUSH1 0xE0 SHL DUP2 MSTORE PUSH1 0x4 ADD PUSH1 0x20 PUSH1 0x40 MLOAD DUP1 DUP4 SUB DUP2 DUP7 GAS STATICCALL ISZERO DUP1 ISZERO PUSH3 0xCCF JUMPI RETURNDATASIZE PUSH0 DUP1 RETURNDATACOPY RETURNDATASIZE PUSH0 REVERT JUMPDEST POP POP POP POP PUSH1 0x40 MLOAD RETURNDATASIZE PUSH1 0x1F NOT PUSH1 0x1F DUP3 ADD AND DUP3 ADD DUP1 PUSH1 0x40 MSTORE POP DUP2 ADD SWAP1 PUSH3 0xCF5 SWAP2 SWAP1 PUSH3 0x1AD8 JUMP JUMPDEST SUB PUSH3 0xDA7 JUMPI PUSH0 DUP2 DUP2 SLOAD DUP2 LT PUSH3 0xD11 JUMPI PUSH3 0xD10 PUSH3 0x1A95 JUMP JUMPDEST JUMPDEST SWAP1 PUSH0 MSTORE PUSH1 0x20 PUSH0 KECCAK256 ADD PUSH0 SWAP1 SLOAD SWAP1 PUSH2 0x100 EXP SWAP1 DIV PUSH20 0xFFFFFFFFFFFFFFFFFFFFFFFFFFFFFFFFFFFFFFFF AND PUSH20 0xFFFFFFFFFFFFFFFFFFFFFFFFFFFFFFFFFFFFFFFF AND PUSH4 0x38FCBC01 DUP6 DUP6 DUP6 PUSH1 0x40 MLOAD DUP5 PUSH4 0xFFFFFFFF AND PUSH1 0xE0 SHL DUP2 MSTORE PUSH1 0x4 ADD PUSH3 0xD77 SWAP4 SWAP3 SWAP2 SWAP1 PUSH3 0x1D11 JUMP JUMPDEST PUSH0 PUSH1 0x40 MLOAD DUP1 DUP4 SUB DUP2 PUSH0 DUP8 DUP1 EXTCODESIZE ISZERO DUP1 ISZERO PUSH3 0xD8F JUMPI PUSH0 DUP1 REVERT JUMPDEST POP GAS CALL ISZERO DUP1 ISZERO PUSH3 0xDA2 JUMPI RETURNDATASIZE PUSH0 DUP1 RETURNDATACOPY RETURNDATASIZE PUSH0 REVERT JUMPDEST POP POP POP POP JUMPDEST DUP1 DUP1 PUSH1 0x1 ADD SWAP2 POP POP PUSH3 0xC3A JUMP JUMPDEST POP POP POP POP POP JUMP JUMPDEST PUSH3 0xDC7 DUP3 PUSH3 0x13E1 JUMP JUMPDEST ISZERO PUSH3 0xE0A JUMPI PUSH1 0x40 MLOAD PUSH32 0x8C379A000000000000000000000000000000000000000000000000000000000 DUP2 MSTORE PUSH1 0x4 ADD PUSH3 0xE01 SWAP1 PUSH3 0x1D9A JUMP JUMPDEST PUSH1 0x40 MLOAD DUP1 SWAP2 SUB SWAP1 REVERT JUMPDEST PUSH0 DUP3 DUP3 PUSH1 0x40 MLOAD PUSH3 0xE1B SWAP1 PUSH3 0x14CB JUMP JUMPDEST PUSH3 0xE28 SWAP3 SWAP2 SWAP1 PUSH3 0x1DCB JUMP JUMPDEST PUSH1 0x40 MLOAD DUP1 SWAP2 SUB SWAP1 PUSH0 CREATE DUP1 ISZERO DUP1 ISZERO PUSH3 0xE42 JUMPI RETURNDATASIZE PUSH0 DUP1 RETURNDATACOPY RETURNDATASIZE PUSH0 REVERT JUMPDEST POP SWAP1 POP PUSH0 DUP2 SWAP1 DUP1 PUSH1 0x1 DUP2 SLOAD ADD DUP1 DUP3 SSTORE DUP1 SWAP2 POP POP PUSH1 0x1 SWAP1 SUB SWAP1 PUSH0 MSTORE PUSH1 0x20 PUSH0 KECCAK256 ADD PUSH0 SWAP1 SWAP2 SWAP1 SWAP2 SWAP1 SWAP2 PUSH2 0x100 EXP DUP2 SLOAD DUP2 PUSH20 0xFFFFFFFFFFFFFFFFFFFFFFFFFFFFFFFFFFFFFFFF MUL NOT AND SWAP1 DUP4 PUSH20 0xFFFFFFFFFFFFFFFFFFFFFFFFFFFFFFFFFFFFFFFF AND MUL OR SWAP1 SSTORE POP POP POP POP JUMP JUMPDEST PUSH1 0x60 PUSH0 DUP1 DUP1 SLOAD SWAP1 POP PUSH8 0xFFFFFFFFFFFFFFFF DUP2 GT ISZERO PUSH3 0xECD JUMPI PUSH3 0xECC PUSH3 0x15AF JUMP JUMPDEST JUMPDEST PUSH1 0x40 MLOAD SWAP1 DUP1 DUP3 MSTORE DUP1 PUSH1 0x20 MUL PUSH1 0x20 ADD DUP3 ADD PUSH1 0x40 MSTORE DUP1 ISZERO PUSH3 0xEFC JUMPI DUP2 PUSH1 0x20 ADD PUSH1 0x20 DUP3 MUL DUP1 CALLDATASIZE DUP4 CALLDATACOPY DUP1 DUP3 ADD SWAP2 POP POP SWAP1 POP JUMPDEST POP SWAP1 POP PUSH0 JUMPDEST PUSH0 DUP1 SLOAD SWAP1 POP DUP2 LT ISZERO PUSH3 0xFEB JUMPI PUSH0 DUP2 DUP2 SLOAD DUP2 LT PUSH3 0xF24 JUMPI PUSH3 0xF23 PUSH3 0x1A95 JUMP JUMPDEST JUMPDEST SWAP1 PUSH0 MSTORE PUSH1 0x20 PUSH0 KECCAK256 ADD PUSH0 SWAP1 SLOAD SWAP1 PUSH2 0x100 EXP SWAP1 DIV PUSH20 0xFFFFFFFFFFFFFFFFFFFFFFFFFFFFFFFFFFFFFFFF AND PUSH20 0xFFFFFFFFFFFFFFFFFFFFFFFFFFFFFFFFFFFFFFFF AND PUSH4 0x2EBCB653 PUSH1 0x40 MLOAD DUP2 PUSH4 0xFFFFFFFF AND PUSH1 0xE0 SHL DUP2 MSTORE PUSH1 0x4 ADD PUSH1 0x20 PUSH1 0x40 MLOAD DUP1 DUP4 SUB DUP2 DUP7 GAS STATICCALL ISZERO DUP1 ISZERO PUSH3 0xF95 JUMPI RETURNDATASIZE PUSH0 DUP1 RETURNDATACOPY RETURNDATASIZE PUSH0 REVERT JUMPDEST POP POP POP POP PUSH1 0x40 MLOAD RETURNDATASIZE PUSH1 0x1F NOT PUSH1 0x1F DUP3 ADD AND DUP3 ADD DUP1 PUSH1 0x40 MSTORE POP DUP2 ADD SWAP1 PUSH3 0xFBB SWAP2 SWAP1 PUSH3 0x1AD8 JUMP JUMPDEST DUP3 DUP3 DUP2 MLOAD DUP2 LT PUSH3 0xFD1 JUMPI PUSH3 0xFD0 PUSH3 0x1A95 JUMP JUMPDEST JUMPDEST PUSH1 0x20 MUL PUSH1 0x20 ADD ADD DUP2 DUP2 MSTORE POP POP DUP1 DUP1 PUSH1 0x1 ADD SWAP2 POP POP PUSH3 0xF01 JUMP JUMPDEST POP DUP1 SWAP2 POP POP SWAP1 JUMP JUMPDEST PUSH3 0xFFE DUP2 PUSH3 0x13E1 JUMP JUMPDEST PUSH3 0x1040 JUMPI PUSH1 0x40 MLOAD PUSH32 0x8C379A000000000000000000000000000000000000000000000000000000000 DUP2 MSTORE PUSH1 0x4 ADD PUSH3 0x1037 SWAP1 PUSH3 0x1A75 JUMP JUMPDEST PUSH1 0x40 MLOAD DUP1 SWAP2 SUB SWAP1 REVERT JUMPDEST PUSH0 JUMPDEST PUSH0 DUP1 SLOAD SWAP1 POP DUP2 LT ISZERO PUSH3 0x11AC JUMPI DUP2 PUSH0 DUP3 DUP2 SLOAD DUP2 LT PUSH3 0x1066 JUMPI PUSH3 0x1065 PUSH3 0x1A95 JUMP JUMPDEST JUMPDEST SWAP1 PUSH0 MSTORE PUSH1 0x20 PUSH0 KECCAK256 ADD PUSH0 SWAP1 SLOAD SWAP1 PUSH2 0x100 EXP SWAP1 DIV PUSH20 0xFFFFFFFFFFFFFFFFFFFFFFFFFFFFFFFFFFFFFFFF AND PUSH20 0xFFFFFFFFFFFFFFFFFFFFFFFFFFFFFFFFFFFFFFFF AND PUSH4 0x8CEE71E0 PUSH1 0x40 MLOAD DUP2 PUSH4 0xFFFFFFFF AND PUSH1 0xE0 SHL DUP2 MSTORE PUSH1 0x4 ADD PUSH1 0x20 PUSH1 0x40 MLOAD DUP1 DUP4 SUB DUP2 DUP7 GAS STATICCALL ISZERO DUP1 ISZERO PUSH3 0x10D7 JUMPI RETURNDATASIZE PUSH0 DUP1 RETURNDATACOPY RETURNDATASIZE PUSH0 REVERT JUMPDEST POP POP POP POP PUSH1 0x40 MLOAD RETURNDATASIZE PUSH1 0x1F NOT PUSH1 0x1F DUP3 ADD AND DUP3 ADD DUP1 PUSH1 0x40 MSTORE POP DUP2 ADD SWAP1 PUSH3 0x10FD SWAP2 SWAP1 PUSH3 0x1AD8 JUMP JUMPDEST SUB PUSH3 0x119E JUMPI PUSH0 DUP2 DUP2 SLOAD DUP2 LT PUSH3 0x1119 JUMPI PUSH3 0x1118 PUSH3 0x1A95 JUMP JUMPDEST JUMPDEST SWAP1 PUSH0 MSTORE PUSH1 0x20 PUSH0 KECCAK256 ADD PUSH0 SWAP1 SLOAD SWAP1 PUSH2 0x100 EXP SWAP1 DIV PUSH20 0xFFFFFFFFFFFFFFFFFFFFFFFFFFFFFFFFFFFFFFFF AND PUSH20 0xFFFFFFFFFFFFFFFFFFFFFFFFFFFFFFFFFFFFFFFF AND PUSH4 0x35254BCD PUSH1 0x40 MLOAD DUP2 PUSH4 0xFFFFFFFF AND PUSH1 0xE0 SHL DUP2 MSTORE PUSH1 0x4 ADD PUSH0 PUSH1 0x40 MLOAD DUP1 DUP4 SUB DUP2 PUSH0 DUP8 DUP1 EXTCODESIZE ISZERO DUP1 ISZERO PUSH3 0x1186 JUMPI PUSH0 DUP1 REVERT JUMPDEST POP GAS CALL ISZERO DUP1 ISZERO PUSH3 0x1199 JUMPI RETURNDATASIZE PUSH0 DUP1 RETURNDATACOPY RETURNDATASIZE PUSH0 REVERT JUMPDEST POP POP POP POP JUMPDEST DUP1 DUP1 PUSH1 0x1 ADD SWAP2 POP POP PUSH3 0x1042 JUMP JUMPDEST POP POP JUMP JUMPDEST PUSH1 0x60 PUSH3 0x11BD DUP3 PUSH3 0x13E1 JUMP JUMPDEST PUSH3 0x11FF JUMPI PUSH1 0x40 MLOAD PUSH32 0x8C379A000000000000000000000000000000000000000000000000000000000 DUP2 MSTORE PUSH1 0x4 ADD PUSH3 0x11F6 SWAP1 PUSH3 0x1A75 JUMP JUMPDEST PUSH1 0x40 MLOAD DUP1 SWAP2 SUB SWAP1 REVERT JUMPDEST PUSH0 DUP1 DUP1 SLOAD SWAP1 POP PUSH8 0xFFFFFFFFFFFFFFFF DUP2 GT ISZERO PUSH3 0x1221 JUMPI PUSH3 0x1220 PUSH3 0x15AF JUMP JUMPDEST JUMPDEST PUSH1 0x40 MLOAD SWAP1 DUP1 DUP3 MSTORE DUP1 PUSH1 0x20 MUL PUSH1 0x20 ADD DUP3 ADD PUSH1 0x40 MSTORE DUP1 ISZERO PUSH3 0x1250 JUMPI DUP2 PUSH1 0x20 ADD PUSH1 0x20 DUP3 MUL DUP1 CALLDATASIZE DUP4 CALLDATACOPY DUP1 DUP3 ADD SWAP2 POP POP SWAP1 POP JUMPDEST POP SWAP1 POP PUSH0 JUMPDEST PUSH0 DUP1 SLOAD SWAP1 POP DUP2 LT ISZERO PUSH3 0x13D7 JUMPI DUP4 PUSH0 DUP3 DUP2 SLOAD DUP2 LT PUSH3 0x1279 JUMPI PUSH3 0x1278 PUSH3 0x1A95 JUMP JUMPDEST JUMPDEST SWAP1 PUSH0 MSTORE PUSH1 0x20 PUSH0 KECCAK256 ADD PUSH0 SWAP1 SLOAD SWAP1 PUSH2 0x100 EXP SWAP1 DIV PUSH20 0xFFFFFFFFFFFFFFFFFFFFFFFFFFFFFFFFFFFFFFFF AND PUSH20 0xFFFFFFFFFFFFFFFFFFFFFFFFFFFFFFFFFFFFFFFF AND PUSH4 0x8CEE71E0 PUSH1 0x40 MLOAD DUP2 PUSH4 0xFFFFFFFF AND PUSH1 0xE0 SHL DUP2 MSTORE PUSH1 0x4 ADD PUSH1 0x20 PUSH1 0x40 MLOAD DUP1 DUP4 SUB DUP2 DUP7 GAS STATICCALL ISZERO DUP1 ISZERO PUSH3 0x12EA JUMPI RETURNDATASIZE PUSH0 DUP1 RETURNDATACOPY RETURNDATASIZE PUSH0 REVERT JUMPDEST POP POP POP POP PUSH1 0x40 MLOAD RETURNDATASIZE PUSH1 0x1F NOT PUSH1 0x1F DUP3 ADD AND DUP3 ADD DUP1 PUSH1 0x40 MSTORE POP DUP2 ADD SWAP1 PUSH3 0x1310 SWAP2 SWAP1 PUSH3 0x1AD8 JUMP JUMPDEST SUB PUSH3 0x13C9 JUMPI PUSH0 DUP2 DUP2 SLOAD DUP2 LT PUSH3 0x132C JUMPI PUSH3 0x132B PUSH3 0x1A95 JUMP JUMPDEST JUMPDEST SWAP1 PUSH0 MSTORE PUSH1 0x20 PUSH0 KECCAK256 ADD PUSH0 SWAP1 SLOAD SWAP1 PUSH2 0x100 EXP SWAP1 DIV PUSH20 0xFFFFFFFFFFFFFFFFFFFFFFFFFFFFFFFFFFFFFFFF AND PUSH20 0xFFFFFFFFFFFFFFFFFFFFFFFFFFFFFFFFFFFFFFFF AND PUSH4 0xB74513C1 PUSH1 0x40 MLOAD DUP2 PUSH4 0xFFFFFFFF AND PUSH1 0xE0 SHL DUP2 MSTORE PUSH1 0x4 ADD PUSH0 PUSH1 0x40 MLOAD DUP1 DUP4 SUB DUP2 DUP7 GAS STATICCALL ISZERO DUP1 ISZERO PUSH3 0x139C JUMPI RETURNDATASIZE PUSH0 DUP1 RETURNDATACOPY RETURNDATASIZE PUSH0 REVERT JUMPDEST POP POP POP POP PUSH1 0x40 MLOAD RETURNDATASIZE PUSH0 DUP3 RETURNDATACOPY RETURNDATASIZE PUSH1 0x1F NOT PUSH1 0x1F DUP3 ADD AND DUP3 ADD DUP1 PUSH1 0x40 MSTORE POP DUP2 ADD SWAP1 PUSH3 0x13C6 SWAP2 SWAP1 PUSH3 0x1CB1 JUMP JUMPDEST SWAP2 POP JUMPDEST DUP1 DUP1 PUSH1 0x1 ADD SWAP2 POP POP PUSH3 0x1255 JUMP JUMPDEST POP DUP1 SWAP2 POP POP SWAP2 SWAP1 POP JUMP JUMPDEST PUSH0 DUP1 PUSH0 SWAP1 POP JUMPDEST PUSH0 DUP1 SLOAD SWAP1 POP DUP2 LT ISZERO PUSH3 0x14C1 JUMPI DUP3 PUSH0 DUP3 DUP2 SLOAD DUP2 LT PUSH3 0x140B JUMPI PUSH3 0x140A PUSH3 0x1A95 JUMP JUMPDEST JUMPDEST SWAP1 PUSH0 MSTORE PUSH1 0x20 PUSH0 KECCAK256 ADD PUSH0 SWAP1 SLOAD SWAP1 PUSH2 0x100 EXP SWAP1 DIV PUSH20 0xFFFFFFFFFFFFFFFFFFFFFFFFFFFFFFFFFFFFFFFF AND PUSH20 0xFFFFFFFFFFFFFFFFFFFFFFFFFFFFFFFFFFFFFFFF AND PUSH4 0x8CEE71E0 PUSH1 0x40 MLOAD DUP2 PUSH4 0xFFFFFFFF AND PUSH1 0xE0 SHL DUP2 MSTORE PUSH1 0x4 ADD PUSH1 0x20 PUSH1 0x40 MLOAD DUP1 DUP4 SUB DUP2 DUP7 GAS STATICCALL ISZERO DUP1 ISZERO PUSH3 0x147C JUMPI RETURNDATASIZE PUSH0 DUP1 RETURNDATACOPY RETURNDATASIZE PUSH0 REVERT JUMPDEST POP POP POP POP PUSH1 0x40 MLOAD RETURNDATASIZE PUSH1 0x1F NOT PUSH1 0x1F DUP3 ADD AND DUP3 ADD DUP1 PUSH1 0x40 MSTORE POP DUP2 ADD SWAP1 PUSH3 0x14A2 SWAP2 SWAP1 PUSH3 0x1AD8 JUMP JUMPDEST SUB PUSH3 0x14B3 JUMPI PUSH1 0x1 SWAP2 POP POP PUSH3 0x14C6 JUMP JUMPDEST DUP1 DUP1 PUSH1 0x1 ADD SWAP2 POP POP PUSH3 0x13E7 JUMP JUMPDEST POP PUSH0 SWAP1 POP JUMPDEST SWAP2 SWAP1 POP JUMP JUMPDEST PUSH2 0x1112 DUP1 PUSH3 0x1DF7 DUP4 CODECOPY ADD SWAP1 JUMP JUMPDEST PUSH0 PUSH1 0x40 MLOAD SWAP1 POP SWAP1 JUMP JUMPDEST PUSH0 DUP1 REVERT JUMPDEST PUSH0 DUP1 REVERT JUMPDEST PUSH0 DUP2 SWAP1 POP SWAP2 SWAP1 POP JUMP JUMPDEST PUSH3 0x14FE DUP2 PUSH3 0x14EA JUMP JUMPDEST DUP2 EQ PUSH3 0x1509 JUMPI PUSH0 DUP1 REVERT JUMPDEST POP JUMP JUMPDEST PUSH0 DUP2 CALLDATALOAD SWAP1 POP PUSH3 0x151C DUP2 PUSH3 0x14F3 JUMP JUMPDEST SWAP3 SWAP2 POP POP JUMP JUMPDEST PUSH0 DUP1 PUSH1 0x40 DUP4 DUP6 SUB SLT ISZERO PUSH3 0x153B JUMPI PUSH3 0x153A PUSH3 0x14E2 JUMP JUMPDEST JUMPDEST PUSH0 PUSH3 0x154A DUP6 DUP3 DUP7 ADD PUSH3 0x150C JUMP JUMPDEST SWAP3 POP POP PUSH1 0x20 PUSH3 0x155D DUP6 DUP3 DUP7 ADD PUSH3 0x150C JUMP JUMPDEST SWAP2 POP POP SWAP3 POP SWAP3 SWAP1 POP JUMP JUMPDEST PUSH0 PUSH1 0x20 DUP3 DUP5 SUB SLT ISZERO PUSH3 0x157F JUMPI PUSH3 0x157E PUSH3 0x14E2 JUMP JUMPDEST JUMPDEST PUSH0 PUSH3 0x158E DUP5 DUP3 DUP6 ADD PUSH3 0x150C JUMP JUMPDEST SWAP2 POP POP SWAP3 SWAP2 POP POP JUMP JUMPDEST PUSH0 DUP1 REVERT JUMPDEST PUSH0 DUP1 REVERT JUMPDEST PUSH0 PUSH1 0x1F NOT PUSH1 0x1F DUP4 ADD AND SWAP1 POP SWAP2 SWAP1 POP JUMP JUMPDEST PUSH32 0x4E487B7100000000000000000000000000000000000000000000000000000000 PUSH0 MSTORE PUSH1 0x41 PUSH1 0x4 MSTORE PUSH1 0x24 PUSH0 REVERT JUMPDEST PUSH3 0x15E7 DUP3 PUSH3 0x159F JUMP JUMPDEST DUP2 ADD DUP2 DUP2 LT PUSH8 0xFFFFFFFFFFFFFFFF DUP3 GT OR ISZERO PUSH3 0x1609 JUMPI PUSH3 0x1608 PUSH3 0x15AF JUMP JUMPDEST JUMPDEST DUP1 PUSH1 0x40 MSTORE POP POP POP JUMP JUMPDEST PUSH0 PUSH3 0x161D PUSH3 0x14D9 JUMP JUMPDEST SWAP1 POP PUSH3 0x162B DUP3 DUP3 PUSH3 0x15DC JUMP JUMPDEST SWAP2 SWAP1 POP JUMP JUMPDEST PUSH0 PUSH8 0xFFFFFFFFFFFFFFFF DUP3 GT ISZERO PUSH3 0x164D JUMPI PUSH3 0x164C PUSH3 0x15AF JUMP JUMPDEST JUMPDEST PUSH3 0x1658 DUP3 PUSH3 0x159F JUMP JUMPDEST SWAP1 POP PUSH1 0x20 DUP2 ADD SWAP1 POP SWAP2 SWAP1 POP JUMP JUMPDEST DUP3 DUP2 DUP4 CALLDATACOPY PUSH0 DUP4 DUP4 ADD MSTORE POP POP POP JUMP JUMPDEST PUSH0 PUSH3 0x1689 PUSH3 0x1683 DUP5 PUSH3 0x1630 JUMP JUMPDEST PUSH3 0x1612 JUMP JUMPDEST SWAP1 POP DUP3 DUP2 MSTORE PUSH1 0x20 DUP2 ADD DUP5 DUP5 DUP5 ADD GT ISZERO PUSH3 0x16A8 JUMPI PUSH3 0x16A7 PUSH3 0x159B JUMP JUMPDEST JUMPDEST PUSH3 0x16B5 DUP5 DUP3 DUP6 PUSH3 0x1665 JUMP JUMPDEST POP SWAP4 SWAP3 POP POP POP JUMP JUMPDEST PUSH0 DUP3 PUSH1 0x1F DUP4 ADD SLT PUSH3 0x16D4 JUMPI PUSH3 0x16D3 PUSH3 0x1597 JUMP JUMPDEST JUMPDEST DUP2 CALLDATALOAD PUSH3 0x16E6 DUP5 DUP3 PUSH1 0x20 DUP7 ADD PUSH3 0x1673 JUMP JUMPDEST SWAP2 POP POP SWAP3 SWAP2 POP POP JUMP JUMPDEST PUSH0 DUP1 PUSH0 PUSH1 0x60 DUP5 DUP7 SUB SLT ISZERO PUSH3 0x1709 JUMPI PUSH3 0x1708 PUSH3 0x14E2 JUMP JUMPDEST JUMPDEST PUSH0 PUSH3 0x1718 DUP7 DUP3 DUP8 ADD PUSH3 0x150C JUMP JUMPDEST SWAP4 POP POP PUSH1 0x20 PUSH3 0x172B DUP7 DUP3 DUP8 ADD PUSH3 0x150C JUMP JUMPDEST SWAP3 POP POP PUSH1 0x40 DUP5 ADD CALLDATALOAD PUSH8 0xFFFFFFFFFFFFFFFF DUP2 GT ISZERO PUSH3 0x174F JUMPI PUSH3 0x174E PUSH3 0x14E6 JUMP JUMPDEST JUMPDEST PUSH3 0x175D DUP7 DUP3 DUP8 ADD PUSH3 0x16BD JUMP JUMPDEST SWAP2 POP POP SWAP3 POP SWAP3 POP SWAP3 JUMP JUMPDEST PUSH0 DUP2 MLOAD SWAP1 POP SWAP2 SWAP1 POP JUMP JUMPDEST PUSH0 DUP3 DUP3 MSTORE PUSH1 0x20 DUP3 ADD SWAP1 POP SWAP3 SWAP2 POP POP JUMP JUMPDEST PUSH0 DUP2 SWAP1 POP PUSH1 0x20 DUP3 ADD SWAP1 POP SWAP2 SWAP1 POP JUMP JUMPDEST PUSH3 0x179B DUP2 PUSH3 0x14EA JUMP JUMPDEST DUP3 MSTORE POP POP JUMP JUMPDEST PUSH0 PUSH3 0x17AE DUP4 DUP4 PUSH3 0x1790 JUMP JUMPDEST PUSH1 0x20 DUP4 ADD SWAP1 POP SWAP3 SWAP2 POP POP JUMP JUMPDEST PUSH0 PUSH1 0x20 DUP3 ADD SWAP1 POP SWAP2 SWAP1 POP JUMP JUMPDEST PUSH0 PUSH3 0x17D2 DUP3 PUSH3 0x1767 JUMP JUMPDEST PUSH3 0x17DE DUP2 DUP6 PUSH3 0x1771 JUMP JUMPDEST SWAP4 POP PUSH3 0x17EB DUP4 PUSH3 0x1781 JUMP JUMPDEST DUP1 PUSH0 JUMPDEST DUP4 DUP2 LT ISZERO PUSH3 0x1821 JUMPI DUP2 MLOAD PUSH3 0x1805 DUP9 DUP3 PUSH3 0x17A1 JUMP JUMPDEST SWAP8 POP PUSH3 0x1812 DUP4 PUSH3 0x17BA JUMP JUMPDEST SWAP3 POP POP PUSH1 0x1 DUP2 ADD SWAP1 POP PUSH3 0x17EE JUMP JUMPDEST POP DUP6 SWAP4 POP POP POP POP SWAP3 SWAP2 POP POP JUMP JUMPDEST PUSH0 PUSH1 0x20 DUP3 ADD SWAP1 POP DUP2 DUP2 SUB PUSH0 DUP4 ADD MSTORE PUSH3 0x1848 DUP2 DUP5 PUSH3 0x17C6 JUMP JUMPDEST SWAP1 POP SWAP3 SWAP2 POP POP JUMP JUMPDEST PUSH0 PUSH20 0xFFFFFFFFFFFFFFFFFFFFFFFFFFFFFFFFFFFFFFFF DUP3 AND SWAP1 POP SWAP2 SWAP1 POP JUMP JUMPDEST PUSH0 DUP2 SWAP1 POP SWAP2 SWAP1 POP JUMP JUMPDEST PUSH0 PUSH3 0x1898 PUSH3 0x1892 PUSH3 0x188C DUP5 PUSH3 0x1850 JUMP JUMPDEST PUSH3 0x186F JUMP JUMPDEST PUSH3 0x1850 JUMP JUMPDEST SWAP1 POP SWAP2 SWAP1 POP JUMP JUMPDEST PUSH0 PUSH3 0x18AB DUP3 PUSH3 0x1878 JUMP JUMPDEST SWAP1 POP SWAP2 SWAP1 POP JUMP JUMPDEST PUSH0 PUSH3 0x18BE DUP3 PUSH3 0x189F JUMP JUMPDEST SWAP1 POP SWAP2 SWAP1 POP JUMP JUMPDEST PUSH3 0x18D0 DUP2 PUSH3 0x18B2 JUMP JUMPDEST DUP3 MSTORE POP POP JUMP JUMPDEST PUSH0 PUSH1 0x20 DUP3 ADD SWAP1 POP PUSH3 0x18EB PUSH0 DUP4 ADD DUP5 PUSH3 0x18C5 JUMP JUMPDEST SWAP3 SWAP2 POP POP JUMP JUMPDEST PUSH0 DUP2 ISZERO ISZERO SWAP1 POP SWAP2 SWAP1 POP JUMP JUMPDEST PUSH3 0x1907 DUP2 PUSH3 0x18F1 JUMP JUMPDEST DUP2 EQ PUSH3 0x1912 JUMPI PUSH0 DUP1 REVERT JUMPDEST POP JUMP JUMPDEST PUSH0 DUP2 CALLDATALOAD SWAP1 POP PUSH3 0x1925 DUP2 PUSH3 0x18FC JUMP JUMPDEST SWAP3 SWAP2 POP POP JUMP JUMPDEST PUSH0 DUP1 PUSH0 DUP1 PUSH1 0x80 DUP6 DUP8 SUB SLT ISZERO PUSH3 0x1946 JUMPI PUSH3 0x1945 PUSH3 0x14E2 JUMP JUMPDEST JUMPDEST PUSH0 PUSH3 0x1955 DUP8 DUP3 DUP9 ADD PUSH3 0x150C JUMP JUMPDEST SWAP5 POP POP PUSH1 0x20 PUSH3 0x1968 DUP8 DUP3 DUP9 ADD PUSH3 0x150C JUMP JUMPDEST SWAP4 POP POP PUSH1 0x40 PUSH3 0x197B DUP8 DUP3 DUP9 ADD PUSH3 0x1915 JUMP JUMPDEST SWAP3 POP POP PUSH1 0x60 PUSH3 0x198E DUP8 DUP3 DUP9 ADD PUSH3 0x1915 JUMP JUMPDEST SWAP2 POP POP SWAP3 SWAP6 SWAP2 SWAP5 POP SWAP3 POP JUMP JUMPDEST PUSH0 DUP2 SWAP1 POP SWAP2 SWAP1 POP JUMP JUMPDEST PUSH3 0x19AE DUP2 PUSH3 0x199A JUMP JUMPDEST DUP2 EQ PUSH3 0x19B9 JUMPI PUSH0 DUP1 REVERT JUMPDEST POP JUMP JUMPDEST PUSH0 DUP2 CALLDATALOAD SWAP1 POP PUSH3 0x19CC DUP2 PUSH3 0x19A3 JUMP JUMPDEST SWAP3 SWAP2 POP POP JUMP JUMPDEST PUSH0 DUP1 PUSH1 0x40 DUP4 DUP6 SUB SLT ISZERO PUSH3 0x19EB JUMPI PUSH3 0x19EA PUSH3 0x14E2 JUMP JUMPDEST JUMPDEST PUSH0 PUSH3 0x19FA DUP6 DUP3 DUP7 ADD PUSH3 0x150C JUMP JUMPDEST SWAP3 POP POP PUSH1 0x20 PUSH3 0x1A0D DUP6 DUP3 DUP7 ADD PUSH3 0x19BC JUMP JUMPDEST SWAP2 POP POP SWAP3 POP SWAP3 SWAP1 POP JUMP JUMPDEST PUSH0 DUP3 DUP3 MSTORE PUSH1 0x20 DUP3 ADD SWAP1 POP SWAP3 SWAP2 POP POP JUMP JUMPDEST PUSH32 0x5574656E7465206E6F6E2074726F7661746F0000000000000000000000000000 PUSH0 DUP3 ADD MSTORE POP JUMP JUMPDEST PUSH0 PUSH3 0x1A5D PUSH1 0x12 DUP4 PUSH3 0x1A17 JUMP JUMPDEST SWAP2 POP PUSH3 0x1A6A DUP3 PUSH3 0x1A27 JUMP JUMPDEST PUSH1 0x20 DUP3 ADD SWAP1 POP SWAP2 SWAP1 POP JUMP JUMPDEST PUSH0 PUSH1 0x20 DUP3 ADD SWAP1 POP DUP2 DUP2 SUB PUSH0 DUP4 ADD MSTORE PUSH3 0x1A8E DUP2 PUSH3 0x1A4F JUMP JUMPDEST SWAP1 POP SWAP2 SWAP1 POP JUMP JUMPDEST PUSH32 0x4E487B7100000000000000000000000000000000000000000000000000000000 PUSH0 MSTORE PUSH1 0x32 PUSH1 0x4 MSTORE PUSH1 0x24 PUSH0 REVERT JUMPDEST PUSH0 DUP2 MLOAD SWAP1 POP PUSH3 0x1AD2 DUP2 PUSH3 0x14F3 JUMP JUMPDEST SWAP3 SWAP2 POP POP JUMP JUMPDEST PUSH0 PUSH1 0x20 DUP3 DUP5 SUB SLT ISZERO PUSH3 0x1AF0 JUMPI PUSH3 0x1AEF PUSH3 0x14E2 JUMP JUMPDEST JUMPDEST PUSH0 PUSH3 0x1AFF DUP5 DUP3 DUP6 ADD PUSH3 0x1AC2 JUMP JUMPDEST SWAP2 POP POP SWAP3 SWAP2 POP POP JUMP JUMPDEST PUSH3 0x1B13 DUP2 PUSH3 0x14EA JUMP JUMPDEST DUP3 MSTORE POP POP JUMP JUMPDEST PUSH0 PUSH1 0x20 DUP3 ADD SWAP1 POP PUSH3 0x1B2E PUSH0 DUP4 ADD DUP5 PUSH3 0x1B08 JUMP JUMPDEST SWAP3 SWAP2 POP POP JUMP JUMPDEST PUSH0 DUP2 MLOAD SWAP1 POP SWAP2 SWAP1 POP JUMP JUMPDEST PUSH0 JUMPDEST DUP4 DUP2 LT ISZERO PUSH3 0x1B5D JUMPI DUP1 DUP3 ADD MLOAD DUP2 DUP5 ADD MSTORE PUSH1 0x20 DUP2 ADD SWAP1 POP PUSH3 0x1B40 JUMP JUMPDEST PUSH0 DUP5 DUP5 ADD MSTORE POP POP POP POP JUMP JUMPDEST PUSH0 PUSH3 0x1B74 DUP3 PUSH3 0x1B34 JUMP JUMPDEST PUSH3 0x1B80 DUP2 DUP6 PUSH3 0x1A17 JUMP JUMPDEST SWAP4 POP PUSH3 0x1B92 DUP2 DUP6 PUSH1 0x20 DUP7 ADD PUSH3 0x1B3E JUMP JUMPDEST PUSH3 0x1B9D DUP2 PUSH3 0x159F JUMP JUMPDEST DUP5 ADD SWAP2 POP POP SWAP3 SWAP2 POP POP JUMP JUMPDEST PUSH0 PUSH1 0x40 DUP3 ADD SWAP1 POP PUSH3 0x1BBD PUSH0 DUP4 ADD DUP6 PUSH3 0x1B08 JUMP JUMPDEST DUP2 DUP2 SUB PUSH1 0x20 DUP4 ADD MSTORE PUSH3 0x1BD1 DUP2 DUP5 PUSH3 0x1B68 JUMP JUMPDEST SWAP1 POP SWAP4 SWAP3 POP POP POP JUMP JUMPDEST PUSH0 PUSH8 0xFFFFFFFFFFFFFFFF DUP3 GT ISZERO PUSH3 0x1BF7 JUMPI PUSH3 0x1BF6 PUSH3 0x15AF JUMP JUMPDEST JUMPDEST PUSH1 0x20 DUP3 MUL SWAP1 POP PUSH1 0x20 DUP2 ADD SWAP1 POP SWAP2 SWAP1 POP JUMP JUMPDEST PUSH0 DUP1 REVERT JUMPDEST PUSH0 PUSH3 0x1C22 PUSH3 0x1C1C DUP5 PUSH3 0x1BDA JUMP JUMPDEST PUSH3 0x1612 JUMP JUMPDEST SWAP1 POP DUP1 DUP4 DUP3 MSTORE PUSH1 0x20 DUP3 ADD SWAP1 POP PUSH1 0x20 DUP5 MUL DUP4 ADD DUP6 DUP2 GT ISZERO PUSH3 0x1C48 JUMPI PUSH3 0x1C47 PUSH3 0x1C08 JUMP JUMPDEST JUMPDEST DUP4 JUMPDEST DUP2 DUP2 LT ISZERO PUSH3 0x1C75 JUMPI DUP1 PUSH3 0x1C60 DUP9 DUP3 PUSH3 0x1AC2 JUMP JUMPDEST DUP5 MSTORE PUSH1 0x20 DUP5 ADD SWAP4 POP POP PUSH1 0x20 DUP2 ADD SWAP1 POP PUSH3 0x1C4A JUMP JUMPDEST POP POP POP SWAP4 SWAP3 POP POP POP JUMP JUMPDEST PUSH0 DUP3 PUSH1 0x1F DUP4 ADD SLT PUSH3 0x1C96 JUMPI PUSH3 0x1C95 PUSH3 0x1597 JUMP JUMPDEST JUMPDEST DUP2 MLOAD PUSH3 0x1CA8 DUP5 DUP3 PUSH1 0x20 DUP7 ADD PUSH3 0x1C0C JUMP JUMPDEST SWAP2 POP POP SWAP3 SWAP2 POP POP JUMP JUMPDEST PUSH0 PUSH1 0x20 DUP3 DUP5 SUB SLT ISZERO PUSH3 0x1CC9 JUMPI PUSH3 0x1CC8 PUSH3 0x14E2 JUMP JUMPDEST JUMPDEST PUSH0 DUP3 ADD MLOAD PUSH8 0xFFFFFFFFFFFFFFFF DUP2 GT ISZERO PUSH3 0x1CE9 JUMPI PUSH3 0x1CE8 PUSH3 0x14E6 JUMP JUMPDEST JUMPDEST PUSH3 0x1CF7 DUP5 DUP3 DUP6 ADD PUSH3 0x1C7F JUMP JUMPDEST SWAP2 POP POP SWAP3 SWAP2 POP POP JUMP JUMPDEST PUSH3 0x1D0B DUP2 PUSH3 0x18F1 JUMP JUMPDEST DUP3 MSTORE POP POP JUMP JUMPDEST PUSH0 PUSH1 0x60 DUP3 ADD SWAP1 POP PUSH3 0x1D26 PUSH0 DUP4 ADD DUP7 PUSH3 0x1B08 JUMP JUMPDEST PUSH3 0x1D35 PUSH1 0x20 DUP4 ADD DUP6 PUSH3 0x1D00 JUMP JUMPDEST PUSH3 0x1D44 PUSH1 0x40 DUP4 ADD DUP5 PUSH3 0x1D00 JUMP JUMPDEST SWAP5 SWAP4 POP POP POP POP JUMP JUMPDEST PUSH32 0x5574656E7465206573697374656E746500000000000000000000000000000000 PUSH0 DUP3 ADD MSTORE POP JUMP JUMPDEST PUSH0 PUSH3 0x1D82 PUSH1 0x10 DUP4 PUSH3 0x1A17 JUMP JUMPDEST SWAP2 POP PUSH3 0x1D8F DUP3 PUSH3 0x1D4C JUMP JUMPDEST PUSH1 0x20 DUP3 ADD SWAP1 POP SWAP2 SWAP1 POP JUMP JUMPDEST PUSH0 PUSH1 0x20 DUP3 ADD SWAP1 POP DUP2 DUP2 SUB PUSH0 DUP4 ADD MSTORE PUSH3 0x1DB3 DUP2 PUSH3 0x1D74 JUMP JUMPDEST SWAP1 POP SWAP2 SWAP1 POP JUMP JUMPDEST PUSH3 0x1DC5 DUP2 PUSH3 0x199A JUMP JUMPDEST DUP3 MSTORE POP POP JUMP JUMPDEST PUSH0 PUSH1 0x40 DUP3 ADD SWAP1 POP PUSH3 0x1DE0 PUSH0 DUP4 ADD DUP6 PUSH3 0x1B08 JUMP JUMPDEST PUSH3 0x1DEF PUSH1 0x20 DUP4 ADD DUP5 PUSH3 0x1DBA JUMP JUMPDEST SWAP4 SWAP3 POP POP POP JUMP INVALID PUSH1 0x80 PUSH1 0x40 MSTORE CALLVALUE DUP1 ISZERO PUSH3 0x10 JUMPI PUSH0 DUP1 REVERT JUMPDEST POP PUSH1 0x40 MLOAD PUSH3 0x1112 CODESIZE SUB DUP1 PUSH3 0x1112 DUP4 CODECOPY DUP2 DUP2 ADD PUSH1 0x40 MSTORE DUP2 ADD SWAP1 PUSH3 0x36 SWAP2 SWAP1 PUSH3 0x104 JUMP JUMPDEST DUP2 PUSH0 DUP2 SWAP1 SSTORE POP PUSH1 0x1 DUP1 PUSH0 PUSH2 0x100 EXP DUP2 SLOAD DUP2 PUSH1 0xFF MUL NOT AND SWAP1 DUP4 PUSH1 0x1 DUP2 GT ISZERO PUSH3 0x63 JUMPI PUSH3 0x62 PUSH3 0x149 JUMP JUMPDEST JUMPDEST MUL OR SWAP1 SSTORE POP DUP1 PUSH1 0x4 DUP2 SWAP1 SSTORE POP PUSH0 PUSH1 0x5 PUSH0 PUSH2 0x100 EXP DUP2 SLOAD DUP2 PUSH1 0xFF MUL NOT AND SWAP1 DUP4 ISZERO ISZERO MUL OR SWAP1 SSTORE POP POP POP PUSH3 0x176 JUMP JUMPDEST PUSH0 DUP1 REVERT JUMPDEST PUSH0 DUP2 SWAP1 POP SWAP2 SWAP1 POP JUMP JUMPDEST PUSH3 0xA8 DUP2 PUSH3 0x94 JUMP JUMPDEST DUP2 EQ PUSH3 0xB3 JUMPI PUSH0 DUP1 REVERT JUMPDEST POP JUMP JUMPDEST PUSH0 DUP2 MLOAD SWAP1 POP PUSH3 0xC6 DUP2 PUSH3 0x9D JUMP JUMPDEST SWAP3 SWAP2 POP POP JUMP JUMPDEST PUSH0 DUP2 SWAP1 POP SWAP2 SWAP1 POP JUMP JUMPDEST PUSH3 0xE0 DUP2 PUSH3 0xCC JUMP JUMPDEST DUP2 EQ PUSH3 0xEB JUMPI PUSH0 DUP1 REVERT JUMPDEST POP JUMP JUMPDEST PUSH0 DUP2 MLOAD SWAP1 POP PUSH3 0xFE DUP2 PUSH3 0xD5 JUMP JUMPDEST SWAP3 SWAP2 POP POP JUMP JUMPDEST PUSH0 DUP1 PUSH1 0x40 DUP4 DUP6 SUB SLT ISZERO PUSH3 0x11D JUMPI PUSH3 0x11C PUSH3 0x90 JUMP JUMPDEST JUMPDEST PUSH0 PUSH3 0x12C DUP6 DUP3 DUP7 ADD PUSH3 0xB6 JUMP JUMPDEST SWAP3 POP POP PUSH1 0x20 PUSH3 0x13F DUP6 DUP3 DUP7 ADD PUSH3 0xEE JUMP JUMPDEST SWAP2 POP POP SWAP3 POP SWAP3 SWAP1 POP JUMP JUMPDEST PUSH32 0x4E487B7100000000000000000000000000000000000000000000000000000000 PUSH0 MSTORE PUSH1 0x21 PUSH1 0x4 MSTORE PUSH1 0x24 PUSH0 REVERT JUMPDEST PUSH2 0xF8E DUP1 PUSH3 0x184 PUSH0 CODECOPY PUSH0 RETURN INVALID PUSH1 0x80 PUSH1 0x40 MSTORE CALLVALUE DUP1 ISZERO PUSH2 0xF JUMPI PUSH0 DUP1 REVERT JUMPDEST POP PUSH1 0x4 CALLDATASIZE LT PUSH2 0xCD JUMPI PUSH0 CALLDATALOAD PUSH1 0xE0 SHR DUP1 PUSH4 0x65A6BB29 GT PUSH2 0x8A JUMPI DUP1 PUSH4 0xAC3EF22D GT PUSH2 0x64 JUMPI DUP1 PUSH4 0xAC3EF22D EQ PUSH2 0x1EE JUMPI DUP1 PUSH4 0xB74513C1 EQ PUSH2 0x1F8 JUMPI DUP1 PUSH4 0xE5A72D5B EQ PUSH2 0x216 JUMPI DUP1 PUSH4 0xFC68B3ED EQ PUSH2 0x232 JUMPI PUSH2 0xCD JUMP JUMPDEST DUP1 PUSH4 0x65A6BB29 EQ PUSH2 0x194 JUMPI DUP1 PUSH4 0x84731D6F EQ PUSH2 0x1B2 JUMPI DUP1 PUSH4 0x8CEE71E0 EQ PUSH2 0x1D0 JUMPI PUSH2 0xCD JUMP JUMPDEST DUP1 PUSH4 0x2EBCB653 EQ PUSH2 0xD1 JUMPI DUP1 PUSH4 0x3121924D EQ PUSH2 0xEF JUMPI DUP1 PUSH4 0x35254BCD EQ PUSH2 0x10B JUMPI DUP1 PUSH4 0x38FCBC01 EQ PUSH2 0x115 JUMPI DUP1 PUSH4 0x42BE8CB5 EQ PUSH2 0x131 JUMPI DUP1 PUSH4 0x499BA0AA EQ PUSH2 0x161 JUMPI JUMPDEST PUSH0 DUP1 REVERT JUMPDEST PUSH2 0xD9 PUSH2 0x24E JUMP JUMPDEST PUSH1 0x40 MLOAD PUSH2 0xE6 SWAP2 SWAP1 PUSH2 0x792 JUMP JUMPDEST PUSH1 0x40 MLOAD DUP1 SWAP2 SUB SWAP1 RETURN JUMPDEST PUSH2 0x109 PUSH1 0x4 DUP1 CALLDATASIZE SUB DUP2 ADD SWAP1 PUSH2 0x104 SWAP2 SWAP1 PUSH2 0x922 JUMP JUMPDEST PUSH2 0x256 JUMP JUMPDEST STOP JUMPDEST PUSH2 0x113 PUSH2 0x2D2 JUMP JUMPDEST STOP JUMPDEST PUSH2 0x12F PUSH1 0x4 DUP1 CALLDATASIZE SUB DUP2 ADD SWAP1 PUSH2 0x12A SWAP2 SWAP1 PUSH2 0x9B1 JUMP JUMPDEST PUSH2 0x2EE JUMP JUMPDEST STOP JUMPDEST PUSH2 0x14B PUSH1 0x4 DUP1 CALLDATASIZE SUB DUP2 ADD SWAP1 PUSH2 0x146 SWAP2 SWAP1 PUSH2 0xA01 JUMP JUMPDEST PUSH2 0x3AF JUMP JUMPDEST PUSH1 0x40 MLOAD PUSH2 0x158 SWAP2 SWAP1 PUSH2 0x792 JUMP JUMPDEST PUSH1 0x40 MLOAD DUP1 SWAP2 SUB SWAP1 RETURN JUMPDEST PUSH2 0x17B PUSH1 0x4 DUP1 CALLDATASIZE SUB DUP2 ADD SWAP1 PUSH2 0x176 SWAP2 SWAP1 PUSH2 0xA01 JUMP JUMPDEST PUSH2 0x3D4 JUMP JUMPDEST PUSH1 0x40 MLOAD PUSH2 0x18B SWAP5 SWAP4 SWAP3 SWAP2 SWAP1 PUSH2 0xAB5 JUMP JUMPDEST PUSH1 0x40 MLOAD DUP1 SWAP2 SUB SWAP1 RETURN JUMPDEST PUSH2 0x19C PUSH2 0x4AE JUMP JUMPDEST PUSH1 0x40 MLOAD PUSH2 0x1A9 SWAP2 SWAP1 PUSH2 0xBB6 JUMP JUMPDEST PUSH1 0x40 MLOAD DUP1 SWAP2 SUB SWAP1 RETURN JUMPDEST PUSH2 0x1BA PUSH2 0x563 JUMP JUMPDEST PUSH1 0x40 MLOAD PUSH2 0x1C7 SWAP2 SWAP1 PUSH2 0xC49 JUMP JUMPDEST PUSH1 0x40 MLOAD DUP1 SWAP2 SUB SWAP1 RETURN JUMPDEST PUSH2 0x1D8 PUSH2 0x575 JUMP JUMPDEST PUSH1 0x40 MLOAD PUSH2 0x1E5 SWAP2 SWAP1 PUSH2 0x792 JUMP JUMPDEST PUSH1 0x40 MLOAD DUP1 SWAP2 SUB SWAP1 RETURN JUMPDEST PUSH2 0x1F6 PUSH2 0x57A JUMP JUMPDEST STOP JUMPDEST PUSH2 0x200 PUSH2 0x5A5 JUMP JUMPDEST PUSH1 0x40 MLOAD PUSH2 0x20D SWAP2 SWAP1 PUSH2 0xBB6 JUMP JUMPDEST PUSH1 0x40 MLOAD DUP1 SWAP2 SUB SWAP1 RETURN JUMPDEST PUSH2 0x230 PUSH1 0x4 DUP1 CALLDATASIZE SUB DUP2 ADD SWAP1 PUSH2 0x22B SWAP2 SWAP1 PUSH2 0xA01 JUMP JUMPDEST PUSH2 0x65E JUMP JUMPDEST STOP JUMPDEST PUSH2 0x24C PUSH1 0x4 DUP1 CALLDATASIZE SUB DUP2 ADD SWAP1 PUSH2 0x247 SWAP2 SWAP1 PUSH2 0xA01 JUMP JUMPDEST PUSH2 0x6A2 JUMP JUMPDEST STOP JUMPDEST PUSH0 DUP1 SLOAD SWAP1 POP SWAP1 JUMP JUMPDEST PUSH0 JUMPDEST PUSH1 0x2 DUP1 SLOAD SWAP1 POP DUP2 LT ISZERO PUSH2 0x2CD JUMPI DUP3 PUSH1 0x2 DUP3 DUP2 SLOAD DUP2 LT PUSH2 0x27A JUMPI PUSH2 0x279 PUSH2 0xC62 JUMP JUMPDEST JUMPDEST SWAP1 PUSH0 MSTORE PUSH1 0x20 PUSH0 KECCAK256 SWAP1 PUSH1 0x3 MUL ADD PUSH0 ADD SLOAD SUB PUSH2 0x2C0 JUMPI DUP2 PUSH1 0x2 DUP3 DUP2 SLOAD DUP2 LT PUSH2 0x2A3 JUMPI PUSH2 0x2A2 PUSH2 0xC62 JUMP JUMPDEST JUMPDEST SWAP1 PUSH0 MSTORE PUSH1 0x20 PUSH0 KECCAK256 SWAP1 PUSH1 0x3 MUL ADD PUSH1 0x1 ADD SWAP1 DUP2 PUSH2 0x2BE SWAP2 SWAP1 PUSH2 0xE89 JUMP JUMPDEST POP JUMPDEST DUP1 DUP1 PUSH1 0x1 ADD SWAP2 POP POP PUSH2 0x258 JUMP JUMPDEST POP POP POP JUMP JUMPDEST PUSH1 0x1 PUSH1 0x5 PUSH0 PUSH2 0x100 EXP DUP2 SLOAD DUP2 PUSH1 0xFF MUL NOT AND SWAP1 DUP4 ISZERO ISZERO MUL OR SWAP1 SSTORE POP JUMP JUMPDEST PUSH0 JUMPDEST PUSH1 0x2 DUP1 SLOAD SWAP1 POP DUP2 LT ISZERO PUSH2 0x3A9 JUMPI DUP4 PUSH1 0x2 DUP3 DUP2 SLOAD DUP2 LT PUSH2 0x312 JUMPI PUSH2 0x311 PUSH2 0xC62 JUMP JUMPDEST JUMPDEST SWAP1 PUSH0 MSTORE PUSH1 0x20 PUSH0 KECCAK256 SWAP1 PUSH1 0x3 MUL ADD PUSH0 ADD SLOAD SUB PUSH2 0x39C JUMPI DUP3 PUSH1 0x2 DUP3 DUP2 SLOAD DUP2 LT PUSH2 0x33B JUMPI PUSH2 0x33A PUSH2 0xC62 JUMP JUMPDEST JUMPDEST SWAP1 PUSH0 MSTORE PUSH1 0x20 PUSH0 KECCAK256 SWAP1 PUSH1 0x3 MUL ADD PUSH1 0x2 ADD PUSH0 PUSH2 0x100 EXP DUP2 SLOAD DUP2 PUSH1 0xFF MUL NOT AND SWAP1 DUP4 ISZERO ISZERO MUL OR SWAP1 SSTORE POP DUP2 PUSH1 0x2 DUP3 DUP2 SLOAD DUP2 LT PUSH2 0x375 JUMPI PUSH2 0x374 PUSH2 0xC62 JUMP JUMPDEST JUMPDEST SWAP1 PUSH0 MSTORE PUSH1 0x20 PUSH0 KECCAK256 SWAP1 PUSH1 0x3 MUL ADD PUSH1 0x2 ADD PUSH1 0x1 PUSH2 0x100 EXP DUP2 SLOAD DUP2 PUSH1 0xFF MUL NOT AND SWAP1 DUP4 ISZERO ISZERO MUL OR SWAP1 SSTORE POP JUMPDEST DUP1 DUP1 PUSH1 0x1 ADD SWAP2 POP POP PUSH2 0x2F0 JUMP JUMPDEST POP POP POP POP JUMP JUMPDEST PUSH1 0x3 DUP2 DUP2 SLOAD DUP2 LT PUSH2 0x3BE JUMPI PUSH0 DUP1 REVERT JUMPDEST SWAP1 PUSH0 MSTORE PUSH1 0x20 PUSH0 KECCAK256 ADD PUSH0 SWAP2 POP SWAP1 POP DUP1 PUSH0 ADD SLOAD SWAP1 POP DUP2 JUMP JUMPDEST PUSH1 0x2 DUP2 DUP2 SLOAD DUP2 LT PUSH2 0x3E3 JUMPI PUSH0 DUP1 REVERT JUMPDEST SWAP1 PUSH0 MSTORE PUSH1 0x20 PUSH0 KECCAK256 SWAP1 PUSH1 0x3 MUL ADD PUSH0 SWAP2 POP SWAP1 POP DUP1 PUSH0 ADD SLOAD SWAP1 DUP1 PUSH1 0x1 ADD DUP1 SLOAD PUSH2 0x408 SWAP1 PUSH2 0xCBC JUMP JUMPDEST DUP1 PUSH1 0x1F ADD PUSH1 0x20 DUP1 SWAP2 DIV MUL PUSH1 0x20 ADD PUSH1 0x40 MLOAD SWAP1 DUP2 ADD PUSH1 0x40 MSTORE DUP1 SWAP3 SWAP2 SWAP1 DUP2 DUP2 MSTORE PUSH1 0x20 ADD DUP3 DUP1 SLOAD PUSH2 0x434 SWAP1 PUSH2 0xCBC JUMP JUMPDEST DUP1 ISZERO PUSH2 0x47F JUMPI DUP1 PUSH1 0x1F LT PUSH2 0x456 JUMPI PUSH2 0x100 DUP1 DUP4 SLOAD DIV MUL DUP4 MSTORE SWAP2 PUSH1 0x20 ADD SWAP2 PUSH2 0x47F JUMP JUMPDEST DUP3 ADD SWAP2 SWAP1 PUSH0 MSTORE PUSH1 0x20 PUSH0 KECCAK256 SWAP1 JUMPDEST DUP2 SLOAD DUP2 MSTORE SWAP1 PUSH1 0x1 ADD SWAP1 PUSH1 0x20 ADD DUP1 DUP4 GT PUSH2 0x462 JUMPI DUP3 SWAP1 SUB PUSH1 0x1F AND DUP3 ADD SWAP2 JUMPDEST POP POP POP POP POP SWAP1 DUP1 PUSH1 0x2 ADD PUSH0 SWAP1 SLOAD SWAP1 PUSH2 0x100 EXP SWAP1 DIV PUSH1 0xFF AND SWAP1 DUP1 PUSH1 0x2 ADD PUSH1 0x1 SWAP1 SLOAD SWAP1 PUSH2 0x100 EXP SWAP1 DIV PUSH1 0xFF AND SWAP1 POP DUP5 JUMP JUMPDEST PUSH1 0x60 PUSH0 PUSH1 0x3 DUP1 SLOAD SWAP1 POP PUSH8 0xFFFFFFFFFFFFFFFF DUP2 GT ISZERO PUSH2 0x4D0 JUMPI PUSH2 0x4CF PUSH2 0x7FE JUMP JUMPDEST JUMPDEST PUSH1 0x40 MLOAD SWAP1 DUP1 DUP3 MSTORE DUP1 PUSH1 0x20 MUL PUSH1 0x20 ADD DUP3 ADD PUSH1 0x40 MSTORE DUP1 ISZERO PUSH2 0x4FE JUMPI DUP2 PUSH1 0x20 ADD PUSH1 0x20 DUP3 MUL DUP1 CALLDATASIZE DUP4 CALLDATACOPY DUP1 DUP3 ADD SWAP2 POP POP SWAP1 POP JUMPDEST POP SWAP1 POP PUSH0 JUMPDEST PUSH1 0x3 DUP1 SLOAD SWAP1 POP DUP2 LT ISZERO PUSH2 0x55B JUMPI PUSH1 0x3 DUP2 DUP2 SLOAD DUP2 LT PUSH2 0x524 JUMPI PUSH2 0x523 PUSH2 0xC62 JUMP JUMPDEST JUMPDEST SWAP1 PUSH0 MSTORE PUSH1 0x20 PUSH0 KECCAK256 ADD PUSH0 ADD SLOAD DUP3 DUP3 DUP2 MLOAD DUP2 LT PUSH2 0x542 JUMPI PUSH2 0x541 PUSH2 0xC62 JUMP JUMPDEST JUMPDEST PUSH1 0x20 MUL PUSH1 0x20 ADD ADD DUP2 DUP2 MSTORE POP POP DUP1 DUP1 PUSH1 0x1 ADD SWAP2 POP POP PUSH2 0x503 JUMP JUMPDEST POP DUP1 SWAP2 POP POP SWAP1 JUMP JUMPDEST PUSH1 0x1 PUSH0 SWAP1 SLOAD SWAP1 PUSH2 0x100 EXP SWAP1 DIV PUSH1 0xFF AND DUP2 JUMP JUMPDEST PUSH0 SLOAD DUP2 JUMP JUMPDEST PUSH0 PUSH1 0x1 PUSH0 PUSH2 0x100 EXP DUP2 SLOAD DUP2 PUSH1 0xFF MUL NOT AND SWAP1 DUP4 PUSH1 0x1 DUP2 GT ISZERO PUSH2 0x59E JUMPI PUSH2 0x59D PUSH2 0xBD6 JUMP JUMPDEST JUMPDEST MUL OR SWAP1 SSTORE POP JUMP JUMPDEST PUSH1 0x60 PUSH0 PUSH1 0x2 DUP1 SLOAD SWAP1 POP PUSH8 0xFFFFFFFFFFFFFFFF DUP2 GT ISZERO PUSH2 0x5C7 JUMPI PUSH2 0x5C6 PUSH2 0x7FE JUMP JUMPDEST JUMPDEST PUSH1 0x40 MLOAD SWAP1 DUP1 DUP3 MSTORE DUP1 PUSH1 0x20 MUL PUSH1 0x20 ADD DUP3 ADD PUSH1 0x40 MSTORE DUP1 ISZERO PUSH2 0x5F5 JUMPI DUP2 PUSH1 0x20 ADD PUSH1 0x20 DUP3 MUL DUP1 CALLDATASIZE DUP4 CALLDATACOPY DUP1 DUP3 ADD SWAP2 POP POP SWAP1 POP JUMPDEST POP SWAP1 POP PUSH0 JUMPDEST PUSH1 0x2 DUP1 SLOAD SWAP1 POP DUP2 LT ISZERO PUSH2 0x656 JUMPI PUSH1 0x2 DUP2 DUP2 SLOAD DUP2 LT PUSH2 0x61B JUMPI PUSH2 0x61A PUSH2 0xC62 JUMP JUMPDEST JUMPDEST SWAP1 PUSH0 MSTORE PUSH1 0x20 PUSH0 KECCAK256 SWAP1 PUSH1 0x3 MUL ADD PUSH0 ADD SLOAD DUP3 DUP3 DUP2 MLOAD DUP2 LT PUSH2 0x63D JUMPI PUSH2 0x63C PUSH2 0xC62 JUMP JUMPDEST JUMPDEST PUSH1 0x20 MUL PUSH1 0x20 ADD ADD DUP2 DUP2 MSTORE POP POP DUP1 DUP1 PUSH1 0x1 ADD SWAP2 POP POP PUSH2 0x5FA JUMP JUMPDEST POP DUP1 SWAP2 POP POP SWAP1 JUMP JUMPDEST PUSH2 0x666 PUSH2 0x73F JUMP JUMPDEST DUP2 DUP2 PUSH0 ADD DUP2 DUP2 MSTORE POP POP PUSH1 0x3 DUP2 SWAP1 DUP1 PUSH1 0x1 DUP2 SLOAD ADD DUP1 DUP3 SSTORE DUP1 SWAP2 POP POP PUSH1 0x1 SWAP1 SUB SWAP1 PUSH0 MSTORE PUSH1 0x20 PUSH0 KECCAK256 ADD PUSH0 SWAP1 SWAP2 SWAP1 SWAP2 SWAP1 SWAP2 POP PUSH0 DUP3 ADD MLOAD DUP2 PUSH0 ADD SSTORE POP POP POP POP JUMP JUMPDEST PUSH2 0x6AA PUSH2 0x751 JUMP JUMPDEST DUP2 DUP2 PUSH0 ADD DUP2 DUP2 MSTORE POP POP PUSH1 0x2 DUP2 SWAP1 DUP1 PUSH1 0x1 DUP2 SLOAD ADD DUP1 DUP3 SSTORE DUP1 SWAP2 POP POP PUSH1 0x1 SWAP1 SUB SWAP1 PUSH0 MSTORE PUSH1 0x20 PUSH0 KECCAK256 SWAP1 PUSH1 0x3 MUL ADD PUSH0 SWAP1 SWAP2 SWAP1 SWAP2 SWAP1 SWAP2 POP PUSH0 DUP3 ADD MLOAD DUP2 PUSH0 ADD SSTORE PUSH1 0x20 DUP3 ADD MLOAD DUP2 PUSH1 0x1 ADD SWAP1 DUP2 PUSH2 0x6F9 SWAP2 SWAP1 PUSH2 0xE89 JUMP JUMPDEST POP PUSH1 0x40 DUP3 ADD MLOAD DUP2 PUSH1 0x2 ADD PUSH0 PUSH2 0x100 EXP DUP2 SLOAD DUP2 PUSH1 0xFF MUL NOT AND SWAP1 DUP4 ISZERO ISZERO MUL OR SWAP1 SSTORE POP PUSH1 0x60 DUP3 ADD MLOAD DUP2 PUSH1 0x2 ADD PUSH1 0x1 PUSH2 0x100 EXP DUP2 SLOAD DUP2 PUSH1 0xFF MUL NOT AND SWAP1 DUP4 ISZERO ISZERO MUL OR SWAP1 SSTORE POP POP POP POP POP JUMP JUMPDEST PUSH1 0x40 MLOAD DUP1 PUSH1 0x20 ADD PUSH1 0x40 MSTORE DUP1 PUSH0 DUP2 MSTORE POP SWAP1 JUMP JUMPDEST PUSH1 0x40 MLOAD DUP1 PUSH1 0x80 ADD PUSH1 0x40 MSTORE DUP1 PUSH0 DUP2 MSTORE PUSH1 0x20 ADD PUSH1 0x60 DUP2 MSTORE PUSH1 0x20 ADD PUSH0 ISZERO ISZERO DUP2 MSTORE PUSH1 0x20 ADD PUSH0 ISZERO ISZERO DUP2 MSTORE POP SWAP1 JUMP JUMPDEST PUSH0 DUP2 SWAP1 POP SWAP2 SWAP1 POP JUMP JUMPDEST PUSH2 0x78C DUP2 PUSH2 0x77A JUMP JUMPDEST DUP3 MSTORE POP POP JUMP JUMPDEST PUSH0 PUSH1 0x20 DUP3 ADD SWAP1 POP PUSH2 0x7A5 PUSH0 DUP4 ADD DUP5 PUSH2 0x783 JUMP JUMPDEST SWAP3 SWAP2 POP POP JUMP JUMPDEST PUSH0 PUSH1 0x40 MLOAD SWAP1 POP SWAP1 JUMP JUMPDEST PUSH0 DUP1 REVERT JUMPDEST PUSH0 DUP1 REVERT JUMPDEST PUSH2 0x7C5 DUP2 PUSH2 0x77A JUMP JUMPDEST DUP2 EQ PUSH2 0x7CF JUMPI PUSH0 DUP1 REVERT JUMPDEST POP JUMP JUMPDEST PUSH0 DUP2 CALLDATALOAD SWAP1 POP PUSH2 0x7E0 DUP2 PUSH2 0x7BC JUMP JUMPDEST SWAP3 SWAP2 POP POP JUMP JUMPDEST PUSH0 DUP1 REVERT JUMPDEST PUSH0 DUP1 REVERT JUMPDEST PUSH0 PUSH1 0x1F NOT PUSH1 0x1F DUP4 ADD AND SWAP1 POP SWAP2 SWAP1 POP JUMP JUMPDEST PUSH32 0x4E487B7100000000000000000000000000000000000000000000000000000000 PUSH0 MSTORE PUSH1 0x41 PUSH1 0x4 MSTORE PUSH1 0x24 PUSH0 REVERT JUMPDEST PUSH2 0x834 DUP3 PUSH2 0x7EE JUMP JUMPDEST DUP2 ADD DUP2 DUP2 LT PUSH8 0xFFFFFFFFFFFFFFFF DUP3 GT OR ISZERO PUSH2 0x853 JUMPI PUSH2 0x852 PUSH2 0x7FE JUMP JUMPDEST JUMPDEST DUP1 PUSH1 0x40 MSTORE POP POP POP JUMP JUMPDEST PUSH0 PUSH2 0x865 PUSH2 0x7AB JUMP JUMPDEST SWAP1 POP PUSH2 0x871 DUP3 DUP3 PUSH2 0x82B JUMP JUMPDEST SWAP2 SWAP1 POP JUMP JUMPDEST PUSH0 PUSH8 0xFFFFFFFFFFFFFFFF DUP3 GT ISZERO PUSH2 0x890 JUMPI PUSH2 0x88F PUSH2 0x7FE JUMP JUMPDEST JUMPDEST PUSH2 0x899 DUP3 PUSH2 0x7EE JUMP JUMPDEST SWAP1 POP PUSH1 0x20 DUP2 ADD SWAP1 POP SWAP2 SWAP1 POP JUMP JUMPDEST DUP3 DUP2 DUP4 CALLDATACOPY PUSH0 DUP4 DUP4 ADD MSTORE POP POP POP JUMP JUMPDEST PUSH0 PUSH2 0x8C6 PUSH2 0x8C1 DUP5 PUSH2 0x876 JUMP JUMPDEST PUSH2 0x85C JUMP JUMPDEST SWAP1 POP DUP3 DUP2 MSTORE PUSH1 0x20 DUP2 ADD DUP5 DUP5 DUP5 ADD GT ISZERO PUSH2 0x8E2 JUMPI PUSH2 0x8E1 PUSH2 0x7EA JUMP JUMPDEST JUMPDEST PUSH2 0x8ED DUP5 DUP3 DUP6 PUSH2 0x8A6 JUMP JUMPDEST POP SWAP4 SWAP3 POP POP POP JUMP JUMPDEST PUSH0 DUP3 PUSH1 0x1F DUP4 ADD SLT PUSH2 0x909 JUMPI PUSH2 0x908 PUSH2 0x7E6 JUMP JUMPDEST JUMPDEST DUP2 CALLDATALOAD PUSH2 0x919 DUP5 DUP3 PUSH1 0x20 DUP7 ADD PUSH2 0x8B4 JUMP JUMPDEST SWAP2 POP POP SWAP3 SWAP2 POP POP JUMP JUMPDEST PUSH0 DUP1 PUSH1 0x40 DUP4 DUP6 SUB SLT ISZERO PUSH2 0x938 JUMPI PUSH2 0x937 PUSH2 0x7B4 JUMP JUMPDEST JUMPDEST PUSH0 PUSH2 0x945 DUP6 DUP3 DUP7 ADD PUSH2 0x7D2 JUMP JUMPDEST SWAP3 POP POP PUSH1 0x20 DUP4 ADD CALLDATALOAD PUSH8 0xFFFFFFFFFFFFFFFF DUP2 GT ISZERO PUSH2 0x966 JUMPI PUSH2 0x965 PUSH2 0x7B8 JUMP JUMPDEST JUMPDEST PUSH2 0x972 DUP6 DUP3 DUP7 ADD PUSH2 0x8F5 JUMP JUMPDEST SWAP2 POP POP SWAP3 POP SWAP3 SWAP1 POP JUMP JUMPDEST PUSH0 DUP2 ISZERO ISZERO SWAP1 POP SWAP2 SWAP1 POP JUMP JUMPDEST PUSH2 0x990 DUP2 PUSH2 0x97C JUMP JUMPDEST DUP2 EQ PUSH2 0x99A JUMPI PUSH0 DUP1 REVERT JUMPDEST POP JUMP JUMPDEST PUSH0 DUP2 CALLDATALOAD SWAP1 POP PUSH2 0x9AB DUP2 PUSH2 0x987 JUMP JUMPDEST SWAP3 SWAP2 POP POP JUMP JUMPDEST PUSH0 DUP1 PUSH0 PUSH1 0x60 DUP5 DUP7 SUB SLT ISZERO PUSH2 0x9C8 JUMPI PUSH2 0x9C7 PUSH2 0x7B4 JUMP JUMPDEST JUMPDEST PUSH0 PUSH2 0x9D5 DUP7 DUP3 DUP8 ADD PUSH2 0x7D2 JUMP JUMPDEST SWAP4 POP POP PUSH1 0x20 PUSH2 0x9E6 DUP7 DUP3 DUP8 ADD PUSH2 0x99D JUMP JUMPDEST SWAP3 POP POP PUSH1 0x40 PUSH2 0x9F7 DUP7 DUP3 DUP8 ADD PUSH2 0x99D JUMP JUMPDEST SWAP2 POP POP SWAP3 POP SWAP3 POP SWAP3 JUMP JUMPDEST PUSH0 PUSH1 0x20 DUP3 DUP5 SUB SLT ISZERO PUSH2 0xA16 JUMPI PUSH2 0xA15 PUSH2 0x7B4 JUMP JUMPDEST JUMPDEST PUSH0 PUSH2 0xA23 DUP5 DUP3 DUP6 ADD PUSH2 0x7D2 JUMP JUMPDEST SWAP2 POP POP SWAP3 SWAP2 POP POP JUMP JUMPDEST PUSH0 DUP2 MLOAD SWAP1 POP SWAP2 SWAP1 POP JUMP JUMPDEST PUSH0 DUP3 DUP3 MSTORE PUSH1 0x20 DUP3 ADD SWAP1 POP SWAP3 SWAP2 POP POP JUMP JUMPDEST PUSH0 JUMPDEST DUP4 DUP2 LT ISZERO PUSH2 0xA63 JUMPI DUP1 DUP3 ADD MLOAD DUP2 DUP5 ADD MSTORE PUSH1 0x20 DUP2 ADD SWAP1 POP PUSH2 0xA48 JUMP JUMPDEST PUSH0 DUP5 DUP5 ADD MSTORE POP POP POP POP JUMP JUMPDEST PUSH0 PUSH2 0xA78 DUP3 PUSH2 0xA2C JUMP JUMPDEST PUSH2 0xA82 DUP2 DUP6 PUSH2 0xA36 JUMP JUMPDEST SWAP4 POP PUSH2 0xA92 DUP2 DUP6 PUSH1 0x20 DUP7 ADD PUSH2 0xA46 JUMP JUMPDEST PUSH2 0xA9B DUP2 PUSH2 0x7EE JUMP JUMPDEST DUP5 ADD SWAP2 POP POP SWAP3 SWAP2 POP POP JUMP JUMPDEST PUSH2 0xAAF DUP2 PUSH2 0x97C JUMP JUMPDEST DUP3 MSTORE POP POP JUMP JUMPDEST PUSH0 PUSH1 0x80 DUP3 ADD SWAP1 POP PUSH2 0xAC8 PUSH0 DUP4 ADD DUP8 PUSH2 0x783 JUMP JUMPDEST DUP2 DUP2 SUB PUSH1 0x20 DUP4 ADD MSTORE PUSH2 0xADA DUP2 DUP7 PUSH2 0xA6E JUMP JUMPDEST SWAP1 POP PUSH2 0xAE9 PUSH1 0x40 DUP4 ADD DUP6 PUSH2 0xAA6 JUMP JUMPDEST PUSH2 0xAF6 PUSH1 0x60 DUP4 ADD DUP5 PUSH2 0xAA6 JUMP JUMPDEST SWAP6 SWAP5 POP POP POP POP POP JUMP JUMPDEST PUSH0 DUP2 MLOAD SWAP1 POP SWAP2 SWAP1 POP JUMP JUMPDEST PUSH0 DUP3 DUP3 MSTORE PUSH1 0x20 DUP3 ADD SWAP1 POP SWAP3 SWAP2 POP POP JUMP JUMPDEST PUSH0 DUP2 SWAP1 POP PUSH1 0x20 DUP3 ADD SWAP1 POP SWAP2 SWAP1 POP JUMP JUMPDEST PUSH2 0xB31 DUP2 PUSH2 0x77A JUMP JUMPDEST DUP3 MSTORE POP POP JUMP JUMPDEST PUSH0 PUSH2 0xB42 DUP4 DUP4 PUSH2 0xB28 JUMP JUMPDEST PUSH1 0x20 DUP4 ADD SWAP1 POP SWAP3 SWAP2 POP POP JUMP JUMPDEST PUSH0 PUSH1 0x20 DUP3 ADD SWAP1 POP SWAP2 SWAP1 POP JUMP JUMPDEST PUSH0 PUSH2 0xB64 DUP3 PUSH2 0xAFF JUMP JUMPDEST PUSH2 0xB6E DUP2 DUP6 PUSH2 0xB09 JUMP JUMPDEST SWAP4 POP PUSH2 0xB79 DUP4 PUSH2 0xB19 JUMP JUMPDEST DUP1 PUSH0 JUMPDEST DUP4 DUP2 LT ISZERO PUSH2 0xBA9 JUMPI DUP2 MLOAD PUSH2 0xB90 DUP9 DUP3 PUSH2 0xB37 JUMP JUMPDEST SWAP8 POP PUSH2 0xB9B DUP4 PUSH2 0xB4E JUMP JUMPDEST SWAP3 POP POP PUSH1 0x1 DUP2 ADD SWAP1 POP PUSH2 0xB7C JUMP JUMPDEST POP DUP6 SWAP4 POP POP POP POP SWAP3 SWAP2 POP POP JUMP JUMPDEST PUSH0 PUSH1 0x20 DUP3 ADD SWAP1 POP DUP2 DUP2 SUB PUSH0 DUP4 ADD MSTORE PUSH2 0xBCE DUP2 DUP5 PUSH2 0xB5A JUMP JUMPDEST SWAP1 POP SWAP3 SWAP2 POP POP JUMP JUMPDEST PUSH32 0x4E487B7100000000000000000000000000000000000000000000000000000000 PUSH0 MSTORE PUSH1 0x21 PUSH1 0x4 MSTORE PUSH1 0x24 PUSH0 REVERT JUMPDEST PUSH1 0x2 DUP2 LT PUSH2 0xC14 JUMPI PUSH2 0xC13 PUSH2 0xBD6 JUMP JUMPDEST JUMPDEST POP JUMP JUMPDEST PUSH0 DUP2 SWAP1 POP PUSH2 0xC24 DUP3 PUSH2 0xC03 JUMP JUMPDEST SWAP2 SWAP1 POP JUMP JUMPDEST PUSH0 PUSH2 0xC33 DUP3 PUSH2 0xC17 JUMP JUMPDEST SWAP1 POP SWAP2 SWAP1 POP JUMP JUMPDEST PUSH2 0xC43 DUP2 PUSH2 0xC29 JUMP JUMPDEST DUP3 MSTORE POP POP JUMP JUMPDEST PUSH0 PUSH1 0x20 DUP3 ADD SWAP1 POP PUSH2 0xC5C PUSH0 DUP4 ADD DUP5 PUSH2 0xC3A JUMP JUMPDEST SWAP3 SWAP2 POP POP JUMP JUMPDEST PUSH32 0x4E487B7100000000000000000000000000000000000000000000000000000000 PUSH0 MSTORE PUSH1 0x32 PUSH1 0x4 MSTORE PUSH1 0x24 PUSH0 REVERT JUMPDEST PUSH32 0x4E487B7100000000000000000000000000000000000000000000000000000000 PUSH0 MSTORE PUSH1 0x22 PUSH1 0x4 MSTORE PUSH1 0x24 PUSH0 REVERT JUMPDEST PUSH0 PUSH1 0x2 DUP3 DIV SWAP1 POP PUSH1 0x1 DUP3 AND DUP1 PUSH2 0xCD3 JUMPI PUSH1 0x7F DUP3 AND SWAP2 POP JUMPDEST PUSH1 0x20 DUP3 LT DUP2 SUB PUSH2 0xCE6 JUMPI PUSH2 0xCE5 PUSH2 0xC8F JUMP JUMPDEST JUMPDEST POP SWAP2 SWAP1 POP JUMP JUMPDEST PUSH0 DUP2 SWAP1 POP DUP2 PUSH0 MSTORE PUSH1 0x20 PUSH0 KECCAK256 SWAP1 POP SWAP2 SWAP1 POP JUMP JUMPDEST PUSH0 PUSH1 0x20 PUSH1 0x1F DUP4 ADD DIV SWAP1 POP SWAP2 SWAP1 POP JUMP JUMPDEST PUSH0 DUP3 DUP3 SHL SWAP1 POP SWAP3 SWAP2 POP POP JUMP JUMPDEST PUSH0 PUSH1 0x8 DUP4 MUL PUSH2 0xD48 PUSH32 0xFFFFFFFFFFFFFFFFFFFFFFFFFFFFFFFFFFFFFFFFFFFFFFFFFFFFFFFFFFFFFFFF DUP3 PUSH2 0xD0D JUMP JUMPDEST PUSH2 0xD52 DUP7 DUP4 PUSH2 0xD0D JUMP JUMPDEST SWAP6 POP DUP1 NOT DUP5 AND SWAP4 POP DUP1 DUP7 AND DUP5 OR SWAP3 POP POP POP SWAP4 SWAP3 POP POP POP JUMP JUMPDEST PUSH0 DUP2 SWAP1 POP SWAP2 SWAP1 POP JUMP JUMPDEST PUSH0 PUSH2 0xD8D PUSH2 0xD88 PUSH2 0xD83 DUP5 PUSH2 0x77A JUMP JUMPDEST PUSH2 0xD6A JUMP JUMPDEST PUSH2 0x77A JUMP JUMPDEST SWAP1 POP SWAP2 SWAP1 POP JUMP JUMPDEST PUSH0 DUP2 SWAP1 POP SWAP2 SWAP1 POP JUMP JUMPDEST PUSH2 0xDA6 DUP4 PUSH2 0xD73 JUMP JUMPDEST PUSH2 0xDBA PUSH2 0xDB2 DUP3 PUSH2 0xD94 JUMP JUMPDEST DUP5 DUP5 SLOAD PUSH2 0xD19 JUMP JUMPDEST DUP3 SSTORE POP POP POP POP JUMP JUMPDEST PUSH0 SWAP1 JUMP JUMPDEST PUSH2 0xDCE PUSH2 0xDC2 JUMP JUMPDEST PUSH2 0xDD9 DUP2 DUP5 DUP5 PUSH2 0xD9D JUMP JUMPDEST POP POP POP JUMP JUMPDEST JUMPDEST DUP2 DUP2 LT ISZERO PUSH2 0xDFC JUMPI PUSH2 0xDF1 PUSH0 DUP3 PUSH2 0xDC6 JUMP JUMPDEST PUSH1 0x1 DUP2 ADD SWAP1 POP PUSH2 0xDDF JUMP JUMPDEST POP POP JUMP JUMPDEST PUSH1 0x1F DUP3 GT ISZERO PUSH2 0xE41 JUMPI PUSH2 0xE12 DUP2 PUSH2 0xCEC JUMP JUMPDEST PUSH2 0xE1B DUP5 PUSH2 0xCFE JUMP JUMPDEST DUP2 ADD PUSH1 0x20 DUP6 LT ISZERO PUSH2 0xE2A JUMPI DUP2 SWAP1 POP JUMPDEST PUSH2 0xE3E PUSH2 0xE36 DUP6 PUSH2 0xCFE JUMP JUMPDEST DUP4 ADD DUP3 PUSH2 0xDDE JUMP JUMPDEST POP POP JUMPDEST POP POP POP JUMP JUMPDEST PUSH0 DUP3 DUP3 SHR SWAP1 POP SWAP3 SWAP2 POP POP JUMP JUMPDEST PUSH0 PUSH2 0xE61 PUSH0 NOT DUP5 PUSH1 0x8 MUL PUSH2 0xE46 JUMP JUMPDEST NOT DUP1 DUP4 AND SWAP2 POP POP SWAP3 SWAP2 POP POP JUMP JUMPDEST PUSH0 PUSH2 0xE79 DUP4 DUP4 PUSH2 0xE52 JUMP JUMPDEST SWAP2 POP DUP3 PUSH1 0x2 MUL DUP3 OR SWAP1 POP SWAP3 SWAP2 POP POP JUMP JUMPDEST PUSH2 0xE92 DUP3 PUSH2 0xA2C JUMP JUMPDEST PUSH8 0xFFFFFFFFFFFFFFFF DUP2 GT ISZERO PUSH2 0xEAB JUMPI PUSH2 0xEAA PUSH2 0x7FE JUMP JUMPDEST JUMPDEST PUSH2 0xEB5 DUP3 SLOAD PUSH2 0xCBC JUMP JUMPDEST PUSH2 0xEC0 DUP3 DUP3 DUP6 PUSH2 0xE00 JUMP JUMPDEST PUSH0 PUSH1 0x20 SWAP1 POP PUSH1 0x1F DUP4 GT PUSH1 0x1 DUP2 EQ PUSH2 0xEF1 JUMPI PUSH0 DUP5 ISZERO PUSH2 0xEDF JUMPI DUP3 DUP8 ADD MLOAD SWAP1 POP JUMPDEST PUSH2 0xEE9 DUP6 DUP3 PUSH2 0xE6E JUMP JUMPDEST DUP7 SSTORE POP PUSH2 0xF50 JUMP JUMPDEST PUSH1 0x1F NOT DUP5 AND PUSH2 0xEFF DUP7 PUSH2 0xCEC JUMP JUMPDEST PUSH0 JUMPDEST DUP3 DUP2 LT ISZERO PUSH2 0xF26 JUMPI DUP5 DUP10 ADD MLOAD DUP3 SSTORE PUSH1 0x1 DUP3 ADD SWAP2 POP PUSH1 0x20 DUP6 ADD SWAP5 POP PUSH1 0x20 DUP2 ADD SWAP1 POP PUSH2 0xF01 JUMP JUMPDEST DUP7 DUP4 LT ISZERO PUSH2 0xF43 JUMPI DUP5 DUP10 ADD MLOAD PUSH2 0xF3F PUSH1 0x1F DUP10 AND DUP3 PUSH2 0xE52 JUMP JUMPDEST DUP4 SSTORE POP JUMPDEST PUSH1 0x1 PUSH1 0x2 DUP9 MUL ADD DUP9 SSTORE POP POP POP JUMPDEST POP POP POP POP POP POP JUMP INVALID LOG2 PUSH5 0x6970667358 0x22 SLT KECCAK256 0x2A EXTCODEHASH PUSH10 0x19CF6CA988309A3AAC45 0xC1 0xEC SMOD 0xA9 CODECOPY SHR 0xF9 0x2F 0xCA PUSH29 0x76AFADBA90CF4148F264736F6C63430008160033A26469706673582212 KECCAK256 DUP13 0xDE PUSH3 0x4A07F3 0xBA 0xB3 GAS CALLER PUSH25 0xB5D82AC1C4AD3F1DCEDB93E223E0B6573A22383DA164736F6C PUSH4 0x43000816 STOP CALLER "
				},
				"gasEstimates": {
					"creation": {
						"codeDepositCost": "2418800",
						"executionCost": "2596",
						"totalCost": "2421396"
					},
					"external": {
						"addNewOracle(uint256,uint256)": "infinite",
						"addNewRecipient(uint256,uint256)": "infinite",
						"closeUserContractNotify(uint256)": "infinite",
						"createNewUserContract(uint256,bytes32)": "infinite",
						"getAllOracles(uint256)": "infinite",
						"getAllRecipients(uint256)": "infinite",
						"getAllUsers()": "infinite",
						"recipientResponse(uint256,uint256,bool,bool)": "infinite",
						"updateTimestamp(uint256,uint256,string)": "infinite",
						"userDeathNotify(uint256)": "infinite",
						"users_list(uint256)": "infinite"
					},
					"internal": {
						"isUserExist(uint256)": "infinite"
					}
				},
				"methodIdentifiers": {
					"addNewOracle(uint256,uint256)": "2661317e",
					"addNewRecipient(uint256,uint256)": "1440a7f2",
					"closeUserContractNotify(uint256)": "eb9cbe7a",
					"createNewUserContract(uint256,bytes32)": "d773f772",
					"getAllOracles(uint256)": "9efb6289",
					"getAllRecipients(uint256)": "fcd6704c",
					"getAllUsers()": "e2842d79",
					"recipientResponse(uint256,uint256,bool,bool)": "d43b8fab",
					"updateTimestamp(uint256,uint256,string)": "990b4ec5",
					"userDeathNotify(uint256)": "947fd5c3",
					"users_list(uint256)": "a32da9d1"
				}
			},
			"storageLayout": {
				"storage": [
					{
						"astId": 302,
						"contract": "Lincloud/.deps/contract/contract.sol:lincloud_contract",
						"label": "users_list",
						"offset": 0,
						"slot": "0",
						"type": "t_array(t_contract(user)295)dyn_storage"
					}
				],
				"types": {
					"t_array(t_contract(user)295)dyn_storage": {
						"base": "t_contract(user)295",
						"encoding": "dynamic_array",
						"label": "contract user[]",
						"numberOfBytes": "32"
					},
					"t_contract(user)295": {
						"encoding": "inplace",
						"label": "contract user",
						"numberOfBytes": "20"
					}
				}
			},
			"userdoc": {
				"kind": "user",
				"methods": {},
				"version": 1
			}
		}
	}
}